{
  "_format": "hh-sol-artifact-1",
  "contractName": "ActivePool",
  "sourceName": "contracts/ActivePool.sol",
  "abi": [
    {
      "anonymous": false,
      "inputs": [
        {
          "indexed": false,
          "internalType": "address",
          "name": "_newActivePoolAddress",
          "type": "address"
        }
      ],
      "name": "ActivePoolAddressChanged",
      "type": "event"
    },
    {
      "anonymous": false,
      "inputs": [
        {
          "indexed": false,
          "internalType": "uint256",
          "name": "_ETH",
          "type": "uint256"
        }
      ],
      "name": "ActivePoolETHBalanceUpdated",
      "type": "event"
    },
    {
      "anonymous": false,
      "inputs": [
        {
          "indexed": false,
          "internalType": "uint256",
          "name": "_LUSDDebt",
          "type": "uint256"
        }
      ],
      "name": "ActivePoolLUSDDebtUpdated",
      "type": "event"
    },
    {
      "anonymous": false,
      "inputs": [
        {
          "indexed": false,
          "internalType": "address",
          "name": "_newBorrowerOperationsAddress",
          "type": "address"
        }
      ],
      "name": "BorrowerOperationsAddressChanged",
      "type": "event"
    },
    {
      "anonymous": false,
      "inputs": [
        {
          "indexed": false,
          "internalType": "address",
          "name": "_newDefaultPoolAddress",
          "type": "address"
        }
      ],
      "name": "DefaultPoolAddressChanged",
      "type": "event"
    },
    {
      "anonymous": false,
      "inputs": [
        {
          "indexed": false,
          "internalType": "uint256",
          "name": "_newBalance",
          "type": "uint256"
        }
      ],
      "name": "ETHBalanceUpdated",
      "type": "event"
    },
    {
      "anonymous": false,
      "inputs": [
        {
          "indexed": false,
          "internalType": "address",
          "name": "_to",
          "type": "address"
        },
        {
          "indexed": false,
          "internalType": "uint256",
          "name": "_amount",
          "type": "uint256"
        }
      ],
      "name": "EtherSent",
      "type": "event"
    },
    {
      "anonymous": false,
      "inputs": [
        {
          "indexed": false,
          "internalType": "uint256",
          "name": "_newBalance",
          "type": "uint256"
        }
      ],
      "name": "LUSDBalanceUpdated",
      "type": "event"
    },
    {
      "anonymous": false,
      "inputs": [
        {
          "indexed": true,
          "internalType": "address",
          "name": "previousOwner",
          "type": "address"
        },
        {
          "indexed": true,
          "internalType": "address",
          "name": "newOwner",
          "type": "address"
        }
      ],
      "name": "OwnershipTransferred",
      "type": "event"
    },
    {
      "anonymous": false,
      "inputs": [
        {
          "indexed": false,
          "internalType": "address",
          "name": "_newStabilityPoolAddress",
          "type": "address"
        }
      ],
      "name": "StabilityPoolAddressChanged",
      "type": "event"
    },
    {
      "anonymous": false,
      "inputs": [
        {
          "indexed": false,
          "internalType": "address",
          "name": "_newTroveManagerAddress",
          "type": "address"
        }
      ],
      "name": "TroveManagerAddressChanged",
      "type": "event"
    },
    {
      "inputs": [],
      "name": "NAME",
      "outputs": [
        {
          "internalType": "string",
          "name": "",
          "type": "string"
        }
      ],
      "stateMutability": "view",
      "type": "function"
    },
    {
      "inputs": [],
      "name": "borrowerOperationsAddress",
      "outputs": [
        {
          "internalType": "address",
          "name": "",
          "type": "address"
        }
      ],
      "stateMutability": "view",
      "type": "function"
    },
    {
      "inputs": [
        {
          "internalType": "bytes32",
          "name": "c__0x7e921e50",
          "type": "bytes32"
        }
      ],
      "name": "c_0x7e921e50",
      "outputs": [],
      "stateMutability": "pure",
      "type": "function"
    },
    {
      "inputs": [
        {
          "internalType": "bytes32",
          "name": "c__0xafd32059",
          "type": "bytes32"
        }
      ],
      "name": "c_0xafd32059",
      "outputs": [],
      "stateMutability": "pure",
      "type": "function"
    },
    {
      "inputs": [
        {
          "internalType": "uint256",
          "name": "_amount",
          "type": "uint256"
        }
      ],
      "name": "decreaseLUSDDebt",
      "outputs": [],
      "stateMutability": "nonpayable",
      "type": "function"
    },
    {
      "inputs": [],
      "name": "defaultPoolAddress",
      "outputs": [
        {
          "internalType": "address",
          "name": "",
          "type": "address"
        }
      ],
      "stateMutability": "view",
      "type": "function"
    },
    {
      "inputs": [],
      "name": "getETH",
      "outputs": [
        {
          "internalType": "uint256",
          "name": "",
          "type": "uint256"
        }
      ],
      "stateMutability": "view",
      "type": "function"
    },
    {
      "inputs": [],
      "name": "getLUSDDebt",
      "outputs": [
        {
          "internalType": "uint256",
          "name": "",
          "type": "uint256"
        }
      ],
      "stateMutability": "view",
      "type": "function"
    },
    {
      "inputs": [
        {
          "internalType": "uint256",
          "name": "_amount",
          "type": "uint256"
        }
      ],
      "name": "increaseLUSDDebt",
      "outputs": [],
      "stateMutability": "nonpayable",
      "type": "function"
    },
    {
      "inputs": [],
      "name": "isOwner",
      "outputs": [
        {
          "internalType": "bool",
          "name": "",
          "type": "bool"
        }
      ],
      "stateMutability": "view",
      "type": "function"
    },
    {
      "inputs": [],
      "name": "owner",
      "outputs": [
        {
          "internalType": "address",
          "name": "",
          "type": "address"
        }
      ],
      "stateMutability": "view",
      "type": "function"
    },
    {
      "inputs": [
        {
          "internalType": "address",
          "name": "_account",
          "type": "address"
        },
        {
          "internalType": "uint256",
          "name": "_amount",
          "type": "uint256"
        }
      ],
      "name": "sendETH",
      "outputs": [],
      "stateMutability": "nonpayable",
      "type": "function"
    },
    {
      "inputs": [
        {
          "internalType": "address",
          "name": "_borrowerOperationsAddress",
          "type": "address"
        },
        {
          "internalType": "address",
          "name": "_troveManagerAddress",
          "type": "address"
        },
        {
          "internalType": "address",
          "name": "_stabilityPoolAddress",
          "type": "address"
        },
        {
          "internalType": "address",
          "name": "_defaultPoolAddress",
          "type": "address"
        }
      ],
      "name": "setAddresses",
      "outputs": [],
      "stateMutability": "nonpayable",
      "type": "function"
    },
    {
      "inputs": [],
      "name": "stabilityPoolAddress",
      "outputs": [
        {
          "internalType": "address",
          "name": "",
          "type": "address"
        }
      ],
      "stateMutability": "view",
      "type": "function"
    },
    {
      "inputs": [],
      "name": "troveManagerAddress",
      "outputs": [
        {
          "internalType": "address",
          "name": "",
          "type": "address"
        }
      ],
      "stateMutability": "view",
      "type": "function"
    },
    {
      "stateMutability": "payable",
      "type": "receive"
    }
  ],
  "bytecode": "0x608060405234801561001057600080fd5b50336000806101000a81548173ffffffffffffffffffffffffffffffffffffffff021916908373ffffffffffffffffffffffffffffffffffffffff1602179055503373ffffffffffffffffffffffffffffffffffffffff16600073ffffffffffffffffffffffffffffffffffffffff167f8be0079c531659141344cd1fd0a4f28419497f9722a3daafe3b4186f6b6457e060405160405180910390a3612497806100bb6000396000f3fe6080604052600436106100cc5760003560e01c806364a197f31161007a57806364a197f3146103e35780638da5cb5b1461043e5780638f32d59b14610495578063940a71bc146104c4578063a3f4df7e146104ff578063aac1846f1461058f578063b7f8cf9b146105e6578063cfb9329a1461063d576101b3565b80630b622ab2146101b857806314f6c3be1461020f57806338d995a81461023a57806343ce6e20146102755780634a945f8d146102b05780635a4d28bb146103615780635eb52fca146103b8576101b3565b366101b3576100fd7fbce7241d2ac0b3b4b114fa70bcd2d0b2148a1b6e5cd01b0ea31618360fa4ed1a60001b610678565b61010561067b565b6101317f91f21355f0374013c7dd00d3b86089fd084709db44e5bc821e4622c9d7ecd47e60001b610678565b6101463460055461085790919063ffffffff16565b6005819055506101787ffcbe5792c3ec1da1576a750893d46f0e9f250187d18e68274edc5e9a0134441c60001b610678565b7fca232b5abb988c540b959ff6c3bfae3e97fff964fd098c508f9613c0a6bf1a806005546040518082815260200191505060405180910390a1005b600080fd5b3480156101c457600080fd5b506101cd6108df565b604051808273ffffffffffffffffffffffffffffffffffffffff1673ffffffffffffffffffffffffffffffffffffffff16815260200191505060405180910390f35b34801561021b57600080fd5b50610224610905565b6040518082815260200191505060405180910390f35b34801561024657600080fd5b506102736004803603602081101561025d57600080fd5b8101908080359060200190929190505050610993565b005b34801561028157600080fd5b506102ae6004803603602081101561029857600080fd5b8101908080359060200190929190505050610678565b005b3480156102bc57600080fd5b5061035f600480360360808110156102d357600080fd5b81019080803573ffffffffffffffffffffffffffffffffffffffff169060200190929190803573ffffffffffffffffffffffffffffffffffffffff169060200190929190803573ffffffffffffffffffffffffffffffffffffffff169060200190929190803573ffffffffffffffffffffffffffffffffffffffff169060200190929190505050610b26565b005b34801561036d57600080fd5b50610376611306565b604051808273ffffffffffffffffffffffffffffffffffffffff1673ffffffffffffffffffffffffffffffffffffffff16815260200191505060405180910390f35b3480156103c457600080fd5b506103cd61132c565b6040518082815260200191505060405180910390f35b3480156103ef57600080fd5b5061043c6004803603604081101561040657600080fd5b81019080803573ffffffffffffffffffffffffffffffffffffffff169060200190929190803590602001909291905050506113ba565b005b34801561044a57600080fd5b506104536117f6565b604051808273ffffffffffffffffffffffffffffffffffffffff1673ffffffffffffffffffffffffffffffffffffffff16815260200191505060405180910390f35b3480156104a157600080fd5b506104aa61181f565b604051808215151515815260200191505060405180910390f35b3480156104d057600080fd5b506104fd600480360360208110156104e757600080fd5b8101908080359060200190929190505050611876565b005b34801561050b57600080fd5b50610514611879565b6040518080602001828103825283818151815260200191508051906020019080838360005b83811015610554578082015181840152602081019050610539565b50505050905090810190601f1680156105815780820380516001836020036101000a031916815260200191505b509250505060405180910390f35b34801561059b57600080fd5b506105a46118b2565b604051808273ffffffffffffffffffffffffffffffffffffffff1673ffffffffffffffffffffffffffffffffffffffff16815260200191505060405180910390f35b3480156105f257600080fd5b506105fb6118d8565b604051808273ffffffffffffffffffffffffffffffffffffffff1673ffffffffffffffffffffffffffffffffffffffff16815260200191505060405180910390f35b34801561064957600080fd5b506106766004803603602081101561066057600080fd5b81019080803590602001909291905050506118fe565b005b50565b6106a77fd5213ef1a15a5822b0f0ecab6d86a659b33937a6e9ddbfaaa77a6d121dab1f4060001b610678565b6106d37fa5035366198e0b5d3c1e5a904ecf0dfa0c5236e52b770eb1ac1a954494a5964c60001b610678565b6106ff7f934f6c02b245d04bd55557ffb655cd8b8ed5ed776454b373265b81321cee500a60001b610678565b61072b7f7a1ca07087e219a1f44a2315334e829d0cffd5299fa036a29056112cfdbefeb860001b610678565b600160009054906101000a900473ffffffffffffffffffffffffffffffffffffffff1673ffffffffffffffffffffffffffffffffffffffff163373ffffffffffffffffffffffffffffffffffffffff1614806107d45750600460009054906101000a900473ffffffffffffffffffffffffffffffffffffffff1673ffffffffffffffffffffffffffffffffffffffff163373ffffffffffffffffffffffffffffffffffffffff16145b610829576040517f08c379a00000000000000000000000000000000000000000000000000000000081526004018080602001828103825260318152602001806124316031913960400191505060405180910390fd5b6108557f69c4192c349bf05075ae5d9170ea9285da38487061ec8fa67c29107dc9472ed960001b610678565b565b6000808284019050838110156108d5576040517f08c379a000000000000000000000000000000000000000000000000000000000815260040180806020018281038252601b8152602001807f536166654d6174683a206164646974696f6e206f766572666c6f77000000000081525060200191505060405180910390fd5b8091505092915050565b600360009054906101000a900473ffffffffffffffffffffffffffffffffffffffff1681565b60006109337f99622271d231ca2ce3143507c63312eb18a5f620dc3a34630be2d60bb6ef62e060001b610678565b61095f7f7bae0c0ba90f2ec76a6f0adb388a97f27a819cb033dc1a4c843dcd0ad0446b8160001b610678565b61098b7f566f7c8065a03ada05591c08aa93f039d41a66b70585e4568daab0872931ccb860001b610678565b600554905090565b6109bf7fcc87d810f086d1252e866449fb996887f7980da78f47a4c0a700e3fb2579d9ff60001b610678565b6109eb7f46fa83d805646efa00616d9e8b7f1284691be3f0f92009928b84bbcdd7e752f360001b610678565b610a177f8c50f73bdc9b8cb214b95156bf11e74263c2f05d8c04ab25ab5f427be1b65e9760001b610678565b610a1f611a91565b610a4b7ff25b7ca79f9895b3ac23e049e4ea2659c4f7f30d1f16c11a2d94f0283cce00d660001b610678565b610a777f654886a6f815af08cda77652d5e3acca441d3fa915d1a5901c5701ad6424daf560001b610678565b610a8c81600654611cc490919063ffffffff16565b600681905550610abe7f45cf6ec535236631b52f5b8226b956639c11630838f7a04bb8b899c285daecbb60001b610678565b610aea7f4c23af2a2f45d2366b7145d15bb1b4bf5aacbaecacf186a7b3a09fbb1f95881060001b610678565b7f0d4c964e4ceac5d740869d39789a7b91888a787b9c33e9365b1a658a21ffb6966006546040518082815260200191505060405180910390a150565b610b2e61181f565b610ba0576040517f08c379a00000000000000000000000000000000000000000000000000000000081526004018080602001828103825260208152602001807f4f776e61626c653a2063616c6c6572206973206e6f7420746865206f776e657281525060200191505060405180910390fd5b610bcc7f2705cdedddf2069d436cae9e36309742cc1fa7173d4a7d0a28ee57383b11d5f560001b610678565b610bf87f94f23fab49f8a3f3c1c52afae41b6e132bd5a6ccb96769316c3492a842713bc760001b610678565b610c247ffe58ac1c41932ed88853dea0153bf1a254bc82c1f28e09bd15cdf33d7dafedec60001b610678565b610c2d84611d0e565b610c597fc5369003364c794163576924045abcc9f57046332149842cb596a6dcba2ac19160001b610678565b610c857f7abc84a21bd77870bffdea6c010dc3325c0b20cb5400647f45ec6664ce8afa2e60001b610678565b610c8e83611d0e565b610cba7ff82adc0d0e66c668a941326d5a7929f75e51ae021ee120dfedac5be9d6ca618c60001b610678565b610ce67f2e2730c95f66b17672e62bdedd5f534f3d7fe90cb6d2795f963f28ac11e739ba60001b610678565b610cef82611d0e565b610d1b7f1e1b1b863f0a9206fcd0d2af69c45a6adf28657384e3d094c45f5d10b1e98c5960001b610678565b610d477f078a55a729147f85ecf820b65b4d3b628d821cdf1507f080f4a5d435753dc7c160001b610678565b610d5081611d0e565b610d7c7fd688deafa640704a3e50248bdcadf5874015a8ed2daa9758649bb76eb7541fe560001b610678565b610da87f05c6ae1589ca0c2f12f5baa0836c891bc0f65c8fa34fcb0a7a8402c444c6c9dc60001b610678565b83600160006101000a81548173ffffffffffffffffffffffffffffffffffffffff021916908373ffffffffffffffffffffffffffffffffffffffff160217905550610e157fb0a001145ee984218eb8d22868e2681aa1e6ef8ef78fcb284d09a3f5e9ccd88960001b610678565b610e417f656ce00a57a1ff3a569b32482487d9d635f95e592562b20e56b3a25935c272de60001b610678565b82600260006101000a81548173ffffffffffffffffffffffffffffffffffffffff021916908373ffffffffffffffffffffffffffffffffffffffff160217905550610eae7f719ee7ff78c25bacd7fe999e15e8bad0539d8f4f809fe442601bace5126b50c860001b610678565b610eda7f599fd8abee0572d10328ca4bfe385ee96e17fcf783e46caac4b97012e06dcf8560001b610678565b81600360006101000a81548173ffffffffffffffffffffffffffffffffffffffff021916908373ffffffffffffffffffffffffffffffffffffffff160217905550610f477fe44ea5dc77789b3c3af90bb665ab89cd807c144a89fe059398b4bbe2994cd6eb60001b610678565b610f737fbca8cedab5058919ec4bb9bfb4ae96f7e05210dbe111761fc165758e2edf6d9d60001b610678565b80600460006101000a81548173ffffffffffffffffffffffffffffffffffffffff021916908373ffffffffffffffffffffffffffffffffffffffff160217905550610fe07f3987263dc2579831207185df4e2b2189f4be575760e9d39c2f7e1e7c014c99cc60001b610678565b61100c7fbd3ce981b0dbe6c26e517ee233d0c2b5506721f108007565aa4819ae1c5a793a60001b610678565b7f3ca631ffcd2a9b5d9ae18543fc82f58eb4ca33af9e6ab01b7a8e95331e6ed98584604051808273ffffffffffffffffffffffffffffffffffffffff1673ffffffffffffffffffffffffffffffffffffffff16815260200191505060405180910390a161109b7f1851cfb6c8b5e8fa73fe2083b8377b11f802e052abe270f06b0b31501226013560001b610678565b6110c77f3a0b08ebc93ec848135dda8e0cd4c900e3d0727538066146f9ef20b77bbc53b660001b610678565b7f143219c9e69b09e07e095fcc889b43d8f46ca892bba65f08dc3a0050869a567883604051808273ffffffffffffffffffffffffffffffffffffffff1673ffffffffffffffffffffffffffffffffffffffff16815260200191505060405180910390a16111567fbcff48d3c338cc0b1db96bdf817f2e0649a1cfe733b1e459861b69855893621e60001b610678565b6111827fa43361cfc0f13fa743e6d69be684593e89d313b8901051243470dffbd8d6cf4a60001b610678565b7f82966d27eea39b038ee0fa30cd16532bb24f6e65d31cb58fb227aa5766cdcc7f82604051808273ffffffffffffffffffffffffffffffffffffffff1673ffffffffffffffffffffffffffffffffffffffff16815260200191505060405180910390a16112117f7d79584bce1c1f625aa142bb954310fdb43c13c950fb4819d88ef60417e9f36860001b610678565b61123d7f496506001dc7cb547805b9df17abc7d862e6a64aa9a93e75568eb7524400a3ff60001b610678565b7f5ee0cae2f063ed938bb55046f6a932fb6ae792bf43624806bb90abe68a50be9b81604051808273ffffffffffffffffffffffffffffffffffffffff1673ffffffffffffffffffffffffffffffffffffffff16815260200191505060405180910390a16112cc7f3d1078f9f75118d4f15c909751340099e24e9004d802020b1e058a2518e41e9b60001b610678565b6112f87f53064a1fc807c60954a2c767f2e1c56474edeeab895a82daeed17b19d10137d560001b610678565b611300612041565b50505050565b600260009054906101000a900473ffffffffffffffffffffffffffffffffffffffff1681565b600061135a7f870d02cbbb0afae6512fe1ac17c48a7a0239bbd5d6a634702f9b170abe48f27960001b610678565b6113867fd71e6c8ca5ec30739dac418a03afcccb58bb87bf0e82d0653324863766cef1de60001b610678565b6113b27f858df9364f7edcc259981887f909c9800f9416a07fa0229d99ac457f8f21703860001b610678565b600654905090565b6113e67fa45cf796f907badfc28d6a9b6f68ffc2dea4ef188a3d2f80df601d69208008a960001b610678565b6114127fc93f78833bdae7930680908432bfdf2f733e37aa6fbcb9c09401bc9cd2c0553460001b610678565b61143e7f07af031dcb6d5787689a0030197ba7b0acc13c18ede16c542d9684348e4e0ba260001b610678565b611446611a91565b6114727fae1be17bd35d261bf82fdf8e337c97ebd23f7eda3f2ff9da4c3810a7c817e49460001b610678565b61149e7ff0a8e45853b5727e1156a6a8a0d72818f8bd2859d61c575c7376d8d41817d59e60001b610678565b6114b381600554611cc490919063ffffffff16565b6005819055506114e57f66aa165360ac37e68ae4f26187f16e1ff5788ef3f95b2a4c367b25ce8d5239f460001b610678565b6115117f68dd0df2f647b7c7cf7f8df9a9f265bade7e7a1ecad702bb373c5c59e8091d2960001b610678565b7fca232b5abb988c540b959ff6c3bfae3e97fff964fd098c508f9613c0a6bf1a806005546040518082815260200191505060405180910390a16115767fc6ab8fd6506af98247783b7a467de7d8dac9740e8288cfd3bddfabe42c73f5b960001b610678565b6115a27f97aea50caa0e6263954378c33ccb5de8fb8a79da8f3ca83742637fbcd00bd20c60001b610678565b7f6109e2559dfa766aaec7118351d48a523f0a4157f49c8d68749c8ac41318ad128282604051808373ffffffffffffffffffffffffffffffffffffffff1673ffffffffffffffffffffffffffffffffffffffff1681526020018281526020019250505060405180910390a16116397fa8e16fe2000ea3b8ced816fe75c4dc905bed377e99a75df6af958c4e8d69529060001b610678565b6116657f294e8ea06f2d0a072befb7082b8e3fec8d866dc9182ede73f936fe62b0c7d2ad60001b610678565b60008273ffffffffffffffffffffffffffffffffffffffff168260405180600001905060006040518083038185875af1925050503d80600081146116c5576040519150601f19603f3d011682016040523d82523d6000602084013e6116ca565b606091505b505090506116fa7f46efc66217126d7aa10a93cc328b4eb638850bac4ec8fe0a6c88ac1fb98b9a2d60001b610678565b6117267f810f320457832b9392587088495a41db7d1d87d99726a30a1a7f1abd3383278560001b610678565b6117527fcc80181fb8e77f2a9a0e5f19598e3bf77e74640e64d61c6b7cc1d5d47effb02360001b610678565b806117c5576040517f08c379a000000000000000000000000000000000000000000000000000000000815260040180806020018281038252601e8152602001807f416374697665506f6f6c3a2073656e64696e6720455448206661696c6564000081525060200191505060405180910390fd5b6117f17f4a4ba0ea390731c74d7cc5ad0b7943514efc667913ca9bd615a44e8564e4094260001b610678565b505050565b60008060009054906101000a900473ffffffffffffffffffffffffffffffffffffffff16905090565b60008060009054906101000a900473ffffffffffffffffffffffffffffffffffffffff1673ffffffffffffffffffffffffffffffffffffffff163373ffffffffffffffffffffffffffffffffffffffff1614905090565b50565b6040518060400160405280600a81526020017f416374697665506f6f6c0000000000000000000000000000000000000000000081525081565b600460009054906101000a900473ffffffffffffffffffffffffffffffffffffffff1681565b600160009054906101000a900473ffffffffffffffffffffffffffffffffffffffff1681565b61192a7f46aceae5d9cb4b6b2035cea63691241dcf7d35c403951b14dc46e54b110b886760001b610678565b6119567f07bce0db4e68378871fd572cdb85e808dd0ac1cb5e09400d238e9bc681fbd06960001b610678565b6119827fcc7481c0e70946f8fc440b9c6304d8abf0e8cc8d0c0fc76a69811a6619f14e9060001b610678565b61198a612100565b6119b67ffde220aa81c57d33cede8d5d5c456bb57a4a6e14980820c14e63373e0eb3ba9860001b610678565b6119e27f68c2870ded2d719a01f8d7098f14950a8e69bddef073c1a3f44f7c92259a1eed60001b610678565b6119f78160065461085790919063ffffffff16565b600681905550611a297f27baacb11f983aefa158d73f07fa07f4189b4ebe89bdbb6e44bf16849d55f66f60001b610678565b611a557f32bf606e5e9935895d50cdedc9c73cff630d2465c03a2d0cb3ee39537967683660001b610678565b7f0d4c964e4ceac5d740869d39789a7b91888a787b9c33e9365b1a658a21ffb6966006546040518082815260200191505060405180910390a150565b611abc7e9dd1f9719cb11b38c4cc80f6d97ee58731a22a17d2c8d97f29a895d7d4be1660001b610678565b611ae87f0469fc78012257491afe9d3d36e0c3977c578db059f8ee29b8e987b48177fb5560001b610678565b611b147fb831c5e8a1242c9d57d2808de0dad77fcaf8cd1d4d89f614beecdd03c4a03e4560001b610678565b611b407fa5e0e76fe8f141a194b0d6ebfb150daa9b4b9de18a365780bf353fda19a3190160001b610678565b600160009054906101000a900473ffffffffffffffffffffffffffffffffffffffff1673ffffffffffffffffffffffffffffffffffffffff163373ffffffffffffffffffffffffffffffffffffffff161480611be95750600260009054906101000a900473ffffffffffffffffffffffffffffffffffffffff1673ffffffffffffffffffffffffffffffffffffffff163373ffffffffffffffffffffffffffffffffffffffff16145b80611c415750600360009054906101000a900473ffffffffffffffffffffffffffffffffffffffff1673ffffffffffffffffffffffffffffffffffffffff163373ffffffffffffffffffffffffffffffffffffffff16145b611c96576040517f08c379a00000000000000000000000000000000000000000000000000000000081526004018080602001828103825260538152602001806123de6053913960600191505060405180910390fd5b611cc27fc715998d588868ff7ea1bce18d715587ddfea4275b9c04aa566ebac9a909838c60001b610678565b565b6000611d0683836040518060400160405280601e81526020017f536166654d6174683a207375627472616374696f6e206f766572666c6f7700008152506122dc565b905092915050565b611d3a7f35bc9e5e61c1438a006153cf69ffd6105766a3055440d22f6c8ce219146d68af60001b611876565b611d667fe66c045f45b868efda896f2af22ed71637a4e9e8d13a2b1962badf362ba3eeb960001b611876565b611d927faaa4b517f253b4fa37cb2875514a22e04e7d5828c244c7095a27e85408ccd12c60001b611876565b611dbe7f1221da0bd0f16fcbee175d4dae7d6b598e327e79264e77ced4c93a6a0721871b60001b611876565b600073ffffffffffffffffffffffffffffffffffffffff168173ffffffffffffffffffffffffffffffffffffffff161415611e61576040517f08c379a000000000000000000000000000000000000000000000000000000000815260040180806020018281038252601e8152602001807f4163636f756e742063616e6e6f74206265207a65726f2061646472657373000081525060200191505060405180910390fd5b611e8d7f09f0dc62d572b9e8dd242a1b7e25c3c5de1610d6c480bec35912dd5840f55fec60001b611876565b611eb97fbe74447fdea037b64141768df2430eb2b7113bef949c88d88dcdc549ba88703360001b611876565b611ee57f04e66872d3f4c69728dfe545a06401e1b17e0f9dd5e1d43290514ae4fd92783060001b611876565b6000611f137f60826eea4af75abd2223d108cb037485a60c485e699a12a42cac24982b89800660001b611876565b813b9050611f437f7acec79ba6fd0be7bb4b2bfca56ca8eb3d8333d64e828971ccb7647facc3806360001b611876565b611f6f7f0c7e0405db301404f844860b9fe6e14e956a97134ff8695c88184f1c957d6e0860001b611876565b611f9b7f1c5a94c5a5d640e17d84bedbf9409c7f8afe563c4b1fceef7bced5961764ee0f60001b611876565b60008111612011576040517f08c379a00000000000000000000000000000000000000000000000000000000081526004018080602001828103825260208152602001807f4163636f756e7420636f64652073697a652063616e6e6f74206265207a65726f81525060200191505060405180910390fd5b61203d7f1023f03b6261b194c29dee3596b0d25a3be14b60910a1d249d0177db54f54c4a60001b611876565b5050565b600073ffffffffffffffffffffffffffffffffffffffff166000809054906101000a900473ffffffffffffffffffffffffffffffffffffffff1673ffffffffffffffffffffffffffffffffffffffff167f8be0079c531659141344cd1fd0a4f28419497f9722a3daafe3b4186f6b6457e060405160405180910390a360008060006101000a81548173ffffffffffffffffffffffffffffffffffffffff021916908373ffffffffffffffffffffffffffffffffffffffff160217905550565b61212c7f14f3185c79c4c73d62e8426c8e1f0ea3f7abd65401b52de5bcc8e64832c7d9f360001b610678565b6121587f78812cd077ab3079b65a5f6f0cb47956428b2fe2ac622323b7a5f7671ceb8ae160001b610678565b6121847f140fb738c750888916a30e9badc26361d6fdbf0dcf6186f3aec73dc6b64b156c60001b610678565b6121b07f9ff8730b2b1cbcab1455558976a349196d95a5c16cd69ad1ae7b87ed5db9e6e760001b610678565b600160009054906101000a900473ffffffffffffffffffffffffffffffffffffffff1673ffffffffffffffffffffffffffffffffffffffff163373ffffffffffffffffffffffffffffffffffffffff1614806122595750600260009054906101000a900473ffffffffffffffffffffffffffffffffffffffff1673ffffffffffffffffffffffffffffffffffffffff163373ffffffffffffffffffffffffffffffffffffffff16145b6122ae576040517f08c379a000000000000000000000000000000000000000000000000000000000815260040180806020018281038252604181526020018061239d6041913960600191505060405180910390fd5b6122da7f613aa320554b7ed76f48bbc973af5429645a80caa0c64f055733e8ab4f41e49360001b610678565b565b6000838311158290612389576040517f08c379a00000000000000000000000000000000000000000000000000000000081526004018080602001828103825283818151815260200191508051906020019080838360005b8381101561234e578082015181840152602081019050612333565b50505050905090810190601f16801561237b5780820380516001836020036101000a031916815260200191505b509250505060405180910390fd5b506000838503905080915050939250505056fe416374697665506f6f6c3a2043616c6c6572206973206e65697468657220426f72726f7765724f7065726174696f6e73206e6f722054726f76654d616e61676572416374697665506f6f6c3a2043616c6c6572206973206e65697468657220426f72726f7765724f7065726174696f6e73206e6f722054726f76654d616e61676572206e6f722053746162696c697479506f6f6c416374697665506f6f6c3a2043616c6c6572206973206e65697468657220424f206e6f722044656661756c7420506f6f6ca2646970667358221220689fa567a541eaf7875c6e08935a973e1edbdaaa9296f2dc1148f266af47aab864736f6c634300060b0033",
  "linkReferences": {},
  "deployedLinkReferences": {}
}