{
  "_format": "hh-sol-artifact-1",
  "contractName": "BaseMath",
  "sourceName": "contracts/Dependencies/BaseMath.sol",
  "abi": [
    {
      "inputs": [],
      "name": "DECIMAL_PRECISION",
      "outputs": [
        {
          "internalType": "uint256",
          "name": "",
          "type": "uint256"
        }
      ],
      "stateMutability": "view",
      "type": "function"
    },
    {
      "inputs": [
        {
          "internalType": "bytes32",
          "name": "c__0xe624bb7f",
          "type": "bytes32"
        }
      ],
      "name": "c_0xe624bb7f",
      "outputs": [],
      "stateMutability": "pure",
      "type": "function"
    }
  ],
  "bytecode": "0x608060405234801561001057600080fd5b5060c38061001f6000396000f3fe6080604052348015600f57600080fd5b506004361060325760003560e01c8063400c1bec146037578063a20baee6146062575b600080fd5b606060048036036020811015604b57600080fd5b8101908080359060200190929190505050607e565b005b60686081565b6040518082815260200191505060405180910390f35b50565b670de0b6b3a76400008156fea2646970667358221220f4d28492370abd9ffb10c5a4691fba692097e12560a043891a80f5225c736e5664736f6c634300060b0033",
  "linkReferences": {},
  "deployedLinkReferences": {}
}