{
  "_format": "hh-sol-artifact-1",
  "contractName": "BorrowerOperationsTester",
  "sourceName": "contracts/TestContracts/BorrowerOperationsTester.sol",
  "abi": [
    {
      "anonymous": false,
      "inputs": [
        {
          "indexed": false,
          "internalType": "address",
          "name": "_activePoolAddress",
          "type": "address"
        }
      ],
      "name": "ActivePoolAddressChanged",
      "type": "event"
    },
    {
      "anonymous": false,
      "inputs": [
        {
          "indexed": false,
          "internalType": "address",
          "name": "_collSurplusPoolAddress",
          "type": "address"
        }
      ],
      "name": "CollSurplusPoolAddressChanged",
      "type": "event"
    },
    {
      "anonymous": false,
      "inputs": [
        {
          "indexed": false,
          "internalType": "address",
          "name": "_defaultPoolAddress",
          "type": "address"
        }
      ],
      "name": "DefaultPoolAddressChanged",
      "type": "event"
    },
    {
      "anonymous": false,
      "inputs": [
        {
          "indexed": false,
          "internalType": "address",
          "name": "_gasPoolAddress",
          "type": "address"
        }
      ],
      "name": "GasPoolAddressChanged",
      "type": "event"
    },
    {
      "anonymous": false,
      "inputs": [
        {
          "indexed": false,
          "internalType": "address",
          "name": "_lqtyStakingAddress",
          "type": "address"
        }
      ],
      "name": "LQTYStakingAddressChanged",
      "type": "event"
    },
    {
      "anonymous": false,
      "inputs": [
        {
          "indexed": true,
          "internalType": "address",
          "name": "_borrower",
          "type": "address"
        },
        {
          "indexed": false,
          "internalType": "uint256",
          "name": "_LUSDFee",
          "type": "uint256"
        }
      ],
      "name": "LUSDBorrowingFeePaid",
      "type": "event"
    },
    {
      "anonymous": false,
      "inputs": [
        {
          "indexed": false,
          "internalType": "address",
          "name": "_lusdTokenAddress",
          "type": "address"
        }
      ],
      "name": "LUSDTokenAddressChanged",
      "type": "event"
    },
    {
      "anonymous": false,
      "inputs": [
        {
          "indexed": true,
          "internalType": "address",
          "name": "previousOwner",
          "type": "address"
        },
        {
          "indexed": true,
          "internalType": "address",
          "name": "newOwner",
          "type": "address"
        }
      ],
      "name": "OwnershipTransferred",
      "type": "event"
    },
    {
      "anonymous": false,
      "inputs": [
        {
          "indexed": false,
          "internalType": "address",
          "name": "_newPriceFeedAddress",
          "type": "address"
        }
      ],
      "name": "PriceFeedAddressChanged",
      "type": "event"
    },
    {
      "anonymous": false,
      "inputs": [
        {
          "indexed": false,
          "internalType": "address",
          "name": "_sortedTrovesAddress",
          "type": "address"
        }
      ],
      "name": "SortedTrovesAddressChanged",
      "type": "event"
    },
    {
      "anonymous": false,
      "inputs": [
        {
          "indexed": false,
          "internalType": "address",
          "name": "_stabilityPoolAddress",
          "type": "address"
        }
      ],
      "name": "StabilityPoolAddressChanged",
      "type": "event"
    },
    {
      "anonymous": false,
      "inputs": [
        {
          "indexed": true,
          "internalType": "address",
          "name": "_borrower",
          "type": "address"
        },
        {
          "indexed": false,
          "internalType": "uint256",
          "name": "arrayIndex",
          "type": "uint256"
        }
      ],
      "name": "TroveCreated",
      "type": "event"
    },
    {
      "anonymous": false,
      "inputs": [
        {
          "indexed": false,
          "internalType": "address",
          "name": "_newTroveManagerAddress",
          "type": "address"
        }
      ],
      "name": "TroveManagerAddressChanged",
      "type": "event"
    },
    {
      "anonymous": false,
      "inputs": [
        {
          "indexed": true,
          "internalType": "address",
          "name": "_borrower",
          "type": "address"
        },
        {
          "indexed": false,
          "internalType": "uint256",
          "name": "_debt",
          "type": "uint256"
        },
        {
          "indexed": false,
          "internalType": "uint256",
          "name": "_coll",
          "type": "uint256"
        },
        {
          "indexed": false,
          "internalType": "uint256",
          "name": "stake",
          "type": "uint256"
        },
        {
          "indexed": false,
          "internalType": "enum BorrowerOperations.BorrowerOperation",
          "name": "operation",
          "type": "uint8"
        }
      ],
      "name": "TroveUpdated",
      "type": "event"
    },
    {
      "inputs": [],
      "name": "BORROWING_FEE_FLOOR",
      "outputs": [
        {
          "internalType": "uint256",
          "name": "",
          "type": "uint256"
        }
      ],
      "stateMutability": "view",
      "type": "function"
    },
    {
      "inputs": [],
      "name": "CCR",
      "outputs": [
        {
          "internalType": "uint256",
          "name": "",
          "type": "uint256"
        }
      ],
      "stateMutability": "view",
      "type": "function"
    },
    {
      "inputs": [],
      "name": "DECIMAL_PRECISION",
      "outputs": [
        {
          "internalType": "uint256",
          "name": "",
          "type": "uint256"
        }
      ],
      "stateMutability": "view",
      "type": "function"
    },
    {
      "inputs": [],
      "name": "LUSD_GAS_COMPENSATION",
      "outputs": [
        {
          "internalType": "uint256",
          "name": "",
          "type": "uint256"
        }
      ],
      "stateMutability": "view",
      "type": "function"
    },
    {
      "inputs": [],
      "name": "MCR",
      "outputs": [
        {
          "internalType": "uint256",
          "name": "",
          "type": "uint256"
        }
      ],
      "stateMutability": "view",
      "type": "function"
    },
    {
      "inputs": [],
      "name": "MIN_NET_DEBT",
      "outputs": [
        {
          "internalType": "uint256",
          "name": "",
          "type": "uint256"
        }
      ],
      "stateMutability": "view",
      "type": "function"
    },
    {
      "inputs": [],
      "name": "NAME",
      "outputs": [
        {
          "internalType": "string",
          "name": "",
          "type": "string"
        }
      ],
      "stateMutability": "view",
      "type": "function"
    },
    {
      "inputs": [],
      "name": "PERCENT_DIVISOR",
      "outputs": [
        {
          "internalType": "uint256",
          "name": "",
          "type": "uint256"
        }
      ],
      "stateMutability": "view",
      "type": "function"
    },
    {
      "inputs": [],
      "name": "_100pct",
      "outputs": [
        {
          "internalType": "uint256",
          "name": "",
          "type": "uint256"
        }
      ],
      "stateMutability": "view",
      "type": "function"
    },
    {
      "inputs": [],
      "name": "activePool",
      "outputs": [
        {
          "internalType": "contract IActivePool",
          "name": "",
          "type": "address"
        }
      ],
      "stateMutability": "view",
      "type": "function"
    },
    {
      "inputs": [
        {
          "internalType": "address",
          "name": "_upperHint",
          "type": "address"
        },
        {
          "internalType": "address",
          "name": "_lowerHint",
          "type": "address"
        }
      ],
      "name": "addColl",
      "outputs": [],
      "stateMutability": "payable",
      "type": "function"
    },
    {
      "inputs": [
        {
          "internalType": "uint256",
          "name": "_maxFeePercentage",
          "type": "uint256"
        },
        {
          "internalType": "uint256",
          "name": "_collWithdrawal",
          "type": "uint256"
        },
        {
          "internalType": "uint256",
          "name": "_LUSDChange",
          "type": "uint256"
        },
        {
          "internalType": "bool",
          "name": "_isDebtIncrease",
          "type": "bool"
        },
        {
          "internalType": "address",
          "name": "_upperHint",
          "type": "address"
        },
        {
          "internalType": "address",
          "name": "_lowerHint",
          "type": "address"
        }
      ],
      "name": "adjustTrove",
      "outputs": [],
      "stateMutability": "payable",
      "type": "function"
    },
    {
      "inputs": [
        {
          "internalType": "bytes32",
          "name": "c__0x0f63c41f",
          "type": "bytes32"
        }
      ],
      "name": "c_0x0f63c41f",
      "outputs": [],
      "stateMutability": "pure",
      "type": "function"
    },
    {
      "inputs": [
        {
          "internalType": "bytes32",
          "name": "c__0x3a042251",
          "type": "bytes32"
        }
      ],
      "name": "c_0x3a042251",
      "outputs": [],
      "stateMutability": "pure",
      "type": "function"
    },
    {
      "inputs": [
        {
          "internalType": "bytes32",
          "name": "c__0xafd32059",
          "type": "bytes32"
        }
      ],
      "name": "c_0xafd32059",
      "outputs": [],
      "stateMutability": "pure",
      "type": "function"
    },
    {
      "inputs": [
        {
          "internalType": "bytes32",
          "name": "c__0xe624bb7f",
          "type": "bytes32"
        }
      ],
      "name": "c_0xe624bb7f",
      "outputs": [],
      "stateMutability": "pure",
      "type": "function"
    },
    {
      "inputs": [
        {
          "internalType": "address",
          "name": "_borrower",
          "type": "address"
        },
        {
          "internalType": "uint256",
          "name": "_collWithdrawal",
          "type": "uint256"
        },
        {
          "internalType": "uint256",
          "name": "_debtChange",
          "type": "uint256"
        },
        {
          "internalType": "bool",
          "name": "_isDebtIncrease",
          "type": "bool"
        },
        {
          "internalType": "address",
          "name": "_upperHint",
          "type": "address"
        },
        {
          "internalType": "address",
          "name": "_lowerHint",
          "type": "address"
        }
      ],
      "name": "callInternalAdjustLoan",
      "outputs": [],
      "stateMutability": "nonpayable",
      "type": "function"
    },
    {
      "inputs": [],
      "name": "claimCollateral",
      "outputs": [],
      "stateMutability": "nonpayable",
      "type": "function"
    },
    {
      "inputs": [],
      "name": "closeTrove",
      "outputs": [],
      "stateMutability": "nonpayable",
      "type": "function"
    },
    {
      "inputs": [],
      "name": "defaultPool",
      "outputs": [
        {
          "internalType": "contract IDefaultPool",
          "name": "",
          "type": "address"
        }
      ],
      "stateMutability": "view",
      "type": "function"
    },
    {
      "inputs": [
        {
          "internalType": "uint256",
          "name": "_debt",
          "type": "uint256"
        }
      ],
      "name": "getCompositeDebt",
      "outputs": [
        {
          "internalType": "uint256",
          "name": "",
          "type": "uint256"
        }
      ],
      "stateMutability": "pure",
      "type": "function"
    },
    {
      "inputs": [],
      "name": "getEntireSystemColl",
      "outputs": [
        {
          "internalType": "uint256",
          "name": "entireSystemColl",
          "type": "uint256"
        }
      ],
      "stateMutability": "view",
      "type": "function"
    },
    {
      "inputs": [],
      "name": "getEntireSystemDebt",
      "outputs": [
        {
          "internalType": "uint256",
          "name": "entireSystemDebt",
          "type": "uint256"
        }
      ],
      "stateMutability": "view",
      "type": "function"
    },
    {
      "inputs": [
        {
          "internalType": "uint256",
          "name": "_coll",
          "type": "uint256"
        },
        {
          "internalType": "uint256",
          "name": "_debt",
          "type": "uint256"
        },
        {
          "internalType": "uint256",
          "name": "_collChange",
          "type": "uint256"
        },
        {
          "internalType": "bool",
          "name": "isCollIncrease",
          "type": "bool"
        },
        {
          "internalType": "uint256",
          "name": "_debtChange",
          "type": "uint256"
        },
        {
          "internalType": "bool",
          "name": "isDebtIncrease",
          "type": "bool"
        },
        {
          "internalType": "uint256",
          "name": "_price",
          "type": "uint256"
        }
      ],
      "name": "getNewICRFromTroveChange",
      "outputs": [
        {
          "internalType": "uint256",
          "name": "",
          "type": "uint256"
        }
      ],
      "stateMutability": "pure",
      "type": "function"
    },
    {
      "inputs": [
        {
          "internalType": "uint256",
          "name": "_collChange",
          "type": "uint256"
        },
        {
          "internalType": "bool",
          "name": "isCollIncrease",
          "type": "bool"
        },
        {
          "internalType": "uint256",
          "name": "_debtChange",
          "type": "uint256"
        },
        {
          "internalType": "bool",
          "name": "isDebtIncrease",
          "type": "bool"
        },
        {
          "internalType": "uint256",
          "name": "_price",
          "type": "uint256"
        }
      ],
      "name": "getNewTCRFromTroveChange",
      "outputs": [
        {
          "internalType": "uint256",
          "name": "",
          "type": "uint256"
        }
      ],
      "stateMutability": "view",
      "type": "function"
    },
    {
      "inputs": [
        {
          "internalType": "uint256",
          "name": "_coll",
          "type": "uint256"
        },
        {
          "internalType": "uint256",
          "name": "_price",
          "type": "uint256"
        }
      ],
      "name": "getUSDValue",
      "outputs": [
        {
          "internalType": "uint256",
          "name": "",
          "type": "uint256"
        }
      ],
      "stateMutability": "pure",
      "type": "function"
    },
    {
      "inputs": [],
      "name": "isOwner",
      "outputs": [
        {
          "internalType": "bool",
          "name": "",
          "type": "bool"
        }
      ],
      "stateMutability": "view",
      "type": "function"
    },
    {
      "inputs": [],
      "name": "lqtyStaking",
      "outputs": [
        {
          "internalType": "contract ILQTYStaking",
          "name": "",
          "type": "address"
        }
      ],
      "stateMutability": "view",
      "type": "function"
    },
    {
      "inputs": [],
      "name": "lqtyStakingAddress",
      "outputs": [
        {
          "internalType": "address",
          "name": "",
          "type": "address"
        }
      ],
      "stateMutability": "view",
      "type": "function"
    },
    {
      "inputs": [],
      "name": "lusdToken",
      "outputs": [
        {
          "internalType": "contract ILUSDToken",
          "name": "",
          "type": "address"
        }
      ],
      "stateMutability": "view",
      "type": "function"
    },
    {
      "inputs": [
        {
          "internalType": "address",
          "name": "_borrower",
          "type": "address"
        },
        {
          "internalType": "address",
          "name": "_upperHint",
          "type": "address"
        },
        {
          "internalType": "address",
          "name": "_lowerHint",
          "type": "address"
        }
      ],
      "name": "moveETHGainToTrove",
      "outputs": [],
      "stateMutability": "payable",
      "type": "function"
    },
    {
      "inputs": [
        {
          "internalType": "uint256",
          "name": "_maxFeePercentage",
          "type": "uint256"
        },
        {
          "internalType": "uint256",
          "name": "_LUSDAmount",
          "type": "uint256"
        },
        {
          "internalType": "address",
          "name": "_upperHint",
          "type": "address"
        },
        {
          "internalType": "address",
          "name": "_lowerHint",
          "type": "address"
        }
      ],
      "name": "openTrove",
      "outputs": [],
      "stateMutability": "payable",
      "type": "function"
    },
    {
      "inputs": [],
      "name": "owner",
      "outputs": [
        {
          "internalType": "address",
          "name": "",
          "type": "address"
        }
      ],
      "stateMutability": "view",
      "type": "function"
    },
    {
      "inputs": [],
      "name": "priceFeed",
      "outputs": [
        {
          "internalType": "contract IPriceFeed",
          "name": "",
          "type": "address"
        }
      ],
      "stateMutability": "view",
      "type": "function"
    },
    {
      "inputs": [
        {
          "internalType": "uint256",
          "name": "_LUSDAmount",
          "type": "uint256"
        },
        {
          "internalType": "address",
          "name": "_upperHint",
          "type": "address"
        },
        {
          "internalType": "address",
          "name": "_lowerHint",
          "type": "address"
        }
      ],
      "name": "repayLUSD",
      "outputs": [],
      "stateMutability": "nonpayable",
      "type": "function"
    },
    {
      "inputs": [
        {
          "internalType": "address",
          "name": "_troveManagerAddress",
          "type": "address"
        },
        {
          "internalType": "address",
          "name": "_activePoolAddress",
          "type": "address"
        },
        {
          "internalType": "address",
          "name": "_defaultPoolAddress",
          "type": "address"
        },
        {
          "internalType": "address",
          "name": "_stabilityPoolAddress",
          "type": "address"
        },
        {
          "internalType": "address",
          "name": "_gasPoolAddress",
          "type": "address"
        },
        {
          "internalType": "address",
          "name": "_collSurplusPoolAddress",
          "type": "address"
        },
        {
          "internalType": "address",
          "name": "_priceFeedAddress",
          "type": "address"
        },
        {
          "internalType": "address",
          "name": "_sortedTrovesAddress",
          "type": "address"
        },
        {
          "internalType": "address",
          "name": "_lusdTokenAddress",
          "type": "address"
        },
        {
          "internalType": "address",
          "name": "_lqtyStakingAddress",
          "type": "address"
        }
      ],
      "name": "setAddresses",
      "outputs": [],
      "stateMutability": "nonpayable",
      "type": "function"
    },
    {
      "inputs": [],
      "name": "sortedTroves",
      "outputs": [
        {
          "internalType": "contract ISortedTroves",
          "name": "",
          "type": "address"
        }
      ],
      "stateMutability": "view",
      "type": "function"
    },
    {
      "inputs": [],
      "name": "troveManager",
      "outputs": [
        {
          "internalType": "contract ITroveManager",
          "name": "",
          "type": "address"
        }
      ],
      "stateMutability": "view",
      "type": "function"
    },
    {
      "inputs": [
        {
          "internalType": "uint256",
          "name": "_collWithdrawal",
          "type": "uint256"
        },
        {
          "internalType": "address",
          "name": "_upperHint",
          "type": "address"
        },
        {
          "internalType": "address",
          "name": "_lowerHint",
          "type": "address"
        }
      ],
      "name": "withdrawColl",
      "outputs": [],
      "stateMutability": "nonpayable",
      "type": "function"
    },
    {
      "inputs": [
        {
          "internalType": "uint256",
          "name": "_maxFeePercentage",
          "type": "uint256"
        },
        {
          "internalType": "uint256",
          "name": "_LUSDAmount",
          "type": "uint256"
        },
        {
          "internalType": "address",
          "name": "_upperHint",
          "type": "address"
        },
        {
          "internalType": "address",
          "name": "_lowerHint",
          "type": "address"
        }
      ],
      "name": "withdrawLUSD",
      "outputs": [],
      "stateMutability": "nonpayable",
      "type": "function"
    },
    {
      "stateMutability": "payable",
      "type": "receive"
    }
  ],
  "bytecode": "0x60806040523480156200001157600080fd5b5033600360006101000a81548173ffffffffffffffffffffffffffffffffffffffff021916908373ffffffffffffffffffffffffffffffffffffffff1602179055503373ffffffffffffffffffffffffffffffffffffffff16600073ffffffffffffffffffffffffffffffffffffffff167f8be0079c531659141344cd1fd0a4f28419497f9722a3daafe3b4186f6b6457e060405160405180910390a361bbac80620000be6000396000f3fe60806040526004361061023f5760003560e01c806372fe25aa1161012e5780638f32d59b116100ab578063ae9187541161006f578063ae91875414610e34578063b83f91a214610e8b578063c6a6cf2014610ee2578063ea9638bf14610f70578063f92d343314610ff457610246565b80638f32d59b14610cb8578063940a71bc14610ce7578063a20baee614610d22578063a3a6401714610d4d578063a3f4df7e14610da457610246565b80637f7dde4a116100f25780637f7dde4a14610aec578063860665b314610b4357806387eb305d14610bbb578063887105d314610c365780638da5cb5b14610c6157610246565b806372fe25aa146109bd578063741bef1a146109e8578063761ab22c14610a3f578063794e572414610a96578063795d26c314610ac157610246565b8063400c1bec116101bc5780635733d58f116101805780635733d58f1461074c57806368647db1146107775780636c37a4af146107db5780636f0b0c1c1461094d5780636f30d2121461096457610246565b8063400c1bec1461058d5780634870dd9a146105c85780634ff81443146105f357806351584ca4146106425780635530273c146106d157610246565b80632e86bbd8116102035780632e86bbd81461043e57806334c6e492146104695780633cc74225146104a45780633d83908a146104fb5780633e3a69621461055257610246565b806304491fa71461024b5780630e704d50146102c65780631184e5f8146102dd5780631bf43555146103625780632cdcd7221461038d57610246565b3661024657005b600080fd5b34801561025757600080fd5b506102c46004803603606081101561026e57600080fd5b8101908080359060200190929190803573ffffffffffffffffffffffffffffffffffffffff169060200190929190803573ffffffffffffffffffffffffffffffffffffffff16906020019092919050505061101f565b005b3480156102d257600080fd5b506102db6110ba565b005b3480156102e957600080fd5b506103606004803603608081101561030057600080fd5b810190808035906020019092919080359060200190929190803573ffffffffffffffffffffffffffffffffffffffff169060200190929190803573ffffffffffffffffffffffffffffffffffffffff169060200190929190505050611d42565b005b34801561036e57600080fd5b50610377611ddd565b6040518082815260200191505060405180910390f35b34801561039957600080fd5b5061043c600480360360c08110156103b057600080fd5b81019080803573ffffffffffffffffffffffffffffffffffffffff1690602001909291908035906020019092919080359060200190929190803515159060200190929190803573ffffffffffffffffffffffffffffffffffffffff169060200190929190803573ffffffffffffffffffffffffffffffffffffffff169060200190929190505050611dea565b005b34801561044a57600080fd5b50610453611e02565b6040518082815260200191505060405180910390f35b34801561047557600080fd5b506104a26004803603602081101561048c57600080fd5b8101908080359060200190929190505050611e0f565b005b3480156104b057600080fd5b506104b9611e12565b604051808273ffffffffffffffffffffffffffffffffffffffff1673ffffffffffffffffffffffffffffffffffffffff16815260200191505060405180910390f35b34801561050757600080fd5b50610510611e38565b604051808273ffffffffffffffffffffffffffffffffffffffff1673ffffffffffffffffffffffffffffffffffffffff16815260200191505060405180910390f35b34801561055e57600080fd5b5061058b6004803603602081101561057557600080fd5b8101908080359060200190929190505050611e5e565b005b34801561059957600080fd5b506105c6600480360360208110156105b057600080fd5b8101908080359060200190929190505050611e61565b005b3480156105d457600080fd5b506105dd611e64565b6040518082815260200191505060405180910390f35b3480156105ff57600080fd5b5061062c6004803603602081101561061657600080fd5b8101908080359060200190929190505050611e69565b6040518082815260200191505060405180910390f35b34801561064e57600080fd5b506106bb600480360360e081101561066557600080fd5b810190808035906020019092919080359060200190929190803590602001909291908035151590602001909291908035906020019092919080351515906020019092919080359060200190929190505050611eff565b6040518082815260200191505060405180910390f35b3480156106dd57600080fd5b5061074a600480360360608110156106f457600080fd5b8101908080359060200190929190803573ffffffffffffffffffffffffffffffffffffffff169060200190929190803573ffffffffffffffffffffffffffffffffffffffff169060200190929190505050611f1d565b005b34801561075857600080fd5b50610761611fb7565b6040518082815260200191505060405180910390f35b6107d96004803603604081101561078d57600080fd5b81019080803573ffffffffffffffffffffffffffffffffffffffff169060200190929190803573ffffffffffffffffffffffffffffffffffffffff169060200190929190505050611fc3565b005b3480156107e757600080fd5b5061094b60048036036101408110156107ff57600080fd5b81019080803573ffffffffffffffffffffffffffffffffffffffff169060200190929190803573ffffffffffffffffffffffffffffffffffffffff169060200190929190803573ffffffffffffffffffffffffffffffffffffffff169060200190929190803573ffffffffffffffffffffffffffffffffffffffff169060200190929190803573ffffffffffffffffffffffffffffffffffffffff169060200190929190803573ffffffffffffffffffffffffffffffffffffffff169060200190929190803573ffffffffffffffffffffffffffffffffffffffff169060200190929190803573ffffffffffffffffffffffffffffffffffffffff169060200190929190803573ffffffffffffffffffffffffffffffffffffffff169060200190929190803573ffffffffffffffffffffffffffffffffffffffff16906020019092919050505061205d565b005b34801561095957600080fd5b50610962613384565b005b34801561097057600080fd5b506109a76004803603604081101561098757600080fd5b8101908080359060200190929190803590602001909291905050506134c3565b6040518082815260200191505060405180910390f35b3480156109c957600080fd5b506109d26134d7565b6040518082815260200191505060405180910390f35b3480156109f457600080fd5b506109fd6134e3565b604051808273ffffffffffffffffffffffffffffffffffffffff1673ffffffffffffffffffffffffffffffffffffffff16815260200191505060405180910390f35b348015610a4b57600080fd5b50610a54613509565b604051808273ffffffffffffffffffffffffffffffffffffffff1673ffffffffffffffffffffffffffffffffffffffff16815260200191505060405180910390f35b348015610aa257600080fd5b50610aab61352f565b6040518082815260200191505060405180910390f35b348015610acd57600080fd5b50610ad661353b565b6040518082815260200191505060405180910390f35b348015610af857600080fd5b50610b016137d8565b604051808273ffffffffffffffffffffffffffffffffffffffff1673ffffffffffffffffffffffffffffffffffffffff16815260200191505060405180910390f35b610bb960048036036080811015610b5957600080fd5b810190808035906020019092919080359060200190929190803573ffffffffffffffffffffffffffffffffffffffff169060200190929190803573ffffffffffffffffffffffffffffffffffffffff1690602001909291905050506137fd565b005b348015610bc757600080fd5b50610c20600480360360a0811015610bde57600080fd5b81019080803590602001909291908035151590602001909291908035906020019092919080351515906020019092919080359060200190929190505050614e30565b6040518082815260200191505060405180910390f35b348015610c4257600080fd5b50610c4b614e4a565b6040518082815260200191505060405180910390f35b348015610c6d57600080fd5b50610c766150e7565b604051808273ffffffffffffffffffffffffffffffffffffffff1673ffffffffffffffffffffffffffffffffffffffff16815260200191505060405180910390f35b348015610cc457600080fd5b50610ccd615111565b604051808215151515815260200191505060405180910390f35b348015610cf357600080fd5b50610d2060048036036020811015610d0a57600080fd5b8101908080359060200190929190505050615169565b005b348015610d2e57600080fd5b50610d3761516c565b6040518082815260200191505060405180910390f35b348015610d5957600080fd5b50610d62615178565b604051808273ffffffffffffffffffffffffffffffffffffffff1673ffffffffffffffffffffffffffffffffffffffff16815260200191505060405180910390f35b348015610db057600080fd5b50610db961519e565b6040518080602001828103825283818151815260200191508051906020019080838360005b83811015610df9578082015181840152602081019050610dde565b50505050905090810190601f168015610e265780820380516001836020036101000a031916815260200191505b509250505060405180910390f35b348015610e4057600080fd5b50610e496151d7565b604051808273ffffffffffffffffffffffffffffffffffffffff1673ffffffffffffffffffffffffffffffffffffffff16815260200191505060405180910390f35b348015610e9757600080fd5b50610ea06151fd565b604051808273ffffffffffffffffffffffffffffffffffffffff1673ffffffffffffffffffffffffffffffffffffffff16815260200191505060405180910390f35b610f6e600480360360c0811015610ef857600080fd5b81019080803590602001909291908035906020019092919080359060200190929190803515159060200190929190803573ffffffffffffffffffffffffffffffffffffffff169060200190929190803573ffffffffffffffffffffffffffffffffffffffff169060200190929190505050615223565b005b610ff260048036036060811015610f8657600080fd5b81019080803573ffffffffffffffffffffffffffffffffffffffff169060200190929190803573ffffffffffffffffffffffffffffffffffffffff169060200190929190803573ffffffffffffffffffffffffffffffffffffffff1690602001909291905050506152be565b005b34801561100057600080fd5b506110096153b9565b6040518082815260200191505060405180910390f35b61104b7fac661a1a727285c615d1c3ecf5c202e32cc9e16941062ed36d657ddb6c230df060001b611e5e565b6110777f6fdb08c78768df5490748558c37c55876bc26877f9799e700b0af76d865a060e60001b611e5e565b6110a37f94ac34dab4202d2c42f87d7752491a63c351af291d336696aad3ef11d7a7f13a60001b611e5e565b6110b5336000856000868660006153d3565b505050565b6110e67f5925ffca58a1b5b06251854166185afab4f15649dec6ae2acd46d794422835e160001b611e5e565b6111127f10ae30f48614510087f41291043fece80a0473d4922d1bb90613470aef6150ba60001b611e5e565b61113e7f15a8aeedbcc75751a75504dff0f78f90a75378c804606e0bfc1d45421545eb9e60001b611e5e565b6000600460009054906101000a900473ffffffffffffffffffffffffffffffffffffffff1690506111917f4caa7b34c8cb75365fcdb5a419beca9a517f6e52ea9b6c8f5ddef9778c1607ff60001b611e5e565b6111bd7f8f00a9304ff558814c635b8b4c91dab2751b91940111f5845d50aced4751f4a760001b611e5e565b60008060009054906101000a900473ffffffffffffffffffffffffffffffffffffffff16905061120f7face4d4ab6ab75e05e60140ec5ba551b383cf09b292c8bcd5d954ddd8ac7db7fe60001b611e5e565b61123b7fc15b77b9ad1e6e1f80f33d4da35b629973b0ab0a4489b0596ffea48d8bbbbbf360001b611e5e565b6000600a60009054906101000a900473ffffffffffffffffffffffffffffffffffffffff16905061128e7ffbaded6c13fb6639d95a93f4850c902843be6af41cb685a02b3bcd5c115a8fee60001b611e5e565b6112ba7f247b5509a9eedfe4f5f5ce17c323c02fa14d0647837ed531b4803de788d7be9560001b611e5e565b6112c483336169fb565b6112f07f67432476779e56d24262216037f692d7a3516aeb34be364c2fb0f0bc0a438d9660001b611e5e565b61131c7f56da0f0033c3224eae45a4a9c8a8d488128978f97457b5a0f546ac3e17c4a31860001b611e5e565b6000600260009054906101000a900473ffffffffffffffffffffffffffffffffffffffff1673ffffffffffffffffffffffffffffffffffffffff16630fdb11cf6040518163ffffffff1660e01b8152600401602060405180830381600087803b15801561138857600080fd5b505af115801561139c573d6000803e3d6000fd5b505050506040513d60208110156113b257600080fd5b810190808051906020019092919050505090506113f17f6e6f75b5dae021935e87864c87522819fc9f1fd6ca5ffa2ffaa69a8ba45c5e2c60001b611e5e565b61141d7ffeebbd2fd32768a632b35f91cab30d6b63445a70a15fa27cb7373713f4a5f57a60001b611e5e565b61142681616c49565b6114527ff0012bb1604984ee273773b5c10369b39926be4982068025d78fefbd3ce2607760001b611e5e565b61147e7fc30907af86e14cc1b35c6955eab075c53cb788aebadf2e3f3ac3ecc837dda40f60001b611e5e565b8373ffffffffffffffffffffffffffffffffffffffff16630b076557336040518263ffffffff1660e01b8152600401808273ffffffffffffffffffffffffffffffffffffffff1673ffffffffffffffffffffffffffffffffffffffff168152602001915050600060405180830381600087803b1580156114fd57600080fd5b505af1158015611511573d6000803e3d6000fd5b505050506115417f87672ea365f9d87a0dd9b5e1ec4d0e7b987bd75c980bd9dbf13e6dc488644ec560001b611e5e565b61156d7f5be906e937b3392f3fb1d364a717cb5bd916830bcba134a1d4669b50fd94328760001b611e5e565b60008473ffffffffffffffffffffffffffffffffffffffff1663480cd578336040518263ffffffff1660e01b8152600401808273ffffffffffffffffffffffffffffffffffffffff1673ffffffffffffffffffffffffffffffffffffffff16815260200191505060206040518083038186803b1580156115ec57600080fd5b505afa158015611600573d6000803e3d6000fd5b505050506040513d602081101561161657600080fd5b810190808051906020019092919050505090506116557f128521053e9a209fa01497d96aed861bcb7f050861465f22dc97e96ce240f38260001b611e5e565b6116817f63fb7ce02abbef033162e79543b48af74d20c1ecbf64772a89d6bc4852cdd13260001b611e5e565b60008573ffffffffffffffffffffffffffffffffffffffff1663d66a2553336040518263ffffffff1660e01b8152600401808273ffffffffffffffffffffffffffffffffffffffff1673ffffffffffffffffffffffffffffffffffffffff16815260200191505060206040518083038186803b15801561170057600080fd5b505afa158015611714573d6000803e3d6000fd5b505050506040513d602081101561172a57600080fd5b810190808051906020019092919050505090506117697ff7afba4032843655cc138ed80db294b8451f0a6bd50a1fcfba71c04eb6d9e03960001b611e5e565b6117957f145e2887aac3ceef7cce08e7a32cd5f5948b8d5d53a6984b1de23a6bdc8b43e760001b611e5e565b6117bb84336117b6680ad78ebc5ac620000085616d8790919063ffffffff16565b616dd1565b6117e77fd820af2049db6a1fc0796bb976900c17b514719fbafb5ab309035af0c9a50d0260001b611e5e565b6118137f77b902c78b43c2f737501d91a3bc2b8d8fd2aaf9cddaa2b65c79f08bf46e48ed60001b611e5e565b600061182483600084600088616fc2565b90506118527f4a9e485717893292b0dacef07834ae4668ef50981fa7138325d879eeb660f07d60001b611e5e565b61187e7f2cf908f773038a04221e10e410af143d5bcd4e9862c2a9ab7354be8cb1e7f4da60001b611e5e565b6118878161729c565b6118b37f1b39eb57ded0bda7820cc25501bfedbb0ec5d39e47c39bac57e452d4784d1eb660001b611e5e565b6118df7f75e907cfadf93059b1428e7837983f76addb8ce612e30141a4eb1c580c742c7460001b611e5e565b8673ffffffffffffffffffffffffffffffffffffffff1663fe2ba848336040518263ffffffff1660e01b8152600401808273ffffffffffffffffffffffffffffffffffffffff1673ffffffffffffffffffffffffffffffffffffffff168152602001915050600060405180830381600087803b15801561195e57600080fd5b505af1158015611972573d6000803e3d6000fd5b505050506119a27f431e05d21d1ed415e184b0305ebbd2a17bbb0cd425019bb2e303cbe529b6cb9060001b611e5e565b6119ce7fab3f31def704d9f428740b07c82d56dd3b83d72993fb2e6a8834537582deaa4860001b611e5e565b8673ffffffffffffffffffffffffffffffffffffffff1663cbd138ae336040518263ffffffff1660e01b8152600401808273ffffffffffffffffffffffffffffffffffffffff1673ffffffffffffffffffffffffffffffffffffffff168152602001915050600060405180830381600087803b158015611a4d57600080fd5b505af1158015611a61573d6000803e3d6000fd5b50505050611a917fd587097e0e71216cad7c060d1e7aded32695b6933fcf6e9e670b274c95ad994060001b611e5e565b611abd7f59d8f46a1f0990b7b4a09330a4d226292851c63e1cd638e447d621cf6372d3f260001b611e5e565b3373ffffffffffffffffffffffffffffffffffffffff167fc3770d654ed33aeea6bf11ac8ef05d02a6a04ed4686dd2f624d853bbec43cc8b6000806000600160405180858152602001848152602001838152602001826002811115611b1e57fe5b60ff16815260200194505050505060405180910390a2611b607ff18012d164463b2d7678ecc21e9bd20cdf87c9a9927a9ff82844cef52aa4a11660001b611e5e565b611b8c7f0d2e23495fc3f6f2a574f8404ea2b7fd2aa18b8dc47990fbd4e847bea93c6d6b60001b611e5e565b611bb3868633611bae680ad78ebc5ac620000087616d8790919063ffffffff16565b6173dc565b611bdf7f89ac6ebef76d3d38a3979b3c30efb1313d132640f9493e866ba36e6b65b1b9b960001b611e5e565b611c0b7f9ac4f1e1dd8f3ad0a84789957604d306c01a1991c31b3c2c370abd0b069363df60001b611e5e565b611c428686600660009054906101000a900473ffffffffffffffffffffffffffffffffffffffff16680ad78ebc5ac62000006173dc565b611c6e7f2bcc4f9313a7b09d814882618c185f6960b34274fe5c71dbe33181de3ac4e56e60001b611e5e565b611c9a7fd1e504bf0f7de7b28400e94e9667fcaf2d406bed2d5655a5f1fd88e549c8860460001b611e5e565b8573ffffffffffffffffffffffffffffffffffffffff166364a197f333856040518363ffffffff1660e01b8152600401808373ffffffffffffffffffffffffffffffffffffffff1673ffffffffffffffffffffffffffffffffffffffff16815260200182815260200192505050600060405180830381600087803b158015611d2157600080fd5b505af1158015611d35573d6000803e3d6000fd5b5050505050505050505050565b611d6e7f3299b139deb63812efb830875314dcef56a65d17d773b58d4efebbae9dab2aed60001b611e5e565b611d9a7f2d7372be9da8c21adcf81b4981bc60f4b8ab0621c02d4ac1c1a11542b6b9df0160001b611e5e565b611dc67fa75f2c12a1b0fe09ebd3668625bdba2adb939e6ac3b20005f6f34a5dc2b1b5b660001b611e5e565b611dd733600085600186868a6153d3565b50505050565b686194049f30f720000081565b611dfa86868686868660006153d3565b505050505050565b680ad78ebc5ac620000081565b50565b600160009054906101000a900473ffffffffffffffffffffffffffffffffffffffff1681565b600460009054906101000a900473ffffffffffffffffffffffffffffffffffffffff1681565b50565b50565b60c881565b6000611e977fad42e664469a581149112cd55200a9d51a3021e50c8d16f031e6c426e3e71bd960001b611e5e565b611ec37f5ca4b81df050dd79f00d8e3da05dd2e6bc185cd742db986e2e26bc7a7427cee960001b611e5e565b611eef7f90865f7c3d6ec07bb6363e9e3801a1730e73d02e9ab23f3b3545c8be93728c8d60001b611e5e565b611ef8826175c8565b9050919050565b6000611f1088888888888888617671565b9050979650505050505050565b611f497f671f71ad4c9b9b0e3c9557a1e86f61506909c060115b275b1c63c046b23867c160001b611e5e565b611f757f7254e87e6b168f74cdd5ad6356cb042ec86c391770372791e734c7bb92452a9760001b611e5e565b611fa17ff379ec0b060b354d3d6f037beef4eb6d377b4cdfe8a671fc1db4a9478867e75360001b611e5e565b611fb23384600080868660006153d3565b505050565b6714d1120d7b16000081565b611fef7f885e3fc26fb7e54afea40eff20c2a54def8e61ca8d87540edb1a352a199bc48a60001b611e5e565b61201b7fb7957fc35e99d24768aca7063017f1d4a1f6eb68eec24521cacc0f17c0f4ba8c60001b611e5e565b6120477f2b3327a7c27cfff983c85e37e5055f6fe08760e33707e4e62a13b2b13f41fa5860001b611e5e565b612059336000806000868660006153d3565b5050565b612065615111565b6120d7576040517f08c379a00000000000000000000000000000000000000000000000000000000081526004018080602001828103825260208152602001807f4f776e61626c653a2063616c6c6572206973206e6f7420746865206f776e657281525060200191505060405180910390fd5b6121037f72810695b875d1f2394d9ab886cd0476caffc1bacde1d303de942aedc432d68760001b611e5e565b61212f7f81ea35d82f4e228b092daf2090a43db481ef8d488624f618ade00d38065f56c460001b611e5e565b61215b7fad1bb3e340e917680f133c2a1b314b183b1fe392645538541a8f055a521dfb8560001b611e5e565b6000686194049f30f72000001161216e57fe5b61219a7f39130fa821bc2e4ede384c626766d58797b097cc22ac0da3ea281004a6db4a6960001b611e5e565b6121c67fe611c0ddcf5e42039d94d59595bc429110e073373ae6b5d3a84ff8a21b8750a160001b611e5e565b6121cf8a6177dc565b6121fb7fbf669e91312258e3786b2832cce7b71b49da6b469871654c840f064a802e2d7460001b611e5e565b6122277f01b97dc07f78e2a465bd2c3d8466b1a4b1a2dabfcbf09339e4afd8a725d27ea860001b611e5e565b612230896177dc565b61225c7f07f2e811cf134aec30853d364991ca5d92ffdd1e89470211a9fc0cec9b24bc9860001b611e5e565b6122887fc2894ba180582bf4a791de20957b8cae93331596cc84d89d927917edc5945b5a60001b611e5e565b612291886177dc565b6122bd7ff2460093ea3fc655ec14a49c5f489713e5e095957e1fb33e3b99d9a9ad4f5de460001b611e5e565b6122e97f0e4849df080b8f55e9995f889f04d7c5120c75daf3072e50316dc091e18a88ab60001b611e5e565b6122f2876177dc565b61231e7fa3f9918f2a303ca588b99695105e31954437dd56f7a18d14970cb21ae2e3272160001b611e5e565b61234a7fd5ca3763c5423d8d4962b0832bfd81071bdad042a7d05aebf2f93077ca8837fd60001b611e5e565b612353866177dc565b61237f7f828cc6961ad6e78c690dd3c8b36a545a5df8703d5da81f1dff7b28c53b73dda660001b611e5e565b6123ab7f51695dd07f4e4d9d4ab9a03dabec2c593f757764d6436c8f6e679ed4cc9d969660001b611e5e565b6123b4856177dc565b6123e07f5b0a99735583dedfdea68a85ba8934fa951c779abd53073bd99a13c41d9089d460001b611e5e565b61240c7fe755c95dc5becf8d4892abd7ec525dca5ea317e690514b7eeaa866440fcad93b60001b611e5e565b612415846177dc565b6124417fce566a188682409b67d88a8b24c801acaa6121e4bf344076f82dda46bd570aa760001b611e5e565b61246d7f6181a539465d2cdfe4b90dcc74eaa0e6456a58886658960d838470cc0f36f2ca60001b611e5e565b612476836177dc565b6124a27ffe09fe31be735bc9569152d24daa451f6b240a0538e8458651a9db32c594f61b60001b611e5e565b6124ce7f64431e44fcbbb65d096dd6567bf62e0ce6c4a49395d53beb864d82dd1655e7b960001b611e5e565b6124d7826177dc565b6125037fceb1b82ca30baf209fd57c4513c2e002b28f8bb4967681205f4414cb398c03b660001b611e5e565b61252f7f278b08499c61caaeddf1bbf46c15ece077643587449e66a212bfca486e777b8c60001b611e5e565b612538816177dc565b6125647f6113784fcf1c98b8b30571e46bb582f1f0f084f114db29d959abfd5da30a534060001b611e5e565b6125907f5c86b9654949b9017d08f896b6014bd2c8795003142195f9659f2ad93b129ac860001b611e5e565b89600460006101000a81548173ffffffffffffffffffffffffffffffffffffffff021916908373ffffffffffffffffffffffffffffffffffffffff1602179055506125fd7fd4d3e8722310a0e5e53f7663e0666ecd804d83eff02a09cb9ac9e084da875b8c60001b611e5e565b6126297f8ca50d7f4ee9e312494c5cd5378ddc68a3472caae1bb2dd4aba1c03fde2afd7060001b611e5e565b886000806101000a81548173ffffffffffffffffffffffffffffffffffffffff021916908373ffffffffffffffffffffffffffffffffffffffff1602179055506126957f85625760383ee0824ce44f72d42cac4b3f350fda2fefb39079252ff928be234a60001b611e5e565b6126c17fdf3e106b1b9e1601b889d43553a001de2f49f83c04f239fe3e0530082124300e60001b611e5e565b87600160006101000a81548173ffffffffffffffffffffffffffffffffffffffff021916908373ffffffffffffffffffffffffffffffffffffffff16021790555061272e7fcf71ff51f10e809cb539727b9df61fafbe0c8ae2f41de69bd7956231cd35d82260001b611e5e565b61275a7fab00880cfef1e26c9968f8915cbff8f4f0246e678ac9a362d9ece21287b56d0160001b611e5e565b86600560006101000a81548173ffffffffffffffffffffffffffffffffffffffff021916908373ffffffffffffffffffffffffffffffffffffffff1602179055506127c77f193c85aa0fe292093809d92c38c476a19a0d043078b9b924da4c89f5423d9e7b60001b611e5e565b6127f37fb1b1f7e3d8bdf154f3eb174bc5f8c161eb1a5a81baa1d0bc6b159102bb971add60001b611e5e565b85600660006101000a81548173ffffffffffffffffffffffffffffffffffffffff021916908373ffffffffffffffffffffffffffffffffffffffff1602179055506128607fe24d5a8db0892f6af6e7b378caaec0a32a609741bca217fe4d0abc473490cf6060001b611e5e565b61288c7fddd6e6b52bbfcb9ce1be97e8d3654ed5ca8e9091fa06e4bdce1ba78a4d44ac4c60001b611e5e565b84600760006101000a81548173ffffffffffffffffffffffffffffffffffffffff021916908373ffffffffffffffffffffffffffffffffffffffff1602179055506128f97f888616b86418a7577d22a6cdec5a198a6f4f03d2e6e2a45f61578f4929cd5fcf60001b611e5e565b6129257fb32a427a2ca1e445fc5fdbdea51e9115173e20b4aa492181f3ffa655da4dc0b260001b611e5e565b83600260006101000a81548173ffffffffffffffffffffffffffffffffffffffff021916908373ffffffffffffffffffffffffffffffffffffffff1602179055506129927f4c4ce225126ee32128b7627df693ec1f84163f08616e1373165a642c8a4c30e960001b611e5e565b6129be7ff78a3a58ad0b5df3d96c94e1132b465534ed9e838a8ef259648fc1a9f969d74c60001b611e5e565b82600b60006101000a81548173ffffffffffffffffffffffffffffffffffffffff021916908373ffffffffffffffffffffffffffffffffffffffff160217905550612a2b7f76ad70398e419231a072f6cefbaa1630ec2afe7151a6c22f1d4f60bb3b86081460001b611e5e565b612a577f6bf828766026ccd27e9ec5b9c7b9b8d23fd71f5a191688d5ce3ad6dc54482ad260001b611e5e565b81600a60006101000a81548173ffffffffffffffffffffffffffffffffffffffff021916908373ffffffffffffffffffffffffffffffffffffffff160217905550612ac47ff5fc90d14bd9332d30742da8e4b48ac949cbedf18ae0c0b36cd1c0e649aea51560001b611e5e565b612af07f67b272000cb3d1d5d5d718b0f141798b7a8cd2671c870ed311261025f28c337560001b611e5e565b80600960006101000a81548173ffffffffffffffffffffffffffffffffffffffff021916908373ffffffffffffffffffffffffffffffffffffffff160217905550612b5d7f7c86ef510233a83133a134d85c1bf486e6366ef45855e6e985a385c2450332bd60001b611e5e565b612b897f279421ca898b49a552d00124bd4943b3632f2b0c24f4245f40a7a0bc28aefe5560001b611e5e565b80600860006101000a81548173ffffffffffffffffffffffffffffffffffffffff021916908373ffffffffffffffffffffffffffffffffffffffff160217905550612bf67f823f253e92acfd446eb4395e5b6eccd3d7e40dac64c66c5f588d234b321a084b60001b611e5e565b612c227f9ba2b63c0cea5aad8c42b7adf32c1d57106692b89f0ead600829477db0a994b560001b611e5e565b7f143219c9e69b09e07e095fcc889b43d8f46ca892bba65f08dc3a0050869a56788a604051808273ffffffffffffffffffffffffffffffffffffffff1673ffffffffffffffffffffffffffffffffffffffff16815260200191505060405180910390a1612cb17fe33dd1ea25596016f847e4c5d1016edbe96a7ec614373d12b485ae0d82ab351160001b611e5e565b612cdd7fd7a59f54f627049a08696a53a65935a524618be40b2bcb0a61ade1291e49a94660001b611e5e565b7f78f058b189175430c48dc02699e3a0031ea4ff781536dc2fab847de4babdd88289604051808273ffffffffffffffffffffffffffffffffffffffff1673ffffffffffffffffffffffffffffffffffffffff16815260200191505060405180910390a1612d6c7f7e38ce28cbeb994c53d7d39c7c4d82e9771d0eb507327b2a40e657cce7f4573c60001b611e5e565b612d987f8464a03ff072c4c58cd58b212b93c1c82817c6979801f730e9e7f48829e5475360001b611e5e565b7f5ee0cae2f063ed938bb55046f6a932fb6ae792bf43624806bb90abe68a50be9b88604051808273ffffffffffffffffffffffffffffffffffffffff1673ffffffffffffffffffffffffffffffffffffffff16815260200191505060405180910390a1612e277f99d5fb8aa65ecfdae5241948398ce76d72ee4d961a55587c2d76415f598d2a7460001b611e5e565b612e537f6bd60a40f608578371b2ecb1602a200645eaa7cb2b8ed0a171a50cb61cd1351a60001b611e5e565b7f82966d27eea39b038ee0fa30cd16532bb24f6e65d31cb58fb227aa5766cdcc7f87604051808273ffffffffffffffffffffffffffffffffffffffff1673ffffffffffffffffffffffffffffffffffffffff16815260200191505060405180910390a1612ee27f11258c182a2d318c2dae131aceda9ba8d0b231162467293e318664576616799460001b611e5e565b612f0e7f996d4c38787ddbb3123183f3e8ca54a245817b73af5d893b67f324b99222f9c960001b611e5e565b7fcfb07d791fcafc032b35837b50eb84b74df518cf4cc287e8084f47630fa70fa086604051808273ffffffffffffffffffffffffffffffffffffffff1673ffffffffffffffffffffffffffffffffffffffff16815260200191505060405180910390a1612f9d7fa2eb952f9df657abc510d80d7c710b56d17c3f8db2f90a755770976a91639d2a60001b611e5e565b612fc97fe2d36c4722c54ba926178a7e05341797ae57256069e724e88b7e2677bc1585b560001b611e5e565b7fe67f36a6e961157d6eff83b91f3af5a62131ceb6f04954ef74f51c1c05e7f88d85604051808273ffffffffffffffffffffffffffffffffffffffff1673ffffffffffffffffffffffffffffffffffffffff16815260200191505060405180910390a16130587f51354bcf3c3d8d8fd46f4ae164c34dc839980ec1dafdfd9f444c14b9bcb3cbd160001b611e5e565b6130847f69d419be690bf8102f1fce24ef16fceddd27910f6957806a4abdd5119fc3a2d360001b611e5e565b7f8c537274438aa850a330284665d81a85dd38267d09e4050d416bfc94142db26484604051808273ffffffffffffffffffffffffffffffffffffffff1673ffffffffffffffffffffffffffffffffffffffff16815260200191505060405180910390a16131137f37df16b01a12fb2ece85efadc86fcd739196e19d21adcce8496a61bfcfe3283a60001b611e5e565b61313f7f906905d47a0bdd5e36fdddd546a72fc0e0ff6057315344e04f237b9618317d9960001b611e5e565b7f65f4cf077bc01e4742eb5ad98326f6e95b63548ea24b17f8d5e823111fe7880083604051808273ffffffffffffffffffffffffffffffffffffffff1673ffffffffffffffffffffffffffffffffffffffff16815260200191505060405180910390a16131ce7f2cc7d53bcb820392bd0066b03452b60bfaa0a5c87feb0352a817d79c0c76c46c60001b611e5e565b6131fa7fcc5373fa7f5117081150f280e948a9b1865a6d768d5b906a00061aa36205e71360001b611e5e565b7f227eec0ec317af6ab1a9587ffa1c84332522eb4c583a908f89babc05f8f339bd82604051808273ffffffffffffffffffffffffffffffffffffffff1673ffffffffffffffffffffffffffffffffffffffff16815260200191505060405180910390a16132897f8a888c5d118c5711ec6a8d54fbe11acf02cb39d6027486ec22741f13b2f5965560001b611e5e565b6132b57f69c239c7e2f863dbc80ba514b887c7fdb1d540097f029352ee9a1d6d465e5bcd60001b611e5e565b7f756ebc192164c295bba134b5aacd72cc7aff8098a670d1f0a5f6b3a0b4ce670781604051808273ffffffffffffffffffffffffffffffffffffffff1673ffffffffffffffffffffffffffffffffffffffff16815260200191505060405180910390a16133447f4073554768d7bbaa97fb978b6a1501dcb715db9734941decf72ebde10773d30660001b611e5e565b6133707f3fc2c9b51cac0598c71de1d03a07789ad4f552b069972510b97d9ae0de96d4bb60001b611e5e565b613378617b0f565b50505050505050505050565b6133b07f4d5eb936df09cea05a4ec9dadd441bee86a62ae9965a55e94b98d5a49705558a60001b611e5e565b6133dc7faef8fe9d95caf524f4575c79d4567c4a53252d5dd4297f255441041f0f1d9e0c60001b611e5e565b6134087f15801663368f51c9dff3075353b0f7f29298d795e4958b95b381f7ec2835ad6e60001b611e5e565b600760009054906101000a900473ffffffffffffffffffffffffffffffffffffffff1673ffffffffffffffffffffffffffffffffffffffff1663b32beb5b336040518263ffffffff1660e01b8152600401808273ffffffffffffffffffffffffffffffffffffffff1673ffffffffffffffffffffffffffffffffffffffff168152602001915050600060405180830381600087803b1580156134a957600080fd5b505af11580156134bd573d6000803e3d6000fd5b50505050565b60006134cf8383617bd0565b905092915050565b670de0b6b3a764000081565b600260009054906101000a900473ffffffffffffffffffffffffffffffffffffffff1681565b600960009054906101000a900473ffffffffffffffffffffffffffffffffffffffff1681565b670f43fc2c04ee000081565b60006135697fffed618358291ba6891e1754cb73cb764c0581799afe3edc4c8d5e33b5d69dec60001b611e0f565b6135957ff0efb67b0790e4a16906291f0f5b33c4b9e350c5c12e5dc419b35b3e2a7643fd60001b611e0f565b6135c17fe39126d6b608bc17f868ee02cec3987f5c9f0eb5a2861fa1ee436805d724101360001b611e0f565b60008060009054906101000a900473ffffffffffffffffffffffffffffffffffffffff1673ffffffffffffffffffffffffffffffffffffffff16635eb52fca6040518163ffffffff1660e01b815260040160206040518083038186803b15801561362a57600080fd5b505afa15801561363e573d6000803e3d6000fd5b505050506040513d602081101561365457600080fd5b810190808051906020019092919050505090506136937fd5c5e3697c84f44fc96c4b00a5092a8a17c44788644672edc404df8b4f33e79e60001b611e0f565b6136bf7fccbc594bc92408b9e1a354fa088e5742270d98347611534f0ec71b706cce5dbf60001b611e0f565b6000600160009054906101000a900473ffffffffffffffffffffffffffffffffffffffff1673ffffffffffffffffffffffffffffffffffffffff16635eb52fca6040518163ffffffff1660e01b815260040160206040518083038186803b15801561372957600080fd5b505afa15801561373d573d6000803e3d6000fd5b505050506040513d602081101561375357600080fd5b810190808051906020019092919050505090506137927f2fcafe17cc1fa0b07af62f32ccc025484a46246a27b7f7fda3a9022f884c2ca660001b611e0f565b6137be7fbfd7ce3f2a0b31b728bd9f37aef94976a0d07e75cf5275f67bafe240332777d760001b611e0f565b6137d18183617ce990919063ffffffff16565b9250505090565b6000809054906101000a900473ffffffffffffffffffffffffffffffffffffffff1681565b6138297f2d75deeadd92374ee77ad8ed263f36ad17488eb5b10173f01ad316024b10261560001b611e5e565b6138557f36732c4eda434f277825e1c5ca86b948d3e2deccef6170a5116f3a8b3170a3ba60001b611e5e565b6138817fd5b6b37a8c6bf09f6e484fb12aeb2ec16afa56bece576aeb5b92f6de6573775d60001b611e5e565b61388961b678565b6040518060600160405280600460009054906101000a900473ffffffffffffffffffffffffffffffffffffffff1673ffffffffffffffffffffffffffffffffffffffff1681526020016000809054906101000a900473ffffffffffffffffffffffffffffffffffffffff1673ffffffffffffffffffffffffffffffffffffffff168152602001600a60009054906101000a900473ffffffffffffffffffffffffffffffffffffffff1673ffffffffffffffffffffffffffffffffffffffff1681525090506139797fca7b84ee367087b76f71b3cc71a2572b4480dd5bb62ac1c23a21e7599ae9369660001b611e5e565b6139a57f0c2410a88f9fb49383ab1df92b5c25ccf95ced005b893321add7775f0c44918260001b611e5e565b6139ad61b6db565b6139d97fa61433f32a9f6bcde85558e7004b57427955b0bcad0b728a07092058acf7364460001b611e5e565b613a057f7b52dd900932aea5a6f38c4aca621ceed07d69f2d525af50bbee2ba316dbb05160001b611e5e565b600260009054906101000a900473ffffffffffffffffffffffffffffffffffffffff1673ffffffffffffffffffffffffffffffffffffffff16630fdb11cf6040518163ffffffff1660e01b8152600401602060405180830381600087803b158015613a6f57600080fd5b505af1158015613a83573d6000803e3d6000fd5b505050506040513d6020811015613a9957600080fd5b8101908080519060200190929190505050816000018181525050613adf7f746e9bb1cadd9c01e06a3c49bc3e505bdb9968f9db1beb82c9f535e6680c494560001b611e5e565b613b0b7fe89d51f6049e905584d2e4df898d448b15212345133dd3163dc69b11e41cb23460001b611e5e565b6000613b1a8260000151617d71565b9050613b487f913fc42c6c4dce307625028e9b5ec43c4adeb37b04669653bf74334cba38464860001b611e5e565b613b747f065fa5c797521e1bb479d076f06833c3aee6da9e3b43358e336499f124fef1a760001b611e5e565b613b7e8782617e6f565b613baa7f8020bda5fa9b9a3a2d03140f12257ed76b0f4d37eb9a9a1993f4baccfdc9bd7160001b611e5e565b613bd67f10652bb6641fec6bf18a468f746d44d4b0c5633c7f61117ddf74d732f050bc7660001b611e5e565b613be483600001513361819f565b613c107ffa0e89fd405f140d60eece66c929207610cfb4e318c103ce927b5c16ff14785f60001b611e5e565b816020015150613c427fd61441a1e941f60c026d787a8d2368f142b6e260752c3ed653d6626891436f7060001b611e5e565b613c6e7f3fffd205363cc6032b103ec24279e069aa123e99cbf51bbcd462d846ac9bf4d360001b611e5e565b85826040018181525050613ca47fbce53b88c23d58c5a4af2b32b0dcb76cd0831b532d66670d200cdd622b9556b060001b611e5e565b613cd07f037b1f947ee16cbea14ea3ebbc872a7780135225f37d742e06804ad95934323060001b611e5e565b80613df757613d017f45b8232a94bcf2ec87dc77e6e5b628833ab81007eed227077ccf0e253057831d60001b611e5e565b613d2d7f385b6e922473f7efbf94588e18cd235823b8f3026d8823cf0c05d9a89610556360001b611e5e565b613d597f418679a6291975382dbc2cb54ee5f7eaaeda0f018e084ed79d30b7c2496cddcd60001b611e5e565b613d6d83600001518460400151888a61840b565b826020018181525050613da27f13fcb1edb5d7e2df751847550ab5d798c9e2e9ee54d677d7cec69f79be5ab51b60001b611e5e565b613dce7ff1e2580193e66d03845463491f879e34fcbc4000ff4e283736d07f6637157d8360001b611e5e565b613de982602001518360400151617ce990919063ffffffff16565b826040018181525050613e24565b613e237fbcb2a77d55906ae2b0527a972c7d9cb37cc5431c104794080e3b671d522ce72360001b611e5e565b5b613e507fa63144982dda8bd89ea5e996a0e59c4c193a7392f72b2f8fa0dc3452876ca7a760001b611e5e565b613e7c7fd6929e3ec73cc145819b149cb9bab2834c836d01f250f72adfecac54a771b7b160001b611e5e565b613e89826040015161889e565b613eb57fb1a415381a9e88b6537acd277744500016c893c289495977e02e869ab66f72f760001b611e5e565b613ee17fb8993bf5eb05c7251e3697a9017a7ac025f26d571add70d59209574505e9bf4960001b611e5e565b613eee82604001516175c8565b826060018181525050613f237fafa256062e8cfb835ce96f061aa979405fe7c109420290b879cbb7bbc708e3d760001b611e5e565b613f4f7fd1148f7dab633cb9e268d3b047eec0fc3e2491014a705ae990c8a47b5d22a57360001b611e5e565b6000826060015111613f5d57fe5b613f897f3e5fa259c30253a4da27f5e9ec8e8a3684aeacd00ce3297ff8a2cc378776ef3860001b611e5e565b613fb57f4a28c1df1adcaf0a3307773f88e74dea871344cd4357a6b298ade46473fb7e0160001b611e5e565b613fc834836060015184600001516189df565b826080018181525050613ffd7fdc3f3c2918e27333a876c0f7d658524e4b86ed9a258c4d8472550942dd4bafa160001b611e5e565b6140297f3391ea7cf90aabe114ede986ce8cc4d07694389feed9fe7bdf8585fe3fcc76cd60001b611e5e565b614037348360600151618c2b565b8260a001818152505061406c7fba6f6ef3b37df209fac945e60683a3425f8db8ef2903a5d2d5243df05845c1c260001b611e5e565b6140987f561adeeef489fe44fc9c828d37fff3aa7778f17e1b1dcba24e2af3d83344469f60001b611e5e565b8015614134576140ca7f89216826e8469d45dcb446ddf83efb8367af94ed594c3c79d08a796d540fdb5060001b611e5e565b6140f67fad79d62c6b0eff51c7aa2222af0ea8c3ee5b0ade36d39001a540b43fb5bd349660001b611e5e565b6141227ff9b8d8ce119904640d2313fc81fb4a14002fbefaa677865c7db2333cf5dd800560001b611e5e565b61412f8260800151618e21565b61429b565b6141607ff7ad5d01e60b1c7af30eb06390212f3034114cf08bf5eed3767f5a2d3d53e5ce60001b611e5e565b61418c7f396afdbf81e5560b28b31a2eaf353093f48140816773d202d06024e8f0fdc83760001b611e5e565b6141b87f0a0fd14e9017893c4f021eaba751183467ba7f597e1cea4a262af1c46dfdeeb560001b611e5e565b6141c58260800151618f61565b6141f17f1f3244813cd86b585ca843cd0c8f1b0d8c70ddf85c7217cf548168c89286bdec60001b611e5e565b61421d7f597752b2b028c30eb49a878c226ff670ea0d0e066477f9e2ea6aa840e7a0e70e60001b611e5e565b6000614236346001856060015160018760000151616fc2565b90506142647fd55b40f0d170a26361f7e5cafa2adaff684c5f86e0249b471eeebdac845b0f3660001b611e5e565b6142907fd41811b775818bb57202a31aeb173ef1077278715e645441dab968f4ad5f045560001b611e5e565b6142998161729c565b505b6142c77f78151bef549db70fb4c0b07f789f22cdf0feea36d2f0dace3fa942926323aaf960001b611e5e565b6142f37f46844d29d40098b1c8002612b7d012ec9da0a392be9d10b113a413d85499a69960001b611e5e565b826000015173ffffffffffffffffffffffffffffffffffffffff16635d6b480f3360016040518363ffffffff1660e01b8152600401808373ffffffffffffffffffffffffffffffffffffffff1673ffffffffffffffffffffffffffffffffffffffff16815260200182815260200192505050600060405180830381600087803b15801561437f57600080fd5b505af1158015614393573d6000803e3d6000fd5b505050506143c37f2c4b86c459a27427cb55db2546a5e72653a203ab57b26f2314c535a10db0cd1a60001b611e5e565b6143ef7f1ef6b1fbd081f103d5ff1ce356a43ec647502708eb3944298eaa2e33af7d369a60001b611e5e565b826000015173ffffffffffffffffffffffffffffffffffffffff166372423c1733346040518363ffffffff1660e01b8152600401808373ffffffffffffffffffffffffffffffffffffffff1673ffffffffffffffffffffffffffffffffffffffff16815260200182815260200192505050602060405180830381600087803b15801561447a57600080fd5b505af115801561448e573d6000803e3d6000fd5b505050506040513d60208110156144a457600080fd5b8101908080519060200190929190505050506144e27fb675321ec47f9e561bcd74b4f9045c70ed60905fdcfd98bda2e8a8a7f0884cf060001b611e5e565b61450e7f631bf573a2f0cfc997e8efb5c21f63b32887e5902eefbe9bcbfcf416bf539ba460001b611e5e565b826000015173ffffffffffffffffffffffffffffffffffffffff16639976cf453384606001516040518363ffffffff1660e01b8152600401808373ffffffffffffffffffffffffffffffffffffffff1673ffffffffffffffffffffffffffffffffffffffff16815260200182815260200192505050602060405180830381600087803b15801561459d57600080fd5b505af11580156145b1573d6000803e3d6000fd5b505050506040513d60208110156145c757600080fd5b8101908080519060200190929190505050506146057f5664bd5a88efe3ab03054df7d43f36fa03bb211e09b12f52a4a00ea374086e7d60001b611e5e565b6146317fca195093b54e7e5f6b4a08052c73f23394cc9bbbf3630e43a20a3e487077c62f60001b611e5e565b826000015173ffffffffffffffffffffffffffffffffffffffff166382fe3eb9336040518263ffffffff1660e01b8152600401808273ffffffffffffffffffffffffffffffffffffffff1673ffffffffffffffffffffffffffffffffffffffff168152602001915050600060405180830381600087803b1580156146b457600080fd5b505af11580156146c8573d6000803e3d6000fd5b505050506146f87f7e3736b13625b87488b372e77f93803cad5978005f62f2950135fa07b9c7cbac60001b611e5e565b6147247fcbaf62b5dacdcafda3fe520b9ae16046cdb1e99a0c03a2a87c36d7a03f995bb860001b611e5e565b826000015173ffffffffffffffffffffffffffffffffffffffff166318f2817a336040518263ffffffff1660e01b8152600401808273ffffffffffffffffffffffffffffffffffffffff1673ffffffffffffffffffffffffffffffffffffffff168152602001915050602060405180830381600087803b1580156147a757600080fd5b505af11580156147bb573d6000803e3d6000fd5b505050506040513d60208110156147d157600080fd5b81019080805190602001909291905050508260c00181815250506148177f4653b11cf651d48dc16e9def24c9e43fced7a9d921becab2be625c6f31cc630060001b611e5e565b6148437fd92dbf924be54ac694ff0f576e3b55714952cd0877f76a1d7a027b410d3aff5f60001b611e5e565b600b60009054906101000a900473ffffffffffffffffffffffffffffffffffffffff1673ffffffffffffffffffffffffffffffffffffffff166346f7cf87338460a0015188886040518563ffffffff1660e01b8152600401808573ffffffffffffffffffffffffffffffffffffffff1673ffffffffffffffffffffffffffffffffffffffff1681526020018481526020018373ffffffffffffffffffffffffffffffffffffffff1673ffffffffffffffffffffffffffffffffffffffff1681526020018273ffffffffffffffffffffffffffffffffffffffff1673ffffffffffffffffffffffffffffffffffffffff168152602001945050505050600060405180830381600087803b15801561495857600080fd5b505af115801561496c573d6000803e3d6000fd5b5050505061499c7f70087de1a2cf71a83e063a055979700b1d296453ce7e8694010399d675a4171f60001b611e5e565b6149c87f6c794b12ee51424f63f1a7f51637f70a057c6763e2456504e480add1c7b1253b60001b611e5e565b826000015173ffffffffffffffffffffffffffffffffffffffff166315d549f1336040518263ffffffff1660e01b8152600401808273ffffffffffffffffffffffffffffffffffffffff1673ffffffffffffffffffffffffffffffffffffffff168152602001915050602060405180830381600087803b158015614a4b57600080fd5b505af1158015614a5f573d6000803e3d6000fd5b505050506040513d6020811015614a7557600080fd5b81019080805190602001909291905050508260e0018181525050614abb7f5c399c0f7af215ed8af360b34256b98b8eaa5b7772eca29a5249b7646741021f60001b611e5e565b614ae77fb7c1b261f4873e0049a7c4053520fcb5ca1b6af618e3a5af462438cfe28bc2f860001b611e5e565b3373ffffffffffffffffffffffffffffffffffffffff167f59cfd0cd754bc5748b6770e94a4ffa5f678d885cb899dcfadc5734edb97c67ab8360e001516040518082815260200191505060405180910390a2614b657f9aef51aa8b561a23fd2154a9bf61bc5f7bfd149840c70b1e42da47e4fea942ac60001b611e5e565b614b917f0c9d911e6e70040be18939ad7736435cb3d28b4bb4ce221492e9c4dd6b04a68260001b611e5e565b614b9f8360200151346190a1565b614bcb7fc754c5b85ee326405a27cf0752b0586706b42b481359c14b437c0f852abf109060001b611e5e565b614bf77f9c58d4223648857ddba908f28addc5b72b1b11d61b7d52e1207e099fc4356ab660001b611e5e565b614c108360200151846040015133898660400151619299565b614c3c7f662e8a2779cb30ca44851cb09b69e665428a6ad245b0b5b1fa8c6d9efd7049a360001b611e5e565b614c687fba62797ef504e81f5bee490a8786dd92b787bdd195c58d7aaa2f88aa2914b62560001b611e5e565b614ca883602001518460400151600660009054906101000a900473ffffffffffffffffffffffffffffffffffffffff16680ad78ebc5ac620000080619299565b614cd47ffb08d69f2e8f8877383ab428bb93297bd7850f2fc6f84cc6f90c2fb48bd20b5960001b611e5e565b614d007f52d2043045d7aa900b80b974f567f1008b7880966ce80f2ec3ae8770069959fb60001b611e5e565b3373ffffffffffffffffffffffffffffffffffffffff167fc3770d654ed33aeea6bf11ac8ef05d02a6a04ed4686dd2f624d853bbec43cc8b8360600151348560c00151600060405180858152602001848152602001838152602001826002811115614d6757fe5b60ff16815260200194505050505060405180910390a2614da97f04652b75148207efd99e328842ba2ccd64e05a9faa21bc6cc13e6b514fe6806560001b611e5e565b614dd57f1052278c993752541f7d89fead05f449f88463ef7b9a5cd74f6a8ac899891cde60001b611e5e565b3373ffffffffffffffffffffffffffffffffffffffff167fa55c5f48fd29482ad55f4b59bf070cd1ac1a7132a31f7a136ebe8877ae37e1ff83602001516040518082815260200191505060405180910390a250505050505050565b6000614e3f8686868686616fc2565b905095945050505050565b6000614e787fb66d50006e73330003d2aebca2677ba754a744532fcb120e1bf38e30d4354e9660001b611e0f565b614ea47f7a243f0c01ac2eddb6f889adb5b25d20b6c77d0a71089b4e4a05e6f5dd04449c60001b611e0f565b614ed07fd9be4bb93a2c9d4022ac92258e5938de98f2fa4913238b33509b201c9962a88160001b611e0f565b60008060009054906101000a900473ffffffffffffffffffffffffffffffffffffffff1673ffffffffffffffffffffffffffffffffffffffff166314f6c3be6040518163ffffffff1660e01b815260040160206040518083038186803b158015614f3957600080fd5b505afa158015614f4d573d6000803e3d6000fd5b505050506040513d6020811015614f6357600080fd5b81019080805190602001909291905050509050614fa27f26cd0bc42cbc160aba08644d1ec6607da3df5acdbbe9f5cb1f876046b51125a860001b611e0f565b614fce7f07394f73b57effa5c0d06a28a34d8caf7f9c8e6f1ecd533143cd3adbc06c207560001b611e0f565b6000600160009054906101000a900473ffffffffffffffffffffffffffffffffffffffff1673ffffffffffffffffffffffffffffffffffffffff166314f6c3be6040518163ffffffff1660e01b815260040160206040518083038186803b15801561503857600080fd5b505afa15801561504c573d6000803e3d6000fd5b505050506040513d602081101561506257600080fd5b810190808051906020019092919050505090506150a17f46fe5e72681624df8f86211f619d0ca55960a48139a032d491c65f9e9ead8e4560001b611e0f565b6150cd7ff21ef2b4f180cbc00adb9efe704164ccc70207bf69042044214909b91d55604960001b611e0f565b6150e08183617ce990919063ffffffff16565b9250505090565b6000600360009054906101000a900473ffffffffffffffffffffffffffffffffffffffff16905090565b6000600360009054906101000a900473ffffffffffffffffffffffffffffffffffffffff1673ffffffffffffffffffffffffffffffffffffffff163373ffffffffffffffffffffffffffffffffffffffff1614905090565b50565b670de0b6b3a764000081565b600860009054906101000a900473ffffffffffffffffffffffffffffffffffffffff1681565b6040518060400160405280601281526020017f426f72726f7765724f7065726174696f6e73000000000000000000000000000081525081565b600b60009054906101000a900473ffffffffffffffffffffffffffffffffffffffff1681565b600a60009054906101000a900473ffffffffffffffffffffffffffffffffffffffff1681565b61524f7f257eace0d09a04585dd6cc9139669992ff7c0f871c42950067b3eef2eab8bc0860001b611e5e565b61527b7fbc5d31a435c392f65e8083891b904723e25f6687bcfc4fe08c235563b454923960001b611e5e565b6152a77fabd7ebc8ccb64491d29bd15c4ba7892066e2f4009e669ead30ca81f4685855d360001b611e5e565b6152b63386868686868c6153d3565b505050505050565b6152ea7f44296d8b9a83dfc909bdbfb6c3935013da55406541ae7eb44d6fe8e33b797cf760001b611e5e565b6153167f55abed1dd858dc9ca34e005e6593044030a9032106d3b282b1122c6bf440b35360001b611e5e565b6153427fd709088bf9f46636ba9886fd01eeabaa95f0ae71a60d3d3f4b748592bf90ab4660001b611e5e565b61534a619486565b6153767ffd243aef34970fe3bba8812118ca852239b30212672f6619a2afa9ee1674c8a660001b611e5e565b6153a27f1abd9ac0b2d48ec0889560149c8fd161c3c47340048ba625f4be369d52592e1760001b611e5e565b6153b4836000806000868660006153d3565b505050565b60056103e8670de0b6b3a7640000816153ce57fe5b040281565b6153ff7f4b478a52ad24aff1f0d4391280cf77e59d6911fb8062f4eed41a05c6d70966ee60001b611e5e565b61542b7f146be1e820de6b9ef0e3ee74ac8d3e92a8a6beae94361f1ebd73b114ecc4ff7460001b611e5e565b6154577fbaa72a350b3713819c26005ab4a2c74b59be2d3bac8d1a78cfd3ca4d4ac3242f60001b611e5e565b61545f61b678565b6040518060600160405280600460009054906101000a900473ffffffffffffffffffffffffffffffffffffffff1673ffffffffffffffffffffffffffffffffffffffff1681526020016000809054906101000a900473ffffffffffffffffffffffffffffffffffffffff1673ffffffffffffffffffffffffffffffffffffffff168152602001600a60009054906101000a900473ffffffffffffffffffffffffffffffffffffffff1673ffffffffffffffffffffffffffffffffffffffff16815250905061554f7fe9e9a59b46514445f058e130db049b1a8535a19a3177460c12b3b0d420c4abff60001b611e5e565b61557b7feba37a07174f63d5e87b191ff97cafbcd01d1fc5abfc68801ac2055d4490bcb360001b611e5e565b61558361b720565b6155af7f9a7cd7dde7719430c706781a05c39d9b6738d0066c88a8ef23b6a61b83c8958c60001b611e5e565b6155db7fe78e0278ad91e1d0422fbf581caf63060b6a51449166f40bab7dc34b2efe6b6160001b611e5e565b600260009054906101000a900473ffffffffffffffffffffffffffffffffffffffff1673ffffffffffffffffffffffffffffffffffffffff16630fdb11cf6040518163ffffffff1660e01b8152600401602060405180830381600087803b15801561564557600080fd5b505af1158015615659573d6000803e3d6000fd5b505050506040513d602081101561566f57600080fd5b81019080805190602001909291905050508160000181815250506156b57fe9df3569d86b8f6620931f8cbd4ae9645bc5bec14c19813b8c048edbff1dbb5b60001b611e5e565b6156e17fcc09c02132b5584edd41e467c4586899201b432a5c71d4b33c3df411442f7cf460001b611e5e565b60006156f08260000151617d71565b905061571e7fa0498df6a859d3691807cdb6e68eb91f14b355b5452d834bf90dd1c4766dc01860001b611e5e565b61574a7fb848dd9d916fe82ada0ddd46d2c4ae62e6a5aea8f26a881c4133b1add7c109cb60001b611e5e565b86156158445761577c7f677b46dd5af5238c1886d8bd497239daf4a175e33ba575b712f0d05d466fe43d60001b611e5e565b6157a87f0cd9604bbfc0494625c8e83f51816255b0da369f474b5215d8d62f600621011f60001b611e5e565b6157d47fb7740b3bba6d905483e80f6454d9b3bb29fc78846cc45a3ba16604e496af0e2e60001b611e5e565b6157de8482617e6f565b61580a7f301d6486aef40c7d6a30bf67a2f4a2c0db604d33499ea1daede3461e06ce364260001b611e5e565b6158367f8f1a5a0f799de9e06c3a0d0b509e22b13373710dd456abc05ff8b9ae68941c7e60001b611e5e565b61583f8861960a565b615871565b6158707f16d02dc43bee1419836d61a6e7c9ac9c3d3057735624e3a076b9ab13e3d43a7760001b611e5e565b5b61589d7fbf9a769c6e8df4dfaaf8c57d2dc830fcd3d17590febec4de8de0553c62577eda60001b611e5e565b6158c97f17799a9fdb1b32ac00ae9bf875f08073b826aeabc6c6036ccac854b54a6e36bf60001b611e5e565b6158d289619741565b6158fe7f6456ed68407e1bf311a6d5142b713f72c145d7ced59efb018da3a10cb25a85b360001b611e5e565b61592a7f4edc70d347cb66c5ce4c3f1fcae731aabbdb167fc752632f5720767027df228a60001b611e5e565b6159348989619884565b6159607f3fee85609c3f97f2f9fc9c1eacaeeb2f4e8019bb461f4c9405721b123d8910f760001b611e5e565b61598c7f6cfe15ed872cb884375b3ffed23d1ea9bc844d2d9c855f190510ff89e4b4b02860001b611e5e565b61599a83600001518b6169fb565b6159c67f9388f6c9961e93f8b1d1e5474af11d39c1a39e08840ce8467e0a3470b5b75ffc60001b611e5e565b6159f27fe7c67ddd9cd7f704f84a638ff422d2dcfcf4017d300f23078b5b79de2808633560001b611e5e565b8973ffffffffffffffffffffffffffffffffffffffff163373ffffffffffffffffffffffffffffffffffffffff161480615a915750600560009054906101000a900473ffffffffffffffffffffffffffffffffffffffff1673ffffffffffffffffffffffffffffffffffffffff163373ffffffffffffffffffffffffffffffffffffffff16148015615a845750600034115b8015615a905750600088145b5b615a9757fe5b615ac37f68186ff266fb17e873bf1e6bdc6296637786dd7d1577b3e5cfe03a1d00b0ea8e60001b611e5e565b615aef7fb9baf710b9c3a20a1a3baa49a1468406cfb7585f7b934c33d8ce13011359ef8b60001b611e5e565b826000015173ffffffffffffffffffffffffffffffffffffffff16630b0765578b6040518263ffffffff1660e01b8152600401808273ffffffffffffffffffffffffffffffffffffffff1673ffffffffffffffffffffffffffffffffffffffff168152602001915050600060405180830381600087803b158015615b7257600080fd5b505af1158015615b86573d6000803e3d6000fd5b50505050615bb67ffe83530c5f8f80efb0532f92aad1e8bf753381e54e522944370470624d1c672360001b611e5e565b615be27fc0644a0c6edf22bb3f9648dd539e27d5d22252a7c685a7b004b6d834a0959c6560001b611e5e565b615bec348a6199d6565b83602001846060018215151515815250828152505050615c2e7f7956c999f16ef141d118986566321d5d61753b92d3b7e4d131afe7900cb12e1760001b611e5e565b615c5a7f1ed69597dead440fe9dd1bf49e2b6b15c8f403e437335445556cc3da4b31000160001b611e5e565b87826040018181525050615c907feac4cf517360a3e6724809bbabd8e9fb79efa7202622070f8803b8b828b7f89a60001b611e5e565b615cbc7f4f536b382cb9cf35f43b428842874929062e4af9ad9a8fdacc63ea5ef3c59d5460001b611e5e565b868015615cc7575080155b15615df057615cf87f0c91a858667f4e63efb44c97d5c6d9b7461a5297705e05f6135a1f4289eae07d60001b611e5e565b615d247fc6bb339498d313caeaa496243eb246649a5d55066e8b5cb6c5bdd3a1d5b96de960001b611e5e565b615d507fcbab219eadf088aba6758432595e5669c4094331fff846d5029d12b64d28bbf260001b611e5e565b615d64836000015184604001518a8761840b565b82610120018181525050615d9a7fc64078ecd8fddfbe9130f9b677af14f7c7aa02a00c2048f8921526c2e297253760001b611e5e565b615dc67fe80d041b9e67819ab7788b300ee3abacb93857d4378d3aef9372b059b4ec572160001b611e5e565b615de28261012001518360400151617ce990919063ffffffff16565b826040018181525050615e1d565b615e1c7f0bcde152fa61daef8b350431684610c62197cac15c2342a42ae5ce064c8227ac60001b611e5e565b5b615e497f5c4c7d3b171f0b073ec3d81b34d6cc38a66e662b9ad5d4bbd719363ae45812e560001b611e5e565b615e757f5936ee539406c5c619695bc6e4c93520fcc4ea8fb4ae8c459f56313f281e05a760001b611e5e565b826000015173ffffffffffffffffffffffffffffffffffffffff1663d66a25538b6040518263ffffffff1660e01b8152600401808273ffffffffffffffffffffffffffffffffffffffff1673ffffffffffffffffffffffffffffffffffffffff16815260200191505060206040518083038186803b158015615ef657600080fd5b505afa158015615f0a573d6000803e3d6000fd5b505050506040513d6020811015615f2057600080fd5b8101908080519060200190929190505050826080018181525050615f667f7de81505bdd7156a5c53369d7919f1827ac45d6e921b0b9e042d48aeaaf1db9e60001b611e5e565b615f927fffd1fe5112cbf07bdf4b11b3afa53b1b380a4af25c6f8878c9557673c62929f060001b611e5e565b826000015173ffffffffffffffffffffffffffffffffffffffff1663480cd5788b6040518263ffffffff1660e01b8152600401808273ffffffffffffffffffffffffffffffffffffffff1673ffffffffffffffffffffffffffffffffffffffff16815260200191505060206040518083038186803b15801561601357600080fd5b505afa158015616027573d6000803e3d6000fd5b505050506040513d602081101561603d57600080fd5b81019080805190602001909291905050508260a00181815250506160837f1d40f611b7dfd29c6199700d06acb67c34f8b19830d418caa479593e9ae3b65360001b611e5e565b6160af7f435bf12532ad192555ee06726bd11c6dfa52019f831527d951969890c89bbb4460001b611e5e565b6160c68260a00151836080015184600001516189df565b8260c00181815250506160fb7f59fd3f2a6b9a03a52ea87b6a8ffe57a9586c4a0af0ae75c5c462b5b0d98d8e4960001b611e5e565b6161277f4553a8ecdcd551833020cc3875a11544df01205e3aff20ae23b16e8a7d31f0af60001b611e5e565b61614e8260a0015183608001518460200151856060015186604001518c8860000151617671565b8260e00181815250506161837f5d5f3fdc62e0fe99ea2e3cf646c9e98c6c986484fe77e279a454e6030924b14d60001b611e5e565b6161af7f49d0ac670678ca55a3b236da86e71b832e010a31c2a333fab56e209cbd547b4360001b611e5e565b8160a001518911156161bd57fe5b6161e97fc9778ff450c5c9d892cff72350656c711b516a85477f79b3e33529b50419156f60001b611e5e565b6162157fa92fcd9d289d43038e1b5312175eafc297a85e17f551a4f22eb6756a3ff08ee360001b611e5e565b616221818a8985619bdc565b61624d7ffa9d62e0cc307201ab7fab191c9a8949727065c809814a489e7ace5644f26c0460001b611e5e565b6162797f872a80fd07d2596b7724ad04e0049155bbb6e1f5917f1fc6a6c50dbfa6c410d660001b611e5e565b861580156162875750600088115b15616415576162b87fd933a6d50de18a961166fcdd6438c16eb472d63842340009905efca4f716c20a60001b611e5e565b6162e47f97f0042a43669fa4ed0e1263455ab85ebbbbc1e456132e905feb685ccc0f115a60001b611e5e565b6163107f0a2c7013174c3776383d9474b16f7b9259554a2ad05452674613b9093a4be23660001b611e5e565b61633b6163368360400151616328856080015161a000565b616d8790919063ffffffff16565b61889e565b6163677fee3667fd2ea208e654bf4fba40d63d43e279880bab788cb3025d206efaca140560001b611e5e565b6163937fafc99b7f0fb84776d462360c651a4bc6b2f7268d06fdf07c21f4a6794b93465760001b611e5e565b6163a58260800151836040015161a0a9565b6163d17f10452a5db89941822c26d1d12d40eff200b359b57317ea857643b56420e3670160001b611e5e565b6163fd7faba396469c4a0c6654ee79ce2a11ec88d4198a90e9bdbba005f8f295c4a15f7a60001b611e5e565b61641083604001518b8460400151616dd1565b616442565b6164417f1cfbae8b4ae96356a7f90a6f6a65affb03906f885e155397cdca3f88b2aeee8860001b611e5e565b5b61646e7f140bacc4d686ae9482dae871513a2fd678bebe8dea5068f57802d413afab17d660001b611e5e565b61649a7f69306ff5d8dc5f7df5007e8b44796cabd189dac5ff703627edc814878b49c42660001b611e5e565b6164b883600001518b8460200151856060015186604001518c61a1fd565b83610160018461014001828152508281525050506164f87fd1ad3a70f3e4fbf5ac103275aa9878479520592262fc79e5b41958483d5a4aa460001b611e5e565b6165247fb3dfd450f3eff8de8c8bdf830852820e9b4db768cb3fff113a973bda6f1e4ab060001b611e5e565b826000015173ffffffffffffffffffffffffffffffffffffffff166318f2817a8b6040518263ffffffff1660e01b8152600401808273ffffffffffffffffffffffffffffffffffffffff1673ffffffffffffffffffffffffffffffffffffffff168152602001915050602060405180830381600087803b1580156165a757600080fd5b505af11580156165bb573d6000803e3d6000fd5b505050506040513d60208110156165d157600080fd5b8101908080519060200190929190505050826101800181815250506166187f55c4b63ff81d129a2fd73a23101436f79e3021a0d6538dec873f0fde4297a46160001b611e5e565b6166447f9f5555c1b7a1dcb52ec95ea4b907942b6e0e154e36ae276e786d8090ad10d11f60001b611e5e565b60006166688360a0015184608001518560200151866060015187604001518d61a66d565b90506166967f818c5dfae8ad39d51fe0d3ae33b14db1db57e4e5d3e7862451cf32e34be496d360001b611e5e565b6166c27f4c8ae12d408538e8db45da9ca427d034f19393c21bdf427057d4187559aa791160001b611e5e565b600b60009054906101000a900473ffffffffffffffffffffffffffffffffffffffff1673ffffffffffffffffffffffffffffffffffffffff16632be212608c838a8a6040518563ffffffff1660e01b8152600401808573ffffffffffffffffffffffffffffffffffffffff1673ffffffffffffffffffffffffffffffffffffffff1681526020018481526020018373ffffffffffffffffffffffffffffffffffffffff1673ffffffffffffffffffffffffffffffffffffffff1681526020018273ffffffffffffffffffffffffffffffffffffffff1673ffffffffffffffffffffffffffffffffffffffff168152602001945050505050600060405180830381600087803b1580156167d357600080fd5b505af11580156167e7573d6000803e3d6000fd5b505050506168177f71dda53a570ac41a32d84f5d31e662c4b5243d3fb0fa3394ce2da64dceab148160001b611e5e565b6168437f45914852167a6a6a836a018e45f3d71a3d6d0c285822263c0cf5694411f1994760001b611e5e565b8a73ffffffffffffffffffffffffffffffffffffffff167fc3770d654ed33aeea6bf11ac8ef05d02a6a04ed4686dd2f624d853bbec43cc8b8461014001518561016001518661018001516002604051808581526020018481526020018381526020018260028111156168b157fe5b60ff16815260200194505050505060405180910390a26168f37f8f8c74d44b0f416812004d5a06fc2f6f2d1a4773e7ede59b9ad911e5e8ab05a060001b611e5e565b61691f7f696132fd0d9e6491fed18f1b2d3c85d726d2796f6f6d08a4f1ba887a41c6ddf960001b611e5e565b3373ffffffffffffffffffffffffffffffffffffffff167fa55c5f48fd29482ad55f4b59bf070cd1ac1a7132a31f7a136ebe8877ae37e1ff8461012001516040518082815260200191505060405180910390a261699e7f6de31cd51afc32057c630aafe5baededc455bf236d9da4094fd7628d6e8e962560001b611e5e565b6169ca7fb648d8781a2421208f937870d00f3690f8cee121ee74f66290110cb98f0a49a160001b611e5e565b6169ee8460200151856040015133866020015187606001518e8e8a6040015161a7d6565b5050505050505050505050565b616a277fa031afaf9492c76aecf388c61b4168397172279f840e66e488abc23a0115009860001b611e5e565b616a537f0d1b580483264c749b8380a8273272cf2be2551b75fa21df849ac44137edb96260001b611e5e565b616a7f7f4c206f0f39743f28eef40973de802c8c76a27e4bdb9114d13007ab9d39bf1f9e60001b611e5e565b60008273ffffffffffffffffffffffffffffffffffffffff166321e37801836040518263ffffffff1660e01b8152600401808273ffffffffffffffffffffffffffffffffffffffff1673ffffffffffffffffffffffffffffffffffffffff16815260200191505060206040518083038186803b158015616afe57600080fd5b505afa158015616b12573d6000803e3d6000fd5b505050506040513d6020811015616b2857600080fd5b81019080805190602001909291905050509050616b677f9047fa3aaf7c5857295428f7c4b99e1beb6cf7649f805ff718e21a5d4835e37260001b611e5e565b616b937ffa378abbfc646480ac129d4f72e35cafab6db65252bfe91acac918cbb0ee659460001b611e5e565b616bbf7fed7b097637dd51a1f68778ef9ce4ded7b202df93d7f1d782ac2620a176da1e5460001b611e5e565b60018114616c18576040517f08c379a000000000000000000000000000000000000000000000000000000000815260040180806020018281038252602e81526020018061b93a602e913960400191505060405180910390fd5b616c447f2151d30b0d997303a82779db2c22214ddec68dd4135d2d12524d43d7aa29b44760001b611e5e565b505050565b616c757f10555c54657280b9171dee531de9adae8137a4b13ce79f30f31103a2d1d7ed4060001b611e5e565b616ca17f06adb358e488a2bda2faab71b26f363e756d7b56d43377cf4242d50ed129530f60001b611e5e565b616ccd7f66ec9a25780cee4837398b3d447fede975ae51bfc548cafcb3459f4b5f87e3e860001b611e5e565b616cf97fc28b4b8ae5128fa1bd2a636e964a0b40315dc87b04075fc18a0302c4b496276b60001b611e5e565b616d0281617d71565b15616d58576040517f08c379a000000000000000000000000000000000000000000000000000000000815260040180806020018281038252603981526020018061b7e86039913960400191505060405180910390fd5b616d847f7233affe11df76e7cdcbf69db9d1614a91cfb6bd917a06ada5e5046c693d194360001b611e5e565b50565b6000616dc983836040518060400160405280601e81526020017f536166654d6174683a207375627472616374696f6e206f766572666c6f77000081525061aba6565b905092915050565b616dfd7fe35a56e91bbef86d5d47187638e0092565bbd19435dd6b33433ed7daa10f9dd360001b611e5e565b616e297f826650c8a8d04f9edc0e148abda743816dd895706791d2bc76bec50156a2a4ec60001b611e5e565b616e557f64050c77c1a41fc3a29a4474811b24d2fef49e05dc776e7f96d8144f31cec28160001b611e5e565b616e817f37d08d46ce2ea1ea109dabc3d0eeda1e54344638cbc6c0086a4f203f5b02480c60001b611e5e565b808373ffffffffffffffffffffffffffffffffffffffff166370a08231846040518263ffffffff1660e01b8152600401808273ffffffffffffffffffffffffffffffffffffffff1673ffffffffffffffffffffffffffffffffffffffff16815260200191505060206040518083038186803b158015616eff57600080fd5b505afa158015616f13573d6000803e3d6000fd5b505050506040513d6020811015616f2957600080fd5b81019080805190602001909291905050501015616f91576040517f08c379a000000000000000000000000000000000000000000000000000000000815260040180806020018281038252603d81526020018061b9a6603d913960400191505060405180910390fd5b616fbd7fd3254060b9be6b75a274dd6eafbea714b99623d0e6a0088dd273a7eeea21f45d60001b611e5e565b505050565b6000616ff07fc82b3049d3aea1a165014b0d26bbf75ec378e6d4de1eb27a56a3b1e877113d8f60001b611e5e565b61701c7f8efcd2cdc4c8cf20c8d3c1d53edb429ff555d29e51b513f087d5f54fe5a2eb3160001b611e5e565b6170487fea98ce62acb4621b31e90b2fe73e52cacc6d57dbaa9e53d13f34dbca4a48ff8560001b611e5e565b6000617052614e4a565b90506170807f68e3625cdface88f17ba50286cf7b61394c9342f39d6f3f6b0874fb320f1a12660001b611e5e565b6170ac7ffcffaca2a937f99a125e6c7e8dfe9854d81914c88bcd20b9452e06123d5af41560001b611e5e565b60006170b661353b565b90506170e47f5b2c37fc0cb5a60166cf776dbab5c043e60ce0788d7ca9c1ee48c4048f208d8460001b611e5e565b6171107fa845710b1ea3a236e4593f8d7e85c435f8852d92c4b067f46619b16ba69e4aa560001b611e5e565b8661712d576171288883616d8790919063ffffffff16565b617141565b6171408883617ce990919063ffffffff16565b5b915061716f7fd7f0ae61d34ac2209b981dfe409df3c77891cfb3086301415cd983117a93ccd660001b611e5e565b61719b7f207009ca8ec98364ccac789c0ac27a0692894a0796df62dafe203d3600ce3c2860001b611e5e565b846171b8576171b38682616d8790919063ffffffff16565b6171cc565b6171cb8682617ce990919063ffffffff16565b5b90506171fa7fa6a7d5750f37e4b773e5824de160204cdfed9e08af10845e749c5853c0a38d8260001b611e5e565b6172267f75b652d4841186c94c17c6418084d941b139d16d45ba684b6784f5011c09664460001b611e5e565b60006172338383876189df565b90506172617fedc8e3549dfbcc0d682ef59cb8134d63f397f2501fa9cc73fdc87afa349f5fee60001b611e5e565b61728d7f84230078941ce6de55c086ddb0879bfb188ec4b78bec6d5951d4a9e710c8b6e260001b611e5e565b80935050505095945050505050565b6172c87f95199642062d202b5119eb8d15dd7f59d64d75d793f89ad66d37ef47d10915ce60001b611e5e565b6172f47f9db1bfa653f4eb776af412ba0ddf622b94e2106b29d08a5ef948861459c9294e60001b611e5e565b6173207f29293be17283bd139e45a1874d90038049236168e4c0b83cc7e6646ed0afb90360001b611e5e565b61734c7f5d9afe91b45f5280615a6a80ac70ee55b156ddbaf48818c8f57e88719a74e64c60001b611e5e565b6714d1120d7b1600008110156173ad576040517f08c379a000000000000000000000000000000000000000000000000000000000815260040180806020018281038252604981526020018061b8f16049913960600191505060405180910390fd5b6173d97f8e2081e07db272abf70f930754e80ced8a1567884d4f21793ae3ef1a739fe7a760001b611e5e565b50565b6174087fa0812b4f1a68b4a9af4d5e99af89416a245aa7112e91fdfa4b3961e9c396c56960001b611e5e565b6174347fa9604a693e595ad84561983e1076fd458093e46427ce2ce7f0a86df3811b63f460001b611e5e565b6174607f36c8fb1367690beaa08071a0b32bc7fe0251eea40b58d51ce0952745708027e660001b611e5e565b8373ffffffffffffffffffffffffffffffffffffffff166338d995a8826040518263ffffffff1660e01b815260040180828152602001915050600060405180830381600087803b1580156174b357600080fd5b505af11580156174c7573d6000803e3d6000fd5b505050506174f77fe2883a57001735dc27a81a65244c72073b783ac2f08730cdfd5f6c20cd57003960001b611e5e565b6175237fc62e16542e37007b2d31dcd5b2db1b91f6ef2b7d4f884a4d21ba91946639f8db60001b611e5e565b8273ffffffffffffffffffffffffffffffffffffffff16639dc29fac83836040518363ffffffff1660e01b8152600401808373ffffffffffffffffffffffffffffffffffffffff1673ffffffffffffffffffffffffffffffffffffffff16815260200182815260200192505050600060405180830381600087803b1580156175aa57600080fd5b505af11580156175be573d6000803e3d6000fd5b5050505050505050565b60006175f67f0480216eb9109bd61472e74a565bd6384ca7f2846f74b4851542b9ba4bc0319d60001b611e0f565b6176227ff151d55d4ef750a2c007165862a29b3e311a4ea0cb052d7c4fe57249906891f660001b611e0f565b61764e7ff7b41b1a3b71c39683c5a5178140cf306f59a90ff780a78d62b16cb4bc68affb60001b611e0f565b61766a680ad78ebc5ac620000083617ce990919063ffffffff16565b9050919050565b600061769f7f0a6199a21045fad1bb03063a22761bc90145bfcfbb08cfa2644156b2e01d811a60001b611e5e565b6176cb7fd007bd82221e1bac74ee53e309a04a437738f09be7faaf62b1eb39c5e7f017c260001b611e5e565b6176f77f2673405db76d61c758105c5b0e79dd242ab658196aba0ae44bba9450a288a7c460001b611e5e565b6000806177088a8a8a8a8a8a61ac66565b915091506177387f5258011ac767f13ff845fa45b9e7b1e99402867d5a1ee33736676c3e5b6c6a9960001b611e5e565b6177647febe838dfe5caea6bf632a2b31de10feed75535d6592917b120c20becd4a816f160001b611e5e565b60006177718383876189df565b905061779f7fe4813557184f6f22fc1686627dd73c330d46b718787ed058664814d545b397fd60001b611e5e565b6177cb7fd08276c415c503f2ca1a628b9545e5a0a3d9e11b5582af29fdbefaf667662aa660001b611e5e565b809350505050979650505050505050565b6178087f35bc9e5e61c1438a006153cf69ffd6105766a3055440d22f6c8ce219146d68af60001b615169565b6178347fe66c045f45b868efda896f2af22ed71637a4e9e8d13a2b1962badf362ba3eeb960001b615169565b6178607faaa4b517f253b4fa37cb2875514a22e04e7d5828c244c7095a27e85408ccd12c60001b615169565b61788c7f1221da0bd0f16fcbee175d4dae7d6b598e327e79264e77ced4c93a6a0721871b60001b615169565b600073ffffffffffffffffffffffffffffffffffffffff168173ffffffffffffffffffffffffffffffffffffffff16141561792f576040517f08c379a000000000000000000000000000000000000000000000000000000000815260040180806020018281038252601e8152602001807f4163636f756e742063616e6e6f74206265207a65726f2061646472657373000081525060200191505060405180910390fd5b61795b7f09f0dc62d572b9e8dd242a1b7e25c3c5de1610d6c480bec35912dd5840f55fec60001b615169565b6179877fbe74447fdea037b64141768df2430eb2b7113bef949c88d88dcdc549ba88703360001b615169565b6179b37f04e66872d3f4c69728dfe545a06401e1b17e0f9dd5e1d43290514ae4fd92783060001b615169565b60006179e17f60826eea4af75abd2223d108cb037485a60c485e699a12a42cac24982b89800660001b615169565b813b9050617a117f7acec79ba6fd0be7bb4b2bfca56ca8eb3d8333d64e828971ccb7647facc3806360001b615169565b617a3d7f0c7e0405db301404f844860b9fe6e14e956a97134ff8695c88184f1c957d6e0860001b615169565b617a697f1c5a94c5a5d640e17d84bedbf9409c7f8afe563c4b1fceef7bced5961764ee0f60001b615169565b60008111617adf576040517f08c379a00000000000000000000000000000000000000000000000000000000081526004018080602001828103825260208152602001807f4163636f756e7420636f64652073697a652063616e6e6f74206265207a65726f81525060200191505060405180910390fd5b617b0b7f1023f03b6261b194c29dee3596b0d25a3be14b60910a1d249d0177db54f54c4a60001b615169565b5050565b600073ffffffffffffffffffffffffffffffffffffffff16600360009054906101000a900473ffffffffffffffffffffffffffffffffffffffff1673ffffffffffffffffffffffffffffffffffffffff167f8be0079c531659141344cd1fd0a4f28419497f9722a3daafe3b4186f6b6457e060405160405180910390a36000600360006101000a81548173ffffffffffffffffffffffffffffffffffffffff021916908373ffffffffffffffffffffffffffffffffffffffff160217905550565b6000617bfe7fbb2d0288b066c3025c34d83259c77145d4a56f1c50feda3b8d795db661fb465c60001b611e5e565b617c2a7f65cfa210ea9756d8a84eafd9b3e3ea8a4d6cf3cb413bd31c14623306ca40aa3960001b611e5e565b617c567f3ccdbd6e470c42f74daa95cb4e38c1ef8a1b01e65987307062e5db021eaaf77860001b611e5e565b6000617c85670de0b6b3a7640000617c77868661aed090919063ffffffff16565b61af5690919063ffffffff16565b9050617cb37f985f4f984dfa1778c0d7149c50097ef48568c724f228eaf22a7f45d05bf2777960001b611e5e565b617cdf7f991fbbad8536d755ee4232ff599696baeef3f6c772f5b8f03adada7cca57b29d60001b611e5e565b8091505092915050565b600080828401905083811015617d67576040517f08c379a000000000000000000000000000000000000000000000000000000000815260040180806020018281038252601b8152602001807f536166654d6174683a206164646974696f6e206f766572666c6f77000000000081525060200191505060405180910390fd5b8091505092915050565b6000617d9f7f147b00b6dfb7ae8a4e87645c7ca77266441741fe56fc7b5f7b5b8ad259a6d28e60001b611e0f565b617dcb7fc638540e751fe7551cc5cbfd9158321c0ec71f77d6418c73fdaff393e35cb4b260001b611e0f565b617df77fca23378d8a02c8f9b654f27cbeb79b4d5f9df68d5c3e868bb7d7873c9167757f60001b611e0f565b6000617e028361afa0565b9050617e307fa68e5f40d7be8042db6688cc33112600c21fbc1841e48996e5a812d643ef155460001b611e0f565b617e5c7f5c85d4ef3ef98408d868b4261fcb8a9238d27d22b6029d804112e31f1a9c2e8a60001b611e0f565b6714d1120d7b1600008110915050919050565b617e9b7f71fae87aae1ac2bbab03b6a4d4fbe7c806d4c96708f2e420d79e06f18fb6cff360001b611e5e565b617ec77fc95e596829b8959f790b1728169163c46ca5a97f5b9412777753383495322eec60001b611e5e565b617ef37f4634e4f74b89388b32bdf1c8255629d2eb03a7991426a5c9902052f28c951b4060001b611e5e565b801561803b57617f257ffd79995ac51e9a708e525283557965a027d280030f57d8fe5b64d39f26681b9660001b611e5e565b617f517f600a0bf6def39e7cf31d79914388188b7bba3c0bd1dc6904b6a3145d9edcb51f60001b611e5e565b617f7d7f191a2c9b2324143c39ab4a1d6d81e10026320308a9577af3a4828e092a4020d360001b611e5e565b617fa97fffdbe6cf6c25860953a7f1f5dd49a9d8500116e195b4bf14fa1b3d76c36f92b960001b611e5e565b670de0b6b3a764000082111561800a576040517f08c379a000000000000000000000000000000000000000000000000000000000815260040180806020018281038252603281526020018061b8586032913960400191505060405180910390fd5b6180367f72a8a05dd1b31875ceb06b976bc5febf1f46110f5aa9b04f45f5245493f3e08260001b611e5e565b61819b565b6180677f1d99a618ef2953087be7ba1ba6a2b8ca066562a730b73be8046dac166224b76360001b611e5e565b6180937f97d1873f2e6734277636161cce700cf7fce30a31dffaef01aff8c6d323d3f59960001b611e5e565b6180bf7fa15520400274299663910b9fa8c01b3171076066d1d8fd80dd8067210aa209e060001b611e5e565b6180eb7f7b350c09002a5391edde28889c16901ba29ddaf27752c286960837c44216a4ca60001b611e5e565b60056103e8670de0b6b3a76400008161810057fe5b040282101580156181195750670de0b6b3a76400008211155b61816e576040517f08c379a000000000000000000000000000000000000000000000000000000000815260040180806020018281038252603081526020018061bad26030913960400191505060405180910390fd5b61819a7f839ff0a4a1e3548fc86d8c091854457b42645f106f0a2e4ee30c443e0dd4ad9960001b611e5e565b5b5050565b6181cb7fb53c4873a75a1f1791ae0b66b85dcc49433d39e129b75a76ce770f53f243f91260001b611e5e565b6181f77fa3b620118c3f33ccf327d10f47b8822e4403320bdffdb738e4966436683cda5560001b611e5e565b6182237f7c2f6caeead669e3f355addc7a564796b854ce3f6edfc4f4355e7f012332a19460001b611e5e565b60008273ffffffffffffffffffffffffffffffffffffffff166321e37801836040518263ffffffff1660e01b8152600401808273ffffffffffffffffffffffffffffffffffffffff1673ffffffffffffffffffffffffffffffffffffffff16815260200191505060206040518083038186803b1580156182a257600080fd5b505afa1580156182b6573d6000803e3d6000fd5b505050506040513d60208110156182cc57600080fd5b8101908080519060200190929190505050905061830b7f9073380ee163c16dd5befc869ace0da0c43392a7b76c5a8294b7b1b8ca79deba60001b611e5e565b6183377f128cbba576b153b8e5fce30ef7e7de8a696108e780ae5d0c95ab20ee45605f9e60001b611e5e565b6183637f43f5f0aceb0c9c3168ad7045bd0e0f56871f65206a52012835c14b5803d7306660001b611e5e565b60018114156183da576040517f08c379a000000000000000000000000000000000000000000000000000000000815260040180806020018281038252601c8152602001807f426f72726f7765724f70733a2054726f7665206973206163746976650000000081525060200191505060405180910390fd5b6184067feb7979f082ea4725da0c8d34a57bad79da90440b6e9f1a2691ee89f4d1b6f4d460001b611e5e565b505050565b60006184397f5e2e6b0cdb118d110745bc527f2bcd7c8e64de30322fee315480022e9d04eeef60001b611e5e565b6184657fdd661ddcd0e9cca0eee7b6051d1cdf3ecd94dee3d9dfe1ba6bee7760f1da989160001b611e5e565b6184917f1d6af51433ad4a9a69008995a08833075f8913abe81c2d4a19bf320427e0da9e60001b611e5e565b8473ffffffffffffffffffffffffffffffffffffffff16635dba4c4a6040518163ffffffff1660e01b8152600401600060405180830381600087803b1580156184d957600080fd5b505af11580156184ed573d6000803e3d6000fd5b5050505061851d7f40c39eff2c699fd0c0bd25c003394f886c90acd19a8154e31fdd168e860efbfe60001b611e5e565b6185497f68edff694dbbd2d4cb98ad2b4773dce69dda6f936b1abdba61183ffcf1e981c160001b611e5e565b60008573ffffffffffffffffffffffffffffffffffffffff1663631203b0856040518263ffffffff1660e01b81526004018082815260200191505060206040518083038186803b15801561859c57600080fd5b505afa1580156185b0573d6000803e3d6000fd5b505050506040513d60208110156185c657600080fd5b810190808051906020019092919050505090506186057f6331502561f9dfb0eaa41ab575565f77a60402190a5fab5b9745dcc65668b97360001b611e5e565b6186317fcfc34e08ebf2c96c013378bf132f0f791aee9e7d16dc0924787fcf1a6fa0f40760001b611e5e565b61863c81858561b15d565b6186687f98195c6b65067da6381fc98ebc1a0b69746eb88b620388a06a697b2fde184e8360001b611e5e565b6186947fca45ed328b26115224b407c552f89bc18146573cda7c0a5c33d6b6ccd7f4d94360001b611e5e565b600860009054906101000a900473ffffffffffffffffffffffffffffffffffffffff1673ffffffffffffffffffffffffffffffffffffffff16634677ffb3826040518263ffffffff1660e01b815260040180828152602001915050600060405180830381600087803b15801561870957600080fd5b505af115801561871d573d6000803e3d6000fd5b5050505061874d7f389b043ab35f8f7f43bbac05ea12038b471ebcdfd276091324036722129dcfef60001b611e5e565b6187797fc1b023f4264b34283ee078300f7a885c57d3e937a333866a725c6f5952a6336660001b611e5e565b8473ffffffffffffffffffffffffffffffffffffffff166340c10f19600960009054906101000a900473ffffffffffffffffffffffffffffffffffffffff16836040518363ffffffff1660e01b8152600401808373ffffffffffffffffffffffffffffffffffffffff1673ffffffffffffffffffffffffffffffffffffffff16815260200182815260200192505050600060405180830381600087803b15801561882257600080fd5b505af1158015618836573d6000803e3d6000fd5b505050506188667fb213841a7f4fefd78253f5c8da2d1b7efd58a1500168a535a7643f2267d7e60a60001b611e5e565b6188927f2e022e39add7171ba4035093436983af8980362677147f6eea6ac8f8da43161360001b611e5e565b80915050949350505050565b6188ca7f0927b62856ab6231fad5058546351edb1069717582ebb05f0af930757239e4b360001b611e5e565b6188f67f3dfb4ef28ffeac20f5ab4d223ece8363be2a58fe7ed062e6ad3297b67c94f6a760001b611e5e565b6189227fce81a4833d89da624eaf4adf3740498b525960767e600078f16912106eb32eb860001b611e5e565b61894e7f0104e160ba1bc9a79f9efd751c4bf916f7ff358f5712cdb8ff70d764a662a5df60001b611e5e565b686194049f30f72000008110156189b0576040517f08c379a000000000000000000000000000000000000000000000000000000000815260040180806020018281038252603a81526020018061ba2c603a913960400191505060405180910390fd5b6189dc7f01956cca3f4de47bb5bdf0b34d88527217d360057834ec34e513537797e6925a60001b611e5e565b50565b6000618a0d7f1fb1c924071e50c2aa9d7f09291fd7831d6481aed3d64d9a31927fcfdf29670460001b61b33e565b618a397fe7b149e83ffc59b38b39430566aa51ffe74fa9a62f9938fe60d6498035c2084060001b61b33e565b618a657faee8586873401c81b69ef021f1b4b5e621ddc8264ed2170bf01f4cd794b65e9560001b61b33e565b6000831115618b7c57618a9a7f938b7a907927def325175a9b9763324c21d376a1db58b873fc572191995adeee60001b61b33e565b618ac67ff3fb017b46a6cc03056717fe487f10efbc4957bbee55feae53211d955232e77d60001b61b33e565b618af27f9cce84226470f7604a220b104bc94d4e1416b0a5f92e345811d5a6128b8d335060001b61b33e565b6000618b1984618b0b858861aed090919063ffffffff16565b61af5690919063ffffffff16565b9050618b477f29c960a6fa3b8822049ee000006565af8f6225894520628c65eb2fc49a99191e60001b61b33e565b618b737fb7ae7f080fe4eb0c3f53fc10df2345210d66b1892b1a75445349a70febf2803460001b61b33e565b80915050618c24565b618ba87f8def5a1860b799231f1daace23252caf496d44221af1a5212660498a692981dc60001b61b33e565b618bd47f7a561ef4150ea5b53610168f34b9d8e9711bf468f453fff46192e6af13353e8f60001b61b33e565b618c007f57732a23ba8b96e60679d6ddbcc37e1db663eb60ba05c84a212a4c73f10e9b8760001b61b33e565b7fffffffffffffffffffffffffffffffffffffffffffffffffffffffffffffffff90505b9392505050565b6000618c597f0a957dc6e50b79f4198337292f975c97f1e46d2fd879495bd9d3e8b465c5908260001b61b33e565b618c857f36b6df758e5d32c7a54e70939249466cd685f55a6000a796488d904e950ff55160001b61b33e565b618cb17fdae53b9988856ecade943ff600d8410ffe098b0e9b0d2a20e0d4e6d629dadd0560001b61b33e565b6000821115618d7357618ce67f97ba562ff5a52d5e376440b75dfde7cde5ac945e09a50385ed302c8fa4c93a3560001b61b33e565b618d127fea72f26e58a660e89daf76a6338c4ea7c326b03c642e05985fecf7e1344071e260001b61b33e565b618d3e7fc566fce390725f3d5e0bf4a75af0125a0be036fa403638b30478399b1c0c30c160001b61b33e565b618d6c82618d5e68056bc75e2d631000008661aed090919063ffffffff16565b61af5690919063ffffffff16565b9050618e1b565b618d9f7ff93684451e504ecaf8543b25ab42519bfa810eec4ba3d920d4653a1c16b0e8cc60001b61b33e565b618dcb7fffa4d87f788e1c9f8814f84d7b1775d9b36b21962786a14d2a1ebae57a7a352160001b61b33e565b618df77fb15b56e0dec2133675b26fd4423bbd9ae3370ed1bdb703025845a76469b40a5360001b61b33e565b7fffffffffffffffffffffffffffffffffffffffffffffffffffffffffffffffff90505b92915050565b618e4d7ff41b13f1330baf7ece0668020a46a412d2e39fbbaed7e08a6b4a430c878ceb5c60001b611e5e565b618e797ffbc5dcd460aa06dcd4a03bc2e3845f027eb9380871a58573293d461c7ebadb3360001b611e5e565b618ea57f3346cbb4c3a22511b273a55cd8c1d525621a8c0407cd3ecf2932987b56367c0a60001b611e5e565b618ed17fa237cf644f76ebd9411de2b2281604e13423c49b2f19e0c3ae3c119d152e198760001b611e5e565b6714d1120d7b160000811015618f32576040517f08c379a000000000000000000000000000000000000000000000000000000000815260040180806020018281038252603781526020018061b8216037913960400191505060405180910390fd5b618f5e7f03e5a39686cd7770a2c69d7c2eed21c12c1a6aa2720de29f09ca70830ed4c25260001b611e5e565b50565b618f8d7fc18fd8023c2b4e01efb505f40f165a1041becd101b28495b44974e1079af0b6560001b611e5e565b618fb97f86b263de3aefe53ba747ef52870f7af85ea54bcfb5ee48f74a2baad30276045960001b611e5e565b618fe57f54607143ac7423ad11f5d1b73a94f0fd58cda368c5f1fb14d359ea009299cb4160001b611e5e565b6190117f7f876765ffb24d40113bcfe7f6e8d9cd2f96d0ba6a5467b24d942fb27f86579060001b611e5e565b670f43fc2c04ee0000811015619072576040517f08c379a000000000000000000000000000000000000000000000000000000000815260040180806020018281038252604981526020018061b9e36049913960600191505060405180910390fd5b61909e7ff069f4e725796ee711153bd84f5545bf0a5575dd93c60c8262097235b275633c60001b611e5e565b50565b6190cd7fc690be3f85b1ec5bb437a383a102049594e821161a4fe67e526872cac4c704ec60001b611e5e565b6190f97fe51c28aa6739cdf5bddc83871627e810819e1f82e072029049e8e10e6402469e60001b611e5e565b6191257fba842711aee6c437fe6bd36dbe5c2c5ac6979eb9d02f15f21762bb28f8bdbdcd60001b611e5e565b60008273ffffffffffffffffffffffffffffffffffffffff168260405180600001905060006040518083038185875af1925050503d8060008114619185576040519150601f19603f3d011682016040523d82523d6000602084013e61918a565b606091505b505090506191ba7fc256add0adee45b43eb7a6faa93cbe6f8456b970b888c90688fc857549930aef60001b611e5e565b6191e67f42c5a1c1271d205a187eab745bc4c9b64fc9f5b5467e38810e5cd27cf9266c0160001b611e5e565b6192127f56b8e317978c0488e3e69129a5045d66552da2b13daf3a47f95678d072800f2260001b611e5e565b80619268576040517f08c379a000000000000000000000000000000000000000000000000000000000815260040180806020018281038252602d81526020018061b78b602d913960400191505060405180910390fd5b6192947faa51ce23b916eb12ba55af21b406bcd1c4376c9de6fa6048ddbcc2e24563722860001b611e5e565b505050565b6192c57fbbe0c26b497790f190386e42640a7829344525eeb78165fb46f5b1d863d6433560001b611e5e565b6192f17fa0cacec72194cf44d1148d83f10e7383007e9d5ed5f933557ce9901688291ff860001b611e5e565b61931d7f8f378be7bc15d32e4b27036e482a4213e440448304e8b834dadf5617112e2b4a60001b611e5e565b8473ffffffffffffffffffffffffffffffffffffffff1663cfb9329a826040518263ffffffff1660e01b815260040180828152602001915050600060405180830381600087803b15801561937057600080fd5b505af1158015619384573d6000803e3d6000fd5b505050506193b47fa541b0223e8a2c4d091e00e25b1df718465b6288f8eadcebc328291541f280e760001b611e5e565b6193e07f663ba4b457b81842185fa2661a9457ec29e68e462b66f9dc840adba04a16fcf560001b611e5e565b8373ffffffffffffffffffffffffffffffffffffffff166340c10f1984846040518363ffffffff1660e01b8152600401808373ffffffffffffffffffffffffffffffffffffffff1673ffffffffffffffffffffffffffffffffffffffff16815260200182815260200192505050600060405180830381600087803b15801561946757600080fd5b505af115801561947b573d6000803e3d6000fd5b505050505050505050565b6194b27fb28eef1925312999b98bdf9684f3c71a1ed7e71e807298098b51512ecadc55e360001b611e5e565b6194de7fd72be175d5e96e1523422b7d69ab73981880d2205754b245f5181bd346fa7a3060001b611e5e565b61950a7ff555e4866c9a7e8902605643456e3689af2e7022ee37490fbbff7c9f21ac98fb60001b611e5e565b6195367f9045848fc3dc8ebde3824e3d0bfd6135873671bbc790fd1d03a9fd756e5e077660001b611e5e565b600560009054906101000a900473ffffffffffffffffffffffffffffffffffffffff1673ffffffffffffffffffffffffffffffffffffffff163373ffffffffffffffffffffffffffffffffffffffff16146195dc576040517f08c379a000000000000000000000000000000000000000000000000000000000815260040180806020018281038252602981526020018061baa96029913960400191505060405180910390fd5b6196087f0514d74d183f3c24efd1fbdf94103c58d5f3df01eb244c76472aaccb485bb38b60001b611e5e565b565b6196367f541ed94725eae8a22512d75a33e808a3a747dd3eca87fd7b3de4593a699972d360001b611e5e565b6196617eed6bff145c3044f691dd5cd6c4f9b27fe72a1f3fa448dc0795b2c5f58f7aa860001b611e5e565b61968d7f0f2e9e6b5ea74a13b41d91e0944005501d7108464923c800dcabc9f0f624474360001b611e5e565b6196b97fe5c3f98edab67c11ed764de53a13340ca3987667df31cb8922c8a5a75b15dc6260001b611e5e565b60008111619712576040517f08c379a000000000000000000000000000000000000000000000000000000000815260040180806020018281038252603781526020018061bb026037913960400191505060405180910390fd5b61973e7f681a71e9a5c8df1515c055b9bb2515f5d7c630e83314d8dd81ea5762b9b23b2560001b611e5e565b50565b61976d7faafbd3def1bb4d948901dd5367bc880c0c5f692a14ec08c9c500077eafb6132f60001b611e5e565b6197997ffa20bf274b6a071a76344e9130a885d4aca9cbc16067ea8d0726aef9b521da0f60001b611e5e565b6197c57ff1bbc755d5e41f67e7037b3f23764df6788b59c3fc6b93d8f1f807f22fb0f3a660001b611e5e565b6197f17fcb63714b59c8c2e970fd0de746e77e8ac5803aea74aeb6490b4f7d2d6461356b60001b611e5e565b60003414806198005750600081145b619855576040517f08c379a000000000000000000000000000000000000000000000000000000000815260040180806020018281038252603081526020018061b7b86030913960400191505060405180910390fd5b6198817ff14dff752744814a55e8d3315f75d8e78629cf8dffb968a3be6e217b74f5c4aa60001b611e5e565b50565b6198b07f4f70f65e378e3b6ad8d0e1270059e20a99458d7e37618450769efa0f44508d9e60001b611e5e565b6198dc7fbaedadea860c77d1ba1838d410799c9db50517e2f878532bdc71e107d1dcee7460001b611e5e565b6199087f1b434cb9b3bc634d9921da6d682d907c5b5e9be69d9e00daa75610df8e845e5c60001b611e5e565b6199347f3087c0df2992d29398fdb974fff046e83311ce783be070abafef038edb6895d760001b611e5e565b600034141580619945575060008214155b80619951575060008114155b6199a6576040517f08c379a000000000000000000000000000000000000000000000000000000000815260040180806020018281038252604681526020018061b88a6046913960600191505060405180910390fd5b6199d27ff5974b214a0980a36f0c0e0a03fdb909354ebe562a56d657db443e843539bf7560001b611e5e565b5050565b600080619a057f0a4e6325225105bda424b0419d8cbc6b5570bd6ddae6b433c7909201ed4138df60001b611e5e565b619a317f7454c9d780baaf9dbdd31d1c752d97cb1439ae98459f553ea04c2a761b23d6c360001b611e5e565b619a5d7f6aa674668e1d00d3a14b93ea71c5cd1305a9012700a639b9f603a6b5f800e8bd60001b611e5e565b60008414619b4d57619a917f51b0dfd483089307a32402a92c15a5d0cb1f9619622f8ec6b2aaec146725f0d060001b611e5e565b619abd7fc386ec503e84752cbe6009aea785fbebf57a8612256befce5c8c3489c971ebb460001b611e5e565b619ae97f2ae11fe37536601d3c0ca58db0bc59a48ebed8e55752448b7423bf78fb14c89f60001b611e5e565b839150619b187f69068df8d3c39cd433330609a37666f5f6f7287dd06687601d761c28cce92cba60001b611e5e565b619b447fcc02ca0cbc45f5474525146d9d4482dd0ce04b3d2685eeb11155a59e381b342f60001b611e5e565b60019050619bd5565b619b797f47835915d614a34262ce8ff4abfbe25545cf5670807649e5bd3d3a101938af9460001b611e5e565b619ba57f4623116a5b4492cd9d7be0ffe810114f996dd5535e0cd87b14a7c74b4f291a5060001b611e5e565b619bd17f82dfc792a69c2fab8e804731855892a34c7f31c2453296fb2c12e0034c1346a260001b611e5e565b8291505b9250929050565b619c087f29fdc856a12fe9f5e95cf3a34f8a64faba70d34c34d77e2e288e7840eb42476960001b611e5e565b619c347fba2d1c6a33c99233132c084a18065998d339caf86329d4c22708b8af6e7af28b60001b611e5e565b619c607fdaf1123ef7bf7b7fdce57c662af837d530fd22af0599e97462beffec71a1a40860001b611e5e565b8315619e8357619c927f618d7c4ca8f1098420f4aad990ee7a81089ae88bc355054d39f3c7b1aac35a4d60001b611e5e565b619cbe7f892f55816faa770ae64e9fadb5c589a48bb27c21d1b472d79d5e6b0d34cef8f060001b611e5e565b619cea7f0deaf5aed2249cb2c8d3ab4c7956aacc14a7b21411f535a7d38ef4d822221f0360001b611e5e565b619cf38361b341565b619d1f7f806a0954463db0e3ffcacbe61d973b5f283f340ebe9356188f09518d8ec349de60001b611e5e565b619d4b7fe26d2a73ba0abd9b407815c63e842a560f067ac6c56141e8893303fd00001d9960001b611e5e565b8115619e5157619d7d7f3f9cc1434270d81b589e6a6efeb45b891459b30f21129f6a613d36b3e3401dc560001b611e5e565b619da97f0a6daf765a2444a501521d5687be50be467f6d1c9434e1a8e43977251c2c38e160001b611e5e565b619dd57fdda69341b888ef14e6fa024cb32c3704a3ddd9ecfa2b24579718064006fc2ae260001b611e5e565b619de28160e00151618e21565b619e0e7f9c491f4ded71b697f16e970c826a52966911707d21ac7a5bffca579923f2425060001b611e5e565b619e3a7fcaa00386faf0799b16acf2c5dc2e82b75cf284080f89f61f5e9e37df837e17c260001b611e5e565b619e4c8160e001518260c0015161b479565b619e7e565b619e7d7fb33d8fc7c8fcb22ce7101c4bed38482a7bde8a8f3b89eb8bb26802e15055378b60001b611e5e565b5b619ffa565b619eaf7f73fb542c4add680963aa5498bf7705ae57a0a504158a849f73451e5f0c5cc18c60001b611e5e565b619edb7f1faa158495e3aba694efb4ca63fdfd71623c062bb03c0d165384a7f94b8eb13060001b611e5e565b619f077f16d6ae3e63ffa0b00969e28e73ccafba6aab723c8f2405a2fea49e9011b2bfd560001b611e5e565b619f148160e00151618f61565b619f407f4cca500a3f44fe744491d658e4a3356219c6e7bd5523fff536e10ac52a3b346460001b611e5e565b619f6c7fbb6b7a8cb152a4b33d5a473956f1d2f1844e53a9b220346b57ed7970c436871560001b611e5e565b619f89816020015182606001518360400151858560000151616fc2565b81610100018181525050619fbf7f14f39e4e074500fe746ea25ebf799d8bbbf62219db8661d8c342c477ed6c0f4d60001b611e5e565b619feb7fdd0c8074fa42883dfc442f266b40633b26038b7340f9a9afcc1a15f79249b6fa60001b611e5e565b619ff981610100015161729c565b5b50505050565b600061a02e7f3e568fe0ad286efb617006d19626626d2eec01f6bdd2e75b8388e7be93aea3f460001b611e0f565b61a05a7f3d9a5b4b82198ad335cb056e3078c9e06b8c980cffc38d75d124a7278ab71dcf60001b611e0f565b61a0867f940bd9b127c8c05af8092736c8b08975356edcae0cff123c773b945ff5ffbe6760001b611e0f565b61a0a2680ad78ebc5ac620000083616d8790919063ffffffff16565b9050919050565b61a0d57fe736ddcaf611e3efa6e4ce2279ba22fae6b3b89f0b137653173d4ec445c6452060001b611e5e565b61a1017fc49b0e2502e3db348a1a474f8f0310edb264120197722d89b98f16adf1cb3ba860001b611e5e565b61a12d7f184f4509ab8126859c0b63e8d4bc173125e2ef9f99fd08221dc80030e201206660001b611e5e565b61a1597f871b0426c0141a876162e785467d4a05bc518ef6f8e0e8dc0dec1cc32fba3a5f60001b611e5e565b61a175680ad78ebc5ac620000083616d8790919063ffffffff16565b81111561a1cd576040517f08c379a000000000000000000000000000000000000000000000000000000000815260040180806020018281038252604381526020018061ba666043913960600191505060405180910390fd5b61a1f97f8580872f6ac2f6c91bdb1150f505a040aa0972fd61e4c6f1b7a6bd8c252fefb060001b611e5e565b5050565b60008061a22c7f7bf17686eb608589c0efc5284c18900107d7e55dea5ec10b5c54ca1c8a83734660001b611e5e565b61a2587f807b2f51b47abdfb2ceec9d91207f626d9f734225975823747641fe2a212a90360001b611e5e565b61a2847f128ba2943d2c958a95c359026b88bbb4e7ee3827e467597a1832c9c00296e65660001b611e5e565b60008561a352578873ffffffffffffffffffffffffffffffffffffffff1663d3d6f84389896040518363ffffffff1660e01b8152600401808373ffffffffffffffffffffffffffffffffffffffff1673ffffffffffffffffffffffffffffffffffffffff16815260200182815260200192505050602060405180830381600087803b15801561a31257600080fd5b505af115801561a326573d6000803e3d6000fd5b505050506040513d602081101561a33c57600080fd5b810190808051906020019092919050505061a415565b8873ffffffffffffffffffffffffffffffffffffffff166372423c1789896040518363ffffffff1660e01b8152600401808373ffffffffffffffffffffffffffffffffffffffff1673ffffffffffffffffffffffffffffffffffffffff16815260200182815260200192505050602060405180830381600087803b15801561a3d957600080fd5b505af115801561a3ed573d6000803e3d6000fd5b505050506040513d602081101561a40357600080fd5b81019080805190602001909291905050505b905061a4437f34b47cd4df97c7dfa0a0072ecdbde9305fbc0e7007430c1fe9578d4b90aa8d9460001b611e5e565b61a46f7fca4ec284ccf1a75ff3229be2f4a6c7984a8a71b6ad0d36684c377f06890e6c6660001b611e5e565b60008461a53d578973ffffffffffffffffffffffffffffffffffffffff166312610e928a886040518363ffffffff1660e01b8152600401808373ffffffffffffffffffffffffffffffffffffffff1673ffffffffffffffffffffffffffffffffffffffff16815260200182815260200192505050602060405180830381600087803b15801561a4fd57600080fd5b505af115801561a511573d6000803e3d6000fd5b505050506040513d602081101561a52757600080fd5b810190808051906020019092919050505061a600565b8973ffffffffffffffffffffffffffffffffffffffff16639976cf458a886040518363ffffffff1660e01b8152600401808373ffffffffffffffffffffffffffffffffffffffff1673ffffffffffffffffffffffffffffffffffffffff16815260200182815260200192505050602060405180830381600087803b15801561a5c457600080fd5b505af115801561a5d8573d6000803e3d6000fd5b505050506040513d602081101561a5ee57600080fd5b81019080805190602001909291905050505b905061a62e7f46bfd508063ca469cb08623fdb9b132878c817a80f282b728eb74c06bd874d0c60001b611e5e565b61a65a7f100350af6e37c931e95c3ef25a4e745aae52acfbdbd9b5ceba20da808fd6b00b60001b611e5e565b8181935093505050965096945050505050565b600061a69b7f53c17138033062e5fe16b723f038b45c632f1b9fd361dbb91e33e8a91ff22e0260001b611e5e565b61a6c77fda01f72ec5186e6660a7bfd27289050a95339c2ccb3f73a72432552ab204a69a60001b611e5e565b61a6f37f6d0f2649702383f82aa7a5235fa43771900023cd6e060e349d5d5cdefcdc0d3860001b611e5e565b60008061a70489898989898961ac66565b9150915061a7347f40069248a7a0f8a1a21690e698e062cd4d34932312132e4e4f33584816424d7060001b611e5e565b61a7607faad108cc42d692a147457c0aee675cb91c8b607db830ca58795cd1e7959ea51c60001b611e5e565b600061a76c8383618c2b565b905061a79a7f482f54eb0379a5def43eff9ab4ebef2c6e0b2048059f86c3739d0ec87bd2af2060001b611e5e565b61a7c67fd8fd919abaa28486774e8bcb52570001ead89eebdec4820593e835c41251cdf960001b611e5e565b8093505050509695505050505050565b61a8027f277c74ce2b0000f986772ffdf35844b66c28ce8ae933c29df16325fe9134f36e60001b611e5e565b61a82e7f078139215d042819419b7ea971b373b2b83dbef5e3a5eeb1b6da8b6838ea0ac760001b611e5e565b61a85a7f24e869b6ea74795d0c345ca7c9ce32c3b9d904a4cf353c9b8f711ac7c0b2824260001b611e5e565b811561a8f65761a88c7fe459ea67095fbb0df9ae80a013c363fb28eff08ed533dc0d28ea81b31367c49b60001b611e5e565b61a8b87f8f64397b96d7063a98947217798e8862980a8c06d8b71b17854862751bc4460f60001b611e5e565b61a8e47f666d51b4ef6ac0cf6a84fede3d22976f185865af74002bb535ae8d432d7a79b660001b611e5e565b61a8f18888888685619299565b61a987565b61a9227f10aa17c9607b2d37fb1aad180fa3d3ffbacdaf6772368ef918f92e83a75bdda860001b611e5e565b61a94e7f95b10e103920e81ddf40ed9185301cd5e6e4ac6781c17614f2687b159fe4cc5260001b611e5e565b61a97a7f0e9922468d1802fc15326eb6e98bc9a9bbf249e45882cbdd0c8981595522d8b060001b611e5e565b61a986888888866173dc565b5b61a9b37fff261473ed1655979e2105fdf7b76f74c04cbb0d9d353ca97754abb380e3c36d60001b611e5e565b61a9df7fc5b01b7a4a95d846217fa032843c90ee7efe6690254afbe2d01a0b7ecf13455060001b611e5e565b831561aa785761aa117fed03c8947ce06b29639d6f472932488ccaded80c365a181256938634fbf2a99660001b611e5e565b61aa3d7fe56b2fe30fec116ffe1f8db2f6d7de50442068ddcccdbc5bc6f721bd091d3d0660001b611e5e565b61aa697f5797aa7f4849f41d018dddadcf06985cbd96c0cebeec81f1670808d74dbc840860001b611e5e565b61aa7388866190a1565b61ab9c565b61aaa47f6be0fe1895676a23b31b3147fce511670e88d62f79e7e83bb25b506e8b0bbe2460001b611e5e565b61aad07f91da422993ccd811103790ceeb0536fa38141986aecdd5c54963cb4ee9db46e360001b611e5e565b61aafc7fb04c02002e9fac22d3e4b0fe030c2577baae9e060ccf9573036198a8d3fad7ff60001b611e5e565b8773ffffffffffffffffffffffffffffffffffffffff166364a197f387876040518363ffffffff1660e01b8152600401808373ffffffffffffffffffffffffffffffffffffffff1673ffffffffffffffffffffffffffffffffffffffff16815260200182815260200192505050600060405180830381600087803b15801561ab8357600080fd5b505af115801561ab97573d6000803e3d6000fd5b505050505b5050505050505050565b600083831115829061ac53576040517f08c379a00000000000000000000000000000000000000000000000000000000081526004018080602001828103825283818151815260200191508051906020019080838360005b8381101561ac1857808201518184015260208101905061abfd565b50505050905090810190601f16801561ac455780820380516001836020036101000a031916815260200191505b509250505060405180910390fd5b5060008385039050809150509392505050565b60008061ac957f13882f6bc6dfc1c94bf01937deb259599d986948966f8fdcb910a5dd3ddb3ba060001b611e5e565b61acc17f37d267b0bc401bdc63f236f456a1458819e2ea3da3f41caebbc6b60ea116bb2960001b611e5e565b61aced7f79c3937097831b72c145645bc9face5e63c9b248e3bb082a173462a39bc64fbc60001b611e5e565b600088905061ad1e7f38ccbc5242b2584ecdd38c0c12e7c8ebdd4fb78dc7c16516c60493de86a404ec60001b611e5e565b61ad4a7f1c5e5967cdccb427d0033587711ef5d73af8922675201adb88d1b08ebe83951860001b611e5e565b600088905061ad7b7f72ddb79de107d7c34c6c94671e6f1db18c2697492093d2d32638dd6171704f5260001b611e5e565b61ada77f4b742b23ae26cb3b49fd9e81dd936e966a9c3d352141b44da6ede1ad04374eff60001b611e5e565b8661adc45761adbf888b616d8790919063ffffffff16565b61add8565b61add7888b617ce990919063ffffffff16565b5b915061ae067f1ff5f0b48c78de5cd440e7322c99f0e8bc4bf54b2cedc3e7f6bfceb54fe65dd860001b611e5e565b61ae327fae22f365131385a303b6ff244968a54b518f70f09ed840591ba5ae41827151a360001b611e5e565b8461ae4f5761ae4a868a616d8790919063ffffffff16565b61ae63565b61ae62868a617ce990919063ffffffff16565b5b905061ae917f8d08e24869d2b28e65e523f37abee0c5d59092765953da519364e83e6bf62dfe60001b611e5e565b61aebd7f9529fcbbc36e075eb5e0ff1dc924d5064f61d7d38d1afffb39ca27762e92f3fd60001b611e5e565b8181935093505050965096945050505050565b60008083141561aee3576000905061af50565b600082840290508284828161aef457fe5b041461af4b576040517f08c379a000000000000000000000000000000000000000000000000000000000815260040180806020018281038252602181526020018061b8d06021913960400191505060405180910390fd5b809150505b92915050565b600061af9883836040518060400160405280601a81526020017f536166654d6174683a206469766973696f6e206279207a65726f00000000000081525061b5b2565b905092915050565b600061afce7fa5c6fa8c7def441f1be05517fef3e2bfc4c4aa0a7ef26d21bdc730286b56187f60001b611e0f565b61affa7fd499fbefdf090ac4cea6a2d9d41d38180efa5d32eba0bb86dd6ec954b6265b3760001b611e0f565b61b0267f04774a2abca466ee6e8e9d15158062786d6899a5aacf8a77eca74ecb601e66b460001b611e0f565b600061b030614e4a565b905061b05e7fd3ec13336a12ae3ec7d52e0ab0fc46c6399078cd8ab182540768b6e3e36cee5e60001b611e0f565b61b08a7f59ec8bcdd2b9017f3970492ffe01bbea2f58060535d079c4c6792190d42e933860001b611e0f565b600061b09461353b565b905061b0c27fa48897db9f12b855b04380b44869929736061d5cd6bee9832714343f36ef9e9360001b611e0f565b61b0ee7f2a96244e0f24a35c7d29dd04bb8f302d322110258be8eee9f18a6c832ef231e760001b611e0f565b61b0f98282866189df565b925061b1277f25f03781ce63d95c9c99c0377d620c6f36bfe68fa932a9706d95ce3de845bdc760001b611e0f565b61b1537f5914794168c514cfab5e62c42ca4e0107092ef310237de856bd7d5246d051edf60001b611e0f565b8292505050919050565b61b1897facef9d49e8ab7f2fccb94108f95626a836beae6f8884f9f4170d3586daeb235160001b611e0f565b61b1b57f2ee6b9c138b682556267b00e197f690eaba1da82aa67f015cc57569fcd2102dc60001b611e0f565b61b1e17fb33c7650c10ab2d1a39ab289ac832de172dd6beb2803ee4831e13f9b9bf578b760001b611e0f565b600061b2108361b202670de0b6b3a76400008761aed090919063ffffffff16565b61af5690919063ffffffff16565b905061b23e7fecfa1a14820b75a581ec090f2d4573db18bfa0a4ac0c4c6c481b57c75745e27960001b611e0f565b61b26a7f2b6f6b113ba488f9495e8e2dc5a19f2948c03df2595c1d3361a251c37559b12660001b611e0f565b61b2967f652d40d04550df082f9eb4c6a9a410f6e7593cf024ea9cdb76e4f8853f2ddf4760001b611e0f565b8181111561b30c576040517f08c379a000000000000000000000000000000000000000000000000000000000815260040180806020018281038252601d8152602001807f4665652065786365656465642070726f7669646564206d6178696d756d00000081525060200191505060405180910390fd5b61b3387fcba4bc828cd0ef8be6e909695d80f6199f3e367e589d34b9bdec0548e34e4c1e60001b611e0f565b50505050565b50565b61b36d7fc84a6fa84d9700259350e0554ba745e3d0b2bbe038b90878b41a64e213299b3460001b611e5e565b61b3997f8a4a04abbb023a4edd70989e2c3a74e211fdce9bf0971c211c3ea217a5730fb760001b611e5e565b61b3c57f4513eee8a195e58374d0c0f7ab62ec9bcc22d525d6e496d38809b6dff8e1762260001b611e5e565b61b3f17fbc2da30b372a2c0c2de9f68b0e9956f6eb7575ffa8b8476f199e7bbc01e8d9a260001b611e5e565b6000811461b44a576040517f08c379a000000000000000000000000000000000000000000000000000000000815260040180806020018281038252603e81526020018061b968603e913960400191505060405180910390fd5b61b4767f0e9122a57e4966ae13c12b7efa5832582f84e2fdf6ee6dc27c1ccce10d937fd560001b611e5e565b50565b61b4a57f18043163abfb760048e2c22e684147f8c926daa01654ab7c66026cdf8b25057560001b611e5e565b61b4d17f562d93f09c890a29a9bcabcf9df14770decf15205d8d084245c96aafddabf86760001b611e5e565b61b4fd7f4c3e4ca44dfcf0927bab160d3d9e53a9aa4f67f15d8527cad8734c10317584c060001b611e5e565b61b5297fb48bbc49b88a478ee05d2aa4a35c897732e506255a5e0c8fbcc31632705e429f60001b611e5e565b8082101561b582576040517f08c379a000000000000000000000000000000000000000000000000000000000815260040180806020018281038252603e81526020018061bb39603e913960400191505060405180910390fd5b61b5ae7feba57518a6767f08637d3d9416a6f89fbb5bf5d3b65bcb15b9c2c9abe0672adc60001b611e5e565b5050565b6000808311829061b65e576040517f08c379a00000000000000000000000000000000000000000000000000000000081526004018080602001828103825283818151815260200191508051906020019080838360005b8381101561b62357808201518184015260208101905061b608565b50505050905090810190601f16801561b6505780820380516001836020036101000a031916815260200191505b509250505060405180910390fd5b50600083858161b66a57fe5b049050809150509392505050565b6040518060600160405280600073ffffffffffffffffffffffffffffffffffffffff168152602001600073ffffffffffffffffffffffffffffffffffffffff168152602001600073ffffffffffffffffffffffffffffffffffffffff1681525090565b60405180610100016040528060008152602001600081526020016000815260200160008152602001600081526020016000815260200160008152602001600081525090565b604051806101a00160405280600081526020016000815260200160008152602001600015158152602001600081526020016000815260200160008152602001600081526020016000815260200160008152602001600081526020016000815260200160008152509056fe426f72726f7765724f70733a2053656e64696e672045544820746f20416374697665506f6f6c206661696c6564426f72726f7765724f7065726174696f6e733a2043616e6e6f7420776974686472617720616e642061646420636f6c6c426f72726f7765724f70733a204f7065726174696f6e206e6f74207065726d697474656420647572696e67205265636f76657279204d6f6465426f72726f7765724f70733a204f7065726174696f6e206d757374206c656176652074726f7665207769746820494352203e3d204343524d6178206665652070657263656e74616765206d757374206c657373207468616e206f7220657175616c20746f2031303025426f72726f7765724f70733a205468657265206d75737420626520656974686572206120636f6c6c61746572616c206368616e6765206f7220612064656274206368616e6765536166654d6174683a206d756c7469706c69636174696f6e206f766572666c6f77426f72726f7765724f70733a20416e206f7065726174696f6e207468617420776f756c6420726573756c7420696e20544352203c20434352206973206e6f74207065726d6974746564426f72726f7765724f70733a2054726f766520646f6573206e6f74206578697374206f7220697320636c6f736564426f72726f7765724f70733a20436f6c6c61746572616c207769746864726177616c206e6f74207065726d6974746564205265636f76657279204d6f6465426f72726f7765724f70733a2043616c6c657220646f65736e74206861766520656e6f756768204c55534420746f206d616b652072657061796d656e74426f72726f7765724f70733a20416e206f7065726174696f6e207468617420776f756c6420726573756c7420696e20494352203c204d4352206973206e6f74207065726d6974746564426f72726f7765724f70733a2054726f76652773206e65742064656274206d7573742062652067726561746572207468616e206d696e696d756d426f72726f7765724f70733a20416d6f756e7420726570616964206d757374206e6f74206265206c6172676572207468616e207468652054726f766527732064656274426f72726f7765724f70733a2043616c6c6572206973206e6f742053746162696c69747920506f6f6c4d6178206665652070657263656e74616765206d757374206265206265747765656e20302e352520616e642031303025426f72726f7765724f70733a204465627420696e637265617365207265717569726573206e6f6e2d7a65726f20646562744368616e6765426f72726f7765724f70733a2043616e6e6f7420646563726561736520796f75722054726f766527732049435220696e205265636f76657279204d6f6465a2646970667358221220e1b8ee8b84f13df652493bd2f36116ac3c9a07f43aaa2665de23b0749946b7e064736f6c634300060b0033",
  "linkReferences": {},
  "deployedLinkReferences": {}
}