{
  "_format": "hh-sol-artifact-1",
  "contractName": "BorrowerOperationsScript",
  "sourceName": "contracts/Proxy/BorrowerOperationsScript.sol",
  "abi": [
    {
      "inputs": [
        {
          "internalType": "contract IBorrowerOperations",
          "name": "_borrowerOperations",
          "type": "address"
        }
      ],
      "stateMutability": "nonpayable",
      "type": "constructor"
    },
    {
      "inputs": [
        {
          "internalType": "address",
          "name": "_upperHint",
          "type": "address"
        },
        {
          "internalType": "address",
          "name": "_lowerHint",
          "type": "address"
        }
      ],
      "name": "addColl",
      "outputs": [],
      "stateMutability": "payable",
      "type": "function"
    },
    {
      "inputs": [
        {
          "internalType": "uint256",
          "name": "_maxFee",
          "type": "uint256"
        },
        {
          "internalType": "uint256",
          "name": "_collWithdrawal",
          "type": "uint256"
        },
        {
          "internalType": "uint256",
          "name": "_debtChange",
          "type": "uint256"
        },
        {
          "internalType": "bool",
          "name": "isDebtIncrease",
          "type": "bool"
        },
        {
          "internalType": "address",
          "name": "_upperHint",
          "type": "address"
        },
        {
          "internalType": "address",
          "name": "_lowerHint",
          "type": "address"
        }
      ],
      "name": "adjustTrove",
      "outputs": [],
      "stateMutability": "payable",
      "type": "function"
    },
    {
      "inputs": [
        {
          "internalType": "bytes32",
          "name": "c__0x65491670",
          "type": "bytes32"
        }
      ],
      "name": "c_0x65491670",
      "outputs": [],
      "stateMutability": "pure",
      "type": "function"
    },
    {
      "inputs": [
        {
          "internalType": "bytes32",
          "name": "c__0xafd32059",
          "type": "bytes32"
        }
      ],
      "name": "c_0xafd32059",
      "outputs": [],
      "stateMutability": "pure",
      "type": "function"
    },
    {
      "inputs": [],
      "name": "claimCollateral",
      "outputs": [],
      "stateMutability": "nonpayable",
      "type": "function"
    },
    {
      "inputs": [],
      "name": "closeTrove",
      "outputs": [],
      "stateMutability": "nonpayable",
      "type": "function"
    },
    {
      "inputs": [
        {
          "internalType": "uint256",
          "name": "_maxFee",
          "type": "uint256"
        },
        {
          "internalType": "uint256",
          "name": "_LUSDAmount",
          "type": "uint256"
        },
        {
          "internalType": "address",
          "name": "_upperHint",
          "type": "address"
        },
        {
          "internalType": "address",
          "name": "_lowerHint",
          "type": "address"
        }
      ],
      "name": "openTrove",
      "outputs": [],
      "stateMutability": "payable",
      "type": "function"
    },
    {
      "inputs": [
        {
          "internalType": "uint256",
          "name": "_amount",
          "type": "uint256"
        },
        {
          "internalType": "address",
          "name": "_upperHint",
          "type": "address"
        },
        {
          "internalType": "address",
          "name": "_lowerHint",
          "type": "address"
        }
      ],
      "name": "repayLUSD",
      "outputs": [],
      "stateMutability": "nonpayable",
      "type": "function"
    },
    {
      "inputs": [
        {
          "internalType": "uint256",
          "name": "_amount",
          "type": "uint256"
        },
        {
          "internalType": "address",
          "name": "_upperHint",
          "type": "address"
        },
        {
          "internalType": "address",
          "name": "_lowerHint",
          "type": "address"
        }
      ],
      "name": "withdrawColl",
      "outputs": [],
      "stateMutability": "nonpayable",
      "type": "function"
    },
    {
      "inputs": [
        {
          "internalType": "uint256",
          "name": "_maxFee",
          "type": "uint256"
        },
        {
          "internalType": "uint256",
          "name": "_amount",
          "type": "uint256"
        },
        {
          "internalType": "address",
          "name": "_upperHint",
          "type": "address"
        },
        {
          "internalType": "address",
          "name": "_lowerHint",
          "type": "address"
        }
      ],
      "name": "withdrawLUSD",
      "outputs": [],
      "stateMutability": "nonpayable",
      "type": "function"
    }
  ],
  "bytecode": "0x60a06040523480156200001157600080fd5b50604051620014f0380380620014f0833981810160405260208110156200003757600080fd5b81019080805190602001909291905050506200007c7ff3749c9301516b5e0d947360d0fb2947d67d6428d24d1c480a8311fff616cc1260001b6200019a60201b60201c565b620000b07f0e1242305e02de113a81fbed6c1fab4406731e1cce83162e2cba97913ca2887b60001b6200019a60201b60201c565b620000e47f58474ca74b3630ebb71551e87eeb8fd28dc32bd3a150b39053c3a8d672bf8c0160001b6200019a60201b60201c565b620000f5816200019d60201b60201c565b620001297fef5e04cd2064e9fd4d64b0adfb225f1b4ec4aed8f38ba50b68e164f2c9a7d65e60001b6200019a60201b60201c565b6200015c7eb140553040b0379d0a0876ca9695791ebdb5e96272e78697fbd29b163a78a960001b6200019a60201b60201c565b8073ffffffffffffffffffffffffffffffffffffffff1660808173ffffffffffffffffffffffffffffffffffffffff1660601b815250505062000535565b50565b620001d17f35bc9e5e61c1438a006153cf69ffd6105766a3055440d22f6c8ce219146d68af60001b6200053260201b60201c565b620002057fe66c045f45b868efda896f2af22ed71637a4e9e8d13a2b1962badf362ba3eeb960001b6200053260201b60201c565b620002397faaa4b517f253b4fa37cb2875514a22e04e7d5828c244c7095a27e85408ccd12c60001b6200053260201b60201c565b6200026d7f1221da0bd0f16fcbee175d4dae7d6b598e327e79264e77ced4c93a6a0721871b60001b6200053260201b60201c565b600073ffffffffffffffffffffffffffffffffffffffff168173ffffffffffffffffffffffffffffffffffffffff16141562000311576040517f08c379a000000000000000000000000000000000000000000000000000000000815260040180806020018281038252601e8152602001807f4163636f756e742063616e6e6f74206265207a65726f2061646472657373000081525060200191505060405180910390fd5b620003457f09f0dc62d572b9e8dd242a1b7e25c3c5de1610d6c480bec35912dd5840f55fec60001b6200053260201b60201c565b620003797fbe74447fdea037b64141768df2430eb2b7113bef949c88d88dcdc549ba88703360001b6200053260201b60201c565b620003ad7f04e66872d3f4c69728dfe545a06401e1b17e0f9dd5e1d43290514ae4fd92783060001b6200053260201b60201c565b6000620003e37f60826eea4af75abd2223d108cb037485a60c485e699a12a42cac24982b89800660001b6200053260201b60201c565b813b90506200041b7f7acec79ba6fd0be7bb4b2bfca56ca8eb3d8333d64e828971ccb7647facc3806360001b6200053260201b60201c565b6200044f7f0c7e0405db301404f844860b9fe6e14e956a97134ff8695c88184f1c957d6e0860001b6200053260201b60201c565b620004837f1c5a94c5a5d640e17d84bedbf9409c7f8afe563c4b1fceef7bced5961764ee0f60001b6200053260201b60201c565b60008111620004fa576040517f08c379a00000000000000000000000000000000000000000000000000000000081526004018080602001828103825260208152602001807f4163636f756e7420636f64652073697a652063616e6e6f74206265207a65726f81525060200191505060405180910390fd5b6200052e7f1023f03b6261b194c29dee3596b0d25a3be14b60910a1d249d0177db54f54c4a60001b6200053260201b60201c565b5050565b50565b60805160601c610f7a62000576600039806104a55280610624528061072a52806108af5280610a2b5280610b9f5280610ca55280610e2e5250610f7a6000f3fe6080604052600436106100915760003560e01c806368647db11161005957806368647db1146102635780636f0b0c1c146102c7578063860665b3146102de578063940a71bc14610356578063c6a6cf201461039157610091565b806304491fa71461009657806308db89f2146101115780630e704d501461014c5780631184e5f8146101635780635530273c146101e8575b600080fd5b3480156100a257600080fd5b5061010f600480360360608110156100b957600080fd5b8101908080359060200190929190803573ffffffffffffffffffffffffffffffffffffffff169060200190929190803573ffffffffffffffffffffffffffffffffffffffff16906020019092919050505061041f565b005b34801561011d57600080fd5b5061014a6004803603602081101561013457600080fd5b810190808035906020019092919050505061059b565b005b34801561015857600080fd5b5061016161059e565b005b34801561016f57600080fd5b506101e66004803603608081101561018657600080fd5b810190808035906020019092919080359060200190929190803573ffffffffffffffffffffffffffffffffffffffff169060200190929190803573ffffffffffffffffffffffffffffffffffffffff1690602001909291905050506106a4565b005b3480156101f457600080fd5b506102616004803603606081101561020b57600080fd5b8101908080359060200190929190803573ffffffffffffffffffffffffffffffffffffffff169060200190929190803573ffffffffffffffffffffffffffffffffffffffff169060200190929190505050610829565b005b6102c56004803603604081101561027957600080fd5b81019080803573ffffffffffffffffffffffffffffffffffffffff169060200190929190803573ffffffffffffffffffffffffffffffffffffffff1690602001909291905050506109a5565b005b3480156102d357600080fd5b506102dc610b19565b005b610354600480360360808110156102f457600080fd5b810190808035906020019092919080359060200190929190803573ffffffffffffffffffffffffffffffffffffffff169060200190929190803573ffffffffffffffffffffffffffffffffffffffff169060200190929190505050610c1f565b005b34801561036257600080fd5b5061038f6004803603602081101561037957600080fd5b8101908080359060200190929190505050610da5565b005b61041d600480360360c08110156103a757600080fd5b81019080803590602001909291908035906020019092919080359060200190929190803515159060200190929190803573ffffffffffffffffffffffffffffffffffffffff169060200190929190803573ffffffffffffffffffffffffffffffffffffffff169060200190929190505050610da8565b005b61044b7f994bdc8a76fbe9921f8dc25f6ad0f905983229a37980ccd74162597cbc720c8d60001b61059b565b6104777fe5b9c5b3c1fd28eddf5a422a568d41d13d882272e8ee573e00af6da98fcd201560001b61059b565b6104a37f3f882fc0573bb9d5f55117f1b2da79e9647ff54b22881da125c5d0ba9b2375bc60001b61059b565b7f000000000000000000000000000000000000000000000000000000000000000073ffffffffffffffffffffffffffffffffffffffff166304491fa78484846040518463ffffffff1660e01b8152600401808481526020018373ffffffffffffffffffffffffffffffffffffffff1673ffffffffffffffffffffffffffffffffffffffff1681526020018273ffffffffffffffffffffffffffffffffffffffff1673ffffffffffffffffffffffffffffffffffffffff1681526020019350505050600060405180830381600087803b15801561057e57600080fd5b505af1158015610592573d6000803e3d6000fd5b50505050505050565b50565b6105ca7fc727711e2218d1978ecf84d1d62f65b58bdb1f8d29e4f122213514b8bd8271cd60001b61059b565b6105f67ff9d4e3e94d4740a2637b1e4d80c630d017f186021c41c0c93a3ddd238c3b799560001b61059b565b6106227f913cd8e13c44534a2011b1b1f37d51cdbe4e645eca1e4c6e07f24c46ad4a1fb160001b61059b565b7f000000000000000000000000000000000000000000000000000000000000000073ffffffffffffffffffffffffffffffffffffffff16630e704d506040518163ffffffff1660e01b8152600401600060405180830381600087803b15801561068a57600080fd5b505af115801561069e573d6000803e3d6000fd5b50505050565b6106d07fb05c4518f5e4a6ed4da7b5a6c53363f7160d2a5cdc76ff86a9e0d7fbffe0c48660001b61059b565b6106fc7f85582b1830eb62ea5170491408882f71979b430d5220dcd804d203c2e6eda70860001b61059b565b6107287fd0456c8008f41d204e2d9c9e878c069af02688430e1b716bd57b74a2149799d160001b61059b565b7f000000000000000000000000000000000000000000000000000000000000000073ffffffffffffffffffffffffffffffffffffffff16631184e5f8858585856040518563ffffffff1660e01b8152600401808581526020018481526020018373ffffffffffffffffffffffffffffffffffffffff1673ffffffffffffffffffffffffffffffffffffffff1681526020018273ffffffffffffffffffffffffffffffffffffffff1673ffffffffffffffffffffffffffffffffffffffff168152602001945050505050600060405180830381600087803b15801561080b57600080fd5b505af115801561081f573d6000803e3d6000fd5b5050505050505050565b6108557f38fe1f262b5796990e8ed126580dcbfa04fe6ba3f6893439cf2fed3b97bc10a760001b61059b565b6108817fe51262e6e3432043972879e7bedac38ef99eab43b3f508271bc5d85396866ae460001b61059b565b6108ad7f40253dc43424e0d25beca35b3c15dce1abb867db1a4150684e014b4be0c15d4260001b61059b565b7f000000000000000000000000000000000000000000000000000000000000000073ffffffffffffffffffffffffffffffffffffffff16635530273c8484846040518463ffffffff1660e01b8152600401808481526020018373ffffffffffffffffffffffffffffffffffffffff1673ffffffffffffffffffffffffffffffffffffffff1681526020018273ffffffffffffffffffffffffffffffffffffffff1673ffffffffffffffffffffffffffffffffffffffff1681526020019350505050600060405180830381600087803b15801561098857600080fd5b505af115801561099c573d6000803e3d6000fd5b50505050505050565b6109d17f88c7b24b472d47459db3585a93b5fc4aa14a7624a2923c0bb60c24a8073ae69f60001b61059b565b6109fd7f139c0dbb50d64898db0783ee952377f9697f3349e8a5098c716bb0954e1a214e60001b61059b565b610a297f0cbb1d2c8755453dd4ccb997d5b65f4e387670066803de7ee611901e2bbac31e60001b61059b565b7f000000000000000000000000000000000000000000000000000000000000000073ffffffffffffffffffffffffffffffffffffffff166368647db13484846040518463ffffffff1660e01b8152600401808373ffffffffffffffffffffffffffffffffffffffff1673ffffffffffffffffffffffffffffffffffffffff1681526020018273ffffffffffffffffffffffffffffffffffffffff1673ffffffffffffffffffffffffffffffffffffffff168152602001925050506000604051808303818588803b158015610afc57600080fd5b505af1158015610b10573d6000803e3d6000fd5b50505050505050565b610b457f33813caad33ae6cd8f466e050076b160a44ea1393d56554bed548c6c29b98df860001b61059b565b610b717f4b467445c212e80c307401e777e3ee3aeffd12639e8f91af16aece1ae56d4fd960001b61059b565b610b9d7f1dc712d1cf2e7a511e744a7d9dcce2fc1456a01cd41eeda8008649e28447cc1660001b61059b565b7f000000000000000000000000000000000000000000000000000000000000000073ffffffffffffffffffffffffffffffffffffffff16636f0b0c1c6040518163ffffffff1660e01b8152600401600060405180830381600087803b158015610c0557600080fd5b505af1158015610c19573d6000803e3d6000fd5b50505050565b610c4b7ffbcb799b04942eef71263c85cf8f181a9dc25e7acda982473788c41652e6e04e60001b61059b565b610c777fd47c0aef8e634efbce49fcd40bf757d1f7b1ba53de3c1745c9879b2657059ec060001b61059b565b610ca37f9e24dc5ae14137a3639babb028768fa63df255372b62b3650fddf5d86937949560001b61059b565b7f000000000000000000000000000000000000000000000000000000000000000073ffffffffffffffffffffffffffffffffffffffff1663860665b334868686866040518663ffffffff1660e01b8152600401808581526020018481526020018373ffffffffffffffffffffffffffffffffffffffff1673ffffffffffffffffffffffffffffffffffffffff1681526020018273ffffffffffffffffffffffffffffffffffffffff1673ffffffffffffffffffffffffffffffffffffffff1681526020019450505050506000604051808303818588803b158015610d8657600080fd5b505af1158015610d9a573d6000803e3d6000fd5b505050505050505050565b50565b610dd47fd0f021f63694e8cb497929788cddc170cfa691a4e4050dca857eef68fa89990f60001b61059b565b610e007fec25c4a99082438bb7b5b09919dc84e79332311cf7903adf55a75dc75a65073160001b61059b565b610e2c7f11aa862f875219ca4ff0ae664ab74db2cf453dc45b8f6971bfc05965f973fc0360001b61059b565b7f000000000000000000000000000000000000000000000000000000000000000073ffffffffffffffffffffffffffffffffffffffff1663c6a6cf20348888888888886040518863ffffffff1660e01b815260040180878152602001868152602001858152602001841515151581526020018373ffffffffffffffffffffffffffffffffffffffff1673ffffffffffffffffffffffffffffffffffffffff1681526020018273ffffffffffffffffffffffffffffffffffffffff1673ffffffffffffffffffffffffffffffffffffffff16815260200196505050505050506000604051808303818588803b158015610f2357600080fd5b505af1158015610f37573d6000803e3d6000fd5b505050505050505050505056fea2646970667358221220fdb77c03cff8e790738b9fcafda7b0e5b9cc369768f4c903904e458dcf8f47b964736f6c634300060b0033",
  "linkReferences": {},
  "deployedLinkReferences": {}
}