{
  "_format": "hh-sol-artifact-1",
  "contractName": "BorrowerWrappersScript",
  "sourceName": "contracts/Proxy/BorrowerWrappersScript.sol",
  "abi": [
    {
      "inputs": [
        {
          "internalType": "address",
          "name": "_borrowerOperationsAddress",
          "type": "address"
        },
        {
          "internalType": "address",
          "name": "_troveManagerAddress",
          "type": "address"
        },
        {
          "internalType": "address",
          "name": "_lqtyStakingAddress",
          "type": "address"
        }
      ],
      "stateMutability": "nonpayable",
      "type": "constructor"
    },
    {
      "inputs": [],
      "name": "NAME",
      "outputs": [
        {
          "internalType": "string",
          "name": "",
          "type": "string"
        }
      ],
      "stateMutability": "view",
      "type": "function"
    },
    {
      "inputs": [
        {
          "internalType": "address",
          "name": "_upperHint",
          "type": "address"
        },
        {
          "internalType": "address",
          "name": "_lowerHint",
          "type": "address"
        }
      ],
      "name": "addColl",
      "outputs": [],
      "stateMutability": "payable",
      "type": "function"
    },
    {
      "inputs": [
        {
          "internalType": "uint256",
          "name": "_maxFee",
          "type": "uint256"
        },
        {
          "internalType": "uint256",
          "name": "_collWithdrawal",
          "type": "uint256"
        },
        {
          "internalType": "uint256",
          "name": "_debtChange",
          "type": "uint256"
        },
        {
          "internalType": "bool",
          "name": "isDebtIncrease",
          "type": "bool"
        },
        {
          "internalType": "address",
          "name": "_upperHint",
          "type": "address"
        },
        {
          "internalType": "address",
          "name": "_lowerHint",
          "type": "address"
        }
      ],
      "name": "adjustTrove",
      "outputs": [],
      "stateMutability": "payable",
      "type": "function"
    },
    {
      "inputs": [
        {
          "internalType": "bytes32",
          "name": "c__0x65491670",
          "type": "bytes32"
        }
      ],
      "name": "c_0x65491670",
      "outputs": [],
      "stateMutability": "pure",
      "type": "function"
    },
    {
      "inputs": [
        {
          "internalType": "bytes32",
          "name": "c__0x716abd32",
          "type": "bytes32"
        }
      ],
      "name": "c_0x716abd32",
      "outputs": [],
      "stateMutability": "pure",
      "type": "function"
    },
    {
      "inputs": [
        {
          "internalType": "bytes32",
          "name": "c__0x7a3e46cf",
          "type": "bytes32"
        }
      ],
      "name": "c_0x7a3e46cf",
      "outputs": [],
      "stateMutability": "pure",
      "type": "function"
    },
    {
      "inputs": [
        {
          "internalType": "bytes32",
          "name": "c__0xab3d6ed9",
          "type": "bytes32"
        }
      ],
      "name": "c_0xab3d6ed9",
      "outputs": [],
      "stateMutability": "pure",
      "type": "function"
    },
    {
      "inputs": [
        {
          "internalType": "bytes32",
          "name": "c__0xafd32059",
          "type": "bytes32"
        }
      ],
      "name": "c_0xafd32059",
      "outputs": [],
      "stateMutability": "pure",
      "type": "function"
    },
    {
      "inputs": [],
      "name": "claimCollateral",
      "outputs": [],
      "stateMutability": "nonpayable",
      "type": "function"
    },
    {
      "inputs": [
        {
          "internalType": "uint256",
          "name": "_maxFee",
          "type": "uint256"
        },
        {
          "internalType": "uint256",
          "name": "_LUSDAmount",
          "type": "uint256"
        },
        {
          "internalType": "address",
          "name": "_upperHint",
          "type": "address"
        },
        {
          "internalType": "address",
          "name": "_lowerHint",
          "type": "address"
        }
      ],
      "name": "claimCollateralAndOpenTrove",
      "outputs": [],
      "stateMutability": "payable",
      "type": "function"
    },
    {
      "inputs": [
        {
          "internalType": "uint256",
          "name": "_maxFee",
          "type": "uint256"
        },
        {
          "internalType": "address",
          "name": "_upperHint",
          "type": "address"
        },
        {
          "internalType": "address",
          "name": "_lowerHint",
          "type": "address"
        }
      ],
      "name": "claimSPRewardsAndRecycle",
      "outputs": [],
      "stateMutability": "nonpayable",
      "type": "function"
    },
    {
      "inputs": [
        {
          "internalType": "uint256",
          "name": "_maxFee",
          "type": "uint256"
        },
        {
          "internalType": "address",
          "name": "_upperHint",
          "type": "address"
        },
        {
          "internalType": "address",
          "name": "_lowerHint",
          "type": "address"
        }
      ],
      "name": "claimStakingGainsAndRecycle",
      "outputs": [],
      "stateMutability": "nonpayable",
      "type": "function"
    },
    {
      "inputs": [],
      "name": "closeTrove",
      "outputs": [],
      "stateMutability": "nonpayable",
      "type": "function"
    },
    {
      "inputs": [
        {
          "internalType": "uint256",
          "name": "_maxFee",
          "type": "uint256"
        },
        {
          "internalType": "uint256",
          "name": "_LUSDAmount",
          "type": "uint256"
        },
        {
          "internalType": "address",
          "name": "_upperHint",
          "type": "address"
        },
        {
          "internalType": "address",
          "name": "_lowerHint",
          "type": "address"
        }
      ],
      "name": "openTrove",
      "outputs": [],
      "stateMutability": "payable",
      "type": "function"
    },
    {
      "inputs": [
        {
          "internalType": "uint256",
          "name": "_amount",
          "type": "uint256"
        },
        {
          "internalType": "address",
          "name": "_upperHint",
          "type": "address"
        },
        {
          "internalType": "address",
          "name": "_lowerHint",
          "type": "address"
        }
      ],
      "name": "repayLUSD",
      "outputs": [],
      "stateMutability": "nonpayable",
      "type": "function"
    },
    {
      "inputs": [
        {
          "internalType": "uint256",
          "name": "_LQTYamount",
          "type": "uint256"
        }
      ],
      "name": "stake",
      "outputs": [],
      "stateMutability": "nonpayable",
      "type": "function"
    },
    {
      "inputs": [
        {
          "internalType": "address",
          "name": "_recipient",
          "type": "address"
        },
        {
          "internalType": "uint256",
          "name": "_amount",
          "type": "uint256"
        }
      ],
      "name": "transferETH",
      "outputs": [
        {
          "internalType": "bool",
          "name": "",
          "type": "bool"
        }
      ],
      "stateMutability": "nonpayable",
      "type": "function"
    },
    {
      "inputs": [
        {
          "internalType": "uint256",
          "name": "_amount",
          "type": "uint256"
        },
        {
          "internalType": "address",
          "name": "_upperHint",
          "type": "address"
        },
        {
          "internalType": "address",
          "name": "_lowerHint",
          "type": "address"
        }
      ],
      "name": "withdrawColl",
      "outputs": [],
      "stateMutability": "nonpayable",
      "type": "function"
    },
    {
      "inputs": [
        {
          "internalType": "uint256",
          "name": "_maxFee",
          "type": "uint256"
        },
        {
          "internalType": "uint256",
          "name": "_amount",
          "type": "uint256"
        },
        {
          "internalType": "address",
          "name": "_upperHint",
          "type": "address"
        },
        {
          "internalType": "address",
          "name": "_lowerHint",
          "type": "address"
        }
      ],
      "name": "withdrawLUSD",
      "outputs": [],
      "stateMutability": "nonpayable",
      "type": "function"
    }
  ],
  "bytecode": "0x6101806040523480156200001257600080fd5b50604051620052d3380380620052d3833981810160405260608110156200003857600080fd5b810190808051906020019092919080519060200190929190805190602001909291905050508083620000937ff3749c9301516b5e0d947360d0fb2947d67d6428d24d1c480a8311fff616cc1260001b62000fc960201b60201c565b620000c77f0e1242305e02de113a81fbed6c1fab4406731e1cce83162e2cba97913ca2887b60001b62000fc960201b60201c565b620000fb7f58474ca74b3630ebb71551e87eeb8fd28dc32bd3a150b39053c3a8d672bf8c0160001b62000fc960201b60201c565b6200010c8162000fcc60201b60201c565b620001407fef5e04cd2064e9fd4d64b0adfb225f1b4ec4aed8f38ba50b68e164f2c9a7d65e60001b62000fc960201b60201c565b620001737eb140553040b0379d0a0876ca9695791ebdb5e96272e78697fbd29b163a78a960001b62000fc960201b60201c565b8073ffffffffffffffffffffffffffffffffffffffff1660808173ffffffffffffffffffffffffffffffffffffffff1660601b8152505050620001df7faad0953b7d76114812c78f8eb562c2a20d11c56aa92ccc0929e7a56cd52d45a760001b6200136160201b60201c565b620002137ff2c13fcb7cf433b4d800b8838dc0a2399d74f6b62b07b31c35eb83ee2e20a5a960001b6200136160201b60201c565b620002477f4c4b84b8ddd73280b7c6e22dce81d4c68b4e355b1483c80f5df40181d3c241b760001b6200136160201b60201c565b620002588162000fcc60201b60201c565b6200028c7f3928397b85eec3c3d1b33695526fa0c57186e5844c61088722fabc3b7f03334560001b6200136160201b60201c565b620002c07f227a8e604f9a817d0a3f67e68ded8afee617da998bfdb12137b3e3edd8d8ffb960001b6200136160201b60201c565b8073ffffffffffffffffffffffffffffffffffffffff1660a08173ffffffffffffffffffffffffffffffffffffffff1660601b81525050506200032c7f1757ccf915914ccf0c83fd1f6833ddede24011a4fc925fd4eea91144c05e608f60001b6200136460201b60201c565b620003607f2db2db0e7b91373a16e128ea5fbd6cc28fcd10e236f3034dc3bce1ced4e9d3fd60001b6200136460201b60201c565b620003947f04c84661799e4665d1042ac077a1e3328970f5c3c1f6795e4571af6c99926bde60001b6200136460201b60201c565b620003a58262000fcc60201b60201c565b620003d97fe493fc3f0cc9f520febfc961ad1109ae989f2483820ef7e5c88f579f5c9ff47660001b6200136460201b60201c565b6200040d7ff570c2d2070c866c86a8d53dcb48df9eaaed9c6b14e9121eb13cd6c33830054d60001b6200136460201b60201c565b6000829050620004467f36f4222ad87bfb0a0b06ed953cc770d6adde816becdb0ac828cf4a85a9a6cce460001b6200136460201b60201c565b6200047a7f2537f8990c8a7ced907a64a8c9f99aa095f2aab678bd4ae4c7aed9c3bb12f19660001b6200136460201b60201c565b8073ffffffffffffffffffffffffffffffffffffffff1660c08173ffffffffffffffffffffffffffffffffffffffff1660601b81525050620004e57f62c03e2c151e32a3b3fd27ec5d12d29c4eee7ab78b6294255b49c791fd1c88f160001b6200136460201b60201c565b620005197ffbdd7c3ab9798142b9b62e57d0f25e071c3470033b0cc7347afe51345bafb5a360001b6200136460201b60201c565b60008173ffffffffffffffffffffffffffffffffffffffff1663048c661d6040518163ffffffff1660e01b815260040160206040518083038186803b1580156200056257600080fd5b505afa15801562000577573d6000803e3d6000fd5b505050506040513d60208110156200058e57600080fd5b81019080805190602001909291905050509050620005d57f918b09bc4125b5b7ac53f57415c92cb64a19e9e12fe313bbed082ffe052f87d360001b6200136460201b60201c565b620006097f25f4c6d0d1f310c419f796fff89a3118f2b8f2f6037b928af3a0a9da46a0d60260001b6200136460201b60201c565b6200061a8162000fcc60201b60201c565b6200064e7ffc5eb71b7f4c439e03a094cb8da1cf658ffad366f01488ec5e2d55e53d7800fe60001b6200136460201b60201c565b620006827f637bca0dc7c0862cf5e998988155e612672c9df51093aca4e98f0dd6e5c7f1d860001b6200136460201b60201c565b8073ffffffffffffffffffffffffffffffffffffffff1660e08173ffffffffffffffffffffffffffffffffffffffff1660601b81525050620006ed7f3d926d05d2ca6e488e6b0f5e0f1374c4626903c304b78dbd4ebbab60137e69d260001b6200136460201b60201c565b620007217f60cb96bf5b54700af952ca9eb058bcd7895df6992123814ebdf289e1c2e0ef6e60001b6200136460201b60201c565b60008273ffffffffffffffffffffffffffffffffffffffff1663741bef1a6040518163ffffffff1660e01b815260040160206040518083038186803b1580156200076a57600080fd5b505afa1580156200077f573d6000803e3d6000fd5b505050506040513d60208110156200079657600080fd5b81019080805190602001909291905050509050620007dd7fdc67dd8d1c89eb0d23a4a98fd089726f6b13542e3d846aa55759da52ea9866fa60001b6200136460201b60201c565b620008117f81fc64e8f91891c8df66b4b9e2e324d533dafcf0f6be5a670036821a0bcca02c60001b6200136460201b60201c565b620008228162000fcc60201b60201c565b620008567f59b429b97626121b9fd1d4b5247b022185fcd95302267b543a9a002f7b7fff5660001b6200136460201b60201c565b6200088a7f4c32e0ed50d582760e9053adf381f3d3a5067bb450cb5197213e975a0ee980e160001b6200136460201b60201c565b8073ffffffffffffffffffffffffffffffffffffffff166101008173ffffffffffffffffffffffffffffffffffffffff1660601b81525050620008f67f730f47be05fc2e212095687d823b5764c98cc7e647f614c8eb917d611b02e0e760001b6200136460201b60201c565b6200092a7f9a17e7f9cd3e78fb075da787d5128b7864335dab3344bd6ef315ddf9c4c4bc8060001b6200136460201b60201c565b60008373ffffffffffffffffffffffffffffffffffffffff1663b83f91a26040518163ffffffff1660e01b815260040160206040518083038186803b1580156200097357600080fd5b505afa15801562000988573d6000803e3d6000fd5b505050506040513d60208110156200099f57600080fd5b81019080805190602001909291905050509050620009e67f1bdd09183e37d74ce98eb124e0d95b0ed21aa9104150759857399df5be83d18860001b6200136460201b60201c565b62000a1a7f9f5e626c08c49bdec258b4a7a7e13b1a1a4e2a3feb601eba46fea44da37b2d0860001b6200136460201b60201c565b62000a2b8162000fcc60201b60201c565b62000a5f7fabb7087db4f0e0fc93249434dabcb254bf0c1e8b7e536b07a9db6f53c6e659d160001b6200136460201b60201c565b62000a937f33f1652b75a9f19a3a5a9f278aaf1be596466253735df64e0f15a5e3f3f702f760001b6200136460201b60201c565b8073ffffffffffffffffffffffffffffffffffffffff166101208173ffffffffffffffffffffffffffffffffffffffff1660601b8152505062000aff7f75ccf4287f31034f3a649df83900f4c4d91dc08a6a747c0139592db01e72379260001b6200136460201b60201c565b62000b337f0dd09e119baf30e284380e356ebc1b8688740f6e219448e419a1048446d4ace860001b6200136460201b60201c565b60008473ffffffffffffffffffffffffffffffffffffffff16631f7af3c36040518163ffffffff1660e01b815260040160206040518083038186803b15801562000b7c57600080fd5b505afa15801562000b91573d6000803e3d6000fd5b505050506040513d602081101562000ba857600080fd5b8101908080519060200190929190505050905062000bef7ff159a9bcbd4f90c54ca0cdb71c90623190efa467617cea17ffd7f3a6bc2bf50360001b6200136460201b60201c565b62000c237f408336ea2ef6e5db6fa6e0c59303c90dbbd8aaad0bfc77d3456e4b110acb2fb260001b6200136460201b60201c565b62000c348162000fcc60201b60201c565b62000c687fac054a46fc49da2dbcac794a1a3f25bd9a761751ed28ef98d54b6c45c06ae03b60001b6200136460201b60201c565b62000c9c7fe4991e24d0b0e64d2f821e878af2d32b27cbbca1675774da7f5db4c4734177ab60001b6200136460201b60201c565b8073ffffffffffffffffffffffffffffffffffffffff166101408173ffffffffffffffffffffffffffffffffffffffff1660601b8152505062000d087f34f41ace856834c0b1a152cbe3a8bf1d8a43fa1832adc46928263d831a88f69a60001b6200136460201b60201c565b62000d3c7fd52d7949f88f8a830090d3120316a990143e5a0d95219a96e5f4554f4f8a3f3160001b6200136460201b60201c565b60008573ffffffffffffffffffffffffffffffffffffffff1663a3a640176040518163ffffffff1660e01b815260040160206040518083038186803b15801562000d8557600080fd5b505afa15801562000d9a573d6000803e3d6000fd5b505050506040513d602081101562000db157600080fd5b8101908080519060200190929190505050905062000df87f0ca9bb223e4101547c8def609d755341efe8a29ab8d127f2d705b05703208e3460001b6200136460201b60201c565b62000e2c7f25a89d0b871573d7ec41f1cd9f981e80dd39dfd91fdc696791b324f7f08cec7360001b6200136460201b60201c565b62000e607f398d4c3bbb17e6ab8fde7f7678774e0e6dbb63cc582c8aad21c7dd8672a24a6360001b6200136460201b60201c565b8073ffffffffffffffffffffffffffffffffffffffff168773ffffffffffffffffffffffffffffffffffffffff161462000ee6576040517f08c379a0000000000000000000000000000000000000000000000000000000008152600401808060200182810382526031815260200180620052a26031913960400191505060405180910390fd5b62000f1a7ff6c9bb70c674d2d4ac9bd17b7dfd2d4eda65ab99b2903951839b144ede2087e060001b6200136460201b60201c565b62000f4e7f5720cbfb2ea5a07b3bf84516b79d061e6c76099853e1252debb17e79f28eddba60001b6200136460201b60201c565b62000f827fa34bae24944b378247d8987fd360b0fc5574482f19598cb8898c3998b5bc56ad60001b6200136460201b60201c565b8073ffffffffffffffffffffffffffffffffffffffff166101608173ffffffffffffffffffffffffffffffffffffffff1660601b815250505050505050505050506200136a565b50565b620010007f35bc9e5e61c1438a006153cf69ffd6105766a3055440d22f6c8ce219146d68af60001b6200136760201b60201c565b620010347fe66c045f45b868efda896f2af22ed71637a4e9e8d13a2b1962badf362ba3eeb960001b6200136760201b60201c565b620010687faaa4b517f253b4fa37cb2875514a22e04e7d5828c244c7095a27e85408ccd12c60001b6200136760201b60201c565b6200109c7f1221da0bd0f16fcbee175d4dae7d6b598e327e79264e77ced4c93a6a0721871b60001b6200136760201b60201c565b600073ffffffffffffffffffffffffffffffffffffffff168173ffffffffffffffffffffffffffffffffffffffff16141562001140576040517f08c379a000000000000000000000000000000000000000000000000000000000815260040180806020018281038252601e8152602001807f4163636f756e742063616e6e6f74206265207a65726f2061646472657373000081525060200191505060405180910390fd5b620011747f09f0dc62d572b9e8dd242a1b7e25c3c5de1610d6c480bec35912dd5840f55fec60001b6200136760201b60201c565b620011a87fbe74447fdea037b64141768df2430eb2b7113bef949c88d88dcdc549ba88703360001b6200136760201b60201c565b620011dc7f04e66872d3f4c69728dfe545a06401e1b17e0f9dd5e1d43290514ae4fd92783060001b6200136760201b60201c565b6000620012127f60826eea4af75abd2223d108cb037485a60c485e699a12a42cac24982b89800660001b6200136760201b60201c565b813b90506200124a7f7acec79ba6fd0be7bb4b2bfca56ca8eb3d8333d64e828971ccb7647facc3806360001b6200136760201b60201c565b6200127e7f0c7e0405db301404f844860b9fe6e14e956a97134ff8695c88184f1c957d6e0860001b6200136760201b60201c565b620012b27f1c5a94c5a5d640e17d84bedbf9409c7f8afe563c4b1fceef7bced5961764ee0f60001b6200136760201b60201c565b6000811162001329576040517f08c379a00000000000000000000000000000000000000000000000000000000081526004018080602001828103825260208152602001807f4163636f756e7420636f64652073697a652063616e6e6f74206265207a65726f81525060200191505060405180910390fd5b6200135d7f1023f03b6261b194c29dee3596b0d25a3be14b60910a1d249d0177db54f54c4a60001b6200136760201b60201c565b5050565b50565b50565b50565b60805160601c60a05160601c60c05160601c60e05160601c6101005160601c6101205160601c6101405160601c6101605160601c613e596200144960003980611c39528061288552806132a952508061126052806114d55280612753528061307b52508061261f52806129de52508061370f52508061139252806119c05280612f6152508061352a528061380e52806139cb52508061231252508061087552806109f45280610afd5280610ce25280610ef9528061108552806117c95280611d855280611ef9528061215052806124245280612cc95250613e596000f3fe6080604052600436106101045760003560e01c806358c9d977116100a0578063940a71bc11610064578063940a71bc146105e0578063a3f4df7e1461061b578063a694fc3a146106ab578063c6a6cf20146106e6578063d08eb01b1461077457610104565b806358c9d977146103ff57806368647db11461047a5780636f0b0c1c146104de5780637b1a4909146104f5578063860665b31461056857610104565b806304491fa71461010957806308db89f2146101845780630e704d50146101bf5780631100ad45146101d65780631184e5f8146102115780631272bf8014610296578063233a2e39146102d1578063396656c4146103495780635530273c14610384575b600080fd5b34801561011557600080fd5b506101826004803603606081101561012c57600080fd5b8101908080359060200190929190803573ffffffffffffffffffffffffffffffffffffffff169060200190929190803573ffffffffffffffffffffffffffffffffffffffff1690602001909291905050506107ef565b005b34801561019057600080fd5b506101bd600480360360208110156101a757600080fd5b810190808035906020019092919050505061096b565b005b3480156101cb57600080fd5b506101d461096e565b005b3480156101e257600080fd5b5061020f600480360360208110156101f957600080fd5b8101908080359060200190929190505050610a74565b005b34801561021d57600080fd5b506102946004803603608081101561023457600080fd5b810190808035906020019092919080359060200190929190803573ffffffffffffffffffffffffffffffffffffffff169060200190929190803573ffffffffffffffffffffffffffffffffffffffff169060200190929190505050610a77565b005b3480156102a257600080fd5b506102cf600480360360208110156102b957600080fd5b8101908080359060200190929190505050610bfc565b005b610347600480360360808110156102e757600080fd5b810190808035906020019092919080359060200190929190803573ffffffffffffffffffffffffffffffffffffffff169060200190929190803573ffffffffffffffffffffffffffffffffffffffff169060200190929190505050610bff565b005b34801561035557600080fd5b506103826004803603602081101561036c57600080fd5b8101908080359060200190929190505050610ffc565b005b34801561039057600080fd5b506103fd600480360360608110156103a757600080fd5b8101908080359060200190929190803573ffffffffffffffffffffffffffffffffffffffff169060200190929190803573ffffffffffffffffffffffffffffffffffffffff169060200190929190505050610fff565b005b34801561040b57600080fd5b506104786004803603606081101561042257600080fd5b8101908080359060200190929190803573ffffffffffffffffffffffffffffffffffffffff169060200190929190803573ffffffffffffffffffffffffffffffffffffffff16906020019092919050505061117b565b005b6104dc6004803603604081101561049057600080fd5b81019080803573ffffffffffffffffffffffffffffffffffffffff169060200190929190803573ffffffffffffffffffffffffffffffffffffffff169060200190929190505050611cff565b005b3480156104ea57600080fd5b506104f3611e73565b005b34801561050157600080fd5b5061054e6004803603604081101561051857600080fd5b81019080803573ffffffffffffffffffffffffffffffffffffffff16906020019092919080359060200190929190505050611f79565b604051808215151515815260200191505060405180910390f35b6105de6004803603608081101561057e57600080fd5b810190808035906020019092919080359060200190929190803573ffffffffffffffffffffffffffffffffffffffff169060200190929190803573ffffffffffffffffffffffffffffffffffffffff1690602001909291905050506120ca565b005b3480156105ec57600080fd5b506106196004803603602081101561060357600080fd5b8101908080359060200190929190505050612250565b005b34801561062757600080fd5b50610630612253565b6040518080602001828103825283818151815260200191508051906020019080838360005b83811015610670578082015181840152602081019050610655565b50505050905090810190601f16801561069d5780820380516001836020036101000a031916815260200191505b509250505060405180910390f35b3480156106b757600080fd5b506106e4600480360360208110156106ce57600080fd5b810190808035906020019092919050505061228c565b005b610772600480360360c08110156106fc57600080fd5b81019080803590602001909291908035906020019092919080359060200190929190803515159060200190929190803573ffffffffffffffffffffffffffffffffffffffff169060200190929190803573ffffffffffffffffffffffffffffffffffffffff16906020019092919050505061239e565b005b34801561078057600080fd5b506107ed6004803603606081101561079757600080fd5b8101908080359060200190929190803573ffffffffffffffffffffffffffffffffffffffff169060200190929190803573ffffffffffffffffffffffffffffffffffffffff16906020019092919050505061253a565b005b61081b7f994bdc8a76fbe9921f8dc25f6ad0f905983229a37980ccd74162597cbc720c8d60001b61096b565b6108477fe5b9c5b3c1fd28eddf5a422a568d41d13d882272e8ee573e00af6da98fcd201560001b61096b565b6108737f3f882fc0573bb9d5f55117f1b2da79e9647ff54b22881da125c5d0ba9b2375bc60001b61096b565b7f000000000000000000000000000000000000000000000000000000000000000073ffffffffffffffffffffffffffffffffffffffff166304491fa78484846040518463ffffffff1660e01b8152600401808481526020018373ffffffffffffffffffffffffffffffffffffffff1673ffffffffffffffffffffffffffffffffffffffff1681526020018273ffffffffffffffffffffffffffffffffffffffff1673ffffffffffffffffffffffffffffffffffffffff1681526020019350505050600060405180830381600087803b15801561094e57600080fd5b505af1158015610962573d6000803e3d6000fd5b50505050505050565b50565b61099a7fc727711e2218d1978ecf84d1d62f65b58bdb1f8d29e4f122213514b8bd8271cd60001b61096b565b6109c67ff9d4e3e94d4740a2637b1e4d80c630d017f186021c41c0c93a3ddd238c3b799560001b61096b565b6109f27f913cd8e13c44534a2011b1b1f37d51cdbe4e645eca1e4c6e07f24c46ad4a1fb160001b61096b565b7f000000000000000000000000000000000000000000000000000000000000000073ffffffffffffffffffffffffffffffffffffffff16630e704d506040518163ffffffff1660e01b8152600401600060405180830381600087803b158015610a5a57600080fd5b505af1158015610a6e573d6000803e3d6000fd5b50505050565b50565b610aa37fb05c4518f5e4a6ed4da7b5a6c53363f7160d2a5cdc76ff86a9e0d7fbffe0c48660001b61096b565b610acf7f85582b1830eb62ea5170491408882f71979b430d5220dcd804d203c2e6eda70860001b61096b565b610afb7fd0456c8008f41d204e2d9c9e878c069af02688430e1b716bd57b74a2149799d160001b61096b565b7f000000000000000000000000000000000000000000000000000000000000000073ffffffffffffffffffffffffffffffffffffffff16631184e5f8858585856040518563ffffffff1660e01b8152600401808581526020018481526020018373ffffffffffffffffffffffffffffffffffffffff1673ffffffffffffffffffffffffffffffffffffffff1681526020018273ffffffffffffffffffffffffffffffffffffffff1673ffffffffffffffffffffffffffffffffffffffff168152602001945050505050600060405180830381600087803b158015610bde57600080fd5b505af1158015610bf2573d6000803e3d6000fd5b5050505050505050565b50565b610c2b7f155cdf6dbc0802b38a2c3219643c88b81839a0d8228062c9d4ee94a1fd88ef0360001b610a74565b610c577ff1e41c5b59686d1d30bb106f847c8877865bd9aab4f25886f2cd5d3ac44b4c2160001b610a74565b610c837ff6e8781a16d2efda7e99925670cb1c3dd27b74083b509d968ee88df897279a4560001b610a74565b6000479050610cb47fae88195464257f8f2243a870bc0a990654a290127029a0bbeee18445738b8a3b60001b610a74565b610ce07f6b23068b383bd3b11736505a0664a1cf8207e53e2e9929517f0175360d0feb7460001b610a74565b7f000000000000000000000000000000000000000000000000000000000000000073ffffffffffffffffffffffffffffffffffffffff16636f0b0c1c6040518163ffffffff1660e01b8152600401600060405180830381600087803b158015610d4857600080fd5b505af1158015610d5c573d6000803e3d6000fd5b50505050610d8c7fe4f330b4dd4a6435a211066476942f816f152472007833d565da5f5715b7a18560001b610a74565b610db87f6fecf54bc5e1da01ed7f5602c2a237026d40a252623c9b9e259aa2e3d21447c960001b610a74565b6000479050610de97f88a6e2ada3d898a52670d9eaa2081e9fa65d9529c71b0505cf0e86cb612e682060001b610a74565b610e157f6746bbac36250dfd6ca2934c91c8d32da1d7bd326f26c7466a302517d81defdd60001b610a74565b818111610e1e57fe5b610e4a7f3080fbd322deda68f462af1bcb5179a9e0274bb08d9b2d1ee0e820550be1b61e60001b610a74565b610e767f286eecd6a324a5a25938067c464219984f8f1931ec0f8bb9cfb4c9da994fd3e660001b610a74565b6000610e9d34610e8f85856133a490919063ffffffff16565b6133ee90919063ffffffff16565b9050610ecb7ffd95fefdc5170d2869aa379e988895f33246728f96c68707d2144d595e66505a60001b610a74565b610ef77fca53ca2979168e148059e08f4e653553ada0892616c011ae7874a0151f52b90760001b610a74565b7f000000000000000000000000000000000000000000000000000000000000000073ffffffffffffffffffffffffffffffffffffffff1663860665b382898989896040518663ffffffff1660e01b8152600401808581526020018481526020018373ffffffffffffffffffffffffffffffffffffffff1673ffffffffffffffffffffffffffffffffffffffff1681526020018273ffffffffffffffffffffffffffffffffffffffff1673ffffffffffffffffffffffffffffffffffffffff1681526020019450505050506000604051808303818588803b158015610fda57600080fd5b505af1158015610fee573d6000803e3d6000fd5b505050505050505050505050565b50565b61102b7f38fe1f262b5796990e8ed126580dcbfa04fe6ba3f6893439cf2fed3b97bc10a760001b61096b565b6110577fe51262e6e3432043972879e7bedac38ef99eab43b3f508271bc5d85396866ae460001b61096b565b6110837f40253dc43424e0d25beca35b3c15dce1abb867db1a4150684e014b4be0c15d4260001b61096b565b7f000000000000000000000000000000000000000000000000000000000000000073ffffffffffffffffffffffffffffffffffffffff16635530273c8484846040518463ffffffff1660e01b8152600401808481526020018373ffffffffffffffffffffffffffffffffffffffff1673ffffffffffffffffffffffffffffffffffffffff1681526020018273ffffffffffffffffffffffffffffffffffffffff1673ffffffffffffffffffffffffffffffffffffffff1681526020019350505050600060405180830381600087803b15801561115e57600080fd5b505af1158015611172573d6000803e3d6000fd5b50505050505050565b6111a77f5a49a4a65c248baa7109890f54422128b20a55d31c6d588bfeed83fd3a761bf560001b610a74565b6111d37f2f817c51c12fe3b904453a240124f856f08e8639525fb59917b0df4cdeefe8f760001b610a74565b6111ff7f48f1fe3599b365bf474f85ef903403e72c692511e3e7b262d5485a5e81b95fed60001b610a74565b60004790506112307f943a0a662591b896fa1c2f4d1a0cbd1efdd693ee98f483a20b957d245fd0e19460001b610a74565b61125c7f57d8c5932aa5c71857a052350cd72fb9278033f41cbaca31fa4aae14f03a168460001b610a74565b60007f000000000000000000000000000000000000000000000000000000000000000073ffffffffffffffffffffffffffffffffffffffff166370a08231306040518263ffffffff1660e01b8152600401808273ffffffffffffffffffffffffffffffffffffffff1673ffffffffffffffffffffffffffffffffffffffff16815260200191505060206040518083038186803b1580156112fb57600080fd5b505afa15801561130f573d6000803e3d6000fd5b505050506040513d602081101561132557600080fd5b810190808051906020019092919050505090506113647fa141963e020357df8af9087ff452a8bb69bb41401d076bc1ab556a8aea5abbf160001b610a74565b6113907fadd6409e3cd1e1184344f27c7e4ef2db246fb3e37fc5f3f0521c1af9eea794a560001b610a74565b7f000000000000000000000000000000000000000000000000000000000000000073ffffffffffffffffffffffffffffffffffffffff16632e54bf9560006040518263ffffffff1660e01b815260040180828152602001915050600060405180830381600087803b15801561140457600080fd5b505af1158015611418573d6000803e3d6000fd5b505050506114487fc48b9b85bd864f0357b854c46a0cdcb3fa1a605d19eecbf0b4b2a788e6a89f6b60001b610a74565b6114747f04609d53b09de39edff0085cd81523b9dee8f0431982033320673e60d5de1edf60001b610a74565b60004790506114a57fa33421167be380d2ab9fa36404f366418ad8e3514b602d24b658624895575b2e60001b610a74565b6114d17fc88d2c05e23a9cd76a4b0a8e24ffe4cb14a2acc28c15588344b99de51205cba260001b610a74565b60007f000000000000000000000000000000000000000000000000000000000000000073ffffffffffffffffffffffffffffffffffffffff166370a08231306040518263ffffffff1660e01b8152600401808273ffffffffffffffffffffffffffffffffffffffff1673ffffffffffffffffffffffffffffffffffffffff16815260200191505060206040518083038186803b15801561157057600080fd5b505afa158015611584573d6000803e3d6000fd5b505050506040513d602081101561159a57600080fd5b810190808051906020019092919050505090506115d97fb6a1907467f20cedbf418406c78ec35f43ed9744f0a84a53a0fa794caa49a6d260001b610a74565b6116057fd96ce5fa068e8ff0687b3d67765c2d2656874f447b3098f4faad536f96cecf4e60001b610a74565b600061161a85846133a490919063ffffffff16565b90506116487ff59a212bd60b4b492484821a42df132052a3f6c9efd708c9f226d038fe2cd7f660001b610a74565b6116747fc1f2163579d33224f2bfb810d1b6cab8a9fa4f35039cc0e86a6a8ca5144fd13a60001b610a74565b6000811115611ab6576116a97fb13570d4ca38eab744cc561931e78ea205134d466fed5edfa85b01b18cc6c50c60001b610a74565b6116d57fc2ee94554f8c215a8d03ab1623c1343a049492b5de3204561d1de2cb8fa37ab460001b610a74565b6117017ff85f0c60dc2d0f3a5f71502221f52e9098c586a5fed60981e4f1fbc06fdd512c60001b610a74565b61170a30613476565b6117367f85b2bf6041ee39ee319fc0582ad187bfe0a08ef5c2ef87311e204822ef8ad60660001b610a74565b6117627f6b469553fb41ace15153e0f4fb097c85fa67a1dac5d89be3f3d87a00d5f75b3060001b610a74565b600061176d82613685565b905061179b7f727d0904051f5117a1764f769853d97cb152eea43018e9b403a710560ddf227460001b610a74565b6117c77f24c70c69838faa7ff46f89133a4af8e29888eb84995c14d056b6d57adb4d0ce760001b610a74565b7f000000000000000000000000000000000000000000000000000000000000000073ffffffffffffffffffffffffffffffffffffffff1663c6a6cf20838b60008560018e8e6040518863ffffffff1660e01b815260040180878152602001868152602001858152602001841515151581526020018373ffffffffffffffffffffffffffffffffffffffff1673ffffffffffffffffffffffffffffffffffffffff1681526020018273ffffffffffffffffffffffffffffffffffffffff1673ffffffffffffffffffffffffffffffffffffffff16815260200196505050505050506000604051808303818588803b1580156118c057600080fd5b505af11580156118d4573d6000803e3d6000fd5b50505050506119057f042d8163e493ba9d2d6ec98fee3829db5d61c8965d4c71bf7f7a010fd5f79c5e60001b610a74565b6119317f96185e999b57506b903856f3ed71bf329a62f83ce976167d14b107a251a8ee2a60001b610a74565b6000811115611a83576119667f1a9b0c9e884ab7ba559e832287d011bc36e4d26c7fe125225dbe301cd93dca7560001b610a74565b6119927f8a4fdac26e0a057dbe18da5ed01a1b3bf08c39359157d325ecc2c2d666961e3460001b610a74565b6119be7f542fe90b701bdbb203a1fbf5892ccca850f79c55b6d7436a4c31ba9c51b5314260001b610a74565b7f000000000000000000000000000000000000000000000000000000000000000073ffffffffffffffffffffffffffffffffffffffff16635f788d658260006040518363ffffffff1660e01b8152600401808381526020018273ffffffffffffffffffffffffffffffffffffffff1673ffffffffffffffffffffffffffffffffffffffff16815260200192505050600060405180830381600087803b158015611a6657600080fd5b505af1158015611a7a573d6000803e3d6000fd5b50505050611ab0565b611aaf7fa02145eb7d5f886ad0d8caca072ee9d6c6a42e572328593e683e14d3e4608b3e60001b610a74565b5b50611ae3565b611ae27fa66725e7ee587994424a18f60c5205135dbf86005eb5c87e2553e22c868ed8a360001b610a74565b5b611b0f7f0361e4a2828b9eed99a4aadec9bf09cb58a7eacc76f2db40c83fdaf06579e8f160001b610a74565b611b3b7f296d3ab2abce5566013fdeddfa85bc693db7d2e30a86f2119dd492d8ce75b53660001b610a74565b6000611b5085846133a490919063ffffffff16565b9050611b7e7f01dddfa8f5fed48c7ad9b612b04fa7a3801b9c4ee218af86f1c8b8521154d2fa60001b610a74565b611baa7f700685f6badec9164f9bacda2b58d57f4d6bb22d17761d83d357390be8a7628560001b610a74565b6000811115611cc757611bdf7f94e444ce00c2483e973a83e50ddd63e1a016df56a366d5c0a733142c65bbf5ad60001b610a74565b611c0b7f6f04d8c12c3f273bd69a5871acdd45a3137e8adbc6695e51ba233246e51b15ba60001b610a74565b611c377f91bfd522d13efc28ed79dd1c7ade2a62049873e7d8fe411e80ecafbc38fd3b6460001b610a74565b7f000000000000000000000000000000000000000000000000000000000000000073ffffffffffffffffffffffffffffffffffffffff1663a694fc3a826040518263ffffffff1660e01b815260040180828152602001915050600060405180830381600087803b158015611caa57600080fd5b505af1158015611cbe573d6000803e3d6000fd5b50505050611cf4565b611cf37fce947b591a41974a9ff64e8d8eb1b0d33c1275c0f4ddf4da0baf80c8726927d060001b610a74565b5b505050505050505050565b611d2b7f88c7b24b472d47459db3585a93b5fc4aa14a7624a2923c0bb60c24a8073ae69f60001b61096b565b611d577f139c0dbb50d64898db0783ee952377f9697f3349e8a5098c716bb0954e1a214e60001b61096b565b611d837f0cbb1d2c8755453dd4ccb997d5b65f4e387670066803de7ee611901e2bbac31e60001b61096b565b7f000000000000000000000000000000000000000000000000000000000000000073ffffffffffffffffffffffffffffffffffffffff166368647db13484846040518463ffffffff1660e01b8152600401808373ffffffffffffffffffffffffffffffffffffffff1673ffffffffffffffffffffffffffffffffffffffff1681526020018273ffffffffffffffffffffffffffffffffffffffff1673ffffffffffffffffffffffffffffffffffffffff168152602001925050506000604051808303818588803b158015611e5657600080fd5b505af1158015611e6a573d6000803e3d6000fd5b50505050505050565b611e9f7f33813caad33ae6cd8f466e050076b160a44ea1393d56554bed548c6c29b98df860001b61096b565b611ecb7f4b467445c212e80c307401e777e3ee3aeffd12639e8f91af16aece1ae56d4fd960001b61096b565b611ef77f1dc712d1cf2e7a511e744a7d9dcce2fc1456a01cd41eeda8008649e28447cc1660001b61096b565b7f000000000000000000000000000000000000000000000000000000000000000073ffffffffffffffffffffffffffffffffffffffff16636f0b0c1c6040518163ffffffff1660e01b8152600401600060405180830381600087803b158015611f5f57600080fd5b505af1158015611f73573d6000803e3d6000fd5b50505050565b6000611fa77f66931fc1962d8767c06ec7db88f07fe11612f232aa5d47b892939bd51c66f7b160001b610bfc565b611fd37f6ef38c07cf04c6d9a70ba4055bf03c4b69ae987a95503e8658a41bf0fcbfa95360001b610bfc565b611fff7ff359e1d202a7a161193563788e1aa02b1bb967e965dbd7c85767ebbeee17ae6860001b610bfc565b60008373ffffffffffffffffffffffffffffffffffffffff168360405180600001905060006040518083038185875af1925050503d806000811461205f576040519150601f19603f3d011682016040523d82523d6000602084013e612064565b606091505b505090506120947f44882feb521c654b049b97931e7b252240f6104a4af1e78ba4ac419f45278b6560001b610bfc565b6120c07f52bdc94d978748585bd1b364e8182d38100b936d59410de3ca02c098a630856d60001b610bfc565b8091505092915050565b6120f67ffbcb799b04942eef71263c85cf8f181a9dc25e7acda982473788c41652e6e04e60001b61096b565b6121227fd47c0aef8e634efbce49fcd40bf757d1f7b1ba53de3c1745c9879b2657059ec060001b61096b565b61214e7f9e24dc5ae14137a3639babb028768fa63df255372b62b3650fddf5d86937949560001b61096b565b7f000000000000000000000000000000000000000000000000000000000000000073ffffffffffffffffffffffffffffffffffffffff1663860665b334868686866040518663ffffffff1660e01b8152600401808581526020018481526020018373ffffffffffffffffffffffffffffffffffffffff1673ffffffffffffffffffffffffffffffffffffffff1681526020018273ffffffffffffffffffffffffffffffffffffffff1673ffffffffffffffffffffffffffffffffffffffff1681526020019450505050506000604051808303818588803b15801561223157600080fd5b505af1158015612245573d6000803e3d6000fd5b505050505050505050565b50565b6040518060400160405280601681526020017f426f72726f77657257726170706572735363726970740000000000000000000081525081565b6122b87fc65302ee07b2c7a0499f9e33f8fddec114b7af39fceec091202a28431bc246b660001b610ffc565b6122e47f6126258b7ca5f92e3a7f888dcbda92ba65ce4020338da42b7a05ca2b2dfe68ec60001b610ffc565b6123107fe4ed33f4fba4fe57895ddbe5542eb15d42dd0ae9a9f084e64f4cc44a415b680360001b610ffc565b7f000000000000000000000000000000000000000000000000000000000000000073ffffffffffffffffffffffffffffffffffffffff1663a694fc3a826040518263ffffffff1660e01b815260040180828152602001915050600060405180830381600087803b15801561238357600080fd5b505af1158015612397573d6000803e3d6000fd5b5050505050565b6123ca7fd0f021f63694e8cb497929788cddc170cfa691a4e4050dca857eef68fa89990f60001b61096b565b6123f67fec25c4a99082438bb7b5b09919dc84e79332311cf7903adf55a75dc75a65073160001b61096b565b6124227f11aa862f875219ca4ff0ae664ab74db2cf453dc45b8f6971bfc05965f973fc0360001b61096b565b7f000000000000000000000000000000000000000000000000000000000000000073ffffffffffffffffffffffffffffffffffffffff1663c6a6cf20348888888888886040518863ffffffff1660e01b815260040180878152602001868152602001858152602001841515151581526020018373ffffffffffffffffffffffffffffffffffffffff1673ffffffffffffffffffffffffffffffffffffffff1681526020018273ffffffffffffffffffffffffffffffffffffffff1673ffffffffffffffffffffffffffffffffffffffff16815260200196505050505050506000604051808303818588803b15801561251957600080fd5b505af115801561252d573d6000803e3d6000fd5b5050505050505050505050565b6125667f2c5380b62a1dffe598e02555ee1332a36d9bf8cc4a93455f15c2d2b81555dcd860001b610a74565b6125927ff59d5d698a3d1e37c38810e9f7a63cf5fc8ea6b81dab1cadac03ec1164a88d1b60001b610a74565b6125be7f75ed4c7569dd78ac82bd00e60b1bd64e85adda500e1cacb4f6016016ac7fc57a60001b610a74565b60004790506125ef7f026d94bc1e4460e0e312a4032defde6f1595ca674eddb745eca4840a18fbef7160001b610a74565b61261b7fa2f6fed60fff5184090677dff79facb2d3cb08dd61c42b85a57e87cf6c8e8d3060001b610a74565b60007f000000000000000000000000000000000000000000000000000000000000000073ffffffffffffffffffffffffffffffffffffffff166370a08231306040518263ffffffff1660e01b8152600401808273ffffffffffffffffffffffffffffffffffffffff1673ffffffffffffffffffffffffffffffffffffffff16815260200191505060206040518083038186803b1580156126ba57600080fd5b505afa1580156126ce573d6000803e3d6000fd5b505050506040513d60208110156126e457600080fd5b810190808051906020019092919050505090506127237f20b9dc954565ef9de2f2b7e7ec8a2cbc9c51cb45d55c0a708c4c426ea7df06c260001b610a74565b61274f7fa3d94e194bebcebe10709545794dad0b8202e2462c7320cfd3b23ef7cd78debd60001b610a74565b60007f000000000000000000000000000000000000000000000000000000000000000073ffffffffffffffffffffffffffffffffffffffff166370a08231306040518263ffffffff1660e01b8152600401808273ffffffffffffffffffffffffffffffffffffffff1673ffffffffffffffffffffffffffffffffffffffff16815260200191505060206040518083038186803b1580156127ee57600080fd5b505afa158015612802573d6000803e3d6000fd5b505050506040513d602081101561281857600080fd5b810190808051906020019092919050505090506128577f8d43f2d9269b71598905655f6d1e5cfb43667a72d3af054cc671e4037d545d8a60001b610a74565b6128837f9d1143f11f1ea6777cd8bacc84fcec26169a7616916ca24de751f1fc342740b860001b610a74565b7f000000000000000000000000000000000000000000000000000000000000000073ffffffffffffffffffffffffffffffffffffffff16632e17de7860006040518263ffffffff1660e01b815260040180828152602001915050600060405180830381600087803b1580156128f757600080fd5b505af115801561290b573d6000803e3d6000fd5b5050505061293b7f44b944a1204cc59702f6ec54b3ae2efeb9183826a0f9f2d7873f3f379c73cd9260001b610a74565b6129677f02314d97fcee3a6b1a59b1e95fc4c88094e4e61fa0c348e3afcae04e74d0381060001b610a74565b600061297c84476133a490919063ffffffff16565b90506129aa7f47f27cfd5816be1f72670227096c0a81621bd1f141cceabffb6b5989c6b14b4960001b610a74565b6129d67f93d601af03c1f2fadaf9ae2c1177558762525972cbf3bc559c18a6fe014f272f60001b610a74565b6000612ac2847f000000000000000000000000000000000000000000000000000000000000000073ffffffffffffffffffffffffffffffffffffffff166370a08231306040518263ffffffff1660e01b8152600401808273ffffffffffffffffffffffffffffffffffffffff1673ffffffffffffffffffffffffffffffffffffffff16815260200191505060206040518083038186803b158015612a7957600080fd5b505afa158015612a8d573d6000803e3d6000fd5b505050506040513d6020811015612aa357600080fd5b81019080805190602001909291905050506133a490919063ffffffff16565b9050612af07f826b3525813c9052ee4bdac0536a87f1398e530e7756f3d732382317675917f760001b610a74565b612b1c7f5d2614baab2766a482e3a8befd8fc26d279f4d8125ec0878bb01678fef01b51b60001b610a74565b6000612b4a7fc7e4b60788c07c34f0b6391da69b7b851503116c14b9ad43de8d8249a93f384b60001b610a74565b612b767f3bcac62cba3ba696a0dba4f1f15dc7d4d05be1c0005259cbbf1c0cbb939d70f160001b610a74565b6000831115612dde57612bab7f31941da15f5fdb742495c8d46d4ea073348c29fa6b972afe1eadc94a2182dd5360001b610a74565b612bd77f07712c27c6b9bd4ec092905242136ee7115e2db73a31ecbcb03da52e36e1a43f60001b610a74565b612c037fac937b7bd77d0add272118cb5b7db5a6230063381974f66106d962246de7115e60001b610a74565b612c0c30613476565b612c387fcfe5a5a14ee4de01bd2fa0cfdebf68818e98050cdccdee132be363c95f446fbe60001b610a74565b612c647f988c545be9da2f3a0c7a29a83a5a47d8e1e88ee3bb38193da9c07a1dcd4f48d560001b610a74565b612c6d83613685565b9050612c9b7f4e137e601a31198dab892e154063805b0514db618c3094abc7d7293ef540879560001b610a74565b612cc77f7948d222b6df3520be530416b7975ace25c0be4871dc126cd77a9c677bd4a10060001b610a74565b7f000000000000000000000000000000000000000000000000000000000000000073ffffffffffffffffffffffffffffffffffffffff1663c6a6cf20848b60008560018e8e6040518863ffffffff1660e01b815260040180878152602001868152602001858152602001841515151581526020018373ffffffffffffffffffffffffffffffffffffffff1673ffffffffffffffffffffffffffffffffffffffff1681526020018273ffffffffffffffffffffffffffffffffffffffff1673ffffffffffffffffffffffffffffffffffffffff16815260200196505050505050506000604051808303818588803b158015612dc057600080fd5b505af1158015612dd4573d6000803e3d6000fd5b5050505050612e0b565b612e0a7feb496614485e52f630e104e300bd39833f5654678fb9e616bf3fe586599e4ad060001b610a74565b5b612e377f33d2c0df5f3e5e901a91a1c877691cc427e552f9788a0e8201735cf88a4dfa1f60001b610a74565b612e637fba703ea0e1b456baf49f03dafd2da86893f6ac2a308a3ee9a54bef1210c3d29c60001b610a74565b6000612e7882846133ee90919063ffffffff16565b9050612ea67f2279cfd2b0e4667b8a5ba3340ba2d9ecdb10e4bd8df40caf70e851ccc1955ab960001b610a74565b612ed27f314f6446858210c17e95078c5490be4f5c4ac5fa0bbb6c6ed908a9e1b3c5e06f60001b610a74565b600081111561336b57612f077f1a7957626218365447e045424553b8d0ec785f1b41ff33ad4cd3568b2e21b47460001b610a74565b612f337f7e47ff621001a40e5b73c59101cdbb05c557b7197631ed39825556e085b943fc60001b610a74565b612f5f7face64f93fb0602fa2c3adacfbe14fa3f20b0f4085ad6bda0d92edeafd9d28ca060001b610a74565b7f000000000000000000000000000000000000000000000000000000000000000073ffffffffffffffffffffffffffffffffffffffff16635f788d658260006040518363ffffffff1660e01b8152600401808381526020018273ffffffffffffffffffffffffffffffffffffffff1673ffffffffffffffffffffffffffffffffffffffff16815260200192505050600060405180830381600087803b15801561300757600080fd5b505af115801561301b573d6000803e3d6000fd5b5050505061304b7fb8330c55fc61786b5411b3398906abe8272d8c1a6be4a7b36e7a56412b14b05960001b610a74565b6130777fe3642604fbbad3106b9709f6ab2bc61accf401fba5069191c849ee6bcad50a4260001b610a74565b60007f000000000000000000000000000000000000000000000000000000000000000073ffffffffffffffffffffffffffffffffffffffff166370a08231306040518263ffffffff1660e01b8152600401808273ffffffffffffffffffffffffffffffffffffffff1673ffffffffffffffffffffffffffffffffffffffff16815260200191505060206040518083038186803b15801561311657600080fd5b505afa15801561312a573d6000803e3d6000fd5b505050506040513d602081101561314057600080fd5b8101908080519060200190929190505050905061317f7f85d47eb0ff1901187a2c8ad490d15cce5b0e577386323ddcfdc51ad611e82e6760001b610a74565b6131ab7f98e0939f91aa4fdc150cd5ccb57f441ef3e4f4f434ac41a2a7f0c266d03b457360001b610a74565b60006131c087836133a490919063ffffffff16565b90506131ee7f955a653d60acd9f3e8d0c50b29f91728abb2983c1288dbefbe376f6940e85f0560001b610a74565b61321a7f16985ad506b482816476f712adb56b5cba321f51862eb328c0111da8d7bc468b60001b610a74565b60008111156133375761324f7f99018409800a320454e4e98ffcd98c09c7182c44dacedeace4c8311f1bae70c660001b610a74565b61327b7fe2a513485b4411d2fcb456fec6d7b67d0862f0ffd630f540209dc9d596bd637c60001b610a74565b6132a77f83ca367507134635f704429faa8d85d8757e73b73b52aa6f0bc4c04a1cccb65860001b610a74565b7f000000000000000000000000000000000000000000000000000000000000000073ffffffffffffffffffffffffffffffffffffffff1663a694fc3a826040518263ffffffff1660e01b815260040180828152602001915050600060405180830381600087803b15801561331a57600080fd5b505af115801561332e573d6000803e3d6000fd5b50505050613364565b6133637ffdd4c615500917c8433b4d30780c12f3c16d2e47c0fede3b7faaa112e2556e0360001b610a74565b5b5050613398565b6133977f8fdcda87526519d17ca2fc75d9025527c8366cf31a5a571fca853ac4c210824560001b610a74565b5b50505050505050505050565b60006133e683836040518060400160405280601e81526020017f536166654d6174683a207375627472616374696f6e206f766572666c6f770000815250613b74565b905092915050565b60008082840190508381101561346c576040517f08c379a000000000000000000000000000000000000000000000000000000000815260040180806020018281038252601b8152602001807f536166654d6174683a206164646974696f6e206f766572666c6f77000000000081525060200191505060405180910390fd5b8091505092915050565b6134a27f16b9741c4fa4a4c94db362d6b5c53ce63bead5882e4d7e24f50a8306cb031e3060001b610a74565b6134ce7fe0948364753467a13f7d49ca20c51766192c6261dc1f64c28d7ac9ebd8a28ab560001b610a74565b6134fa7f3676a5061507f165716338ecd88f29f7361b481175851da93b51bcae5844a64160001b610a74565b6135267fe57c3e4659c4eb0116ba485b1a4462760ffdfdf552fc66846b874f26dde90fbe60001b610a74565b60017f000000000000000000000000000000000000000000000000000000000000000073ffffffffffffffffffffffffffffffffffffffff166321e37801836040518263ffffffff1660e01b8152600401808273ffffffffffffffffffffffffffffffffffffffff1673ffffffffffffffffffffffffffffffffffffffff16815260200191505060206040518083038186803b1580156135c557600080fd5b505afa1580156135d9573d6000803e3d6000fd5b505050506040513d60208110156135ef57600080fd5b810190808051906020019092919050505014613656576040517f08c379a0000000000000000000000000000000000000000000000000000000008152600401808060200182810382526038815260200180613dcb6038913960400191505060405180910390fd5b6136827ffb30440b7a34961eb87bada32cf489e8cd167c0aa6aa10f834a6baea116316fa60001b610a74565b50565b60006136b37fa02155fba66d8b9d165b8490a2aa3ec3251a17a8d64545bf880c74276fec7b8260001b610a74565b6136df7ffbba33d0c0eb029e848ec8042bfdd3454cd1e2a3f6b79e1e9143c3f34dca3ffd60001b610a74565b61370b7f5e7b001ba375d55164a44615385aa6092209d4e6a40a3efcdedd3623da71fc7860001b610a74565b60007f000000000000000000000000000000000000000000000000000000000000000073ffffffffffffffffffffffffffffffffffffffff16630fdb11cf6040518163ffffffff1660e01b8152600401602060405180830381600087803b15801561377557600080fd5b505af1158015613789573d6000803e3d6000fd5b505050506040513d602081101561379f57600080fd5b810190808051906020019092919050505090506137de7fdec604d9288c5ccc3121d86636a66928af53491884feb12ed0db26b542e7546460001b610a74565b61380a7f597203f0b279b29a1eda9d588898d4bfc35b576caa6d03c382aa6ee2204f89bb60001b610a74565b60007f000000000000000000000000000000000000000000000000000000000000000073ffffffffffffffffffffffffffffffffffffffff1663d293c71030846040518363ffffffff1660e01b8152600401808373ffffffffffffffffffffffffffffffffffffffff1673ffffffffffffffffffffffffffffffffffffffff1681526020018281526020019250505060206040518083038186803b1580156138b157600080fd5b505afa1580156138c5573d6000803e3d6000fd5b505050506040513d60208110156138db57600080fd5b8101908080519060200190929190505050905061391a7fd17b90ca0dd53b2ae66f6780bdff4dbe06d503af87a5acb906d6c087aace547e60001b610a74565b6139467fa1e284990db2de5365b862368702a21770ca5f2bd1eb40b2f24affcc18a424e760001b610a74565b600061396d8261395f8588613c3490919063ffffffff16565b613cba90919063ffffffff16565b905061399b7f2062bc2a5ead417ff72bc78d4a99a41451ae99fd8e9ed8e4dc7f58be1940767260001b610a74565b6139c77f3a36ef6885852cc5d2637ea9a3ee2e3c82c5864ac9982c2f70d626bdca6ce68360001b610a74565b60007f000000000000000000000000000000000000000000000000000000000000000073ffffffffffffffffffffffffffffffffffffffff166366ca4a216040518163ffffffff1660e01b815260040160206040518083038186803b158015613a2f57600080fd5b505afa158015613a43573d6000803e3d6000fd5b505050506040513d6020811015613a5957600080fd5b81019080805190602001909291905050509050613a987fd3d345b9400cb9202f0f5b2fb08c5ecb09c2238dfb6d8d7bcb85d8ecf51c85f960001b610a74565b613ac47f0f1a04412ef2b018d427613dd8aa49b19dffd893f404023c97e51d501400a39660001b610a74565b6000613b0d613ae483670de0b6b3a76400006133ee90919063ffffffff16565b613aff670de0b6b3a764000086613c3490919063ffffffff16565b613cba90919063ffffffff16565b9050613b3b7f8dd1a91a7ae6b279df1ae001e74e13778e071b9c70ac63dbe62d92c80d594a7360001b610a74565b613b677f3a92db12a556c86a4c36e7b92be3d0fbce9fc3e541925d1eb480bb768f6005d660001b610a74565b8095505050505050919050565b6000838311158290613c21576040517f08c379a00000000000000000000000000000000000000000000000000000000081526004018080602001828103825283818151815260200191508051906020019080838360005b83811015613be6578082015181840152602081019050613bcb565b50505050905090810190601f168015613c135780820380516001836020036101000a031916815260200191505b509250505060405180910390fd5b5060008385039050809150509392505050565b600080831415613c475760009050613cb4565b6000828402905082848281613c5857fe5b0414613caf576040517f08c379a0000000000000000000000000000000000000000000000000000000008152600401808060200182810382526021815260200180613e036021913960400191505060405180910390fd5b809150505b92915050565b6000613cfc83836040518060400160405280601a81526020017f536166654d6174683a206469766973696f6e206279207a65726f000000000000815250613d04565b905092915050565b60008083118290613db0576040517f08c379a00000000000000000000000000000000000000000000000000000000081526004018080602001828103825283818151815260200191508051906020019080838360005b83811015613d75578082015181840152602081019050613d5a565b50505050905090810190601f168015613da25780820380516001836020036101000a031916815260200191505b509250505060405180910390fd5b506000838581613dbc57fe5b04905080915050939250505056fe426f72726f77657257726170706572735363726970743a2063616c6c6572206d757374206861766520616e206163746976652074726f7665536166654d6174683a206d756c7469706c69636174696f6e206f766572666c6f77a2646970667358221220964f9be57a4f7fa2735cd4c1db5e968b3186472e7c8bb0b9c5b083d60030627564736f6c634300060b0033426f72726f77657257726170706572735363726970743a2057726f6e67204c5154595374616b696e672061646472657373",
  "linkReferences": {},
  "deployedLinkReferences": {}
}