{
  "_format": "hh-sol-artifact-1",
  "contractName": "CheckContract",
  "sourceName": "contracts/Dependencies/CheckContract.sol",
  "abi": [
    {
      "inputs": [
        {
          "internalType": "bytes32",
          "name": "c__0xafd32059",
          "type": "bytes32"
        }
      ],
      "name": "c_0xafd32059",
      "outputs": [],
      "stateMutability": "pure",
      "type": "function"
    }
  ],
  "bytecode": "0x6080604052348015600f57600080fd5b5060918061001e6000396000f3fe6080604052348015600f57600080fd5b506004361060285760003560e01c8063940a71bc14602d575b600080fd5b605660048036036020811015604157600080fd5b81019080803590602001909291905050506058565b005b5056fea264697066735822122025fbb799badce2170c51a0f531c61169a335e68027e9b39eb4378dfb7f38ca4c64736f6c634300060b0033",
  "linkReferences": {},
  "deployedLinkReferences": {}
}