{
  "_format": "hh-sol-artifact-1",
  "contractName": "CollSurplusPool",
  "sourceName": "contracts/CollSurplusPool.sol",
  "abi": [
    {
      "anonymous": false,
      "inputs": [
        {
          "indexed": false,
          "internalType": "address",
          "name": "_newActivePoolAddress",
          "type": "address"
        }
      ],
      "name": "ActivePoolAddressChanged",
      "type": "event"
    },
    {
      "anonymous": false,
      "inputs": [
        {
          "indexed": false,
          "internalType": "address",
          "name": "_newBorrowerOperationsAddress",
          "type": "address"
        }
      ],
      "name": "BorrowerOperationsAddressChanged",
      "type": "event"
    },
    {
      "anonymous": false,
      "inputs": [
        {
          "indexed": true,
          "internalType": "address",
          "name": "_account",
          "type": "address"
        },
        {
          "indexed": false,
          "internalType": "uint256",
          "name": "_newBalance",
          "type": "uint256"
        }
      ],
      "name": "CollBalanceUpdated",
      "type": "event"
    },
    {
      "anonymous": false,
      "inputs": [
        {
          "indexed": false,
          "internalType": "address",
          "name": "_to",
          "type": "address"
        },
        {
          "indexed": false,
          "internalType": "uint256",
          "name": "_amount",
          "type": "uint256"
        }
      ],
      "name": "EtherSent",
      "type": "event"
    },
    {
      "anonymous": false,
      "inputs": [
        {
          "indexed": true,
          "internalType": "address",
          "name": "previousOwner",
          "type": "address"
        },
        {
          "indexed": true,
          "internalType": "address",
          "name": "newOwner",
          "type": "address"
        }
      ],
      "name": "OwnershipTransferred",
      "type": "event"
    },
    {
      "anonymous": false,
      "inputs": [
        {
          "indexed": false,
          "internalType": "address",
          "name": "_newTroveManagerAddress",
          "type": "address"
        }
      ],
      "name": "TroveManagerAddressChanged",
      "type": "event"
    },
    {
      "inputs": [],
      "name": "NAME",
      "outputs": [
        {
          "internalType": "string",
          "name": "",
          "type": "string"
        }
      ],
      "stateMutability": "view",
      "type": "function"
    },
    {
      "inputs": [
        {
          "internalType": "address",
          "name": "_account",
          "type": "address"
        },
        {
          "internalType": "uint256",
          "name": "_amount",
          "type": "uint256"
        }
      ],
      "name": "accountSurplus",
      "outputs": [],
      "stateMutability": "nonpayable",
      "type": "function"
    },
    {
      "inputs": [],
      "name": "activePoolAddress",
      "outputs": [
        {
          "internalType": "address",
          "name": "",
          "type": "address"
        }
      ],
      "stateMutability": "view",
      "type": "function"
    },
    {
      "inputs": [],
      "name": "borrowerOperationsAddress",
      "outputs": [
        {
          "internalType": "address",
          "name": "",
          "type": "address"
        }
      ],
      "stateMutability": "view",
      "type": "function"
    },
    {
      "inputs": [
        {
          "internalType": "bytes32",
          "name": "c__0x247240b7",
          "type": "bytes32"
        }
      ],
      "name": "c_0x247240b7",
      "outputs": [],
      "stateMutability": "pure",
      "type": "function"
    },
    {
      "inputs": [
        {
          "internalType": "bytes32",
          "name": "c__0xafd32059",
          "type": "bytes32"
        }
      ],
      "name": "c_0xafd32059",
      "outputs": [],
      "stateMutability": "pure",
      "type": "function"
    },
    {
      "inputs": [
        {
          "internalType": "address",
          "name": "_account",
          "type": "address"
        }
      ],
      "name": "claimColl",
      "outputs": [],
      "stateMutability": "nonpayable",
      "type": "function"
    },
    {
      "inputs": [
        {
          "internalType": "address",
          "name": "_account",
          "type": "address"
        }
      ],
      "name": "getCollateral",
      "outputs": [
        {
          "internalType": "uint256",
          "name": "",
          "type": "uint256"
        }
      ],
      "stateMutability": "view",
      "type": "function"
    },
    {
      "inputs": [],
      "name": "getETH",
      "outputs": [
        {
          "internalType": "uint256",
          "name": "",
          "type": "uint256"
        }
      ],
      "stateMutability": "view",
      "type": "function"
    },
    {
      "inputs": [],
      "name": "isOwner",
      "outputs": [
        {
          "internalType": "bool",
          "name": "",
          "type": "bool"
        }
      ],
      "stateMutability": "view",
      "type": "function"
    },
    {
      "inputs": [],
      "name": "owner",
      "outputs": [
        {
          "internalType": "address",
          "name": "",
          "type": "address"
        }
      ],
      "stateMutability": "view",
      "type": "function"
    },
    {
      "inputs": [
        {
          "internalType": "address",
          "name": "_borrowerOperationsAddress",
          "type": "address"
        },
        {
          "internalType": "address",
          "name": "_troveManagerAddress",
          "type": "address"
        },
        {
          "internalType": "address",
          "name": "_activePoolAddress",
          "type": "address"
        }
      ],
      "name": "setAddresses",
      "outputs": [],
      "stateMutability": "nonpayable",
      "type": "function"
    },
    {
      "inputs": [],
      "name": "troveManagerAddress",
      "outputs": [
        {
          "internalType": "address",
          "name": "",
          "type": "address"
        }
      ],
      "stateMutability": "view",
      "type": "function"
    },
    {
      "stateMutability": "payable",
      "type": "receive"
    }
  ],
  "bytecode": "0x608060405234801561001057600080fd5b50336000806101000a81548173ffffffffffffffffffffffffffffffffffffffff021916908373ffffffffffffffffffffffffffffffffffffffff1602179055503373ffffffffffffffffffffffffffffffffffffffff16600073ffffffffffffffffffffffffffffffffffffffff167f8be0079c531659141344cd1fd0a4f28419497f9722a3daafe3b4186f6b6457e060405160405180910390a361226a806100bb6000396000f3fe6080604052600436106100b65760003560e01c8063940a71bc1161006f578063940a71bc146103315780639b56d6c91461036c578063a3f4df7e146103d1578063b08bc72214610461578063b32beb5b146104b8578063b7f8cf9b14610509578063e9b097d11461056057610138565b806314f6c3be1461013d578063363bf964146101685780633f10abab146101f95780635a4d28bb146102545780638da5cb5b146102ab5780638f32d59b1461030257610138565b36610138576100e77fde02c6863fa8a42f878e78f10e023357aced1d2bbc72e3912129541883f1327e60001b61059b565b6100ef61059e565b61011b7f219b6fdec5ee877cdf6d1259d5056256f799202d43966c05913f9b3572c422ce60001b61059b565b6101303460045461072290919063ffffffff16565b600481905550005b600080fd5b34801561014957600080fd5b506101526107aa565b6040518082815260200191505060405180910390f35b34801561017457600080fd5b506101f76004803603606081101561018b57600080fd5b81019080803573ffffffffffffffffffffffffffffffffffffffff169060200190929190803573ffffffffffffffffffffffffffffffffffffffff169060200190929190803573ffffffffffffffffffffffffffffffffffffffff169060200190929190505050610838565b005b34801561020557600080fd5b506102526004803603604081101561021c57600080fd5b81019080803573ffffffffffffffffffffffffffffffffffffffff16906020019092919080359060200190929190505050610e62565b005b34801561026057600080fd5b506102696110e3565b604051808273ffffffffffffffffffffffffffffffffffffffff1673ffffffffffffffffffffffffffffffffffffffff16815260200191505060405180910390f35b3480156102b757600080fd5b506102c0611109565b604051808273ffffffffffffffffffffffffffffffffffffffff1673ffffffffffffffffffffffffffffffffffffffff16815260200191505060405180910390f35b34801561030e57600080fd5b50610317611132565b604051808215151515815260200191505060405180910390f35b34801561033d57600080fd5b5061036a6004803603602081101561035457600080fd5b8101908080359060200190929190505050611189565b005b34801561037857600080fd5b506103bb6004803603602081101561038f57600080fd5b81019080803573ffffffffffffffffffffffffffffffffffffffff16906020019092919050505061118c565b6040518082815260200191505060405180910390f35b3480156103dd57600080fd5b506103e6611259565b6040518080602001828103825283818151815260200191508051906020019080838360005b8381101561042657808201518184015260208101905061040b565b50505050905090810190601f1680156104535780820380516001836020036101000a031916815260200191505b509250505060405180910390f35b34801561046d57600080fd5b50610476611292565b604051808273ffffffffffffffffffffffffffffffffffffffff1673ffffffffffffffffffffffffffffffffffffffff16815260200191505060405180910390f35b3480156104c457600080fd5b50610507600480360360208110156104db57600080fd5b81019080803573ffffffffffffffffffffffffffffffffffffffff1690602001909291905050506112b8565b005b34801561051557600080fd5b5061051e61192f565b604051808273ffffffffffffffffffffffffffffffffffffffff1673ffffffffffffffffffffffffffffffffffffffff16815260200191505060405180910390f35b34801561056c57600080fd5b506105996004803603602081101561058357600080fd5b810190808035906020019092919050505061059b565b005b50565b6105ca7f9cd3f367833f8202eb0d8131c02b9a47beef89685ffbeb0598ecc9f9b197453f60001b61059b565b6105f67f4c8d3155f2ffecc41e28bcccda19e2439c11f33c308a9f4401583fd4ae2e6d8760001b61059b565b6106227f0c92914d6ba3bb003a7075bb04834f45970cd7610483f613ad1668375a31f14060001b61059b565b61064e7f5b657d4ff2af3cdc3db1ff2954ff75133388bedad2e9202f3453dd892a652a7260001b61059b565b600360009054906101000a900473ffffffffffffffffffffffffffffffffffffffff1673ffffffffffffffffffffffffffffffffffffffff163373ffffffffffffffffffffffffffffffffffffffff16146106f4576040517f08c379a000000000000000000000000000000000000000000000000000000000815260040180806020018281038252602a81526020018061218b602a913960400191505060405180910390fd5b6107207f615e88f0408cb1f52fb65bbc069163600b18c214b60a8a096a8fefaa0700be0f60001b61059b565b565b6000808284019050838110156107a0576040517f08c379a000000000000000000000000000000000000000000000000000000000815260040180806020018281038252601b8152602001807f536166654d6174683a206164646974696f6e206f766572666c6f77000000000081525060200191505060405180910390fd5b8091505092915050565b60006107d87fd3ce1d6eb53904d824eaa1fc186594544db414fff1bff8af341d0287f54efa0060001b61059b565b6108047fb93f5681fa432b8ab2e93c13e5b8dc546684db06f83a0866021fb864eebe493960001b61059b565b6108307f0ca34103bebcf2b2b93a38bacd3f53a00175de07ba0ffb5b6f3b482b1866386c60001b61059b565b600454905090565b610840611132565b6108b2576040517f08c379a00000000000000000000000000000000000000000000000000000000081526004018080602001828103825260208152602001807f4f776e61626c653a2063616c6c6572206973206e6f7420746865206f776e657281525060200191505060405180910390fd5b6108de7f1ba14273de47d86e0b083bd91f69cbf44ffc34dfb93355ca647667a47b4dca2960001b61059b565b61090a7f21cfa0abacc8d29347c80cb3f81489929aae67d4b923400236ab8e1b41c9896960001b61059b565b6109367f62a53cf484d21833bd1e70f55ed723cc24d2df876fe80870b241a8ff3080e6e860001b61059b565b61093f83611955565b61096b7fe0df6639978d6b8c9ed45a1dd0cd3896d538bc0601465533ad0c9a8099ee0e3b60001b61059b565b6109977f605823bae2e4ffe4f7c664e5d3186c6c3e3f5d1bc6a1869befde57985e8ffb5560001b61059b565b6109a082611955565b6109cc7f3cd0cc1c62fc76c36022195936280015b455b0091568053d212b52ec3d08507d60001b61059b565b6109f87f721351bb464825a0b7bcad1c9ef96e9447ce6776ed57431666c36e7b5410d41660001b61059b565b610a0181611955565b610a2d7feada4612060b52a834791ef90c3b2ca1299d54d3409eeb1aee1b9337e436165960001b61059b565b610a597f6a770a3db37a854f59487b031c44893431acb6d9f6af1d72737e411f7a2bd37f60001b61059b565b82600160006101000a81548173ffffffffffffffffffffffffffffffffffffffff021916908373ffffffffffffffffffffffffffffffffffffffff160217905550610ac67f755462f904cabd138aeb4f598de7df9d1742427f3fa414299b18ac64d94d525860001b61059b565b610af27fc49f69f2818b03112c541618a79e88db499c18feee5822f21b290cc170dd65d360001b61059b565b81600260006101000a81548173ffffffffffffffffffffffffffffffffffffffff021916908373ffffffffffffffffffffffffffffffffffffffff160217905550610b5f7f4fa5f2c6fc8e4688baffc4e7e9fc75a1c8a0b5ff4f5442690c8de839405ffdac60001b61059b565b610b8b7ff2a4ce5798103d847bf689b78592a379784b425fab2aed0ecc39e9e6d24148c060001b61059b565b80600360006101000a81548173ffffffffffffffffffffffffffffffffffffffff021916908373ffffffffffffffffffffffffffffffffffffffff160217905550610bf87fc46c653b03890b0e1c9c50a4b93baa2f38da5f760c2fa48ad970324e986fbf1f60001b61059b565b610c247fd85eb1ead4ff954f993e273ccf876c1afbe8999b40f8851884e09488aad8e77660001b61059b565b7f3ca631ffcd2a9b5d9ae18543fc82f58eb4ca33af9e6ab01b7a8e95331e6ed98583604051808273ffffffffffffffffffffffffffffffffffffffff1673ffffffffffffffffffffffffffffffffffffffff16815260200191505060405180910390a1610cb37f454fde5ad74b80e60db54ade1ffc3eca52aa7002a23ffbfcf0498b4f5d15535160001b61059b565b610cdf7f986b4f995b9fd5e0bb7fd41fe2b9dbb18adfb19e35e5858679f980c4f518823260001b61059b565b7f143219c9e69b09e07e095fcc889b43d8f46ca892bba65f08dc3a0050869a567882604051808273ffffffffffffffffffffffffffffffffffffffff1673ffffffffffffffffffffffffffffffffffffffff16815260200191505060405180910390a1610d6e7f5d3ca3ca70373e398968907facb60a6cba1251393cb704c64cc893a5a189ea2960001b61059b565b610d9a7fa92653ef42141671344602de278727390b47194552ba7a4edfb7258ac74f49ae60001b61059b565b7f78f058b189175430c48dc02699e3a0031ea4ff781536dc2fab847de4babdd88281604051808273ffffffffffffffffffffffffffffffffffffffff1673ffffffffffffffffffffffffffffffffffffffff16815260200191505060405180910390a1610e297fe1385fcfc2cd996011b9c695a21614720daddcb0bea8a986746d532e2b95d32f60001b61059b565b610e557fd053a14b07f322c09ba6af80ca680fae705ada441ec7aeae07941f3c44d3e7c060001b61059b565b610e5d611c88565b505050565b610e8e7f132fa3bafa8973d91369ab2f72f8867e1eb35830c1d1f6d7a791a4b8fc37e71a60001b61059b565b610eba7fcfbd389748682cceb044c0cfdf68663e3e7fd1e4a3a9b7cae07962ac364762ee60001b61059b565b610ee67f9f713cead3c947e27950be2205839717cd65b2c0fa2833920187b6e300dd2a9e60001b61059b565b610eee611d47565b610f1a7f305ed06e3875077f094e80655c58d2737af44bb114bfb456e14d82570b08d89160001b61059b565b610f467ff798cff384fc7e3aaf939d9118ae8791e105d0b831b6870efd2779c4b2b99f3a60001b61059b565b6000610f9a82600560008673ffffffffffffffffffffffffffffffffffffffff1673ffffffffffffffffffffffffffffffffffffffff1681526020019081526020016000205461072290919063ffffffff16565b9050610fc87f0c4cf5964443dff8de193aca396deb86aff1f7a9b6da8447b87562623e02f00760001b61059b565b610ff47f4f1b9b8bf2f1c7018edbfcc48fb375b78213e8875a05aed1c08b33b28150de5160001b61059b565b80600560008573ffffffffffffffffffffffffffffffffffffffff1673ffffffffffffffffffffffffffffffffffffffff168152602001908152602001600020819055506110647f4e79bed4ea130b3305abd8a223ce52ad9b28b5091b8f8c9cafe938a48bdbe1a860001b61059b565b6110907f58425bdc124adc99d12e10d5701c45b8670682f5e902109280115a01823aff5260001b61059b565b8273ffffffffffffffffffffffffffffffffffffffff167ff0393a34d05e6567686ad4e097f9d9d2781565957394f1f0d984e5d8e6378f20826040518082815260200191505060405180910390a2505050565b600260009054906101000a900473ffffffffffffffffffffffffffffffffffffffff1681565b60008060009054906101000a900473ffffffffffffffffffffffffffffffffffffffff16905090565b60008060009054906101000a900473ffffffffffffffffffffffffffffffffffffffff1673ffffffffffffffffffffffffffffffffffffffff163373ffffffffffffffffffffffffffffffffffffffff1614905090565b50565b60006111ba7f976c50e6f9d18c3d093d905b9c306519c9ab15565248c719136e556a089c1c0560001b61059b565b6111e67f3d6401b527217d33e977b4a1b758abbe9edb6d18c3e3cd58c76a974f0600b6ed60001b61059b565b6112127faf7fe1c82ba2f36c78d4071d54e42fdb8490d57839314423a25212d97b483bd760001b61059b565b600560008373ffffffffffffffffffffffffffffffffffffffff1673ffffffffffffffffffffffffffffffffffffffff168152602001908152602001600020549050919050565b6040518060400160405280600f81526020017f436f6c6c537572706c7573506f6f6c000000000000000000000000000000000081525081565b600360009054906101000a900473ffffffffffffffffffffffffffffffffffffffff1681565b6112e47f2c2c19fca7890e3521cf31766ba012e010390d350814c981ab24fe14dbb7d73e60001b61059b565b6113107f67f4acb93ee80aeb37029b9d8449f00c2f8d5f859a96dd05dcd7c3b460d845d960001b61059b565b61133c7ff8f1d85dc60f2377541068937a475451954cb574baac10ba6f3f134d522480ca60001b61059b565b611344611ecb565b6113707f4bc5d48d0769d29d249108ba9cd3d85910af84d3a4284873ff4038972f923e7360001b61059b565b61139c7fedeee05e88e8cdac4ad886c40523a1b1a9e3377a328dbbc8330a6092c1cb4dbf60001b61059b565b6000600560008373ffffffffffffffffffffffffffffffffffffffff1673ffffffffffffffffffffffffffffffffffffffff16815260200190815260200160002054905061140c7fbedf657044f873f00c2a5b5700dfff9d1d463184e56357c33263d5da606f30da60001b61059b565b6114387fea6dea0fe631224b6e94edb989859286ffab0d457e777f703843fcedba8a21eb60001b61059b565b6114647f24d809b295bd0b0bd394b841c93e8c7fb3472bb45de1cfb67cc5b9c2fb2938d860001b61059b565b600081116114bd576040517f08c379a000000000000000000000000000000000000000000000000000000000815260040180806020018281038252603181526020018061215a6031913960400191505060405180910390fd5b6114e97f77af2077a71303908879abc24a0bdae1c492e64bcd3e996dd3a9557cdf3ffcb160001b61059b565b6115157f506f7d302516b69fa6e625ebb13138a5cb7d0f5916278d51ed50becb082a818860001b61059b565b6115417fd263a51de3e1d0b568dde211d0a192e26c8152a398e136f751cf666cfcf0afaa60001b61059b565b6000600560008473ffffffffffffffffffffffffffffffffffffffff1673ffffffffffffffffffffffffffffffffffffffff168152602001908152602001600020819055506115b27fc77653e3342e7b9ddbade28fc44f9ef55f9237a8bb53a9189f4f3b564eb27a4560001b61059b565b6115de7f60b1d18ace8cc9a6eacd45ffb6fa61a78e7c0da484cc78002c255d4f470e533060001b61059b565b8173ffffffffffffffffffffffffffffffffffffffff167ff0393a34d05e6567686ad4e097f9d9d2781565957394f1f0d984e5d8e6378f2060006040518082815260200191505060405180910390a26116597f3216e15bcaccba7231f771b4bc35e28562cc84408c9e2689bf2898af1c392fcf60001b61059b565b6116857f3598d68cc59e05417879e94259151cb22a3cb44becb2b681cb12a808d8d4cf2160001b61059b565b61169a8160045461204f90919063ffffffff16565b6004819055506116cc7f8c52495a1c3e501d17fa07f40340000debf61758bede23efeb750a77f995f9ff60001b61059b565b6116f87fdf88f10e3e151bdb1a319149fcfc049fae1a66d66a0d9b5dc90f4e8da3e678e660001b61059b565b7f6109e2559dfa766aaec7118351d48a523f0a4157f49c8d68749c8ac41318ad128282604051808373ffffffffffffffffffffffffffffffffffffffff1673ffffffffffffffffffffffffffffffffffffffff1681526020018281526020019250505060405180910390a161178f7fdd4a43d414aeaccfce3fe83d5285cdc8d4f61393d3342621074c8486572dbb7460001b61059b565b6117bb7f604b5e213bb78b17e72cacf5bf2dc55f62a4b6c4ea160b183eab23f4b10ddd6b60001b61059b565b60008273ffffffffffffffffffffffffffffffffffffffff168260405180600001905060006040518083038185875af1925050503d806000811461181b576040519150601f19603f3d011682016040523d82523d6000602084013e611820565b606091505b505090506118507faab861cba2901b8485fb442626f111529847afa16c421fe1651a5781e3536c6860001b61059b565b61187c7f8cede54c8fdb7d64a47d3c961d548095a90c2e8826ad05419a16f63dfd49970360001b61059b565b6118a87fc04ae7b3bae1a482247dfcf4b3154a532836fec04bd1cebedcb93023c7ddc2b560001b61059b565b806118fe576040517f08c379a00000000000000000000000000000000000000000000000000000000081526004018080602001828103825260238152602001806121b56023913960400191505060405180910390fd5b61192a7f7c5596476041a20fe29f18a472b09eb4f098667f0ca88afc64d511022987730c60001b61059b565b505050565b600160009054906101000a900473ffffffffffffffffffffffffffffffffffffffff1681565b6119817f35bc9e5e61c1438a006153cf69ffd6105766a3055440d22f6c8ce219146d68af60001b611189565b6119ad7fe66c045f45b868efda896f2af22ed71637a4e9e8d13a2b1962badf362ba3eeb960001b611189565b6119d97faaa4b517f253b4fa37cb2875514a22e04e7d5828c244c7095a27e85408ccd12c60001b611189565b611a057f1221da0bd0f16fcbee175d4dae7d6b598e327e79264e77ced4c93a6a0721871b60001b611189565b600073ffffffffffffffffffffffffffffffffffffffff168173ffffffffffffffffffffffffffffffffffffffff161415611aa8576040517f08c379a000000000000000000000000000000000000000000000000000000000815260040180806020018281038252601e8152602001807f4163636f756e742063616e6e6f74206265207a65726f2061646472657373000081525060200191505060405180910390fd5b611ad47f09f0dc62d572b9e8dd242a1b7e25c3c5de1610d6c480bec35912dd5840f55fec60001b611189565b611b007fbe74447fdea037b64141768df2430eb2b7113bef949c88d88dcdc549ba88703360001b611189565b611b2c7f04e66872d3f4c69728dfe545a06401e1b17e0f9dd5e1d43290514ae4fd92783060001b611189565b6000611b5a7f60826eea4af75abd2223d108cb037485a60c485e699a12a42cac24982b89800660001b611189565b813b9050611b8a7f7acec79ba6fd0be7bb4b2bfca56ca8eb3d8333d64e828971ccb7647facc3806360001b611189565b611bb67f0c7e0405db301404f844860b9fe6e14e956a97134ff8695c88184f1c957d6e0860001b611189565b611be27f1c5a94c5a5d640e17d84bedbf9409c7f8afe563c4b1fceef7bced5961764ee0f60001b611189565b60008111611c58576040517f08c379a00000000000000000000000000000000000000000000000000000000081526004018080602001828103825260208152602001807f4163636f756e7420636f64652073697a652063616e6e6f74206265207a65726f81525060200191505060405180910390fd5b611c847f1023f03b6261b194c29dee3596b0d25a3be14b60910a1d249d0177db54f54c4a60001b611189565b5050565b600073ffffffffffffffffffffffffffffffffffffffff166000809054906101000a900473ffffffffffffffffffffffffffffffffffffffff1673ffffffffffffffffffffffffffffffffffffffff167f8be0079c531659141344cd1fd0a4f28419497f9722a3daafe3b4186f6b6457e060405160405180910390a360008060006101000a81548173ffffffffffffffffffffffffffffffffffffffff021916908373ffffffffffffffffffffffffffffffffffffffff160217905550565b611d737fdb954cbc38521e0ce698708363ca71b6cdf8b132e3dac6b0364dfdfb68d985dd60001b61059b565b611d9f7fefb8edf817f1260966fb83b28ee7fc2a96506cb256250aab61d24d89c093509260001b61059b565b611dcb7fbd60ded373425bf7a4494b49088d52238efce0ddb69a7741f8014820ba12a4c960001b61059b565b611df77fb55daffd7b019e50fb842bc96a5afee1c6d4c653c2a40f915095951c347a293e60001b61059b565b600260009054906101000a900473ffffffffffffffffffffffffffffffffffffffff1673ffffffffffffffffffffffffffffffffffffffff163373ffffffffffffffffffffffffffffffffffffffff1614611e9d576040517f08c379a000000000000000000000000000000000000000000000000000000000815260040180806020018281038252602b81526020018061220a602b913960400191505060405180910390fd5b611ec97f4d3eca5d41bfc909c67c7cf70fd4363b200326593a95d929e3df448214cb59ca60001b61059b565b565b611ef77f84696bd4102cf16cfe8d512f9eda60b1d68315b5ebcc561b32963d1472cee15760001b61059b565b611f237f1d5b54c9c598b5fd9dee547424d614d629d8a73e518d1743ebeaddb5c9094bbd60001b61059b565b611f4f7fc1e74b97307f02c411c93b077e81ddc8b8494200a0ced23db149c2f10f1a70a060001b61059b565b611f7b7f4daf8543f4d08beb91a8914b0b2bc3c28111cbaface94d56b4f2b2ec9734aa9160001b61059b565b600160009054906101000a900473ffffffffffffffffffffffffffffffffffffffff1673ffffffffffffffffffffffffffffffffffffffff163373ffffffffffffffffffffffffffffffffffffffff1614612021576040517f08c379a00000000000000000000000000000000000000000000000000000000081526004018080602001828103825260328152602001806121d86032913960400191505060405180910390fd5b61204d7f08fde57e247806d92fe75278667f07f9919b8cb1669311f5589a85f4dc6739fc60001b61059b565b565b600061209183836040518060400160405280601e81526020017f536166654d6174683a207375627472616374696f6e206f766572666c6f770000815250612099565b905092915050565b6000838311158290612146576040517f08c379a00000000000000000000000000000000000000000000000000000000081526004018080602001828103825283818151815260200191508051906020019080838360005b8381101561210b5780820151818401526020810190506120f0565b50505050905090810190601f1680156121385780820380516001836020036101000a031916815260200191505b509250505060405180910390fd5b506000838503905080915050939250505056fe436f6c6c537572706c7573506f6f6c3a204e6f20636f6c6c61746572616c20617661696c61626c6520746f20636c61696d436f6c6c537572706c7573506f6f6c3a2043616c6c6572206973206e6f742041637469766520506f6f6c436f6c6c537572706c7573506f6f6c3a2073656e64696e6720455448206661696c6564436f6c6c537572706c7573506f6f6c3a2043616c6c6572206973206e6f7420426f72726f776572204f7065726174696f6e73436f6c6c537572706c7573506f6f6c3a2043616c6c6572206973206e6f742054726f76654d616e61676572a2646970667358221220ed10f942e17774fb87baf0620a9246a2518f502fc5c66fb4bf67cd1fb5293daf64736f6c634300060b0033",
  "linkReferences": {},
  "deployedLinkReferences": {}
}