{
  "_format": "hh-sol-artifact-1",
  "contractName": "CommunityIssuanceTester",
  "sourceName": "contracts/TestContracts/CommunityIssuanceTester.sol",
  "abi": [
    {
      "anonymous": false,
      "inputs": [
        {
          "indexed": false,
          "internalType": "address",
          "name": "_lqtyTokenAddress",
          "type": "address"
        }
      ],
      "name": "LQTYTokenAddressSet",
      "type": "event"
    },
    {
      "anonymous": false,
      "inputs": [
        {
          "indexed": true,
          "internalType": "address",
          "name": "previousOwner",
          "type": "address"
        },
        {
          "indexed": true,
          "internalType": "address",
          "name": "newOwner",
          "type": "address"
        }
      ],
      "name": "OwnershipTransferred",
      "type": "event"
    },
    {
      "anonymous": false,
      "inputs": [
        {
          "indexed": false,
          "internalType": "address",
          "name": "_stabilityPoolAddress",
          "type": "address"
        }
      ],
      "name": "StabilityPoolAddressSet",
      "type": "event"
    },
    {
      "anonymous": false,
      "inputs": [
        {
          "indexed": false,
          "internalType": "uint256",
          "name": "_totalLQTYIssued",
          "type": "uint256"
        }
      ],
      "name": "TotalLQTYIssuedUpdated",
      "type": "event"
    },
    {
      "inputs": [],
      "name": "DECIMAL_PRECISION",
      "outputs": [
        {
          "internalType": "uint256",
          "name": "",
          "type": "uint256"
        }
      ],
      "stateMutability": "view",
      "type": "function"
    },
    {
      "inputs": [],
      "name": "ISSUANCE_FACTOR",
      "outputs": [
        {
          "internalType": "uint256",
          "name": "",
          "type": "uint256"
        }
      ],
      "stateMutability": "view",
      "type": "function"
    },
    {
      "inputs": [],
      "name": "LQTYSupplyCap",
      "outputs": [
        {
          "internalType": "uint256",
          "name": "",
          "type": "uint256"
        }
      ],
      "stateMutability": "view",
      "type": "function"
    },
    {
      "inputs": [],
      "name": "NAME",
      "outputs": [
        {
          "internalType": "string",
          "name": "",
          "type": "string"
        }
      ],
      "stateMutability": "view",
      "type": "function"
    },
    {
      "inputs": [],
      "name": "SECONDS_IN_ONE_MINUTE",
      "outputs": [
        {
          "internalType": "uint256",
          "name": "",
          "type": "uint256"
        }
      ],
      "stateMutability": "view",
      "type": "function"
    },
    {
      "inputs": [
        {
          "internalType": "bytes32",
          "name": "c__0x6e228ede",
          "type": "bytes32"
        }
      ],
      "name": "c_0x6e228ede",
      "outputs": [],
      "stateMutability": "pure",
      "type": "function"
    },
    {
      "inputs": [
        {
          "internalType": "bytes32",
          "name": "c__0xafd32059",
          "type": "bytes32"
        }
      ],
      "name": "c_0xafd32059",
      "outputs": [],
      "stateMutability": "pure",
      "type": "function"
    },
    {
      "inputs": [
        {
          "internalType": "bytes32",
          "name": "c__0xe624bb7f",
          "type": "bytes32"
        }
      ],
      "name": "c_0xe624bb7f",
      "outputs": [],
      "stateMutability": "pure",
      "type": "function"
    },
    {
      "inputs": [],
      "name": "deploymentTime",
      "outputs": [
        {
          "internalType": "uint256",
          "name": "",
          "type": "uint256"
        }
      ],
      "stateMutability": "view",
      "type": "function"
    },
    {
      "inputs": [],
      "name": "getCumulativeIssuanceFraction",
      "outputs": [
        {
          "internalType": "uint256",
          "name": "",
          "type": "uint256"
        }
      ],
      "stateMutability": "view",
      "type": "function"
    },
    {
      "inputs": [],
      "name": "isOwner",
      "outputs": [
        {
          "internalType": "bool",
          "name": "",
          "type": "bool"
        }
      ],
      "stateMutability": "view",
      "type": "function"
    },
    {
      "inputs": [],
      "name": "issueLQTY",
      "outputs": [
        {
          "internalType": "uint256",
          "name": "",
          "type": "uint256"
        }
      ],
      "stateMutability": "nonpayable",
      "type": "function"
    },
    {
      "inputs": [],
      "name": "lqtyToken",
      "outputs": [
        {
          "internalType": "contract ILQTYToken",
          "name": "",
          "type": "address"
        }
      ],
      "stateMutability": "view",
      "type": "function"
    },
    {
      "inputs": [
        {
          "internalType": "uint256",
          "name": "_amount",
          "type": "uint256"
        }
      ],
      "name": "obtainLQTY",
      "outputs": [],
      "stateMutability": "nonpayable",
      "type": "function"
    },
    {
      "inputs": [],
      "name": "owner",
      "outputs": [
        {
          "internalType": "address",
          "name": "",
          "type": "address"
        }
      ],
      "stateMutability": "view",
      "type": "function"
    },
    {
      "inputs": [
        {
          "internalType": "address",
          "name": "_account",
          "type": "address"
        },
        {
          "internalType": "uint256",
          "name": "_LQTYamount",
          "type": "uint256"
        }
      ],
      "name": "sendLQTY",
      "outputs": [],
      "stateMutability": "nonpayable",
      "type": "function"
    },
    {
      "inputs": [
        {
          "internalType": "address",
          "name": "_lqtyTokenAddress",
          "type": "address"
        },
        {
          "internalType": "address",
          "name": "_stabilityPoolAddress",
          "type": "address"
        }
      ],
      "name": "setAddresses",
      "outputs": [],
      "stateMutability": "nonpayable",
      "type": "function"
    },
    {
      "inputs": [],
      "name": "stabilityPoolAddress",
      "outputs": [
        {
          "internalType": "address",
          "name": "",
          "type": "address"
        }
      ],
      "stateMutability": "view",
      "type": "function"
    },
    {
      "inputs": [],
      "name": "totalLQTYIssued",
      "outputs": [
        {
          "internalType": "uint256",
          "name": "",
          "type": "uint256"
        }
      ],
      "stateMutability": "view",
      "type": "function"
    },
    {
      "inputs": [],
      "name": "unprotectedIssueLQTY",
      "outputs": [
        {
          "internalType": "uint256",
          "name": "",
          "type": "uint256"
        }
      ],
      "stateMutability": "nonpayable",
      "type": "function"
    }
  ],
  "bytecode": "0x60a06040523480156200001157600080fd5b50336000806101000a81548173ffffffffffffffffffffffffffffffffffffffff021916908373ffffffffffffffffffffffffffffffffffffffff1602179055503373ffffffffffffffffffffffffffffffffffffffff16600073ffffffffffffffffffffffffffffffffffffffff167f8be0079c531659141344cd1fd0a4f28419497f9722a3daafe3b4186f6b6457e060405160405180910390a3620000e17f20085188df9f3f371b456f13d837c80169687d3f2d60e936578995a9a4690b8d60001b6200015760201b60201c565b620001157faa074084fba11f20647ef1d64ea0a83f05d1b530c109b9699348de463b052f9260001b6200015760201b60201c565b620001497f03d3e6f14d1f81ebc59da815c0360b3a3d1982de2ee02cdc344b9755216e7e2c60001b6200015760201b60201c565b42608081815250506200015a565b50565b6080516126886200017a6000398061129e528061135252506126886000f3fe608060405234801561001057600080fd5b506004361061012c5760003560e01c80638da5cb5b116100ad578063a20baee611610071578063a20baee614610421578063a3f4df7e1461043f578063b140384b146104c2578063c0de4882146104e0578063ecda10f51461050e5761012c565b80638da5cb5b146103055780638f32d59b1461034f57806390107afe14610371578063940a71bc146103d55780639d5b044d146104035761012c565b806346ad34d9116100f457806346ad34d91461022f5780634e5c99571461024d578063614d2ab61461026b57806361ec893d146102b957806361fc8ab4146102d75761012c565b80630b622ab2146101315780630fc83da31461017b5780631f7af3c314610199578063400c1bec146101e357806343e0a60b14610211575b600080fd5b61013961052c565b604051808273ffffffffffffffffffffffffffffffffffffffff1673ffffffffffffffffffffffffffffffffffffffff16815260200191505060405180910390f35b610183610552565b6040518082815260200191505060405180910390f35b6101a161055e565b604051808273ffffffffffffffffffffffffffffffffffffffff1673ffffffffffffffffffffffffffffffffffffffff16815260200191505060405180910390f35b61020f600480360360208110156101f957600080fd5b8101908080359060200190929190505050610584565b005b610219610587565b6040518082815260200191505060405180910390f35b6102376105f3565b6040518082815260200191505060405180910390f35b6102556108db565b6040518082815260200191505060405180910390f35b6102b76004803603604081101561028157600080fd5b81019080803573ffffffffffffffffffffffffffffffffffffffff169060200190929190803590602001909291905050506108ea565b005b6102c1610ab7565b6040518082815260200191505060405180910390f35b610303600480360360208110156102ed57600080fd5b8101908080359060200190929190505050610abc565b005b61030d610ba4565b604051808273ffffffffffffffffffffffffffffffffffffffff1673ffffffffffffffffffffffffffffffffffffffff16815260200191505060405180910390f35b610357610bcd565b604051808215151515815260200191505060405180910390f35b6103d36004803603604081101561038757600080fd5b81019080803573ffffffffffffffffffffffffffffffffffffffff169060200190929190803573ffffffffffffffffffffffffffffffffffffffff169060200190929190505050610c24565b005b610401600480360360208110156103eb57600080fd5b810190808035906020019092919050505061123c565b005b61040b61123f565b6040518082815260200191505060405180910390f35b61042961124e565b6040518082815260200191505060405180910390f35b61044761125a565b6040518080602001828103825283818151815260200191508051906020019080838360005b8381101561048757808201518184015260208101905061046c565b50505050905090810190601f1680156104b45780820380516001836020036101000a031916815260200191505b509250505060405180910390f35b6104ca611293565b6040518082815260200191505060405180910390f35b61050c600480360360208110156104f657600080fd5b8101908080359060200190929190505050611299565b005b61051661129c565b6040518082815260200191505060405180910390f35b600260009054906101000a900473ffffffffffffffffffffffffffffffffffffffff1681565b670de0b5809a6f939881565b600160009054906101000a900473ffffffffffffffffffffffffffffffffffffffff1681565b50565b6000806105c9670de0b6b3a76400006105bb6105a16112c0565b6a1a784379d99db42000000061154090919063ffffffff16565b6115c690919063ffffffff16565b905060006105e26003548361161090919063ffffffff16565b905081600381905550809250505090565b60006106217f7bc4130bc265cbde6a0a482651ca87793996a69ae0cd112a3d6cc0f3e763460360001b611299565b61064d7fd89422f5dead3b4e0feb91e219a7b5297d595e75a5adc1cd7661e419770bf7e560001b611299565b6106797f989cd764bb2062dd89daddc7d0e99ccfe9e1e992695ac77a936e99afa145038b60001b611299565b61068161165a565b6106ad7f8e4c329baf5c96f7c88840ef8f02c2c237e65d7f523225fa303fb813adcb938360001b611299565b6106d97f3390f0872276841586ec799110668d5689df2529f6d05c9913d529d65b47f1d760001b611299565b600061071a670de0b6b3a764000061070c6106f26112c0565b6a1a784379d99db42000000061154090919063ffffffff16565b6115c690919063ffffffff16565b90506107487f4e33524f3177925920a20cc571bc931da259443ced5cb3b94fc236fc74ceead060001b611299565b6107747fbb4afcd2c2723ba072687e2bc62c6d70abe3cc1a5e41b060ffe185fffbf9688760001b611299565b600061078b6003548361161090919063ffffffff16565b90506107b97fe01dfc1ae1a1b0104fac84af462c8919039e14457c932e70fea9888bb8fdcb5860001b611299565b6107e57fdd23a7e80a71ae630b3f8206397319a9eaada3b6ca7aaf949a00dc0f95246a7d60001b611299565b816003819055506108187f4a577985ee131ddbea7a9f16bf6e7ca8e6011640839243ec8cbd3a8cd27dbab060001b611299565b6108447fac525121879142920b047f14aa12c001d6c1ccc2254cb79da8b5b41b231221da60001b611299565b7f033068abf93bdec23e781d0a3b3f3e688bfa8471c68b629ad68652cdc63a6e49826040518082815260200191505060405180910390a16108a77f463501833da474b0ce006c5628989fb21399e4ed5d1505690f79ad39ee6dcde760001b611299565b6108d37fc400d53f33e59a0c3ddd35227c04fb2b2549e4e948ed179b10100b78024d529d60001b611299565b809250505090565b6a1a784379d99db42000000081565b6109167f793fc12b321718571ede258dd89239b783f0d879fea087f628eacbc6e20074cd60001b611299565b6109427f5ec6194f5b20bb048243f9ee1232b48189dd287097d960ae5e59bba4dcab2a8a60001b611299565b61096e7fb0c14923f2148f309041859808b73a25d27718aaa7461d6231f4530f0fb9446e60001b611299565b61097661165a565b6109a27f39fae731c92616a227fa2f33fa3f69c20cd303019faf658bfbf4e89b89fd528360001b611299565b6109ce7fe845764d885380b2c8deced3b269201c8ad410d060728ce8b65fa712951a4cc660001b611299565b600160009054906101000a900473ffffffffffffffffffffffffffffffffffffffff1673ffffffffffffffffffffffffffffffffffffffff1663a9059cbb83836040518363ffffffff1660e01b8152600401808373ffffffffffffffffffffffffffffffffffffffff1673ffffffffffffffffffffffffffffffffffffffff16815260200182815260200192505050602060405180830381600087803b158015610a7757600080fd5b505af1158015610a8b573d6000803e3d6000fd5b505050506040513d6020811015610aa157600080fd5b8101908080519060200190929190505050505050565b603c81565b600160009054906101000a900473ffffffffffffffffffffffffffffffffffffffff1673ffffffffffffffffffffffffffffffffffffffff1663a9059cbb33836040518363ffffffff1660e01b8152600401808373ffffffffffffffffffffffffffffffffffffffff1673ffffffffffffffffffffffffffffffffffffffff16815260200182815260200192505050602060405180830381600087803b158015610b6557600080fd5b505af1158015610b79573d6000803e3d6000fd5b505050506040513d6020811015610b8f57600080fd5b81019080805190602001909291905050505050565b60008060009054906101000a900473ffffffffffffffffffffffffffffffffffffffff16905090565b60008060009054906101000a900473ffffffffffffffffffffffffffffffffffffffff1673ffffffffffffffffffffffffffffffffffffffff163373ffffffffffffffffffffffffffffffffffffffff1614905090565b610c2c610bcd565b610c9e576040517f08c379a00000000000000000000000000000000000000000000000000000000081526004018080602001828103825260208152602001807f4f776e61626c653a2063616c6c6572206973206e6f7420746865206f776e657281525060200191505060405180910390fd5b610cca7fead90b0268ff88fd1999162aec454edc481185e30873600ebce1d4b3f201244360001b611299565b610cf67f83aa12b14cf26a71ab724472dc66f1c901f001419c2ea67c09fe2e59564b68b060001b611299565b610d227fd0c709a769153ecc374cf6adf910683ac3a7d9f8d4c893f30f01dc14372c335e60001b611299565b610d2b826117de565b610d577f3a536a67c21ba5f72dd8d41431566b746717e467b0611e5cc9950cce05915c4e60001b611299565b610d837f675a8a69e95820d01e78938ba1639f29f573ffdabec963b581d951db1fff63d860001b611299565b610d8c816117de565b610db87f6a6d46f26fe3cc85db09397ca83885061cd34c157daf5477baa801ecc063e48660001b611299565b610de47f95e2a9148e0630fae71520d9a85d4aa35fe0e5819f4c06580cac80a739d9cacb60001b611299565b81600160006101000a81548173ffffffffffffffffffffffffffffffffffffffff021916908373ffffffffffffffffffffffffffffffffffffffff160217905550610e517f3ebb9fa215250f9caa173b692bca409d6c8460627438993806fc1e85d0fb1ec660001b611299565b610e7d7f963120903e3cc5a1baaf59ca8add02fc5d8eeba181c284b30fdbec51e4343f5760001b611299565b80600260006101000a81548173ffffffffffffffffffffffffffffffffffffffff021916908373ffffffffffffffffffffffffffffffffffffffff160217905550610eea7f1787d837bae855d28832b9d37f3282b2326f093db50d364bcbd7dfad7b51e32760001b611299565b610f167fb2033e6bd74ad1d1794bcaa04603edd6f550d82499ae9d0f8445081700ae656460001b611299565b6000600160009054906101000a900473ffffffffffffffffffffffffffffffffffffffff1673ffffffffffffffffffffffffffffffffffffffff166370a08231306040518263ffffffff1660e01b8152600401808273ffffffffffffffffffffffffffffffffffffffff1673ffffffffffffffffffffffffffffffffffffffff16815260200191505060206040518083038186803b158015610fb757600080fd5b505afa158015610fcb573d6000803e3d6000fd5b505050506040513d6020811015610fe157600080fd5b810190808051906020019092919050505090506110207fe928a4b15d01c50284f9960ef900ad5543d2a1b2a7c5a705807e1603c8dd645e60001b611299565b61104c7f9f199fc64542a0b61c8a81a85745c0cb2e5f58c434e09c473c18ccead31c25a660001b611299565b6a1a784379d99db42000000081101561106157fe5b61108d7fc2a692c7627c7e65ef5b8240effd8dfff4171015a956475bc70177a6555b470760001b611299565b6110b97f643b60edce22d18b8edaf9321cb30ac2b1820ba47b3eaba849c34cbe99cb01fb60001b611299565b7fb0c89119a7c10e4c2d02306921ba368ac83d0e4b302337916017485c2791bec583604051808273ffffffffffffffffffffffffffffffffffffffff1673ffffffffffffffffffffffffffffffffffffffff16815260200191505060405180910390a16111487f60faf370d8b49abd74b3a37da9db4ba327c46857ff70ebd57d26387d39edbb3a60001b611299565b6111747faa699480a22ed14285d8cc9c0e40b1402b873f0d77925a5edeae2fc5ec2d87b760001b611299565b7f45c53611bc8ba9e11f4f8173bda9e3faf89c395ddb83f9a55230b156828db31582604051808273ffffffffffffffffffffffffffffffffffffffff1673ffffffffffffffffffffffffffffffffffffffff16815260200191505060405180910390a16112037f5728ff9825886e3365d59d7db5c6f00d5a5fb4a7beb878a4d3b46c579d8d30a160001b611299565b61122f7f16d868fd2b53f82ab322e1dc5f392cca549bf75bfa56c31467b8a5cece6eebcc60001b611299565b611237611b11565b505050565b50565b60006112496112c0565b905090565b670de0b6b3a764000081565b6040518060400160405280601181526020017f436f6d6d756e69747949737375616e636500000000000000000000000000000081525081565b60035481565b50565b7f000000000000000000000000000000000000000000000000000000000000000081565b60006112ee7f449329990895afd35d6f515671b68a812cd4832e4920b84917cfff23677e2ed660001b611299565b61131a7f82ae3dca2b03eb6f60b3dbb850f27727311ccebd972ad57aa485ffa28822a11d60001b611299565b6113467fdb4011cd18f9ccdef9085033023909540371bf5b4c094aafff7c38cee04184a460001b611299565b600061138e603c6113807f00000000000000000000000000000000000000000000000000000000000000004261161090919063ffffffff16565b6115c690919063ffffffff16565b90506113bc7fd9b15785eb44ec32b8f6d7074478f385fadf0a847c71d954036d56de72ea54ac60001b611299565b6113e87fdcf15320c5b313d53380bae962d6cd45fcf37b1677f932cf6f1d9a85dcc0fa2360001b611299565b60006113fc670de0b5809a6f939883611bd0565b905061142a7f46f97b8335d7cc3078b630d5994eb749b6c0af7e5fd87c1fe7e937ceb35c85db60001b611299565b6114567fc70a8643d06fb7e546c3acab37ab61d3e74fae6299f62de4c36f024c576e284c60001b611299565b600061147382670de0b6b3a764000061161090919063ffffffff16565b90506114a17f42199353b95944bb7935e8931788ec15ff66e0b2626cecf5d531114b3954e82460001b611299565b6114cd7f46863b3a810fbd58be896d4bfabe7e4983aa4a4de7c57cd463b59516f252a13860001b611299565b670de0b6b3a76400008111156114df57fe5b61150b7f42861e5888c773048c24818a25c0688f265a6b898915b5083430c21b0c35ca4260001b611299565b6115377f6be3822f849532c126108e66b09d124644579996df264a346c37d303d86531fd60001b611299565b80935050505090565b60008083141561155357600090506115c0565b600082840290508284828161156457fe5b04146115bb576040517f08c379a000000000000000000000000000000000000000000000000000000000815260040180806020018281038252602181526020018061260f6021913960400191505060405180910390fd5b809150505b92915050565b600061160883836040518060400160405280601a81526020017f536166654d6174683a206469766973696f6e206279207a65726f0000000000008152506122c0565b905092915050565b600061165283836040518060400160405280601e81526020017f536166654d6174683a207375627472616374696f6e206f766572666c6f770000815250612386565b905092915050565b6116867f3a8248f9867f9ccd72af5cf03888c16172c6092436a094d0ceaeffb8113de17160001b611299565b6116b27f1f2cfe38f03fbc32e66811c56d35917d18ba6ec8ee4743d3a1232eb30415bb8460001b611299565b6116de7f09144646bc30a2e044997f91494a351a81526ed92f90c80be3e3609dcb1977e060001b611299565b61170a7fd4e2678e7cfa72cc918df91a53e26a2a7c3bc0eb9cf518e70595010f29a3c45c60001b611299565b600260009054906101000a900473ffffffffffffffffffffffffffffffffffffffff1673ffffffffffffffffffffffffffffffffffffffff163373ffffffffffffffffffffffffffffffffffffffff16146117b0576040517f08c379a00000000000000000000000000000000000000000000000000000000081526004018080602001828103825260238152602001806126306023913960400191505060405180910390fd5b6117dc7f45836328a0491681fa53a09133cdf86a205498a4f9b0ab4ab687f853ad19066d60001b611299565b565b61180a7f35bc9e5e61c1438a006153cf69ffd6105766a3055440d22f6c8ce219146d68af60001b61123c565b6118367fe66c045f45b868efda896f2af22ed71637a4e9e8d13a2b1962badf362ba3eeb960001b61123c565b6118627faaa4b517f253b4fa37cb2875514a22e04e7d5828c244c7095a27e85408ccd12c60001b61123c565b61188e7f1221da0bd0f16fcbee175d4dae7d6b598e327e79264e77ced4c93a6a0721871b60001b61123c565b600073ffffffffffffffffffffffffffffffffffffffff168173ffffffffffffffffffffffffffffffffffffffff161415611931576040517f08c379a000000000000000000000000000000000000000000000000000000000815260040180806020018281038252601e8152602001807f4163636f756e742063616e6e6f74206265207a65726f2061646472657373000081525060200191505060405180910390fd5b61195d7f09f0dc62d572b9e8dd242a1b7e25c3c5de1610d6c480bec35912dd5840f55fec60001b61123c565b6119897fbe74447fdea037b64141768df2430eb2b7113bef949c88d88dcdc549ba88703360001b61123c565b6119b57f04e66872d3f4c69728dfe545a06401e1b17e0f9dd5e1d43290514ae4fd92783060001b61123c565b60006119e37f60826eea4af75abd2223d108cb037485a60c485e699a12a42cac24982b89800660001b61123c565b813b9050611a137f7acec79ba6fd0be7bb4b2bfca56ca8eb3d8333d64e828971ccb7647facc3806360001b61123c565b611a3f7f0c7e0405db301404f844860b9fe6e14e956a97134ff8695c88184f1c957d6e0860001b61123c565b611a6b7f1c5a94c5a5d640e17d84bedbf9409c7f8afe563c4b1fceef7bced5961764ee0f60001b61123c565b60008111611ae1576040517f08c379a00000000000000000000000000000000000000000000000000000000081526004018080602001828103825260208152602001807f4163636f756e7420636f64652073697a652063616e6e6f74206265207a65726f81525060200191505060405180910390fd5b611b0d7f1023f03b6261b194c29dee3596b0d25a3be14b60910a1d249d0177db54f54c4a60001b61123c565b5050565b600073ffffffffffffffffffffffffffffffffffffffff166000809054906101000a900473ffffffffffffffffffffffffffffffffffffffff1673ffffffffffffffffffffffffffffffffffffffff167f8be0079c531659141344cd1fd0a4f28419497f9722a3daafe3b4186f6b6457e060405160405180910390a360008060006101000a81548173ffffffffffffffffffffffffffffffffffffffff021916908373ffffffffffffffffffffffffffffffffffffffff160217905550565b6000611bfe7fb3241079ceee75efb4f3f892705b88b32961790b15153e6c1da6dec7c1d7915660001b612446565b611c2a7ff79a741bf782d3218f36835506800f1d3ab587d28812c2002c2387e64a8017e460001b612446565b611c567f7ddd83c2b2f0df7ca81d0b50c6efd9c6a7dd0140a5ab675453f6bf365967695360001b612446565b631f540500821115611cc657611c8e7ff6eb246b3774442d014657cf070f008c8ff565009b3f833a9c3cd107ef4bdbb360001b612446565b611cba7fe52b09f0e3388775a21a09a651f0c711b795425edcb4c3f5657fb1b63ca169b360001b612446565b631f5405009150611cf3565b611cf27f6c5e9a1fc004355d704a3b38d2cc20774f859178120fc329227fbeb73ced99f060001b612446565b5b611d1f7f2f33c33b65ef658ebe3922af023dd2b7bf51d69e770388dd13501c29de2cc8b460001b612446565b611d4b7f3920ed5fcecd3f1de58dc9899fccce121ce931a67e880b6aa84bdf6458d5f3cc60001b612446565b6000821415611dbc57611d807fd2538caefe4e6287f0399f74982a0d9471364e43bb774a2b6efee788003ef26660001b612446565b611dac7fac2427b4de7e5234350bedfe284dc2c61a7fa863aade085a441d976b2ebf3cf860001b612446565b670de0b6b3a764000090506122ba565b611de87fa4d5930a6098ca08980bc9df31776c6467441cec824b242109dca0b2dc9a6b9160001b612446565b611e147f1acbfad87608a2dab877be7fc3cc8e0ec2d05f33cf7f9a66f447614bb1fde37060001b612446565b611e407fe728b77a16a778765f23b206dbfaab5a6224e9f728e2f9d764fb165d16a58f7260001b612446565b6000670de0b6b3a76400009050611e797f43405e64b7c3de3438be664a93bbd8f4bad834b9bc9c7415daf18e3dfe3f409660001b612446565b611ea57f9534842aeeb1cf59dd39e3b30c0f1c5140d0642126190341ae2d7939bc88cc8460001b612446565b6000849050611ed67ff603312008e375e05a1d2ead4faaca56d2678f324c61280cdcf071a1599c0e4560001b612446565b611f027f84a9fea4a6241118b5d9fbe6735c8b555f6a5d659b361694a7a4b93913c7351160001b612446565b6000849050611f337fedf6f0a50821d016bd7d6db935672c0a9215716cbd5dfd8dcb0279ce5aeb5ffd60001b612446565b611f5f7f06d87a255fa445c9f34171894d637a43fc7fbbf3475c03b788aa20e96740819060001b612446565b5b600181111561225257611f957f5885afa097f1c3f034d65d5f0f76a2499827f3971c2b10b842246451af5150a860001b612446565b611fc17feeddcf126d4a3122c2999f1cd892690a9b17836f37d52a797561426e1ecf936d60001b612446565b600060028281611fcd57fe5b0614156120d7576120007febe7a217f65dd502729d70ba9fc7d0c2eee42f405de224fa6aa2886494e56d4a60001b612446565b61202c7f76e3afe2526aab6a69c814ba4624ccc7151c70d4b0100e3cd060431872804e3260001b612446565b6120587ffcc40f1f1f2b130ed3590df449024506cb60fd47cdcddd3bc77164dad4e7e04360001b612446565b6120628283612449565b91506120907f2516dc9ea3d3c34abeb9fff701da707c1348eb974c06bda2bf20251d983b1bd160001b612446565b6120bc7fecdca9354abf0a3ec079925ff7fd21f9c212059816a72df40605d63b72cdc28b60001b612446565b6120d06002826115c690919063ffffffff16565b905061224d565b6121037f54bc67050f05841ec404a70010b4e7f410b299877a7cc2e8f7cc694125c8649e60001b612446565b61212f7f6a855a0cf806bf54f56b0894a0ff3dc976b081f5b466404a2a4ddf09d47746b660001b612446565b61215b7f87bfead1e6731c96849fa2b26a9b6b9a8c346d29c8f0c057af85e4ea71264f4960001b612446565b6121658284612449565b92506121937fde86d1598f24ecf47f87e21b2ca275b54148dd414bcab48bc271a9e24ab9608460001b612446565b6121bf7fc6f4503566e9c22cb0c02855c84a6cd1fcb4c12d2f17a1038bd93d82b3be253e60001b612446565b6121c98283612449565b91506121f77f6364d2cd8ec4e410fe5284c11b0c31e6e9bfb0546849b96c3ea2e4ff30255e5460001b612446565b6122237fdbe99c798e1562891ab67d7f2eb24bd2c2d48c035a19b1e7ef65545bded129c960001b612446565b61224a600261223c60018461161090919063ffffffff16565b6115c690919063ffffffff16565b90505b611f60565b61227e7fafcfe5e25fce3fc8a5893b7cc3fe5906e549c1a8528644123951fc9e1610433960001b612446565b6122aa7faa5cde25a5892d786efc1261d1a973b2731b7877c8bd07382c35a568d3928f6460001b612446565b6122b48284612449565b93505050505b92915050565b6000808311829061236c576040517f08c379a00000000000000000000000000000000000000000000000000000000081526004018080602001828103825283818151815260200191508051906020019080838360005b83811015612331578082015181840152602081019050612316565b50505050905090810190601f16801561235e5780820380516001836020036101000a031916815260200191505b509250505060405180910390fd5b50600083858161237857fe5b049050809150509392505050565b6000838311158290612433576040517f08c379a00000000000000000000000000000000000000000000000000000000081526004018080602001828103825283818151815260200191508051906020019080838360005b838110156123f85780820151818401526020810190506123dd565b50505050905090810190601f1680156124255780820380516001836020036101000a031916815260200191505b509250505060405180910390fd5b5060008385039050809150509392505050565b50565b60006124777fcf2c8da14ad1a8f90127683c91376a491821becc1af092bb9f208bc555bc100560001b612446565b6124a37fda80dfeb44c418549c5582ab2c70318bf7b0cb14201220f6ded1541ad2fc893b60001b612446565b6124cf7fb26e00edd5ffe7f2468b9771f5a971168a4ed8a3a0d06918af1c1d6d4b76feeb60001b612446565b60006124e4838561154090919063ffffffff16565b90506125127fcae6721ad5a0e4f2c279a6248a026a49cd7e26bc6970453d11e26959664207eb60001b612446565b61253e7f24fa38eeaa313d7921ecb164c9e2678792c268552c5a7925102974a0b23f2a0360001b612446565b61257d670de0b6b3a764000061256f6002670de0b6b3a76400008161255f57fe5b048461258690919063ffffffff16565b6115c690919063ffffffff16565b91505092915050565b600080828401905083811015612604576040517f08c379a000000000000000000000000000000000000000000000000000000000815260040180806020018281038252601b8152602001807f536166654d6174683a206164646974696f6e206f766572666c6f77000000000081525060200191505060405180910390fd5b809150509291505056fe536166654d6174683a206d756c7469706c69636174696f6e206f766572666c6f77436f6d6d756e69747949737375616e63653a2063616c6c6572206973206e6f74205350a26469706673582212205e61b2bebccb22cf85fd243acdada8478bd7505ecdb0d562d962856ad120f11b64736f6c634300060b0033",
  "linkReferences": {},
  "deployedLinkReferences": {}
}