{
  "_format": "hh-sol-artifact-1",
  "contractName": "CommunityIssuance",
  "sourceName": "contracts/LQTY/CommunityIssuance.sol",
  "abi": [
    {
      "inputs": [],
      "stateMutability": "nonpayable",
      "type": "constructor"
    },
    {
      "anonymous": false,
      "inputs": [
        {
          "indexed": false,
          "internalType": "address",
          "name": "_lqtyTokenAddress",
          "type": "address"
        }
      ],
      "name": "LQTYTokenAddressSet",
      "type": "event"
    },
    {
      "anonymous": false,
      "inputs": [
        {
          "indexed": true,
          "internalType": "address",
          "name": "previousOwner",
          "type": "address"
        },
        {
          "indexed": true,
          "internalType": "address",
          "name": "newOwner",
          "type": "address"
        }
      ],
      "name": "OwnershipTransferred",
      "type": "event"
    },
    {
      "anonymous": false,
      "inputs": [
        {
          "indexed": false,
          "internalType": "address",
          "name": "_stabilityPoolAddress",
          "type": "address"
        }
      ],
      "name": "StabilityPoolAddressSet",
      "type": "event"
    },
    {
      "anonymous": false,
      "inputs": [
        {
          "indexed": false,
          "internalType": "uint256",
          "name": "_totalLQTYIssued",
          "type": "uint256"
        }
      ],
      "name": "TotalLQTYIssuedUpdated",
      "type": "event"
    },
    {
      "inputs": [],
      "name": "DECIMAL_PRECISION",
      "outputs": [
        {
          "internalType": "uint256",
          "name": "",
          "type": "uint256"
        }
      ],
      "stateMutability": "view",
      "type": "function"
    },
    {
      "inputs": [],
      "name": "ISSUANCE_FACTOR",
      "outputs": [
        {
          "internalType": "uint256",
          "name": "",
          "type": "uint256"
        }
      ],
      "stateMutability": "view",
      "type": "function"
    },
    {
      "inputs": [],
      "name": "LQTYSupplyCap",
      "outputs": [
        {
          "internalType": "uint256",
          "name": "",
          "type": "uint256"
        }
      ],
      "stateMutability": "view",
      "type": "function"
    },
    {
      "inputs": [],
      "name": "NAME",
      "outputs": [
        {
          "internalType": "string",
          "name": "",
          "type": "string"
        }
      ],
      "stateMutability": "view",
      "type": "function"
    },
    {
      "inputs": [],
      "name": "SECONDS_IN_ONE_MINUTE",
      "outputs": [
        {
          "internalType": "uint256",
          "name": "",
          "type": "uint256"
        }
      ],
      "stateMutability": "view",
      "type": "function"
    },
    {
      "inputs": [
        {
          "internalType": "bytes32",
          "name": "c__0x6e228ede",
          "type": "bytes32"
        }
      ],
      "name": "c_0x6e228ede",
      "outputs": [],
      "stateMutability": "pure",
      "type": "function"
    },
    {
      "inputs": [
        {
          "internalType": "bytes32",
          "name": "c__0xafd32059",
          "type": "bytes32"
        }
      ],
      "name": "c_0xafd32059",
      "outputs": [],
      "stateMutability": "pure",
      "type": "function"
    },
    {
      "inputs": [
        {
          "internalType": "bytes32",
          "name": "c__0xe624bb7f",
          "type": "bytes32"
        }
      ],
      "name": "c_0xe624bb7f",
      "outputs": [],
      "stateMutability": "pure",
      "type": "function"
    },
    {
      "inputs": [],
      "name": "deploymentTime",
      "outputs": [
        {
          "internalType": "uint256",
          "name": "",
          "type": "uint256"
        }
      ],
      "stateMutability": "view",
      "type": "function"
    },
    {
      "inputs": [],
      "name": "isOwner",
      "outputs": [
        {
          "internalType": "bool",
          "name": "",
          "type": "bool"
        }
      ],
      "stateMutability": "view",
      "type": "function"
    },
    {
      "inputs": [],
      "name": "issueLQTY",
      "outputs": [
        {
          "internalType": "uint256",
          "name": "",
          "type": "uint256"
        }
      ],
      "stateMutability": "nonpayable",
      "type": "function"
    },
    {
      "inputs": [],
      "name": "lqtyToken",
      "outputs": [
        {
          "internalType": "contract ILQTYToken",
          "name": "",
          "type": "address"
        }
      ],
      "stateMutability": "view",
      "type": "function"
    },
    {
      "inputs": [],
      "name": "owner",
      "outputs": [
        {
          "internalType": "address",
          "name": "",
          "type": "address"
        }
      ],
      "stateMutability": "view",
      "type": "function"
    },
    {
      "inputs": [
        {
          "internalType": "address",
          "name": "_account",
          "type": "address"
        },
        {
          "internalType": "uint256",
          "name": "_LQTYamount",
          "type": "uint256"
        }
      ],
      "name": "sendLQTY",
      "outputs": [],
      "stateMutability": "nonpayable",
      "type": "function"
    },
    {
      "inputs": [
        {
          "internalType": "address",
          "name": "_lqtyTokenAddress",
          "type": "address"
        },
        {
          "internalType": "address",
          "name": "_stabilityPoolAddress",
          "type": "address"
        }
      ],
      "name": "setAddresses",
      "outputs": [],
      "stateMutability": "nonpayable",
      "type": "function"
    },
    {
      "inputs": [],
      "name": "stabilityPoolAddress",
      "outputs": [
        {
          "internalType": "address",
          "name": "",
          "type": "address"
        }
      ],
      "stateMutability": "view",
      "type": "function"
    },
    {
      "inputs": [],
      "name": "totalLQTYIssued",
      "outputs": [
        {
          "internalType": "uint256",
          "name": "",
          "type": "uint256"
        }
      ],
      "stateMutability": "view",
      "type": "function"
    }
  ],
  "bytecode": "0x60a06040523480156200001157600080fd5b50336000806101000a81548173ffffffffffffffffffffffffffffffffffffffff021916908373ffffffffffffffffffffffffffffffffffffffff1602179055503373ffffffffffffffffffffffffffffffffffffffff16600073ffffffffffffffffffffffffffffffffffffffff167f8be0079c531659141344cd1fd0a4f28419497f9722a3daafe3b4186f6b6457e060405160405180910390a3620000e17f20085188df9f3f371b456f13d837c80169687d3f2d60e936578995a9a4690b8d60001b6200015760201b60201c565b620001157faa074084fba11f20647ef1d64ea0a83f05d1b530c109b9699348de463b052f9260001b6200015760201b60201c565b620001497f03d3e6f14d1f81ebc59da815c0360b3a3d1982de2ee02cdc344b9755216e7e2c60001b6200015760201b60201c565b42608081815250506200015a565b50565b60805161247a6200017a6000398061109052806112c8525061247a6000f3fe608060405234801561001057600080fd5b50600436106100eb5760003560e01c80638da5cb5b116100925780638da5cb5b146102785780638f32d59b146102c257806390107afe146102e4578063940a71bc14610348578063a20baee614610376578063a3f4df7e14610394578063b140384b14610417578063c0de488214610435578063ecda10f514610463576100eb565b80630b622ab2146100f05780630fc83da31461013a5780631f7af3c314610158578063400c1bec146101a257806346ad34d9146101d05780634e5c9957146101ee578063614d2ab61461020c57806361ec893d1461025a575b600080fd5b6100f8610481565b604051808273ffffffffffffffffffffffffffffffffffffffff1673ffffffffffffffffffffffffffffffffffffffff16815260200191505060405180910390f35b6101426104a7565b6040518082815260200191505060405180910390f35b6101606104b3565b604051808273ffffffffffffffffffffffffffffffffffffffff1673ffffffffffffffffffffffffffffffffffffffff16815260200191505060405180910390f35b6101ce600480360360208110156101b857600080fd5b81019080803590602001909291905050506104d9565b005b6101d86104dc565b6040518082815260200191505060405180910390f35b6101f66107c4565b6040518082815260200191505060405180910390f35b6102586004803603604081101561022257600080fd5b81019080803573ffffffffffffffffffffffffffffffffffffffff169060200190929190803590602001909291905050506107d3565b005b6102626109a0565b6040518082815260200191505060405180910390f35b6102806109a5565b604051808273ffffffffffffffffffffffffffffffffffffffff1673ffffffffffffffffffffffffffffffffffffffff16815260200191505060405180910390f35b6102ca6109ce565b604051808215151515815260200191505060405180910390f35b610346600480360360408110156102fa57600080fd5b81019080803573ffffffffffffffffffffffffffffffffffffffff169060200190929190803573ffffffffffffffffffffffffffffffffffffffff169060200190929190505050610a25565b005b6103746004803603602081101561035e57600080fd5b810190808035906020019092919050505061103d565b005b61037e611040565b6040518082815260200191505060405180910390f35b61039c61104c565b6040518080602001828103825283818151815260200191508051906020019080838360005b838110156103dc5780820151818401526020810190506103c1565b50505050905090810190601f1680156104095780820380516001836020036101000a031916815260200191505b509250505060405180910390f35b61041f611085565b6040518082815260200191505060405180910390f35b6104616004803603602081101561044b57600080fd5b810190808035906020019092919050505061108b565b005b61046b61108e565b6040518082815260200191505060405180910390f35b600260009054906101000a900473ffffffffffffffffffffffffffffffffffffffff1681565b670de0b5809a6f939881565b600160009054906101000a900473ffffffffffffffffffffffffffffffffffffffff1681565b50565b600061050a7f7bc4130bc265cbde6a0a482651ca87793996a69ae0cd112a3d6cc0f3e763460360001b61108b565b6105367fd89422f5dead3b4e0feb91e219a7b5297d595e75a5adc1cd7661e419770bf7e560001b61108b565b6105627f989cd764bb2062dd89daddc7d0e99ccfe9e1e992695ac77a936e99afa145038b60001b61108b565b61056a6110b2565b6105967f8e4c329baf5c96f7c88840ef8f02c2c237e65d7f523225fa303fb813adcb938360001b61108b565b6105c27f3390f0872276841586ec799110668d5689df2529f6d05c9913d529d65b47f1d760001b61108b565b6000610603670de0b6b3a76400006105f56105db611236565b6a1a784379d99db4200000006114b690919063ffffffff16565b61153c90919063ffffffff16565b90506106317f4e33524f3177925920a20cc571bc931da259443ced5cb3b94fc236fc74ceead060001b61108b565b61065d7fbb4afcd2c2723ba072687e2bc62c6d70abe3cc1a5e41b060ffe185fffbf9688760001b61108b565b60006106746003548361158690919063ffffffff16565b90506106a27fe01dfc1ae1a1b0104fac84af462c8919039e14457c932e70fea9888bb8fdcb5860001b61108b565b6106ce7fdd23a7e80a71ae630b3f8206397319a9eaada3b6ca7aaf949a00dc0f95246a7d60001b61108b565b816003819055506107017f4a577985ee131ddbea7a9f16bf6e7ca8e6011640839243ec8cbd3a8cd27dbab060001b61108b565b61072d7fac525121879142920b047f14aa12c001d6c1ccc2254cb79da8b5b41b231221da60001b61108b565b7f033068abf93bdec23e781d0a3b3f3e688bfa8471c68b629ad68652cdc63a6e49826040518082815260200191505060405180910390a16107907f463501833da474b0ce006c5628989fb21399e4ed5d1505690f79ad39ee6dcde760001b61108b565b6107bc7fc400d53f33e59a0c3ddd35227c04fb2b2549e4e948ed179b10100b78024d529d60001b61108b565b809250505090565b6a1a784379d99db42000000081565b6107ff7f793fc12b321718571ede258dd89239b783f0d879fea087f628eacbc6e20074cd60001b61108b565b61082b7f5ec6194f5b20bb048243f9ee1232b48189dd287097d960ae5e59bba4dcab2a8a60001b61108b565b6108577fb0c14923f2148f309041859808b73a25d27718aaa7461d6231f4530f0fb9446e60001b61108b565b61085f6110b2565b61088b7f39fae731c92616a227fa2f33fa3f69c20cd303019faf658bfbf4e89b89fd528360001b61108b565b6108b77fe845764d885380b2c8deced3b269201c8ad410d060728ce8b65fa712951a4cc660001b61108b565b600160009054906101000a900473ffffffffffffffffffffffffffffffffffffffff1673ffffffffffffffffffffffffffffffffffffffff1663a9059cbb83836040518363ffffffff1660e01b8152600401808373ffffffffffffffffffffffffffffffffffffffff1673ffffffffffffffffffffffffffffffffffffffff16815260200182815260200192505050602060405180830381600087803b15801561096057600080fd5b505af1158015610974573d6000803e3d6000fd5b505050506040513d602081101561098a57600080fd5b8101908080519060200190929190505050505050565b603c81565b60008060009054906101000a900473ffffffffffffffffffffffffffffffffffffffff16905090565b60008060009054906101000a900473ffffffffffffffffffffffffffffffffffffffff1673ffffffffffffffffffffffffffffffffffffffff163373ffffffffffffffffffffffffffffffffffffffff1614905090565b610a2d6109ce565b610a9f576040517f08c379a00000000000000000000000000000000000000000000000000000000081526004018080602001828103825260208152602001807f4f776e61626c653a2063616c6c6572206973206e6f7420746865206f776e657281525060200191505060405180910390fd5b610acb7fead90b0268ff88fd1999162aec454edc481185e30873600ebce1d4b3f201244360001b61108b565b610af77f83aa12b14cf26a71ab724472dc66f1c901f001419c2ea67c09fe2e59564b68b060001b61108b565b610b237fd0c709a769153ecc374cf6adf910683ac3a7d9f8d4c893f30f01dc14372c335e60001b61108b565b610b2c826115d0565b610b587f3a536a67c21ba5f72dd8d41431566b746717e467b0611e5cc9950cce05915c4e60001b61108b565b610b847f675a8a69e95820d01e78938ba1639f29f573ffdabec963b581d951db1fff63d860001b61108b565b610b8d816115d0565b610bb97f6a6d46f26fe3cc85db09397ca83885061cd34c157daf5477baa801ecc063e48660001b61108b565b610be57f95e2a9148e0630fae71520d9a85d4aa35fe0e5819f4c06580cac80a739d9cacb60001b61108b565b81600160006101000a81548173ffffffffffffffffffffffffffffffffffffffff021916908373ffffffffffffffffffffffffffffffffffffffff160217905550610c527f3ebb9fa215250f9caa173b692bca409d6c8460627438993806fc1e85d0fb1ec660001b61108b565b610c7e7f963120903e3cc5a1baaf59ca8add02fc5d8eeba181c284b30fdbec51e4343f5760001b61108b565b80600260006101000a81548173ffffffffffffffffffffffffffffffffffffffff021916908373ffffffffffffffffffffffffffffffffffffffff160217905550610ceb7f1787d837bae855d28832b9d37f3282b2326f093db50d364bcbd7dfad7b51e32760001b61108b565b610d177fb2033e6bd74ad1d1794bcaa04603edd6f550d82499ae9d0f8445081700ae656460001b61108b565b6000600160009054906101000a900473ffffffffffffffffffffffffffffffffffffffff1673ffffffffffffffffffffffffffffffffffffffff166370a08231306040518263ffffffff1660e01b8152600401808273ffffffffffffffffffffffffffffffffffffffff1673ffffffffffffffffffffffffffffffffffffffff16815260200191505060206040518083038186803b158015610db857600080fd5b505afa158015610dcc573d6000803e3d6000fd5b505050506040513d6020811015610de257600080fd5b81019080805190602001909291905050509050610e217fe928a4b15d01c50284f9960ef900ad5543d2a1b2a7c5a705807e1603c8dd645e60001b61108b565b610e4d7f9f199fc64542a0b61c8a81a85745c0cb2e5f58c434e09c473c18ccead31c25a660001b61108b565b6a1a784379d99db420000000811015610e6257fe5b610e8e7fc2a692c7627c7e65ef5b8240effd8dfff4171015a956475bc70177a6555b470760001b61108b565b610eba7f643b60edce22d18b8edaf9321cb30ac2b1820ba47b3eaba849c34cbe99cb01fb60001b61108b565b7fb0c89119a7c10e4c2d02306921ba368ac83d0e4b302337916017485c2791bec583604051808273ffffffffffffffffffffffffffffffffffffffff1673ffffffffffffffffffffffffffffffffffffffff16815260200191505060405180910390a1610f497f60faf370d8b49abd74b3a37da9db4ba327c46857ff70ebd57d26387d39edbb3a60001b61108b565b610f757faa699480a22ed14285d8cc9c0e40b1402b873f0d77925a5edeae2fc5ec2d87b760001b61108b565b7f45c53611bc8ba9e11f4f8173bda9e3faf89c395ddb83f9a55230b156828db31582604051808273ffffffffffffffffffffffffffffffffffffffff1673ffffffffffffffffffffffffffffffffffffffff16815260200191505060405180910390a16110047f5728ff9825886e3365d59d7db5c6f00d5a5fb4a7beb878a4d3b46c579d8d30a160001b61108b565b6110307f16d868fd2b53f82ab322e1dc5f392cca549bf75bfa56c31467b8a5cece6eebcc60001b61108b565b611038611903565b505050565b50565b670de0b6b3a764000081565b6040518060400160405280601181526020017f436f6d6d756e69747949737375616e636500000000000000000000000000000081525081565b60035481565b50565b7f000000000000000000000000000000000000000000000000000000000000000081565b6110de7f3a8248f9867f9ccd72af5cf03888c16172c6092436a094d0ceaeffb8113de17160001b61108b565b61110a7f1f2cfe38f03fbc32e66811c56d35917d18ba6ec8ee4743d3a1232eb30415bb8460001b61108b565b6111367f09144646bc30a2e044997f91494a351a81526ed92f90c80be3e3609dcb1977e060001b61108b565b6111627fd4e2678e7cfa72cc918df91a53e26a2a7c3bc0eb9cf518e70595010f29a3c45c60001b61108b565b600260009054906101000a900473ffffffffffffffffffffffffffffffffffffffff1673ffffffffffffffffffffffffffffffffffffffff163373ffffffffffffffffffffffffffffffffffffffff1614611208576040517f08c379a00000000000000000000000000000000000000000000000000000000081526004018080602001828103825260238152602001806124226023913960400191505060405180910390fd5b6112347f45836328a0491681fa53a09133cdf86a205498a4f9b0ab4ab687f853ad19066d60001b61108b565b565b60006112647f449329990895afd35d6f515671b68a812cd4832e4920b84917cfff23677e2ed660001b61108b565b6112907f82ae3dca2b03eb6f60b3dbb850f27727311ccebd972ad57aa485ffa28822a11d60001b61108b565b6112bc7fdb4011cd18f9ccdef9085033023909540371bf5b4c094aafff7c38cee04184a460001b61108b565b6000611304603c6112f67f00000000000000000000000000000000000000000000000000000000000000004261158690919063ffffffff16565b61153c90919063ffffffff16565b90506113327fd9b15785eb44ec32b8f6d7074478f385fadf0a847c71d954036d56de72ea54ac60001b61108b565b61135e7fdcf15320c5b313d53380bae962d6cd45fcf37b1677f932cf6f1d9a85dcc0fa2360001b61108b565b6000611372670de0b5809a6f9398836119c2565b90506113a07f46f97b8335d7cc3078b630d5994eb749b6c0af7e5fd87c1fe7e937ceb35c85db60001b61108b565b6113cc7fc70a8643d06fb7e546c3acab37ab61d3e74fae6299f62de4c36f024c576e284c60001b61108b565b60006113e982670de0b6b3a764000061158690919063ffffffff16565b90506114177f42199353b95944bb7935e8931788ec15ff66e0b2626cecf5d531114b3954e82460001b61108b565b6114437f46863b3a810fbd58be896d4bfabe7e4983aa4a4de7c57cd463b59516f252a13860001b61108b565b670de0b6b3a764000081111561145557fe5b6114817f42861e5888c773048c24818a25c0688f265a6b898915b5083430c21b0c35ca4260001b61108b565b6114ad7f6be3822f849532c126108e66b09d124644579996df264a346c37d303d86531fd60001b61108b565b80935050505090565b6000808314156114c95760009050611536565b60008284029050828482816114da57fe5b0414611531576040517f08c379a00000000000000000000000000000000000000000000000000000000081526004018080602001828103825260218152602001806124016021913960400191505060405180910390fd5b809150505b92915050565b600061157e83836040518060400160405280601a81526020017f536166654d6174683a206469766973696f6e206279207a65726f0000000000008152506120b2565b905092915050565b60006115c883836040518060400160405280601e81526020017f536166654d6174683a207375627472616374696f6e206f766572666c6f770000815250612178565b905092915050565b6115fc7f35bc9e5e61c1438a006153cf69ffd6105766a3055440d22f6c8ce219146d68af60001b61103d565b6116287fe66c045f45b868efda896f2af22ed71637a4e9e8d13a2b1962badf362ba3eeb960001b61103d565b6116547faaa4b517f253b4fa37cb2875514a22e04e7d5828c244c7095a27e85408ccd12c60001b61103d565b6116807f1221da0bd0f16fcbee175d4dae7d6b598e327e79264e77ced4c93a6a0721871b60001b61103d565b600073ffffffffffffffffffffffffffffffffffffffff168173ffffffffffffffffffffffffffffffffffffffff161415611723576040517f08c379a000000000000000000000000000000000000000000000000000000000815260040180806020018281038252601e8152602001807f4163636f756e742063616e6e6f74206265207a65726f2061646472657373000081525060200191505060405180910390fd5b61174f7f09f0dc62d572b9e8dd242a1b7e25c3c5de1610d6c480bec35912dd5840f55fec60001b61103d565b61177b7fbe74447fdea037b64141768df2430eb2b7113bef949c88d88dcdc549ba88703360001b61103d565b6117a77f04e66872d3f4c69728dfe545a06401e1b17e0f9dd5e1d43290514ae4fd92783060001b61103d565b60006117d57f60826eea4af75abd2223d108cb037485a60c485e699a12a42cac24982b89800660001b61103d565b813b90506118057f7acec79ba6fd0be7bb4b2bfca56ca8eb3d8333d64e828971ccb7647facc3806360001b61103d565b6118317f0c7e0405db301404f844860b9fe6e14e956a97134ff8695c88184f1c957d6e0860001b61103d565b61185d7f1c5a94c5a5d640e17d84bedbf9409c7f8afe563c4b1fceef7bced5961764ee0f60001b61103d565b600081116118d3576040517f08c379a00000000000000000000000000000000000000000000000000000000081526004018080602001828103825260208152602001807f4163636f756e7420636f64652073697a652063616e6e6f74206265207a65726f81525060200191505060405180910390fd5b6118ff7f1023f03b6261b194c29dee3596b0d25a3be14b60910a1d249d0177db54f54c4a60001b61103d565b5050565b600073ffffffffffffffffffffffffffffffffffffffff166000809054906101000a900473ffffffffffffffffffffffffffffffffffffffff1673ffffffffffffffffffffffffffffffffffffffff167f8be0079c531659141344cd1fd0a4f28419497f9722a3daafe3b4186f6b6457e060405160405180910390a360008060006101000a81548173ffffffffffffffffffffffffffffffffffffffff021916908373ffffffffffffffffffffffffffffffffffffffff160217905550565b60006119f07fb3241079ceee75efb4f3f892705b88b32961790b15153e6c1da6dec7c1d7915660001b612238565b611a1c7ff79a741bf782d3218f36835506800f1d3ab587d28812c2002c2387e64a8017e460001b612238565b611a487f7ddd83c2b2f0df7ca81d0b50c6efd9c6a7dd0140a5ab675453f6bf365967695360001b612238565b631f540500821115611ab857611a807ff6eb246b3774442d014657cf070f008c8ff565009b3f833a9c3cd107ef4bdbb360001b612238565b611aac7fe52b09f0e3388775a21a09a651f0c711b795425edcb4c3f5657fb1b63ca169b360001b612238565b631f5405009150611ae5565b611ae47f6c5e9a1fc004355d704a3b38d2cc20774f859178120fc329227fbeb73ced99f060001b612238565b5b611b117f2f33c33b65ef658ebe3922af023dd2b7bf51d69e770388dd13501c29de2cc8b460001b612238565b611b3d7f3920ed5fcecd3f1de58dc9899fccce121ce931a67e880b6aa84bdf6458d5f3cc60001b612238565b6000821415611bae57611b727fd2538caefe4e6287f0399f74982a0d9471364e43bb774a2b6efee788003ef26660001b612238565b611b9e7fac2427b4de7e5234350bedfe284dc2c61a7fa863aade085a441d976b2ebf3cf860001b612238565b670de0b6b3a764000090506120ac565b611bda7fa4d5930a6098ca08980bc9df31776c6467441cec824b242109dca0b2dc9a6b9160001b612238565b611c067f1acbfad87608a2dab877be7fc3cc8e0ec2d05f33cf7f9a66f447614bb1fde37060001b612238565b611c327fe728b77a16a778765f23b206dbfaab5a6224e9f728e2f9d764fb165d16a58f7260001b612238565b6000670de0b6b3a76400009050611c6b7f43405e64b7c3de3438be664a93bbd8f4bad834b9bc9c7415daf18e3dfe3f409660001b612238565b611c977f9534842aeeb1cf59dd39e3b30c0f1c5140d0642126190341ae2d7939bc88cc8460001b612238565b6000849050611cc87ff603312008e375e05a1d2ead4faaca56d2678f324c61280cdcf071a1599c0e4560001b612238565b611cf47f84a9fea4a6241118b5d9fbe6735c8b555f6a5d659b361694a7a4b93913c7351160001b612238565b6000849050611d257fedf6f0a50821d016bd7d6db935672c0a9215716cbd5dfd8dcb0279ce5aeb5ffd60001b612238565b611d517f06d87a255fa445c9f34171894d637a43fc7fbbf3475c03b788aa20e96740819060001b612238565b5b600181111561204457611d877f5885afa097f1c3f034d65d5f0f76a2499827f3971c2b10b842246451af5150a860001b612238565b611db37feeddcf126d4a3122c2999f1cd892690a9b17836f37d52a797561426e1ecf936d60001b612238565b600060028281611dbf57fe5b061415611ec957611df27febe7a217f65dd502729d70ba9fc7d0c2eee42f405de224fa6aa2886494e56d4a60001b612238565b611e1e7f76e3afe2526aab6a69c814ba4624ccc7151c70d4b0100e3cd060431872804e3260001b612238565b611e4a7ffcc40f1f1f2b130ed3590df449024506cb60fd47cdcddd3bc77164dad4e7e04360001b612238565b611e54828361223b565b9150611e827f2516dc9ea3d3c34abeb9fff701da707c1348eb974c06bda2bf20251d983b1bd160001b612238565b611eae7fecdca9354abf0a3ec079925ff7fd21f9c212059816a72df40605d63b72cdc28b60001b612238565b611ec260028261153c90919063ffffffff16565b905061203f565b611ef57f54bc67050f05841ec404a70010b4e7f410b299877a7cc2e8f7cc694125c8649e60001b612238565b611f217f6a855a0cf806bf54f56b0894a0ff3dc976b081f5b466404a2a4ddf09d47746b660001b612238565b611f4d7f87bfead1e6731c96849fa2b26a9b6b9a8c346d29c8f0c057af85e4ea71264f4960001b612238565b611f57828461223b565b9250611f857fde86d1598f24ecf47f87e21b2ca275b54148dd414bcab48bc271a9e24ab9608460001b612238565b611fb17fc6f4503566e9c22cb0c02855c84a6cd1fcb4c12d2f17a1038bd93d82b3be253e60001b612238565b611fbb828361223b565b9150611fe97f6364d2cd8ec4e410fe5284c11b0c31e6e9bfb0546849b96c3ea2e4ff30255e5460001b612238565b6120157fdbe99c798e1562891ab67d7f2eb24bd2c2d48c035a19b1e7ef65545bded129c960001b612238565b61203c600261202e60018461158690919063ffffffff16565b61153c90919063ffffffff16565b90505b611d52565b6120707fafcfe5e25fce3fc8a5893b7cc3fe5906e549c1a8528644123951fc9e1610433960001b612238565b61209c7faa5cde25a5892d786efc1261d1a973b2731b7877c8bd07382c35a568d3928f6460001b612238565b6120a6828461223b565b93505050505b92915050565b6000808311829061215e576040517f08c379a00000000000000000000000000000000000000000000000000000000081526004018080602001828103825283818151815260200191508051906020019080838360005b83811015612123578082015181840152602081019050612108565b50505050905090810190601f1680156121505780820380516001836020036101000a031916815260200191505b509250505060405180910390fd5b50600083858161216a57fe5b049050809150509392505050565b6000838311158290612225576040517f08c379a00000000000000000000000000000000000000000000000000000000081526004018080602001828103825283818151815260200191508051906020019080838360005b838110156121ea5780820151818401526020810190506121cf565b50505050905090810190601f1680156122175780820380516001836020036101000a031916815260200191505b509250505060405180910390fd5b5060008385039050809150509392505050565b50565b60006122697fcf2c8da14ad1a8f90127683c91376a491821becc1af092bb9f208bc555bc100560001b612238565b6122957fda80dfeb44c418549c5582ab2c70318bf7b0cb14201220f6ded1541ad2fc893b60001b612238565b6122c17fb26e00edd5ffe7f2468b9771f5a971168a4ed8a3a0d06918af1c1d6d4b76feeb60001b612238565b60006122d683856114b690919063ffffffff16565b90506123047fcae6721ad5a0e4f2c279a6248a026a49cd7e26bc6970453d11e26959664207eb60001b612238565b6123307f24fa38eeaa313d7921ecb164c9e2678792c268552c5a7925102974a0b23f2a0360001b612238565b61236f670de0b6b3a76400006123616002670de0b6b3a76400008161235157fe5b048461237890919063ffffffff16565b61153c90919063ffffffff16565b91505092915050565b6000808284019050838110156123f6576040517f08c379a000000000000000000000000000000000000000000000000000000000815260040180806020018281038252601b8152602001807f536166654d6174683a206164646974696f6e206f766572666c6f77000000000081525060200191505060405180910390fd5b809150509291505056fe536166654d6174683a206d756c7469706c69636174696f6e206f766572666c6f77436f6d6d756e69747949737375616e63653a2063616c6c6572206973206e6f74205350a264697066735822122057c9e30a3828595dd72558027acfc1a22619af4327cff579ce84707cbcbda3ed64736f6c634300060b0033",
  "linkReferences": {},
  "deployedLinkReferences": {}
}