{
  "_format": "hh-sol-artifact-1",
  "contractName": "DefaultPool",
  "sourceName": "contracts/DefaultPool.sol",
  "abi": [
    {
      "anonymous": false,
      "inputs": [
        {
          "indexed": false,
          "internalType": "address",
          "name": "_newActivePoolAddress",
          "type": "address"
        }
      ],
      "name": "ActivePoolAddressChanged",
      "type": "event"
    },
    {
      "anonymous": false,
      "inputs": [
        {
          "indexed": false,
          "internalType": "address",
          "name": "_newDefaultPoolAddress",
          "type": "address"
        }
      ],
      "name": "DefaultPoolAddressChanged",
      "type": "event"
    },
    {
      "anonymous": false,
      "inputs": [
        {
          "indexed": false,
          "internalType": "uint256",
          "name": "_ETH",
          "type": "uint256"
        }
      ],
      "name": "DefaultPoolETHBalanceUpdated",
      "type": "event"
    },
    {
      "anonymous": false,
      "inputs": [
        {
          "indexed": false,
          "internalType": "uint256",
          "name": "_LUSDDebt",
          "type": "uint256"
        }
      ],
      "name": "DefaultPoolLUSDDebtUpdated",
      "type": "event"
    },
    {
      "anonymous": false,
      "inputs": [
        {
          "indexed": false,
          "internalType": "uint256",
          "name": "_newBalance",
          "type": "uint256"
        }
      ],
      "name": "ETHBalanceUpdated",
      "type": "event"
    },
    {
      "anonymous": false,
      "inputs": [
        {
          "indexed": false,
          "internalType": "address",
          "name": "_to",
          "type": "address"
        },
        {
          "indexed": false,
          "internalType": "uint256",
          "name": "_amount",
          "type": "uint256"
        }
      ],
      "name": "EtherSent",
      "type": "event"
    },
    {
      "anonymous": false,
      "inputs": [
        {
          "indexed": false,
          "internalType": "uint256",
          "name": "_newBalance",
          "type": "uint256"
        }
      ],
      "name": "LUSDBalanceUpdated",
      "type": "event"
    },
    {
      "anonymous": false,
      "inputs": [
        {
          "indexed": true,
          "internalType": "address",
          "name": "previousOwner",
          "type": "address"
        },
        {
          "indexed": true,
          "internalType": "address",
          "name": "newOwner",
          "type": "address"
        }
      ],
      "name": "OwnershipTransferred",
      "type": "event"
    },
    {
      "anonymous": false,
      "inputs": [
        {
          "indexed": false,
          "internalType": "address",
          "name": "_newStabilityPoolAddress",
          "type": "address"
        }
      ],
      "name": "StabilityPoolAddressChanged",
      "type": "event"
    },
    {
      "anonymous": false,
      "inputs": [
        {
          "indexed": false,
          "internalType": "address",
          "name": "_newTroveManagerAddress",
          "type": "address"
        }
      ],
      "name": "TroveManagerAddressChanged",
      "type": "event"
    },
    {
      "inputs": [],
      "name": "NAME",
      "outputs": [
        {
          "internalType": "string",
          "name": "",
          "type": "string"
        }
      ],
      "stateMutability": "view",
      "type": "function"
    },
    {
      "inputs": [],
      "name": "activePoolAddress",
      "outputs": [
        {
          "internalType": "address",
          "name": "",
          "type": "address"
        }
      ],
      "stateMutability": "view",
      "type": "function"
    },
    {
      "inputs": [
        {
          "internalType": "bytes32",
          "name": "c__0xafd32059",
          "type": "bytes32"
        }
      ],
      "name": "c_0xafd32059",
      "outputs": [],
      "stateMutability": "pure",
      "type": "function"
    },
    {
      "inputs": [
        {
          "internalType": "bytes32",
          "name": "c__0xc31df4a9",
          "type": "bytes32"
        }
      ],
      "name": "c_0xc31df4a9",
      "outputs": [],
      "stateMutability": "pure",
      "type": "function"
    },
    {
      "inputs": [
        {
          "internalType": "uint256",
          "name": "_amount",
          "type": "uint256"
        }
      ],
      "name": "decreaseLUSDDebt",
      "outputs": [],
      "stateMutability": "nonpayable",
      "type": "function"
    },
    {
      "inputs": [],
      "name": "getETH",
      "outputs": [
        {
          "internalType": "uint256",
          "name": "",
          "type": "uint256"
        }
      ],
      "stateMutability": "view",
      "type": "function"
    },
    {
      "inputs": [],
      "name": "getLUSDDebt",
      "outputs": [
        {
          "internalType": "uint256",
          "name": "",
          "type": "uint256"
        }
      ],
      "stateMutability": "view",
      "type": "function"
    },
    {
      "inputs": [
        {
          "internalType": "uint256",
          "name": "_amount",
          "type": "uint256"
        }
      ],
      "name": "increaseLUSDDebt",
      "outputs": [],
      "stateMutability": "nonpayable",
      "type": "function"
    },
    {
      "inputs": [],
      "name": "isOwner",
      "outputs": [
        {
          "internalType": "bool",
          "name": "",
          "type": "bool"
        }
      ],
      "stateMutability": "view",
      "type": "function"
    },
    {
      "inputs": [],
      "name": "owner",
      "outputs": [
        {
          "internalType": "address",
          "name": "",
          "type": "address"
        }
      ],
      "stateMutability": "view",
      "type": "function"
    },
    {
      "inputs": [
        {
          "internalType": "uint256",
          "name": "_amount",
          "type": "uint256"
        }
      ],
      "name": "sendETHToActivePool",
      "outputs": [],
      "stateMutability": "nonpayable",
      "type": "function"
    },
    {
      "inputs": [
        {
          "internalType": "address",
          "name": "_troveManagerAddress",
          "type": "address"
        },
        {
          "internalType": "address",
          "name": "_activePoolAddress",
          "type": "address"
        }
      ],
      "name": "setAddresses",
      "outputs": [],
      "stateMutability": "nonpayable",
      "type": "function"
    },
    {
      "inputs": [],
      "name": "troveManagerAddress",
      "outputs": [
        {
          "internalType": "address",
          "name": "",
          "type": "address"
        }
      ],
      "stateMutability": "view",
      "type": "function"
    },
    {
      "stateMutability": "payable",
      "type": "receive"
    }
  ],
  "bytecode": "0x608060405234801561001057600080fd5b50336000806101000a81548173ffffffffffffffffffffffffffffffffffffffff021916908373ffffffffffffffffffffffffffffffffffffffff1602179055503373ffffffffffffffffffffffffffffffffffffffff16600073ffffffffffffffffffffffffffffffffffffffff167f8be0079c531659141344cd1fd0a4f28419497f9722a3daafe3b4186f6b6457e060405160405180910390a3611ce5806100bb6000396000f3fe6080604052600436106100b65760003560e01c806390107afe1161006f57806390107afe14610310578063913a454b14610381578063940a71bc146103bc578063a3f4df7e146103f7578063b08bc72214610487578063be41205f146104de578063cfb9329a146105195761019d565b806314f6c3be146101a257806338d995a8146101cd5780635a4d28bb146102085780635eb52fca1461025f5780638da5cb5b1461028a5780638f32d59b146102e15761019d565b3661019d576100e77f9277f5854a2aa0b8aa1f709b35dbc227e643e3766977d47d462b1388f17e26ce60001b610554565b6100ef610557565b61011b7f44770a84818f351efd28aa9a3490a65c47515697027e59f58b972a188df5757d60001b610554565b610130346003546106db90919063ffffffff16565b6003819055506101627f92667a010096c4c86192459d24075342c9c874f8cbf13a2be5375bafd6393f8560001b610554565b7f9a14ae677a60400af9176bed2e2d5ce8dfa6405e6c1702debb27668f567214286003546040518082815260200191505060405180910390a1005b600080fd5b3480156101ae57600080fd5b506101b7610763565b6040518082815260200191505060405180910390f35b3480156101d957600080fd5b50610206600480360360208110156101f057600080fd5b81019080803590602001909291905050506107f1565b005b34801561021457600080fd5b5061021d610984565b604051808273ffffffffffffffffffffffffffffffffffffffff1673ffffffffffffffffffffffffffffffffffffffff16815260200191505060405180910390f35b34801561026b57600080fd5b506102746109aa565b6040518082815260200191505060405180910390f35b34801561029657600080fd5b5061029f610a38565b604051808273ffffffffffffffffffffffffffffffffffffffff1673ffffffffffffffffffffffffffffffffffffffff16815260200191505060405180910390f35b3480156102ed57600080fd5b506102f6610a61565b604051808215151515815260200191505060405180910390f35b34801561031c57600080fd5b5061037f6004803603604081101561033357600080fd5b81019080803573ffffffffffffffffffffffffffffffffffffffff169060200190929190803573ffffffffffffffffffffffffffffffffffffffff169060200190929190505050610ab8565b005b34801561038d57600080fd5b506103ba600480360360208110156103a457600080fd5b8101908080359060200190929190505050610554565b005b3480156103c857600080fd5b506103f5600480360360208110156103df57600080fd5b8101908080359060200190929190505050610f2c565b005b34801561040357600080fd5b5061040c610f2f565b6040518080602001828103825283818151815260200191508051906020019080838360005b8381101561044c578082015181840152602081019050610431565b50505050905090810190601f1680156104795780820380516001836020036101000a031916815260200191505b509250505060405180910390f35b34801561049357600080fd5b5061049c610f68565b604051808273ffffffffffffffffffffffffffffffffffffffff1673ffffffffffffffffffffffffffffffffffffffff16815260200191505060405180910390f35b3480156104ea57600080fd5b506105176004803603602081101561050157600080fd5b8101908080359060200190929190505050610f8e565b005b34801561052557600080fd5b506105526004803603602081101561053c57600080fd5b8101908080359060200190929190505050611448565b005b50565b6105837f85277b1257bb63d55d7deb07d150b08ffe22760d9c3c35ab639101c02ff1e08c60001b610554565b6105af7f71376552617d70254a35168f04bfac8fd36b5e52b37961b3e961fb0605ea626260001b610554565b6105db7f0869f723b7320a36df1470bcd988e224f6dffe5583728a833d720a319616556a60001b610554565b6106077f078bbaefa1adc76f98b2c16b5add6d72b653057bcfb2df26c77cb1913dbb674660001b610554565b600260009054906101000a900473ffffffffffffffffffffffffffffffffffffffff1673ffffffffffffffffffffffffffffffffffffffff163373ffffffffffffffffffffffffffffffffffffffff16146106ad576040517f08c379a0000000000000000000000000000000000000000000000000000000008152600401808060200182810382526029815260200180611c5c6029913960400191505060405180910390fd5b6106d97f587a68542e354a39f3d2034b367c16673e3c6ecfdb3b2d597d91c4acaee2340760001b610554565b565b600080828401905083811015610759576040517f08c379a000000000000000000000000000000000000000000000000000000000815260040180806020018281038252601b8152602001807f536166654d6174683a206164646974696f6e206f766572666c6f77000000000081525060200191505060405180910390fd5b8091505092915050565b60006107917f9b16db5c0775d9f6f4bc906953a75fe817c8255f2f82f8c454df71a76f40ddbe60001b610554565b6107bd7f433a700adc587438846c7f11cb2b1db08992571affa4d3b39fe8be6d24022a4860001b610554565b6107e97f1a448a22cf12ca2839810c4c55d157a2226bbe7c4a4b234c50837137c74e957a60001b610554565b600354905090565b61081d7fb7660c648281d027f21c2aac8b31cb40d5b606b7d4d9d2b374691f20ee3b3ab760001b610554565b6108497f1e06857a062910ac04929c6b6cae16784528ad3e964cbde2b7cdc1cfed4f347460001b610554565b6108757fa2c102ca8e70e3ba9bcac6562386c471e7bea0d72049d110bd2e4fe25510dff860001b610554565b61087d6115db565b6108a97f450d4396d6d5eeeb77d0ba1c00276a76246a20937689a7b4b8dce1d7cc93998560001b610554565b6108d57f9965ad8880b3923f90b28b666c629f40f2e6cb08ef179484ddaaa154e6efced860001b610554565b6108ea8160045461175f90919063ffffffff16565b60048190555061091c7fb5fc23a5fd3fa708b44fdef27088fd02582a464fa1640ab0d2aab0767292eb2860001b610554565b6109487f592619d5e305628636237512d57d4df1ded635b2e52db3207b18e89d3dc0e5a960001b610554565b7f7735d8b9c0814a13884384c73ec31633f708b4b920b2158764c6b306541341256004546040518082815260200191505060405180910390a150565b600160009054906101000a900473ffffffffffffffffffffffffffffffffffffffff1681565b60006109d87f249192ef34e034bf7a90c7c6251f289cde8823d78b0382992893c0287b0cab4360001b610554565b610a047f4c18e0112da0716ebf845e95219f895afbc8690fd4a46eb8629770aaa445196f60001b610554565b610a307f754e4467163c33af70244545227989b4899a2510dfacf54e0556b09f2af1811460001b610554565b600454905090565b60008060009054906101000a900473ffffffffffffffffffffffffffffffffffffffff16905090565b60008060009054906101000a900473ffffffffffffffffffffffffffffffffffffffff1673ffffffffffffffffffffffffffffffffffffffff163373ffffffffffffffffffffffffffffffffffffffff1614905090565b610ac0610a61565b610b32576040517f08c379a00000000000000000000000000000000000000000000000000000000081526004018080602001828103825260208152602001807f4f776e61626c653a2063616c6c6572206973206e6f7420746865206f776e657281525060200191505060405180910390fd5b610b5e7f9e89f58998ef2fc1e241d492f1a00f80cda9e87f31873f7aa9e31ab454d5d4fa60001b610554565b610b8a7f90b3416e1b0fe3a72902bfe147fc7c4f8721b2f6d6d36d002a9fce0592a296ba60001b610554565b610bb67fad4bc10a978af68781ef1be4dba860ea5499261bcc8c49e898878de1c0d942c660001b610554565b610bbf826117a9565b610beb7f7ff6f2f2dfcc8a1ceb91a5d1bf96161b05be3c042a59952376b8875fbb638f6360001b610554565b610c177f7b709db64dd888e85decc30aeebc0284efb560871d2ed2a6e37ae9bacbc9f05560001b610554565b610c20816117a9565b610c4c7fdaab520e82c552fc98b1f92742fcc8351a1d1a205d9941ed2d03a572d856eded60001b610554565b610c787f26eed757e391a0d64f00142226519996758b519c9a30e812f3c0dd563ebd98e760001b610554565b81600160006101000a81548173ffffffffffffffffffffffffffffffffffffffff021916908373ffffffffffffffffffffffffffffffffffffffff160217905550610ce57f1c131da668b63add39317e28f26fbf86cbb3cbb476bc591f8f0a3a4a38097a0060001b610554565b610d117fabf42de6aa9baa8a14b48cc9385914ad1dc6b078a4dd41f5a584d3de09eb186260001b610554565b80600260006101000a81548173ffffffffffffffffffffffffffffffffffffffff021916908373ffffffffffffffffffffffffffffffffffffffff160217905550610d7e7fb47bfe1da1c06a7e1ca8bc133c55936cdf43d33fe176f206cb3cc5e677ddc83b60001b610554565b610daa7f3ffab8a4251af1a968a3ab6919f51b389ccf595513083ec96b4da8cfd831d78a60001b610554565b7f143219c9e69b09e07e095fcc889b43d8f46ca892bba65f08dc3a0050869a567882604051808273ffffffffffffffffffffffffffffffffffffffff1673ffffffffffffffffffffffffffffffffffffffff16815260200191505060405180910390a1610e397f42c2c1572082fc1636203f840f0ac64c23521b660663716f66cae8fa6b4ba78560001b610554565b610e657f274d9b21ad1cc911557043ed9592bcad7e828b0b14ae60425623b3cb5854ce3660001b610554565b7f78f058b189175430c48dc02699e3a0031ea4ff781536dc2fab847de4babdd88281604051808273ffffffffffffffffffffffffffffffffffffffff1673ffffffffffffffffffffffffffffffffffffffff16815260200191505060405180910390a1610ef47fda8813b9390af842adf637f058c13f743511eedcda33e3ffb731f99cbf313f5b60001b610554565b610f207f56ac99821038c79c68d0b076d7d659c696d3437a3013a1918a841e4b3df9316860001b610554565b610f28611adc565b5050565b50565b6040518060400160405280600b81526020017f44656661756c74506f6f6c00000000000000000000000000000000000000000081525081565b600260009054906101000a900473ffffffffffffffffffffffffffffffffffffffff1681565b610fba7fad38cf124179e4ab4c02c80daf78701ed6cc46ed68c8b04b1d548b772e5c196860001b610554565b610fe67f30d3b2ec4accdd91c2525030a68b6ea3d9f648d097e56b939012485d99e13ec160001b610554565b6110127f460f9c5dfe2e097efdd96c25dda60ff63526cad8e410b3cfb815712ea3f929c560001b610554565b61101a6115db565b6110467fae4a214d3d2d5b2041d2fb7939087efbbe551f4e08344b717f500c50e49caee460001b610554565b6110727f24b6f702067dcfd013299001d09576223bb311c5175eacb539a54b1c87bae04560001b610554565b6000600260009054906101000a900473ffffffffffffffffffffffffffffffffffffffff1690506110c57f42512a73d7c841f7eeea60f19cf356b61bdb099d4ab85a9efb687609a9b1390360001b610554565b6110f17f0f9bef608e508ba478a40c7cf9f9ce05ffb18fcc9e43749133eaa944fcb1b13e60001b610554565b6111068260035461175f90919063ffffffff16565b6003819055506111387f9c47afd80ccd85b8b88af8682fd7a72c86ea5d88b39ed8ab3909b6e2cec845b260001b610554565b6111647f2783a4ac043797b6f96f49f71d23b151139837abce15614c2677c7029f5688b660001b610554565b7f9a14ae677a60400af9176bed2e2d5ce8dfa6405e6c1702debb27668f567214286003546040518082815260200191505060405180910390a16111c97f352e4d6b4a3234584d0a6b5fbf847945cf115f803381050e47655092a777a8a160001b610554565b6111f57fe9c3fa2576576103fdb36ee7c4be5957734a694d26dbcd7ef8009b6f503cf8db60001b610554565b7f6109e2559dfa766aaec7118351d48a523f0a4157f49c8d68749c8ac41318ad128183604051808373ffffffffffffffffffffffffffffffffffffffff1673ffffffffffffffffffffffffffffffffffffffff1681526020018281526020019250505060405180910390a161128c7f04f1fc10d740bb36604beb8d6d70cadf02013ac4b89e5713e7f6cd2a3bce01c360001b610554565b6112b77ed574190c9605ba71ebba37ceb6f1daf2a4bcde4ebb447cfeeeeff1391f7e0660001b610554565b60008173ffffffffffffffffffffffffffffffffffffffff168360405180600001905060006040518083038185875af1925050503d8060008114611317576040519150601f19603f3d011682016040523d82523d6000602084013e61131c565b606091505b5050905061134c7f0868be36cdacdda1a66b1b45e77817b48c2213bcc5bac6ffbe13a7d826b4a8e160001b610554565b6113787fee52c4967bf4b0337024f24a7599665e17789dfd79037a30f6a2fb50aad9177a60001b610554565b6113a47f056875b8298844f4167e8a38801cf393057e2e64432e01aa4d7a0578fe61ab7160001b610554565b80611417576040517f08c379a000000000000000000000000000000000000000000000000000000000815260040180806020018281038252601f8152602001807f44656661756c74506f6f6c3a2073656e64696e6720455448206661696c65640081525060200191505060405180910390fd5b6114437fe921ce10e8acee734ad9f33d8d16d9b6bc54f88338431d3f927c7b369a07813460001b610554565b505050565b6114747f6b1c274bf88c27e255a3950e1ef859155983443b4ad4dfef215e13a0c091240960001b610554565b6114a07f95b8edd3e789757fab6bf104d4900561be105179207bccd8f2de60ea1097a79260001b610554565b6114cc7f0df6f4c182150b7b5c8084a83b0b296550a5837c9d9a480a746f7b7c47b4ef8060001b610554565b6114d46115db565b6115007fa876091106d37d79e214670b66cba12f4f2f5a3bd6015d52b76add66be9b317660001b610554565b61152c7fe1eaef820e7e8979aa33bd7bf939bed9a622df7b0a8d3fe970e2e8985f29f86860001b610554565b611541816004546106db90919063ffffffff16565b6004819055506115737f54505f003325d1aa0f67cf1c68ee76fff28062f71be0a6ba76278a379916499c60001b610554565b61159f7f4ddbc00b4c9b191333c4ff4b923c26cb999e7a645dc1a83617af464de46feb4d60001b610554565b7f7735d8b9c0814a13884384c73ec31633f708b4b920b2158764c6b306541341256004546040518082815260200191505060405180910390a150565b6116077ffe8d11e9b706a19764d27d4fc1320e2fa72a7cd809ba320244cea7d4b3f280a360001b610554565b6116337fbd2601827d217d83251f569563d15fa15b64d184047fcc885da1593a13e2b78760001b610554565b61165f7fef3d028fcccf93af37b8f88fd3f20f00146504d96147557ed93c6b7b0a3747b160001b610554565b61168b7f1ab225aaa4bc28408c4ea11598679077e7d71f56b7c532be1b97a2ff43907c2b60001b610554565b600160009054906101000a900473ffffffffffffffffffffffffffffffffffffffff1673ffffffffffffffffffffffffffffffffffffffff163373ffffffffffffffffffffffffffffffffffffffff1614611731576040517f08c379a000000000000000000000000000000000000000000000000000000000815260040180806020018281038252602b815260200180611c85602b913960400191505060405180910390fd5b61175d7fc9e623cf962dcbd3f28bec181e7757f667172ad6ae4f6f9c353d674db9ed420860001b610554565b565b60006117a183836040518060400160405280601e81526020017f536166654d6174683a207375627472616374696f6e206f766572666c6f770000815250611b9b565b905092915050565b6117d57f35bc9e5e61c1438a006153cf69ffd6105766a3055440d22f6c8ce219146d68af60001b610f2c565b6118017fe66c045f45b868efda896f2af22ed71637a4e9e8d13a2b1962badf362ba3eeb960001b610f2c565b61182d7faaa4b517f253b4fa37cb2875514a22e04e7d5828c244c7095a27e85408ccd12c60001b610f2c565b6118597f1221da0bd0f16fcbee175d4dae7d6b598e327e79264e77ced4c93a6a0721871b60001b610f2c565b600073ffffffffffffffffffffffffffffffffffffffff168173ffffffffffffffffffffffffffffffffffffffff1614156118fc576040517f08c379a000000000000000000000000000000000000000000000000000000000815260040180806020018281038252601e8152602001807f4163636f756e742063616e6e6f74206265207a65726f2061646472657373000081525060200191505060405180910390fd5b6119287f09f0dc62d572b9e8dd242a1b7e25c3c5de1610d6c480bec35912dd5840f55fec60001b610f2c565b6119547fbe74447fdea037b64141768df2430eb2b7113bef949c88d88dcdc549ba88703360001b610f2c565b6119807f04e66872d3f4c69728dfe545a06401e1b17e0f9dd5e1d43290514ae4fd92783060001b610f2c565b60006119ae7f60826eea4af75abd2223d108cb037485a60c485e699a12a42cac24982b89800660001b610f2c565b813b90506119de7f7acec79ba6fd0be7bb4b2bfca56ca8eb3d8333d64e828971ccb7647facc3806360001b610f2c565b611a0a7f0c7e0405db301404f844860b9fe6e14e956a97134ff8695c88184f1c957d6e0860001b610f2c565b611a367f1c5a94c5a5d640e17d84bedbf9409c7f8afe563c4b1fceef7bced5961764ee0f60001b610f2c565b60008111611aac576040517f08c379a00000000000000000000000000000000000000000000000000000000081526004018080602001828103825260208152602001807f4163636f756e7420636f64652073697a652063616e6e6f74206265207a65726f81525060200191505060405180910390fd5b611ad87f1023f03b6261b194c29dee3596b0d25a3be14b60910a1d249d0177db54f54c4a60001b610f2c565b5050565b600073ffffffffffffffffffffffffffffffffffffffff166000809054906101000a900473ffffffffffffffffffffffffffffffffffffffff1673ffffffffffffffffffffffffffffffffffffffff167f8be0079c531659141344cd1fd0a4f28419497f9722a3daafe3b4186f6b6457e060405160405180910390a360008060006101000a81548173ffffffffffffffffffffffffffffffffffffffff021916908373ffffffffffffffffffffffffffffffffffffffff160217905550565b6000838311158290611c48576040517f08c379a00000000000000000000000000000000000000000000000000000000081526004018080602001828103825283818151815260200191508051906020019080838360005b83811015611c0d578082015181840152602081019050611bf2565b50505050905090810190601f168015611c3a5780820380516001836020036101000a031916815260200191505b509250505060405180910390fd5b506000838503905080915050939250505056fe44656661756c74506f6f6c3a2043616c6c6572206973206e6f742074686520416374697665506f6f6c44656661756c74506f6f6c3a2043616c6c6572206973206e6f74207468652054726f76654d616e61676572a2646970667358221220ee61d8eac98cd1dcee06765bbeac526979b228c75edf618ee7ebed3291f47f8464736f6c634300060b0033",
  "linkReferences": {},
  "deployedLinkReferences": {}
}