{
  "_format": "hh-sol-artifact-1",
  "contractName": "Destructible",
  "sourceName": "contracts/TestContracts/Destructible.sol",
  "abi": [
    {
      "inputs": [
        {
          "internalType": "address payable",
          "name": "_receiver",
          "type": "address"
        }
      ],
      "name": "destruct",
      "outputs": [],
      "stateMutability": "nonpayable",
      "type": "function"
    },
    {
      "stateMutability": "payable",
      "type": "receive"
    }
  ],
  "bytecode": "0x608060405234801561001057600080fd5b5060c68061001f6000396000f3fe608060405260043610601f5760003560e01c80631beb261514602a576025565b36602557005b600080fd5b348015603557600080fd5b50607560048036036020811015604a57600080fd5b81019080803573ffffffffffffffffffffffffffffffffffffffff1690602001909291905050506077565b005b8073ffffffffffffffffffffffffffffffffffffffff16fffea2646970667358221220f6d263b4c7a3ddbf0a65eb34cec4449e10194ae43a36b3ecc6590a34a94cb1da64736f6c634300060b0033",
  "linkReferences": {},
  "deployedLinkReferences": {}
}