{
  "_format": "hh-sol-artifact-1",
  "contractName": "EchidnaTester",
  "sourceName": "contracts/TestContracts/EchidnaTester.sol",
  "abi": [
    {
      "inputs": [],
      "stateMutability": "payable",
      "type": "constructor"
    },
    {
      "inputs": [],
      "name": "activePool",
      "outputs": [
        {
          "internalType": "contract ActivePool",
          "name": "",
          "type": "address"
        }
      ],
      "stateMutability": "view",
      "type": "function"
    },
    {
      "inputs": [
        {
          "internalType": "uint256",
          "name": "_i",
          "type": "uint256"
        },
        {
          "internalType": "uint256",
          "name": "_ETH",
          "type": "uint256"
        }
      ],
      "name": "addCollExt",
      "outputs": [],
      "stateMutability": "payable",
      "type": "function"
    },
    {
      "inputs": [
        {
          "internalType": "uint256",
          "name": "_i",
          "type": "uint256"
        },
        {
          "internalType": "uint256",
          "name": "_ETH",
          "type": "uint256"
        },
        {
          "internalType": "address",
          "name": "_upperHint",
          "type": "address"
        },
        {
          "internalType": "address",
          "name": "_lowerHint",
          "type": "address"
        }
      ],
      "name": "addCollRawExt",
      "outputs": [],
      "stateMutability": "payable",
      "type": "function"
    },
    {
      "inputs": [
        {
          "internalType": "uint256",
          "name": "_i",
          "type": "uint256"
        },
        {
          "internalType": "uint256",
          "name": "_ETH",
          "type": "uint256"
        },
        {
          "internalType": "uint256",
          "name": "_collWithdrawal",
          "type": "uint256"
        },
        {
          "internalType": "uint256",
          "name": "_debtChange",
          "type": "uint256"
        },
        {
          "internalType": "bool",
          "name": "_isDebtIncrease",
          "type": "bool"
        }
      ],
      "name": "adjustTroveExt",
      "outputs": [],
      "stateMutability": "payable",
      "type": "function"
    },
    {
      "inputs": [
        {
          "internalType": "uint256",
          "name": "_i",
          "type": "uint256"
        },
        {
          "internalType": "uint256",
          "name": "_ETH",
          "type": "uint256"
        },
        {
          "internalType": "uint256",
          "name": "_collWithdrawal",
          "type": "uint256"
        },
        {
          "internalType": "uint256",
          "name": "_debtChange",
          "type": "uint256"
        },
        {
          "internalType": "bool",
          "name": "_isDebtIncrease",
          "type": "bool"
        },
        {
          "internalType": "address",
          "name": "_upperHint",
          "type": "address"
        },
        {
          "internalType": "address",
          "name": "_lowerHint",
          "type": "address"
        },
        {
          "internalType": "uint256",
          "name": "_maxFee",
          "type": "uint256"
        }
      ],
      "name": "adjustTroveRawExt",
      "outputs": [],
      "stateMutability": "payable",
      "type": "function"
    },
    {
      "inputs": [
        {
          "internalType": "uint256",
          "name": "_i",
          "type": "uint256"
        },
        {
          "internalType": "address",
          "name": "spender",
          "type": "address"
        },
        {
          "internalType": "uint256",
          "name": "amount",
          "type": "uint256"
        }
      ],
      "name": "approveExt",
      "outputs": [
        {
          "internalType": "bool",
          "name": "",
          "type": "bool"
        }
      ],
      "stateMutability": "nonpayable",
      "type": "function"
    },
    {
      "inputs": [
        {
          "internalType": "uint256",
          "name": "_i",
          "type": "uint256"
        },
        {
          "internalType": "address[]",
          "name": "_troveArray",
          "type": "address[]"
        }
      ],
      "name": "batchLiquidateTrovesExt",
      "outputs": [],
      "stateMutability": "nonpayable",
      "type": "function"
    },
    {
      "inputs": [],
      "name": "borrowerOperations",
      "outputs": [
        {
          "internalType": "contract BorrowerOperations",
          "name": "",
          "type": "address"
        }
      ],
      "stateMutability": "view",
      "type": "function"
    },
    {
      "inputs": [
        {
          "internalType": "uint256",
          "name": "_i",
          "type": "uint256"
        }
      ],
      "name": "closeTroveExt",
      "outputs": [],
      "stateMutability": "nonpayable",
      "type": "function"
    },
    {
      "inputs": [],
      "name": "collSurplusPool",
      "outputs": [
        {
          "internalType": "contract CollSurplusPool",
          "name": "",
          "type": "address"
        }
      ],
      "stateMutability": "view",
      "type": "function"
    },
    {
      "inputs": [
        {
          "internalType": "uint256",
          "name": "_i",
          "type": "uint256"
        },
        {
          "internalType": "address",
          "name": "spender",
          "type": "address"
        },
        {
          "internalType": "uint256",
          "name": "subtractedValue",
          "type": "uint256"
        }
      ],
      "name": "decreaseAllowanceExt",
      "outputs": [
        {
          "internalType": "bool",
          "name": "",
          "type": "bool"
        }
      ],
      "stateMutability": "nonpayable",
      "type": "function"
    },
    {
      "inputs": [],
      "name": "defaultPool",
      "outputs": [
        {
          "internalType": "contract DefaultPool",
          "name": "",
          "type": "address"
        }
      ],
      "stateMutability": "view",
      "type": "function"
    },
    {
      "inputs": [
        {
          "internalType": "uint256",
          "name": "",
          "type": "uint256"
        }
      ],
      "name": "echidnaProxies",
      "outputs": [
        {
          "internalType": "contract EchidnaProxy",
          "name": "",
          "type": "address"
        }
      ],
      "stateMutability": "view",
      "type": "function"
    },
    {
      "inputs": [],
      "name": "echidna_ETH_balances",
      "outputs": [
        {
          "internalType": "bool",
          "name": "",
          "type": "bool"
        }
      ],
      "stateMutability": "view",
      "type": "function"
    },
    {
      "inputs": [],
      "name": "echidna_LUSD_global_balances",
      "outputs": [
        {
          "internalType": "bool",
          "name": "",
          "type": "bool"
        }
      ],
      "stateMutability": "view",
      "type": "function"
    },
    {
      "inputs": [],
      "name": "echidna_canary_active_pool_balance",
      "outputs": [
        {
          "internalType": "bool",
          "name": "",
          "type": "bool"
        }
      ],
      "stateMutability": "view",
      "type": "function"
    },
    {
      "inputs": [],
      "name": "echidna_canary_number_of_troves",
      "outputs": [
        {
          "internalType": "bool",
          "name": "",
          "type": "bool"
        }
      ],
      "stateMutability": "view",
      "type": "function"
    },
    {
      "inputs": [],
      "name": "echidna_price",
      "outputs": [
        {
          "internalType": "bool",
          "name": "",
          "type": "bool"
        }
      ],
      "stateMutability": "view",
      "type": "function"
    },
    {
      "inputs": [],
      "name": "echidna_trove_properties",
      "outputs": [
        {
          "internalType": "bool",
          "name": "",
          "type": "bool"
        }
      ],
      "stateMutability": "view",
      "type": "function"
    },
    {
      "inputs": [],
      "name": "echidna_troves_order",
      "outputs": [
        {
          "internalType": "bool",
          "name": "",
          "type": "bool"
        }
      ],
      "stateMutability": "view",
      "type": "function"
    },
    {
      "inputs": [],
      "name": "gasPool",
      "outputs": [
        {
          "internalType": "contract GasPool",
          "name": "",
          "type": "address"
        }
      ],
      "stateMutability": "view",
      "type": "function"
    },
    {
      "inputs": [
        {
          "internalType": "uint256",
          "name": "_i",
          "type": "uint256"
        },
        {
          "internalType": "address",
          "name": "spender",
          "type": "address"
        },
        {
          "internalType": "uint256",
          "name": "addedValue",
          "type": "uint256"
        }
      ],
      "name": "increaseAllowanceExt",
      "outputs": [
        {
          "internalType": "bool",
          "name": "",
          "type": "bool"
        }
      ],
      "stateMutability": "nonpayable",
      "type": "function"
    },
    {
      "inputs": [
        {
          "internalType": "uint256",
          "name": "_i",
          "type": "uint256"
        },
        {
          "internalType": "address",
          "name": "_user",
          "type": "address"
        }
      ],
      "name": "liquidateExt",
      "outputs": [],
      "stateMutability": "nonpayable",
      "type": "function"
    },
    {
      "inputs": [
        {
          "internalType": "uint256",
          "name": "_i",
          "type": "uint256"
        },
        {
          "internalType": "uint256",
          "name": "_n",
          "type": "uint256"
        }
      ],
      "name": "liquidateTrovesExt",
      "outputs": [],
      "stateMutability": "nonpayable",
      "type": "function"
    },
    {
      "inputs": [],
      "name": "lusdToken",
      "outputs": [
        {
          "internalType": "contract LUSDToken",
          "name": "",
          "type": "address"
        }
      ],
      "stateMutability": "view",
      "type": "function"
    },
    {
      "inputs": [
        {
          "internalType": "uint256",
          "name": "_i",
          "type": "uint256"
        },
        {
          "internalType": "uint256",
          "name": "_ETH",
          "type": "uint256"
        },
        {
          "internalType": "uint256",
          "name": "_LUSDAmount",
          "type": "uint256"
        }
      ],
      "name": "openTroveExt",
      "outputs": [],
      "stateMutability": "payable",
      "type": "function"
    },
    {
      "inputs": [
        {
          "internalType": "uint256",
          "name": "_i",
          "type": "uint256"
        },
        {
          "internalType": "uint256",
          "name": "_ETH",
          "type": "uint256"
        },
        {
          "internalType": "uint256",
          "name": "_LUSDAmount",
          "type": "uint256"
        },
        {
          "internalType": "address",
          "name": "_upperHint",
          "type": "address"
        },
        {
          "internalType": "address",
          "name": "_lowerHint",
          "type": "address"
        },
        {
          "internalType": "uint256",
          "name": "_maxFee",
          "type": "uint256"
        }
      ],
      "name": "openTroveRawExt",
      "outputs": [],
      "stateMutability": "payable",
      "type": "function"
    },
    {
      "inputs": [
        {
          "internalType": "uint256",
          "name": "_i",
          "type": "uint256"
        },
        {
          "internalType": "uint256",
          "name": "_amount",
          "type": "uint256"
        },
        {
          "internalType": "address",
          "name": "_frontEndTag",
          "type": "address"
        }
      ],
      "name": "provideToSPExt",
      "outputs": [],
      "stateMutability": "nonpayable",
      "type": "function"
    },
    {
      "inputs": [
        {
          "internalType": "uint256",
          "name": "_i",
          "type": "uint256"
        },
        {
          "internalType": "uint256",
          "name": "_LUSDAmount",
          "type": "uint256"
        },
        {
          "internalType": "address",
          "name": "_firstRedemptionHint",
          "type": "address"
        },
        {
          "internalType": "address",
          "name": "_upperPartialRedemptionHint",
          "type": "address"
        },
        {
          "internalType": "address",
          "name": "_lowerPartialRedemptionHint",
          "type": "address"
        },
        {
          "internalType": "uint256",
          "name": "_partialRedemptionHintNICR",
          "type": "uint256"
        }
      ],
      "name": "redeemCollateralExt",
      "outputs": [],
      "stateMutability": "nonpayable",
      "type": "function"
    },
    {
      "inputs": [
        {
          "internalType": "uint256",
          "name": "_i",
          "type": "uint256"
        },
        {
          "internalType": "uint256",
          "name": "_amount",
          "type": "uint256"
        },
        {
          "internalType": "address",
          "name": "_upperHint",
          "type": "address"
        },
        {
          "internalType": "address",
          "name": "_lowerHint",
          "type": "address"
        }
      ],
      "name": "repayLUSDExt",
      "outputs": [],
      "stateMutability": "nonpayable",
      "type": "function"
    },
    {
      "inputs": [
        {
          "internalType": "uint256",
          "name": "_price",
          "type": "uint256"
        }
      ],
      "name": "setPriceExt",
      "outputs": [],
      "stateMutability": "nonpayable",
      "type": "function"
    },
    {
      "inputs": [],
      "name": "stabilityPool",
      "outputs": [
        {
          "internalType": "contract StabilityPool",
          "name": "",
          "type": "address"
        }
      ],
      "stateMutability": "view",
      "type": "function"
    },
    {
      "inputs": [
        {
          "internalType": "uint256",
          "name": "_i",
          "type": "uint256"
        },
        {
          "internalType": "address",
          "name": "recipient",
          "type": "address"
        },
        {
          "internalType": "uint256",
          "name": "amount",
          "type": "uint256"
        }
      ],
      "name": "transferExt",
      "outputs": [
        {
          "internalType": "bool",
          "name": "",
          "type": "bool"
        }
      ],
      "stateMutability": "nonpayable",
      "type": "function"
    },
    {
      "inputs": [
        {
          "internalType": "uint256",
          "name": "_i",
          "type": "uint256"
        },
        {
          "internalType": "address",
          "name": "sender",
          "type": "address"
        },
        {
          "internalType": "address",
          "name": "recipient",
          "type": "address"
        },
        {
          "internalType": "uint256",
          "name": "amount",
          "type": "uint256"
        }
      ],
      "name": "transferFromExt",
      "outputs": [
        {
          "internalType": "bool",
          "name": "",
          "type": "bool"
        }
      ],
      "stateMutability": "nonpayable",
      "type": "function"
    },
    {
      "inputs": [],
      "name": "troveManager",
      "outputs": [
        {
          "internalType": "contract TroveManager",
          "name": "",
          "type": "address"
        }
      ],
      "stateMutability": "view",
      "type": "function"
    },
    {
      "inputs": [
        {
          "internalType": "uint256",
          "name": "_i",
          "type": "uint256"
        },
        {
          "internalType": "uint256",
          "name": "_amount",
          "type": "uint256"
        },
        {
          "internalType": "address",
          "name": "_upperHint",
          "type": "address"
        },
        {
          "internalType": "address",
          "name": "_lowerHint",
          "type": "address"
        }
      ],
      "name": "withdrawCollExt",
      "outputs": [],
      "stateMutability": "nonpayable",
      "type": "function"
    },
    {
      "inputs": [
        {
          "internalType": "uint256",
          "name": "_i",
          "type": "uint256"
        },
        {
          "internalType": "uint256",
          "name": "_amount",
          "type": "uint256"
        }
      ],
      "name": "withdrawFromSPExt",
      "outputs": [],
      "stateMutability": "nonpayable",
      "type": "function"
    },
    {
      "inputs": [
        {
          "internalType": "uint256",
          "name": "_i",
          "type": "uint256"
        },
        {
          "internalType": "uint256",
          "name": "_amount",
          "type": "uint256"
        },
        {
          "internalType": "address",
          "name": "_upperHint",
          "type": "address"
        },
        {
          "internalType": "address",
          "name": "_lowerHint",
          "type": "address"
        },
        {
          "internalType": "uint256",
          "name": "_maxFee",
          "type": "uint256"
        }
      ],
      "name": "withdrawLUSDExt",
      "outputs": [],
      "stateMutability": "nonpayable",
      "type": "function"
    }
  ],
  "bytecode": "0x6080604052604051620000129062001b21565b604051809103906000f0801580156200002f573d6000803e3d6000fd5b50600360006101000a81548173ffffffffffffffffffffffffffffffffffffffff021916908373ffffffffffffffffffffffffffffffffffffffff1602179055506040516200007e9062001b30565b604051809103906000f0801580156200009b573d6000803e3d6000fd5b50600460006101000a81548173ffffffffffffffffffffffffffffffffffffffff021916908373ffffffffffffffffffffffffffffffffffffffff160217905550604051620000ea9062001b3e565b604051809103906000f08015801562000107573d6000803e3d6000fd5b50600560006101000a81548173ffffffffffffffffffffffffffffffffffffffff021916908373ffffffffffffffffffffffffffffffffffffffff160217905550604051620001569062001b4c565b604051809103906000f08015801562000173573d6000803e3d6000fd5b50600660006101000a81548173ffffffffffffffffffffffffffffffffffffffff021916908373ffffffffffffffffffffffffffffffffffffffff160217905550604051620001c29062001b5a565b604051809103906000f080158015620001df573d6000803e3d6000fd5b50600760006101000a81548173ffffffffffffffffffffffffffffffffffffffff021916908373ffffffffffffffffffffffffffffffffffffffff1602179055506040516200022e9062001b68565b604051809103906000f0801580156200024b573d6000803e3d6000fd5b50600860006101000a81548173ffffffffffffffffffffffffffffffffffffffff021916908373ffffffffffffffffffffffffffffffffffffffff160217905550600360009054906101000a900473ffffffffffffffffffffffffffffffffffffffff16600760009054906101000a900473ffffffffffffffffffffffffffffffffffffffff16600460009054906101000a900473ffffffffffffffffffffffffffffffffffffffff16604051620003039062001b75565b808473ffffffffffffffffffffffffffffffffffffffff1673ffffffffffffffffffffffffffffffffffffffff1681526020018373ffffffffffffffffffffffffffffffffffffffff1673ffffffffffffffffffffffffffffffffffffffff1681526020018273ffffffffffffffffffffffffffffffffffffffff1673ffffffffffffffffffffffffffffffffffffffff1681526020019350505050604051809103906000f080158015620003bc573d6000803e3d6000fd5b50600a60006101000a81548173ffffffffffffffffffffffffffffffffffffffff021916908373ffffffffffffffffffffffffffffffffffffffff1602179055506040516200040b9062001b83565b604051809103906000f08015801562000428573d6000803e3d6000fd5b50600960006101000a81548173ffffffffffffffffffffffffffffffffffffffff021916908373ffffffffffffffffffffffffffffffffffffffff160217905550604051620004779062001b91565b604051809103906000f08015801562000494573d6000803e3d6000fd5b50600b60006101000a81548173ffffffffffffffffffffffffffffffffffffffff021916908373ffffffffffffffffffffffffffffffffffffffff160217905550604051620004e39062001b9f565b604051809103906000f08015801562000500573d6000803e3d6000fd5b50600c60006101000a81548173ffffffffffffffffffffffffffffffffffffffff021916908373ffffffffffffffffffffffffffffffffffffffff160217905550600360009054906101000a900473ffffffffffffffffffffffffffffffffffffffff1673ffffffffffffffffffffffffffffffffffffffff16637985c5e4600460009054906101000a900473ffffffffffffffffffffffffffffffffffffffff16600560009054906101000a900473ffffffffffffffffffffffffffffffffffffffff16600660009054906101000a900473ffffffffffffffffffffffffffffffffffffffff16600760009054906101000a900473ffffffffffffffffffffffffffffffffffffffff16600860009054906101000a900473ffffffffffffffffffffffffffffffffffffffff16600960009054906101000a900473ffffffffffffffffffffffffffffffffffffffff16600b60009054906101000a900473ffffffffffffffffffffffffffffffffffffffff16600a60009054906101000a900473ffffffffffffffffffffffffffffffffffffffff16600c60009054906101000a900473ffffffffffffffffffffffffffffffffffffffff166000806040518c63ffffffff1660e01b8152600401808c73ffffffffffffffffffffffffffffffffffffffff1673ffffffffffffffffffffffffffffffffffffffff1681526020018b73ffffffffffffffffffffffffffffffffffffffff1673ffffffffffffffffffffffffffffffffffffffff1681526020018a73ffffffffffffffffffffffffffffffffffffffff1673ffffffffffffffffffffffffffffffffffffffff1681526020018973ffffffffffffffffffffffffffffffffffffffff1673ffffffffffffffffffffffffffffffffffffffff1681526020018873ffffffffffffffffffffffffffffffffffffffff1673ffffffffffffffffffffffffffffffffffffffff1681526020018773ffffffffffffffffffffffffffffffffffffffff1673ffffffffffffffffffffffffffffffffffffffff1681526020018673ffffffffffffffffffffffffffffffffffffffff1673ffffffffffffffffffffffffffffffffffffffff1681526020018573ffffffffffffffffffffffffffffffffffffffff1673ffffffffffffffffffffffffffffffffffffffff1681526020018473ffffffffffffffffffffffffffffffffffffffff1673ffffffffffffffffffffffffffffffffffffffff1681526020018373ffffffffffffffffffffffffffffffffffffffff1673ffffffffffffffffffffffffffffffffffffffff1681526020018273ffffffffffffffffffffffffffffffffffffffff1673ffffffffffffffffffffffffffffffffffffffff1681526020019b505050505050505050505050600060405180830381600087803b1580156200091e57600080fd5b505af115801562000933573d6000803e3d6000fd5b50505050600460009054906101000a900473ffffffffffffffffffffffffffffffffffffffff1673ffffffffffffffffffffffffffffffffffffffff16636c37a4af600360009054906101000a900473ffffffffffffffffffffffffffffffffffffffff16600560009054906101000a900473ffffffffffffffffffffffffffffffffffffffff16600660009054906101000a900473ffffffffffffffffffffffffffffffffffffffff16600760009054906101000a900473ffffffffffffffffffffffffffffffffffffffff16600860009054906101000a900473ffffffffffffffffffffffffffffffffffffffff16600960009054906101000a900473ffffffffffffffffffffffffffffffffffffffff16600b60009054906101000a900473ffffffffffffffffffffffffffffffffffffffff16600c60009054906101000a900473ffffffffffffffffffffffffffffffffffffffff16600a60009054906101000a900473ffffffffffffffffffffffffffffffffffffffff1660006040518b63ffffffff1660e01b8152600401808b73ffffffffffffffffffffffffffffffffffffffff1673ffffffffffffffffffffffffffffffffffffffff1681526020018a73ffffffffffffffffffffffffffffffffffffffff1673ffffffffffffffffffffffffffffffffffffffff1681526020018973ffffffffffffffffffffffffffffffffffffffff1673ffffffffffffffffffffffffffffffffffffffff1681526020018873ffffffffffffffffffffffffffffffffffffffff1673ffffffffffffffffffffffffffffffffffffffff1681526020018773ffffffffffffffffffffffffffffffffffffffff1673ffffffffffffffffffffffffffffffffffffffff1681526020018673ffffffffffffffffffffffffffffffffffffffff1673ffffffffffffffffffffffffffffffffffffffff1681526020018573ffffffffffffffffffffffffffffffffffffffff1673ffffffffffffffffffffffffffffffffffffffff1681526020018473ffffffffffffffffffffffffffffffffffffffff1673ffffffffffffffffffffffffffffffffffffffff1681526020018373ffffffffffffffffffffffffffffffffffffffff1673ffffffffffffffffffffffffffffffffffffffff1681526020018273ffffffffffffffffffffffffffffffffffffffff1673ffffffffffffffffffffffffffffffffffffffff1681526020019a5050505050505050505050600060405180830381600087803b15801562000ce057600080fd5b505af115801562000cf5573d6000803e3d6000fd5b50505050600560009054906101000a900473ffffffffffffffffffffffffffffffffffffffff1673ffffffffffffffffffffffffffffffffffffffff16634a945f8d600460009054906101000a900473ffffffffffffffffffffffffffffffffffffffff16600360009054906101000a900473ffffffffffffffffffffffffffffffffffffffff16600760009054906101000a900473ffffffffffffffffffffffffffffffffffffffff16600660009054906101000a900473ffffffffffffffffffffffffffffffffffffffff166040518563ffffffff1660e01b8152600401808573ffffffffffffffffffffffffffffffffffffffff1673ffffffffffffffffffffffffffffffffffffffff1681526020018473ffffffffffffffffffffffffffffffffffffffff1673ffffffffffffffffffffffffffffffffffffffff1681526020018373ffffffffffffffffffffffffffffffffffffffff1673ffffffffffffffffffffffffffffffffffffffff1681526020018273ffffffffffffffffffffffffffffffffffffffff1673ffffffffffffffffffffffffffffffffffffffff168152602001945050505050600060405180830381600087803b15801562000ebf57600080fd5b505af115801562000ed4573d6000803e3d6000fd5b50505050600660009054906101000a900473ffffffffffffffffffffffffffffffffffffffff1673ffffffffffffffffffffffffffffffffffffffff166390107afe600360009054906101000a900473ffffffffffffffffffffffffffffffffffffffff16600560009054906101000a900473ffffffffffffffffffffffffffffffffffffffff166040518363ffffffff1660e01b8152600401808373ffffffffffffffffffffffffffffffffffffffff1673ffffffffffffffffffffffffffffffffffffffff1681526020018273ffffffffffffffffffffffffffffffffffffffff1673ffffffffffffffffffffffffffffffffffffffff16815260200192505050600060405180830381600087803b15801562000ff257600080fd5b505af115801562001007573d6000803e3d6000fd5b50505050600760009054906101000a900473ffffffffffffffffffffffffffffffffffffffff1673ffffffffffffffffffffffffffffffffffffffff1663eaa8ba7f600460009054906101000a900473ffffffffffffffffffffffffffffffffffffffff16600360009054906101000a900473ffffffffffffffffffffffffffffffffffffffff16600560009054906101000a900473ffffffffffffffffffffffffffffffffffffffff16600a60009054906101000a900473ffffffffffffffffffffffffffffffffffffffff16600c60009054906101000a900473ffffffffffffffffffffffffffffffffffffffff16600b60009054906101000a900473ffffffffffffffffffffffffffffffffffffffff1660006040518863ffffffff1660e01b8152600401808873ffffffffffffffffffffffffffffffffffffffff1673ffffffffffffffffffffffffffffffffffffffff1681526020018773ffffffffffffffffffffffffffffffffffffffff1673ffffffffffffffffffffffffffffffffffffffff1681526020018673ffffffffffffffffffffffffffffffffffffffff1673ffffffffffffffffffffffffffffffffffffffff1681526020018573ffffffffffffffffffffffffffffffffffffffff1673ffffffffffffffffffffffffffffffffffffffff1681526020018473ffffffffffffffffffffffffffffffffffffffff1673ffffffffffffffffffffffffffffffffffffffff1681526020018373ffffffffffffffffffffffffffffffffffffffff1673ffffffffffffffffffffffffffffffffffffffff1681526020018273ffffffffffffffffffffffffffffffffffffffff1673ffffffffffffffffffffffffffffffffffffffff168152602001975050505050505050600060405180830381600087803b158015620012b257600080fd5b505af1158015620012c7573d6000803e3d6000fd5b50505050600960009054906101000a900473ffffffffffffffffffffffffffffffffffffffff1673ffffffffffffffffffffffffffffffffffffffff1663363bf964600460009054906101000a900473ffffffffffffffffffffffffffffffffffffffff16600360009054906101000a900473ffffffffffffffffffffffffffffffffffffffff16600560009054906101000a900473ffffffffffffffffffffffffffffffffffffffff166040518463ffffffff1660e01b8152600401808473ffffffffffffffffffffffffffffffffffffffff1673ffffffffffffffffffffffffffffffffffffffff1681526020018373ffffffffffffffffffffffffffffffffffffffff1673ffffffffffffffffffffffffffffffffffffffff1681526020018273ffffffffffffffffffffffffffffffffffffffff1673ffffffffffffffffffffffffffffffffffffffff1681526020019350505050600060405180830381600087803b1580156200143b57600080fd5b505af115801562001450573d6000803e3d6000fd5b50505050600c60009054906101000a900473ffffffffffffffffffffffffffffffffffffffff1673ffffffffffffffffffffffffffffffffffffffff1663f376d798670de0b6b3a7640000600360009054906101000a900473ffffffffffffffffffffffffffffffffffffffff16600460009054906101000a900473ffffffffffffffffffffffffffffffffffffffff166040518463ffffffff1660e01b8152600401808481526020018373ffffffffffffffffffffffffffffffffffffffff1673ffffffffffffffffffffffffffffffffffffffff1681526020018273ffffffffffffffffffffffffffffffffffffffff1673ffffffffffffffffffffffffffffffffffffffff1681526020019350505050600060405180830381600087803b1580156200157e57600080fd5b505af115801562001593573d6000803e3d6000fd5b5050505060008090505b60648110156200183957600360009054906101000a900473ffffffffffffffffffffffffffffffffffffffff16600460009054906101000a900473ffffffffffffffffffffffffffffffffffffffff16600760009054906101000a900473ffffffffffffffffffffffffffffffffffffffff16600a60009054906101000a900473ffffffffffffffffffffffffffffffffffffffff16604051620016419062001bad565b808573ffffffffffffffffffffffffffffffffffffffff1673ffffffffffffffffffffffffffffffffffffffff1681526020018473ffffffffffffffffffffffffffffffffffffffff1673ffffffffffffffffffffffffffffffffffffffff1681526020018373ffffffffffffffffffffffffffffffffffffffff1673ffffffffffffffffffffffffffffffffffffffff1681526020018273ffffffffffffffffffffffffffffffffffffffff1673ffffffffffffffffffffffffffffffffffffffff168152602001945050505050604051809103906000f0801580156200172d573d6000803e3d6000fd5b50600d82606481106200173c57fe5b0160006101000a81548173ffffffffffffffffffffffffffffffffffffffff021916908373ffffffffffffffffffffffffffffffffffffffff1602179055506000600d82606481106200178b57fe5b0160009054906101000a900473ffffffffffffffffffffffffffffffffffffffff1673ffffffffffffffffffffffffffffffffffffffff1669d3c21bcecceda100000060405180600001905060006040518083038185875af1925050503d806000811462001816576040519150601f19603f3d011682016040523d82523d6000602084013e6200181b565b606091505b50509050806200182a57600080fd5b5080806001019150506200159d565b50600460009054906101000a900473ffffffffffffffffffffffffffffffffffffffff1673ffffffffffffffffffffffffffffffffffffffff1663794e57246040518163ffffffff1660e01b815260040160206040518083038186803b158015620018a357600080fd5b505afa158015620018b8573d6000803e3d6000fd5b505050506040513d6020811015620018cf57600080fd5b8101908080519060200190929190505050600081905550600460009054906101000a900473ffffffffffffffffffffffffffffffffffffffff1673ffffffffffffffffffffffffffffffffffffffff16635733d58f6040518163ffffffff1660e01b815260040160206040518083038186803b1580156200194f57600080fd5b505afa15801562001964573d6000803e3d6000fd5b505050506040513d60208110156200197b57600080fd5b8101908080519060200190929190505050600181905550600460009054906101000a900473ffffffffffffffffffffffffffffffffffffffff1673ffffffffffffffffffffffffffffffffffffffff16632e86bbd86040518163ffffffff1660e01b815260040160206040518083038186803b158015620019fb57600080fd5b505afa15801562001a10573d6000803e3d6000fd5b505050506040513d602081101562001a2757600080fd5b8101908080519060200190929190505050600281905550600080541162001a4d57600080fd5b60006001541162001a5d57600080fd5b600b60009054906101000a900473ffffffffffffffffffffffffffffffffffffffff1673ffffffffffffffffffffffffffffffffffffffff166391b7f5ed69021e19e0c9bab24000006040518263ffffffff1660e01b815260040180828152602001915050602060405180830381600087803b15801562001add57600080fd5b505af115801562001af2573d6000803e3d6000fd5b505050506040513d602081101562001b0957600080fd5b81019080805190602001909291905050505062001bbb565b62017f2e806200628483390190565b61b862806201e1b283390190565b6125528062029a1483390190565b611da0806202bf6683390190565b61ea2a806202dd0683390190565b60af806203c73083390190565b6150ba806203c7df83390190565b612325806204189983390190565b6101898062043bbe83390190565b616cf88062043d4783390190565b611a91806204aa3f83390190565b6146b98062001bcb6000396000f3fe6080604052600436106102055760003560e01c80637f7dde4a11610113578063b83f91a2116100ab578063d21af9681161006f578063d21af96814610e8f578063e448912714610ed1578063efa83cf914610f16578063f2a903a714610fa2578063fa08b03814610fd157610205565b8063b83f91a214610cdd578063baf5d65f14610d34578063c325347f14610d79578063c91b364a14610e09578063cda775f914610e3857610205565b80637f7dde4a146109705780638e4707d3146109c757806391a4a42614610a44578063980c55d714610abf5780639cdd097814610aee5780639d9da9d814610b6b5780639f56ac1814610bfa578063a2f5cbdd14610c29578063a3d3683414610c5857610205565b80634557559f116101a157806359bed84b1161016557806359bed84b14610726578063696909361461075557806377553ad4146107cd5780637c22900e146108245780637ca8b028146108c157610205565b80634557559f146105865780634e792a30146105c157806357285cc51461061c5780635895ac4e14610654578063597ec7991461068357610205565b8063048c661d1461020a57806304bbf59c14610261578063119be5d0146102de5780631c6fbd231461035b5780633ca4afc1146103b35780633cc74225146104185780633d83908a1461046f57806340ba2e27146104c65780634104fbd314610501575b600080fd5b34801561021657600080fd5b5061021f611028565b604051808273ffffffffffffffffffffffffffffffffffffffff1673ffffffffffffffffffffffffffffffffffffffff16815260200191505060405180910390f35b34801561026d57600080fd5b506102c46004803603606081101561028457600080fd5b8101908080359060200190929190803573ffffffffffffffffffffffffffffffffffffffff1690602001909291908035906020019092919050505061104e565b604051808215151515815260200191505060405180910390f35b3480156102ea57600080fd5b506103416004803603606081101561030157600080fd5b8101908080359060200190929190803573ffffffffffffffffffffffffffffffffffffffff16906020019092919080359060200190929190505050611157565b604051808215151515815260200191505060405180910390f35b6103b1600480360360a081101561037157600080fd5b8101908080359060200190929190803590602001909291908035906020019092919080359060200190929190803515159060200190929190505050611260565b005b3480156103bf57600080fd5b50610416600480360360608110156103d657600080fd5b810190808035906020019092919080359060200190929190803573ffffffffffffffffffffffffffffffffffffffff1690602001909291905050506113ef565b005b34801561042457600080fd5b5061042d6114d1565b604051808273ffffffffffffffffffffffffffffffffffffffff1673ffffffffffffffffffffffffffffffffffffffff16815260200191505060405180910390f35b34801561047b57600080fd5b506104846114f7565b604051808273ffffffffffffffffffffffffffffffffffffffff1673ffffffffffffffffffffffffffffffffffffffff16815260200191505060405180910390f35b3480156104d257600080fd5b506104ff600480360360208110156104e957600080fd5b810190808035906020019092919050505061151d565b005b34801561050d57600080fd5b506105846004803603608081101561052457600080fd5b810190808035906020019092919080359060200190929190803573ffffffffffffffffffffffffffffffffffffffff169060200190929190803573ffffffffffffffffffffffffffffffffffffffff1690602001909291905050506115be565b005b34801561059257600080fd5b506105bf600480360360208110156105a957600080fd5b81019080803590602001909291905050506116d5565b005b3480156105cd57600080fd5b5061061a600480360360408110156105e457600080fd5b8101908080359060200190929190803573ffffffffffffffffffffffffffffffffffffffff169060200190929190505050611794565b005b6106526004803603604081101561063257600080fd5b81019080803590602001909291908035906020019092919050505061186d565b005b34801561066057600080fd5b506106696119b8565b604051808215151515815260200191505060405180910390f35b610724600480360361010081101561069a57600080fd5b8101908080359060200190929190803590602001909291908035906020019092919080359060200190929190803515159060200190929190803573ffffffffffffffffffffffffffffffffffffffff169060200190929190803573ffffffffffffffffffffffffffffffffffffffff16906020019092919080359060200190929190505050611a7c565b005b34801561073257600080fd5b5061073b611bbb565b604051808215151515815260200191505060405180910390f35b6107cb6004803603608081101561076b57600080fd5b810190808035906020019092919080359060200190929190803573ffffffffffffffffffffffffffffffffffffffff169060200190929190803573ffffffffffffffffffffffffffffffffffffffff169060200190929190505050612064565b005b3480156107d957600080fd5b506107e261217b565b604051808273ffffffffffffffffffffffffffffffffffffffff1673ffffffffffffffffffffffffffffffffffffffff16815260200191505060405180910390f35b34801561083057600080fd5b506108a76004803603608081101561084757600080fd5b8101908080359060200190929190803573ffffffffffffffffffffffffffffffffffffffff169060200190929190803573ffffffffffffffffffffffffffffffffffffffff169060200190929190803590602001909291905050506121a1565b604051808215151515815260200191505060405180910390f35b3480156108cd57600080fd5b5061096e600480360360c08110156108e457600080fd5b810190808035906020019092919080359060200190929190803573ffffffffffffffffffffffffffffffffffffffff169060200190929190803573ffffffffffffffffffffffffffffffffffffffff169060200190929190803573ffffffffffffffffffffffffffffffffffffffff169060200190929190803590602001909291905050506122df565b005b34801561097c57600080fd5b50610985612445565b604051808273ffffffffffffffffffffffffffffffffffffffff1673ffffffffffffffffffffffffffffffffffffffff16815260200191505060405180910390f35b3480156109d357600080fd5b50610a2a600480360360608110156109ea57600080fd5b8101908080359060200190929190803573ffffffffffffffffffffffffffffffffffffffff1690602001909291908035906020019092919050505061246b565b604051808215151515815260200191505060405180910390f35b348015610a5057600080fd5b50610a7d60048036036020811015610a6757600080fd5b8101908080359060200190929190505050612574565b604051808273ffffffffffffffffffffffffffffffffffffffff1673ffffffffffffffffffffffffffffffffffffffff16815260200191505060405180910390f35b348015610acb57600080fd5b50610ad46125a7565b604051808215151515815260200191505060405180910390f35b348015610afa57600080fd5b50610b5160048036036060811015610b1157600080fd5b8101908080359060200190929190803573ffffffffffffffffffffffffffffffffffffffff16906020019092919080359060200190929190505050612a53565b604051808215151515815260200191505060405180910390f35b348015610b7757600080fd5b50610bf8600480360360a0811015610b8e57600080fd5b810190808035906020019092919080359060200190929190803573ffffffffffffffffffffffffffffffffffffffff169060200190929190803573ffffffffffffffffffffffffffffffffffffffff16906020019092919080359060200190929190505050612b5c565b005b348015610c0657600080fd5b50610c0f612c7c565b604051808215151515815260200191505060405180910390f35b348015610c3557600080fd5b50610c3e612cd0565b604051808215151515815260200191505060405180910390f35b348015610c6457600080fd5b50610cdb60048036036080811015610c7b57600080fd5b810190808035906020019092919080359060200190929190803573ffffffffffffffffffffffffffffffffffffffff169060200190929190803573ffffffffffffffffffffffffffffffffffffffff169060200190929190505050612cee565b005b348015610ce957600080fd5b50610cf2612e05565b604051808273ffffffffffffffffffffffffffffffffffffffff1673ffffffffffffffffffffffffffffffffffffffff16815260200191505060405180910390f35b348015610d4057600080fd5b50610d7760048036036040811015610d5757600080fd5b810190808035906020019092919080359060200190929190505050612e2b565b005b348015610d8557600080fd5b50610e0760048036036040811015610d9c57600080fd5b810190808035906020019092919080359060200190640100000000811115610dc357600080fd5b820183602082011115610dd557600080fd5b80359060200191846020830284011164010000000083111715610df757600080fd5b9091929391929390505050612ed8565b005b348015610e1557600080fd5b50610e1e612fb5565b604051808215151515815260200191505060405180910390f35b348015610e4457600080fd5b50610e4d61362f565b604051808273ffffffffffffffffffffffffffffffffffffffff1673ffffffffffffffffffffffffffffffffffffffff16815260200191505060405180910390f35b610ecf60048036036060811015610ea557600080fd5b81019080803590602001909291908035906020019092919080359060200190929190505050613655565b005b348015610edd57600080fd5b50610f1460048036036040811015610ef457600080fd5b810190808035906020019092919080359060200190929190505050613879565b005b610fa0600480360360c0811015610f2c57600080fd5b81019080803590602001909291908035906020019092919080359060200190929190803573ffffffffffffffffffffffffffffffffffffffff169060200190929190803573ffffffffffffffffffffffffffffffffffffffff16906020019092919080359060200190929190505050613926565b005b348015610fae57600080fd5b50610fb7613a4f565b604051808215151515815260200191505060405180910390f35b348015610fdd57600080fd5b50610fe6613e90565b604051808273ffffffffffffffffffffffffffffffffffffffff1673ffffffffffffffffffffffffffffffffffffffff16815260200191505060405180910390f35b600760009054906101000a900473ffffffffffffffffffffffffffffffffffffffff1681565b6000806064858161105b57fe5b069050600d816064811061106b57fe5b0160009054906101000a900473ffffffffffffffffffffffffffffffffffffffff1673ffffffffffffffffffffffffffffffffffffffff1663d466e4eb85856040518363ffffffff1660e01b8152600401808373ffffffffffffffffffffffffffffffffffffffff1673ffffffffffffffffffffffffffffffffffffffff16815260200182815260200192505050602060405180830381600087803b15801561111357600080fd5b505af1158015611127573d6000803e3d6000fd5b505050506040513d602081101561113d57600080fd5b810190808051906020019092919050505050509392505050565b6000806064858161116457fe5b069050600d816064811061117457fe5b0160009054906101000a900473ffffffffffffffffffffffffffffffffffffffff1673ffffffffffffffffffffffffffffffffffffffff1663cf83544f85856040518363ffffffff1660e01b8152600401808373ffffffffffffffffffffffffffffffffffffffff1673ffffffffffffffffffffffffffffffffffffffff16815260200182815260200192505050602060405180830381600087803b15801561121c57600080fd5b505af1158015611230573d6000803e3d6000fd5b505050506040513d602081101561124657600080fd5b810190808051906020019092919050505050509392505050565b60006064868161126c57fe5b0690506000600d826064811061127e57fe5b0160009054906101000a900473ffffffffffffffffffffffffffffffffffffffff16905060008173ffffffffffffffffffffffffffffffffffffffff1631905060006112cd8289600054613eb6565b9050600086905085156112ea576112e78288600054613fc1565b90505b8373ffffffffffffffffffffffffffffffffffffffff1663650b559c838a848a60008060006040518863ffffffff1660e01b815260040180888152602001878152602001868152602001851515151581526020018473ffffffffffffffffffffffffffffffffffffffff1673ffffffffffffffffffffffffffffffffffffffff1681526020018373ffffffffffffffffffffffffffffffffffffffff1673ffffffffffffffffffffffffffffffffffffffff168152602001828152602001975050505050505050600060405180830381600087803b1580156113cb57600080fd5b505af11580156113df573d6000803e3d6000fd5b5050505050505050505050505050565b6000606484816113fb57fe5b069050600d816064811061140b57fe5b0160009054906101000a900473ffffffffffffffffffffffffffffffffffffffff1673ffffffffffffffffffffffffffffffffffffffff16634c36240b84846040518363ffffffff1660e01b8152600401808381526020018273ffffffffffffffffffffffffffffffffffffffff1673ffffffffffffffffffffffffffffffffffffffff16815260200192505050600060405180830381600087803b1580156114b357600080fd5b505af11580156114c7573d6000803e3d6000fd5b5050505050505050565b600660009054906101000a900473ffffffffffffffffffffffffffffffffffffffff1681565b600360009054906101000a900473ffffffffffffffffffffffffffffffffffffffff1681565b60006064828161152957fe5b069050600d816064811061153957fe5b0160009054906101000a900473ffffffffffffffffffffffffffffffffffffffff1673ffffffffffffffffffffffffffffffffffffffff16634903a3dd6040518163ffffffff1660e01b8152600401600060405180830381600087803b1580156115a257600080fd5b505af11580156115b6573d6000803e3d6000fd5b505050505050565b6000606485816115ca57fe5b069050600d81606481106115da57fe5b0160009054906101000a900473ffffffffffffffffffffffffffffffffffffffff1673ffffffffffffffffffffffffffffffffffffffff16637a97d8388585856040518463ffffffff1660e01b8152600401808481526020018373ffffffffffffffffffffffffffffffffffffffff1673ffffffffffffffffffffffffffffffffffffffff1681526020018273ffffffffffffffffffffffffffffffffffffffff1673ffffffffffffffffffffffffffffffffffffffff1681526020019350505050600060405180830381600087803b1580156116b657600080fd5b505af11580156116ca573d6000803e3d6000fd5b505050505050505050565b6000600b60009054906101000a900473ffffffffffffffffffffffffffffffffffffffff1673ffffffffffffffffffffffffffffffffffffffff166391b7f5ed836040518263ffffffff1660e01b815260040180828152602001915050602060405180830381600087803b15801561174c57600080fd5b505af1158015611760573d6000803e3d6000fd5b505050506040513d602081101561177657600080fd5b810190808051906020019092919050505090508061179057fe5b5050565b6000606483816117a057fe5b069050600d81606481106117b057fe5b0160009054906101000a900473ffffffffffffffffffffffffffffffffffffffff1673ffffffffffffffffffffffffffffffffffffffff16634d37261f836040518263ffffffff1660e01b8152600401808273ffffffffffffffffffffffffffffffffffffffff1673ffffffffffffffffffffffffffffffffffffffff168152602001915050600060405180830381600087803b15801561185057600080fd5b505af1158015611864573d6000803e3d6000fd5b50505050505050565b60006064838161187957fe5b0690506000600d826064811061188b57fe5b0160009054906101000a900473ffffffffffffffffffffffffffffffffffffffff16905060008173ffffffffffffffffffffffffffffffffffffffff1631905060006118da8286600054613eb6565b90508273ffffffffffffffffffffffffffffffffffffffff166332e859b9826000806040518463ffffffff1660e01b8152600401808481526020018373ffffffffffffffffffffffffffffffffffffffff1673ffffffffffffffffffffffffffffffffffffffff1681526020018273ffffffffffffffffffffffffffffffffffffffff1673ffffffffffffffffffffffffffffffffffffffff1681526020019350505050600060405180830381600087803b15801561199857600080fd5b505af11580156119ac573d6000803e3d6000fd5b50505050505050505050565b600080600b60009054906101000a900473ffffffffffffffffffffffffffffffffffffffff1673ffffffffffffffffffffffffffffffffffffffff166398d5fdca6040518163ffffffff1660e01b815260040160206040518083038186803b158015611a2357600080fd5b505afa158015611a37573d6000803e3d6000fd5b505050506040513d6020811015611a4d57600080fd5b810190808051906020019092919050505090506000811415611a73576000915050611a79565b60019150505b90565b600060648981611a8857fe5b069050600d8160648110611a9857fe5b0160009054906101000a900473ffffffffffffffffffffffffffffffffffffffff1673ffffffffffffffffffffffffffffffffffffffff1663650b559c898989898989896040518863ffffffff1660e01b815260040180888152602001878152602001868152602001851515151581526020018473ffffffffffffffffffffffffffffffffffffffff1673ffffffffffffffffffffffffffffffffffffffff1681526020018373ffffffffffffffffffffffffffffffffffffffff1673ffffffffffffffffffffffffffffffffffffffff168152602001828152602001975050505050505050600060405180830381600087803b158015611b9857600080fd5b505af1158015611bac573d6000803e3d6000fd5b50505050505050505050505050565b600080600c60009054906101000a900473ffffffffffffffffffffffffffffffffffffffff1673ffffffffffffffffffffffffffffffffffffffff16631e2231436040518163ffffffff1660e01b815260040160206040518083038186803b158015611c2657600080fd5b505afa158015611c3a573d6000803e3d6000fd5b505050506040513d6020811015611c5057600080fd5b810190808051906020019092919050505090506000600c60009054906101000a900473ffffffffffffffffffffffffffffffffffffffff1673ffffffffffffffffffffffffffffffffffffffff1663765e0159836040518263ffffffff1660e01b8152600401808273ffffffffffffffffffffffffffffffffffffffff1673ffffffffffffffffffffffffffffffffffffffff16815260200191505060206040518083038186803b158015611d0457600080fd5b505afa158015611d18573d6000803e3d6000fd5b505050506040513d6020811015611d2e57600080fd5b810190808051906020019092919050505090505b600073ffffffffffffffffffffffffffffffffffffffff168273ffffffffffffffffffffffffffffffffffffffff1614158015611dac5750600073ffffffffffffffffffffffffffffffffffffffff168173ffffffffffffffffffffffffffffffffffffffff1614155b1561205a57600360009054906101000a900473ffffffffffffffffffffffffffffffffffffffff1673ffffffffffffffffffffffffffffffffffffffff1663b0d8e181836040518263ffffffff1660e01b8152600401808273ffffffffffffffffffffffffffffffffffffffff1673ffffffffffffffffffffffffffffffffffffffff16815260200191505060206040518083038186803b158015611e5057600080fd5b505afa158015611e64573d6000803e3d6000fd5b505050506040513d6020811015611e7a57600080fd5b8101908080519060200190929190505050600360009054906101000a900473ffffffffffffffffffffffffffffffffffffffff1673ffffffffffffffffffffffffffffffffffffffff1663b0d8e181836040518263ffffffff1660e01b8152600401808273ffffffffffffffffffffffffffffffffffffffff1673ffffffffffffffffffffffffffffffffffffffff16815260200191505060206040518083038186803b158015611f2a57600080fd5b505afa158015611f3e573d6000803e3d6000fd5b505050506040513d6020811015611f5457600080fd5b81019080805190602001909291905050501115611f7657600092505050612061565b809150600c60009054906101000a900473ffffffffffffffffffffffffffffffffffffffff1673ffffffffffffffffffffffffffffffffffffffff1663765e0159836040518263ffffffff1660e01b8152600401808273ffffffffffffffffffffffffffffffffffffffff1673ffffffffffffffffffffffffffffffffffffffff16815260200191505060206040518083038186803b15801561201857600080fd5b505afa15801561202c573d6000803e3d6000fd5b505050506040513d602081101561204257600080fd5b81019080805190602001909291905050509050611d42565b6001925050505b90565b60006064858161207057fe5b069050600d816064811061208057fe5b0160009054906101000a900473ffffffffffffffffffffffffffffffffffffffff1673ffffffffffffffffffffffffffffffffffffffff166332e859b98585856040518463ffffffff1660e01b8152600401808481526020018373ffffffffffffffffffffffffffffffffffffffff1673ffffffffffffffffffffffffffffffffffffffff1681526020018273ffffffffffffffffffffffffffffffffffffffff1673ffffffffffffffffffffffffffffffffffffffff1681526020019350505050600060405180830381600087803b15801561215c57600080fd5b505af1158015612170573d6000803e3d6000fd5b505050505050505050565b600460009054906101000a900473ffffffffffffffffffffffffffffffffffffffff1681565b600080606486816121ae57fe5b069050600d81606481106121be57fe5b0160009054906101000a900473ffffffffffffffffffffffffffffffffffffffff1673ffffffffffffffffffffffffffffffffffffffff1663d94bcec28686866040518463ffffffff1660e01b8152600401808473ffffffffffffffffffffffffffffffffffffffff1673ffffffffffffffffffffffffffffffffffffffff1681526020018373ffffffffffffffffffffffffffffffffffffffff1673ffffffffffffffffffffffffffffffffffffffff1681526020018281526020019350505050602060405180830381600087803b15801561229a57600080fd5b505af11580156122ae573d6000803e3d6000fd5b505050506040513d60208110156122c457600080fd5b81019080805190602001909291905050505050949350505050565b6000606487816122eb57fe5b069050600d81606481106122fb57fe5b0160009054906101000a900473ffffffffffffffffffffffffffffffffffffffff1673ffffffffffffffffffffffffffffffffffffffff166335b1017987878787876000806040518863ffffffff1660e01b8152600401808881526020018773ffffffffffffffffffffffffffffffffffffffff1673ffffffffffffffffffffffffffffffffffffffff1681526020018673ffffffffffffffffffffffffffffffffffffffff1673ffffffffffffffffffffffffffffffffffffffff1681526020018573ffffffffffffffffffffffffffffffffffffffff1673ffffffffffffffffffffffffffffffffffffffff168152602001848152602001838152602001828152602001975050505050505050600060405180830381600087803b15801561242457600080fd5b505af1158015612438573d6000803e3d6000fd5b5050505050505050505050565b600560009054906101000a900473ffffffffffffffffffffffffffffffffffffffff1681565b6000806064858161247857fe5b069050600d816064811061248857fe5b0160009054906101000a900473ffffffffffffffffffffffffffffffffffffffff1673ffffffffffffffffffffffffffffffffffffffff1663cc51a6c285856040518363ffffffff1660e01b8152600401808373ffffffffffffffffffffffffffffffffffffffff1673ffffffffffffffffffffffffffffffffffffffff16815260200182815260200192505050602060405180830381600087803b15801561253057600080fd5b505af1158015612544573d6000803e3d6000fd5b505050506040513d602081101561255a57600080fd5b810190808051906020019092919050505050509392505050565b600d816064811061258157fe5b016000915054906101000a900473ffffffffffffffffffffffffffffffffffffffff1681565b600080600c60009054906101000a900473ffffffffffffffffffffffffffffffffffffffff1673ffffffffffffffffffffffffffffffffffffffff16631e2231436040518163ffffffff1660e01b815260040160206040518083038186803b15801561261257600080fd5b505afa158015612626573d6000803e3d6000fd5b505050506040513d602081101561263c57600080fd5b810190808051906020019092919050505090505b600073ffffffffffffffffffffffffffffffffffffffff168173ffffffffffffffffffffffffffffffffffffffff1614612a4a576001600481111561269157fe5b600360009054906101000a900473ffffffffffffffffffffffffffffffffffffffff1673ffffffffffffffffffffffffffffffffffffffff166321e37801836040518263ffffffff1660e01b8152600401808273ffffffffffffffffffffffffffffffffffffffff1673ffffffffffffffffffffffffffffffffffffffff16815260200191505060206040518083038186803b15801561273057600080fd5b505afa158015612744573d6000803e3d6000fd5b505050506040513d602081101561275a57600080fd5b8101908080519060200190929190505050600481111561277657fe5b600481111561278157fe5b14612790576000915050612a50565b600254600360009054906101000a900473ffffffffffffffffffffffffffffffffffffffff1673ffffffffffffffffffffffffffffffffffffffff1663d66a2553836040518263ffffffff1660e01b8152600401808273ffffffffffffffffffffffffffffffffffffffff1673ffffffffffffffffffffffffffffffffffffffff16815260200191505060206040518083038186803b15801561283257600080fd5b505afa158015612846573d6000803e3d6000fd5b505050506040513d602081101561285c57600080fd5b8101908080519060200190929190505050101561287d576000915050612a50565b6000600360009054906101000a900473ffffffffffffffffffffffffffffffffffffffff1673ffffffffffffffffffffffffffffffffffffffff166364cee260836040518263ffffffff1660e01b8152600401808273ffffffffffffffffffffffffffffffffffffffff1673ffffffffffffffffffffffffffffffffffffffff16815260200191505060206040518083038186803b15801561291e57600080fd5b505afa158015612932573d6000803e3d6000fd5b505050506040513d602081101561294857600080fd5b81019080805190602001909291905050501415612969576000915050612a50565b600c60009054906101000a900473ffffffffffffffffffffffffffffffffffffffff1673ffffffffffffffffffffffffffffffffffffffff1663765e0159826040518263ffffffff1660e01b8152600401808273ffffffffffffffffffffffffffffffffffffffff1673ffffffffffffffffffffffffffffffffffffffff16815260200191505060206040518083038186803b158015612a0857600080fd5b505afa158015612a1c573d6000803e3d6000fd5b505050506040513d6020811015612a3257600080fd5b81019080805190602001909291905050509050612650565b60019150505b90565b60008060648581612a6057fe5b069050600d8160648110612a7057fe5b0160009054906101000a900473ffffffffffffffffffffffffffffffffffffffff1673ffffffffffffffffffffffffffffffffffffffff1663390b5f2785856040518363ffffffff1660e01b8152600401808373ffffffffffffffffffffffffffffffffffffffff1673ffffffffffffffffffffffffffffffffffffffff16815260200182815260200192505050602060405180830381600087803b158015612b1857600080fd5b505af1158015612b2c573d6000803e3d6000fd5b505050506040513d6020811015612b4257600080fd5b810190808051906020019092919050505050509392505050565b600060648681612b6857fe5b069050600d8160648110612b7857fe5b0160009054906101000a900473ffffffffffffffffffffffffffffffffffffffff1673ffffffffffffffffffffffffffffffffffffffff1663fb8d67fc868686866040518563ffffffff1660e01b8152600401808581526020018473ffffffffffffffffffffffffffffffffffffffff1673ffffffffffffffffffffffffffffffffffffffff1681526020018373ffffffffffffffffffffffffffffffffffffffff1673ffffffffffffffffffffffffffffffffffffffff168152602001828152602001945050505050600060405180830381600087803b158015612c5c57600080fd5b505af1158015612c70573d6000803e3d6000fd5b50505050505050505050565b600080600560009054906101000a900473ffffffffffffffffffffffffffffffffffffffff1673ffffffffffffffffffffffffffffffffffffffff16311115612cc85760009050612ccd565b600190505b90565b600060146071541115612ce65760009050612ceb565b600190505b90565b600060648581612cfa57fe5b069050600d8160648110612d0a57fe5b0160009054906101000a900473ffffffffffffffffffffffffffffffffffffffff1673ffffffffffffffffffffffffffffffffffffffff16637bbb0f5e8585856040518463ffffffff1660e01b8152600401808481526020018373ffffffffffffffffffffffffffffffffffffffff1673ffffffffffffffffffffffffffffffffffffffff1681526020018273ffffffffffffffffffffffffffffffffffffffff1673ffffffffffffffffffffffffffffffffffffffff1681526020019350505050600060405180830381600087803b158015612de657600080fd5b505af1158015612dfa573d6000803e3d6000fd5b505050505050505050565b600a60009054906101000a900473ffffffffffffffffffffffffffffffffffffffff1681565b600060648381612e3757fe5b069050600d8160648110612e4757fe5b0160009054906101000a900473ffffffffffffffffffffffffffffffffffffffff1673ffffffffffffffffffffffffffffffffffffffff1663f47a1ea7836040518263ffffffff1660e01b815260040180828152602001915050600060405180830381600087803b158015612ebb57600080fd5b505af1158015612ecf573d6000803e3d6000fd5b50505050505050565b600060648481612ee457fe5b069050600d8160648110612ef457fe5b0160009054906101000a900473ffffffffffffffffffffffffffffffffffffffff1673ffffffffffffffffffffffffffffffffffffffff16634afbac5184846040518363ffffffff1660e01b815260040180806020018281038252848482818152602001925060200280828437600081840152601f19601f8201169050808301925050509350505050600060405180830381600087803b158015612f9757600080fd5b505af1158015612fab573d6000803e3d6000fd5b5050505050505050565b600080600a60009054906101000a900473ffffffffffffffffffffffffffffffffffffffff1673ffffffffffffffffffffffffffffffffffffffff166318160ddd6040518163ffffffff1660e01b815260040160206040518083038186803b15801561302057600080fd5b505afa158015613034573d6000803e3d6000fd5b505050506040513d602081101561304a57600080fd5b810190808051906020019092919050505090506000600a60009054906101000a900473ffffffffffffffffffffffffffffffffffffffff1673ffffffffffffffffffffffffffffffffffffffff166370a08231600860009054906101000a900473ffffffffffffffffffffffffffffffffffffffff166040518263ffffffff1660e01b8152600401808273ffffffffffffffffffffffffffffffffffffffff1673ffffffffffffffffffffffffffffffffffffffff16815260200191505060206040518083038186803b15801561312057600080fd5b505afa158015613134573d6000803e3d6000fd5b505050506040513d602081101561314a57600080fd5b810190808051906020019092919050505090506000600560009054906101000a900473ffffffffffffffffffffffffffffffffffffffff1673ffffffffffffffffffffffffffffffffffffffff16635eb52fca6040518163ffffffff1660e01b815260040160206040518083038186803b1580156131c757600080fd5b505afa1580156131db573d6000803e3d6000fd5b505050506040513d60208110156131f157600080fd5b810190808051906020019092919050505090506000600660009054906101000a900473ffffffffffffffffffffffffffffffffffffffff1673ffffffffffffffffffffffffffffffffffffffff16635eb52fca6040518163ffffffff1660e01b815260040160206040518083038186803b15801561326e57600080fd5b505afa158015613282573d6000803e3d6000fd5b505050506040513d602081101561329857600080fd5b8101908080519060200190929190505050905080820184146132c157600094505050505061362c565b6000600760009054906101000a900473ffffffffffffffffffffffffffffffffffffffff1673ffffffffffffffffffffffffffffffffffffffff16639bf2f1ac6040518163ffffffff1660e01b815260040160206040518083038186803b15801561332b57600080fd5b505afa15801561333f573d6000803e3d6000fd5b505050506040513d602081101561335557600080fd5b810190808051906020019092919050505090506000600c60009054906101000a900473ffffffffffffffffffffffffffffffffffffffff1673ffffffffffffffffffffffffffffffffffffffff16631e2231436040518163ffffffff1660e01b815260040160206040518083038186803b1580156133d257600080fd5b505afa1580156133e6573d6000803e3d6000fd5b505050506040513d60208110156133fc57600080fd5b8101908080519060200190929190505050905060005b600073ffffffffffffffffffffffffffffffffffffffff168273ffffffffffffffffffffffffffffffffffffffff161461360557600a60009054906101000a900473ffffffffffffffffffffffffffffffffffffffff1673ffffffffffffffffffffffffffffffffffffffff166370a08231836040518263ffffffff1660e01b8152600401808273ffffffffffffffffffffffffffffffffffffffff1673ffffffffffffffffffffffffffffffffffffffff16815260200191505060206040518083038186803b1580156134e557600080fd5b505afa1580156134f9573d6000803e3d6000fd5b505050506040513d602081101561350f57600080fd5b810190808051906020019092919050505081019050600c60009054906101000a900473ffffffffffffffffffffffffffffffffffffffff1673ffffffffffffffffffffffffffffffffffffffff1663765e0159836040518263ffffffff1660e01b8152600401808273ffffffffffffffffffffffffffffffffffffffff1673ffffffffffffffffffffffffffffffffffffffff16815260200191505060206040518083038186803b1580156135c357600080fd5b505afa1580156135d7573d6000803e3d6000fd5b505050506040513d60208110156135ed57600080fd5b81019080805190602001909291905050509150613412565b8581840101871161362057600097505050505050505061362c565b60019750505050505050505b90565b600960009054906101000a900473ffffffffffffffffffffffffffffffffffffffff1681565b60006064848161366157fe5b0690506000600d826064811061367357fe5b0160009054906101000a900473ffffffffffffffffffffffffffffffffffffffff16905060008173ffffffffffffffffffffffffffffffffffffffff1631905060006136c28287600154613eb6565b905060006136d38287600154613fc1565b90508373ffffffffffffffffffffffffffffffffffffffff166391134731838360008060006040518663ffffffff1660e01b8152600401808681526020018581526020018473ffffffffffffffffffffffffffffffffffffffff1673ffffffffffffffffffffffffffffffffffffffff1681526020018373ffffffffffffffffffffffffffffffffffffffff1673ffffffffffffffffffffffffffffffffffffffff16815260200182815260200195505050505050600060405180830381600087803b1580156137a257600080fd5b505af11580156137b6573d6000803e3d6000fd5b50505050600360009054906101000a900473ffffffffffffffffffffffffffffffffffffffff1673ffffffffffffffffffffffffffffffffffffffff166349eefeee6040518163ffffffff1660e01b815260040160206040518083038186803b15801561382257600080fd5b505afa158015613836573d6000803e3d6000fd5b505050506040513d602081101561384c57600080fd5b810190808051906020019092919050505060718190555060006071541161386f57fe5b5050505050505050565b60006064838161388557fe5b069050600d816064811061389557fe5b0160009054906101000a900473ffffffffffffffffffffffffffffffffffffffff1673ffffffffffffffffffffffffffffffffffffffff1663641b09b6836040518263ffffffff1660e01b815260040180828152602001915050600060405180830381600087803b15801561390957600080fd5b505af115801561391d573d6000803e3d6000fd5b50505050505050565b60006064878161393257fe5b069050600d816064811061394257fe5b0160009054906101000a900473ffffffffffffffffffffffffffffffffffffffff1673ffffffffffffffffffffffffffffffffffffffff16639113473187878787876040518663ffffffff1660e01b8152600401808681526020018581526020018473ffffffffffffffffffffffffffffffffffffffff1673ffffffffffffffffffffffffffffffffffffffff1681526020018373ffffffffffffffffffffffffffffffffffffffff1673ffffffffffffffffffffffffffffffffffffffff16815260200182815260200195505050505050600060405180830381600087803b158015613a2e57600080fd5b505af1158015613a42573d6000803e3d6000fd5b5050505050505050505050565b600080600360009054906101000a900473ffffffffffffffffffffffffffffffffffffffff1673ffffffffffffffffffffffffffffffffffffffff16311115613a9b5760009050613e8d565b6000600460009054906101000a900473ffffffffffffffffffffffffffffffffffffffff1673ffffffffffffffffffffffffffffffffffffffff16311115613ae65760009050613e8d565b600560009054906101000a900473ffffffffffffffffffffffffffffffffffffffff1673ffffffffffffffffffffffffffffffffffffffff166314f6c3be6040518163ffffffff1660e01b815260040160206040518083038186803b158015613b4e57600080fd5b505afa158015613b62573d6000803e3d6000fd5b505050506040513d6020811015613b7857600080fd5b8101908080519060200190929190505050600560009054906101000a900473ffffffffffffffffffffffffffffffffffffffff1673ffffffffffffffffffffffffffffffffffffffff163114613bd15760009050613e8d565b600660009054906101000a900473ffffffffffffffffffffffffffffffffffffffff1673ffffffffffffffffffffffffffffffffffffffff166314f6c3be6040518163ffffffff1660e01b815260040160206040518083038186803b158015613c3957600080fd5b505afa158015613c4d573d6000803e3d6000fd5b505050506040513d6020811015613c6357600080fd5b8101908080519060200190929190505050600660009054906101000a900473ffffffffffffffffffffffffffffffffffffffff1673ffffffffffffffffffffffffffffffffffffffff163114613cbc5760009050613e8d565b600760009054906101000a900473ffffffffffffffffffffffffffffffffffffffff1673ffffffffffffffffffffffffffffffffffffffff166314f6c3be6040518163ffffffff1660e01b815260040160206040518083038186803b158015613d2457600080fd5b505afa158015613d38573d6000803e3d6000fd5b505050506040513d6020811015613d4e57600080fd5b8101908080519060200190929190505050600760009054906101000a900473ffffffffffffffffffffffffffffffffffffffff1673ffffffffffffffffffffffffffffffffffffffff163114613da75760009050613e8d565b6000600a60009054906101000a900473ffffffffffffffffffffffffffffffffffffffff1673ffffffffffffffffffffffffffffffffffffffff16311115613df25760009050613e8d565b6000600b60009054906101000a900473ffffffffffffffffffffffffffffffffffffffff1673ffffffffffffffffffffffffffffffffffffffff16311115613e3d5760009050613e8d565b6000600c60009054906101000a900473ffffffffffffffffffffffffffffffffffffffff1673ffffffffffffffffffffffffffffffffffffffff16311115613e885760009050613e8d565b600190505b90565b600860009054906101000a900473ffffffffffffffffffffffffffffffffffffffff1681565b600080600b60009054906101000a900473ffffffffffffffffffffffffffffffffffffffff1673ffffffffffffffffffffffffffffffffffffffff166398d5fdca6040518163ffffffff1660e01b815260040160206040518083038186803b158015613f2157600080fd5b505afa158015613f35573d6000803e3d6000fd5b505050506040513d6020811015613f4b57600080fd5b8101908080519060200190929190505050905060008111613f6b57600080fd5b6000613f9482613f86600254876140eb90919063ffffffff16565b61417190919063ffffffff16565b9050808611613fa257600080fd5b60008187038681613faf57fe5b06820190508093505050509392505050565b600080600b60009054906101000a900473ffffffffffffffffffffffffffffffffffffffff1673ffffffffffffffffffffffffffffffffffffffff166398d5fdca6040518163ffffffff1660e01b815260040160206040518083038186803b15801561402c57600080fd5b505afa158015614040573d6000803e3d6000fd5b505050506040513d602081101561405657600080fd5b8101908080519060200190929190505050905060008490506000614085600254836141bb90919063ffffffff16565b90506000614094888386614243565b9050858110156140dd576140c3866140b5868b6140eb90919063ffffffff16565b61417190919063ffffffff16565b91506140da6002548361448f90919063ffffffff16565b92505b829450505050509392505050565b6000808314156140fe576000905061416b565b600082840290508284828161410f57fe5b0414614166576040517f08c379a00000000000000000000000000000000000000000000000000000000081526004018080602001828103825260218152602001806146636021913960400191505060405180910390fd5b809150505b92915050565b60006141b383836040518060400160405280601a81526020017f536166654d6174683a206469766973696f6e206279207a65726f0000000000008152506144d9565b905092915050565b600080828401905083811015614239576040517f08c379a000000000000000000000000000000000000000000000000000000000815260040180806020018281038252601b8152602001807f536166654d6174683a206164646974696f6e206f766572666c6f77000000000081525060200191505060405180910390fd5b8091505092915050565b60006142717f1fb1c924071e50c2aa9d7f09291fd7831d6481aed3d64d9a31927fcfdf29670460001b61459f565b61429d7fe7b149e83ffc59b38b39430566aa51ffe74fa9a62f9938fe60d6498035c2084060001b61459f565b6142c97faee8586873401c81b69ef021f1b4b5e621ddc8264ed2170bf01f4cd794b65e9560001b61459f565b60008311156143e0576142fe7f938b7a907927def325175a9b9763324c21d376a1db58b873fc572191995adeee60001b61459f565b61432a7ff3fb017b46a6cc03056717fe487f10efbc4957bbee55feae53211d955232e77d60001b61459f565b6143567f9cce84226470f7604a220b104bc94d4e1416b0a5f92e345811d5a6128b8d335060001b61459f565b600061437d8461436f85886140eb90919063ffffffff16565b61417190919063ffffffff16565b90506143ab7f29c960a6fa3b8822049ee000006565af8f6225894520628c65eb2fc49a99191e60001b61459f565b6143d77fb7ae7f080fe4eb0c3f53fc10df2345210d66b1892b1a75445349a70febf2803460001b61459f565b80915050614488565b61440c7f8def5a1860b799231f1daace23252caf496d44221af1a5212660498a692981dc60001b61459f565b6144387f7a561ef4150ea5b53610168f34b9d8e9711bf468f453fff46192e6af13353e8f60001b61459f565b6144647f57732a23ba8b96e60679d6ddbcc37e1db663eb60ba05c84a212a4c73f10e9b8760001b61459f565b7fffffffffffffffffffffffffffffffffffffffffffffffffffffffffffffffff90505b9392505050565b60006144d183836040518060400160405280601e81526020017f536166654d6174683a207375627472616374696f6e206f766572666c6f7700008152506145a2565b905092915050565b60008083118290614585576040517f08c379a00000000000000000000000000000000000000000000000000000000081526004018080602001828103825283818151815260200191508051906020019080838360005b8381101561454a57808201518184015260208101905061452f565b50505050905090810190601f1680156145775780820380516001836020036101000a031916815260200191505b509250505060405180910390fd5b50600083858161459157fe5b049050809150509392505050565b50565b600083831115829061464f576040517f08c379a00000000000000000000000000000000000000000000000000000000081526004018080602001828103825283818151815260200191508051906020019080838360005b838110156146145780820151818401526020810190506145f9565b50505050905090810190601f1680156146415780820380516001836020036101000a031916815260200191505b509250505060405180910390fd5b506000838503905080915050939250505056fe536166654d6174683a206d756c7469706c69636174696f6e206f766572666c6f77a26469706673582212208a9a46188b4726f7a5e4cc37f07a9b38fb55d31425e3852fcae62335a722e11664736f6c634300060b003360806040523480156200001157600080fd5b5033600360006101000a81548173ffffffffffffffffffffffffffffffffffffffff021916908373ffffffffffffffffffffffffffffffffffffffff1602179055503373ffffffffffffffffffffffffffffffffffffffff16600073ffffffffffffffffffffffffffffffffffffffff167f8be0079c531659141344cd1fd0a4f28419497f9722a3daafe3b4186f6b6457e060405160405180910390a362017e6f80620000bf6000396000f3fe60806040523480156200001157600080fd5b5060043610620005085760003560e01c8063794e5724116200029d578063b82f263d1162000171578063d380a37c11620000e1578063dba1c5f2116200009f578063dba1c5f21462001a00578063e2ac77b01462001a20578063f34862de1462001a7f578063f36b24251462001ada578063f92d34331462001afa578063fe2ba8481462001b1a5762000508565b8063d380a37c146200186a578063d3d6f843146200188a578063d5b3563514620018ef578063d66a25531462001934578063d9a72444146200198f5762000508565b8063c35bc550116200012f578063c35bc550146200175e578063c52861f2146200177e578063c7b55481146200179e578063cbd138ae14620017be578063d293c71014620018055762000508565b8063b82f263d146200158e578063b83f91a214620015d3578063b91af97c146200161f578063bcd37526146200168f578063bf9befb1146200173e5762000508565b8063940a71bc116200020d578063a3a6401711620001cb578063a3a6401714620013c7578063a3f4df7e1462001413578063ae918754146200149b578063b0d8e18114620014e7578063b7f8cf9b14620015425762000508565b8063940a71bc14620012d157806396d711ff14620013025780639976cf4514620013225780639dd233d21462001387578063a20baee614620013a75762000508565b8063807d138d116200025b578063807d138d14620011da57806382fe3eb914620011fa578063887105d314620012415780638da5cb5b14620012615780638f32d59b14620012ad5762000508565b8063794e57241462000fa6578063795d26c31462000fc6578063797250e31462000fe65780637985c5e414620010065780637f7dde4a146200118e5762000508565b8063400c1bec11620003e15780635dba4c4a116200035157806366ca4a21116200030f57806366ca4a211462000d9a5780636ef643381462000dba57806372423c171462000e6457806372fe25aa1462000ec9578063741bef1a1462000ee9578063756b253e1462000f355762000508565b80635dba4c4a1462000c9d57806361ec893d1462000ca9578063631203b01462000cc957806364cee2601462000d0e578063653d46e71462000d695762000508565b806349eefeee116200039f57806349eefeee1462000b685780634e443d9e1462000b885780635733d58f1462000bd15780635d6b480f1462000bf15780635d8c96091462000c425762000508565b8063400c1bec1462000a46578063415a340d1462000a77578063477d66cf1462000aa8578063480cd5781462000aed5780634870dd9a1462000b485762000508565b80631f68f20a116200047d5780632b11551a116200043b5780632b11551a14620009425780632e86bbd814620009625780632f865568146200098257806334c6e49214620009c95780633cc7422514620009fa5762000508565b80631f68f20a146200083b5780631f7af3c3146200085b57806321e3780114620008a757806324092669146200090257806328d28b5b14620009225762000508565b806315d549f111620004cb57806315d549f114620006455780631673c79a14620006a057806318f2817a14620007025780631bf43555146200075d5780631e8b1c2b146200077d5762000508565b8063048c661d146200050d578063060d49a31462000559578063071a754114620005795780630b076557146200059957806312610e9214620005e0575b600080fd5b6200051762001b61565b604051808273ffffffffffffffffffffffffffffffffffffffff1673ffffffffffffffffffffffffffffffffffffffff16815260200191505060405180910390f35b6200056362001b87565b6040518082815260200191505060405180910390f35b6200058362001b8d565b6040518082815260200191505060405180910390f35b620005de60048036036020811015620005b157600080fd5b81019080803573ffffffffffffffffffffffffffffffffffffffff16906020019092919050505062001b92565b005b6200062f60048036036040811015620005f857600080fd5b81019080803573ffffffffffffffffffffffffffffffffffffffff1690602001909291908035906020019092919050505062001cd5565b6040518082815260200191505060405180910390f35b6200068a600480360360208110156200065d57600080fd5b81019080803573ffffffffffffffffffffffffffffffffffffffff16906020019092919050505062001f2b565b6040518082815260200191505060405180910390f35b620006e560048036036020811015620006b857600080fd5b81019080803573ffffffffffffffffffffffffffffffffffffffff16906020019092919050505062002041565b604051808381526020018281526020019250505060405180910390f35b62000747600480360360208110156200071a57600080fd5b81019080803573ffffffffffffffffffffffffffffffffffffffff16906020019092919050505062002065565b6040518082815260200191505060405180910390f35b6200076762002169565b6040518082815260200191505060405180910390f35b62000839600480360360208110156200079557600080fd5b8101908080359060200190640100000000811115620007b357600080fd5b820183602082011115620007c657600080fd5b80359060200191846020830284011164010000000083111715620007e957600080fd5b919080806020026020016040519081016040528093929190818152602001838360200280828437600081840152601f19601f82011690508083019250505050505050919291929050505062002176565b005b620008456200302b565b6040518082815260200191505060405180910390f35b6200086562003031565b604051808273ffffffffffffffffffffffffffffffffffffffff1673ffffffffffffffffffffffffffffffffffffffff16815260200191505060405180910390f35b620008ec60048036036020811015620008bf57600080fd5b81019080803573ffffffffffffffffffffffffffffffffffffffff16906020019092919050505062003057565b6040518082815260200191505060405180910390f35b6200090c62003146565b6040518082815260200191505060405180910390f35b6200092c62003160565b6040518082815260200191505060405180910390f35b6200094c6200317b565b6040518082815260200191505060405180910390f35b6200096c62003219565b6040518082815260200191505060405180910390f35b620009c7600480360360208110156200099a57600080fd5b81019080803573ffffffffffffffffffffffffffffffffffffffff16906020019092919050505062003226565b005b620009f860048036036020811015620009e157600080fd5b810190808035906020019092919050505062003475565b005b62000a0462003478565b604051808273ffffffffffffffffffffffffffffffffffffffff1673ffffffffffffffffffffffffffffffffffffffff16815260200191505060405180910390f35b62000a756004803603602081101562000a5e57600080fd5b81019080803590602001909291905050506200349e565b005b62000aa66004803603602081101562000a8f57600080fd5b8101908080359060200190929190505050620034a1565b005b62000ad76004803603602081101562000ac057600080fd5b8101908080359060200190929190505050620034a4565b6040518082815260200191505060405180910390f35b62000b326004803603602081101562000b0557600080fd5b81019080803573ffffffffffffffffffffffffffffffffffffffff1690602001909291905050506200354c565b6040518082815260200191505060405180910390f35b62000b5262003622565b6040518082815260200191505060405180910390f35b62000b7262003627565b6040518082815260200191505060405180910390f35b62000bb76004803603602081101562000ba057600080fd5b8101908080359060200190929190505050620036be565b604051808215151515815260200191505060405180910390f35b62000bdb6200375c565b6040518082815260200191505060405180910390f35b62000c406004803603604081101562000c0957600080fd5b81019080803573ffffffffffffffffffffffffffffffffffffffff1690602001909291908035906020019092919050505062003768565b005b62000c876004803603602081101562000c5a57600080fd5b81019080803573ffffffffffffffffffffffffffffffffffffffff169060200190929190505050620038cc565b6040518082815260200191505060405180910390f35b62000ca762003d23565b005b62000cb362003fef565b6040518082815260200191505060405180910390f35b62000cf86004803603602081101562000ce157600080fd5b810190808035906020019092919050505062003ff4565b6040518082815260200191505060405180910390f35b62000d536004803603602081101562000d2657600080fd5b81019080803573ffffffffffffffffffffffffffffffffffffffff1690602001909291905050506200409c565b6040518082815260200191505060405180910390f35b62000d986004803603602081101562000d8157600080fd5b810190808035906020019092919050505062004172565b005b62000da462004fc4565b6040518082815260200191505060405180910390f35b62000dff6004803603602081101562000dd257600080fd5b81019080803573ffffffffffffffffffffffffffffffffffffffff16906020019092919050505062005069565b6040518086815260200185815260200184815260200183600481111562000e2257fe5b60ff168152602001826fffffffffffffffffffffffffffffffff166fffffffffffffffffffffffffffffffff1681526020019550505050505060405180910390f35b62000eb36004803603604081101562000e7c57600080fd5b81019080803573ffffffffffffffffffffffffffffffffffffffff16906020019092919080359060200190929190505050620050c8565b6040518082815260200191505060405180910390f35b62000ed36200531e565b6040518082815260200191505060405180910390f35b62000ef36200532a565b604051808273ffffffffffffffffffffffffffffffffffffffff1673ffffffffffffffffffffffffffffffffffffffff16815260200191505060405180910390f35b62000f646004803603602081101562000f4d57600080fd5b810190808035906020019092919050505062005350565b604051808273ffffffffffffffffffffffffffffffffffffffff1673ffffffffffffffffffffffffffffffffffffffff16815260200191505060405180910390f35b62000fb06200538d565b6040518082815260200191505060405180910390f35b62000fd062005399565b6040518082815260200191505060405180910390f35b62000ff06200564c565b6040518082815260200191505060405180910390f35b6200118c60048036036101608110156200101f57600080fd5b81019080803573ffffffffffffffffffffffffffffffffffffffff169060200190929190803573ffffffffffffffffffffffffffffffffffffffff169060200190929190803573ffffffffffffffffffffffffffffffffffffffff169060200190929190803573ffffffffffffffffffffffffffffffffffffffff169060200190929190803573ffffffffffffffffffffffffffffffffffffffff169060200190929190803573ffffffffffffffffffffffffffffffffffffffff169060200190929190803573ffffffffffffffffffffffffffffffffffffffff169060200190929190803573ffffffffffffffffffffffffffffffffffffffff169060200190929190803573ffffffffffffffffffffffffffffffffffffffff169060200190929190803573ffffffffffffffffffffffffffffffffffffffff169060200190929190803573ffffffffffffffffffffffffffffffffffffffff16906020019092919050505062005652565b005b6200119862006ad0565b604051808273ffffffffffffffffffffffffffffffffffffffff1673ffffffffffffffffffffffffffffffffffffffff16815260200191505060405180910390f35b620011e462006af5565b6040518082815260200191505060405180910390f35b6200123f600480360360208110156200121257600080fd5b81019080803573ffffffffffffffffffffffffffffffffffffffff16906020019092919050505062006afb565b005b6200124b62006bf9565b6040518082815260200191505060405180910390f35b6200126b62006eac565b604051808273ffffffffffffffffffffffffffffffffffffffff1673ffffffffffffffffffffffffffffffffffffffff16815260200191505060405180910390f35b620012b762006ed6565b604051808215151515815260200191505060405180910390f35b6200130060048036036020811015620012e957600080fd5b810190808035906020019092919050505062006f2e565b005b6200130c62006f31565b6040518082815260200191505060405180910390f35b62001371600480360360408110156200133a57600080fd5b81019080803573ffffffffffffffffffffffffffffffffffffffff1690602001909291908035906020019092919050505062006f37565b6040518082815260200191505060405180910390f35b620013916200718d565b6040518082815260200191505060405180910390f35b620013b162007193565b6040518082815260200191505060405180910390f35b620013d16200719f565b604051808273ffffffffffffffffffffffffffffffffffffffff1673ffffffffffffffffffffffffffffffffffffffff16815260200191505060405180910390f35b6200141d620071c5565b6040518080602001828103825283818151815260200191508051906020019080838360005b838110156200145f57808201518184015260208101905062001442565b50505050905090810190601f1680156200148d5780820380516001836020036101000a031916815260200191505b509250505060405180910390f35b620014a5620071fe565b604051808273ffffffffffffffffffffffffffffffffffffffff1673ffffffffffffffffffffffffffffffffffffffff16815260200191505060405180910390f35b6200152c60048036036020811015620014ff57600080fd5b81019080803573ffffffffffffffffffffffffffffffffffffffff16906020019092919050505062007224565b6040518082815260200191505060405180910390f35b6200154c62007395565b604051808273ffffffffffffffffffffffffffffffffffffffff1673ffffffffffffffffffffffffffffffffffffffff16815260200191505060405180910390f35b620015bd60048036036020811015620015a657600080fd5b8101908080359060200190929190505050620073bb565b6040518082815260200191505060405180910390f35b620015dd62007459565b604051808273ffffffffffffffffffffffffffffffffffffffff1673ffffffffffffffffffffffffffffffffffffffff16815260200191505060405180910390f35b62001664600480360360208110156200163757600080fd5b81019080803573ffffffffffffffffffffffffffffffffffffffff1690602001909291905050506200747f565b6040518085815260200184815260200183815260200182815260200194505050505060405180910390f35b6200173c600480360360e0811015620016a757600080fd5b8101908080359060200190929190803573ffffffffffffffffffffffffffffffffffffffff169060200190929190803573ffffffffffffffffffffffffffffffffffffffff169060200190929190803573ffffffffffffffffffffffffffffffffffffffff169060200190929190803590602001909291908035906020019092919080359060200190929190505050620077b4565b005b6200174862009310565b6040518082815260200191505060405180910390f35b6200176862009316565b6040518082815260200191505060405180910390f35b620017886200931d565b6040518082815260200191505060405180910390f35b620017a8620093c2565b6040518082815260200191505060405180910390f35b6200180360048036036020811015620017d657600080fd5b81019080803573ffffffffffffffffffffffffffffffffffffffff169060200190929190505050620093ce565b005b62001854600480360360408110156200181d57600080fd5b81019080803573ffffffffffffffffffffffffffffffffffffffff16906020019092919080359060200190929190505050620094ce565b6040518082815260200191505060405180910390f35b6200187462009641565b6040518082815260200191505060405180910390f35b620018d960048036036040811015620018a257600080fd5b81019080803573ffffffffffffffffffffffffffffffffffffffff1690602001909291908035906020019092919050505062009647565b6040518082815260200191505060405180910390f35b6200191e600480360360208110156200190757600080fd5b81019080803590602001909291905050506200989d565b6040518082815260200191505060405180910390f35b62001979600480360360208110156200194c57600080fd5b81019080803573ffffffffffffffffffffffffffffffffffffffff16906020019092919050505062009945565b6040518082815260200191505060405180910390f35b620019be60048036036020811015620019a757600080fd5b810190808035906020019092919050505062009a1b565b604051808273ffffffffffffffffffffffffffffffffffffffff1673ffffffffffffffffffffffffffffffffffffffff16815260200191505060405180910390f35b62001a0a62009ae7565b6040518082815260200191505060405180910390f35b62001a656004803603602081101562001a3857600080fd5b81019080803573ffffffffffffffffffffffffffffffffffffffff16906020019092919050505062009aed565b604051808215151515815260200191505060405180910390f35b62001ac46004803603602081101562001a9757600080fd5b81019080803573ffffffffffffffffffffffffffffffffffffffff16906020019092919050505062009d28565b6040518082815260200191505060405180910390f35b62001ae46200a17f565b6040518082815260200191505060405180910390f35b62001b046200a21d565b6040518082815260200191505060405180910390f35b62001b5f6004803603602081101562001b3257600080fd5b81019080803573ffffffffffffffffffffffffffffffffffffffff1690602001909291905050506200a238565b005b600560009054906101000a900473ffffffffffffffffffffffffffffffffffffffff1681565b60175481565b600281565b62001bc07f3fc47d05b4ccd0ecb5a40186e3acf80bf6ca0da17c55bf174f919e00d187d95260001b620034a1565b62001bee7f97941543502506c2aa35032d68e3c7fb51a172cdef94f859f123369787434a7e60001b620034a1565b62001c1c7fd7e55ec8d82274b7394e12a7cee8f89de848915d68a194cd79f53d51dbd0d6e360001b620034a1565b62001c266200a336565b62001c547fd877d7b9156cf8463a75eb34daf7aa723c96ae5bc3ad82e17b7dd1403bd25ac360001b620034a1565b62001c827fe3de726a3cf39dbe32c11a2c992d3d55c33823360693d293b6e4d19a332aed7060001b620034a1565b62001cd26000809054906101000a900473ffffffffffffffffffffffffffffffffffffffff16600160009054906101000a900473ffffffffffffffffffffffffffffffffffffffff16836200a4c6565b50565b600062001d057f43a74f0b0dfd1f8d8f70990300e89f2f2b14201fc3cb57a353a208ebca98aaae60001b620034a1565b62001d337ffbd85706a4ed01db791af0690b5a4618a035290b5dec5cf2ef1e7a407c8e44f860001b620034a1565b62001d617f850c58250ae346a59c32a9c3b8e517bae761ac07372cbe6d3604831fbab7ff3160001b620034a1565b62001d6b6200a336565b62001d997f5d51e440bac739a77685625e05a9b0963422ccbef5093fdb6cddbe743d6928fc60001b620034a1565b62001dc77fc8916f5a0bad569202adfd30b8d46b45e8e50540ee5dba37df4ba6f66efd1d4160001b620034a1565b600062001e2083600e60008773ffffffffffffffffffffffffffffffffffffffff1673ffffffffffffffffffffffffffffffffffffffff168152602001908152602001600020600001546200ab6390919063ffffffff16565b905062001e507f567bb87cbca6586c00ac3e72b6db7327a9cde856f12ca76336eb5d36bc3ab89f60001b620034a1565b62001e7e7f107c2e54da91a960636ad84d92e844473e6607bea5aca4243027548db477357760001b620034a1565b80600e60008673ffffffffffffffffffffffffffffffffffffffff1673ffffffffffffffffffffffffffffffffffffffff1681526020019081526020016000206000018190555062001ef37fe009c5082f7f86ae20415591930b7ccce73d3ab95c2ac79113c3e11f8db03da860001b620034a1565b62001f217fc454fb32ffc22fcd05db85618c8f8cbc1b8b2c89e6f472683200fef4d21265b160001b620034a1565b8091505092915050565b600062001f5b7f25505faf7f2e880579c197a2cd926309ca8b0146c9ae5e60562829cea5c92da560001b620034a1565b62001f897f9931c78f655f2788c4248a5ffa5e703fdbbfa070524059f40849ddcb84fa249a60001b620034a1565b62001fb77f7e68f1f21292d62aacb4a5aa522882f2c5efd0bef8f622665f45e6bd8de4b76c60001b620034a1565b62001fc16200a336565b62001fef7f6c5d16222258ccc3da0a712e9ea04ef734393eebf14372a329030701577a50df60001b620034a1565b6200201d7f67533a6451e9a365cafecd5fb94f2849c23ddb87b8601f52156eb842fb7f6fd860001b620034a1565b62002028826200abaf565b6fffffffffffffffffffffffffffffffff169050919050565b60146020528060005260406000206000915090508060000154908060010154905082565b6000620020957f243575967ef44c00fdbcbd5c5949dfd3de475ff9d56f09d99cbf88ea5ab6bc5d60001b620034a1565b620020c37f52c01db595376db02241b9c6a6a2901b0f77cc3ce736896c1e802d36965b1dea60001b620034a1565b620020f17fa4b44f8ccdcbd73d34755ca4fc60c0021ac71c254689ed4fe1863e0658aec09c60001b620034a1565b620020fb6200a336565b620021297f7adc09076f9babcd43b7f265902d4b1fc2a51a451eba0c5580976ccd8e83dfcf60001b620034a1565b620021577fbdec40c365a10235f4c1fff1be563eb067321db5f1f8c426e80a413b97a7050660001b620034a1565b62002162826200ae50565b9050919050565b686194049f30f720000081565b620021a47f80aff8158a302dced4aa9b5a3117eae0231c48d3bbfe1306a738525148840fe860001b620034a1565b620021d27f335e8cf5dabf253b939250a9cf7a3bd064ef76a647e39352d150bad65d001cee60001b620034a1565b620022007f5a612ac651ac7b11181400eaa40bf9395a44dc9d54618042b60f8bf5d2dfcd6860001b620034a1565b6200222e7f64078f68258314baf057d2e0d7ff68256ba609459de6312eb402ff436162ff0960001b620034a1565b6000815114156200228b576040517f08c379a000000000000000000000000000000000000000000000000000000000815260040180806020018281038252603681526020018062017cf56036913960400191505060405180910390fd5b620022b97f53784bfd48961f9d4dd3e8099a0dcf6ddfa5fcefb2860080a1e0597050772d6960001b620034a1565b620022e77fde8e962b8c69faffa3c97410ac23d4fd53d0822a3d3600b7cd7df9f11f39b7dc60001b620034a1565b620023157f09c7f7758ff7cc99b0815297e5b3c8995ad29bfd43385fe3999d32332cac048d60001b620034a1565b60008060009054906101000a900473ffffffffffffffffffffffffffffffffffffffff169050620023697fc0dcaf6d6e270583dfdeff9327aeccd0b83eca1cdfb33f79547234468a7e5e8060001b620034a1565b620023977fa700ea0fd2bfaf972e878d06b1ec0949adc0964e46eb04f3e867961b7057d0d960001b620034a1565b6000600160009054906101000a900473ffffffffffffffffffffffffffffffffffffffff169050620023ec7fdfada65056b854a0d91df44499de93b260d44402c5dfef8d5e3aac443bbec8ec60001b620034a1565b6200241a7f2972bae3f3ee9a270bb33ddfcafb0246a041a98a6816ee7f2bdae52bf00cc0d760001b620034a1565b6000600560009054906101000a900473ffffffffffffffffffffffffffffffffffffffff1690506200246f7f6cb0d940986a1077c8868301ea3edeffa8503a64f9df22af5aeff9dac84d3f4760001b620034a1565b6200249d7f4b782985f6a1e8a6bd84fd68bc04a413aab80d032859a81cafe3e9f87fc07acb60001b620034a1565b620024a762017939565b620024d57fb3ba36f78f87dd78c7c714eec82a9f248afe436702a68724eccc287e6fadf60660001b620034a1565b620025037fc55eb4e0efc910dd1edb9a19318205d19268c458d1d911627567108732f6af3660001b620034a1565b6200250d6201796a565b6200253b7ff6cf3f2e36601186722779d780ead3bbf4d760218bb7cb04742fc24d86b6e69e60001b620034a1565b620025697f08bd5d78557439dd5bbc25dad18f68bd4496da39779b1b5f277f6ed6e16a62e060001b620034a1565b600260009054906101000a900473ffffffffffffffffffffffffffffffffffffffff1673ffffffffffffffffffffffffffffffffffffffff16630fdb11cf6040518163ffffffff1660e01b8152600401602060405180830381600087803b158015620025d457600080fd5b505af1158015620025e9573d6000803e3d6000fd5b505050506040513d60208110156200260057600080fd5b8101908080519060200190929190505050826000018181525050620026487f510a678ffce23a5b1b27d76a1bf74bb7aeddc98542a2990ab23580867220633d60001b620034a1565b620026767f4ea2c8f19fb58424057a92f22307199c392a7452eaccb29bd4f8492cedfd7cea60001b620034a1565b8273ffffffffffffffffffffffffffffffffffffffff16639bf2f1ac6040518163ffffffff1660e01b815260040160206040518083038186803b158015620026bd57600080fd5b505afa158015620026d2573d6000803e3d6000fd5b505050506040513d6020811015620026e957600080fd5b8101908080519060200190929190505050826020018181525050620027317f6876ff07b60aa56997ffac8a25613d86412b13b649d8bd543a913855b2222e1560001b620034a1565b6200275f7f7c95d9b0f1331e63d4814e03323b52a159d0aaefd9ed00c6f69116412a0b166260001b620034a1565b6200276e82600001516200b1fb565b826040019015159081151581525050620027ab7fdaf46fe3f066d46dbd1fd62f1e6d7cd8adc976ef97998cd02b1f287a9283a48660001b620034a1565b620027d97f989b13c2026ee064385e81da4e3d0ef8bff9da72484a131a35faa13c6767b6c960001b620034a1565b8160400151156200288d57620028127f77acb46396d2c0e365c890f8a4b0651d9dfa652c9db6e6cc547de7678fee170260001b620034a1565b620028407fe89220192ae5461217875eef837092987625fb74e6b976ae9cae5405e3a1d1b060001b620034a1565b6200286e7feced28b4091b61dd9bf2e1f2760cd6b9326b01723932fc35cb68a407c615e62260001b620034a1565b620028858585846000015185602001518a6200b305565b905062002931565b620028bb7f75e814b6dbfa042fd5a57b43d3a120fb0eb8fc95ddfff6933e54cb153e8cd80a60001b620034a1565b620028e97fa60517c8ee7c88e4a50f4806281edcedc8af71d5f421236dbf1d01a62da8209860001b620034a1565b620029177f403274abc940eca26e8ffde6db4b640d20b50aa71df48d0f6691303d91ec2d8160001b620034a1565b6200292e8585846000015185602001518a6200bfff565b90505b6200295f7f68e30b450e569e28adb0da64b7aee6a975436463258ecaa5d72a65cefb26b06760001b620034a1565b6200298d7f86d5715c3a0f8ffbef96be315f50025154b21e9a5903096ea87a4751a104fd3c60001b620034a1565b620029bb7f8ca206f3eafaa32f8c1e5effe31188d62038424925423bf74216ffaa2cb2d39260001b620034a1565b600081602001511162002a1a576040517f08c379a000000000000000000000000000000000000000000000000000000000815260040180806020018281038252602281526020018062017de96022913960400191505060405180910390fd5b62002a487f2a0d02b45df1f3dbf42a45e7a3557d1a83bf5d46a8afbd37abb5a3f09304c4f160001b620034a1565b62002a767f72180c27e599a75e949004d053dc6a9997015a566162d20b240bba5f5dee60e660001b620034a1565b62002aa47fe0866367ba2e68af7b4b17de66ad003e2607cf7894383904dc13056b4865470a60001b620034a1565b8273ffffffffffffffffffffffffffffffffffffffff1663335525ad82608001518360a001516040518363ffffffff1660e01b81526004018083815260200182815260200192505050600060405180830381600087803b15801562002b0857600080fd5b505af115801562002b1d573d6000803e3d6000fd5b5050505062002b4f7fd5a3b99677e325203ea8c4162580fa480fb9c66d98056f0b93be7465da3169e460001b620034a1565b62002b7d7fc738652321faac318a1384a9b78e0680b42bf7ab71fc250a67cf1d1e0671faf960001b620034a1565b62002b9385858360c001518460e001516200c555565b62002bc17f07453bfae7ebe15056c78c00354c34bff7d61ea41cc099ff1c8a0c7fd2add6bc60001b620034a1565b62002bef7fcdaf49df794d176c6a6cc6483ce5471f7abff548037b94b9cfadbcc9d103ae0860001b620034a1565b6000816101000151111562002d565762002c2c7ffc03fa0611a272afee540c9ae621c4a6ea1ed8dce1251f9fbdc7da4d20cfae6760001b620034a1565b62002c5a7f901954e2ccba9360ce309ca337bfc1e25c8d3c32a38c8ba9ce5b4ca38c4fd36e60001b620034a1565b62002c887fe279f8e56876c7270a15cceb61984b099432dd383d04c53b485900f434b1a6f260001b620034a1565b8473ffffffffffffffffffffffffffffffffffffffff166364a197f3600760009054906101000a900473ffffffffffffffffffffffffffffffffffffffff168361010001516040518363ffffffff1660e01b8152600401808373ffffffffffffffffffffffffffffffffffffffff1673ffffffffffffffffffffffffffffffffffffffff16815260200182815260200192505050600060405180830381600087803b15801562002d3757600080fd5b505af115801562002d4c573d6000803e3d6000fd5b5050505062002d85565b62002d847fbfd6161e6e9f0eb8d07b54356e441ef99e2903de6828692b27a9c1568ef8f41d60001b620034a1565b5b62002db37f38ac585939299bd043c714ca85701d45f6a5db9a98f9d7c6c4b443da6a3f469860001b620034a1565b62002de17fbc83fbed5ad4fceca95ef5c7c0766b1cba764ac6633cfdf207edda0c51096d0060001b620034a1565b62002df18582604001516200cdd2565b62002e1f7f6ebc59a1e1d2590f9bb9a7032416433191475c57e4220b19df7c033884cda86160001b620034a1565b62002e4d7f3cab36531d07484f4c5cee0f3cf09ecf494f96d8128a616958cd01568f31c5b660001b620034a1565b806020015182606001818152505062002e897f7a123439068d282b9e3b070ddb603ec7607bf4b9ad0e85abdb4b9a2fb52be01f60001b620034a1565b62002eb77f02ae1c3a59359b03f41bfb6fbf66d4ccf655c89f24c9887fb2dd49ccd2b2ac0560001b620034a1565b62002eed81610100015162002ede836040015184600001516200ab6390919063ffffffff16565b6200ab6390919063ffffffff16565b82608001818152505062002f247fb9c9eb9dbd02d67d67c2bf5eee3ae810f4bdd8987af4ae34d3e1f6ebaee4006960001b620034a1565b62002f527f12d317d884b412eecce6a4d125c4adab127f3fedfdf736c8162ba322476d97b860001b620034a1565b7f4152c73dd2614c4f9fc35e8c9cf16013cd588c75b49a4c1673ecffdcbcda940382606001518360800151836040015184606001516040518085815260200184815260200183815260200182815260200194505050505060405180910390a162002fdf7f79bf87406f94791963f2e4570c3994f096fefcd92545eb3b35e9d0e025b11f2f60001b620034a1565b6200300d7f220a2b6e57c103e290a3e3f6f0213fff7155b5a9c923917d9f1fac1bbd2cf85b60001b620034a1565b620030238533836060015184604001516200d17f565b505050505050565b600c5481565b600960009054906101000a900473ffffffffffffffffffffffffffffffffffffffff1681565b6000620030877f3ec66fc062b3047b9152410b7af7de54d1c45c6e8ea72d87c5e8622411c086d660001b620034a1565b620030b57fe1ad64985622f4f374d7bfdb24e6cf0365302cee3fb92c16727a8453c68374c060001b620034a1565b620030e37ff9cd3dc9cb1b816081f9e0a57dee0ba74d59810f6e503fc2b3a1715edc87487e60001b620034a1565b600e60008373ffffffffffffffffffffffffffffffffffffffff1673ffffffffffffffffffffffffffffffffffffffff16815260200190815260200160002060030160009054906101000a900460ff1660048111156200313f57fe5b9050919050565b60056064670de0b6b3a7640000816200315b57fe5b040281565b60056103e8670de0b6b3a7640000816200317657fe5b040281565b6000620031ab7f3706c63f1ebb4a5e7be6661f55a37aa8c330615a2963dcbf24c8d4cad003592d60001b620034a1565b620031d97fe8e53dac03bd07a1d9f9ed4163bf51189f66d54525fdf717f1c4db3596cdfbeb60001b620034a1565b620032077f0d118ed2799ac226001dd1d4816a3d6abb5f786a66584d78d2f6d8d7468afca260001b620034a1565b62003214600c546200d5b7565b905090565b680ad78ebc5ac620000081565b620032547fa0458765093cc7eb75e79dda2c0c2d257a403b829daf561053f5a72add2ef13760001b620034a1565b620032827ffee0523af0434eacce7e775744523112f521cfd31669eb147cc845148e378e0b60001b620034a1565b620032b07f855fb56422833260628c46e03eec0ccd389f2a884886982c28e486a357e3d78c60001b620034a1565b620032bb816200d689565b620032e97fd3bbedb637c6285d7151a6a932dd8fdce4008075a120cc5c60b451a448e9e7a860001b620034a1565b620033177fdd16e4a910d028d2d329a48963b46c3a280df0ac1f729abfd8cf544fc5fc44a860001b620034a1565b6060600167ffffffffffffffff811180156200333257600080fd5b50604051908082528060200260200182016040528015620033625781602001602082028036833780820191505090505b509050620033937f937a518bff6819095f4bac1c8808afe3e6430f480b8d13b81d4a2ce895ad806d60001b620034a1565b620033c17fe09c1ca0efb1ff1d9966eb91322bfcde4c9583617bc1a508d051924cc243c9e760001b620034a1565b8181600081518110620033d057fe5b602002602001019073ffffffffffffffffffffffffffffffffffffffff16908173ffffffffffffffffffffffffffffffffffffffff1681525050620034387f6a91cadd2fc914fa58ba66e90efe8d1ff99a138898203239f0cad050447968c860001b620034a1565b620034667f1125eae9a811ae849bb2defb10ace2053414318ee6a5ba3170ef51f0dfa69b7a60001b620034a1565b620034718162002176565b5050565b50565b600160009054906101000a900473ffffffffffffffffffffffffffffffffffffffff1681565b50565b50565b6000620034d47fed400ab49905e33f48fd2a0d2e0bc4201623adbacadb1977cc4e7d3b487c232060001b620034a1565b620035027fcd92a7ce35eb0d32cbcb60b667f37e9384ec3934ecf40d29beb59cf61771be2e60001b620034a1565b620035307f33f5d61dfda265f4ee3c85143bda2521a2bcd24a77bbedb0293a3e57241dbee560001b620034a1565b620035456200353e62004fc4565b836200d834565b9050919050565b60006200357c7f736b237be7eb0888d8d8e72cbc216b55fffa40f02c1f0032f693a99612aa65ee60001b620034a1565b620035aa7fb79b4e83dbdd7b6b38d20d5024dfc52bf25c67cfbdf30e626adfeb548a13615c60001b620034a1565b620035d87f2594b87dee3e7a377755460df7df242685561739d8c330a78810446e9374f7b060001b620034a1565b600e60008373ffffffffffffffffffffffffffffffffffffffff1673ffffffffffffffffffffffffffffffffffffffff168152602001908152602001600020600101549050919050565b60c881565b6000620036577f9dc2b00eb8cedb2660ea475cdac72d705da5799ea7ba6326be91c4904598613a60001b620034a1565b620036857f8d31f09e49de8652e47173b4b9e53ff1cdb77e6052e046b3d63d3af5c48fe62260001b620034a1565b620036b37f495c053249dc1561954f7c198ef8067f65a7718552c34c4609087f0487c87d8160001b620034a1565b601580549050905090565b6000620036ee7f4dc8d978214750240539b16922c26df88f332c91b473eea3a53df25439b71a7860001b620034a1565b6200371c7f86f219bd15bafe9e2e78d316adcf56ad5c05d954a8eb71fff022e933ef761bb160001b620034a1565b6200374a7fc2a2ca0ac841c8cf92ab5a8f8b185210927b2e34c1b54de24fecbf2e7119128160001b620034a1565b62003755826200b1fb565b9050919050565b6714d1120d7b16000081565b620037967f0c634aa45b932ad555431f2e72355912916fccb15b95b2dfd9dfd647b54b939660001b620034a1565b620037c47fadd9399c88eaa8213d7dbb1998df0ae5c6730bc3190e45c18b0435006b73180160001b620034a1565b620037f27fc2071d78c25e52c0c65c90156d99b85884d27167c9ca36b0b01de29375800e0960001b620034a1565b620037fc6200a336565b6200382a7ff78a69c960c0e2f68342d3c56abc4f0e4a1bc18c6959764fc15f79be98690f2860001b620034a1565b620038587f57431fb30c775f530ebf01092ddcead52d2cc3894a48100dff9c03061067be2860001b620034a1565b8060048111156200386557fe5b600e60008473ffffffffffffffffffffffffffffffffffffffff1673ffffffffffffffffffffffffffffffffffffffff16815260200190815260200160002060030160006101000a81548160ff02191690836004811115620038c357fe5b02179055505050565b6000620038fc7fa7bb985d2e0736b7e68a7ccf0d5d5c7cc6ead02034fbc2cebd5454f41557319a60001b620034a1565b6200392a7f2797c43bb51d14b9ed04c48a88f6f4ff7e130cb685177d5b47ef46c1296119a960001b620034a1565b620039587fcb09afcf2d63281e5ae35392084eab30da41eb8835426a044740bba6bed808f060001b620034a1565b6000601460008473ffffffffffffffffffffffffffffffffffffffff1673ffffffffffffffffffffffffffffffffffffffff168152602001908152602001600020600001549050620039cd7ff6670698eb91de06706a54527903f9121b44a8eadbb130190654f1a15af1283960001b620034a1565b620039fb7f14e7545a78b2a97e2e9d7b2485a825458bbf84b90ff072fa65ca1475add606ad60001b620034a1565b600062003a14826012546200ab6390919063ffffffff16565b905062003a447f88d2d89f14a0f8fde752df16c33eb6fe0284e05e91f811acc3cba9fc8780a56d60001b620034a1565b62003a727f1d54faa1d2ae79f142ffccb2a65efa2bcc57783f95a10b0d61f06550cf63379860001b620034a1565b600081148062003aea57506001600481111562003a8b57fe5b600e60008673ffffffffffffffffffffffffffffffffffffffff1673ffffffffffffffffffffffffffffffffffffffff16815260200190815260200160002060030160009054906101000a900460ff16600481111562003ae757fe5b14155b1562003b585762003b1e7f97efd713edfdebef800f4fcdfb3cb708b8ad6a566eda25e48ef64801923a032660001b620034a1565b62003b4c7f6aba87d1b1851a230e9be434a9cdf606fda6a4619ea3b037a08e9a6670e27cc560001b620034a1565b60009250505062003d1e565b62003b867f9268dc414fdf25552cd27678b80b8784c07b5f7d7aeeca8ad1b4309f68cf09a960001b620034a1565b62003bb47f61f86571ae309b357ef348ba1f6ab0be9d1794eec63fd4a076dfc2f353419cd460001b620034a1565b62003be27fee05fc4271762177365598bb9d424d9876ce8ea914946d6a6eeab414b8e6878560001b620034a1565b6000600e60008673ffffffffffffffffffffffffffffffffffffffff1673ffffffffffffffffffffffffffffffffffffffff16815260200190815260200160002060020154905062003c577faf49ce0546867edc8c41a602e79db716bc677f55781413532d846f251762b35660001b620034a1565b62003c857ff46bca951a45db22e32c02df5c9706aa132027c27371f375bce9fb3efbb92fc360001b620034a1565b600062003cb8670de0b6b3a764000062003ca985856200d8f990919063ffffffff16565b6200d98490919063ffffffff16565b905062003ce87f75c2ededdb0073f98ccf016c1dd04bada5606ccaabc985192ddc1bc51e276d8260001b620034a1565b62003d167f997d3fd48fe56cc867bef5eed5dcff676223b63b3ba3812ad6ac5226f4b26e5e60001b620034a1565b809450505050505b919050565b62003d517fd99299f67101ad09887260d59911c0001d39424fc188486193b8a34f0160b59460001b620034a1565b62003d7f7f1cab4028d8c33d1eb7281fdfffcdf8f8609d5b68e3123e600e448ce41e0cf26860001b620034a1565b62003dad7ff9ba6ed5abeeb4b4cf92e01911d9384e1d4f2c0acfccbb6507ddceb3030e795c60001b620034a1565b62003db76200a336565b62003de57f413a037c150c3f378332d2518f22cdc778e78db75a6d4149e8d4761b86a5ab3e60001b620034a1565b62003e137f577f07b9b9a091e26ed73792bf2b095a6de5b6b71a18b84dcb9d963d816ae7a460001b620034a1565b600062003e1f6200d9d0565b905062003e4f7f53eb4be50cf0146f52a056af5a8b02613c01fc781f0875641bcb441577c64ef760001b620034a1565b62003e7d7f61f1111945169c7349aa19387f694882e3f2ed697c33181cf4b27eab33862a8060001b620034a1565b670de0b6b3a764000081111562003e9057fe5b62003ebe7f2608c88ed1b79f90502ea09ed2cfdfc8fae37c67873f96214a80d750a3bd175f60001b620034a1565b62003eec7f202062ae92e6ce8c25d32dbdc1b47c32d440de6644851c0cb28d3e98c1c0d65c60001b620034a1565b80600c8190555062003f217fdaffc7cd0749b1281cdac54151fbe6be350db85b8d7d2d60ff49c07007a5faf060001b620034a1565b62003f4f7fe049f97db6c054bbe116726fa730ad0e9dc99d29d7edb5b775ecc3f064b3047c60001b620034a1565b7fc454ee9b76c52f782a256af821b857ca6e125d1e3333bcede402fec2bed9600c816040518082815260200191505060405180910390a162003fb47f9ef64e61156980f6fee94ee9572e956b5931ebd8b20257b65a5a68360c827f1060001b620034a1565b62003fe27f3223d882377a81f180813ad82844e543478cbcb3e325a3a7eda4a394f890e1cb60001b620034a1565b62003fec6200db74565b50565b603c81565b6000620040247f20de5d92743212bf3bef1959fd01d555b3a74452ad5b9d9e1329e577d50b10f160001b620034a1565b620040527fc53026e80e66759d0b39165740211ce707453d3fee0b1137f3bc4537ccdbcb6160001b620034a1565b620040807fb1dcb3a7e3a4eaa3adb8e146be0e3d4871bea0593ae3696c07698df737186e9860001b620034a1565b620040956200408e6200a17f565b836200d834565b9050919050565b6000620040cc7f12e71b906ca83656931c600db60eae4d4d38ea25f69adb578f209b6256f81b4a60001b620034a1565b620040fa7f71dac53bc006e9d4451fb0803b8c2ec75bf2b4cc3fa88390a85012765ca8af3d60001b620034a1565b620041287ff10e98a47575e75247950387d1f1f9090653fff0ddae3ead235fbaa3dc6db4d260001b620034a1565b600e60008373ffffffffffffffffffffffffffffffffffffffff1673ffffffffffffffffffffffffffffffffffffffff168152602001908152602001600020600201549050919050565b620041a07f9234e7de9d95cfb85a0d5d9ceca31749875fe7a7ab8e1039e1bdb69897c0e4bd60001b620034a1565b620041ce7fcb0000e85df74b8e73faded7bc309696b8637be517fe208a431026dc41681bd460001b620034a1565b620041fc7f9f90fa1df20f4ce1a43a7c0966e81d49d2adf96631f81a22b5a3311e171b8f3360001b620034a1565b62004206620179b6565b6040518060e001604052806000809054906101000a900473ffffffffffffffffffffffffffffffffffffffff1673ffffffffffffffffffffffffffffffffffffffff168152602001600160009054906101000a900473ffffffffffffffffffffffffffffffffffffffff1673ffffffffffffffffffffffffffffffffffffffff168152602001600073ffffffffffffffffffffffffffffffffffffffff168152602001600073ffffffffffffffffffffffffffffffffffffffff168152602001600b60009054906101000a900473ffffffffffffffffffffffffffffffffffffffff1673ffffffffffffffffffffffffffffffffffffffff168152602001600073ffffffffffffffffffffffffffffffffffffffff168152602001600073ffffffffffffffffffffffffffffffffffffffff1681525090506200436c7fba35b24037ef6188ca05e26e5e4de7502f083cc51f9259943dec8bf37954ed6360001b620034a1565b6200439a7f63ad4376f230dfb36059bce6acce7c0459e433488ebe34b55cf98adac2be486660001b620034a1565b6000600560009054906101000a900473ffffffffffffffffffffffffffffffffffffffff169050620043ef7f48d96b0c7dfe451057b8eb00039a74806954f5a461d0a5f7b7fdaf6ae433aaf960001b620034a1565b6200441d7f5152d416d1a10b25e01daeabbdbf6ec616b677de74dda22b5b725624fd9fc5c660001b620034a1565b6200442762017939565b620044557f5c86da97da0492408327997ef47500c2fa89bf9d26173edc9bd1daeaaa168a0d60001b620034a1565b620044837fc79bc2ca87498d9b9b71dafa5e2077f62a7594d24b36f10f7367d5ef3b8461ba60001b620034a1565b6200448d6201796a565b620044bb7fec4fcb1e0947caf6cc3c292f61704446f4a4611e95159541d547145feda81b2460001b620034a1565b620044e97f427ca882a64be6864a41b59069e70f277715084368a8405e8962bca75154215660001b620034a1565b600260009054906101000a900473ffffffffffffffffffffffffffffffffffffffff1673ffffffffffffffffffffffffffffffffffffffff16630fdb11cf6040518163ffffffff1660e01b8152600401602060405180830381600087803b1580156200455457600080fd5b505af115801562004569573d6000803e3d6000fd5b505050506040513d60208110156200458057600080fd5b8101908080519060200190929190505050826000018181525050620045c87f942d83938abc79dba173986bb8dfd7cd641372c933e169c7939c62af5e36a2a460001b620034a1565b620045f67f4f38a06d3f5913b8a301d6f4dca052c93b9322eb0448cccad4e7fd651ec76eb160001b620034a1565b8273ffffffffffffffffffffffffffffffffffffffff16639bf2f1ac6040518163ffffffff1660e01b815260040160206040518083038186803b1580156200463d57600080fd5b505afa15801562004652573d6000803e3d6000fd5b505050506040513d60208110156200466957600080fd5b8101908080519060200190929190505050826020018181525050620046b17f833a7a99a86ba571089613280afe6415c2094619746c9b3ebde03226d8f6e9d960001b620034a1565b620046df7feedb02144b32ab6c69e137709a753f62166448b3ecebd34f85525c65afc2312a60001b620034a1565b620046ee82600001516200b1fb565b8260400190151590811515815250506200472b7ffaa9b06d5e84027b4a77d78611c72adcf24908e9a26fd448b3e64a57bd85ed4860001b620034a1565b620047587e5b36b674bfd014742a507fbfc34066834cd39f81fbb1dfe0358a315f3c917060001b620034a1565b8160400151156200480b57620047917f7bd274ee6b389d219c789cabcac51b3a75d7bc2d29dad60e8794f56fb83fd44860001b620034a1565b620047bf7fdaec4ddcbdd41b8dbadc9f5c2b412822ffb08970930af0f14b83682531005a5860001b620034a1565b620047ed7f1b8f7085e8ca8829eda86648a6a1700b5810edc65e02d32109ddfd5b7a35b72b60001b620034a1565b620048038483600001518460200151886200ddd9565b9050620048b7565b620048397f587337dd3be9860141317e407d169270f64dae67f53358e91bd2e287136d108260001b620034a1565b620048677fefdcc951ea40c172dd58fb5a14ba92f75b825bf48ecc7646242c995c9fd3496760001b620034a1565b620048957f910ba8854469c20f6c29762ef1c41c554ea28dfefff5b43aaa8bbf0af6dc85f360001b620034a1565b620048b48460000151856020015184600001518560200151896200ecfc565b90505b620048e57fb61ce7c18006b3b47fbbe6262dd7365b75bf37661250fc05a3640132899abe7360001b620034a1565b620049137fa95117ce78e131e1cd48b473e165c13f4abca763583e7b24e07c64226c69176d60001b620034a1565b620049417f356a5f117f808dbf53a971d3791548a5e8338fead986be8d1bddc624e7d70fd560001b620034a1565b6000816020015111620049a0576040517f08c379a000000000000000000000000000000000000000000000000000000000815260040180806020018281038252602281526020018062017de96022913960400191505060405180910390fd5b620049ce7f041e6d4c504c3b1ef0294d04eb9df277e7b85081116b73b0930f499c4a1cbda060001b620034a1565b620049fc7f8d23f06a747d164a3637f159358952d462f43f08d4149e39db913ef272fa051160001b620034a1565b62004a2a7f1b47dfd9165ee45c069aabe6944046d96a339338627373185761160abc445aa460001b620034a1565b8273ffffffffffffffffffffffffffffffffffffffff1663335525ad82608001518360a001516040518363ffffffff1660e01b81526004018083815260200182815260200192505050600060405180830381600087803b15801562004a8e57600080fd5b505af115801562004aa3573d6000803e3d6000fd5b5050505062004ad57f831231c6dd0972a5f96d5bdb1cd79e46cefa8e6300de73b935053c96f77e263e60001b620034a1565b62004b037f137d15be40dc8319e7df702857c5203e781a813022ab54844ea9d6ecfbf35c5060001b620034a1565b62004b21846000015185602001518360c001518460e001516200c555565b62004b4f7f095c2a4adf89f0a0b466b853ec38b04ae5e2b49d474bf34c3b0e340ef188f86f60001b620034a1565b62004b7d7f950ad71e1dcc3a08c5a8ce29f6d8eb4cf092662b39cc6ba9c7be49dd4980b5d060001b620034a1565b6000816101000151111562004ce85762004bba7fd89adcdbe0b6c620001cf2427dcd8089785fbdfdca7141979168fc4cbb39991b60001b620034a1565b62004be87f6165a5d5a042f848140734f1a2c164c9f4e4e79db26d0530933273a4f53722ab60001b620034a1565b62004c167fd12c94cf9a58ed47d81f50255eeb32daf88d77878b48fd9e8154837a284908e660001b620034a1565b836000015173ffffffffffffffffffffffffffffffffffffffff166364a197f3600760009054906101000a900473ffffffffffffffffffffffffffffffffffffffff168361010001516040518363ffffffff1660e01b8152600401808373ffffffffffffffffffffffffffffffffffffffff1673ffffffffffffffffffffffffffffffffffffffff16815260200182815260200192505050600060405180830381600087803b15801562004cc957600080fd5b505af115801562004cde573d6000803e3d6000fd5b5050505062004d17565b62004d167f91338c0c5a063134c942e3337e5558dc6524d0786fd01e4c1d503ab2eb39950560001b620034a1565b5b62004d457f3a085a0abb054e64a3387e6ed05c5cc2d05a71a388194b0234d1c9ec36bcefe460001b620034a1565b62004d737fced5900d2eb1f8b9dd6b92b5cf8f0a4a940c4a3f27ca4d81c5310b34bcccbcf360001b620034a1565b62004d87846000015182604001516200cdd2565b62004db57f8e3c82597416d67537ed7dd202ed690822f44fa9189bdff72b3f89a90550c48360001b620034a1565b62004de37fc37af7ab77c87be1e769e5d570073037727601f31f1283de7d0ca8cafc87246a60001b620034a1565b806020015182606001818152505062004e1f7fb0a5c0787b303188e46f6c3e8573e0c423468a280924e6057d1c0e4b66e47a8660001b620034a1565b62004e4d7ff2db0cd7d2a0bcf0133fe4cae1cc395f5d71f5e429a98806fb578f5e9bc613a460001b620034a1565b62004e8381610100015162004e74836040015184600001516200ab6390919063ffffffff16565b6200ab6390919063ffffffff16565b82608001818152505062004eba7fcb815eb9570cd8737e14c94e1a47f1e0f02b4348aedec969031521715c20c87960001b620034a1565b62004ee87f93137d719d8914d59e9d0a6c25a80899f6577fe420bf48543dcc9363fca328f160001b620034a1565b7f4152c73dd2614c4f9fc35e8c9cf16013cd588c75b49a4c1673ecffdcbcda940382606001518360800151836040015184606001516040518085815260200184815260200183815260200182815260200194505050505060405180910390a162004f757f3acd823d2c90ad64af9ccd8261eb3c321150344aefc793863b27bbb1d69a044760001b620034a1565b62004fa37fd8a6dcedbff477e2012dcc3fe4f557b9b1732c420be2a9d5c6294a665b26127d60001b620034a1565b62004fbd846000015133836060015184604001516200d17f565b5050505050565b600062004ff47f4e3ca4dcd7fcfcd644c1572926bb58c9b79998f0023683326c45a0c3a31cc99360001b620034a1565b620050227fb1fe8377fe41f8d9be6289dd8ee299091feb9fb5d7ba400963d270394f291d9460001b620034a1565b620050507f1ee16ad460441265af08dccaa3382d2784cdaea3ed98820ccb617345b1824ff060001b620034a1565b620050646200505e6200d9d0565b6200f345565b905090565b600e6020528060005260406000206000915090508060000154908060010154908060020154908060030160009054906101000a900460ff16908060030160019054906101000a90046fffffffffffffffffffffffffffffffff16905085565b6000620050f87fd5b156a085743141cc48d0ba7c576524d46d910d8cf09e1a09ad850cfe86873860001b620034a1565b620051267f681771dfdc8a3e371c43b7c3fdb9781a1db53afefe56bad95451629c724f6c1f60001b620034a1565b620051547fd6ad0d4e80aa9114e4c38759c251b1a1628e7d8129da30425c1e54884e58a36760001b620034a1565b6200515e6200a336565b6200518c7f8f2b60fd297b2d4f7c69dd63911cab9e9ccd7abe85b494053159e7510da9145460001b620034a1565b620051ba7fd9c5b942c095959656994ff9efff660c8fadde517a7a66c8479f163139dca5e860001b620034a1565b60006200521383600e60008773ffffffffffffffffffffffffffffffffffffffff1673ffffffffffffffffffffffffffffffffffffffff168152602001908152602001600020600101546200f42590919063ffffffff16565b9050620052437f7572680e8e112347006e8fd2ae24b68177cc0f733f384b7463311aef600b54b460001b620034a1565b620052717f81b063218cc67650c3f0c78b6a8e5b3d37854fcfaeb8c41dc4ab44fcf144aca960001b620034a1565b80600e60008673ffffffffffffffffffffffffffffffffffffffff1673ffffffffffffffffffffffffffffffffffffffff16815260200190815260200160002060010181905550620052e67f8927273e061e240f1f01494f0d7bba87b0b8ccc189cc117bec2720934ee8dfae60001b620034a1565b620053147f88e6da28b7fc2fbde09d358cb8820f20b40452078c51e8e25e1da17028d88d2d60001b620034a1565b8091505092915050565b670de0b6b3a764000081565b600260009054906101000a900473ffffffffffffffffffffffffffffffffffffffff1681565b601581815481106200535e57fe5b906000526020600020016000915054906101000a900473ffffffffffffffffffffffffffffffffffffffff1681565b670f43fc2c04ee000081565b6000620053c97fffed618358291ba6891e1754cb73cb764c0581799afe3edc4c8d5e33b5d69dec60001b62003475565b620053f77ff0efb67b0790e4a16906291f0f5b33c4b9e350c5c12e5dc419b35b3e2a7643fd60001b62003475565b620054257fe39126d6b608bc17f868ee02cec3987f5c9f0eb5a2861fa1ee436805d724101360001b62003475565b60008060009054906101000a900473ffffffffffffffffffffffffffffffffffffffff1673ffffffffffffffffffffffffffffffffffffffff16635eb52fca6040518163ffffffff1660e01b815260040160206040518083038186803b1580156200548f57600080fd5b505afa158015620054a4573d6000803e3d6000fd5b505050506040513d6020811015620054bb57600080fd5b81019080805190602001909291905050509050620054fc7fd5c5e3697c84f44fc96c4b00a5092a8a17c44788644672edc404df8b4f33e79e60001b62003475565b6200552a7fccbc594bc92408b9e1a354fa088e5742270d98347611534f0ec71b706cce5dbf60001b62003475565b6000600160009054906101000a900473ffffffffffffffffffffffffffffffffffffffff1673ffffffffffffffffffffffffffffffffffffffff16635eb52fca6040518163ffffffff1660e01b815260040160206040518083038186803b1580156200559557600080fd5b505afa158015620055aa573d6000803e3d6000fd5b505050506040513d6020811015620055c157600080fd5b81019080805190602001909291905050509050620056027f2fcafe17cc1fa0b07af62f32ccc025484a46246a27b7f7fda3a9022f884c2ca660001b62003475565b620056307fbfd7ce3f2a0b31b728bd9f37aef94976a0d07e75cf5275f67bafe240332777d760001b62003475565b6200564581836200f42590919063ffffffff16565b9250505090565b60165481565b6200565c62006ed6565b620056cf576040517f08c379a00000000000000000000000000000000000000000000000000000000081526004018080602001828103825260208152602001807f4f776e61626c653a2063616c6c6572206973206e6f7420746865206f776e657281525060200191505060405180910390fd5b620056fd7f439d2539865b80e3d7a73aed3cd2650a5eab0268eea8fd2a845cad44ee74a94460001b620034a1565b6200572b7f09f338c68b731bac37487c5ce77f5304f2421011bfeb7a9a4004e8e21e87688960001b620034a1565b620057597f161dc3aa0ff5a27b401a741b17cb9150e0298eb281bc004b655ea0da2d8a86ac60001b620034a1565b620057648b6200f4ae565b620057927f3cb5923543417fd4a16e546c6ed4f14a8e3e3835f3acb2c2d1cdc569699c082e60001b620034a1565b620057c07f5048359ff8bf52bdf7bfe8f371fa68268843dfa770bb3ccc23e6e7eada17725660001b620034a1565b620057cb8a6200f4ae565b620057f97f8416e0dc66c7b336cfbc76496743da8df8c0c897f4c3e8bd154fcdb2ca4485c860001b620034a1565b620058277f8446e21dabf5dde0ed3e195ac3aeee697403ce0704c4a07a730159ebe4d136a660001b620034a1565b62005832896200f4ae565b620058607fba51212796b517a2d35536ad04a9f3a4f386f32a9be44e118e72d91da31fc69b60001b620034a1565b6200588e7fbcab577c3ef8aa61ff0868299e99bd3fea249af64c1e59d2aa722068ac94b5b760001b620034a1565b62005899886200f4ae565b620058c77f3250f2f03575c36d76fe92064dbcf069cc2b38e1c4a570b87a96abeea167625460001b620034a1565b620058f57f9fd693ff71cb1b29e8121087ea136467e6bfc1f86d48ff082423d6e023ca5e6860001b620034a1565b62005900876200f4ae565b6200592e7f8de604b6693a81ea81aeb3fbabc939247160d17e046c6fb6a0025d7fd943868160001b620034a1565b6200595c7ff0add4aab93950d42a4c2cb8c8db54bcbfa1e4f87d401aaf87efdaf52b6e319360001b620034a1565b62005967866200f4ae565b620059957f2254b24074431f99db95b6a03cdb3e3a6d97a93ac2f1d6a489fb60d3025ba30c60001b620034a1565b620059c37f9d4ddcab7b3dda6af786e94584c152179799621a5490ebb1e5b231900a0d9d4260001b620034a1565b620059ce856200f4ae565b620059fc7f91cd48537ca117205fe041f6c23a726e9c6457595be264cf848c2c19edabab5260001b620034a1565b62005a2a7ff3866b5091506938a70c660a8e2a25f2543a17d5564674380634c7ec23568c7160001b620034a1565b62005a35846200f4ae565b62005a637fa84ca1616a3cc70bfa8fe7754d0f356f51a36c1edf31cb089031034bf4fa8dc960001b620034a1565b62005a917fa2201111afe82bb35337aac51294da7415c3cb625c67b03cf909b67113b412fd60001b620034a1565b62005a9c836200f4ae565b62005aca7f5a1d2844d163816457d23d78b004a2f3d1f01251b6d51a97065716b709ea1d2160001b620034a1565b62005af87f80e634d54c2543b4fc93efbd44cf00693d6e52ae4c790950be956d9e1604676060001b620034a1565b62005b03826200f4ae565b62005b317f71a37170a2be6815bc4ab1ac9060865f87080bc4c4e0db37c87c8c01a94d9e5360001b620034a1565b62005b5f7f9f5126d9d305d0e8ee6d8532573ff756101b269ed4b30e34233dd2ae0b939a2460001b620034a1565b62005b6a816200f4ae565b62005b987f4e4272320eb00880987374acc3c808f0df9ce43e9d15064e588214549fd2624c60001b620034a1565b62005bc67fa281e9fd5065f7af227b19a256d3efbe67214d4a03232c36450a843d548b095660001b620034a1565b8a600460006101000a81548173ffffffffffffffffffffffffffffffffffffffff021916908373ffffffffffffffffffffffffffffffffffffffff16021790555062005c357f8e5165dbb3e30525fb99f3ca2030bb7e7b778c9357579c20d41db790304dbf4760001b620034a1565b62005c637f1ba85fee02a24f0bd84801c523737ff716d0f145b04881423ea21240487dfc2660001b620034a1565b896000806101000a81548173ffffffffffffffffffffffffffffffffffffffff021916908373ffffffffffffffffffffffffffffffffffffffff16021790555062005cd17f1e2b09618c075fe11f5ba7029cb34599a92c168b5d689fa896f014633a499d6860001b620034a1565b62005cff7fa9d812611c00c072d7a7d099b17e9faaffed5a7e791f79005b5e74d987d6788d60001b620034a1565b88600160006101000a81548173ffffffffffffffffffffffffffffffffffffffff021916908373ffffffffffffffffffffffffffffffffffffffff16021790555062005d6e7f5ed7d94675d8b929b23e8e0416a62f3fa40e358f067381dcd2c3e077a9f2223a60001b620034a1565b62005d9c7f4467e5a86fae851546dfc8ad9299a059138c3de66dec4a2705b5e7ed2c5ea63260001b620034a1565b87600560006101000a81548173ffffffffffffffffffffffffffffffffffffffff021916908373ffffffffffffffffffffffffffffffffffffffff16021790555062005e0b7fecaed68cdd3028cc94e2fba0887a036be1f33123e232b77d1068e2ce7dfbd12660001b620034a1565b62005e397f4b7cf345f3c7517db192daf4fe81c26c4bce7c60797037918655da6a1b60159a60001b620034a1565b86600660006101000a81548173ffffffffffffffffffffffffffffffffffffffff021916908373ffffffffffffffffffffffffffffffffffffffff16021790555062005ea87f05207c82fb4b1b2b7d0187318897434a2498d5f6dac1a34853fe253715adf7c560001b620034a1565b62005ed67f573d50fa307f574c7e9e0a3c8339f5f3d6045e160a28b5b3b8e8909c325a062560001b620034a1565b85600760006101000a81548173ffffffffffffffffffffffffffffffffffffffff021916908373ffffffffffffffffffffffffffffffffffffffff16021790555062005f457f1ba97ca9abc662d8dcb2af2c30d3f76ea05d25f1549163f63ed72d83f904c26f60001b620034a1565b62005f737f3919376eb2c20a4e93db576038b4813cad0286c56ecee838276753967cb7bda860001b620034a1565b84600260006101000a81548173ffffffffffffffffffffffffffffffffffffffff021916908373ffffffffffffffffffffffffffffffffffffffff16021790555062005fe27f289382c0acc72c83cdc85cee4f56ca929d403ee0ce6ddb4873783f9cffe5e61a60001b620034a1565b620060107fde6a3373fc7c1609b541fd7b51fa3eb2895aba60bc3e60bc86672fdff12d459f60001b620034a1565b83600860006101000a81548173ffffffffffffffffffffffffffffffffffffffff021916908373ffffffffffffffffffffffffffffffffffffffff1602179055506200607f7fd7a413c63def200d8d1d66ac9985daf12c44bc81580201c764bc7fcb064cd42060001b620034a1565b620060ad7f4ed06d49d7ff7c05dafde0a1457e72fffb1cd9434f58ca75c3547c377891d4b860001b620034a1565b82600b60006101000a81548173ffffffffffffffffffffffffffffffffffffffff021916908373ffffffffffffffffffffffffffffffffffffffff1602179055506200611c7fa8b34677304b6578fe1caa9b9624c9fb5b7c0482d98f75d13222d910bb4f7b3160001b620034a1565b6200614a7ffe24d4521d868007df601d65798a62e8ec06bc32c95697d532c6a408dbbc5f8960001b620034a1565b81600960006101000a81548173ffffffffffffffffffffffffffffffffffffffff021916908373ffffffffffffffffffffffffffffffffffffffff160217905550620061b97f293c9d137fd43ae24414559807a2356abb7cff50c138418f707bfe4cf5d9813360001b620034a1565b620061e77f40901b7d8ef2a8d511c9f2a611722a40a175c750704a2fdc354a8589992edcfb60001b620034a1565b80600a60006101000a81548173ffffffffffffffffffffffffffffffffffffffff021916908373ffffffffffffffffffffffffffffffffffffffff160217905550620062567fc9f21c111a94de0fbbd8da594f64e2c6a3c08ac5da6f09cac6424d5e73e1487460001b620034a1565b620062847f16fe7ba5d20fd40454fae05c6c4b12a1990c54a6edb5c81ff2296f12bbb18d6d60001b620034a1565b7f3ca631ffcd2a9b5d9ae18543fc82f58eb4ca33af9e6ab01b7a8e95331e6ed9858b604051808273ffffffffffffffffffffffffffffffffffffffff1673ffffffffffffffffffffffffffffffffffffffff16815260200191505060405180910390a1620063157fa0ea163e906d7a0871b611fc801b54dbc12bb4467ae714f714894c7920f38dc060001b620034a1565b620063437ff7a1fdd3e23b3338ecd45e6a94386b7c4eddd5fdf6131ab20847f0c9fb80ef6360001b620034a1565b7f78f058b189175430c48dc02699e3a0031ea4ff781536dc2fab847de4babdd8828a604051808273ffffffffffffffffffffffffffffffffffffffff1673ffffffffffffffffffffffffffffffffffffffff16815260200191505060405180910390a1620063d47f79715f53aff60cc874a591a8795946757b201d2d1316d299175afec9732be6ae60001b620034a1565b620064027f6bc71ddb2a01edb264c277022ddc0b35dc559bc78e9e622c0457f8a9aa2cfbc260001b620034a1565b7f5ee0cae2f063ed938bb55046f6a932fb6ae792bf43624806bb90abe68a50be9b89604051808273ffffffffffffffffffffffffffffffffffffffff1673ffffffffffffffffffffffffffffffffffffffff16815260200191505060405180910390a1620064937f2fd698dba88abfbd1e37a9df0c61dbb7bdf0f590ad2fe36467e84a69a59d8b6860001b620034a1565b620064c17f096f40b39cb102c0fc7e8f5e308e369195ac837686daf98ad8f13bb9cfd7df6160001b620034a1565b7f82966d27eea39b038ee0fa30cd16532bb24f6e65d31cb58fb227aa5766cdcc7f88604051808273ffffffffffffffffffffffffffffffffffffffff1673ffffffffffffffffffffffffffffffffffffffff16815260200191505060405180910390a1620065527fe95bdb6f461d305f2ba33e38ea85273dfc93cde6bfa322db95ccc5c4eb0deb7960001b620034a1565b620065807fed6567c01d51aa8cb92df77828443b7c7280f247893228ff484db1f79c7ae4b160001b620034a1565b7fcfb07d791fcafc032b35837b50eb84b74df518cf4cc287e8084f47630fa70fa087604051808273ffffffffffffffffffffffffffffffffffffffff1673ffffffffffffffffffffffffffffffffffffffff16815260200191505060405180910390a1620066117fcfe59131fcc09d4bc03b744c75aa8285916c89e439da159312549676d9df7d4d60001b620034a1565b6200663f7fd6855da0fa10b3dd7373a01bb9806169f95d9f93b33e4e419e8f6dc3c1d2b22860001b620034a1565b7fe67f36a6e961157d6eff83b91f3af5a62131ceb6f04954ef74f51c1c05e7f88d86604051808273ffffffffffffffffffffffffffffffffffffffff1673ffffffffffffffffffffffffffffffffffffffff16815260200191505060405180910390a1620066d07fda2bd2dbb0ca741d6ff624a985bd4c2d7c5708b5a93024cf781f6c67e5fe7be660001b620034a1565b620066fe7f25df57c2ec8e7008a76883e1017cfc82fcbb98043c3bbf3dd8ea69bf271e204a60001b620034a1565b7f8c537274438aa850a330284665d81a85dd38267d09e4050d416bfc94142db26485604051808273ffffffffffffffffffffffffffffffffffffffff1673ffffffffffffffffffffffffffffffffffffffff16815260200191505060405180910390a16200678f7f48866a3460a9849afed07c8e85547565acb94dedfbd699ce6ad94618914728d760001b620034a1565b620067bd7fffb2b72901de46be572d2047f2d354baface2b76f6d226ff4a43e0f02d58008560001b620034a1565b7f227eec0ec317af6ab1a9587ffa1c84332522eb4c583a908f89babc05f8f339bd84604051808273ffffffffffffffffffffffffffffffffffffffff1673ffffffffffffffffffffffffffffffffffffffff16815260200191505060405180910390a16200684e7f69ce03fc3851defb4e63c68e181e16e7986f7d0be9f59fa924939cce8bf4e1fb60001b620034a1565b6200687c7f5b4833bc84ecd9b7e6a8d78e95151286374a19c93f0854633825a798c19208af60001b620034a1565b7f65f4cf077bc01e4742eb5ad98326f6e95b63548ea24b17f8d5e823111fe7880083604051808273ffffffffffffffffffffffffffffffffffffffff1673ffffffffffffffffffffffffffffffffffffffff16815260200191505060405180910390a16200690d7f326987600b39dd46fe47ac17656bdacb366ef1b08d8a3ffbe0754a343ea431ca60001b620034a1565b6200693b7f8b4f9b34e2f15df7fac351ac285b2f9474ee2eba3667425b7b199b227e7c9f2f60001b620034a1565b7f2ac6e99201ddc1b6eac6f8f28662d1ecafee131f6eb98c29de54528a9888a7d182604051808273ffffffffffffffffffffffffffffffffffffffff1673ffffffffffffffffffffffffffffffffffffffff16815260200191505060405180910390a1620069cc7f470ec746dbe2bb2dfeeaed985fd28d2ecb1ce185d965d56f6eab0a747a085f4160001b620034a1565b620069fa7febb72d3949b400d8c69222b01aa3d5c0a79a147b44d16e9ddd85460dc2a7832f60001b620034a1565b7f756ebc192164c295bba134b5aacd72cc7aff8098a670d1f0a5f6b3a0b4ce670781604051808273ffffffffffffffffffffffffffffffffffffffff1673ffffffffffffffffffffffffffffffffffffffff16815260200191505060405180910390a162006a8b7f867ff28d3b56c00ce437b9c7677f27bc9e8c8330a9788fe1e35dc902fc45d40e60001b620034a1565b62006ab97f6a8841087e8f238dba87f2cf45c8c67652b738cbad7c7ce03881a4099d27f9bb60001b620034a1565b62006ac36200f7fb565b5050505050505050505050565b6000809054906101000a900473ffffffffffffffffffffffffffffffffffffffff1681565b60105481565b62006b297f989fbf9bee7f5887feda0b9cedfaaad068fb55f4cf79884e036786d9668a3f0160001b620034a1565b62006b577f4f72d27990d5d59b4c2e2f7855ca21aa694becc2b1fa1ffbe27ab5454d0ff24460001b620034a1565b62006b857fec9448b34b999b15b857231a58a90ccb1b5af94cedd7240f63543bcdc03cf11f60001b620034a1565b62006b8f6200a336565b62006bbd7f70e9935945d7b8e69893962563eafc13cebd555642f8c6f773027ba1e6f6ca1060001b620034a1565b62006beb7fab7d82ae0c664acbc11ab6fc6b85e1044baf1bd479817af49276a0e7c28d466c60001b620034a1565b62006bf6816200f8bc565b50565b600062006c297fb66d50006e73330003d2aebca2677ba754a744532fcb120e1bf38e30d4354e9660001b62003475565b62006c577f7a243f0c01ac2eddb6f889adb5b25d20b6c77d0a71089b4e4a05e6f5dd04449c60001b62003475565b62006c857fd9be4bb93a2c9d4022ac92258e5938de98f2fa4913238b33509b201c9962a88160001b62003475565b60008060009054906101000a900473ffffffffffffffffffffffffffffffffffffffff1673ffffffffffffffffffffffffffffffffffffffff166314f6c3be6040518163ffffffff1660e01b815260040160206040518083038186803b15801562006cef57600080fd5b505afa15801562006d04573d6000803e3d6000fd5b505050506040513d602081101562006d1b57600080fd5b8101908080519060200190929190505050905062006d5c7f26cd0bc42cbc160aba08644d1ec6607da3df5acdbbe9f5cb1f876046b51125a860001b62003475565b62006d8a7f07394f73b57effa5c0d06a28a34d8caf7f9c8e6f1ecd533143cd3adbc06c207560001b62003475565b6000600160009054906101000a900473ffffffffffffffffffffffffffffffffffffffff1673ffffffffffffffffffffffffffffffffffffffff166314f6c3be6040518163ffffffff1660e01b815260040160206040518083038186803b15801562006df557600080fd5b505afa15801562006e0a573d6000803e3d6000fd5b505050506040513d602081101562006e2157600080fd5b8101908080519060200190929190505050905062006e627f46fe5e72681624df8f86211f619d0ca55960a48139a032d491c65f9e9ead8e4560001b62003475565b62006e907ff21ef2b4f180cbc00adb9efe704164ccc70207bf69042044214909b91d55604960001b62003475565b62006ea581836200f42590919063ffffffff16565b9250505090565b6000600360009054906101000a900473ffffffffffffffffffffffffffffffffffffffff16905090565b6000600360009054906101000a900473ffffffffffffffffffffffffffffffffffffffff1673ffffffffffffffffffffffffffffffffffffffff163373ffffffffffffffffffffffffffffffffffffffff1614905090565b50565b60115481565b600062006f677f5c1a065700330d8bdd101d7c5b64f0531ac11aa0dccf39d725fe7ecc2048fac360001b620034a1565b62006f957f8155abc62c3acb3475fea7c60c163650b8d353254853975c7581adb5765ce69360001b620034a1565b62006fc37fe50bdf7a3bda4b33bd30aaccd6b30accdabe7bdb07c744e1f91e71aea6f86d6b60001b620034a1565b62006fcd6200a336565b62006ffb7f5b5d049cc5a125e401d4e2a76aa2a9247f0d0a36645b21cc8356042ffacee0a760001b620034a1565b620070297fb4c911d9941b8bd5dfdd5d009ce6bfc1d1e0ed583608eae08397a7aad9f73aaf60001b620034a1565b60006200708283600e60008773ffffffffffffffffffffffffffffffffffffffff1673ffffffffffffffffffffffffffffffffffffffff168152602001908152602001600020600001546200f42590919063ffffffff16565b9050620070b27fdec97aa773f6fa032e5b43af21e279e9eff12582f6245d1bfca39408db0f9f4f60001b620034a1565b620070e07febc39ad6961d8fbf94f13ad2250f267102353faa2d5d15b67d71904d6ba59b0d60001b620034a1565b80600e60008673ffffffffffffffffffffffffffffffffffffffff1673ffffffffffffffffffffffffffffffffffffffff16815260200190815260200160002060000181905550620071557f72fbf6db8a58eb0de2d019f148e9840cb79efbaff66fcd5c9897f1dbef07afc760001b620034a1565b620071837fae74d6df779164900afb5f6d5081acb4cb8035f131bc3c35c018cf73a066ac9760001b620034a1565b8091505092915050565b60125481565b670de0b6b3a764000081565b600a60009054906101000a900473ffffffffffffffffffffffffffffffffffffffff1681565b6040518060400160405280600c81526020017f54726f76654d616e61676572000000000000000000000000000000000000000081525081565b600b60009054906101000a900473ffffffffffffffffffffffffffffffffffffffff1681565b6000620072547fb5e00bff440b5d5b99f57e4d16e4bd43d53c826cf00221be713eb4036ed4ad2160001b620034a1565b620072827faee6bbcf263d569bfc31e2e940b9b93d0ccaee61578cbd102ced4ff4c36695d960001b620034a1565b620072b07fed08ae41b6f36c133af055ab6897467b250287670d7719f2276e72d8fac08a7a60001b620034a1565b600080620072be846200fad6565b91509150620072f07fc0ae53cad528123d289b4ac184e7d4fe54139ea4592c8b843040c8963b19891660001b620034a1565b6200731e7ff511fd8d953f800dcd358b4880141fe335a29591439461696949ae6aedd2d4d160001b620034a1565b60006200732c83836200fdb6565b90506200735c7f931793abd331a6851a55e145831ba750c5758d47e7841d56f44e0f733a58617d60001b620034a1565b6200738a7f417484acc67beb6eac30f7c56867c3a3382c55929c92b13876fc1bc942409c4160001b620034a1565b809350505050919050565b600460009054906101000a900473ffffffffffffffffffffffffffffffffffffffff1681565b6000620073eb7f4b5f5d82f06454c7f2a7e792dbe7b1d1c998f47ba162b50255c021eae684595e60001b620034a1565b620074197fa8e901a219c02285a5d6bd555f1922fb320f4d0031688ac8bcc8222ba68388f160001b620034a1565b620074477f9c55bd9867930fa90363885d95b4facff419ce5afc29ea3010ab284257721d9b60001b620034a1565b62007452826200ffc4565b9050919050565b600860009054906101000a900473ffffffffffffffffffffffffffffffffffffffff1681565b600080600080620074b37fc3ac9262ad254055eed39f4e98568e3edbee38ce872a8953e61483b931eedfa060001b620034a1565b620074e17f4f416b34e973bfa08620a7533dbac47ed178ffe769172f3badc33ab3c0cbd32460001b620034a1565b6200750f7fc98caa4bc7d69064ec0f3c2985da8e2a288bdcf10e9d38e71870124e805632ea60001b620034a1565b600e60008673ffffffffffffffffffffffffffffffffffffffff1673ffffffffffffffffffffffffffffffffffffffff168152602001908152602001600020600001549350620075827f3a84a9c1fb6dfe62b8acda93cb04852ee83e16a951955ee16bbc1268eee999fc60001b620034a1565b620075b07f0dd13e33c0eafac908fde82f8b0af283a1c1222832a36452f3c212b979645d6260001b620034a1565b600e60008673ffffffffffffffffffffffffffffffffffffffff1673ffffffffffffffffffffffffffffffffffffffff168152602001908152602001600020600101549250620076237fd2618cc590c104f5515d92c6231d13cc76b98eaf6f2d5de6ae22bd4374a611ad60001b620034a1565b620076517f26fea6517f9cac31e6895d591598b5ce73e6e23f459e591033da97ba2b2696fc60001b620034a1565b6200765c8562009d28565b91506200768c7f91d20bd3a64edfe0e4bbe6f45a1699c73751f8547c5e3a3b1b23d518dacbc24560001b620034a1565b620076ba7f3d7d088ac11eaf62c314d38f17516e5c0e989bbd3798881f32e55c1686a7b65560001b620034a1565b620076c585620038cc565b9050620076f57fa2756fb7fad4495372698250cff22eca0d4728502fd8b2725ddb3e081e1d433460001b620034a1565b620077237f1f254db790e30e6b978236af4a0d3926d86648f2ebdd4a879cbb49bdb2719f9460001b620034a1565b6200773882856200f42590919063ffffffff16565b9350620077687fbd284b70f7a071f076d768940b243623c7e50080ef8a5c17c6fa654defc3b39b60001b620034a1565b620077967fe397d9c87cdc32dee9e6a4d111f689345d3595825e70de51c6321a6732fa440860001b620034a1565b620077ab81846200f42590919063ffffffff16565b92509193509193565b620077e27fb3e43aa1d257e101ffa59a80e3fa216e73d6fc2089d8b7325043fa095689dd1060001b620034a1565b620078107fd1db96cbea32ed16cdc5191a6231420f38ca4ff209a90880988334a15de1320860001b620034a1565b6200783e7f8d915a949448a66f662353f65eda17994c81a66e9c6acadf60087e39749217b960001b620034a1565b62007848620179b6565b6040518060e001604052806000809054906101000a900473ffffffffffffffffffffffffffffffffffffffff1673ffffffffffffffffffffffffffffffffffffffff168152602001600160009054906101000a900473ffffffffffffffffffffffffffffffffffffffff1673ffffffffffffffffffffffffffffffffffffffff168152602001600860009054906101000a900473ffffffffffffffffffffffffffffffffffffffff1673ffffffffffffffffffffffffffffffffffffffff168152602001600a60009054906101000a900473ffffffffffffffffffffffffffffffffffffffff1673ffffffffffffffffffffffffffffffffffffffff168152602001600b60009054906101000a900473ffffffffffffffffffffffffffffffffffffffff1673ffffffffffffffffffffffffffffffffffffffff168152602001600760009054906101000a900473ffffffffffffffffffffffffffffffffffffffff1673ffffffffffffffffffffffffffffffffffffffff168152602001600660009054906101000a900473ffffffffffffffffffffffffffffffffffffffff1673ffffffffffffffffffffffffffffffffffffffff16815250905062007a327f51ed394bba2d539a13f1ce15e060d0d76637faa86ccdb3c4021acb97da28488f60001b620034a1565b62007a607f051ce29ca68bb3419dda7a03df73d9cd584dd8a1992b012c4a9ef6dfc5e788c160001b620034a1565b62007a6a62017a8d565b62007a987f52d37271cb49f3468016886e5dc5a1b5e25f29cf339212038b9438021633ced760001b620034a1565b62007ac67fc180a9e4957fa3cb148ad38ffabab1071be5d5a52d382f46ebf091f29d87945760001b620034a1565b62007ad18362010199565b62007aff7ff55c24c21cc52de502f97f9bcc9d11812df74ca8fa4255d66c80d7ac2784074c60001b620034a1565b62007b2d7fa9d1bbbb63e0163fc788ebb741700f74fba48890305491e340edf86e97433d5c60001b620034a1565b62007b3762010309565b62007b657faf942e1edc97f498f027969cde7fba188ec410ba930b487d97cb19f330687b7d60001b620034a1565b62007b937fed37a027ef10fe87fb05cfa4a42b511037ddb5f707a2117d30999239a4b7fe6860001b620034a1565b600260009054906101000a900473ffffffffffffffffffffffffffffffffffffffff1673ffffffffffffffffffffffffffffffffffffffff16630fdb11cf6040518163ffffffff1660e01b8152600401602060405180830381600087803b15801562007bfe57600080fd5b505af115801562007c13573d6000803e3d6000fd5b505050506040513d602081101562007c2a57600080fd5b81019080805190602001909291905050508160c001818152505062007c727f0463668e844d6705467d1d5292fc1ae35164c6fb1a41cbe2351dec2ad2eab73060001b620034a1565b62007ca07faa147147c8937b7f947226c5f01c1051fb5d16b62aee48dbb951350694cff2e760001b620034a1565b62007caf8160c001516201056a565b62007cdd7fcf0245901864d520380991e50fbee1b68747e74595ad1d928e4f2ae163c6773960001b620034a1565b62007d0b7f0404f0f35051883938993b63919d0cda329bd7d772f3c1b575278f6184db5fc960001b620034a1565b62007d1689620106c0565b62007d447f4586d7a8c5a07aa8737c85eeb5333526bda0a798f09aed6d6b3a7d8ec5ea4da460001b620034a1565b62007d727f7ea8425f8b3fc59f2e757b0e66aed05070244254cbf4957f4f292bd9e98ab52760001b620034a1565b62007d838260400151338b62010804565b62007db17f66423a0970fea67a508baf481e0d86ea7054f89b0b3e92426577db2ad9a8672c60001b620034a1565b62007ddf7f111a2a21040e07ed1f8879fd5f00b4cbd856307b321989140040549c3b5ef3e960001b620034a1565b62007de962005399565b8160e001818152505062007e207f95a087bd1e069ffa77135f0dacf4a3f62d680912ebcbc5853b17396d2caa2d8960001b620034a1565b62007e4e7fddf049c09c2a45cd9c1c60c2553bdddd2edf20760d3daae710008ce4a37c1bb260001b620034a1565b8060e00151826040015173ffffffffffffffffffffffffffffffffffffffff166370a08231336040518263ffffffff1660e01b8152600401808273ffffffffffffffffffffffffffffffffffffffff1673ffffffffffffffffffffffffffffffffffffffff16815260200191505060206040518083038186803b15801562007ed557600080fd5b505afa15801562007eea573d6000803e3d6000fd5b505050506040513d602081101562007f0157600080fd5b8101908080519060200190929190505050111562007f1b57fe5b62007f497f4e5dd0d9c3e206490192e94686825dd13decd22799a78c47f8ae0d679d95635c60001b620034a1565b62007f777f92af6395f503a37805ffe9f4915ff71e15cfa947b08cc5628479d8ea71aa534760001b620034a1565b8881600001818152505062007faf7f8bb5f7112984d3e0b98c990a6f4ab45c04fdfb100c461a44e569ecc1ca913ccc60001b620034a1565b62007fdd7fc98331b6b5d0ef68c1ce881684bd5edb24b9bca812ca1e85fe7212c8076b36da60001b620034a1565b60006200800d7f975a2f6b2394e2c77d16185ce0b8f25517d3517f55ce6528d570d6ebd4a3d7d960001b620034a1565b6200803b7f60b6c79d7f9fdb75709553f88cb7b37a951f80859fe92e65e9940a065bd3ee8c60001b620034a1565b6200805083608001518a8460c0015162010a04565b15620080e957620080847f44e1829a6654d1bab5f247684c72d167953404c0eccec7bf37c29186e3aa43bd60001b620034a1565b620080b27f7ef116bd4648352545a0e14621d5ecc7f26b749c25230d70aff37fdc910205ca60001b620034a1565b620080e07fbc9f7e60dcd767f278d84a04e0a198ac0d061143755e4dcd2ef9c212f2bb50f460001b620034a1565b889050620083d8565b620081177f4e98a439ad3f149b87ec666448f14548e5744ce54dd4f592070da193b1d81a3f60001b620034a1565b620081457f4231fc2c96bc160ddb706a50fa2391939490cb071313521ca2dec559f0c0f46860001b620034a1565b620081737f24bdfd5079a179d96f9407d72d1b024d5327112bae0487af7cc56dacef4c1e5a60001b620034a1565b826080015173ffffffffffffffffffffffffffffffffffffffff16634d6228316040518163ffffffff1660e01b815260040160206040518083038186803b158015620081be57600080fd5b505afa158015620081d3573d6000803e3d6000fd5b505050506040513d6020811015620081ea57600080fd5b810190808051906020019092919050505090506200822b7f685a23b26f4ccd6a9db868886236feceb695d8a17197a733b536456b43e455d860001b620034a1565b620082597f709970804315f3c5d46850f7a36be912de264b9f5a31a53c160a50cf2014077f60001b620034a1565b5b600073ffffffffffffffffffffffffffffffffffffffff168173ffffffffffffffffffffffffffffffffffffffff1614158015620082ae5750670f43fc2c04ee0000620082ac828460c00151620094ce565b105b15620083d757620082e27f5ef2d281006a6cd5fa2efbb137c7f39493cb04bbd252cdcf31a819e8253f898b60001b620034a1565b620083107fb61841b76c18e8a5849045d8c7e3b8ca2ad31b94f1377af4fa14f6640ae4e19c60001b620034a1565b826080015173ffffffffffffffffffffffffffffffffffffffff1663b72703ac826040518263ffffffff1660e01b8152600401808273ffffffffffffffffffffffffffffffffffffffff1673ffffffffffffffffffffffffffffffffffffffff16815260200191505060206040518083038186803b1580156200839257600080fd5b505afa158015620083a7573d6000803e3d6000fd5b505050506040513d6020811015620083be57600080fd5b810190808051906020019092919050505090506200825a565b5b620084067f40861cf6b0895054f2a5d716931c0afd17111053ecd72186f1db0494ee75126b60001b620034a1565b620084347fbcef1c1f49d368b9c4002ca1b3812ed9ac1aab2e5a0723e3587b313b0ae465f360001b620034a1565b6000851415620084c3576200846c7f3eb3651990146cf610dd1d6a6c524a0afb59983d9c5c904f9336a41481c9eb9a60001b620034a1565b6200849a7f947a93f964476e0d0fed1d12065b68e469885a3fd7119d8fe291456af021059660001b620034a1565b7fffffffffffffffffffffffffffffffffffffffffffffffffffffffffffffffff9450620084f2565b620084f17fc1033410d0b57fb760e7d20f6d90105da82cea08d6b12bc3254370bf5fb285d460001b620034a1565b5b620085207ff8a326ef200d17fdda4e4e6f22d8c8d3732f197d75aab999060734c23da80d9e60001b620034a1565b6200854e7f2d4b677b1106707e47270439e63d90d9b6e539c709aa05926f2a0fb8f206f17160001b620034a1565b5b600073ffffffffffffffffffffffffffffffffffffffff168173ffffffffffffffffffffffffffffffffffffffff161415801562008591575060008260000151115b80156200859e5750600085115b1562008aa457620085d27fed0b11951beca9442c6d1d1544fa19a4cbe44984fc859af2924b74b319e4a2f260001b620034a1565b848060019003955050620086097f439688d1027fcd39c3f43d5e6bce5350dc401bbc61c75f51fc8ee53fbba7b0dd60001b620034a1565b620086377fde8aacca42bb4f6bb5b8e1a80e4ec309087d7eae4d7c07dc340248e575ebccc260001b620034a1565b6000836080015173ffffffffffffffffffffffffffffffffffffffff1663b72703ac836040518263ffffffff1660e01b8152600401808273ffffffffffffffffffffffffffffffffffffffff1673ffffffffffffffffffffffffffffffffffffffff16815260200191505060206040518083038186803b158015620086bb57600080fd5b505afa158015620086d0573d6000803e3d6000fd5b505050506040513d6020811015620086e757600080fd5b81019080805190602001909291905050509050620087287f399523ae6cae02e74041d28ef0c456ea5c9b5da6e7ff0ba7f70328b9370cfe0d60001b620034a1565b620087567fc4d1a09abb07ca077bf15f776f318f029cf01030b42af581bb69c07f653bc48b60001b620034a1565b6200876b84600001518560200151846200a4c6565b620087997f97b45b059a0807dbe2e2122d9a7ea3002987a993d840eb68df81fc52546a07a560001b620034a1565b620087c77fba8a424c6d8ddd4a0b25d6fcc0b4b49ef464d3ecf2ffa721bca19598e0eee9df60001b620034a1565b620087d162017ad2565b620087ea858486600001518760c001518e8e8e62010e3a565b90506200881a7fb5df6ae8f5b7c2db1d9231bd7ae8ec5937a21293099f702b866851f975e34b4160001b620034a1565b620088487f6b61b5c8df3bf4ddc65bb2b1909076c2a8bb2f73657bae60b53ee747b98985c460001b620034a1565b8060400151156200888957620088817f43a5288adfcc6f77a867be3bde882a83125075f67e659953aeba32c36d77a6b460001b620034a1565b505062008aa4565b620088b77f03028ba81389fe1c38f15746c5c059dc7b3f7ffea41bef8577944b49a88b743a60001b620034a1565b620088e57f4a328a4eddc59a3caa98207f6f278842160ac630dd76172afc840b2e8365bbbf60001b620034a1565b620089137f437c489f15172af45d8e813c3d7542d67c9445b9cecd276d7ade2c5ff8caa5b460001b620034a1565b62008930816000015185602001516200f42590919063ffffffff16565b846020018181525050620089677f078df373141d5012dee867ff7dc97e54f9039fb4068f82aa0b71e810b54ba0c360001b620034a1565b620089957f56f0713d609c1bf063720d35cfbe93139c78ba4f51cd65e3a8b6dc1c3549eff560001b620034a1565b620089b2816020015185604001516200f42590919063ffffffff16565b846040018181525050620089e97f627bf7ec6ce51eb12d388b3f126d26b7346b2c038b89d96a9bcadf2135d172be60001b620034a1565b62008a177f939460a8ce5cb1001188a90c9d0b4757a05f0fd4695018e14b99bad5cc1c154060001b620034a1565b62008a34816000015185600001516200ab6390919063ffffffff16565b84600001818152505062008a6b7fc6375ffc1156926ef722cca43502416321fcd08dc9ca8a3c08a8964f2fe5907160001b620034a1565b62008a997f3a8b67a55f08ca96e22ec0c1f4e8ebdbd7bfc8eaa9045b96e0aede1521d4817e60001b620034a1565b81925050506200854f565b62008ad27f1db0b9f5776881936aec639b68395913914f31b94720ad1d603deb5168092ffd60001b620034a1565b62008b007f20247f812d3084cd06ce860d916dbbed801254cacd1627f92a6b98c55ca5e3e460001b620034a1565b62008b2e7f552d1b3f7e0f75a3da1beff787efee1fe05f92c436e1fad88d782554519bd8ab60001b620034a1565b600082604001511162008b8d576040517f08c379a000000000000000000000000000000000000000000000000000000000815260040180806020018281038252602981526020018062017bb86029913960400191505060405180910390fd5b62008bbb7f1a76ab8d1caa6c24f63866c635c1a4be81297dc8df4b91e9a1f0dbcd3bfd5d7d60001b620034a1565b62008be97f4f1f51f2655bfd81e5cb659f97302a680182b8489ab2099d4d5e074607c4484260001b620034a1565b62008c177faa0f279731086664e1f4227244f1478ace9d9cf5f8c04d40f800e8fa92e5741460001b620034a1565b62008c3082604001518360c001518460e0015162011af3565b5062008c5f7f86ec5d28dad688dae5eedcabce58062938b92374f99928fe28d592b61f4c00e160001b620034a1565b62008c8d7ffc17288f46f00d7da5b190442d807a3c8519b8832b703cb3fdd3adf939067a8260001b620034a1565b62008c9c826040015162011f3e565b82606001818152505062008cd37f467987bf88bc36f05dd1dd9d6e5bb9e8930ac0ddcec0b3b2683e1038e1fe5cda60001b620034a1565b62008d017fbda47a1af819b3e029d3d188284575d9dfcffeffcf31598fefe54840708626b260001b620034a1565b62008d16826060015183604001518662011fe6565b62008d447f6b87e205ba4308ce00a973af2df1695eb85f293cbb8d5cacba4f44633753b41b60001b620034a1565b62008d727fdcead1675c7fbd026fea4b9014d506ac09ed210cee5b09ac34525533b6c8c58460001b620034a1565b826000015173ffffffffffffffffffffffffffffffffffffffff166364a197f3846060015184606001516040518363ffffffff1660e01b8152600401808373ffffffffffffffffffffffffffffffffffffffff1673ffffffffffffffffffffffffffffffffffffffff16815260200182815260200192505050600060405180830381600087803b15801562008e0657600080fd5b505af115801562008e1b573d6000803e3d6000fd5b5050505062008e4d7f83812ecbf6161919c64c7aa59281d87900b6c7c935b4ff7da8b7a00f122bf3d360001b620034a1565b62008e7b7f77fb707f8636adcb75102811ac8e1710a34cdb6ed1b306008926ad8a6d83514960001b620034a1565b826060015173ffffffffffffffffffffffffffffffffffffffff16631e3e2a1a83606001516040518263ffffffff1660e01b815260040180828152602001915050600060405180830381600087803b15801562008ed757600080fd5b505af115801562008eec573d6000803e3d6000fd5b5050505062008f1e7fc59d580ada4ed2a098d72e2b072288df4b84505670ab3573bc821dc524f0994760001b620034a1565b62008f4c7f1030ccffe944d57250b30d2b564fbe21d5b163fca7892828343abbe20010bd4360001b620034a1565b62008f69826060015183604001516200ab6390919063ffffffff16565b82608001818152505062008fa07ffabaaf3639e3728a87f6557d01dd75986d753ebdb39cc04465d88d4b3642f97760001b620034a1565b62008fce7fab6444e5de65a5095af33bfe2d2ee5ce70c488eb4ae28a6fcab596c17a7a99b260001b620034a1565b7f43a3f4082a4dbc33d78e317d2497d3a730bc7fc3574159dcea1056e62e5d9ad88a8360200151846040015185606001516040518085815260200184815260200183815260200182815260200194505050505060405180910390a1620090577f82bc79d457b76e8f73e27e01bd10a32fd4d14a9b2ecd4fab53f3c896f4053b7d60001b620034a1565b620090857f919ad4daaf742cc76a33e9b9a6d6ad7abb5d1c769c41ee995e3d053706100db560001b620034a1565b826040015173ffffffffffffffffffffffffffffffffffffffff16639dc29fac3384602001516040518363ffffffff1660e01b8152600401808373ffffffffffffffffffffffffffffffffffffffff1673ffffffffffffffffffffffffffffffffffffffff16815260200182815260200192505050600060405180830381600087803b1580156200911557600080fd5b505af11580156200912a573d6000803e3d6000fd5b505050506200915c7fb0e65c36ed247020ed878889fe86241505f9e3dd2d8f10ac227960efe1161e3760001b620034a1565b6200918a7ff1d91f8a7fa5ac49dbd4b2910fb2665050646f0dd32fe1472924dc758ddd0e5260001b620034a1565b826000015173ffffffffffffffffffffffffffffffffffffffff166338d995a883602001516040518263ffffffff1660e01b815260040180828152602001915050600060405180830381600087803b158015620091e657600080fd5b505af1158015620091fb573d6000803e3d6000fd5b505050506200922d7f863e3bffa2b02ace3fab816352de49f9d3de64964309563b43a55ac4e0e3e87860001b620034a1565b6200925b7fcf6e8556384f467c26c311c07084aea9a398ed51fd37bd0198f13722f35fe5e760001b620034a1565b826000015173ffffffffffffffffffffffffffffffffffffffff166364a197f33384608001516040518363ffffffff1660e01b8152600401808373ffffffffffffffffffffffffffffffffffffffff1673ffffffffffffffffffffffffffffffffffffffff16815260200182815260200192505050600060405180830381600087803b158015620092eb57600080fd5b505af115801562009300573d6000803e3d6000fd5b5050505050505050505050505050565b600f5481565b6212750081565b60006200934d7fdf232d6c973bcec4eff73db82c91396af66c9196fab4f04f396aae87591ae3ef60001b620034a1565b6200937b7fdb5801da9f709c19a9a356ac7d4f38a3a0bd56d5ea0abb462469892f7cf053ee60001b620034a1565b620093a97f2f6b93c655c2a20140e0732afbaccd74f39a00eb1c6713d376c59a7f3024bc7560001b620034a1565b620093bd620093b76200d9d0565b6200d5b7565b905090565b670ddd4b8c6c7d70d881565b620093fc7f950280b0bc9fc5add2d8dba5242c92892307e81b9681b1f6eee2e1494db7f04860001b620034a1565b6200942a7f84362b47295e659b5907f791b75803af2c1457d719fe59394377938b40155dfc60001b620034a1565b620094587f2140e1b719a7fc28e24358c76d7d6e785e97f97055da304fe2de1ec20eba2e5c60001b620034a1565b620094626200a336565b620094907f08c482e11bcfe87b62f2b64888d67c4140ce3a356b549032e6a7305da79587de60001b620034a1565b620094be7f41a8ffc09c037b37b74d806235fd01450bfaba694d0f612f8853c1e22c942c9260001b620034a1565b620094cb816002620121da565b50565b6000620094fe7f144cac245da7652931b1a99cd1be49cb5a304561fa979b270c165ea1e910cfc660001b620034a1565b6200952c7f267423f417c00da283c66b3e8d7fade3b2e423d41825bc83196b920b52f774e560001b620034a1565b6200955a7f312b55339808be7430d1007641b944a4da22ce57df51c92ecf921e9df194fb2c60001b620034a1565b60008062009568856200fad6565b915091506200959a7f386bc50d6ed95cbcc282220c551b71976251434a3d86bf01bd9514c77778724160001b620034a1565b620095c87fbc517b735262fe6c53bddcf9ccbb2c15ee2f1c59d89ead7b07ad6233a1731b7e60001b620034a1565b6000620095d78383876201284e565b9050620096077fb54d4a8e825c2cfb71478a893be7863a12f87796ce0bceaa60344c379ef81a2360001b620034a1565b620096357ff4a905839be3d9654c403c10ed62b6c70ccd1378d0416a8966ca18338fc0ae0e60001b620034a1565b80935050505092915050565b600d5481565b6000620096777f4e09db51358c4071dcf1c9ad7831efc58b1c16780b26fcd2f2edac77f4cd367460001b620034a1565b620096a57fbf693d4a65de2b09d80435be494e001e958ab72446e7aaf91e7debfd485e81b160001b620034a1565b620096d37f6f3e93c5dda712006de4a8e181a88f862dea7ee4ad63c1bef218d75b124f09c660001b620034a1565b620096dd6200a336565b6200970b7fc819a531244dba495973ea7e00d71411407fa4f1afc183ecb81a99271ed7f60360001b620034a1565b620097397fa3c60775aa017987b6d07358d5fcf5f553995a9fa6aa5173b2d6d85fae937a0760001b620034a1565b60006200979283600e60008773ffffffffffffffffffffffffffffffffffffffff1673ffffffffffffffffffffffffffffffffffffffff168152602001908152602001600020600101546200ab6390919063ffffffff16565b9050620097c27fce72f4ae82834779418531c42e039228228c5eef4005ef3cb641780c4fbd2d6560001b620034a1565b620097f07fc95c692c7897c23d5ea769a4c2d80e8f32e32cdd133d3b0f0a5649fa79ffabeb60001b620034a1565b80600e60008673ffffffffffffffffffffffffffffffffffffffff1673ffffffffffffffffffffffffffffffffffffffff16815260200190815260200160002060010181905550620098657f2eb65d9a13a942b052232ea25168a6ec7744bcdc6464fd3e44f17c190f881cb260001b620034a1565b620098937f8ac263257460945b90a47378af6a5173b11605f689c104231bf949c3d65b2d0360001b620034a1565b8091505092915050565b6000620098cd7f94c88795f623f01f2b8b7ddc70282bad0143e593127cc9806a1f6928b062e32860001b620034a1565b620098fb7f0fed9617d32ac6a3d4750c7315dbf0b1a691e18441fcb2fd741e800b45f7a6ea60001b620034a1565b620099297f376c775071eafb955ec8a248f8a36f1686e5418d98eb3b8f6bb2dbeaf43f71e960001b620034a1565b6200993e620099376200931d565b8362012ab6565b9050919050565b6000620099757feaaac3bdff395e62e7ad4fcbcb8f65fd728f72ff1bd8e797f91b1218d286029160001b620034a1565b620099a37fb770fcd2d4bb7af5633de7165b72a0a4310382639b8660b2915f63dbfbac850060001b620034a1565b620099d17f3c236eddfedd69ce3016aa5ff31abd91d5680d5e9e180ea520e53b6bc2598c2960001b620034a1565b600e60008373ffffffffffffffffffffffffffffffffffffffff1673ffffffffffffffffffffffffffffffffffffffff168152602001908152602001600020600001549050919050565b600062009a4b7fcf435469015d4964b6ecedf973e5a2b2da9885f3adbef05b227bed496d6c5c5660001b620034a1565b62009a797fa2e42c44ee1f69caed90c13f5d4c5b6a3d28657fb1d33a91bcc48b36a796117b60001b620034a1565b62009aa77f109a74831a9e06044c705ac720e2bc668cf32158ec77d9e84e13fec5e51cd08360001b620034a1565b6015828154811062009ab557fe5b9060005260206000200160009054906101000a900473ffffffffffffffffffffffffffffffffffffffff169050919050565b60135481565b600062009b1d7f57974d941d9520839a2032c3fccc8215686ab4a746f03d76f378df92fcfdd22560001b620034a1565b62009b4b7f82a6721b84ead05420cf0540a9d2c19ea73c924a9ca23fdc7eb8f9cba2847d7060001b620034a1565b62009b797f6c369c184dc52b9fe6b3fad8f7eafe19ecb3433f45a8b94c284a66aa01e52b0160001b620034a1565b6001600481111562009b8757fe5b600e60008473ffffffffffffffffffffffffffffffffffffffff1673ffffffffffffffffffffffffffffffffffffffff16815260200190815260200160002060030160009054906101000a900460ff16600481111562009be357fe5b1462009c4f5762009c177f7e1a82fbf0120b357d793f6c7ac16111a83d41bf63e5332a5293ff8f23ef788c60001b620034a1565b62009c457fdfa00e852a5fd43644e2fc531eb0e7105c3aec9e05a86278dba4b8de6725c53160001b620034a1565b6000905062009d23565b62009c7d7f90d02976ecdeac9aea8da276cdfab0b47a67f0fcc5d03bc46ef50d0287629ee860001b620034a1565b62009cab7f58de4bc555c40e6b407ebb125eade5b358ea6c43fb74ad756c5f605cd200ca4e60001b620034a1565b62009cd97fd1d7676d306cefdd52d1a40033cba980884552646b6611c618134ee30a9c49ad60001b620034a1565b601254601460008473ffffffffffffffffffffffffffffffffffffffff1673ffffffffffffffffffffffffffffffffffffffff168152602001908152602001600020600001541090505b919050565b600062009d587f60eb1719211e9a4100b52eecf2b31c59506a3c34df384f8492894c1c1e820aea60001b620034a1565b62009d867fb458b49471758e635f98430eeccab52201d719372dc0e11a02fd0bd99276c0f760001b620034a1565b62009db47f9d9809ae9507f4ce28b122eed11161c492ad27be18a722917e8a4112c445c32d60001b620034a1565b6000601460008473ffffffffffffffffffffffffffffffffffffffff1673ffffffffffffffffffffffffffffffffffffffff16815260200190815260200160002060010154905062009e297f1a2d551898bc93b14e49cc5f9ee42bbe0c16864b70542d95e9fbb904619987f060001b620034a1565b62009e577f26e6109171f2268389bfccd436c88f4d30f9cc59abda3bbb1ea47ac68d659a4260001b620034a1565b600062009e70826013546200ab6390919063ffffffff16565b905062009ea07f58263a7f198e64717ab85e863234b439096c8207c9c02ce8ae040d55cabf8bf360001b620034a1565b62009ece7f7f4f54a62b5a89cf55729b6fe40bc87943b07b647dffd5a67501c845ec7ca9d160001b620034a1565b600081148062009f4657506001600481111562009ee757fe5b600e60008673ffffffffffffffffffffffffffffffffffffffff1673ffffffffffffffffffffffffffffffffffffffff16815260200190815260200160002060030160009054906101000a900460ff16600481111562009f4357fe5b14155b1562009fb45762009f7a7fcb181011fea748a62ba443daef0c8a174e73868d36dded030bf9a09e718eeab360001b620034a1565b62009fa87f0ff5857703f06967564087995543fd75ddfd0dfa5b5bc8bc8931818dec3102d860001b620034a1565b6000925050506200a17a565b62009fe27f209722441134107fbf19fea90658472388485ca07f8e26aa97660c047a79b0c560001b620034a1565b6200a0107f841d7ea67edc9570fbe0d8f4a97cdb43f05e5b5c5a1002451889c9493d5c39cf60001b620034a1565b6200a03e7f7ce0e478b22bd3bbdfcf1a6cb7eafd0093ca2ca4ef17e46b15779ba761ca43ac60001b620034a1565b6000600e60008673ffffffffffffffffffffffffffffffffffffffff1673ffffffffffffffffffffffffffffffffffffffff1681526020019081526020016000206002015490506200a0b37fb2eb74421f39e791d5b56490567c9e8f9e720798d174deb0ca9bfbdc123df4b660001b620034a1565b6200a0e17f5818fdab507467df1df3389663055c34fd9348b47bd409cdab4a97aa8683cfab60001b620034a1565b60006200a114670de0b6b3a76400006200a10585856200d8f990919063ffffffff16565b6200d98490919063ffffffff16565b90506200a1447f124fe1910bb284acd880602f9ed5cfe639a3b3ffd80b98d49c10eda9baf2274d60001b620034a1565b6200a1727ffeeaade27df2a58507c56394b6d864ca1d2cd653bf1f18a0ddd1118830bc057760001b620034a1565b809450505050505b919050565b60006200a1af7fed57bccc8fcdf7ec23d311a62e953cb1c02478618d213698f4f85a303de9d55d60001b620034a1565b6200a1dd7fa2dfec0e02842c0ecc7a04504685f924c8b742beb5b6b8cd844eeb0163ab92e860001b620034a1565b6200a20b7f90bffd08452bc1edc8736641cf5d788478a5a2365a2d7812caa2383d27ef9c8760001b620034a1565b6200a218600c546200f345565b905090565b60056103e8670de0b6b3a7640000816200a23357fe5b040281565b6200a2667f7ea6b774e539c860d48c6bfb880fb5719f447891ee6d88043327538df37eb50560001b620034a1565b6200a2947fd531e098d7c0061515babd57481deacf223079b56f355204bef8ecc3bbcab6c760001b620034a1565b6200a2c27f73410dcd0ad4092a6b7ac996d7b59ce1997af1c8c9437e04a57e0682188b338560001b620034a1565b6200a2cc6200a336565b6200a2fa7f84d725f4bf50d05fbd77d7407e41826bee2954a57cd3960ee47e73801bdd845560001b620034a1565b6200a3287f70fcd9efa27c0a782bf0e12ad56c2a951f2da9c6257ae1a2f8f907818f86238a60001b620034a1565b6200a3338162012cef565b50565b6200a3647f828260b35b227c1d562dc18a3a7d008dde66bca35adb86b288236c1ef7b627d660001b620034a1565b6200a3927f25697a2055d93d487e0c01d6fb1c3ed4e2e8e46d13b926509ebab16bfc29363560001b620034a1565b6200a3c07fedcacf22dd1c221328178e0d987cee1ea051eaf8eb12ff5e523e54c5397d988760001b620034a1565b6200a3ee7f88fa16ba89e20539f00901608385642cc2aaf8506374ebed4587ed7c1a6b150060001b620034a1565b600460009054906101000a900473ffffffffffffffffffffffffffffffffffffffff1673ffffffffffffffffffffffffffffffffffffffff163373ffffffffffffffffffffffffffffffffffffffff16146200a496576040517f08c379a000000000000000000000000000000000000000000000000000000000815260040180806020018281038252603b81526020018062017cba603b913960400191505060405180910390fd5b6200a4c47fae92fe5c243013b016e928fdc581c467b4041ebf0c6c94214ca43ff6dec26fe460001b620034a1565b565b6200a4f47fdd0ae14121b6efad13906f946c14bed3f7f345cf156f44236f70aee447a634ff60001b620034a1565b6200a5227f7900653c1a1cf8cf8c3993e0f90ff79565ff50e76117661a343cf0e63a745d7c60001b620034a1565b6200a5507f033a3c7ea6af6690573071a6729ee30b9ab6365909da28cf34d929738faf3d8c60001b620034a1565b6200a55b8162009aed565b156200ab2f576200a58f7f4f5df1cbb1440c9606db5b92bd83d63ccea2b29f4fd902b294da146a04af1fb360001b620034a1565b6200a5bd7fee33b5270bb884bfc546f36102e152864bd310d71488a64c937bc8f87766ecfe60001b620034a1565b6200a5eb7f28888ef8c49a9387f8b37c609c1d51dd3379d7b5c4bd928f3d8b53c47d34d26a60001b620034a1565b6200a5f6816200d689565b6200a6247f712afcb8cbcd59a8f2514e8f0facf493d7ee120500820b085ca66c4c55557c2c60001b620034a1565b6200a6527fe01ae58ccc39acc22c8fdc8f683a96257eecd1fa26eee1deeee1598d9703455e60001b620034a1565b60006200a65f82620038cc565b90506200a68f7fdddfd3b5ece2c4484c01abda59d31d3d6eae5451956eb08e0d1f9d0887e174f960001b620034a1565b6200a6bd7f980fd2d53d0bb90e2319906edef47218a3964b7819583efd52145edcf134342560001b620034a1565b60006200a6ca8362009d28565b90506200a6fa7f9300c066268ab95e26c7f503306bb6a88bff86b584aaf1fe2f0544a8121c353360001b620034a1565b6200a7287fce6d6058f8f7e0bc457448cf0e1344f66816d79d2ec86d34c484599ed55af2ab60001b620034a1565b6200a77f82600e60008673ffffffffffffffffffffffffffffffffffffffff1673ffffffffffffffffffffffffffffffffffffffff168152602001908152602001600020600101546200f42590919063ffffffff16565b600e60008573ffffffffffffffffffffffffffffffffffffffff1673ffffffffffffffffffffffffffffffffffffffff168152602001908152602001600020600101819055506200a7f37fc9aa8b0ecb1225a007c09734ddcca43c6f70fa072955a5efa534fcce73f0722b60001b620034a1565b6200a8217fd44b29887fbaf8d6461e26ba8f0f6666d75d6d4ffbbed3fb8b8bf3d4ce346e8e60001b620034a1565b6200a87881600e60008673ffffffffffffffffffffffffffffffffffffffff1673ffffffffffffffffffffffffffffffffffffffff168152602001908152602001600020600001546200f42590919063ffffffff16565b600e60008573ffffffffffffffffffffffffffffffffffffffff1673ffffffffffffffffffffffffffffffffffffffff168152602001908152602001600020600001819055506200a8ec7f179d93f26ae65fad2f7f82eb5ffa265e8c925e01555520efcd1f392c431288b260001b620034a1565b6200a91a7fcdadac9f087cfa59b412e5a225a23a439eefbab74adfbb858ba364880613965260001b620034a1565b6200a925836200f8bc565b6200a9537f5612fc8333ef3a22841c1d0680c8252d234e9805bf24a7dc8d7f64c8a4cac2fc60001b620034a1565b6200a9817f5a21e6a6e7936b8efc38fe1d6e83c9d1442b06cff826918ea19547720828fe0060001b620034a1565b6200a98f8585838562012ee1565b6200a9bd7f64f217b123a7e607841b844f6d03d084739e5822a3949fbac7a510362dd5169a60001b620034a1565b6200a9eb7f983c0c378f40e4961cbc4c12448e91373940ee00819646c3dac9b71f7e53701e60001b620034a1565b8273ffffffffffffffffffffffffffffffffffffffff167fc3770d654ed33aeea6bf11ac8ef05d02a6a04ed4686dd2f624d853bbec43cc8b600e60008673ffffffffffffffffffffffffffffffffffffffff1673ffffffffffffffffffffffffffffffffffffffff16815260200190815260200160002060000154600e60008773ffffffffffffffffffffffffffffffffffffffff1673ffffffffffffffffffffffffffffffffffffffff16815260200190815260200160002060010154600e60008873ffffffffffffffffffffffffffffffffffffffff1673ffffffffffffffffffffffffffffffffffffffff168152602001908152602001600020600201546000604051808581526020018481526020018381526020018260038111156200ab1157fe5b60ff16815260200194505050505060405180910390a250506200ab5e565b6200ab5d7f034ef07895c86f0c303220957b4931fab59dc21fbd6bb68b03b418d77a61cb2e60001b620034a1565b5b505050565b60006200aba783836040518060400160405280601e81526020017f536166654d6174683a207375627472616374696f6e206f766572666c6f77000081525062013170565b905092915050565b60006200abdf7ff5b08f882c9a2927fe8ddf4df4c140367e6960124e1a82f4ee2fcb8eaa1883f660001b620034a1565b6200ac0d7fb4b7923885ce4fe3bd34cb9771ed5b93f7ea61db7ba439ee1df1d8fc9a32ba6b60001b620034a1565b6200ac3b7f93eb782024092d60a3cad32aa4b762da1b6d52e9abb5e6f7af1852feaee5750f60001b620034a1565b6015829080600181540180825580915050600190039060005260206000200160009091909190916101000a81548173ffffffffffffffffffffffffffffffffffffffff021916908373ffffffffffffffffffffffffffffffffffffffff1602179055506200accc7fd691962148467f9686899bb8e13bffcddc1d44ade0484f9407fd86a4af3119ee60001b620034a1565b6200acfa7f91470f327941dbaa5cf76714ebc86277532be331ac8a1dd82b17ef9b4636449460001b620034a1565b6200ad1560016015805490506200ab6390919063ffffffff16565b90506200ad457f417c44a0309fc463e4f7f7ada7e805489ec0110a96e892e1d906fb0fec8a4a5b60001b620034a1565b6200ad737f8855435194b6ec7c690f81cd9cf1709cb3dc5e1cf7a8c92564236aa76f0baf9260001b620034a1565b80600e60008473ffffffffffffffffffffffffffffffffffffffff1673ffffffffffffffffffffffffffffffffffffffff16815260200190815260200160002060030160016101000a8154816fffffffffffffffffffffffffffffffff02191690836fffffffffffffffffffffffffffffffff1602179055506200ae1a7f976519f5068d57633fff74daacf5fb532be073b103e44ea8fdc78c86840b1a4d60001b620034a1565b6200ae487ff30b4221d5a69cacbe0f6a45565848a642c67753135686a69ea6fb78dbe26edc60001b620034a1565b809050919050565b60006200ae807f7dabcb71f6d91b1217cb60c49ce81f8e5767b03bbdc7f42c792a3139f79ac28160001b620034a1565b6200aeae7f93ed9ceb935fb920495c755a8504eb81a6f501b39ce4bb8f86ed46cccd2520b560001b620034a1565b6200aedc7f39dd3737b99245e63ee2990fe7775851a588d094a0abaa273e2aeb4213c7ddad60001b620034a1565b60006200af2b600e60008573ffffffffffffffffffffffffffffffffffffffff1673ffffffffffffffffffffffffffffffffffffffff1681526020019081526020016000206001015462013234565b90506200af5b7f08fea6cd5226c0c307c4b976570e0f11e18442349a2e6412f05647e33fa55f3460001b620034a1565b6200af897f77fd9f234038cdf9413d0074eee434ca1ecd3a7f0f41736c8031f052b597be6c60001b620034a1565b6000600e60008573ffffffffffffffffffffffffffffffffffffffff1673ffffffffffffffffffffffffffffffffffffffff1681526020019081526020016000206002015490506200affe7f5fba378876efa367a1fa2de2b467e0357875f1da679bda8a8dbed8c83b9acbf660001b620034a1565b6200b02c7f1a07910ed7866109d80561bb94c4bc765cb9d48920f6b62d2493975a3cd9321c60001b620034a1565b81600e60008673ffffffffffffffffffffffffffffffffffffffff1673ffffffffffffffffffffffffffffffffffffffff168152602001908152602001600020600201819055506200b0a17faf3afb998c01f036ed43180b1806c55cc9701fc7143c4d323e937c98a0c5acd960001b620034a1565b6200b0cf7ffc783f612bd52e34331e6e67c2f2ac79a7661731a7ad0345c99577469f3d02f860001b620034a1565b6200b0fa826200b0eb83600f546200ab6390919063ffffffff16565b6200f42590919063ffffffff16565b600f819055506200b12e7f9c3248b9e8722abd0551d498c908e9d6dd7c474f284bc00b5d5014300c87633d60001b620034a1565b6200b15c7ffdb3d2c4c8f99618dca54878cfb994ffbf34e074bc7171dfb7355b76dc47f5ca60001b620034a1565b7f6bac5e0eb3c44eb03a60ab11ec3a2c051771616aecadbcfff2630aabae520382600f546040518082815260200191505060405180910390a16200b1c37f49c11249d19652c4e7ac5185196d03bf47421202be4ca3c4130816dd7a155c1460001b620034a1565b6200b1f17f7a63c25cabf6a907495348c1415bf8d4c802c367664487813baa0482290e255460001b620034a1565b8192505050919050565b60006200b22b7f147b00b6dfb7ae8a4e87645c7ca77266441741fe56fc7b5f7b5b8ad259a6d28e60001b62003475565b6200b2597fc638540e751fe7551cc5cbfd9158321c0ec71f77d6418c73fdaff393e35cb4b260001b62003475565b6200b2877fca23378d8a02c8f9b654f27cbeb79b4d5f9df68d5c3e868bb7d7873c9167757f60001b62003475565b60006200b294836200ffc4565b90506200b2c47fa68e5f40d7be8042db6688cc33112600c21fbc1841e48996e5a812d643ef155460001b62003475565b6200b2f27f5c85d4ef3ef98408d868b4261fcb8a9238d27d22b6029d804112e31f1a9c2e8a60001b62003475565b6714d1120d7b1600008110915050919050565b6200b30f6201796a565b6200b33d7f34432fbe18efb3aee13d89287ed0bb59e00e29daf05349f732bc7226cc0fdcb860001b620034a1565b6200b36b7fb32964fdf4e37db6a707fbbb4df73bb8750d34865729b1fbc2fef94b84821c7060001b620034a1565b6200b3997fbc2606d9aa9eb135d48a74e8e1d5014d5f90c6d6dddd9e48c5bbd04b754f66a860001b620034a1565b6200b3a362017af5565b6200b3d17ffbfb7ecefc2d5c50efa45a14108bf1c6f040111a97495911df4236b96ad1cafa60001b620034a1565b6200b3ff7fdfc1ce108405207f6a4a15062927e15f1b2248677e7bfa9e4f734109fb8a5d4960001b620034a1565b6200b40962017b4a565b6200b4377fedc1f780b4a835d58ed1ad52182fff292a54575ed3c66a9c901b25611acc152f60001b620034a1565b6200b4657fc9c89117bb945164d3d55b543a460ad85d6cec2553a2118dee86fef3fa0062f860001b620034a1565b848260000181815250506200b49d7fc9289be669f9c26f87304e9b3b40a39d5af0c414e28626be7f71080e08b22b6960001b620034a1565b6200b4cb7f0617095024ea54ca035528f6b7b5c338cdf4dc22e33d634dbd949e00f7e7b60a60001b620034a1565b60008260800190151590811515815250506200b50a7f0f7f9fe57b74e57b9d8aacee916c50272ac6a59c962e0cfcf90a7a626d5fe81d60001b620034a1565b6200b5387f68d7111a06b646f637bee8e0deb5b121bb18ba8144562485a2b251d92e98d34460001b620034a1565b6200b54262005399565b8260a00181815250506200b5797ff49dcdb16004ec3f78c75b9d3735310fde1354ade9280b75812fe017bfddc9cb60001b620034a1565b6200b5a77f9dd08b4c7280961aacf5cc97a0e4c0f663aa4d536142d0793b23f75494c5755960001b620034a1565b6200b5b162006bf9565b8260c00181815250506200b5e87f3800f7bebbd5da5000bce03141e21ec20eccf45774bc422b6953533e9eea9d0860001b620034a1565b6200b6167f201d78a05502f6e2060c164e1e70b962fbf741a3bbc0a94d0a910fed8766fefb60001b620034a1565b60008260200181815250505b8351826020015110156200bff4576200b65e7faed787866392a5eb0b9fdd5632fd9101cae41eae0e212adc8f5b5c1f3c98091e60001b620034a1565b6200b68c7f83d35f405ae39c7f984cf8df1fddcd7989f077cb33cb39ecf990e80b2bbaf9dc60001b620034a1565b838260200151815181106200b69d57fe5b6020026020010151826060019073ffffffffffffffffffffffffffffffffffffffff16908173ffffffffffffffffffffffffffffffffffffffff16815250506200b70a7f453aee673c18ec9cdbae9d0d8d8999bb22d0e9bf9b55206dddf5d42632fad04b60001b620034a1565b6200b7387f2fceba3bcd6e848ce505ac87cd7e165e7d3eb26cc3f26189fa9229b719f4795760001b620034a1565b600160048111156200b74657fe5b600e6000846060015173ffffffffffffffffffffffffffffffffffffffff1673ffffffffffffffffffffffffffffffffffffffff16815260200190815260200160002060030160009054906101000a900460ff1660048111156200b7a657fe5b146200b7e0576200b7da7f85968862ee8b476742cdfc8a61c351124d8f601a9d9510cb0d1b0f301ed2da5a60001b620034a1565b6200bfde565b6200b80e7f46b88f8b84b2dc91f99202b8a9298029fccf09dde847557ad22e9298841788f260001b620034a1565b6200b83c7f83088947d008a2015332b688146ff9952f866c69e13ade8b33b7bfcd55578d1f60001b620034a1565b6200b86a7f520d94096c030529819cf166ea6a11c7ffd905f74c7c3674d0658c11ac42b26a60001b620034a1565b6200b87a826060015187620094ce565b8260400181815250506200b8b17f153ffcc0d1dc2b3cd0caa78851777926c41b30b07728e69ae39d3945c6b2ccdf60001b620034a1565b6200b8df7ffbffffc22ab7629daaeffdc83983a8b1a1b04dccf4e3d8085ed8a072d7b1a40260001b620034a1565b81608001516200bd95576200b9177f89e30778c08a6648f9aea9581bc54f0b31d8e4bed7d374f57373d84e007f1d4f60001b620034a1565b6200b9457fd63d141f5764b1bf89d110c8491dea50f560cd5b7e7027560b872b79dc09f1c960001b620034a1565b6200b9737fcd9222cf6b5f99a121340aeeb6144fe2016b12b7b1620059118c067b79fe591f60001b620034a1565b670f43fc2c04ee00008260400151101580156200b994575060008260000151145b156200b9ce576200b9c87fb635aae3e3b42bb0805417383eaa88a3d3111cdfa7a47e35839c72355ee06eca60001b620034a1565b6200bfde565b6200b9fc7fae17735f70f0c28c60774c7d782a5c567c853fc70c8e161ad28a1cd4bdf21e7b60001b620034a1565b6200ba2a7fc04f3fe044429132b8fc11cc2988d21bf2fb42d650f98c13f962619c091c064c60001b620034a1565b6200ba587fb1a5f76237858889923344e255f8c087d20d78ed18e5ac5ed4e8dc1c3e0dfaab60001b620034a1565b60006200ba6f8360c001518460a00151896201284e565b90506200ba9f7f76d08fd6e6551708be15a026d8085f6fc1d700026002fb4dd291626a7354d3f260001b620034a1565b6200bacd7f5d7ec80a0092e33456de007bff1236a0b30ef2d860a8c76169715bec2e32c04d60001b620034a1565b6200baea8989856060015186604001518760000151868d62013545565b91506200bb1a7ffd50d3d851a66ed7f06bff46c5f1d800a5552115c39444db775db1b77510f9fd60001b620034a1565b6200bb487fd82f9d8d02e113ebb61d7cdad6737659c10b7886249099aabf34b742c384f1c660001b620034a1565b6200bb65826080015184600001516200ab6390919063ffffffff16565b8360000181815250506200bb9c7fd1cce5a27291f3982e3c67b908e35e093ead1c061645609df8c48d29e1d47d3b60001b620034a1565b6200bbca7f2c5a75e285c86c03f4661dceab61f3828f702d4324632d883411e1f1fa4b87e860001b620034a1565b6200bbe782608001518460a001516200ab6390919063ffffffff16565b8360a00181815250506200bc1e7fb475b7193d1445fdb814349fa403ce80a5b152d8a6efda26a9dc7cf2fe278f5860001b620034a1565b6200bc4c7ff49f86d6eedcb9de6a2133dc009eb48da700737dddcbc777c2a03e23836fda9e60001b620034a1565b6200bc9a8261010001516200bc8b84604001516200bc7c8660a001518860c001516200ab6390919063ffffffff16565b6200ab6390919063ffffffff16565b6200ab6390919063ffffffff16565b8360c00181815250506200bcd17f8bd14346138fe46d554bec12c13d5c9a7556fea2fe115f16a82faeaa3a41512b60001b620034a1565b6200bcff7f11a9bc9f94d020c80fad537b7311fa6ec723920ea0c489936546eb06d291545160001b620034a1565b6200bd0b848362014a0a565b93506200bd3b7fb63f072410ec4b111ffd81fdb26e20052f20bd5d640584917dafc903cf1f49ad60001b620034a1565b6200bd697ff46dc2b4623c3a3b5103399b95e05e70e480c4a200018a2f4b7b6454106d03bc60001b620034a1565b6200bd7e8360c001518460a001518962014f3c565b15836080019015159081151581525050506200bfdd565b6200bdc37fff1be307667f7dd663254cb2d4227399f9b4eb934462db7ab1dc8247c160271160001b620034a1565b6200bdf17f8bd301807941c159094f40304f2f0b472c3614e96e390a7281e9035737a4b7c660001b620034a1565b816080015180156200be0e5750670f43fc2c04ee00008260400151105b156200bfa8576200be427fa48f6af9070bc4c35049765035198d7dc9325725e63768ca0f61317ae0d9e07d60001b620034a1565b6200be707ffae9088db0bc967de0679a04cb2dd8697b7835d4aba420690ec288364fb0201c60001b620034a1565b6200be9e7f1e544e4faaabcd7e5f0891afef17dc90e5024bc25776fff49c54d570622d9cbb60001b620034a1565b6200beb48888846060015185600001516201504a565b90506200bee47ffa310116b1f1e049adee12bf5754a88282bfa38e475bac4edf874d159c89108460001b620034a1565b6200bf127f0c68f348351fb2f9ff9b0cc4d2b1c456e8556bd6c2abbea13730a46d8878569b60001b620034a1565b6200bf2f816080015183600001516200ab6390919063ffffffff16565b8260000181815250506200bf667f3566caf3f8604873ea9b7c2e7bb7384519ffd2d95207af82535f3a78adce537060001b620034a1565b6200bf947f13d52c4f2b28840cbee50e2998252a5c4b5fa0c12d7f9a9a59cfa8626df7c1ed60001b620034a1565b6200bfa0838262014a0a565b92506200bfdc565b6200bfd67f58f96b9cd4839dd7781d6b0943f552922894c135f25d45605ea515aa2c3d598960001b620034a1565b6200bfde565b5b5b816020018051809190600101815250506200b622565b505095945050505050565b6200c0096201796a565b6200c0377f2231afd2b560cb103f21d88117bb04906ed385a04a77f81d193c052f24f8806760001b620034a1565b6200c0657f9dc5cc0ba901b8f30b3c5fdf2fd51b8ba1928b35f0790b2206351c433bbae4f860001b620034a1565b6200c0937f8495b84248344af937880c295448f4c4c8656367b2114fe61df351fd97aea12260001b620034a1565b6200c09d62017af5565b6200c0cb7f1baffd68f507e91e26ee75d56b0bb6027c8deac6cb36e8036e768f080274cf2660001b620034a1565b6200c0f97fdab62cc675246e579dcd6f0c6db23bd51013c6a2eb0e0aaf04f0d889f9df565360001b620034a1565b6200c10362017b4a565b6200c1317fcbdc0a818cf4cbcc5c3dfc0699c46d9906b3d281d516f980d85fb3e5277c27dc60001b620034a1565b6200c15f7faaa1a05e204578a1606de695f1fdaf1f86b42c5478fab86cb155090d1956b15160001b620034a1565b848260000181815250506200c1977fe8db1109db2c2bf318b28b2c1fb298ddd61b06dd681283cb3312f416494748cd60001b620034a1565b6200c1c57f8bfca42658cb5ab40e49c44571c2e7aec27fd60d565f391053d3626c9c4d2f6460001b620034a1565b60008260200181815250505b8351826020015110156200c54a576200c20d7fc4d0f4143d326dd08502ee78f2ada7ba2c9692df4b6be7bca112c046a6f2c9c960001b620034a1565b6200c23b7fff237ed1160bd936fa4980864357ad1fa7863f8fb4ec3eecd66c0e34451adadd60001b620034a1565b838260200151815181106200c24c57fe5b6020026020010151826060019073ffffffffffffffffffffffffffffffffffffffff16908173ffffffffffffffffffffffffffffffffffffffff16815250506200c2b97fe087658bb61ddcc4d174f1fbce626521d2b47e0a23972030811cfc399f2f210760001b620034a1565b6200c2e77f2921dbf7735f069f5f4af6729b4ff54908bb5698a3f7d22ec5899d1690ea559560001b620034a1565b6200c2f7826060015187620094ce565b8260400181815250506200c32e7f79f214cd3cba59970d76ae1fba2c55ace2ad701825b2862049668538d9bd1f8760001b620034a1565b6200c35c7fafd513fa9616fa098e8c9d299c032c489ed9131eb5a3bffa70045b6776be961e60001b620034a1565b670f43fc2c04ee0000826040015110156200c505576200c39f7f34b3bacd4ae760f851afe648b21581bad51bf7a8b2ad21e6fe601aa279490c7a60001b620034a1565b6200c3cd7fbf2f58a9d5d5bda455dc9947202111a28cd3615414346dc300844872fa28606a60001b620034a1565b6200c3fb7f84bbb8b4a9919cec21755fb50274c88b82471efd0e080d209fa83ce4498680fe60001b620034a1565b6200c4118888846060015185600001516201504a565b90506200c4417f771789fec505aa0a3360c772bc69275f340e52f09292790b1bf35f3813f8699e60001b620034a1565b6200c46f7f53ff6d214fe70f80659d6f35e3391300ec031d5e167b23c43d43ca4abca8cb4060001b620034a1565b6200c48c816080015183600001516200ab6390919063ffffffff16565b8260000181815250506200c4c37f9c4ddf78f77cbb985ec542197b1c31f6b724a077698bf2e6a05be35a827165d460001b620034a1565b6200c4f17fe6c0cfac09fdf40878e395e15bb8d11184b42927e6e54378669cfde67cad249f60001b620034a1565b6200c4fd838262014a0a565b92506200c534565b6200c5337f325e647a5e648f6c6f03d7c34a0f2852c8fc0feb9f3d8f66b66a81bd8b76490a60001b620034a1565b5b816020018051809190600101815250506200c1d1565b505095945050505050565b6200c5837f8209c29ce069ca7cd32749bab5d23965f6a8ddd67294d60df4c165c12a2cf76560001b620034a1565b6200c5b17f7766ab8e1ce1ac9acfb2b72750008766b850a2e2d5a3b44f3531614aefbf271960001b620034a1565b6200c5df7f390dc49aee251577f9a8ebbe6abebfbfd7c379c255f55bff638f6b3283b7fd9560001b620034a1565b60008214156200c64b576200c6177fd79b704e19d71998cf6da65f6937cb7ac077688106df021829166e82f5d2a68e60001b620034a1565b6200c6457f9d39ae09287b46ed0e9db2b0062de557d4a60698c7665e3f7569447a3f14a0bd60001b620034a1565b6200cdcc565b6200c6797fd19cf9d4e28449987740756e4d6eb33a1bd7594ae5105eb51d901be7a6800c4e60001b620034a1565b6200c6a77f83d94b5849b1860242c537d2b14a4b1a4a04c55be4e9148e8d8ba625dd027e1c60001b620034a1565b6200c6d57f3dfb57218c308d6039b91c72d14284068a6a274c497ee0f39b1f07373cc1068f60001b620034a1565b60006200c70a6016546200c6fb670de0b6b3a7640000856200d8f990919063ffffffff16565b6200f42590919063ffffffff16565b90506200c73a7fdaaee714756d5cb8151274d9ef50e905b663c587b4f3399d9b710d1141349af460001b620034a1565b6200c7687fdd89d59f7d1e97372f672f3fffa22e36dd15a13c6a70729a00fd196b8533255b60001b620034a1565b60006200c79d6017546200c78e670de0b6b3a7640000876200d8f990919063ffffffff16565b6200f42590919063ffffffff16565b90506200c7cd7fdaec52344284c1847a4c29aa140ae63b3404b07ec7bb9444f9be2e9552b9c80260001b620034a1565b6200c7fb7fda4d88bc57bec04582ef1bb9e5a2e537fb4e1a9ab4e098fccc68f64d7428a44c60001b620034a1565b60006200c814600f54846200d98490919063ffffffff16565b90506200c8447f6e5c7260547b3658988101d831de7c18e13d01966e062f69d30256713079ca3b60001b620034a1565b6200c8727fc9605d2923ec3d79c82fd137ba6a576944b52bf6a03396ffaac44467cb75226960001b620034a1565b60006200c88b600f54846200d98490919063ffffffff16565b90506200c8bb7f57e29c0a5e0ce8adab6c72b46414d9ed62b41bc2eb26cf4a1b55904e2d38957560001b620034a1565b6200c8e97ff702e8971bc7545dde69d3e79b61969ad074eed01f29c3d906e465e60c4307c860001b620034a1565b6200c9146200c904600f54846200d8f990919063ffffffff16565b856200ab6390919063ffffffff16565b6016819055506200c9487fba592f7127143f499eccc19f054ef20f0564d4ecd7f2cba5fbf79b1a28b3c00760001b620034a1565b6200c9767f33ea480242a940483eb944d2f79376059b965605fda3cfaa54780ae15dc0328a60001b620034a1565b6200c9a16200c991600f54836200d8f990919063ffffffff16565b846200ab6390919063ffffffff16565b6017819055506200c9d57f32cf2c3e7e39ca9b0321f3877db259219895c9c7b11955280142ef420d4b522260001b620034a1565b6200ca037f1a333a85af155033f8722c9dfb303082dddd8ab38878682d8fb6270339bfb7d760001b620034a1565b6200ca1a826012546200f42590919063ffffffff16565b6012819055506200ca4e7fc3a3a18d032e21e9c0bd05b5a224688eddc23f16bf885df6c265f2f5defa1ac660001b620034a1565b6200ca7c7fb353dd37f4118cd428041413869b13ec8114d631e1cdc0fecac7d0a08065c3bf60001b620034a1565b6200ca93816013546200f42590919063ffffffff16565b6013819055506200cac77f90a5bdf8a1b296eccb56ad22619b994c792706813779a0ab434ed73db123010960001b620034a1565b6200caf57f209d105bd9c6c1f82b83e98667a7ef3eea25da15837b6b95f2fcbc3d9625e92160001b620034a1565b7f9f8bc8ab0daf5bceef75ecfd2085d1fcc6548c657ea970d9a23a60610d0737e3601254601354604051808381526020018281526020019250505060405180910390a16200cb667f16f51d7f67e06b0bb2490fd773af53d4fe3a8e23754614c6bc5723cff99438e660001b620034a1565b6200cb947fd60135b8ffa06587441e67f55286185a3969c4784dd8fd42f1ea9ef06e0e527760001b620034a1565b8773ffffffffffffffffffffffffffffffffffffffff166338d995a8876040518263ffffffff1660e01b815260040180828152602001915050600060405180830381600087803b1580156200cbe857600080fd5b505af11580156200cbfd573d6000803e3d6000fd5b505050506200cc2f7fe13293551e769051bbd4c69ed156b7bf6e145adba37e0afd11b62bcb4ed84c0060001b620034a1565b6200cc5d7f707f7e709a27f1ad6590a7b402d5933644cb7d642a1fd2d788907929e490a77060001b620034a1565b8673ffffffffffffffffffffffffffffffffffffffff1663cfb9329a876040518263ffffffff1660e01b815260040180828152602001915050600060405180830381600087803b1580156200ccb157600080fd5b505af11580156200ccc6573d6000803e3d6000fd5b505050506200ccf87f2919aa4428d020dd150381671d515a01cb34af21826f1b13d83965a4f3f30a5160001b620034a1565b6200cd267f5416de33219405f4b40a41331b1c7a977376883cc689505eac5cbf53660ad7ff60001b620034a1565b8773ffffffffffffffffffffffffffffffffffffffff166364a197f388876040518363ffffffff1660e01b8152600401808373ffffffffffffffffffffffffffffffffffffffff1673ffffffffffffffffffffffffffffffffffffffff16815260200182815260200192505050600060405180830381600087803b1580156200cdae57600080fd5b505af11580156200cdc3573d6000803e3d6000fd5b50505050505050505b50505050565b6200ce007fbf8f9f5061eb8c7dedd45bd89c0df60e122d7fa3a27e92cd8ef515da9fba996960001b620034a1565b6200ce2e7fb0ffb81dc766add6ad3ce2e71a16c26db4ef9fcfb3b89154c7a92159af01295360001b620034a1565b6200ce5c7f3275cfbe6c73bf4e1e9c14aaa50a97f78532aa9321ca8eaf0978e346c537f20c60001b620034a1565b600f546010819055506200ce937f587367d1b92993af231021db0474e864d2dca72f42a37cbe8ec97fdaeb35101d60001b620034a1565b6200cec17f25639088d12ad8b7eb3c4b5846545d90dcfa34e5543819ad2d9f01615a6c3abe60001b620034a1565b60008273ffffffffffffffffffffffffffffffffffffffff166314f6c3be6040518163ffffffff1660e01b815260040160206040518083038186803b1580156200cf0a57600080fd5b505afa1580156200cf1f573d6000803e3d6000fd5b505050506040513d60208110156200cf3657600080fd5b810190808051906020019092919050505090506200cf777f3b1b95b9d26c67664a0bc4b754b4aff7f84c167eabf522c40e36abf252fa948f60001b620034a1565b6200cfa57f68496f836c7336992e98dfb7f3b380a160a073023c0f9438aa82001cb7262c9360001b620034a1565b6000600160009054906101000a900473ffffffffffffffffffffffffffffffffffffffff1673ffffffffffffffffffffffffffffffffffffffff166314f6c3be6040518163ffffffff1660e01b815260040160206040518083038186803b1580156200d01057600080fd5b505afa1580156200d025573d6000803e3d6000fd5b505050506040513d60208110156200d03c57600080fd5b810190808051906020019092919050505090506200d07d7f36444491393e4be6ef9e2b352380a879d57de6281a2890b6238a43561e6f6b9060001b620034a1565b6200d0ab7faa5b28ce72999f0afa835b3dc96d0e5a0eb3a778a8284706a0fec5d041c93a8360001b620034a1565b6200d0d4816200d0c585856200ab6390919063ffffffff16565b6200f42590919063ffffffff16565b6011819055506200d1087f07c9a198cfa1aeb8ce5aa6535b1f6d88c168f4fb8bda334110b1bfc184df5dd760001b620034a1565b6200d1367fefab511785732b671d3ce52b5db17d57573585af620158ecaed260c856a8888e60001b620034a1565b7f51bf4c63ec3cba9d03d43238abbdd979dd91bd16d9895c74ceea9118c7baaf60601054601154604051808381526020018281526020019250505060405180910390a150505050565b6200d1ad7f68b2cbbdf24aa6f6f7b0cd363eb2fd243c59dcef650774a21e94f45afb27feae60001b620034a1565b6200d1db7f8a372af5db28ca9e837c208de510564d1ba1bf1bddb5f76f5880ee128b32804560001b620034a1565b6200d2097f0906c2ed7781f3911a02f6fff96b56475caa3102e8b46e89d8b27b62322d7b6a60001b620034a1565b60008211156200d3bc576200d2417f20466712dc84f2df66c1ae75cd8f2a2ccf3b78fa046771d06725e7d2bc504bfc60001b620034a1565b6200d26f7f18c4af8304adb2665723ba90e75da4580d3d15bd2e4a5b2666b0d7eab589a45960001b620034a1565b6200d29d7ff8bd0627626ab8cf68270c1a129a88c1b87b6e821784267429c2318a5e52c60e60001b620034a1565b600860009054906101000a900473ffffffffffffffffffffffffffffffffffffffff1673ffffffffffffffffffffffffffffffffffffffff166320c582be600660009054906101000a900473ffffffffffffffffffffffffffffffffffffffff1685856040518463ffffffff1660e01b8152600401808473ffffffffffffffffffffffffffffffffffffffff1673ffffffffffffffffffffffffffffffffffffffff1681526020018373ffffffffffffffffffffffffffffffffffffffff1673ffffffffffffffffffffffffffffffffffffffff1681526020018281526020019350505050600060405180830381600087803b1580156200d39d57600080fd5b505af11580156200d3b2573d6000803e3d6000fd5b505050506200d3eb565b6200d3ea7fa44c892a632591680fc43047ebdfabbd3ab10457bc3b0ea6d04754317267c0b260001b620034a1565b5b6200d4197f1fd02a4779989f74bbf8cb96e94711e3c6eaee6fac4fe140f62d67d6aa1c938760001b620034a1565b6200d4477f527709f29075bab496593fe2ce173fd1838ba60594d5cd678ff2d96ec555788060001b620034a1565b60008111156200d582576200d47f7f6fd6acd02a52401ea0735ed470e1522a4170d1f8f62bfa36e4cedbc74a83c0e860001b620034a1565b6200d4ad7ff1971c47c433615fe6cd44be5f275d28f3b1f8a0d1a044185c0da498e09f1ec060001b620034a1565b6200d4db7f2e3e10a577fed8f3749e2b07e5f59f97396969f867ac863e1898ad272058fa4460001b620034a1565b8373ffffffffffffffffffffffffffffffffffffffff166364a197f384836040518363ffffffff1660e01b8152600401808373ffffffffffffffffffffffffffffffffffffffff1673ffffffffffffffffffffffffffffffffffffffff16815260200182815260200192505050600060405180830381600087803b1580156200d56357600080fd5b505af11580156200d578573d6000803e3d6000fd5b505050506200d5b1565b6200d5b07fa2928582f99392ebdd38514546dc92f60e19fbb16d24a811d731067f314e78ec60001b620034a1565b5b50505050565b60006200d5e77fec3c4621e21a3d7e97d37d896f02b04dbe24a4356bde9a00184e990351d58a6160001b620034a1565b6200d6157fcf40958dffe5b5bfe3a98ea9683cf199f648c9b5811fa110cb3707ae073f9edf60001b620034a1565b6200d6437fe6bdda41670329046516e07241e5e675f30512b0dae793fd74af89b141b64ff260001b620034a1565b6200d6826200d6738360056103e8670de0b6b3a7640000816200d66257fe5b04026200f42590919063ffffffff16565b670de0b6b3a7640000620156b5565b9050919050565b6200d6b77f71a32f1683e3015aadce2993e0662a80a3654761da1488d7dbe8475d7741590a60001b620034a1565b6200d6e57fbe5d2374dd5ce330d20353386223f423136aec61f21dba10664404aeb4e059d560001b620034a1565b6200d7137f33150438c72e5bdc5f24ba828c8ca14216b761ced3d46cc1f29d66037138aba160001b620034a1565b6200d7417fcd146ae34352f9e69a62bae5b131f7da4050076578b1c91fb9713e8fe4392ef460001b620034a1565b600160048111156200d74f57fe5b600e60008373ffffffffffffffffffffffffffffffffffffffff1673ffffffffffffffffffffffffffffffffffffffff16815260200190815260200160002060030160009054906101000a900460ff1660048111156200d7ab57fe5b146200d803576040517f08c379a000000000000000000000000000000000000000000000000000000000815260040180806020018281038252602f81526020018062017e0b602f913960400191505060405180910390fd5b6200d8317fb43d59d268175ee19979d33ad768db53629134c10d397538141f75ea53d1289b60001b620034a1565b50565b60006200d8647fab9efcd08bcb361a30e8a0fbe0c3f165fe3092c6843105fa95949e881e82cfc160001b620034a1565b6200d8927ff4c3ffd7ed4c050d7b0c86491d669ae0c90e667480db1881c840fd28b4a0d64460001b620034a1565b6200d8c07f5dd25ff6593283b6429963020f569c87f2865a42cc6628fabc19f0bd20b5748660001b620034a1565b6200d8f1670de0b6b3a76400006200d8e284866200d8f990919063ffffffff16565b6200d98490919063ffffffff16565b905092915050565b6000808314156200d90e57600090506200d97e565b60008284029050828482816200d92057fe5b04146200d979576040517f08c379a000000000000000000000000000000000000000000000000000000000815260040180806020018281038252602181526020018062017c4b6021913960400191505060405180910390fd5b809150505b92915050565b60006200d9c883836040518060400160405280601a81526020017f536166654d6174683a206469766973696f6e206279207a65726f0000000000008152506201575a565b905092915050565b60006200da007f44b2a4d5a83dc398b4353851443245b3c09d3b1f5803b16d63873c351c7a6adb60001b620034a1565b6200da2e7f1584cbce5dfb52101b3e13eb5482a1aaff2526cdb74a4db5e9c1a53d218f2b4660001b620034a1565b6200da5c7ff155eb9164d959d5788cffb30ba166c1129258c03133caec3bc9194f2b68b9a860001b620034a1565b60006200da6862015825565b90506200da987fb07144ac72dc03b04515658b882e253f03a541109804343d351d435b4dd1ffd960001b620034a1565b6200dac67f4b2037a0b0e95b4451f5634ffa2b0780f32b0626c119cc3194b7376b834da9f960001b620034a1565b60006200dadc670ddd4b8c6c7d70d883620158e2565b90506200db0c7f02b5656dbf205d91508b8c5da0e1439ea7de29d58d52f70689421ef3a72b61e860001b620034a1565b6200db3a7fd1b8b5b40039a5e41e3aedd73b99df75a0384f68f13b0e9d452b7e3162bf170f60001b620034a1565b6200db6d670de0b6b3a76400006200db5e83600c546200d8f990919063ffffffff16565b6200d98490919063ffffffff16565b9250505090565b6200dba27f6e9b33a6c8d8c1997e4d51ba9ef87d1de43dbea792abade901ff2baf6b06c05060001b620034a1565b6200dbd07f6c6a9c6b52422b7cc32265116860dc84400299ab0aa3129d53208de91bfe14a560001b620034a1565b6200dbfe7f786d3fb9a9c9b39977dce5cfcf5762de9e86aebb2dff4d2c73af09c5073bb6da60001b620034a1565b60006200dc17600d54426200ab6390919063ffffffff16565b90506200dc477f3c39af44e8047840c4e57a687c934d5081ac4ebcac3530a3c25f39b2da081c7160001b620034a1565b6200dc747ee50bbd05975df3dfc7e21df5e56e767a58bda2ac54e5be7b460565496f922360001b620034a1565b603c81106200dda7576200dcab7f5b793431e528bc229b10a1db211b7195402a151479900da7a28229504198837f60001b620034a1565b6200dcd97f822406f84fc54cb84fac786264afea0bc8d43447c107cc60dfd95e782eb26b6b60001b620034a1565b6200dd077fda928a523386d354d2d34377b50e75e3b9b004ac4d73cd49dbfba65cf6fcc26160001b620034a1565b42600d819055506200dd3c7fc39017d4493b8d5b20b0bb1aa2d41a4253f0e0da8bcd81f0f932735d15b89f9460001b620034a1565b6200dd6a7f4ce6dac0af0ea0888c2152bca508bcf9d8cb00cb8725c3bca8971db920ea3a5960001b620034a1565b7f860f8d2f0c74dd487e89e2883e3b25b8159ce1e1b3433a291cba7b82c508f3bc426040518082815260200191505060405180910390a16200ddd6565b6200ddd57f6c7a7c1d8da1196c35c3724341705816946f7da295541f6aecf3605f568677f560001b620034a1565b5b50565b6200dde36201796a565b6200de117fe8ac22f71a05586fbaabe1f65f13ba5cf4227c35f7065ad468bba62035e968f360001b620034a1565b6200de3f7ff10d5f076fdf7c6ac763abe39a5d40b07783c85696cbfbd55e1ad40497e977b660001b620034a1565b6200de6d7f4d16beef13051ccc5e6a36e6ed6d8e6956e5f039035fd1331a6e8ccf39e7c98e60001b620034a1565b6200de7762017af5565b6200dea57ff5c89e976d1e7e0ff6adbafd3939091e3ec914129487e51aa3996c4872206f7d60001b620034a1565b6200ded37fce4268b9a3ee52b84b58f8c59df5bec8de3f05bc8f6541aa47089204b70462e060001b620034a1565b6200dedd62017b4a565b6200df0b7f0fa33f2fb640aaca581fd24ad9b45c5795799cec016e2d29a9b31e563ae259e860001b620034a1565b6200df397ff58321617f1768044c4d9c6baa44e53e25b39331aa2e81e550615f3bd82d0f8560001b620034a1565b848260000181815250506200df717feacfd028ee8929005ddbcc6aba138c0119113f724835a9f704729b6779bee04f60001b620034a1565b6200df9f7fb4d2e37c426983ee2a945d46707f92ff97009556aa672e4adf78266a4bffbb2460001b620034a1565b60008260800190151590811515815250506200dfde7fae1b6421a25096fa7d5fcd4f1530a362023139c5ed307467f82fb0c68352482b60001b620034a1565b6200e00c7f7f596389b5d5cd2b260fdeee8800dd226302933a3194f1368a222236ed9c3b9e60001b620034a1565b6200e01662005399565b8260a00181815250506200e04c7e281ae1995e7fc2bbed329b4bce67c34fe1542a3c3d5fc0c1dcb7d968bc4c0560001b620034a1565b6200e07a7fb684f29a577de507228504bd655e6025697ad67db5a5537d879627488209b44660001b620034a1565b6200e08462006bf9565b8260c00181815250506200e0bb7f3d58b65ddca95e241017981f60ddea0431f46b324454369b272f92e4a96254d960001b620034a1565b6200e0e97f5d32d03888f1a04f09107652ef61872fbe9ffa89aa47306fe3b71d9729cf3ec060001b620034a1565b866080015173ffffffffffffffffffffffffffffffffffffffff16634d6228316040518163ffffffff1660e01b815260040160206040518083038186803b1580156200e13457600080fd5b505afa1580156200e149573d6000803e3d6000fd5b505050506040513d60208110156200e16057600080fd5b8101908080519060200190929190505050826060019073ffffffffffffffffffffffffffffffffffffffff16908173ffffffffffffffffffffffffffffffffffffffff16815250506200e1d67f570b7af3e9b27de6c104f28f8aa74be46e913adaf6f28bc6c90f9649c8c87cad60001b620034a1565b6200e2047f25462315f24a307b7187584ff2a932111161886564bf69f9c5a3472e4178d62e60001b620034a1565b6000876080015173ffffffffffffffffffffffffffffffffffffffff16631e2231436040518163ffffffff1660e01b815260040160206040518083038186803b1580156200e25157600080fd5b505afa1580156200e266573d6000803e3d6000fd5b505050506040513d60208110156200e27d57600080fd5b810190808051906020019092919050505090506200e2be7f6adc4d243ee38c98a37f0123a63d5b530bb553c506895c9d1dc7fade6775400560001b620034a1565b6200e2ec7fd79a053cc05d93058762bc85e18a1a75056c27561356fa713d54b7c1e731aab860001b620034a1565b60008360200181815250505b8483602001511080156200e33c57508073ffffffffffffffffffffffffffffffffffffffff16836060015173ffffffffffffffffffffffffffffffffffffffff1614155b156200ecf1576200e3707f71e83fe7fc13420aef879efd984ed259702ba66c4fa4ae28999ff7816bec4ce360001b620034a1565b6200e39e7fea3abbfc20f3884c13cae20380ab42cee6c6e86de048bfa4b1545d9fc2d6446e60001b620034a1565b6000886080015173ffffffffffffffffffffffffffffffffffffffff1663b72703ac85606001516040518263ffffffff1660e01b8152600401808273ffffffffffffffffffffffffffffffffffffffff1673ffffffffffffffffffffffffffffffffffffffff16815260200191505060206040518083038186803b1580156200e42657600080fd5b505afa1580156200e43b573d6000803e3d6000fd5b505050506040513d60208110156200e45257600080fd5b810190808051906020019092919050505090506200e4937f119b75b0410d2ee55ebc011b0079646d404d8aa70c052ce1dab50c7b3298c51760001b620034a1565b6200e4c17fc0fda3e0c54ffdb1a6d90c603b4970fb079708850b67b0735a5febb095f9724860001b620034a1565b6200e4d1846060015189620094ce565b8460400181815250506200e5087f4eb65e29c26848b6e0a4178176ab11d8c5d34299f32fadd12b420b2cf2c4bf4a60001b620034a1565b6200e5367fa2ff9c0525e7b39cd8a8828f5689d67f889861b41ca237852d6f17524f7377d860001b620034a1565b83608001516200e9f5576200e56e7f715c8dff5867edc9da0a5d27e90b12876dbdc002eb04c8de962854ddc5d223fe60001b620034a1565b6200e59c7fff8693d52d5025839e892ed89d5da850ee82525f9d07e384e6f372379cd9e0a060001b620034a1565b6200e5ca7f3ca69cbff9108bb9d5b227c25e74d8c723afd6adce1788981f208a1e5b68ae7960001b620034a1565b670f43fc2c04ee00008460400151101580156200e5eb575060008460000151145b156200e626576200e61f7f20c46ce56f05a53207024451c964d21f83a664c1a37dc305f781f9d5017d8f9260001b620034a1565b506200ecf1565b6200e6547f20ac4acfa3bd07b5911376228607b766f1c22e14e69ff9fa3f409b2d740883eb60001b620034a1565b6200e6827f2dfd1644cc838425918ebe2f224e36915638f4894ab8b33c9cf4156979a599eb60001b620034a1565b6200e6b07f112c3aa09f272176389f6d2ac7d570527848c3e31e5b2cb2b675c566d55f3ee760001b620034a1565b60006200e6c78560c001518660a001518b6201284e565b90506200e6f77ffbf5cc5ce25140b944c94f8cfbac8c99a4b0972bdefbeda36a3ed7f98749ac7660001b620034a1565b6200e7257f7409c631422376cff9f5bccdf51d351de85a1fbc3c84cb9f331bccf5f94bd78b60001b620034a1565b6200e74a8a600001518b60200151876060015188604001518960000151868f62013545565b93506200e77a7fba4edab21b19b537b4a67c77533face34524c2695e9863152bbe0103e0c318ac60001b620034a1565b6200e7a87f61575e98fb5b6e35af7d4171bc63b526a11e7267333ccdc476d064a98a5486ec60001b620034a1565b6200e7c5846080015186600001516200ab6390919063ffffffff16565b8560000181815250506200e7fc7fae70e9ec0add4edd75ee5aef758d3033ed7c8cf5f82e93f194bedf6fc73cec8a60001b620034a1565b6200e82a7f82c820169a1cef5efa0c6aac1ee0612d04c5f57ebd0ec9c5bbd2330d7dc69c3960001b620034a1565b6200e84784608001518660a001516200ab6390919063ffffffff16565b8560a00181815250506200e87e7f6ae18c34614512d3fa1476bcf02e18f1bbcd4926a6f7933854fab9522d9faa1560001b620034a1565b6200e8ac7fbd673396c27c6d9b63c54b76895fd3a85f9bf2d82c068f35c87dc1b78f2ea04660001b620034a1565b6200e8fa8461010001516200e8eb86604001516200e8dc8860a001518a60c001516200ab6390919063ffffffff16565b6200ab6390919063ffffffff16565b6200ab6390919063ffffffff16565b8560c00181815250506200e9317f2d070a1fcec42fc64697d72a62460a53f41dbed86ae9ad1aec16dc7168b764cb60001b620034a1565b6200e95f7f20daff817127dbd63439a5f0f6e43e69eb66d2a11f020a8a0356905620a01c2960001b620034a1565b6200e96b868562014a0a565b95506200e99b7fab7cf2b41669fce6193693f56fde134e90764fa34a3abe1a58b32891a7d8510460001b620034a1565b6200e9c97f0ff1453420f91d8f70df889d309812d14017c0d1fc577b3290855c69b172f32960001b620034a1565b6200e9de8560c001518660a001518b62014f3c565b15856080019015159081151581525050506200ec46565b6200ea237fa3872665b67317fdca1d6f00f0fe7f2db85bc60c8a744c5ce4f0bd18f44ede3f60001b620034a1565b6200ea517f5e9dc765a44752a0d097f68e8730bfcbbe0a65963de2efe5bd3d6282f40ac53360001b620034a1565b836080015180156200ea6e5750670f43fc2c04ee00008460400151105b156200ec10576200eaa27f46dff4728fc490de22cdfae0225ce432de7749541b19995585bc409b90db47c260001b620034a1565b6200ead07f573a469248298c01d640d8258950d208e9e4162a5a6b7df7eb816717f8dafb8260001b620034a1565b6200eafe7f218c3dde872f561c62ef705d33eea02805126cb5ace4e137e4b6f825c20a4f3160001b620034a1565b6200eb1c89600001518a60200151866060015187600001516201504a565b92506200eb4c7fbb148a763ef09a1b589d9af7ce1c27e996dad836998ac98674ea2b06ab96d5d560001b620034a1565b6200eb7a7f1ae9fea263a8fee0665fe381d099951184f1aee425d387c1c4f557a84a835dd360001b620034a1565b6200eb97836080015185600001516200ab6390919063ffffffff16565b8460000181815250506200ebce7fffcaa1a3f51d8714784262199b5ba0b9fe830fab7c4fa14751489f46c5d9674560001b620034a1565b6200ebfc7f2a6215998bf1bd472780803517c69114a3584afc00cacd25867106ce7c6f1ed660001b620034a1565b6200ec08858462014a0a565b94506200ec45565b6200ec3e7f318b6753a96c65a3228847837af693cc3ff46f63dbde7384ecd87722398e86bd60001b620034a1565b506200ecf1565b5b6200ec747f1b33d5eebbb91f34c4e1b25e3d4bfefe2aad39c6657e32926db44ccc4ef26a7e60001b620034a1565b6200eca27fc01f6973e4c79897b37856af817b3555c01fe1d4fc76ae77567d622f02ba583d60001b620034a1565b80846060019073ffffffffffffffffffffffffffffffffffffffff16908173ffffffffffffffffffffffffffffffffffffffff168152505050826020018051809190600101815250506200e2f8565b505050949350505050565b6200ed066201796a565b6200ed347f4d35a9a50aa24a14f6dd60f80fcec2dca08b8ffd2248573017747dcd10877e9160001b620034a1565b6200ed627ff472969d30671b6125fdc4ce1d04887ab3fd1c6d2d0291e1ef29780e3055a35460001b620034a1565b6200ed907fa2d4510ae691167a42e43fe59ce41b74abe8dd3cdb547e67e6d245eb8bb8f79f60001b620034a1565b6200ed9a62017af5565b6200edc87f3888fab5159bae08cbd51b43dd3981389aff82640dd6a436bacb6755e63d14d960001b620034a1565b6200edf67f1cc1b68057307fcfa9da6aac18d543f9b18beba406fd30b4db0178da3cc3c2b960001b620034a1565b6200ee0062017b4a565b6200ee2e7fd43d01c0d8c064c3561d9c903b4d77fb78d8790ca65a74e72f0d8e9340cf6da660001b620034a1565b6200ee5c7fb4526483bcf5ba4f24a7c8575e4c4288729fc0e1d6fb541d4c4521c76f8e9ae560001b620034a1565b6000600b60009054906101000a900473ffffffffffffffffffffffffffffffffffffffff1690506200eeb17f87b1e19fb4af802a5582d0c958641d216576899fdfa160bd2a158def1ffc7b2260001b620034a1565b6200eedf7fab0e83f942a3cb83cdd62495ef1b5baa7e53c33d6e2b995275708c7903ca26ee60001b620034a1565b858360000181815250506200ef177fd03a4b2dbaacec025dc7640616e73a22225e5e9a8f5635d79c01293b738ae5fc60001b620034a1565b6200ef457f5fd55ab995135e1dc0ef0eaac592a6bfcfd592ef602837f8b88ae49592d4226960001b620034a1565b60008360200181815250505b84836020015110156200f339576200ef8c7f536c4578805d684fd0779b6b8a0d259ae84ebe4000e4d4e69e4118d216e4cdb160001b620034a1565b6200efba7fcaf1fa9722c37dffb77189a7247cf8b4ff6e41fc372636c00e17a1fdebc42bf060001b620034a1565b8073ffffffffffffffffffffffffffffffffffffffff16634d6228316040518163ffffffff1660e01b815260040160206040518083038186803b1580156200f00157600080fd5b505afa1580156200f016573d6000803e3d6000fd5b505050506040513d60208110156200f02d57600080fd5b8101908080519060200190929190505050836060019073ffffffffffffffffffffffffffffffffffffffff16908173ffffffffffffffffffffffffffffffffffffffff16815250506200f0a37fc3f6d9efb392f670af954c6a7a113d5f8a041eb13128528201ee08892518cea760001b620034a1565b6200f0d17f640972e5f7329b1fcb1fa52c6f7643d4024bd278c61e26541f4174413ea125b160001b620034a1565b6200f0e1836060015188620094ce565b8360400181815250506200f1187f978c1e4758454d39ccbad78359f84ec4553b43bc2d7977bf934b28181d378b4d60001b620034a1565b6200f1467f1f368ec729bb71120451f5ab2bda088d81052b8e4f00346fca7e66cba785aba860001b620034a1565b670f43fc2c04ee0000836040015110156200f2ef576200f1897f1049f7a2d8927361804b6f501d90a8584210b5b2c3c665e62b8fc156e19c677060001b620034a1565b6200f1b77f9efa94b9abfb6d35df421e4ac008ff2aade758b7602954b48715c5a272c2c38260001b620034a1565b6200f1e57f837b30ae57fba5e215cd0abebfa54d4089ded09c095ee031c30d7a001bc29e2860001b620034a1565b6200f1fb8989856060015186600001516201504a565b91506200f22b7f7f96bf240b91a3748f9efe72daf075cd4a07343b2a0ad78e00dd8ba55c2ae11760001b620034a1565b6200f2597ff17e02e546136b5cb3707e3a18774b01393f454163e2b41e259be0734412eb6260001b620034a1565b6200f276826080015184600001516200ab6390919063ffffffff16565b8360000181815250506200f2ad7fa9e598af8fc8f57117eb741295ecc68f97b0e4b0f12559b885ef9997d520d5e560001b620034a1565b6200f2db7f15bc2ff44107ba83287636bd19c53d912bfdcc94ed466a3e8efb015c89c397fa60001b620034a1565b6200f2e7848362014a0a565b93506200f323565b6200f31d7f4337dd3beb5333f8fcd318f1e13654b4f16e7c60952cf2a38e0a4152874e866c60001b620034a1565b6200f339565b826020018051809190600101815250506200ef51565b50505095945050505050565b60006200f3757fc570e0b28f7fc8a5a4b1498d75d9bb757b90e23ad200ca3c87fcc28cc442b6e260001b620034a1565b6200f3a37f64b47f459d2e26f4cea8078d844b3bea2129aa38cc78105e8ccb665a3edf637b60001b620034a1565b6200f3d17f395e099a487f5df1c03b0047935acf7bcfb6b3f90ab3f15a2d386fe5b945519860001b620034a1565b6200f41e6200f4018360056103e8670de0b6b3a7640000816200f3f057fe5b04026200f42590919063ffffffff16565b60056064670de0b6b3a7640000816200f41657fe5b0402620156b5565b9050919050565b6000808284019050838110156200f4a4576040517f08c379a000000000000000000000000000000000000000000000000000000000815260040180806020018281038252601b8152602001807f536166654d6174683a206164646974696f6e206f766572666c6f77000000000081525060200191505060405180910390fd5b8091505092915050565b6200f4dc7f35bc9e5e61c1438a006153cf69ffd6105766a3055440d22f6c8ce219146d68af60001b62006f2e565b6200f50a7fe66c045f45b868efda896f2af22ed71637a4e9e8d13a2b1962badf362ba3eeb960001b62006f2e565b6200f5387faaa4b517f253b4fa37cb2875514a22e04e7d5828c244c7095a27e85408ccd12c60001b62006f2e565b6200f5667f1221da0bd0f16fcbee175d4dae7d6b598e327e79264e77ced4c93a6a0721871b60001b62006f2e565b600073ffffffffffffffffffffffffffffffffffffffff168173ffffffffffffffffffffffffffffffffffffffff1614156200f60a576040517f08c379a000000000000000000000000000000000000000000000000000000000815260040180806020018281038252601e8152602001807f4163636f756e742063616e6e6f74206265207a65726f2061646472657373000081525060200191505060405180910390fd5b6200f6387f09f0dc62d572b9e8dd242a1b7e25c3c5de1610d6c480bec35912dd5840f55fec60001b62006f2e565b6200f6667fbe74447fdea037b64141768df2430eb2b7113bef949c88d88dcdc549ba88703360001b62006f2e565b6200f6947f04e66872d3f4c69728dfe545a06401e1b17e0f9dd5e1d43290514ae4fd92783060001b62006f2e565b60006200f6c47f60826eea4af75abd2223d108cb037485a60c485e699a12a42cac24982b89800660001b62006f2e565b813b90506200f6f67f7acec79ba6fd0be7bb4b2bfca56ca8eb3d8333d64e828971ccb7647facc3806360001b62006f2e565b6200f7247f0c7e0405db301404f844860b9fe6e14e956a97134ff8695c88184f1c957d6e0860001b62006f2e565b6200f7527f1c5a94c5a5d640e17d84bedbf9409c7f8afe563c4b1fceef7bced5961764ee0f60001b62006f2e565b600081116200f7c9576040517f08c379a00000000000000000000000000000000000000000000000000000000081526004018080602001828103825260208152602001807f4163636f756e7420636f64652073697a652063616e6e6f74206265207a65726f81525060200191505060405180910390fd5b6200f7f77f1023f03b6261b194c29dee3596b0d25a3be14b60910a1d249d0177db54f54c4a60001b62006f2e565b5050565b600073ffffffffffffffffffffffffffffffffffffffff16600360009054906101000a900473ffffffffffffffffffffffffffffffffffffffff1673ffffffffffffffffffffffffffffffffffffffff167f8be0079c531659141344cd1fd0a4f28419497f9722a3daafe3b4186f6b6457e060405160405180910390a36000600360006101000a81548173ffffffffffffffffffffffffffffffffffffffff021916908373ffffffffffffffffffffffffffffffffffffffff160217905550565b6200f8ea7f2c93dd66cce74ae504b67ac6b520c7637f68328af17c3dbb236bab558b04efbf60001b620034a1565b6200f9187f0879cd8595cec77ce3e9f667f686a475e9eb2d87409d6c843394d949bab4111160001b620034a1565b6200f9467fae1d1593ec2804383fc5afe99d44a0d8c50a8c2ad7a88df03ac895c12dd3f95560001b620034a1565b601254601460008373ffffffffffffffffffffffffffffffffffffffff1673ffffffffffffffffffffffffffffffffffffffff168152602001908152602001600020600001819055506200f9bd7f38edd436534bb0fc9278070b1c154f222aae54ed98ae307fc2384fac6e8cb69560001b620034a1565b6200f9eb7f180d55f5d1e6ec8891d001bca3457d1caf23ecc3a2ade896c9bde0b8d490859360001b620034a1565b601354601460008373ffffffffffffffffffffffffffffffffffffffff1673ffffffffffffffffffffffffffffffffffffffff168152602001908152602001600020600101819055506200fa627fcc38ecb99def16b8acec37b17e698c581b46b236dada00a8c3a0df6e859e8e2760001b620034a1565b6200fa907f95f32b9a9c90d92bbfcfa8ffa67e293710f87a23c07f76dcec3b9f5a096527f060001b620034a1565b7fc437f324d85e369394148dd9d62f98f534b382e01ed3dd2eb98138fb6d3ab49a601254601354604051808381526020018281526020019250505060405180910390a150565b6000806200fb077f6517f7a92bde3c1b9e27a91b545885e38dabebecc7a3861c65e9bec1dff24ca260001b620034a1565b6200fb357f18f031ff0c7e2735819163a8caef401a5f41759a449a4b446669779bbdbb086760001b620034a1565b6200fb637f462672c1225c2ba3adfe9b93bdcca39dc6fc6ea78a295d212eaedc51588d28ff60001b620034a1565b60006200fb7084620038cc565b90506200fba07f173afe8d1ccab25f548f6a16f3f36f8819b0fa4185a13522f5b99e742a842ef160001b620034a1565b6200fbce7f7c5e14f7acd59efc6051b2a039404b6e913b25b01ca4e3f2b5d6e4ee8112c2c460001b620034a1565b60006200fbdb8562009d28565b90506200fc0b7faf0120f612fea077c2b1a75aa910ed1ce91700429fb34b09b16148a5e643415760001b620034a1565b6200fc397f704a449f3ed5eca1bc390d282e3447e66fd6125485743547e87d58d68daafb1b60001b620034a1565b60006200fc9283600e60008973ffffffffffffffffffffffffffffffffffffffff1673ffffffffffffffffffffffffffffffffffffffff168152602001908152602001600020600101546200f42590919063ffffffff16565b90506200fcc27f4e6acdb66e92ce2b431740c881b8a89d1e78fad2a784444b4cd3bc7c356a2df360001b620034a1565b6200fcf07f6e9e898df2321557cef717cf847bf0fc0d977a67d39cd02a04afe16abbee2a4d60001b620034a1565b60006200fd4983600e60008a73ffffffffffffffffffffffffffffffffffffffff1673ffffffffffffffffffffffffffffffffffffffff168152602001908152602001600020600001546200f42590919063ffffffff16565b90506200fd797fd87a3d8f788e58f088e69c69809c8c0f821a16f681848923db489aa65e04196560001b620034a1565b6200fda77f6bd97a86d78ec9f7f7a4b5e969d661352d41ce97bf0fe03adae7fc45c057bd2560001b620034a1565b81819550955050505050915091565b60006200fde67f0a957dc6e50b79f4198337292f975c97f1e46d2fd879495bd9d3e8b465c5908260001b6201602f565b6200fe147f36b6df758e5d32c7a54e70939249466cd685f55a6000a796488d904e950ff55160001b6201602f565b6200fe427fdae53b9988856ecade943ff600d8410ffe098b0e9b0d2a20e0d4e6d629dadd0560001b6201602f565b60008211156200ff10576200fe7a7f97ba562ff5a52d5e376440b75dfde7cde5ac945e09a50385ed302c8fa4c93a3560001b6201602f565b6200fea87fea72f26e58a660e89daf76a6338c4ea7c326b03c642e05985fecf7e1344071e260001b6201602f565b6200fed67fc566fce390725f3d5e0bf4a75af0125a0be036fa403638b30478399b1c0c30c160001b6201602f565b6200ff08826200fef968056bc75e2d63100000866200d8f990919063ffffffff16565b6200d98490919063ffffffff16565b90506200ffbe565b6200ff3e7ff93684451e504ecaf8543b25ab42519bfa810eec4ba3d920d4653a1c16b0e8cc60001b6201602f565b6200ff6c7fffa4d87f788e1c9f8814f84d7b1775d9b36b21962786a14d2a1ebae57a7a352160001b6201602f565b6200ff9a7fb15b56e0dec2133675b26fd4423bbd9ae3370ed1bdb703025845a76469b40a5360001b6201602f565b7fffffffffffffffffffffffffffffffffffffffffffffffffffffffffffffffff90505b92915050565b60006200fff47fa5c6fa8c7def441f1be05517fef3e2bfc4c4aa0a7ef26d21bdc730286b56187f60001b62003475565b620100227fd499fbefdf090ac4cea6a2d9d41d38180efa5d32eba0bb86dd6ec954b6265b3760001b62003475565b620100507f04774a2abca466ee6e8e9d15158062786d6899a5aacf8a77eca74ecb601e66b460001b62003475565b60006201005c62006bf9565b90506201008c7fd3ec13336a12ae3ec7d52e0ab0fc46c6399078cd8ab182540768b6e3e36cee5e60001b62003475565b620100ba7f59ec8bcdd2b9017f3970492ffe01bbea2f58060535d079c4c6792190d42e933860001b62003475565b6000620100c662005399565b9050620100f67fa48897db9f12b855b04380b44869929736061d5cd6bee9832714343f36ef9e9360001b62003475565b620101247f2a96244e0f24a35c7d29dd04bb8f302d322110258be8eee9f18a6c832ef231e760001b62003475565b620101318282866201284e565b9250620101617f25f03781ce63d95c9c99c0377d620c6f36bfe68fa932a9706d95ce3de845bdc760001b62003475565b6201018f7f5914794168c514cfab5e62c42ca4e0107092ef310237de856bd7d5246d051edf60001b62003475565b8292505050919050565b620101c77fd36802bb024a3e0e7e55334fa2ffdaa171540556b8d7d79d9cc900921f603b4b60001b620034a1565b620101f57fe4676f078c9387a339d606195e759f689d2150a516960f948ce73cb46d72cf0960001b620034a1565b620102237f1744d533b93995429f0eff0f9da39b37cc9f357ccfd10185ce2b3aacb5009b3160001b620034a1565b620102517f8b70eecb15960d48023a86e9c42964d6f5885bda46e42aa43cb14b53ce9f4cd860001b620034a1565b60056103e8670de0b6b3a7640000816201026757fe5b04028110158015620102815750670de0b6b3a76400008111155b620102d8576040517f08c379a000000000000000000000000000000000000000000000000000000000815260040180806020018281038252603081526020018062017d8f6030913960400191505060405180910390fd5b620103067fb6c9673c9ae1c2854fe2a5bad615ab8de13cd91b4f727d2e344fbf4c0684ba0a60001b620034a1565b50565b620103377f81f1b1865c9a122dc1bce3879c9b00d2fbbb4495423995d441dcba689bc1240f60001b620034a1565b620103657f84e38c018793748bbd21a649421ad03367fe75ffac0ea2521fe47e6dce0536cb60001b620034a1565b620103937f4ddd53a6a948e973ade1ffb47048a990ff39fc77d0f72d059c633e906804a4ac60001b620034a1565b6000600960009054906101000a900473ffffffffffffffffffffffffffffffffffffffff1673ffffffffffffffffffffffffffffffffffffffff16633c84b7c26040518163ffffffff1660e01b815260040160206040518083038186803b158015620103fe57600080fd5b505afa15801562010413573d6000803e3d6000fd5b505050506040513d60208110156201042a57600080fd5b810190808051906020019092919050505090506201046b7f1c844d7c97b1e7c57f8bb37a023661eaede2c9c98c8b2a53945ba4c64f2f824560001b620034a1565b620104997fb8aaeb7b214a3479a713f4f6b5fe1ba2ebf7340b52d7f7f5547ed6a5ab56d71a60001b620034a1565b620104c77fc1b56a144f03560604ab69178271d449f4113a80a57d931b29aea78cdded8ed960001b620034a1565b620104df62127500826200f42590919063ffffffff16565b42101562010539576040517f08c379a000000000000000000000000000000000000000000000000000000000815260040180806020018281038252604081526020018062017c0b6040913960400191505060405180910390fd5b620105677f60d72ed2cb98a8d7c7272eed13efffc0bc7820f357460c8ad1e7017fda33f05460001b620034a1565b50565b620105987f9b490b32749d5c01b16340c49805f4ec26022579093e4c0681ce9883e630116d60001b620034a1565b620105c67ffe0276e196d8e11635ab3673804a430f352432a3a70de78e9ee0de530e763d0860001b620034a1565b620105f47ffbb1d0875a396e1a57c1067d988ecdce6dc479d9d33d72f69730cd5013c3e8a660001b620034a1565b620106227fbdf63a5025cd4f7894a800bf6339f2265dc64f9be098dd510549f26816244c2e60001b620034a1565b670f43fc2c04ee000062010636826200ffc4565b10156201068f576040517f08c379a000000000000000000000000000000000000000000000000000000000815260040180806020018281038252602a81526020018062017dbf602a913960400191505060405180910390fd5b620106bd7f5f6f932715e281ff9e38f2dac88f385d13ca732e949bbb50cd6415c45e833cf460001b620034a1565b50565b620106ee7fa394e85015ad29d2fa7e9290fc4001f07ccd30ba442adbcdfe4430a2dc97bbdd60001b620034a1565b6201071c7f1fc53b1f0606abea744c702ed112467931928d76139219d07afe15e6631a9b4f60001b620034a1565b6201074a7fdf624b14d3c05596363b6e0a7265ad9807db754abb1965dc284e62e331caa49260001b620034a1565b620107787f4b15f8de54cd33d56bba31cfddcd39295cedeff8bc5132f2338d2373e91be2b060001b620034a1565b60008111620107d3576040517f08c379a000000000000000000000000000000000000000000000000000000000815260040180806020018281038252602e81526020018062017d2b602e913960400191505060405180910390fd5b620108017f062bfc8ff06a1282568a05efccdbb4851f39752cf6712eae4501e2b6da2244a560001b620034a1565b50565b620108327f88c61a7734b6648e0ba27d7cd067f01e492c60cde4a1a878c1f717f00108704760001b620034a1565b620108607f11cb264ae84e42e08c7772aab7a3be207456a285eccb35fe204d8024297f5ff460001b620034a1565b6201088e7f17309c893d189b8088bd0130df151c1473368172f760cd43c25a79f8913856d860001b620034a1565b620108bc7f7ee18f8a43cd6113490da417c93b02a6dcf72e0737137f93502ac407650ffaa360001b620034a1565b808373ffffffffffffffffffffffffffffffffffffffff166370a08231846040518263ffffffff1660e01b8152600401808273ffffffffffffffffffffffffffffffffffffffff1673ffffffffffffffffffffffffffffffffffffffff16815260200191505060206040518083038186803b1580156201093b57600080fd5b505afa15801562010950573d6000803e3d6000fd5b505050506040513d60208110156201096757600080fd5b81019080805190602001909291905050501015620109d1576040517f08c379a000000000000000000000000000000000000000000000000000000000815260040180806020018281038252604e81526020018062017c6c604e913960600191505060405180910390fd5b620109ff7fcee7590b0c2a7dec1b013cde294765fa1033ce769bbcdb572595e7b141f72bd860001b620034a1565b505050565b600062010a347f40a50e450bcb0189cf8c03d344ab840978b0967b63f7dca993bc92eda951b1fa60001b620034a1565b62010a627f8db3ae112628ecdb45caaf261348ff5e30c6a3ae5f35e60b04b932344e9da29060001b620034a1565b62010a907fda9fcba5c4095980346715671969279247a288c019e54a812e314cf621b2d95060001b620034a1565b600073ffffffffffffffffffffffffffffffffffffffff168373ffffffffffffffffffffffffffffffffffffffff16148062010b8457508373ffffffffffffffffffffffffffffffffffffffff16635dbe47e8846040518263ffffffff1660e01b8152600401808273ffffffffffffffffffffffffffffffffffffffff1673ffffffffffffffffffffffffffffffffffffffff16815260200191505060206040518083038186803b15801562010b4557600080fd5b505afa15801562010b5a573d6000803e3d6000fd5b505050506040513d602081101562010b7157600080fd5b8101908080519060200190929190505050155b8062010ba25750670f43fc2c04ee000062010ba08484620094ce565b105b1562010c3c5762010bd67f299348a8739b0147264775524bf506c0c7a3b05d7b6ea63622dc76341c69899c60001b620034a1565b62010c047ff7ebe92b285c176e3a2d2b8660921fbfe4bb9fe92df7010fd49daefbbc4601d660001b620034a1565b62010c327fe0bc3f68c09c6887e76238e1a99079f06ed82344f9c6df73da76409997c4684260001b620034a1565b6000905062010e33565b62010c6a7f3c52f72b8eaad5e8cea6b25853b5b08bc0f098351de8ad83b92886e7c9454d7b60001b620034a1565b62010c987f5d40488610d33ee5df05677368d7cfd72edeef5289b8d983015a029d2ab5686a60001b620034a1565b62010cc67fecfedc34b0d61d33883af4f87fbaf1eb853badb235ac1b1f810afa258a8aa79260001b620034a1565b60008473ffffffffffffffffffffffffffffffffffffffff1663765e0159856040518263ffffffff1660e01b8152600401808273ffffffffffffffffffffffffffffffffffffffff1673ffffffffffffffffffffffffffffffffffffffff16815260200191505060206040518083038186803b15801562010d4657600080fd5b505afa15801562010d5b573d6000803e3d6000fd5b505050506040513d602081101562010d7257600080fd5b8101908080519060200190929190505050905062010db37fdd8eb3d62c2b5f1b4096b342cd89b37cc48ec35f3bff631b1afa10f0a1be1d3660001b620034a1565b62010de17fc5e7051cf9304a464ee821a31f08887f00313aa297c8754043233fee2f716c4d60001b620034a1565b600073ffffffffffffffffffffffffffffffffffffffff168173ffffffffffffffffffffffffffffffffffffffff16148062010e2f5750670f43fc2c04ee000062010e2d8285620094ce565b105b9150505b9392505050565b62010e4462017ad2565b62010e727f7abde7cd014fda99e837a2694d0edf2ecbfbc80c0c24c73fedc7b2e2bf5624cb60001b620034a1565b62010ea07fc8b3cf518b2eef38d76cb825f3e2f8fe7543c9c281df1ef95ad7c1a0dc26173260001b620034a1565b62010ece7fddf6537f055281e8ddc1ff77581a68621abd0225098e4fa3c5c842e45a80668e60001b620034a1565b62010f398662010f33680ad78ebc5ac6200000600e60008c73ffffffffffffffffffffffffffffffffffffffff1673ffffffffffffffffffffffffffffffffffffffff168152602001908152602001600020600001546200ab6390919063ffffffff16565b620156b5565b81600001818152505062010f707f61aa46ca40e7c83f20f88974bd76a1094523a2ddcb5ec5d537edbc0af9f3f69860001b620034a1565b62010f9e7f653e9d94a3b77812bd0b3c3e2b6c7bd4501cc4c3bae071a338bb6120af064d1660001b620034a1565b62010fd38562010fc4670de0b6b3a764000084600001516200d8f990919063ffffffff16565b6200d98490919063ffffffff16565b816020018181525050620110097e032fa82ec5d271e10da9f181874072a0bcb82edd0c00d99064bf0d18e4428d60001b620034a1565b620110377fcbe37de4842f29ea94f04e211f163b0731abea6b360e6c9b5b338b70631377e260001b620034a1565b6000620110948260000151600e60008b73ffffffffffffffffffffffffffffffffffffffff1673ffffffffffffffffffffffffffffffffffffffff168152602001908152602001600020600001546200ab6390919063ffffffff16565b9050620110c47fa5c71e3af78e2a34b447a58365d2add3421a41de2769edbbb0e5bfee5cf6f93760001b620034a1565b620110f27f7f286cde7b2c95c39f9c0d6893aa2dea40f448f66d5bb92ca4bb5d78c2b74a8e60001b620034a1565b60006201114f8360200151600e60008c73ffffffffffffffffffffffffffffffffffffffff1673ffffffffffffffffffffffffffffffffffffffff168152602001908152602001600020600101546200ab6390919063ffffffff16565b90506201117f7f8a3ed42d2142acf1080440813c0e5d4f99efdf34a1c1c215880bb0f085b26da160001b620034a1565b620111ad7fe552e8a8868ffdff96e1e9d62c4d5124a08a25277ae4ed1248f31295b3a7016160001b620034a1565b680ad78ebc5ac62000008214156201140a57620111ed7f87e32e79cc77e8a5d2ac3d901360cd5e1105e7689e30e33ade2cf4b3f616dcd160001b620034a1565b6201121b7f4aff8a7727b31a0d6c450ad9dfe0c45edec786ec58f859450d11ac73fde01dc560001b620034a1565b620112497fa4db312e9b75235ef96221539dc32f8b983b4d887dbf04fa7ea9a7b48d3e7d3460001b620034a1565b620112548962012cef565b620112827fb59106e95f56b31d0d56ba72f39f5b2fba0790e30038dc78649a62902c3ec57c60001b620034a1565b620112b07f6dda74ace942e76e786c45816ea5c5e135b9a63d26ad9716fb22f0e1a405717b60001b620034a1565b620112bd896004620121da565b620112eb7f73ed5c4beb76228976998d614c706fe5d9efc6b5c7f5d5571386e0185be7a3c260001b620034a1565b620113197fb911025a5b49be35c11840f3893712a2ca3b4d367ecbdbc9effb447b06a313d360001b620034a1565b620113308a8a680ad78ebc5ac62000008462016032565b6201135e7f56b8d13e64633e6404c5119c7eabb2f999fb69259533fbf9f555a410bd79bed760001b620034a1565b6201138c7f13b345c47dd9817bfdeb6889d537d69e1f1791e80a9d6561580790a90fbaabb360001b620034a1565b8873ffffffffffffffffffffffffffffffffffffffff167fc3770d654ed33aeea6bf11ac8ef05d02a6a04ed4686dd2f624d853bbec43cc8b6000806000600360405180858152602001848152602001838152602001826003811115620113ee57fe5b60ff16815260200194505050505060405180910390a262011a86565b620114387f4b426b79486b3fd2fe6fbcd773d114deeac4c8ebdb553dfcfc34c5fbbedbd10a60001b620034a1565b620114667f8d6598054f3af693b2ef2bbd8e850befc6964d77877c583f42d4afad5af05c3860001b620034a1565b620114947ff11d7d08fbd8247d3734d22d83d3c65a8ccf2b71886907eb3f784ed8725f593360001b620034a1565b6000620114a282846200fdb6565b9050620114d27f894bee621560769f417ae2fc081b5138906a6a01e15df38a68b72e2d3ab6892160001b620034a1565b620115007f8f4855ccde2cf4c13e578b8da6277ef17ee403d319000543f0ccc8a4d8a7e71c60001b620034a1565b8481141580620115225750686194049f30f720000062011520846201645c565b105b156201162b57620115567fd23ee61f80af4f6a304b9730a68d2d42fac7db71356f8ab8c4b275bfbbc0e87460001b620034a1565b620115847fe51039de2959e11008c29e8b63ee34c44977d38cdda6be256800346344ecc52a60001b620034a1565b620115b27f47d48854cfa631c0cc9724728b1d3cac026889abf7da00b98091132d8323019260001b620034a1565b6001846040019015159081151581525050620115f17faf2aceab4c0fe1593166ae828f5d50183940aca728fbdd4fcaa8145c550b71de60001b620034a1565b6201161f7fd9428f1bf630fbf7756a603e5b4b111f1dbe9967ca44be5c6c09d9ab4d063f4060001b620034a1565b83935050505062011ae8565b620116597feefcce2f8435bc510912f0af7a1c9b912159ef0c2cd9d3c244d62d8d78bdf8e360001b620034a1565b620116877f5b56dedc084825990176f290bf150d2b3d708280b370bf112d60fdeaf1235f3b60001b620034a1565b620116b57fd4689d51b1bd849959c762014cdbfdebe3d118a1d029d7ba337436ace516e59060001b620034a1565b8a6080015173ffffffffffffffffffffffffffffffffffffffff16632be212608b838a8a6040518563ffffffff1660e01b8152600401808573ffffffffffffffffffffffffffffffffffffffff1673ffffffffffffffffffffffffffffffffffffffff1681526020018481526020018373ffffffffffffffffffffffffffffffffffffffff1673ffffffffffffffffffffffffffffffffffffffff1681526020018273ffffffffffffffffffffffffffffffffffffffff1673ffffffffffffffffffffffffffffffffffffffff168152602001945050505050600060405180830381600087803b158015620117a957600080fd5b505af1158015620117be573d6000803e3d6000fd5b50505050620117f07feae9d75f4e1cb0498eaa9ad61023eb871b111ed01b5b133606c0a249093fa26c60001b620034a1565b6201181e7fc4ec3f249ad9d9e55f4ae9ef99225639bfb83d4cabc5928a199553323ed544a960001b620034a1565b82600e60008c73ffffffffffffffffffffffffffffffffffffffff1673ffffffffffffffffffffffffffffffffffffffff16815260200190815260200160002060000181905550620118937f2a0237dbe51124d7debe53b4e5cc46e2b3d9f5c678359c9884f713991871dd9d60001b620034a1565b620118c17ffcb9787a2a8e8e4f422bf92ee1f53d617f629e98f2dd9942d53a297f45127d4360001b620034a1565b81600e60008c73ffffffffffffffffffffffffffffffffffffffff1673ffffffffffffffffffffffffffffffffffffffff16815260200190815260200160002060010181905550620119367f9faba59f19244566f9f89270393a4d22b88e643c32d3556a7daa3b275bd23f5d60001b620034a1565b620119647f5b9a0ec9825d4fd6887b457d2c76ac5cdd04eca6549d1353995d66701ceb5be560001b620034a1565b6201196f8a6200ae50565b506201199e7f23aacdb34e0f8d82ac9ae3578dc572e439cc8d12192e4bb7c541c15d0f32751360001b620034a1565b620119cc7fa359d88c6da6cf9565566a3fcb4db6eaf5dc9c0d1d46a060699c933f28a808ce60001b620034a1565b8973ffffffffffffffffffffffffffffffffffffffff167fc3770d654ed33aeea6bf11ac8ef05d02a6a04ed4686dd2f624d853bbec43cc8b8484600e60008f73ffffffffffffffffffffffffffffffffffffffff1673ffffffffffffffffffffffffffffffffffffffff1681526020019081526020016000206002015460036040518085815260200184815260200183815260200182600381111562011a6e57fe5b60ff16815260200194505050505060405180910390a2505b62011ab47fc377faf9342f70e06d888897ee504b228e63c2839d577ff1455b38b60748170960001b620034a1565b62011ae27f05bdb8935ae2ed504c18270d7e4e79e9d54254b423b68e16485b5d417a6009d060001b620034a1565b82925050505b979650505050505050565b600062011b237fea0260612b34be54e17cd98b8ff8aaa1d2beb54a0df76f3dff18cec013c0a45160001b620034a1565b62011b517f9d99352dfafe73e97be730411b65f09890d9032433170921a6fbae3a924ce42960001b620034a1565b62011b7f7fcea67a19304b4cd8f6e5c9f795c2f1f2aba536ab01f376e46caec406cb9ae64e60001b620034a1565b600062011b8b6200d9d0565b905062011bbb7fd3167ec4f6c52ebb83930fba7bd0b93d9cca3662a7bcca20411b2b44b903b7eb60001b620034a1565b62011be97f98a3fb84920330a633e306b2e11b826328f073d144fe443c88b7b2361a6c44a660001b620034a1565b600062011c148462011c0587896200d8f990919063ffffffff16565b6200d98490919063ffffffff16565b905062011c447f0b2699dbad5e6a45aacbf1860d9f1f942f1eca2e0ecf17c2b74faaf4b1418a3f60001b620034a1565b62011c727f456510e4f0f4abc4337ce209ea1b99e115d48df4d2bd89e25b2a1d66828d9e9b60001b620034a1565b600062011c9e62011c8e6002846200d98490919063ffffffff16565b846200f42590919063ffffffff16565b905062011cce7ffb1af601f8ee45d92e8c8c3772cd97521d5b56c5b9838125bb4c0dbccd86accb60001b620034a1565b62011cfc7fbd648c5808c2174a07f83a0353e2ebd232f9f6644f4facbd09267cf2a38ffdde60001b620034a1565b62011d1081670de0b6b3a7640000620156b5565b905062011d407fa1cd426d7fb56c820c849953f03341ea28716ee88df06ab08b2ddbd78de4bf9f60001b620034a1565b62011d6e7f87d760a657a6d928400a141305153691396ec63cbdb30afe4a869950baf37a9860001b620034a1565b6000811162011d7957fe5b62011da77fc6a752dcd656790c0c8abb03f6b15f8a0d4a706163352e8ad2110577f540576b60001b620034a1565b62011dd57f88a29b972d96e65643f3a0339ecb0b0fd2f004c7bbf1b7f56eebe711566bb19660001b620034a1565b80600c8190555062011e0a7f48a95b8e27215dc868a0c15b1f1f4d634dd1a04c4545d89ec2f81747e31c9dc160001b620034a1565b62011e387ff7f9e72675246ebc48c083140ef4d092a1a8c4492be1c43e3141686597c1f13a60001b620034a1565b7fc454ee9b76c52f782a256af821b857ca6e125d1e3333bcede402fec2bed9600c816040518082815260200191505060405180910390a162011e9d7f737c84654983a51882f559426ef1e26a60d324010bccd82ff9b6f0982640b72260001b620034a1565b62011ecb7f6d7fce8337a9e6bc5f3f4387dafada768b4568f5b25840e6939ee56e3a2139aa60001b620034a1565b62011ed56200db74565b62011f037fd5c38b36c29486d462a465cd0cd74dd9ad1c94bec0956ab4e469f575af4c05e760001b620034a1565b62011f317fd1f71fe2f6dddae8fae50315dc938ec8c4af62418e24f228d544e45a149496c860001b620034a1565b8093505050509392505050565b600062011f6e7f2fae8937472594e63a9c605508dc18695fc1901757e561573577f2e89eb8cfc560001b620034a1565b62011f9c7f0abc00121b845e1afd26cf2d2d62a809c01115ebded19baa68d83ded17dc9b8c60001b620034a1565b62011fca7feb61c874754fcb744b7b12fcce560fd42688fc6b919d8c2a7c373463154c093b60001b620034a1565b62011fdf62011fd86200317b565b8362012ab6565b9050919050565b620120147facef9d49e8ab7f2fccb94108f95626a836beae6f8884f9f4170d3586daeb235160001b62003475565b620120427f2ee6b9c138b682556267b00e197f690eaba1da82aa67f015cc57569fcd2102dc60001b62003475565b620120707fb33c7650c10ab2d1a39ab289ac832de172dd6beb2803ee4831e13f9b9bf578b760001b62003475565b6000620120a38362012094670de0b6b3a7640000876200d8f990919063ffffffff16565b6200d98490919063ffffffff16565b9050620120d37fecfa1a14820b75a581ec090f2d4573db18bfa0a4ac0c4c6c481b57c75745e27960001b62003475565b620121017f2b6f6b113ba488f9495e8e2dc5a19f2948c03df2595c1d3361a251c37559b12660001b62003475565b6201212f7f652d40d04550df082f9eb4c6a9a410f6e7593cf024ea9cdb76e4f8853f2ddf4760001b62003475565b81811115620121a6576040517f08c379a000000000000000000000000000000000000000000000000000000000815260040180806020018281038252601d8152602001807f4665652065786365656465642070726f7669646564206d6178696d756d00000081525060200191505060405180910390fd5b620121d47fcba4bc828cd0ef8be6e909695d80f6199f3e367e589d34b9bdec0548e34e4c1e60001b62003475565b50505050565b620122087f162c58ca630423997f079b5690ac4a01c19feb281f3d8477e928bc34aaf9967960001b620034a1565b620122367f074aaa4225b8c69aa8eebc3dbc271b6bb42985f4e22251ce5df079bc6e1c589260001b620034a1565b620122647fe214bd03ce208038970e71290f681d1e4dff4fbc4697e8c0383efa2eacb1372c60001b620034a1565b600060048111156201227257fe5b8160048111156201227f57fe5b14158015620122a75750600160048111156201229757fe5b816004811115620122a457fe5b14155b620122ae57fe5b620122dc7f3ea5bfebed73610857dcbf4d41b3607d37ac83381860ec1d9c372ad3af92d7e360001b620034a1565b6201230a7f577d5f145cc96ce9750de639b6fda5dc56eb42874e3e1387973983692ab1580760001b620034a1565b60006015805490509050620123427f6ec423e63a834cd48aea62b2bc14fc66929974497668b41024fb682a2c5040c660001b620034a1565b620123707f250adb63376bfca91f1dd4970b705cac24c0a62e476cc212470ec40e94793d9660001b620034a1565b6201237b816201650d565b620123a97fa0f10137901765fe205e8ab75f6756eae887916e5c2452ebe6af61a9ab2597dc60001b620034a1565b620123d67e8e0437ef0126a0e237c45af77d3b2f7d7b6dcb6a76fa7530a19a05bd17ec8160001b620034a1565b81600e60008573ffffffffffffffffffffffffffffffffffffffff1673ffffffffffffffffffffffffffffffffffffffff16815260200190815260200160002060030160006101000a81548160ff021916908360048111156201243557fe5b0217905550620124687f3545b17542f6585b895bce58f2b95b243079f6e9c6dea796c7a3473c1041713960001b620034a1565b620124967f0e2ec38a6f48d95c7b259b1416e868309733b6c34349a317263f39956be5283e60001b620034a1565b6000600e60008573ffffffffffffffffffffffffffffffffffffffff1673ffffffffffffffffffffffffffffffffffffffff168152602001908152602001600020600101819055506201250c7fcbbb4ce206429b601b876be3cdb6db61db73c27f3b35d6f5f921f683a0777bcf60001b620034a1565b6201253a7ff693fe80d855ab2aec22a73e8f33d8398b11ea25e90cdba414ab50bd949f554760001b620034a1565b6000600e60008573ffffffffffffffffffffffffffffffffffffffff1673ffffffffffffffffffffffffffffffffffffffff16815260200190815260200160002060000181905550620125b07f33b01d7dffc32734fe4d35410efd0cfe9e413eb33d83538160de093f1dee890b60001b620034a1565b620125de7f2c187c77482b3d5f2f68d0e6a2ea54241f3c02bb0a3c1390284e5b15cb9fd3b260001b620034a1565b6000601460008573ffffffffffffffffffffffffffffffffffffffff1673ffffffffffffffffffffffffffffffffffffffff16815260200190815260200160002060000181905550620126547ffc8df86c7187037d9f3c2ee4b851755084df9535571fc0dd0c0aeeb5fc35372460001b620034a1565b620126827fb7b1a70ac0106d27bbb3d9a0d1b6f879b4a66ba99bbf35440500e098f8d60fe660001b620034a1565b6000601460008573ffffffffffffffffffffffffffffffffffffffff1673ffffffffffffffffffffffffffffffffffffffff16815260200190815260200160002060010181905550620126f87f51d206870fd5d2ee2f720518d99fbf207949d8cfd23ebc00f56839d73eaf190660001b620034a1565b620127267febb3fad72372d53ddbf73ce2e0c0881461615c6125425b2ba7336fb75143eb1260001b620034a1565b62012732838262016703565b620127607fe1646016accc2162234140e62f6754f3681c6f4fbf296a757ead6b451f311e2160001b620034a1565b6201278e7f63bddd243cfa5c1e200f2b0b0b8c10ee6f29a720b98f1fbbc8644c1bd83bd0e960001b620034a1565b600b60009054906101000a900473ffffffffffffffffffffffffffffffffffffffff1673ffffffffffffffffffffffffffffffffffffffff166329092d0e846040518263ffffffff1660e01b8152600401808273ffffffffffffffffffffffffffffffffffffffff1673ffffffffffffffffffffffffffffffffffffffff168152602001915050600060405180830381600087803b1580156201283057600080fd5b505af115801562012845573d6000803e3d6000fd5b50505050505050565b60006201287e7f1fb1c924071e50c2aa9d7f09291fd7831d6481aed3d64d9a31927fcfdf29670460001b6201602f565b620128ac7fe7b149e83ffc59b38b39430566aa51ffe74fa9a62f9938fe60d6498035c2084060001b6201602f565b620128da7faee8586873401c81b69ef021f1b4b5e621ddc8264ed2170bf01f4cd794b65e9560001b6201602f565b600083111562012a0157620129127f938b7a907927def325175a9b9763324c21d376a1db58b873fc572191995adeee60001b6201602f565b620129407ff3fb017b46a6cc03056717fe487f10efbc4957bbee55feae53211d955232e77d60001b6201602f565b6201296e7f9cce84226470f7604a220b104bc94d4e1416b0a5f92e345811d5a6128b8d335060001b6201602f565b600062012999846201298a85886200d8f990919063ffffffff16565b6200d98490919063ffffffff16565b9050620129c97f29c960a6fa3b8822049ee000006565af8f6225894520628c65eb2fc49a99191e60001b6201602f565b620129f77fb7ae7f080fe4eb0c3f53fc10df2345210d66b1892b1a75445349a70febf2803460001b6201602f565b8091505062012aaf565b62012a2f7f8def5a1860b799231f1daace23252caf496d44221af1a5212660498a692981dc60001b6201602f565b62012a5d7f7a561ef4150ea5b53610168f34b9d8e9711bf468f453fff46192e6af13353e8f60001b6201602f565b62012a8b7f57732a23ba8b96e60679d6ddbcc37e1db663eb60ba05c84a212a4c73f10e9b8760001b6201602f565b7fffffffffffffffffffffffffffffffffffffffffffffffffffffffffffffffff90505b9392505050565b600062012ae67fa5aedc341d8aa50318b023537fbb3242869a58bdec98f486fe65a6ac45c6147960001b620034a1565b62012b147f61c72d0642b4050bb06e274ee9ecd5fd293c740e16dfb0b1bf0c6a6446fabc2660001b620034a1565b62012b427f6e4b1ac19dd15945418fb503b5f711278c04bbb46ea2410a9a0e7852ba9a187c60001b620034a1565b600062012b75670de0b6b3a764000062012b6685876200d8f990919063ffffffff16565b6200d98490919063ffffffff16565b905062012ba57f55a2d4c8ac81906059446e6eecb10d44924c9fd5527c1cdc78df8c150a04339660001b620034a1565b62012bd37f4c29ebfbd06ab10b733adc975df625cd6ec6550b978343d6c65c33b9b97f7ac060001b620034a1565b62012c017f22082096b281d33b8694da17f2663f4b0f081c709d74cf0d97c96257f8ea66d160001b620034a1565b82811062012c5b576040517f08c379a000000000000000000000000000000000000000000000000000000000815260040180806020018281038252603681526020018062017d596036913960400191505060405180910390fd5b62012c897fd09652cffb7f1105fadd54a23af14faca5a837bfa29515f6e188d5e29f707e9060001b620034a1565b62012cb77f285bc8a4c23b94ff31207e08526a721c06dab1953e978192dfba9fd5815cfa6c60001b620034a1565b62012ce57f861436cd60f8339c426ac1642571a7543aff6cb80b1582adeabd19eec3e4fcaf60001b620034a1565b8091505092915050565b62012d1d7f4d55764c33013ca09e0cfe69325ab7f780e777f3578708cdbc77e541b80c715360001b620034a1565b62012d4b7f180f4fdcb1c166321573d3d706beffbb7c43ac9500582899963a5380876d43d960001b620034a1565b62012d797f181554105a630b81dcc4ffb488af0d803f2be052af91f9cda8beb2b7c366eaae60001b620034a1565b6000600e60008373ffffffffffffffffffffffffffffffffffffffff1673ffffffffffffffffffffffffffffffffffffffff16815260200190815260200160002060020154905062012dee7f041eca6a86df9b6ed777f473bfce9fd39e8ca7609fa2d5555f98c2f729ccb54d60001b620034a1565b62012e1c7fa3b9f5acf68ebbc9f3c4b9019798429c7522ec75f7e8a13faed97db2bab33ccd60001b620034a1565b62012e3381600f546200ab6390919063ffffffff16565b600f8190555062012e677fb8bd776ede93d2b7b2a39c44bf7dadcd9a77bd4a2df0a3808f730203a84f2a8a60001b620034a1565b62012e957f50abf88459ee2ea2ca98d05594e77339bba09c35a151b30829254b40269dfddf60001b620034a1565b6000600e60008473ffffffffffffffffffffffffffffffffffffffff1673ffffffffffffffffffffffffffffffffffffffff168152602001908152602001600020600201819055505050565b62012f0f7f41dfd917bf015fba7ed141932b42808267e23e3346fc66d1804d1b406b40244760001b620034a1565b62012f3d7f3cc6fa040aad019def5f2da6e77b4193f2a867bd7de897ee2779332fb1200f8260001b620034a1565b62012f6b7ff910953e1eba3df7f5662ddd8664ab76587eb0d22003c35105a6c9f4b8fa232b60001b620034a1565b8273ffffffffffffffffffffffffffffffffffffffff166338d995a8836040518263ffffffff1660e01b815260040180828152602001915050600060405180830381600087803b15801562012fbf57600080fd5b505af115801562012fd4573d6000803e3d6000fd5b50505050620130067ff40c4c41e7997ae88605e825f9298003717afbe374f4b0603ef8ed1edd710eb660001b620034a1565b620130347fdaa8bb789f1fb6740be1ef59ef2ab81aaa7fc4898a6e82fb524419d6b0e2bcfd60001b620034a1565b8373ffffffffffffffffffffffffffffffffffffffff1663cfb9329a836040518263ffffffff1660e01b815260040180828152602001915050600060405180830381600087803b1580156201308857600080fd5b505af11580156201309d573d6000803e3d6000fd5b50505050620130cf7f9df2b6a6a70e80fd1d0f541e783bda92182d19e0dc04deaa83b203fc159e837460001b620034a1565b620130fd7feb7c7d6f621ca50eadf5ac862eb4ce8988db7182119f7082084fa7d74324565260001b620034a1565b8273ffffffffffffffffffffffffffffffffffffffff1663be41205f826040518263ffffffff1660e01b815260040180828152602001915050600060405180830381600087803b1580156201315157600080fd5b505af115801562013166573d6000803e3d6000fd5b5050505050505050565b600083831115829062013221576040517f08c379a00000000000000000000000000000000000000000000000000000000081526004018080602001828103825283818151815260200191508051906020019080838360005b83811015620131e5578082015181840152602081019050620131c8565b50505050905090810190601f168015620132135780820380516001836020036101000a031916815260200191505b509250505060405180910390fd5b5060008385039050809150509392505050565b6000620132647f16cf5584fc6cb954c6e831280f2a87b47317d7de32d936d061d90433e098a75860001b620034a1565b620132927f14cb28d64022137b11db6a3a54637e12e847c62faf7cf307f7eb23ce0aca5b4160001b620034a1565b620132c07fb60fd51d46919aba3e2664b2b72dbd6a8df05a45a71c915ffb698c7c02ff01c260001b620034a1565b6000620132f07fbab06bc60fea41578616d0bd922b42246d3011c98be1b210e1a2c0b71c334e2960001b620034a1565b6201331e7fa90db5c266eead0a80f5240e0597e762e77244baed09debbfaef60f170b90b0660001b620034a1565b60006011541415620133bd57620133587f68d59bf36bb9e676be1f03dee7ec69d7b94ee69326adee2cac7cb8991f3c479360001b620034a1565b620133867fd1fb10a253c8944d2b13f82bfbc3d9c7a0ab2a4e11f325fd3d59ca478cbf7b6c60001b620034a1565b620133b47f729149772c7c8e169e1a1fc5cce8fb1805c8d128e1f7d41aa0e2320494e3ea0860001b620034a1565b829050620134e0565b620133eb7f2219845100bcf00fdec385481d9e62da47fbe41fd2ed91e876fdcc082773888360001b620034a1565b620134197f50f804a83b038720e8b86bc84f56f62fcd65b4c24f953ac4705ee412db23444d60001b620034a1565b620134477fa7b321118080a931d1070b5bce41525622c28f16a655d25264905ccfaa8243c860001b620034a1565b6000601054116201345457fe5b620134827f93117cd25700d1ffc8ee9e9006b54fb2fbdfa3d24e5c872907f00d3fe127c80360001b620034a1565b620134b07f9157ca83d98952746e6aed2211447f33b538d273990ab349aaa49ebd0f9d24ae60001b620034a1565b620134dd601154620134ce601054866200d8f990919063ffffffff16565b6200d98490919063ffffffff16565b90505b6201350e7fbd349bc4ba0ff933af5492b898012000cb64d8dd8685e1046fa6dfbf1ce20f4660001b620034a1565b6201353c7f2db5404544c8aa9108bf0eb417062ff91f133514b1e23bf2a762844c0fb2ce6d60001b620034a1565b80915050919050565b6201354f62017b4a565b6201357d7f560993c04d41b1f343e280c4b61930a19005eacbf4174f9419a4e0419eba724060001b620034a1565b620135ab7f9e558cd95360347ef44ce5713eafb9fb7ea14b6413fc56a26ebb5173fec343f360001b620034a1565b620135d97f22564eb3d3a85c8867520786a8a843e28614afb265c4c87b2d18e37768d45e6960001b620034a1565b620135e362017b96565b620136117fec612aff357efc1ab8ee39cbb1b05bffd1d2191787ae5bba47693b3368551c6a60001b620034a1565b6201363f7fe4bdecf683b1fbf3d869b6a48e30c1e6dc76610988f63d772dcc50072bb7aa8e60001b620034a1565b600160158054905011620136b3576201367b7f64393ebb0c71f0f1ec781b7e5223a00fa2af0c82a9bcc2e1d721b12ce710300d60001b620034a1565b620136a97f87e869370e2bc8401bf0d61878eb1ed273b6702f4ccee3dea001e13375fd707360001b620034a1565b81915050620149ff565b620136e17f8af07cbf46b3c2b25e5af72a45d92c70287b977b3e85e2ca3bfcd297ce976f7e60001b620034a1565b6201370f7f5a9744e1bd0134b48bf6d65b38162f1d047a43db5a6c738c1989c16675ceadaa60001b620034a1565b6201373d7f4d1e2deb85a15d29c412f8212f262886aeecab6cc3f6b4d3bd68670645eb0bc260001b620034a1565b62013748876200747f565b8560000186602001866020018760400184815250848152508481525084815250505050506201379a7f0e907e48d740c23974f9275c9b1c20aa8be0775ce7135c22191157497c7fceba60001b620034a1565b620137c87f922dde863102cca725a2e93804b51e571f9c0072cd4ef7807ad14248d4b74fcc60001b620034a1565b620137d7826020015162016e48565b8260400181815250506201380e7ffa52d588bad51a9cfd28578cbb9b6ea9d9707aaa35ff6f4b8d17690fc55310e060001b620034a1565b6201383c7f604e379d12c2c9dcd890384384d38889c0020aadaadf2c466d0acc92998e11f560001b620034a1565b680ad78ebc5ac62000008260600181815250506201387d7f42e485f4f26e8b62efafbf3359ad3c48ada89eaa365410453125e23f54834b0860001b620034a1565b620138ab7f430e44dbace97d098d1019de342143fa16b38409fcd99dd584093ffdfc6e39f160001b620034a1565b620138c8826040015183602001516200ab6390919063ffffffff16565b816000018181525050620138ff7f4edcfafc6e26c0c6046bbc3fded7186341b984c8f8594a1f01ee961d27035d8a60001b620034a1565b6201392d7fbeda8f550359a5c810d824a5d99a363543c0a3f093fdacb86175f43244dadac960001b620034a1565b670de0b6b3a7640000861162013dfb576201396b7f9df44e0640fc8b779add13bd9bb26cba9a153ef8b908bb7653ee82d80dcd163c60001b620034a1565b620139997f0330e2b1c0e2e9deadfc553b2c37d2d64cafa695b4125408126f83891733239c60001b620034a1565b620139c77f18d3d37b293f1bd728ef456fc69c1ed24d1c9d29bdacd8d8650764b42f12abb560001b620034a1565b620139dd89898360200151846040015162012ee1565b62013a0b7fca5c282d778b736be36fc9789cb3bd7e21266899db2615b58a22ec1a2cff607560001b620034a1565b62013a397f67646f02733ea3be7049032969d882231ef9e71e461f441e3e4cf4a7a671f49960001b620034a1565b62013a448762012cef565b62013a727f6fad06f4af95c272f43c86444f15e5178cb035d539d0d944042441270978f85060001b620034a1565b62013aa07f95bb46003eaa930f906194e7a143e5d619c74743dca7188abaa96884ab0bff9460001b620034a1565b600082608001818152505062013ad97f9868a3ff921275af832816fbb437534d3f3b5401cbdbd51a11b70b06cd69afdd60001b620034a1565b62013b077fb0b8738d147cbe758852696154b488782815fbf025592f5ae25bbad39c0fbfc260001b620034a1565b60008260a001818152505062013b407fa8bebcbe959c7b135befedfb78051212924a41092d511cb8e2e4d9578574899360001b620034a1565b62013b6e7f948468f16f6fa3785882f8f4310d5a152b13acfc35d1cfef29dcce5dcc53c6bc60001b620034a1565b81600001518260c001818152505062013baa7f8af22142a405db4e63c238e6b687d9e91b810131c62f1367d0cd8d8c365db94f60001b620034a1565b62013bd87f159d00501059cd0046990e468dbc54bcaab2557b90d9a5c1cb03dfd67b1fa32b60001b620034a1565b80600001518260e001818152505062013c147fb12c1c85bda9584624eb610cf129c25832fc7834d7becee8a503813d3d75707f60001b620034a1565b62013c427f241df55c6caeb62e6d9406ff862cf2086fd1ccd6a338bc6025c67c55ed6ba17260001b620034a1565b62013c4f876003620121da565b62013c7d7fe0295ab0639c0e28213edb63960f3db45e788d5607cd5e9b703bdd8fc103130560001b620034a1565b62013cab7f8b7321c90f4bb7e45a18df27ca7010cfc70fe1050de70cbc65085bba18bac2b160001b620034a1565b8673ffffffffffffffffffffffffffffffffffffffff167fea67486ed7ebe3eea8ab3390efd4a3c8aae48be5bea27df104a8af786c4084348360000151846020015160026040518084815260200183815260200182600381111562013d0c57fe5b60ff168152602001935050505060405180910390a262013d4f7f18b2ee61e7c61e5443876f26a4fbf9b2005032dcebe924e064fa4ed5189d711760001b620034a1565b62013d7d7fe44d9cba573ce2fdc47ba826bb4af0ffb6b38c858c1d9642f7d43c7c9ac6c64360001b620034a1565b8673ffffffffffffffffffffffffffffffffffffffff167fc3770d654ed33aeea6bf11ac8ef05d02a6a04ed4686dd2f624d853bbec43cc8b600080600060026040518085815260200184815260200183815260200182600381111562013ddf57fe5b60ff16815260200194505050505060405180910390a26201499e565b62013e297f9fba54986cd03e5522814924040a5d25b5f3931d6fec839e9b7d9a2f3b2e0f4f60001b620034a1565b62013e577f92975d77c0faa8368822c15ba5213073aa6411631164ffceb5e3b235d9a402f860001b620034a1565b670de0b6b3a76400008611801562013e765750670f43fc2c04ee000086105b156201422d5762013eaa7feb1d6bb0616c9c1b3387ec56d004d40269319a3b2ec002840d5999d78d9f43c360001b620034a1565b62013ed87fea4b92d22551038e2f9946dadf3959904a06a6c2863e3eb19bebd7d21255850a60001b620034a1565b62013f067f2c954298481e01785cb044cd3e940b4874914997fbdc278f5782495c49af02fa60001b620034a1565b62013f1c89898360200151846040015162012ee1565b62013f4a7f8bd5469f00dbf7c6ddd46c51db93941061dc671aaa0770e5e14151ada2142b2660001b620034a1565b62013f787f97ce567c2e372ccdc969a7adbe4cddc263478ca35d4978dc108c5f0a65d5a9bf60001b620034a1565b62013f838762012cef565b62013fb17f5c7de41fee772ad15c2392e3f4cf3ff7fc72f2f63e13f4e955396d9062b8448660001b620034a1565b62013fdf7ff236d42c3bd1908491478c5d4f8fd5bb7bb59b0daa047196dba19f9c9ada4b7060001b620034a1565b62013ff4826000015182600001518762016ee7565b856080018660a0018760c0018860e0018481525084815250848152508481525050505050620140467f354c78af62eb08994dce1820330490ff74f7cac5fec726eceb0b38f8726995cb60001b620034a1565b620140747fd4acbf0482373a465a7446414f71e9a69a7d033a540a3240243c2747c4b25c3560001b620034a1565b62014081876003620121da565b620140af7f1f752806a96cd7784353360605a764dc7af7a6f72ffeef251768b5acc0a3ff4e60001b620034a1565b620140dd7f11fcfcda2257097025668977c78249f975dde3ab71920b53cfa7d0fc39a0682160001b620034a1565b8673ffffffffffffffffffffffffffffffffffffffff167fea67486ed7ebe3eea8ab3390efd4a3c8aae48be5bea27df104a8af786c408434836000015184602001516002604051808481526020018381526020018260038111156201413e57fe5b60ff168152602001935050505060405180910390a2620141817f650d394e8caca088cc16996f078623cd45f6126b1fa149311853e430978b4a0160001b620034a1565b620141af7f16c847b256b32622acbdacc1743a19b3b5d91881e7a64662429ba154f21a8c3d60001b620034a1565b8673ffffffffffffffffffffffffffffffffffffffff167fc3770d654ed33aeea6bf11ac8ef05d02a6a04ed4686dd2f624d853bbec43cc8b60008060006002604051808581526020018481526020018381526020018260038111156201421157fe5b60ff16815260200194505050505060405180910390a26201499d565b6201425b7f74e005ebd2f5bc2b385d4edec1d4cfbe2f3b880a84d6eaf9c76b8c93be0f02ea60001b620034a1565b620142897fd5da0726dec806fbcd0be28788766cee1cf3b7ca66ebe8ed68f87a4780736edf60001b620034a1565b670f43fc2c04ee00008610158015620142a157508386105b8015620142b2575084826000015111155b15620148a157620142e67f4e2d57256527912a8b9d14d43fdcd31ef12dac59a332d20abd3702086dd7482b60001b620034a1565b620143147f8e13f906be37c02ce1555ad551bba0ddfe0ca528529f1e04f3d34df79ea6843960001b620034a1565b620143427f898c4586f2cc5c9235043e51d6d88f565475155c896b5ded1b38d07f673a2fbb60001b620034a1565b6201435889898360200151846040015162012ee1565b620143867fb52276944e5d0d42384fae0e50f141df341ff6c083b853fe33fa06c9aa450b6460001b620034a1565b620143b47fd7a918fa10f6a2ea3456671c5ffe2c64a66ea8f955b54651436f046a870eda7a60001b620034a1565b6000851415620143c057fe5b620143ee7f2f4029b0ed0bb77e2be55f385873647cf628bb525a2c3e7222989dec61f701a860001b620034a1565b6201441c7f45710fca8fbf12f54401dac5c1d38f5b53a266d41c37d1b1095fbb50ba61f3e260001b620034a1565b620144278762012cef565b620144557f3a45c40da933e4a030b7508658dc24c2d3eb96c4aa4a3e839aa01f96d476a5f160001b620034a1565b620144837f7cfad26114d83da7921ef7e78ebc21ff6bc4f4a7e3fd728296eaf15c0cee630460001b620034a1565b62014498826000015183602001518562017342565b9150620144c87f5ca67b57c6b085a248250e056a1b59fe8b590985e429c5d4d0431ebaff4f4a2f60001b620034a1565b620144f67f7eb7d06bef12f088efdfe017b1078104e6141613ecf4caebda61491a1acd3f5e60001b620034a1565b62014503876003620121da565b620145317f8f223d3fc96f94208b1e148e5fb9d396d3279035b4d0a9bb1630d2014c916e6b60001b620034a1565b6201455f7f188d788f53568de1fed4d49cae8c0c9e68e85460ae032e8d4209a4f89d74e24b60001b620034a1565b60008261010001511115620146c6576201459c7f5d35fc775bb9062d6e6f2a9537b01f44452837ae02a021dba861b2e6191b312960001b620034a1565b620145ca7fc2ad3edd54e46d33829bf0c29b350156d8fedd763a9d3c1f98599015aa54546e60001b620034a1565b620145f87fbe554d986ad441f2359be01f41aa2b2f6f0a7c32bde790393f420de1bf67f77260001b620034a1565b600760009054906101000a900473ffffffffffffffffffffffffffffffffffffffff1673ffffffffffffffffffffffffffffffffffffffff16633f10abab888461010001516040518363ffffffff1660e01b8152600401808373ffffffffffffffffffffffffffffffffffffffff1673ffffffffffffffffffffffffffffffffffffffff16815260200182815260200192505050600060405180830381600087803b158015620146a757600080fd5b505af1158015620146bc573d6000803e3d6000fd5b50505050620146f5565b620146f47f303954970297a0d62901fd2569b9da7a761810a1d554d8bb7db7c3a7da61337860001b620034a1565b5b620147237f1052aa264501be610595dcb2c0563e757a64ca4baa9a0a6c5591fd53a5a6d9f460001b620034a1565b620147517f53c298d8d68de6f11f34310dea9f6fbad44a1b2f0b41205b8a37d4b525eab99b60001b620034a1565b8673ffffffffffffffffffffffffffffffffffffffff167fea67486ed7ebe3eea8ab3390efd4a3c8aae48be5bea27df104a8af786c40843483600001518460a00151600260405180848152602001838152602001826003811115620147b257fe5b60ff168152602001935050505060405180910390a2620147f57f50d6964a7e8173f7db13da721544c32f9776696fa8a1e74f592907b8d0db185c60001b620034a1565b620148237f7c9d87eaf5810185e1c53753cb44d63577686c6d877865b3b5a08529dc80416860001b620034a1565b8673ffffffffffffffffffffffffffffffffffffffff167fc3770d654ed33aeea6bf11ac8ef05d02a6a04ed4686dd2f624d853bbec43cc8b60008060006002604051808581526020018481526020018381526020018260038111156201488557fe5b60ff16815260200194505050505060405180910390a26201499c565b620148cf7fc900fe9a4b7d77725ff82dcda7a0785ef99a84c5be98b7e8911e20f4de613d4d60001b620034a1565b620148fd7f6c86998ec6759eb9b2ea1af31cd9323a44fa89cf97cb7b4ebb20841fec58c81160001b620034a1565b6201492b7f3755f479bc06d702a033fbb3efe469d83e4ed50d5a978420ce923df3d8ba033c60001b620034a1565b6201493562017b4a565b620149637fd5e092d7a32b3b46497b9cfb0db16482bc9aa31fa4f3872063d9a71d929ac3d760001b620034a1565b620149917f2be65a643dda326e4c2afd7301fb28b2bdda9f0d95c7c72ebfc689088659c7cf60001b620034a1565b8092505050620149ff565b5b5b620149cc7fd780405556cd61c5b977569d49988a2ed43b8ddf8f64113df97367b3a519258060001b620034a1565b620149fa7f1ab7729e7a312bca6fcd1e0158eb3890f46c5f7faa82d9a217fb7f34c942ff4a60001b620034a1565b819150505b979650505050505050565b62014a146201796a565b62014a427f0233af6ad38e14e9b4b5e9abe671a836b8c9b9530b54503d82426bc5f9b31cd760001b620034a1565b62014a707f292b18bf69bf6578355476c513ecd474466651a1c7c7ee8f727e1e803a0f1a3b60001b620034a1565b62014a9e7f15c27f68404152c1dea67688271adf28731554d9230922c6758add2f3cc2549f60001b620034a1565b62014abb826040015184604001516200f42590919063ffffffff16565b81604001818152505062014af27f77ad9f9af2a6751bb6878865ec402df34a103ce36a81af8fcf135e3c41c3f98a60001b620034a1565b62014b207fad72cc1786313c35a45e6312901811c247dd27714978babeea13e36d5ac7156860001b620034a1565b62014b3d826060015184606001516200f42590919063ffffffff16565b81606001818152505062014b747f5682173adce7476ec502cf9dd77b9f2bcef9aebb06a9eef14d577fb69d7654c460001b620034a1565b62014ba27fd511140a37adc4809679b8b29136af60098f157b8fa26ddf9ddc453593002f9260001b620034a1565b62014bbf826000015184602001516200f42590919063ffffffff16565b81602001818152505062014bf67f2ac1e2416d128ea1082533efe1db05d74a8eec6bd8c98e497423a7e0a5ecfe0f60001b620034a1565b62014c247f17c4f2fbb70a3862e3e9dcb8604eee65c4bab8637f56e7d771d68d0cdf0bba8360001b620034a1565b62014c41826020015184600001516200f42590919063ffffffff16565b81600001818152505062014c787fc18b174accf90437676c07d21d73ab0a1dc891f95ec55bcc2f34204fdce8c5a960001b620034a1565b62014ca67fbfe90327c331d4e0b42bf088e331f88678b07f6c1cd362280bcbcec04bc4bee660001b620034a1565b62014cc3826080015184608001516200f42590919063ffffffff16565b81608001818152505062014cfa7f1b9eca9e6387171c856a4e03544f93a37a6290f48f9f7a2e1f9813d3c499b8ec60001b620034a1565b62014d287f020260f06472db79ba54821e86fc7a9407f36fccaa9da4ea0e29797e3f06641760001b620034a1565b62014d458260a001518460a001516200f42590919063ffffffff16565b8160a001818152505062014d7c7fa8669b906604de95ea68b9c2efa17e9f1cc28f0a7d1a6d0d46f662960abe6c8160001b620034a1565b62014daa7fa320d268f82c15324d69c204365f617731b94fc7c4c24393b25dc59f58aeb5e160001b620034a1565b62014dc78260c001518460c001516200f42590919063ffffffff16565b8160c001818152505062014dfe7f69c310c4edd398ee28ff4f596315d6204c255c90b63a9f5d32c21526e202033c60001b620034a1565b62014e2c7f77bac75ced248b35790b64a6b563d48155e06142f0039ff1317dcebd7f0079e060001b620034a1565b62014e498260e001518460e001516200f42590919063ffffffff16565b8160e001818152505062014e807fcef7ee763b3ac2592c18cf603707950e4212048274ea32c82a74f2e015975b4160001b620034a1565b62014eae7fd0734d710dd77fa359344da0627dd9d2e1f71e72716a19eefdbe786e803e00fb60001b620034a1565b62014ecd8261010001518461010001516200f42590919063ffffffff16565b8161010001818152505062014f057fec29d9db9628f3cbf8b00ef7c7154ad5d29767ee5a200db609d51d332b4902c660001b620034a1565b62014f337f37ead9a5638b35203620267823782b545b79632f743cf3f38b89b260c349447260001b620034a1565b80905092915050565b600062014f6c7f07dca502671b952bde5d81584477cc449f0a2ffa82ba20c558e78f6fb34ec14860001b620034a1565b62014f9a7f65ab2cdb3d7e63711ab4ba4c8019b422cb925438d9ffbd4c174f2cf8739508bb60001b620034a1565b62014fc87fe7e4a71a92db22bcdb4cdcd8decfb3329ed4d5692d25fc7e31be7cfb6c6b266a60001b620034a1565b600062014fd78585856201284e565b9050620150077f6a6377fb29d44c74ddabd9d6d8b090f886b29cc97c89caee10cd07df44ddf2c260001b620034a1565b620150357f441c41c2ab5e63598e0dbe03c4b1ece10b3f4d6b1ae55f1c9ba4fe332d67f94e60001b620034a1565b6714d1120d7b16000081109150509392505050565b6201505462017b4a565b620150827fdec7ab462a03fabf4ddb32b9114af4dd364bb233a56115bd669cedf99fe1673260001b620034a1565b620150b07f9ac8aceaebce9a3bf46e1c517f57e1f1968322e611937d363127d89d4c8aee5860001b620034a1565b620150de7f64f96c3e3affe72fdbe1a09e5ec861a6cb7f99bbb0de216ed14d56633ea7529660001b620034a1565b620150e862017b96565b620151167f1bceea6d08d7ac5a95d8ec337635d41dd102c039bafe4915415041d33fe5167a60001b620034a1565b620151447fae617337630583e017b521e177892706943e722feb011bcd6feacbdfa3699f4260001b620034a1565b6201514f846200747f565b856000018660200186602001876040018481525084815250848152508481525050505050620151a17f0350571a1078fc216882cab4c5aa4a4d124b67210af1eb6876afd3002635d7fa60001b620034a1565b620151cf7f6e14921d76a57adee4f894a178df9e460bf9b99564ffbfbbdcfced2db2f1505c60001b620034a1565b620151e586868360200151846040015162012ee1565b620152137f41d0ae43d3f4727a9163063fab6de7c71026cfa6c8628cb79b7a7fa54a8651a160001b620034a1565b620152417f9a822732c16c8dc52124557619fcb16206b483ae309bc0849626949cb276765e60001b620034a1565b6201524c8462012cef565b6201527a7f449e6132eed2cc13cf980226b516431f1cc7f608f6b5f9cceb5f83b2e3e49d0e60001b620034a1565b620152a87fa3630b88bd21871ec6f96cb984b25c04d58cee54ef90f1655cb22efe8764539160001b620034a1565b620152b7826020015162016e48565b826040018181525050620152ee7f9d52787614304831dd54a24a956f538fed082de164400d4acd0c3a3bc4e940b960001b620034a1565b6201531c7fb6434e345b6e081b013d102f44d91bcdcec02da541f2c52e48d5bf6df9e1025a60001b620034a1565b680ad78ebc5ac62000008260600181815250506201535d7fe5c2f9b02170b454ab7c89786ccf58011c051eec9b5bea4910b3e0e54f05cf9d60001b620034a1565b6201538b7f0e027635ef5e18f6d0906f077a4678e252e4f2d62763839f2ccde57681cb1fc960001b620034a1565b6000620153aa836040015184602001516200ab6390919063ffffffff16565b9050620153da7f37c1aaa0420fead1e2de1d18562fcf622a0886a008433cb789c2dae88e7592eb60001b620034a1565b620154087fbb50b494670b2fcfbc8a3caa75ced4cc9478f92e361a53940a1a398e9ed9ee9e60001b620034a1565b620154198360000151828662016ee7565b866080018760a0018860c0018960e00184815250848152508481525084815250505050506201546b7f887c56d62c4f653d1f14cf20d3653ccd630483ec65243204c924dbee78d983ef60001b620034a1565b620154997f2e49e7957bf84cb5ea069ceb050b75c8e8859c3d008a1e7d4f4463427567cbb560001b620034a1565b620154a6856003620121da565b620154d47f821b27efd320a1da36df5de544b7416eff1e37252691b4eb667d3fc5570701c160001b620034a1565b620155027f4eb5c8acdb9fbab502856ba5715afdc71d2a187246cb36c5fdc36ac6cfa3912960001b620034a1565b8473ffffffffffffffffffffffffffffffffffffffff167fea67486ed7ebe3eea8ab3390efd4a3c8aae48be5bea27df104a8af786c408434846000015185602001516001604051808481526020018381526020018260038111156201556357fe5b60ff168152602001935050505060405180910390a2620155a67fa501ce9602029eb7dcdddc76cbe0111f9ae060de05338285caf76d1a56e565ed60001b620034a1565b620155d47f640c376d23edf5bdbd3e1128af36475caf3a3b70da04f4d4ad689d93c85f805c60001b620034a1565b8473ffffffffffffffffffffffffffffffffffffffff167fc3770d654ed33aeea6bf11ac8ef05d02a6a04ed4686dd2f624d853bbec43cc8b60008060006001604051808581526020018481526020018381526020018260038111156201563657fe5b60ff16815260200194505050505060405180910390a26201567a7f38bd6b12e6424efb0a321bf171ea68131ed1297de32ad531e1dad080bb5b6b9560001b620034a1565b620156a87f5690d0f1bf86e47521de346abbf2bd81a99f8462c2bc2fb60c8187f3dd2c103460001b620034a1565b8292505050949350505050565b6000620156e57f47d1f47bc050b9504bdb99b9bb5b4ef650bd54eba129f8f462ba53eeb800e1aa60001b6201602f565b620157137f8bd1b7c6f317176e126becf0775e874110a4f4c3632da3308f1b96d29114d76f60001b6201602f565b620157417f306334dc7786218d10d6d1fbfce931f8906c3249c067df2bd86b69566eb3362460001b6201602f565b81831062015750578162015752565b825b905092915050565b600080831182906201580a576040517f08c379a00000000000000000000000000000000000000000000000000000000081526004018080602001828103825283818151815260200191508051906020019080838360005b83811015620157ce578082015181840152602081019050620157b1565b50505050905090810190601f168015620157fc5780820380516001836020036101000a031916815260200191505b509250505060405180910390fd5b5060008385816201581757fe5b049050809150509392505050565b6000620158557f58007f484e65a8732a4ac83776446f127c50b1719e333f91c1f137ccd6cea1f960001b620034a1565b620158837f9bc26093a5963b2b24ca870ab0a362497b84521e1b8436f7ffe1a885980bfacd60001b620034a1565b620158b17fd34399b28d40dea8bd3cd6df6ab7fe38d1b7697951837628dd673cb93b6c4cc460001b620034a1565b620158dd603c620158ce600d54426200ab6390919063ffffffff16565b6200d98490919063ffffffff16565b905090565b6000620159127fb3241079ceee75efb4f3f892705b88b32961790b15153e6c1da6dec7c1d7915660001b6201602f565b620159407ff79a741bf782d3218f36835506800f1d3ab587d28812c2002c2387e64a8017e460001b6201602f565b6201596e7f7ddd83c2b2f0df7ca81d0b50c6efd9c6a7dd0140a5ab675453f6bf365967695360001b6201602f565b631f540500821115620159e457620159a97ff6eb246b3774442d014657cf070f008c8ff565009b3f833a9c3cd107ef4bdbb360001b6201602f565b620159d77fe52b09f0e3388775a21a09a651f0c711b795425edcb4c3f5657fb1b63ca169b360001b6201602f565b631f540500915062015a13565b62015a127f6c5e9a1fc004355d704a3b38d2cc20774f859178120fc329227fbeb73ced99f060001b6201602f565b5b62015a417f2f33c33b65ef658ebe3922af023dd2b7bf51d69e770388dd13501c29de2cc8b460001b6201602f565b62015a6f7f3920ed5fcecd3f1de58dc9899fccce121ce931a67e880b6aa84bdf6458d5f3cc60001b6201602f565b600082141562015ae65762015aa77fd2538caefe4e6287f0399f74982a0d9471364e43bb774a2b6efee788003ef26660001b6201602f565b62015ad57fac2427b4de7e5234350bedfe284dc2c61a7fa863aade085a441d976b2ebf3cf860001b6201602f565b670de0b6b3a7640000905062016029565b62015b147fa4d5930a6098ca08980bc9df31776c6467441cec824b242109dca0b2dc9a6b9160001b6201602f565b62015b427f1acbfad87608a2dab877be7fc3cc8e0ec2d05f33cf7f9a66f447614bb1fde37060001b6201602f565b62015b707fe728b77a16a778765f23b206dbfaab5a6224e9f728e2f9d764fb165d16a58f7260001b6201602f565b6000670de0b6b3a7640000905062015bab7f43405e64b7c3de3438be664a93bbd8f4bad834b9bc9c7415daf18e3dfe3f409660001b6201602f565b62015bd97f9534842aeeb1cf59dd39e3b30c0f1c5140d0642126190341ae2d7939bc88cc8460001b6201602f565b600084905062015c0c7ff603312008e375e05a1d2ead4faaca56d2678f324c61280cdcf071a1599c0e4560001b6201602f565b62015c3a7f84a9fea4a6241118b5d9fbe6735c8b555f6a5d659b361694a7a4b93913c7351160001b6201602f565b600084905062015c6d7fedf6f0a50821d016bd7d6db935672c0a9215716cbd5dfd8dcb0279ce5aeb5ffd60001b6201602f565b62015c9b7f06d87a255fa445c9f34171894d637a43fc7fbbf3475c03b788aa20e96740819060001b6201602f565b5b600181111562015fbb5762015cd47f5885afa097f1c3f034d65d5f0f76a2499827f3971c2b10b842246451af5150a860001b6201602f565b62015d027feeddcf126d4a3122c2999f1cd892690a9b17836f37d52a797561426e1ecf936d60001b6201602f565b60006002828162015d0f57fe5b06141562015e295762015d457febe7a217f65dd502729d70ba9fc7d0c2eee42f405de224fa6aa2886494e56d4a60001b6201602f565b62015d737f76e3afe2526aab6a69c814ba4624ccc7151c70d4b0100e3cd060431872804e3260001b6201602f565b62015da17ffcc40f1f1f2b130ed3590df449024506cb60fd47cdcddd3bc77164dad4e7e04360001b6201602f565b62015dad8283620177eb565b915062015ddd7f2516dc9ea3d3c34abeb9fff701da707c1348eb974c06bda2bf20251d983b1bd160001b6201602f565b62015e0b7fecdca9354abf0a3ec079925ff7fd21f9c212059816a72df40605d63b72cdc28b60001b6201602f565b62015e216002826200d98490919063ffffffff16565b905062015fb5565b62015e577f54bc67050f05841ec404a70010b4e7f410b299877a7cc2e8f7cc694125c8649e60001b6201602f565b62015e857f6a855a0cf806bf54f56b0894a0ff3dc976b081f5b466404a2a4ddf09d47746b660001b6201602f565b62015eb37f87bfead1e6731c96849fa2b26a9b6b9a8c346d29c8f0c057af85e4ea71264f4960001b6201602f565b62015ebf8284620177eb565b925062015eef7fde86d1598f24ecf47f87e21b2ca275b54148dd414bcab48bc271a9e24ab9608460001b6201602f565b62015f1d7fc6f4503566e9c22cb0c02855c84a6cd1fcb4c12d2f17a1038bd93d82b3be253e60001b6201602f565b62015f298283620177eb565b915062015f597f6364d2cd8ec4e410fe5284c11b0c31e6e9bfb0546849b96c3ea2e4ff30255e5460001b6201602f565b62015f877fdbe99c798e1562891ab67d7f2eb24bd2c2d48c035a19b1e7ef65545bded129c960001b6201602f565b62015fb2600262015fa36001846200ab6390919063ffffffff16565b6200d98490919063ffffffff16565b90505b62015c9c565b62015fe97fafcfe5e25fce3fc8a5893b7cc3fe5906e549c1a8528644123951fc9e1610433960001b6201602f565b620160177faa5cde25a5892d786efc1261d1a973b2731b7877c8bd07382c35a568d3928f6460001b6201602f565b620160238284620177eb565b93505050505b92915050565b50565b620160607fb36285a87f3d235a09d0193b36bd338abba814c616b8849a7ca17c61dab7d7d860001b620034a1565b6201608e7f354c4e6da8c34d9fe3b9bfe722a17138948827e96fbc3d61b9c6e3b82c8f43df60001b620034a1565b620160bc7fcbda456f816524e76f39e0933cdd587adb9c526fc53c9b9035d2f5ed108ac3e060001b620034a1565b836040015173ffffffffffffffffffffffffffffffffffffffff16639dc29fac600660009054906101000a900473ffffffffffffffffffffffffffffffffffffffff16846040518363ffffffff1660e01b8152600401808373ffffffffffffffffffffffffffffffffffffffff1673ffffffffffffffffffffffffffffffffffffffff16815260200182815260200192505050600060405180830381600087803b1580156201616a57600080fd5b505af11580156201617f573d6000803e3d6000fd5b50505050620161b17f81c4600abfe550ab5de2db5e28d6e34d2eb5f429d23f8a8383c1f29fd9154bbd60001b620034a1565b620161df7f77ee28deb742aba695344ec156b762462fabe7e33282a865de1a35d2b79d949f60001b620034a1565b836000015173ffffffffffffffffffffffffffffffffffffffff166338d995a8836040518263ffffffff1660e01b815260040180828152602001915050600060405180830381600087803b1580156201623757600080fd5b505af11580156201624c573d6000803e3d6000fd5b505050506201627e7fa63c8477e64ac501194a6f2dfa69970bbf49039ad8049d4bf22af5c11256ec5760001b620034a1565b620162ac7f9474371595810bf67f6a22e4439f745fc48744b4ffa33136bd261ca1570aaddf60001b620034a1565b8360a0015173ffffffffffffffffffffffffffffffffffffffff16633f10abab84836040518363ffffffff1660e01b8152600401808373ffffffffffffffffffffffffffffffffffffffff1673ffffffffffffffffffffffffffffffffffffffff16815260200182815260200192505050600060405180830381600087803b1580156201633857600080fd5b505af11580156201634d573d6000803e3d6000fd5b505050506201637f7fc67ee8097e7d647bc52f4087f688c9c557bb081023e0ae7b32d6c245fb7c5c5260001b620034a1565b620163ad7f33ebe49677dcd912a3cbeb9a974a60c17e70719305ce9e28808f19b7d7f8553460001b620034a1565b836000015173ffffffffffffffffffffffffffffffffffffffff166364a197f38560a00151836040518363ffffffff1660e01b8152600401808373ffffffffffffffffffffffffffffffffffffffff1673ffffffffffffffffffffffffffffffffffffffff16815260200182815260200192505050600060405180830381600087803b1580156201643d57600080fd5b505af115801562016452573d6000803e3d6000fd5b5050505050505050565b60006201648c7f3e568fe0ad286efb617006d19626626d2eec01f6bdd2e75b8388e7be93aea3f460001b62003475565b620164ba7f3d9a5b4b82198ad335cb056e3078c9e06b8c980cffc38d75d124a7278ab71dcf60001b62003475565b620164e87f940bd9b127c8c05af8092736c8b08975356edcae0cff123c773b945ff5ffbe6760001b62003475565b62016506680ad78ebc5ac6200000836200ab6390919063ffffffff16565b9050919050565b6201653b7f55ce9b8c4b3bc4d3c36766dd5df4a649ddb965e005ab0f63b4eab410f266ae4260001b620034a1565b620165697fba5a6a8adb0a01eb43e3dd9fe1b9a510b9e615b172c4616eeff069c46faa82b060001b620034a1565b620165977f0a8cbacf27d34f89e720665ccfc073f06e76166bd4cc998b26abfefa5bdeaec660001b620034a1565b620165c57f207506b6a6a473616af568fcd3bd6989c658f3a07123a2c57f0ced577e50a2df60001b620034a1565b6001811180156201667b57506001600b60009054906101000a900473ffffffffffffffffffffffffffffffffffffffff1673ffffffffffffffffffffffffffffffffffffffff1663de8fa4316040518163ffffffff1660e01b815260040160206040518083038186803b1580156201663c57600080fd5b505afa15801562016651573d6000803e3d6000fd5b505050506040513d60208110156201666857600080fd5b8101908080519060200190929190505050115b620166d2576040517f08c379a000000000000000000000000000000000000000000000000000000000815260040180806020018281038252602a81526020018062017be1602a913960400191505060405180910390fd5b620167007fd2e62c70d5304e7b7f3fb6193d3dee109ae3c2cf0ae254dd6b9de356e4ca5e5360001b620034a1565b50565b620167317f3f8efa0a562401648dd17d0910e58d81ee81b2b0fe7bbabc7f88d75e3ec53a1b60001b620034a1565b6201675f7f861b9f872faab20d54078910a2baaa2719c2f83f93775c3bd56db9bbca02de3c60001b620034a1565b6201678d7f015f9ccbe4a4fc06d130d14368c08faadb3bdab0792507d87c9d3f4bfa1ad17360001b620034a1565b6000600e60008473ffffffffffffffffffffffffffffffffffffffff1673ffffffffffffffffffffffffffffffffffffffff16815260200190815260200160002060030160009054906101000a900460ff1690506201680f7f63f32681adbb2b2c0e7df8861196e422af584bd24f158d1825772c8117a4fb8560001b620034a1565b6201683d7f90189d5d08254e877e148f0c255df44f61f620ee154ac4d8565931c008dfed3e60001b620034a1565b600060048111156201684b57fe5b8160048111156201685857fe5b14158015620168805750600160048111156201687057fe5b8160048111156201687d57fe5b14155b6201688757fe5b620168b57f50ff5fd90b4a32e062f10852b9126941686f247dbf9a9df73ae125a3bf4b441c60001b620034a1565b620168e37fb08a65f7cd80b481e36941cd6475f41365629fddde0b6ae5ee087beb9a0d345060001b620034a1565b6000600e60008573ffffffffffffffffffffffffffffffffffffffff1673ffffffffffffffffffffffffffffffffffffffff16815260200190815260200160002060030160019054906101000a90046fffffffffffffffffffffffffffffffff169050620169747f2bd9feb4056a26999524fe0eb4f9197761a3d67f2a61e98e8f3c8a51f82a0a4e60001b620034a1565b620169a27f5d12b24aa6f61e6bf0eb2dcca4f5845a7672e49aff09c337d32fda37dabb6a1160001b620034a1565b6000839050620169d57f0cfdf0c3ef73ba3a68d7d47347f9cdc7e59bee4f441a8febd07b62368295b33760001b620034a1565b62016a037fce8f9e2b172b3f7e59c0cf4cedc716a2cc8613ba10567cd2a2c42ffe9c46bf4d60001b620034a1565b600062016a1b6001836200ab6390919063ffffffff16565b905062016a4b7f703366ca1c7c98a6c4f59a5dddce4c68ddd3bdd9e1db0c8cafd9bb3c4a4b5efc60001b620034a1565b62016a797f4458982fff1ca03f600007a09780bcb1a111f1c08b47722dc553f56f54d15ab860001b620034a1565b80836fffffffffffffffffffffffffffffffff16111562016a9657fe5b62016ac47f4c9832461f878301ebc5a156de0e72e8b391102a44bb9c441c703c999c1fe7cc60001b620034a1565b62016af27fdfa3135cbec0701036d2e6de14550f4c7fac772da0104a84d35dfcd7092415ef60001b620034a1565b60006015828154811062016b0257fe5b9060005260206000200160009054906101000a900473ffffffffffffffffffffffffffffffffffffffff16905062016b5d7fd0ee03e2a4954c0f1b9bf4015eff3c296de123fbada9860a110b4d676e5f457d60001b620034a1565b62016b8b7f4b3eb1dad5e1213af7989559b91918865034e467f7dc9f2199a84dde762e6e2060001b620034a1565b806015856fffffffffffffffffffffffffffffffff168154811062016bac57fe5b9060005260206000200160006101000a81548173ffffffffffffffffffffffffffffffffffffffff021916908373ffffffffffffffffffffffffffffffffffffffff16021790555062016c227fef1240ec59a7f7f53a04f476450a8f961fc8b2a46c08c3ce77628e22e638297360001b620034a1565b62016c507f0a1b98c3adb56660d47db1f484dcb81a3b84df1547e67a4715609930757d101960001b620034a1565b83600e60008373ffffffffffffffffffffffffffffffffffffffff1673ffffffffffffffffffffffffffffffffffffffff16815260200190815260200160002060030160016101000a8154816fffffffffffffffffffffffffffffffff02191690836fffffffffffffffffffffffffffffffff16021790555062016cf77f442ed42c7bf1b78e7bdc4a55a16ef2bb86c539c566a7651e4691fd7b92a7975660001b620034a1565b62016d257f2bc799bc28e08ae54b490140c7e9548a9aa7be67865e23630926e7ee37345e9e60001b620034a1565b7f02b04ae5f7be9ca7c103293a2aa15f3c339d15d6eda53b721fef7b0e609c831a8185604051808373ffffffffffffffffffffffffffffffffffffffff1673ffffffffffffffffffffffffffffffffffffffff168152602001826fffffffffffffffffffffffffffffffff1681526020019250505060405180910390a162016dd07f945980240515c9b9c8ac879b06ec4903d91e85ecfa027daa5c9e6a9921974f9160001b620034a1565b62016dfe7f6acd669f9aef4e33c24d86a023867b7698b4eec202918a709bb1135d9be2b2a060001b620034a1565b601580548062016e0a57fe5b6001900381819060005260206000200160006101000a81549073ffffffffffffffffffffffffffffffffffffffff0219169055905550505050505050565b600062016e787ffadec59c1bef1cf05ba577c30baad440664aa522cd6dd846bae1805149c2d15860001b62003475565b62016ea67f5c85e7bb79e376199bf634a221c16ecbccfe2bea14622292be918c0722354f0660001b62003475565b62016ed47f4d580af00da1d748d8f5c30254281f96e0df82d9318051fec12d0701442cf77460001b62003475565b60c8828162016edf57fe5b049050919050565b60008060008062016f1b7f963559385b8bd1500e0fbe458fc4f72716e13ebd42835ce37976696d53f1164e60001b620034a1565b62016f497fbc6de181e8cfe6777b4d14909cde3979757f44793e5b11a8d80f731d9f9e374960001b620034a1565b62016f777fc5ec11761b25f56761b41893c0595a75444c2dcbc4b884da6c47101b17fbbf7060001b620034a1565b60008511156201718c5762016faf7f9f5243f740b2526d30951dc85d37cde675f30a814598e918e792e71f28efe38660001b620034a1565b62016fdd7fe9ec7caca7d3099f915fd805ab6e749f65b5b47aaed7126cc0a3113271e552ce60001b620034a1565b6201700b7ff921759668b8136742d2d8a92ee5c147a50c02a8671a309927ebf645259815b060001b620034a1565b620170178786620156b5565b9350620170477fae0ddb6686ad12c0905fe37e0b7ef69b7054c05b866ec2a43c53c80ba806b63660001b620034a1565b620170757f3a40f297f30f0cfd59a0a4b5c96411513555f78e39b8dc3e373c2880221e3a9d60001b620034a1565b6201709e876201708f86896200d8f990919063ffffffff16565b6200d98490919063ffffffff16565b9250620170ce7f4fd64101628ce5547c4b5f6b3f6e711256dbc05c8bd12438366b1811e43796c660001b620034a1565b620170fc7fea45f8648046ca26de3d079b8b760e41c9b1fdc8d108ce36b5edad6bdc0c9fc560001b620034a1565b6201711184886200ab6390919063ffffffff16565b9150620171417fd167cba3547032247227a91fd74b463dc9f6150a80a5c549a48095ff34e95fe560001b620034a1565b6201716f7ffc83cf97c584235b3a2507c5ddeaacfd5ce9351c9c17a8abddf594dcd1ca1a3160001b620034a1565b6201718483876200ab6390919063ffffffff16565b905062017339565b620171ba7fc785cdbadf9931230a2394ae09e8d012eae16d5143226052fc0929e818ba2f8160001b620034a1565b620171e87f2828439791cbd00cd329db9659a470d58ce4a1d975848e23e259764253ef17b260001b620034a1565b620172167f8993465a39f203d2e083a7eb71d1bb23aa054dd8b35909367b725d74f3a7100860001b620034a1565b60009350620172487f71cdc0128a884656bf57c74be8964538193c45adea0f06dcb258e35531ded7a660001b620034a1565b620172767f95b1fa711a05147c92423412e29756d474b96dfcdebd55c7bd17ea1ab42d2f2360001b620034a1565b60009250620172a87fd53153180eb5d3f0988116fb90d9d2422b56d94bb6672c1d7fa7b61d25a27f6560001b620034a1565b620172d67f6b00dba9dd27ecc79719a31590ab8372d96fa3c9de5ac0ea78e95b28a535193560001b620034a1565b869150620173077f6438d4e55786b60057be938338e6f9335dee8cacab277b3d05e1f49a81a333c060001b620034a1565b620173357f07b037f4899ca60a9b8db8afa8978ca316bbf76d1aab11cec6e24f69c774236360001b620034a1565b8590505b93509350935093565b6201734c62017b4a565b6201737a7f036513bbbbcd65ff44dcd5f6f5159594f77d29d048474cf70eeba4fb2ca784ab60001b620034a1565b620173a87f29e22fef903b175f3660c69b03cceec2b7b8154d5cd49d9b99dd7a7d50f2e64b60001b620034a1565b620173d67fccb57b68c2be9457cf570647ea7abe6bd4c4b7b08e6437f8003c2d60953646aa60001b620034a1565b838160000181815250506201740e7f7e3685935bf69dce933fab5dc02f1ca8b32d025818080f8f76db88894621dcec60001b620034a1565b6201743c7fa16b318a527a3937cc5adf836292fa59b93988656d74945c87aa51892e67c25460001b620034a1565b82816020018181525050620174747fecb26de8b313783d744ce590f58d346b339de008b21bc0c3a3b10ba43e788b6f60001b620034a1565b620174a27f83dcf95e73026c404fdfbf53925e097bee4192c10b991795f8f1168fda8c234160001b620034a1565b6000620174d583620174c6670f43fc2c04ee0000886200d8f990919063ffffffff16565b6200d98490919063ffffffff16565b9050620175057ffa205bd44c958df8b6d7b0ca52ad9af867ea3c99587c0bf6c13fa66acd83266460001b620034a1565b620175337f3f561565d8993255fd0f759a2c1c4884144281ec9bbbab7f5f15ace35a35772860001b620034a1565b6201753e8162016e48565b826040018181525050620175757f29c1c46db8a07b13a29a1dd8da4d829c8a29f7b250902d1a63d2bba44d52772560001b620034a1565b620175a37f664ba7fe612a7d6891a32eccac830c027110a25220ddfadb32eb09894061f2dc60001b620034a1565b680ad78ebc5ac6200000826060018181525050620175e47f7bd71919940e6b6dd3c16592f6c6ec13378c1fe619cc16063469109d286e70c460001b620034a1565b620176127f0bcda941bee0fb274c65109db25fc736df99db043642403024f057d980d45e2a60001b620034a1565b848260800181815250506201764a7f33067854770ab88aa9b387163c45448754fd64d7a1e9c7c2623c19b8fad1fbfa60001b620034a1565b620176787fb91320dc3be508f5754b3b0dd568a759f8213865f8db084e86c6222877b8041a60001b620034a1565b620176918260400151826200ab6390919063ffffffff16565b8260a0018181525050620176c87f01e6daf80cab4868857b646d0508e8601c4f9cad3c07f4fa1e32ded0add83a6460001b620034a1565b620176f67f35de7fe5ae0130b3588bea423b61f785932d0e7e9689c1d654cc774f9d429ae360001b620034a1565b6201770b81856200ab6390919063ffffffff16565b82610100018181525050620177437f490f6a785f1241935602cfc7e36ef9d98b857421b8cabcfa8ee0f17c284a51fd60001b620034a1565b620177717f1da9c739c475c5346e55541cf000d30f40dc38f6d0312153a4f8494ab1572f3060001b620034a1565b60008260c0018181525050620177aa7f8e95d5924b736dcc3bde0b846818affb2b26c3bd488194c4fb7840d844eb066260001b620034a1565b620177d87fc045666be57e6d0ba1225019a321243350ffe29a1ae541f8f39f63974676a39760001b620034a1565b60008260e0018181525050509392505050565b60006201781b7fcf2c8da14ad1a8f90127683c91376a491821becc1af092bb9f208bc555bc100560001b6201602f565b620178497fda80dfeb44c418549c5582ab2c70318bf7b0cb14201220f6ded1541ad2fc893b60001b6201602f565b620178777fb26e00edd5ffe7f2468b9771f5a971168a4ed8a3a0d06918af1c1d6d4b76feeb60001b6201602f565b60006201788e83856200d8f990919063ffffffff16565b9050620178be7fcae6721ad5a0e4f2c279a6248a026a49cd7e26bc6970453d11e26959664207eb60001b6201602f565b620178ec7f24fa38eeaa313d7921ecb164c9e2678792c268552c5a7925102974a0b23f2a0360001b6201602f565b62017930670de0b6b3a7640000620179216002670de0b6b3a7640000816201791057fe5b04846200f42590919063ffffffff16565b6200d98490919063ffffffff16565b91505092915050565b6040518060a00160405280600081526020016000815260200160001515815260200160008152602001600081525090565b6040518061012001604052806000815260200160008152602001600081526020016000815260200160008152602001600081526020016000815260200160008152602001600081525090565b6040518060e00160405280600073ffffffffffffffffffffffffffffffffffffffff168152602001600073ffffffffffffffffffffffffffffffffffffffff168152602001600073ffffffffffffffffffffffffffffffffffffffff168152602001600073ffffffffffffffffffffffffffffffffffffffff168152602001600073ffffffffffffffffffffffffffffffffffffffff168152602001600073ffffffffffffffffffffffffffffffffffffffff168152602001600073ffffffffffffffffffffffffffffffffffffffff1681525090565b60405180610100016040528060008152602001600081526020016000815260200160008152602001600081526020016000815260200160008152602001600081525090565b604051806060016040528060008152602001600081526020016000151581525090565b6040518060e00160405280600081526020016000815260200160008152602001600073ffffffffffffffffffffffffffffffffffffffff16815260200160001515815260200160008152602001600081525090565b6040518061012001604052806000815260200160008152602001600081526020016000815260200160008152602001600081526020016000815260200160008152602001600081525090565b6040518060600160405280600081526020016000815260200160008152509056fe54726f76654d616e616765723a20556e61626c6520746f2072656465656d20616e7920616d6f756e7454726f76654d616e616765723a204f6e6c79206f6e652074726f766520696e207468652073797374656d54726f76654d616e616765723a20526564656d7074696f6e7320617265206e6f7420616c6c6f77656420647572696e6720626f6f747374726170207068617365536166654d6174683a206d756c7469706c69636174696f6e206f766572666c6f7754726f76654d616e616765723a2052657175657374656420726564656d7074696f6e20616d6f756e74206d757374206265203c3d20757365722773204c55534420746f6b656e2062616c616e636554726f76654d616e616765723a2043616c6c6572206973206e6f742074686520426f72726f7765724f7065726174696f6e7320636f6e747261637454726f76654d616e616765723a2043616c6c646174612061646472657373206172726179206d757374206e6f7420626520656d70747954726f76654d616e616765723a20416d6f756e74206d7573742062652067726561746572207468616e207a65726f54726f76654d616e616765723a2046656520776f756c642065617420757020616c6c2072657475726e656420636f6c6c61746572616c4d6178206665652070657263656e74616765206d757374206265206265747765656e20302e352520616e64203130302554726f76654d616e616765723a2043616e6e6f742072656465656d207768656e20544352203c204d435254726f76654d616e616765723a206e6f7468696e6720746f206c697175696461746554726f76654d616e616765723a2054726f766520646f6573206e6f74206578697374206f7220697320636c6f736564a264697066735822122030a9573c964395eef9e36af9ab19c49a09258a547e14ab5c7cfed747f5ecb0ca64736f6c634300060b003360806040523480156200001157600080fd5b5033600360006101000a81548173ffffffffffffffffffffffffffffffffffffffff021916908373ffffffffffffffffffffffffffffffffffffffff1602179055503373ffffffffffffffffffffffffffffffffffffffff16600073ffffffffffffffffffffffffffffffffffffffff167f8be0079c531659141344cd1fd0a4f28419497f9722a3daafe3b4186f6b6457e060405160405180910390a361b7a480620000be6000396000f3fe6080604052600436106101cf5760003560e01c8063741bef1a116100f8578063940a71bc11610090578063940a71bc14610a5c578063a20baee614610a97578063a3a6401714610ac2578063a3f4df7e14610b19578063ae91875414610ba9578063b83f91a214610c00578063c6a6cf2014610c57578063ea9638bf14610ce5578063f92d343314610d69576101cf565b8063741bef1a146107d8578063761ab22c1461082f578063794e572414610886578063795d26c3146108b15780637f7dde4a146108dc578063860665b314610933578063887105d3146109ab5780638da5cb5b146109d65780638f32d59b14610a2d576101cf565b8063400c1bec1161016b578063400c1bec146104655780634870dd9a146104a05780634ff81443146104cb5780635530273c1461051a5780635733d58f1461059557806368647db1146105c05780636c37a4af146106245780636f0b0c1c1461079657806372fe25aa146107ad576101cf565b806304491fa7146101d45780630e704d501461024f5780631184e5f8146102665780631bf43555146102eb5780632e86bbd81461031657806334c6e492146103415780633cc742251461037c5780633d83908a146103d35780633e3a69621461042a575b600080fd5b3480156101e057600080fd5b5061024d600480360360608110156101f757600080fd5b8101908080359060200190929190803573ffffffffffffffffffffffffffffffffffffffff169060200190929190803573ffffffffffffffffffffffffffffffffffffffff169060200190929190505050610d94565b005b34801561025b57600080fd5b50610264610e2f565b005b34801561027257600080fd5b506102e96004803603608081101561028957600080fd5b810190808035906020019092919080359060200190929190803573ffffffffffffffffffffffffffffffffffffffff169060200190929190803573ffffffffffffffffffffffffffffffffffffffff169060200190929190505050611ab7565b005b3480156102f757600080fd5b50610300611b52565b6040518082815260200191505060405180910390f35b34801561032257600080fd5b5061032b611b5f565b6040518082815260200191505060405180910390f35b34801561034d57600080fd5b5061037a6004803603602081101561036457600080fd5b8101908080359060200190929190505050611b6c565b005b34801561038857600080fd5b50610391611b6f565b604051808273ffffffffffffffffffffffffffffffffffffffff1673ffffffffffffffffffffffffffffffffffffffff16815260200191505060405180910390f35b3480156103df57600080fd5b506103e8611b95565b604051808273ffffffffffffffffffffffffffffffffffffffff1673ffffffffffffffffffffffffffffffffffffffff16815260200191505060405180910390f35b34801561043657600080fd5b506104636004803603602081101561044d57600080fd5b8101908080359060200190929190505050611bbb565b005b34801561047157600080fd5b5061049e6004803603602081101561048857600080fd5b8101908080359060200190929190505050611bbe565b005b3480156104ac57600080fd5b506104b5611bc1565b6040518082815260200191505060405180910390f35b3480156104d757600080fd5b50610504600480360360208110156104ee57600080fd5b8101908080359060200190929190505050611bc6565b6040518082815260200191505060405180910390f35b34801561052657600080fd5b506105936004803603606081101561053d57600080fd5b8101908080359060200190929190803573ffffffffffffffffffffffffffffffffffffffff169060200190929190803573ffffffffffffffffffffffffffffffffffffffff169060200190929190505050611c5c565b005b3480156105a157600080fd5b506105aa611cf6565b6040518082815260200191505060405180910390f35b610622600480360360408110156105d657600080fd5b81019080803573ffffffffffffffffffffffffffffffffffffffff169060200190929190803573ffffffffffffffffffffffffffffffffffffffff169060200190929190505050611d02565b005b34801561063057600080fd5b50610794600480360361014081101561064857600080fd5b81019080803573ffffffffffffffffffffffffffffffffffffffff169060200190929190803573ffffffffffffffffffffffffffffffffffffffff169060200190929190803573ffffffffffffffffffffffffffffffffffffffff169060200190929190803573ffffffffffffffffffffffffffffffffffffffff169060200190929190803573ffffffffffffffffffffffffffffffffffffffff169060200190929190803573ffffffffffffffffffffffffffffffffffffffff169060200190929190803573ffffffffffffffffffffffffffffffffffffffff169060200190929190803573ffffffffffffffffffffffffffffffffffffffff169060200190929190803573ffffffffffffffffffffffffffffffffffffffff169060200190929190803573ffffffffffffffffffffffffffffffffffffffff169060200190929190505050611d9c565b005b3480156107a257600080fd5b506107ab6130c3565b005b3480156107b957600080fd5b506107c2613202565b6040518082815260200191505060405180910390f35b3480156107e457600080fd5b506107ed61320e565b604051808273ffffffffffffffffffffffffffffffffffffffff1673ffffffffffffffffffffffffffffffffffffffff16815260200191505060405180910390f35b34801561083b57600080fd5b50610844613234565b604051808273ffffffffffffffffffffffffffffffffffffffff1673ffffffffffffffffffffffffffffffffffffffff16815260200191505060405180910390f35b34801561089257600080fd5b5061089b61325a565b6040518082815260200191505060405180910390f35b3480156108bd57600080fd5b506108c6613266565b6040518082815260200191505060405180910390f35b3480156108e857600080fd5b506108f1613503565b604051808273ffffffffffffffffffffffffffffffffffffffff1673ffffffffffffffffffffffffffffffffffffffff16815260200191505060405180910390f35b6109a96004803603608081101561094957600080fd5b810190808035906020019092919080359060200190929190803573ffffffffffffffffffffffffffffffffffffffff169060200190929190803573ffffffffffffffffffffffffffffffffffffffff169060200190929190505050613528565b005b3480156109b757600080fd5b506109c0614b5b565b6040518082815260200191505060405180910390f35b3480156109e257600080fd5b506109eb614df8565b604051808273ffffffffffffffffffffffffffffffffffffffff1673ffffffffffffffffffffffffffffffffffffffff16815260200191505060405180910390f35b348015610a3957600080fd5b50610a42614e22565b604051808215151515815260200191505060405180910390f35b348015610a6857600080fd5b50610a9560048036036020811015610a7f57600080fd5b8101908080359060200190929190505050614e7a565b005b348015610aa357600080fd5b50610aac614e7d565b6040518082815260200191505060405180910390f35b348015610ace57600080fd5b50610ad7614e89565b604051808273ffffffffffffffffffffffffffffffffffffffff1673ffffffffffffffffffffffffffffffffffffffff16815260200191505060405180910390f35b348015610b2557600080fd5b50610b2e614eaf565b6040518080602001828103825283818151815260200191508051906020019080838360005b83811015610b6e578082015181840152602081019050610b53565b50505050905090810190601f168015610b9b5780820380516001836020036101000a031916815260200191505b509250505060405180910390f35b348015610bb557600080fd5b50610bbe614ee8565b604051808273ffffffffffffffffffffffffffffffffffffffff1673ffffffffffffffffffffffffffffffffffffffff16815260200191505060405180910390f35b348015610c0c57600080fd5b50610c15614f0e565b604051808273ffffffffffffffffffffffffffffffffffffffff1673ffffffffffffffffffffffffffffffffffffffff16815260200191505060405180910390f35b610ce3600480360360c0811015610c6d57600080fd5b81019080803590602001909291908035906020019092919080359060200190929190803515159060200190929190803573ffffffffffffffffffffffffffffffffffffffff169060200190929190803573ffffffffffffffffffffffffffffffffffffffff169060200190929190505050614f34565b005b610d6760048036036060811015610cfb57600080fd5b81019080803573ffffffffffffffffffffffffffffffffffffffff169060200190929190803573ffffffffffffffffffffffffffffffffffffffff169060200190929190803573ffffffffffffffffffffffffffffffffffffffff169060200190929190505050614fcf565b005b348015610d7557600080fd5b50610d7e6150ca565b6040518082815260200191505060405180910390f35b610dc07fac661a1a727285c615d1c3ecf5c202e32cc9e16941062ed36d657ddb6c230df060001b611bbb565b610dec7f6fdb08c78768df5490748558c37c55876bc26877f9799e700b0af76d865a060e60001b611bbb565b610e187f94ac34dab4202d2c42f87d7752491a63c351af291d336696aad3ef11d7a7f13a60001b611bbb565b610e2a336000856000868660006150e4565b505050565b610e5b7f5925ffca58a1b5b06251854166185afab4f15649dec6ae2acd46d794422835e160001b611bbb565b610e877f10ae30f48614510087f41291043fece80a0473d4922d1bb90613470aef6150ba60001b611bbb565b610eb37f15a8aeedbcc75751a75504dff0f78f90a75378c804606e0bfc1d45421545eb9e60001b611bbb565b6000600460009054906101000a900473ffffffffffffffffffffffffffffffffffffffff169050610f067f4caa7b34c8cb75365fcdb5a419beca9a517f6e52ea9b6c8f5ddef9778c1607ff60001b611bbb565b610f327f8f00a9304ff558814c635b8b4c91dab2751b91940111f5845d50aced4751f4a760001b611bbb565b60008060009054906101000a900473ffffffffffffffffffffffffffffffffffffffff169050610f847face4d4ab6ab75e05e60140ec5ba551b383cf09b292c8bcd5d954ddd8ac7db7fe60001b611bbb565b610fb07fc15b77b9ad1e6e1f80f33d4da35b629973b0ab0a4489b0596ffea48d8bbbbbf360001b611bbb565b6000600a60009054906101000a900473ffffffffffffffffffffffffffffffffffffffff1690506110037ffbaded6c13fb6639d95a93f4850c902843be6af41cb685a02b3bcd5c115a8fee60001b611bbb565b61102f7f247b5509a9eedfe4f5f5ce17c323c02fa14d0647837ed531b4803de788d7be9560001b611bbb565b611039833361670c565b6110657f67432476779e56d24262216037f692d7a3516aeb34be364c2fb0f0bc0a438d9660001b611bbb565b6110917f56da0f0033c3224eae45a4a9c8a8d488128978f97457b5a0f546ac3e17c4a31860001b611bbb565b6000600260009054906101000a900473ffffffffffffffffffffffffffffffffffffffff1673ffffffffffffffffffffffffffffffffffffffff16630fdb11cf6040518163ffffffff1660e01b8152600401602060405180830381600087803b1580156110fd57600080fd5b505af1158015611111573d6000803e3d6000fd5b505050506040513d602081101561112757600080fd5b810190808051906020019092919050505090506111667f6e6f75b5dae021935e87864c87522819fc9f1fd6ca5ffa2ffaa69a8ba45c5e2c60001b611bbb565b6111927ffeebbd2fd32768a632b35f91cab30d6b63445a70a15fa27cb7373713f4a5f57a60001b611bbb565b61119b8161695a565b6111c77ff0012bb1604984ee273773b5c10369b39926be4982068025d78fefbd3ce2607760001b611bbb565b6111f37fc30907af86e14cc1b35c6955eab075c53cb788aebadf2e3f3ac3ecc837dda40f60001b611bbb565b8373ffffffffffffffffffffffffffffffffffffffff16630b076557336040518263ffffffff1660e01b8152600401808273ffffffffffffffffffffffffffffffffffffffff1673ffffffffffffffffffffffffffffffffffffffff168152602001915050600060405180830381600087803b15801561127257600080fd5b505af1158015611286573d6000803e3d6000fd5b505050506112b67f87672ea365f9d87a0dd9b5e1ec4d0e7b987bd75c980bd9dbf13e6dc488644ec560001b611bbb565b6112e27f5be906e937b3392f3fb1d364a717cb5bd916830bcba134a1d4669b50fd94328760001b611bbb565b60008473ffffffffffffffffffffffffffffffffffffffff1663480cd578336040518263ffffffff1660e01b8152600401808273ffffffffffffffffffffffffffffffffffffffff1673ffffffffffffffffffffffffffffffffffffffff16815260200191505060206040518083038186803b15801561136157600080fd5b505afa158015611375573d6000803e3d6000fd5b505050506040513d602081101561138b57600080fd5b810190808051906020019092919050505090506113ca7f128521053e9a209fa01497d96aed861bcb7f050861465f22dc97e96ce240f38260001b611bbb565b6113f67f63fb7ce02abbef033162e79543b48af74d20c1ecbf64772a89d6bc4852cdd13260001b611bbb565b60008573ffffffffffffffffffffffffffffffffffffffff1663d66a2553336040518263ffffffff1660e01b8152600401808273ffffffffffffffffffffffffffffffffffffffff1673ffffffffffffffffffffffffffffffffffffffff16815260200191505060206040518083038186803b15801561147557600080fd5b505afa158015611489573d6000803e3d6000fd5b505050506040513d602081101561149f57600080fd5b810190808051906020019092919050505090506114de7ff7afba4032843655cc138ed80db294b8451f0a6bd50a1fcfba71c04eb6d9e03960001b611bbb565b61150a7f145e2887aac3ceef7cce08e7a32cd5f5948b8d5d53a6984b1de23a6bdc8b43e760001b611bbb565b611530843361152b680ad78ebc5ac620000085616a9890919063ffffffff16565b616ae2565b61155c7fd820af2049db6a1fc0796bb976900c17b514719fbafb5ab309035af0c9a50d0260001b611bbb565b6115887f77b902c78b43c2f737501d91a3bc2b8d8fd2aaf9cddaa2b65c79f08bf46e48ed60001b611bbb565b600061159983600084600088616cd3565b90506115c77f4a9e485717893292b0dacef07834ae4668ef50981fa7138325d879eeb660f07d60001b611bbb565b6115f37f2cf908f773038a04221e10e410af143d5bcd4e9862c2a9ab7354be8cb1e7f4da60001b611bbb565b6115fc81616fad565b6116287f1b39eb57ded0bda7820cc25501bfedbb0ec5d39e47c39bac57e452d4784d1eb660001b611bbb565b6116547f75e907cfadf93059b1428e7837983f76addb8ce612e30141a4eb1c580c742c7460001b611bbb565b8673ffffffffffffffffffffffffffffffffffffffff1663fe2ba848336040518263ffffffff1660e01b8152600401808273ffffffffffffffffffffffffffffffffffffffff1673ffffffffffffffffffffffffffffffffffffffff168152602001915050600060405180830381600087803b1580156116d357600080fd5b505af11580156116e7573d6000803e3d6000fd5b505050506117177f431e05d21d1ed415e184b0305ebbd2a17bbb0cd425019bb2e303cbe529b6cb9060001b611bbb565b6117437fab3f31def704d9f428740b07c82d56dd3b83d72993fb2e6a8834537582deaa4860001b611bbb565b8673ffffffffffffffffffffffffffffffffffffffff1663cbd138ae336040518263ffffffff1660e01b8152600401808273ffffffffffffffffffffffffffffffffffffffff1673ffffffffffffffffffffffffffffffffffffffff168152602001915050600060405180830381600087803b1580156117c257600080fd5b505af11580156117d6573d6000803e3d6000fd5b505050506118067fd587097e0e71216cad7c060d1e7aded32695b6933fcf6e9e670b274c95ad994060001b611bbb565b6118327f59d8f46a1f0990b7b4a09330a4d226292851c63e1cd638e447d621cf6372d3f260001b611bbb565b3373ffffffffffffffffffffffffffffffffffffffff167fc3770d654ed33aeea6bf11ac8ef05d02a6a04ed4686dd2f624d853bbec43cc8b600080600060016040518085815260200184815260200183815260200182600281111561189357fe5b60ff16815260200194505050505060405180910390a26118d57ff18012d164463b2d7678ecc21e9bd20cdf87c9a9927a9ff82844cef52aa4a11660001b611bbb565b6119017f0d2e23495fc3f6f2a574f8404ea2b7fd2aa18b8dc47990fbd4e847bea93c6d6b60001b611bbb565b611928868633611923680ad78ebc5ac620000087616a9890919063ffffffff16565b6170ed565b6119547f89ac6ebef76d3d38a3979b3c30efb1313d132640f9493e866ba36e6b65b1b9b960001b611bbb565b6119807f9ac4f1e1dd8f3ad0a84789957604d306c01a1991c31b3c2c370abd0b069363df60001b611bbb565b6119b78686600660009054906101000a900473ffffffffffffffffffffffffffffffffffffffff16680ad78ebc5ac62000006170ed565b6119e37f2bcc4f9313a7b09d814882618c185f6960b34274fe5c71dbe33181de3ac4e56e60001b611bbb565b611a0f7fd1e504bf0f7de7b28400e94e9667fcaf2d406bed2d5655a5f1fd88e549c8860460001b611bbb565b8573ffffffffffffffffffffffffffffffffffffffff166364a197f333856040518363ffffffff1660e01b8152600401808373ffffffffffffffffffffffffffffffffffffffff1673ffffffffffffffffffffffffffffffffffffffff16815260200182815260200192505050600060405180830381600087803b158015611a9657600080fd5b505af1158015611aaa573d6000803e3d6000fd5b5050505050505050505050565b611ae37f3299b139deb63812efb830875314dcef56a65d17d773b58d4efebbae9dab2aed60001b611bbb565b611b0f7f2d7372be9da8c21adcf81b4981bc60f4b8ab0621c02d4ac1c1a11542b6b9df0160001b611bbb565b611b3b7fa75f2c12a1b0fe09ebd3668625bdba2adb939e6ac3b20005f6f34a5dc2b1b5b660001b611bbb565b611b4c33600085600186868a6150e4565b50505050565b686194049f30f720000081565b680ad78ebc5ac620000081565b50565b600160009054906101000a900473ffffffffffffffffffffffffffffffffffffffff1681565b600460009054906101000a900473ffffffffffffffffffffffffffffffffffffffff1681565b50565b50565b60c881565b6000611bf47fad42e664469a581149112cd55200a9d51a3021e50c8d16f031e6c426e3e71bd960001b611bbb565b611c207f5ca4b81df050dd79f00d8e3da05dd2e6bc185cd742db986e2e26bc7a7427cee960001b611bbb565b611c4c7f90865f7c3d6ec07bb6363e9e3801a1730e73d02e9ab23f3b3545c8be93728c8d60001b611bbb565b611c55826172d9565b9050919050565b611c887f671f71ad4c9b9b0e3c9557a1e86f61506909c060115b275b1c63c046b23867c160001b611bbb565b611cb47f7254e87e6b168f74cdd5ad6356cb042ec86c391770372791e734c7bb92452a9760001b611bbb565b611ce07ff379ec0b060b354d3d6f037beef4eb6d377b4cdfe8a671fc1db4a9478867e75360001b611bbb565b611cf13384600080868660006150e4565b505050565b6714d1120d7b16000081565b611d2e7f885e3fc26fb7e54afea40eff20c2a54def8e61ca8d87540edb1a352a199bc48a60001b611bbb565b611d5a7fb7957fc35e99d24768aca7063017f1d4a1f6eb68eec24521cacc0f17c0f4ba8c60001b611bbb565b611d867f2b3327a7c27cfff983c85e37e5055f6fe08760e33707e4e62a13b2b13f41fa5860001b611bbb565b611d98336000806000868660006150e4565b5050565b611da4614e22565b611e16576040517f08c379a00000000000000000000000000000000000000000000000000000000081526004018080602001828103825260208152602001807f4f776e61626c653a2063616c6c6572206973206e6f7420746865206f776e657281525060200191505060405180910390fd5b611e427f72810695b875d1f2394d9ab886cd0476caffc1bacde1d303de942aedc432d68760001b611bbb565b611e6e7f81ea35d82f4e228b092daf2090a43db481ef8d488624f618ade00d38065f56c460001b611bbb565b611e9a7fad1bb3e340e917680f133c2a1b314b183b1fe392645538541a8f055a521dfb8560001b611bbb565b6000686194049f30f720000011611ead57fe5b611ed97f39130fa821bc2e4ede384c626766d58797b097cc22ac0da3ea281004a6db4a6960001b611bbb565b611f057fe611c0ddcf5e42039d94d59595bc429110e073373ae6b5d3a84ff8a21b8750a160001b611bbb565b611f0e8a617382565b611f3a7fbf669e91312258e3786b2832cce7b71b49da6b469871654c840f064a802e2d7460001b611bbb565b611f667f01b97dc07f78e2a465bd2c3d8466b1a4b1a2dabfcbf09339e4afd8a725d27ea860001b611bbb565b611f6f89617382565b611f9b7f07f2e811cf134aec30853d364991ca5d92ffdd1e89470211a9fc0cec9b24bc9860001b611bbb565b611fc77fc2894ba180582bf4a791de20957b8cae93331596cc84d89d927917edc5945b5a60001b611bbb565b611fd088617382565b611ffc7ff2460093ea3fc655ec14a49c5f489713e5e095957e1fb33e3b99d9a9ad4f5de460001b611bbb565b6120287f0e4849df080b8f55e9995f889f04d7c5120c75daf3072e50316dc091e18a88ab60001b611bbb565b61203187617382565b61205d7fa3f9918f2a303ca588b99695105e31954437dd56f7a18d14970cb21ae2e3272160001b611bbb565b6120897fd5ca3763c5423d8d4962b0832bfd81071bdad042a7d05aebf2f93077ca8837fd60001b611bbb565b61209286617382565b6120be7f828cc6961ad6e78c690dd3c8b36a545a5df8703d5da81f1dff7b28c53b73dda660001b611bbb565b6120ea7f51695dd07f4e4d9d4ab9a03dabec2c593f757764d6436c8f6e679ed4cc9d969660001b611bbb565b6120f385617382565b61211f7f5b0a99735583dedfdea68a85ba8934fa951c779abd53073bd99a13c41d9089d460001b611bbb565b61214b7fe755c95dc5becf8d4892abd7ec525dca5ea317e690514b7eeaa866440fcad93b60001b611bbb565b61215484617382565b6121807fce566a188682409b67d88a8b24c801acaa6121e4bf344076f82dda46bd570aa760001b611bbb565b6121ac7f6181a539465d2cdfe4b90dcc74eaa0e6456a58886658960d838470cc0f36f2ca60001b611bbb565b6121b583617382565b6121e17ffe09fe31be735bc9569152d24daa451f6b240a0538e8458651a9db32c594f61b60001b611bbb565b61220d7f64431e44fcbbb65d096dd6567bf62e0ce6c4a49395d53beb864d82dd1655e7b960001b611bbb565b61221682617382565b6122427fceb1b82ca30baf209fd57c4513c2e002b28f8bb4967681205f4414cb398c03b660001b611bbb565b61226e7f278b08499c61caaeddf1bbf46c15ece077643587449e66a212bfca486e777b8c60001b611bbb565b61227781617382565b6122a37f6113784fcf1c98b8b30571e46bb582f1f0f084f114db29d959abfd5da30a534060001b611bbb565b6122cf7f5c86b9654949b9017d08f896b6014bd2c8795003142195f9659f2ad93b129ac860001b611bbb565b89600460006101000a81548173ffffffffffffffffffffffffffffffffffffffff021916908373ffffffffffffffffffffffffffffffffffffffff16021790555061233c7fd4d3e8722310a0e5e53f7663e0666ecd804d83eff02a09cb9ac9e084da875b8c60001b611bbb565b6123687f8ca50d7f4ee9e312494c5cd5378ddc68a3472caae1bb2dd4aba1c03fde2afd7060001b611bbb565b886000806101000a81548173ffffffffffffffffffffffffffffffffffffffff021916908373ffffffffffffffffffffffffffffffffffffffff1602179055506123d47f85625760383ee0824ce44f72d42cac4b3f350fda2fefb39079252ff928be234a60001b611bbb565b6124007fdf3e106b1b9e1601b889d43553a001de2f49f83c04f239fe3e0530082124300e60001b611bbb565b87600160006101000a81548173ffffffffffffffffffffffffffffffffffffffff021916908373ffffffffffffffffffffffffffffffffffffffff16021790555061246d7fcf71ff51f10e809cb539727b9df61fafbe0c8ae2f41de69bd7956231cd35d82260001b611bbb565b6124997fab00880cfef1e26c9968f8915cbff8f4f0246e678ac9a362d9ece21287b56d0160001b611bbb565b86600560006101000a81548173ffffffffffffffffffffffffffffffffffffffff021916908373ffffffffffffffffffffffffffffffffffffffff1602179055506125067f193c85aa0fe292093809d92c38c476a19a0d043078b9b924da4c89f5423d9e7b60001b611bbb565b6125327fb1b1f7e3d8bdf154f3eb174bc5f8c161eb1a5a81baa1d0bc6b159102bb971add60001b611bbb565b85600660006101000a81548173ffffffffffffffffffffffffffffffffffffffff021916908373ffffffffffffffffffffffffffffffffffffffff16021790555061259f7fe24d5a8db0892f6af6e7b378caaec0a32a609741bca217fe4d0abc473490cf6060001b611bbb565b6125cb7fddd6e6b52bbfcb9ce1be97e8d3654ed5ca8e9091fa06e4bdce1ba78a4d44ac4c60001b611bbb565b84600760006101000a81548173ffffffffffffffffffffffffffffffffffffffff021916908373ffffffffffffffffffffffffffffffffffffffff1602179055506126387f888616b86418a7577d22a6cdec5a198a6f4f03d2e6e2a45f61578f4929cd5fcf60001b611bbb565b6126647fb32a427a2ca1e445fc5fdbdea51e9115173e20b4aa492181f3ffa655da4dc0b260001b611bbb565b83600260006101000a81548173ffffffffffffffffffffffffffffffffffffffff021916908373ffffffffffffffffffffffffffffffffffffffff1602179055506126d17f4c4ce225126ee32128b7627df693ec1f84163f08616e1373165a642c8a4c30e960001b611bbb565b6126fd7ff78a3a58ad0b5df3d96c94e1132b465534ed9e838a8ef259648fc1a9f969d74c60001b611bbb565b82600b60006101000a81548173ffffffffffffffffffffffffffffffffffffffff021916908373ffffffffffffffffffffffffffffffffffffffff16021790555061276a7f76ad70398e419231a072f6cefbaa1630ec2afe7151a6c22f1d4f60bb3b86081460001b611bbb565b6127967f6bf828766026ccd27e9ec5b9c7b9b8d23fd71f5a191688d5ce3ad6dc54482ad260001b611bbb565b81600a60006101000a81548173ffffffffffffffffffffffffffffffffffffffff021916908373ffffffffffffffffffffffffffffffffffffffff1602179055506128037ff5fc90d14bd9332d30742da8e4b48ac949cbedf18ae0c0b36cd1c0e649aea51560001b611bbb565b61282f7f67b272000cb3d1d5d5d718b0f141798b7a8cd2671c870ed311261025f28c337560001b611bbb565b80600960006101000a81548173ffffffffffffffffffffffffffffffffffffffff021916908373ffffffffffffffffffffffffffffffffffffffff16021790555061289c7f7c86ef510233a83133a134d85c1bf486e6366ef45855e6e985a385c2450332bd60001b611bbb565b6128c87f279421ca898b49a552d00124bd4943b3632f2b0c24f4245f40a7a0bc28aefe5560001b611bbb565b80600860006101000a81548173ffffffffffffffffffffffffffffffffffffffff021916908373ffffffffffffffffffffffffffffffffffffffff1602179055506129357f823f253e92acfd446eb4395e5b6eccd3d7e40dac64c66c5f588d234b321a084b60001b611bbb565b6129617f9ba2b63c0cea5aad8c42b7adf32c1d57106692b89f0ead600829477db0a994b560001b611bbb565b7f143219c9e69b09e07e095fcc889b43d8f46ca892bba65f08dc3a0050869a56788a604051808273ffffffffffffffffffffffffffffffffffffffff1673ffffffffffffffffffffffffffffffffffffffff16815260200191505060405180910390a16129f07fe33dd1ea25596016f847e4c5d1016edbe96a7ec614373d12b485ae0d82ab351160001b611bbb565b612a1c7fd7a59f54f627049a08696a53a65935a524618be40b2bcb0a61ade1291e49a94660001b611bbb565b7f78f058b189175430c48dc02699e3a0031ea4ff781536dc2fab847de4babdd88289604051808273ffffffffffffffffffffffffffffffffffffffff1673ffffffffffffffffffffffffffffffffffffffff16815260200191505060405180910390a1612aab7f7e38ce28cbeb994c53d7d39c7c4d82e9771d0eb507327b2a40e657cce7f4573c60001b611bbb565b612ad77f8464a03ff072c4c58cd58b212b93c1c82817c6979801f730e9e7f48829e5475360001b611bbb565b7f5ee0cae2f063ed938bb55046f6a932fb6ae792bf43624806bb90abe68a50be9b88604051808273ffffffffffffffffffffffffffffffffffffffff1673ffffffffffffffffffffffffffffffffffffffff16815260200191505060405180910390a1612b667f99d5fb8aa65ecfdae5241948398ce76d72ee4d961a55587c2d76415f598d2a7460001b611bbb565b612b927f6bd60a40f608578371b2ecb1602a200645eaa7cb2b8ed0a171a50cb61cd1351a60001b611bbb565b7f82966d27eea39b038ee0fa30cd16532bb24f6e65d31cb58fb227aa5766cdcc7f87604051808273ffffffffffffffffffffffffffffffffffffffff1673ffffffffffffffffffffffffffffffffffffffff16815260200191505060405180910390a1612c217f11258c182a2d318c2dae131aceda9ba8d0b231162467293e318664576616799460001b611bbb565b612c4d7f996d4c38787ddbb3123183f3e8ca54a245817b73af5d893b67f324b99222f9c960001b611bbb565b7fcfb07d791fcafc032b35837b50eb84b74df518cf4cc287e8084f47630fa70fa086604051808273ffffffffffffffffffffffffffffffffffffffff1673ffffffffffffffffffffffffffffffffffffffff16815260200191505060405180910390a1612cdc7fa2eb952f9df657abc510d80d7c710b56d17c3f8db2f90a755770976a91639d2a60001b611bbb565b612d087fe2d36c4722c54ba926178a7e05341797ae57256069e724e88b7e2677bc1585b560001b611bbb565b7fe67f36a6e961157d6eff83b91f3af5a62131ceb6f04954ef74f51c1c05e7f88d85604051808273ffffffffffffffffffffffffffffffffffffffff1673ffffffffffffffffffffffffffffffffffffffff16815260200191505060405180910390a1612d977f51354bcf3c3d8d8fd46f4ae164c34dc839980ec1dafdfd9f444c14b9bcb3cbd160001b611bbb565b612dc37f69d419be690bf8102f1fce24ef16fceddd27910f6957806a4abdd5119fc3a2d360001b611bbb565b7f8c537274438aa850a330284665d81a85dd38267d09e4050d416bfc94142db26484604051808273ffffffffffffffffffffffffffffffffffffffff1673ffffffffffffffffffffffffffffffffffffffff16815260200191505060405180910390a1612e527f37df16b01a12fb2ece85efadc86fcd739196e19d21adcce8496a61bfcfe3283a60001b611bbb565b612e7e7f906905d47a0bdd5e36fdddd546a72fc0e0ff6057315344e04f237b9618317d9960001b611bbb565b7f65f4cf077bc01e4742eb5ad98326f6e95b63548ea24b17f8d5e823111fe7880083604051808273ffffffffffffffffffffffffffffffffffffffff1673ffffffffffffffffffffffffffffffffffffffff16815260200191505060405180910390a1612f0d7f2cc7d53bcb820392bd0066b03452b60bfaa0a5c87feb0352a817d79c0c76c46c60001b611bbb565b612f397fcc5373fa7f5117081150f280e948a9b1865a6d768d5b906a00061aa36205e71360001b611bbb565b7f227eec0ec317af6ab1a9587ffa1c84332522eb4c583a908f89babc05f8f339bd82604051808273ffffffffffffffffffffffffffffffffffffffff1673ffffffffffffffffffffffffffffffffffffffff16815260200191505060405180910390a1612fc87f8a888c5d118c5711ec6a8d54fbe11acf02cb39d6027486ec22741f13b2f5965560001b611bbb565b612ff47f69c239c7e2f863dbc80ba514b887c7fdb1d540097f029352ee9a1d6d465e5bcd60001b611bbb565b7f756ebc192164c295bba134b5aacd72cc7aff8098a670d1f0a5f6b3a0b4ce670781604051808273ffffffffffffffffffffffffffffffffffffffff1673ffffffffffffffffffffffffffffffffffffffff16815260200191505060405180910390a16130837f4073554768d7bbaa97fb978b6a1501dcb715db9734941decf72ebde10773d30660001b611bbb565b6130af7f3fc2c9b51cac0598c71de1d03a07789ad4f552b069972510b97d9ae0de96d4bb60001b611bbb565b6130b76176b5565b50505050505050505050565b6130ef7f4d5eb936df09cea05a4ec9dadd441bee86a62ae9965a55e94b98d5a49705558a60001b611bbb565b61311b7faef8fe9d95caf524f4575c79d4567c4a53252d5dd4297f255441041f0f1d9e0c60001b611bbb565b6131477f15801663368f51c9dff3075353b0f7f29298d795e4958b95b381f7ec2835ad6e60001b611bbb565b600760009054906101000a900473ffffffffffffffffffffffffffffffffffffffff1673ffffffffffffffffffffffffffffffffffffffff1663b32beb5b336040518263ffffffff1660e01b8152600401808273ffffffffffffffffffffffffffffffffffffffff1673ffffffffffffffffffffffffffffffffffffffff168152602001915050600060405180830381600087803b1580156131e857600080fd5b505af11580156131fc573d6000803e3d6000fd5b50505050565b670de0b6b3a764000081565b600260009054906101000a900473ffffffffffffffffffffffffffffffffffffffff1681565b600960009054906101000a900473ffffffffffffffffffffffffffffffffffffffff1681565b670f43fc2c04ee000081565b60006132947fffed618358291ba6891e1754cb73cb764c0581799afe3edc4c8d5e33b5d69dec60001b611b6c565b6132c07ff0efb67b0790e4a16906291f0f5b33c4b9e350c5c12e5dc419b35b3e2a7643fd60001b611b6c565b6132ec7fe39126d6b608bc17f868ee02cec3987f5c9f0eb5a2861fa1ee436805d724101360001b611b6c565b60008060009054906101000a900473ffffffffffffffffffffffffffffffffffffffff1673ffffffffffffffffffffffffffffffffffffffff16635eb52fca6040518163ffffffff1660e01b815260040160206040518083038186803b15801561335557600080fd5b505afa158015613369573d6000803e3d6000fd5b505050506040513d602081101561337f57600080fd5b810190808051906020019092919050505090506133be7fd5c5e3697c84f44fc96c4b00a5092a8a17c44788644672edc404df8b4f33e79e60001b611b6c565b6133ea7fccbc594bc92408b9e1a354fa088e5742270d98347611534f0ec71b706cce5dbf60001b611b6c565b6000600160009054906101000a900473ffffffffffffffffffffffffffffffffffffffff1673ffffffffffffffffffffffffffffffffffffffff16635eb52fca6040518163ffffffff1660e01b815260040160206040518083038186803b15801561345457600080fd5b505afa158015613468573d6000803e3d6000fd5b505050506040513d602081101561347e57600080fd5b810190808051906020019092919050505090506134bd7f2fcafe17cc1fa0b07af62f32ccc025484a46246a27b7f7fda3a9022f884c2ca660001b611b6c565b6134e97fbfd7ce3f2a0b31b728bd9f37aef94976a0d07e75cf5275f67bafe240332777d760001b611b6c565b6134fc818361777690919063ffffffff16565b9250505090565b6000809054906101000a900473ffffffffffffffffffffffffffffffffffffffff1681565b6135547f2d75deeadd92374ee77ad8ed263f36ad17488eb5b10173f01ad316024b10261560001b611bbb565b6135807f36732c4eda434f277825e1c5ca86b948d3e2deccef6170a5116f3a8b3170a3ba60001b611bbb565b6135ac7fd5b6b37a8c6bf09f6e484fb12aeb2ec16afa56bece576aeb5b92f6de6573775d60001b611bbb565b6135b461b270565b6040518060600160405280600460009054906101000a900473ffffffffffffffffffffffffffffffffffffffff1673ffffffffffffffffffffffffffffffffffffffff1681526020016000809054906101000a900473ffffffffffffffffffffffffffffffffffffffff1673ffffffffffffffffffffffffffffffffffffffff168152602001600a60009054906101000a900473ffffffffffffffffffffffffffffffffffffffff1673ffffffffffffffffffffffffffffffffffffffff1681525090506136a47fca7b84ee367087b76f71b3cc71a2572b4480dd5bb62ac1c23a21e7599ae9369660001b611bbb565b6136d07f0c2410a88f9fb49383ab1df92b5c25ccf95ced005b893321add7775f0c44918260001b611bbb565b6136d861b2d3565b6137047fa61433f32a9f6bcde85558e7004b57427955b0bcad0b728a07092058acf7364460001b611bbb565b6137307f7b52dd900932aea5a6f38c4aca621ceed07d69f2d525af50bbee2ba316dbb05160001b611bbb565b600260009054906101000a900473ffffffffffffffffffffffffffffffffffffffff1673ffffffffffffffffffffffffffffffffffffffff16630fdb11cf6040518163ffffffff1660e01b8152600401602060405180830381600087803b15801561379a57600080fd5b505af11580156137ae573d6000803e3d6000fd5b505050506040513d60208110156137c457600080fd5b810190808051906020019092919050505081600001818152505061380a7f746e9bb1cadd9c01e06a3c49bc3e505bdb9968f9db1beb82c9f535e6680c494560001b611bbb565b6138367fe89d51f6049e905584d2e4df898d448b15212345133dd3163dc69b11e41cb23460001b611bbb565b600061384582600001516177fe565b90506138737f913fc42c6c4dce307625028e9b5ec43c4adeb37b04669653bf74334cba38464860001b611bbb565b61389f7f065fa5c797521e1bb479d076f06833c3aee6da9e3b43358e336499f124fef1a760001b611bbb565b6138a987826178fc565b6138d57f8020bda5fa9b9a3a2d03140f12257ed76b0f4d37eb9a9a1993f4baccfdc9bd7160001b611bbb565b6139017f10652bb6641fec6bf18a468f746d44d4b0c5633c7f61117ddf74d732f050bc7660001b611bbb565b61390f836000015133617c2c565b61393b7ffa0e89fd405f140d60eece66c929207610cfb4e318c103ce927b5c16ff14785f60001b611bbb565b81602001515061396d7fd61441a1e941f60c026d787a8d2368f142b6e260752c3ed653d6626891436f7060001b611bbb565b6139997f3fffd205363cc6032b103ec24279e069aa123e99cbf51bbcd462d846ac9bf4d360001b611bbb565b858260400181815250506139cf7fbce53b88c23d58c5a4af2b32b0dcb76cd0831b532d66670d200cdd622b9556b060001b611bbb565b6139fb7f037b1f947ee16cbea14ea3ebbc872a7780135225f37d742e06804ad95934323060001b611bbb565b80613b2257613a2c7f45b8232a94bcf2ec87dc77e6e5b628833ab81007eed227077ccf0e253057831d60001b611bbb565b613a587f385b6e922473f7efbf94588e18cd235823b8f3026d8823cf0c05d9a89610556360001b611bbb565b613a847f418679a6291975382dbc2cb54ee5f7eaaeda0f018e084ed79d30b7c2496cddcd60001b611bbb565b613a9883600001518460400151888a617e98565b826020018181525050613acd7f13fcb1edb5d7e2df751847550ab5d798c9e2e9ee54d677d7cec69f79be5ab51b60001b611bbb565b613af97ff1e2580193e66d03845463491f879e34fcbc4000ff4e283736d07f6637157d8360001b611bbb565b613b148260200151836040015161777690919063ffffffff16565b826040018181525050613b4f565b613b4e7fbcb2a77d55906ae2b0527a972c7d9cb37cc5431c104794080e3b671d522ce72360001b611bbb565b5b613b7b7fa63144982dda8bd89ea5e996a0e59c4c193a7392f72b2f8fa0dc3452876ca7a760001b611bbb565b613ba77fd6929e3ec73cc145819b149cb9bab2834c836d01f250f72adfecac54a771b7b160001b611bbb565b613bb4826040015161832b565b613be07fb1a415381a9e88b6537acd277744500016c893c289495977e02e869ab66f72f760001b611bbb565b613c0c7fb8993bf5eb05c7251e3697a9017a7ac025f26d571add70d59209574505e9bf4960001b611bbb565b613c1982604001516172d9565b826060018181525050613c4e7fafa256062e8cfb835ce96f061aa979405fe7c109420290b879cbb7bbc708e3d760001b611bbb565b613c7a7fd1148f7dab633cb9e268d3b047eec0fc3e2491014a705ae990c8a47b5d22a57360001b611bbb565b6000826060015111613c8857fe5b613cb47f3e5fa259c30253a4da27f5e9ec8e8a3684aeacd00ce3297ff8a2cc378776ef3860001b611bbb565b613ce07f4a28c1df1adcaf0a3307773f88e74dea871344cd4357a6b298ade46473fb7e0160001b611bbb565b613cf3348360600151846000015161846c565b826080018181525050613d287fdc3f3c2918e27333a876c0f7d658524e4b86ed9a258c4d8472550942dd4bafa160001b611bbb565b613d547f3391ea7cf90aabe114ede986ce8cc4d07694389feed9fe7bdf8585fe3fcc76cd60001b611bbb565b613d623483606001516186b8565b8260a0018181525050613d977fba6f6ef3b37df209fac945e60683a3425f8db8ef2903a5d2d5243df05845c1c260001b611bbb565b613dc37f561adeeef489fe44fc9c828d37fff3aa7778f17e1b1dcba24e2af3d83344469f60001b611bbb565b8015613e5f57613df57f89216826e8469d45dcb446ddf83efb8367af94ed594c3c79d08a796d540fdb5060001b611bbb565b613e217fad79d62c6b0eff51c7aa2222af0ea8c3ee5b0ade36d39001a540b43fb5bd349660001b611bbb565b613e4d7ff9b8d8ce119904640d2313fc81fb4a14002fbefaa677865c7db2333cf5dd800560001b611bbb565b613e5a82608001516188ae565b613fc6565b613e8b7ff7ad5d01e60b1c7af30eb06390212f3034114cf08bf5eed3767f5a2d3d53e5ce60001b611bbb565b613eb77f396afdbf81e5560b28b31a2eaf353093f48140816773d202d06024e8f0fdc83760001b611bbb565b613ee37f0a0fd14e9017893c4f021eaba751183467ba7f597e1cea4a262af1c46dfdeeb560001b611bbb565b613ef082608001516189ee565b613f1c7f1f3244813cd86b585ca843cd0c8f1b0d8c70ddf85c7217cf548168c89286bdec60001b611bbb565b613f487f597752b2b028c30eb49a878c226ff670ea0d0e066477f9e2ea6aa840e7a0e70e60001b611bbb565b6000613f61346001856060015160018760000151616cd3565b9050613f8f7fd55b40f0d170a26361f7e5cafa2adaff684c5f86e0249b471eeebdac845b0f3660001b611bbb565b613fbb7fd41811b775818bb57202a31aeb173ef1077278715e645441dab968f4ad5f045560001b611bbb565b613fc481616fad565b505b613ff27f78151bef549db70fb4c0b07f789f22cdf0feea36d2f0dace3fa942926323aaf960001b611bbb565b61401e7f46844d29d40098b1c8002612b7d012ec9da0a392be9d10b113a413d85499a69960001b611bbb565b826000015173ffffffffffffffffffffffffffffffffffffffff16635d6b480f3360016040518363ffffffff1660e01b8152600401808373ffffffffffffffffffffffffffffffffffffffff1673ffffffffffffffffffffffffffffffffffffffff16815260200182815260200192505050600060405180830381600087803b1580156140aa57600080fd5b505af11580156140be573d6000803e3d6000fd5b505050506140ee7f2c4b86c459a27427cb55db2546a5e72653a203ab57b26f2314c535a10db0cd1a60001b611bbb565b61411a7f1ef6b1fbd081f103d5ff1ce356a43ec647502708eb3944298eaa2e33af7d369a60001b611bbb565b826000015173ffffffffffffffffffffffffffffffffffffffff166372423c1733346040518363ffffffff1660e01b8152600401808373ffffffffffffffffffffffffffffffffffffffff1673ffffffffffffffffffffffffffffffffffffffff16815260200182815260200192505050602060405180830381600087803b1580156141a557600080fd5b505af11580156141b9573d6000803e3d6000fd5b505050506040513d60208110156141cf57600080fd5b81019080805190602001909291905050505061420d7fb675321ec47f9e561bcd74b4f9045c70ed60905fdcfd98bda2e8a8a7f0884cf060001b611bbb565b6142397f631bf573a2f0cfc997e8efb5c21f63b32887e5902eefbe9bcbfcf416bf539ba460001b611bbb565b826000015173ffffffffffffffffffffffffffffffffffffffff16639976cf453384606001516040518363ffffffff1660e01b8152600401808373ffffffffffffffffffffffffffffffffffffffff1673ffffffffffffffffffffffffffffffffffffffff16815260200182815260200192505050602060405180830381600087803b1580156142c857600080fd5b505af11580156142dc573d6000803e3d6000fd5b505050506040513d60208110156142f257600080fd5b8101908080519060200190929190505050506143307f5664bd5a88efe3ab03054df7d43f36fa03bb211e09b12f52a4a00ea374086e7d60001b611bbb565b61435c7fca195093b54e7e5f6b4a08052c73f23394cc9bbbf3630e43a20a3e487077c62f60001b611bbb565b826000015173ffffffffffffffffffffffffffffffffffffffff166382fe3eb9336040518263ffffffff1660e01b8152600401808273ffffffffffffffffffffffffffffffffffffffff1673ffffffffffffffffffffffffffffffffffffffff168152602001915050600060405180830381600087803b1580156143df57600080fd5b505af11580156143f3573d6000803e3d6000fd5b505050506144237f7e3736b13625b87488b372e77f93803cad5978005f62f2950135fa07b9c7cbac60001b611bbb565b61444f7fcbaf62b5dacdcafda3fe520b9ae16046cdb1e99a0c03a2a87c36d7a03f995bb860001b611bbb565b826000015173ffffffffffffffffffffffffffffffffffffffff166318f2817a336040518263ffffffff1660e01b8152600401808273ffffffffffffffffffffffffffffffffffffffff1673ffffffffffffffffffffffffffffffffffffffff168152602001915050602060405180830381600087803b1580156144d257600080fd5b505af11580156144e6573d6000803e3d6000fd5b505050506040513d60208110156144fc57600080fd5b81019080805190602001909291905050508260c00181815250506145427f4653b11cf651d48dc16e9def24c9e43fced7a9d921becab2be625c6f31cc630060001b611bbb565b61456e7fd92dbf924be54ac694ff0f576e3b55714952cd0877f76a1d7a027b410d3aff5f60001b611bbb565b600b60009054906101000a900473ffffffffffffffffffffffffffffffffffffffff1673ffffffffffffffffffffffffffffffffffffffff166346f7cf87338460a0015188886040518563ffffffff1660e01b8152600401808573ffffffffffffffffffffffffffffffffffffffff1673ffffffffffffffffffffffffffffffffffffffff1681526020018481526020018373ffffffffffffffffffffffffffffffffffffffff1673ffffffffffffffffffffffffffffffffffffffff1681526020018273ffffffffffffffffffffffffffffffffffffffff1673ffffffffffffffffffffffffffffffffffffffff168152602001945050505050600060405180830381600087803b15801561468357600080fd5b505af1158015614697573d6000803e3d6000fd5b505050506146c77f70087de1a2cf71a83e063a055979700b1d296453ce7e8694010399d675a4171f60001b611bbb565b6146f37f6c794b12ee51424f63f1a7f51637f70a057c6763e2456504e480add1c7b1253b60001b611bbb565b826000015173ffffffffffffffffffffffffffffffffffffffff166315d549f1336040518263ffffffff1660e01b8152600401808273ffffffffffffffffffffffffffffffffffffffff1673ffffffffffffffffffffffffffffffffffffffff168152602001915050602060405180830381600087803b15801561477657600080fd5b505af115801561478a573d6000803e3d6000fd5b505050506040513d60208110156147a057600080fd5b81019080805190602001909291905050508260e00181815250506147e67f5c399c0f7af215ed8af360b34256b98b8eaa5b7772eca29a5249b7646741021f60001b611bbb565b6148127fb7c1b261f4873e0049a7c4053520fcb5ca1b6af618e3a5af462438cfe28bc2f860001b611bbb565b3373ffffffffffffffffffffffffffffffffffffffff167f59cfd0cd754bc5748b6770e94a4ffa5f678d885cb899dcfadc5734edb97c67ab8360e001516040518082815260200191505060405180910390a26148907f9aef51aa8b561a23fd2154a9bf61bc5f7bfd149840c70b1e42da47e4fea942ac60001b611bbb565b6148bc7f0c9d911e6e70040be18939ad7736435cb3d28b4bb4ce221492e9c4dd6b04a68260001b611bbb565b6148ca836020015134618b2e565b6148f67fc754c5b85ee326405a27cf0752b0586706b42b481359c14b437c0f852abf109060001b611bbb565b6149227f9c58d4223648857ddba908f28addc5b72b1b11d61b7d52e1207e099fc4356ab660001b611bbb565b61493b8360200151846040015133898660400151618d26565b6149677f662e8a2779cb30ca44851cb09b69e665428a6ad245b0b5b1fa8c6d9efd7049a360001b611bbb565b6149937fba62797ef504e81f5bee490a8786dd92b787bdd195c58d7aaa2f88aa2914b62560001b611bbb565b6149d383602001518460400151600660009054906101000a900473ffffffffffffffffffffffffffffffffffffffff16680ad78ebc5ac620000080618d26565b6149ff7ffb08d69f2e8f8877383ab428bb93297bd7850f2fc6f84cc6f90c2fb48bd20b5960001b611bbb565b614a2b7f52d2043045d7aa900b80b974f567f1008b7880966ce80f2ec3ae8770069959fb60001b611bbb565b3373ffffffffffffffffffffffffffffffffffffffff167fc3770d654ed33aeea6bf11ac8ef05d02a6a04ed4686dd2f624d853bbec43cc8b8360600151348560c00151600060405180858152602001848152602001838152602001826002811115614a9257fe5b60ff16815260200194505050505060405180910390a2614ad47f04652b75148207efd99e328842ba2ccd64e05a9faa21bc6cc13e6b514fe6806560001b611bbb565b614b007f1052278c993752541f7d89fead05f449f88463ef7b9a5cd74f6a8ac899891cde60001b611bbb565b3373ffffffffffffffffffffffffffffffffffffffff167fa55c5f48fd29482ad55f4b59bf070cd1ac1a7132a31f7a136ebe8877ae37e1ff83602001516040518082815260200191505060405180910390a250505050505050565b6000614b897fb66d50006e73330003d2aebca2677ba754a744532fcb120e1bf38e30d4354e9660001b611b6c565b614bb57f7a243f0c01ac2eddb6f889adb5b25d20b6c77d0a71089b4e4a05e6f5dd04449c60001b611b6c565b614be17fd9be4bb93a2c9d4022ac92258e5938de98f2fa4913238b33509b201c9962a88160001b611b6c565b60008060009054906101000a900473ffffffffffffffffffffffffffffffffffffffff1673ffffffffffffffffffffffffffffffffffffffff166314f6c3be6040518163ffffffff1660e01b815260040160206040518083038186803b158015614c4a57600080fd5b505afa158015614c5e573d6000803e3d6000fd5b505050506040513d6020811015614c7457600080fd5b81019080805190602001909291905050509050614cb37f26cd0bc42cbc160aba08644d1ec6607da3df5acdbbe9f5cb1f876046b51125a860001b611b6c565b614cdf7f07394f73b57effa5c0d06a28a34d8caf7f9c8e6f1ecd533143cd3adbc06c207560001b611b6c565b6000600160009054906101000a900473ffffffffffffffffffffffffffffffffffffffff1673ffffffffffffffffffffffffffffffffffffffff166314f6c3be6040518163ffffffff1660e01b815260040160206040518083038186803b158015614d4957600080fd5b505afa158015614d5d573d6000803e3d6000fd5b505050506040513d6020811015614d7357600080fd5b81019080805190602001909291905050509050614db27f46fe5e72681624df8f86211f619d0ca55960a48139a032d491c65f9e9ead8e4560001b611b6c565b614dde7ff21ef2b4f180cbc00adb9efe704164ccc70207bf69042044214909b91d55604960001b611b6c565b614df1818361777690919063ffffffff16565b9250505090565b6000600360009054906101000a900473ffffffffffffffffffffffffffffffffffffffff16905090565b6000600360009054906101000a900473ffffffffffffffffffffffffffffffffffffffff1673ffffffffffffffffffffffffffffffffffffffff163373ffffffffffffffffffffffffffffffffffffffff1614905090565b50565b670de0b6b3a764000081565b600860009054906101000a900473ffffffffffffffffffffffffffffffffffffffff1681565b6040518060400160405280601281526020017f426f72726f7765724f7065726174696f6e73000000000000000000000000000081525081565b600b60009054906101000a900473ffffffffffffffffffffffffffffffffffffffff1681565b600a60009054906101000a900473ffffffffffffffffffffffffffffffffffffffff1681565b614f607f257eace0d09a04585dd6cc9139669992ff7c0f871c42950067b3eef2eab8bc0860001b611bbb565b614f8c7fbc5d31a435c392f65e8083891b904723e25f6687bcfc4fe08c235563b454923960001b611bbb565b614fb87fabd7ebc8ccb64491d29bd15c4ba7892066e2f4009e669ead30ca81f4685855d360001b611bbb565b614fc73386868686868c6150e4565b505050505050565b614ffb7f44296d8b9a83dfc909bdbfb6c3935013da55406541ae7eb44d6fe8e33b797cf760001b611bbb565b6150277f55abed1dd858dc9ca34e005e6593044030a9032106d3b282b1122c6bf440b35360001b611bbb565b6150537fd709088bf9f46636ba9886fd01eeabaa95f0ae71a60d3d3f4b748592bf90ab4660001b611bbb565b61505b618f13565b6150877ffd243aef34970fe3bba8812118ca852239b30212672f6619a2afa9ee1674c8a660001b611bbb565b6150b37f1abd9ac0b2d48ec0889560149c8fd161c3c47340048ba625f4be369d52592e1760001b611bbb565b6150c5836000806000868660006150e4565b505050565b60056103e8670de0b6b3a7640000816150df57fe5b040281565b6151107f4b478a52ad24aff1f0d4391280cf77e59d6911fb8062f4eed41a05c6d70966ee60001b611bbb565b61513c7f146be1e820de6b9ef0e3ee74ac8d3e92a8a6beae94361f1ebd73b114ecc4ff7460001b611bbb565b6151687fbaa72a350b3713819c26005ab4a2c74b59be2d3bac8d1a78cfd3ca4d4ac3242f60001b611bbb565b61517061b270565b6040518060600160405280600460009054906101000a900473ffffffffffffffffffffffffffffffffffffffff1673ffffffffffffffffffffffffffffffffffffffff1681526020016000809054906101000a900473ffffffffffffffffffffffffffffffffffffffff1673ffffffffffffffffffffffffffffffffffffffff168152602001600a60009054906101000a900473ffffffffffffffffffffffffffffffffffffffff1673ffffffffffffffffffffffffffffffffffffffff1681525090506152607fe9e9a59b46514445f058e130db049b1a8535a19a3177460c12b3b0d420c4abff60001b611bbb565b61528c7feba37a07174f63d5e87b191ff97cafbcd01d1fc5abfc68801ac2055d4490bcb360001b611bbb565b61529461b318565b6152c07f9a7cd7dde7719430c706781a05c39d9b6738d0066c88a8ef23b6a61b83c8958c60001b611bbb565b6152ec7fe78e0278ad91e1d0422fbf581caf63060b6a51449166f40bab7dc34b2efe6b6160001b611bbb565b600260009054906101000a900473ffffffffffffffffffffffffffffffffffffffff1673ffffffffffffffffffffffffffffffffffffffff16630fdb11cf6040518163ffffffff1660e01b8152600401602060405180830381600087803b15801561535657600080fd5b505af115801561536a573d6000803e3d6000fd5b505050506040513d602081101561538057600080fd5b81019080805190602001909291905050508160000181815250506153c67fe9df3569d86b8f6620931f8cbd4ae9645bc5bec14c19813b8c048edbff1dbb5b60001b611bbb565b6153f27fcc09c02132b5584edd41e467c4586899201b432a5c71d4b33c3df411442f7cf460001b611bbb565b600061540182600001516177fe565b905061542f7fa0498df6a859d3691807cdb6e68eb91f14b355b5452d834bf90dd1c4766dc01860001b611bbb565b61545b7fb848dd9d916fe82ada0ddd46d2c4ae62e6a5aea8f26a881c4133b1add7c109cb60001b611bbb565b86156155555761548d7f677b46dd5af5238c1886d8bd497239daf4a175e33ba575b712f0d05d466fe43d60001b611bbb565b6154b97f0cd9604bbfc0494625c8e83f51816255b0da369f474b5215d8d62f600621011f60001b611bbb565b6154e57fb7740b3bba6d905483e80f6454d9b3bb29fc78846cc45a3ba16604e496af0e2e60001b611bbb565b6154ef84826178fc565b61551b7f301d6486aef40c7d6a30bf67a2f4a2c0db604d33499ea1daede3461e06ce364260001b611bbb565b6155477f8f1a5a0f799de9e06c3a0d0b509e22b13373710dd456abc05ff8b9ae68941c7e60001b611bbb565b61555088619097565b615582565b6155817f16d02dc43bee1419836d61a6e7c9ac9c3d3057735624e3a076b9ab13e3d43a7760001b611bbb565b5b6155ae7fbf9a769c6e8df4dfaaf8c57d2dc830fcd3d17590febec4de8de0553c62577eda60001b611bbb565b6155da7f17799a9fdb1b32ac00ae9bf875f08073b826aeabc6c6036ccac854b54a6e36bf60001b611bbb565b6155e3896191ce565b61560f7f6456ed68407e1bf311a6d5142b713f72c145d7ced59efb018da3a10cb25a85b360001b611bbb565b61563b7f4edc70d347cb66c5ce4c3f1fcae731aabbdb167fc752632f5720767027df228a60001b611bbb565b6156458989619311565b6156717f3fee85609c3f97f2f9fc9c1eacaeeb2f4e8019bb461f4c9405721b123d8910f760001b611bbb565b61569d7f6cfe15ed872cb884375b3ffed23d1ea9bc844d2d9c855f190510ff89e4b4b02860001b611bbb565b6156ab83600001518b61670c565b6156d77f9388f6c9961e93f8b1d1e5474af11d39c1a39e08840ce8467e0a3470b5b75ffc60001b611bbb565b6157037fe7c67ddd9cd7f704f84a638ff422d2dcfcf4017d300f23078b5b79de2808633560001b611bbb565b8973ffffffffffffffffffffffffffffffffffffffff163373ffffffffffffffffffffffffffffffffffffffff1614806157a25750600560009054906101000a900473ffffffffffffffffffffffffffffffffffffffff1673ffffffffffffffffffffffffffffffffffffffff163373ffffffffffffffffffffffffffffffffffffffff161480156157955750600034115b80156157a15750600088145b5b6157a857fe5b6157d47f68186ff266fb17e873bf1e6bdc6296637786dd7d1577b3e5cfe03a1d00b0ea8e60001b611bbb565b6158007fb9baf710b9c3a20a1a3baa49a1468406cfb7585f7b934c33d8ce13011359ef8b60001b611bbb565b826000015173ffffffffffffffffffffffffffffffffffffffff16630b0765578b6040518263ffffffff1660e01b8152600401808273ffffffffffffffffffffffffffffffffffffffff1673ffffffffffffffffffffffffffffffffffffffff168152602001915050600060405180830381600087803b15801561588357600080fd5b505af1158015615897573d6000803e3d6000fd5b505050506158c77ffe83530c5f8f80efb0532f92aad1e8bf753381e54e522944370470624d1c672360001b611bbb565b6158f37fc0644a0c6edf22bb3f9648dd539e27d5d22252a7c685a7b004b6d834a0959c6560001b611bbb565b6158fd348a619463565b8360200184606001821515151581525082815250505061593f7f7956c999f16ef141d118986566321d5d61753b92d3b7e4d131afe7900cb12e1760001b611bbb565b61596b7f1ed69597dead440fe9dd1bf49e2b6b15c8f403e437335445556cc3da4b31000160001b611bbb565b878260400181815250506159a17feac4cf517360a3e6724809bbabd8e9fb79efa7202622070f8803b8b828b7f89a60001b611bbb565b6159cd7f4f536b382cb9cf35f43b428842874929062e4af9ad9a8fdacc63ea5ef3c59d5460001b611bbb565b8680156159d8575080155b15615b0157615a097f0c91a858667f4e63efb44c97d5c6d9b7461a5297705e05f6135a1f4289eae07d60001b611bbb565b615a357fc6bb339498d313caeaa496243eb246649a5d55066e8b5cb6c5bdd3a1d5b96de960001b611bbb565b615a617fcbab219eadf088aba6758432595e5669c4094331fff846d5029d12b64d28bbf260001b611bbb565b615a75836000015184604001518a87617e98565b82610120018181525050615aab7fc64078ecd8fddfbe9130f9b677af14f7c7aa02a00c2048f8921526c2e297253760001b611bbb565b615ad77fe80d041b9e67819ab7788b300ee3abacb93857d4378d3aef9372b059b4ec572160001b611bbb565b615af3826101200151836040015161777690919063ffffffff16565b826040018181525050615b2e565b615b2d7f0bcde152fa61daef8b350431684610c62197cac15c2342a42ae5ce064c8227ac60001b611bbb565b5b615b5a7f5c4c7d3b171f0b073ec3d81b34d6cc38a66e662b9ad5d4bbd719363ae45812e560001b611bbb565b615b867f5936ee539406c5c619695bc6e4c93520fcc4ea8fb4ae8c459f56313f281e05a760001b611bbb565b826000015173ffffffffffffffffffffffffffffffffffffffff1663d66a25538b6040518263ffffffff1660e01b8152600401808273ffffffffffffffffffffffffffffffffffffffff1673ffffffffffffffffffffffffffffffffffffffff16815260200191505060206040518083038186803b158015615c0757600080fd5b505afa158015615c1b573d6000803e3d6000fd5b505050506040513d6020811015615c3157600080fd5b8101908080519060200190929190505050826080018181525050615c777f7de81505bdd7156a5c53369d7919f1827ac45d6e921b0b9e042d48aeaaf1db9e60001b611bbb565b615ca37fffd1fe5112cbf07bdf4b11b3afa53b1b380a4af25c6f8878c9557673c62929f060001b611bbb565b826000015173ffffffffffffffffffffffffffffffffffffffff1663480cd5788b6040518263ffffffff1660e01b8152600401808273ffffffffffffffffffffffffffffffffffffffff1673ffffffffffffffffffffffffffffffffffffffff16815260200191505060206040518083038186803b158015615d2457600080fd5b505afa158015615d38573d6000803e3d6000fd5b505050506040513d6020811015615d4e57600080fd5b81019080805190602001909291905050508260a0018181525050615d947f1d40f611b7dfd29c6199700d06acb67c34f8b19830d418caa479593e9ae3b65360001b611bbb565b615dc07f435bf12532ad192555ee06726bd11c6dfa52019f831527d951969890c89bbb4460001b611bbb565b615dd78260a001518360800151846000015161846c565b8260c0018181525050615e0c7f59fd3f2a6b9a03a52ea87b6a8ffe57a9586c4a0af0ae75c5c462b5b0d98d8e4960001b611bbb565b615e387f4553a8ecdcd551833020cc3875a11544df01205e3aff20ae23b16e8a7d31f0af60001b611bbb565b615e5f8260a0015183608001518460200151856060015186604001518c8860000151619669565b8260e0018181525050615e947f5d5f3fdc62e0fe99ea2e3cf646c9e98c6c986484fe77e279a454e6030924b14d60001b611bbb565b615ec07f49d0ac670678ca55a3b236da86e71b832e010a31c2a333fab56e209cbd547b4360001b611bbb565b8160a00151891115615ece57fe5b615efa7fc9778ff450c5c9d892cff72350656c711b516a85477f79b3e33529b50419156f60001b611bbb565b615f267fa92fcd9d289d43038e1b5312175eafc297a85e17f551a4f22eb6756a3ff08ee360001b611bbb565b615f32818a89856197d4565b615f5e7ffa9d62e0cc307201ab7fab191c9a8949727065c809814a489e7ace5644f26c0460001b611bbb565b615f8a7f872a80fd07d2596b7724ad04e0049155bbb6e1f5917f1fc6a6c50dbfa6c410d660001b611bbb565b86158015615f985750600088115b1561612657615fc97fd933a6d50de18a961166fcdd6438c16eb472d63842340009905efca4f716c20a60001b611bbb565b615ff57f97f0042a43669fa4ed0e1263455ab85ebbbbc1e456132e905feb685ccc0f115a60001b611bbb565b6160217f0a2c7013174c3776383d9474b16f7b9259554a2ad05452674613b9093a4be23660001b611bbb565b61604c61604783604001516160398560800151619bf8565b616a9890919063ffffffff16565b61832b565b6160787fee3667fd2ea208e654bf4fba40d63d43e279880bab788cb3025d206efaca140560001b611bbb565b6160a47fafc99b7f0fb84776d462360c651a4bc6b2f7268d06fdf07c21f4a6794b93465760001b611bbb565b6160b682608001518360400151619ca1565b6160e27f10452a5db89941822c26d1d12d40eff200b359b57317ea857643b56420e3670160001b611bbb565b61610e7faba396469c4a0c6654ee79ce2a11ec88d4198a90e9bdbba005f8f295c4a15f7a60001b611bbb565b61612183604001518b8460400151616ae2565b616153565b6161527f1cfbae8b4ae96356a7f90a6f6a65affb03906f885e155397cdca3f88b2aeee8860001b611bbb565b5b61617f7f140bacc4d686ae9482dae871513a2fd678bebe8dea5068f57802d413afab17d660001b611bbb565b6161ab7f69306ff5d8dc5f7df5007e8b44796cabd189dac5ff703627edc814878b49c42660001b611bbb565b6161c983600001518b8460200151856060015186604001518c619df5565b83610160018461014001828152508281525050506162097fd1ad3a70f3e4fbf5ac103275aa9878479520592262fc79e5b41958483d5a4aa460001b611bbb565b6162357fb3dfd450f3eff8de8c8bdf830852820e9b4db768cb3fff113a973bda6f1e4ab060001b611bbb565b826000015173ffffffffffffffffffffffffffffffffffffffff166318f2817a8b6040518263ffffffff1660e01b8152600401808273ffffffffffffffffffffffffffffffffffffffff1673ffffffffffffffffffffffffffffffffffffffff168152602001915050602060405180830381600087803b1580156162b857600080fd5b505af11580156162cc573d6000803e3d6000fd5b505050506040513d60208110156162e257600080fd5b8101908080519060200190929190505050826101800181815250506163297f55c4b63ff81d129a2fd73a23101436f79e3021a0d6538dec873f0fde4297a46160001b611bbb565b6163557f9f5555c1b7a1dcb52ec95ea4b907942b6e0e154e36ae276e786d8090ad10d11f60001b611bbb565b60006163798360a0015184608001518560200151866060015187604001518d61a265565b90506163a77f818c5dfae8ad39d51fe0d3ae33b14db1db57e4e5d3e7862451cf32e34be496d360001b611bbb565b6163d37f4c8ae12d408538e8db45da9ca427d034f19393c21bdf427057d4187559aa791160001b611bbb565b600b60009054906101000a900473ffffffffffffffffffffffffffffffffffffffff1673ffffffffffffffffffffffffffffffffffffffff16632be212608c838a8a6040518563ffffffff1660e01b8152600401808573ffffffffffffffffffffffffffffffffffffffff1673ffffffffffffffffffffffffffffffffffffffff1681526020018481526020018373ffffffffffffffffffffffffffffffffffffffff1673ffffffffffffffffffffffffffffffffffffffff1681526020018273ffffffffffffffffffffffffffffffffffffffff1673ffffffffffffffffffffffffffffffffffffffff168152602001945050505050600060405180830381600087803b1580156164e457600080fd5b505af11580156164f8573d6000803e3d6000fd5b505050506165287f71dda53a570ac41a32d84f5d31e662c4b5243d3fb0fa3394ce2da64dceab148160001b611bbb565b6165547f45914852167a6a6a836a018e45f3d71a3d6d0c285822263c0cf5694411f1994760001b611bbb565b8a73ffffffffffffffffffffffffffffffffffffffff167fc3770d654ed33aeea6bf11ac8ef05d02a6a04ed4686dd2f624d853bbec43cc8b8461014001518561016001518661018001516002604051808581526020018481526020018381526020018260028111156165c257fe5b60ff16815260200194505050505060405180910390a26166047f8f8c74d44b0f416812004d5a06fc2f6f2d1a4773e7ede59b9ad911e5e8ab05a060001b611bbb565b6166307f696132fd0d9e6491fed18f1b2d3c85d726d2796f6f6d08a4f1ba887a41c6ddf960001b611bbb565b3373ffffffffffffffffffffffffffffffffffffffff167fa55c5f48fd29482ad55f4b59bf070cd1ac1a7132a31f7a136ebe8877ae37e1ff8461012001516040518082815260200191505060405180910390a26166af7f6de31cd51afc32057c630aafe5baededc455bf236d9da4094fd7628d6e8e962560001b611bbb565b6166db7fb648d8781a2421208f937870d00f3690f8cee121ee74f66290110cb98f0a49a160001b611bbb565b6166ff8460200151856040015133866020015187606001518e8e8a6040015161a3ce565b5050505050505050505050565b6167387fa031afaf9492c76aecf388c61b4168397172279f840e66e488abc23a0115009860001b611bbb565b6167647f0d1b580483264c749b8380a8273272cf2be2551b75fa21df849ac44137edb96260001b611bbb565b6167907f4c206f0f39743f28eef40973de802c8c76a27e4bdb9114d13007ab9d39bf1f9e60001b611bbb565b60008273ffffffffffffffffffffffffffffffffffffffff166321e37801836040518263ffffffff1660e01b8152600401808273ffffffffffffffffffffffffffffffffffffffff1673ffffffffffffffffffffffffffffffffffffffff16815260200191505060206040518083038186803b15801561680f57600080fd5b505afa158015616823573d6000803e3d6000fd5b505050506040513d602081101561683957600080fd5b810190808051906020019092919050505090506168787f9047fa3aaf7c5857295428f7c4b99e1beb6cf7649f805ff718e21a5d4835e37260001b611bbb565b6168a47ffa378abbfc646480ac129d4f72e35cafab6db65252bfe91acac918cbb0ee659460001b611bbb565b6168d07fed7b097637dd51a1f68778ef9ce4ded7b202df93d7f1d782ac2620a176da1e5460001b611bbb565b60018114616929576040517f08c379a000000000000000000000000000000000000000000000000000000000815260040180806020018281038252602e81526020018061b532602e913960400191505060405180910390fd5b6169557f2151d30b0d997303a82779db2c22214ddec68dd4135d2d12524d43d7aa29b44760001b611bbb565b505050565b6169867f10555c54657280b9171dee531de9adae8137a4b13ce79f30f31103a2d1d7ed4060001b611bbb565b6169b27f06adb358e488a2bda2faab71b26f363e756d7b56d43377cf4242d50ed129530f60001b611bbb565b6169de7f66ec9a25780cee4837398b3d447fede975ae51bfc548cafcb3459f4b5f87e3e860001b611bbb565b616a0a7fc28b4b8ae5128fa1bd2a636e964a0b40315dc87b04075fc18a0302c4b496276b60001b611bbb565b616a13816177fe565b15616a69576040517f08c379a000000000000000000000000000000000000000000000000000000000815260040180806020018281038252603981526020018061b3e06039913960400191505060405180910390fd5b616a957f7233affe11df76e7cdcbf69db9d1614a91cfb6bd917a06ada5e5046c693d194360001b611bbb565b50565b6000616ada83836040518060400160405280601e81526020017f536166654d6174683a207375627472616374696f6e206f766572666c6f77000081525061a79e565b905092915050565b616b0e7fe35a56e91bbef86d5d47187638e0092565bbd19435dd6b33433ed7daa10f9dd360001b611bbb565b616b3a7f826650c8a8d04f9edc0e148abda743816dd895706791d2bc76bec50156a2a4ec60001b611bbb565b616b667f64050c77c1a41fc3a29a4474811b24d2fef49e05dc776e7f96d8144f31cec28160001b611bbb565b616b927f37d08d46ce2ea1ea109dabc3d0eeda1e54344638cbc6c0086a4f203f5b02480c60001b611bbb565b808373ffffffffffffffffffffffffffffffffffffffff166370a08231846040518263ffffffff1660e01b8152600401808273ffffffffffffffffffffffffffffffffffffffff1673ffffffffffffffffffffffffffffffffffffffff16815260200191505060206040518083038186803b158015616c1057600080fd5b505afa158015616c24573d6000803e3d6000fd5b505050506040513d6020811015616c3a57600080fd5b81019080805190602001909291905050501015616ca2576040517f08c379a000000000000000000000000000000000000000000000000000000000815260040180806020018281038252603d81526020018061b59e603d913960400191505060405180910390fd5b616cce7fd3254060b9be6b75a274dd6eafbea714b99623d0e6a0088dd273a7eeea21f45d60001b611bbb565b505050565b6000616d017fc82b3049d3aea1a165014b0d26bbf75ec378e6d4de1eb27a56a3b1e877113d8f60001b611bbb565b616d2d7f8efcd2cdc4c8cf20c8d3c1d53edb429ff555d29e51b513f087d5f54fe5a2eb3160001b611bbb565b616d597fea98ce62acb4621b31e90b2fe73e52cacc6d57dbaa9e53d13f34dbca4a48ff8560001b611bbb565b6000616d63614b5b565b9050616d917f68e3625cdface88f17ba50286cf7b61394c9342f39d6f3f6b0874fb320f1a12660001b611bbb565b616dbd7ffcffaca2a937f99a125e6c7e8dfe9854d81914c88bcd20b9452e06123d5af41560001b611bbb565b6000616dc7613266565b9050616df57f5b2c37fc0cb5a60166cf776dbab5c043e60ce0788d7ca9c1ee48c4048f208d8460001b611bbb565b616e217fa845710b1ea3a236e4593f8d7e85c435f8852d92c4b067f46619b16ba69e4aa560001b611bbb565b86616e3e57616e398883616a9890919063ffffffff16565b616e52565b616e51888361777690919063ffffffff16565b5b9150616e807fd7f0ae61d34ac2209b981dfe409df3c77891cfb3086301415cd983117a93ccd660001b611bbb565b616eac7f207009ca8ec98364ccac789c0ac27a0692894a0796df62dafe203d3600ce3c2860001b611bbb565b84616ec957616ec48682616a9890919063ffffffff16565b616edd565b616edc868261777690919063ffffffff16565b5b9050616f0b7fa6a7d5750f37e4b773e5824de160204cdfed9e08af10845e749c5853c0a38d8260001b611bbb565b616f377f75b652d4841186c94c17c6418084d941b139d16d45ba684b6784f5011c09664460001b611bbb565b6000616f4483838761846c565b9050616f727fedc8e3549dfbcc0d682ef59cb8134d63f397f2501fa9cc73fdc87afa349f5fee60001b611bbb565b616f9e7f84230078941ce6de55c086ddb0879bfb188ec4b78bec6d5951d4a9e710c8b6e260001b611bbb565b80935050505095945050505050565b616fd97f95199642062d202b5119eb8d15dd7f59d64d75d793f89ad66d37ef47d10915ce60001b611bbb565b6170057f9db1bfa653f4eb776af412ba0ddf622b94e2106b29d08a5ef948861459c9294e60001b611bbb565b6170317f29293be17283bd139e45a1874d90038049236168e4c0b83cc7e6646ed0afb90360001b611bbb565b61705d7f5d9afe91b45f5280615a6a80ac70ee55b156ddbaf48818c8f57e88719a74e64c60001b611bbb565b6714d1120d7b1600008110156170be576040517f08c379a000000000000000000000000000000000000000000000000000000000815260040180806020018281038252604981526020018061b4e96049913960600191505060405180910390fd5b6170ea7f8e2081e07db272abf70f930754e80ced8a1567884d4f21793ae3ef1a739fe7a760001b611bbb565b50565b6171197fa0812b4f1a68b4a9af4d5e99af89416a245aa7112e91fdfa4b3961e9c396c56960001b611bbb565b6171457fa9604a693e595ad84561983e1076fd458093e46427ce2ce7f0a86df3811b63f460001b611bbb565b6171717f36c8fb1367690beaa08071a0b32bc7fe0251eea40b58d51ce0952745708027e660001b611bbb565b8373ffffffffffffffffffffffffffffffffffffffff166338d995a8826040518263ffffffff1660e01b815260040180828152602001915050600060405180830381600087803b1580156171c457600080fd5b505af11580156171d8573d6000803e3d6000fd5b505050506172087fe2883a57001735dc27a81a65244c72073b783ac2f08730cdfd5f6c20cd57003960001b611bbb565b6172347fc62e16542e37007b2d31dcd5b2db1b91f6ef2b7d4f884a4d21ba91946639f8db60001b611bbb565b8273ffffffffffffffffffffffffffffffffffffffff16639dc29fac83836040518363ffffffff1660e01b8152600401808373ffffffffffffffffffffffffffffffffffffffff1673ffffffffffffffffffffffffffffffffffffffff16815260200182815260200192505050600060405180830381600087803b1580156172bb57600080fd5b505af11580156172cf573d6000803e3d6000fd5b5050505050505050565b60006173077f0480216eb9109bd61472e74a565bd6384ca7f2846f74b4851542b9ba4bc0319d60001b611b6c565b6173337ff151d55d4ef750a2c007165862a29b3e311a4ea0cb052d7c4fe57249906891f660001b611b6c565b61735f7ff7b41b1a3b71c39683c5a5178140cf306f59a90ff780a78d62b16cb4bc68affb60001b611b6c565b61737b680ad78ebc5ac62000008361777690919063ffffffff16565b9050919050565b6173ae7f35bc9e5e61c1438a006153cf69ffd6105766a3055440d22f6c8ce219146d68af60001b614e7a565b6173da7fe66c045f45b868efda896f2af22ed71637a4e9e8d13a2b1962badf362ba3eeb960001b614e7a565b6174067faaa4b517f253b4fa37cb2875514a22e04e7d5828c244c7095a27e85408ccd12c60001b614e7a565b6174327f1221da0bd0f16fcbee175d4dae7d6b598e327e79264e77ced4c93a6a0721871b60001b614e7a565b600073ffffffffffffffffffffffffffffffffffffffff168173ffffffffffffffffffffffffffffffffffffffff1614156174d5576040517f08c379a000000000000000000000000000000000000000000000000000000000815260040180806020018281038252601e8152602001807f4163636f756e742063616e6e6f74206265207a65726f2061646472657373000081525060200191505060405180910390fd5b6175017f09f0dc62d572b9e8dd242a1b7e25c3c5de1610d6c480bec35912dd5840f55fec60001b614e7a565b61752d7fbe74447fdea037b64141768df2430eb2b7113bef949c88d88dcdc549ba88703360001b614e7a565b6175597f04e66872d3f4c69728dfe545a06401e1b17e0f9dd5e1d43290514ae4fd92783060001b614e7a565b60006175877f60826eea4af75abd2223d108cb037485a60c485e699a12a42cac24982b89800660001b614e7a565b813b90506175b77f7acec79ba6fd0be7bb4b2bfca56ca8eb3d8333d64e828971ccb7647facc3806360001b614e7a565b6175e37f0c7e0405db301404f844860b9fe6e14e956a97134ff8695c88184f1c957d6e0860001b614e7a565b61760f7f1c5a94c5a5d640e17d84bedbf9409c7f8afe563c4b1fceef7bced5961764ee0f60001b614e7a565b60008111617685576040517f08c379a00000000000000000000000000000000000000000000000000000000081526004018080602001828103825260208152602001807f4163636f756e7420636f64652073697a652063616e6e6f74206265207a65726f81525060200191505060405180910390fd5b6176b17f1023f03b6261b194c29dee3596b0d25a3be14b60910a1d249d0177db54f54c4a60001b614e7a565b5050565b600073ffffffffffffffffffffffffffffffffffffffff16600360009054906101000a900473ffffffffffffffffffffffffffffffffffffffff1673ffffffffffffffffffffffffffffffffffffffff167f8be0079c531659141344cd1fd0a4f28419497f9722a3daafe3b4186f6b6457e060405160405180910390a36000600360006101000a81548173ffffffffffffffffffffffffffffffffffffffff021916908373ffffffffffffffffffffffffffffffffffffffff160217905550565b6000808284019050838110156177f4576040517f08c379a000000000000000000000000000000000000000000000000000000000815260040180806020018281038252601b8152602001807f536166654d6174683a206164646974696f6e206f766572666c6f77000000000081525060200191505060405180910390fd5b8091505092915050565b600061782c7f147b00b6dfb7ae8a4e87645c7ca77266441741fe56fc7b5f7b5b8ad259a6d28e60001b611b6c565b6178587fc638540e751fe7551cc5cbfd9158321c0ec71f77d6418c73fdaff393e35cb4b260001b611b6c565b6178847fca23378d8a02c8f9b654f27cbeb79b4d5f9df68d5c3e868bb7d7873c9167757f60001b611b6c565b600061788f8361a85e565b90506178bd7fa68e5f40d7be8042db6688cc33112600c21fbc1841e48996e5a812d643ef155460001b611b6c565b6178e97f5c85d4ef3ef98408d868b4261fcb8a9238d27d22b6029d804112e31f1a9c2e8a60001b611b6c565b6714d1120d7b1600008110915050919050565b6179287f71fae87aae1ac2bbab03b6a4d4fbe7c806d4c96708f2e420d79e06f18fb6cff360001b611bbb565b6179547fc95e596829b8959f790b1728169163c46ca5a97f5b9412777753383495322eec60001b611bbb565b6179807f4634e4f74b89388b32bdf1c8255629d2eb03a7991426a5c9902052f28c951b4060001b611bbb565b8015617ac8576179b27ffd79995ac51e9a708e525283557965a027d280030f57d8fe5b64d39f26681b9660001b611bbb565b6179de7f600a0bf6def39e7cf31d79914388188b7bba3c0bd1dc6904b6a3145d9edcb51f60001b611bbb565b617a0a7f191a2c9b2324143c39ab4a1d6d81e10026320308a9577af3a4828e092a4020d360001b611bbb565b617a367fffdbe6cf6c25860953a7f1f5dd49a9d8500116e195b4bf14fa1b3d76c36f92b960001b611bbb565b670de0b6b3a7640000821115617a97576040517f08c379a000000000000000000000000000000000000000000000000000000000815260040180806020018281038252603281526020018061b4506032913960400191505060405180910390fd5b617ac37f72a8a05dd1b31875ceb06b976bc5febf1f46110f5aa9b04f45f5245493f3e08260001b611bbb565b617c28565b617af47f1d99a618ef2953087be7ba1ba6a2b8ca066562a730b73be8046dac166224b76360001b611bbb565b617b207f97d1873f2e6734277636161cce700cf7fce30a31dffaef01aff8c6d323d3f59960001b611bbb565b617b4c7fa15520400274299663910b9fa8c01b3171076066d1d8fd80dd8067210aa209e060001b611bbb565b617b787f7b350c09002a5391edde28889c16901ba29ddaf27752c286960837c44216a4ca60001b611bbb565b60056103e8670de0b6b3a764000081617b8d57fe5b04028210158015617ba65750670de0b6b3a76400008211155b617bfb576040517f08c379a000000000000000000000000000000000000000000000000000000000815260040180806020018281038252603081526020018061b6ca6030913960400191505060405180910390fd5b617c277f839ff0a4a1e3548fc86d8c091854457b42645f106f0a2e4ee30c443e0dd4ad9960001b611bbb565b5b5050565b617c587fb53c4873a75a1f1791ae0b66b85dcc49433d39e129b75a76ce770f53f243f91260001b611bbb565b617c847fa3b620118c3f33ccf327d10f47b8822e4403320bdffdb738e4966436683cda5560001b611bbb565b617cb07f7c2f6caeead669e3f355addc7a564796b854ce3f6edfc4f4355e7f012332a19460001b611bbb565b60008273ffffffffffffffffffffffffffffffffffffffff166321e37801836040518263ffffffff1660e01b8152600401808273ffffffffffffffffffffffffffffffffffffffff1673ffffffffffffffffffffffffffffffffffffffff16815260200191505060206040518083038186803b158015617d2f57600080fd5b505afa158015617d43573d6000803e3d6000fd5b505050506040513d6020811015617d5957600080fd5b81019080805190602001909291905050509050617d987f9073380ee163c16dd5befc869ace0da0c43392a7b76c5a8294b7b1b8ca79deba60001b611bbb565b617dc47f128cbba576b153b8e5fce30ef7e7de8a696108e780ae5d0c95ab20ee45605f9e60001b611bbb565b617df07f43f5f0aceb0c9c3168ad7045bd0e0f56871f65206a52012835c14b5803d7306660001b611bbb565b6001811415617e67576040517f08c379a000000000000000000000000000000000000000000000000000000000815260040180806020018281038252601c8152602001807f426f72726f7765724f70733a2054726f7665206973206163746976650000000081525060200191505060405180910390fd5b617e937feb7979f082ea4725da0c8d34a57bad79da90440b6e9f1a2691ee89f4d1b6f4d460001b611bbb565b505050565b6000617ec67f5e2e6b0cdb118d110745bc527f2bcd7c8e64de30322fee315480022e9d04eeef60001b611bbb565b617ef27fdd661ddcd0e9cca0eee7b6051d1cdf3ecd94dee3d9dfe1ba6bee7760f1da989160001b611bbb565b617f1e7f1d6af51433ad4a9a69008995a08833075f8913abe81c2d4a19bf320427e0da9e60001b611bbb565b8473ffffffffffffffffffffffffffffffffffffffff16635dba4c4a6040518163ffffffff1660e01b8152600401600060405180830381600087803b158015617f6657600080fd5b505af1158015617f7a573d6000803e3d6000fd5b50505050617faa7f40c39eff2c699fd0c0bd25c003394f886c90acd19a8154e31fdd168e860efbfe60001b611bbb565b617fd67f68edff694dbbd2d4cb98ad2b4773dce69dda6f936b1abdba61183ffcf1e981c160001b611bbb565b60008573ffffffffffffffffffffffffffffffffffffffff1663631203b0856040518263ffffffff1660e01b81526004018082815260200191505060206040518083038186803b15801561802957600080fd5b505afa15801561803d573d6000803e3d6000fd5b505050506040513d602081101561805357600080fd5b810190808051906020019092919050505090506180927f6331502561f9dfb0eaa41ab575565f77a60402190a5fab5b9745dcc65668b97360001b611bbb565b6180be7fcfc34e08ebf2c96c013378bf132f0f791aee9e7d16dc0924787fcf1a6fa0f40760001b611bbb565b6180c981858561aa1b565b6180f57f98195c6b65067da6381fc98ebc1a0b69746eb88b620388a06a697b2fde184e8360001b611bbb565b6181217fca45ed328b26115224b407c552f89bc18146573cda7c0a5c33d6b6ccd7f4d94360001b611bbb565b600860009054906101000a900473ffffffffffffffffffffffffffffffffffffffff1673ffffffffffffffffffffffffffffffffffffffff16634677ffb3826040518263ffffffff1660e01b815260040180828152602001915050600060405180830381600087803b15801561819657600080fd5b505af11580156181aa573d6000803e3d6000fd5b505050506181da7f389b043ab35f8f7f43bbac05ea12038b471ebcdfd276091324036722129dcfef60001b611bbb565b6182067fc1b023f4264b34283ee078300f7a885c57d3e937a333866a725c6f5952a6336660001b611bbb565b8473ffffffffffffffffffffffffffffffffffffffff166340c10f19600960009054906101000a900473ffffffffffffffffffffffffffffffffffffffff16836040518363ffffffff1660e01b8152600401808373ffffffffffffffffffffffffffffffffffffffff1673ffffffffffffffffffffffffffffffffffffffff16815260200182815260200192505050600060405180830381600087803b1580156182af57600080fd5b505af11580156182c3573d6000803e3d6000fd5b505050506182f37fb213841a7f4fefd78253f5c8da2d1b7efd58a1500168a535a7643f2267d7e60a60001b611bbb565b61831f7f2e022e39add7171ba4035093436983af8980362677147f6eea6ac8f8da43161360001b611bbb565b80915050949350505050565b6183577f0927b62856ab6231fad5058546351edb1069717582ebb05f0af930757239e4b360001b611bbb565b6183837f3dfb4ef28ffeac20f5ab4d223ece8363be2a58fe7ed062e6ad3297b67c94f6a760001b611bbb565b6183af7fce81a4833d89da624eaf4adf3740498b525960767e600078f16912106eb32eb860001b611bbb565b6183db7f0104e160ba1bc9a79f9efd751c4bf916f7ff358f5712cdb8ff70d764a662a5df60001b611bbb565b686194049f30f720000081101561843d576040517f08c379a000000000000000000000000000000000000000000000000000000000815260040180806020018281038252603a81526020018061b624603a913960400191505060405180910390fd5b6184697f01956cca3f4de47bb5bdf0b34d88527217d360057834ec34e513537797e6925a60001b611bbb565b50565b600061849a7f1fb1c924071e50c2aa9d7f09291fd7831d6481aed3d64d9a31927fcfdf29670460001b61abfc565b6184c67fe7b149e83ffc59b38b39430566aa51ffe74fa9a62f9938fe60d6498035c2084060001b61abfc565b6184f27faee8586873401c81b69ef021f1b4b5e621ddc8264ed2170bf01f4cd794b65e9560001b61abfc565b6000831115618609576185277f938b7a907927def325175a9b9763324c21d376a1db58b873fc572191995adeee60001b61abfc565b6185537ff3fb017b46a6cc03056717fe487f10efbc4957bbee55feae53211d955232e77d60001b61abfc565b61857f7f9cce84226470f7604a220b104bc94d4e1416b0a5f92e345811d5a6128b8d335060001b61abfc565b60006185a684618598858861abff90919063ffffffff16565b61ac8590919063ffffffff16565b90506185d47f29c960a6fa3b8822049ee000006565af8f6225894520628c65eb2fc49a99191e60001b61abfc565b6186007fb7ae7f080fe4eb0c3f53fc10df2345210d66b1892b1a75445349a70febf2803460001b61abfc565b809150506186b1565b6186357f8def5a1860b799231f1daace23252caf496d44221af1a5212660498a692981dc60001b61abfc565b6186617f7a561ef4150ea5b53610168f34b9d8e9711bf468f453fff46192e6af13353e8f60001b61abfc565b61868d7f57732a23ba8b96e60679d6ddbcc37e1db663eb60ba05c84a212a4c73f10e9b8760001b61abfc565b7fffffffffffffffffffffffffffffffffffffffffffffffffffffffffffffffff90505b9392505050565b60006186e67f0a957dc6e50b79f4198337292f975c97f1e46d2fd879495bd9d3e8b465c5908260001b61abfc565b6187127f36b6df758e5d32c7a54e70939249466cd685f55a6000a796488d904e950ff55160001b61abfc565b61873e7fdae53b9988856ecade943ff600d8410ffe098b0e9b0d2a20e0d4e6d629dadd0560001b61abfc565b6000821115618800576187737f97ba562ff5a52d5e376440b75dfde7cde5ac945e09a50385ed302c8fa4c93a3560001b61abfc565b61879f7fea72f26e58a660e89daf76a6338c4ea7c326b03c642e05985fecf7e1344071e260001b61abfc565b6187cb7fc566fce390725f3d5e0bf4a75af0125a0be036fa403638b30478399b1c0c30c160001b61abfc565b6187f9826187eb68056bc75e2d631000008661abff90919063ffffffff16565b61ac8590919063ffffffff16565b90506188a8565b61882c7ff93684451e504ecaf8543b25ab42519bfa810eec4ba3d920d4653a1c16b0e8cc60001b61abfc565b6188587fffa4d87f788e1c9f8814f84d7b1775d9b36b21962786a14d2a1ebae57a7a352160001b61abfc565b6188847fb15b56e0dec2133675b26fd4423bbd9ae3370ed1bdb703025845a76469b40a5360001b61abfc565b7fffffffffffffffffffffffffffffffffffffffffffffffffffffffffffffffff90505b92915050565b6188da7ff41b13f1330baf7ece0668020a46a412d2e39fbbaed7e08a6b4a430c878ceb5c60001b611bbb565b6189067ffbc5dcd460aa06dcd4a03bc2e3845f027eb9380871a58573293d461c7ebadb3360001b611bbb565b6189327f3346cbb4c3a22511b273a55cd8c1d525621a8c0407cd3ecf2932987b56367c0a60001b611bbb565b61895e7fa237cf644f76ebd9411de2b2281604e13423c49b2f19e0c3ae3c119d152e198760001b611bbb565b6714d1120d7b1600008110156189bf576040517f08c379a000000000000000000000000000000000000000000000000000000000815260040180806020018281038252603781526020018061b4196037913960400191505060405180910390fd5b6189eb7f03e5a39686cd7770a2c69d7c2eed21c12c1a6aa2720de29f09ca70830ed4c25260001b611bbb565b50565b618a1a7fc18fd8023c2b4e01efb505f40f165a1041becd101b28495b44974e1079af0b6560001b611bbb565b618a467f86b263de3aefe53ba747ef52870f7af85ea54bcfb5ee48f74a2baad30276045960001b611bbb565b618a727f54607143ac7423ad11f5d1b73a94f0fd58cda368c5f1fb14d359ea009299cb4160001b611bbb565b618a9e7f7f876765ffb24d40113bcfe7f6e8d9cd2f96d0ba6a5467b24d942fb27f86579060001b611bbb565b670f43fc2c04ee0000811015618aff576040517f08c379a000000000000000000000000000000000000000000000000000000000815260040180806020018281038252604981526020018061b5db6049913960600191505060405180910390fd5b618b2b7ff069f4e725796ee711153bd84f5545bf0a5575dd93c60c8262097235b275633c60001b611bbb565b50565b618b5a7fc690be3f85b1ec5bb437a383a102049594e821161a4fe67e526872cac4c704ec60001b611bbb565b618b867fe51c28aa6739cdf5bddc83871627e810819e1f82e072029049e8e10e6402469e60001b611bbb565b618bb27fba842711aee6c437fe6bd36dbe5c2c5ac6979eb9d02f15f21762bb28f8bdbdcd60001b611bbb565b60008273ffffffffffffffffffffffffffffffffffffffff168260405180600001905060006040518083038185875af1925050503d8060008114618c12576040519150601f19603f3d011682016040523d82523d6000602084013e618c17565b606091505b50509050618c477fc256add0adee45b43eb7a6faa93cbe6f8456b970b888c90688fc857549930aef60001b611bbb565b618c737f42c5a1c1271d205a187eab745bc4c9b64fc9f5b5467e38810e5cd27cf9266c0160001b611bbb565b618c9f7f56b8e317978c0488e3e69129a5045d66552da2b13daf3a47f95678d072800f2260001b611bbb565b80618cf5576040517f08c379a000000000000000000000000000000000000000000000000000000000815260040180806020018281038252602d81526020018061b383602d913960400191505060405180910390fd5b618d217faa51ce23b916eb12ba55af21b406bcd1c4376c9de6fa6048ddbcc2e24563722860001b611bbb565b505050565b618d527fbbe0c26b497790f190386e42640a7829344525eeb78165fb46f5b1d863d6433560001b611bbb565b618d7e7fa0cacec72194cf44d1148d83f10e7383007e9d5ed5f933557ce9901688291ff860001b611bbb565b618daa7f8f378be7bc15d32e4b27036e482a4213e440448304e8b834dadf5617112e2b4a60001b611bbb565b8473ffffffffffffffffffffffffffffffffffffffff1663cfb9329a826040518263ffffffff1660e01b815260040180828152602001915050600060405180830381600087803b158015618dfd57600080fd5b505af1158015618e11573d6000803e3d6000fd5b50505050618e417fa541b0223e8a2c4d091e00e25b1df718465b6288f8eadcebc328291541f280e760001b611bbb565b618e6d7f663ba4b457b81842185fa2661a9457ec29e68e462b66f9dc840adba04a16fcf560001b611bbb565b8373ffffffffffffffffffffffffffffffffffffffff166340c10f1984846040518363ffffffff1660e01b8152600401808373ffffffffffffffffffffffffffffffffffffffff1673ffffffffffffffffffffffffffffffffffffffff16815260200182815260200192505050600060405180830381600087803b158015618ef457600080fd5b505af1158015618f08573d6000803e3d6000fd5b505050505050505050565b618f3f7fb28eef1925312999b98bdf9684f3c71a1ed7e71e807298098b51512ecadc55e360001b611bbb565b618f6b7fd72be175d5e96e1523422b7d69ab73981880d2205754b245f5181bd346fa7a3060001b611bbb565b618f977ff555e4866c9a7e8902605643456e3689af2e7022ee37490fbbff7c9f21ac98fb60001b611bbb565b618fc37f9045848fc3dc8ebde3824e3d0bfd6135873671bbc790fd1d03a9fd756e5e077660001b611bbb565b600560009054906101000a900473ffffffffffffffffffffffffffffffffffffffff1673ffffffffffffffffffffffffffffffffffffffff163373ffffffffffffffffffffffffffffffffffffffff1614619069576040517f08c379a000000000000000000000000000000000000000000000000000000000815260040180806020018281038252602981526020018061b6a16029913960400191505060405180910390fd5b6190957f0514d74d183f3c24efd1fbdf94103c58d5f3df01eb244c76472aaccb485bb38b60001b611bbb565b565b6190c37f541ed94725eae8a22512d75a33e808a3a747dd3eca87fd7b3de4593a699972d360001b611bbb565b6190ee7eed6bff145c3044f691dd5cd6c4f9b27fe72a1f3fa448dc0795b2c5f58f7aa860001b611bbb565b61911a7f0f2e9e6b5ea74a13b41d91e0944005501d7108464923c800dcabc9f0f624474360001b611bbb565b6191467fe5c3f98edab67c11ed764de53a13340ca3987667df31cb8922c8a5a75b15dc6260001b611bbb565b6000811161919f576040517f08c379a000000000000000000000000000000000000000000000000000000000815260040180806020018281038252603781526020018061b6fa6037913960400191505060405180910390fd5b6191cb7f681a71e9a5c8df1515c055b9bb2515f5d7c630e83314d8dd81ea5762b9b23b2560001b611bbb565b50565b6191fa7faafbd3def1bb4d948901dd5367bc880c0c5f692a14ec08c9c500077eafb6132f60001b611bbb565b6192267ffa20bf274b6a071a76344e9130a885d4aca9cbc16067ea8d0726aef9b521da0f60001b611bbb565b6192527ff1bbc755d5e41f67e7037b3f23764df6788b59c3fc6b93d8f1f807f22fb0f3a660001b611bbb565b61927e7fcb63714b59c8c2e970fd0de746e77e8ac5803aea74aeb6490b4f7d2d6461356b60001b611bbb565b600034148061928d5750600081145b6192e2576040517f08c379a000000000000000000000000000000000000000000000000000000000815260040180806020018281038252603081526020018061b3b06030913960400191505060405180910390fd5b61930e7ff14dff752744814a55e8d3315f75d8e78629cf8dffb968a3be6e217b74f5c4aa60001b611bbb565b50565b61933d7f4f70f65e378e3b6ad8d0e1270059e20a99458d7e37618450769efa0f44508d9e60001b611bbb565b6193697fbaedadea860c77d1ba1838d410799c9db50517e2f878532bdc71e107d1dcee7460001b611bbb565b6193957f1b434cb9b3bc634d9921da6d682d907c5b5e9be69d9e00daa75610df8e845e5c60001b611bbb565b6193c17f3087c0df2992d29398fdb974fff046e83311ce783be070abafef038edb6895d760001b611bbb565b6000341415806193d2575060008214155b806193de575060008114155b619433576040517f08c379a000000000000000000000000000000000000000000000000000000000815260040180806020018281038252604681526020018061b4826046913960600191505060405180910390fd5b61945f7ff5974b214a0980a36f0c0e0a03fdb909354ebe562a56d657db443e843539bf7560001b611bbb565b5050565b6000806194927f0a4e6325225105bda424b0419d8cbc6b5570bd6ddae6b433c7909201ed4138df60001b611bbb565b6194be7f7454c9d780baaf9dbdd31d1c752d97cb1439ae98459f553ea04c2a761b23d6c360001b611bbb565b6194ea7f6aa674668e1d00d3a14b93ea71c5cd1305a9012700a639b9f603a6b5f800e8bd60001b611bbb565b600084146195da5761951e7f51b0dfd483089307a32402a92c15a5d0cb1f9619622f8ec6b2aaec146725f0d060001b611bbb565b61954a7fc386ec503e84752cbe6009aea785fbebf57a8612256befce5c8c3489c971ebb460001b611bbb565b6195767f2ae11fe37536601d3c0ca58db0bc59a48ebed8e55752448b7423bf78fb14c89f60001b611bbb565b8391506195a57f69068df8d3c39cd433330609a37666f5f6f7287dd06687601d761c28cce92cba60001b611bbb565b6195d17fcc02ca0cbc45f5474525146d9d4482dd0ce04b3d2685eeb11155a59e381b342f60001b611bbb565b60019050619662565b6196067f47835915d614a34262ce8ff4abfbe25545cf5670807649e5bd3d3a101938af9460001b611bbb565b6196327f4623116a5b4492cd9d7be0ffe810114f996dd5535e0cd87b14a7c74b4f291a5060001b611bbb565b61965e7f82dfc792a69c2fab8e804731855892a34c7f31c2453296fb2c12e0034c1346a260001b611bbb565b8291505b9250929050565b60006196977f0a6199a21045fad1bb03063a22761bc90145bfcfbb08cfa2644156b2e01d811a60001b611bbb565b6196c37fd007bd82221e1bac74ee53e309a04a437738f09be7faaf62b1eb39c5e7f017c260001b611bbb565b6196ef7f2673405db76d61c758105c5b0e79dd242ab658196aba0ae44bba9450a288a7c460001b611bbb565b6000806197008a8a8a8a8a8a61accf565b915091506197307f5258011ac767f13ff845fa45b9e7b1e99402867d5a1ee33736676c3e5b6c6a9960001b611bbb565b61975c7febe838dfe5caea6bf632a2b31de10feed75535d6592917b120c20becd4a816f160001b611bbb565b600061976983838761846c565b90506197977fe4813557184f6f22fc1686627dd73c330d46b718787ed058664814d545b397fd60001b611bbb565b6197c37fd08276c415c503f2ca1a628b9545e5a0a3d9e11b5582af29fdbefaf667662aa660001b611bbb565b809350505050979650505050505050565b6198007f29fdc856a12fe9f5e95cf3a34f8a64faba70d34c34d77e2e288e7840eb42476960001b611bbb565b61982c7fba2d1c6a33c99233132c084a18065998d339caf86329d4c22708b8af6e7af28b60001b611bbb565b6198587fdaf1123ef7bf7b7fdce57c662af837d530fd22af0599e97462beffec71a1a40860001b611bbb565b8315619a7b5761988a7f618d7c4ca8f1098420f4aad990ee7a81089ae88bc355054d39f3c7b1aac35a4d60001b611bbb565b6198b67f892f55816faa770ae64e9fadb5c589a48bb27c21d1b472d79d5e6b0d34cef8f060001b611bbb565b6198e27f0deaf5aed2249cb2c8d3ab4c7956aacc14a7b21411f535a7d38ef4d822221f0360001b611bbb565b6198eb8361af39565b6199177f806a0954463db0e3ffcacbe61d973b5f283f340ebe9356188f09518d8ec349de60001b611bbb565b6199437fe26d2a73ba0abd9b407815c63e842a560f067ac6c56141e8893303fd00001d9960001b611bbb565b8115619a49576199757f3f9cc1434270d81b589e6a6efeb45b891459b30f21129f6a613d36b3e3401dc560001b611bbb565b6199a17f0a6daf765a2444a501521d5687be50be467f6d1c9434e1a8e43977251c2c38e160001b611bbb565b6199cd7fdda69341b888ef14e6fa024cb32c3704a3ddd9ecfa2b24579718064006fc2ae260001b611bbb565b6199da8160e001516188ae565b619a067f9c491f4ded71b697f16e970c826a52966911707d21ac7a5bffca579923f2425060001b611bbb565b619a327fcaa00386faf0799b16acf2c5dc2e82b75cf284080f89f61f5e9e37df837e17c260001b611bbb565b619a448160e001518260c0015161b071565b619a76565b619a757fb33d8fc7c8fcb22ce7101c4bed38482a7bde8a8f3b89eb8bb26802e15055378b60001b611bbb565b5b619bf2565b619aa77f73fb542c4add680963aa5498bf7705ae57a0a504158a849f73451e5f0c5cc18c60001b611bbb565b619ad37f1faa158495e3aba694efb4ca63fdfd71623c062bb03c0d165384a7f94b8eb13060001b611bbb565b619aff7f16d6ae3e63ffa0b00969e28e73ccafba6aab723c8f2405a2fea49e9011b2bfd560001b611bbb565b619b0c8160e001516189ee565b619b387f4cca500a3f44fe744491d658e4a3356219c6e7bd5523fff536e10ac52a3b346460001b611bbb565b619b647fbb6b7a8cb152a4b33d5a473956f1d2f1844e53a9b220346b57ed7970c436871560001b611bbb565b619b81816020015182606001518360400151858560000151616cd3565b81610100018181525050619bb77f14f39e4e074500fe746ea25ebf799d8bbbf62219db8661d8c342c477ed6c0f4d60001b611bbb565b619be37fdd0c8074fa42883dfc442f266b40633b26038b7340f9a9afcc1a15f79249b6fa60001b611bbb565b619bf1816101000151616fad565b5b50505050565b6000619c267f3e568fe0ad286efb617006d19626626d2eec01f6bdd2e75b8388e7be93aea3f460001b611b6c565b619c527f3d9a5b4b82198ad335cb056e3078c9e06b8c980cffc38d75d124a7278ab71dcf60001b611b6c565b619c7e7f940bd9b127c8c05af8092736c8b08975356edcae0cff123c773b945ff5ffbe6760001b611b6c565b619c9a680ad78ebc5ac620000083616a9890919063ffffffff16565b9050919050565b619ccd7fe736ddcaf611e3efa6e4ce2279ba22fae6b3b89f0b137653173d4ec445c6452060001b611bbb565b619cf97fc49b0e2502e3db348a1a474f8f0310edb264120197722d89b98f16adf1cb3ba860001b611bbb565b619d257f184f4509ab8126859c0b63e8d4bc173125e2ef9f99fd08221dc80030e201206660001b611bbb565b619d517f871b0426c0141a876162e785467d4a05bc518ef6f8e0e8dc0dec1cc32fba3a5f60001b611bbb565b619d6d680ad78ebc5ac620000083616a9890919063ffffffff16565b811115619dc5576040517f08c379a000000000000000000000000000000000000000000000000000000000815260040180806020018281038252604381526020018061b65e6043913960600191505060405180910390fd5b619df17f8580872f6ac2f6c91bdb1150f505a040aa0972fd61e4c6f1b7a6bd8c252fefb060001b611bbb565b5050565b600080619e247f7bf17686eb608589c0efc5284c18900107d7e55dea5ec10b5c54ca1c8a83734660001b611bbb565b619e507f807b2f51b47abdfb2ceec9d91207f626d9f734225975823747641fe2a212a90360001b611bbb565b619e7c7f128ba2943d2c958a95c359026b88bbb4e7ee3827e467597a1832c9c00296e65660001b611bbb565b600085619f4a578873ffffffffffffffffffffffffffffffffffffffff1663d3d6f84389896040518363ffffffff1660e01b8152600401808373ffffffffffffffffffffffffffffffffffffffff1673ffffffffffffffffffffffffffffffffffffffff16815260200182815260200192505050602060405180830381600087803b158015619f0a57600080fd5b505af1158015619f1e573d6000803e3d6000fd5b505050506040513d6020811015619f3457600080fd5b810190808051906020019092919050505061a00d565b8873ffffffffffffffffffffffffffffffffffffffff166372423c1789896040518363ffffffff1660e01b8152600401808373ffffffffffffffffffffffffffffffffffffffff1673ffffffffffffffffffffffffffffffffffffffff16815260200182815260200192505050602060405180830381600087803b158015619fd157600080fd5b505af1158015619fe5573d6000803e3d6000fd5b505050506040513d6020811015619ffb57600080fd5b81019080805190602001909291905050505b905061a03b7f34b47cd4df97c7dfa0a0072ecdbde9305fbc0e7007430c1fe9578d4b90aa8d9460001b611bbb565b61a0677fca4ec284ccf1a75ff3229be2f4a6c7984a8a71b6ad0d36684c377f06890e6c6660001b611bbb565b60008461a135578973ffffffffffffffffffffffffffffffffffffffff166312610e928a886040518363ffffffff1660e01b8152600401808373ffffffffffffffffffffffffffffffffffffffff1673ffffffffffffffffffffffffffffffffffffffff16815260200182815260200192505050602060405180830381600087803b15801561a0f557600080fd5b505af115801561a109573d6000803e3d6000fd5b505050506040513d602081101561a11f57600080fd5b810190808051906020019092919050505061a1f8565b8973ffffffffffffffffffffffffffffffffffffffff16639976cf458a886040518363ffffffff1660e01b8152600401808373ffffffffffffffffffffffffffffffffffffffff1673ffffffffffffffffffffffffffffffffffffffff16815260200182815260200192505050602060405180830381600087803b15801561a1bc57600080fd5b505af115801561a1d0573d6000803e3d6000fd5b505050506040513d602081101561a1e657600080fd5b81019080805190602001909291905050505b905061a2267f46bfd508063ca469cb08623fdb9b132878c817a80f282b728eb74c06bd874d0c60001b611bbb565b61a2527f100350af6e37c931e95c3ef25a4e745aae52acfbdbd9b5ceba20da808fd6b00b60001b611bbb565b8181935093505050965096945050505050565b600061a2937f53c17138033062e5fe16b723f038b45c632f1b9fd361dbb91e33e8a91ff22e0260001b611bbb565b61a2bf7fda01f72ec5186e6660a7bfd27289050a95339c2ccb3f73a72432552ab204a69a60001b611bbb565b61a2eb7f6d0f2649702383f82aa7a5235fa43771900023cd6e060e349d5d5cdefcdc0d3860001b611bbb565b60008061a2fc89898989898961accf565b9150915061a32c7f40069248a7a0f8a1a21690e698e062cd4d34932312132e4e4f33584816424d7060001b611bbb565b61a3587faad108cc42d692a147457c0aee675cb91c8b607db830ca58795cd1e7959ea51c60001b611bbb565b600061a36483836186b8565b905061a3927f482f54eb0379a5def43eff9ab4ebef2c6e0b2048059f86c3739d0ec87bd2af2060001b611bbb565b61a3be7fd8fd919abaa28486774e8bcb52570001ead89eebdec4820593e835c41251cdf960001b611bbb565b8093505050509695505050505050565b61a3fa7f277c74ce2b0000f986772ffdf35844b66c28ce8ae933c29df16325fe9134f36e60001b611bbb565b61a4267f078139215d042819419b7ea971b373b2b83dbef5e3a5eeb1b6da8b6838ea0ac760001b611bbb565b61a4527f24e869b6ea74795d0c345ca7c9ce32c3b9d904a4cf353c9b8f711ac7c0b2824260001b611bbb565b811561a4ee5761a4847fe459ea67095fbb0df9ae80a013c363fb28eff08ed533dc0d28ea81b31367c49b60001b611bbb565b61a4b07f8f64397b96d7063a98947217798e8862980a8c06d8b71b17854862751bc4460f60001b611bbb565b61a4dc7f666d51b4ef6ac0cf6a84fede3d22976f185865af74002bb535ae8d432d7a79b660001b611bbb565b61a4e98888888685618d26565b61a57f565b61a51a7f10aa17c9607b2d37fb1aad180fa3d3ffbacdaf6772368ef918f92e83a75bdda860001b611bbb565b61a5467f95b10e103920e81ddf40ed9185301cd5e6e4ac6781c17614f2687b159fe4cc5260001b611bbb565b61a5727f0e9922468d1802fc15326eb6e98bc9a9bbf249e45882cbdd0c8981595522d8b060001b611bbb565b61a57e888888866170ed565b5b61a5ab7fff261473ed1655979e2105fdf7b76f74c04cbb0d9d353ca97754abb380e3c36d60001b611bbb565b61a5d77fc5b01b7a4a95d846217fa032843c90ee7efe6690254afbe2d01a0b7ecf13455060001b611bbb565b831561a6705761a6097fed03c8947ce06b29639d6f472932488ccaded80c365a181256938634fbf2a99660001b611bbb565b61a6357fe56b2fe30fec116ffe1f8db2f6d7de50442068ddcccdbc5bc6f721bd091d3d0660001b611bbb565b61a6617f5797aa7f4849f41d018dddadcf06985cbd96c0cebeec81f1670808d74dbc840860001b611bbb565b61a66b8886618b2e565b61a794565b61a69c7f6be0fe1895676a23b31b3147fce511670e88d62f79e7e83bb25b506e8b0bbe2460001b611bbb565b61a6c87f91da422993ccd811103790ceeb0536fa38141986aecdd5c54963cb4ee9db46e360001b611bbb565b61a6f47fb04c02002e9fac22d3e4b0fe030c2577baae9e060ccf9573036198a8d3fad7ff60001b611bbb565b8773ffffffffffffffffffffffffffffffffffffffff166364a197f387876040518363ffffffff1660e01b8152600401808373ffffffffffffffffffffffffffffffffffffffff1673ffffffffffffffffffffffffffffffffffffffff16815260200182815260200192505050600060405180830381600087803b15801561a77b57600080fd5b505af115801561a78f573d6000803e3d6000fd5b505050505b5050505050505050565b600083831115829061a84b576040517f08c379a00000000000000000000000000000000000000000000000000000000081526004018080602001828103825283818151815260200191508051906020019080838360005b8381101561a81057808201518184015260208101905061a7f5565b50505050905090810190601f16801561a83d5780820380516001836020036101000a031916815260200191505b509250505060405180910390fd5b5060008385039050809150509392505050565b600061a88c7fa5c6fa8c7def441f1be05517fef3e2bfc4c4aa0a7ef26d21bdc730286b56187f60001b611b6c565b61a8b87fd499fbefdf090ac4cea6a2d9d41d38180efa5d32eba0bb86dd6ec954b6265b3760001b611b6c565b61a8e47f04774a2abca466ee6e8e9d15158062786d6899a5aacf8a77eca74ecb601e66b460001b611b6c565b600061a8ee614b5b565b905061a91c7fd3ec13336a12ae3ec7d52e0ab0fc46c6399078cd8ab182540768b6e3e36cee5e60001b611b6c565b61a9487f59ec8bcdd2b9017f3970492ffe01bbea2f58060535d079c4c6792190d42e933860001b611b6c565b600061a952613266565b905061a9807fa48897db9f12b855b04380b44869929736061d5cd6bee9832714343f36ef9e9360001b611b6c565b61a9ac7f2a96244e0f24a35c7d29dd04bb8f302d322110258be8eee9f18a6c832ef231e760001b611b6c565b61a9b782828661846c565b925061a9e57f25f03781ce63d95c9c99c0377d620c6f36bfe68fa932a9706d95ce3de845bdc760001b611b6c565b61aa117f5914794168c514cfab5e62c42ca4e0107092ef310237de856bd7d5246d051edf60001b611b6c565b8292505050919050565b61aa477facef9d49e8ab7f2fccb94108f95626a836beae6f8884f9f4170d3586daeb235160001b611b6c565b61aa737f2ee6b9c138b682556267b00e197f690eaba1da82aa67f015cc57569fcd2102dc60001b611b6c565b61aa9f7fb33c7650c10ab2d1a39ab289ac832de172dd6beb2803ee4831e13f9b9bf578b760001b611b6c565b600061aace8361aac0670de0b6b3a76400008761abff90919063ffffffff16565b61ac8590919063ffffffff16565b905061aafc7fecfa1a14820b75a581ec090f2d4573db18bfa0a4ac0c4c6c481b57c75745e27960001b611b6c565b61ab287f2b6f6b113ba488f9495e8e2dc5a19f2948c03df2595c1d3361a251c37559b12660001b611b6c565b61ab547f652d40d04550df082f9eb4c6a9a410f6e7593cf024ea9cdb76e4f8853f2ddf4760001b611b6c565b8181111561abca576040517f08c379a000000000000000000000000000000000000000000000000000000000815260040180806020018281038252601d8152602001807f4665652065786365656465642070726f7669646564206d6178696d756d00000081525060200191505060405180910390fd5b61abf67fcba4bc828cd0ef8be6e909695d80f6199f3e367e589d34b9bdec0548e34e4c1e60001b611b6c565b50505050565b50565b60008083141561ac12576000905061ac7f565b600082840290508284828161ac2357fe5b041461ac7a576040517f08c379a000000000000000000000000000000000000000000000000000000000815260040180806020018281038252602181526020018061b4c86021913960400191505060405180910390fd5b809150505b92915050565b600061acc783836040518060400160405280601a81526020017f536166654d6174683a206469766973696f6e206279207a65726f00000000000081525061b1aa565b905092915050565b60008061acfe7f13882f6bc6dfc1c94bf01937deb259599d986948966f8fdcb910a5dd3ddb3ba060001b611bbb565b61ad2a7f37d267b0bc401bdc63f236f456a1458819e2ea3da3f41caebbc6b60ea116bb2960001b611bbb565b61ad567f79c3937097831b72c145645bc9face5e63c9b248e3bb082a173462a39bc64fbc60001b611bbb565b600088905061ad877f38ccbc5242b2584ecdd38c0c12e7c8ebdd4fb78dc7c16516c60493de86a404ec60001b611bbb565b61adb37f1c5e5967cdccb427d0033587711ef5d73af8922675201adb88d1b08ebe83951860001b611bbb565b600088905061ade47f72ddb79de107d7c34c6c94671e6f1db18c2697492093d2d32638dd6171704f5260001b611bbb565b61ae107f4b742b23ae26cb3b49fd9e81dd936e966a9c3d352141b44da6ede1ad04374eff60001b611bbb565b8661ae2d5761ae28888b616a9890919063ffffffff16565b61ae41565b61ae40888b61777690919063ffffffff16565b5b915061ae6f7f1ff5f0b48c78de5cd440e7322c99f0e8bc4bf54b2cedc3e7f6bfceb54fe65dd860001b611bbb565b61ae9b7fae22f365131385a303b6ff244968a54b518f70f09ed840591ba5ae41827151a360001b611bbb565b8461aeb85761aeb3868a616a9890919063ffffffff16565b61aecc565b61aecb868a61777690919063ffffffff16565b5b905061aefa7f8d08e24869d2b28e65e523f37abee0c5d59092765953da519364e83e6bf62dfe60001b611bbb565b61af267f9529fcbbc36e075eb5e0ff1dc924d5064f61d7d38d1afffb39ca27762e92f3fd60001b611bbb565b8181935093505050965096945050505050565b61af657fc84a6fa84d9700259350e0554ba745e3d0b2bbe038b90878b41a64e213299b3460001b611bbb565b61af917f8a4a04abbb023a4edd70989e2c3a74e211fdce9bf0971c211c3ea217a5730fb760001b611bbb565b61afbd7f4513eee8a195e58374d0c0f7ab62ec9bcc22d525d6e496d38809b6dff8e1762260001b611bbb565b61afe97fbc2da30b372a2c0c2de9f68b0e9956f6eb7575ffa8b8476f199e7bbc01e8d9a260001b611bbb565b6000811461b042576040517f08c379a000000000000000000000000000000000000000000000000000000000815260040180806020018281038252603e81526020018061b560603e913960400191505060405180910390fd5b61b06e7f0e9122a57e4966ae13c12b7efa5832582f84e2fdf6ee6dc27c1ccce10d937fd560001b611bbb565b50565b61b09d7f18043163abfb760048e2c22e684147f8c926daa01654ab7c66026cdf8b25057560001b611bbb565b61b0c97f562d93f09c890a29a9bcabcf9df14770decf15205d8d084245c96aafddabf86760001b611bbb565b61b0f57f4c3e4ca44dfcf0927bab160d3d9e53a9aa4f67f15d8527cad8734c10317584c060001b611bbb565b61b1217fb48bbc49b88a478ee05d2aa4a35c897732e506255a5e0c8fbcc31632705e429f60001b611bbb565b8082101561b17a576040517f08c379a000000000000000000000000000000000000000000000000000000000815260040180806020018281038252603e81526020018061b731603e913960400191505060405180910390fd5b61b1a67feba57518a6767f08637d3d9416a6f89fbb5bf5d3b65bcb15b9c2c9abe0672adc60001b611bbb565b5050565b6000808311829061b256576040517f08c379a00000000000000000000000000000000000000000000000000000000081526004018080602001828103825283818151815260200191508051906020019080838360005b8381101561b21b57808201518184015260208101905061b200565b50505050905090810190601f16801561b2485780820380516001836020036101000a031916815260200191505b509250505060405180910390fd5b50600083858161b26257fe5b049050809150509392505050565b6040518060600160405280600073ffffffffffffffffffffffffffffffffffffffff168152602001600073ffffffffffffffffffffffffffffffffffffffff168152602001600073ffffffffffffffffffffffffffffffffffffffff1681525090565b60405180610100016040528060008152602001600081526020016000815260200160008152602001600081526020016000815260200160008152602001600081525090565b604051806101a00160405280600081526020016000815260200160008152602001600015158152602001600081526020016000815260200160008152602001600081526020016000815260200160008152602001600081526020016000815260200160008152509056fe426f72726f7765724f70733a2053656e64696e672045544820746f20416374697665506f6f6c206661696c6564426f72726f7765724f7065726174696f6e733a2043616e6e6f7420776974686472617720616e642061646420636f6c6c426f72726f7765724f70733a204f7065726174696f6e206e6f74207065726d697474656420647572696e67205265636f76657279204d6f6465426f72726f7765724f70733a204f7065726174696f6e206d757374206c656176652074726f7665207769746820494352203e3d204343524d6178206665652070657263656e74616765206d757374206c657373207468616e206f7220657175616c20746f2031303025426f72726f7765724f70733a205468657265206d75737420626520656974686572206120636f6c6c61746572616c206368616e6765206f7220612064656274206368616e6765536166654d6174683a206d756c7469706c69636174696f6e206f766572666c6f77426f72726f7765724f70733a20416e206f7065726174696f6e207468617420776f756c6420726573756c7420696e20544352203c20434352206973206e6f74207065726d6974746564426f72726f7765724f70733a2054726f766520646f6573206e6f74206578697374206f7220697320636c6f736564426f72726f7765724f70733a20436f6c6c61746572616c207769746864726177616c206e6f74207065726d6974746564205265636f76657279204d6f6465426f72726f7765724f70733a2043616c6c657220646f65736e74206861766520656e6f756768204c55534420746f206d616b652072657061796d656e74426f72726f7765724f70733a20416e206f7065726174696f6e207468617420776f756c6420726573756c7420696e20494352203c204d4352206973206e6f74207065726d6974746564426f72726f7765724f70733a2054726f76652773206e65742064656274206d7573742062652067726561746572207468616e206d696e696d756d426f72726f7765724f70733a20416d6f756e7420726570616964206d757374206e6f74206265206c6172676572207468616e207468652054726f766527732064656274426f72726f7765724f70733a2043616c6c6572206973206e6f742053746162696c69747920506f6f6c4d6178206665652070657263656e74616765206d757374206265206265747765656e20302e352520616e642031303025426f72726f7765724f70733a204465627420696e637265617365207265717569726573206e6f6e2d7a65726f20646562744368616e6765426f72726f7765724f70733a2043616e6e6f7420646563726561736520796f75722054726f766527732049435220696e205265636f76657279204d6f6465a26469706673582212204670431986e8f77619b9924dbce2305444643ee60cc49b94f6725de4b6f845e664736f6c634300060b0033608060405234801561001057600080fd5b50336000806101000a81548173ffffffffffffffffffffffffffffffffffffffff021916908373ffffffffffffffffffffffffffffffffffffffff1602179055503373ffffffffffffffffffffffffffffffffffffffff16600073ffffffffffffffffffffffffffffffffffffffff167f8be0079c531659141344cd1fd0a4f28419497f9722a3daafe3b4186f6b6457e060405160405180910390a3612497806100bb6000396000f3fe6080604052600436106100cc5760003560e01c806364a197f31161007a57806364a197f3146103e35780638da5cb5b1461043e5780638f32d59b14610495578063940a71bc146104c4578063a3f4df7e146104ff578063aac1846f1461058f578063b7f8cf9b146105e6578063cfb9329a1461063d576101b3565b80630b622ab2146101b857806314f6c3be1461020f57806338d995a81461023a57806343ce6e20146102755780634a945f8d146102b05780635a4d28bb146103615780635eb52fca146103b8576101b3565b366101b3576100fd7fbce7241d2ac0b3b4b114fa70bcd2d0b2148a1b6e5cd01b0ea31618360fa4ed1a60001b610678565b61010561067b565b6101317f91f21355f0374013c7dd00d3b86089fd084709db44e5bc821e4622c9d7ecd47e60001b610678565b6101463460055461085790919063ffffffff16565b6005819055506101787ffcbe5792c3ec1da1576a750893d46f0e9f250187d18e68274edc5e9a0134441c60001b610678565b7fca232b5abb988c540b959ff6c3bfae3e97fff964fd098c508f9613c0a6bf1a806005546040518082815260200191505060405180910390a1005b600080fd5b3480156101c457600080fd5b506101cd6108df565b604051808273ffffffffffffffffffffffffffffffffffffffff1673ffffffffffffffffffffffffffffffffffffffff16815260200191505060405180910390f35b34801561021b57600080fd5b50610224610905565b6040518082815260200191505060405180910390f35b34801561024657600080fd5b506102736004803603602081101561025d57600080fd5b8101908080359060200190929190505050610993565b005b34801561028157600080fd5b506102ae6004803603602081101561029857600080fd5b8101908080359060200190929190505050610678565b005b3480156102bc57600080fd5b5061035f600480360360808110156102d357600080fd5b81019080803573ffffffffffffffffffffffffffffffffffffffff169060200190929190803573ffffffffffffffffffffffffffffffffffffffff169060200190929190803573ffffffffffffffffffffffffffffffffffffffff169060200190929190803573ffffffffffffffffffffffffffffffffffffffff169060200190929190505050610b26565b005b34801561036d57600080fd5b50610376611306565b604051808273ffffffffffffffffffffffffffffffffffffffff1673ffffffffffffffffffffffffffffffffffffffff16815260200191505060405180910390f35b3480156103c457600080fd5b506103cd61132c565b6040518082815260200191505060405180910390f35b3480156103ef57600080fd5b5061043c6004803603604081101561040657600080fd5b81019080803573ffffffffffffffffffffffffffffffffffffffff169060200190929190803590602001909291905050506113ba565b005b34801561044a57600080fd5b506104536117f6565b604051808273ffffffffffffffffffffffffffffffffffffffff1673ffffffffffffffffffffffffffffffffffffffff16815260200191505060405180910390f35b3480156104a157600080fd5b506104aa61181f565b604051808215151515815260200191505060405180910390f35b3480156104d057600080fd5b506104fd600480360360208110156104e757600080fd5b8101908080359060200190929190505050611876565b005b34801561050b57600080fd5b50610514611879565b6040518080602001828103825283818151815260200191508051906020019080838360005b83811015610554578082015181840152602081019050610539565b50505050905090810190601f1680156105815780820380516001836020036101000a031916815260200191505b509250505060405180910390f35b34801561059b57600080fd5b506105a46118b2565b604051808273ffffffffffffffffffffffffffffffffffffffff1673ffffffffffffffffffffffffffffffffffffffff16815260200191505060405180910390f35b3480156105f257600080fd5b506105fb6118d8565b604051808273ffffffffffffffffffffffffffffffffffffffff1673ffffffffffffffffffffffffffffffffffffffff16815260200191505060405180910390f35b34801561064957600080fd5b506106766004803603602081101561066057600080fd5b81019080803590602001909291905050506118fe565b005b50565b6106a77fd5213ef1a15a5822b0f0ecab6d86a659b33937a6e9ddbfaaa77a6d121dab1f4060001b610678565b6106d37fa5035366198e0b5d3c1e5a904ecf0dfa0c5236e52b770eb1ac1a954494a5964c60001b610678565b6106ff7f934f6c02b245d04bd55557ffb655cd8b8ed5ed776454b373265b81321cee500a60001b610678565b61072b7f7a1ca07087e219a1f44a2315334e829d0cffd5299fa036a29056112cfdbefeb860001b610678565b600160009054906101000a900473ffffffffffffffffffffffffffffffffffffffff1673ffffffffffffffffffffffffffffffffffffffff163373ffffffffffffffffffffffffffffffffffffffff1614806107d45750600460009054906101000a900473ffffffffffffffffffffffffffffffffffffffff1673ffffffffffffffffffffffffffffffffffffffff163373ffffffffffffffffffffffffffffffffffffffff16145b610829576040517f08c379a00000000000000000000000000000000000000000000000000000000081526004018080602001828103825260318152602001806124316031913960400191505060405180910390fd5b6108557f69c4192c349bf05075ae5d9170ea9285da38487061ec8fa67c29107dc9472ed960001b610678565b565b6000808284019050838110156108d5576040517f08c379a000000000000000000000000000000000000000000000000000000000815260040180806020018281038252601b8152602001807f536166654d6174683a206164646974696f6e206f766572666c6f77000000000081525060200191505060405180910390fd5b8091505092915050565b600360009054906101000a900473ffffffffffffffffffffffffffffffffffffffff1681565b60006109337f99622271d231ca2ce3143507c63312eb18a5f620dc3a34630be2d60bb6ef62e060001b610678565b61095f7f7bae0c0ba90f2ec76a6f0adb388a97f27a819cb033dc1a4c843dcd0ad0446b8160001b610678565b61098b7f566f7c8065a03ada05591c08aa93f039d41a66b70585e4568daab0872931ccb860001b610678565b600554905090565b6109bf7fcc87d810f086d1252e866449fb996887f7980da78f47a4c0a700e3fb2579d9ff60001b610678565b6109eb7f46fa83d805646efa00616d9e8b7f1284691be3f0f92009928b84bbcdd7e752f360001b610678565b610a177f8c50f73bdc9b8cb214b95156bf11e74263c2f05d8c04ab25ab5f427be1b65e9760001b610678565b610a1f611a91565b610a4b7ff25b7ca79f9895b3ac23e049e4ea2659c4f7f30d1f16c11a2d94f0283cce00d660001b610678565b610a777f654886a6f815af08cda77652d5e3acca441d3fa915d1a5901c5701ad6424daf560001b610678565b610a8c81600654611cc490919063ffffffff16565b600681905550610abe7f45cf6ec535236631b52f5b8226b956639c11630838f7a04bb8b899c285daecbb60001b610678565b610aea7f4c23af2a2f45d2366b7145d15bb1b4bf5aacbaecacf186a7b3a09fbb1f95881060001b610678565b7f0d4c964e4ceac5d740869d39789a7b91888a787b9c33e9365b1a658a21ffb6966006546040518082815260200191505060405180910390a150565b610b2e61181f565b610ba0576040517f08c379a00000000000000000000000000000000000000000000000000000000081526004018080602001828103825260208152602001807f4f776e61626c653a2063616c6c6572206973206e6f7420746865206f776e657281525060200191505060405180910390fd5b610bcc7f2705cdedddf2069d436cae9e36309742cc1fa7173d4a7d0a28ee57383b11d5f560001b610678565b610bf87f94f23fab49f8a3f3c1c52afae41b6e132bd5a6ccb96769316c3492a842713bc760001b610678565b610c247ffe58ac1c41932ed88853dea0153bf1a254bc82c1f28e09bd15cdf33d7dafedec60001b610678565b610c2d84611d0e565b610c597fc5369003364c794163576924045abcc9f57046332149842cb596a6dcba2ac19160001b610678565b610c857f7abc84a21bd77870bffdea6c010dc3325c0b20cb5400647f45ec6664ce8afa2e60001b610678565b610c8e83611d0e565b610cba7ff82adc0d0e66c668a941326d5a7929f75e51ae021ee120dfedac5be9d6ca618c60001b610678565b610ce67f2e2730c95f66b17672e62bdedd5f534f3d7fe90cb6d2795f963f28ac11e739ba60001b610678565b610cef82611d0e565b610d1b7f1e1b1b863f0a9206fcd0d2af69c45a6adf28657384e3d094c45f5d10b1e98c5960001b610678565b610d477f078a55a729147f85ecf820b65b4d3b628d821cdf1507f080f4a5d435753dc7c160001b610678565b610d5081611d0e565b610d7c7fd688deafa640704a3e50248bdcadf5874015a8ed2daa9758649bb76eb7541fe560001b610678565b610da87f05c6ae1589ca0c2f12f5baa0836c891bc0f65c8fa34fcb0a7a8402c444c6c9dc60001b610678565b83600160006101000a81548173ffffffffffffffffffffffffffffffffffffffff021916908373ffffffffffffffffffffffffffffffffffffffff160217905550610e157fb0a001145ee984218eb8d22868e2681aa1e6ef8ef78fcb284d09a3f5e9ccd88960001b610678565b610e417f656ce00a57a1ff3a569b32482487d9d635f95e592562b20e56b3a25935c272de60001b610678565b82600260006101000a81548173ffffffffffffffffffffffffffffffffffffffff021916908373ffffffffffffffffffffffffffffffffffffffff160217905550610eae7f719ee7ff78c25bacd7fe999e15e8bad0539d8f4f809fe442601bace5126b50c860001b610678565b610eda7f599fd8abee0572d10328ca4bfe385ee96e17fcf783e46caac4b97012e06dcf8560001b610678565b81600360006101000a81548173ffffffffffffffffffffffffffffffffffffffff021916908373ffffffffffffffffffffffffffffffffffffffff160217905550610f477fe44ea5dc77789b3c3af90bb665ab89cd807c144a89fe059398b4bbe2994cd6eb60001b610678565b610f737fbca8cedab5058919ec4bb9bfb4ae96f7e05210dbe111761fc165758e2edf6d9d60001b610678565b80600460006101000a81548173ffffffffffffffffffffffffffffffffffffffff021916908373ffffffffffffffffffffffffffffffffffffffff160217905550610fe07f3987263dc2579831207185df4e2b2189f4be575760e9d39c2f7e1e7c014c99cc60001b610678565b61100c7fbd3ce981b0dbe6c26e517ee233d0c2b5506721f108007565aa4819ae1c5a793a60001b610678565b7f3ca631ffcd2a9b5d9ae18543fc82f58eb4ca33af9e6ab01b7a8e95331e6ed98584604051808273ffffffffffffffffffffffffffffffffffffffff1673ffffffffffffffffffffffffffffffffffffffff16815260200191505060405180910390a161109b7f1851cfb6c8b5e8fa73fe2083b8377b11f802e052abe270f06b0b31501226013560001b610678565b6110c77f3a0b08ebc93ec848135dda8e0cd4c900e3d0727538066146f9ef20b77bbc53b660001b610678565b7f143219c9e69b09e07e095fcc889b43d8f46ca892bba65f08dc3a0050869a567883604051808273ffffffffffffffffffffffffffffffffffffffff1673ffffffffffffffffffffffffffffffffffffffff16815260200191505060405180910390a16111567fbcff48d3c338cc0b1db96bdf817f2e0649a1cfe733b1e459861b69855893621e60001b610678565b6111827fa43361cfc0f13fa743e6d69be684593e89d313b8901051243470dffbd8d6cf4a60001b610678565b7f82966d27eea39b038ee0fa30cd16532bb24f6e65d31cb58fb227aa5766cdcc7f82604051808273ffffffffffffffffffffffffffffffffffffffff1673ffffffffffffffffffffffffffffffffffffffff16815260200191505060405180910390a16112117f7d79584bce1c1f625aa142bb954310fdb43c13c950fb4819d88ef60417e9f36860001b610678565b61123d7f496506001dc7cb547805b9df17abc7d862e6a64aa9a93e75568eb7524400a3ff60001b610678565b7f5ee0cae2f063ed938bb55046f6a932fb6ae792bf43624806bb90abe68a50be9b81604051808273ffffffffffffffffffffffffffffffffffffffff1673ffffffffffffffffffffffffffffffffffffffff16815260200191505060405180910390a16112cc7f3d1078f9f75118d4f15c909751340099e24e9004d802020b1e058a2518e41e9b60001b610678565b6112f87f53064a1fc807c60954a2c767f2e1c56474edeeab895a82daeed17b19d10137d560001b610678565b611300612041565b50505050565b600260009054906101000a900473ffffffffffffffffffffffffffffffffffffffff1681565b600061135a7f870d02cbbb0afae6512fe1ac17c48a7a0239bbd5d6a634702f9b170abe48f27960001b610678565b6113867fd71e6c8ca5ec30739dac418a03afcccb58bb87bf0e82d0653324863766cef1de60001b610678565b6113b27f858df9364f7edcc259981887f909c9800f9416a07fa0229d99ac457f8f21703860001b610678565b600654905090565b6113e67fa45cf796f907badfc28d6a9b6f68ffc2dea4ef188a3d2f80df601d69208008a960001b610678565b6114127fc93f78833bdae7930680908432bfdf2f733e37aa6fbcb9c09401bc9cd2c0553460001b610678565b61143e7f07af031dcb6d5787689a0030197ba7b0acc13c18ede16c542d9684348e4e0ba260001b610678565b611446611a91565b6114727fae1be17bd35d261bf82fdf8e337c97ebd23f7eda3f2ff9da4c3810a7c817e49460001b610678565b61149e7ff0a8e45853b5727e1156a6a8a0d72818f8bd2859d61c575c7376d8d41817d59e60001b610678565b6114b381600554611cc490919063ffffffff16565b6005819055506114e57f66aa165360ac37e68ae4f26187f16e1ff5788ef3f95b2a4c367b25ce8d5239f460001b610678565b6115117f68dd0df2f647b7c7cf7f8df9a9f265bade7e7a1ecad702bb373c5c59e8091d2960001b610678565b7fca232b5abb988c540b959ff6c3bfae3e97fff964fd098c508f9613c0a6bf1a806005546040518082815260200191505060405180910390a16115767fc6ab8fd6506af98247783b7a467de7d8dac9740e8288cfd3bddfabe42c73f5b960001b610678565b6115a27f97aea50caa0e6263954378c33ccb5de8fb8a79da8f3ca83742637fbcd00bd20c60001b610678565b7f6109e2559dfa766aaec7118351d48a523f0a4157f49c8d68749c8ac41318ad128282604051808373ffffffffffffffffffffffffffffffffffffffff1673ffffffffffffffffffffffffffffffffffffffff1681526020018281526020019250505060405180910390a16116397fa8e16fe2000ea3b8ced816fe75c4dc905bed377e99a75df6af958c4e8d69529060001b610678565b6116657f294e8ea06f2d0a072befb7082b8e3fec8d866dc9182ede73f936fe62b0c7d2ad60001b610678565b60008273ffffffffffffffffffffffffffffffffffffffff168260405180600001905060006040518083038185875af1925050503d80600081146116c5576040519150601f19603f3d011682016040523d82523d6000602084013e6116ca565b606091505b505090506116fa7f46efc66217126d7aa10a93cc328b4eb638850bac4ec8fe0a6c88ac1fb98b9a2d60001b610678565b6117267f810f320457832b9392587088495a41db7d1d87d99726a30a1a7f1abd3383278560001b610678565b6117527fcc80181fb8e77f2a9a0e5f19598e3bf77e74640e64d61c6b7cc1d5d47effb02360001b610678565b806117c5576040517f08c379a000000000000000000000000000000000000000000000000000000000815260040180806020018281038252601e8152602001807f416374697665506f6f6c3a2073656e64696e6720455448206661696c6564000081525060200191505060405180910390fd5b6117f17f4a4ba0ea390731c74d7cc5ad0b7943514efc667913ca9bd615a44e8564e4094260001b610678565b505050565b60008060009054906101000a900473ffffffffffffffffffffffffffffffffffffffff16905090565b60008060009054906101000a900473ffffffffffffffffffffffffffffffffffffffff1673ffffffffffffffffffffffffffffffffffffffff163373ffffffffffffffffffffffffffffffffffffffff1614905090565b50565b6040518060400160405280600a81526020017f416374697665506f6f6c0000000000000000000000000000000000000000000081525081565b600460009054906101000a900473ffffffffffffffffffffffffffffffffffffffff1681565b600160009054906101000a900473ffffffffffffffffffffffffffffffffffffffff1681565b61192a7f46aceae5d9cb4b6b2035cea63691241dcf7d35c403951b14dc46e54b110b886760001b610678565b6119567f07bce0db4e68378871fd572cdb85e808dd0ac1cb5e09400d238e9bc681fbd06960001b610678565b6119827fcc7481c0e70946f8fc440b9c6304d8abf0e8cc8d0c0fc76a69811a6619f14e9060001b610678565b61198a612100565b6119b67ffde220aa81c57d33cede8d5d5c456bb57a4a6e14980820c14e63373e0eb3ba9860001b610678565b6119e27f68c2870ded2d719a01f8d7098f14950a8e69bddef073c1a3f44f7c92259a1eed60001b610678565b6119f78160065461085790919063ffffffff16565b600681905550611a297f27baacb11f983aefa158d73f07fa07f4189b4ebe89bdbb6e44bf16849d55f66f60001b610678565b611a557f32bf606e5e9935895d50cdedc9c73cff630d2465c03a2d0cb3ee39537967683660001b610678565b7f0d4c964e4ceac5d740869d39789a7b91888a787b9c33e9365b1a658a21ffb6966006546040518082815260200191505060405180910390a150565b611abc7e9dd1f9719cb11b38c4cc80f6d97ee58731a22a17d2c8d97f29a895d7d4be1660001b610678565b611ae87f0469fc78012257491afe9d3d36e0c3977c578db059f8ee29b8e987b48177fb5560001b610678565b611b147fb831c5e8a1242c9d57d2808de0dad77fcaf8cd1d4d89f614beecdd03c4a03e4560001b610678565b611b407fa5e0e76fe8f141a194b0d6ebfb150daa9b4b9de18a365780bf353fda19a3190160001b610678565b600160009054906101000a900473ffffffffffffffffffffffffffffffffffffffff1673ffffffffffffffffffffffffffffffffffffffff163373ffffffffffffffffffffffffffffffffffffffff161480611be95750600260009054906101000a900473ffffffffffffffffffffffffffffffffffffffff1673ffffffffffffffffffffffffffffffffffffffff163373ffffffffffffffffffffffffffffffffffffffff16145b80611c415750600360009054906101000a900473ffffffffffffffffffffffffffffffffffffffff1673ffffffffffffffffffffffffffffffffffffffff163373ffffffffffffffffffffffffffffffffffffffff16145b611c96576040517f08c379a00000000000000000000000000000000000000000000000000000000081526004018080602001828103825260538152602001806123de6053913960600191505060405180910390fd5b611cc27fc715998d588868ff7ea1bce18d715587ddfea4275b9c04aa566ebac9a909838c60001b610678565b565b6000611d0683836040518060400160405280601e81526020017f536166654d6174683a207375627472616374696f6e206f766572666c6f7700008152506122dc565b905092915050565b611d3a7f35bc9e5e61c1438a006153cf69ffd6105766a3055440d22f6c8ce219146d68af60001b611876565b611d667fe66c045f45b868efda896f2af22ed71637a4e9e8d13a2b1962badf362ba3eeb960001b611876565b611d927faaa4b517f253b4fa37cb2875514a22e04e7d5828c244c7095a27e85408ccd12c60001b611876565b611dbe7f1221da0bd0f16fcbee175d4dae7d6b598e327e79264e77ced4c93a6a0721871b60001b611876565b600073ffffffffffffffffffffffffffffffffffffffff168173ffffffffffffffffffffffffffffffffffffffff161415611e61576040517f08c379a000000000000000000000000000000000000000000000000000000000815260040180806020018281038252601e8152602001807f4163636f756e742063616e6e6f74206265207a65726f2061646472657373000081525060200191505060405180910390fd5b611e8d7f09f0dc62d572b9e8dd242a1b7e25c3c5de1610d6c480bec35912dd5840f55fec60001b611876565b611eb97fbe74447fdea037b64141768df2430eb2b7113bef949c88d88dcdc549ba88703360001b611876565b611ee57f04e66872d3f4c69728dfe545a06401e1b17e0f9dd5e1d43290514ae4fd92783060001b611876565b6000611f137f60826eea4af75abd2223d108cb037485a60c485e699a12a42cac24982b89800660001b611876565b813b9050611f437f7acec79ba6fd0be7bb4b2bfca56ca8eb3d8333d64e828971ccb7647facc3806360001b611876565b611f6f7f0c7e0405db301404f844860b9fe6e14e956a97134ff8695c88184f1c957d6e0860001b611876565b611f9b7f1c5a94c5a5d640e17d84bedbf9409c7f8afe563c4b1fceef7bced5961764ee0f60001b611876565b60008111612011576040517f08c379a00000000000000000000000000000000000000000000000000000000081526004018080602001828103825260208152602001807f4163636f756e7420636f64652073697a652063616e6e6f74206265207a65726f81525060200191505060405180910390fd5b61203d7f1023f03b6261b194c29dee3596b0d25a3be14b60910a1d249d0177db54f54c4a60001b611876565b5050565b600073ffffffffffffffffffffffffffffffffffffffff166000809054906101000a900473ffffffffffffffffffffffffffffffffffffffff1673ffffffffffffffffffffffffffffffffffffffff167f8be0079c531659141344cd1fd0a4f28419497f9722a3daafe3b4186f6b6457e060405160405180910390a360008060006101000a81548173ffffffffffffffffffffffffffffffffffffffff021916908373ffffffffffffffffffffffffffffffffffffffff160217905550565b61212c7f14f3185c79c4c73d62e8426c8e1f0ea3f7abd65401b52de5bcc8e64832c7d9f360001b610678565b6121587f78812cd077ab3079b65a5f6f0cb47956428b2fe2ac622323b7a5f7671ceb8ae160001b610678565b6121847f140fb738c750888916a30e9badc26361d6fdbf0dcf6186f3aec73dc6b64b156c60001b610678565b6121b07f9ff8730b2b1cbcab1455558976a349196d95a5c16cd69ad1ae7b87ed5db9e6e760001b610678565b600160009054906101000a900473ffffffffffffffffffffffffffffffffffffffff1673ffffffffffffffffffffffffffffffffffffffff163373ffffffffffffffffffffffffffffffffffffffff1614806122595750600260009054906101000a900473ffffffffffffffffffffffffffffffffffffffff1673ffffffffffffffffffffffffffffffffffffffff163373ffffffffffffffffffffffffffffffffffffffff16145b6122ae576040517f08c379a000000000000000000000000000000000000000000000000000000000815260040180806020018281038252604181526020018061239d6041913960600191505060405180910390fd5b6122da7f613aa320554b7ed76f48bbc973af5429645a80caa0c64f055733e8ab4f41e49360001b610678565b565b6000838311158290612389576040517f08c379a00000000000000000000000000000000000000000000000000000000081526004018080602001828103825283818151815260200191508051906020019080838360005b8381101561234e578082015181840152602081019050612333565b50505050905090810190601f16801561237b5780820380516001836020036101000a031916815260200191505b509250505060405180910390fd5b506000838503905080915050939250505056fe416374697665506f6f6c3a2043616c6c6572206973206e65697468657220426f72726f7765724f7065726174696f6e73206e6f722054726f76654d616e61676572416374697665506f6f6c3a2043616c6c6572206973206e65697468657220426f72726f7765724f7065726174696f6e73206e6f722054726f76654d616e61676572206e6f722053746162696c697479506f6f6c416374697665506f6f6c3a2043616c6c6572206973206e65697468657220424f206e6f722044656661756c7420506f6f6ca2646970667358221220689fa567a541eaf7875c6e08935a973e1edbdaaa9296f2dc1148f266af47aab864736f6c634300060b0033608060405234801561001057600080fd5b50336000806101000a81548173ffffffffffffffffffffffffffffffffffffffff021916908373ffffffffffffffffffffffffffffffffffffffff1602179055503373ffffffffffffffffffffffffffffffffffffffff16600073ffffffffffffffffffffffffffffffffffffffff167f8be0079c531659141344cd1fd0a4f28419497f9722a3daafe3b4186f6b6457e060405160405180910390a3611ce5806100bb6000396000f3fe6080604052600436106100b65760003560e01c806390107afe1161006f57806390107afe14610310578063913a454b14610381578063940a71bc146103bc578063a3f4df7e146103f7578063b08bc72214610487578063be41205f146104de578063cfb9329a146105195761019d565b806314f6c3be146101a257806338d995a8146101cd5780635a4d28bb146102085780635eb52fca1461025f5780638da5cb5b1461028a5780638f32d59b146102e15761019d565b3661019d576100e77f9277f5854a2aa0b8aa1f709b35dbc227e643e3766977d47d462b1388f17e26ce60001b610554565b6100ef610557565b61011b7f44770a84818f351efd28aa9a3490a65c47515697027e59f58b972a188df5757d60001b610554565b610130346003546106db90919063ffffffff16565b6003819055506101627f92667a010096c4c86192459d24075342c9c874f8cbf13a2be5375bafd6393f8560001b610554565b7f9a14ae677a60400af9176bed2e2d5ce8dfa6405e6c1702debb27668f567214286003546040518082815260200191505060405180910390a1005b600080fd5b3480156101ae57600080fd5b506101b7610763565b6040518082815260200191505060405180910390f35b3480156101d957600080fd5b50610206600480360360208110156101f057600080fd5b81019080803590602001909291905050506107f1565b005b34801561021457600080fd5b5061021d610984565b604051808273ffffffffffffffffffffffffffffffffffffffff1673ffffffffffffffffffffffffffffffffffffffff16815260200191505060405180910390f35b34801561026b57600080fd5b506102746109aa565b6040518082815260200191505060405180910390f35b34801561029657600080fd5b5061029f610a38565b604051808273ffffffffffffffffffffffffffffffffffffffff1673ffffffffffffffffffffffffffffffffffffffff16815260200191505060405180910390f35b3480156102ed57600080fd5b506102f6610a61565b604051808215151515815260200191505060405180910390f35b34801561031c57600080fd5b5061037f6004803603604081101561033357600080fd5b81019080803573ffffffffffffffffffffffffffffffffffffffff169060200190929190803573ffffffffffffffffffffffffffffffffffffffff169060200190929190505050610ab8565b005b34801561038d57600080fd5b506103ba600480360360208110156103a457600080fd5b8101908080359060200190929190505050610554565b005b3480156103c857600080fd5b506103f5600480360360208110156103df57600080fd5b8101908080359060200190929190505050610f2c565b005b34801561040357600080fd5b5061040c610f2f565b6040518080602001828103825283818151815260200191508051906020019080838360005b8381101561044c578082015181840152602081019050610431565b50505050905090810190601f1680156104795780820380516001836020036101000a031916815260200191505b509250505060405180910390f35b34801561049357600080fd5b5061049c610f68565b604051808273ffffffffffffffffffffffffffffffffffffffff1673ffffffffffffffffffffffffffffffffffffffff16815260200191505060405180910390f35b3480156104ea57600080fd5b506105176004803603602081101561050157600080fd5b8101908080359060200190929190505050610f8e565b005b34801561052557600080fd5b506105526004803603602081101561053c57600080fd5b8101908080359060200190929190505050611448565b005b50565b6105837f85277b1257bb63d55d7deb07d150b08ffe22760d9c3c35ab639101c02ff1e08c60001b610554565b6105af7f71376552617d70254a35168f04bfac8fd36b5e52b37961b3e961fb0605ea626260001b610554565b6105db7f0869f723b7320a36df1470bcd988e224f6dffe5583728a833d720a319616556a60001b610554565b6106077f078bbaefa1adc76f98b2c16b5add6d72b653057bcfb2df26c77cb1913dbb674660001b610554565b600260009054906101000a900473ffffffffffffffffffffffffffffffffffffffff1673ffffffffffffffffffffffffffffffffffffffff163373ffffffffffffffffffffffffffffffffffffffff16146106ad576040517f08c379a0000000000000000000000000000000000000000000000000000000008152600401808060200182810382526029815260200180611c5c6029913960400191505060405180910390fd5b6106d97f587a68542e354a39f3d2034b367c16673e3c6ecfdb3b2d597d91c4acaee2340760001b610554565b565b600080828401905083811015610759576040517f08c379a000000000000000000000000000000000000000000000000000000000815260040180806020018281038252601b8152602001807f536166654d6174683a206164646974696f6e206f766572666c6f77000000000081525060200191505060405180910390fd5b8091505092915050565b60006107917f9b16db5c0775d9f6f4bc906953a75fe817c8255f2f82f8c454df71a76f40ddbe60001b610554565b6107bd7f433a700adc587438846c7f11cb2b1db08992571affa4d3b39fe8be6d24022a4860001b610554565b6107e97f1a448a22cf12ca2839810c4c55d157a2226bbe7c4a4b234c50837137c74e957a60001b610554565b600354905090565b61081d7fb7660c648281d027f21c2aac8b31cb40d5b606b7d4d9d2b374691f20ee3b3ab760001b610554565b6108497f1e06857a062910ac04929c6b6cae16784528ad3e964cbde2b7cdc1cfed4f347460001b610554565b6108757fa2c102ca8e70e3ba9bcac6562386c471e7bea0d72049d110bd2e4fe25510dff860001b610554565b61087d6115db565b6108a97f450d4396d6d5eeeb77d0ba1c00276a76246a20937689a7b4b8dce1d7cc93998560001b610554565b6108d57f9965ad8880b3923f90b28b666c629f40f2e6cb08ef179484ddaaa154e6efced860001b610554565b6108ea8160045461175f90919063ffffffff16565b60048190555061091c7fb5fc23a5fd3fa708b44fdef27088fd02582a464fa1640ab0d2aab0767292eb2860001b610554565b6109487f592619d5e305628636237512d57d4df1ded635b2e52db3207b18e89d3dc0e5a960001b610554565b7f7735d8b9c0814a13884384c73ec31633f708b4b920b2158764c6b306541341256004546040518082815260200191505060405180910390a150565b600160009054906101000a900473ffffffffffffffffffffffffffffffffffffffff1681565b60006109d87f249192ef34e034bf7a90c7c6251f289cde8823d78b0382992893c0287b0cab4360001b610554565b610a047f4c18e0112da0716ebf845e95219f895afbc8690fd4a46eb8629770aaa445196f60001b610554565b610a307f754e4467163c33af70244545227989b4899a2510dfacf54e0556b09f2af1811460001b610554565b600454905090565b60008060009054906101000a900473ffffffffffffffffffffffffffffffffffffffff16905090565b60008060009054906101000a900473ffffffffffffffffffffffffffffffffffffffff1673ffffffffffffffffffffffffffffffffffffffff163373ffffffffffffffffffffffffffffffffffffffff1614905090565b610ac0610a61565b610b32576040517f08c379a00000000000000000000000000000000000000000000000000000000081526004018080602001828103825260208152602001807f4f776e61626c653a2063616c6c6572206973206e6f7420746865206f776e657281525060200191505060405180910390fd5b610b5e7f9e89f58998ef2fc1e241d492f1a00f80cda9e87f31873f7aa9e31ab454d5d4fa60001b610554565b610b8a7f90b3416e1b0fe3a72902bfe147fc7c4f8721b2f6d6d36d002a9fce0592a296ba60001b610554565b610bb67fad4bc10a978af68781ef1be4dba860ea5499261bcc8c49e898878de1c0d942c660001b610554565b610bbf826117a9565b610beb7f7ff6f2f2dfcc8a1ceb91a5d1bf96161b05be3c042a59952376b8875fbb638f6360001b610554565b610c177f7b709db64dd888e85decc30aeebc0284efb560871d2ed2a6e37ae9bacbc9f05560001b610554565b610c20816117a9565b610c4c7fdaab520e82c552fc98b1f92742fcc8351a1d1a205d9941ed2d03a572d856eded60001b610554565b610c787f26eed757e391a0d64f00142226519996758b519c9a30e812f3c0dd563ebd98e760001b610554565b81600160006101000a81548173ffffffffffffffffffffffffffffffffffffffff021916908373ffffffffffffffffffffffffffffffffffffffff160217905550610ce57f1c131da668b63add39317e28f26fbf86cbb3cbb476bc591f8f0a3a4a38097a0060001b610554565b610d117fabf42de6aa9baa8a14b48cc9385914ad1dc6b078a4dd41f5a584d3de09eb186260001b610554565b80600260006101000a81548173ffffffffffffffffffffffffffffffffffffffff021916908373ffffffffffffffffffffffffffffffffffffffff160217905550610d7e7fb47bfe1da1c06a7e1ca8bc133c55936cdf43d33fe176f206cb3cc5e677ddc83b60001b610554565b610daa7f3ffab8a4251af1a968a3ab6919f51b389ccf595513083ec96b4da8cfd831d78a60001b610554565b7f143219c9e69b09e07e095fcc889b43d8f46ca892bba65f08dc3a0050869a567882604051808273ffffffffffffffffffffffffffffffffffffffff1673ffffffffffffffffffffffffffffffffffffffff16815260200191505060405180910390a1610e397f42c2c1572082fc1636203f840f0ac64c23521b660663716f66cae8fa6b4ba78560001b610554565b610e657f274d9b21ad1cc911557043ed9592bcad7e828b0b14ae60425623b3cb5854ce3660001b610554565b7f78f058b189175430c48dc02699e3a0031ea4ff781536dc2fab847de4babdd88281604051808273ffffffffffffffffffffffffffffffffffffffff1673ffffffffffffffffffffffffffffffffffffffff16815260200191505060405180910390a1610ef47fda8813b9390af842adf637f058c13f743511eedcda33e3ffb731f99cbf313f5b60001b610554565b610f207f56ac99821038c79c68d0b076d7d659c696d3437a3013a1918a841e4b3df9316860001b610554565b610f28611adc565b5050565b50565b6040518060400160405280600b81526020017f44656661756c74506f6f6c00000000000000000000000000000000000000000081525081565b600260009054906101000a900473ffffffffffffffffffffffffffffffffffffffff1681565b610fba7fad38cf124179e4ab4c02c80daf78701ed6cc46ed68c8b04b1d548b772e5c196860001b610554565b610fe67f30d3b2ec4accdd91c2525030a68b6ea3d9f648d097e56b939012485d99e13ec160001b610554565b6110127f460f9c5dfe2e097efdd96c25dda60ff63526cad8e410b3cfb815712ea3f929c560001b610554565b61101a6115db565b6110467fae4a214d3d2d5b2041d2fb7939087efbbe551f4e08344b717f500c50e49caee460001b610554565b6110727f24b6f702067dcfd013299001d09576223bb311c5175eacb539a54b1c87bae04560001b610554565b6000600260009054906101000a900473ffffffffffffffffffffffffffffffffffffffff1690506110c57f42512a73d7c841f7eeea60f19cf356b61bdb099d4ab85a9efb687609a9b1390360001b610554565b6110f17f0f9bef608e508ba478a40c7cf9f9ce05ffb18fcc9e43749133eaa944fcb1b13e60001b610554565b6111068260035461175f90919063ffffffff16565b6003819055506111387f9c47afd80ccd85b8b88af8682fd7a72c86ea5d88b39ed8ab3909b6e2cec845b260001b610554565b6111647f2783a4ac043797b6f96f49f71d23b151139837abce15614c2677c7029f5688b660001b610554565b7f9a14ae677a60400af9176bed2e2d5ce8dfa6405e6c1702debb27668f567214286003546040518082815260200191505060405180910390a16111c97f352e4d6b4a3234584d0a6b5fbf847945cf115f803381050e47655092a777a8a160001b610554565b6111f57fe9c3fa2576576103fdb36ee7c4be5957734a694d26dbcd7ef8009b6f503cf8db60001b610554565b7f6109e2559dfa766aaec7118351d48a523f0a4157f49c8d68749c8ac41318ad128183604051808373ffffffffffffffffffffffffffffffffffffffff1673ffffffffffffffffffffffffffffffffffffffff1681526020018281526020019250505060405180910390a161128c7f04f1fc10d740bb36604beb8d6d70cadf02013ac4b89e5713e7f6cd2a3bce01c360001b610554565b6112b77ed574190c9605ba71ebba37ceb6f1daf2a4bcde4ebb447cfeeeeff1391f7e0660001b610554565b60008173ffffffffffffffffffffffffffffffffffffffff168360405180600001905060006040518083038185875af1925050503d8060008114611317576040519150601f19603f3d011682016040523d82523d6000602084013e61131c565b606091505b5050905061134c7f0868be36cdacdda1a66b1b45e77817b48c2213bcc5bac6ffbe13a7d826b4a8e160001b610554565b6113787fee52c4967bf4b0337024f24a7599665e17789dfd79037a30f6a2fb50aad9177a60001b610554565b6113a47f056875b8298844f4167e8a38801cf393057e2e64432e01aa4d7a0578fe61ab7160001b610554565b80611417576040517f08c379a000000000000000000000000000000000000000000000000000000000815260040180806020018281038252601f8152602001807f44656661756c74506f6f6c3a2073656e64696e6720455448206661696c65640081525060200191505060405180910390fd5b6114437fe921ce10e8acee734ad9f33d8d16d9b6bc54f88338431d3f927c7b369a07813460001b610554565b505050565b6114747f6b1c274bf88c27e255a3950e1ef859155983443b4ad4dfef215e13a0c091240960001b610554565b6114a07f95b8edd3e789757fab6bf104d4900561be105179207bccd8f2de60ea1097a79260001b610554565b6114cc7f0df6f4c182150b7b5c8084a83b0b296550a5837c9d9a480a746f7b7c47b4ef8060001b610554565b6114d46115db565b6115007fa876091106d37d79e214670b66cba12f4f2f5a3bd6015d52b76add66be9b317660001b610554565b61152c7fe1eaef820e7e8979aa33bd7bf939bed9a622df7b0a8d3fe970e2e8985f29f86860001b610554565b611541816004546106db90919063ffffffff16565b6004819055506115737f54505f003325d1aa0f67cf1c68ee76fff28062f71be0a6ba76278a379916499c60001b610554565b61159f7f4ddbc00b4c9b191333c4ff4b923c26cb999e7a645dc1a83617af464de46feb4d60001b610554565b7f7735d8b9c0814a13884384c73ec31633f708b4b920b2158764c6b306541341256004546040518082815260200191505060405180910390a150565b6116077ffe8d11e9b706a19764d27d4fc1320e2fa72a7cd809ba320244cea7d4b3f280a360001b610554565b6116337fbd2601827d217d83251f569563d15fa15b64d184047fcc885da1593a13e2b78760001b610554565b61165f7fef3d028fcccf93af37b8f88fd3f20f00146504d96147557ed93c6b7b0a3747b160001b610554565b61168b7f1ab225aaa4bc28408c4ea11598679077e7d71f56b7c532be1b97a2ff43907c2b60001b610554565b600160009054906101000a900473ffffffffffffffffffffffffffffffffffffffff1673ffffffffffffffffffffffffffffffffffffffff163373ffffffffffffffffffffffffffffffffffffffff1614611731576040517f08c379a000000000000000000000000000000000000000000000000000000000815260040180806020018281038252602b815260200180611c85602b913960400191505060405180910390fd5b61175d7fc9e623cf962dcbd3f28bec181e7757f667172ad6ae4f6f9c353d674db9ed420860001b610554565b565b60006117a183836040518060400160405280601e81526020017f536166654d6174683a207375627472616374696f6e206f766572666c6f770000815250611b9b565b905092915050565b6117d57f35bc9e5e61c1438a006153cf69ffd6105766a3055440d22f6c8ce219146d68af60001b610f2c565b6118017fe66c045f45b868efda896f2af22ed71637a4e9e8d13a2b1962badf362ba3eeb960001b610f2c565b61182d7faaa4b517f253b4fa37cb2875514a22e04e7d5828c244c7095a27e85408ccd12c60001b610f2c565b6118597f1221da0bd0f16fcbee175d4dae7d6b598e327e79264e77ced4c93a6a0721871b60001b610f2c565b600073ffffffffffffffffffffffffffffffffffffffff168173ffffffffffffffffffffffffffffffffffffffff1614156118fc576040517f08c379a000000000000000000000000000000000000000000000000000000000815260040180806020018281038252601e8152602001807f4163636f756e742063616e6e6f74206265207a65726f2061646472657373000081525060200191505060405180910390fd5b6119287f09f0dc62d572b9e8dd242a1b7e25c3c5de1610d6c480bec35912dd5840f55fec60001b610f2c565b6119547fbe74447fdea037b64141768df2430eb2b7113bef949c88d88dcdc549ba88703360001b610f2c565b6119807f04e66872d3f4c69728dfe545a06401e1b17e0f9dd5e1d43290514ae4fd92783060001b610f2c565b60006119ae7f60826eea4af75abd2223d108cb037485a60c485e699a12a42cac24982b89800660001b610f2c565b813b90506119de7f7acec79ba6fd0be7bb4b2bfca56ca8eb3d8333d64e828971ccb7647facc3806360001b610f2c565b611a0a7f0c7e0405db301404f844860b9fe6e14e956a97134ff8695c88184f1c957d6e0860001b610f2c565b611a367f1c5a94c5a5d640e17d84bedbf9409c7f8afe563c4b1fceef7bced5961764ee0f60001b610f2c565b60008111611aac576040517f08c379a00000000000000000000000000000000000000000000000000000000081526004018080602001828103825260208152602001807f4163636f756e7420636f64652073697a652063616e6e6f74206265207a65726f81525060200191505060405180910390fd5b611ad87f1023f03b6261b194c29dee3596b0d25a3be14b60910a1d249d0177db54f54c4a60001b610f2c565b5050565b600073ffffffffffffffffffffffffffffffffffffffff166000809054906101000a900473ffffffffffffffffffffffffffffffffffffffff1673ffffffffffffffffffffffffffffffffffffffff167f8be0079c531659141344cd1fd0a4f28419497f9722a3daafe3b4186f6b6457e060405160405180910390a360008060006101000a81548173ffffffffffffffffffffffffffffffffffffffff021916908373ffffffffffffffffffffffffffffffffffffffff160217905550565b6000838311158290611c48576040517f08c379a00000000000000000000000000000000000000000000000000000000081526004018080602001828103825283818151815260200191508051906020019080838360005b83811015611c0d578082015181840152602081019050611bf2565b50505050905090810190601f168015611c3a5780820380516001836020036101000a031916815260200191505b509250505060405180910390fd5b506000838503905080915050939250505056fe44656661756c74506f6f6c3a2043616c6c6572206973206e6f742074686520416374697665506f6f6c44656661756c74506f6f6c3a2043616c6c6572206973206e6f74207468652054726f76654d616e61676572a2646970667358221220ee61d8eac98cd1dcee06765bbeac526979b228c75edf618ee7ebed3291f47f8464736f6c634300060b00336080604052670de0b6b3a76400006010553480156200001d57600080fd5b5033600360006101000a81548173ffffffffffffffffffffffffffffffffffffffff021916908373ffffffffffffffffffffffffffffffffffffffff1602179055503373ffffffffffffffffffffffffffffffffffffffff16600073ffffffffffffffffffffffffffffffffffffffff167f8be0079c531659141344cd1fd0a4f28419497f9722a3daafe3b4186f6b6457e060405160405180910390a361e96080620000ca6000396000f3fe6080604052600436106102c35760003560e01c806382e0a57411610170578063ae918754116100cc578063df9cd84f11610085578063df9cd84f14611122578063e443557014611187578063eaa8ba7f146111c2578063f5f1595d146112d3578063f92d343314611338578063fc7e286d14611363578063fda0101a146113fb576103aa565b8063ae91875414610f8e578063b83f91a214610fe5578063ce4b5bbe1461103c578063cef941e814611067578063d4ca057514611092578063d7fb0443146110f7576103aa565b8063940a71bc11610129578063940a71bc14610d5757806395fb16bb14610d925780639bf2f1ac14610de9578063a20baee614610e14578063a3f4df7e14610e3f578063a4e59ac814610ecf578063a7bfff9714610f1e576103aa565b806382e0a57414610b3557806386da082414610bb2578063887105d314610c7b5780638b8fbd9214610ca65780638da5cb5b14610cd15780638f32d59b14610d28576103aa565b80634870dd9a1161021f57806372fe25aa116101d857806372fe25aa14610960578063741bef1a1461098b57806376671808146109e257806377553ad414610a31578063794e572414610a88578063795d26c314610ab35780637f7dde4a14610ade576103aa565b80634870dd9a146107e4578063538153ca1461080f578063556be1011461083a5780635733d58f146108755780635d2de642146108a05780635f788d6514610905576103aa565b80632e86bbd81161027c5780632e86bbd8146105eb578063335525ad1461061657806334c6e4921461065b578063389e92a5146106965780633cc74225146106fb5780633d83908a14610752578063400c1bec146107a9576103aa565b806314f6c3be146103af57806316b9d3c5146103da5780631bf43555146104a35780631cdc4700146104ce57806328a0a04d146105335780632e54bf95146105b0576103aa565b366103aa576102f47f873a1990df6cf7d180ee7f36753afc7d0ab987666ccdfbbc97c731f1a8dc7ce960001b61146c565b6102fc61146f565b6103287f2d55120ef40e07c8eaef0768c2ef14015f06aca80225a62af33ee8d83aad2dec60001b61146c565b61033d346009546115f290919063ffffffff16565b60098190555061036f7f22d7f0110dcf04d6e6cd8f49f76d4b3e20f68765ee5a6399941ef26450ead77e60001b61146c565b7fceb6d671277d4354fd29977ada70695fbd93a16612abf765d6b0e25c28dc6db36009546040518082815260200191505060405180910390a1005b600080fd5b3480156103bb57600080fd5b506103c461167a565b6040518082815260200191505060405180910390f35b3480156103e657600080fd5b50610429600480360360208110156103fd57600080fd5b81019080803573ffffffffffffffffffffffffffffffffffffffff169060200190929190505050611708565b60405180868152602001858152602001848152602001836fffffffffffffffffffffffffffffffff166fffffffffffffffffffffffffffffffff168152602001826fffffffffffffffffffffffffffffffff166fffffffffffffffffffffffffffffffff1681526020019550505050505060405180910390f35b3480156104af57600080fd5b506104b8611776565b6040518082815260200191505060405180910390f35b3480156104da57600080fd5b5061051d600480360360208110156104f157600080fd5b81019080803573ffffffffffffffffffffffffffffffffffffffff169060200190929190505050611783565b6040518082815260200191505060405180910390f35b34801561053f57600080fd5b5061059a6004803603604081101561055657600080fd5b8101908080356fffffffffffffffffffffffffffffffff16906020019092919080356fffffffffffffffffffffffffffffffff169060200190929190505050611b67565b6040518082815260200191505060405180910390f35b3480156105bc57600080fd5b506105e9600480360360208110156105d357600080fd5b8101908080359060200190929190505050611b8c565b005b3480156105f757600080fd5b50610600612650565b6040518082815260200191505060405180910390f35b34801561062257600080fd5b506106596004803603604081101561063957600080fd5b81019080803590602001909291908035906020019092919050505061265d565b005b34801561066757600080fd5b506106946004803603602081101561067e57600080fd5b81019080803590602001909291905050506129f7565b005b3480156106a257600080fd5b506106e5600480360360208110156106b957600080fd5b81019080803573ffffffffffffffffffffffffffffffffffffffff1690602001909291905050506129fa565b6040518082815260200191505060405180910390f35b34801561070757600080fd5b50610710612dde565b604051808273ffffffffffffffffffffffffffffffffffffffff1673ffffffffffffffffffffffffffffffffffffffff16815260200191505060405180910390f35b34801561075e57600080fd5b50610767612e04565b604051808273ffffffffffffffffffffffffffffffffffffffff1673ffffffffffffffffffffffffffffffffffffffff16815260200191505060405180910390f35b3480156107b557600080fd5b506107e2600480360360208110156107cc57600080fd5b8101908080359060200190929190505050612e2a565b005b3480156107f057600080fd5b506107f9612e2d565b6040518082815260200191505060405180910390f35b34801561081b57600080fd5b50610824612e32565b6040518082815260200191505060405180910390f35b34801561084657600080fd5b506108736004803603602081101561085d57600080fd5b8101908080359060200190929190505050612e38565b005b34801561088157600080fd5b5061088a613182565b6040518082815260200191505060405180910390f35b3480156108ac57600080fd5b506108ef600480360360208110156108c357600080fd5b81019080803573ffffffffffffffffffffffffffffffffffffffff16906020019092919050505061318e565b6040518082815260200191505060405180910390f35b34801561091157600080fd5b5061095e6004803603604081101561092857600080fd5b8101908080359060200190929190803573ffffffffffffffffffffffffffffffffffffffff1690602001909291905050506131a6565b005b34801561096c57600080fd5b50610975613cc9565b6040518082815260200191505060405180910390f35b34801561099757600080fd5b506109a0613cd5565b604051808273ffffffffffffffffffffffffffffffffffffffff1673ffffffffffffffffffffffffffffffffffffffff16815260200191505060405180910390f35b3480156109ee57600080fd5b506109f7613cfb565b60405180826fffffffffffffffffffffffffffffffff166fffffffffffffffffffffffffffffffff16815260200191505060405180910390f35b348015610a3d57600080fd5b50610a46613d1d565b604051808273ffffffffffffffffffffffffffffffffffffffff1673ffffffffffffffffffffffffffffffffffffffff16815260200191505060405180910390f35b348015610a9457600080fd5b50610a9d613d43565b6040518082815260200191505060405180910390f35b348015610abf57600080fd5b50610ac8613d4f565b6040518082815260200191505060405180910390f35b348015610aea57600080fd5b50610af3613fec565b604051808273ffffffffffffffffffffffffffffffffffffffff1673ffffffffffffffffffffffffffffffffffffffff16815260200191505060405180910390f35b348015610b4157600080fd5b50610b9c60048036036040811015610b5857600080fd5b8101908080356fffffffffffffffffffffffffffffffff16906020019092919080356fffffffffffffffffffffffffffffffff169060200190929190505050614011565b6040518082815260200191505060405180910390f35b348015610bbe57600080fd5b50610c0160048036036020811015610bd557600080fd5b81019080803573ffffffffffffffffffffffffffffffffffffffff169060200190929190505050614036565b60405180868152602001858152602001848152602001836fffffffffffffffffffffffffffffffff166fffffffffffffffffffffffffffffffff168152602001826fffffffffffffffffffffffffffffffff166fffffffffffffffffffffffffffffffff1681526020019550505050505060405180910390f35b348015610c8757600080fd5b50610c906140a4565b6040518082815260200191505060405180910390f35b348015610cb257600080fd5b50610cbb614341565b6040518082815260200191505060405180910390f35b348015610cdd57600080fd5b50610ce6614347565b604051808273ffffffffffffffffffffffffffffffffffffffff1673ffffffffffffffffffffffffffffffffffffffff16815260200191505060405180910390f35b348015610d3457600080fd5b50610d3d614371565b604051808215151515815260200191505060405180910390f35b348015610d6357600080fd5b50610d9060048036036020811015610d7a57600080fd5b81019080803590602001909291905050506143c9565b005b348015610d9e57600080fd5b50610da76143cc565b604051808273ffffffffffffffffffffffffffffffffffffffff1673ffffffffffffffffffffffffffffffffffffffff16815260200191505060405180910390f35b348015610df557600080fd5b50610dfe6143f2565b6040518082815260200191505060405180910390f35b348015610e2057600080fd5b50610e29614480565b6040518082815260200191505060405180910390f35b348015610e4b57600080fd5b50610e5461448c565b6040518080602001828103825283818151815260200191508051906020019080838360005b83811015610e94578082015181840152602081019050610e79565b50505050905090810190601f168015610ec15780820380516001836020036101000a031916815260200191505b509250505060405180910390f35b348015610edb57600080fd5b50610ee46144c5565b60405180826fffffffffffffffffffffffffffffffff166fffffffffffffffffffffffffffffffff16815260200191505060405180910390f35b348015610f2a57600080fd5b50610f6d60048036036020811015610f4157600080fd5b81019080803573ffffffffffffffffffffffffffffffffffffffff1690602001909291905050506144e7565b60405180838152602001821515151581526020019250505060405180910390f35b348015610f9a57600080fd5b50610fa3614518565b604051808273ffffffffffffffffffffffffffffffffffffffff1673ffffffffffffffffffffffffffffffffffffffff16815260200191505060405180910390f35b348015610ff157600080fd5b50610ffa61453e565b604051808273ffffffffffffffffffffffffffffffffffffffff1673ffffffffffffffffffffffffffffffffffffffff16815260200191505060405180910390f35b34801561104857600080fd5b50611051614564565b6040518082815260200191505060405180910390f35b34801561107357600080fd5b5061107c61456c565b6040518082815260200191505060405180910390f35b34801561109e57600080fd5b506110e1600480360360208110156110b557600080fd5b81019080803573ffffffffffffffffffffffffffffffffffffffff169060200190929190505050614572565b6040518082815260200191505060405180910390f35b34801561110357600080fd5b5061110c614a97565b6040518082815260200191505060405180910390f35b34801561112e57600080fd5b506111716004803603602081101561114557600080fd5b81019080803573ffffffffffffffffffffffffffffffffffffffff169060200190929190505050614a9d565b6040518082815260200191505060405180910390f35b34801561119357600080fd5b506111c0600480360360208110156111aa57600080fd5b810190808035906020019092919050505061146c565b005b3480156111ce57600080fd5b506112d1600480360360e08110156111e557600080fd5b81019080803573ffffffffffffffffffffffffffffffffffffffff169060200190929190803573ffffffffffffffffffffffffffffffffffffffff169060200190929190803573ffffffffffffffffffffffffffffffffffffffff169060200190929190803573ffffffffffffffffffffffffffffffffffffffff169060200190929190803573ffffffffffffffffffffffffffffffffffffffff169060200190929190803573ffffffffffffffffffffffffffffffffffffffff169060200190929190803573ffffffffffffffffffffffffffffffffffffffff169060200190929190505050614e7e565b005b3480156112df57600080fd5b50611322600480360360208110156112f657600080fd5b81019080803573ffffffffffffffffffffffffffffffffffffffff169060200190929190505050615b7f565b6040518082815260200191505060405180910390f35b34801561134457600080fd5b5061134d616131565b6040518082815260200191505060405180910390f35b34801561136f57600080fd5b506113b26004803603602081101561138657600080fd5b81019080803573ffffffffffffffffffffffffffffffffffffffff16906020019092919050505061614b565b604051808381526020018273ffffffffffffffffffffffffffffffffffffffff1673ffffffffffffffffffffffffffffffffffffffff1681526020019250505060405180910390f35b34801561140757600080fd5b5061146a6004803603604081101561141e57600080fd5b81019080803573ffffffffffffffffffffffffffffffffffffffff169060200190929190803573ffffffffffffffffffffffffffffffffffffffff16906020019092919050505061618f565b005b50565b61149b7f9f573e4c40240583b786965d58fbad22c88cf19064a08a894721b4178e8b80f860001b61146c565b6114c77fbce7202f9b332711c2fd6a54b777d143735d5c5074cd4a26ff38e7f7ba94389660001b61146c565b6114f37f790c9a445ba826fac4c80397bb80d90e3c4fca0a1e1eeb1783946389fe1219f960001b61146c565b61151f7f371889f5e5d3308eab1771b482442f920df83058fe4e5178c35fbca3c29fe38a60001b61146c565b6000809054906101000a900473ffffffffffffffffffffffffffffffffffffffff1673ffffffffffffffffffffffffffffffffffffffff163373ffffffffffffffffffffffffffffffffffffffff16146115c4576040517f08c379a000000000000000000000000000000000000000000000000000000000815260040180806020018281038252602781526020018061e6ed6027913960400191505060405180910390fd5b6115f07f0e8d173e331d51629b4d19053ef5677513e8d5a29d1eb63ccffad3a298d49b7b60001b61146c565b565b600080828401905083811015611670576040517f08c379a000000000000000000000000000000000000000000000000000000000815260040180806020018281038252601b8152602001807f536166654d6174683a206164646974696f6e206f766572666c6f77000000000081525060200191505060405180910390fd5b8091505092915050565b60006116a87f34f30010081d47cf0a55e160481c77f1cd82d810721ad68dc0e8287a956d018f60001b61146c565b6116d47f4014a99a641d917ac708260c3444b80036b62ff2c33e60439357ab2b4f1b2a6e60001b61146c565b6117007f240dd659e08011e6cc3de8f086a73b0008c28f10cf47c70009d568185cdfb22b60001b61146c565b600954905090565b600f6020528060005260406000206000915090508060000154908060010154908060020154908060030160009054906101000a90046fffffffffffffffffffffffffffffffff16908060030160109054906101000a90046fffffffffffffffffffffffffffffffff16905085565b686194049f30f720000081565b60006117b17fe23ecb858f11bb3bd8daa4f20be2a9eba2f6df05cee859adac5f73921889f4db60001b61146c565b6117dd7fcc7bd3467ac2eeb6f443bcd84f4410de9d86de373d451250c157c4639c6cd00260001b61146c565b6118097fbd6d9a61e91f2761ddf27041a668f8c35a8fa6daaa0e86b84c0e2ec09bf240c760001b61146c565b6000600b60008473ffffffffffffffffffffffffffffffffffffffff1673ffffffffffffffffffffffffffffffffffffffff16815260200190815260200160002060000154905061187c7fa6d64d78d24335ebca8872203d09da777bf151abe593472506ceed0f160e11bb60001b61146c565b6118a87f96d519ac52a2b9275abfe8f237f959db4529db7a31de7dc9a58429b27b2eb69c60001b61146c565b6000811415611913576118dd7f5c6a981d1642c710d18ccc16ebcd83133c54d48526e59353d58179e786749f6f60001b61146c565b6119097fc99a03118fa15d24f2163e7e11b62ce5036050ca1870af303a38b9d4ef846d2b60001b61146c565b6000915050611b62565b61193f7f96f92376c9228e2fc6dff9be7d39dee9e6385bb10234da39fbb72d42d093724960001b61146c565b61196b7fbcfd32e295003939bac558d6722e74eaf8871bb7e4c634c8d77cabac5073624660001b61146c565b6119977fa12af31a23197f5e25530b21a8840e4c5bf1a2f272a9dd41ff0fa59c8c5d32ee60001b61146c565b61199f61e60d565b600c60008573ffffffffffffffffffffffffffffffffffffffff1673ffffffffffffffffffffffffffffffffffffffff1681526020019081526020016000206040518060a00160405290816000820154815260200160018201548152602001600282015481526020016003820160009054906101000a90046fffffffffffffffffffffffffffffffff166fffffffffffffffffffffffffffffffff166fffffffffffffffffffffffffffffffff1681526020016003820160109054906101000a90046fffffffffffffffffffffffffffffffff166fffffffffffffffffffffffffffffffff166fffffffffffffffffffffffffffffffff16815250509050611ac97ffbeeb60dbe13b52aadec8a98bd984f8a4e104973aae7e8d46ee8699f1687c68260001b61146c565b611af57f176d5b5f6c415589e1c55edb198a85f00439dbecb2cb5a995ebe3ba2aa4d565660001b61146c565b6000611b018383616db8565b9050611b2f7f839be4625f70286930fbd3cf07bc1007849fcec06161bcb323ee247ebfb91de460001b61146c565b611b5b7f8e98ac445595c0b0b83a9effe4c197be62af07f527bb85c9046e1f13d0151cbd60001b61146c565b8093505050505b919050565b6012602052816000526040600020602052806000526040600020600091509150505481565b611bb87f628db10ffc8162aacd8b340ff7ed00149bf6254b35155e2f24872e2bcdc0b26160001b61146c565b611be47f61efa2b94286333f8d11846865909c7a5864dafd11d31e029630d343de4ecff360001b61146c565b611c107f44af82fec78131e2154f62f541d8d5750563e88a584c0ba8f844b7414f32d20a60001b61146c565b60008114611c7d57611c447f5b7e1bf888772f2250a25fc6ceafa3cdf9f180fbea9bd74eae46533c1ef1629560001b61146c565b611c707fc4e24567fca705e2b79c9728c8d5478fca26ffea202926d40897d37a5db3631d60001b61146c565b611c7861758d565b611caa565b611ca97f3a6534bc0e4c10259ad2c9abcd83a9cc162fe951857b4d96c92ddb6f9d53f0b160001b61146c565b5b611cd67fa60a6c72ba8d7bf5cd58ab3955ab43514efeeaf9a677d2182a000af2f2775dec60001b61146c565b611d027f8167d0482be1ee3237855b9da29fd077e9ba4ab6e6066a562425dc07211f0d8160001b61146c565b6000600b60003373ffffffffffffffffffffffffffffffffffffffff1673ffffffffffffffffffffffffffffffffffffffff168152602001908152602001600020600001549050611d757f48af1365320c09c2eb3176f0b1f351e009f7bb6e9495db92f53427f2683b651460001b61146c565b611da17f533d9050c46853d7cc416052e41a9b4341653c6350306dec7ad06c0cf7f7850060001b61146c565b611daa81617a0d565b611dd67f94ea8fa1ac2408f92ef7c271e26d1b193abbb58bcd4f2538139c8cec8b6cf7f960001b61146c565b611e027f2d732959fe228898d88560f320d5331932de1560e34aa53eee30e281bd7178c460001b61146c565b6000600860009054906101000a900473ffffffffffffffffffffffffffffffffffffffff169050611e557f7593e79f5fb5f57d191b46bfea6833912922a0834b718659b415658f6b50999760001b61146c565b611e817fe0dfc946575dd8eb7b72f297a3ffbf07a389cf808fb4d04b2f198d94ebeff4bb60001b61146c565b611e8a81617b45565b611eb67f247618e941ec8c33732d998847dea5e64ecea2b28b04407ef8f43606d9d3ef9c60001b61146c565b611ee27f87abc6b30741484864afce59637897ea7349dc824c870d047399ecf9bc19a0e860001b61146c565b6000611eed336129fa565b9050611f1b7f0a390ce519389b6dd2156a1d6cff8f9e3ccd7645ecffe277ada93b50f4099b4d60001b61146c565b611f477f8e0ced187725488d8fabcd0ec72b8ae0c1de25291287b407a9cc14934593658b60001b61146c565b6000611f5233611783565b9050611f807fc49e9c22661b7a2a1b0923a0d6687af39bf8e9e0e785ca70bdbf13f47fa654f360001b61146c565b611fac7fbfc27aabde092b1d2cdb617a3f426b9cb312a94c72ad5047de759ca09797837060001b61146c565b6000611fb88683617cb5565b9050611fe67faed2a930eda2bed9fd870a71c2192c9212ca47a32a0e3d973f5f1e66fb26470960001b61146c565b6120127f31a325a95eb55684daba7dd07d1462a736ea18592a74a6243723ba6dfdec7bbe60001b61146c565b60006120278387617d5290919063ffffffff16565b90506120557f7906f7e13b57e86d221e709ddbf5593d943d4c76cbc61310109e2635d68fef9160001b61146c565b6120817ffdbc744039ff3b211de5c59cc592f4b9394d91fc481c2befc3a4160ff6db131460001b61146c565b6000600b60003373ffffffffffffffffffffffffffffffffffffffff1673ffffffffffffffffffffffffffffffffffffffff16815260200190815260200160002060010160009054906101000a900473ffffffffffffffffffffffffffffffffffffffff1690506121147f6183d28aa8342ce9e2349b12d61ebce7c6a0265f376489aece3317357420154a60001b61146c565b6121407feb3b13b76c216bdb0d8f183b2c6d7899febdb59c5b30ceca04db46ec4609b2fc60001b61146c565b61214b863383617d9c565b6121777f81c98dc5842b6bbd4b00f89b15bdd5ceae89ee7473e9fb26c862a9573650e97b60001b61146c565b6121a37f7d143719a364893f4580c98cf4c9b3c36349be5cc76156fa4fa673962efdaf3e60001b61146c565b60006121ae82614a9d565b90506121dc7f07ff4a554fb22a35ea6993dc66d63608e0b5b5dd65ab21950ced2025bf73ea7a60001b61146c565b6122087f9ec294a845d2cada3e69c6501c32868ae70c229afd40cab7618a1eb3431ad51d60001b61146c565b600061221d8583617d5290919063ffffffff16565b905061224b7fdc6dd7663ec9fccecdc98e0d31fb7f0c48f31fcea8237942f70972a4b02f651c60001b61146c565b6122777ffb0b1b6bc27e1e99395ba5d15c28e549c9065f976be46d707b5da5da7645444860001b61146c565b61228183826182bd565b6122ad7f7f30d233d4d292a43fddcaea446a49e55c9c90606cabcf57bd5af9c4e2df54f060001b61146c565b6122d97f46cf296c2572c60afecbabb977a9b4b62a68530171044b00758a6836bd65413960001b61146c565b8273ffffffffffffffffffffffffffffffffffffffff167f99920012339b5a3368d3a04b8606ce412c46ed92b7dcd8602d41fc8862cb8f258233604051808381526020018273ffffffffffffffffffffffffffffffffffffffff1673ffffffffffffffffffffffffffffffffffffffff1681526020019250505060405180910390a26123877f9230217c6adb9bff52be4c53812ec5aaa221dc5fc8b9ecec65d2433707c1a6c860001b61146c565b6123b37f3a389ca7333e65c30d815f6092e1bd7d85770c80c48f5a5234bcd7415efaab3960001b61146c565b6123bd3386618bc9565b6123e97f226f3506afa4f1dbdb641ca5fed66f3442e0d750457e88dc5fef34655bdaf67460001b61146c565b6124157f4ffcef1e506ce0a635a5094c103a48d1fc35a97b1abc52d81e853171a687b15260001b61146c565b600061242a8688617d5290919063ffffffff16565b90506124587fa3a34b97df906883c796eccda6819dd9c4a84ac69909821d355040f497a997c960001b61146c565b6124847fe0b47ed7c08f4da47cd3c384b00a978439bf3575fbc328b2d1ade36a9ca70e8260001b61146c565b61248e3382618e92565b6124ba7fba4c93887028404ff48e140dbb0ebedd1f200491313fbd927003a35c7ce9e58f60001b61146c565b6124e67fec76cf715f6ea6dc6ca93da299d704d90c1574e5dcb90feaf2147df2226ad35d60001b61146c565b3373ffffffffffffffffffffffffffffffffffffffff167fbce78369dccab09eec1986f4d409ab09ffbb47d65423e5148fcf98411c5111c9826040518082815260200191505060405180910390a26125607fe6ae3b7be3b7ef83bee670b09248845148a20871e83c7e98893190c98b1ff94860001b61146c565b61258c7f7f7f80add0c0ddf1b71e4415772309d2427a488bf4a75313583fad139f99959360001b61146c565b3373ffffffffffffffffffffffffffffffffffffffff167f51457222ebca92c335c9c86e2baa1cc0e40ffaa9084a51452980d5ba8dec2f638987604051808381526020018281526020019250505060405180910390a261260e7febb8a7dbd71f52cac5eb2c2c7abc7f1a9e024f3c1130e64f5f955d56adf30c6560001b61146c565b61263a7fbb0a3360695175f468c173b6a5da7dffbc81c85a288dc909c8de7f36bdff8eba60001b61146c565b612643886199ae565b5050505050505050505050565b680ad78ebc5ac620000081565b6126897f5db4a104be8a7b3437fff915c36f271f7fde89613b2d2e27400ee1faf9f1e0d960001b61146c565b6126b57f0793dcbc6c80c19a27c98696d279c2905189525860fd81f05eb4962b0e88b52d60001b61146c565b6126e17fafd63bce76a739dab66ebbf285212d811493e00c14bbc8be5048aa662feedaa260001b61146c565b6126e9619eb2565b6127157f83f9ef4a3645b6dddb9baa8819414e8344405b531e248039455db56dd0fa2b6d60001b61146c565b6127417f5644449a7cc52f0ba8563416e9707d21c3e8dfda518633fe7745dbda9ded403f60001b61146c565b6000600a5490506127747fa21202b27de0205a40331cc6a7726e4516fc3c44ad966a2221d175472c1f508d60001b61146c565b6127a07fa8cb19837857cfda87d050e627af126472ae84c0ffb4d5089043b35d017a4d8a60001b61146c565b60008114806127af5750600083145b15612812576127e07ffe4e560b91df56ef5fae22026e75557c69aca4158d820ec97e1df6fad0dfae4560001b61146c565b61280c7f0158046fdee1bfd9ad87d954235cb2d97f83a4af07dad5fe8876fe6ab8d594cf60001b61146c565b506129f3565b61283e7fe524a5092989c75be5ef75a89effe8b5e77ee6436b9628b83e4401abcde1b55160001b61146c565b61286a7f302ecb5a3d95db7c8e243fb52da5d14c47c6d331e77797d1861812d79638eff360001b61146c565b6128967fe6ba46e5928b65ed651a72439b5cef2eced3ebb27f3db7a1529d2a6bcf852b2160001b61146c565b6128c1600860009054906101000a900473ffffffffffffffffffffffffffffffffffffffff16617b45565b6128ed7f2d7ae7c006960fe129e23b7013fd5e11b8f3fc54396e144af8b1b87bebc521c760001b61146c565b6129197f2788ca010caea89c28305b5778fe854861f5942a1db31ef4c913c5979242973060001b61146c565b60008061292784868561a036565b915091506129577f7a7e6dfd7a38dac08732c8480c27ba0df985e07038feb37c600330811c69478060001b61146c565b6129837f2504236bf90509709c7f62bbf5841e5843c0c178120b6e7e45a4eb4a1cb4a79760001b61146c565b61298d828261a5b9565b6129b97f14d68527781356413be283c9e33e66fdf78cb1451fb57005306057702487d2dd60001b61146c565b6129e57f0304089d978a804f90532e526534ef7d0d698b9924627839034de4ad08f0bc5060001b61146c565b6129ef848661b4a1565b5050505b5050565b50565b6000612a287f84510d6e295fe723f5ba0b4df6b3694c76dacb82222fc84a06c9e3f2b02c5afb60001b61146c565b612a547f92a1661a24e07c785400a6ad4c24b4ffbbc50756d8f8ae6043bfc4678b8143e360001b61146c565b612a807fa8a15a4240def4d74345f316cc301fa7bd4b47c942011d8d45c6bd1ece16a94a60001b61146c565b6000600b60008473ffffffffffffffffffffffffffffffffffffffff1673ffffffffffffffffffffffffffffffffffffffff168152602001908152602001600020600001549050612af37f9c428d3d7448d22bb491126129f395d9e75b8ccd01b1a4800c7c384e151e43fd60001b61146c565b612b1f7f6b40036367b6bdf3f575a1aea94295c9214facad42585b03a926af6808c77e6160001b61146c565b6000811415612b8a57612b547f7070fa5534a72d4322fb973ae392619f96567ff425ecbeb5e9d6038780ca78e860001b61146c565b612b807f52e829b2f7bb0ba2375dcc36e816389696815d89f1f963b97e5ea4c4df278fb060001b61146c565b6000915050612dd9565b612bb67fd8cb534342fc7a90c03168e4f30a0177dd00ef249eec958c6197a8320bd2338860001b61146c565b612be27f3ebe2724f4bfdfe691178e7c0a274c941656d945d7821e284801acc8dcbd06f860001b61146c565b612c0e7ff4ce1e248acff8ef6afe1f40fbf7d9f74a75ff86f8f679d0aa4eabae4787a71460001b61146c565b612c1661e60d565b600c60008573ffffffffffffffffffffffffffffffffffffffff1673ffffffffffffffffffffffffffffffffffffffff1681526020019081526020016000206040518060a00160405290816000820154815260200160018201548152602001600282015481526020016003820160009054906101000a90046fffffffffffffffffffffffffffffffff166fffffffffffffffffffffffffffffffff166fffffffffffffffffffffffffffffffff1681526020016003820160109054906101000a90046fffffffffffffffffffffffffffffffff166fffffffffffffffffffffffffffffffff166fffffffffffffffffffffffffffffffff16815250509050612d407f17076d8e571250112880e92a48cc0f78c327639b3c199aa45a88cce818c4828060001b61146c565b612d6c7f59ccbb0b296b101c2966d3ab1028a293ef3dc390f3786bfa493a0964a421d39860001b61146c565b6000612d78838361b884565b9050612da67fb28f698c82ecbc8a8a34b86d87f6bebff7f6750809adab2fde01d83b612e164b60001b61146c565b612dd27f932cef6db1aa3ff8deaed4bb49ff29cff154465db8f3804a72076bb7dc3cb4ac60001b61146c565b8093505050505b919050565b600160009054906101000a900473ffffffffffffffffffffffffffffffffffffffff1681565b600560009054906101000a900473ffffffffffffffffffffffffffffffffffffffff1681565b50565b60c881565b60165481565b612e647f46bc969aa3c2b6a3601bba93347b2a165e0e0eb5a3009a9f2d48a19e8dc1ddef60001b61146c565b612e907f5e8ab89d9c5be30cbcb53d91e31d0b8cbfb36286cf92886eb80a3f011aa9d74560001b61146c565b612ebc7f244ff41da30908238a7d5f933fdc5842a7523fd9760a7b1e71878d3c16c5a23960001b61146c565b612ec53361bd2a565b612ef17f50a8a6ea3fc0e7df346cd3166c260499fe16ce56fbe1ff080db2e744aa0f519960001b61146c565b612f1d7f227f12e1566ff25b042440c5423ff35ccc206566fbe5db762a012f611269e85560001b61146c565b612f263361beaf565b612f527fef5364375c4a4cf739f465007d1b87d2096887ce1781692e604c631d99ea349d60001b61146c565b612f7e7ff6f153b10aa081e6a519529ef57e2a7f2027699c6ac941a5c3db2a1fbee6687860001b61146c565b612f878161c087565b612fb37fd7303d85bc2315ff59ce611126ebf2b4023e7476bbc79e99f42d5823a86f353d60001b61146c565b612fdf7f9aaf1a79747e6ea2788b8c892ff66fad748a88718ac23d30a8c95fb470d5e05460001b61146c565b80600d60003373ffffffffffffffffffffffffffffffffffffffff1673ffffffffffffffffffffffffffffffffffffffff168152602001908152602001600020600001819055506130527f7b89bd7cd75e89299d806c04b77533f1f4dd0e883f01264150fc64fbecde2f6560001b61146c565b61307e7fdc0688f0475d3023443f4bc98f9ed4accca7e5163f17cc09318f8ce0ecffd20860001b61146c565b6001600d60003373ffffffffffffffffffffffffffffffffffffffff1673ffffffffffffffffffffffffffffffffffffffff16815260200190815260200160002060010160006101000a81548160ff0219169083151502179055506131057fe21cc6b21a84e32ef103db744f34601fdccb085d51372f725612288127b5ef0760001b61146c565b6131317f3ade75d664c5ae0a80ba3d738c963ddaccfa2b8dc2f4c7b425879927b914606b60001b61146c565b3373ffffffffffffffffffffffffffffffffffffffff167f19bc932fb9e16a8b5a1e41be9f4c2de59d5ddd7567b8b81405f532ca00a9880e826040518082815260200191505060405180910390a250565b6714d1120d7b16000081565b600e6020528060005260406000206000915090505481565b6131d27f907aba32f118675beeed156f37d7c19f676557d907dd4b533934f866b247139f60001b61146c565b6131fe7f9c561995444e27f8e7074c5369620e0ea89f862b15632ad919796144eab576e360001b61146c565b61322a7f3ba2e11b47cc865e5663f03dd0b59e3502af8ab43095f7f8543b8cb5c65a6efe60001b61146c565b6132338161c1c7565b61325f7fc768307c58de3dbf54933d39541ef914db67261d6d5eac493a5d9ac304cfb7ae60001b61146c565b61328b7f9167b67672dec54590718362a3a97697102446dc6a5b615cd309ea89f0036b0160001b61146c565b6132943361bd2a565b6132c07f02a2b226c472d997c700d316bb188769a192879e337570d6522475533a2b924060001b61146c565b6132ec7f8361ba65bcfbb78da8b8b7efa743ec6c2149a99dd4afb708f1dd89b3bd5e024b60001b61146c565b6132f58261c382565b6133217f938ee8914ba86f47977f691952e794913a83e1477a46f3ba6bea9a1e4589b39b60001b61146c565b61334d7fc51fdc620c4f4e3f172ef0aa05dd452a1eb352f9f00ef5de55eec22a704d378560001b61146c565b6000600b60003373ffffffffffffffffffffffffffffffffffffffff1673ffffffffffffffffffffffffffffffffffffffff1681526020019081526020016000206000015490506133c07faecb9854b2bd45c0b15ebce353153391a3e8fe02e59b22715f93bf0c8f29b4e660001b61146c565b6133ec7ffcb8e300d2bd9aff3335a1ef9e8f43ec9f0ae07e77cc2d15c220b2a640ee8abb60001b61146c565b6000600860009054906101000a900473ffffffffffffffffffffffffffffffffffffffff16905061343f7fd5a85759456439a238b65a00ff1ba16e80600cf3d8772c1e703cb6313c1fb60860001b61146c565b61346b7f9fc3d0c17e3135f1dcb2127941bf28db9f7ad24a462dad260f657847d570394f60001b61146c565b61347481617b45565b6134a07f6727fac5383d7ee8ee3f491d5c7b816a959239cd9efdfb79748a4fbc695804a360001b61146c565b6134cc7f5fa56f291c6ad55d49a7690ff9cf1bd9e0e00894171f354449f31f858994059760001b61146c565b600082141561353c576135017f4ebe1a804b9ad2c3a70944fabff02c414d760a91db09ac0debb7a5e510bdaf0960001b61146c565b61352d7f3cc002c9abfde7777700d0986aac4316ef23ece49891560a293b3c16226101f960001b61146c565b613537338461c4ba565b613569565b6135687f77330b726be2d68fb426e45375da6e43cd91e46edc3f285c1a8273b12e37ec3e60001b61146c565b5b6135957fecf444ab4e9ed58cd5d7ef93e9f4771eb34983651e1d6f687aed596c15ea3e6660001b61146c565b6135c17f75925159850cf89ea40ff11816b85539ab9d085fa9f9db04d2e7285bd62a23b960001b61146c565b60006135cc336129fa565b90506135fa7f0e59a41219bd369930e29d63ba36f3afe6f2470a50faf6c8ea43e9a1968e2d6760001b61146c565b6136267f410b7ed447a86dd326c8aa5c856a1dbcaa79d1a0c9201152e173e6d006ce228060001b61146c565b600061363133611783565b905061365f7f1c9170025533decdf74dd7012948d3809879437fa7a827012a01fd315e70089660001b61146c565b61368b7f63924f22db0051c1859822855858f2e53ab4b8a67bf4a4a3f86901d78e5ea6a160001b61146c565b60006136a08286617d5290919063ffffffff16565b90506136ce7f113277c2ebb6e37d47bd8c4bbe68202ac91f8ba0489556d4a8614bbec831031b60001b61146c565b6136fa7f2417d4a3f0c14d5c392c04d1a01e5598f4196dddad681ed39d1e63fecf0c920060001b61146c565b6000600b60003373ffffffffffffffffffffffffffffffffffffffff1673ffffffffffffffffffffffffffffffffffffffff16815260200190815260200160002060010160009054906101000a900473ffffffffffffffffffffffffffffffffffffffff16905061378d7f7f89574d838b9354fe688423c35fe31bf254e0eb2d5ba71240fb146df683db1460001b61146c565b6137b97f60a194356f62729fcad3ac16ae28e93563bd6417c7a0e5569df2684a20942dd760001b61146c565b6137c4853383617d9c565b6137f07f2506d28a0bc2b585916c8c8a0533f03dd70a8a0498af3daa24edb762b0dea25360001b61146c565b61381c7f671178cfb6c24db26bbbbbb883a50ac6d9d00f6920189ad8fdea9253aa9d029460001b61146c565b600061382782614a9d565b90506138557f5a1089fe68523bef9b7210d8667572059bdd7ec486dfc35abc9d233028ba20bc60001b61146c565b6138817f0633637c8cb89dc7cc44008834b44c4a68193b6edbd26b5d781899f1fb924aab60001b61146c565b60006138968a836115f290919063ffffffff16565b90506138c47f527d0be22f9e1d1dc4f46d1e534985533c7fdd9f3de939aa3c1b5decfec310c360001b61146c565b6138f07fbf0e2607778c711bff051c3aeb56ceb5b432acd2b9a6cf7e4a4888468d68ecb160001b61146c565b6138fa83826182bd565b6139267fcdc693ceb2cc5db4a22af87cacbb6b0e075d3225bb05b4f937494c0334ba1e5760001b61146c565b6139527f3a75ee3356fd51c58bcfe3386940d7707c377e688084597648fff374b9afb5dd60001b61146c565b8273ffffffffffffffffffffffffffffffffffffffff167f99920012339b5a3368d3a04b8606ce412c46ed92b7dcd8602d41fc8862cb8f258233604051808381526020018273ffffffffffffffffffffffffffffffffffffffff1673ffffffffffffffffffffffffffffffffffffffff1681526020019250505060405180910390a2613a007f788bf21e90b1eebc9e8f441d5309fa32d93173efec4dc4bca4ea5e998370720460001b61146c565b613a2c7f4104c625b7a8cc693909746facbd52fae7bd9e4eca0bbca6df1084aa493eb64e60001b61146c565b613a36338b61c675565b613a627fd3908195142c8f1a0575fb9d2c84593767ffd97f3b0be4a92e67a2e759ff814960001b61146c565b613a8e7fbc88d76a519f6a0c14f4dbaf38c99732458b344e013cd6ea7a61775f0d7ebf0860001b61146c565b6000613aa38b876115f290919063ffffffff16565b9050613ad17f5157153b70c9efd46494ef4b04292b40c1e9a5c56a0181fb1884fd3c31fcd3ad60001b61146c565b613afd7fe4021b02e8c7cca9ca0ee0ae2f311892c5ae87e03a52eb15734ca1b7843a1ecb60001b61146c565b613b073382618e92565b613b337f3010c23d7f8d4494888194bc4b8db59d1b4867850cbb837725381707d384eb7460001b61146c565b613b5f7f44003f493536735a2770fcb498dff674efe3eda9de08081dbd85fe8b68df26af60001b61146c565b3373ffffffffffffffffffffffffffffffffffffffff167fbce78369dccab09eec1986f4d409ab09ffbb47d65423e5148fcf98411c5111c9826040518082815260200191505060405180910390a2613bd97f7a437595b962865784277a98a2c0da7892677834f8b83487408330fd5b8de52360001b61146c565b613c057f291bd4ce402b62cbbcc8e4e829388f0371eb4b55419383d0ff86415ab550a2a860001b61146c565b3373ffffffffffffffffffffffffffffffffffffffff167f51457222ebca92c335c9c86e2baa1cc0e40ffaa9084a51452980d5ba8dec2f638887604051808381526020018281526020019250505060405180910390a2613c877f2c52c61fb226df2fa47d91ebda46395ea18f6ad52dabc82d5452899850e399f360001b61146c565b613cb37f239835ffaa05bfd28825b2f1e8799f9043eb300c33cf847d98de8be6b67d14c760001b61146c565b613cbc876199ae565b5050505050505050505050565b670de0b6b3a764000081565b600260009054906101000a900473ffffffffffffffffffffffffffffffffffffffff1681565b601160109054906101000a90046fffffffffffffffffffffffffffffffff1681565b600460009054906101000a900473ffffffffffffffffffffffffffffffffffffffff1681565b670f43fc2c04ee000081565b6000613d7d7fffed618358291ba6891e1754cb73cb764c0581799afe3edc4c8d5e33b5d69dec60001b6129f7565b613da97ff0efb67b0790e4a16906291f0f5b33c4b9e350c5c12e5dc419b35b3e2a7643fd60001b6129f7565b613dd57fe39126d6b608bc17f868ee02cec3987f5c9f0eb5a2861fa1ee436805d724101360001b6129f7565b60008060009054906101000a900473ffffffffffffffffffffffffffffffffffffffff1673ffffffffffffffffffffffffffffffffffffffff16635eb52fca6040518163ffffffff1660e01b815260040160206040518083038186803b158015613e3e57600080fd5b505afa158015613e52573d6000803e3d6000fd5b505050506040513d6020811015613e6857600080fd5b81019080805190602001909291905050509050613ea77fd5c5e3697c84f44fc96c4b00a5092a8a17c44788644672edc404df8b4f33e79e60001b6129f7565b613ed37fccbc594bc92408b9e1a354fa088e5742270d98347611534f0ec71b706cce5dbf60001b6129f7565b6000600160009054906101000a900473ffffffffffffffffffffffffffffffffffffffff1673ffffffffffffffffffffffffffffffffffffffff16635eb52fca6040518163ffffffff1660e01b815260040160206040518083038186803b158015613f3d57600080fd5b505afa158015613f51573d6000803e3d6000fd5b505050506040513d6020811015613f6757600080fd5b81019080805190602001909291905050509050613fa67f2fcafe17cc1fa0b07af62f32ccc025484a46246a27b7f7fda3a9022f884c2ca660001b6129f7565b613fd27fbfd7ce3f2a0b31b728bd9f37aef94976a0d07e75cf5275f67bafe240332777d760001b6129f7565b613fe581836115f290919063ffffffff16565b9250505090565b6000809054906101000a900473ffffffffffffffffffffffffffffffffffffffff1681565b6013602052816000526040600020602052806000526040600020600091509150505481565b600c6020528060005260406000206000915090508060000154908060010154908060020154908060030160009054906101000a90046fffffffffffffffffffffffffffffffff16908060030160109054906101000a90046fffffffffffffffffffffffffffffffff16905085565b60006140d27fb66d50006e73330003d2aebca2677ba754a744532fcb120e1bf38e30d4354e9660001b6129f7565b6140fe7f7a243f0c01ac2eddb6f889adb5b25d20b6c77d0a71089b4e4a05e6f5dd04449c60001b6129f7565b61412a7fd9be4bb93a2c9d4022ac92258e5938de98f2fa4913238b33509b201c9962a88160001b6129f7565b60008060009054906101000a900473ffffffffffffffffffffffffffffffffffffffff1673ffffffffffffffffffffffffffffffffffffffff166314f6c3be6040518163ffffffff1660e01b815260040160206040518083038186803b15801561419357600080fd5b505afa1580156141a7573d6000803e3d6000fd5b505050506040513d60208110156141bd57600080fd5b810190808051906020019092919050505090506141fc7f26cd0bc42cbc160aba08644d1ec6607da3df5acdbbe9f5cb1f876046b51125a860001b6129f7565b6142287f07394f73b57effa5c0d06a28a34d8caf7f9c8e6f1ecd533143cd3adbc06c207560001b6129f7565b6000600160009054906101000a900473ffffffffffffffffffffffffffffffffffffffff1673ffffffffffffffffffffffffffffffffffffffff166314f6c3be6040518163ffffffff1660e01b815260040160206040518083038186803b15801561429257600080fd5b505afa1580156142a6573d6000803e3d6000fd5b505050506040513d60208110156142bc57600080fd5b810190808051906020019092919050505090506142fb7f46fe5e72681624df8f86211f619d0ca55960a48139a032d491c65f9e9ead8e4560001b6129f7565b6143277ff21ef2b4f180cbc00adb9efe704164ccc70207bf69042044214909b91d55604960001b6129f7565b61433a81836115f290919063ffffffff16565b9250505090565b60105481565b6000600360009054906101000a900473ffffffffffffffffffffffffffffffffffffffff16905090565b6000600360009054906101000a900473ffffffffffffffffffffffffffffffffffffffff1673ffffffffffffffffffffffffffffffffffffffff163373ffffffffffffffffffffffffffffffffffffffff1614905090565b50565b600860009054906101000a900473ffffffffffffffffffffffffffffffffffffffff1681565b60006144207f9962a703dc67155c2f6c7270c65fe4a46f3050b2aafa92373b32452c7305b81060001b61146c565b61444c7f044a6b5ffb9b931b98ee2bc3495faf07ec14d558b0253a35e7ce6b4e54c8a73160001b61146c565b6144787f48acab74b5adc581a8cd5b415630eb7d7602803b4562ffc5eb857879139bd68460001b61146c565b600a54905090565b670de0b6b3a764000081565b6040518060400160405280600d81526020017f53746162696c697479506f6f6c0000000000000000000000000000000000000081525081565b601160009054906101000a90046fffffffffffffffffffffffffffffffff1681565b600d6020528060005260406000206000915090508060000154908060010160009054906101000a900460ff16905082565b600760009054906101000a900473ffffffffffffffffffffffffffffffffffffffff1681565b600660009054906101000a900473ffffffffffffffffffffffffffffffffffffffff1681565b633b9aca0081565b60145481565b60006145a07f9d453fd63ec951a5457e70484e4831e3705fd5541bb42333df209df4ff45432b60001b61146c565b6145cc7fc55cbed00228a8ae9a7fefe7ce74607ab89d2d3f67102d27abb72a44bef9f97760001b61146c565b6145f87ff8261b0a8d7adb8fea4e4c99919f0936769350b26f6fb85b3811fdfce416f63560001b61146c565b6000600e60008473ffffffffffffffffffffffffffffffffffffffff1673ffffffffffffffffffffffffffffffffffffffff1681526020019081526020016000205490506146687f0bb11d8980f13a23e7253eb67f6a66d3a814aa158f7492f83ab86f63d3ee292d60001b61146c565b6146947ffed0f0ff16c3c3962cbfd14cb75ea90039d26b2a28c4dce0c8125e90458994e860001b61146c565b60008114156146ff576146c97fb4216b278f3e31bf63a994cf52ae77fcdb56f924a20b4ba1785362e3ef7d3b1160001b61146c565b6146f57f0fe5005e9ffa12c65ff3c2e2d0324ecec4f1fb9aa3439fa00a6278c871a78bcf60001b61146c565b6000915050614a92565b61472b7f7b6db5449c3625841c9a3712f7fdd88a2e36a66652747bdf129d769b0571e3c960001b61146c565b6147577fb7813749ae6c7436234de39138ea51e42c1ae336abfeb26c6e5f7bb4c9ab042660001b61146c565b6147837f3d06387937e2c58d5eadec4211da3b8730722bdd4792743bcedc0d3d7580c7e660001b61146c565b6000600d60008573ffffffffffffffffffffffffffffffffffffffff1673ffffffffffffffffffffffffffffffffffffffff1681526020019081526020016000206000015490506147f67fe22cbac4beb710d261e69a49e28ed6c2e37ca6d7b3793dcb18f5c0c1f083b02d60001b61146c565b6148227f246447d6d4b54bc9bcea8210a84e38870b6b435d278e5fb735500d8b7f2b42ee60001b61146c565b600061483f82670de0b6b3a7640000617d5290919063ffffffff16565b905061486d7fae5503348ce739509103910ebd30268c298d938207d0deb4e222a877274f780660001b61146c565b6148997feae9cf88c6152f9a555a1ec299c4ad1b3062a2e303408a2886ddfcc154aa904f60001b61146c565b6148a161e60d565b600f60008773ffffffffffffffffffffffffffffffffffffffff1673ffffffffffffffffffffffffffffffffffffffff1681526020019081526020016000206040518060a00160405290816000820154815260200160018201548152602001600282015481526020016003820160009054906101000a90046fffffffffffffffffffffffffffffffff166fffffffffffffffffffffffffffffffff166fffffffffffffffffffffffffffffffff1681526020016003820160109054906101000a90046fffffffffffffffffffffffffffffffff166fffffffffffffffffffffffffffffffff166fffffffffffffffffffffffffffffffff168152505090506149cb7f934cc07fa09d163cd0f1b1a85d7a05b81e74e9bbf7e4fb5775b085aba5907f5d60001b61146c565b6149f77f6e95185f0553208b9daf986fdec5832be41516f07e061f709b70c8be918b5f9e60001b61146c565b6000614a2f670de0b6b3a7640000614a21614a12888661c952565b8661cdf890919063ffffffff16565b61ce7e90919063ffffffff16565b9050614a5d7fff22495c4d5dd7d1d0dee8cd3a14643579af08deeb2ad03b0cc5a138b39b538160001b61146c565b614a897f869b1faff7f88a006ce2f70a5e5bb397f1448cf67773dc741c10ceabfe0daa4760001b61146c565b80955050505050505b919050565b60155481565b6000614acb7f3bf6334d660102161b51293613f11086948853a10b8f390bfc29a7af282a0e2760001b61146c565b614af77f781ea947567c246cd146879607dcfaa41855d85c476d7d7cd9dcdd74d3e74cae60001b61146c565b614b237fac31f918097d54a1884c94c3c17b5c76757eb487e28b7baac92aa8b32bce143c60001b61146c565b6000600e60008473ffffffffffffffffffffffffffffffffffffffff1673ffffffffffffffffffffffffffffffffffffffff168152602001908152602001600020549050614b937f1f904d5ad8dbb744c51aeae1d5f3be7d09acfb667d97531400cd247083efccb660001b61146c565b614bbf7f378554bedcd48706cf0303b476233898d8d8a4ecf4463b593d0e689ed6af10bc60001b61146c565b6000811415614c2a57614bf47fec0663c2722567419b24365afb41fcfc23c74fcb37abc907c82c2d674ae4bbce60001b61146c565b614c207fc24c6765cfdf4c5fdf983e8e1415b1bd4ea3970ebb01001c01252ce13650fdf060001b61146c565b6000915050614e79565b614c567f7765192d954586ef47e4a92424095d202a3098eafaf578af10e6dab0f340e0c260001b61146c565b614c827fdf9ab43c073c303630a5fd8b50f09555b2b758eb6391c1cf80bbb27212f458b360001b61146c565b614cae7f408bfe28be7c6beff51428cab55d73f19bc57fed4e7380099371586a4e07302560001b61146c565b614cb661e60d565b600f60008573ffffffffffffffffffffffffffffffffffffffff1673ffffffffffffffffffffffffffffffffffffffff1681526020019081526020016000206040518060a00160405290816000820154815260200160018201548152602001600282015481526020016003820160009054906101000a90046fffffffffffffffffffffffffffffffff166fffffffffffffffffffffffffffffffff166fffffffffffffffffffffffffffffffff1681526020016003820160109054906101000a90046fffffffffffffffffffffffffffffffff166fffffffffffffffffffffffffffffffff166fffffffffffffffffffffffffffffffff16815250509050614de07f8bdc0d8fe0454b204b87fe2ecf75e1cab1dbdda3d2dd77b38759e4516ba9616160001b61146c565b614e0c7fd46c5157b73512aba2ff4e3f38eb6b1992d05d4948a89b54eaf9fb020ba141fa60001b61146c565b6000614e188383616db8565b9050614e467ff2d7a54d0d84843b28ad4f839cbd4f5e7f3df947f00b78b2b873644c7739684060001b61146c565b614e727f3a16ab2f7b4cb23a52a0468b129f5e52c1c068b3bc7160e21dc3923de11064f160001b61146c565b8093505050505b919050565b614e86614371565b614ef8576040517f08c379a00000000000000000000000000000000000000000000000000000000081526004018080602001828103825260208152602001807f4f776e61626c653a2063616c6c6572206973206e6f7420746865206f776e657281525060200191505060405180910390fd5b614f247f9dabfeee64ccb1fcf587c8c70616e62b939e019e86c129ceb228bc2fd911c6c960001b61146c565b614f507f6f1fb2d3c4e321e84aeba540329863cc7d7c4727c6766ea9a0e532035ca1622460001b61146c565b614f7c7f998faa11a050dfd506d283ee66739c6385895a0e1bcbb3981b88b050408b738c60001b61146c565b614f858761cec8565b614fb17f44f94b6205b17e6273d0605263ec909184b572c324df09bd3c85fa626f9ca5ea60001b61146c565b614fdd7fabf1bb71b9b54eba93ec74da6a10ff08eff4fdea3b8e5c8884b7f4473fa469ac60001b61146c565b614fe68661cec8565b6150127ffcbb585f551ac9c5ab4158e8f60d94e1ec1885e76f0ff7cc2642a95b76837c2d60001b61146c565b61503e7f5d18263ba0ba436dc128bb54cc87513922975375bd7ae20918480fff4814edd960001b61146c565b6150478561cec8565b6150737fd8b28444bc64ec877d9cdf3ea999c780197fc935ac798545710f13a98e395ee360001b61146c565b61509f7fdbe488ce380d5f0895f21f1c48ea1d13f9a457d552fa63721b67698325f0243660001b61146c565b6150a88461cec8565b6150d47fecab8cdc0d97a474f5a738915b2032612317863f86c92057163e1d2781fa0b3b60001b61146c565b6151007f1446a87d6d39bd9e8fb2f1f8b28ac0089cfa4ebf23785fad44e8b40c9377453160001b61146c565b6151098361cec8565b6151357f34af232d93cae5a997431498b9cfe7993f682008ca47cd39adceeebbea7310d060001b61146c565b6151617f5475a8f6b1a308c6463aa8b6c6caee697d1c6293c9406c63ea34684b4978924660001b61146c565b61516a8261cec8565b6151967f2b25575fdd2df84dad60329c929fef8e8781ecfb061096abcc5a375652e2b50860001b61146c565b6151c27f722384f81ed2e0dd854406e225103f56954a809f2c2298efd1e59b76041febcd60001b61146c565b6151cb8161cec8565b6151f77fd69d85d61dd2d5e1e18428334533e39a9456781a4291f883c6275217d056381f60001b61146c565b6152237f251356112cd839b8944289c44f7ad3ea3dc9693a9cf41405a66e17c6ac1844e160001b61146c565b86600460006101000a81548173ffffffffffffffffffffffffffffffffffffffff021916908373ffffffffffffffffffffffffffffffffffffffff1602179055506152907f49145f5dfc2467c111301a0bbf1751e2cb735284216127b1e49eae2bb36597ce60001b61146c565b6152bc7f873c7e501c1c56a4dbd614af002e8b444dc09340a6dc86a4cc8c44c65e4b7c5060001b61146c565b85600560006101000a81548173ffffffffffffffffffffffffffffffffffffffff021916908373ffffffffffffffffffffffffffffffffffffffff1602179055506153297fcdc2ab16e8b642d7148b29463fe0bbce1e77475b78fa055773ecef243d2dc73760001b61146c565b6153557f98561b72994347d80d85b295607b3da0293e6d0fd91e5590f8ab784c13e5751e60001b61146c565b846000806101000a81548173ffffffffffffffffffffffffffffffffffffffff021916908373ffffffffffffffffffffffffffffffffffffffff1602179055506153c17fb429d6055e5bc696f6606ae4032301b9262239e11c824de6d9e9eb24a76e9f2160001b61146c565b6153ed7ff2b7829f8fe1a42f16986d9c1ace7232c89d4c4b7b0a0923ef636070237fb46e60001b61146c565b83600660006101000a81548173ffffffffffffffffffffffffffffffffffffffff021916908373ffffffffffffffffffffffffffffffffffffffff16021790555061545a7fb1fee12064f8760f582e6860c22303a807dde550b74701cac915bb5a1cde8e1760001b61146c565b6154867f2ba0c52fbf5f6a33719f4a3fdcce821793857078a41300543cca549353d79f3960001b61146c565b82600760006101000a81548173ffffffffffffffffffffffffffffffffffffffff021916908373ffffffffffffffffffffffffffffffffffffffff1602179055506154f37ffb34db0c80bdabb1d8b35f7c1ff085152a9f78425b0b5f854978993565f2308f60001b61146c565b61551f7fd712ca8a6dac3c00923846b324035385f80793eb8a8b24b1657571e9cee90d6f60001b61146c565b81600260006101000a81548173ffffffffffffffffffffffffffffffffffffffff021916908373ffffffffffffffffffffffffffffffffffffffff16021790555061558c7fc6485446837b39b42b784d8ecbb5ae316c93622e729d54711ed95f098ccab0b960001b61146c565b6155b87f641c6826d9a95a3c974fa9e42ae376aec97581b4806ace11c80ff4da793afd4560001b61146c565b80600860006101000a81548173ffffffffffffffffffffffffffffffffffffffff021916908373ffffffffffffffffffffffffffffffffffffffff1602179055506156257f08b27388a820d753ee4e2f37f53bdecb135f32cd960fdeab0b304ef523a8321b60001b61146c565b6156517fd0998a134dd86a13f7e11cd4116577870871022df3e443c478d5a6aab58c352e60001b61146c565b7f3ca631ffcd2a9b5d9ae18543fc82f58eb4ca33af9e6ab01b7a8e95331e6ed98587604051808273ffffffffffffffffffffffffffffffffffffffff1673ffffffffffffffffffffffffffffffffffffffff16815260200191505060405180910390a16156e07ff435ac5f4fef1fa661e48515dcc0285c74d1a141c12403b7a5c9fd910e3d283760001b61146c565b61570c7fc07939b863544355811f24c6ae17e83e64368dc4bf026ef8be3a3cc8842d686260001b61146c565b7f143219c9e69b09e07e095fcc889b43d8f46ca892bba65f08dc3a0050869a567886604051808273ffffffffffffffffffffffffffffffffffffffff1673ffffffffffffffffffffffffffffffffffffffff16815260200191505060405180910390a161579b7f954094211904131e4e3e1c7a0554dba7b825caa567dea5e7767565143980794860001b61146c565b6157c77f336af41f7357e34e5dcdd44c6f4c6eda4b6d5d672117577535155a1cc184979160001b61146c565b7f78f058b189175430c48dc02699e3a0031ea4ff781536dc2fab847de4babdd88285604051808273ffffffffffffffffffffffffffffffffffffffff1673ffffffffffffffffffffffffffffffffffffffff16815260200191505060405180910390a16158567fa56630cacd39d8d401117ec2c1246cac54d6cadd3f72c32fd615b98bf3eb603b60001b61146c565b6158827fd382aaa02c838b2775d22722d111f72e271c2fdd3cd54d33c9be519d42b76def60001b61146c565b7f227eec0ec317af6ab1a9587ffa1c84332522eb4c583a908f89babc05f8f339bd84604051808273ffffffffffffffffffffffffffffffffffffffff1673ffffffffffffffffffffffffffffffffffffffff16815260200191505060405180910390a16159117f0115a38cc737190c39b78d491b346a65196f13700dc52e3e23b95501da552bf760001b61146c565b61593d7fc3f98ebd85f2f1b60d48e95565000bc7d27f084559f80b0f76d4d2f24eb123d760001b61146c565b7f65f4cf077bc01e4742eb5ad98326f6e95b63548ea24b17f8d5e823111fe7880083604051808273ffffffffffffffffffffffffffffffffffffffff1673ffffffffffffffffffffffffffffffffffffffff16815260200191505060405180910390a16159cc7f0a9513a2c5aa16830169f73131a55d051b0625277bfb51e66bdc8ad184c8e70060001b61146c565b6159f87ff8fd2ca04734f46a9df458d6bd4f22975de8ad46280059b5487066b72620a11760001b61146c565b7f8c537274438aa850a330284665d81a85dd38267d09e4050d416bfc94142db26482604051808273ffffffffffffffffffffffffffffffffffffffff1673ffffffffffffffffffffffffffffffffffffffff16815260200191505060405180910390a1615a877fc881fd2f223540eace80e1ee1aaa07b018a6db1ad6d3d34bf77f6ce29b5ff90960001b61146c565b615ab37f448bd3ad0138b5772c37752564fbe6927d58ac79644f90f6dac9e4bd810d6b4e60001b61146c565b7f3055265812fb8447b9ada4a5d804ec43bd528ec40e89c952bbc7b85dc5ac681181604051808273ffffffffffffffffffffffffffffffffffffffff1673ffffffffffffffffffffffffffffffffffffffff16815260200191505060405180910390a1615b427f65c531bb0deeaf8a2b75f65123e44c83d316f397fdd92cc7cea733054eeddb0260001b61146c565b615b6e7fedf7f4ff4d68e22f95bf9acc385585c84b62df0eada292b2ffa4762fda01b6f160001b61146c565b615b7661d1fb565b50505050505050565b6000615bad7f10cc19600de6c7d55a0896596d47f39d33db6e4962f95655ac47a2f5c68c7df960001b61146c565b615bd97f9406f87ffd39a2817f316db2d2df1aef4b7dc329e58568a244572dc7b09d1c7a60001b61146c565b615c057f2f4d3b55a322b3d380c437829660ac820ad6b223f9fecfd2f316fd660bd4e06e60001b61146c565b6000600b60008473ffffffffffffffffffffffffffffffffffffffff1673ffffffffffffffffffffffffffffffffffffffff168152602001908152602001600020600001549050615c787fa0e90600373520cda7a8aee25fba6971a53d51e3b3c5feb321e2554d5b04fb9460001b61146c565b615ca47f43ac78ea40332b5ef1a9e6b78d781c87d2d27a8f462b31deb00fdd454b2eb11160001b61146c565b6000811415615d0f57615cd97f49f31252cacb8f68f93402774cce88b2a146ef18b21deb33f719a20cc6ff308860001b61146c565b615d057f9110586ed9a0815cbc1536740085642fa1e15c9fc3ec402b1aec9a019fca41e660001b61146c565b600091505061612c565b615d3b7f6e7b22b27623433e7b1654370a26ffeb62cf27e4735a620973cb9c46f1eaf24d60001b61146c565b615d677f18ced270a1024d4df55ebdea226f9d52387518125869d7eed29df69b46ef3a5160001b61146c565b615d937f31f4f07cb8ff83b2a6d979f84248c17750748eec4a31d84368c4b535b6d67d0560001b61146c565b6000600b60008573ffffffffffffffffffffffffffffffffffffffff1673ffffffffffffffffffffffffffffffffffffffff16815260200190815260200160002060010160009054906101000a900473ffffffffffffffffffffffffffffffffffffffff169050615e267fb270cdc60490f11919c11c5e9ff24fd2b8f337bfb49e3b42d320b55e151e37de60001b61146c565b615e527fe9e91011df875ff69517a54b926d8293ed0c6f128ca487c22bd501f0590c764160001b61146c565b60008073ffffffffffffffffffffffffffffffffffffffff168273ffffffffffffffffffffffffffffffffffffffff1614615ecf57600d60008373ffffffffffffffffffffffffffffffffffffffff1673ffffffffffffffffffffffffffffffffffffffff16815260200190815260200160002060000154615ed9565b670de0b6b3a76400005b9050615f077fd8433c8c24dfee0fb74698f74bd36d9ee7b0d0ea561cb17046f7261b1cd0185c60001b61146c565b615f337f14733d2a32ba57b175227b20f5b25de8482e6f59aba06818637836eb0be0ad4060001b61146c565b615f3b61e60d565b600c60008773ffffffffffffffffffffffffffffffffffffffff1673ffffffffffffffffffffffffffffffffffffffff1681526020019081526020016000206040518060a00160405290816000820154815260200160018201548152602001600282015481526020016003820160009054906101000a90046fffffffffffffffffffffffffffffffff166fffffffffffffffffffffffffffffffff166fffffffffffffffffffffffffffffffff1681526020016003820160109054906101000a90046fffffffffffffffffffffffffffffffff166fffffffffffffffffffffffffffffffff166fffffffffffffffffffffffffffffffff168152505090506160657f83f369918d71b978bb7edf0353974d59995a2a301ad4d0b2a569119bfa2604d660001b61146c565b6160917f529862032375c15fcd1cf1696cc37324ef895723e4d0c97dc1cc441912317a7060001b61146c565b60006160c9670de0b6b3a76400006160bb6160ac888661c952565b8661cdf890919063ffffffff16565b61ce7e90919063ffffffff16565b90506160f77f4dc2964ae01249310703ce6ec93ce8bd02ae345185affa5d8af5390a46829f9560001b61146c565b6161237ffd8d6c688a1e4d9d2dc19ded5a21f431dd5b846e10f5fdb4bc9a7ad121dca18460001b61146c565b80955050505050505b919050565b60056103e8670de0b6b3a76400008161614657fe5b040281565b600b6020528060005260406000206000915090508060000154908060010160009054906101000a900473ffffffffffffffffffffffffffffffffffffffff16905082565b6161bb7f79aa4611b66bffdadeb53ea5a4cdcada27aafb3ce41838ee0fac97a1ba0aa19460001b61146c565b6161e77f07015fe2f9963364c1bf694cd788d2e5a87dc88640e6f10e0a0a7b0925af393160001b61146c565b6162137f659fad388fc721d466ad41cbb931efcd613d0b512ddde5b7e1b0d6e8bf671edd60001b61146c565b6000600b60003373ffffffffffffffffffffffffffffffffffffffff1673ffffffffffffffffffffffffffffffffffffffff1681526020019081526020016000206000015490506162867f27bb058f7c11c8fb42d26d388259cda81e100f3cc0ec68da732ff4a1ff39c3dd60001b61146c565b6162b27f010698fb15ffa44a85675200b54f2096f68048c9e9ecb4f50559b681704b577160001b61146c565b6162bb81617a0d565b6162e77f13b340cba58e420d945a6d4a440e69bde8792fc3541160d3f0d9afe8bd86972c60001b61146c565b6163137fdf66803ca392a6388db3421ff7b4b5570a4a072610790f632e00fd5ab4c16d2b60001b61146c565b61631c3361d2bc565b6163487f38f1a23573d6a7388764ad8b0f026bb0e07b0cea9cec315e2ed5b7ededaf5dca60001b61146c565b6163747fa5c9994967e759ee0cfb495a4d1285e76b24215e930327646d68abf801773d6f60001b61146c565b61637d3361d4cd565b6163a97f01220f7b70394add45b72cc4008b1d2b54067ec4271605b0798fd641326c9d9b60001b61146c565b6163d57f1e6faa8b8ea2eb36a692125b513b293ec681497d04385620488f5027bad4e3b060001b61146c565b6000600860009054906101000a900473ffffffffffffffffffffffffffffffffffffffff1690506164287f39bb929a470645bb2cce9331bbe18def59c4ac9631e58d1e9e839050110bd8ef60001b61146c565b6164547f84de5f70cb16b7a27768e5cd4d57cdd4e3b6bd3e8ee7575617153113103e57fe60001b61146c565b61645d81617b45565b6164897fdf846fa1fa0f43dfeb9059eac56f90c3e4268bf1533d94581f940f68c381895860001b61146c565b6164b57f91ef438631df1af5b4dc5d2ae1da1a5f2f6e22475a5c7e8468e1e83da5552e3b60001b61146c565b60006164c0336129fa565b90506164ee7fd665c78af1a58a1c9b87872d39b2c34c406c6f4b6f639ad2dbe05ba896bb399160001b61146c565b61651a7f2bb67668c079aec73acf3c369f303264eea40c4311f5ef29c607622b35d6066a60001b61146c565b600061652533611783565b90506165537f2d00864fa288b173759582dff7ab6ec83872faf6e4a3d3fdce23a8fc23484b1460001b61146c565b61657f7f7290e61ab0a9cb64a967a3661a0a08affccd48697ff955d49f330d4e0117b14860001b61146c565b60006165948286617d5290919063ffffffff16565b90506165c27f88945dde3efd3968c5a1f7dae50923fda37ea74854538af9079a38d224ea651460001b61146c565b6165ee7f6f9297c46d4897678daf888f8e5f6fa33003b563abe3446cffe720fedaf1118260001b61146c565b6000600b60003373ffffffffffffffffffffffffffffffffffffffff1673ffffffffffffffffffffffffffffffffffffffff16815260200190815260200160002060010160009054906101000a900473ffffffffffffffffffffffffffffffffffffffff1690506166817f75d0d25762a4e72d3cb274c0c562e56f94605559850925a07512b6b74235969060001b61146c565b6166ad7f96505f072a8ec687b4cc58c49ceab13c5b391cc1dd3cfb7f6543c70426daee9e60001b61146c565b6166b8853383617d9c565b6166e47fdcba2c04335823c4800e9a2d9a1baaef86606afde9f0a560b875913768215f6e60001b61146c565b61670f7eefad2857261ec3c45881cc1c81372b35b5b014be797445f25b45c3f9740f8860001b61146c565b600061671a82614a9d565b90506167487faab289d3389696846ea920157642a05a9e72b84dd83c159ffa47140c96cfe8a660001b61146c565b6167747f561ce7820276b4d4edb0e75d53cfbfed2e48b1ade58a8361767b7feaac89811860001b61146c565b60008190506167a57f33aed60e4879b95b67c5609b09e580c9ce60b82b6b44febd45792ddc6c82583960001b61146c565b6167d17ff751c77b19a6230f5292927976d56426a8c339158b830d404f85ba9d9fdf655a60001b61146c565b6167db83826182bd565b6168077f6a7a1d91d93efdd3333c24145d27f34edc4455c0e2c398caa580a455e77338e260001b61146c565b6168337f9a54b69566d8f5dcac8915328c449da2c1639226adb33697dea14866d84e9bd660001b61146c565b8273ffffffffffffffffffffffffffffffffffffffff167f99920012339b5a3368d3a04b8606ce412c46ed92b7dcd8602d41fc8862cb8f258233604051808381526020018273ffffffffffffffffffffffffffffffffffffffff1673ffffffffffffffffffffffffffffffffffffffff1681526020019250505060405180910390a26168e17f73f8e93781e0765a9ce81faaa59e5de4efaeb39b298036c4d45f2dd781b798be60001b61146c565b61690d7f53d0d7008cf668e49d36bb15c3b9291eabb93e348464ff1ef3aeb14cdc0caf2460001b61146c565b6169173386618e92565b6169437f235c11b739f8a8e486dfdf93c1cdb3c7c9c1216fe52da0ebd386db8b06540ce560001b61146c565b61696f7fe4daff8bf00c5316796e3c945e6a5a22c737cc2b8398da043a65f9a3b1ed512d60001b61146c565b3373ffffffffffffffffffffffffffffffffffffffff167f51457222ebca92c335c9c86e2baa1cc0e40ffaa9084a51452980d5ba8dec2f638786604051808381526020018281526020019250505060405180910390a26169f17fa3634a733e1dd1730638b96cf35077d2c145a4428319894cc7e32c0383365bea60001b61146c565b616a1d7f2d940316b9a1f922fd3e8c272d0594e387ef3d2a5cbbf0f597a8bd2f083152f160001b61146c565b3373ffffffffffffffffffffffffffffffffffffffff167fbce78369dccab09eec1986f4d409ab09ffbb47d65423e5148fcf98411c5111c9866040518082815260200191505060405180910390a2616a977fd310dfb9bcfbf990ccf2809f1d918954ce6315d3688dc2231d33527c53e4daa760001b61146c565b616ac37fe4a21383ad2c2f5f46ce9642d57ef39af4c685f549924d0fa9de4f5ea8fd04d860001b61146c565b616ad886600954617d5290919063ffffffff16565b600981905550616b0a7f0f9cf10810553db99968c91899b89d34437d650aa7fbe633175f03748b72826360001b61146c565b616b367f0f88dedad65d5f28f178268fdadbe23b0209161b873af3e62e1fa91a09efb0db60001b61146c565b7fceb6d671277d4354fd29977ada70695fbd93a16612abf765d6b0e25c28dc6db36009546040518082815260200191505060405180910390a1616b9b7fead998a93987097738b8cd31a845b9b70c413e42f7fe3e53fa60505c45c6f07860001b61146c565b616bc77fb04d4cb99b04fd7e117c884a2a717b32e832de2512297fe0fe802baf1bebe93260001b61146c565b7f6109e2559dfa766aaec7118351d48a523f0a4157f49c8d68749c8ac41318ad123387604051808373ffffffffffffffffffffffffffffffffffffffff1673ffffffffffffffffffffffffffffffffffffffff1681526020018281526020019250505060405180910390a1616c5e7f37872bc8289a157dd87de3a825e99df9318971016e3360a8fe4b9c62d883d55a60001b61146c565b616c8a7f09baa210094379e56bdd1d68c372c21cafd7baa8b2871558847674e3fcea1e9160001b61146c565b600460009054906101000a900473ffffffffffffffffffffffffffffffffffffffff1673ffffffffffffffffffffffffffffffffffffffff1663ea9638bf87338d8d6040518563ffffffff1660e01b8152600401808473ffffffffffffffffffffffffffffffffffffffff1673ffffffffffffffffffffffffffffffffffffffff1681526020018373ffffffffffffffffffffffffffffffffffffffff1673ffffffffffffffffffffffffffffffffffffffff1681526020018273ffffffffffffffffffffffffffffffffffffffff1673ffffffffffffffffffffffffffffffffffffffff16815260200193505050506000604051808303818588803b158015616d9357600080fd5b505af1158015616da7573d6000803e3d6000fd5b505050505050505050505050505050565b6000616de67fd911fb17773aeb4d370d6d91142ccd933ef00135c08b0782e2cc26af3ac877f460001b61146c565b616e127f8e40d1cbc3580b28ae065f2e0e850d23602c278e0c6e09647f05a1315d04d65b60001b61146c565b616e3e7fed02ec260edcc67b8be6dad3a64dc67e65596d64cff4e18e32da1820a9581c3d60001b61146c565b600082602001519050616e737fac210809070bffa1b84194f1fc445064e50cf40d2f9c82a1f1629530ec4f228060001b61146c565b616e9f7fc5ee1d0fe1a033404c3cad476008a343dd13842d5ec7351902c70dc3f078d61560001b61146c565b600083606001519050616ed47fc0797475a7c4d0eae3748a7a1ce3fd4a46ac9e27d308a1be36865e1d1556d0f460001b61146c565b616f007fb9e9956a9e692e625de208067c9da98c3ad4ea3d6190cc71662989e382b124fa60001b61146c565b600084608001519050616f357f39f033eab3530977e18f8752df3daa83d948ce8ccf0bf202a5f48857b61c36f060001b61146c565b616f617fb479bf0c967a5cc9eafe1464f942d609dbc726c29a5384758735b8a97279987160001b61146c565b601160109054906101000a90046fffffffffffffffffffffffffffffffff166fffffffffffffffffffffffffffffffff16816fffffffffffffffffffffffffffffffff16101561700f57616fd77f58450a03a829336cb670ba780f1803c2abf9b98402b808980639c75b611765e560001b61146c565b6170037ff0b61c266091c9605ea5456c53425135a035cf1f85ee70ed7c72a2c2202f9d1360001b61146c565b60009350505050617587565b61703b7ff7f769d8d07f05eb2df42bec3019793fed32e8b366a042b05c3dceb7af9a9ead60001b61146c565b6170677ffcd16ad9d7c4d943726303017200e2c678afed08ea52147152cca9d3f0e02b3160001b61146c565b6170937f8ee42aa23a6d074979bd8c7a88a40f44730013415f4ab0ea846473eb0940778d60001b61146c565b60006170c17f64a948f2894cb4d229872afff2515c2bc9bd87e0b568c78c781b9aaecd202df360001b61146c565b6170ed7fd57a791d7c5974931e9389257e447507165330a9ba21872768c8e3d0c311632560001b61146c565b600061713284601160009054906101000a90046fffffffffffffffffffffffffffffffff166fffffffffffffffffffffffffffffffff1661d66b90919063ffffffff16565b90506171607fa231dce8c34ac9cad17d894418730e75f7a98b6a9ce16b8e516e34e89acf8dc560001b61146c565b61718c7f0c9654d6a1741af5f3059069ffe4df0b7c37879b1fec6d8a8db173ae645a5d6960001b61146c565b6000816fffffffffffffffffffffffffffffffff161415617259576171d37f899e61516c79d557844bea67fb73441748640807173775174076e4410ec74bc760001b61146c565b6171ff7f9c0495cc5d8344f2a16fbfefa214b56ee2bf47c8699f8c128c76a264e5b7216c60001b61146c565b61722b7f7c192b4f95021b3117ebd94f09844766ae40eb949b1a54cdbabb10a2ddb69fa660001b61146c565b617252856172446010548b61cdf890919063ffffffff16565b61ce7e90919063ffffffff16565b915061741e565b6172857feb03f80f8e2e86a7124631885600659d32164683bd52cf69d9830da0269805d760001b61146c565b6172b17fba12d71296702c3f4b598421a1e6d62832b177c680f93d14a2fa25b0cdf997d060001b61146c565b6001816fffffffffffffffffffffffffffffffff161415617394576172f87f6cd9730b58f39c12c2ec3671d3cb5a96d36b1fbf6b2fb886bf606d667ac3c33160001b61146c565b6173247fc9ea5d5cd886a16aec726e4cf99e34ee118daebb0cd201b98b5e42179ce9277760001b61146c565b6173507fdefb17b5aca980e247819046938ae708eb0584f3cfba88310e961ac0312d05a660001b61146c565b61738d633b9aca0061737f876173716010548d61cdf890919063ffffffff16565b61ce7e90919063ffffffff16565b61ce7e90919063ffffffff16565b915061741d565b6173c07f0d4cef10e2fa73d76eed78c104201bc01c66e818c51ae772d62b92854cf8215960001b61146c565b6173ec7f3f154711a0987261f2df79acc83208ea003f314626e5c9257a4637e966d9a5b260001b61146c565b6174187fd4a752b6cae16fc01c2060a32e5514925c719511dc052a2a95f9e5f2d3f72ef160001b61146c565b600091505b5b61744a7f63f7de89cad2c9c2b682076d105b1dab7cf79325660c501a5d5ef7abb029a79e60001b61146c565b6174767f8a9001b565c3ada7e98e683c5b48c4afd761de05ea5682e5762ce7f9f1eda80460001b61146c565b61748d633b9aca008961ce7e90919063ffffffff16565b8210156174fa576174c07f3714b206315e3f529df837b06693decf6df3a8e0a9c58ed4e4ba8d0ab1693d4860001b61146c565b6174ec7ff63a4368912ca6704ca6d51b2c9fa318d866d81b31192a85218b244041e9660260001b61146c565b600095505050505050617587565b6175267f2cddc43f2ddf8246259da5a3ea26217b7cf4c45419e25fb960800199c69967d160001b61146c565b6175527f671014f69d19b801f3290b75b2beebbe9f8ebf9e925cf20bb441ba26966bd78c60001b61146c565b61757e7fee4128f624894d34670a683a9ad5f93de9f8f74c867d9f377601767fd37d7b6760001b61146c565b81955050505050505b92915050565b6175b97f3f3de0d0f28467aa8922e0ac5ec727eb5455616488faaa13bc31371390f02b2b60001b61146c565b6175e57f116b9f3946e134e19d5d097f21436cbdc6161d415d15fcd22abea9bdbe47741560001b61146c565b6176117fe468ca51de50479a3e2cf67cea086847566f72e2f72b307210f04b23d009d61b60001b61146c565b6000600260009054906101000a900473ffffffffffffffffffffffffffffffffffffffff1673ffffffffffffffffffffffffffffffffffffffff16630fdb11cf6040518163ffffffff1660e01b8152600401602060405180830381600087803b15801561767d57600080fd5b505af1158015617691573d6000803e3d6000fd5b505050506040513d60208110156176a757600080fd5b810190808051906020019092919050505090506176e67f67c27296adcc50b8013c21694d0556b5ff8919ac22ec49610975ffce1a9caf4f60001b61146c565b6177127fdc4f012dff4c967610b2ca1a621229c6921239c7a1e274868fcebbc19f5d9cc960001b61146c565b6000600760009054906101000a900473ffffffffffffffffffffffffffffffffffffffff1673ffffffffffffffffffffffffffffffffffffffff16634d6228316040518163ffffffff1660e01b815260040160206040518083038186803b15801561777c57600080fd5b505afa158015617790573d6000803e3d6000fd5b505050506040513d60208110156177a657600080fd5b810190808051906020019092919050505090506177e57f6c39b9879586b480efffc51567febfc4a8b4c7161e0b5cd63e2c66b67aa5799260001b61146c565b6178117fd42064dc9366a96b96bc6e47ae31441ca732fcf5b747f7989207e5e7fb6a309860001b61146c565b6000600560009054906101000a900473ffffffffffffffffffffffffffffffffffffffff1673ffffffffffffffffffffffffffffffffffffffff1663d293c71083856040518363ffffffff1660e01b8152600401808373ffffffffffffffffffffffffffffffffffffffff1673ffffffffffffffffffffffffffffffffffffffff1681526020018281526020019250505060206040518083038186803b1580156178ba57600080fd5b505afa1580156178ce573d6000803e3d6000fd5b505050506040513d60208110156178e457600080fd5b810190808051906020019092919050505090506179237f623b88f7aabc552b370b69a179e74448b3ef536456f67519282c26e8bce8513260001b61146c565b61794f7ffb6758808d30d2eab8af3ca84ebf43d50b5a378d0c6215a60ca284c1188082b360001b61146c565b61797b7fa5c79d83a358dc97f4a0d8cc6865397cb6e028f5522152e815b4aa11b70cd23860001b61146c565b670f43fc2c04ee00008110156179dc576040517f08c379a000000000000000000000000000000000000000000000000000000000815260040180806020018281038252604481526020018061e8e76044913960600191505060405180910390fd5b617a087f9b0586fa088fcc636a4c20d475223093f3346a514e32620b5f9dd7365561873760001b61146c565b505050565b617a397fac808e188c925216ad2eded80652a6cebebffbac09b344155a5d95fc46d2656c60001b61146c565b617a657f22195c902ec18e769c5a9929476b4f229d81c1309d8fb4d8f7abf06b382ad2c260001b61146c565b617a917f1572d3295ee004d6634673d5c5471cd242277fa434b79513084d39c0c897389e60001b61146c565b617abd7f60f9fd308d565b05cd7af5e93916652aee778dcfcde89c56f7c7d6911a1395a060001b61146c565b60008111617b16576040517f08c379a000000000000000000000000000000000000000000000000000000000815260040180806020018281038252603081526020018061e86a6030913960400191505060405180910390fd5b617b427f45c1822bc3820f7518a0238c4f4461c62f82b2d687a99fa07e0cb0eabbf14b6160001b61146c565b50565b617b717f4ed42d5f2f48b454c2aaea66a01fd94ffff4c5716ffb8ff4bd6b9e45aed3874a60001b61146c565b617b9d7fdd2555a2517d19dd05c06b124a76ed4a221f34e8c4100247a24833a57840560e60001b61146c565b617bc97f833912de26d30337e51716eb7c467a949e8ee8f0990c87ed88e23831e6949c3f60001b61146c565b60008173ffffffffffffffffffffffffffffffffffffffff166346ad34d96040518163ffffffff1660e01b8152600401602060405180830381600087803b158015617c1357600080fd5b505af1158015617c27573d6000803e3d6000fd5b505050506040513d6020811015617c3d57600080fd5b81019080805190602001909291905050509050617c7c7f01d61a1cd1daeedaf9ad2f04e60ba0cf160faaa5ed6fb128d3c30e91638ae6b060001b61146c565b617ca87f1b85921546b2f3ead819e3a61d5be70377d15d347b6af45d62b957e126c619c160001b61146c565b617cb18161d887565b5050565b6000617ce37f47d1f47bc050b9504bdb99b9bb5b4ef650bd54eba129f8f462ba53eeb800e1aa60001b61dec8565b617d0f7f8bd1b7c6f317176e126becf0775e874110a4f4c3632da3308f1b96d29114d76f60001b61dec8565b617d3b7f306334dc7786218d10d6d1fbfce931f8906c3249c067df2bd86b69566eb3362460001b61dec8565b818310617d485781617d4a565b825b905092915050565b6000617d9483836040518060400160405280601e81526020017f536166654d6174683a207375627472616374696f6e206f766572666c6f77000081525061decb565b905092915050565b617dc87fdaf12516d047f212e5f725cd1c0d6503097c33f6297449bc6523ffed0309399f60001b61146c565b617df47f25502f1d65aa28546f33f0e8baab94ce41b55f8dbfc99a00e87123b3e0c9f00e60001b61146c565b617e207f068b874cf5a3c7c8fa5a00444941ea407401db9f55d0be9a88f4a87e8e079afc60001b61146c565b600073ffffffffffffffffffffffffffffffffffffffff168173ffffffffffffffffffffffffffffffffffffffff161461808857617e807f9f318ae27d523dc1740bff43ea574ab7a58e872a1ff6d058b6757f9370bde9fe60001b61146c565b617eac7fbf772a6722a8f4237f98c7bae19aaa0c4deb319791f744301b2504b497a7646c60001b61146c565b617ed87ffc1c37178b22731cd1804b3b0d16abf0821aeed5afad1986ce5742b5bc7031fe60001b61146c565b6000617ee382614572565b9050617f117fb4239c59f7f45eb4952c8e53f685c7373a6e774a744c582437cf87bfc7e9a68160001b61146c565b617f3d7fe40ea608e342409a88a41f3fa174fdaefb5317d612d758715bf81e5b68c01e7860001b61146c565b8373ffffffffffffffffffffffffffffffffffffffff1663614d2ab683836040518363ffffffff1660e01b8152600401808373ffffffffffffffffffffffffffffffffffffffff1673ffffffffffffffffffffffffffffffffffffffff16815260200182815260200192505050600060405180830381600087803b158015617fc457600080fd5b505af1158015617fd8573d6000803e3d6000fd5b505050506180087f9046ed45ba4b9d8d94d3b8f8da52f25b4854b97e6bbe70ca399d481ba11643ce60001b61146c565b6180347f1da4ca231e81004b68657d81758a78b2ee3fc693d8282e2b38f1279ed6bb549960001b61146c565b8173ffffffffffffffffffffffffffffffffffffffff167fcd2cdc1a4af71051394e9c6facd9a266b2ac5bd65d219a701eeda009f47682bf826040518082815260200191505060405180910390a2506180b5565b6180b47f87b38ded37f1ef7ce3b0ca2fdf06159c7554696f0a5cda28db6f117beef2e74360001b61146c565b5b6180e17ff44197927e5be1f1e1f79f38a54c83d4b0a27d2eb7e2022062b316d6b55ce25760001b61146c565b61810d7fa5ad7730509bf7c45d38abf58524180fbe4a04ff41cb9f5b1c3c36502000278c60001b61146c565b600061811883615b7f565b90506181467fe03c8531d3ada30bdd6bfb63dfb42747061683e7bfb2370e55624e405fc6345760001b61146c565b6181727f31ddec2f70622d1fa357ab0be6abf855785a15a4d4014f09d838d55e4cb2d15f60001b61146c565b8373ffffffffffffffffffffffffffffffffffffffff1663614d2ab684836040518363ffffffff1660e01b8152600401808373ffffffffffffffffffffffffffffffffffffffff1673ffffffffffffffffffffffffffffffffffffffff16815260200182815260200192505050600060405180830381600087803b1580156181f957600080fd5b505af115801561820d573d6000803e3d6000fd5b5050505061823d7f5ca6a053da8439fa404eb9b07e8bfcee6e55ffcf96fd08c5b9dbe9543ad2bcd360001b61146c565b6182697f19451b68ff880a765a5b91188d0014437149a0bc6cd96ca16828c979c4d9d57260001b61146c565b8273ffffffffffffffffffffffffffffffffffffffff167f2608b986a6ac0f6c629ca37018e80af5561e366252ae93602a96d3ab2e73e42d826040518082815260200191505060405180910390a250505050565b6182e97f7333774735e64830ce54079f12460899080122e65893d4b8879001218ce4bba360001b61146c565b6183157f687d275680a1ddd962be21554227d245d8dac01578311c674a57ef883029d1d560001b61146c565b6183417fc9876e659403ae7dbb87462ebb98d376ade3957a4ddc76a948d4b3901a39b30c60001b61146c565b80600e60008473ffffffffffffffffffffffffffffffffffffffff1673ffffffffffffffffffffffffffffffffffffffff168152602001908152602001600020819055506183b17f64643c163690f8f00f319bfdb87db455d9c349b98c44c83663c047a899167f3160001b61146c565b6183dc7ea7fa1f150a93b195c67922961944a25351c67a440647f65a06515c0ab4e23e60001b61146c565b60008114156185e9576184117f9e2bde350753f79fdc2eea4bf58da9be7bce8360f8617650ca5168788a04fff060001b61146c565b61843d7f1b8812589534ee3504d9c87a567acb77489dfdeb7e4cb145eaf63e91d2378dc560001b61146c565b600f60008373ffffffffffffffffffffffffffffffffffffffff1673ffffffffffffffffffffffffffffffffffffffff168152602001908152602001600020600080820160009055600182016000905560028201600090556003820160006101000a8154906fffffffffffffffffffffffffffffffff02191690556003820160106101000a8154906fffffffffffffffffffffffffffffffff021916905550506185097fa447fa27ec1db940482866d4e3eee0647e4a981f56ab6ab0dcc72b96098d349760001b61146c565b6185357fbdd826283e444212f3e903a77e9ed0e6c1d2065c877e2d46f29ec6886e820d7960001b61146c565b8173ffffffffffffffffffffffffffffffffffffffff167fbb1322f85cc7cc8bac4e172a5bc5dcc0c1959007f9a030032abf9258205f0e45600080604051808381526020018281526020019250505060405180910390a26185b87f0ed636637ae492600fa30e1d847d4073a50f417069611be3f8d7f369dc22f5f460001b61146c565b6185e47f84ffe1c5e82720f75fae6e22104684996ec5f023f4f5e503f5f5162e0a9fb38260001b61146c565b618bc5565b6186157fbac2258d4e10666cdd4247566cec2ebc8b45c4353c081eca23569eb9a32fa37960001b61146c565b6186417f0b8e12f1c2a36df08b6b19d1f8e9f58d932350f18888c8770967afdf0d54e4da60001b61146c565b61866d7f310935f8e280807c63535994e4c074226e3664a8e6cae3e664589eee54a2679660001b61146c565b6000601160009054906101000a90046fffffffffffffffffffffffffffffffff1690506186bc7fb8ad85bdce86253ebe2f5886e36d8229b22be5bd22fd01ca46eaae9f69de00c260001b61146c565b6186e87fcc5ee73ab81ba65c2765c4a56e7cae27cbc3937237683be37ea35b7bb812b33d60001b61146c565b6000601160109054906101000a90046fffffffffffffffffffffffffffffffff1690506187367ea75fd8d5e10e7158c827c7239e185e0a5e5615c136ff9d82e222eef3dbf20960001b61146c565b6187627fbb1119b99c980c94894c2df3d6a38bb1a3095cb983803cc66c0133b64415258360001b61146c565b600060105490506187957f91f501d8120ad389b961ddadb25a779adaa4fe250456403ea9607408fa8fca7660001b61146c565b6187c17f1fb50474ffec4b2b37f8bfdce63971d46b113ae108a27582006cca30cc04c7bb60001b61146c565b600060136000846fffffffffffffffffffffffffffffffff166fffffffffffffffffffffffffffffffff1681526020019081526020016000206000856fffffffffffffffffffffffffffffffff166fffffffffffffffffffffffffffffffff16815260200190815260200160002054905061885e7fecc2f58e94fa64bbde07dacbdeb558968984e3c033a136e00457c0c8a6fd374060001b61146c565b61888a7fdbbee299aa0d53f3143c21cf332e1337156e078c44faa90cbd1686c462d9786860001b61146c565b81600f60008873ffffffffffffffffffffffffffffffffffffffff1673ffffffffffffffffffffffffffffffffffffffff168152602001908152602001600020600101819055506188fd7f99365af57a0756809d2d0d0df2dee43622519d7dfe28fa55eb1739da876ea38d60001b61146c565b6189297feb0679c84170e12ac16359943091ed5c722d4f2752995ed54f9bb68d40816e4b60001b61146c565b80600f60008873ffffffffffffffffffffffffffffffffffffffff1673ffffffffffffffffffffffffffffffffffffffff1681526020019081526020016000206002018190555061899c7f72265e5558988650a33a325b37d635930cbd641ae2caef10a8882b27622b2d1c60001b61146c565b6189c87fcfca5a58fe2383f74a1e3c07c1a23280df44a6cdccec0cc8ef101f348fe5ab9060001b61146c565b83600f60008873ffffffffffffffffffffffffffffffffffffffff1673ffffffffffffffffffffffffffffffffffffffff16815260200190815260200160002060030160006101000a8154816fffffffffffffffffffffffffffffffff02191690836fffffffffffffffffffffffffffffffff160217905550618a6d7f9e08b64ea176a760749cc529c8921a9df05b05ad26650494c0549995a67ab31160001b61146c565b618a997f58704571cf2fb10c075c07522ec791169b6d3f0f23a64c2fc4dd3980e15bf7b860001b61146c565b82600f60008873ffffffffffffffffffffffffffffffffffffffff1673ffffffffffffffffffffffffffffffffffffffff16815260200190815260200160002060030160106101000a8154816fffffffffffffffffffffffffffffffff02191690836fffffffffffffffffffffffffffffffff160217905550618b3e7f4e7c8dd34576240ed679192a6373f15c8192fa1ec293f53f4cb793ee449c284d60001b61146c565b618b6a7f8a5df5608a89944075af1a3215a5bffb3e45fdbbb9282dc884d86e6b44c7b63c60001b61146c565b8573ffffffffffffffffffffffffffffffffffffffff167fbb1322f85cc7cc8bac4e172a5bc5dcc0c1959007f9a030032abf9258205f0e458383604051808381526020018281526020019250505060405180910390a2505050505b5050565b618bf57f882de61c72584c88c3449d1a5128fdb98699902aa346c2e4097069cb203dc63d60001b61146c565b618c217fb2c9c5c6b30d289e046f0f88cc55c78689b71d95d18e81f031a2d6642ea6f4f760001b61146c565b618c4d7f87845b1e6cd2b8f1cce4d4b52366cae398aaecfdb2dc46cdcdc1d733727f709760001b61146c565b6000811415618cb357618c827f5725e390cf3b09d8546d8bc21778e3c8950ce56462cb0f32112042f319c3c12860001b61146c565b618cae7f918209132d2ad4a2e30dac9dae7854f700c670f029c90d7c52b6ee71b80b956f60001b61146c565b618e8e565b618cdf7f5bc8e6acadddd6ccb6789cafb59859648b64fbc7bc524c90b811a10894f9546d60001b61146c565b618d0b7fa6aa611736bb64c737a0705457f25cd0afa055de31443ab19d3a9144f4e75daf60001b61146c565b618d377fe73281b71f4887a07dd2488dc884ae4fc1216ac808b72156b6fd335ab87cd18b60001b61146c565b600660009054906101000a900473ffffffffffffffffffffffffffffffffffffffff1673ffffffffffffffffffffffffffffffffffffffff166320c582be3084846040518463ffffffff1660e01b8152600401808473ffffffffffffffffffffffffffffffffffffffff1673ffffffffffffffffffffffffffffffffffffffff1681526020018373ffffffffffffffffffffffffffffffffffffffff1673ffffffffffffffffffffffffffffffffffffffff1681526020018281526020019350505050600060405180830381600087803b158015618e1457600080fd5b505af1158015618e28573d6000803e3d6000fd5b50505050618e587f30a91031fa063d484dce392c713318e2706e3bc8b489d415c562cf6f95403f2360001b61146c565b618e847ff7e4de3d3fc7154e0aa8fe342cb8de4ea99d4921bbb0c4e16898eb407ef4b13560001b61146c565b618e8d8161df8b565b5b5050565b618ebe7f3d8f1b37dcb71c8235fc4d1703c7cb0abdccc1342a1f8afd859c5c14e5c98a4a60001b61146c565b618eea7f078752fd0bcbf3ed928351e8651e56d199221a40139e2ca06aece18410bff67060001b61146c565b618f167f243dfff6511649557afacc64ccf3b9f7beb72e5ee2654e3e9c002f8a09b6fe5360001b61146c565b80600b60008473ffffffffffffffffffffffffffffffffffffffff1673ffffffffffffffffffffffffffffffffffffffff16815260200190815260200160002060000181905550618f897f7ddec5e35bce902fb3eaa5ff55f5529464288fb1a339be50e65d57d112dcac7460001b61146c565b618fb57f384e451c0fb546f4f5db2edd2e4d24104a689c06fedf3bedce0c555afa87d82760001b61146c565b600081141561925c57618fea7fe6f291a612653a6a51d9c227b848fc1343b10b61dda795e6025ca67dcc81cf4a60001b61146c565b6190167fece9227977f8359f5c3085a10f645595e6529f99cd4827a555e91b6d1b9f446b60001b61146c565b600b60008373ffffffffffffffffffffffffffffffffffffffff1673ffffffffffffffffffffffffffffffffffffffff16815260200190815260200160002060010160006101000a81549073ffffffffffffffffffffffffffffffffffffffff02191690556190a77f8dc68686f0cc92d4f8a5686bb7d4a98aeb682f43460d1607fe20ac9f00ab024d60001b61146c565b600c60008373ffffffffffffffffffffffffffffffffffffffff1673ffffffffffffffffffffffffffffffffffffffff168152602001908152602001600020600080820160009055600182016000905560028201600090556003820160006101000a8154906fffffffffffffffffffffffffffffffff02191690556003820160106101000a8154906fffffffffffffffffffffffffffffffff021916905550506191737f84566ff5778b801aa16cff11eaabed86f05ef334ba14a94ce2d7d6ef3ba0a7f960001b61146c565b61919f7fce55654e706b86c4e142bdb2a3889eea3247c4e3bb44f9c26918064dd4fa8c7460001b61146c565b8173ffffffffffffffffffffffffffffffffffffffff167f2d6cc0bcdf72c9486f6451bde6b80f44066f4558f77f44dbfedbe7d8b295225a600080600060405180848152602001838152602001828152602001935050505060405180910390a261922b7f4bbe35abc0df828d428dec5ec83d3fd185b1ad7ad04fc0607d26f0ad4a51082e60001b61146c565b6192577fbbcee554bc95968726e330883c116af83725c455b761a26523c27251ec5d98c760001b61146c565b6199aa565b6192887f1caf30a711581d8f41cd474f82b9b017b6e03d4e5dc0efc968adea5f6ce658e160001b61146c565b6192b47fa64d30033a54863d34d4c0e7930b2690ac065a0be66db8eeee49d4107afa29b060001b61146c565b6192e07fef854bc32a5d31c4949904c42e433b59696eb1abd25400909e7b1bf5e004cf7460001b61146c565b6000601160009054906101000a90046fffffffffffffffffffffffffffffffff16905061932f7ff6c2e98166e5fac0d9d38be5f1f1b2d1eb919ec53d9e5bc8c77152c3a67d3ac860001b61146c565b61935b7fe72b3d2810d2fb88534ce643891238e7f223d5436cdbe9494463f15c53425a3960001b61146c565b6000601160109054906101000a90046fffffffffffffffffffffffffffffffff1690506193aa7fdd369fe24997ed8a8c9a83d5749d0b1942e91f56d97ce7a622450b9fceb647ad60001b61146c565b6193d67f7940db9ff9010a312f16faf7fe4af567b53a3a392023d2d1ec9687807daa7efa60001b61146c565b600060105490506194097f813c43c9869669e479f8acfadef8350305814bf797d5b1df7d121309ef53eee360001b61146c565b6194357ffc396b23d95266b2ee48de9c140514d967447c262dd5786de43a1631e4c3650b60001b61146c565b600060126000846fffffffffffffffffffffffffffffffff166fffffffffffffffffffffffffffffffff1681526020019081526020016000206000856fffffffffffffffffffffffffffffffff166fffffffffffffffffffffffffffffffff1681526020019081526020016000205490506194d27f3413975fcbc47be97a3dcbeb2c843eecc63fa40e51bbeabaae10c94fbc349acd60001b61146c565b6194fe7fc9d01528a15cb96f6a0413bcc64dc3a07c19aef74e9d38172d2bfd00711cdc4960001b61146c565b600060136000856fffffffffffffffffffffffffffffffff166fffffffffffffffffffffffffffffffff1681526020019081526020016000206000866fffffffffffffffffffffffffffffffff166fffffffffffffffffffffffffffffffff16815260200190815260200160002054905061959b7f64c1d8e0d4399e43df66aa41ce5cc5b0d90ab103d767464d28be72f33c9c835460001b61146c565b6195c77fb7765bf680e5c33174ea096689ce5302b8d738975c5706e47cec2497725187ce60001b61146c565b82600c60008973ffffffffffffffffffffffffffffffffffffffff1673ffffffffffffffffffffffffffffffffffffffff1681526020019081526020016000206001018190555061963a7fb39f2351b026d0dc77f7b7c98c32e18b4135f867164b740ddfe349432975639060001b61146c565b6196667ff4630f50c2b6b1f19ee109ddd756140c97b8cc86c46744136a6bc5050b050c0a60001b61146c565b81600c60008973ffffffffffffffffffffffffffffffffffffffff1673ffffffffffffffffffffffffffffffffffffffff168152602001908152602001600020600001819055506196d97fbc979d8442fce9d2f833148940f43495da29a4621cb928bf56e5fe8835cfa26560001b61146c565b6197057faba9035ece752ee48c8358088c103258b25060f845134781edb05d15d15dbfb860001b61146c565b80600c60008973ffffffffffffffffffffffffffffffffffffffff1673ffffffffffffffffffffffffffffffffffffffff168152602001908152602001600020600201819055506197787f4375c17d80f9a9050865c2909b65b567272ee6d15d1291d63667c86b55533ffd60001b61146c565b6197a47fa384829bb0b6e5a6945174f8ae095f1f96eca6e616b902c90107b88fc5777bc660001b61146c565b84600c60008973ffffffffffffffffffffffffffffffffffffffff1673ffffffffffffffffffffffffffffffffffffffff16815260200190815260200160002060030160006101000a8154816fffffffffffffffffffffffffffffffff02191690836fffffffffffffffffffffffffffffffff1602179055506198497fff376fb9732318d2ba0492725151fb501d426ae2d5a46c6803fc10d540bdc53360001b61146c565b6198757f7346a2aeed46d72d51250d5c043d8432fe3dbc60ebd2e35e8043cbd33a85927d60001b61146c565b83600c60008973ffffffffffffffffffffffffffffffffffffffff1673ffffffffffffffffffffffffffffffffffffffff16815260200190815260200160002060030160106101000a8154816fffffffffffffffffffffffffffffffff02191690836fffffffffffffffffffffffffffffffff16021790555061991a7f4db225c62bc321a43be4ac241910d3fd94fd19a1ad37548996d506c3d90f11f660001b61146c565b6199467f4be560a2f71b327c13b2000ecdfe43dc62a5d4aa8947c5a3fc26466739678a4160001b61146c565b8673ffffffffffffffffffffffffffffffffffffffff167f2d6cc0bcdf72c9486f6451bde6b80f44066f4558f77f44dbfedbe7d8b295225a84848460405180848152602001838152602001828152602001935050505060405180910390a250505050505b5050565b6199da7fa1ab2f221c052caab666d1d59a2615a8fb972948b3134d1b12f9ec26ff67706960001b61146c565b619a067f42fa81ce5f23337ff8031a9ad6e0849d8c01aa6fdf30f884ba0ec1637420b61760001b61146c565b619a327fe4f6246f92cabee08898a2ad87df4c6ce0b25646092f989cca8f79715edf38ad60001b61146c565b6000811415619a9857619a677f7e4ffd27b6e0e732866aa8de7e08f404bb46de9a6d43710c3ba7bf0e7a6a906c60001b61146c565b619a937f58b1aa26a5da83402d49fe5d1b9c49d8c74e5f8e2a5a50a4fec7569eabbe8a1c60001b61146c565b619eaf565b619ac47f4c6cd6794e9d17dc553bad3788820a14ffa3b774fe150f4b97e3fbb4d410353360001b61146c565b619af07fcaa5845d463cb7900bc8b57fa976ea79e0377baa1df955ff8fa67e4495d9d20660001b61146c565b619b1c7f405f959cb19190c537d397811a359cbb065ab9bf555db08ad02deac08961ee6560001b61146c565b6000619b3382600954617d5290919063ffffffff16565b9050619b617f9f799960f81aa53d101da076cc838f698d1bd66b0ed188920a2338e7c5e938dc60001b61146c565b619b8d7fc2c52c195ffa3b831dd16c605e22da0ca8d7eb44ba1df6e3edba75dded3ec19360001b61146c565b80600981905550619bc07f6eafa12298334647ae0aa539eb7fedaf6ab924ab8e16a533ce079747dd4faf3460001b61146c565b619bec7fa95adeb84ae3b74808606151f6640414d69c403720f43cfa69d4a4e5e968fce060001b61146c565b7fceb6d671277d4354fd29977ada70695fbd93a16612abf765d6b0e25c28dc6db3816040518082815260200191505060405180910390a1619c4f7fca9ca4d2b422572426a68e52620a305a13475f5cc765fb38c6587a04d09e038360001b61146c565b619c7b7f71f56853791b91c9f0afa47683aaccc9d7996c8f617fb1e6f33c644bbdae2f0160001b61146c565b7f6109e2559dfa766aaec7118351d48a523f0a4157f49c8d68749c8ac41318ad123383604051808373ffffffffffffffffffffffffffffffffffffffff1673ffffffffffffffffffffffffffffffffffffffff1681526020018281526020019250505060405180910390a1619d127f3be5cdbab73eae9f139fb44acee9a386f868387cc75e5a5d3fb217b2ad7e3dfb60001b61146c565b619d3e7f093af3b05b0bdffec6eb874bfc9d70cfc560470431f0fb7461c416c2ef13476a60001b61146c565b60003373ffffffffffffffffffffffffffffffffffffffff168360405180600001905060006040518083038185875af1925050503d8060008114619d9e576040519150601f19603f3d011682016040523d82523d6000602084013e619da3565b606091505b50509050619dd27e5d9bda2ce9008dcc30f99793ea1bbef5c11c778ed286cbc07a176b05d2632560001b61146c565b619dfe7fa76736da15ef9b1c4a9946360fb1227a3c8911d66dc454fae7ae39476bda4afe60001b61146c565b619e2a7f5ab0fe542a0903f6c62653cc5b656d7672ea96067d0a21c3e978e4eba1af4ea160001b61146c565b80619e80576040517f08c379a000000000000000000000000000000000000000000000000000000000815260040180806020018281038252602181526020018061e76e6021913960400191505060405180910390fd5b619eac7f32a2f550dfefe1759e0c7c0a25bc788b6621abb02fb2f1b801175fbe4ecc6cc760001b61146c565b50505b50565b619ede7f64cf9d60d5a2afd1f517428ad571666d4983ba25b08c5d2bc55d7401522fba0c60001b61146c565b619f0a7fd53946da3bdf38ecbd2124e54228366ca3c6fab9257ddb425b85886a3287e71060001b61146c565b619f367f79b626b2810621fe92479fbf80e412604a9f36dd5c022804d5b969ca135afb4260001b61146c565b619f627fa5ff9e8275541914d3ea61e89931eef2326b09cd9967bfaf092eafade58f1ad560001b61146c565b600560009054906101000a900473ffffffffffffffffffffffffffffffffffffffff1673ffffffffffffffffffffffffffffffffffffffff163373ffffffffffffffffffffffffffffffffffffffff161461a008576040517f08c379a000000000000000000000000000000000000000000000000000000000815260040180806020018281038252602981526020018061e7456029913960400191505060405180910390fd5b61a0347f016c1a990b7b2d7c5aa1e04c456e9821f4e07cb6dc7ae8063535d0a77b0f38c760001b61146c565b565b60008061a0657f268656f54d0b13b04f9930ddff0497141ee4664626e5cd78287e2c825102aea460001b61146c565b61a0917fc750ed3c34643ab782cf016097523e04555b64b5b121b20db386c0734eae4e3c60001b61146c565b61a0bd7fe78a8bb54cc45a4ff78162d031d19d539aa40de0ad3205670524e3ed9aa26e7960001b61146c565b600061a0ee60155461a0e0670de0b6b3a76400008961cdf890919063ffffffff16565b6115f290919063ffffffff16565b905061a11c7f8d75ebccbe0e4d962a7c9514daac0e205ed771bfe2fea45435d099514ea1291a60001b61146c565b61a1487fd235ad0bd99aed9b72ec307c34ea6216694d1ef9dcd4d4cb34f43d67cdf05ff860001b61146c565b8385111561a15257fe5b61a17e7f9291073777d73ba5c408add19e0c096a458a48690759911d995f5d09e8885e8360001b61146c565b61a1aa7fdfa58c3e6453f19d3ff1a2fa4cade3d8e49283ce3ca14a93c08a3164308a7aa460001b61146c565b8385141561a2a65761a1de7fa3ab04d5a5c50aebeaaf7bdb8add5b9dad177bee2d4c85812e3e019350502c7060001b61146c565b61a20a7ffe88220350948eedfa6ef59b6b82f04f216294f38edf0561e42b132d0cf1415d60001b61146c565b61a2367fc0b1d4ff9317a0d8a053adfd34679c5bba99e9e6561e6ae0278c3bae34dcc6af60001b61146c565b670de0b6b3a7640000915061a26d7fd66b9a8e8638fe92b4904186ce6cef89be5bc52da398d0f07edbad5b53bfd71360001b61146c565b61a2997f753291fc951fd5e704f112b625647d6642296bde0cfb82f5d68c8176a92d0e6360001b61146c565b600060168190555061a462565b61a2d27fd657a85359c28f09b751e49f52a175d15144b11be81f8e7351ae2fc9d944a64c60001b61146c565b61a2fe7f106d0d55f26ed31fbfca89b4084da53756bb06cd8a8fb4dedb9d4e523f79c92960001b61146c565b61a32a7f62252aa79e2b890bde7649d67267c64e6f43be429fb562bb1f3cc41892974eea60001b61146c565b600061a35b60165461a34d670de0b6b3a76400008961cdf890919063ffffffff16565b617d5290919063ffffffff16565b905061a3897f143ed80b5b38078e6635fdc34d0d36e013846a377782d5add1d88dde2e1bbcb860001b61146c565b61a3b57fb40c5298ef71044674daf91fa88058ab6cd31d330a087d9543f0e37b70744b6c60001b61146c565b61a3db600161a3cd878461ce7e90919063ffffffff16565b6115f290919063ffffffff16565b925061a4097f2418ae341203671ce7c91df0422a244c3d580b598949b7c097a324a346ebd8ae60001b61146c565b61a4357f4eaf757be44e0e21336f9090235f3269f2aff10bce13ad986f24ffbf6186858860001b61146c565b61a45a8161a44c878661cdf890919063ffffffff16565b617d5290919063ffffffff16565b601681905550505b61a48e7fab310a4097229826a49e89e08ef3032a56c119e35277e3f97c31ec94b0a0783560001b61146c565b61a4ba7f994fb08decf6ab915e3e4d4e020ca8e97d711f5231f3e4c4536b6ac5d79c5a6660001b61146c565b61a4cd848261ce7e90919063ffffffff16565b925061a4fb7f4bb47e5c5597085a198f8f95e897a2885a496261f39aa087008fd4185a3669b860001b61146c565b61a5277f3160619aa45a1b33a7d8e3988885900726de5289743c3388a102fe16db21f83260001b61146c565b61a54c61a53d858561cdf890919063ffffffff16565b82617d5290919063ffffffff16565b60158190555061a57e7f17442a7448490f2e31672fdce7de6751dd153f4c6521c0b09bd86410bb32899360001b61146c565b61a5aa7f977bf07bc56b0c119a7d5c0999c1f7b451e5a8690fe92e4099764f54e29ca6a160001b61146c565b82829250925050935093915050565b61a5e57f20bcb947a4f2cf06270727bc882ca4b9af4ba1715a60e74aaf48bfd5744afa7460001b61146c565b61a6117fdcd4b4a8459335add9c06c38b2e3f8c6f2160695fee1eb4ba395e4f83a8094bd60001b61146c565b61a63d7f55c48ec53c81dab54e34acf9994a4f9cadda475ea140b7342551505dfa0e39df60001b61146c565b6000601054905061a6707f4485d15d41f4946d5dcf32306e9dda81a0fc28167cff9b07f53cf0ae1a65bcad60001b61146c565b61a69c7ff89f061b8045d0a5dca83f1044002cc8faa8f60e6b08ee414eabbfc3539538a360001b61146c565b600061a6ca7f29866f6d99a4a13e28ed4eef572462ca69a61f26d6c34eeeeb8f682f3b368f3e60001b61146c565b61a6f67ff60c4bbacf3c1b9ec4ffd31731b4b820210d6ae1997c89589cc78be1c33029a160001b61146c565b670de0b6b3a764000083111561a70857fe5b61a7347fad353a60d5a677c68ed5b54e94d78330bf6f623f59a3f0d1f8c0898a736a8ed760001b61146c565b61a7607f4b1eacc8429136c971b5fc4d5851b46a7fb5bdf783a23b5c894d107c2d32e99460001b61146c565b600061a77d84670de0b6b3a7640000617d5290919063ffffffff16565b905061a7ab7f4177a33be68a13c1c941675e94462e61b3b3c7b0f7c45984ec70d62a4b818d0060001b61146c565b61a7d77f622c48238a37a99f80a929355e7283161bcd6b269d3f82ffbe70af8ebc4746be60001b61146c565b6000601160009054906101000a90046fffffffffffffffffffffffffffffffff16905061a8267fbc2b516e1a68e090ab986ad8217b215e02bb4ff80a6bb5bb9c192d04799798da60001b61146c565b61a8527fce60007182cc6b590d63510d948367f7e4805cec3b5ad6bcc3e4978aa72538e060001b61146c565b6000601160109054906101000a90046fffffffffffffffffffffffffffffffff16905061a8a17fe7f7d81cc1f58c88c50d3acb2806fe91562fede7c39b77d459fc3def726b76f860001b61146c565b61a8cd7f53d94d39ebd8f36577a503a6c8d915d5edb16c6316c8e514790a9cb6e7c0c8fc60001b61146c565b600060126000836fffffffffffffffffffffffffffffffff166fffffffffffffffffffffffffffffffff1681526020019081526020016000206000846fffffffffffffffffffffffffffffffff166fffffffffffffffffffffffffffffffff16815260200190815260200160002054905061a96a7f6a351f864e6f3a4f412857d9b31c2c22d5319a218f443649eefa9b65223ea72060001b61146c565b61a9967f7670728bf2fed29d35d48108c4f71511d71874e6932c7afafc330476e4a91d4660001b61146c565b600061a9ab878a61cdf890919063ffffffff16565b905061a9d97f18beed7b3405becbef0cb0d544b473b02ab1c1e22dcd95cd1e17e00ec714527360001b61146c565b61aa057fdb34854856e2ddba1f30fc91edc4d3b2cf842628335db65fe0bdfe9a3270cf0660001b61146c565b600061aa1a82846115f290919063ffffffff16565b905061aa487f86c3cb6c03485575049c0748631563017a233a374d815396b730fbfc8702e9cd60001b61146c565b61aa747f3e0412114466fce790b5a08a77d210b9d4c616baabf1bc99db02b3f11d4147c460001b61146c565b8060126000866fffffffffffffffffffffffffffffffff166fffffffffffffffffffffffffffffffff1681526020019081526020016000206000876fffffffffffffffffffffffffffffffff166fffffffffffffffffffffffffffffffff1681526020019081526020016000208190555061ab117f670d268d812d18a47d6c7c5f0d842cf35fdd28bd2b3d83d39c671f9452b7114860001b61146c565b61ab3d7fe41a80e7b40a4361b92fa7ff227fa99125ae5dacbe3be0bf9fecd94eabce09e560001b61146c565b7fe12e2cd2c9afa8069203ca07e7eff1edce4a075686d0736a8e7e0d593597b20781858760405180848152602001836fffffffffffffffffffffffffffffffff166fffffffffffffffffffffffffffffffff168152602001826fffffffffffffffffffffffffffffffff166fffffffffffffffffffffffffffffffff168152602001935050505060405180910390a161abf87f5511108c17b2261f271c659050d12e1c430fd18e617ae9be76a6fa17cd92ac9f60001b61146c565b61ac247f4a62f2fad340d895e32c4cb2526e9986b7204e94f1083444e1c6165e6f57c1f560001b61146c565b600086141561afab5761ac597fa67cd79d2154a8dcbd5fce4d6531b80d685f8afaad0094b90165b9bff2c8b2b860001b61146c565b61ac857f8799288ed5dcfcc2595b6eb99e7e0d7c0f86d30a3a13da9b3d80badaa51b6e7560001b61146c565b61acb17f7e9701fd1db122a793463a62bd08bcbd1be462bddc8e4556fb288da46ba6845360001b61146c565b61acd76001856fffffffffffffffffffffffffffffffff1661e11a90919063ffffffff16565b601160106101000a8154816fffffffffffffffffffffffffffffffff02191690836fffffffffffffffffffffffffffffffff16021790555061ad3b7fefa7ed6596d1666bb79be0771150574c35b4e5fbe447f3ddfccc74d10e7c772160001b61146c565b61ad677fa8ae388c7d1f3a2b16a5c563a443c99b1c98df36138da7e5b5b1b9deaae8edec60001b61146c565b7fb50f0f59e7cb5b421dc77581c3a9919e3806e076e5fa78a874c3f120cb7d874d601160109054906101000a90046fffffffffffffffffffffffffffffffff1660405180826fffffffffffffffffffffffffffffffff166fffffffffffffffffffffffffffffffff16815260200191505060405180910390a161ae0c7f6cd43b3c13eeecba7f3c3d825a0a2bc66d3aa229cab23d09deb8ab4f0e9a61d660001b61146c565b61ae387f69ed7fee91ce0af3ea614d6a91e86c5951607e8ccc23598265947b3cbf072d0f60001b61146c565b6000601160006101000a8154816fffffffffffffffffffffffffffffffff02191690836fffffffffffffffffffffffffffffffff16021790555061ae9e7fda38e21b8ccf5c7578fcba562f14c67ea5e004ba2491243a459c7829e9b49c7560001b61146c565b61aeca7f52c10cd46be7bf9ff0a87c5e0eb1a1a123eb42958f0f23e00d431044e2e5ebb460001b61146c565b7f1f9dfc70cd666adb18a39d60a797518f7b4febf4b6e24ef37d44f6e1e7219fbe601160009054906101000a90046fffffffffffffffffffffffffffffffff1660405180826fffffffffffffffffffffffffffffffff166fffffffffffffffffffffffffffffffff16815260200191505060405180910390a161af6f7fc635e7333757458922b2118a0c0afdef0bce28fef4ccd39ef386a16ad1cbd6d660001b61146c565b61af9b7fb50c1cf0ad6a3bb77029fac0e1e84086fe463a13d786340ca8791917de58c58b60001b61146c565b670de0b6b3a7640000965061b345565b61afd77f77cdbf7e07e0190a4a0e57168d7f11555c1a46b3816a3fd345a13d2e0512846e60001b61146c565b61b0037ffe5ebb801a658770575c387db93e184a15fc05ba3fa5d857a83b7c9ee4e39d0360001b61146c565b633b9aca0061b035670de0b6b3a764000061b027898c61cdf890919063ffffffff16565b61ce7e90919063ffffffff16565b101561b2905761b0677fdcc2af47f3e825e5e75aed07060f4ac29f4480e0b75049d2467773b06e4accd060001b61146c565b61b0937f3218fefbb2518ca3b42a387985a950434d9109c892494f78c9f94413ff5de0de60001b61146c565b61b0bf7f98b0fef3a5196e6b4573c14e8c9afef458a560f71c04a191b32594443a60a78660001b61146c565b61b102670de0b6b3a764000061b0f4633b9aca0061b0e68a8d61cdf890919063ffffffff16565b61cdf890919063ffffffff16565b61ce7e90919063ffffffff16565b965061b1307f68cea7259f663bd44e866514dfb02012550b61f86c2092adf77cb4522cffaa5960001b61146c565b61b15c7f14caa1a784a3730c28607ddb6420d890913c52f046fd639122ac136b1a7f9d9460001b61146c565b61b1826001866fffffffffffffffffffffffffffffffff1661e11a90919063ffffffff16565b601160006101000a8154816fffffffffffffffffffffffffffffffff02191690836fffffffffffffffffffffffffffffffff16021790555061b1e67ff6f73a656f2272224aefa8e385433a300323ffe2122227231494c59908764d8b60001b61146c565b61b2127f26c9d79fba4a054ab0d64a2ad5a461d4c0a998aa1f8b85ff06422cd969a7e0d760001b61146c565b7f1f9dfc70cd666adb18a39d60a797518f7b4febf4b6e24ef37d44f6e1e7219fbe601160009054906101000a90046fffffffffffffffffffffffffffffffff1660405180826fffffffffffffffffffffffffffffffff166fffffffffffffffffffffffffffffffff16815260200191505060405180910390a161b344565b61b2bc7f8759a2a0a0003f67208bcdd3596795c467c7c15ed9c5b0df94805d376cf2df7f60001b61146c565b61b2e87f595f45d1213824765c6d46f6758f068727ee54c5d15f30cdfd7591fd6d519bed60001b61146c565b61b3147fde8f7597a64b77005ce08b8f66a36aa51962e0b935b44b0d41db83d826cbd54060001b61146c565b61b341670de0b6b3a764000061b333888b61cdf890919063ffffffff16565b61ce7e90919063ffffffff16565b96505b5b61b3717f39f2d9be8e6ce8a5ba492361428dcbe9dc989153b1121d0937bd9ec464b22c0d60001b61146c565b61b39d7f54dd2509691177e1634a83a25d3b8d48f2e2d6445a8992c922bf51aca97b463660001b61146c565b6000871161b3a757fe5b61b3d37f755b6db23b876498081db2e3104564969eaaa58cda552f61934070d828396e1560001b61146c565b61b3ff7f4e61a32c7b13801c251ab9b21e9263d7c8be93e8996ff1ce8868f5bfb0769fe860001b61146c565b8660108190555061b4327f78004c3dba91c3621f43dbb63c67a5c8679fb8e7a804fc6a57345fc39f82aeb560001b61146c565b61b45e7fc58a6479bd5c0a3353da51854987b283706922534f8630ef823c149fbcd56eeb60001b61146c565b7fc1a9618cb59ebca77cbdbc2949f126823c407ff13edb285fd0262519a9c18e8c876040518082815260200191505060405180910390a150505050505050505050565b61b4cd7f9d36dded589a84b46da176ad689a2bda7b1697363d3b81a5c5aca7218d05efa060001b61146c565b61b4f97f62fcf4b0e5fa55c8b4264cd46d7c3e0ca82c987a91638a77ba062e0772f34bd860001b61146c565b61b5257f6b8972d6af1c6312158da2d29bc7ba4d8151f78776f6a8757bb89f8f5cad5b6a60001b61146c565b60008060009054906101000a900473ffffffffffffffffffffffffffffffffffffffff16905061b5777f619d237351922dd0bf0be409a48f2fede4c003babac50b0b7511e836ec7f014060001b61146c565b61b5a37f9dfe31f36c783c9c5a85bd0cf877b52c26c721d8adeb6dadd5f88dd4aff4893d60001b61146c565b8073ffffffffffffffffffffffffffffffffffffffff166338d995a8836040518263ffffffff1660e01b815260040180828152602001915050600060405180830381600087803b15801561b5f657600080fd5b505af115801561b60a573d6000803e3d6000fd5b5050505061b63a7f129ebee5200eb019e3481d21f41d5f2347608ac0a38df6e7cc2ca5b2a5c324cd60001b61146c565b61b6667f361e50072fa44883c605fa40a58223ef1c6647cd3fbeac8d48749343e4d0002e60001b61146c565b61b66f8261df8b565b61b69b7ffacebaaac991f2f087c1f382e95ca2cec845fff5d05c249764ad40220a24d3dc60001b61146c565b61b6c77f78833a98df474c318602cb5bedb3b9021915873f832a91340fed44ef9fb9d98560001b61146c565b600660009054906101000a900473ffffffffffffffffffffffffffffffffffffffff1673ffffffffffffffffffffffffffffffffffffffff16639dc29fac30846040518363ffffffff1660e01b8152600401808373ffffffffffffffffffffffffffffffffffffffff1673ffffffffffffffffffffffffffffffffffffffff16815260200182815260200192505050600060405180830381600087803b15801561b77057600080fd5b505af115801561b784573d6000803e3d6000fd5b5050505061b7b47fbe00f21701ca3a337786515f2d59f32e67e6c5867cdad7f4e87b9af5978fde8a60001b61146c565b61b7e07f4c883274b2f47ec9833e91477f72b270edf88acb41b7f45eb6f4be27f3d2f26760001b61146c565b8073ffffffffffffffffffffffffffffffffffffffff166364a197f330856040518363ffffffff1660e01b8152600401808373ffffffffffffffffffffffffffffffffffffffff1673ffffffffffffffffffffffffffffffffffffffff16815260200182815260200192505050600060405180830381600087803b15801561b86757600080fd5b505af115801561b87b573d6000803e3d6000fd5b50505050505050565b600061b8b27fcea0101d3a48240a104c2c90bfcfed3ea1d947ceffbc5ed8084b074a23bbad7d60001b61146c565b61b8de7f970ec9c429dfdc978b14cb6dd4790ea9ded3e269757009c323100f733f70f5cc60001b61146c565b61b90a7f042703052524105aaf2590603aa14df53e68808e4fac55cb495c875c96b00b9960001b61146c565b60008260800151905061b93f7fb06273a6e4f97b6e608f730404a37d0c56c2c3917754a3719834bac189979d0960001b61146c565b61b96b7f820078dfc057ea562ebc6c064f8a5021b8c27a0634ee894e9a83b8791a85fb5260001b61146c565b60008360600151905061b9a07f3f50b6c6f29c3ee9c696f6919fe653068c682c19af5f5497a585cd987d11b4a960001b61146c565b61b9cc7f19049250f41ba8d4e470609492451ed18a9a6842779a82a16de5bf5b6ea19f9860001b61146c565b60008460000151905061ba017f99bd6fec0146571c030eb228a0e8d1cdf3574336bd5a11d379e7c4bddb64d6f960001b61146c565b61ba2d7fd9da35655cd4779ad70db4d1b18d74b0b7c36c4ca498883623db657725ee428760001b61146c565b60008560200151905061ba627f333ef8c4e392804e5f7f9ae00aa23b4be293c2c7f3940d84c2af3d015f339a8760001b61146c565b61ba8e7f0ea578836ca86b9239b8e3fefa5bd50efc252354ee22f351cc6805c2b2dcf77860001b61146c565b600061bb0f8360126000886fffffffffffffffffffffffffffffffff166fffffffffffffffffffffffffffffffff1681526020019081526020016000206000876fffffffffffffffffffffffffffffffff166fffffffffffffffffffffffffffffffff16815260200190815260200160002054617d5290919063ffffffff16565b905061bb3d7f91782ec67ff203cd4b6cc62de22500430e399ee7673f3b79ba679f667afcf2aa60001b61146c565b61bb697f35a5f7b8afc2c8cacaba3dc44dd8252faac5cb97fe48a70e294ed6dd2556b1bb60001b61146c565b600061bc13633b9aca0060126000896fffffffffffffffffffffffffffffffff166fffffffffffffffffffffffffffffffff168152602001908152602001600020600061bbd260018a6fffffffffffffffffffffffffffffffff1661e11a90919063ffffffff16565b6fffffffffffffffffffffffffffffffff166fffffffffffffffffffffffffffffffff1681526020019081526020016000205461ce7e90919063ffffffff16565b905061bc417f2ea5367385e741727df560e9cbfb545e7b79acacdab7882736ceae8fa790e7e460001b61146c565b61bc6d7fb7d4d0db1021dcf777f67bc5669cd89c616e775b0f52059dfdd71e38bc920d4860001b61146c565b600061bcc0670de0b6b3a764000061bcb28661bca461bc9587896115f290919063ffffffff16565b8f61cdf890919063ffffffff16565b61ce7e90919063ffffffff16565b61ce7e90919063ffffffff16565b905061bcee7f3f25d2532d147d0f46d367b785f33ae84add5d286d78a015490645101c31158060001b61146c565b61bd1a7fcd0ee461ffddcbf6165daa1dc9c3c7a375fd08cedc4d6d309e888d63c6e4179960001b61146c565b8097505050505050505092915050565b61bd567f190c9b8a689cbbf95282e283b565bd26c0a708719f08ddd799c1594573b20b4f60001b61146c565b61bd827ff8e69d5919466061911204d26b1c1ccfb8fc83d56191311034a8a81bcbc59e2b60001b61146c565b61bdae7fc5252e6b847587d580ba0e230b19b2e04ec46fc83c9d2c72839b700ba475a98560001b61146c565b61bdda7fe586924bfe7ab557b794b5d3c2d91eac53bcec98bb016c20d24fe6c85e66001060001b61146c565b600d60008273ffffffffffffffffffffffffffffffffffffffff1673ffffffffffffffffffffffffffffffffffffffff16815260200190815260200160002060010160009054906101000a900460ff161561be80576040517f08c379a000000000000000000000000000000000000000000000000000000000815260040180806020018281038252603981526020018061e8096039913960400191505060405180910390fd5b61beac7ffd5b12b91cdf5740e935266d2388a2646259160ba9bcd746d2984799f9c929d760001b61146c565b50565b61bedb7f733f3bacdda22b0fab0b1eb52cc9554fe21cf3da3910f6bc0809cd3c19f621a960001b61146c565b61bf077fc48792f38f7a513b8b58ba5514819f219e33f1f312615fbca4bed9d87032124860001b61146c565b61bf337f795d21751b2d7538564bd3e64dfb64cdf2230f05d448df155d63b5547a04206660001b61146c565b6000600b60008373ffffffffffffffffffffffffffffffffffffffff1673ffffffffffffffffffffffffffffffffffffffff16815260200190815260200160002060000154905061bfa67fc40133680c6a350888f629f0535f175e8c4d462e7dbb5ca4ee049a9e4f9299a860001b61146c565b61bfd27f5958d775fd333a874fc7a4a06c2a8090075833880221e4f3209b2c04a5bd952060001b61146c565b61bffe7fee26900352d4e9e2e67fbc751fcde08b5e22381b8cf9b97bd1153e8d1f3509f760001b61146c565b6000811461c057576040517f08c379a000000000000000000000000000000000000000000000000000000000815260040180806020018281038252602881526020018061e8426028913960400191505060405180910390fd5b61c0837fc7327303c59e3ce1e7a89b75a5fbe373cfeb49c8f186901f090ca0eede77cc2f60001b61146c565b5050565b61c0b37fb28e4729ffa94adcb4e83952c8377a2ceebb02a66b23abec9f7d046657f40b2360001b61146c565b61c0df7f66cff3ed15c74905a3dd53d103e5d2b13ed36b4a4d9f467094dbf3e3654fb61860001b61146c565b61c10b7f69b9bee7d3661919d02b7207b0a86760b05b9687c31489f3db9025772e047cf560001b61146c565b61c1377f4075c202dbb3aac2416b9b09eaaead63400e81fa5987ae7a86a5eec87d733b4460001b61146c565b670de0b6b3a764000081111561c198576040517f08c379a000000000000000000000000000000000000000000000000000000000815260040180806020018281038252603381526020018061e7b06033913960400191505060405180910390fd5b61c1c47fb1fdd74a7cc88d22769334607dd4ff950ae763e3dad81996cf074ef31461b65960001b61146c565b50565b61c1f37fe691fad05ae7a4ce542ca6183db05b15b5ca877eabc41ef0fce1c20d1236a01060001b61146c565b61c21f7f6bfb818643190dffcc63377b71dced0ce775d69041e085750e8033016b49d38360001b61146c565b61c24b7f433e6e3c1baddd7872989d2c871a089bac54209810e462acff00ddfc4e250b4d60001b61146c565b61c2777f9159c72e9e3a03d8aadba54989ccac10da5921149d37f57f6ace44ab01b8670e60001b61146c565b600d60008273ffffffffffffffffffffffffffffffffffffffff1673ffffffffffffffffffffffffffffffffffffffff16815260200190815260200160002060010160009054906101000a900460ff168061c2fe5750600073ffffffffffffffffffffffffffffffffffffffff168173ffffffffffffffffffffffffffffffffffffffff16145b61c353576040517f08c379a000000000000000000000000000000000000000000000000000000000815260040180806020018281038252604681526020018061e6a76046913960600191505060405180910390fd5b61c37f7f79f0682fb4075b09ed2973c7a0b22212ce5cab80db5bcd5ef40b675f820c8f5c60001b61146c565b50565b61c3ae7fb264748b76b038f0e9fde16b7f055313835887c4c6f84d2b136fcfaca73d434d60001b61146c565b61c3da7f7bbe31b27bb8a657e9fbb20d02b193c835958ff3353d896775793015dec1cff460001b61146c565b61c4067f5e1f05f434151a592127fec899785c9182bdfe7d64e44215c363c1ab65cb744f60001b61146c565b61c4327f362c42da00b542832e087af30815b4860fb1ab8d7dad999432f0b36602c040e360001b61146c565b6000811161c48b576040517f08c379a000000000000000000000000000000000000000000000000000000000815260040180806020018281038252602681526020018061e7e36026913960400191505060405180910390fd5b61c4b77f653f50cd1a7851bf81acada976ac5fb57fdbdc01eaa1cd9d67082506c6ba1c4f60001b61146c565b50565b61c4e67fec0aee374a9583a8b1aaf19b977fd9687db6cebabb1ec2d1f9ad62dc86d2736260001b61146c565b61c5127fe211547a65df17b76cc2e889dad700b5f58d37ebcd264806a4e3ad9d217caac360001b61146c565b61c53e7f896c13f1a501e79b7a4280127a56149e40499f2e2930b27b53a9527a738cdea460001b61146c565b80600b60008473ffffffffffffffffffffffffffffffffffffffff1673ffffffffffffffffffffffffffffffffffffffff16815260200190815260200160002060010160006101000a81548173ffffffffffffffffffffffffffffffffffffffff021916908373ffffffffffffffffffffffffffffffffffffffff16021790555061c5eb7f45ae69869d4743f70642c6fc5a5bcd05a068b0ddb5d420270e4df1be9e106eff60001b61146c565b61c6177fd97b5fede997444e011b3aea729e58aa55c9ae8be8c658feafc84b35901cf2ce60001b61146c565b8073ffffffffffffffffffffffffffffffffffffffff168273ffffffffffffffffffffffffffffffffffffffff167f094c08e96a8890877a8390b4f967180a7507ad8622244d05fcd0f9f8e086564e60405160405180910390a35050565b61c6a17fab4615728be128a4d11df33426735b59ae8df9ad75636f7ab818397d133d0d6f60001b61146c565b61c6cd7fa6c4c7b9b7a3030fcbaf134158dfa498c4788ba09ec3188b7bf33a15eaf7578960001b61146c565b61c6f97faa17ca3440faef580b5104d7cede9dae8bd45cba7b5ddd9d7f6ad8aa6cb32faa60001b61146c565b600660009054906101000a900473ffffffffffffffffffffffffffffffffffffffff1673ffffffffffffffffffffffffffffffffffffffff1663bb997bac8330846040518463ffffffff1660e01b8152600401808473ffffffffffffffffffffffffffffffffffffffff1673ffffffffffffffffffffffffffffffffffffffff1681526020018373ffffffffffffffffffffffffffffffffffffffff1673ffffffffffffffffffffffffffffffffffffffff1681526020018281526020019350505050600060405180830381600087803b15801561c7d657600080fd5b505af115801561c7ea573d6000803e3d6000fd5b5050505061c81a7f921b01cf865494b9b5f4146de271b6c9be5180be3e56317617af66a9d67cc99b60001b61146c565b61c8467fbcb06b1f9ea40dcb8837d5f44d353950bacd87bdf54971fae4406b16be2c6aca60001b61146c565b600061c85d82600a546115f290919063ffffffff16565b905061c88b7f4760677145631b0753adc0e91cb7fdb4fa8613f434164128d526a6eb84d98f7460001b61146c565b61c8b77f713d90885487bec6cdb3e357d440b67ade4c8e4833b4985ba9adb7bdd23f7f3e60001b61146c565b80600a8190555061c8ea7f6f29c8adf5bb839b1fcaee3b537ae94ac123e96c7e4768e63d4b1d3ef2c011cb60001b61146c565b61c9167f5f1b73588b5c9c731da68301722806449ea7172eb89580a1d312595c49d719af60001b61146c565b7fa8e886449d8f7e765877b4a4f54632da3943ae454d5a272bdccb1781f086ff29816040518082815260200191505060405180910390a1505050565b600061c9807f9616bd39dc9784369642991c79d7e2e3c9832fbeb24b7b6f6023631b04df631a60001b61146c565b61c9ac7f5ecfe87856c753a1ae5a33e757c220549a0feebdc6b33ce1ff93f762e936eb6a60001b61146c565b61c9d87fa73964399d41f57a5a3db7c8298a2910966b58b0e055a8434dc3dc04c288db1760001b61146c565b60008260800151905061ca0d7f0feec17c55dc35b239f8355cf5b9a88cb958922ec2eab6c5a02873ff57492bcc60001b61146c565b61ca397f3b84e2a4feb015a49f09f26d6c07207d3cd91c81b90a5aa7e326dd0494c6367860001b61146c565b60008360600151905061ca6e7fe2f296d812596862c146926c8a641c57b37e56a6f194aabe63ab8a3f1d89805660001b61146c565b61ca9a7f45de4a9182d25bd6d1930a6268f035ce1d0eebd8d5dc551ecf46c0620b15213860001b61146c565b60008460400151905061cacf7f792d9a359c41c156c27eacdf4f2ab05a24de78e87d04d5c4ad6b547b2727614d60001b61146c565b61cafb7f29e04c9e9ebb9bb946c4c2812a32aff13a30bf02543a9524c6e806dd8b7dc39b60001b61146c565b60008560200151905061cb307fb7e636b156128ddd58b7bd86b76247359a034b006ff4536ff5af4a14f5e7b11260001b61146c565b61cb5c7fdd762ecb587220c5feae3b461e774e05783529f0dd61deec6f1aef644b60eecd60001b61146c565b600061cbdd8360136000886fffffffffffffffffffffffffffffffff166fffffffffffffffffffffffffffffffff1681526020019081526020016000206000876fffffffffffffffffffffffffffffffff166fffffffffffffffffffffffffffffffff16815260200190815260200160002054617d5290919063ffffffff16565b905061cc0b7f5303220bbb0204faf58001834aefc9ba7f26d88b4d3958890d79c1ba6696e6c660001b61146c565b61cc377febb711d5c8203b7b266e054a88fa70b4c8678f1ecf4d02d32ba903a605908bb360001b61146c565b600061cce1633b9aca0060136000896fffffffffffffffffffffffffffffffff166fffffffffffffffffffffffffffffffff168152602001908152602001600020600061cca060018a6fffffffffffffffffffffffffffffffff1661e11a90919063ffffffff16565b6fffffffffffffffffffffffffffffffff166fffffffffffffffffffffffffffffffff1681526020019081526020016000205461ce7e90919063ffffffff16565b905061cd0f7f776b2638fdd13a168380a00ec7dbdca04605f4f8a3a2e72c123b72960c3473de60001b61146c565b61cd3b7f85dfd82b7d2e82a3ff104fcfac323f5231f9d94783ce774f4d3d34814b83660b60001b61146c565b600061cd8e670de0b6b3a764000061cd808661cd7261cd6387896115f290919063ffffffff16565b8f61cdf890919063ffffffff16565b61ce7e90919063ffffffff16565b61ce7e90919063ffffffff16565b905061cdbc7f0aa2a1a5816c376dd7da426d07a95db753b6a0f2b1b6e337a8d01480dcc9366b60001b61146c565b61cde87f316e4975fbc77821a1b77679fe7bf16d8b3881a15b5b35cdab7738257acc614c60001b61146c565b8097505050505050505092915050565b60008083141561ce0b576000905061ce78565b600082840290508284828161ce1c57fe5b041461ce73576040517f08c379a000000000000000000000000000000000000000000000000000000000815260040180806020018281038252602181526020018061e78f6021913960400191505060405180910390fd5b809150505b92915050565b600061cec083836040518060400160405280601a81526020017f536166654d6174683a206469766973696f6e206279207a65726f00000000000081525061e336565b905092915050565b61cef47f35bc9e5e61c1438a006153cf69ffd6105766a3055440d22f6c8ce219146d68af60001b6143c9565b61cf207fe66c045f45b868efda896f2af22ed71637a4e9e8d13a2b1962badf362ba3eeb960001b6143c9565b61cf4c7faaa4b517f253b4fa37cb2875514a22e04e7d5828c244c7095a27e85408ccd12c60001b6143c9565b61cf787f1221da0bd0f16fcbee175d4dae7d6b598e327e79264e77ced4c93a6a0721871b60001b6143c9565b600073ffffffffffffffffffffffffffffffffffffffff168173ffffffffffffffffffffffffffffffffffffffff16141561d01b576040517f08c379a000000000000000000000000000000000000000000000000000000000815260040180806020018281038252601e8152602001807f4163636f756e742063616e6e6f74206265207a65726f2061646472657373000081525060200191505060405180910390fd5b61d0477f09f0dc62d572b9e8dd242a1b7e25c3c5de1610d6c480bec35912dd5840f55fec60001b6143c9565b61d0737fbe74447fdea037b64141768df2430eb2b7113bef949c88d88dcdc549ba88703360001b6143c9565b61d09f7f04e66872d3f4c69728dfe545a06401e1b17e0f9dd5e1d43290514ae4fd92783060001b6143c9565b600061d0cd7f60826eea4af75abd2223d108cb037485a60c485e699a12a42cac24982b89800660001b6143c9565b813b905061d0fd7f7acec79ba6fd0be7bb4b2bfca56ca8eb3d8333d64e828971ccb7647facc3806360001b6143c9565b61d1297f0c7e0405db301404f844860b9fe6e14e956a97134ff8695c88184f1c957d6e0860001b6143c9565b61d1557f1c5a94c5a5d640e17d84bedbf9409c7f8afe563c4b1fceef7bced5961764ee0f60001b6143c9565b6000811161d1cb576040517f08c379a00000000000000000000000000000000000000000000000000000000081526004018080602001828103825260208152602001807f4163636f756e7420636f64652073697a652063616e6e6f74206265207a65726f81525060200191505060405180910390fd5b61d1f77f1023f03b6261b194c29dee3596b0d25a3be14b60910a1d249d0177db54f54c4a60001b6143c9565b5050565b600073ffffffffffffffffffffffffffffffffffffffff16600360009054906101000a900473ffffffffffffffffffffffffffffffffffffffff1673ffffffffffffffffffffffffffffffffffffffff167f8be0079c531659141344cd1fd0a4f28419497f9722a3daafe3b4186f6b6457e060405160405180910390a36000600360006101000a81548173ffffffffffffffffffffffffffffffffffffffff021916908373ffffffffffffffffffffffffffffffffffffffff160217905550565b61d2e87f49cf6fdea811b7275dc767d2c1487b60a409fedbb1eb38a30d0c81eacf6aff3a60001b61146c565b61d3147fe2566f71bad91319d87a2a6105d5de399b61f5554abab3f97fbc9b64e004c17060001b61146c565b61d3407fe83b1758edc16a4e61f6fa3ff43e1f2fe3a605d871d284bb43709c7404c167a860001b61146c565b61d36c7f9fdbbfd08ab33777d7d97cf9ab0e525be204754eecae9786b4f15299b6d823f260001b61146c565b6001600560009054906101000a900473ffffffffffffffffffffffffffffffffffffffff1673ffffffffffffffffffffffffffffffffffffffff166321e37801836040518263ffffffff1660e01b8152600401808273ffffffffffffffffffffffffffffffffffffffff1673ffffffffffffffffffffffffffffffffffffffff16815260200191505060206040518083038186803b15801561d40d57600080fd5b505afa15801561d421573d6000803e3d6000fd5b505050506040513d602081101561d43757600080fd5b81019080805190602001909291905050501461d49e576040517f08c379a000000000000000000000000000000000000000000000000000000000815260040180806020018281038252604681526020018061e6616046913960600191505060405180910390fd5b61d4ca7f81e3b6694a1d48b66be884220bc089aef1ac4274e03c25925fcba4052ee60e2260001b61146c565b50565b61d4f97fe62519da905c9ae69632096426e3470319761526d1111d068462276d4472703960001b61146c565b61d5257f951fdef4c3eece270718cbd901969c884e1430b48f85ca7429e0956846a9e1b760001b61146c565b61d5517f55dfd57883ea62050020ce18763128d39a3b4a1607dc3d0faf4e09aadcb05fa560001b61146c565b600061d55c826129fa565b905061d58a7f0facbae8ab666437863a0db3a552dad7b29f8ef57198d16008801e4e1111553660001b61146c565b61d5b67fa14cee02a2774b6cea46ee259ef3c17f49c8d3c70a2974e621416a38b91ceaf060001b61146c565b61d5e27f506f2bf8c3767763c0d9e943de896e2a364c3bf8b00a7d95f9d569e62bf0e6ea60001b61146c565b6000811161d63b576040517f08c379a000000000000000000000000000000000000000000000000000000000815260040180806020018281038252603181526020018061e7146031913960400191505060405180910390fd5b61d6677ffc8d03f7b87809a3e7d3a034ded0242814b0976decb432039e1a3dbdf087705e60001b61146c565b5050565b600061d6997fd1558f00d0c7add1b828d14ad75feae66f059012ecf4fead9590088d84c551f260001b61e3fc565b61d6c57fb1a11b13163b9a744cdffb3bea7f9824fee5f7defc445083891c20e736f467de60001b61e3fc565b61d6f17f16067a2c39f06aad52eaee41cf51914c7f2f1ce3efca93048235afad5a403fde60001b61e3fc565b61d71d7f6f20f08f738c25cd5a7f299979195b9c273e920bb2f1bba73f324eba0f6b420d60001b61e3fc565b826fffffffffffffffffffffffffffffffff16826fffffffffffffffffffffffffffffffff16111561d79a576040517f08c379a000000000000000000000000000000000000000000000000000000000815260040180806020018281038252602881526020018061e89a6028913960400191505060405180910390fd5b61d7c67fa76f54022170818eb8abc3813e1d05d9fe9984e61015f28503c1e8185b00b03c60001b61e3fc565b61d7f27f0e4a8d0acfff81b28e89ab6ffc4c5432febcca094ef9df8c29b0bdd3339b07d860001b61e3fc565b61d81e7f5faf70fc78a423d16a167eaecff95a4b388994e1fccbfd65d44e01e061eb804b60001b61e3fc565b6000828403905061d8517f1a3a6c3924e0efc235162b75995aa7717516721433032d3a2e492c48f8582b7e60001b61e3fc565b61d87d7f5e89cc174de375f5fbe8535c5dff962c1353aa4a558d439682cf00e37ac8a79260001b61e3fc565b8091505092915050565b61d8b37f3d7f2da2df149f90f4238cb217148cb18ccd0be3947fc80482ea19052909d12060001b61146c565b61d8df7f337e2cbda30150f916fad0718f1a2654d8a2aa72220811233b620bca0d6b628360001b61146c565b61d90b7fb6d4c511497b4af9ad555e41bb3ba1803b7a0bc33c41e64c800737312da23d5b60001b61146c565b6000600a54905061d93e7f2675b7c22a649b2d36ceb4a8dd8aca463ed7ad8e1e50c03c70f3c52de8db009160001b61146c565b61d96a7f933cbefb3c2b05d946ff4e8db720d7dfbbdb65e4a153fba4a849fd7a9e8fb9bb60001b61146c565b600081148061d9795750600082145b1561d9dc5761d9aa7f57b64a6bcdd98668bd31a647554f35c72125d63f38428f03bcb261d5aa45b99e60001b61146c565b61d9d67fdc8fa840a5cfaaa22958579d1bf48a870e3a2bce3a6457d533aa9023204d019b60001b61146c565b5061dec5565b61da087f8db36026d2baa93a888c3efb4aca094c4e3501c90edfea68dd77b6663e8770f560001b61146c565b61da347f2c21402e9c5644e585f574a869838509b06aea90955be1c39270941bee362f1760001b61146c565b61da607fc1c8872512d8aa1e33ae29b0194a58dba112eb38b08b989b7c4277bba7c4ce7e60001b61146c565b600061da8e7fe439183c38aaedf0d9669b0df30cc3a24f2dce49d9c8e7a9e71aca0e1c0ea43b60001b61146c565b61daba7fdb26af504365368313e21592423e35f2dec9431de9d177800c903228f3b866a460001b61146c565b61dac4838361e3ff565b905061daf27f3043b491d140e364f4ea8b4bf3a1b82e7d3985a686e8a38ee87fc9d7a4dff88a60001b61146c565b61db1e7fe6f9ef844ca4e8bab60e0321d853deca6ab31a61617b91bcc8a42dfd0be3520a60001b61146c565b600061db356010548361cdf890919063ffffffff16565b905061db637f2b903d97a717435334bef4ab3a0d7c019a7a30ed62e8f028179fb857ad3590b760001b61146c565b61db8f7f7169b74c2f1a9724a6419dfc4546413b25a73851501479b04cc2b378bd90f44960001b61146c565b61dc4a8160136000601160109054906101000a90046fffffffffffffffffffffffffffffffff166fffffffffffffffffffffffffffffffff166fffffffffffffffffffffffffffffffff1681526020019081526020016000206000601160009054906101000a90046fffffffffffffffffffffffffffffffff166fffffffffffffffffffffffffffffffff166fffffffffffffffffffffffffffffffff168152602001908152602001600020546115f290919063ffffffff16565b60136000601160109054906101000a90046fffffffffffffffffffffffffffffffff166fffffffffffffffffffffffffffffffff166fffffffffffffffffffffffffffffffff1681526020019081526020016000206000601160009054906101000a90046fffffffffffffffffffffffffffffffff166fffffffffffffffffffffffffffffffff166fffffffffffffffffffffffffffffffff1681526020019081526020016000208190555061dd227fb1d0b6682ddc2d8c2e607281a61999f98ebc75dac6d66c8e1fe5487ef58b076a60001b61146c565b61dd4e7fc680f98fa26ccd73febb372306917f4416af32b086d78f00a153a47f3a9a793960001b61146c565b7f2d6127771b164a9cc8827d24b5955db2a77e7a81dac389107ebb8bce9fb6496860136000601160109054906101000a90046fffffffffffffffffffffffffffffffff166fffffffffffffffffffffffffffffffff166fffffffffffffffffffffffffffffffff1681526020019081526020016000206000601160009054906101000a90046fffffffffffffffffffffffffffffffff166fffffffffffffffffffffffffffffffff166fffffffffffffffffffffffffffffffff16815260200190815260200160002054601160109054906101000a90046fffffffffffffffffffffffffffffffff16601160009054906101000a90046fffffffffffffffffffffffffffffffff1660405180848152602001836fffffffffffffffffffffffffffffffff166fffffffffffffffffffffffffffffffff168152602001826fffffffffffffffffffffffffffffffff166fffffffffffffffffffffffffffffffff168152602001935050505060405180910390a15050505b50565b50565b600083831115829061df78576040517f08c379a00000000000000000000000000000000000000000000000000000000081526004018080602001828103825283818151815260200191508051906020019080838360005b8381101561df3d57808201518184015260208101905061df22565b50505050905090810190601f16801561df6a5780820380516001836020036101000a031916815260200191505b509250505060405180910390fd5b5060008385039050809150509392505050565b61dfb77f2dc362608f3b24921aba7fae3d5723d48f9ac596dc9048ae62e012725bddfdd060001b61146c565b61dfe37fdfe8a15af4d9fc26eb73e66eb9f7b39dd5ffbfea4f61bc04b9704ba1fc7c759d60001b61146c565b61e00f7fabd7e0273fa4dd50cb0f3fc251719f35b32a835309a4e024c17cdca1da7748fe60001b61146c565b600061e02682600a54617d5290919063ffffffff16565b905061e0547f08d208bb6087bee2f0abf4389cf29075e0520333977612aaa01df88adf513ae160001b61146c565b61e0807fc129ee582a586a2c876bbd417ec56083ca4cb0c69099706039de3a32a686015d60001b61146c565b80600a8190555061e0b37f5f1206bd3e74e8ddc701edfe8f7fbe4b734b4b99624b30de82b5e41d2b7d351560001b61146c565b61e0df7f3d0acbcc4536a0614ad42ee3c3e5ea8d5f366c3398f61e843b0e8acafdca701160001b61146c565b7fa8e886449d8f7e765877b4a4f54632da3943ae454d5a272bdccb1781f086ff29816040518082815260200191505060405180910390a15050565b600061e1487fc79b0446ce7ccff9de7573151f1c103a77650ad06fbb77bd704c35bd83028da760001b61e3fc565b61e1747f325e244f2e3836094c3bf63f01fed65a8896f3541a60319057ed71ca8b8e3bdf60001b61e3fc565b61e1a07f3bdb32b4304aae8c17e963c34b71958c0de0f60501a4ddd9fe2a5d43c26dab5060001b61e3fc565b6000828401905061e1d37f48f800860753c76c74916d4343b1ed5c1fa5c1ade6a71f0ac671cacb4fc6e63a60001b61e3fc565b61e1ff7fd357195569bb3d0a33dd6b2b36de137ed8cc1e152c0e030621454ca1c57c152560001b61e3fc565b61e22b7fb7599615ec8817cd39f26666876f381a421e24d69f82a3f722bb61b1dd549f7460001b61e3fc565b836fffffffffffffffffffffffffffffffff16816fffffffffffffffffffffffffffffffff16101561e2a8576040517f08c379a000000000000000000000000000000000000000000000000000000000815260040180806020018281038252602581526020018061e8c26025913960400191505060405180910390fd5b61e2d47f7b750076a770c8c57ed3b275549963366fc54602f86b01891cf0b173746d3d4460001b61e3fc565b61e3007f23e22f70fb6678147e9fbc5fa58bbe5500df721cb396c81f0311a21ea7a7c1d960001b61e3fc565b61e32c7fc143efa27917bfca3c2125e7779cc14a540eda68842a2142677f1fef583caf7c60001b61e3fc565b8091505092915050565b6000808311829061e3e2576040517f08c379a00000000000000000000000000000000000000000000000000000000081526004018080602001828103825283818151815260200191508051906020019080838360005b8381101561e3a757808201518184015260208101905061e38c565b50505050905090810190601f16801561e3d45780820380516001836020036101000a031916815260200191505b509250505060405180910390fd5b50600083858161e3ee57fe5b049050809150509392505050565b50565b600061e42d7f44cccee253dd7547ccb391e5dcb6c476c087116f5240c70e7510e3d0573c509c60001b61146c565b61e4597fdb6b7e68386b860eede94e08dc0b93562d573943d25091d67908adce793440ba60001b61146c565b61e4857f06dc8a3162780e4be6eb40f746d223e96683db89b32b77c933f63f6675a8028560001b61146c565b600061e4b660145461e4a8670de0b6b3a76400008761cdf890919063ffffffff16565b6115f290919063ffffffff16565b905061e4e47f20da34dbcaa5a3365bb5a712d11648b4a777af0a5fb0175b147b5dd0102c3bbb60001b61146c565b61e5107fdbce7115e5c8eabbe76e321f16cfd91a7f9c9c77b9492c694043f106cd8fee6660001b61146c565b600061e525848361ce7e90919063ffffffff16565b905061e5537f579728fca7a1d201d580f0f804ba716fadeb296c64cee032b8dc49e38208431260001b61146c565b61e57f7f68ed7f2cc9bde78f4a1c2ac3588682464f354ff89e84ef8e8b795a18270ff05060001b61146c565b61e5a461e595858361cdf890919063ffffffff16565b83617d5290919063ffffffff16565b60148190555061e5d67f3e07f87f487a21ee238c848aa5aa0e42ae562829e685ac01bbb3626ba4f8d4c160001b61146c565b61e6027f527af6b203e321e9b440cf1f336f00a4aaec0664674d44942f6cecaacf04759860001b61146c565b809250505092915050565b6040518060a0016040528060008152602001600081526020016000815260200160006fffffffffffffffffffffffffffffffff16815260200160006fffffffffffffffffffffffffffffffff168152509056fe53746162696c697479506f6f6c3a2063616c6c6572206d757374206861766520616e206163746976652074726f766520746f207769746864726177204554484761696e20746f53746162696c697479506f6f6c3a20546167206d757374206265206120726567697374657265642066726f6e7420656e642c206f7220746865207a65726f206164647265737353746162696c697479506f6f6c3a2043616c6c6572206973206e6f7420416374697665506f6f6c53746162696c697479506f6f6c3a2063616c6c6572206d7573742068617665206e6f6e2d7a65726f20455448204761696e53746162696c697479506f6f6c3a2043616c6c6572206973206e6f742054726f76654d616e6167657253746162696c697479506f6f6c3a2073656e64696e6720455448206661696c6564536166654d6174683a206d756c7469706c69636174696f6e206f766572666c6f7753746162696c697479506f6f6c3a204b69636b6261636b2072617465206d75737420626520696e2072616e6765205b302c315d53746162696c697479506f6f6c3a20416d6f756e74206d757374206265206e6f6e2d7a65726f53746162696c697479506f6f6c3a206d757374206e6f7420616c7265616479206265206120726567697374657265642066726f6e7420656e6453746162696c697479506f6f6c3a2055736572206d7573742068617665206e6f206465706f73697453746162696c697479506f6f6c3a2055736572206d75737420686176652061206e6f6e2d7a65726f206465706f7369744c697175697479536166654d6174683132383a207375627472616374696f6e206f766572666c6f774c697175697479536166654d6174683132383a206164646974696f6e206f766572666c6f7753746162696c697479506f6f6c3a2043616e6e6f74207769746864726177207768696c65207468657265206172652074726f766573207769746820494352203c204d4352a264697066735822122019f1f867b0a5ec0d61a0c8773f92f45a47b7807d2ab8cbf2579e3c6da5fd697264736f6c634300060b00336080604052348015600f57600080fd5b5060918061001e6000396000f3fe6080604052348015600f57600080fd5b506004361060285760003560e01c8063cda7e93914602d575b600080fd5b605660048036036020811015604157600080fd5b81019080803590602001909291905050506058565b005b5056fea2646970667358221220c3613303de988bcfcde61c54bc31f1b4c54637195379ace86d9559882370818564736f6c634300060b00336101606040523480156200001257600080fd5b50604051620050ba380380620050ba833981810160405260608110156200003857600080fd5b81019080805190602001909291908051906020019092919080519060200190929190505050620000917f39c7255dd80123d27b4fd5a11d1769027a6cccb11397e05f446f23b80c4a991160001b6200099e60201b60201c565b620000c57fe38db0c1cc9b7de2d92f39f3e5e9da37237f807c0c243a36f55a235341ea22cb60001b6200099e60201b60201c565b620000f97f672017337520d4dfdc3e8c0ca1a9f899cd5fc4669a38820e03414b806e5bd58660001b6200099e60201b60201c565b6200010a83620009a160201b60201c565b6200013e7f18da30051db4d9a4bf15233bd02def848bfd73ab990eac9e7db6baf0cb0c8a1e60001b6200099e60201b60201c565b620001727f70e28d68e9ee67382ddeea3ab9862bc6e84aeacf02ab9afbfca00d2e01ea62e260001b6200099e60201b60201c565b6200018382620009a160201b60201c565b620001b77f481d8753854a631a04467270edc3f2a5bf20d896633e7dbdbf31a9a087f42dcb60001b6200099e60201b60201c565b620001eb7f8649c45b3a74b57c442720ed28dbed3aed2c3264fe2e711b8d295f4d156a76e160001b6200099e60201b60201c565b620001fc81620009a160201b60201c565b620002307f871c49760235babad0278cc483d146002c37d03237225c9f89bc9d1b95d91b6f60001b6200099e60201b60201c565b620002647ffb9069c99a7422104027d0c4f07a71cda5c0bb7eead0d2a3e8c7453f972f8f4060001b6200099e60201b60201c565b8273ffffffffffffffffffffffffffffffffffffffff166101008173ffffffffffffffffffffffffffffffffffffffff1660601b81525050620002d07f94a9902b3e966f88d643d14e9bdb9aac4c0840ec9f51aab1df6a2dbe0215dafe60001b6200099e60201b60201c565b620003047f5fa2b8d77101320d21617aa098981c88bf87e86bbc3390fe2a4642efe8b659ba60001b6200099e60201b60201c565b7f143219c9e69b09e07e095fcc889b43d8f46ca892bba65f08dc3a0050869a567883604051808273ffffffffffffffffffffffffffffffffffffffff1673ffffffffffffffffffffffffffffffffffffffff16815260200191505060405180910390a16200039b7f29550e4fc3caf5d2863ce69d90c98497f96d8b330b77f933d8563629e2a9e86460001b6200099e60201b60201c565b620003cf7f42f71b1f925ebfe934c4df5c64e3720e769f4b9fec7c4c111745f1268c62370860001b6200099e60201b60201c565b8173ffffffffffffffffffffffffffffffffffffffff166101208173ffffffffffffffffffffffffffffffffffffffff1660601b815250506200043b7f7fabbfd31d6b84e6bf3b95db80f4f6f192e4afa1361d15ad559f370c7a52c51560001b6200099e60201b60201c565b6200046f7fd784dca4dbd7f38b78d64fae47f0d3ad268d1c226ea1474be1567ec47a55033b60001b6200099e60201b60201c565b7f82966d27eea39b038ee0fa30cd16532bb24f6e65d31cb58fb227aa5766cdcc7f82604051808273ffffffffffffffffffffffffffffffffffffffff1673ffffffffffffffffffffffffffffffffffffffff16815260200191505060405180910390a1620005067fbf6d282b7ef0a3b8c6b2200d2727da0f40f1f54414b50480f4103eca89e8847560001b6200099e60201b60201c565b6200053a7f908a626659a877d55742e530a129284bb4eb2872ceb00bc6c9a70402b17811c560001b6200099e60201b60201c565b8073ffffffffffffffffffffffffffffffffffffffff166101408173ffffffffffffffffffffffffffffffffffffffff1660601b81525050620005a67f89a75e67edda263979e936612ec26cfbfb022e0ec8ad09f0745d3cda1910116b60001b6200099e60201b60201c565b620005da7f10d8fe8bbc58ff445d5b58bb7aceab64e74515f379d76794d4284f2a7b712da460001b6200099e60201b60201c565b7f3ca631ffcd2a9b5d9ae18543fc82f58eb4ca33af9e6ab01b7a8e95331e6ed98581604051808273ffffffffffffffffffffffffffffffffffffffff1673ffffffffffffffffffffffffffffffffffffffff16815260200191505060405180910390a1620006717fa58d9d5eaf28899b58e76d73b13ef794bd30bb6ca864258227a05409e352187260001b6200099e60201b60201c565b620006a57ff1fc5a9931fbd8787b26ceda7754a675e0131b00c505fee96d1a3ac3e51b97b060001b6200099e60201b60201c565b60006040518060400160405280600f81526020017f4c55534420537461626c65636f696e00000000000000000000000000000000008152508051906020012090506200071a7f1fb5804c1e375a6bcaa20085e864467cd4ec6d9a0a8f5601e938d6a949b2609a60001b6200099e60201b60201c565b6200074e7f135283aebb029ca701e112a0f8aacc6d194cf33d12be3b0033f0cad0677e81d160001b6200099e60201b60201c565b60006040518060400160405280600181526020017f3100000000000000000000000000000000000000000000000000000000000000815250805190602001209050620007c37faf9c48d2178b097089a2f40f6ec78cfea70b73656910d30588c50fb7a6f292b660001b6200099e60201b60201c565b620007f77fafd3c2e9430e4384aa9347d2de72300f116077f499f573b3b934a7332f1a840460001b6200099e60201b60201c565b8160c08181525050620008337f6b39c93c68a1fa5374cb19ac09649343068e5c9ba36677271da9c211559f724860001b6200099e60201b60201c565b620008677f40ee7fd17ec309d0ff927e7b21538fbe625111ad23c040fed5ce2e8a422b35a560001b6200099e60201b60201c565b8060e08181525050620008a37f2ac324cd5c96e628360b059e4e0118dc568e06ddbc50ed5c75d26012bfe55c5a60001b6200099e60201b60201c565b620008d77ff44762575b3f3014babacdfc32c0abf725edef26fda06f1c4c4190f28fcb3f3360001b6200099e60201b60201c565b620008e762000d3660201b60201c565b60a08181525050620009227f363070f2f154b496c61b953a6c18a35c2828b088292e107a74d2dfd4acf6e8e460001b6200099e60201b60201c565b620009567f37aee037074da0771a917d8fd72f83f752f04aa111a1adc632fb35fc8b18b5c160001b6200099e60201b60201c565b6200098c7f8b73c3c69bb8fe3d512ecc4cf759cc79239f7b179b0ffacaa9a75d522b39400f60001b838362000da660201b60201c565b60808181525050505050505062000ed2565b50565b620009d57f35bc9e5e61c1438a006153cf69ffd6105766a3055440d22f6c8ce219146d68af60001b62000ecf60201b60201c565b62000a097fe66c045f45b868efda896f2af22ed71637a4e9e8d13a2b1962badf362ba3eeb960001b62000ecf60201b60201c565b62000a3d7faaa4b517f253b4fa37cb2875514a22e04e7d5828c244c7095a27e85408ccd12c60001b62000ecf60201b60201c565b62000a717f1221da0bd0f16fcbee175d4dae7d6b598e327e79264e77ced4c93a6a0721871b60001b62000ecf60201b60201c565b600073ffffffffffffffffffffffffffffffffffffffff168173ffffffffffffffffffffffffffffffffffffffff16141562000b15576040517f08c379a000000000000000000000000000000000000000000000000000000000815260040180806020018281038252601e8152602001807f4163636f756e742063616e6e6f74206265207a65726f2061646472657373000081525060200191505060405180910390fd5b62000b497f09f0dc62d572b9e8dd242a1b7e25c3c5de1610d6c480bec35912dd5840f55fec60001b62000ecf60201b60201c565b62000b7d7fbe74447fdea037b64141768df2430eb2b7113bef949c88d88dcdc549ba88703360001b62000ecf60201b60201c565b62000bb17f04e66872d3f4c69728dfe545a06401e1b17e0f9dd5e1d43290514ae4fd92783060001b62000ecf60201b60201c565b600062000be77f60826eea4af75abd2223d108cb037485a60c485e699a12a42cac24982b89800660001b62000ecf60201b60201c565b813b905062000c1f7f7acec79ba6fd0be7bb4b2bfca56ca8eb3d8333d64e828971ccb7647facc3806360001b62000ecf60201b60201c565b62000c537f0c7e0405db301404f844860b9fe6e14e956a97134ff8695c88184f1c957d6e0860001b62000ecf60201b60201c565b62000c877f1c5a94c5a5d640e17d84bedbf9409c7f8afe563c4b1fceef7bced5961764ee0f60001b62000ecf60201b60201c565b6000811162000cfe576040517f08c379a00000000000000000000000000000000000000000000000000000000081526004018080602001828103825260208152602001807f4163636f756e7420636f64652073697a652063616e6e6f74206265207a65726f81525060200191505060405180910390fd5b62000d327f1023f03b6261b194c29dee3596b0d25a3be14b60910a1d249d0177db54f54c4a60001b62000ecf60201b60201c565b5050565b600062000d6c7fd033498c867e56f230a0f212e34ddaac0e61b4833eaf3b47a6c1a7dc7bfef31560001b6200099e60201b60201c565b62000da07f89b0a963fa0a657808e9ebce93456faaece0ffd0ddd4b6b8a7ac95750799147760001b6200099e60201b60201c565b46905090565b600062000ddc7f7a199135b7dce8a09e125f294ac67029585a407ece0dcde841c2fe011ccfbd3b60001b6200099e60201b60201c565b62000e107f7994257d9b32af12e328a0cf12bf3c01d99a37c1f85c7d11ba941951a1a17f2060001b6200099e60201b60201c565b62000e447f047fb47ae71f4f8911aec6d96286ff4b1d11c5c7c982e17778edf7784a7035c560001b6200099e60201b60201c565b83838362000e5762000d3660201b60201c565b30604051602001808681526020018581526020018481526020018381526020018273ffffffffffffffffffffffffffffffffffffffff1673ffffffffffffffffffffffffffffffffffffffff168152602001955050505050506040516020818303038152906040528051906020012090509392505050565b50565b60805160a05160c05160e0516101005160601c6101205160601c6101405160601c61415962000f6160003980611a92528061303c52806133095280613768525080610bb6528061289c5280612f8d52806138135280613c8d52508061142c52806128475280612fe452806137bd5250806124865250806124655250806122df52508061239252506141596000f3fe608060405234801561001057600080fd5b50600436106101635760003560e01c80636cc52a4d116100ce578063a457c2d711610087578063a457c2d71461074d578063a9059cbb146107b3578063b7f8cf9b14610819578063bb997bac14610863578063d505accf146108d1578063dd62ed3e1461096a578063f698da25146109e257610163565b80636cc52a4d1461057057806370a082311461059e5780637ecebe00146105f6578063940a71bc1461064e57806395d89b411461067c5780639dc29fac146106ff57610163565b806323b872dd1161012057806323b872dd14610345578063313ce567146103cb57806339509351146103ef57806340c10f191461045557806354fd4d50146104a35780635a4d28bb1461052657610163565b806306fdde0314610168578063095ea7b3146101eb5780630b622ab21461025157806310ce43bd1461029b57806318160ddd146102b957806320c582be146102d7575b600080fd5b610170610a00565b6040518080602001828103825283818151815260200191508051906020019080838360005b838110156101b0578082015181840152602081019050610195565b50505050905090810190601f1680156101dd5780820380516001836020036101000a031916815260200191505b509250505060405180910390f35b6102376004803603604081101561020157600080fd5b81019080803573ffffffffffffffffffffffffffffffffffffffff16906020019092919080359060200190929190505050610ac1565b604051808215151515815260200191505060405180910390f35b610259610bb4565b604051808273ffffffffffffffffffffffffffffffffffffffff1673ffffffffffffffffffffffffffffffffffffffff16815260200191505060405180910390f35b6102a3610bd8565b6040518082815260200191505060405180910390f35b6102c1610c87565b6040518082815260200191505060405180910390f35b610343600480360360608110156102ed57600080fd5b81019080803573ffffffffffffffffffffffffffffffffffffffff169060200190929190803573ffffffffffffffffffffffffffffffffffffffff16906020019092919080359060200190929190505050610d15565b005b6103b16004803603606081101561035b57600080fd5b81019080803573ffffffffffffffffffffffffffffffffffffffff169060200190929190803573ffffffffffffffffffffffffffffffffffffffff16906020019092919080359060200190929190505050610e09565b604051808215151515815260200191505060405180910390f35b6103d3611069565b604051808260ff1660ff16815260200191505060405180910390f35b61043b6004803603604081101561040557600080fd5b81019080803573ffffffffffffffffffffffffffffffffffffffff169060200190929190803590602001909291905050506110f6565b604051808215151515815260200191505060405180910390f35b6104a16004803603604081101561046b57600080fd5b81019080803573ffffffffffffffffffffffffffffffffffffffff16906020019092919080359060200190929190505050611277565b005b6104ab611369565b6040518080602001828103825283818151815260200191508051906020019080838360005b838110156104eb5780820151818401526020810190506104d0565b50505050905090810190601f1680156105185780820380516001836020036101000a031916815260200191505b509250505060405180910390f35b61052e61142a565b604051808273ffffffffffffffffffffffffffffffffffffffff1673ffffffffffffffffffffffffffffffffffffffff16815260200191505060405180910390f35b61059c6004803603602081101561058657600080fd5b810190808035906020019092919050505061144e565b005b6105e0600480360360208110156105b457600080fd5b81019080803573ffffffffffffffffffffffffffffffffffffffff169060200190929190505050611451565b6040518082815260200191505060405180910390f35b6106386004803603602081101561060c57600080fd5b81019080803573ffffffffffffffffffffffffffffffffffffffff16906020019092919050505061151e565b6040518082815260200191505060405180910390f35b61067a6004803603602081101561066457600080fd5b81019080803590602001909291905050506115eb565b005b6106846115ee565b6040518080602001828103825283818151815260200191508051906020019080838360005b838110156106c45780820151818401526020810190506106a9565b50505050905090810190601f1680156106f15780820380516001836020036101000a031916815260200191505b509250505060405180910390f35b61074b6004803603604081101561071557600080fd5b81019080803573ffffffffffffffffffffffffffffffffffffffff169060200190929190803590602001909291905050506116af565b005b6107996004803603604081101561076357600080fd5b81019080803573ffffffffffffffffffffffffffffffffffffffff169060200190929190803590602001909291905050506117a1565b604051808215151515815260200191505060405180910390f35b6107ff600480360360408110156107c957600080fd5b81019080803573ffffffffffffffffffffffffffffffffffffffff1690602001909291908035906020019092919050505061193c565b604051808215151515815260200191505060405180910390f35b610821611a90565b604051808273ffffffffffffffffffffffffffffffffffffffff1673ffffffffffffffffffffffffffffffffffffffff16815260200191505060405180910390f35b6108cf6004803603606081101561087957600080fd5b81019080803573ffffffffffffffffffffffffffffffffffffffff169060200190929190803573ffffffffffffffffffffffffffffffffffffffff16906020019092919080359060200190929190505050611ab4565b005b610968600480360360e08110156108e757600080fd5b81019080803573ffffffffffffffffffffffffffffffffffffffff169060200190929190803573ffffffffffffffffffffffffffffffffffffffff1690602001909291908035906020019092919080359060200190929190803560ff1690602001909291908035906020019092919080359060200190929190505050611ba8565b005b6109cc6004803603604081101561098057600080fd5b81019080803573ffffffffffffffffffffffffffffffffffffffff169060200190929190803573ffffffffffffffffffffffffffffffffffffffff16906020019092919050505061214c565b6040518082815260200191505060405180910390f35b6109ea612257565b6040518082815260200191505060405180910390f35b6060610a2e7f6f105b41a5744d3090377d96161b7d692688b7f868e7eb29f375b4497d85453760001b61144e565b610a5a7fd671cf63647f78409ac40fa36bfb21463c8e9a1461a4f7d3ed6776bc782cd8cd60001b61144e565b610a867fc35008deba7f9744bbe87ae8b29e6abd0543271d69cff5ffa29105a2dbfb305c60001b61144e565b6040518060400160405280600f81526020017f4c55534420537461626c65636f696e0000000000000000000000000000000000815250905090565b6000610aef7fd134080e880e26950f351e3e54034dec1702442051cbf72932d5bc96ba61607560001b61144e565b610b1b7f95a5d2e5aad466bbf9b7d26bbd188a10d294bab88eb7ff33ac5893f97152f1c660001b61144e565b610b477fb5070088c79a594b72203d6b16c0b095d63f78a71cc614985299f3866c7e13f560001b61144e565b610b523384846124b0565b610b7e7f2b0118eee694cbd90b17ffff3f5d92fc84caed1d35a25b88f518245c0a836ca160001b61144e565b610baa7f1b9595888bb5f0149edc9872caff9cf0c4733ca802647acfa56c4b5a0b150e8960001b61144e565b6001905092915050565b7f000000000000000000000000000000000000000000000000000000000000000081565b6000610c067fd6139d2a3d7aac642103c1fe9af706b1b790f1da54ca72e65328c6736c641d2c60001b61144e565b610c327f9541fac0ac5a89897d3555d4f1cc1616731d36a891a9ac16d1222b8e8fe97fc960001b61144e565b610c5e7fa49b3a473a8278609c5a0768947d44006427fc056daeb6275aa1128c6ccce83a60001b61144e565b7f6e71edae12b1b97f4d1f60370fef10105fa2faae0126114a169c64845d6126c960001b905090565b6000610cb57f814c5b21542f6e4a981e9d4bac9dcd5ce20ea1956ab812fdce6ac1bc7a9a520a60001b61144e565b610ce17f5bd93b60b1a4dba90e2739b8c129ce45d8c4c9ee379911d101ecf376996febc060001b61144e565b610d0d7ffb24b05cfaf2da57a75dbb5c632fcc5df8e4e9a9e37a48dcd758724e8a21cb3460001b61144e565b600054905090565b610d417f6b52d0f2e4043205bdde243af4805419cec4deee1009757c9a114d9b5778fde460001b61144e565b610d6d7f0661592b829226a5ece8babed0b0d308f5b977a133bd5e0b29fb31956c937edc60001b61144e565b610d997f9e81b3ebbbf382b053861c2cfc897bc118f57be8660fe6fcc6c3c378d14cfafc60001b61144e565b610da1612795565b610dcd7f7650065a5e9fb087452ecb5b8782e4d3dd25b98c33d0c5c476b10def32f4c71660001b61144e565b610df97f7d7370acfe17cd02c79851a905c137a20c1c959e5c6ff7e6443b88106c9dd1b660001b61144e565b610e0483838361296d565b505050565b6000610e377f0226728da118f975b256e0a75b628f94784848a098f950b2ea267a0873541fca60001b61144e565b610e637f94bf30041e452a11a863762bf78b9d007fb0d3440d56b412f2abb9dcd13eaf0660001b61144e565b610e8f7f3b8640bf159dc758a25429aab421571f514f02897d38a52d715b72aceb764f8560001b61144e565b610e9883612d6d565b610ec47f034fc40f3f9d34ab15598499d3a3d5948ec351ea479689277191ac8cb662d7b960001b61144e565b610ef07f9509f17f44051b8e840039fec164a5cbfc002396b9bd81b438a66c779a27b68a60001b61144e565b610efb84848461296d565b610f277f96895cf6355bbce6e03a1574d1275478dc5cbe9182242a1fa41d641a1deb245060001b61144e565b610f537f32104e8e3f207b3485a0f1df5d03ed029011a61824a24d02c7ce951895dfe31860001b61144e565b61100684336110018560405180606001604052806028815260200161402c60289139600360008b73ffffffffffffffffffffffffffffffffffffffff1673ffffffffffffffffffffffffffffffffffffffff16815260200190815260200160002060003373ffffffffffffffffffffffffffffffffffffffff1673ffffffffffffffffffffffffffffffffffffffff1681526020019081526020016000205461310f9092919063ffffffff16565b6124b0565b6110327f456dee62594dc7377a20b17a3b8f120ec67fd650bde0258dcdb2a2872cec347060001b61144e565b61105e7fa53cc415422ccf7347e93c744fcf29a0f5875ef66f5d54ebec61185568e1b42c60001b61144e565b600190509392505050565b60006110977fb32cacd7a4d18f9837ae13149caf4ac07576ceaa6d8ab035bf969b5c9a645ab760001b61144e565b6110c37f34375f02e598cc1efc4f2ea9522cb712f6663a5bbaf42ea93d7a6dce29a10e8160001b61144e565b6110ef7f37ebf6bdf103ebe166476a3881a713d1250b287bc5f399dc9f63f0df03469d7560001b61144e565b6012905090565b60006111247fecccff80caf8756211fc85d832b1a45f9f96d308505d11a8e41ae05b8753f58760001b61144e565b6111507fa023598216c1647be09d9b47f430bc703f8a53036974cd689955879cff42b47560001b61144e565b61117c7f390e3ad85233fad1726bcdf1810e1113d08db80d16afc66722e4138392216fb460001b61144e565b611215338461121085600360003373ffffffffffffffffffffffffffffffffffffffff1673ffffffffffffffffffffffffffffffffffffffff16815260200190815260200160002060008973ffffffffffffffffffffffffffffffffffffffff1673ffffffffffffffffffffffffffffffffffffffff168152602001908152602001600020546131cf90919063ffffffff16565b6124b0565b6112417ff799c08d56d4055e71bb31742997bee917e1127ec4754db27696a5a72a1af4c460001b61144e565b61126d7f8e0473e8db50f4846d44b925ec77bdde92ecc7ee16c592a22917908c0d49965460001b61144e565b6001905092915050565b6112a37f132af84a9de554b854ff99a270254564ebfc59740068e9681b41ca68897ac4f060001b61144e565b6112cf7f3829241db5c6f6b3ed5458fd29e473cc2bf03552e15d9cfb448bdcce85e3c59260001b61144e565b6112fb7fe25ec0cacf62a08443bdc7e063a742f00b41ad817e35e7f4854bcf46d31b083f60001b61144e565b611303613257565b61132f7f1de8b975f563cb3c89080082841edfe54cc2a0cb39fe89ecaf2c6a369b37284460001b61144e565b61135b7f7b4893e6c42d74ea508eda97d2d5e2065203bbc0119a92cea9c4f7602d90179d60001b61144e565b61136582826133d9565b5050565b60606113977f66b996dd132f1b736fbb0140d817298c118c754666f359e1b29e91ea675ed9e160001b61144e565b6113c37fd26f960e7d777cb9a1e397272875a36dc5a408683b76dbbc87a35094e9b69d1360001b61144e565b6113ef7f6ee5d412c8d0a4afb5f81498f4e24ea594b9af15b71da1b562091c49a8e4b51660001b61144e565b6040518060400160405280600181526020017f3100000000000000000000000000000000000000000000000000000000000000815250905090565b7f000000000000000000000000000000000000000000000000000000000000000081565b50565b600061147f7ffc876a25677b01870eeb0a8db70956ee5e8425183e122748cd057df0484652f160001b61144e565b6114ab7f44968d05e12fe695dbea7b901e3a04164f9b9ed4fad831134a030862876d4d4360001b61144e565b6114d77fa80defbea40734ecd4b2049a9ad96821b48f2ce2d192036ec5dc7f6b83006e1460001b61144e565b600260008373ffffffffffffffffffffffffffffffffffffffff1673ffffffffffffffffffffffffffffffffffffffff168152602001908152602001600020549050919050565b600061154c7f35bad4597bdc8d8feebd2d12e588b1e62f66e89bb32c3afc4061b31e3bb6f8f260001b61144e565b6115787f3949fa49fb09d6c7dba158895cc84b269da92f981be5ea8a22b730b856617d8960001b61144e565b6115a47f92e4d88083b938c47e5f00a19cd2e9c2d7a6d55f9c890c8f8dd6f93f1192f2b360001b61144e565b600160008373ffffffffffffffffffffffffffffffffffffffff1673ffffffffffffffffffffffffffffffffffffffff168152602001908152602001600020549050919050565b50565b606061161c7f5b945f865761c6ae61b723f0b7f6e265e21b63fbd977eb554580b0e5476f17e460001b61144e565b6116487fe68c2cc35acf07f90a57d446992b847ef706acf22010ab1eba24885da410a5f660001b61144e565b6116747f4177e35c58a636613def65d63b6f15b8832715f6f0730ef7e53659a2cd0a86d460001b61144e565b6040518060400160405280600481526020017f4c55534400000000000000000000000000000000000000000000000000000000815250905090565b6116db7ff657290ac3beb4fa3494ed2873347aba2dd073c9647bda98a54b254c30080d5960001b61144e565b6117077f95bcdebdaef5f2d40c5461bc02ffd4bc7f36f198b468832231dc19aa54ceca1460001b61144e565b6117337fd13ba0e4ba6c20afdb3b82c20f24e3df9de0e8abbb092776c21b855f661e975760001b61144e565b61173b6136b6565b6117677f25251bf2e0aec0a7bcfd0ee8433f62614805dd613111c08008551fde0495ce7260001b61144e565b6117937f37c949a470084fcadca51e7ba1d737575c07b625d22e633e44f5cb8912abf3c260001b61144e565b61179d82826138e4565b5050565b60006117cf7fb6a212320a56c5def273a5ce9250da5d8923c79099a161e00de22377e3eb520860001b61144e565b6117fb7f92d2df2e1cfb134e0e6050342ea08a4b088d83f44507c2f4e5caac35b694cd3e60001b61144e565b6118277f9b37601a5bbed139e9f23827f44b802ceac0da9bba0642eac500ec41057b5f5660001b61144e565b6118da33846118d5856040518060600160405280602581526020016140ab60259139600360003373ffffffffffffffffffffffffffffffffffffffff1673ffffffffffffffffffffffffffffffffffffffff16815260200190815260200160002060008a73ffffffffffffffffffffffffffffffffffffffff1673ffffffffffffffffffffffffffffffffffffffff1681526020019081526020016000205461310f9092919063ffffffff16565b6124b0565b6119067fd88cc1456df2fbe94c65cdb9d533139e4a66e971804d250dbfbafc4eacc583b960001b61144e565b6119327f9a9c6f5dcd98b621de0d8991bcaec28b1ad1e4720accee3f09fab0ff3177841e60001b61144e565b6001905092915050565b600061196a7f857a000962c75c9ab2d8a3f53f23c07a7f13b5afdd0579828d1891abe81fea3960001b61144e565b6119967f3e0f18cfd55b4c877755dc378604726bf7309eaebe643e562d37a25d28e25b0360001b61144e565b6119c27f506042e2c5adaad445399c1c9b54b17fc920d7a79067896a5b1c7be1f92549f160001b61144e565b6119cb83612d6d565b6119f77fac277a669c10fe6e915827b29653c1226e6830995c6c9de12dfac3fa27fc1d6760001b61144e565b611a237f38a89f028fac880d56798c433f967293152babae16843331adeae5c2acbe196560001b61144e565b611a2e33848461296d565b611a5a7fa55b9bbe33f3193f48d5d7c6e59b49123fe553935dd3d727232dc0d87752867560001b61144e565b611a867fac2ae9b9cc507178efa2b55b4a89024a7ab0423b295a7729d3a28f28a8ca991060001b61144e565b6001905092915050565b7f000000000000000000000000000000000000000000000000000000000000000081565b611ae07f8a246fdfa02dbf0a5e3f54f32b6f0cb4dae8a14b3d363f1bbbf9d3c5841e9e7d60001b61144e565b611b0c7f3827657e8b7a15500908d401d90c99313fc86212e01a60db5fab7db8da41b08960001b61144e565b611b387f091cca49c46ff1cd81796fd93b4a1eb9f04df3a11c6d3540ccd1b7c91c8bd9c060001b61144e565b611b40613bdb565b611b6c7f75e9c111f562320bc5915f9af429677da61727de73ae92067e965c1b1dc3ec0c60001b61144e565b611b987f95e4ee17606c2ac21c6ae59486b1ac9a4ee8d6174cc18ebc991ff0ba0df1481360001b61144e565b611ba383838361296d565b505050565b611bd47f7bc44c2584090b9d39314b985f16526efb9c9cc7be462dadaf4c5ab772091db460001b61144e565b611c007f2c69ea1e06d7defd2c6589fb0b169084a43849101f9546a791673055bc2d780b60001b61144e565b611c2c7fa1240c6055009e8f0deb745bf8584934fdaf74d9fe1aebc590b2afffbff8d18160001b61144e565b611c587f465123c38002c15d291eacebb46b494fa470d724f9bd4b5d8d4fe91d9918195260001b61144e565b42841015611cce576040517f08c379a00000000000000000000000000000000000000000000000000000000081526004018080602001828103825260168152602001807f4c5553443a206578706972656420646561646c696e650000000000000000000081525060200191505060405180910390fd5b611cfa7f4665f8ccea8658e4947bbaece22238da083923821cec26f9ea26a01a1eb8a65460001b61144e565b611d267f384b7c14b33fd722aeb4a20ada2827f9da80f24a27aa0f708529d244369b2af960001b61144e565b611d527ffa1efdbcd10fe394d22103a4875422b26124ecc6fa13a46d1d5e8b09e39b2ec960001b61144e565b6000611d5c612257565b7f6e71edae12b1b97f4d1f60370fef10105fa2faae0126114a169c64845d6126c960001b898989600160008e73ffffffffffffffffffffffffffffffffffffffff1673ffffffffffffffffffffffffffffffffffffffff1681526020019081526020016000206000815480929190600101919050558a604051602001808781526020018673ffffffffffffffffffffffffffffffffffffffff1673ffffffffffffffffffffffffffffffffffffffff1681526020018573ffffffffffffffffffffffffffffffffffffffff1673ffffffffffffffffffffffffffffffffffffffff16815260200184815260200183815260200182815260200196505050505050506040516020818303038152906040528051906020012060405160200180807f190100000000000000000000000000000000000000000000000000000000000081525060020183815260200182815260200192505050604051602081830303815290604052805190602001209050611ef67f15dbef8ad5ce2c5bcb31b7214f18249fe2e63285062c1024fd2b1e3b691847cf60001b61144e565b611f227f210b9af9bd88edfed734d078f596e91b716d2fb8c2440e4ab13bc601d7b1fa3060001b61144e565b600060018286868660405160008152602001604052604051808581526020018460ff1660ff1681526020018381526020018281526020019450505050506020604051602081039080840390855afa158015611f81573d6000803e3d6000fd5b505050602060405103519050611fb97f40681c244e57d79bc39d520e04b30e3d4e15c0fb8415c717bdb445ab2106fbe260001b61144e565b611fe57ffca15734c2c58f30eb5ef66329f56f6c52f5efa92bfc3498d7b90f3c5b8e557e60001b61144e565b6120117fb663577ee898374730a1cf3d85a71d2c6ee0f63de00eeabc377e19ee16d926be60001b61144e565b8873ffffffffffffffffffffffffffffffffffffffff168173ffffffffffffffffffffffffffffffffffffffff16146120b2576040517f08c379a00000000000000000000000000000000000000000000000000000000081526004018080602001828103825260178152602001807f4c5553443a20696e76616c6964207369676e617475726500000000000000000081525060200191505060405180910390fd5b6120de7f2e661125221d3ca37bcb9bae1f498543f6daee2d3a9d100c313c8463229e370660001b61144e565b61210a7f6971dafecb6a4f2c2462623edb28c14fb9b671338d60ca9bbc2c2df4e202fb9a60001b61144e565b6121367fbef1dce75784760ee95f7d2a7bb5f4d6badc442901f844ca46778bbbaae5005d60001b61144e565b6121418989896124b0565b505050505050505050565b600061217a7f9d065372c45270a2c93e39194ff3fc72870546f5106443557807853fc25466da60001b61144e565b6121a67f4043fdc49f2ba3a290cac3aa834976c8abf42d5d2b08d30fe809d0231b3473ed60001b61144e565b6121d27ffdfbb8e1bbac0228721330251a3d7f6e0682892516ee60f8110206f3452be22f60001b61144e565b600360008473ffffffffffffffffffffffffffffffffffffffff1673ffffffffffffffffffffffffffffffffffffffff16815260200190815260200160002060008373ffffffffffffffffffffffffffffffffffffffff1673ffffffffffffffffffffffffffffffffffffffff16815260200190815260200160002054905092915050565b60006122857f25e4dc6ef9d5290afbc9e976b91846fd32ba5bc548e7e38ab12902250969530360001b61144e565b6122b17f87aa81baaab5ccce15729a93e8236a9ccb4166f5f67a97cf6faca44741cc6e5260001b61144e565b6122dd7f4c45f1ef405077611bdc6236c807fae0fbe35321f5fed28781a4c0ebb4fb48ba60001b61144e565b7f0000000000000000000000000000000000000000000000000000000000000000612306613d5d565b14156123b8576123387f80bdc8608e06222ed85792e8663f2971cb3b42cfe2e8d66f6b9079d39109576060001b61144e565b6123647fabcce8a654207e5f140896ed05f4f08fad0cab1dda81bf1e8f600e2eb0a6c7d160001b61144e565b6123907fab68b84b8b40989843969386d1b8c42a962cb7fce7acee911bb713f8b5b6fc8b60001b61144e565b7f000000000000000000000000000000000000000000000000000000000000000090506124ad565b6123e47f6b51e90ceac84ad4738dc2fa76d59a5d92b7eacda83ebcc8b23637efa704c64460001b61144e565b6124107f0bb193c39ce1fcf6235c49cc0b71e06db2868158f81b8917eb7d60acc1c1553560001b61144e565b61243c7fad725832e3ddebad31118ece29d24c60e2cf14ecb995ba6430158f85688f851d60001b61144e565b6124aa7f8b73c3c69bb8fe3d512ecc4cf759cc79239f7b179b0ffacaa9a75d522b39400f60001b7f00000000000000000000000000000000000000000000000000000000000000007f0000000000000000000000000000000000000000000000000000000000000000613dbd565b90505b90565b6124dc7fe886064e16219f41ff6f49d666d213afaef8c75ccb5211cfa5fcdd5afcf5651a60001b61144e565b6125087f32e1c1343d682a02094f7fee698955b9a082b64cf050259e410c9514c1db873460001b61144e565b6125347f8104f519b27d390d47831dc9127f67fe47335f29cb705418634fcefd97d976fa60001b61144e565b600073ffffffffffffffffffffffffffffffffffffffff168373ffffffffffffffffffffffffffffffffffffffff16141561256b57fe5b6125977f5b81618b0c279c9ea899917885561a4a7a159bc026d2b835696a00f32ab9f20b60001b61144e565b6125c37ffc9ac37450bc6c69f911cecdeee1ce2b4a9621be381d7f8eb7614e358c43aec760001b61144e565b600073ffffffffffffffffffffffffffffffffffffffff168273ffffffffffffffffffffffffffffffffffffffff1614156125fa57fe5b6126267f741becda4f8937294778616ed321dcade70187aeb9b112cfd6a664c71527366e60001b61144e565b6126527fcc8d0b5031164374b9ee76b1336f6d3aec43c60ed0398a343421b0a36c0a5f6a60001b61144e565b80600360008573ffffffffffffffffffffffffffffffffffffffff1673ffffffffffffffffffffffffffffffffffffffff16815260200190815260200160002060008473ffffffffffffffffffffffffffffffffffffffff1673ffffffffffffffffffffffffffffffffffffffff168152602001908152602001600020819055506126ff7f1fa05e2bdc9e12451e57cac29d4afb9b2c1aa5209765899a24f0cf6d7df2a28760001b61144e565b61272b7f1bdd5e4e69345a239ac77d86d58a51fe71d440b3e4823963c2023d9e10003c4660001b61144e565b8173ffffffffffffffffffffffffffffffffffffffff168373ffffffffffffffffffffffffffffffffffffffff167f8c5be1e5ebec7d5bd14f71427d1e84f3dd0314c0f7b2291e5b200ac8c7c3b925836040518082815260200191505060405180910390a3505050565b6127c17fcf3c0ceb309a03d0e50ab3aeca350c266eb897b098c68339a7ec601ffe0ef7d760001b61144e565b6127ed7f3c4e4f21d691819d18898be3693e5398af4f69b02b6ff3c22920d5b2a96e83b760001b61144e565b6128197f341892011ddd2d353da3721dcc97a409fc258d91a2b470155c5a41b39dfb911760001b61144e565b6128457f4076971d16cd5a076a144e165fa071cd9a86d0f7ad25f50db345d6476d30f6c660001b61144e565b7f000000000000000000000000000000000000000000000000000000000000000073ffffffffffffffffffffffffffffffffffffffff163373ffffffffffffffffffffffffffffffffffffffff1614806128ea57507f000000000000000000000000000000000000000000000000000000000000000073ffffffffffffffffffffffffffffffffffffffff163373ffffffffffffffffffffffffffffffffffffffff16145b61293f576040517f08c379a0000000000000000000000000000000000000000000000000000000008152600401808060200182810382526036815260200180613f116036913960400191505060405180910390fd5b61296b7f909377622388d6f6e17aa4d556d420d204634701a0edc00c0cb0c2dc32f855ad60001b61144e565b565b6129997f7efc5d053fc61618f28c812a23f7769c811ac3360dfea78e848b1890d8f9ec1f60001b61144e565b6129c57fdc60467dc5914eb05e59bb957118c526ed6b891940801fc12c0d3ed09abc8af660001b61144e565b6129f17f7ed10f170f6284cccfe8ee566f443fd8828701313d9686ed478e8a312e3b891b60001b61144e565b600073ffffffffffffffffffffffffffffffffffffffff168373ffffffffffffffffffffffffffffffffffffffff161415612a2857fe5b612a547f6325fd01a2250a2876b6b949e350be7b8dcf7fd4a727e6a3f49a933815cfced760001b61144e565b612a807f4f0418fc9c8eafb8273a4fa1a32ad7bf21f47ebdec1baa312f86837f7a6990bb60001b61144e565b600073ffffffffffffffffffffffffffffffffffffffff168273ffffffffffffffffffffffffffffffffffffffff161415612ab757fe5b612ae37fcd698bc86342b70c6209affad6142a0b47c9bccf569c965ccb70d78aca044c9660001b61144e565b612b0f7fe0187ce0914dad4bc25bc60545fd69914aa7d93db6d4bbe0254d9cd29ae5d69c60001b61144e565b612b7b81604051806060016040528060268152602001613f6960269139600260008773ffffffffffffffffffffffffffffffffffffffff1673ffffffffffffffffffffffffffffffffffffffff1681526020019081526020016000205461310f9092919063ffffffff16565b600260008573ffffffffffffffffffffffffffffffffffffffff1673ffffffffffffffffffffffffffffffffffffffff16815260200190815260200160002081905550612bea7f575e8b53ddfaf39aa0a4f333151d21f4be5c37e4921f036996d33c897433a02e60001b61144e565b612c167f0b9894f458a2ee5e2c7b2051f7295e3897c2b9626b79aae70ca73f9f8498431260001b61144e565b612c6881600260008573ffffffffffffffffffffffffffffffffffffffff1673ffffffffffffffffffffffffffffffffffffffff168152602001908152602001600020546131cf90919063ffffffff16565b600260008473ffffffffffffffffffffffffffffffffffffffff1673ffffffffffffffffffffffffffffffffffffffff16815260200190815260200160002081905550612cd77fe0ac7a2332417823830caa40dbacb8740af031f9da8d1261bfe6df1db9e8dfe260001b61144e565b612d037f92ff8fa753a75f48e1cdf00279d7175c6908910e4bfc5a2fd7fc090286275fa760001b61144e565b8173ffffffffffffffffffffffffffffffffffffffff168373ffffffffffffffffffffffffffffffffffffffff167fddf252ad1be2c89b69c2b068fc378daa952ba7f163c4a11628f55a4df523b3ef836040518082815260200191505060405180910390a3505050565b612d997f09059f079c8e2bcbb356806cf7e8b55228a2fcecbab72358fce5c07b1551da0b60001b61144e565b612dc57fa01c5495941d56cc0c48c084cdf23ccaf63455bdea44ee8398e4ba0b8f43ea2860001b61144e565b612df17f3db67918bc7d25d685b7fa05f210583c97d6c0490493ead1e2dea3f300001e5860001b61144e565b612e1d7fe46120bd5da4f164de34398ec026336564e2208610d61ac169e0c0e5c53d780760001b61144e565b600073ffffffffffffffffffffffffffffffffffffffff168173ffffffffffffffffffffffffffffffffffffffff1614158015612e8657503073ffffffffffffffffffffffffffffffffffffffff168173ffffffffffffffffffffffffffffffffffffffff1614155b612edb576040517f08c379a00000000000000000000000000000000000000000000000000000000081526004018080602001828103825260548152602001806140d06054913960600191505060405180910390fd5b612f077f701dc3b54f38ae2e5928c04c416dd34b7b3308196188fe5ddead1adec2341bd960001b61144e565b612f337fd4916367196e88336d59769483986cef75fe073a0725f06557018a81beb67bbd60001b61144e565b612f5f7f71925b01ce7d99c5ba47876a8c0b7ab7d35e88a95e67b325976b351caeab19a960001b61144e565b612f8b7f08200530afa48c0afacd6f4a2620f7847690c3399d2bd9d62bfe28611bd7527260001b61144e565b7f000000000000000000000000000000000000000000000000000000000000000073ffffffffffffffffffffffffffffffffffffffff168173ffffffffffffffffffffffffffffffffffffffff161415801561303357507f000000000000000000000000000000000000000000000000000000000000000073ffffffffffffffffffffffffffffffffffffffff168173ffffffffffffffffffffffffffffffffffffffff1614155b801561308b57507f000000000000000000000000000000000000000000000000000000000000000073ffffffffffffffffffffffffffffffffffffffff168173ffffffffffffffffffffffffffffffffffffffff1614155b6130e0576040517f08c379a00000000000000000000000000000000000000000000000000000000081526004018080602001828103825260578152602001806140546057913960600191505060405180910390fd5b61310c7f2f9056682af0534e8bd1c47a82dba9022ad65e85e773f51ad2f625f9aa10b06160001b61144e565b50565b60008383111582906131bc576040517f08c379a00000000000000000000000000000000000000000000000000000000081526004018080602001828103825283818151815260200191508051906020019080838360005b83811015613181578082015181840152602081019050613166565b50505050905090810190601f1680156131ae5780820380516001836020036101000a031916815260200191505b509250505060405180910390fd5b5060008385039050809150509392505050565b60008082840190508381101561324d576040517f08c379a000000000000000000000000000000000000000000000000000000000815260040180806020018281038252601b8152602001807f536166654d6174683a206164646974696f6e206f766572666c6f77000000000081525060200191505060405180910390fd5b8091505092915050565b6132837f42ad4e7ee07183cd1934d8ffa155d14bc9b3011068aff0410e2f12e9acb9bfbf60001b61144e565b6132af7f1b1d73efe3a94e77b56dca06e71d9e20517a7756ac7bc106000f1ee274b9f57b60001b61144e565b6132db7fc525269742ce912f946520abaf8dc05d76b6c96ec01d940f1a6733ecf2ee5fe060001b61144e565b6133077f754b42eeaeeea31e1aebc1a309f5d90dfdb8a94854bdbd5999799c7d7000c9e160001b61144e565b7f000000000000000000000000000000000000000000000000000000000000000073ffffffffffffffffffffffffffffffffffffffff163373ffffffffffffffffffffffffffffffffffffffff16146133ab576040517f08c379a000000000000000000000000000000000000000000000000000000000815260040180806020018281038252602b815260200180614001602b913960400191505060405180910390fd5b6133d77f3dee24a41dc23eee711d8e9f3b827587c3149c166071312608ab7aad0dfd470860001b61144e565b565b6134057fe863059bed7de614ab4f303a666e759e24cf30f703e9fc8218f46caf24da727360001b61144e565b6134317f60cb699ec0440127c1fb49ebd0990d590575a096a2b080e71443c4566b8258d160001b61144e565b61345d7fca92a968f4be97c31cf010793612e1641d0c75dea3151804f9ac656313a123d260001b61144e565b600073ffffffffffffffffffffffffffffffffffffffff168273ffffffffffffffffffffffffffffffffffffffff16141561349457fe5b6134c07f7769b3f587eb96fdcd8e4d1fd140ff6b2daa59cebefaf83893709bfefe95190660001b61144e565b6134ec7f7acb275ec529797d3a11978c4cceb59caae34c12b290e986d5bc10b112ba7cbe60001b61144e565b613501816000546131cf90919063ffffffff16565b6000819055506135337fc745fa9998fdb578875b0015bb5e2504ba6f5cb023056e4d4d2209b0a692f3d360001b61144e565b61355f7f7b41bbe3e56bc5d15d21d932d3dedc66f86ad1051a898772a43476dda271f17e60001b61144e565b6135b181600260008573ffffffffffffffffffffffffffffffffffffffff1673ffffffffffffffffffffffffffffffffffffffff168152602001908152602001600020546131cf90919063ffffffff16565b600260008473ffffffffffffffffffffffffffffffffffffffff1673ffffffffffffffffffffffffffffffffffffffff168152602001908152602001600020819055506136207fed2511a56f6c36ab521c98c7182cd2398baf666c3b1a3d4999e5d29ba6e1701760001b61144e565b61364c7f8979b66a8385487c95c6f9052b24c071f791041cb80ad2e77e3e561bba251ad960001b61144e565b8173ffffffffffffffffffffffffffffffffffffffff16600073ffffffffffffffffffffffffffffffffffffffff167fddf252ad1be2c89b69c2b068fc378daa952ba7f163c4a11628f55a4df523b3ef836040518082815260200191505060405180910390a35050565b6136e27ffa7226cb35d2534c9287c41de71ff97fd0c77dfe9990d423c812c92db8ed060660001b61144e565b61370e7f029ff07643764130064bb9fc01b566bad4c2adc8dbf790cc4e4e29f704df335360001b61144e565b61373a7f51d3735f41ded0f948a899d56bb54333154fb9f100598044cb699770dfb8711b60001b61144e565b6137667f3dcb24b95d76f1542a8d7772dbe1cec8ab9c0a4027538ebce4f6b575cf83cb7e60001b61144e565b7f000000000000000000000000000000000000000000000000000000000000000073ffffffffffffffffffffffffffffffffffffffff163373ffffffffffffffffffffffffffffffffffffffff16148061380b57507f000000000000000000000000000000000000000000000000000000000000000073ffffffffffffffffffffffffffffffffffffffff163373ffffffffffffffffffffffffffffffffffffffff16145b8061386157507f000000000000000000000000000000000000000000000000000000000000000073ffffffffffffffffffffffffffffffffffffffff163373ffffffffffffffffffffffffffffffffffffffff16145b6138b6576040517f08c379a000000000000000000000000000000000000000000000000000000000815260040180806020018281038252604d815260200180613f8f604d913960600191505060405180910390fd5b6138e27f8b8729e674a09a1910fac1cf464e7a8f3d563250a6e5ca1cf316cf705e0eee3660001b61144e565b565b6139107f2c43fe9a981d50620dcc4774c12e5cd88f7ce19e5271de1d32e396666e393b2060001b61144e565b61393c7faf0276550c1f0d49b69877c68af8921326ad1f788ec3b450f7e7442b2b7abd5e60001b61144e565b6139687fc287ace84f1ca69ec283d2b8243bb03de1da45a461bb6499e0aa026576ba5e8760001b61144e565b600073ffffffffffffffffffffffffffffffffffffffff168273ffffffffffffffffffffffffffffffffffffffff16141561399f57fe5b6139cb7f6f0705fa77a58a19a48cb482d60d4a69bb5e7c80b28c7574cb6926e25ed6280660001b61144e565b6139f77f49be47a89a8a497bcd334e725d32b9bca2a2825bdb5cf0f6aa7df42afa1d14d360001b61144e565b613a6381604051806060016040528060228152602001613f4760229139600260008673ffffffffffffffffffffffffffffffffffffffff1673ffffffffffffffffffffffffffffffffffffffff1681526020019081526020016000205461310f9092919063ffffffff16565b600260008473ffffffffffffffffffffffffffffffffffffffff1673ffffffffffffffffffffffffffffffffffffffff16815260200190815260200160002081905550613ad27f99a365bb990f61edbbad78042f50321201101fdbb0bd96f1d520fb1b8b2e258360001b61144e565b613afe7f9164ed28973c98079912dbafdf3eae2d129cc7b22992ecfbe71601a1d5b5106760001b61144e565b613b1381600054613ec690919063ffffffff16565b600081905550613b457fb69af8d0261c13cf73550f95298c3fcad2cd75f3295734532bc0c81656d93ab560001b61144e565b613b717f13a076a723eb526e9218b0a55db8dc29ef465fdfb06e9cc758f6b91b4b8b105060001b61144e565b600073ffffffffffffffffffffffffffffffffffffffff168273ffffffffffffffffffffffffffffffffffffffff167fddf252ad1be2c89b69c2b068fc378daa952ba7f163c4a11628f55a4df523b3ef836040518082815260200191505060405180910390a35050565b613c077f693b748c5bd515edbddc726fc7c896908331f0099b1a9cb399af575508ec332d60001b61144e565b613c337f5a94168c40278e9ae138a5111dd1ebd01ee0288711488af4a1b30cef21e1fc5a60001b61144e565b613c5f7fd88938700200eb6d48cffea4beea7e8789b6b1b81089f8e8199aacb4d8cb1e5560001b61144e565b613c8b7f28154e3b9db371549eab1e331786d418d1dff57e1aa14ef3ec748bd2b2bf9bfb60001b61144e565b7f000000000000000000000000000000000000000000000000000000000000000073ffffffffffffffffffffffffffffffffffffffff163373ffffffffffffffffffffffffffffffffffffffff1614613d2f576040517f08c379a0000000000000000000000000000000000000000000000000000000008152600401808060200182810382526025815260200180613fdc6025913960400191505060405180910390fd5b613d5b7f9b87f59feae103b809fad658aa774480d84e358c13916e9c499d85c3d657d56260001b61144e565b565b6000613d8b7fd033498c867e56f230a0f212e34ddaac0e61b4833eaf3b47a6c1a7dc7bfef31560001b61144e565b613db77f89b0a963fa0a657808e9ebce93456faaece0ffd0ddd4b6b8a7ac95750799147760001b61144e565b46905090565b6000613deb7f7a199135b7dce8a09e125f294ac67029585a407ece0dcde841c2fe011ccfbd3b60001b61144e565b613e177f7994257d9b32af12e328a0cf12bf3c01d99a37c1f85c7d11ba941951a1a17f2060001b61144e565b613e437f047fb47ae71f4f8911aec6d96286ff4b1d11c5c7c982e17778edf7784a7035c560001b61144e565b838383613e4e613d5d565b30604051602001808681526020018581526020018481526020018381526020018273ffffffffffffffffffffffffffffffffffffffff1673ffffffffffffffffffffffffffffffffffffffff168152602001955050505050506040516020818303038152906040528051906020012090509392505050565b6000613f0883836040518060400160405280601e81526020017f536166654d6174683a207375627472616374696f6e206f766572666c6f77000081525061310f565b90509291505056fe4c5553443a2043616c6c6572206973206e6569746865722054726f76654d616e61676572206e6f722053746162696c697479506f6f6c45524332303a206275726e20616d6f756e7420657863656564732062616c616e636545524332303a207472616e7366657220616d6f756e7420657863656564732062616c616e63654c5553443a2043616c6c6572206973206e65697468657220426f72726f7765724f7065726174696f6e73206e6f722054726f76654d616e61676572206e6f722053746162696c697479506f6f6c4c5553443a2043616c6c6572206973206e6f74207468652053746162696c697479506f6f6c4c555344546f6b656e3a2043616c6c6572206973206e6f7420426f72726f7765724f7065726174696f6e7345524332303a207472616e7366657220616d6f756e74206578636565647320616c6c6f77616e63654c5553443a2043616e6e6f74207472616e7366657220746f6b656e73206469726563746c7920746f207468652053746162696c697479506f6f6c2c2054726f76654d616e61676572206f7220426f72726f7765724f707345524332303a2064656372656173656420616c6c6f77616e63652062656c6f77207a65726f4c5553443a2043616e6e6f74207472616e7366657220746f6b656e73206469726563746c7920746f20746865204c55534420746f6b656e20636f6e7472616374206f7220746865207a65726f2061646472657373a2646970667358221220bd550dc5b3a03a42eb03c05f451aa9095e62f1c7aec70e90e7e6f4ea7f42834e64736f6c634300060b0033608060405234801561001057600080fd5b50336000806101000a81548173ffffffffffffffffffffffffffffffffffffffff021916908373ffffffffffffffffffffffffffffffffffffffff1602179055503373ffffffffffffffffffffffffffffffffffffffff16600073ffffffffffffffffffffffffffffffffffffffff167f8be0079c531659141344cd1fd0a4f28419497f9722a3daafe3b4186f6b6457e060405160405180910390a361226a806100bb6000396000f3fe6080604052600436106100b65760003560e01c8063940a71bc1161006f578063940a71bc146103315780639b56d6c91461036c578063a3f4df7e146103d1578063b08bc72214610461578063b32beb5b146104b8578063b7f8cf9b14610509578063e9b097d11461056057610138565b806314f6c3be1461013d578063363bf964146101685780633f10abab146101f95780635a4d28bb146102545780638da5cb5b146102ab5780638f32d59b1461030257610138565b36610138576100e77fde02c6863fa8a42f878e78f10e023357aced1d2bbc72e3912129541883f1327e60001b61059b565b6100ef61059e565b61011b7f219b6fdec5ee877cdf6d1259d5056256f799202d43966c05913f9b3572c422ce60001b61059b565b6101303460045461072290919063ffffffff16565b600481905550005b600080fd5b34801561014957600080fd5b506101526107aa565b6040518082815260200191505060405180910390f35b34801561017457600080fd5b506101f76004803603606081101561018b57600080fd5b81019080803573ffffffffffffffffffffffffffffffffffffffff169060200190929190803573ffffffffffffffffffffffffffffffffffffffff169060200190929190803573ffffffffffffffffffffffffffffffffffffffff169060200190929190505050610838565b005b34801561020557600080fd5b506102526004803603604081101561021c57600080fd5b81019080803573ffffffffffffffffffffffffffffffffffffffff16906020019092919080359060200190929190505050610e62565b005b34801561026057600080fd5b506102696110e3565b604051808273ffffffffffffffffffffffffffffffffffffffff1673ffffffffffffffffffffffffffffffffffffffff16815260200191505060405180910390f35b3480156102b757600080fd5b506102c0611109565b604051808273ffffffffffffffffffffffffffffffffffffffff1673ffffffffffffffffffffffffffffffffffffffff16815260200191505060405180910390f35b34801561030e57600080fd5b50610317611132565b604051808215151515815260200191505060405180910390f35b34801561033d57600080fd5b5061036a6004803603602081101561035457600080fd5b8101908080359060200190929190505050611189565b005b34801561037857600080fd5b506103bb6004803603602081101561038f57600080fd5b81019080803573ffffffffffffffffffffffffffffffffffffffff16906020019092919050505061118c565b6040518082815260200191505060405180910390f35b3480156103dd57600080fd5b506103e6611259565b6040518080602001828103825283818151815260200191508051906020019080838360005b8381101561042657808201518184015260208101905061040b565b50505050905090810190601f1680156104535780820380516001836020036101000a031916815260200191505b509250505060405180910390f35b34801561046d57600080fd5b50610476611292565b604051808273ffffffffffffffffffffffffffffffffffffffff1673ffffffffffffffffffffffffffffffffffffffff16815260200191505060405180910390f35b3480156104c457600080fd5b50610507600480360360208110156104db57600080fd5b81019080803573ffffffffffffffffffffffffffffffffffffffff1690602001909291905050506112b8565b005b34801561051557600080fd5b5061051e61192f565b604051808273ffffffffffffffffffffffffffffffffffffffff1673ffffffffffffffffffffffffffffffffffffffff16815260200191505060405180910390f35b34801561056c57600080fd5b506105996004803603602081101561058357600080fd5b810190808035906020019092919050505061059b565b005b50565b6105ca7f9cd3f367833f8202eb0d8131c02b9a47beef89685ffbeb0598ecc9f9b197453f60001b61059b565b6105f67f4c8d3155f2ffecc41e28bcccda19e2439c11f33c308a9f4401583fd4ae2e6d8760001b61059b565b6106227f0c92914d6ba3bb003a7075bb04834f45970cd7610483f613ad1668375a31f14060001b61059b565b61064e7f5b657d4ff2af3cdc3db1ff2954ff75133388bedad2e9202f3453dd892a652a7260001b61059b565b600360009054906101000a900473ffffffffffffffffffffffffffffffffffffffff1673ffffffffffffffffffffffffffffffffffffffff163373ffffffffffffffffffffffffffffffffffffffff16146106f4576040517f08c379a000000000000000000000000000000000000000000000000000000000815260040180806020018281038252602a81526020018061218b602a913960400191505060405180910390fd5b6107207f615e88f0408cb1f52fb65bbc069163600b18c214b60a8a096a8fefaa0700be0f60001b61059b565b565b6000808284019050838110156107a0576040517f08c379a000000000000000000000000000000000000000000000000000000000815260040180806020018281038252601b8152602001807f536166654d6174683a206164646974696f6e206f766572666c6f77000000000081525060200191505060405180910390fd5b8091505092915050565b60006107d87fd3ce1d6eb53904d824eaa1fc186594544db414fff1bff8af341d0287f54efa0060001b61059b565b6108047fb93f5681fa432b8ab2e93c13e5b8dc546684db06f83a0866021fb864eebe493960001b61059b565b6108307f0ca34103bebcf2b2b93a38bacd3f53a00175de07ba0ffb5b6f3b482b1866386c60001b61059b565b600454905090565b610840611132565b6108b2576040517f08c379a00000000000000000000000000000000000000000000000000000000081526004018080602001828103825260208152602001807f4f776e61626c653a2063616c6c6572206973206e6f7420746865206f776e657281525060200191505060405180910390fd5b6108de7f1ba14273de47d86e0b083bd91f69cbf44ffc34dfb93355ca647667a47b4dca2960001b61059b565b61090a7f21cfa0abacc8d29347c80cb3f81489929aae67d4b923400236ab8e1b41c9896960001b61059b565b6109367f62a53cf484d21833bd1e70f55ed723cc24d2df876fe80870b241a8ff3080e6e860001b61059b565b61093f83611955565b61096b7fe0df6639978d6b8c9ed45a1dd0cd3896d538bc0601465533ad0c9a8099ee0e3b60001b61059b565b6109977f605823bae2e4ffe4f7c664e5d3186c6c3e3f5d1bc6a1869befde57985e8ffb5560001b61059b565b6109a082611955565b6109cc7f3cd0cc1c62fc76c36022195936280015b455b0091568053d212b52ec3d08507d60001b61059b565b6109f87f721351bb464825a0b7bcad1c9ef96e9447ce6776ed57431666c36e7b5410d41660001b61059b565b610a0181611955565b610a2d7feada4612060b52a834791ef90c3b2ca1299d54d3409eeb1aee1b9337e436165960001b61059b565b610a597f6a770a3db37a854f59487b031c44893431acb6d9f6af1d72737e411f7a2bd37f60001b61059b565b82600160006101000a81548173ffffffffffffffffffffffffffffffffffffffff021916908373ffffffffffffffffffffffffffffffffffffffff160217905550610ac67f755462f904cabd138aeb4f598de7df9d1742427f3fa414299b18ac64d94d525860001b61059b565b610af27fc49f69f2818b03112c541618a79e88db499c18feee5822f21b290cc170dd65d360001b61059b565b81600260006101000a81548173ffffffffffffffffffffffffffffffffffffffff021916908373ffffffffffffffffffffffffffffffffffffffff160217905550610b5f7f4fa5f2c6fc8e4688baffc4e7e9fc75a1c8a0b5ff4f5442690c8de839405ffdac60001b61059b565b610b8b7ff2a4ce5798103d847bf689b78592a379784b425fab2aed0ecc39e9e6d24148c060001b61059b565b80600360006101000a81548173ffffffffffffffffffffffffffffffffffffffff021916908373ffffffffffffffffffffffffffffffffffffffff160217905550610bf87fc46c653b03890b0e1c9c50a4b93baa2f38da5f760c2fa48ad970324e986fbf1f60001b61059b565b610c247fd85eb1ead4ff954f993e273ccf876c1afbe8999b40f8851884e09488aad8e77660001b61059b565b7f3ca631ffcd2a9b5d9ae18543fc82f58eb4ca33af9e6ab01b7a8e95331e6ed98583604051808273ffffffffffffffffffffffffffffffffffffffff1673ffffffffffffffffffffffffffffffffffffffff16815260200191505060405180910390a1610cb37f454fde5ad74b80e60db54ade1ffc3eca52aa7002a23ffbfcf0498b4f5d15535160001b61059b565b610cdf7f986b4f995b9fd5e0bb7fd41fe2b9dbb18adfb19e35e5858679f980c4f518823260001b61059b565b7f143219c9e69b09e07e095fcc889b43d8f46ca892bba65f08dc3a0050869a567882604051808273ffffffffffffffffffffffffffffffffffffffff1673ffffffffffffffffffffffffffffffffffffffff16815260200191505060405180910390a1610d6e7f5d3ca3ca70373e398968907facb60a6cba1251393cb704c64cc893a5a189ea2960001b61059b565b610d9a7fa92653ef42141671344602de278727390b47194552ba7a4edfb7258ac74f49ae60001b61059b565b7f78f058b189175430c48dc02699e3a0031ea4ff781536dc2fab847de4babdd88281604051808273ffffffffffffffffffffffffffffffffffffffff1673ffffffffffffffffffffffffffffffffffffffff16815260200191505060405180910390a1610e297fe1385fcfc2cd996011b9c695a21614720daddcb0bea8a986746d532e2b95d32f60001b61059b565b610e557fd053a14b07f322c09ba6af80ca680fae705ada441ec7aeae07941f3c44d3e7c060001b61059b565b610e5d611c88565b505050565b610e8e7f132fa3bafa8973d91369ab2f72f8867e1eb35830c1d1f6d7a791a4b8fc37e71a60001b61059b565b610eba7fcfbd389748682cceb044c0cfdf68663e3e7fd1e4a3a9b7cae07962ac364762ee60001b61059b565b610ee67f9f713cead3c947e27950be2205839717cd65b2c0fa2833920187b6e300dd2a9e60001b61059b565b610eee611d47565b610f1a7f305ed06e3875077f094e80655c58d2737af44bb114bfb456e14d82570b08d89160001b61059b565b610f467ff798cff384fc7e3aaf939d9118ae8791e105d0b831b6870efd2779c4b2b99f3a60001b61059b565b6000610f9a82600560008673ffffffffffffffffffffffffffffffffffffffff1673ffffffffffffffffffffffffffffffffffffffff1681526020019081526020016000205461072290919063ffffffff16565b9050610fc87f0c4cf5964443dff8de193aca396deb86aff1f7a9b6da8447b87562623e02f00760001b61059b565b610ff47f4f1b9b8bf2f1c7018edbfcc48fb375b78213e8875a05aed1c08b33b28150de5160001b61059b565b80600560008573ffffffffffffffffffffffffffffffffffffffff1673ffffffffffffffffffffffffffffffffffffffff168152602001908152602001600020819055506110647f4e79bed4ea130b3305abd8a223ce52ad9b28b5091b8f8c9cafe938a48bdbe1a860001b61059b565b6110907f58425bdc124adc99d12e10d5701c45b8670682f5e902109280115a01823aff5260001b61059b565b8273ffffffffffffffffffffffffffffffffffffffff167ff0393a34d05e6567686ad4e097f9d9d2781565957394f1f0d984e5d8e6378f20826040518082815260200191505060405180910390a2505050565b600260009054906101000a900473ffffffffffffffffffffffffffffffffffffffff1681565b60008060009054906101000a900473ffffffffffffffffffffffffffffffffffffffff16905090565b60008060009054906101000a900473ffffffffffffffffffffffffffffffffffffffff1673ffffffffffffffffffffffffffffffffffffffff163373ffffffffffffffffffffffffffffffffffffffff1614905090565b50565b60006111ba7f976c50e6f9d18c3d093d905b9c306519c9ab15565248c719136e556a089c1c0560001b61059b565b6111e67f3d6401b527217d33e977b4a1b758abbe9edb6d18c3e3cd58c76a974f0600b6ed60001b61059b565b6112127faf7fe1c82ba2f36c78d4071d54e42fdb8490d57839314423a25212d97b483bd760001b61059b565b600560008373ffffffffffffffffffffffffffffffffffffffff1673ffffffffffffffffffffffffffffffffffffffff168152602001908152602001600020549050919050565b6040518060400160405280600f81526020017f436f6c6c537572706c7573506f6f6c000000000000000000000000000000000081525081565b600360009054906101000a900473ffffffffffffffffffffffffffffffffffffffff1681565b6112e47f2c2c19fca7890e3521cf31766ba012e010390d350814c981ab24fe14dbb7d73e60001b61059b565b6113107f67f4acb93ee80aeb37029b9d8449f00c2f8d5f859a96dd05dcd7c3b460d845d960001b61059b565b61133c7ff8f1d85dc60f2377541068937a475451954cb574baac10ba6f3f134d522480ca60001b61059b565b611344611ecb565b6113707f4bc5d48d0769d29d249108ba9cd3d85910af84d3a4284873ff4038972f923e7360001b61059b565b61139c7fedeee05e88e8cdac4ad886c40523a1b1a9e3377a328dbbc8330a6092c1cb4dbf60001b61059b565b6000600560008373ffffffffffffffffffffffffffffffffffffffff1673ffffffffffffffffffffffffffffffffffffffff16815260200190815260200160002054905061140c7fbedf657044f873f00c2a5b5700dfff9d1d463184e56357c33263d5da606f30da60001b61059b565b6114387fea6dea0fe631224b6e94edb989859286ffab0d457e777f703843fcedba8a21eb60001b61059b565b6114647f24d809b295bd0b0bd394b841c93e8c7fb3472bb45de1cfb67cc5b9c2fb2938d860001b61059b565b600081116114bd576040517f08c379a000000000000000000000000000000000000000000000000000000000815260040180806020018281038252603181526020018061215a6031913960400191505060405180910390fd5b6114e97f77af2077a71303908879abc24a0bdae1c492e64bcd3e996dd3a9557cdf3ffcb160001b61059b565b6115157f506f7d302516b69fa6e625ebb13138a5cb7d0f5916278d51ed50becb082a818860001b61059b565b6115417fd263a51de3e1d0b568dde211d0a192e26c8152a398e136f751cf666cfcf0afaa60001b61059b565b6000600560008473ffffffffffffffffffffffffffffffffffffffff1673ffffffffffffffffffffffffffffffffffffffff168152602001908152602001600020819055506115b27fc77653e3342e7b9ddbade28fc44f9ef55f9237a8bb53a9189f4f3b564eb27a4560001b61059b565b6115de7f60b1d18ace8cc9a6eacd45ffb6fa61a78e7c0da484cc78002c255d4f470e533060001b61059b565b8173ffffffffffffffffffffffffffffffffffffffff167ff0393a34d05e6567686ad4e097f9d9d2781565957394f1f0d984e5d8e6378f2060006040518082815260200191505060405180910390a26116597f3216e15bcaccba7231f771b4bc35e28562cc84408c9e2689bf2898af1c392fcf60001b61059b565b6116857f3598d68cc59e05417879e94259151cb22a3cb44becb2b681cb12a808d8d4cf2160001b61059b565b61169a8160045461204f90919063ffffffff16565b6004819055506116cc7f8c52495a1c3e501d17fa07f40340000debf61758bede23efeb750a77f995f9ff60001b61059b565b6116f87fdf88f10e3e151bdb1a319149fcfc049fae1a66d66a0d9b5dc90f4e8da3e678e660001b61059b565b7f6109e2559dfa766aaec7118351d48a523f0a4157f49c8d68749c8ac41318ad128282604051808373ffffffffffffffffffffffffffffffffffffffff1673ffffffffffffffffffffffffffffffffffffffff1681526020018281526020019250505060405180910390a161178f7fdd4a43d414aeaccfce3fe83d5285cdc8d4f61393d3342621074c8486572dbb7460001b61059b565b6117bb7f604b5e213bb78b17e72cacf5bf2dc55f62a4b6c4ea160b183eab23f4b10ddd6b60001b61059b565b60008273ffffffffffffffffffffffffffffffffffffffff168260405180600001905060006040518083038185875af1925050503d806000811461181b576040519150601f19603f3d011682016040523d82523d6000602084013e611820565b606091505b505090506118507faab861cba2901b8485fb442626f111529847afa16c421fe1651a5781e3536c6860001b61059b565b61187c7f8cede54c8fdb7d64a47d3c961d548095a90c2e8826ad05419a16f63dfd49970360001b61059b565b6118a87fc04ae7b3bae1a482247dfcf4b3154a532836fec04bd1cebedcb93023c7ddc2b560001b61059b565b806118fe576040517f08c379a00000000000000000000000000000000000000000000000000000000081526004018080602001828103825260238152602001806121b56023913960400191505060405180910390fd5b61192a7f7c5596476041a20fe29f18a472b09eb4f098667f0ca88afc64d511022987730c60001b61059b565b505050565b600160009054906101000a900473ffffffffffffffffffffffffffffffffffffffff1681565b6119817f35bc9e5e61c1438a006153cf69ffd6105766a3055440d22f6c8ce219146d68af60001b611189565b6119ad7fe66c045f45b868efda896f2af22ed71637a4e9e8d13a2b1962badf362ba3eeb960001b611189565b6119d97faaa4b517f253b4fa37cb2875514a22e04e7d5828c244c7095a27e85408ccd12c60001b611189565b611a057f1221da0bd0f16fcbee175d4dae7d6b598e327e79264e77ced4c93a6a0721871b60001b611189565b600073ffffffffffffffffffffffffffffffffffffffff168173ffffffffffffffffffffffffffffffffffffffff161415611aa8576040517f08c379a000000000000000000000000000000000000000000000000000000000815260040180806020018281038252601e8152602001807f4163636f756e742063616e6e6f74206265207a65726f2061646472657373000081525060200191505060405180910390fd5b611ad47f09f0dc62d572b9e8dd242a1b7e25c3c5de1610d6c480bec35912dd5840f55fec60001b611189565b611b007fbe74447fdea037b64141768df2430eb2b7113bef949c88d88dcdc549ba88703360001b611189565b611b2c7f04e66872d3f4c69728dfe545a06401e1b17e0f9dd5e1d43290514ae4fd92783060001b611189565b6000611b5a7f60826eea4af75abd2223d108cb037485a60c485e699a12a42cac24982b89800660001b611189565b813b9050611b8a7f7acec79ba6fd0be7bb4b2bfca56ca8eb3d8333d64e828971ccb7647facc3806360001b611189565b611bb67f0c7e0405db301404f844860b9fe6e14e956a97134ff8695c88184f1c957d6e0860001b611189565b611be27f1c5a94c5a5d640e17d84bedbf9409c7f8afe563c4b1fceef7bced5961764ee0f60001b611189565b60008111611c58576040517f08c379a00000000000000000000000000000000000000000000000000000000081526004018080602001828103825260208152602001807f4163636f756e7420636f64652073697a652063616e6e6f74206265207a65726f81525060200191505060405180910390fd5b611c847f1023f03b6261b194c29dee3596b0d25a3be14b60910a1d249d0177db54f54c4a60001b611189565b5050565b600073ffffffffffffffffffffffffffffffffffffffff166000809054906101000a900473ffffffffffffffffffffffffffffffffffffffff1673ffffffffffffffffffffffffffffffffffffffff167f8be0079c531659141344cd1fd0a4f28419497f9722a3daafe3b4186f6b6457e060405160405180910390a360008060006101000a81548173ffffffffffffffffffffffffffffffffffffffff021916908373ffffffffffffffffffffffffffffffffffffffff160217905550565b611d737fdb954cbc38521e0ce698708363ca71b6cdf8b132e3dac6b0364dfdfb68d985dd60001b61059b565b611d9f7fefb8edf817f1260966fb83b28ee7fc2a96506cb256250aab61d24d89c093509260001b61059b565b611dcb7fbd60ded373425bf7a4494b49088d52238efce0ddb69a7741f8014820ba12a4c960001b61059b565b611df77fb55daffd7b019e50fb842bc96a5afee1c6d4c653c2a40f915095951c347a293e60001b61059b565b600260009054906101000a900473ffffffffffffffffffffffffffffffffffffffff1673ffffffffffffffffffffffffffffffffffffffff163373ffffffffffffffffffffffffffffffffffffffff1614611e9d576040517f08c379a000000000000000000000000000000000000000000000000000000000815260040180806020018281038252602b81526020018061220a602b913960400191505060405180910390fd5b611ec97f4d3eca5d41bfc909c67c7cf70fd4363b200326593a95d929e3df448214cb59ca60001b61059b565b565b611ef77f84696bd4102cf16cfe8d512f9eda60b1d68315b5ebcc561b32963d1472cee15760001b61059b565b611f237f1d5b54c9c598b5fd9dee547424d614d629d8a73e518d1743ebeaddb5c9094bbd60001b61059b565b611f4f7fc1e74b97307f02c411c93b077e81ddc8b8494200a0ced23db149c2f10f1a70a060001b61059b565b611f7b7f4daf8543f4d08beb91a8914b0b2bc3c28111cbaface94d56b4f2b2ec9734aa9160001b61059b565b600160009054906101000a900473ffffffffffffffffffffffffffffffffffffffff1673ffffffffffffffffffffffffffffffffffffffff163373ffffffffffffffffffffffffffffffffffffffff1614612021576040517f08c379a00000000000000000000000000000000000000000000000000000000081526004018080602001828103825260328152602001806121d86032913960400191505060405180910390fd5b61204d7f08fde57e247806d92fe75278667f07f9919b8cb1669311f5589a85f4dc6739fc60001b61059b565b565b600061209183836040518060400160405280601e81526020017f536166654d6174683a207375627472616374696f6e206f766572666c6f770000815250612099565b905092915050565b6000838311158290612146576040517f08c379a00000000000000000000000000000000000000000000000000000000081526004018080602001828103825283818151815260200191508051906020019080838360005b8381101561210b5780820151818401526020810190506120f0565b50505050905090810190601f1680156121385780820380516001836020036101000a031916815260200191505b509250505060405180910390fd5b506000838503905080915050939250505056fe436f6c6c537572706c7573506f6f6c3a204e6f20636f6c6c61746572616c20617661696c61626c6520746f20636c61696d436f6c6c537572706c7573506f6f6c3a2043616c6c6572206973206e6f742041637469766520506f6f6c436f6c6c537572706c7573506f6f6c3a2073656e64696e6720455448206661696c6564436f6c6c537572706c7573506f6f6c3a2043616c6c6572206973206e6f7420426f72726f776572204f7065726174696f6e73436f6c6c537572706c7573506f6f6c3a2043616c6c6572206973206e6f742054726f76654d616e61676572a2646970667358221220ed10f942e17774fb87baf0620a9246a2518f502fc5c66fb4bf67cd1fb5293daf64736f6c634300060b00336080604052680ad78ebc5ac620000060005534801561001d57600080fd5b5061015c8061002d6000396000f3fe608060405234801561001057600080fd5b50600436106100415760003560e01c80630fdb11cf1461004657806391b7f5ed1461006457806398d5fdca146100aa575b600080fd5b61004e6100c8565b6040518082815260200191505060405180910390f35b6100906004803603602081101561007a57600080fd5b810190808035906020019092919050505061010b565b604051808215151515815260200191505060405180910390f35b6100b261011d565b6040518082815260200191505060405180910390f35b60007f4d29de21de555af78a62fc82dd4bc05e9ae5b0660a37f04729527e0f22780cd36000546040518082815260200191505060405180910390a1600054905090565b60008160008190555060019050919050565b6000805490509056fea26469706673582212209976a8dcf9695460a14038f616144b528f3c81d249e35ea97cda626bb5b8a27e64736f6c634300060b0033608060405234801561001057600080fd5b50336000806101000a81548173ffffffffffffffffffffffffffffffffffffffff021916908373ffffffffffffffffffffffffffffffffffffffff1602179055503373ffffffffffffffffffffffffffffffffffffffff16600073ffffffffffffffffffffffffffffffffffffffff167f8be0079c531659141344cd1fd0a4f28419497f9722a3daafe3b4186f6b6457e060405160405180910390a3616c3c80620000bc6000396000f3fe608060405234801561001057600080fd5b506004361061014d5760003560e01c8063681fe70c116100c3578063a3f4df7e1161007c578063a3f4df7e1461076a578063b72703ac146107ed578063b7f8cf9b14610871578063babd3d9a146108bb578063de8fa431146108dd578063f376d798146108fb5761014d565b8063681fe70c1461059f57806373d4a13a146105c1578063765e01591461064c5780638da5cb5b146106d05780638f32d59b1461071a578063940a71bc1461073c5761014d565b8063416980dc11610115578063416980dc1461033e57806346f7cf871461041f5780634d622831146104ad578063521de965146104f75780635dbe47e81461052557806363e1d57c146105815761014d565b80631e2231431461015257806329092d0e1461019c5780632be21260146101e05780633d83908a1461026e5780633fce12d5146102b8575b600080fd5b61015a610969565b604051808273ffffffffffffffffffffffffffffffffffffffff1673ffffffffffffffffffffffffffffffffffffffff16815260200191505060405180910390f35b6101de600480360360208110156101b257600080fd5b81019080803573ffffffffffffffffffffffffffffffffffffffff169060200190929190505050610a1a565b005b61026c600480360360808110156101f657600080fd5b81019080803573ffffffffffffffffffffffffffffffffffffffff16906020019092919080359060200190929190803573ffffffffffffffffffffffffffffffffffffffff169060200190929190803573ffffffffffffffffffffffffffffffffffffffff169060200190929190505050610b0a565b005b610276610efa565b604051808273ffffffffffffffffffffffffffffffffffffffff1673ffffffffffffffffffffffffffffffffffffffff16815260200191505060405180910390f35b610324600480360360608110156102ce57600080fd5b8101908080359060200190929190803573ffffffffffffffffffffffffffffffffffffffff169060200190929190803573ffffffffffffffffffffffffffffffffffffffff169060200190929190505050610f20565b604051808215151515815260200191505060405180910390f35b6103aa6004803603606081101561035457600080fd5b8101908080359060200190929190803573ffffffffffffffffffffffffffffffffffffffff169060200190929190803573ffffffffffffffffffffffffffffffffffffffff169060200190929190505050610fdd565b604051808373ffffffffffffffffffffffffffffffffffffffff1673ffffffffffffffffffffffffffffffffffffffff1681526020018273ffffffffffffffffffffffffffffffffffffffff1673ffffffffffffffffffffffffffffffffffffffff1681526020019250505060405180910390f35b6104ab6004803603608081101561043557600080fd5b81019080803573ffffffffffffffffffffffffffffffffffffffff16906020019092919080359060200190929190803573ffffffffffffffffffffffffffffffffffffffff169060200190929190803573ffffffffffffffffffffffffffffffffffffffff16906020019092919050505061109e565b005b6104b5611216565b604051808273ffffffffffffffffffffffffffffffffffffffff1673ffffffffffffffffffffffffffffffffffffffff16815260200191505060405180910390f35b6105236004803603602081101561050d57600080fd5b81019080803590602001909291905050506112c7565b005b6105676004803603602081101561053b57600080fd5b81019080803573ffffffffffffffffffffffffffffffffffffffff1690602001909291905050506112ca565b604051808215151515815260200191505060405180910390f35b6105896113aa565b6040518082815260200191505060405180910390f35b6105a761143b565b604051808215151515815260200191505060405180910390f35b6105c96114ce565b604051808573ffffffffffffffffffffffffffffffffffffffff1673ffffffffffffffffffffffffffffffffffffffff1681526020018473ffffffffffffffffffffffffffffffffffffffff1673ffffffffffffffffffffffffffffffffffffffff16815260200183815260200182815260200194505050505060405180910390f35b61068e6004803603602081101561066257600080fd5b81019080803573ffffffffffffffffffffffffffffffffffffffff16906020019092919050505061152c565b604051808273ffffffffffffffffffffffffffffffffffffffff1673ffffffffffffffffffffffffffffffffffffffff16815260200191505060405180910390f35b6106d861161f565b604051808273ffffffffffffffffffffffffffffffffffffffff1673ffffffffffffffffffffffffffffffffffffffff16815260200191505060405180910390f35b610722611648565b604051808215151515815260200191505060405180910390f35b6107686004803603602081101561075257600080fd5b810190808035906020019092919050505061169f565b005b6107726116a2565b6040518080602001828103825283818151815260200191508051906020019080838360005b838110156107b2578082015181840152602081019050610797565b50505050905090810190601f1680156107df5780820380516001836020036101000a031916815260200191505b509250505060405180910390f35b61082f6004803603602081101561080357600080fd5b81019080803573ffffffffffffffffffffffffffffffffffffffff1690602001909291905050506116db565b604051808273ffffffffffffffffffffffffffffffffffffffff1673ffffffffffffffffffffffffffffffffffffffff16815260200191505060405180910390f35b6108796117ce565b604051808273ffffffffffffffffffffffffffffffffffffffff1673ffffffffffffffffffffffffffffffffffffffff16815260200191505060405180910390f35b6108c36117f4565b604051808215151515815260200191505060405180910390f35b6108e561188b565b6040518082815260200191505060405180910390f35b6109676004803603606081101561091157600080fd5b8101908080359060200190929190803573ffffffffffffffffffffffffffffffffffffffff169060200190929190803573ffffffffffffffffffffffffffffffffffffffff16906020019092919050505061191b565b005b60006109977f0ed62dd8b94c94b935e756847a512e16e0ed1dfc6cf05fc770a1e1d7a55bdb6060001b6112c7565b6109c37ff771af0166bffeca79df67ebf9cf4adc1b3ca4c2f0ac9832bea27eb236e1026660001b6112c7565b6109ef7f6d56022379d7f875a501c9b544efa124bb769523a2d681fa83b94922565cc71860001b6112c7565b600360000160009054906101000a900473ffffffffffffffffffffffffffffffffffffffff16905090565b610a467fa4011f1134e301debef82b8e9d715a1435c45223fe7565a7722af5d17782f9e460001b6112c7565b610a727f5024822f01bf0fb8d28e4c23e24786a715413dcb810ffa1fc6dd9bd1c0ca610d60001b6112c7565b610a9e7f1d8b9fd2cb033a5ecb6361d56b0f3e666abc978507317aee24f3ce03f480906e60001b6112c7565b610aa6611efb565b610ad27f21228493a0cdae15495087ab98102a729235cf2d1542d68f213ba958ed193b6b60001b6112c7565b610afe7f90002cf9cd4edb4823cac3dc4d46c188ac47ada21350b21138f8b3298b3730e760001b6112c7565b610b078161207f565b50565b610b367f2bc8634c6738571f3ed77bb8580889f416ae4ee42e3e45d29d586984f731174e60001b6112c7565b610b627fba95eb3413d5a801adb52c92e0c9c4ac4c9115800ca53cd4d6385d6abb1d888160001b6112c7565b610b8e7ff6f23b4d91f0f5424317ebd9fa8546030b7e35df7585eeb8eb45ea765026734360001b6112c7565b6000600260009054906101000a900473ffffffffffffffffffffffffffffffffffffffff169050610be17f7dc0abf9a377fac983773d8da25c5045eee92fce6d09b2ad7ec4d62cd305d94c60001b6112c7565b610c0d7feb5143d3a05ba0feeef79a7908c9d8392110e2dc13045bd1d09aab238e56671a60001b6112c7565b610c1681612f03565b610c427fd55b47effb3444766c5e851da90c80db55e38f6cd88dfc03a55d6749f0efd80560001b6112c7565b610c6e7f433ef373eb104493d1370cd4fbd035c19a4c695951facd3e140ae25566575dc360001b6112c7565b610c9a7f44eb38198596fa98b6945dbbfab1a750e41521b08d5d6307117e7ff769c10c1e60001b6112c7565b610ca3856112ca565b610cf8576040517f08c379a000000000000000000000000000000000000000000000000000000000815260040180806020018281038252602a815260200180616b3f602a913960400191505060405180910390fd5b610d247f3bba1bb262b972f747b23c2ad50f8fe342413905eec742de16e7d7856a46af1960001b6112c7565b610d507fb33af49695ed0b531e4a39661729f140c41f10f7ec4d8c5f938d71fd9142f11b60001b6112c7565b610d7c7fa09f495af587223c17da9427124ccf8b763b43d1a842ac1d0a4d450cf7afb81360001b6112c7565b610da87fe4b94e5949e9fbb3707dc195cfd882d0784b9071a89287d34642c2db5bb8b5b560001b6112c7565b60008411610e01576040517f08c379a0000000000000000000000000000000000000000000000000000000008152600401808060200182810382526023815260200180616be46023913960400191505060405180910390fd5b610e2d7f744627a7c64c13e775f28da6d77248233cae1ee21fdf86cdfa16707541035a9060001b6112c7565b610e597f3bc8c75cddf4ceb367a845720600dd0d42cd1d707c8a61834cdb1b31a9aa6e2a60001b6112c7565b610e857f7c0e8f43d455ed4caba01485e892aae21c9643afe1e81331d6b4934620c83e0560001b6112c7565b610e8e8561207f565b610eba7fb3f569b9eb7de0870cefb2b57f5cb128ed469b7030172fdd0eb3f2a0a4d7209960001b6112c7565b610ee67ff1934d8c9a9ce66acded43146dada977d19117cc0f75bba84a711edaf4027fbf60001b6112c7565b610ef381868686866130be565b5050505050565b600260009054906101000a900473ffffffffffffffffffffffffffffffffffffffff1681565b6000610f4e7f7141ee66eb21475ee2ac3c6abd7059f8ad699d31279ad9517f79f38a88ce4fc760001b6112c7565b610f7a7fb6c6b7ca1648324074ebc29afce7c5f68b696b16d6d63e125e8058a88bb54bf560001b6112c7565b610fa67ff1a6e86eeeedb6e14631a5c13405cbb1ad4554cd7e779b274c16c8ac0059596d60001b6112c7565b610fd4600260009054906101000a900473ffffffffffffffffffffffffffffffffffffffff168585856145eb565b90509392505050565b60008061100c7f9af660ae1db72ad28b1c838e8d391dea0480dce423f540f590a1d672038b65f060001b6112c7565b6110387f827823c44e6acf501ff6789982eec576aaa598d1028e594f45c05b4d3ce246f960001b6112c7565b6110647fd1b8c6f325b94f0c81f233c66283b852c75815692b31e5a89c4b6c41f93267e760001b6112c7565b611092600260009054906101000a900473ffffffffffffffffffffffffffffffffffffffff16868686614e77565b91509150935093915050565b6110ca7f621603edd5a191d1c63c78bff946d09b7086a66cf5365c58f1c9201d6113228560001b6112c7565b6110f67fd894a26b51bfb23695879a9b85507ff4328e2d6848fc74b263d82d8bee310f7560001b6112c7565b6111227fdf8cf8e7b6148fef7039ed17c80a5488ab607f9ce806c560800d92dde59481b760001b6112c7565b6000600260009054906101000a900473ffffffffffffffffffffffffffffffffffffffff1690506111757f5eef9000911d8ae2511ae1611b8087a7cff75ce4083c33eea06ae28b9c46d29b60001b6112c7565b6111a17f35c87b200bc30d3ad6775fdb8d7cee5b50db7b168d90b93f5011a839d720a79160001b6112c7565b6111aa81612f03565b6111d67f6b47d566e2fd51a5e0aa1e580f50f3edc215e66049c23ef86555d0960ef3deee60001b6112c7565b6112027f3c8cb5278c6d9f97cf82d7185d66b60d2c3b36163f02e1918a818926ada17a9460001b6112c7565b61120f81868686866130be565b5050505050565b60006112447fbc5d7ea56da394701ec6f307972fdbdeacca0aecc891aa3089e7a5bf336b420260001b6112c7565b6112707f65f27e2373727d97988117494a61809f6120165459d3f66c13eb98343ff5dddf60001b6112c7565b61129c7f1ba2dacc36fc571e2f9fbc6914aeed0c9374669a999417cfa548aeb4dfa14c8c60001b6112c7565b600360010160009054906101000a900473ffffffffffffffffffffffffffffffffffffffff16905090565b50565b60006112f87f70afa52fd10df9e6b01d430726053e060ca4d7f6d823d1bc9ae74e93c133232660001b6112c7565b6113247f07ac947f76bf24e2dc685109134ae63aafda0ea6fe89f43769ceec24761f8cb760001b6112c7565b6113507f80f05bcf1c7671aceaffd7ab610945c31187b0b05a7503d698150804e588acd260001b6112c7565b600360040160008373ffffffffffffffffffffffffffffffffffffffff1673ffffffffffffffffffffffffffffffffffffffff16815260200190815260200160002060000160009054906101000a900460ff169050919050565b60006113d87f88aabe481b96d878e9d1838886a7587b32338353b3ade2bf728e6d862341fd1960001b6112c7565b6114047ffa2c4049a40c61ff520a5eafc38341dd28a53db01f1dfb2497baa9c30a861d1060001b6112c7565b6114307fd92d3e2f4f4641eaaff38acbbfb031c860ee467f7694d085bdd68fe8d4ea808f60001b6112c7565b600360020154905090565b60006114697f6e300ae2e085804c59d91b56ac661821437c5ce398cab3fe5aab113a6625dc3b60001b6112c7565b6114957fc683bc2abf143276a6f79042536a4c6f6d4c1cc1001b3a924bdb8536cd2eb7ae60001b6112c7565b6114c17f852c20675cdf0c0a959fafe387c16d531bebb84478c82bde21378013397286eb60001b6112c7565b6000600380015414905090565b60038060000160009054906101000a900473ffffffffffffffffffffffffffffffffffffffff16908060010160009054906101000a900473ffffffffffffffffffffffffffffffffffffffff16908060020154908060030154905084565b600061155a7f628c55ce25fc9bf028f4fb3273a9705edbd85706942a5a9117f26998c9c1d60860001b6112c7565b6115867fb733de0082b8fb6d486a4891ca2c9aeabec3b1f1a03c3579e4a08224852c075460001b6112c7565b6115b27f3d48669796a075301ad528bca74d32c550ee79506f18483ba3680f79099e690a60001b6112c7565b600360040160008373ffffffffffffffffffffffffffffffffffffffff1673ffffffffffffffffffffffffffffffffffffffff16815260200190815260200160002060000160019054906101000a900473ffffffffffffffffffffffffffffffffffffffff169050919050565b60008060009054906101000a900473ffffffffffffffffffffffffffffffffffffffff16905090565b60008060009054906101000a900473ffffffffffffffffffffffffffffffffffffffff1673ffffffffffffffffffffffffffffffffffffffff163373ffffffffffffffffffffffffffffffffffffffff1614905090565b50565b6040518060400160405280600c81526020017f536f7274656454726f766573000000000000000000000000000000000000000081525081565b60006117097f46c3e510143b97710dfc4321320b68df0e8c5702c8d743decded00fa7b8bd40860001b6112c7565b6117357fee0bef108f414f2daeb5228f46fee1311a2d5bb3b825d23ccb188f099c35636860001b6112c7565b6117617f7db46db60779dbf0461d8fd0100a24d7f9f1d4afc92b9fa43502ae1b974d100e60001b6112c7565b600360040160008373ffffffffffffffffffffffffffffffffffffffff1673ffffffffffffffffffffffffffffffffffffffff16815260200190815260200160002060010160009054906101000a900473ffffffffffffffffffffffffffffffffffffffff169050919050565b600160009054906101000a900473ffffffffffffffffffffffffffffffffffffffff1681565b60006118227f190ecb8854d70bd5f4ada6a93fb046c6da4b4a79024fa0451867d053f5c3551f60001b6112c7565b61184e7f3df98f69c51069c22429394d0f842ba9661961248e712e829b0fc332aeb914e860001b6112c7565b61187a7f82d1764774302120247f29881d6485f9f1b57a92047a10510d9ae712e32cdef860001b6112c7565b600360020154600380015414905090565b60006118b97f426028032f4e9c41f8b54a611018c84402fbbcd2e0ad6a5ec10648f68377724860001b6112c7565b6118e57f7ca71df0e13f8e7204ebfc7b54d54cdf75a6fcc1068b7ff8b8d013634a8c53ea60001b6112c7565b6119117fe78bf4d4a17dea24b17c465127fbceef1e9e9ca47f6907262f7636cd5d50bd1e60001b6112c7565b6003800154905090565b611923611648565b611995576040517f08c379a00000000000000000000000000000000000000000000000000000000081526004018080602001828103825260208152602001807f4f776e61626c653a2063616c6c6572206973206e6f7420746865206f776e657281525060200191505060405180910390fd5b6119c17f85f94b24deb0688443d4dd14a482b7c8279abb9d8e64bca9ae60624fb5545cad60001b6112c7565b6119ed7faac2968f67f6887f1a93745959a2a8e4af3711ed31ef324bb7b80b76a825708260001b6112c7565b611a197fa31eb29676bc86bb5316a08e7fab7363fb1c81e802fd29040179b3a9ba35732d60001b6112c7565b611a457f8b2cd6987ad8571a24ea425c178784ae7b584a4eaf924d43ea98ba263f20fa2460001b6112c7565b60008311611a9e576040517f08c379a0000000000000000000000000000000000000000000000000000000008152600401808060200182810382526022815260200180616b696022913960400191505060405180910390fd5b611aca7fdc669ac4ebcc6435a71cebe4160201cfd11592e2e116b5f1cbbe4c1590456c3660001b6112c7565b611af67fe1e1b2b82830f44916d7afefb2ab41335c8ec107f4a4235ba59ea179e92df18460001b6112c7565b611b227fbaacb3f28edcbb827b30f514c0614a6c1cd524e4c646dd4da45f623d69f07b1e60001b6112c7565b611b2b82615969565b611b577f5ff93d651bf7f045a70934f99dc55105a1d50bd23e836b077a0713b3cd299b9d60001b6112c7565b611b837fc4e17491e6bb4f1686e2364e9c7370b06ae487bf279309fe94a26118a26a1fa760001b6112c7565b611b8c81615969565b611bb87f8aa197ec5e494fbca24cf5175f4930bab18648d3cb93724e8be255c551b9395860001b6112c7565b611be47fbfa5e19c5703a1f86c9762cf34b6e0642cbcd355471ae19e94b93d83e0fdc0e160001b6112c7565b82600360020181905550611c1a7f5aa2afec0fd40ec387a3a9b049ded94ade369ffd0771cf954976ee3dbfb0394360001b6112c7565b611c467f2f8ac28bc97747343b75479b2566c33c15f981da78b093bbc6d042b7b840ad1060001b6112c7565b81600260006101000a81548173ffffffffffffffffffffffffffffffffffffffff021916908373ffffffffffffffffffffffffffffffffffffffff160217905550611cb37f7d310eb1793d299e49f144bdc020f3c7b1c059731fec235554ee439ea7b5598e60001b6112c7565b611cdf7f5a31bc30ce689f77ca89e7a6c1c1d203e9302f556f9c2bb0efcbc6006e8a649c60001b6112c7565b80600160006101000a81548173ffffffffffffffffffffffffffffffffffffffff021916908373ffffffffffffffffffffffffffffffffffffffff160217905550611d4c7ff75498a0653fef520aa382f92ab39633872b78a41cd9844be2e644379a4b975c60001b6112c7565b611d787f7518714ba438bf98cc054a6b6305c1bf8fd8e1388ebc655c183a5c7f889f2a0c60001b6112c7565b7f143219c9e69b09e07e095fcc889b43d8f46ca892bba65f08dc3a0050869a567882604051808273ffffffffffffffffffffffffffffffffffffffff1673ffffffffffffffffffffffffffffffffffffffff16815260200191505060405180910390a1611e077fb7bc56da68692a30ae76a37dfab601fa3241ff9d10fd789a4db399f4708a44fa60001b6112c7565b611e337f1154ed361ca8b63ef4c4f2dade81ef138cc5486e192a1c6e8d1f0df8e7ffa8c060001b6112c7565b7f3ca631ffcd2a9b5d9ae18543fc82f58eb4ca33af9e6ab01b7a8e95331e6ed98581604051808273ffffffffffffffffffffffffffffffffffffffff1673ffffffffffffffffffffffffffffffffffffffff16815260200191505060405180910390a1611ec27f27a68b3afea8ba83760e70866fb0ba1ca44da98754b938f88b5a71525e0112b760001b6112c7565b611eee7f477de5bf91c1985fc7e9e5410870449f19129d940a3b57073ac971a805fb30af60001b6112c7565b611ef6615c9c565b505050565b611f277f5d13c636479b208a78ce86d40c03e8dd2dd4a6c098c876a3a4d0244e364842b460001b6112c7565b611f537f9e92ee2927b16c96ab6e9b542f2a0039b9e78d9eb93e0f8973d23b93398c320e60001b6112c7565b611f7f7f37e7aea7bb3e724d2f4417cb1085cd4c0da556c4053b2ded3cd21857e5718a5f60001b6112c7565b611fab7f5c3947e6718e281f5c37839e561c1370fb8481343952461b010664e6f890648460001b6112c7565b600260009054906101000a900473ffffffffffffffffffffffffffffffffffffffff1673ffffffffffffffffffffffffffffffffffffffff163373ffffffffffffffffffffffffffffffffffffffff1614612051576040517f08c379a000000000000000000000000000000000000000000000000000000000815260040180806020018281038252602c815260200180616b8b602c913960400191505060405180910390fd5b61207d7f4ba1a159637eb0f80ad61151bc6a5e4d8676dda0a6be6f96fcbb2be391cb211560001b6112c7565b565b6120ab7fc4fda6f495179f32780fdad1fd3e9446712d1948741f40cb823533909018383b60001b6112c7565b6120d77f0289f53438351fa5e39245c2d2ad6ff8d8d3ea3bb88ab9314820fb7750448cec60001b6112c7565b6121037f756bff290f45c7248d7ec35aed5cc57906c5bf659b1ca8c0a9b4284183f331cf60001b6112c7565b61212f7f3087afae03220ca26bffe879af7c6c3aa17f6ddb59ab6b7c0f0574843966940860001b6112c7565b612138816112ca565b61218d576040517f08c379a000000000000000000000000000000000000000000000000000000000815260040180806020018281038252602a815260200180616b3f602a913960400191505060405180910390fd5b6121b97f11bcc8169dbf2e2e03a34b4af0953438d046aca8f0f689f4e461047873d73ac660001b6112c7565b6121e57fb0d1502c344b7478fbcd998d17b13e1908ee781ab7d59b2eb9dc9776c6b4ab7660001b6112c7565b6122117fe90a1e774b6391cf6cfd21b88f2b789014acc3ce190361c0223b260c919c4e9c60001b6112c7565b600160038001541115612b935761224a7f4900d1be59bb17192b1a29478d9e7b687d140bb8847780c474e3961ffe061cb660001b6112c7565b6122767f5b3610256e5c7625870e84c6e901e6b702cdaf5d29b94dd1629e3e881270297260001b6112c7565b6122a27f40e53a03fd34b8ecbafada94da065d49922d71768bbb59ce64b03861a069e7c760001b6112c7565b600360000160009054906101000a900473ffffffffffffffffffffffffffffffffffffffff1673ffffffffffffffffffffffffffffffffffffffff168173ffffffffffffffffffffffffffffffffffffffff16141561252f576123277f38234ab6fce160d7a28a8e6dc648fe0b92eaff67b4fb0c59b4fc58b0666f4d8760001b6112c7565b6123537f6cdb6f1822c36d6a59c54135908202bd32d8533af4d34f2c9c1ad8be64aeaf2a60001b6112c7565b61237f7f98c7367e1ec84d61a05934cfead271fce76563f10787300c2726ccb3b3bc6bb660001b6112c7565b600360040160008273ffffffffffffffffffffffffffffffffffffffff1673ffffffffffffffffffffffffffffffffffffffff16815260200190815260200160002060000160019054906101000a900473ffffffffffffffffffffffffffffffffffffffff16600360000160006101000a81548173ffffffffffffffffffffffffffffffffffffffff021916908373ffffffffffffffffffffffffffffffffffffffff1602179055506124547fabc0b67cf8c506d2b452e9515814ff95298f093d29653f245e02467a2e5ad8d260001b6112c7565b6124807f8fab3f8a6068e33cbf95bc00503fe4308cbaefef8f13fb3c11990d0f846ab4a660001b6112c7565b600060036004016000600360000160009054906101000a900473ffffffffffffffffffffffffffffffffffffffff1673ffffffffffffffffffffffffffffffffffffffff1673ffffffffffffffffffffffffffffffffffffffff16815260200190815260200160002060010160006101000a81548173ffffffffffffffffffffffffffffffffffffffff021916908373ffffffffffffffffffffffffffffffffffffffff160217905550612b8e565b61255b7fd9c7ed182b0521985c6386d4f43f6c8a2cb05aa426651def6b8fa4514353478260001b6112c7565b6125877f82a611bdbfccf5eeba68c0aaf146ec9d5dcbcc279594e0f22821f772995d8a3560001b6112c7565b600360010160009054906101000a900473ffffffffffffffffffffffffffffffffffffffff1673ffffffffffffffffffffffffffffffffffffffff168173ffffffffffffffffffffffffffffffffffffffff1614156128145761260c7fa5afd0f7f8df1f1ae672cebf3bca0eca03f5de838669738a89c9e2c964d8013560001b6112c7565b6126387f56b1fcc3d65bfb77bdd4f1d380bf56bcc63e59311c271f1a20a522f31411a46960001b6112c7565b6126647f25a2c82dd5a0d6d9b080d6ff8246d12949d3e9664f63e1adb2f27ff37b5cab1860001b6112c7565b600360040160008273ffffffffffffffffffffffffffffffffffffffff1673ffffffffffffffffffffffffffffffffffffffff16815260200190815260200160002060010160009054906101000a900473ffffffffffffffffffffffffffffffffffffffff16600360010160006101000a81548173ffffffffffffffffffffffffffffffffffffffff021916908373ffffffffffffffffffffffffffffffffffffffff1602179055506127397f91da91ccea59a4d5c56d5d8c6cff9da80d4068d1051c0679d6671ad193fa8abc60001b6112c7565b6127657fcd929fa9aac54042ae569f8882f48689c8dbc41abdeeb71ebf30cb85784405b860001b6112c7565b600060036004016000600360010160009054906101000a900473ffffffffffffffffffffffffffffffffffffffff1673ffffffffffffffffffffffffffffffffffffffff1673ffffffffffffffffffffffffffffffffffffffff16815260200190815260200160002060000160016101000a81548173ffffffffffffffffffffffffffffffffffffffff021916908373ffffffffffffffffffffffffffffffffffffffff160217905550612b8d565b6128407f7ec3431cd151f8fae1fe4fd15890df5e5d2f0ea1231027fae0d319dc9d01bc3960001b6112c7565b61286c7fb67743c9e03629f904602682a3a00c1cd2097d957f09c89cf5a80230f3091c6860001b6112c7565b6128987f7a711d48998e2e0438e5260b0132da7dd4e383a0357953ea3b9a185b3cb633cf60001b6112c7565b600360040160008273ffffffffffffffffffffffffffffffffffffffff1673ffffffffffffffffffffffffffffffffffffffff16815260200190815260200160002060000160019054906101000a900473ffffffffffffffffffffffffffffffffffffffff1660036004016000600360040160008573ffffffffffffffffffffffffffffffffffffffff1673ffffffffffffffffffffffffffffffffffffffff16815260200190815260200160002060010160009054906101000a900473ffffffffffffffffffffffffffffffffffffffff1673ffffffffffffffffffffffffffffffffffffffff1673ffffffffffffffffffffffffffffffffffffffff16815260200190815260200160002060000160016101000a81548173ffffffffffffffffffffffffffffffffffffffff021916908373ffffffffffffffffffffffffffffffffffffffff160217905550612a127ff2c43077a58a5a39e7cc9c49776349c136e414536f6b127b11b61bb709c54cf760001b6112c7565b612a3e7f84297cc2c9b496aad30c393ad1b9895f9a02d46760458e29575d2c13e576f59760001b6112c7565b600360040160008273ffffffffffffffffffffffffffffffffffffffff1673ffffffffffffffffffffffffffffffffffffffff16815260200190815260200160002060010160009054906101000a900473ffffffffffffffffffffffffffffffffffffffff1660036004016000600360040160008573ffffffffffffffffffffffffffffffffffffffff1673ffffffffffffffffffffffffffffffffffffffff16815260200190815260200160002060000160019054906101000a900473ffffffffffffffffffffffffffffffffffffffff1673ffffffffffffffffffffffffffffffffffffffff1673ffffffffffffffffffffffffffffffffffffffff16815260200190815260200160002060010160006101000a81548173ffffffffffffffffffffffffffffffffffffffff021916908373ffffffffffffffffffffffffffffffffffffffff1602179055505b5b612cfa565b612bbf7f366beb3569e9d994c89f121a99e3442f20746f06e5837aee1f7f2b59a155c51960001b6112c7565b612beb7fb90a8432f24efa02a87761b86bd161ed08465f17a821f132c8cfa528bec7630d60001b6112c7565b612c177f1f51c4189833987b40ba5dc5c0c402ad03b208f4f14f9ce8b48ce245c8d35a6160001b6112c7565b6000600360000160006101000a81548173ffffffffffffffffffffffffffffffffffffffff021916908373ffffffffffffffffffffffffffffffffffffffff160217905550612c887f9eba484625632cd1571eebcf7218551d1cf840a42de8875cbab0222d4cb8374c60001b6112c7565b612cb47fc25efe48df193c8d2819877a12f55fe9821e11ac123fabd6e4d8ae0a26f7416460001b6112c7565b6000600360010160006101000a81548173ffffffffffffffffffffffffffffffffffffffff021916908373ffffffffffffffffffffffffffffffffffffffff1602179055505b612d267ffcc73c39ab0770907a0e47df819808de761ff14956d4b3199d1bd43868a2134160001b6112c7565b600360040160008273ffffffffffffffffffffffffffffffffffffffff1673ffffffffffffffffffffffffffffffffffffffff168152602001908152602001600020600080820160006101000a81549060ff02191690556000820160016101000a81549073ffffffffffffffffffffffffffffffffffffffff02191690556001820160006101000a81549073ffffffffffffffffffffffffffffffffffffffff02191690555050612df97f366157b99d36af84becfb3180c6e24fbbc73c7d0f114f6718ea1777f98ee41cd60001b6112c7565b612e257f685416898e71433f7f2c6905b36db3db315c374f4b5fdfd47fbe66f362913b6d60001b6112c7565b612e3d60016003800154615d5b90919063ffffffff16565b6003800181905550612e717f8f37c9ecb7a1adeb79bba12718608d46caae0567ae13fa90d9dabc7892e960c560001b6112c7565b612e9d7f08cff672cca3bd09f695110f07cf1b362592a9c48a31b188374d8812b35caf7f60001b6112c7565b7fcfc24166db4bb677e857cacabd1541fb2b30645021b27c5130419589b84db52b81604051808273ffffffffffffffffffffffffffffffffffffffff1673ffffffffffffffffffffffffffffffffffffffff16815260200191505060405180910390a150565b612f2f7ff698273974ec2674f32672b7ac1aee060261ca9b57699f0e626a3f8263967ae460001b6112c7565b612f5b7fc2f68a7c8fb7f5ddf89120d33c41e7b2c586fd09e21e5a1cd90ac3c216180c3c60001b6112c7565b612f877f7ff744b3b292324256077ebfbd73d2670fe70fb516edb6ef58feb1f3533726bf60001b6112c7565b612fb37fdb5e2e173c297f81bf99557780825a8af041a69e80af456e20664994116da4d060001b6112c7565b600160009054906101000a900473ffffffffffffffffffffffffffffffffffffffff1673ffffffffffffffffffffffffffffffffffffffff163373ffffffffffffffffffffffffffffffffffffffff16148061303a57508073ffffffffffffffffffffffffffffffffffffffff163373ffffffffffffffffffffffffffffffffffffffff16145b61308f576040517f08c379a000000000000000000000000000000000000000000000000000000000815260040180806020018281038252602d815260200180616bb7602d913960400191505060405180910390fd5b6130bb7fc93d20bcfa915cd2bea627456b240c659ebcba8dbbfeac93dee1bff17a8a1f3c60001b6112c7565b50565b6130ea7f499d4b4c49524c556fbe7d4005d11340068250f3dfc5b218f3a87c5ef4715d8260001b6112c7565b6131167f38042e73edc8eaa2863a51dbb4317a4f4e3f5c74e6f7981439e4346893802e2260001b6112c7565b6131427f1bf08b1cc564be7328f375639cee0087e0b259aa000b61eef03b2bf87aa219fa60001b6112c7565b61316e7f6d2179f48f052a2aec32f9be1eea1af4ff34370a2f79b99f0816857df3ba821860001b6112c7565b6131766117f4565b156131e9576040517f08c379a000000000000000000000000000000000000000000000000000000000815260040180806020018281038252601a8152602001807f536f7274656454726f7665733a204c6973742069732066756c6c00000000000081525060200191505060405180910390fd5b6132157f99087ba2decbdcb661b638a41bf50ffb19c966befd0b48af4bedd13cb5554c1560001b6112c7565b6132417f24a6dbe37d8b8d4d54d93bf04598fb3989873fbe55532f9dd722d3a6e517c85860001b6112c7565b61326d7fe2e88efb5e5615a78053ca9a61d9e4c7fb232e4e2d677ed41c52497f97acdb3d60001b6112c7565b6132997f2f7c01ca649037068f224fc67aba9e5ee599fa0b6b42604b6f3b80d38e67af6260001b6112c7565b6132a2846112ca565b156132f8576040517f08c379a000000000000000000000000000000000000000000000000000000000815260040180806020018281038252602c815260200180616b13602c913960400191505060405180910390fd5b6133247f6e21ef01a494dc210c0d130af953b54e0dadaaf481ae98eb5d2bc30d208917eb60001b6112c7565b6133507fdea03fbc34beb9efc8fef37be2e2150bb61107f5bd5e086fade73525432757ac60001b6112c7565b61337c7f3e4a515456f2d6135f20cb80ba1ad5f7d3ce246689a4bfd51955b3b3a2e90dde60001b6112c7565b6133a87f22dc6fad89daca89c1395ae78baf1c4292decf42ab634bac04d62a766c93b02a60001b6112c7565b600073ffffffffffffffffffffffffffffffffffffffff168473ffffffffffffffffffffffffffffffffffffffff16141561344b576040517f08c379a000000000000000000000000000000000000000000000000000000000815260040180806020018281038252601f8152602001807f536f7274656454726f7665733a2049642063616e6e6f74206265207a65726f0081525060200191505060405180910390fd5b6134777fd4fad360b178db99938e8968a448b1807902841c2de9cd177be4e649121499b660001b6112c7565b6134a37f9dfbc076cdfc73b412449f796fad36933faf152d0c72b081a017353af22065f860001b6112c7565b6134cf7fb72e8b5ad00caee2492d3231d4ce8521cf6edcd3d19dea5639d82ca44b1d54e760001b6112c7565b6134fb7f94cb7ca466918a29146493aa249c053c93bcebf80205145fa55559a40a43734a60001b6112c7565b60008311613554576040517f08c379a0000000000000000000000000000000000000000000000000000000008152600401808060200182810382526023815260200180616be46023913960400191505060405180910390fd5b6135807fa0873f07e33e8956b3788d143745c960f8f0f36fd98f21f4cfd191295e466d3660001b6112c7565b6135ac7f3d06333f9f052aef930cc3c460d6965095bdead21021aa18499b2c6bd0f9ca9460001b6112c7565b6135d87f0c624472e724046bc0dee4a5e4934bf5ba6132fd7b7aba151905f6e67bfc6ea860001b6112c7565b60008290506136097fb751edda11bb42d7df25f92497666f0412154cc6fea5111464b77e1339134d1060001b6112c7565b6136357f475f9d40079062878386ee19d2b342a23e1dc307944bee2f7e11f42b6bf1fd7b60001b6112c7565b60008290506136667fd526946599adc192559ceea6cfe26434c87bc27cc88c7a461ef08e43897f831c60001b6112c7565b6136927fe87cc0e77977a5187bf1ca6375b59454dc5a973b633be2fa3ca2f50cfc66b41660001b6112c7565b61369e878684846145eb565b61373f576136ce7f754896b75a46503b8b90edcaf93b346357478910ff3c969a51a73ea00c666a4260001b6112c7565b6136fa7f8c08ce231a4aa84f6df7c06101308a3a44d840e6bd66dae734def0a7228ecb9760001b6112c7565b6137267fd141bec061142b5e9b92a7d4597f6a6f93978a5c3913ba0fee62b64efc2eaace60001b6112c7565b61373287868484614e77565b809250819350505061376c565b61376b7f97ff931af7df10be13a7484e1700a8fd8760046c97bdd1082aacff17e99b06c760001b6112c7565b5b6137987f297bd6a1707d03ad3e7f1e834f3c03a24e9605c989e73c405c60cd76324e68f360001b6112c7565b6137c47f03d8c87b0b0b3330de446b1bfaa4606d43b02748063c99d37ed2ba7049e0e8d460001b6112c7565b6001600360040160008873ffffffffffffffffffffffffffffffffffffffff1673ffffffffffffffffffffffffffffffffffffffff16815260200190815260200160002060000160006101000a81548160ff02191690831515021790555061384e7faf25f4e66d0680b0cc1f563635828ef1fe04f02259c8eccfa44afa4f8bbf491960001b6112c7565b61387a7fdfba23fc6a2dd38a87982351359b39c08bf23b52f5970885f1c7a4e1aa5c43e060001b6112c7565b600073ffffffffffffffffffffffffffffffffffffffff168273ffffffffffffffffffffffffffffffffffffffff161480156138e25750600073ffffffffffffffffffffffffffffffffffffffff168173ffffffffffffffffffffffffffffffffffffffff16145b15613a50576139137fabab3051280bc8ae5c9dcf379dd5f6bb6f05bf245f9ff4af63d1aa9752c3de6960001b6112c7565b61393f7f332bc2bfa639a1bd25849bb25514dc230a27a956bfeeb47048b10cfb681a03ad60001b6112c7565b61396b7fff4ffcfdf66296603dfeafea5ce7a80f893f8e9ec45a74387c13124d9167e52360001b6112c7565b85600360000160006101000a81548173ffffffffffffffffffffffffffffffffffffffff021916908373ffffffffffffffffffffffffffffffffffffffff1602179055506139db7f0bb732a26b0fc5db5459af19835f08091ac72af9cf430344ab6036de8d41868960001b6112c7565b613a077f5cb7322234ec53a21ab5d878d65eab9ee24aba41a6e3a373ef7bd1b7898b63fc60001b6112c7565b85600360010160006101000a81548173ffffffffffffffffffffffffffffffffffffffff021916908373ffffffffffffffffffffffffffffffffffffffff1602179055506144a7565b613a7c7f7480175f69181dcee1a4217fff8b50b58b8c9609d042e38e736eb96ba8f7a64160001b6112c7565b613aa87f3bcf6ab25fbe6353d954d2672fdf5582e206bc8a54ed284ad905efb77487e06460001b6112c7565b600073ffffffffffffffffffffffffffffffffffffffff168273ffffffffffffffffffffffffffffffffffffffff161415613dac57613b097f7dce5dc7a79743f48e262cfd39d00b1c46fd0175afbaf7670005f9590dac56e760001b6112c7565b613b357f8174a77477be83fad2a01ac421159cdd82a0411e960c194519a41decf5c9744560001b6112c7565b613b617fd0b66469b88b9475a6c8456c363ddc2c9c8bfedfbbc4155e37c77da057f21e5760001b6112c7565b600360000160009054906101000a900473ffffffffffffffffffffffffffffffffffffffff16600360040160008873ffffffffffffffffffffffffffffffffffffffff1673ffffffffffffffffffffffffffffffffffffffff16815260200190815260200160002060000160016101000a81548173ffffffffffffffffffffffffffffffffffffffff021916908373ffffffffffffffffffffffffffffffffffffffff160217905550613c367fa6cd4e9c12b3972bba05f2d7ee93dddf1990de36101c96c678a61f799f17d49f60001b6112c7565b613c627fe5c02df13d3cac9ec83bc4b70aed38d1b963dea22b56ea39b7897fb66794ffba60001b6112c7565b8560036004016000600360000160009054906101000a900473ffffffffffffffffffffffffffffffffffffffff1673ffffffffffffffffffffffffffffffffffffffff1673ffffffffffffffffffffffffffffffffffffffff16815260200190815260200160002060010160006101000a81548173ffffffffffffffffffffffffffffffffffffffff021916908373ffffffffffffffffffffffffffffffffffffffff160217905550613d377f2ffc34b5c487047748a065947b9e6bc8d8d262debabe0f6feb2c6c2ec4d1e57f60001b6112c7565b613d637f6399f5eddaeab523fb5e418cf6c26e97634d3accafbfe8111de5b42ea4bcb59e60001b6112c7565b85600360000160006101000a81548173ffffffffffffffffffffffffffffffffffffffff021916908373ffffffffffffffffffffffffffffffffffffffff1602179055506144a6565b613dd87f487fa80eaa89ee03efdc5f7902c137d0c03ced8deb9c0179c8af6c2d2e0b50e260001b6112c7565b613e047fb50de85ffe57aeaa405f969429407b8899907df2cfef4f200c95c9b4fa1b9dfb60001b6112c7565b600073ffffffffffffffffffffffffffffffffffffffff168173ffffffffffffffffffffffffffffffffffffffff16141561410857613e657fb18e36751c085141e7c850120019cb1567b9559f29981824f94548f268df6b9360001b6112c7565b613e917fb307de516de4c49b536de75c29ddbfd975f291c33fa8a07894b843285336843860001b6112c7565b613ebd7f8374a56dcf2c837970ad46652dc571bc9140399a977b503f1c7eba26180ebc0c60001b6112c7565b600360010160009054906101000a900473ffffffffffffffffffffffffffffffffffffffff16600360040160008873ffffffffffffffffffffffffffffffffffffffff1673ffffffffffffffffffffffffffffffffffffffff16815260200190815260200160002060010160006101000a81548173ffffffffffffffffffffffffffffffffffffffff021916908373ffffffffffffffffffffffffffffffffffffffff160217905550613f927f8157259cfaf836556adf34b51706c2bc86c02ac2e9b2beedafa0f4221a3903ca60001b6112c7565b613fbe7f4ac8a7b0c980a27ed9809ccd777e258ec88e460bf462f111b2031336d040270860001b6112c7565b8560036004016000600360010160009054906101000a900473ffffffffffffffffffffffffffffffffffffffff1673ffffffffffffffffffffffffffffffffffffffff1673ffffffffffffffffffffffffffffffffffffffff16815260200190815260200160002060000160016101000a81548173ffffffffffffffffffffffffffffffffffffffff021916908373ffffffffffffffffffffffffffffffffffffffff1602179055506140937f5470fa718dc51d457104f930148a1dd16064a03bfb42dcec4e9b69d7281b88dc60001b6112c7565b6140bf7f161cf1dc7eedfd7a64c28ce4975903e16fd26f0e8a16d022c5467d4bde0a191d60001b6112c7565b85600360010160006101000a81548173ffffffffffffffffffffffffffffffffffffffff021916908373ffffffffffffffffffffffffffffffffffffffff1602179055506144a5565b6141347f040ef7fc115444c4efca44a1d914c36c14329dfc44f2bb91be06bb37bc38a40160001b6112c7565b6141607f0dfc26e7a51f87c8465c8e8880950632b90a5183d08942ecabcc5d5f1e5387b760001b6112c7565b61418c7fe70e6c1d2b888079fee8adf566cf20748d1de9850ede1f4d32d5da77c2d905a460001b6112c7565b80600360040160008873ffffffffffffffffffffffffffffffffffffffff1673ffffffffffffffffffffffffffffffffffffffff16815260200190815260200160002060000160016101000a81548173ffffffffffffffffffffffffffffffffffffffff021916908373ffffffffffffffffffffffffffffffffffffffff16021790555061423c7f0a5fa128a3f87edd6a1cd7a96736f42fe29f78330647ead0d5bbc0b4c01bd7a660001b6112c7565b6142687fe1eab090aaaf9df6a8fd792bb804de3f2331ce4985d8e200cba31d3fa594240c60001b6112c7565b81600360040160008873ffffffffffffffffffffffffffffffffffffffff1673ffffffffffffffffffffffffffffffffffffffff16815260200190815260200160002060010160006101000a81548173ffffffffffffffffffffffffffffffffffffffff021916908373ffffffffffffffffffffffffffffffffffffffff1602179055506143187f807e37fd6478f633534b3295edbd36a84c4b42ae1734b3f1949efefd42f38e8260001b6112c7565b6143447fa31ec8499746610d5bdc999c33b14673dd70650c9909aeb01531d969e2a7749e60001b6112c7565b85600360040160008473ffffffffffffffffffffffffffffffffffffffff1673ffffffffffffffffffffffffffffffffffffffff16815260200190815260200160002060000160016101000a81548173ffffffffffffffffffffffffffffffffffffffff021916908373ffffffffffffffffffffffffffffffffffffffff1602179055506143f47f636e698c2c2c13b9a8023275c29ce9063c1e4706e2395239bf32c0466fbeccfe60001b6112c7565b6144207f4b436d793f07924dc0d6ad889b7073716e6cd472c8eda0a870bb1916277adabd60001b6112c7565b85600360040160008373ffffffffffffffffffffffffffffffffffffffff1673ffffffffffffffffffffffffffffffffffffffff16815260200190815260200160002060010160006101000a81548173ffffffffffffffffffffffffffffffffffffffff021916908373ffffffffffffffffffffffffffffffffffffffff1602179055505b5b5b6144d37f6861c20bc7ae0e9c2f6c6a318e19367e0e1a0254267408bf42b6aa2ac97d23eb60001b6112c7565b6144ff7f2da327dbdf2014b1df28bc0f3a71fe3110dee991cf26ddedf78cc08d25b98c1a60001b6112c7565b61451760016003800154615da590919063ffffffff16565b600380018190555061454b7f19faad97d0e1ef102b6f1d47214b8d4b1adcfec995d371d4c6994b34f134e75160001b6112c7565b6145777fe9498fe730ed435971f34f28571dba16a5eae2c1a17a9568b5f8549ef122361260001b6112c7565b7fe02b43adbee0c123de070a04554a71877a0007e2fc161466299cae3c094fe82f8686604051808373ffffffffffffffffffffffffffffffffffffffff1673ffffffffffffffffffffffffffffffffffffffff1681526020018281526020019250505060405180910390a150505050505050565b60006146197f424eb48df86d17053b64911857b84e814ee60bcf69eb4b10118ae96458fbb8bd60001b6112c7565b6146457f600d5bc392361928614b76625aa0d86e1e98b20df127afebc2ba0f0c596a98ac60001b6112c7565b6146717f555b2e54fc0aa6799895f3e63bee7253903290d580932ad5f9df9570725d34ec60001b6112c7565b600073ffffffffffffffffffffffffffffffffffffffff168373ffffffffffffffffffffffffffffffffffffffff161480156146d95750600073ffffffffffffffffffffffffffffffffffffffff168273ffffffffffffffffffffffffffffffffffffffff16145b156147715761470a7fcd3593d33fa74b90ef9e8eae238c5af90968a7048ae0366dde4c0bf960e0f39460001b6112c7565b6147367fee6d832a7a7fb94213f8cec1eb4c276d7f7e324b54052eeb2d5e55d6f9c6106260001b6112c7565b6147627f8e7b407a870d156f8fb80f980383b3a5a1104b17efe014d6469fd564e3dac5cb60001b6112c7565b61476a61143b565b9050614e6f565b61479d7f790873620f348b319de67faee3832ba6bb35b1db77a9c4be203350b8e848bbfd60001b6112c7565b6147c97f41d3baf10913cce389bff4e207168ac2bd6249aa2849e8f926f3bae36ab051e160001b6112c7565b600073ffffffffffffffffffffffffffffffffffffffff168373ffffffffffffffffffffffffffffffffffffffff1614156149a05761482a7fd71222260efbd7d0761ea5ace46f6ba03de34c733ed352133034f2eaa72b36c560001b6112c7565b6148567fc171938e5f19aac599e5a3df774276ef48b2d12f6d036140b4d71e07be7c0ddd60001b6112c7565b6148827f3f7ecabca983a9c5535000e5f8feaceaa6c41fd670fb6f0f3e44e73fda10272a60001b6112c7565b8173ffffffffffffffffffffffffffffffffffffffff16600360000160009054906101000a900473ffffffffffffffffffffffffffffffffffffffff1673ffffffffffffffffffffffffffffffffffffffff1614801561499957508473ffffffffffffffffffffffffffffffffffffffff1663b0d8e181836040518263ffffffff1660e01b8152600401808273ffffffffffffffffffffffffffffffffffffffff1673ffffffffffffffffffffffffffffffffffffffff16815260200191505060206040518083038186803b15801561495a57600080fd5b505afa15801561496e573d6000803e3d6000fd5b505050506040513d602081101561498457600080fd5b81019080805190602001909291905050508410155b9050614e6f565b6149cc7fc2da3a20cfb69ac01e11ceef94359d6b4fc28ba603132f890cbe5cd35df647f060001b6112c7565b6149f87f228795f5600d527d39b77de5087eb72ddd5ccd9a3d1120854ac9c8e24dfab56b60001b6112c7565b600073ffffffffffffffffffffffffffffffffffffffff168273ffffffffffffffffffffffffffffffffffffffff161415614bce57614a587eddee108efec07546ab8843c812d958342750e1095f4dd07b5c32d65edcf7b960001b6112c7565b614a847f62172c784daba832eedf2680476c620f05a059269b405e638c1005f7a518371f60001b6112c7565b614ab07fbbf39e4cf8ce941791bd668f14faa149b8ab599c8773150dee291e9de3c51cb460001b6112c7565b8273ffffffffffffffffffffffffffffffffffffffff16600360010160009054906101000a900473ffffffffffffffffffffffffffffffffffffffff1673ffffffffffffffffffffffffffffffffffffffff16148015614bc757508473ffffffffffffffffffffffffffffffffffffffff1663b0d8e181846040518263ffffffff1660e01b8152600401808273ffffffffffffffffffffffffffffffffffffffff1673ffffffffffffffffffffffffffffffffffffffff16815260200191505060206040518083038186803b158015614b8857600080fd5b505afa158015614b9c573d6000803e3d6000fd5b505050506040513d6020811015614bb257600080fd5b81019080805190602001909291905050508411155b9050614e6f565b614bfa7f0666f32e4ff9a3330c9b2f51304251d4f2e4853b96d54c425b3df6fcf732a5ca60001b6112c7565b614c267f7b4bc286128b6ab92f56653b318dbefcc37c39e52cf3b0b57f33724fd48fe97960001b6112c7565b614c527f8c78c97994c0c8f6902dc76927350c049ae1e46dc8bb664eae8509868d4459b160001b6112c7565b8173ffffffffffffffffffffffffffffffffffffffff16600360040160008573ffffffffffffffffffffffffffffffffffffffff1673ffffffffffffffffffffffffffffffffffffffff16815260200190815260200160002060000160019054906101000a900473ffffffffffffffffffffffffffffffffffffffff1673ffffffffffffffffffffffffffffffffffffffff16148015614da95750838573ffffffffffffffffffffffffffffffffffffffff1663b0d8e181856040518263ffffffff1660e01b8152600401808273ffffffffffffffffffffffffffffffffffffffff1673ffffffffffffffffffffffffffffffffffffffff16815260200191505060206040518083038186803b158015614d6b57600080fd5b505afa158015614d7f573d6000803e3d6000fd5b505050506040513d6020811015614d9557600080fd5b810190808051906020019092919050505010155b8015614e6c57508473ffffffffffffffffffffffffffffffffffffffff1663b0d8e181836040518263ffffffff1660e01b8152600401808273ffffffffffffffffffffffffffffffffffffffff1673ffffffffffffffffffffffffffffffffffffffff16815260200191505060206040518083038186803b158015614e2d57600080fd5b505afa158015614e41573d6000803e3d6000fd5b505050506040513d6020811015614e5757600080fd5b81019080805190602001909291905050508410155b90505b949350505050565b600080614ea67fe0e41bc5b38cb71f3bc219740268ab8c4a300cfd6483223d0b1d4f51df07035360001b6112c7565b614ed27ff6358038d200e2df88ba3c7b890d2a190cc3776472470f346e3b33e2182439fd60001b6112c7565b614efe7fae2c43db6d9cbf129df6d5c305cbfcb8f35116ce989fdab30669feea2f0672f060001b6112c7565b6000849050614f2f7f3e946dc52528d9c8c79dae7131318f8db3feb511231a619e152d1263c66ab58160001b6112c7565b614f5b7f7a60f60aa8ae7a2e0b8ae5699f6664b311f0c3c19a7d35837e61dcfeb7f69aef60001b6112c7565b6000849050614f8c7f576c052c55508d484e42d5485ac940acfbcc6de4b1a8195906b1d1040dde80a660001b6112c7565b614fb87ff7da1cf876de47e5e5aeacf0bc199b16fc53730929b784316288aa329a17bf3d60001b6112c7565b600073ffffffffffffffffffffffffffffffffffffffff168273ffffffffffffffffffffffffffffffffffffffff16146151ff576150187f211a23793d30d016c030d473354f21c911807368928c6fcd7eb8e6b99100ec0860001b6112c7565b6150447f29ff3bb552e066eaadccbda06edb5a2ca10f6ee54458cd0d5e05802985cee34460001b6112c7565b6150707fc5130f62bf5fb33f613173f800a5661df42a2f123a5c5e81a6403b8d6c52760a60001b6112c7565b615079826112ca565b158061513b57508773ffffffffffffffffffffffffffffffffffffffff1663b0d8e181836040518263ffffffff1660e01b8152600401808273ffffffffffffffffffffffffffffffffffffffff1673ffffffffffffffffffffffffffffffffffffffff16815260200191505060206040518083038186803b1580156150fd57600080fd5b505afa158015615111573d6000803e3d6000fd5b505050506040513d602081101561512757600080fd5b810190808051906020019092919050505087115b156151cd5761516c7f7f930892f31d49a303f5b03be88195f551a1336a940d61ce64a0fb04f7eeb5ce60001b6112c7565b6151987fc4bc8fc428afafadb580ef394de3fc2125adf27743b8799700254c1ba1ba380560001b6112c7565b6151c47fe7c19a75a59f507531a3584781dec4aa6423ef11bb7df46160fddf3ed77a248e60001b6112c7565b600091506151fa565b6151f97f842c0ee24b41af96ed98206712ea005886cf6c506efaeba1f86b8737301c085660001b6112c7565b5b61522c565b61522b7fa45f1c907bc7cb6abc323482f1f57ec7867f8015fdc5d04eb731e7976aa17a0260001b6112c7565b5b6152587f9da4bc593883d95769ff5249bbe7e8d8a8fa6b6ee77b8888912cf52ded6ce97760001b6112c7565b6152847f8392823598032a633d1fe2c26c4b87e67983ccd8766ecf954fb9e4f7a3a8005f60001b6112c7565b600073ffffffffffffffffffffffffffffffffffffffff168173ffffffffffffffffffffffffffffffffffffffff16146154cb576152e47f6e174e00a80a07f7167ebdaff205a0a9b48a4eb6e7748cab5f11e48b8914aae960001b6112c7565b6153107f6ce2b310afd8897d43cd1eeb48eecbab3dba9e3fd9a965f98c6171bf10b1a8eb60001b6112c7565b61533c7f2cf505df4cbf29ab3592fef95fabaa37a886585e86f2e71c386857e95a4c29b160001b6112c7565b615345816112ca565b158061540757508773ffffffffffffffffffffffffffffffffffffffff1663b0d8e181826040518263ffffffff1660e01b8152600401808273ffffffffffffffffffffffffffffffffffffffff1673ffffffffffffffffffffffffffffffffffffffff16815260200191505060206040518083038186803b1580156153c957600080fd5b505afa1580156153dd573d6000803e3d6000fd5b505050506040513d60208110156153f357600080fd5b810190808051906020019092919050505087105b15615499576154387f94b5c82075f07e8db2ec33fc9c347bb0a650da6bbd80dcf5125a2d5628398ddd60001b6112c7565b6154647fa38805aff8e4e46d1ac06b516d251272676a3105e6ca2b09f3ace36e42a4131f60001b6112c7565b6154907f6ddbc562f147af66098fd36fa9d7b1038ad08a8f81344823c57aadfc1a0627cd60001b6112c7565b600090506154c6565b6154c57f571727ece79f64e5d14570c25fbde2270094f9bf29c88ab0b38ff3078994026460001b6112c7565b5b6154f8565b6154f77f631a067e02dfa33aa43f23c6a09f7d2c98733acf631aaa1249b5a164bbe2969a60001b6112c7565b5b6155247fea57358ec0ffdb0a1fa9fb866d715a2da3e61341ac7c0d20e73e8de06263c14560001b6112c7565b6155507fd7c7d5d169163ba3096cdd85491d403b1cec4ec76a3baafb2aa68c71abe22e5660001b6112c7565b600073ffffffffffffffffffffffffffffffffffffffff168273ffffffffffffffffffffffffffffffffffffffff161480156155b85750600073ffffffffffffffffffffffffffffffffffffffff168173ffffffffffffffffffffffffffffffffffffffff16145b1561567c576155e97fab4ae6b502299ac148f339311b37a5990fdb45013b55d8068c90f3d5498fffa760001b6112c7565b6156157f4bb54ebc42ef53ebae9c75b5496c5b497ad52e909fef516b724359e6d751bad460001b6112c7565b6156417fdce90b5f31cc42632bbb098ab6f2d30fd6c518cc459fa85e26a7808eb3e8ce4060001b6112c7565b6156718888600360000160009054906101000a900473ffffffffffffffffffffffffffffffffffffffff16615e2d565b935093505050615960565b6156a87ff88f008ddc4c7160c73a08d06c1d01faa4245a74b5e4e2cbed37e9c99948acad60001b6112c7565b6156d47fca09aec214c2f4097c012314adbd93658a144605299896ea69fe439a5570691a60001b6112c7565b600073ffffffffffffffffffffffffffffffffffffffff168273ffffffffffffffffffffffffffffffffffffffff1614156157a3576157357f08a9ee8bf2ffe96f178329ffb6696992a10f33eab24a76b0865afd08c0d5afbd60001b6112c7565b6157617f7d1272e9c5c152776bd934a37c9d1a48cb62b86407c9e35007c00f3d5f8b121160001b6112c7565b61578d7fe85d78885117a496e55ccc4581d6a4443b4fa1fb5ed75a4f430c7c7b340e797760001b6112c7565b615798888883616440565b935093505050615960565b6157cf7ff669794473faa44294f330fae4be6804952622d98deb11ca62ac65943aeae41360001b6112c7565b6157fb7f4426aeefb62998be990ee56848057bccb32f6f7f5a5423133e7451580269531560001b6112c7565b600073ffffffffffffffffffffffffffffffffffffffff168173ffffffffffffffffffffffffffffffffffffffff1614156158ca5761585c7f625a53f60980e58f742d31bba90ebe2ed50eff2460d6ed4ca6fb239dae78966860001b6112c7565b6158887f96c68887d48159c09bab8c30a7b2249fbc6f824deb1fe8dc6b09b201a914d6bd60001b6112c7565b6158b47f2d0465c8325d9709c16976e389089ff9667d9126003b54f9cdb5b90d14058e2360001b6112c7565b6158bf888884615e2d565b935093505050615960565b6158f67f04fac007a3204dd536054f52cb48452211e4c18ea9e3c884ab08d9b560ec287660001b6112c7565b6159227f471b042473ada0905a9a30d4cf46bb1e1e6e564342a3151c8ebd7c492f8e703360001b6112c7565b61594e7fcca32a15e0b9748eaa4df70313c9713233fb22a3c2c0d5273b260f52237d84a560001b6112c7565b615959888884615e2d565b9350935050505b94509492505050565b6159957f35bc9e5e61c1438a006153cf69ffd6105766a3055440d22f6c8ce219146d68af60001b61169f565b6159c17fe66c045f45b868efda896f2af22ed71637a4e9e8d13a2b1962badf362ba3eeb960001b61169f565b6159ed7faaa4b517f253b4fa37cb2875514a22e04e7d5828c244c7095a27e85408ccd12c60001b61169f565b615a197f1221da0bd0f16fcbee175d4dae7d6b598e327e79264e77ced4c93a6a0721871b60001b61169f565b600073ffffffffffffffffffffffffffffffffffffffff168173ffffffffffffffffffffffffffffffffffffffff161415615abc576040517f08c379a000000000000000000000000000000000000000000000000000000000815260040180806020018281038252601e8152602001807f4163636f756e742063616e6e6f74206265207a65726f2061646472657373000081525060200191505060405180910390fd5b615ae87f09f0dc62d572b9e8dd242a1b7e25c3c5de1610d6c480bec35912dd5840f55fec60001b61169f565b615b147fbe74447fdea037b64141768df2430eb2b7113bef949c88d88dcdc549ba88703360001b61169f565b615b407f04e66872d3f4c69728dfe545a06401e1b17e0f9dd5e1d43290514ae4fd92783060001b61169f565b6000615b6e7f60826eea4af75abd2223d108cb037485a60c485e699a12a42cac24982b89800660001b61169f565b813b9050615b9e7f7acec79ba6fd0be7bb4b2bfca56ca8eb3d8333d64e828971ccb7647facc3806360001b61169f565b615bca7f0c7e0405db301404f844860b9fe6e14e956a97134ff8695c88184f1c957d6e0860001b61169f565b615bf67f1c5a94c5a5d640e17d84bedbf9409c7f8afe563c4b1fceef7bced5961764ee0f60001b61169f565b60008111615c6c576040517f08c379a00000000000000000000000000000000000000000000000000000000081526004018080602001828103825260208152602001807f4163636f756e7420636f64652073697a652063616e6e6f74206265207a65726f81525060200191505060405180910390fd5b615c987f1023f03b6261b194c29dee3596b0d25a3be14b60910a1d249d0177db54f54c4a60001b61169f565b5050565b600073ffffffffffffffffffffffffffffffffffffffff166000809054906101000a900473ffffffffffffffffffffffffffffffffffffffff1673ffffffffffffffffffffffffffffffffffffffff167f8be0079c531659141344cd1fd0a4f28419497f9722a3daafe3b4186f6b6457e060405160405180910390a360008060006101000a81548173ffffffffffffffffffffffffffffffffffffffff021916908373ffffffffffffffffffffffffffffffffffffffff160217905550565b6000615d9d83836040518060400160405280601e81526020017f536166654d6174683a207375627472616374696f6e206f766572666c6f770000815250616a52565b905092915050565b600080828401905083811015615e23576040517f08c379a000000000000000000000000000000000000000000000000000000000815260040180806020018281038252601b8152602001807f536166654d6174683a206164646974696f6e206f766572666c6f77000000000081525060200191505060405180910390fd5b8091505092915050565b600080615e5c7fb47862c828b4384908d82bb29a64129e0e44537b295155c491aefd913b4ce02d60001b6112c7565b615e887f15f66fae0e58d859aa70784bf1c8924c07ae5223518f6624336a96e8925ff0ad60001b6112c7565b615eb47fe61c573f3b72852d47141b091d18e9397cad4a731a77eabda32a6f4dce84a92060001b6112c7565b8273ffffffffffffffffffffffffffffffffffffffff16600360000160009054906101000a900473ffffffffffffffffffffffffffffffffffffffff1673ffffffffffffffffffffffffffffffffffffffff16148015615fcb57508473ffffffffffffffffffffffffffffffffffffffff1663b0d8e181846040518263ffffffff1660e01b8152600401808273ffffffffffffffffffffffffffffffffffffffff1673ffffffffffffffffffffffffffffffffffffffff16815260200191505060206040518083038186803b158015615f8c57600080fd5b505afa158015615fa0573d6000803e3d6000fd5b505050506040513d6020811015615fb657600080fd5b81019080805190602001909291905050508410155b1561606357615ffc7fa12c47a5350e8b77b0b701d567f1b3cf9d0c883f4a547046b6a5f3234fffa38a60001b6112c7565b6160287f01d0f487727eae802a06b587c07caec60adcdfa7ec53d5abdb054724c00467ea60001b6112c7565b6160547f9fdfcd00c275ce5480a4bf0ca8e31c27c76753efb12f85e9b19df0e9ac4904e060001b6112c7565b60008381915091509150616438565b61608f7f88de3cca6ea06ab5767d422bfc3d8f19d679a85ba0dcdbcb3b13591e09ae3c3960001b6112c7565b6160bb7f70886679105244653185e2faa990b15bd66642e54d5ae43fbe583fed65da772b60001b6112c7565b6160e77fceff63b34726e43e28fb869fb1e7691b54800203f705d1bdd17880bb853578e160001b6112c7565b60008390506161187f434c72c5dbcc7ae63e5c11a1b29affa1e081ecb69790c3ff9633b00d5fd2d76a60001b6112c7565b6161447f89bbfaa891dcee3529dd9270cd006689f4db6bab8561e979ae60af6f9f33623860001b6112c7565b6000600360040160008373ffffffffffffffffffffffffffffffffffffffff1673ffffffffffffffffffffffffffffffffffffffff16815260200190815260200160002060000160019054906101000a900473ffffffffffffffffffffffffffffffffffffffff1690506161da7f7bceb976159d51118d7efd3d7c9a85e027f809e0be7d066fe4073b12f708d26860001b6112c7565b6162067f52242ca7a95cc73932ce08b0fc5f9645395ae851a09677046ccfa91095df33ac60001b6112c7565b5b600073ffffffffffffffffffffffffffffffffffffffff168273ffffffffffffffffffffffffffffffffffffffff161415801561624d575061624b878784846145eb565b155b156163d75761627e7fde88046e0056fc0203646f2c6e570687dba5a857230a20ca4d5ac7865aa450d460001b6112c7565b6162aa7fce72ac8497b1e3c0172863f38ac3e74772837b16dc3bcae6b818b1c045d47d7160001b6112c7565b600360040160008373ffffffffffffffffffffffffffffffffffffffff1673ffffffffffffffffffffffffffffffffffffffff16815260200190815260200160002060000160019054906101000a900473ffffffffffffffffffffffffffffffffffffffff16915061633e7fc1c70ce52c4e64f562fd409309dfa6e6f437f6ef63787f4d1face455037d517660001b6112c7565b61636a7fe2d8c63b203ec1df8815f740a84b66c344cc95df288135615cd6360cbcc9bb5f60001b6112c7565b600360040160008373ffffffffffffffffffffffffffffffffffffffff1673ffffffffffffffffffffffffffffffffffffffff16815260200190815260200160002060000160019054906101000a900473ffffffffffffffffffffffffffffffffffffffff169050616207565b6164037f0e6a384d2ef679278832d649be47c777c96741681c24271a2c2ccd2b4c04bf7260001b6112c7565b61642f7f750aebfcba46d7f906c085b7dfd34c7358dfc1516609aa43fbf164c612245a9360001b6112c7565b81819350935050505b935093915050565b60008061646f7f8f29eee3462319afe525e903f4ad57f94b090cecf9ca43efa9f6c0c3c755cb8360001b6112c7565b61649b7f54197ea9a90479d05a58e0b7b608b33d71d0f0785c215ef85a97b56ddff4764460001b6112c7565b6164c67e83b5e1ccc01058342bb72dce660a7cec24ba40b418bbfde9a508f0d1a998e160001b6112c7565b8273ffffffffffffffffffffffffffffffffffffffff16600360010160009054906101000a900473ffffffffffffffffffffffffffffffffffffffff1673ffffffffffffffffffffffffffffffffffffffff161480156165dd57508473ffffffffffffffffffffffffffffffffffffffff1663b0d8e181846040518263ffffffff1660e01b8152600401808273ffffffffffffffffffffffffffffffffffffffff1673ffffffffffffffffffffffffffffffffffffffff16815260200191505060206040518083038186803b15801561659e57600080fd5b505afa1580156165b2573d6000803e3d6000fd5b505050506040513d60208110156165c857600080fd5b81019080805190602001909291905050508411155b156166755761660e7fb67e5c99ec42848e6079321e3becb0c6217ba0415104d987f430ea41d3d6281160001b6112c7565b61663a7f7ee2af81f8ba2dffb9b41a14c861a59ba1ea22040003020b2583bf309bf0ea9460001b6112c7565b6166667f5429b76bab57f4709e342bda9f689c001f51a81751756a1818352ab80cea01ae60001b6112c7565b82600080905091509150616a4a565b6166a17f6d2bb7002753b5ba9dfd88aa7875ea9a5725c99fafcc34bf668967d9936d74da60001b6112c7565b6166cd7f2f740716b8d79805dcf07a4801e10d9233214b814eba4d8e2bb5a3098ca42f7560001b6112c7565b6166f97fe1e6ab878a9ba6a25cf479a5fdd2a30092c2b6798fa82123a2c9d1147415c74760001b6112c7565b600083905061672a7f189b91fc03b063eb3435d3f3e1946d786db1379f26e5bdbf9939c38a4bdb5ddf60001b6112c7565b6167567f41342d2a7da88fb940971f2db4c71e9380172a570a38b7e31e29a04308349d9c60001b6112c7565b6000600360040160008373ffffffffffffffffffffffffffffffffffffffff1673ffffffffffffffffffffffffffffffffffffffff16815260200190815260200160002060010160009054906101000a900473ffffffffffffffffffffffffffffffffffffffff1690506167ec7f9b8c72278b3a5d9e01d38fe7eaaa69903f935829957948c4704a16954556fcb460001b6112c7565b6168187fa0fbadeb3fcc4b24d9e9b776e68fb8d195707f1c076b9315b491536ca356074860001b6112c7565b5b600073ffffffffffffffffffffffffffffffffffffffff168273ffffffffffffffffffffffffffffffffffffffff161415801561685f575061685d878783856145eb565b155b156169e9576168907f7cd0832f14c5a578a9320ddff77a9b58e21911dd3b973a6626c880ec8c07950260001b6112c7565b6168bc7fef519bf76e3f735a033c5a0cee93a0aa8eadcf6c31c9bd5ac3596edb31329f2f60001b6112c7565b600360040160008373ffffffffffffffffffffffffffffffffffffffff1673ffffffffffffffffffffffffffffffffffffffff16815260200190815260200160002060010160009054906101000a900473ffffffffffffffffffffffffffffffffffffffff1691506169507fb99afe939f596db994438af15f55dbe7459c869cc539c88ad13dbf5bfd2417cc60001b6112c7565b61697c7f297e64f1501c634c08140675e8a3d0c36eb4e16626a20f8f2e81a9849a8c987f60001b6112c7565b600360040160008373ffffffffffffffffffffffffffffffffffffffff1673ffffffffffffffffffffffffffffffffffffffff16815260200190815260200160002060010160009054906101000a900473ffffffffffffffffffffffffffffffffffffffff169050616819565b616a157f3cec1ed7c765f15de59021689b5a4f810ec0f649055a23d4c05aaad53e8311e760001b6112c7565b616a417fb11b3dd585a7f18bba08abc451195f690c45ff2083dbcfda7c3750a4470bdfbe60001b6112c7565b80829350935050505b935093915050565b6000838311158290616aff576040517f08c379a00000000000000000000000000000000000000000000000000000000081526004018080602001828103825283818151815260200191508051906020019080838360005b83811015616ac4578082015181840152602081019050616aa9565b50505050905090810190601f168015616af15780820380516001836020036101000a031916815260200191505b509250505060405180910390fd5b506000838503905080915050939250505056fe536f7274656454726f7665733a204c69737420616c726561647920636f6e7461696e7320746865206e6f6465536f7274656454726f7665733a204c69737420646f6573206e6f7420636f6e7461696e20746865206964536f7274656454726f7665733a2053697a652063616ee2809974206265207a65726f536f7274656454726f7665733a2043616c6c6572206973206e6f74207468652054726f76654d616e61676572536f7274656454726f7665733a2043616c6c6572206973206e65697468657220424f206e6f722054726f76654d536f7274656454726f7665733a204e494352206d75737420626520706f736974697665a2646970667358221220d828cb4c3c5f7b3f175e47251300cd846e9f2a087c86dbc8f048c9184233c5ca64736f6c634300060b0033608060405234801561001057600080fd5b50604051611a91380380611a918339818101604052608081101561003357600080fd5b8101908080519060200190929190805190602001909291908051906020019092919080519060200190929190505050836000806101000a81548173ffffffffffffffffffffffffffffffffffffffff021916908373ffffffffffffffffffffffffffffffffffffffff16021790555082600160006101000a81548173ffffffffffffffffffffffffffffffffffffffff021916908373ffffffffffffffffffffffffffffffffffffffff16021790555081600260006101000a81548173ffffffffffffffffffffffffffffffffffffffff021916908373ffffffffffffffffffffffffffffffffffffffff16021790555080600360006101000a81548173ffffffffffffffffffffffffffffffffffffffff021916908373ffffffffffffffffffffffffffffffffffffffff16021790555050505050611919806101786000396000f3fe6080604052600436106100ed5760003560e01c80637a97d838116100855780637a97d838146104af5780637bbb0f5e1461052a57806391134731146105a5578063cc51a6c214610627578063cf83544f1461069a578063d466e4eb1461070d578063d94bcec214610780578063f47a1ea714610813578063fb8d67fc1461084e576100f4565b806332e859b9146100f957806335b1017914610167578063390b5f27146102205780634903a3dd146102935780634afbac51146102aa5780634c36240b146103305780634d37261f1461038b578063641b09b6146103dc578063650b559c14610417576100f4565b366100f457005b600080fd5b6101656004803603606081101561010f57600080fd5b8101908080359060200190929190803573ffffffffffffffffffffffffffffffffffffffff169060200190929190803573ffffffffffffffffffffffffffffffffffffffff1690602001909291905050506108d3565b005b34801561017357600080fd5b5061021e600480360360e081101561018a57600080fd5b8101908080359060200190929190803573ffffffffffffffffffffffffffffffffffffffff169060200190929190803573ffffffffffffffffffffffffffffffffffffffff169060200190929190803573ffffffffffffffffffffffffffffffffffffffff1690602001909291908035906020019092919080359060200190929190803590602001909291905050506109c6565b005b34801561022c57600080fd5b506102796004803603604081101561024357600080fd5b81019080803573ffffffffffffffffffffffffffffffffffffffff16906020019092919080359060200190929190505050610b0f565b604051808215151515815260200191505060405180910390f35b34801561029f57600080fd5b506102a8610bfd565b005b3480156102b657600080fd5b5061032e600480360360208110156102cd57600080fd5b81019080803590602001906401000000008111156102ea57600080fd5b8201836020820111156102fc57600080fd5b8035906020019184602083028401116401000000008311171561031e57600080fd5b9091929391929390505050610c81565b005b34801561033c57600080fd5b506103896004803603604081101561035357600080fd5b8101908080359060200190929190803573ffffffffffffffffffffffffffffffffffffffff169060200190929190505050610d40565b005b34801561039757600080fd5b506103da600480360360208110156103ae57600080fd5b81019080803573ffffffffffffffffffffffffffffffffffffffff169060200190929190505050610e05565b005b3480156103e857600080fd5b50610415600480360360208110156103ff57600080fd5b8101908080359060200190929190505050610ec0565b005b6104ad600480360360e081101561042d57600080fd5b81019080803590602001909291908035906020019092919080359060200190929190803515159060200190929190803573ffffffffffffffffffffffffffffffffffffffff169060200190929190803573ffffffffffffffffffffffffffffffffffffffff16906020019092919080359060200190929190505050610f50565b005b3480156104bb57600080fd5b50610528600480360360608110156104d257600080fd5b8101908080359060200190929190803573ffffffffffffffffffffffffffffffffffffffff169060200190929190803573ffffffffffffffffffffffffffffffffffffffff16906020019092919050505061106b565b005b34801561053657600080fd5b506105a36004803603606081101561054d57600080fd5b8101908080359060200190929190803573ffffffffffffffffffffffffffffffffffffffff169060200190929190803573ffffffffffffffffffffffffffffffffffffffff169060200190929190505050611165565b005b610625600480360360a08110156105bb57600080fd5b810190808035906020019092919080359060200190929190803573ffffffffffffffffffffffffffffffffffffffff169060200190929190803573ffffffffffffffffffffffffffffffffffffffff1690602001909291908035906020019092919050505061125f565b005b34801561063357600080fd5b506106806004803603604081101561064a57600080fd5b81019080803573ffffffffffffffffffffffffffffffffffffffff16906020019092919080359060200190929190505050611364565b604051808215151515815260200191505060405180910390f35b3480156106a657600080fd5b506106f3600480360360408110156106bd57600080fd5b81019080803573ffffffffffffffffffffffffffffffffffffffff16906020019092919080359060200190929190505050611452565b604051808215151515815260200191505060405180910390f35b34801561071957600080fd5b506107666004803603604081101561073057600080fd5b81019080803573ffffffffffffffffffffffffffffffffffffffff16906020019092919080359060200190929190505050611540565b604051808215151515815260200191505060405180910390f35b34801561078c57600080fd5b506107f9600480360360608110156107a357600080fd5b81019080803573ffffffffffffffffffffffffffffffffffffffff169060200190929190803573ffffffffffffffffffffffffffffffffffffffff1690602001909291908035906020019092919050505061162e565b604051808215151515815260200191505060405180910390f35b34801561081f57600080fd5b5061084c6004803603602081101561083657600080fd5b8101908080359060200190929190505050611751565b005b34801561085a57600080fd5b506108d16004803603608081101561087157600080fd5b8101908080359060200190929190803573ffffffffffffffffffffffffffffffffffffffff169060200190929190803573ffffffffffffffffffffffffffffffffffffffff169060200190929190803590602001909291905050506117e0565b005b600160009054906101000a900473ffffffffffffffffffffffffffffffffffffffff1673ffffffffffffffffffffffffffffffffffffffff166368647db18484846040518463ffffffff1660e01b8152600401808373ffffffffffffffffffffffffffffffffffffffff1673ffffffffffffffffffffffffffffffffffffffff1681526020018273ffffffffffffffffffffffffffffffffffffffff1673ffffffffffffffffffffffffffffffffffffffff168152602001925050506000604051808303818588803b1580156109a857600080fd5b505af11580156109bc573d6000803e3d6000fd5b5050505050505050565b6000809054906101000a900473ffffffffffffffffffffffffffffffffffffffff1673ffffffffffffffffffffffffffffffffffffffff1663bcd37526888888888888886040518863ffffffff1660e01b8152600401808881526020018773ffffffffffffffffffffffffffffffffffffffff1673ffffffffffffffffffffffffffffffffffffffff1681526020018673ffffffffffffffffffffffffffffffffffffffff1673ffffffffffffffffffffffffffffffffffffffff1681526020018573ffffffffffffffffffffffffffffffffffffffff1673ffffffffffffffffffffffffffffffffffffffff168152602001848152602001838152602001828152602001975050505050505050600060405180830381600087803b158015610aee57600080fd5b505af1158015610b02573d6000803e3d6000fd5b5050505050505050505050565b6000600360009054906101000a900473ffffffffffffffffffffffffffffffffffffffff1673ffffffffffffffffffffffffffffffffffffffff1663a9059cbb84846040518363ffffffff1660e01b8152600401808373ffffffffffffffffffffffffffffffffffffffff1673ffffffffffffffffffffffffffffffffffffffff16815260200182815260200192505050602060405180830381600087803b158015610bba57600080fd5b505af1158015610bce573d6000803e3d6000fd5b505050506040513d6020811015610be457600080fd5b8101908080519060200190929190505050905092915050565b600160009054906101000a900473ffffffffffffffffffffffffffffffffffffffff1673ffffffffffffffffffffffffffffffffffffffff16630e704d506040518163ffffffff1660e01b8152600401600060405180830381600087803b158015610c6757600080fd5b505af1158015610c7b573d6000803e3d6000fd5b50505050565b6000809054906101000a900473ffffffffffffffffffffffffffffffffffffffff1673ffffffffffffffffffffffffffffffffffffffff16631e8b1c2b83836040518363ffffffff1660e01b815260040180806020018281038252848482818152602001925060200280828437600081840152601f19601f8201169050808301925050509350505050600060405180830381600087803b158015610d2457600080fd5b505af1158015610d38573d6000803e3d6000fd5b505050505050565b600260009054906101000a900473ffffffffffffffffffffffffffffffffffffffff1673ffffffffffffffffffffffffffffffffffffffff16635f788d6583836040518363ffffffff1660e01b8152600401808381526020018273ffffffffffffffffffffffffffffffffffffffff1673ffffffffffffffffffffffffffffffffffffffff16815260200192505050600060405180830381600087803b158015610de957600080fd5b505af1158015610dfd573d6000803e3d6000fd5b505050505050565b6000809054906101000a900473ffffffffffffffffffffffffffffffffffffffff1673ffffffffffffffffffffffffffffffffffffffff16632f865568826040518263ffffffff1660e01b8152600401808273ffffffffffffffffffffffffffffffffffffffff1673ffffffffffffffffffffffffffffffffffffffff168152602001915050600060405180830381600087803b158015610ea557600080fd5b505af1158015610eb9573d6000803e3d6000fd5b5050505050565b600260009054906101000a900473ffffffffffffffffffffffffffffffffffffffff1673ffffffffffffffffffffffffffffffffffffffff16632e54bf95826040518263ffffffff1660e01b815260040180828152602001915050600060405180830381600087803b158015610f3557600080fd5b505af1158015610f49573d6000803e3d6000fd5b5050505050565b600160009054906101000a900473ffffffffffffffffffffffffffffffffffffffff1673ffffffffffffffffffffffffffffffffffffffff1663c6a6cf20888389898989896040518863ffffffff1660e01b815260040180878152602001868152602001858152602001841515151581526020018373ffffffffffffffffffffffffffffffffffffffff1673ffffffffffffffffffffffffffffffffffffffff1681526020018273ffffffffffffffffffffffffffffffffffffffff1673ffffffffffffffffffffffffffffffffffffffff16815260200196505050505050506000604051808303818588803b15801561104957600080fd5b505af115801561105d573d6000803e3d6000fd5b505050505050505050505050565b600160009054906101000a900473ffffffffffffffffffffffffffffffffffffffff1673ffffffffffffffffffffffffffffffffffffffff166304491fa78484846040518463ffffffff1660e01b8152600401808481526020018373ffffffffffffffffffffffffffffffffffffffff1673ffffffffffffffffffffffffffffffffffffffff1681526020018273ffffffffffffffffffffffffffffffffffffffff1673ffffffffffffffffffffffffffffffffffffffff1681526020019350505050600060405180830381600087803b15801561114857600080fd5b505af115801561115c573d6000803e3d6000fd5b50505050505050565b600160009054906101000a900473ffffffffffffffffffffffffffffffffffffffff1673ffffffffffffffffffffffffffffffffffffffff16635530273c8484846040518463ffffffff1660e01b8152600401808481526020018373ffffffffffffffffffffffffffffffffffffffff1673ffffffffffffffffffffffffffffffffffffffff1681526020018273ffffffffffffffffffffffffffffffffffffffff1673ffffffffffffffffffffffffffffffffffffffff1681526020019350505050600060405180830381600087803b15801561124257600080fd5b505af1158015611256573d6000803e3d6000fd5b50505050505050565b600160009054906101000a900473ffffffffffffffffffffffffffffffffffffffff1673ffffffffffffffffffffffffffffffffffffffff1663860665b386838787876040518663ffffffff1660e01b8152600401808581526020018481526020018373ffffffffffffffffffffffffffffffffffffffff1673ffffffffffffffffffffffffffffffffffffffff1681526020018273ffffffffffffffffffffffffffffffffffffffff1673ffffffffffffffffffffffffffffffffffffffff1681526020019450505050506000604051808303818588803b15801561134457600080fd5b505af1158015611358573d6000803e3d6000fd5b50505050505050505050565b6000600360009054906101000a900473ffffffffffffffffffffffffffffffffffffffff1673ffffffffffffffffffffffffffffffffffffffff16633950935184846040518363ffffffff1660e01b8152600401808373ffffffffffffffffffffffffffffffffffffffff1673ffffffffffffffffffffffffffffffffffffffff16815260200182815260200192505050602060405180830381600087803b15801561140f57600080fd5b505af1158015611423573d6000803e3d6000fd5b505050506040513d602081101561143957600080fd5b8101908080519060200190929190505050905092915050565b6000600360009054906101000a900473ffffffffffffffffffffffffffffffffffffffff1673ffffffffffffffffffffffffffffffffffffffff1663095ea7b384846040518363ffffffff1660e01b8152600401808373ffffffffffffffffffffffffffffffffffffffff1673ffffffffffffffffffffffffffffffffffffffff16815260200182815260200192505050602060405180830381600087803b1580156114fd57600080fd5b505af1158015611511573d6000803e3d6000fd5b505050506040513d602081101561152757600080fd5b8101908080519060200190929190505050905092915050565b6000600360009054906101000a900473ffffffffffffffffffffffffffffffffffffffff1673ffffffffffffffffffffffffffffffffffffffff1663a457c2d784846040518363ffffffff1660e01b8152600401808373ffffffffffffffffffffffffffffffffffffffff1673ffffffffffffffffffffffffffffffffffffffff16815260200182815260200192505050602060405180830381600087803b1580156115eb57600080fd5b505af11580156115ff573d6000803e3d6000fd5b505050506040513d602081101561161557600080fd5b8101908080519060200190929190505050905092915050565b6000600360009054906101000a900473ffffffffffffffffffffffffffffffffffffffff1673ffffffffffffffffffffffffffffffffffffffff166323b872dd8585856040518463ffffffff1660e01b8152600401808473ffffffffffffffffffffffffffffffffffffffff1673ffffffffffffffffffffffffffffffffffffffff1681526020018373ffffffffffffffffffffffffffffffffffffffff1673ffffffffffffffffffffffffffffffffffffffff1681526020018281526020019350505050602060405180830381600087803b15801561170d57600080fd5b505af1158015611721573d6000803e3d6000fd5b505050506040513d602081101561173757600080fd5b810190808051906020019092919050505090509392505050565b6000809054906101000a900473ffffffffffffffffffffffffffffffffffffffff1673ffffffffffffffffffffffffffffffffffffffff1663653d46e7826040518263ffffffff1660e01b815260040180828152602001915050600060405180830381600087803b1580156117c557600080fd5b505af11580156117d9573d6000803e3d6000fd5b5050505050565b600160009054906101000a900473ffffffffffffffffffffffffffffffffffffffff1673ffffffffffffffffffffffffffffffffffffffff16631184e5f8828686866040518563ffffffff1660e01b8152600401808581526020018481526020018373ffffffffffffffffffffffffffffffffffffffff1673ffffffffffffffffffffffffffffffffffffffff1681526020018273ffffffffffffffffffffffffffffffffffffffff1673ffffffffffffffffffffffffffffffffffffffff168152602001945050505050600060405180830381600087803b1580156118c557600080fd5b505af11580156118d9573d6000803e3d6000fd5b505050505050505056fea2646970667358221220eea6f5ef0af2c630c0095a8bfef9d3e1dd15b6158b520f6d0013ae4b2b3f189264736f6c634300060b0033",
  "linkReferences": {},
  "deployedLinkReferences": {}
}