{
  "_format": "hh-sol-artifact-1",
  "contractName": "ETHTransferScript",
  "sourceName": "contracts/Proxy/ETHTransferScript.sol",
  "abi": [
    {
      "inputs": [
        {
          "internalType": "bytes32",
          "name": "c__0x7a3e46cf",
          "type": "bytes32"
        }
      ],
      "name": "c_0x7a3e46cf",
      "outputs": [],
      "stateMutability": "pure",
      "type": "function"
    },
    {
      "inputs": [
        {
          "internalType": "address",
          "name": "_recipient",
          "type": "address"
        },
        {
          "internalType": "uint256",
          "name": "_amount",
          "type": "uint256"
        }
      ],
      "name": "transferETH",
      "outputs": [
        {
          "internalType": "bool",
          "name": "",
          "type": "bool"
        }
      ],
      "stateMutability": "nonpayable",
      "type": "function"
    }
  ],
  "bytecode": "0x608060405234801561001057600080fd5b50610259806100206000396000f3fe608060405234801561001057600080fd5b50600436106100365760003560e01c80631272bf801461003b5780637b1a490914610069575b600080fd5b6100676004803603602081101561005157600080fd5b81019080803590602001909291905050506100cf565b005b6100b56004803603604081101561007f57600080fd5b81019080803573ffffffffffffffffffffffffffffffffffffffff169060200190929190803590602001909291905050506100d2565b604051808215151515815260200191505060405180910390f35b50565b60006101007f66931fc1962d8767c06ec7db88f07fe11612f232aa5d47b892939bd51c66f7b160001b6100cf565b61012c7f6ef38c07cf04c6d9a70ba4055bf03c4b69ae987a95503e8658a41bf0fcbfa95360001b6100cf565b6101587ff359e1d202a7a161193563788e1aa02b1bb967e965dbd7c85767ebbeee17ae6860001b6100cf565b60008373ffffffffffffffffffffffffffffffffffffffff168360405180600001905060006040518083038185875af1925050503d80600081146101b8576040519150601f19603f3d011682016040523d82523d6000602084013e6101bd565b606091505b505090506101ed7f44882feb521c654b049b97931e7b252240f6104a4af1e78ba4ac419f45278b6560001b6100cf565b6102197f52bdc94d978748585bd1b364e8182d38100b936d59410de3ca02c098a630856d60001b6100cf565b809150509291505056fea26469706673582212200271345fb44aacbdae73c240778e753ec4abbccd14965b05cd62129507272b4064736f6c634300060b0033",
  "linkReferences": {},
  "deployedLinkReferences": {}
}