{
  "_format": "hh-sol-artifact-1",
  "contractName": "GasPool",
  "sourceName": "contracts/GasPool.sol",
  "abi": [
    {
      "inputs": [
        {
          "internalType": "bytes32",
          "name": "c__0xc256e11b",
          "type": "bytes32"
        }
      ],
      "name": "c_0xc256e11b",
      "outputs": [],
      "stateMutability": "pure",
      "type": "function"
    }
  ],
  "bytecode": "0x6080604052348015600f57600080fd5b5060918061001e6000396000f3fe6080604052348015600f57600080fd5b506004361060285760003560e01c8063cda7e93914602d575b600080fd5b605660048036036020811015604157600080fd5b81019080803590602001909291905050506058565b005b5056fea2646970667358221220c3613303de988bcfcde61c54bc31f1b4c54637195379ace86d9559882370818564736f6c634300060b0033",
  "linkReferences": {},
  "deployedLinkReferences": {}
}