{
  "_format": "hh-sol-artifact-1",
  "contractName": "HintHelpers",
  "sourceName": "contracts/HintHelpers.sol",
  "abi": [
    {
      "anonymous": false,
      "inputs": [
        {
          "indexed": true,
          "internalType": "address",
          "name": "previousOwner",
          "type": "address"
        },
        {
          "indexed": true,
          "internalType": "address",
          "name": "newOwner",
          "type": "address"
        }
      ],
      "name": "OwnershipTransferred",
      "type": "event"
    },
    {
      "anonymous": false,
      "inputs": [
        {
          "indexed": false,
          "internalType": "address",
          "name": "_sortedTrovesAddress",
          "type": "address"
        }
      ],
      "name": "SortedTrovesAddressChanged",
      "type": "event"
    },
    {
      "anonymous": false,
      "inputs": [
        {
          "indexed": false,
          "internalType": "address",
          "name": "_troveManagerAddress",
          "type": "address"
        }
      ],
      "name": "TroveManagerAddressChanged",
      "type": "event"
    },
    {
      "inputs": [],
      "name": "BORROWING_FEE_FLOOR",
      "outputs": [
        {
          "internalType": "uint256",
          "name": "",
          "type": "uint256"
        }
      ],
      "stateMutability": "view",
      "type": "function"
    },
    {
      "inputs": [],
      "name": "CCR",
      "outputs": [
        {
          "internalType": "uint256",
          "name": "",
          "type": "uint256"
        }
      ],
      "stateMutability": "view",
      "type": "function"
    },
    {
      "inputs": [],
      "name": "DECIMAL_PRECISION",
      "outputs": [
        {
          "internalType": "uint256",
          "name": "",
          "type": "uint256"
        }
      ],
      "stateMutability": "view",
      "type": "function"
    },
    {
      "inputs": [],
      "name": "LUSD_GAS_COMPENSATION",
      "outputs": [
        {
          "internalType": "uint256",
          "name": "",
          "type": "uint256"
        }
      ],
      "stateMutability": "view",
      "type": "function"
    },
    {
      "inputs": [],
      "name": "MCR",
      "outputs": [
        {
          "internalType": "uint256",
          "name": "",
          "type": "uint256"
        }
      ],
      "stateMutability": "view",
      "type": "function"
    },
    {
      "inputs": [],
      "name": "MIN_NET_DEBT",
      "outputs": [
        {
          "internalType": "uint256",
          "name": "",
          "type": "uint256"
        }
      ],
      "stateMutability": "view",
      "type": "function"
    },
    {
      "inputs": [],
      "name": "NAME",
      "outputs": [
        {
          "internalType": "string",
          "name": "",
          "type": "string"
        }
      ],
      "stateMutability": "view",
      "type": "function"
    },
    {
      "inputs": [],
      "name": "PERCENT_DIVISOR",
      "outputs": [
        {
          "internalType": "uint256",
          "name": "",
          "type": "uint256"
        }
      ],
      "stateMutability": "view",
      "type": "function"
    },
    {
      "inputs": [],
      "name": "_100pct",
      "outputs": [
        {
          "internalType": "uint256",
          "name": "",
          "type": "uint256"
        }
      ],
      "stateMutability": "view",
      "type": "function"
    },
    {
      "inputs": [],
      "name": "activePool",
      "outputs": [
        {
          "internalType": "contract IActivePool",
          "name": "",
          "type": "address"
        }
      ],
      "stateMutability": "view",
      "type": "function"
    },
    {
      "inputs": [
        {
          "internalType": "bytes32",
          "name": "c__0x3a042251",
          "type": "bytes32"
        }
      ],
      "name": "c_0x3a042251",
      "outputs": [],
      "stateMutability": "pure",
      "type": "function"
    },
    {
      "inputs": [
        {
          "internalType": "bytes32",
          "name": "c__0x5674c42b",
          "type": "bytes32"
        }
      ],
      "name": "c_0x5674c42b",
      "outputs": [],
      "stateMutability": "pure",
      "type": "function"
    },
    {
      "inputs": [
        {
          "internalType": "bytes32",
          "name": "c__0xafd32059",
          "type": "bytes32"
        }
      ],
      "name": "c_0xafd32059",
      "outputs": [],
      "stateMutability": "pure",
      "type": "function"
    },
    {
      "inputs": [
        {
          "internalType": "bytes32",
          "name": "c__0xe624bb7f",
          "type": "bytes32"
        }
      ],
      "name": "c_0xe624bb7f",
      "outputs": [],
      "stateMutability": "pure",
      "type": "function"
    },
    {
      "inputs": [
        {
          "internalType": "uint256",
          "name": "_coll",
          "type": "uint256"
        },
        {
          "internalType": "uint256",
          "name": "_debt",
          "type": "uint256"
        },
        {
          "internalType": "uint256",
          "name": "_price",
          "type": "uint256"
        }
      ],
      "name": "computeCR",
      "outputs": [
        {
          "internalType": "uint256",
          "name": "",
          "type": "uint256"
        }
      ],
      "stateMutability": "pure",
      "type": "function"
    },
    {
      "inputs": [
        {
          "internalType": "uint256",
          "name": "_coll",
          "type": "uint256"
        },
        {
          "internalType": "uint256",
          "name": "_debt",
          "type": "uint256"
        }
      ],
      "name": "computeNominalCR",
      "outputs": [
        {
          "internalType": "uint256",
          "name": "",
          "type": "uint256"
        }
      ],
      "stateMutability": "pure",
      "type": "function"
    },
    {
      "inputs": [],
      "name": "defaultPool",
      "outputs": [
        {
          "internalType": "contract IDefaultPool",
          "name": "",
          "type": "address"
        }
      ],
      "stateMutability": "view",
      "type": "function"
    },
    {
      "inputs": [
        {
          "internalType": "uint256",
          "name": "_CR",
          "type": "uint256"
        },
        {
          "internalType": "uint256",
          "name": "_numTrials",
          "type": "uint256"
        },
        {
          "internalType": "uint256",
          "name": "_inputRandomSeed",
          "type": "uint256"
        }
      ],
      "name": "getApproxHint",
      "outputs": [
        {
          "internalType": "address",
          "name": "hintAddress",
          "type": "address"
        },
        {
          "internalType": "uint256",
          "name": "diff",
          "type": "uint256"
        },
        {
          "internalType": "uint256",
          "name": "latestRandomSeed",
          "type": "uint256"
        }
      ],
      "stateMutability": "view",
      "type": "function"
    },
    {
      "inputs": [],
      "name": "getEntireSystemColl",
      "outputs": [
        {
          "internalType": "uint256",
          "name": "entireSystemColl",
          "type": "uint256"
        }
      ],
      "stateMutability": "view",
      "type": "function"
    },
    {
      "inputs": [],
      "name": "getEntireSystemDebt",
      "outputs": [
        {
          "internalType": "uint256",
          "name": "entireSystemDebt",
          "type": "uint256"
        }
      ],
      "stateMutability": "view",
      "type": "function"
    },
    {
      "inputs": [
        {
          "internalType": "uint256",
          "name": "_LUSDamount",
          "type": "uint256"
        },
        {
          "internalType": "uint256",
          "name": "_price",
          "type": "uint256"
        },
        {
          "internalType": "uint256",
          "name": "_maxIterations",
          "type": "uint256"
        }
      ],
      "name": "getRedemptionHints",
      "outputs": [
        {
          "internalType": "address",
          "name": "firstRedemptionHint",
          "type": "address"
        },
        {
          "internalType": "uint256",
          "name": "partialRedemptionHintNICR",
          "type": "uint256"
        },
        {
          "internalType": "uint256",
          "name": "truncatedLUSDamount",
          "type": "uint256"
        }
      ],
      "stateMutability": "view",
      "type": "function"
    },
    {
      "inputs": [],
      "name": "isOwner",
      "outputs": [
        {
          "internalType": "bool",
          "name": "",
          "type": "bool"
        }
      ],
      "stateMutability": "view",
      "type": "function"
    },
    {
      "inputs": [],
      "name": "owner",
      "outputs": [
        {
          "internalType": "address",
          "name": "",
          "type": "address"
        }
      ],
      "stateMutability": "view",
      "type": "function"
    },
    {
      "inputs": [],
      "name": "priceFeed",
      "outputs": [
        {
          "internalType": "contract IPriceFeed",
          "name": "",
          "type": "address"
        }
      ],
      "stateMutability": "view",
      "type": "function"
    },
    {
      "inputs": [
        {
          "internalType": "address",
          "name": "_sortedTrovesAddress",
          "type": "address"
        },
        {
          "internalType": "address",
          "name": "_troveManagerAddress",
          "type": "address"
        }
      ],
      "name": "setAddresses",
      "outputs": [],
      "stateMutability": "nonpayable",
      "type": "function"
    },
    {
      "inputs": [],
      "name": "sortedTroves",
      "outputs": [
        {
          "internalType": "contract ISortedTroves",
          "name": "",
          "type": "address"
        }
      ],
      "stateMutability": "view",
      "type": "function"
    },
    {
      "inputs": [],
      "name": "troveManager",
      "outputs": [
        {
          "internalType": "contract ITroveManager",
          "name": "",
          "type": "address"
        }
      ],
      "stateMutability": "view",
      "type": "function"
    }
  ],
  "bytecode": "0x608060405234801561001057600080fd5b5033600360006101000a81548173ffffffffffffffffffffffffffffffffffffffff021916908373ffffffffffffffffffffffffffffffffffffffff1602179055503373ffffffffffffffffffffffffffffffffffffffff16600073ffffffffffffffffffffffffffffffffffffffff167f8be0079c531659141344cd1fd0a4f28419497f9722a3daafe3b4186f6b6457e060405160405180910390a3613f9d806100bc6000396000f3fe608060405234801561001057600080fd5b50600436106101795760003560e01c8063794e5724116100d957806390107afe1161008757806390107afe14610602578063940a71bc14610666578063a20baee614610694578063a3f4df7e146106b2578063ae91875414610735578063c394a7fa1461077f578063f92d3433146107cb57610179565b8063794e572414610462578063795d26c3146104805780637b41bdbe1461049e5780637f7dde4a1461052e578063887105d3146105785780638da5cb5b146105965780638f32d59b146105e057610179565b8063400c1bec11610136578063400c1bec1461030c5780634870dd9a1461033a578063525acdbb146103585780635733d58f146103ae5780635fbedbc4146103cc57806372fe25aa146103fa578063741bef1a1461041857610179565b806313144dba1461017e5780631bf435551461020e5780632e86bbd81461022c57806334c6e4921461024a5780633cc74225146102785780633d83908a146102c2575b600080fd5b6101be6004803603606081101561019457600080fd5b810190808035906020019092919080359060200190929190803590602001909291905050506107e9565b604051808473ffffffffffffffffffffffffffffffffffffffff1673ffffffffffffffffffffffffffffffffffffffff168152602001838152602001828152602001935050505060405180910390f35b61021661196f565b6040518082815260200191505060405180910390f35b61023461197c565b6040518082815260200191505060405180910390f35b6102766004803603602081101561026057600080fd5b8101908080359060200190929190505050611989565b005b61028061198c565b604051808273ffffffffffffffffffffffffffffffffffffffff1673ffffffffffffffffffffffffffffffffffffffff16815260200191505060405180910390f35b6102ca6119b2565b604051808273ffffffffffffffffffffffffffffffffffffffff1673ffffffffffffffffffffffffffffffffffffffff16815260200191505060405180910390f35b6103386004803603602081101561032257600080fd5b81019080803590602001909291905050506119d8565b005b6103426119db565b6040518082815260200191505060405180910390f35b6103986004803603606081101561036e57600080fd5b810190808035906020019092919080359060200190929190803590602001909291905050506119e0565b6040518082815260200191505060405180910390f35b6103b6611a7a565b6040518082815260200191505060405180910390f35b6103f8600480360360208110156103e257600080fd5b8101908080359060200190929190505050611a86565b005b610402611a89565b6040518082815260200191505060405180910390f35b610420611a95565b604051808273ffffffffffffffffffffffffffffffffffffffff1673ffffffffffffffffffffffffffffffffffffffff16815260200191505060405180910390f35b61046a611abb565b6040518082815260200191505060405180910390f35b610488611ac7565b6040518082815260200191505060405180910390f35b6104de600480360360608110156104b457600080fd5b81019080803590602001909291908035906020019092919080359060200190929190505050611d64565b604051808473ffffffffffffffffffffffffffffffffffffffff1673ffffffffffffffffffffffffffffffffffffffff168152602001838152602001828152602001935050505060405180910390f35b61053661285c565b604051808273ffffffffffffffffffffffffffffffffffffffff1673ffffffffffffffffffffffffffffffffffffffff16815260200191505060405180910390f35b610580612881565b6040518082815260200191505060405180910390f35b61059e612b1e565b604051808273ffffffffffffffffffffffffffffffffffffffff1673ffffffffffffffffffffffffffffffffffffffff16815260200191505060405180910390f35b6105e8612b48565b604051808215151515815260200191505060405180910390f35b6106646004803603604081101561061857600080fd5b81019080803573ffffffffffffffffffffffffffffffffffffffff169060200190929190803573ffffffffffffffffffffffffffffffffffffffff169060200190929190505050612ba0565b005b6106926004803603602081101561067c57600080fd5b8101908080359060200190929190505050613014565b005b61069c613017565b6040518082815260200191505060405180910390f35b6106ba613023565b6040518080602001828103825283818151815260200191508051906020019080838360005b838110156106fa5780820151818401526020810190506106df565b50505050905090810190601f1680156107275780820380516001836020036101000a031916815260200191505b509250505060405180910390f35b61073d61305c565b604051808273ffffffffffffffffffffffffffffffffffffffff1673ffffffffffffffffffffffffffffffffffffffff16815260200191505060405180910390f35b6107b56004803603604081101561079557600080fd5b810190808035906020019092919080359060200190929190505050613082565b6040518082815260200191505060405180910390f35b6107d361311a565b6040518082815260200191505060405180910390f35b600080600061081a7f270329eae994167806ad497a48d2873d108e9090cc096531d97b21ddeba56ad760001b611a86565b6108467fceffc16df5339f7c3f0721e93867d6ed8e9b6df3ebdba9621549e52ab6f676fa60001b611a86565b6108727fb1caf64625ceda03455a0314bbb5018789322b12aabcc7309c7feec7b6899d0d60001b611a86565b6000600460009054906101000a900473ffffffffffffffffffffffffffffffffffffffff1690506108c57f3bf0d796a488708e58e3a4e6f7f1600d8c39318af130599112fc91e8dd4e298d60001b611a86565b6108f17fcbe2966f8e4a2cf06c5cca067ddcde84b79353019e79de3762d3f6c3794a5e2c60001b611a86565b60008790506109227f6985bef45062c637f2fe789e8782072f4f7fc33a85be158fe28ef318b11d0aba60001b611a86565b61094e7f5563205f39d9493d21d3275f194be7e1a6ae3bb79bf8c870ee742db65d2639d960001b611a86565b60008273ffffffffffffffffffffffffffffffffffffffff16634d6228316040518163ffffffff1660e01b815260040160206040518083038186803b15801561099657600080fd5b505afa1580156109aa573d6000803e3d6000fd5b505050506040513d60208110156109c057600080fd5b810190808051906020019092919050505090506109ff7f48b49ac216a3dbed597b26347f306d4ab69ae003978825fd72806d16b2256e6560001b611a86565b610a2b7fce4c0f813153733202f73a3bbb42b369e732bdd4b27985e7a2c659106750773960001b611a86565b5b600073ffffffffffffffffffffffffffffffffffffffff168173ffffffffffffffffffffffffffffffffffffffff1614158015610b515750670f43fc2c04ee0000600560009054906101000a900473ffffffffffffffffffffffffffffffffffffffff1673ffffffffffffffffffffffffffffffffffffffff1663d293c710838b6040518363ffffffff1660e01b8152600401808373ffffffffffffffffffffffffffffffffffffffff1673ffffffffffffffffffffffffffffffffffffffff1681526020018281526020019250505060206040518083038186803b158015610b1457600080fd5b505afa158015610b28573d6000803e3d6000fd5b505050506040513d6020811015610b3e57600080fd5b8101908080519060200190929190505050105b15610c6d57610b827f9b2f847745a863ba234e4fc2ebae43793aefbff9464884abf9e86d9910b7e9c260001b611a86565b610bae7f49833a849b9847e4cb7b49afa8f5db2ce3183082bbdd29605fe096d5c9e0b96260001b611a86565b8273ffffffffffffffffffffffffffffffffffffffff1663b72703ac826040518263ffffffff1660e01b8152600401808273ffffffffffffffffffffffffffffffffffffffff1673ffffffffffffffffffffffffffffffffffffffff16815260200191505060206040518083038186803b158015610c2b57600080fd5b505afa158015610c3f573d6000803e3d6000fd5b505050506040513d6020811015610c5557600080fd5b81019080805190602001909291905050509050610a2c565b610c997f469e768c20f19f735c3abf61f5317af8b9b1dff3a6f4686f917a50cd1fe3a0b060001b611a86565b610cc57f06bd4557949a7f182d300d90131a762a841381823cfdb0bb1f952bc3bdf1b6ca60001b611a86565b809550610cf47f7a7cb285f6ae9f41056a5301a880b70391affa2d20f7bdeeb712d2a366ee89d760001b611a86565b610d207f8c725342163abbc33bd7ff43c9375544a9e09a085fcd4c89c6b0d6098be1677460001b611a86565b6000871415610dd557610d557fef2bed7cf78b03ee7b7f3f4802a4921fcc3e442877ff0e9d6c87da41f47ca0de60001b611a86565b610d817f83cb5f86e7d745367ef330cf708cf9c78cf5f0d66de3215f62bea2f47c54e04160001b611a86565b610dad7fbc1cd4dd261c7c789e2e195414583e07f6b32d86493230721a5563ae153a053f60001b611a86565b7fffffffffffffffffffffffffffffffffffffffffffffffffffffffffffffffff9650610e02565b610e017f994528424145d6263780644a5dbaba3fb80534719ce1dec6dab8e80e524dc9ca60001b611a86565b5b610e2e7f6898564b66ef258b036c17611c0301d970db3fae0cd46914e1e0b1064c2bca7f60001b611a86565b610e5a7f4fef784e0c324041749ead31d5325ff27bfdc85390f21b6513b7dba08709cb7260001b611a86565b5b600073ffffffffffffffffffffffffffffffffffffffff168173ffffffffffffffffffffffffffffffffffffffff1614158015610e985750600082115b8015610eab575060008780600190039850115b156118f657610edc7f031b0de55906cd67517e271d52779f97ab4a4fb606858cd1d3ee66037d76930f60001b611a86565b610f087f076bcd8938bffb9de0b21cc8b8ce6a4f5a3c422331d7155f7f7704186cd33c3f60001b611a86565b60006110d7600560009054906101000a900473ffffffffffffffffffffffffffffffffffffffff1673ffffffffffffffffffffffffffffffffffffffff1663f34862de846040518263ffffffff1660e01b8152600401808273ffffffffffffffffffffffffffffffffffffffff1673ffffffffffffffffffffffffffffffffffffffff16815260200191505060206040518083038186803b158015610fac57600080fd5b505afa158015610fc0573d6000803e3d6000fd5b505050506040513d6020811015610fd657600080fd5b81019080805190602001909291905050506110c9600560009054906101000a900473ffffffffffffffffffffffffffffffffffffffff1673ffffffffffffffffffffffffffffffffffffffff1663d66a2553866040518263ffffffff1660e01b8152600401808273ffffffffffffffffffffffffffffffffffffffff1673ffffffffffffffffffffffffffffffffffffffff16815260200191505060206040518083038186803b15801561108957600080fd5b505afa15801561109d573d6000803e3d6000fd5b505050506040513d60208110156110b357600080fd5b8101908080519060200190929190505050613134565b6131dd90919063ffffffff16565b90506111057f6fa7a7a44d51cda7d4ac4a749ae16e8d3e4af8c1d936c8666e1c52a9977b0cd560001b611a86565b6111317f7e1ab762c25a82401245d90881ce0328dd0690223d080417213abc7f2bcf4afe60001b611a86565b82811115611745576111657fed0936a0cab7164c65cdaea01cf2bd8a39d476460ab44059ddf58d5efc8ec17d60001b611a86565b6111917f6a54054c21c415f73c7085b399ce7d5701f19f49b50ec62542427dc3b2bbf60060001b611a86565b6111bd7ffd859fa4f49b55ad64cd7345d05e41869e48f35b637d8c8838d9c77dea8f078060001b611a86565b686194049f30f72000008111156116e6576111fa7fc69394ffaefab7bd489e8b62cf1b8fb8500aa4a3a7a0a36e357f0ddb541d000160001b611a86565b6112267fb675ebd0e8dfd8007ecc1fda666967fa1b1a4a13a77dd13054a45a43e3f9a74060001b611a86565b6112527fbef84b751bee0608c5a91506a54f4f776d656d715d9315cfa3feb318c363eb3c60001b611a86565b600061127984611274686194049f30f72000008561326590919063ffffffff16565b6132af565b90506112a77ff92d34155c8961a4b3a682bf4257b70943e2db764f2c1f334976a9ae50e6985f60001b611a86565b6112d37f51ad19734d259ad28b6ecab9c3dfaa19be487ad49f8f8b1aacb0e7bc227ae93c60001b611a86565b600061149a600560009054906101000a900473ffffffffffffffffffffffffffffffffffffffff1673ffffffffffffffffffffffffffffffffffffffff16635d8c9609866040518263ffffffff1660e01b8152600401808273ffffffffffffffffffffffffffffffffffffffff1673ffffffffffffffffffffffffffffffffffffffff16815260200191505060206040518083038186803b15801561137757600080fd5b505afa15801561138b573d6000803e3d6000fd5b505050506040513d60208110156113a157600080fd5b8101908080519060200190929190505050600560009054906101000a900473ffffffffffffffffffffffffffffffffffffffff1673ffffffffffffffffffffffffffffffffffffffff1663480cd578876040518263ffffffff1660e01b8152600401808273ffffffffffffffffffffffffffffffffffffffff1673ffffffffffffffffffffffffffffffffffffffff16815260200191505060206040518083038186803b15801561145157600080fd5b505afa158015611465573d6000803e3d6000fd5b505050506040513d602081101561147b57600080fd5b81019080805190602001909291905050506131dd90919063ffffffff16565b90506114c87ff40ab612761b2e4c8fe14fedf311a9d927358b149f75cc0459cc23479c8412de60001b611a86565b6114f47f6921f6b6e6d8647ef563b6672c2b642f401a4ed02834f3674f37ea2ddc7788f360001b611a86565b60006115356115268d611518670de0b6b3a76400008761334c90919063ffffffff16565b6133d290919063ffffffff16565b8361326590919063ffffffff16565b90506115637f9fb8cfa0e0956b14ac2d778e651a9d59790be239a118f1b5e8b05a4bfc19d34560001b611a86565b61158f7fc9cc1ef30a5c56510e14a13c872f18a1d090a01aaca5afb16e2f7f110e78664460001b611a86565b60006115a4848661326590919063ffffffff16565b90506115d27fbb43ccabc871355652c46063fee4ec48e59c69ce1c90fa15ddf7cd35e108337f60001b611a86565b6115fe7ff82864b024990c49540d9ab2392909777095f0d9fa9bf0b1a561c6e8c496a85860001b611a86565b60006116098261341c565b90506116377f99974f5737b4cd001106b33924fa118984f86ae53235305d57a3e5bcf60f70bb60001b611a86565b6116637ff7b8007b1087a3a3c8333e039bc48f6efce3704ec986272d0a9dbebf0dc04d9560001b611a86565b61166d83826134c5565b9a5061169b7fed52b9be6dc1120d607071874e15809f165de76751b6472bdee188c323d92e7660001b611a86565b6116c77f3d966f5d2ece5555ae69888c60c2c0defe44984655705e820ff1f0ad83207e0d60001b611a86565b6116da858961326590919063ffffffff16565b97505050505050611713565b6117127f37dd471afb0f0123da007c5f8bf47ae26be516661837b312974abf8248c1cc4a60001b611a86565b5b61173f7f762808d4d6f17b6055dcaf44f9e0eb838a67255797072d499293350e6241c40f60001b611a86565b506118f6565b6117717f78d2ee7d6ff43bbdabbc3e77a1fdd890ca2178b27d00f44d52c250d5179b685760001b611a86565b61179d7f90595d3c24c0c073ab78e850214730fcec0adb3739cae040f01539508ee251b960001b611a86565b6117c97f14a574bda8429ccad14b168d1b0a83f4af8659a52e9971e337108c06a3555a3460001b611a86565b6117dc818461326590919063ffffffff16565b925061180a7fb935dc09e13d5cef0b39f777dfe9c53ebfd87d88a77d83a27dee906f7d2c3b0060001b611a86565b6118367faf01e2127cb376fc41deac33e232e85bea602630abd72067f1c1d88a8cc042b360001b611a86565b8373ffffffffffffffffffffffffffffffffffffffff1663b72703ac836040518263ffffffff1660e01b8152600401808273ffffffffffffffffffffffffffffffffffffffff1673ffffffffffffffffffffffffffffffffffffffff16815260200191505060206040518083038186803b1580156118b357600080fd5b505afa1580156118c7573d6000803e3d6000fd5b505050506040513d60208110156118dd57600080fd5b8101908080519060200190929190505050915050610e5b565b6119227ff15f87f8da411fdf48d63d4da2ae7ac2c011cf81c3de6c0b4de774ca9531203a60001b611a86565b61194e7f6d213592ccc46ac972bcf2783b221670b0984e7e217353f57723f2f3576475e860001b611a86565b611961828a61326590919063ffffffff16565b935050505093509350939050565b686194049f30f720000081565b680ad78ebc5ac620000081565b50565b600160009054906101000a900473ffffffffffffffffffffffffffffffffffffffff1681565b600560009054906101000a900473ffffffffffffffffffffffffffffffffffffffff1681565b50565b60c881565b6000611a0e7f73b30db8e80758f79135f109ce5b3ce81c3d05bab19e894356a2f593cde6aefa60001b611a86565b611a3a7f419e3c64060a00113ed04ea5221153c8f3e83f023d9a4c27453898b10ae6849360001b611a86565b611a667ff2a3d14f4460099dec05114e841ad277371c6c7cf88a5fb19239e577d9dde8c060001b611a86565b611a718484846136bb565b90509392505050565b6714d1120d7b16000081565b50565b670de0b6b3a764000081565b600260009054906101000a900473ffffffffffffffffffffffffffffffffffffffff1681565b670f43fc2c04ee000081565b6000611af57fffed618358291ba6891e1754cb73cb764c0581799afe3edc4c8d5e33b5d69dec60001b611989565b611b217ff0efb67b0790e4a16906291f0f5b33c4b9e350c5c12e5dc419b35b3e2a7643fd60001b611989565b611b4d7fe39126d6b608bc17f868ee02cec3987f5c9f0eb5a2861fa1ee436805d724101360001b611989565b60008060009054906101000a900473ffffffffffffffffffffffffffffffffffffffff1673ffffffffffffffffffffffffffffffffffffffff16635eb52fca6040518163ffffffff1660e01b815260040160206040518083038186803b158015611bb657600080fd5b505afa158015611bca573d6000803e3d6000fd5b505050506040513d6020811015611be057600080fd5b81019080805190602001909291905050509050611c1f7fd5c5e3697c84f44fc96c4b00a5092a8a17c44788644672edc404df8b4f33e79e60001b611989565b611c4b7fccbc594bc92408b9e1a354fa088e5742270d98347611534f0ec71b706cce5dbf60001b611989565b6000600160009054906101000a900473ffffffffffffffffffffffffffffffffffffffff1673ffffffffffffffffffffffffffffffffffffffff16635eb52fca6040518163ffffffff1660e01b815260040160206040518083038186803b158015611cb557600080fd5b505afa158015611cc9573d6000803e3d6000fd5b505050506040513d6020811015611cdf57600080fd5b81019080805190602001909291905050509050611d1e7f2fcafe17cc1fa0b07af62f32ccc025484a46246a27b7f7fda3a9022f884c2ca660001b611989565b611d4a7fbfd7ce3f2a0b31b728bd9f37aef94976a0d07e75cf5275f67bafe240332777d760001b611989565b611d5d81836131dd90919063ffffffff16565b9250505090565b6000806000611d957f5acb0845e837cdeb8bbed0ef863c536a28448d8b2486aa39e0c36318cb81de6a60001b611a86565b611dc17ffacc6c9c0669970ddb86ec67e813bebde03f23ae08827fe919df736cc35a745c60001b611a86565b611ded7f06d73770eee35d4f2f95e18aedd480054d3ec524e70a59aaad5d9e345aed9ba560001b611a86565b6000600560009054906101000a900473ffffffffffffffffffffffffffffffffffffffff1673ffffffffffffffffffffffffffffffffffffffff166349eefeee6040518163ffffffff1660e01b815260040160206040518083038186803b158015611e5757600080fd5b505afa158015611e6b573d6000803e3d6000fd5b505050506040513d6020811015611e8157600080fd5b81019080805190602001909291905050509050611ec07f38e800fc6ce496ca2fc05ed1c1b7cb14e714adf0c9e7af29d2da0e9487583f3360001b611a86565b611eec7f7908c7fc46132ff648da6bde38b27a65d72fd4b2e4c68607b36e2ec61bf855b060001b611a86565b6000811415611f8f57611f217f22deaafdbe7de01f6ce58a47534a018a5f41fe8db9197733bfbf622cce64c62560001b611a86565b611f4d7f9b3058023b89548c7cc2cb16e064fc68f797348de7e4fe13b7f55e81220636a160001b611a86565b611f797f5830c13c922264b573a67a468f49cceaa93189d0e8190a3149aa0f6e686c6b1a60001b611a86565b6000808682925081915093509350935050612853565b611fbb7f77383d21617470785b42774fbe380d622a31981d8decd675dc4299a4a93d8d0160001b611a86565b611fe77f038013a9167fea70f99dfba591eb54ca89b8216457d4d1d451ded69e365b857160001b611a86565b6120137f52e4172140ed37fc80b2caca81b2572246a616c3adb45a9f1cffe1451b5582cc60001b611a86565b600460009054906101000a900473ffffffffffffffffffffffffffffffffffffffff1673ffffffffffffffffffffffffffffffffffffffff16634d6228316040518163ffffffff1660e01b815260040160206040518083038186803b15801561207b57600080fd5b505afa15801561208f573d6000803e3d6000fd5b505050506040513d60208110156120a557600080fd5b810190808051906020019092919050505093506120e47f3b6024b5cb62314524e69a754eb38ad7382d36c06572eb71c46efa32b913d51560001b611a86565b6121107fd136a8099955cfec0511daee98fce4c5743782bdb1e38eefdb939822616d755f60001b611a86565b6121f387600560009054906101000a900473ffffffffffffffffffffffffffffffffffffffff1673ffffffffffffffffffffffffffffffffffffffff1663b0d8e181876040518263ffffffff1660e01b8152600401808273ffffffffffffffffffffffffffffffffffffffff1673ffffffffffffffffffffffffffffffffffffffff16815260200191505060206040518083038186803b1580156121b357600080fd5b505afa1580156121c7573d6000803e3d6000fd5b505050506040513d60208110156121dd57600080fd5b8101908080519060200190929190505050613907565b92506122217f2e9a9c6828256e70ba03a86af3801ce874302c62dd582404d67821d69c7cdfc660001b611a86565b61224d7f179635899694ec0712429124a6826cb6e7279a6246c349047e75f0718db098ab60001b611a86565b84915061227c7f100661e7f4a9e986a464cdd506e70df31cd8dd8018b95c0865fe7f4ef59dd6e460001b611a86565b6122a87fe78032c30aa61537150b67e83954d88a9099f20c253c06329d536b8ba3f3642360001b611a86565b6000600190506122da7ff6ca21d08966e770c0b41ea641cff20bccc824883711ddc4ab0ae6bdbe805ef560001b611a86565b6123067f33f18f17826fdc5e2e25eca73e761a40d8e542e5a98fd77f90d2a40face7448860001b611a86565b5b868110156128505761233b7fddd0392e57c8cbbad469f9054aa0f238df16c8a7fc6dbbe66349c12d70b2c38c60001b611a86565b6123677f66a7f48fd9065b9a010fe569a036a7b438af4f3ec8db4a693876d679161a29ea60001b611a86565b82604051602001808281526020019150506040516020818303038152906040528051906020012060001c92506123bf7f2636f47fc6742a54b22edcdf12051059bccc52fe6ead15f3d988b4c8080a48f960001b611a86565b6123eb7f4432617ba60a56a273ebabc55ea35721450aae7396fa5848d3b022a1591fe41d60001b611a86565b60008284816123f657fe5b0690506124257f0ed278e01a084cf10e9e6153c021f798612617da17c641d25a25a4672f35293660001b611a86565b6124517f05e54aa424dea2707ed773c74d374c876652986e65c0a01ea6613cd5a4e93c4960001b611a86565b6000600560009054906101000a900473ffffffffffffffffffffffffffffffffffffffff1673ffffffffffffffffffffffffffffffffffffffff1663d9a72444836040518263ffffffff1660e01b81526004018082815260200191505060206040518083038186803b1580156124c657600080fd5b505afa1580156124da573d6000803e3d6000fd5b505050506040513d60208110156124f057600080fd5b8101908080519060200190929190505050905061252f7fddcedd60a9890b99994379e09f197ab0b3d47f37a6454a5fdf076d7381f1c6b660001b611a86565b61255b7fad07f4041bea450fa4468173861de825a708b46035aac8e97d8d71202a338f9960001b611a86565b6000600560009054906101000a900473ffffffffffffffffffffffffffffffffffffffff1673ffffffffffffffffffffffffffffffffffffffff1663b0d8e181836040518263ffffffff1660e01b8152600401808273ffffffffffffffffffffffffffffffffffffffff1673ffffffffffffffffffffffffffffffffffffffff16815260200191505060206040518083038186803b1580156125fc57600080fd5b505afa158015612610573d6000803e3d6000fd5b505050506040513d602081101561262657600080fd5b810190808051906020019092919050505090506126657f9bb587d6f341ba4ffb52f699cff08934b628570bcab8c7501a1c7fbded1f9fdc60001b611a86565b6126917fd23a914b4f5990f8919a4a6d5700a2ae66c9df5b3b5481b23c1fe911d589246560001b611a86565b600061269d828d613907565b90506126cb7fd9d0a3c45668fc4569519fbdd8a20a650cb2f2cb953fe1deb5ace8f2dadfadc460001b611a86565b6126f77fc65b31e6ce70d9d8d9706c5129488efa9a83f7afe8fcf472c07e65db4db4ae6760001b611a86565b878110156127e65761272b7fd6405487fb376be49b42014e0eb4f4a6e3775a113bfad3145346be5f7955bce860001b611a86565b6127577f7601d4ccf24ea048f3e251f5e22f32f47c59ad72f1093262514a148b2efeaade60001b611a86565b6127837fd84cc879d22d789392ef780bcff2665ed03e9a682edc315b82e7531d450b36c060001b611a86565b8097506127b27fc8a4b97ea14cf67ffdeb5fa20b583b8659153647392a5d5fe181e141d158ea4960001b611a86565b6127de7f701f85bfff710fa50bbb22402401e96761452420bfe46f2016b9f35c9a39f11860001b611a86565b829850612813565b6128127fe1cea267a6bb3aa5a4831540816fefcb414126d4ba59c9913d18caad603715b860001b611a86565b5b61283f7fa47881fba9598bfbd3adeab57e39aa9c475aa695d06606388612946fa8fdff9f60001b611a86565b848060010195505050505050612307565b50505b93509350939050565b6000809054906101000a900473ffffffffffffffffffffffffffffffffffffffff1681565b60006128af7fb66d50006e73330003d2aebca2677ba754a744532fcb120e1bf38e30d4354e9660001b611989565b6128db7f7a243f0c01ac2eddb6f889adb5b25d20b6c77d0a71089b4e4a05e6f5dd04449c60001b611989565b6129077fd9be4bb93a2c9d4022ac92258e5938de98f2fa4913238b33509b201c9962a88160001b611989565b60008060009054906101000a900473ffffffffffffffffffffffffffffffffffffffff1673ffffffffffffffffffffffffffffffffffffffff166314f6c3be6040518163ffffffff1660e01b815260040160206040518083038186803b15801561297057600080fd5b505afa158015612984573d6000803e3d6000fd5b505050506040513d602081101561299a57600080fd5b810190808051906020019092919050505090506129d97f26cd0bc42cbc160aba08644d1ec6607da3df5acdbbe9f5cb1f876046b51125a860001b611989565b612a057f07394f73b57effa5c0d06a28a34d8caf7f9c8e6f1ecd533143cd3adbc06c207560001b611989565b6000600160009054906101000a900473ffffffffffffffffffffffffffffffffffffffff1673ffffffffffffffffffffffffffffffffffffffff166314f6c3be6040518163ffffffff1660e01b815260040160206040518083038186803b158015612a6f57600080fd5b505afa158015612a83573d6000803e3d6000fd5b505050506040513d6020811015612a9957600080fd5b81019080805190602001909291905050509050612ad87f46fe5e72681624df8f86211f619d0ca55960a48139a032d491c65f9e9ead8e4560001b611989565b612b047ff21ef2b4f180cbc00adb9efe704164ccc70207bf69042044214909b91d55604960001b611989565b612b1781836131dd90919063ffffffff16565b9250505090565b6000600360009054906101000a900473ffffffffffffffffffffffffffffffffffffffff16905090565b6000600360009054906101000a900473ffffffffffffffffffffffffffffffffffffffff1673ffffffffffffffffffffffffffffffffffffffff163373ffffffffffffffffffffffffffffffffffffffff1614905090565b612ba8612b48565b612c1a576040517f08c379a00000000000000000000000000000000000000000000000000000000081526004018080602001828103825260208152602001807f4f776e61626c653a2063616c6c6572206973206e6f7420746865206f776e657281525060200191505060405180910390fd5b612c467f6e1cd3e164075fa98984c271172f353f843066fc0849d4c13c9ffe68f371fc0a60001b611a86565b612c727f44e5df2aaae110e702f490b71145b05eb9963c8232d3791c7ce5b5c9e4aa0c3560001b611a86565b612c9e7f18765d656bbb94efc41c644d73205a16fc7df80fb7f5524d9cd587b9612f650960001b611a86565b612ca7826139c9565b612cd37fe81d738acb3d824e851577bf23cbf0d697c767804807b1dfdd0eeaca5a18e0d960001b611a86565b612cff7fb1393a93bee4ff4b132459d708557c9b12259a2743c6fa945a85a015e241303960001b611a86565b612d08816139c9565b612d347f81127e60599805c49403d0f9ba059abe25d7dc07bd5850acf005514fe6694d5f60001b611a86565b612d607f146ba53bccb6cb3d48ca055591e5567848aa213ac252a6a37507f1927903e07d60001b611a86565b81600460006101000a81548173ffffffffffffffffffffffffffffffffffffffff021916908373ffffffffffffffffffffffffffffffffffffffff160217905550612dcd7f6e3760610e8b67562f2ed9222d5b053e9daed0b0290aaae1496bcf58bbca2aa860001b611a86565b612df97f558b220889150a7fbf2be1edc0c9fcfe46894299d3b895841d63f677fc7f15f860001b611a86565b80600560006101000a81548173ffffffffffffffffffffffffffffffffffffffff021916908373ffffffffffffffffffffffffffffffffffffffff160217905550612e667fe89f794f0be05d03fe537664d3ff9bbb47bb60de5bd8808bdb99e6785e09c57f60001b611a86565b612e927f551d5c93b3f238464a9e6abec7851bc7fbbcf285e46f9f749ca740c9e3137acc60001b611a86565b7f65f4cf077bc01e4742eb5ad98326f6e95b63548ea24b17f8d5e823111fe7880082604051808273ffffffffffffffffffffffffffffffffffffffff1673ffffffffffffffffffffffffffffffffffffffff16815260200191505060405180910390a1612f217f7bb9bbe5eed9df99b053002939c3d4e0d4b2c9ca8fec091a4f31523e9230e76460001b611a86565b612f4d7fc841a9e08e88eb04cd5866d042289fb369762e03e61ee899ec7be62b14847fbe60001b611a86565b7f143219c9e69b09e07e095fcc889b43d8f46ca892bba65f08dc3a0050869a567881604051808273ffffffffffffffffffffffffffffffffffffffff1673ffffffffffffffffffffffffffffffffffffffff16815260200191505060405180910390a1612fdc7f85659a6dedf498db6d40e5c5213d0d4accfc6b5740974e54a5ed5ae8ae54a7e260001b611a86565b6130087fef5b6cd2b34a511a0a39b55e60aff91e8be8246eb4e6a5d07b27fc835c97417560001b611a86565b613010613cfc565b5050565b50565b670de0b6b3a764000081565b6040518060400160405280600b81526020017f48696e7448656c7065727300000000000000000000000000000000000000000081525081565b600460009054906101000a900473ffffffffffffffffffffffffffffffffffffffff1681565b60006130b07f49d19be5048b81b87f7db1a9085b746cdaf07cdcd4db37cf7f52ca4533b2a65260001b611a86565b6130dc7f4f96740c258b57e47328484ca2bdcd4affdc230ca955512431f0e354b320e7e160001b611a86565b6131087fbf9c3b8583ccc78302f3f20588cfa4f36512eb40af3c3fdd643c31531120f33360001b611a86565b61311283836134c5565b905092915050565b60056103e8670de0b6b3a76400008161312f57fe5b040281565b60006131627f3e568fe0ad286efb617006d19626626d2eec01f6bdd2e75b8388e7be93aea3f460001b611989565b61318e7f3d9a5b4b82198ad335cb056e3078c9e06b8c980cffc38d75d124a7278ab71dcf60001b611989565b6131ba7f940bd9b127c8c05af8092736c8b08975356edcae0cff123c773b945ff5ffbe6760001b611989565b6131d6680ad78ebc5ac62000008361326590919063ffffffff16565b9050919050565b60008082840190508381101561325b576040517f08c379a000000000000000000000000000000000000000000000000000000000815260040180806020018281038252601b8152602001807f536166654d6174683a206164646974696f6e206f766572666c6f77000000000081525060200191505060405180910390fd5b8091505092915050565b60006132a783836040518060400160405280601e81526020017f536166654d6174683a207375627472616374696f6e206f766572666c6f770000815250613dbd565b905092915050565b60006132dd7f47d1f47bc050b9504bdb99b9bb5b4ef650bd54eba129f8f462ba53eeb800e1aa60001b613e7d565b6133097f8bd1b7c6f317176e126becf0775e874110a4f4c3632da3308f1b96d29114d76f60001b613e7d565b6133357f306334dc7786218d10d6d1fbfce931f8906c3249c067df2bd86b69566eb3362460001b613e7d565b8183106133425781613344565b825b905092915050565b60008083141561335f57600090506133cc565b600082840290508284828161337057fe5b04146133c7576040517f08c379a0000000000000000000000000000000000000000000000000000000008152600401808060200182810382526021815260200180613f476021913960400191505060405180910390fd5b809150505b92915050565b600061341483836040518060400160405280601a81526020017f536166654d6174683a206469766973696f6e206279207a65726f000000000000815250613e80565b905092915050565b600061344a7f0480216eb9109bd61472e74a565bd6384ca7f2846f74b4851542b9ba4bc0319d60001b611989565b6134767ff151d55d4ef750a2c007165862a29b3e311a4ea0cb052d7c4fe57249906891f660001b611989565b6134a27ff7b41b1a3b71c39683c5a5178140cf306f59a90ff780a78d62b16cb4bc68affb60001b611989565b6134be680ad78ebc5ac6200000836131dd90919063ffffffff16565b9050919050565b60006134f37f0a957dc6e50b79f4198337292f975c97f1e46d2fd879495bd9d3e8b465c5908260001b613e7d565b61351f7f36b6df758e5d32c7a54e70939249466cd685f55a6000a796488d904e950ff55160001b613e7d565b61354b7fdae53b9988856ecade943ff600d8410ffe098b0e9b0d2a20e0d4e6d629dadd0560001b613e7d565b600082111561360d576135807f97ba562ff5a52d5e376440b75dfde7cde5ac945e09a50385ed302c8fa4c93a3560001b613e7d565b6135ac7fea72f26e58a660e89daf76a6338c4ea7c326b03c642e05985fecf7e1344071e260001b613e7d565b6135d87fc566fce390725f3d5e0bf4a75af0125a0be036fa403638b30478399b1c0c30c160001b613e7d565b613606826135f868056bc75e2d631000008661334c90919063ffffffff16565b6133d290919063ffffffff16565b90506136b5565b6136397ff93684451e504ecaf8543b25ab42519bfa810eec4ba3d920d4653a1c16b0e8cc60001b613e7d565b6136657fffa4d87f788e1c9f8814f84d7b1775d9b36b21962786a14d2a1ebae57a7a352160001b613e7d565b6136917fb15b56e0dec2133675b26fd4423bbd9ae3370ed1bdb703025845a76469b40a5360001b613e7d565b7fffffffffffffffffffffffffffffffffffffffffffffffffffffffffffffffff90505b92915050565b60006136e97f1fb1c924071e50c2aa9d7f09291fd7831d6481aed3d64d9a31927fcfdf29670460001b613e7d565b6137157fe7b149e83ffc59b38b39430566aa51ffe74fa9a62f9938fe60d6498035c2084060001b613e7d565b6137417faee8586873401c81b69ef021f1b4b5e621ddc8264ed2170bf01f4cd794b65e9560001b613e7d565b6000831115613858576137767f938b7a907927def325175a9b9763324c21d376a1db58b873fc572191995adeee60001b613e7d565b6137a27ff3fb017b46a6cc03056717fe487f10efbc4957bbee55feae53211d955232e77d60001b613e7d565b6137ce7f9cce84226470f7604a220b104bc94d4e1416b0a5f92e345811d5a6128b8d335060001b613e7d565b60006137f5846137e7858861334c90919063ffffffff16565b6133d290919063ffffffff16565b90506138237f29c960a6fa3b8822049ee000006565af8f6225894520628c65eb2fc49a99191e60001b613e7d565b61384f7fb7ae7f080fe4eb0c3f53fc10df2345210d66b1892b1a75445349a70febf2803460001b613e7d565b80915050613900565b6138847f8def5a1860b799231f1daace23252caf496d44221af1a5212660498a692981dc60001b613e7d565b6138b07f7a561ef4150ea5b53610168f34b9d8e9711bf468f453fff46192e6af13353e8f60001b613e7d565b6138dc7f57732a23ba8b96e60679d6ddbcc37e1db663eb60ba05c84a212a4c73f10e9b8760001b613e7d565b7fffffffffffffffffffffffffffffffffffffffffffffffffffffffffffffffff90505b9392505050565b60006139357ffb3d43a0f8a9e17b457a3e5445b678c989e7312612fccf99129e88f50ea33d8460001b613e7d565b6139617f1afbd04c4560a1a16c995859554b520427a116923983e9b8812d447515eb334a60001b613e7d565b61398d7f74d939e41dadf03f55c441124e793a6325d188f0f45ba76e130bbd5d35cf6cb260001b613e7d565b818310156139ad576139a8838361326590919063ffffffff16565b6139c1565b6139c0828461326590919063ffffffff16565b5b905092915050565b6139f57f35bc9e5e61c1438a006153cf69ffd6105766a3055440d22f6c8ce219146d68af60001b613014565b613a217fe66c045f45b868efda896f2af22ed71637a4e9e8d13a2b1962badf362ba3eeb960001b613014565b613a4d7faaa4b517f253b4fa37cb2875514a22e04e7d5828c244c7095a27e85408ccd12c60001b613014565b613a797f1221da0bd0f16fcbee175d4dae7d6b598e327e79264e77ced4c93a6a0721871b60001b613014565b600073ffffffffffffffffffffffffffffffffffffffff168173ffffffffffffffffffffffffffffffffffffffff161415613b1c576040517f08c379a000000000000000000000000000000000000000000000000000000000815260040180806020018281038252601e8152602001807f4163636f756e742063616e6e6f74206265207a65726f2061646472657373000081525060200191505060405180910390fd5b613b487f09f0dc62d572b9e8dd242a1b7e25c3c5de1610d6c480bec35912dd5840f55fec60001b613014565b613b747fbe74447fdea037b64141768df2430eb2b7113bef949c88d88dcdc549ba88703360001b613014565b613ba07f04e66872d3f4c69728dfe545a06401e1b17e0f9dd5e1d43290514ae4fd92783060001b613014565b6000613bce7f60826eea4af75abd2223d108cb037485a60c485e699a12a42cac24982b89800660001b613014565b813b9050613bfe7f7acec79ba6fd0be7bb4b2bfca56ca8eb3d8333d64e828971ccb7647facc3806360001b613014565b613c2a7f0c7e0405db301404f844860b9fe6e14e956a97134ff8695c88184f1c957d6e0860001b613014565b613c567f1c5a94c5a5d640e17d84bedbf9409c7f8afe563c4b1fceef7bced5961764ee0f60001b613014565b60008111613ccc576040517f08c379a00000000000000000000000000000000000000000000000000000000081526004018080602001828103825260208152602001807f4163636f756e7420636f64652073697a652063616e6e6f74206265207a65726f81525060200191505060405180910390fd5b613cf87f1023f03b6261b194c29dee3596b0d25a3be14b60910a1d249d0177db54f54c4a60001b613014565b5050565b600073ffffffffffffffffffffffffffffffffffffffff16600360009054906101000a900473ffffffffffffffffffffffffffffffffffffffff1673ffffffffffffffffffffffffffffffffffffffff167f8be0079c531659141344cd1fd0a4f28419497f9722a3daafe3b4186f6b6457e060405160405180910390a36000600360006101000a81548173ffffffffffffffffffffffffffffffffffffffff021916908373ffffffffffffffffffffffffffffffffffffffff160217905550565b6000838311158290613e6a576040517f08c379a00000000000000000000000000000000000000000000000000000000081526004018080602001828103825283818151815260200191508051906020019080838360005b83811015613e2f578082015181840152602081019050613e14565b50505050905090810190601f168015613e5c5780820380516001836020036101000a031916815260200191505b509250505060405180910390fd5b5060008385039050809150509392505050565b50565b60008083118290613f2c576040517f08c379a00000000000000000000000000000000000000000000000000000000081526004018080602001828103825283818151815260200191508051906020019080838360005b83811015613ef1578082015181840152602081019050613ed6565b50505050905090810190601f168015613f1e5780820380516001836020036101000a031916815260200191505b509250505060405180910390fd5b506000838581613f3857fe5b04905080915050939250505056fe536166654d6174683a206d756c7469706c69636174696f6e206f766572666c6f77a26469706673582212207643aa3293a9adf5ad2f12bd8cb22849ccf0b13afbc7c52b31f3e62c3395e2bc64736f6c634300060b0033",
  "linkReferences": {},
  "deployedLinkReferences": {}
}