{
  "_format": "hh-sol-artifact-1",
  "contractName": "LiquityMathTester",
  "sourceName": "contracts/TestContracts/LiquityMathTester.sol",
  "abi": [
    {
      "inputs": [
        {
          "internalType": "uint256",
          "name": "_base",
          "type": "uint256"
        },
        {
          "internalType": "uint256",
          "name": "_n",
          "type": "uint256"
        }
      ],
      "name": "callDecPow",
      "outputs": [
        {
          "internalType": "uint256",
          "name": "",
          "type": "uint256"
        }
      ],
      "stateMutability": "pure",
      "type": "function"
    },
    {
      "inputs": [
        {
          "internalType": "uint256",
          "name": "_base",
          "type": "uint256"
        },
        {
          "internalType": "uint256",
          "name": "_n",
          "type": "uint256"
        }
      ],
      "name": "callDecPowTx",
      "outputs": [
        {
          "internalType": "uint256",
          "name": "",
          "type": "uint256"
        }
      ],
      "stateMutability": "nonpayable",
      "type": "function"
    },
    {
      "inputs": [
        {
          "internalType": "uint256",
          "name": "_a",
          "type": "uint256"
        },
        {
          "internalType": "uint256",
          "name": "_b",
          "type": "uint256"
        }
      ],
      "name": "callMax",
      "outputs": [
        {
          "internalType": "uint256",
          "name": "",
          "type": "uint256"
        }
      ],
      "stateMutability": "pure",
      "type": "function"
    }
  ],
  "bytecode": "0x608060405234801561001057600080fd5b50610db2806100206000396000f3fe608060405234801561001057600080fd5b50600436106100405760003560e01c8062fa72ff1461004557806336090b0114610091578063d4077252146100dd575b600080fd5b61007b6004803603604081101561005b57600080fd5b810190808035906020019092919080359060200190929190505050610129565b6040518082815260200191505060405180910390f35b6100c7600480360360408110156100a757600080fd5b81019080803590602001909291908035906020019092919050505061013d565b6040518082815260200191505060405180910390f35b610113600480360360408110156100f357600080fd5b810190808035906020019092919080359060200190929190505050610151565b6040518082815260200191505060405180910390f35b60006101358383610165565b905092915050565b60006101498383610855565b905092915050565b600061015d8383610165565b905092915050565b60006101937fb3241079ceee75efb4f3f892705b88b32961790b15153e6c1da6dec7c1d7915660001b6108f3565b6101bf7ff79a741bf782d3218f36835506800f1d3ab587d28812c2002c2387e64a8017e460001b6108f3565b6101eb7f7ddd83c2b2f0df7ca81d0b50c6efd9c6a7dd0140a5ab675453f6bf365967695360001b6108f3565b631f54050082111561025b576102237ff6eb246b3774442d014657cf070f008c8ff565009b3f833a9c3cd107ef4bdbb360001b6108f3565b61024f7fe52b09f0e3388775a21a09a651f0c711b795425edcb4c3f5657fb1b63ca169b360001b6108f3565b631f5405009150610288565b6102877f6c5e9a1fc004355d704a3b38d2cc20774f859178120fc329227fbeb73ced99f060001b6108f3565b5b6102b47f2f33c33b65ef658ebe3922af023dd2b7bf51d69e770388dd13501c29de2cc8b460001b6108f3565b6102e07f3920ed5fcecd3f1de58dc9899fccce121ce931a67e880b6aa84bdf6458d5f3cc60001b6108f3565b6000821415610351576103157fd2538caefe4e6287f0399f74982a0d9471364e43bb774a2b6efee788003ef26660001b6108f3565b6103417fac2427b4de7e5234350bedfe284dc2c61a7fa863aade085a441d976b2ebf3cf860001b6108f3565b670de0b6b3a7640000905061084f565b61037d7fa4d5930a6098ca08980bc9df31776c6467441cec824b242109dca0b2dc9a6b9160001b6108f3565b6103a97f1acbfad87608a2dab877be7fc3cc8e0ec2d05f33cf7f9a66f447614bb1fde37060001b6108f3565b6103d57fe728b77a16a778765f23b206dbfaab5a6224e9f728e2f9d764fb165d16a58f7260001b6108f3565b6000670de0b6b3a7640000905061040e7f43405e64b7c3de3438be664a93bbd8f4bad834b9bc9c7415daf18e3dfe3f409660001b6108f3565b61043a7f9534842aeeb1cf59dd39e3b30c0f1c5140d0642126190341ae2d7939bc88cc8460001b6108f3565b600084905061046b7ff603312008e375e05a1d2ead4faaca56d2678f324c61280cdcf071a1599c0e4560001b6108f3565b6104977f84a9fea4a6241118b5d9fbe6735c8b555f6a5d659b361694a7a4b93913c7351160001b6108f3565b60008490506104c87fedf6f0a50821d016bd7d6db935672c0a9215716cbd5dfd8dcb0279ce5aeb5ffd60001b6108f3565b6104f47f06d87a255fa445c9f34171894d637a43fc7fbbf3475c03b788aa20e96740819060001b6108f3565b5b60018111156107e75761052a7f5885afa097f1c3f034d65d5f0f76a2499827f3971c2b10b842246451af5150a860001b6108f3565b6105567feeddcf126d4a3122c2999f1cd892690a9b17836f37d52a797561426e1ecf936d60001b6108f3565b60006002828161056257fe5b06141561066c576105957febe7a217f65dd502729d70ba9fc7d0c2eee42f405de224fa6aa2886494e56d4a60001b6108f3565b6105c17f76e3afe2526aab6a69c814ba4624ccc7151c70d4b0100e3cd060431872804e3260001b6108f3565b6105ed7ffcc40f1f1f2b130ed3590df449024506cb60fd47cdcddd3bc77164dad4e7e04360001b6108f3565b6105f782836108f6565b91506106257f2516dc9ea3d3c34abeb9fff701da707c1348eb974c06bda2bf20251d983b1bd160001b6108f3565b6106517fecdca9354abf0a3ec079925ff7fd21f9c212059816a72df40605d63b72cdc28b60001b6108f3565b610665600282610a3390919063ffffffff16565b90506107e2565b6106987f54bc67050f05841ec404a70010b4e7f410b299877a7cc2e8f7cc694125c8649e60001b6108f3565b6106c47f6a855a0cf806bf54f56b0894a0ff3dc976b081f5b466404a2a4ddf09d47746b660001b6108f3565b6106f07f87bfead1e6731c96849fa2b26a9b6b9a8c346d29c8f0c057af85e4ea71264f4960001b6108f3565b6106fa82846108f6565b92506107287fde86d1598f24ecf47f87e21b2ca275b54148dd414bcab48bc271a9e24ab9608460001b6108f3565b6107547fc6f4503566e9c22cb0c02855c84a6cd1fcb4c12d2f17a1038bd93d82b3be253e60001b6108f3565b61075e82836108f6565b915061078c7f6364d2cd8ec4e410fe5284c11b0c31e6e9bfb0546849b96c3ea2e4ff30255e5460001b6108f3565b6107b87fdbe99c798e1562891ab67d7f2eb24bd2c2d48c035a19b1e7ef65545bded129c960001b6108f3565b6107df60026107d1600184610a7d90919063ffffffff16565b610a3390919063ffffffff16565b90505b6104f5565b6108137fafcfe5e25fce3fc8a5893b7cc3fe5906e549c1a8528644123951fc9e1610433960001b6108f3565b61083f7faa5cde25a5892d786efc1261d1a973b2731b7877c8bd07382c35a568d3928f6460001b6108f3565b61084982846108f6565b93505050505b92915050565b60006108837f6f77938d8a72abf67d8e8d6641923128dcfa1ede0fd07852c5bf7504e0883aba60001b6108f3565b6108af7f6c1905143284a5c4e424b5ce00c9c6197eb463fb9aef45c1b44784e60137e80360001b6108f3565b6108db7ff6110982dfc3d3c82e7637d766b2d49b0f270a9cccb62461e9fffd998477da0160001b6108f3565b818310156108e957816108eb565b825b905092915050565b50565b60006109247fcf2c8da14ad1a8f90127683c91376a491821becc1af092bb9f208bc555bc100560001b6108f3565b6109507fda80dfeb44c418549c5582ab2c70318bf7b0cb14201220f6ded1541ad2fc893b60001b6108f3565b61097c7fb26e00edd5ffe7f2468b9771f5a971168a4ed8a3a0d06918af1c1d6d4b76feeb60001b6108f3565b60006109918385610ac790919063ffffffff16565b90506109bf7fcae6721ad5a0e4f2c279a6248a026a49cd7e26bc6970453d11e26959664207eb60001b6108f3565b6109eb7f24fa38eeaa313d7921ecb164c9e2678792c268552c5a7925102974a0b23f2a0360001b6108f3565b610a2a670de0b6b3a7640000610a1c6002670de0b6b3a764000081610a0c57fe5b0484610b4d90919063ffffffff16565b610a3390919063ffffffff16565b91505092915050565b6000610a7583836040518060400160405280601a81526020017f536166654d6174683a206469766973696f6e206279207a65726f000000000000815250610bd5565b905092915050565b6000610abf83836040518060400160405280601e81526020017f536166654d6174683a207375627472616374696f6e206f766572666c6f770000815250610c9b565b905092915050565b600080831415610ada5760009050610b47565b6000828402905082848281610aeb57fe5b0414610b42576040517f08c379a0000000000000000000000000000000000000000000000000000000008152600401808060200182810382526021815260200180610d5c6021913960400191505060405180910390fd5b809150505b92915050565b600080828401905083811015610bcb576040517f08c379a000000000000000000000000000000000000000000000000000000000815260040180806020018281038252601b8152602001807f536166654d6174683a206164646974696f6e206f766572666c6f77000000000081525060200191505060405180910390fd5b8091505092915050565b60008083118290610c81576040517f08c379a00000000000000000000000000000000000000000000000000000000081526004018080602001828103825283818151815260200191508051906020019080838360005b83811015610c46578082015181840152602081019050610c2b565b50505050905090810190601f168015610c735780820380516001836020036101000a031916815260200191505b509250505060405180910390fd5b506000838581610c8d57fe5b049050809150509392505050565b6000838311158290610d48576040517f08c379a00000000000000000000000000000000000000000000000000000000081526004018080602001828103825283818151815260200191508051906020019080838360005b83811015610d0d578082015181840152602081019050610cf2565b50505050905090810190601f168015610d3a5780820380516001836020036101000a031916815260200191505b509250505060405180910390fd5b506000838503905080915050939250505056fe536166654d6174683a206d756c7469706c69636174696f6e206f766572666c6f77a2646970667358221220ce47f2469938a0bd8b0d0e2e2bbf17933fc48f4a38bb87abc0c831a46f77002564736f6c634300060b0033",
  "linkReferences": {},
  "deployedLinkReferences": {}
}