{
  "_format": "hh-sol-artifact-1",
  "contractName": "LiquitySafeMath128",
  "sourceName": "contracts/Dependencies/LiquitySafeMath128.sol",
  "abi": [
    {
      "inputs": [
        {
          "internalType": "bytes32",
          "name": "c__0x39bbd07e",
          "type": "bytes32"
        }
      ],
      "name": "c_0x39bbd07e",
      "outputs": [],
      "stateMutability": "pure",
      "type": "function"
    }
  ],
  "bytecode": "0x609c610024600b82828239805160001a607314601757fe5b30600052607381538281f3fe730000000000000000000000000000000000000000301460806040526004361060335760003560e01c8063b94bb841146038575b600080fd5b606160048036036020811015604c57600080fd5b81019080803590602001909291905050506063565b005b5056fea2646970667358221220f828cec903984745e4dbf41e9118c646bc647ddc0ba950d1a35d67acf2657b1f64736f6c634300060b0033",
  "linkReferences": {},
  "deployedLinkReferences": {}
}