{
  "_format": "hh-sol-artifact-1",
  "contractName": "LiquitySafeMath128Tester",
  "sourceName": "contracts/TestContracts/LiquitySafeMath128Tester.sol",
  "abi": [
    {
      "inputs": [
        {
          "internalType": "uint128",
          "name": "a",
          "type": "uint128"
        },
        {
          "internalType": "uint128",
          "name": "b",
          "type": "uint128"
        }
      ],
      "name": "add",
      "outputs": [
        {
          "internalType": "uint128",
          "name": "",
          "type": "uint128"
        }
      ],
      "stateMutability": "pure",
      "type": "function"
    },
    {
      "inputs": [
        {
          "internalType": "uint128",
          "name": "a",
          "type": "uint128"
        },
        {
          "internalType": "uint128",
          "name": "b",
          "type": "uint128"
        }
      ],
      "name": "sub",
      "outputs": [
        {
          "internalType": "uint128",
          "name": "",
          "type": "uint128"
        }
      ],
      "stateMutability": "pure",
      "type": "function"
    }
  ],
  "bytecode": "0x608060405234801561001057600080fd5b5061067f806100206000396000f3fe608060405234801561001057600080fd5b50600436106100365760003560e01c8063a6fd00851461003b578063feb99390146100cf575b600080fd5b6100956004803603604081101561005157600080fd5b8101908080356fffffffffffffffffffffffffffffffff16906020019092919080356fffffffffffffffffffffffffffffffff169060200190929190505050610163565b60405180826fffffffffffffffffffffffffffffffff166fffffffffffffffffffffffffffffffff16815260200191505060405180910390f35b610129600480360360408110156100e557600080fd5b8101908080356fffffffffffffffffffffffffffffffff16906020019092919080356fffffffffffffffffffffffffffffffff169060200190929190505050610192565b60405180826fffffffffffffffffffffffffffffffff166fffffffffffffffffffffffffffffffff16815260200191505060405180910390f35b600061018a82846fffffffffffffffffffffffffffffffff166101c190919063ffffffff16565b905092915050565b60006101b982846fffffffffffffffffffffffffffffffff166103dd90919063ffffffff16565b905092915050565b60006101ef7fd1558f00d0c7add1b828d14ad75feae66f059012ecf4fead9590088d84c551f260001b6105f9565b61021b7fb1a11b13163b9a744cdffb3bea7f9824fee5f7defc445083891c20e736f467de60001b6105f9565b6102477f16067a2c39f06aad52eaee41cf51914c7f2f1ce3efca93048235afad5a403fde60001b6105f9565b6102737f6f20f08f738c25cd5a7f299979195b9c273e920bb2f1bba73f324eba0f6b420d60001b6105f9565b826fffffffffffffffffffffffffffffffff16826fffffffffffffffffffffffffffffffff1611156102f0576040517f08c379a00000000000000000000000000000000000000000000000000000000081526004018080602001828103825260288152602001806105fd6028913960400191505060405180910390fd5b61031c7fa76f54022170818eb8abc3813e1d05d9fe9984e61015f28503c1e8185b00b03c60001b6105f9565b6103487f0e4a8d0acfff81b28e89ab6ffc4c5432febcca094ef9df8c29b0bdd3339b07d860001b6105f9565b6103747f5faf70fc78a423d16a167eaecff95a4b388994e1fccbfd65d44e01e061eb804b60001b6105f9565b600082840390506103a77f1a3a6c3924e0efc235162b75995aa7717516721433032d3a2e492c48f8582b7e60001b6105f9565b6103d37f5e89cc174de375f5fbe8535c5dff962c1353aa4a558d439682cf00e37ac8a79260001b6105f9565b8091505092915050565b600061040b7fc79b0446ce7ccff9de7573151f1c103a77650ad06fbb77bd704c35bd83028da760001b6105f9565b6104377f325e244f2e3836094c3bf63f01fed65a8896f3541a60319057ed71ca8b8e3bdf60001b6105f9565b6104637f3bdb32b4304aae8c17e963c34b71958c0de0f60501a4ddd9fe2a5d43c26dab5060001b6105f9565b600082840190506104967f48f800860753c76c74916d4343b1ed5c1fa5c1ade6a71f0ac671cacb4fc6e63a60001b6105f9565b6104c27fd357195569bb3d0a33dd6b2b36de137ed8cc1e152c0e030621454ca1c57c152560001b6105f9565b6104ee7fb7599615ec8817cd39f26666876f381a421e24d69f82a3f722bb61b1dd549f7460001b6105f9565b836fffffffffffffffffffffffffffffffff16816fffffffffffffffffffffffffffffffff16101561056b576040517f08c379a00000000000000000000000000000000000000000000000000000000081526004018080602001828103825260258152602001806106256025913960400191505060405180910390fd5b6105977f7b750076a770c8c57ed3b275549963366fc54602f86b01891cf0b173746d3d4460001b6105f9565b6105c37f23e22f70fb6678147e9fbc5fa58bbe5500df721cb396c81f0311a21ea7a7c1d960001b6105f9565b6105ef7fc143efa27917bfca3c2125e7779cc14a540eda68842a2142677f1fef583caf7c60001b6105f9565b8091505092915050565b5056fe4c697175697479536166654d6174683132383a207375627472616374696f6e206f766572666c6f774c697175697479536166654d6174683132383a206164646974696f6e206f766572666c6f77a2646970667358221220caab7b6ee7b3c93d31aef0ccf66b547a7dc62a9e56ef4975ac44fd21fb8297da64736f6c634300060b0033",
  "linkReferences": {},
  "deployedLinkReferences": {}
}