{
  "_format": "hh-sol-artifact-1",
  "contractName": "LockupContract",
  "sourceName": "contracts/LQTY/LockupContract.sol",
  "abi": [
    {
      "inputs": [
        {
          "internalType": "address",
          "name": "_lqtyTokenAddress",
          "type": "address"
        },
        {
          "internalType": "address",
          "name": "_beneficiary",
          "type": "address"
        },
        {
          "internalType": "uint256",
          "name": "_unlockTime",
          "type": "uint256"
        }
      ],
      "stateMutability": "nonpayable",
      "type": "constructor"
    },
    {
      "anonymous": false,
      "inputs": [
        {
          "indexed": false,
          "internalType": "address",
          "name": "_beneficiary",
          "type": "address"
        },
        {
          "indexed": false,
          "internalType": "uint256",
          "name": "_unlockTime",
          "type": "uint256"
        }
      ],
      "name": "LockupContractCreated",
      "type": "event"
    },
    {
      "anonymous": false,
      "inputs": [
        {
          "indexed": false,
          "internalType": "uint256",
          "name": "_LQTYwithdrawal",
          "type": "uint256"
        }
      ],
      "name": "LockupContractEmptied",
      "type": "event"
    },
    {
      "inputs": [],
      "name": "NAME",
      "outputs": [
        {
          "internalType": "string",
          "name": "",
          "type": "string"
        }
      ],
      "stateMutability": "view",
      "type": "function"
    },
    {
      "inputs": [],
      "name": "SECONDS_IN_ONE_YEAR",
      "outputs": [
        {
          "internalType": "uint256",
          "name": "",
          "type": "uint256"
        }
      ],
      "stateMutability": "view",
      "type": "function"
    },
    {
      "inputs": [],
      "name": "beneficiary",
      "outputs": [
        {
          "internalType": "address",
          "name": "",
          "type": "address"
        }
      ],
      "stateMutability": "view",
      "type": "function"
    },
    {
      "inputs": [
        {
          "internalType": "bytes32",
          "name": "c__0x3cf94351",
          "type": "bytes32"
        }
      ],
      "name": "c_0x3cf94351",
      "outputs": [],
      "stateMutability": "pure",
      "type": "function"
    },
    {
      "inputs": [],
      "name": "lqtyToken",
      "outputs": [
        {
          "internalType": "contract ILQTYToken",
          "name": "",
          "type": "address"
        }
      ],
      "stateMutability": "view",
      "type": "function"
    },
    {
      "inputs": [],
      "name": "unlockTime",
      "outputs": [
        {
          "internalType": "uint256",
          "name": "",
          "type": "uint256"
        }
      ],
      "stateMutability": "view",
      "type": "function"
    },
    {
      "inputs": [],
      "name": "withdrawLQTY",
      "outputs": [],
      "stateMutability": "nonpayable",
      "type": "function"
    }
  ],
  "bytecode": "0x60a06040523480156200001157600080fd5b50604051620011e3380380620011e3833981810160405260608110156200003757600080fd5b81019080805190602001909291908051906020019092919080519060200190929190505050620000907f830ba1bd7add9424c2546253806351f2df9fd78aa0d9367e25efcf5ba15eac1e60001b6200039b60201b60201c565b620000c47fb49815c88dd885227cbf622cb6b256806688fbd98847199682add461086fde9d60001b6200039b60201b60201c565b620000f87f621f1f2f40dd61d1203bbab1c6c3e94613d8ad994c6a9dbf6085803694781c9860001b6200039b60201b60201c565b826000806101000a81548173ffffffffffffffffffffffffffffffffffffffff021916908373ffffffffffffffffffffffffffffffffffffffff1602179055506200016c7f58386402cfdd7c76e3f611e2cc0342139a5875bb087151d6cdcb46d9924a009960001b6200039b60201b60201c565b620001a07f19caf70605e6f7968c9b4b082264db6ff5afc9d31d83c8f5b155e6f8a67be9a560001b6200039b60201b60201c565b620001b1816200039e60201b60201c565b620001e57fa041f0319781b0c6a1727801e713ff4d95e800594241b4220b3183c72c8f0da560001b6200039b60201b60201c565b620002197f8e08cb99a0c6939f2b3284d72a027ecbae80bc0ddf4bf6d6c9ca1a8a3ed26e0760001b6200039b60201b60201c565b80600181905550620002547fb5da7c5bac63ec2fa700231a97fb917dd0bbd2b1a72f046bfdac028ccc8808db60001b6200039b60201b60201c565b620002887fd2301cb7752e599db09c129036c21411c3701178e4373bb734a268067de6e50160001b6200039b60201b60201c565b8173ffffffffffffffffffffffffffffffffffffffff1660808173ffffffffffffffffffffffffffffffffffffffff1660601b81525050620002f37f21797311adfa0666fd28562c0dc95f36c48c75b1226f8b75a8211a466ac5ba7b60001b6200039b60201b60201c565b620003277fe044b818bbcab2e3070189bc1eecd34af52d1c83293311492348e79ac6daaf1e60001b6200039b60201b60201c565b7f5faee922186516bf77266643c1fda130acefc439d571400e8697106c6aed9b548282604051808373ffffffffffffffffffffffffffffffffffffffff1673ffffffffffffffffffffffffffffffffffffffff1681526020018281526020019250505060405180910390a1505050620006b8565b50565b620003d27ff56c6b8578c172f7d6ee9d7b4bcebe4f67ca3a2fb3c925618cece8c5e984522c60001b6200039b60201b60201c565b620004067f018f762f21df16c99d3d25c28b8456b5535159440198493e3a3bed481e9cb50560001b6200039b60201b60201c565b6200043a7f41ae59e15ce9599a5582f3cefd8850a4475a825d1dc7a193796c976c1b5bdefc60001b6200039b60201b60201c565b60008060009054906101000a900473ffffffffffffffffffffffffffffffffffffffff1673ffffffffffffffffffffffffffffffffffffffff16633c84b7c26040518163ffffffff1660e01b815260040160206040518083038186803b158015620004a457600080fd5b505afa158015620004b9573d6000803e3d6000fd5b505050506040513d6020811015620004d057600080fd5b81019080805190602001909291905050509050620005177f8295e74b8faf6f45680d4c3fee021681e074809461382a5ca64266801745e3ad60001b6200039b60201b60201c565b6200054b7fca13c5047c858416c58d6978a1836dba9f2a1bd7249ca1b3abc0221f7af4684260001b6200039b60201b60201c565b6200057f7fa71ab743aab5a6ceae700d7bcbdc07819769a357437c20648862ac4933fc99f160001b6200039b60201b60201c565b6200059d6301e13380826200062f60201b620006dc1790919060201c565b821015620005f7576040517f08c379a000000000000000000000000000000000000000000000000000000000815260040180806020018281038252604d81526020018062001196604d913960600191505060405180910390fd5b6200062b7fd2d138b0935ea7afe9dd02728c99e792362fd4c17d86644e694b509d844ffa1460001b6200039b60201b60201c565b5050565b600080828401905083811015620006ae576040517f08c379a000000000000000000000000000000000000000000000000000000000815260040180806020018281038252601b8152602001807f536166654d6174683a206164646974696f6e206f766572666c6f77000000000081525060200191505060405180910390fd5b8091505092915050565b60805160601c610ab6620006e06000398061022a528061058452806108165250610ab66000f3fe608060405234801561001057600080fd5b506004361061006d5760003560e01c80631f7af3c314610072578063251c1aa3146100bc57806338af3eed146100da5780634cb30a121461012457806398e5f3c414610152578063a3f4df7e14610170578063b9470a46146101f3575b600080fd5b61007a6101fd565b604051808273ffffffffffffffffffffffffffffffffffffffff1673ffffffffffffffffffffffffffffffffffffffff16815260200191505060405180910390f35b6100c4610222565b6040518082815260200191505060405180910390f35b6100e2610228565b604051808273ffffffffffffffffffffffffffffffffffffffff1673ffffffffffffffffffffffffffffffffffffffff16815260200191505060405180910390f35b6101506004803603602081101561013a57600080fd5b810190808035906020019092919050505061024c565b005b61015a61024f565b6040518082815260200191505060405180910390f35b610178610257565b6040518080602001828103825283818151815260200191508051906020019080838360005b838110156101b857808201518184015260208101905061019d565b50505050905090810190601f1680156101e55780820380516001836020036101000a031916815260200191505b509250505060405180910390f35b6101fb610290565b005b6000809054906101000a900473ffffffffffffffffffffffffffffffffffffffff1681565b60015481565b7f000000000000000000000000000000000000000000000000000000000000000081565b50565b6301e1338081565b6040518060400160405280600e81526020017f4c6f636b7570436f6e747261637400000000000000000000000000000000000081525081565b6102bc7fc68688f4b59a7cb36f95fcd3c70aa8ed2b7692c77d524394f567ad4f6870ce2d60001b61024c565b6102e87fe6697ab7e389005f96804ddf9007d39bfcc3050304fab611344dee59b6d8737b60001b61024c565b6103147f79c27abf3ba7958f66a1ac9afdb9a294eb2de1bff638eb812e4818e99edf829360001b61024c565b61031c610764565b6103487f90fba941d59857d6beda8a5128ef71d7f27226a0adbefe68701925d92509b20d60001b61024c565b6103747fcd9bc0930fb616df3aebc1ab5620aeb5ee676b877319084404f0e5bc2987800860001b61024c565b61037c6108e6565b6103a87fd767626ff75fc8bcfa9e1b68a2c95d370bf70635b85d69dbd04f0b8aa1026eb960001b61024c565b6103d47f3a41ab87fdb310de9aa81668045b8d81e2a0af5dc024a963c54552023d052ee160001b61024c565b60008060009054906101000a900473ffffffffffffffffffffffffffffffffffffffff1690506104267f7ce73fe56cdfd6fbda842f33d8d7e6fbf0fd47f96f8e961745663708b39194db60001b61024c565b6104527ff12b40634ca21ed3ecd0ced5eb6480c90f7591d34163074e42968de4bd6e04f860001b61024c565b60008173ffffffffffffffffffffffffffffffffffffffff166370a08231306040518263ffffffff1660e01b8152600401808273ffffffffffffffffffffffffffffffffffffffff1673ffffffffffffffffffffffffffffffffffffffff16815260200191505060206040518083038186803b1580156104d157600080fd5b505afa1580156104e5573d6000803e3d6000fd5b505050506040513d60208110156104fb57600080fd5b8101908080519060200190929190505050905061053a7f0bd585f62f81e68515fbffedc32235077044a5597b736b4bcdd1fa057310395b60001b61024c565b6105667fc9b4bea5057eb29a6bc399169255e414d3d99f9acde1fa04e7eb9ffc23bb584160001b61024c565b8173ffffffffffffffffffffffffffffffffffffffff1663a9059cbb7f0000000000000000000000000000000000000000000000000000000000000000836040518363ffffffff1660e01b8152600401808373ffffffffffffffffffffffffffffffffffffffff1673ffffffffffffffffffffffffffffffffffffffff16815260200182815260200192505050602060405180830381600087803b15801561060d57600080fd5b505af1158015610621573d6000803e3d6000fd5b505050506040513d602081101561063757600080fd5b8101908080519060200190929190505050506106757f687568c097ba82bd47ed0ac68cb00943341154c0a2a3fb4d696d420c1448709b60001b61024c565b6106a17fc8fbac0dec82a09c8fd288a22fe49d4c840b03e778747cc66ef68d2ac2b8f39760001b61024c565b7f7d17cbc0f78ccfed33842dd29dab2872e8347bf3981293ab2cfe35ca16371a2f816040518082815260200191505060405180910390a15050565b60008082840190508381101561075a576040517f08c379a000000000000000000000000000000000000000000000000000000000815260040180806020018281038252601b8152602001807f536166654d6174683a206164646974696f6e206f766572666c6f77000000000081525060200191505060405180910390fd5b8091505092915050565b6107907fca4076e34d232248688fecb23d5c6d92507a31811feca7f4bf1b183ed013f35860001b61024c565b6107bc7fb3ee6920da35469cb9289ea28135e924e2dd1b2481cac69476b0bc47cee5625260001b61024c565b6107e87ff50b3450051784149843e630055d77350d1d9256979cc9ea5949ae5d475d895760001b61024c565b6108147fcd89d2da686c0f6167e7f918fb27cd301b08407e73d59977a86ff8dd697b4a5860001b61024c565b7f000000000000000000000000000000000000000000000000000000000000000073ffffffffffffffffffffffffffffffffffffffff163373ffffffffffffffffffffffffffffffffffffffff16146108b8576040517f08c379a000000000000000000000000000000000000000000000000000000000815260040180806020018281038252602d815260200180610a54602d913960400191505060405180910390fd5b6108e47f312e1d06a11dc7fe08dff16cd4ca8d239504bbeb4e7a0c0846e496e69b63e79860001b61024c565b565b6109127f7dbc6b4936283e79eb99f923ae92afb6971ae20b8b3d0bc0650a7e993ff3ce4660001b61024c565b61093e7fa52473a3df0cbe096f2ce15fb845d88092e218bbb30e148f679eb30b9312fb3560001b61024c565b61096a7f4d863d06f247e9d899f0484709fb4147bd3bff6d1cf0e3ac0073cedac74084aa60001b61024c565b6109967fcadd10236ce733cfeb45d7f3c520a079c2c91ab9cb3e3dd5666c10f21243178260001b61024c565b6001544210156109f1576040517f08c379a0000000000000000000000000000000000000000000000000000000008152600401808060200182810382526034815260200180610a206034913960400191505060405180910390fd5b610a1d7f39c41cd7711ec49c3e2599a577e757be2c32c4bae9106af017970545260c815560001b61024c565b56fe4c6f636b7570436f6e74726163743a20546865206c6f636b7570206475726174696f6e206d7573742068617665207061737365644c6f636b7570436f6e74726163743a2063616c6c6572206973206e6f74207468652062656e6566696369617279a26469706673582212201b3505cd8235d139fc07ff65ca8450515ba2fc6ca4ff78f8ebbc29e172d14e0f64736f6c634300060b00334c6f636b7570436f6e74726163743a20756e6c6f636b2074696d65206d757374206265206174206c65617374206f6e6520796561722061667465722073797374656d206465706c6f796d656e74",
  "linkReferences": {},
  "deployedLinkReferences": {}
}