{
  "_format": "hh-sol-artifact-1",
  "contractName": "LPTokenWrapper",
  "sourceName": "contracts/LPRewards/Unipool.sol",
  "abi": [
    {
      "inputs": [
        {
          "internalType": "address",
          "name": "account",
          "type": "address"
        }
      ],
      "name": "balanceOf",
      "outputs": [
        {
          "internalType": "uint256",
          "name": "",
          "type": "uint256"
        }
      ],
      "stateMutability": "view",
      "type": "function"
    },
    {
      "inputs": [
        {
          "internalType": "bytes32",
          "name": "c__0x866edd45",
          "type": "bytes32"
        }
      ],
      "name": "c_0x866edd45",
      "outputs": [],
      "stateMutability": "pure",
      "type": "function"
    },
    {
      "inputs": [
        {
          "internalType": "uint256",
          "name": "amount",
          "type": "uint256"
        }
      ],
      "name": "stake",
      "outputs": [],
      "stateMutability": "nonpayable",
      "type": "function"
    },
    {
      "inputs": [],
      "name": "totalSupply",
      "outputs": [
        {
          "internalType": "uint256",
          "name": "",
          "type": "uint256"
        }
      ],
      "stateMutability": "view",
      "type": "function"
    },
    {
      "inputs": [],
      "name": "uniToken",
      "outputs": [
        {
          "internalType": "contract IERC20",
          "name": "",
          "type": "address"
        }
      ],
      "stateMutability": "view",
      "type": "function"
    },
    {
      "inputs": [
        {
          "internalType": "uint256",
          "name": "amount",
          "type": "uint256"
        }
      ],
      "name": "withdraw",
      "outputs": [],
      "stateMutability": "nonpayable",
      "type": "function"
    }
  ],
  "bytecode": "0x608060405234801561001057600080fd5b50610ee8806100206000396000f3fe608060405234801561001057600080fd5b50600436106100625760003560e01c806304c312c71461006757806318160ddd146100955780632e1a7d4d146100b357806370a08231146100e157806385ce4fee14610139578063a694fc3a14610183575b600080fd5b6100936004803603602081101561007d57600080fd5b81019080803590602001909291905050506101b1565b005b61009d6101b4565b6040518082815260200191505060405180910390f35b6100df600480360360208110156100c957600080fd5b8101908080359060200190929190505050610242565b005b610123600480360360208110156100f757600080fd5b81019080803573ffffffffffffffffffffffffffffffffffffffff169060200190929190505050610475565b6040518082815260200191505060405180910390f35b610141610542565b604051808273ffffffffffffffffffffffffffffffffffffffff1673ffffffffffffffffffffffffffffffffffffffff16815260200191505060405180910390f35b6101af6004803603602081101561019957600080fd5b8101908080359060200190929190505050610567565b005b50565b60006101e27fd34763a4a25d7a180203864412cc14aee1800cac6e78cf0cdd283e79d1c7e69060001b6101b1565b61020e7f8c1a19ac437d8a84c8563eb44014743117fbf283d0ab29d9dc5a60454e56424160001b6101b1565b61023a7f9aa5d047224e3c4ecf90c3b350bbf21585908d1dcf623fa8162ec513d0b2715c60001b6101b1565b600154905090565b61026e7f696d301e2911ec45d131b732da3ed11a29310e6fc023fb10cd2e18baec440b6760001b6101b1565b61029a7f41fb87ee0199a6e26cde0d4eaa7f58eab53246c86955aa10613814416ed7eb0260001b6101b1565b6102c67febeac0d7f7116ed013889170f327b7bd02ecc645acecd6c8f4f2e92aa2e8289760001b6101b1565b6102db8160015461079c90919063ffffffff16565b60018190555061030d7fe5542baf3bdfcca190a3e6fd4436acf573be2900b60de47704078cb67d72279360001b6101b1565b6103397f5d977ba5148df832a35936ff4d76f7d45c0ebfdba6758b0a539f6948065e72ca60001b6101b1565b61038b81600260003373ffffffffffffffffffffffffffffffffffffffff1673ffffffffffffffffffffffffffffffffffffffff1681526020019081526020016000205461079c90919063ffffffff16565b600260003373ffffffffffffffffffffffffffffffffffffffff1673ffffffffffffffffffffffffffffffffffffffff168152602001908152602001600020819055506103fa7f2680c3e4001163274b55999a1ac19893266353c6e8e0f6e140c63bf3c72b411860001b6101b1565b6104267f62a755b627c674afa808fedf2b797a55ababbc9bd9481330fe2b66c8d587e9cf60001b6101b1565b61047233826000809054906101000a900473ffffffffffffffffffffffffffffffffffffffff1673ffffffffffffffffffffffffffffffffffffffff166107e69092919063ffffffff16565b50565b60006104a37fae92a3e6bb208fbb90752d483f2c75ae200878f83f963fc14d0522c564e7f9be60001b6101b1565b6104cf7f8352e01df12a8d4bb48c7d80e12bd6e23248ca95667da91b4a60bedc793e08da60001b6101b1565b6104fb7f53e820a489b3d75dec3df903cd924a79c742b8e65a8462e28a422aaaafd3b67960001b6101b1565b600260008373ffffffffffffffffffffffffffffffffffffffff1673ffffffffffffffffffffffffffffffffffffffff168152602001908152602001600020549050919050565b6000809054906101000a900473ffffffffffffffffffffffffffffffffffffffff1681565b6105937fda10eed1b67753666d3ee630e2e0f147b0de33d8ca5c8cfd942d1b6ad469196e60001b6101b1565b6105bf7f15e34b24edcf168d358b9baf3394467afdfed9518980b20676e9d6d98fbc240d60001b6101b1565b6105eb7f531e24a0a4c0e818a82fd5c28f55b246c3cc25da9ae04e939b205bac50df5c6460001b6101b1565b6106008160015461089e90919063ffffffff16565b6001819055506106327fca8d8d735f8bda127b50dab4c01563cbc48814d0540dd0fc4edf8d7d9ee3a73c60001b6101b1565b61065e7f3cd848c382906da0c1d8570d0e21bc8045aedb79a6aacf461ec1d62beae75c1560001b6101b1565b6106b081600260003373ffffffffffffffffffffffffffffffffffffffff1673ffffffffffffffffffffffffffffffffffffffff1681526020019081526020016000205461089e90919063ffffffff16565b600260003373ffffffffffffffffffffffffffffffffffffffff1673ffffffffffffffffffffffffffffffffffffffff1681526020019081526020016000208190555061071f7f6744ff425f0ee26a9c477ebbf1ea1d64e4e05f38379c3b505bcc06338bcdf04860001b6101b1565b61074b7f20a0955aa38fee0bbb8a7f0d97bf1ff8801f6a89cf29947fc21866880a6a6a4660001b6101b1565b6107993330836000809054906101000a900473ffffffffffffffffffffffffffffffffffffffff1673ffffffffffffffffffffffffffffffffffffffff16610926909392919063ffffffff16565b50565b60006107de83836040518060400160405280601e81526020017f536166654d6174683a207375627472616374696f6e206f766572666c6f770000815250610a13565b905092915050565b6108998363a9059cbb60e01b8484604051602401808373ffffffffffffffffffffffffffffffffffffffff1673ffffffffffffffffffffffffffffffffffffffff16815260200182815260200192505050604051602081830303815290604052907bffffffffffffffffffffffffffffffffffffffffffffffffffffffff19166020820180517bffffffffffffffffffffffffffffffffffffffffffffffffffffffff8381831617835250505050610ad3565b505050565b60008082840190508381101561091c576040517f08c379a000000000000000000000000000000000000000000000000000000000815260040180806020018281038252601b8152602001807f536166654d6174683a206164646974696f6e206f766572666c6f77000000000081525060200191505060405180910390fd5b8091505092915050565b610a0d846323b872dd60e01b858585604051602401808473ffffffffffffffffffffffffffffffffffffffff1673ffffffffffffffffffffffffffffffffffffffff1681526020018373ffffffffffffffffffffffffffffffffffffffff1673ffffffffffffffffffffffffffffffffffffffff1681526020018281526020019350505050604051602081830303815290604052907bffffffffffffffffffffffffffffffffffffffffffffffffffffffff19166020820180517bffffffffffffffffffffffffffffffffffffffffffffffffffffffff8381831617835250505050610ad3565b50505050565b6000838311158290610ac0576040517f08c379a00000000000000000000000000000000000000000000000000000000081526004018080602001828103825283818151815260200191508051906020019080838360005b83811015610a85578082015181840152602081019050610a6a565b50505050905090810190601f168015610ab25780820380516001836020036101000a031916815260200191505b509250505060405180910390fd5b5060008385039050809150509392505050565b6060610b35826040518060400160405280602081526020017f5361666545524332303a206c6f772d6c6576656c2063616c6c206661696c65648152508573ffffffffffffffffffffffffffffffffffffffff16610bc29092919063ffffffff16565b9050600081511115610bbd57808060200190516020811015610b5657600080fd5b8101908080519060200190929190505050610bbc576040517f08c379a000000000000000000000000000000000000000000000000000000000815260040180806020018281038252602a815260200180610e89602a913960400191505060405180910390fd5b5b505050565b6060610bd18484600085610bda565b90509392505050565b606082471015610c35576040517f08c379a0000000000000000000000000000000000000000000000000000000008152600401808060200182810382526026815260200180610e636026913960400191505060405180910390fd5b610c3e85610d83565b610cb0576040517f08c379a000000000000000000000000000000000000000000000000000000000815260040180806020018281038252601d8152602001807f416464726573733a2063616c6c20746f206e6f6e2d636f6e747261637400000081525060200191505060405180910390fd5b600060608673ffffffffffffffffffffffffffffffffffffffff1685876040518082805190602001908083835b60208310610d005780518252602082019150602081019050602083039250610cdd565b6001836020036101000a03801982511681845116808217855250505050505090500191505060006040518083038185875af1925050503d8060008114610d62576040519150601f19603f3d011682016040523d82523d6000602084013e610d67565b606091505b5091509150610d77828286610d96565b92505050949350505050565b600080823b905060008111915050919050565b60608315610da657829050610e5b565b600083511115610db95782518084602001fd5b816040517f08c379a00000000000000000000000000000000000000000000000000000000081526004018080602001828103825283818151815260200191508051906020019080838360005b83811015610e20578082015181840152602081019050610e05565b50505050905090810190601f168015610e4d5780820380516001836020036101000a031916815260200191505b509250505060405180910390fd5b939250505056fe416464726573733a20696e73756666696369656e742062616c616e636520666f722063616c6c5361666545524332303a204552433230206f7065726174696f6e20646964206e6f742073756363656564a26469706673582212207ccc312e77753f468a24d393b5489d8b94c3bc90e66d44475b7b9ebc6108c55b64736f6c634300060b0033",
  "linkReferences": {},
  "deployedLinkReferences": {}
}