{
  "_format": "hh-sol-artifact-1",
  "contractName": "LQTYStaking",
  "sourceName": "contracts/LQTY/LQTYStaking.sol",
  "abi": [
    {
      "anonymous": false,
      "inputs": [
        {
          "indexed": false,
          "internalType": "address",
          "name": "_activePoolAddress",
          "type": "address"
        }
      ],
      "name": "ActivePoolAddressSet",
      "type": "event"
    },
    {
      "anonymous": false,
      "inputs": [
        {
          "indexed": false,
          "internalType": "address",
          "name": "_borrowerOperationsAddress",
          "type": "address"
        }
      ],
      "name": "BorrowerOperationsAddressSet",
      "type": "event"
    },
    {
      "anonymous": false,
      "inputs": [
        {
          "indexed": false,
          "internalType": "address",
          "name": "_account",
          "type": "address"
        },
        {
          "indexed": false,
          "internalType": "uint256",
          "name": "_amount",
          "type": "uint256"
        }
      ],
      "name": "EtherSent",
      "type": "event"
    },
    {
      "anonymous": false,
      "inputs": [
        {
          "indexed": false,
          "internalType": "uint256",
          "name": "_F_ETH",
          "type": "uint256"
        }
      ],
      "name": "F_ETHUpdated",
      "type": "event"
    },
    {
      "anonymous": false,
      "inputs": [
        {
          "indexed": false,
          "internalType": "uint256",
          "name": "_F_LUSD",
          "type": "uint256"
        }
      ],
      "name": "F_LUSDUpdated",
      "type": "event"
    },
    {
      "anonymous": false,
      "inputs": [
        {
          "indexed": false,
          "internalType": "address",
          "name": "_lqtyTokenAddress",
          "type": "address"
        }
      ],
      "name": "LQTYTokenAddressSet",
      "type": "event"
    },
    {
      "anonymous": false,
      "inputs": [
        {
          "indexed": false,
          "internalType": "address",
          "name": "_lusdTokenAddress",
          "type": "address"
        }
      ],
      "name": "LUSDTokenAddressSet",
      "type": "event"
    },
    {
      "anonymous": false,
      "inputs": [
        {
          "indexed": true,
          "internalType": "address",
          "name": "previousOwner",
          "type": "address"
        },
        {
          "indexed": true,
          "internalType": "address",
          "name": "newOwner",
          "type": "address"
        }
      ],
      "name": "OwnershipTransferred",
      "type": "event"
    },
    {
      "anonymous": false,
      "inputs": [
        {
          "indexed": true,
          "internalType": "address",
          "name": "staker",
          "type": "address"
        },
        {
          "indexed": false,
          "internalType": "uint256",
          "name": "newStake",
          "type": "uint256"
        }
      ],
      "name": "StakeChanged",
      "type": "event"
    },
    {
      "anonymous": false,
      "inputs": [
        {
          "indexed": false,
          "internalType": "address",
          "name": "_staker",
          "type": "address"
        },
        {
          "indexed": false,
          "internalType": "uint256",
          "name": "_F_ETH",
          "type": "uint256"
        },
        {
          "indexed": false,
          "internalType": "uint256",
          "name": "_F_LUSD",
          "type": "uint256"
        }
      ],
      "name": "StakerSnapshotsUpdated",
      "type": "event"
    },
    {
      "anonymous": false,
      "inputs": [
        {
          "indexed": true,
          "internalType": "address",
          "name": "staker",
          "type": "address"
        },
        {
          "indexed": false,
          "internalType": "uint256",
          "name": "LUSDGain",
          "type": "uint256"
        },
        {
          "indexed": false,
          "internalType": "uint256",
          "name": "ETHGain",
          "type": "uint256"
        }
      ],
      "name": "StakingGainsWithdrawn",
      "type": "event"
    },
    {
      "anonymous": false,
      "inputs": [
        {
          "indexed": false,
          "internalType": "uint256",
          "name": "_totalLQTYStaked",
          "type": "uint256"
        }
      ],
      "name": "TotalLQTYStakedUpdated",
      "type": "event"
    },
    {
      "anonymous": false,
      "inputs": [
        {
          "indexed": false,
          "internalType": "address",
          "name": "_troveManager",
          "type": "address"
        }
      ],
      "name": "TroveManagerAddressSet",
      "type": "event"
    },
    {
      "inputs": [],
      "name": "DECIMAL_PRECISION",
      "outputs": [
        {
          "internalType": "uint256",
          "name": "",
          "type": "uint256"
        }
      ],
      "stateMutability": "view",
      "type": "function"
    },
    {
      "inputs": [],
      "name": "F_ETH",
      "outputs": [
        {
          "internalType": "uint256",
          "name": "",
          "type": "uint256"
        }
      ],
      "stateMutability": "view",
      "type": "function"
    },
    {
      "inputs": [],
      "name": "F_LUSD",
      "outputs": [
        {
          "internalType": "uint256",
          "name": "",
          "type": "uint256"
        }
      ],
      "stateMutability": "view",
      "type": "function"
    },
    {
      "inputs": [],
      "name": "NAME",
      "outputs": [
        {
          "internalType": "string",
          "name": "",
          "type": "string"
        }
      ],
      "stateMutability": "view",
      "type": "function"
    },
    {
      "inputs": [],
      "name": "activePoolAddress",
      "outputs": [
        {
          "internalType": "address",
          "name": "",
          "type": "address"
        }
      ],
      "stateMutability": "view",
      "type": "function"
    },
    {
      "inputs": [],
      "name": "borrowerOperationsAddress",
      "outputs": [
        {
          "internalType": "address",
          "name": "",
          "type": "address"
        }
      ],
      "stateMutability": "view",
      "type": "function"
    },
    {
      "inputs": [
        {
          "internalType": "bytes32",
          "name": "c__0x7ebfe1dc",
          "type": "bytes32"
        }
      ],
      "name": "c_0x7ebfe1dc",
      "outputs": [],
      "stateMutability": "pure",
      "type": "function"
    },
    {
      "inputs": [
        {
          "internalType": "bytes32",
          "name": "c__0xafd32059",
          "type": "bytes32"
        }
      ],
      "name": "c_0xafd32059",
      "outputs": [],
      "stateMutability": "pure",
      "type": "function"
    },
    {
      "inputs": [
        {
          "internalType": "bytes32",
          "name": "c__0xe624bb7f",
          "type": "bytes32"
        }
      ],
      "name": "c_0xe624bb7f",
      "outputs": [],
      "stateMutability": "pure",
      "type": "function"
    },
    {
      "inputs": [
        {
          "internalType": "address",
          "name": "_user",
          "type": "address"
        }
      ],
      "name": "getPendingETHGain",
      "outputs": [
        {
          "internalType": "uint256",
          "name": "",
          "type": "uint256"
        }
      ],
      "stateMutability": "view",
      "type": "function"
    },
    {
      "inputs": [
        {
          "internalType": "address",
          "name": "_user",
          "type": "address"
        }
      ],
      "name": "getPendingLUSDGain",
      "outputs": [
        {
          "internalType": "uint256",
          "name": "",
          "type": "uint256"
        }
      ],
      "stateMutability": "view",
      "type": "function"
    },
    {
      "inputs": [
        {
          "internalType": "uint256",
          "name": "_ETHFee",
          "type": "uint256"
        }
      ],
      "name": "increaseF_ETH",
      "outputs": [],
      "stateMutability": "nonpayable",
      "type": "function"
    },
    {
      "inputs": [
        {
          "internalType": "uint256",
          "name": "_LUSDFee",
          "type": "uint256"
        }
      ],
      "name": "increaseF_LUSD",
      "outputs": [],
      "stateMutability": "nonpayable",
      "type": "function"
    },
    {
      "inputs": [],
      "name": "isOwner",
      "outputs": [
        {
          "internalType": "bool",
          "name": "",
          "type": "bool"
        }
      ],
      "stateMutability": "view",
      "type": "function"
    },
    {
      "inputs": [],
      "name": "lqtyToken",
      "outputs": [
        {
          "internalType": "contract ILQTYToken",
          "name": "",
          "type": "address"
        }
      ],
      "stateMutability": "view",
      "type": "function"
    },
    {
      "inputs": [],
      "name": "lusdToken",
      "outputs": [
        {
          "internalType": "contract ILUSDToken",
          "name": "",
          "type": "address"
        }
      ],
      "stateMutability": "view",
      "type": "function"
    },
    {
      "inputs": [],
      "name": "owner",
      "outputs": [
        {
          "internalType": "address",
          "name": "",
          "type": "address"
        }
      ],
      "stateMutability": "view",
      "type": "function"
    },
    {
      "inputs": [
        {
          "internalType": "address",
          "name": "_lqtyTokenAddress",
          "type": "address"
        },
        {
          "internalType": "address",
          "name": "_lusdTokenAddress",
          "type": "address"
        },
        {
          "internalType": "address",
          "name": "_troveManagerAddress",
          "type": "address"
        },
        {
          "internalType": "address",
          "name": "_borrowerOperationsAddress",
          "type": "address"
        },
        {
          "internalType": "address",
          "name": "_activePoolAddress",
          "type": "address"
        }
      ],
      "name": "setAddresses",
      "outputs": [],
      "stateMutability": "nonpayable",
      "type": "function"
    },
    {
      "inputs": [
        {
          "internalType": "address",
          "name": "",
          "type": "address"
        }
      ],
      "name": "snapshots",
      "outputs": [
        {
          "internalType": "uint256",
          "name": "F_ETH_Snapshot",
          "type": "uint256"
        },
        {
          "internalType": "uint256",
          "name": "F_LUSD_Snapshot",
          "type": "uint256"
        }
      ],
      "stateMutability": "view",
      "type": "function"
    },
    {
      "inputs": [
        {
          "internalType": "uint256",
          "name": "_LQTYamount",
          "type": "uint256"
        }
      ],
      "name": "stake",
      "outputs": [],
      "stateMutability": "nonpayable",
      "type": "function"
    },
    {
      "inputs": [
        {
          "internalType": "address",
          "name": "",
          "type": "address"
        }
      ],
      "name": "stakes",
      "outputs": [
        {
          "internalType": "uint256",
          "name": "",
          "type": "uint256"
        }
      ],
      "stateMutability": "view",
      "type": "function"
    },
    {
      "inputs": [],
      "name": "totalLQTYStaked",
      "outputs": [
        {
          "internalType": "uint256",
          "name": "",
          "type": "uint256"
        }
      ],
      "stateMutability": "view",
      "type": "function"
    },
    {
      "inputs": [],
      "name": "troveManagerAddress",
      "outputs": [
        {
          "internalType": "address",
          "name": "",
          "type": "address"
        }
      ],
      "stateMutability": "view",
      "type": "function"
    },
    {
      "inputs": [
        {
          "internalType": "uint256",
          "name": "_LQTYamount",
          "type": "uint256"
        }
      ],
      "name": "unstake",
      "outputs": [],
      "stateMutability": "nonpayable",
      "type": "function"
    },
    {
      "stateMutability": "payable",
      "type": "receive"
    }
  ],
  "bytecode": "0x608060405234801561001057600080fd5b50336000806101000a81548173ffffffffffffffffffffffffffffffffffffffff021916908373ffffffffffffffffffffffffffffffffffffffff1602179055503373ffffffffffffffffffffffffffffffffffffffff16600073ffffffffffffffffffffffffffffffffffffffff167f8be0079c531659141344cd1fd0a4f28419497f9722a3daafe3b4186f6b6457e060405160405180910390a3614929806100bb6000396000f3fe60806040526004361061014f5760003560e01c80638b9345ad116100b6578063a3f4df7e1161006f578063a3f4df7e14610712578063a694fc3a146107a2578063b08bc722146107dd578063b7f8cf9b14610834578063b83f91a21461088b578063b9bbe00f146108e25761018a565b80638b9345ad1461055c5780638da5cb5b146105c15780638f32d59b14610618578063940a71bc146106475780639beab5c014610682578063a20baee6146106e75761018a565b806334b3081f1161010857806334b3081f14610327578063400c1bec146103935780634677ffb3146103ce5780635a4d28bb146104095780635dd68acd1461046057806369b83185146105315761018a565b8063077ee4c61461018f57806316934fc4146101ba5780631e3e2a1a1461021f5780631f7af3c31461025a5780632aae575a146102b15780632e17de78146102ec5761018a565b3661018a576101807f777799550af09d03024ed469a8c87419fb5babc10a3d6c077de783553cc5b9eb60001b61090d565b610188610910565b005b600080fd5b34801561019b57600080fd5b506101a4610a94565b6040518082815260200191505060405180910390f35b3480156101c657600080fd5b50610209600480360360208110156101dd57600080fd5b81019080803573ffffffffffffffffffffffffffffffffffffffff169060200190929190505050610a9a565b6040518082815260200191505060405180910390f35b34801561022b57600080fd5b506102586004803603602081101561024257600080fd5b8101908080359060200190929190505050610ab2565b005b34801561026657600080fd5b5061026f610dbe565b604051808273ffffffffffffffffffffffffffffffffffffffff1673ffffffffffffffffffffffffffffffffffffffff16815260200191505060405180910390f35b3480156102bd57600080fd5b506102ea600480360360208110156102d457600080fd5b810190808035906020019092919050505061090d565b005b3480156102f857600080fd5b506103256004803603602081101561030f57600080fd5b8101908080359060200190929190505050610de4565b005b34801561033357600080fd5b506103766004803603602081101561034a57600080fd5b81019080803573ffffffffffffffffffffffffffffffffffffffff1690602001909291905050506117a3565b604051808381526020018281526020019250505060405180910390f35b34801561039f57600080fd5b506103cc600480360360208110156103b657600080fd5b81019080803590602001909291905050506117c7565b005b3480156103da57600080fd5b50610407600480360360208110156103f157600080fd5b81019080803590602001909291905050506117ca565b005b34801561041557600080fd5b5061041e611ad6565b604051808273ffffffffffffffffffffffffffffffffffffffff1673ffffffffffffffffffffffffffffffffffffffff16815260200191505060405180910390f35b34801561046c57600080fd5b5061052f600480360360a081101561048357600080fd5b81019080803573ffffffffffffffffffffffffffffffffffffffff169060200190929190803573ffffffffffffffffffffffffffffffffffffffff169060200190929190803573ffffffffffffffffffffffffffffffffffffffff169060200190929190803573ffffffffffffffffffffffffffffffffffffffff169060200190929190803573ffffffffffffffffffffffffffffffffffffffff169060200190929190505050611afc565b005b34801561053d57600080fd5b50610546612492565b6040518082815260200191505060405180910390f35b34801561056857600080fd5b506105ab6004803603602081101561057f57600080fd5b81019080803573ffffffffffffffffffffffffffffffffffffffff169060200190929190505050612498565b6040518082815260200191505060405180910390f35b3480156105cd57600080fd5b506105d661252e565b604051808273ffffffffffffffffffffffffffffffffffffffff1673ffffffffffffffffffffffffffffffffffffffff16815260200191505060405180910390f35b34801561062457600080fd5b5061062d612557565b604051808215151515815260200191505060405180910390f35b34801561065357600080fd5b506106806004803603602081101561066a57600080fd5b81019080803590602001909291905050506125ae565b005b34801561068e57600080fd5b506106d1600480360360208110156106a557600080fd5b81019080803573ffffffffffffffffffffffffffffffffffffffff1690602001909291905050506125b1565b6040518082815260200191505060405180910390f35b3480156106f357600080fd5b506106fc612647565b6040518082815260200191505060405180910390f35b34801561071e57600080fd5b50610727612653565b6040518080602001828103825283818151815260200191508051906020019080838360005b8381101561076757808201518184015260208101905061074c565b50505050905090810190601f1680156107945780820380516001836020036101000a031916815260200191505b509250505060405180910390f35b3480156107ae57600080fd5b506107db600480360360208110156107c557600080fd5b810190808035906020019092919050505061268c565b005b3480156107e957600080fd5b506107f261312d565b604051808273ffffffffffffffffffffffffffffffffffffffff1673ffffffffffffffffffffffffffffffffffffffff16815260200191505060405180910390f35b34801561084057600080fd5b50610849613153565b604051808273ffffffffffffffffffffffffffffffffffffffff1673ffffffffffffffffffffffffffffffffffffffff16815260200191505060405180910390f35b34801561089757600080fd5b506108a0613179565b604051808273ffffffffffffffffffffffffffffffffffffffff1673ffffffffffffffffffffffffffffffffffffffff16815260200191505060405180910390f35b3480156108ee57600080fd5b506108f761319f565b6040518082815260200191505060405180910390f35b50565b61093c7f80554d4b7a2a047669801a235f840acafc6d1f21a12214e7012bf5bd1746280b60001b61090d565b6109687f59b04ee3b4b4b4ea1ea57d7380c7be8a25686e95cc40cc530c9c87300f1c87dc60001b61090d565b6109947f37ce9c6001116a73d1006c43e094c39cbe2aeeea54a59f774601538d8e735e0160001b61090d565b6109c07f375e180ef33af0da875174fdbfa4cf43c74cb04b145daa8c405d65af59568b9660001b61090d565b600a60009054906101000a900473ffffffffffffffffffffffffffffffffffffffff1673ffffffffffffffffffffffffffffffffffffffff163373ffffffffffffffffffffffffffffffffffffffff1614610a66576040517f08c379a000000000000000000000000000000000000000000000000000000000815260040180806020018281038252602581526020018061487f6025913960400191505060405180910390fd5b610a927f75440d2fa4bee29220959f6ba22b23e47f4d89c6412037ec16c8093626546b3f60001b61090d565b565b60025481565b60016020528060005260406000206000915090505481565b610ade7f8b07a7f67832f16860327fd3ac04d5a1025ff5adbd029f494e722761ed874b8260001b61090d565b610b0a7f29aee01d65291d0661d69b11c8cd2c2925fe1e72aba271cfb9efb113ef48ab3a60001b61090d565b610b367fc169e9530e5ff9df09374ebcc4387ca9426cfdb6528d1667e5b457a65d58b8b460001b61090d565b610b3e6131a5565b610b6a7fb7e23b339285b6b4a535065ee2512622226fa9a53421d7c536dd6bf007637ae060001b61090d565b610b967f086b7e63cde05e31ced608b2855451bd01d40b2019fbc9a05f9f2ea98364ea1360001b61090d565b6000610bc47f250165a6a6569e1d7ba3efe76c50819fa9f2024291ad021cb28b534e29c8819860001b61090d565b610bf07f542e6210b4d96e8307516547316a0e559cd637717272373cccbd93a18a69ab1b60001b61090d565b60006002541115610c8957610c277f2edb1ea19622511b63e15009f3cdb22c6fd9b6d4058600db801ef0539f868b5d60001b61090d565b610c537faa808b202d17c388fa8b5e9d2d7e0248900fefd6a6aa04158d2e013fa3905b6d60001b61090d565b610c82600254610c74670de0b6b3a76400008561332990919063ffffffff16565b6133af90919063ffffffff16565b9050610cb6565b610cb57f1c2bf157e3af3125eedcaf6612557e99cd8ec4b62a763b914d795e338230b90960001b61090d565b5b610ce27f776e64f38597fa9b3c1014324ce6792052c777de1d4121a899427fc04ccb084c60001b61090d565b610d0e7f6bd33e9f274dff733a668a209ee80755c3832323b4503e9e28237ef0c384213a60001b61090d565b610d23816003546133f990919063ffffffff16565b600381905550610d557f13b12b2969c3c06abe2ffba42145358de7663c2878e0ae18e08c3b6b2a267add60001b61090d565b610d817f4dd16e97bcc068a70a556448765726202cb43d941fd6b392fb034f465529d4ee60001b61090d565b7f4c56a0cf74da9899410b818edf6758c8af9b7b3070da97d2dcb6a5b1bf96317e6003546040518082815260200191505060405180910390a15050565b600660009054906101000a900473ffffffffffffffffffffffffffffffffffffffff1681565b610e107ff8568e542a118486c47af0f14ca548419c04c875ccc3a59e0b2f6e7eeeb78dd860001b61090d565b610e3c7f210ba41fcf0e3d9943a26486aa5b1eff897f1878c111bb2c0c463486f8bc1bdb60001b61090d565b610e687fd40c9c3ba06e2612e42c6e85dde6b6b5ada6a9d7f05d4568ceee30cda3950f7b60001b61090d565b6000600160003373ffffffffffffffffffffffffffffffffffffffff1673ffffffffffffffffffffffffffffffffffffffff168152602001908152602001600020549050610ed87f383431a31ea167016647d35cd95f24adbd480233703aaac2a5379ab18f05b3f060001b61090d565b610f047f8d3fc6123976e5b4905cf83ebbcc33fc32ef2f44ad85d1f9ca595bc60deee14c60001b61090d565b610f0d81613481565b610f397f70f79b09af3e8623653b8015a6cb9e07ce6eb3390173e0b2b766006784c3e08f60001b61090d565b610f657f0c33246ab9807e573698b00f86e04bb8a4423926e53c4c4655fac65a13aa3e1460001b61090d565b6000610f70336135b9565b9050610f9e7fb9f2023ea83a636d058bb3dc8761fd90f594705d4a855f377f90d603753fcfb160001b61090d565b610fca7fc66ea5282d3afaa2d76d683a36fb3c3d1f5c20c286ff33bd9c48513a390435fc60001b61090d565b6000610fd5336137c4565b90506110037f1f3ca07245c34187aaefd3e6c42534cd74482678ebe6290e73d912e3e09233ee60001b61090d565b61102f7f465b924ba042a69e7c2905ddacfd38322e403950045f33af08d52ecf0b85d08460001b61090d565b611038336139cf565b6110647f2d4c0478985fb1f9acff0365764b8947e9389067af32f0f1366ae6a4aab825d860001b61090d565b6110907fa7fff8fbbaa5953637c48b8665384049b8c74efd68ab7f872eda88176bf538f960001b61090d565b6000841115611524576110c57f716a0771cf88d3046c10e9ef8d3a3b16471f2f382684fe0f4c913eaef39e9c0860001b61090d565b6110f17ffcbc4da568078e8ce2c771dbedfa35324241cd90d0baa015952dedb443e5f38e60001b61090d565b61111d7f65d42e9f15413decd6998692ae90e70ab7d2bf21993bf37dc7cbe67f0a346f8860001b61090d565b60006111298585613c0f565b90506111577feaa6e45bf6d058d043c6503b864b5df520a2855b02635fd28eec7d86ad54ff0d60001b61090d565b6111837f66174da6b7cc484330e58a258883af0fbcb2ea85fa1787ee042060f226be623560001b61090d565b60006111988286613cac90919063ffffffff16565b90506111c67f842fab40d144f2ddda87ee02ada892ac855cc9ef7dfd3547dc780ef74b4a9a5e60001b61090d565b6111f27f7cfae7bec6057ddf6a772ef87f880142af753b5152916b1e29a474973d4a38ff60001b61090d565b80600160003373ffffffffffffffffffffffffffffffffffffffff1673ffffffffffffffffffffffffffffffffffffffff168152602001908152602001600020819055506112627f93867ff2e5a4270fb0bd558f118e4187124a26d1e175d043991642efbe06b0e460001b61090d565b61128e7fbb0e37734bd1b3f2876a0257a1030fd92bdaff14d03d307600b07bb692615c1e60001b61090d565b6112a382600254613cac90919063ffffffff16565b6002819055506112d57fe3f7e2d7a81a98cfeb0e352ab7b622c24ecee507b6103e0294a857a3acf39b8460001b61090d565b6113017f121e6f01af5333acafe9d1ce4c01f430da4fac436cf3e49d077d4db62e7e329960001b61090d565b7f1fb085b6fe1998bfcd59bfb91fb9a84d3a3a8c63a97b2b5c43247235a5ca1df76002546040518082815260200191505060405180910390a16113667fc78d1277ad1b95acdc23e57cbdc67b133679b21229019bc5c91aca6df81428ae60001b61090d565b6113927f7f0bb364db0abba8c88125fed8370fa12c37a7bb9ef40b9b2d6d77c7d1fa26d960001b61090d565b600660009054906101000a900473ffffffffffffffffffffffffffffffffffffffff1673ffffffffffffffffffffffffffffffffffffffff1663a9059cbb33846040518363ffffffff1660e01b8152600401808373ffffffffffffffffffffffffffffffffffffffff1673ffffffffffffffffffffffffffffffffffffffff16815260200182815260200192505050602060405180830381600087803b15801561143b57600080fd5b505af115801561144f573d6000803e3d6000fd5b505050506040513d602081101561146557600080fd5b8101908080519060200190929190505050506114a37f0b7c7a69deb8ab8839a26978dfe96237c3aa1d61190062e98325512c18b42b1060001b61090d565b6114cf7f9335a2d721729c71ac84918c937d3fc127f59e32e11f8dd74f10639cf3dae2be60001b61090d565b3373ffffffffffffffffffffffffffffffffffffffff167f39df0e5286a3ef2f42a0bf52f32cfe2c58e5b0405f47fe512f2c2439e4cfe204826040518082815260200191505060405180910390a25050611551565b6115507f0b4b50860bb22bd579ac6a3d2e94e4c169eb9df166e911822e01ddbc217b80e460001b61090d565b5b61157d7fe78e0c6f6f32def6ce1751dd15d209cf54422548a04c678e89290229e643728360001b61090d565b6115a97f863271e5ed3d35fc7c110d6408a9a5239ac9db13e59095b01710c9a5239de11660001b61090d565b3373ffffffffffffffffffffffffffffffffffffffff167ff744d34ca1cb25acfa4180df5f09a67306107110a9f4b6ed99bb3be2597382158284604051808381526020018281526020019250505060405180910390a261162b7f806a7eeccfc70db148082adf2fe5993e3a253aae61cec39fd35fe085bd5588e260001b61090d565b6116577ff6f2b374e67c1e82ba6c111208ea63961eb462ec4ba312f229e299035ba8008260001b61090d565b600760009054906101000a900473ffffffffffffffffffffffffffffffffffffffff1673ffffffffffffffffffffffffffffffffffffffff1663a9059cbb33836040518363ffffffff1660e01b8152600401808373ffffffffffffffffffffffffffffffffffffffff1673ffffffffffffffffffffffffffffffffffffffff16815260200182815260200192505050602060405180830381600087803b15801561170057600080fd5b505af1158015611714573d6000803e3d6000fd5b505050506040513d602081101561172a57600080fd5b8101908080519060200190929190505050506117687fcd444a4f0dc9f7ee59a1956bd625b4e6fbb365a2500113b5440a40d480ba825b60001b61090d565b6117947f18609b1c97071cca3a806e469e6fbcdab52c34347f24775b9410b5b93b4b9c5460001b61090d565b61179d82613cf6565b50505050565b60056020528060005260406000206000915090508060000154908060010154905082565b50565b6117f67f89298037101150c6522ec42cd2158333ff8ce462b301bc46569b006b3aff4f4260001b61090d565b6118227f1691387068c9a193ec908d78e3eb71d24c875dca0972842cad207c20f0f7e3b560001b61090d565b61184e7f5a4270ba38b2e37dfb2ce993638de61ef1e9d4a2f040a696912b983d75949b5960001b61090d565b611856613fb0565b6118827f93bca45f9de1f14cce7e1f5b48ec6510b1843a46fe38fdf3601e20d5691ed8ed60001b61090d565b6118ae7f349f75685c8bb7b9090077525b2ede2b57eecbb9a3996796323b1f3add87826e60001b61090d565b60006118dc7f54eb7ea90b949952af85131158909d88cb5be01046c22619679897db1123d18f60001b61090d565b6119087f3d459130ee1e5799a11d7c327de1a5e5b34eab06a763a4dee4048bfe5cf1606560001b61090d565b600060025411156119a15761193f7fa45a62ad1c7475bb49622f637915dd49cf32aec6ba3fa3ce4b8ae3c9240acebb60001b61090d565b61196b7fc4d45ad37ca3258bee4f608c1749075f434bbb1fb7946878fae5e803bc44958960001b61090d565b61199a60025461198c670de0b6b3a76400008561332990919063ffffffff16565b6133af90919063ffffffff16565b90506119ce565b6119cd7f62eeef37d5d1613a1fb2d48b7df0335d1b396950e05a0a69ba30757a0380dd3f60001b61090d565b5b6119fa7fcef38e51d4cd56cbbbe62bb54221163a089004856e2818ea4a777c26d37f317460001b61090d565b611a267f8b5da3412f824bc944a9907d8693e993c25004e531c621f547e103f92ba4661a60001b61090d565b611a3b816004546133f990919063ffffffff16565b600481905550611a6d7fe13cfd024f3a23f67ab68b4745db63d937eae7c51660cbd10b6222076a7a499560001b61090d565b611a997fa9ce55956204bfa4e854604c8a672377d3d52f20699373b924f13827b44d237d60001b61090d565b7fdc043c079acfe2ef669592e1598aa8f95877fa0ba0e91d06c214a9f73d3521f96004546040518082815260200191505060405180910390a15050565b600860009054906101000a900473ffffffffffffffffffffffffffffffffffffffff1681565b611b04612557565b611b76576040517f08c379a00000000000000000000000000000000000000000000000000000000081526004018080602001828103825260208152602001807f4f776e61626c653a2063616c6c6572206973206e6f7420746865206f776e657281525060200191505060405180910390fd5b611ba27fe91781faa0e8141c3c6e3d2a848f3731ec4d8ca0a96e640203a4a6071324da5b60001b61090d565b611bce7f7d34c37a927eaff3068fa3ece90bd130a78f97a80c22e002c5e6535792cea53b60001b61090d565b611bfa7fcbbd476cb4dc1a50553828e919d9a856678e57a462aad4ff9a0b616f19cfa9ad60001b61090d565b611c0385614134565b611c2f7ffbd9698b4a4e42584336dd29210ee02f4eebbd855a384ba638523400d411d3dd60001b61090d565b611c5b7f4c2173dc64832a8038ff0fd971b021e24f9e4386f8fdf6dd9a7485c38e5bffea60001b61090d565b611c6484614134565b611c907f4322d5fa6cf9e7a7f4fe53c7a60cd70b0d21ffce840d6bb098f57ea95f0197f260001b61090d565b611cbc7f4e88387f9579618d2e5e4a4a47e25ee1a01d639cb757fcead758e4e1f137d9b760001b61090d565b611cc583614134565b611cf17ff1022e0ae11b7e1281051d4fa95ac83abcf262c9249c0bb370ad3316c717f0e360001b61090d565b611d1d7f0db95dca3347099d9e4d566f41862d0438ce8478a2c7effe85e36cadb6e65a3960001b61090d565b611d2682614134565b611d527fd037b21e212b2bc76bba865a6cd49221bb572592c5fb32da440c99ea0b4a965a60001b61090d565b611d7e7f4d810fc13b0395cfce05e9286bd29b2c2da696d2385f771af798c3a955706d8b60001b61090d565b611d8781614134565b611db37f5c6c391f3419e1530c85c04f256af02ac0a7ef1af3066593335fcaaa6372b0f160001b61090d565b611ddf7fcad942afda19aeeeacc4af186688a3a2b82bb935dff10f4ab1c8ba0a141f35b760001b61090d565b84600660006101000a81548173ffffffffffffffffffffffffffffffffffffffff021916908373ffffffffffffffffffffffffffffffffffffffff160217905550611e4c7fff6f2ff2891a91322a4adb7b11ba560edf53c07ce29f6c3a4fbbf10d1363a2c960001b61090d565b611e787fbdb370932c607b5054e3ad2d63f8630fb5f493f70dd6138a1ec30f27c9e8a57260001b61090d565b83600760006101000a81548173ffffffffffffffffffffffffffffffffffffffff021916908373ffffffffffffffffffffffffffffffffffffffff160217905550611ee57fd52cd7cbb26db92264c329aff51f091da4d402d52dd1ff7ab4c0431b970aeb3760001b61090d565b611f117f63a593e9efb71fa3a5b24483b59a1faae1e06783ca1b56c41fa017149e3e1ce760001b61090d565b82600860006101000a81548173ffffffffffffffffffffffffffffffffffffffff021916908373ffffffffffffffffffffffffffffffffffffffff160217905550611f7e7fdc8ef3380ff273c2653de11d085df6e95e288cf4f89205c222a2b52246bd054a60001b61090d565b611faa7f669076081a5a2b1ab111c4c8a80a696bc5d2432ba6eabee3cf405ef4dcbf6cf760001b61090d565b81600960006101000a81548173ffffffffffffffffffffffffffffffffffffffff021916908373ffffffffffffffffffffffffffffffffffffffff1602179055506120177f83c24a9a4c605d8a785223e8f31709cc648825fcdaac166fb82e9193eb31702760001b61090d565b6120437facb5ab8dc39aebc46e567ac61de98d6fce8c7a552972b6405ee72fbefa8962a560001b61090d565b80600a60006101000a81548173ffffffffffffffffffffffffffffffffffffffff021916908373ffffffffffffffffffffffffffffffffffffffff1602179055506120b07f66fcfaa62f0e63fa2e0a58262316e8aefae294256a627e98cca63c4ca9aacb7760001b61090d565b6120dc7f0b6af6d40d22affc0c9b21a2518803c47b30ae43cffca754013c14ca47a2821860001b61090d565b7fb0c89119a7c10e4c2d02306921ba368ac83d0e4b302337916017485c2791bec585604051808273ffffffffffffffffffffffffffffffffffffffff1673ffffffffffffffffffffffffffffffffffffffff16815260200191505060405180910390a161216b7fbd081ccadfc74495b048596636907af3d06018e39d9a0a7c21817e614a0d191660001b61090d565b6121977ff0b38d9313ac5eb6d8e690529df6607b23e7beb08742ec81e3c7d4254676add360001b61090d565b7fb0c89119a7c10e4c2d02306921ba368ac83d0e4b302337916017485c2791bec584604051808273ffffffffffffffffffffffffffffffffffffffff1673ffffffffffffffffffffffffffffffffffffffff16815260200191505060405180910390a16122267fbc92e566d5719717c0183f8407da36ae985dbd6329f82de1695064c38f1247cf60001b61090d565b6122527f478f9ad0e3e1b24aa154083a7d66dcfd66e9962e5b42afc528fca2ff36cf77ce60001b61090d565b7f41097dcc1f7cbd663d822443d7972f05b04f71918b30fe9fc59dd6e42e22806083604051808273ffffffffffffffffffffffffffffffffffffffff1673ffffffffffffffffffffffffffffffffffffffff16815260200191505060405180910390a16122e17f55709e138405c6b569e388d7d9eae3e15f17ceb77ac051206b4a08f44b3d029c60001b61090d565b61230d7f7be70be4cfdaab2938e7ba9cfec3546eb4cc174dec19041415aa0699955c73e160001b61090d565b7f5962f8af633c4df1ab230096f773a514ee5adf7785c621ecdcdb764cb7f6e39182604051808273ffffffffffffffffffffffffffffffffffffffff1673ffffffffffffffffffffffffffffffffffffffff16815260200191505060405180910390a161239c7f79769419b6392dc90b985151a2cd3c08f5d48d755b54c86e25e163d03d3b272660001b61090d565b6123c87fb8bc4f353e0c33f161fa643319d0b1dc6d374f6c7d068e4f8f2635cd8cd9e67560001b61090d565b7f8f6a6e7d20a3233e0a79883272259ffbd7a243734e397bc2b4642c79d7fa8a6d81604051808273ffffffffffffffffffffffffffffffffffffffff1673ffffffffffffffffffffffffffffffffffffffff16815260200191505060405180910390a16124577f131b89782bb0872f5cefbffe9cb0e3865bc3db9dcb0d0811d4e35c3f94507deb60001b61090d565b6124837f55f0ce2fe892d069ccc01e7f03e6e28ad9fc02d1d3ff2d73694c3c676f2560e760001b61090d565b61248b614467565b5050505050565b60045481565b60006124c67f0c21faf521ce75c1f24abd55e8f73531434d95363bdcbf06e17fdc708a9b1b9860001b61090d565b6124f27f03cd527f5a95549fe7da12f2bc8b20032f59be3e0781798973bd52c4daed67b460001b61090d565b61251e7fe2a1ba9915084a8494e2ecc5a15a14531d2c26afc67564b0d34fae3ffc73842b60001b61090d565b612527826135b9565b9050919050565b60008060009054906101000a900473ffffffffffffffffffffffffffffffffffffffff16905090565b60008060009054906101000a900473ffffffffffffffffffffffffffffffffffffffff1673ffffffffffffffffffffffffffffffffffffffff163373ffffffffffffffffffffffffffffffffffffffff1614905090565b50565b60006125df7fa8a93183acfa15d3dac28a0bb94ebe4b57d267f7bc3baa277b4d6dbdf49804c660001b61090d565b61260b7feda5eca2f4a7f5b7c7463366dd84a65fe7c3c6ba0dddda906725adf2b8decdb760001b61090d565b6126377fbe41ab6e99dd6b8ed873a91a922fca9a546438063ca7725c0e20a4cc39b5e89460001b61090d565b612640826137c4565b9050919050565b670de0b6b3a764000081565b6040518060400160405280600b81526020017f4c5154595374616b696e6700000000000000000000000000000000000000000081525081565b6126b87fa45b87a85f5b2eb8ba2bc86fecdcbd3b755c635636141fc6bf5353bb5e1af22e60001b61090d565b6126e47f6142d55dc912db0103b731448525a6848a453e6d5f5a3a14b8af20a76d17026460001b61090d565b6127107feb8e2c3ce0984c9f6e431a3074d18fcb45be5068db90d3cdb07f1c007fff528b60001b61090d565b61271981614526565b6127457f323da7d520bf65759c7cee6f32a4fc99f8192bb743efa653e8abdabcb52f55d160001b61090d565b6127717fee63540ad67a0dacca87c8a2c68e97c7c859003f763d655134dcda3c09c428f960001b61090d565b6000600160003373ffffffffffffffffffffffffffffffffffffffff1673ffffffffffffffffffffffffffffffffffffffff1681526020019081526020016000205490506127e17ffc680f8c5c8a718fb86a1b2b1b7a857a13ddcb7d2003483ace1aa4b30ba84c9e60001b61090d565b61280d7f340653d4a86328ec5bfe6e13e0a62d36ef27c462046ed9a4f5ac175a460250e060001b61090d565b600061283b7f40ba82017d56b15feba2ff11f385603019e6eb93f1b676c3ea6a400191c4ce6c60001b61090d565b6128677fc566436e619a1d1bd96af7c28dc99bfc606cc2a982a7c1ae3feab2dbb4a908f560001b61090d565b60006128957f7136622a4efcf73fda2e9f95798d70ec80de1f03b9340798562d56821d780de960001b61090d565b6128c17fa2ce3ae9e41e6a94c329fe5710b3ef01b77d04e36f2e0c31e5f6f8b9a20bd09e60001b61090d565b600083146129c0576128f57f8cfbd63baf328c9d8798a99f868742157ebf80018d663b924dcd1ff256c1555560001b61090d565b6129217fcb6e99cd12bb9a937791605651c9554b8acc64f0b5a2b34ba6655ad442b2032360001b61090d565b61294d7fd3a8f4246baee39991eb45dcf5de346e8c805fca77a9e134fb44fe14378a57e160001b61090d565b612956336135b9565b91506129847f1c5afbce060e523920669de04be9fff367a48d35409183b9471c50ef5fb18ce860001b61090d565b6129b07f679baeb4c006544be5a78688b45939c8b12bae162f780553d1af7dad665ab85860001b61090d565b6129b9336137c4565b90506129ed565b6129ec7f6d9af18ddc95e350ac54c2d79170dc4f5850c1f27a4a55f9be8647eb84f3046f60001b61090d565b5b612a197f782227b5a35ce33ed58a86e79ee3f5a74fc7471e1fdbff183ac6333f77b46d1d60001b61090d565b612a457f7fda34f8f204fab1de966442d5ea0023085f274baf4344c97e913bedd521009760001b61090d565b612a4e336139cf565b612a7a7f22a3a4e9d608f16d668eaf989e7bf737246f6be9828e06e9084b0538f72fdcbe60001b61090d565b612aa67f060bc34ab825263864eff25e9ed1ddd555476004c0e81b66ce981021dded7a1460001b61090d565b6000612abb85856133f990919063ffffffff16565b9050612ae97f404ccc477cd9233be836a659a8a9a7b4879ae325804730a33a6d8004c5c11aa760001b61090d565b612b157ffcb36d768eb74e931196977659680d691c63402a32c3782f92a9565fd5dcf38860001b61090d565b80600160003373ffffffffffffffffffffffffffffffffffffffff1673ffffffffffffffffffffffffffffffffffffffff16815260200190815260200160002081905550612b857f05463d96bbc9f17a5a937b9adde05a663494dd27551f904a57804fe16eb56afe60001b61090d565b612bb17f5138e3dbbe6764bae1810640fba803c381733746dcbfa76d36303580c1c704af60001b61090d565b612bc6856002546133f990919063ffffffff16565b600281905550612bf87fc1652132b57800c6bbae675deb04bf360da2d3b28d08f12e278a38d67796c7b060001b61090d565b612c247f9ed978dc2e35e63854ddcdcc17fe821f2e4ce6e277c8720f4fe75f94d2fc2f8d60001b61090d565b7f1fb085b6fe1998bfcd59bfb91fb9a84d3a3a8c63a97b2b5c43247235a5ca1df76002546040518082815260200191505060405180910390a1612c897f7de6ddfd0790d53a8d1548da2eb9a9bb70d286baed688466da00adaeb93e9aec60001b61090d565b612cb57f82420f5c982b570883724007043740f62c76096b47a6753bd55c1a23e44438f860001b61090d565b600660009054906101000a900473ffffffffffffffffffffffffffffffffffffffff1673ffffffffffffffffffffffffffffffffffffffff1663f3a2568b33876040518363ffffffff1660e01b8152600401808373ffffffffffffffffffffffffffffffffffffffff1673ffffffffffffffffffffffffffffffffffffffff16815260200182815260200192505050600060405180830381600087803b158015612d5e57600080fd5b505af1158015612d72573d6000803e3d6000fd5b50505050612da27f9339cb0ea424c69be1cee8dc6be52e623bc199894e6a95fbfcd69f86d15e24cd60001b61090d565b612dce7f33c2d67884826a08e7a46411efb4ef56366ac79a2195d2e73cfd7e0786f0ee0960001b61090d565b3373ffffffffffffffffffffffffffffffffffffffff167f39df0e5286a3ef2f42a0bf52f32cfe2c58e5b0405f47fe512f2c2439e4cfe204826040518082815260200191505060405180910390a2612e487f948b81b100a1e34d9c281b64d89b1a6036db3cc4e1ba356842f612c36ba6c51360001b61090d565b612e747fd3ed0786b4a5f350909fa7f01393405480d35064c5800d9804ae125c3ea6229960001b61090d565b3373ffffffffffffffffffffffffffffffffffffffff167ff744d34ca1cb25acfa4180df5f09a67306107110a9f4b6ed99bb3be2597382158385604051808381526020018281526020019250505060405180910390a2612ef67f2c135e4f0be757b628c38c7fd7d2ba76a2a55bf28ce4159e742bde436c513f7760001b61090d565b612f227ffee3c07020585d4259658f8bc8c77f622f98dc8eea4da69826c19d7367fcab4660001b61090d565b600084146130f957612f567fe41289739bb1be121720e38a78a46b277d68910123e038068831783b55dbe57860001b61090d565b612f827f21807df8d8c90e04dc272e36db0ca36ed86c160b40d91370c42cabb7da6f476760001b61090d565b612fae7fccdeabef3da9fdb3dece196da656ac6ae84af0fb81799b5c9ac3f5eb561ee2dd60001b61090d565b600760009054906101000a900473ffffffffffffffffffffffffffffffffffffffff1673ffffffffffffffffffffffffffffffffffffffff1663a9059cbb33846040518363ffffffff1660e01b8152600401808373ffffffffffffffffffffffffffffffffffffffff1673ffffffffffffffffffffffffffffffffffffffff16815260200182815260200192505050602060405180830381600087803b15801561305757600080fd5b505af115801561306b573d6000803e3d6000fd5b505050506040513d602081101561308157600080fd5b8101908080519060200190929190505050506130bf7fc81a45796d622a003f435d6a03639ce62ba17287343acac070120e4bea5657b960001b61090d565b6130eb7f790e357e632ea48bcd0e768bff4c0ab690d0296e562baf6559fac92411d34e9660001b61090d565b6130f483613cf6565b613126565b6131257f9715c6b57263be4853e05b364eb039c65312189979ae9f1862d4d125bd5a347760001b61090d565b5b5050505050565b600a60009054906101000a900473ffffffffffffffffffffffffffffffffffffffff1681565b600960009054906101000a900473ffffffffffffffffffffffffffffffffffffffff1681565b600760009054906101000a900473ffffffffffffffffffffffffffffffffffffffff1681565b60035481565b6131d17f5e2ed0003c348610462353c757f13699b969c744230e368b398849e338571f4760001b61090d565b6131fd7f74b7bf0c865c577cac001bcdf6837c3fc1f71954df318a8bf4cab294c035c79860001b61090d565b6132297ffb708dc65e9f963709bd3da7f440267d8fd291d85ab9762562f82a843fbcd09e60001b61090d565b6132557ff56de37aedb2de289369e0bbb32866e8e1fc9a682cf0400d7cc77b54d187d3b260001b61090d565b600860009054906101000a900473ffffffffffffffffffffffffffffffffffffffff1673ffffffffffffffffffffffffffffffffffffffff163373ffffffffffffffffffffffffffffffffffffffff16146132fb576040517f08c379a00000000000000000000000000000000000000000000000000000000081526004018080602001828103825260218152602001806148a46021913960400191505060405180910390fd5b6133277f1568b807d73e21820ccfd22721173a5817394656cac2ded08dd8b1bfdc966d5060001b61090d565b565b60008083141561333c57600090506133a9565b600082840290508284828161334d57fe5b04146133a4576040517f08c379a000000000000000000000000000000000000000000000000000000000815260040180806020018281038252602181526020018061485e6021913960400191505060405180910390fd5b809150505b92915050565b60006133f183836040518060400160405280601a81526020017f536166654d6174683a206469766973696f6e206279207a65726f00000000000081525061465e565b905092915050565b600080828401905083811015613477576040517f08c379a000000000000000000000000000000000000000000000000000000000815260040180806020018281038252601b8152602001807f536166654d6174683a206164646974696f6e206f766572666c6f77000000000081525060200191505060405180910390fd5b8091505092915050565b6134ad7fd17f6b287953467678c9cda52ad972ae0e4b7a84d0b3e0802355b8763c7f3a3b60001b61090d565b6134d97f24f2942a595a3993223916a4f35879d4c54fd87173730de5e93557daff29f26f60001b61090d565b6135057fe45def4e5635907a2904392e5a181d39a000dc06d48744c723baf0d7222942db60001b61090d565b6135317fcb52b980a9850c0abd0b12e22d33e2343ce94e223f475d5323f6bc405d88fed060001b61090d565b6000811161358a576040517f08c379a000000000000000000000000000000000000000000000000000000000815260040180806020018281038252602c81526020018061480c602c913960400191505060405180910390fd5b6135b67f4c00a28401a46cb07cb15828d5c32dcf83e18f9a48968203785293056ba4dfc860001b61090d565b50565b60006135e77fd216259e72bfdc9ba5bc6e5723c388bafb706e8e125af2540905e34b390124a760001b61090d565b6136137fe810ef813cb6a83a8d2f5d17e33d6525600099f4b47d64f0a638735b8c90cd8460001b61090d565b61363f7ff77116aba293774054557db7260deb1b8e96848bd50fad33cc9d3337222a555860001b61090d565b6000600560008473ffffffffffffffffffffffffffffffffffffffff1673ffffffffffffffffffffffffffffffffffffffff1681526020019081526020016000206000015490506136b27f73fa4a1da5c2076e5922ef917394fd5d2e1888156f2864ea5ea80dcf4b6608a860001b61090d565b6136de7f9f886b9983c1d4b1841ad527689acc2f400dcdbcc6f8f77e5e18b61b31c5563f60001b61090d565b6000613760670de0b6b3a764000061375261370485600354613cac90919063ffffffff16565b600160008973ffffffffffffffffffffffffffffffffffffffff1673ffffffffffffffffffffffffffffffffffffffff1681526020019081526020016000205461332990919063ffffffff16565b6133af90919063ffffffff16565b905061378e7fbd01f458cb845f13fce10f1cc51fa8e7e9d1e9aaec9d8e8b96c99b14ac18279c60001b61090d565b6137ba7ffe9154a42ab38e02ed7e4079bd520333c772364a39674235f08e03c63ac583f760001b61090d565b8092505050919050565b60006137f27fa4129f965e206c2f5ab61c356e96cc7886d896ee6b7f4d69536421aa8af4049460001b61090d565b61381e7fcb601079509828a935bfb54afb5087ccbc9021018916125690faa9494688b75a60001b61090d565b61384a7f597aaaef2e845a70b0cdb5ef5366afff189872d2c8c99efd9d34031823e9008960001b61090d565b6000600560008473ffffffffffffffffffffffffffffffffffffffff1673ffffffffffffffffffffffffffffffffffffffff1681526020019081526020016000206001015490506138bd7f63d39fb6377f8100901526e449b522ed3591ef5c2347db6c9f4885a7e5aa3fe760001b61090d565b6138e97f9bed40d4765f0818e7ff2f15a84edc5a32e6ba58bced18b76645c37788ba94e160001b61090d565b600061396b670de0b6b3a764000061395d61390f85600454613cac90919063ffffffff16565b600160008973ffffffffffffffffffffffffffffffffffffffff1673ffffffffffffffffffffffffffffffffffffffff1681526020019081526020016000205461332990919063ffffffff16565b6133af90919063ffffffff16565b90506139997ffd55d8066c3d0e92f40a6c6d9133c7d7360cc11e1d88a661e54d81f8ebb5413760001b61090d565b6139c57f4adb7fabc15ea0df560d2ac74919f62387720a62ebe0b49d4f9065881b49dc1260001b61090d565b8092505050919050565b6139fb7fc01826c72f15ac694c7962cce1af62d4c8541b53c35a056c0c5fb6dc80ae611760001b61090d565b613a277f70962cb609068768030f8774e1f67745b46b747940a8530bbced61a3f8ab21c660001b61090d565b613a537f21e2c7a3e15f981d85fa665d4079c6225f1b85b6f9dee2064746b6b59bc29b7f60001b61090d565b600354600560008373ffffffffffffffffffffffffffffffffffffffff1673ffffffffffffffffffffffffffffffffffffffff16815260200190815260200160002060000181905550613ac87ff36d732cf9a5753e2462e8b4a58a98851a3b7b94dfd54a218e1c8ce808f5920d60001b61090d565b613af47fd6e9c2def079b91b153b3a519a4fbf95ad1048f702ef6bc8834bde62bf112b3260001b61090d565b600454600560008373ffffffffffffffffffffffffffffffffffffffff1673ffffffffffffffffffffffffffffffffffffffff16815260200190815260200160002060010181905550613b697f13bd5ac7c4fbdd6a31cc7e7ff621332dfe07f51326f6b2bfbde453fcb440e27b60001b61090d565b613b957f0e4e948d09b3964116cebf76467564276c04f7dc1eacd68e586807d7b49ab98b60001b61090d565b7f6b5cf27595af4428271524e0a5abd2b63f6fee1a61e31970490f5a10e257a1cd81600354600454604051808473ffffffffffffffffffffffffffffffffffffffff1673ffffffffffffffffffffffffffffffffffffffff168152602001838152602001828152602001935050505060405180910390a150565b6000613c3d7f47d1f47bc050b9504bdb99b9bb5b4ef650bd54eba129f8f462ba53eeb800e1aa60001b614724565b613c697f8bd1b7c6f317176e126becf0775e874110a4f4c3632da3308f1b96d29114d76f60001b614724565b613c957f306334dc7786218d10d6d1fbfce931f8906c3249c067df2bd86b69566eb3362460001b614724565b818310613ca25781613ca4565b825b905092915050565b6000613cee83836040518060400160405280601e81526020017f536166654d6174683a207375627472616374696f6e206f766572666c6f770000815250614727565b905092915050565b613d227fcfcd8ef9ba83783d0b0c7737422ca9de292208122b81a2ec86e97d25c007000160001b61090d565b613d4e7fbea64b630af53c1c827a0965ac35b77e24c327f7a500e8c60fd60d8321bcffd560001b61090d565b613d7a7fed295f4efe8838198a8aa8d00c36d74827122ee66fe1984322c61038595ed69460001b61090d565b7f6109e2559dfa766aaec7118351d48a523f0a4157f49c8d68749c8ac41318ad123382604051808373ffffffffffffffffffffffffffffffffffffffff1673ffffffffffffffffffffffffffffffffffffffff1681526020018281526020019250505060405180910390a1613e117f0a0233d76c6c185fade0814483bba703f3443e30105c51a45512a8a1962ec34860001b61090d565b613e3d7fb2e823de97000516eec467b38f2dbb826d4fb0803ff82ebaf472f61779e2b0b260001b61090d565b60003373ffffffffffffffffffffffffffffffffffffffff168260405180600001905060006040518083038185875af1925050503d8060008114613e9d576040519150601f19603f3d011682016040523d82523d6000602084013e613ea2565b606091505b50509050613ed27ff2ff92b969fb9db19abd3feb2d3cb745b6db44302228235a5dedfe4b625f226760001b61090d565b613efe7fa66ff6d2325b0c6e07479fa46851b0f5582473e114a411f6618edc45c192a54360001b61090d565b613f2a7f2b8f7cd4aa9326765a8db50f3c1e7c9b9e1e7391c6d2545e4dbdd7efead3369060001b61090d565b80613f80576040517f08c379a000000000000000000000000000000000000000000000000000000000815260040180806020018281038252602f8152602001806148c5602f913960400191505060405180910390fd5b613fac7f2ad9f79051056bc304fb6f1141b0c0824cee41e2a8cff16c18305338f6a23b7260001b61090d565b5050565b613fdc7f4ea164407b1dcbbd93a5824b91bf316593a481bab584055a8b736f3278d41f6960001b61090d565b6140087f53ec8df9238c630586341484efea3931e17d9a1b7b7e8de108b86f9ab023876a60001b61090d565b6140347f4f7b714ad182e160f644cf43e11802c6cec53bc1a55664031b69412f934fc4ca60001b61090d565b6140607f1c489a6567a90542975e6af32878e1b3c420f94e7a8825b9101d75ffdb28bc8d60001b61090d565b600960009054906101000a900473ffffffffffffffffffffffffffffffffffffffff1673ffffffffffffffffffffffffffffffffffffffff163373ffffffffffffffffffffffffffffffffffffffff1614614106576040517f08c379a00000000000000000000000000000000000000000000000000000000081526004018080602001828103825260268152602001806148386026913960400191505060405180910390fd5b6141327fb70561c7a2874aaebbbbc859926b82c2f29a223d26da7ac5b973faf651ce82c860001b61090d565b565b6141607f35bc9e5e61c1438a006153cf69ffd6105766a3055440d22f6c8ce219146d68af60001b6125ae565b61418c7fe66c045f45b868efda896f2af22ed71637a4e9e8d13a2b1962badf362ba3eeb960001b6125ae565b6141b87faaa4b517f253b4fa37cb2875514a22e04e7d5828c244c7095a27e85408ccd12c60001b6125ae565b6141e47f1221da0bd0f16fcbee175d4dae7d6b598e327e79264e77ced4c93a6a0721871b60001b6125ae565b600073ffffffffffffffffffffffffffffffffffffffff168173ffffffffffffffffffffffffffffffffffffffff161415614287576040517f08c379a000000000000000000000000000000000000000000000000000000000815260040180806020018281038252601e8152602001807f4163636f756e742063616e6e6f74206265207a65726f2061646472657373000081525060200191505060405180910390fd5b6142b37f09f0dc62d572b9e8dd242a1b7e25c3c5de1610d6c480bec35912dd5840f55fec60001b6125ae565b6142df7fbe74447fdea037b64141768df2430eb2b7113bef949c88d88dcdc549ba88703360001b6125ae565b61430b7f04e66872d3f4c69728dfe545a06401e1b17e0f9dd5e1d43290514ae4fd92783060001b6125ae565b60006143397f60826eea4af75abd2223d108cb037485a60c485e699a12a42cac24982b89800660001b6125ae565b813b90506143697f7acec79ba6fd0be7bb4b2bfca56ca8eb3d8333d64e828971ccb7647facc3806360001b6125ae565b6143957f0c7e0405db301404f844860b9fe6e14e956a97134ff8695c88184f1c957d6e0860001b6125ae565b6143c17f1c5a94c5a5d640e17d84bedbf9409c7f8afe563c4b1fceef7bced5961764ee0f60001b6125ae565b60008111614437576040517f08c379a00000000000000000000000000000000000000000000000000000000081526004018080602001828103825260208152602001807f4163636f756e7420636f64652073697a652063616e6e6f74206265207a65726f81525060200191505060405180910390fd5b6144637f1023f03b6261b194c29dee3596b0d25a3be14b60910a1d249d0177db54f54c4a60001b6125ae565b5050565b600073ffffffffffffffffffffffffffffffffffffffff166000809054906101000a900473ffffffffffffffffffffffffffffffffffffffff1673ffffffffffffffffffffffffffffffffffffffff167f8be0079c531659141344cd1fd0a4f28419497f9722a3daafe3b4186f6b6457e060405160405180910390a360008060006101000a81548173ffffffffffffffffffffffffffffffffffffffff021916908373ffffffffffffffffffffffffffffffffffffffff160217905550565b6145527f4bbfa9cb7093cb3797fa773540f94b5ab763e7550ffc2fdcbdba941647e72f6760001b61090d565b61457e7f124e7a1c261b90b25ccdfa11809bc2fb5d0f8a65787f410b7533ae9f3eff4e4060001b61090d565b6145aa7fb0c4b33e861d175e01fef761e45de144995b60dba331dc3c23227f81abf6fbc560001b61090d565b6145d67fd22da59366f2043c3690a510b644b2eeb90fb880c8c5fbf7217e00330758b7e360001b61090d565b6000811161462f576040517f08c379a00000000000000000000000000000000000000000000000000000000081526004018080602001828103825260248152602001806147e86024913960400191505060405180910390fd5b61465b7fb771e98374452d527cc6cd11cb7663c5bdabbe4a9c4949681e527b4bb17ded8460001b61090d565b50565b6000808311829061470a576040517f08c379a00000000000000000000000000000000000000000000000000000000081526004018080602001828103825283818151815260200191508051906020019080838360005b838110156146cf5780820151818401526020810190506146b4565b50505050905090810190601f1680156146fc5780820380516001836020036101000a031916815260200191505b509250505060405180910390fd5b50600083858161471657fe5b049050809150509392505050565b50565b60008383111582906147d4576040517f08c379a00000000000000000000000000000000000000000000000000000000081526004018080602001828103825283818151815260200191508051906020019080838360005b8381101561479957808201518184015260208101905061477e565b50505050905090810190601f1680156147c65780820380516001836020036101000a031916815260200191505b509250505060405180910390fd5b506000838503905080915050939250505056fe4c5154595374616b696e673a20416d6f756e74206d757374206265206e6f6e2d7a65726f4c5154595374616b696e673a2055736572206d75737420686176652061206e6f6e2d7a65726f207374616b654c5154595374616b696e673a2063616c6c6572206973206e6f7420426f72726f7765724f7073536166654d6174683a206d756c7469706c69636174696f6e206f766572666c6f774c5154595374616b696e673a2063616c6c6572206973206e6f7420416374697665506f6f6c4c5154595374616b696e673a2063616c6c6572206973206e6f742054726f76654d4c5154595374616b696e673a204661696c656420746f2073656e6420616363756d756c61746564204554484761696ea264697066735822122012d8aa308e32ba98f87e4e94a782df890fc2ab9afd4d1df2fb28468b2253251764736f6c634300060b0033",
  "linkReferences": {},
  "deployedLinkReferences": {}
}