{
  "_format": "hh-sol-artifact-1",
  "contractName": "LQTYStakingScript",
  "sourceName": "contracts/Proxy/LQTYStakingScript.sol",
  "abi": [
    {
      "inputs": [
        {
          "internalType": "address",
          "name": "_lqtyStakingAddress",
          "type": "address"
        }
      ],
      "stateMutability": "nonpayable",
      "type": "constructor"
    },
    {
      "inputs": [
        {
          "internalType": "bytes32",
          "name": "c__0xab3d6ed9",
          "type": "bytes32"
        }
      ],
      "name": "c_0xab3d6ed9",
      "outputs": [],
      "stateMutability": "pure",
      "type": "function"
    },
    {
      "inputs": [
        {
          "internalType": "bytes32",
          "name": "c__0xafd32059",
          "type": "bytes32"
        }
      ],
      "name": "c_0xafd32059",
      "outputs": [],
      "stateMutability": "pure",
      "type": "function"
    },
    {
      "inputs": [
        {
          "internalType": "uint256",
          "name": "_LQTYamount",
          "type": "uint256"
        }
      ],
      "name": "stake",
      "outputs": [],
      "stateMutability": "nonpayable",
      "type": "function"
    }
  ],
  "bytecode": "0x60a060405234801561001057600080fd5b506040516107463803806107468339818101604052602081101561003357600080fd5b81019080805190602001909291905050506100767faad0953b7d76114812c78f8eb562c2a20d11c56aa92ccc0929e7a56cd52d45a760001b61018a60201b60201c565b6100a87ff2c13fcb7cf433b4d800b8838dc0a2399d74f6b62b07b31c35eb83ee2e20a5a960001b61018a60201b60201c565b6100da7f4c4b84b8ddd73280b7c6e22dce81d4c68b4e355b1483c80f5df40181d3c241b760001b61018a60201b60201c565b6100e98161018d60201b60201c565b61011b7f3928397b85eec3c3d1b33695526fa0c57186e5844c61088722fabc3b7f03334560001b61018a60201b60201c565b61014d7f227a8e604f9a817d0a3f67e68ded8afee617da998bfdb12137b3e3edd8d8ffb960001b61018a60201b60201c565b8073ffffffffffffffffffffffffffffffffffffffff1660808173ffffffffffffffffffffffffffffffffffffffff1660601b815250505061050b565b50565b6101bf7f35bc9e5e61c1438a006153cf69ffd6105766a3055440d22f6c8ce219146d68af60001b61050860201b60201c565b6101f17fe66c045f45b868efda896f2af22ed71637a4e9e8d13a2b1962badf362ba3eeb960001b61050860201b60201c565b6102237faaa4b517f253b4fa37cb2875514a22e04e7d5828c244c7095a27e85408ccd12c60001b61050860201b60201c565b6102557f1221da0bd0f16fcbee175d4dae7d6b598e327e79264e77ced4c93a6a0721871b60001b61050860201b60201c565b600073ffffffffffffffffffffffffffffffffffffffff168173ffffffffffffffffffffffffffffffffffffffff1614156102f8576040517f08c379a000000000000000000000000000000000000000000000000000000000815260040180806020018281038252601e8152602001807f4163636f756e742063616e6e6f74206265207a65726f2061646472657373000081525060200191505060405180910390fd5b61032a7f09f0dc62d572b9e8dd242a1b7e25c3c5de1610d6c480bec35912dd5840f55fec60001b61050860201b60201c565b61035c7fbe74447fdea037b64141768df2430eb2b7113bef949c88d88dcdc549ba88703360001b61050860201b60201c565b61038e7f04e66872d3f4c69728dfe545a06401e1b17e0f9dd5e1d43290514ae4fd92783060001b61050860201b60201c565b60006103c27f60826eea4af75abd2223d108cb037485a60c485e699a12a42cac24982b89800660001b61050860201b60201c565b813b90506103f87f7acec79ba6fd0be7bb4b2bfca56ca8eb3d8333d64e828971ccb7647facc3806360001b61050860201b60201c565b61042a7f0c7e0405db301404f844860b9fe6e14e956a97134ff8695c88184f1c957d6e0860001b61050860201b60201c565b61045c7f1c5a94c5a5d640e17d84bedbf9409c7f8afe563c4b1fceef7bced5961764ee0f60001b61050860201b60201c565b600081116104d2576040517f08c379a00000000000000000000000000000000000000000000000000000000081526004018080602001828103825260208152602001807f4163636f756e7420636f64652073697a652063616e6e6f74206265207a65726f81525060200191505060405180910390fd5b6105047f1023f03b6261b194c29dee3596b0d25a3be14b60910a1d249d0177db54f54c4a60001b61050860201b60201c565b5050565b50565b60805160601c61021e6105286000398061015c525061021e6000f3fe608060405234801561001057600080fd5b50600436106100415760003560e01c8063396656c414610046578063940a71bc14610074578063a694fc3a146100a2575b600080fd5b6100726004803603602081101561005c57600080fd5b81019080803590602001909291905050506100d0565b005b6100a06004803603602081101561008a57600080fd5b81019080803590602001909291905050506100d3565b005b6100ce600480360360208110156100b857600080fd5b81019080803590602001909291905050506100d6565b005b50565b50565b6101027fc65302ee07b2c7a0499f9e33f8fddec114b7af39fceec091202a28431bc246b660001b6100d0565b61012e7f6126258b7ca5f92e3a7f888dcbda92ba65ce4020338da42b7a05ca2b2dfe68ec60001b6100d0565b61015a7fe4ed33f4fba4fe57895ddbe5542eb15d42dd0ae9a9f084e64f4cc44a415b680360001b6100d0565b7f000000000000000000000000000000000000000000000000000000000000000073ffffffffffffffffffffffffffffffffffffffff1663a694fc3a826040518263ffffffff1660e01b815260040180828152602001915050600060405180830381600087803b1580156101cd57600080fd5b505af11580156101e1573d6000803e3d6000fd5b505050505056fea26469706673582212208a80082db44b0578f6b4a87eeaf3f4bd3ed1d706eeba1852fc8a729af6467f3d64736f6c634300060b0033",
  "linkReferences": {},
  "deployedLinkReferences": {}
}