{
  "_format": "hh-sol-artifact-1",
  "contractName": "LQTYTokenTester",
  "sourceName": "contracts/TestContracts/LQTYTokenTester.sol",
  "abi": [
    {
      "inputs": [
        {
          "internalType": "address",
          "name": "_communityIssuanceAddress",
          "type": "address"
        },
        {
          "internalType": "address",
          "name": "_lqtyStakingAddress",
          "type": "address"
        },
        {
          "internalType": "address",
          "name": "_lockupFactoryAddress",
          "type": "address"
        },
        {
          "internalType": "address",
          "name": "_bountyAddress",
          "type": "address"
        },
        {
          "internalType": "address",
          "name": "_lpRewardsAddress",
          "type": "address"
        },
        {
          "internalType": "address",
          "name": "_multisigAddress",
          "type": "address"
        }
      ],
      "stateMutability": "nonpayable",
      "type": "constructor"
    },
    {
      "anonymous": false,
      "inputs": [
        {
          "indexed": true,
          "internalType": "address",
          "name": "owner",
          "type": "address"
        },
        {
          "indexed": true,
          "internalType": "address",
          "name": "spender",
          "type": "address"
        },
        {
          "indexed": false,
          "internalType": "uint256",
          "name": "value",
          "type": "uint256"
        }
      ],
      "name": "Approval",
      "type": "event"
    },
    {
      "anonymous": false,
      "inputs": [
        {
          "indexed": false,
          "internalType": "address",
          "name": "_communityIssuanceAddress",
          "type": "address"
        }
      ],
      "name": "CommunityIssuanceAddressSet",
      "type": "event"
    },
    {
      "anonymous": false,
      "inputs": [
        {
          "indexed": false,
          "internalType": "address",
          "name": "_lqtyStakingAddress",
          "type": "address"
        }
      ],
      "name": "LQTYStakingAddressSet",
      "type": "event"
    },
    {
      "anonymous": false,
      "inputs": [
        {
          "indexed": false,
          "internalType": "address",
          "name": "_lockupContractFactoryAddress",
          "type": "address"
        }
      ],
      "name": "LockupContractFactoryAddressSet",
      "type": "event"
    },
    {
      "anonymous": false,
      "inputs": [
        {
          "indexed": true,
          "internalType": "address",
          "name": "from",
          "type": "address"
        },
        {
          "indexed": true,
          "internalType": "address",
          "name": "to",
          "type": "address"
        },
        {
          "indexed": false,
          "internalType": "uint256",
          "name": "value",
          "type": "uint256"
        }
      ],
      "name": "Transfer",
      "type": "event"
    },
    {
      "inputs": [],
      "name": "ONE_YEAR_IN_SECONDS",
      "outputs": [
        {
          "internalType": "uint256",
          "name": "",
          "type": "uint256"
        }
      ],
      "stateMutability": "view",
      "type": "function"
    },
    {
      "inputs": [
        {
          "internalType": "address",
          "name": "owner",
          "type": "address"
        },
        {
          "internalType": "address",
          "name": "spender",
          "type": "address"
        }
      ],
      "name": "allowance",
      "outputs": [
        {
          "internalType": "uint256",
          "name": "",
          "type": "uint256"
        }
      ],
      "stateMutability": "view",
      "type": "function"
    },
    {
      "inputs": [
        {
          "internalType": "address",
          "name": "spender",
          "type": "address"
        },
        {
          "internalType": "uint256",
          "name": "amount",
          "type": "uint256"
        }
      ],
      "name": "approve",
      "outputs": [
        {
          "internalType": "bool",
          "name": "",
          "type": "bool"
        }
      ],
      "stateMutability": "nonpayable",
      "type": "function"
    },
    {
      "inputs": [
        {
          "internalType": "address",
          "name": "account",
          "type": "address"
        }
      ],
      "name": "balanceOf",
      "outputs": [
        {
          "internalType": "uint256",
          "name": "",
          "type": "uint256"
        }
      ],
      "stateMutability": "view",
      "type": "function"
    },
    {
      "inputs": [
        {
          "internalType": "bytes32",
          "name": "c__0x89b4f1f5",
          "type": "bytes32"
        }
      ],
      "name": "c_0x89b4f1f5",
      "outputs": [],
      "stateMutability": "pure",
      "type": "function"
    },
    {
      "inputs": [
        {
          "internalType": "bytes32",
          "name": "c__0xafd32059",
          "type": "bytes32"
        }
      ],
      "name": "c_0xafd32059",
      "outputs": [],
      "stateMutability": "pure",
      "type": "function"
    },
    {
      "inputs": [
        {
          "internalType": "address",
          "name": "owner",
          "type": "address"
        },
        {
          "internalType": "address",
          "name": "spender",
          "type": "address"
        },
        {
          "internalType": "uint256",
          "name": "amount",
          "type": "uint256"
        }
      ],
      "name": "callInternalApprove",
      "outputs": [
        {
          "internalType": "bool",
          "name": "",
          "type": "bool"
        }
      ],
      "stateMutability": "nonpayable",
      "type": "function"
    },
    {
      "inputs": [
        {
          "internalType": "address",
          "name": "sender",
          "type": "address"
        },
        {
          "internalType": "address",
          "name": "recipient",
          "type": "address"
        },
        {
          "internalType": "uint256",
          "name": "amount",
          "type": "uint256"
        }
      ],
      "name": "callInternalTransfer",
      "outputs": [
        {
          "internalType": "bool",
          "name": "",
          "type": "bool"
        }
      ],
      "stateMutability": "nonpayable",
      "type": "function"
    },
    {
      "inputs": [],
      "name": "communityIssuanceAddress",
      "outputs": [
        {
          "internalType": "address",
          "name": "",
          "type": "address"
        }
      ],
      "stateMutability": "view",
      "type": "function"
    },
    {
      "inputs": [],
      "name": "decimals",
      "outputs": [
        {
          "internalType": "uint8",
          "name": "",
          "type": "uint8"
        }
      ],
      "stateMutability": "view",
      "type": "function"
    },
    {
      "inputs": [
        {
          "internalType": "address",
          "name": "spender",
          "type": "address"
        },
        {
          "internalType": "uint256",
          "name": "subtractedValue",
          "type": "uint256"
        }
      ],
      "name": "decreaseAllowance",
      "outputs": [
        {
          "internalType": "bool",
          "name": "",
          "type": "bool"
        }
      ],
      "stateMutability": "nonpayable",
      "type": "function"
    },
    {
      "inputs": [],
      "name": "domainSeparator",
      "outputs": [
        {
          "internalType": "bytes32",
          "name": "",
          "type": "bytes32"
        }
      ],
      "stateMutability": "view",
      "type": "function"
    },
    {
      "inputs": [],
      "name": "getChainId",
      "outputs": [
        {
          "internalType": "uint256",
          "name": "chainID",
          "type": "uint256"
        }
      ],
      "stateMutability": "pure",
      "type": "function"
    },
    {
      "inputs": [],
      "name": "getDeploymentStartTime",
      "outputs": [
        {
          "internalType": "uint256",
          "name": "",
          "type": "uint256"
        }
      ],
      "stateMutability": "view",
      "type": "function"
    },
    {
      "inputs": [],
      "name": "getLpRewardsEntitlement",
      "outputs": [
        {
          "internalType": "uint256",
          "name": "",
          "type": "uint256"
        }
      ],
      "stateMutability": "view",
      "type": "function"
    },
    {
      "inputs": [
        {
          "internalType": "address",
          "name": "spender",
          "type": "address"
        },
        {
          "internalType": "uint256",
          "name": "addedValue",
          "type": "uint256"
        }
      ],
      "name": "increaseAllowance",
      "outputs": [
        {
          "internalType": "bool",
          "name": "",
          "type": "bool"
        }
      ],
      "stateMutability": "nonpayable",
      "type": "function"
    },
    {
      "inputs": [],
      "name": "lockupContractFactory",
      "outputs": [
        {
          "internalType": "contract ILockupContractFactory",
          "name": "",
          "type": "address"
        }
      ],
      "stateMutability": "view",
      "type": "function"
    },
    {
      "inputs": [],
      "name": "lqtyStakingAddress",
      "outputs": [
        {
          "internalType": "address",
          "name": "",
          "type": "address"
        }
      ],
      "stateMutability": "view",
      "type": "function"
    },
    {
      "inputs": [],
      "name": "multisigAddress",
      "outputs": [
        {
          "internalType": "address",
          "name": "",
          "type": "address"
        }
      ],
      "stateMutability": "view",
      "type": "function"
    },
    {
      "inputs": [],
      "name": "name",
      "outputs": [
        {
          "internalType": "string",
          "name": "",
          "type": "string"
        }
      ],
      "stateMutability": "view",
      "type": "function"
    },
    {
      "inputs": [
        {
          "internalType": "address",
          "name": "owner",
          "type": "address"
        }
      ],
      "name": "nonces",
      "outputs": [
        {
          "internalType": "uint256",
          "name": "",
          "type": "uint256"
        }
      ],
      "stateMutability": "view",
      "type": "function"
    },
    {
      "inputs": [
        {
          "internalType": "address",
          "name": "owner",
          "type": "address"
        },
        {
          "internalType": "address",
          "name": "spender",
          "type": "address"
        },
        {
          "internalType": "uint256",
          "name": "amount",
          "type": "uint256"
        },
        {
          "internalType": "uint256",
          "name": "deadline",
          "type": "uint256"
        },
        {
          "internalType": "uint8",
          "name": "v",
          "type": "uint8"
        },
        {
          "internalType": "bytes32",
          "name": "r",
          "type": "bytes32"
        },
        {
          "internalType": "bytes32",
          "name": "s",
          "type": "bytes32"
        }
      ],
      "name": "permit",
      "outputs": [],
      "stateMutability": "nonpayable",
      "type": "function"
    },
    {
      "inputs": [],
      "name": "permitTypeHash",
      "outputs": [
        {
          "internalType": "bytes32",
          "name": "",
          "type": "bytes32"
        }
      ],
      "stateMutability": "view",
      "type": "function"
    },
    {
      "inputs": [
        {
          "internalType": "address",
          "name": "_sender",
          "type": "address"
        },
        {
          "internalType": "uint256",
          "name": "_amount",
          "type": "uint256"
        }
      ],
      "name": "sendToLQTYStaking",
      "outputs": [],
      "stateMutability": "nonpayable",
      "type": "function"
    },
    {
      "inputs": [],
      "name": "symbol",
      "outputs": [
        {
          "internalType": "string",
          "name": "",
          "type": "string"
        }
      ],
      "stateMutability": "view",
      "type": "function"
    },
    {
      "inputs": [],
      "name": "totalSupply",
      "outputs": [
        {
          "internalType": "uint256",
          "name": "",
          "type": "uint256"
        }
      ],
      "stateMutability": "view",
      "type": "function"
    },
    {
      "inputs": [
        {
          "internalType": "address",
          "name": "recipient",
          "type": "address"
        },
        {
          "internalType": "uint256",
          "name": "amount",
          "type": "uint256"
        }
      ],
      "name": "transfer",
      "outputs": [
        {
          "internalType": "bool",
          "name": "",
          "type": "bool"
        }
      ],
      "stateMutability": "nonpayable",
      "type": "function"
    },
    {
      "inputs": [
        {
          "internalType": "address",
          "name": "sender",
          "type": "address"
        },
        {
          "internalType": "address",
          "name": "recipient",
          "type": "address"
        },
        {
          "internalType": "uint256",
          "name": "amount",
          "type": "uint256"
        }
      ],
      "name": "transferFrom",
      "outputs": [
        {
          "internalType": "bool",
          "name": "",
          "type": "bool"
        }
      ],
      "stateMutability": "nonpayable",
      "type": "function"
    },
    {
      "inputs": [
        {
          "internalType": "address",
          "name": "account",
          "type": "address"
        },
        {
          "internalType": "uint256",
          "name": "amount",
          "type": "uint256"
        }
      ],
      "name": "unprotectedMint",
      "outputs": [],
      "stateMutability": "nonpayable",
      "type": "function"
    },
    {
      "inputs": [
        {
          "internalType": "address",
          "name": "_sender",
          "type": "address"
        },
        {
          "internalType": "uint256",
          "name": "_amount",
          "type": "uint256"
        }
      ],
      "name": "unprotectedSendToLQTYStaking",
      "outputs": [],
      "stateMutability": "nonpayable",
      "type": "function"
    },
    {
      "inputs": [],
      "name": "version",
      "outputs": [
        {
          "internalType": "string",
          "name": "",
          "type": "string"
        }
      ],
      "stateMutability": "view",
      "type": "function"
    }
  ],
  "bytecode": "0x6101c060405269d3c21bcecceda10000006004553480156200002057600080fd5b50604051620065f3380380620065f3833981810160405260c08110156200004657600080fd5b81019080805190602001909291908051906020019092919080519060200190929190805190602001909291908051906020019092919080519060200190929190505050858585858585620000c37fa48364dfc21590cb12d29afabb25b35260589253aff3dae443984879dcc6b0ca60001b62000d6e60201b60201c565b620000f77fba2aabca1950f82b327a66cf2162c463346224adc6e2f739aa3ff1ddebf186e760001b62000d6e60201b60201c565b6200012b7f36b37eca653385ed17b22428ca9ef272deb61ab2411fdbd7e95dd1403662e0bd60001b62000d6e60201b60201c565b6200013c8662000d7160201b60201c565b620001707f3fa8ba0027d5f30069e2379fa01d4b2b7e60c63f497de12653f7a6353525f6ff60001b62000d6e60201b60201c565b620001a47f6bd27c062e3d30bd39947c5b00ffcaec2400f4d8e8703b3a3c90c396e743989b60001b62000d6e60201b60201c565b620001b58562000d7160201b60201c565b620001e97f37cd3a1d93858dbab32dbc3e37186c2b571bb39ddf6e5fdd6baa98cd343d76f360001b62000d6e60201b60201c565b6200021d7fdd8848e7b4698d72df6fd9f7d82f0570f5ed0fe56c4680ca8fb9f2d45a5f194e60001b62000d6e60201b60201c565b6200022e8462000d7160201b60201c565b620002627fb35b70a4a9e7e37b518066ee55dbbf75fabc239187f5d879c8ec719e5428abba60001b62000d6e60201b60201c565b620002967f0471ffa43bbb1d15e1923fdb128a584a820758eb7c20b2cbb55b88353ae2858060001b62000d6e60201b60201c565b8073ffffffffffffffffffffffffffffffffffffffff166101208173ffffffffffffffffffffffffffffffffffffffff1660601b81525050620003027f4c63f719f55fafd640a546be48993273efc8abe3e8bf32fbfb3d161e2fad011760001b62000d6e60201b60201c565b620003367fbc78a60f41860e2c5bbed46d472ff99ca71578f08ef3be6c11cda6dea7aa052f60001b62000d6e60201b60201c565b426101008181525050620003737ffc18827d9d5a9c709b52559c9c25b2e1e3414d2312352b687ba4979535f6505860001b62000d6e60201b60201c565b620003a77f5f032eb6a7bbfc670164884e1615eb13f3df4514cc8b13b9ef2e03593cf6988e60001b62000d6e60201b60201c565b8573ffffffffffffffffffffffffffffffffffffffff166101408173ffffffffffffffffffffffffffffffffffffffff1660601b81525050620004137fa101b4e4e1b068ae18622442085cb811225b1340182aece61d5e05acd35886ea60001b62000d6e60201b60201c565b620004477ff130d0316aafa80c01f2c37397b61327f86e5afb6d4728fd4e17f72fc937c9ab60001b62000d6e60201b60201c565b8473ffffffffffffffffffffffffffffffffffffffff166101608173ffffffffffffffffffffffffffffffffffffffff1660601b81525050620004b37f5098f53abc170af82b5bed8e340224a65dbc050f575e3ee032e96189da2bb13c60001b62000d6e60201b60201c565b620004e77f579872b6fe5b0a8cd685848a2069f0d7aaaf9da28225f2c0169b5c72ae68f63060001b62000d6e60201b60201c565b8373ffffffffffffffffffffffffffffffffffffffff166101a08173ffffffffffffffffffffffffffffffffffffffff1660601b81525050620005537f4bc2f33fc03c48cbc3a5fbb88ba4ba58372cb6dc6a38a5c3c037e582bdfc1cc360001b62000d6e60201b60201c565b620005877f1c0062cefa747912b50e7c24a543a7e357e2d1e65872510f4b3a2ef2de5ad73860001b62000d6e60201b60201c565b60006040518060400160405280600481526020017f4c51545900000000000000000000000000000000000000000000000000000000815250805190602001209050620005fc7f2e2a5d2d78c0eba7b3aa9464460eabf07bafc60221fc6f54091912a86253c6a760001b62000d6e60201b60201c565b620006307f285cd6e4f2daaa7bd124189df463f89fd536b18bc64f59bd92051f1ab19a787e60001b62000d6e60201b60201c565b60006040518060400160405280600181526020017f3100000000000000000000000000000000000000000000000000000000000000815250805190602001209050620006a57fe766f7168eca5a62ab2399e0e99fc62e1fb5782ec949168dc0f4e89b3a3ace8d60001b62000d6e60201b60201c565b620006d97f82b2992c2ec733c451b49db213ccb37a645aada36b0eff3fd8439b54ea98270360001b62000d6e60201b60201c565b8160c08181525050620007157f7dc087acd9d8049f98cc6e4dfdf0bbf6f45523221184c828ac56684da01d294760001b62000d6e60201b60201c565b620007497f73f6dca01e102246d907e7483d865dbf0449f4d6ca11098de8ce017300799a7560001b62000d6e60201b60201c565b8060e08181525050620007857f49d1e6ca2448d58b6c169aa956634a4c3fd04deaf7fb353b64e7a00d6571a44b60001b62000d6e60201b60201c565b620007b97f5c6a6c553b607d77e3c67635d92747b56448b1b06313b626a2f4e7703e0ba83b60001b62000d6e60201b60201c565b620007c96200110660201b60201c565b60a08181525050620008047fa3eeb9929f7733250b9be322913155cbf986a85f55b5e95b53a7f7f8297a735d60001b62000d6e60201b60201c565b620008387fea9b1b9ffe61e5c3a4f3bde1621a3d311648dfccd3791e3f437b3f5c7f4779fa60001b62000d6e60201b60201c565b6200086e7f8b73c3c69bb8fe3d512ecc4cf759cc79239f7b179b0ffacaa9a75d522b39400f60001b83836200117660201b60201c565b60808181525050620008a97f53717533b21dee587e185a2c75f7dee5ee8152bcdf04c45b44ad54a7eef3ce7960001b62000d6e60201b60201c565b620008dd7fdbe3daaa0fa5adcbd6962ebc43959ac8339006025c03568213c0dbd2c03d8cdb60001b62000d6e60201b60201c565b6000620008fc60026004546200129f60201b62002b891790919060201c565b9050620009327f44a42bd67b9a04d5bac8ed7080ca49d1fd545263b65b7e0bb40923259067e45c60001b62000d6e60201b60201c565b620009667f02987a93d460574d9c1e90d3b607753806fe5e68a62c98e45b058bd4d93c22a360001b62000d6e60201b60201c565b6200097886826200132a60201b60201c565b620009ac7f301508aed5727e94fbe050398662132300cf9fa9c12f37d85631130de14169ef60001b62000d6e60201b60201c565b620009e07f19777c32512d955b706406560d86818aeee8deb9546f408503f8051b6842c19a60001b62000d6e60201b60201c565b6000620009ff60206004546200129f60201b62002b891790919060201c565b905062000a357f9354cf304af67cd253c4187f3c3fee892e814849a8d0f8b28bfe12cdc111d95060001b62000d6e60201b60201c565b62000a697ffb22ebd7f94437de303a873f9a78f25cf8be3f1c74b1cb3fa35c8bc1416e421c60001b62000d6e60201b60201c565b62000a7b8a826200132a60201b60201c565b62000aaf7fb6f3ac066a388700d5eb36c38d0bf21f5a978929160e49b93430afbf7eeff22360001b62000d6e60201b60201c565b62000ae37ff75b632c72c971be418846421b7c0acfdac5e80a9032fde16181f442d012d50060001b62000d6e60201b60201c565b600062000b1b600362000b07600480546200129f60201b62002b891790919060201c565b6200173060201b62002c0f1790919060201c565b905062000b517f33cfee225e78380cab91407e6be5bda4ad283153c71300651078d1928ba17ec060001b62000d6e60201b60201c565b62000b857f7820b37dff8ff48fdc3aefc6c1e093d3b88f79719be4c8b7ed09e7c2aadc335560001b62000d6e60201b60201c565b80610180818152505062000bc27f94d08a1e4bdfc380ed8f3e8c622a9d0817d87d65b90d5f8b4e80bddf00c9211f60001b62000d6e60201b60201c565b62000bf67fd016e9059d07fa8ef2bd5d3a71000b6925b97f8d1fd5925cffb04b35ade663c260001b62000d6e60201b60201c565b62000c0887826200132a60201b60201c565b62000c3c7fef0b85c7e6427e2a220afdf8deaab3584022cef735f760e8382ecbc6250af81e60001b62000d6e60201b60201c565b62000c707fa5fed79b4566613e99ccbf5fe5c5e9861545fe6caf5352a0f417cd5ffb1e831960001b62000d6e60201b60201c565b600062000cda8262000cc68562000cb28862000c9e60646004546200129f60201b62002b891790919060201c565b6200178260201b62002c591790919060201c565b6200178260201b62002c591790919060201c565b6200178260201b62002c591790919060201c565b905062000d107fc907e2159ae70d25b2eadbec2b861065833e6898be842e5b8cbd66aa72d4b1e560001b62000d6e60201b60201c565b62000d447fd71bd95f49d2e15be533d1f614b3f6012737fa85be596ede754924114cf3576f60001b62000d6e60201b60201c565b62000d5687826200132a60201b60201c565b505050505050505050505050505050505050620019ef565b50565b62000da57f35bc9e5e61c1438a006153cf69ffd6105766a3055440d22f6c8ce219146d68af60001b620017d460201b60201c565b62000dd97fe66c045f45b868efda896f2af22ed71637a4e9e8d13a2b1962badf362ba3eeb960001b620017d460201b60201c565b62000e0d7faaa4b517f253b4fa37cb2875514a22e04e7d5828c244c7095a27e85408ccd12c60001b620017d460201b60201c565b62000e417f1221da0bd0f16fcbee175d4dae7d6b598e327e79264e77ced4c93a6a0721871b60001b620017d460201b60201c565b600073ffffffffffffffffffffffffffffffffffffffff168173ffffffffffffffffffffffffffffffffffffffff16141562000ee5576040517f08c379a000000000000000000000000000000000000000000000000000000000815260040180806020018281038252601e8152602001807f4163636f756e742063616e6e6f74206265207a65726f2061646472657373000081525060200191505060405180910390fd5b62000f197f09f0dc62d572b9e8dd242a1b7e25c3c5de1610d6c480bec35912dd5840f55fec60001b620017d460201b60201c565b62000f4d7fbe74447fdea037b64141768df2430eb2b7113bef949c88d88dcdc549ba88703360001b620017d460201b60201c565b62000f817f04e66872d3f4c69728dfe545a06401e1b17e0f9dd5e1d43290514ae4fd92783060001b620017d460201b60201c565b600062000fb77f60826eea4af75abd2223d108cb037485a60c485e699a12a42cac24982b89800660001b620017d460201b60201c565b813b905062000fef7f7acec79ba6fd0be7bb4b2bfca56ca8eb3d8333d64e828971ccb7647facc3806360001b620017d460201b60201c565b620010237f0c7e0405db301404f844860b9fe6e14e956a97134ff8695c88184f1c957d6e0860001b620017d460201b60201c565b620010577f1c5a94c5a5d640e17d84bedbf9409c7f8afe563c4b1fceef7bced5961764ee0f60001b620017d460201b60201c565b60008111620010ce576040517f08c379a00000000000000000000000000000000000000000000000000000000081526004018080602001828103825260208152602001807f4163636f756e7420636f64652073697a652063616e6e6f74206265207a65726f81525060200191505060405180910390fd5b620011027f1023f03b6261b194c29dee3596b0d25a3be14b60910a1d249d0177db54f54c4a60001b620017d460201b60201c565b5050565b60006200113c7fce9815fa4c073b8b60b53e2c100e2688fe70b83c3927a0c8d4bed70523a5a58860001b62000d6e60201b60201c565b620011707f8c562374aa17e464e71c99b9056cb47521227962bc20bbcdf68e2003de92959d60001b62000d6e60201b60201c565b46905090565b6000620011ac7f964c80b64be9b8d7d3492c504282c6823ec2d54f5c355357616a5111142dcccc60001b62000d6e60201b60201c565b620011e07fc29ab5b9af0cc514fed3d76d10752590b9a847c2ee09287b8efb2901285512df60001b62000d6e60201b60201c565b620012147f49710488a5bca8c5a466218a86ab61a205ce0bd4b1a771ea2b20f68d2748a9e260001b62000d6e60201b60201c565b838383620012276200110660201b60201c565b30604051602001808681526020018581526020018481526020018381526020018273ffffffffffffffffffffffffffffffffffffffff1673ffffffffffffffffffffffffffffffffffffffff168152602001955050505050506040516020818303038152906040528051906020012090509392505050565b600080831415620012b4576000905062001324565b6000828402905082848281620012c657fe5b04146200131f576040517f08c379a0000000000000000000000000000000000000000000000000000000008152600401808060200182810382526021815260200180620065d26021913960400191505060405180910390fd5b809150505b92915050565b6200135e7ffe500356e1478669d749f581c2ff7ebd03ab1a6e386f42a6361ca6bc1476608560001b62000d6e60201b60201c565b620013927f0dedba678a90fbe6874c8e5f2f8a32b03cfda8e52b9fe8352ed29ad9f23df75060001b62000d6e60201b60201c565b620013c67f9516e75d8f7f019f10e6741b915777fec2e7bda8963dbf12e9aee1a5b71fbfe860001b62000d6e60201b60201c565b620013fa7fe4287dc3425d00f88b869199d73819b477eaed0c50117ec98c7cdfa34639076760001b62000d6e60201b60201c565b600073ffffffffffffffffffffffffffffffffffffffff168273ffffffffffffffffffffffffffffffffffffffff1614156200149e576040517f08c379a000000000000000000000000000000000000000000000000000000000815260040180806020018281038252601f8152602001807f45524332303a206d696e7420746f20746865207a65726f20616464726573730081525060200191505060405180910390fd5b620014d27fc9a8df7a7d04e22618b2ce8ab1fcc6ec39ce732fec9f4abe8b26b0d10a1014f660001b62000d6e60201b60201c565b620015067f62980609d6669711a88b825123a4e038f8175fb221c19a413df4111bdec8b05360001b62000d6e60201b60201c565b6200153a7fd6d05236398adcdcc43844da2d30e8d8a7cddab76fcd4e5806b8bb55423faf8660001b62000d6e60201b60201c565b6200155681600254620017d760201b62002ca31790919060201c565b600281905550620015907ff8c0f74a9c5d3e21f8cd74f3f78e64a09b6f7390cd876e611d37a4ef196ad52f60001b62000d6e60201b60201c565b620015c47ff40c220ac9195f35f6bcccdeb70ba2d4556a14b66f00d4d1329ab7c49b1359b660001b62000d6e60201b60201c565b6200161c816000808573ffffffffffffffffffffffffffffffffffffffff1673ffffffffffffffffffffffffffffffffffffffff16815260200190815260200160002054620017d760201b62002ca31790919060201c565b6000808473ffffffffffffffffffffffffffffffffffffffff1673ffffffffffffffffffffffffffffffffffffffff16815260200190815260200160002081905550620016927f0d5146db6750cfb58643f10e71e9101720b4dd5688ef783adde28a9af685f03160001b62000d6e60201b60201c565b620016c67f63a702d3e17385402fd58aa621cc07f758c1243d1d03e44aad14b968eeca7f6760001b62000d6e60201b60201c565b8173ffffffffffffffffffffffffffffffffffffffff16600073ffffffffffffffffffffffffffffffffffffffff167fddf252ad1be2c89b69c2b068fc378daa952ba7f163c4a11628f55a4df523b3ef836040518082815260200191505060405180910390a35050565b60006200177a83836040518060400160405280601a81526020017f536166654d6174683a206469766973696f6e206279207a65726f0000000000008152506200186060201b60201c565b905092915050565b6000620017cc83836040518060400160405280601e81526020017f536166654d6174683a207375627472616374696f6e206f766572666c6f7700008152506200192b60201b60201c565b905092915050565b50565b60008082840190508381101562001856576040517f08c379a000000000000000000000000000000000000000000000000000000000815260040180806020018281038252601b8152602001807f536166654d6174683a206164646974696f6e206f766572666c6f77000000000081525060200191505060405180910390fd5b8091505092915050565b6000808311829062001910576040517f08c379a00000000000000000000000000000000000000000000000000000000081526004018080602001828103825283818151815260200191508051906020019080838360005b83811015620018d4578082015181840152602081019050620018b7565b50505050905090810190601f168015620019025780820380516001836020036101000a031916815260200191505b509250505060405180910390fd5b5060008385816200191d57fe5b049050809150509392505050565b6000838311158290620019dc576040517f08c379a00000000000000000000000000000000000000000000000000000000081526004018080602001828103825283818151815260200191508051906020019080838360005b83811015620019a057808201518184015260208101905062001983565b50505050905090810190601f168015620019ce5780820380516001836020036101000a031916815260200191505b509250505060405180910390fd5b5060008385039050809150509392505050565b60805160a05160c05160e051610100516101205160601c6101405160601c6101605160601c610180516101a05160601c614b3862001a9a6000398061199e5280614361525080611b0c5250806116c352806118ad52806129075280613759528061456d5250806125f052806137025250806116fc5280613410528061425d52508061168252806131ee525080612b5f525080612b3e5250806129b8525080612a6b5250614b386000f3fe608060405234801561001057600080fd5b50600436106101a55760003560e01c806354fd4d50116100ef578063a457c2d711610092578063a457c2d7146108d1578063a9059cbb14610937578063d505accf1461099d578063d874ea7414610a36578063dd62ed3e14610a80578063e7c8fed414610af8578063f3a2568b14610b16578063f698da2514610b64576101a5565b806354fd4d501461063b57806370a08231146106be578063761ab22c146107165780637ecebe0014610760578063811c5b4d146107b8578063940a71bc1461080257806395d89b4114610830578063974f5590146108b3576101a5565b80633408e470116101575780633408e470146103ff578063387a54d91461041d57806339509351146104a3578063395776f4146105095780633c84b7c2146105375780634655018c146105555780635099f99f146105a35780635462870d146105f1576101a5565b806303d99946146101aa57806306fdde0314610230578063095ea7b3146102b357806310ce43bd1461031957806318160ddd1461033757806323b872dd14610355578063313ce567146103db575b600080fd5b610216600480360360608110156101c057600080fd5b81019080803573ffffffffffffffffffffffffffffffffffffffff169060200190929190803573ffffffffffffffffffffffffffffffffffffffff16906020019092919080359060200190929190505050610b82565b604051808215151515815260200191505060405180910390f35b610238610b96565b6040518080602001828103825283818151815260200191508051906020019080838360005b8381101561027857808201518184015260208101905061025d565b50505050905090810190601f1680156102a55780820380516001836020036101000a031916815260200191505b509250505060405180910390f35b6102ff600480360360408110156102c957600080fd5b81019080803573ffffffffffffffffffffffffffffffffffffffff16906020019092919080359060200190929190505050610c57565b604051808215151515815260200191505060405180910390f35b610321610e41565b6040518082815260200191505060405180910390f35b61033f610ef0565b6040518082815260200191505060405180910390f35b6103c16004803603606081101561036b57600080fd5b81019080803573ffffffffffffffffffffffffffffffffffffffff169060200190929190803573ffffffffffffffffffffffffffffffffffffffff16906020019092919080359060200190929190505050610f7e565b604051808215151515815260200191505060405180910390f35b6103e36112d6565b604051808260ff1660ff16815260200191505060405180910390f35b610407611363565b6040518082815260200191505060405180910390f35b6104896004803603606081101561043357600080fd5b81019080803573ffffffffffffffffffffffffffffffffffffffff169060200190929190803573ffffffffffffffffffffffffffffffffffffffff1690602001909291908035906020019092919050505061136b565b604051808215151515815260200191505060405180910390f35b6104ef600480360360408110156104b957600080fd5b81019080803573ffffffffffffffffffffffffffffffffffffffff1690602001909291908035906020019092919050505061137f565b604051808215151515815260200191505060405180910390f35b6105356004803603602081101561051f57600080fd5b81019080803590602001909291905050506115f7565b005b61053f6115fa565b6040518082815260200191505060405180910390f35b6105a16004803603604081101561056b57600080fd5b81019080803573ffffffffffffffffffffffffffffffffffffffff169060200190929190803590602001909291905050506116a6565b005b6105ef600480360360408110156105b957600080fd5b81019080803573ffffffffffffffffffffffffffffffffffffffff169060200190929190803590602001909291905050506116ec565b005b6105f96116fa565b604051808273ffffffffffffffffffffffffffffffffffffffff1673ffffffffffffffffffffffffffffffffffffffff16815260200191505060405180910390f35b61064361171e565b6040518080602001828103825283818151815260200191508051906020019080838360005b83811015610683578082015181840152602081019050610668565b50505050905090810190601f1680156106b05780820380516001836020036101000a031916815260200191505b509250505060405180910390f35b610700600480360360208110156106d457600080fd5b81019080803573ffffffffffffffffffffffffffffffffffffffff1690602001909291905050506117df565b6040518082815260200191505060405180910390f35b61071e6118ab565b604051808273ffffffffffffffffffffffffffffffffffffffff1673ffffffffffffffffffffffffffffffffffffffff16815260200191505060405180910390f35b6107a26004803603602081101561077657600080fd5b81019080803573ffffffffffffffffffffffffffffffffffffffff1690602001909291905050506118cf565b6040518082815260200191505060405180910390f35b6107c061199c565b604051808273ffffffffffffffffffffffffffffffffffffffff1673ffffffffffffffffffffffffffffffffffffffff16815260200191505060405180910390f35b61082e6004803603602081101561081857600080fd5b81019080803590602001909291905050506119c0565b005b6108386119c3565b6040518080602001828103825283818151815260200191508051906020019080838360005b8381101561087857808201518184015260208101905061085d565b50505050905090810190601f1680156108a55780820380516001836020036101000a031916815260200191505b509250505060405180910390f35b6108bb611a84565b6040518082815260200191505060405180910390f35b61091d600480360360408110156108e757600080fd5b81019080803573ffffffffffffffffffffffffffffffffffffffff16906020019092919080359060200190929190505050611b30565b604051808215151515815260200191505060405180910390f35b6109836004803603604081101561094d57600080fd5b81019080803573ffffffffffffffffffffffffffffffffffffffff16906020019092919080359060200190929190505050611dc2565b604051808215151515815260200191505060405180910390f35b610a34600480360360e08110156109b357600080fd5b81019080803573ffffffffffffffffffffffffffffffffffffffff169060200190929190803573ffffffffffffffffffffffffffffffffffffffff1690602001909291908035906020019092919080359060200190929190803560ff169060200190929190803590602001909291908035906020019092919050505061204a565b005b610a3e6125ee565b604051808273ffffffffffffffffffffffffffffffffffffffff1673ffffffffffffffffffffffffffffffffffffffff16815260200191505060405180910390f35b610ae260048036036040811015610a9657600080fd5b81019080803573ffffffffffffffffffffffffffffffffffffffff169060200190929190803573ffffffffffffffffffffffffffffffffffffffff169060200190929190505050612612565b6040518082815260200191505060405180910390f35b610b0061271d565b6040518082815260200191505060405180910390f35b610b6260048036036040811015610b2c57600080fd5b81019080803573ffffffffffffffffffffffffffffffffffffffff16906020019092919080359060200190929190505050612725565b005b610b6c612930565b6040518082815260200191505060405180910390f35b6000610b8f848484612d2b565b9392505050565b6060610bc47f3409acc012aa1c3b2e96962049167651e3a3a32a80165d2813d8f6632cb83dab60001b6115f7565b610bf07faa2fb11b844ac1df6a43fdf035a147d105d33913d7f98923de4c31ccca7dd07560001b6115f7565b610c1c7fb16aeea3b7912ac0088f1f00156d9ce5b300f05c54bbca79500cc0bfd8213ce860001b6115f7565b6040518060400160405280600481526020017f4c51545900000000000000000000000000000000000000000000000000000000815250905090565b6000610c857f07a752f5f06e9ca41efb58c178131bb065d563e96c7e5f125a4992161c069d3d60001b6115f7565b610cb17f9e33b6befe66a4cacdf576c3a88b33a1bab85abaf945901c5d9799e239ba1c4860001b6115f7565b610cdd7fa7882e8e6e7dcdf4e7ee897ab29220790499a5686761e7262a0e98db48f821b060001b6115f7565b610ce561315e565b15610d4f57610d167fa061d3e186efd30477d4de5e4d2cbff354e8e897c505c58435887592d997008f60001b6115f7565b610d427f39e0af6f716ff0b11911df3591bf79305d4908e0c72a608cb0068d4784f102cc60001b6115f7565b610d4a613222565b610d7c565b610d7b7f6059111c3508081142ad681db51d8bef857d8f598422231ddbe0fe8e348b93a160001b6115f7565b5b610da87f5efab02c05c0e861fa141fdd8a745bf35f9711e1f6eee21740a378d2e6db4b8760001b6115f7565b610dd47f29452cb2a80d40863c79bb430127f25ff9fd30e555605fbc4ce8a9579c02ee3660001b6115f7565b610ddf338484612d2b565b610e0b7ffbd029a0b7efc7e4da63d06c9af487a85565d88e2a6779619f18b0d4bc6f7cad60001b6115f7565b610e377f287a8ee23d910bc8a6f7646383f14f7b6cdd11738e21309c5e16c680346eaba060001b6115f7565b6001905092915050565b6000610e6f7ff75ff0a2653ff61a380416bf4c6a7d53535e05e1a992c81b1dc9d4bc39435aa460001b6115f7565b610e9b7fe2860011c46e03a4639af7e19edf34ccb19bff1206a5ab0367efa3c3581b105560001b6115f7565b610ec77fd593ccfca1257e5274fdbb0ae222c1f22539bb33c77f8bd80599946b7296e51760001b6115f7565b7f6e71edae12b1b97f4d1f60370fef10105fa2faae0126114a169c64845d6126c960001b905090565b6000610f1e7f19fcc5a7e1a9ec436d98fb8e46ddec99b2fdb3ec6874036784cd5ee6852a7c7460001b6115f7565b610f4a7ff14778ae1870f781350e16d49e1782a9461ca21fa13d39fc6711b8b58c7e822060001b6115f7565b610f767ffac18cb11cfbed0556206fa36c93f839b293fdf63b4588edfc28ba2b910f873260001b6115f7565b600254905090565b6000610fac7fb13e9d41978d465500fa4c4088dd0bf2d092ba77df8c5319df62af93913e288860001b6115f7565b610fd87f462c7dfaf8e790f8c3607e77f9cd0052edf0e5e9b796b6f2f2d811f3d653339360001b6115f7565b6110047f95077315c16f4b41cec4f08bb5b25f909e9291d573d3de5c8d89988a9000b3bd60001b6115f7565b61100c61315e565b156110775761103d7f1ac9ee3b9638530be4288d6c9f8591e16c5ad7e6cba02d8aa802315f6052c41960001b6115f7565b6110697f0853afbedf6cacf71857f3e1b31dc3c7dbe446b494b9b05d76ebcca50780970560001b6115f7565b6110728461335e565b6110a4565b6110a37f4cf18b26358a461e7836ae54e72b45421c61a2ce96e064519456ff9867880ef360001b6115f7565b5b6110d07f8f72b162cf8429ca3d70f0e2f693fed5f9c4c627ceee42925176d9c5f160911460001b6115f7565b6110fc7f243357fb05ec2c110cae6a7253ac360db4679d785078f122fa641805dcb207ea60001b6115f7565b611105836134e2565b6111317f2a7af45a2c7a49fe3938a213f89c124e77c81c584b2df6e8f527a38c062fdd7c60001b6115f7565b61115d7ff86e9cf5903fbd4a42e4b3c8c2a097531febf99826b529ad6a77f89a88dc75c660001b6115f7565b61116884848461382c565b6111947f248ad715d0333adf090ef496984da4316730ce5982cf28c8a9fea421ea9e8c4760001b6115f7565b6111c07f046d96da4494d1fbdb37e9cac26b7bcf2c47b1e3701a6fc55b5004fa51885ba660001b6115f7565b611273843361126e8560405180606001604052806028815260200161494d60289139600160008b73ffffffffffffffffffffffffffffffffffffffff1673ffffffffffffffffffffffffffffffffffffffff16815260200190815260200160002060003373ffffffffffffffffffffffffffffffffffffffff1673ffffffffffffffffffffffffffffffffffffffff16815260200190815260200160002054613d769092919063ffffffff16565b612d2b565b61129f7f7d15c2bb9bb6f5165a296e5c0d2d04ea8171e81ba91356f10af0792d9943f7f060001b6115f7565b6112cb7f7e7b1cd619b3ae3e43721aeb364265983feeaed1303df4900886a5ed9e3dc38e60001b6115f7565b600190509392505050565b60006113047f10086fa884f2ba6d16331e16584dce7f665a09d6b637938d71912c35cdc0806660001b6115f7565b6113307fc96a1247f8624f6cd2899b8fb3368bdf751d12bd76a38708c707aa79093368ee60001b6115f7565b61135c7f66444908a6dc41fee16f8d4ae885184e11d90a5b94e0d348c8a68a23378793b260001b6115f7565b6012905090565b600046905090565b600061137884848461382c565b9392505050565b60006113ad7fd840970cb6677d1951522c616d6b6e8a3123010f406ffa044700cf977a4dd07860001b6115f7565b6113d97f594a548d512efdfc23a60e2123d1c0f18a1167ca37bfcc4a9abc403c78f4cbb160001b6115f7565b6114057f5fc2f1a01b662d6fa4a1842e6fd0e391ab871766247a23d0ceb92040f157ced360001b6115f7565b61140d61315e565b156114775761143e7f087af62265e0888e3806d7e1da042f43744d00b533470694ebdc566e6a06152e60001b6115f7565b61146a7fa388f686682f024b7fff0638f3a845ff514a1ce364e06b5d547172b3b64acde560001b6115f7565b611472613222565b6114a4565b6114a37f9f77ac112f4c6e94fba931b7446c9dbff53d9631903c9d2848dc0931a63a775860001b6115f7565b5b6114d07f0e9834e00a4c8a0ba8d2ecdf8aff80e0673d06f5578b02616ae9d42b0d9f931560001b6115f7565b6114fc7f08132def9e0fe489f6b0b4aa9afc4bf589844605b74d4098b30db0a12d39ccb760001b6115f7565b611595338461159085600160003373ffffffffffffffffffffffffffffffffffffffff1673ffffffffffffffffffffffffffffffffffffffff16815260200190815260200160002060008973ffffffffffffffffffffffffffffffffffffffff1673ffffffffffffffffffffffffffffffffffffffff16815260200190815260200160002054612ca390919063ffffffff16565b612d2b565b6115c17f158bfd229971b132675804c7bb273c60ff92c9afe6fdda483d048cdd7a3b88fa60001b6115f7565b6115ed7f612916dd28b41967de9940d48fe89e11b3629017e30b2f46c07ab2e04699a06060001b6115f7565b6001905092915050565b50565b60006116287f22ac0a17f6033191e033626dab3225ebd671f7fbfee8c343a86afa18dc23ad3060001b6115f7565b6116547f2e691ec6818280ead843fb906b8f9443ac68d34287aea0917a1a0a3e61c9e55760001b6115f7565b6116807f3149227389bd2543c747d6f93003152e43847e7315b389da1f3f79ee1d29de3560001b6115f7565b7f0000000000000000000000000000000000000000000000000000000000000000905090565b6116ae61315e565b156116bd576116bc8261335e565b5b6116e8827f00000000000000000000000000000000000000000000000000000000000000008361382c565b5050565b6116f68282613e36565b5050565b7f000000000000000000000000000000000000000000000000000000000000000081565b606061174c7f243ffc887732534dde266748802081553177140db5a7fca42f7323f69027a13560001b6115f7565b6117787fca3be5380fb7845112acabd2914e13071cb369cc3695f2355018696f7214fa7e60001b6115f7565b6117a47f63a8e96f47fae81c2f2c53dada268ab8f269632a86cdc3e3e10e64f56394e46360001b6115f7565b6040518060400160405280600181526020017f3100000000000000000000000000000000000000000000000000000000000000815250905090565b600061180d7f84b5ec2d45940c0d2d4932338e930d48c86a614c996c10fe1ca82da7ee71017860001b6115f7565b6118397fb2ee240bba02423dc3fe687fff94918ee0ee3230dcb8625468fff35db1790cfc60001b6115f7565b6118657f88bc67ae094685d0d78e5eb0655130c16e1d317593552a63f912c7499c686cfa60001b6115f7565b6000808373ffffffffffffffffffffffffffffffffffffffff1673ffffffffffffffffffffffffffffffffffffffff168152602001908152602001600020549050919050565b7f000000000000000000000000000000000000000000000000000000000000000081565b60006118fd7f29e7517b438a1c0fce88193af383b5ef2d1c5237a79ddc20f17676f27eb14fda60001b6115f7565b6119297fbb3ae12ed7a8a246b77e0d16c7f6d7dac08f7c9a7d753984bd028720a993aec560001b6115f7565b6119557f160ff1a389b175f425e552f5c42abfd36d56c404a1fea9e497384b159fd62eac60001b6115f7565b600360008373ffffffffffffffffffffffffffffffffffffffff1673ffffffffffffffffffffffffffffffffffffffff168152602001908152602001600020549050919050565b7f000000000000000000000000000000000000000000000000000000000000000081565b50565b60606119f17ff841013205dc2c25de2535b968b2e9a2623e0e39fb8306a2cb04afd699130d8360001b6115f7565b611a1d7f151ea0b8b675d080d1505800e032a3d6c1b9177d730329b25eec53c2cbd5b2df60001b6115f7565b611a497f900b119eb82b3eaf71f439401ce889019d488f10d13b47423678c2bd2112c0e460001b6115f7565b6040518060400160405280600481526020017f4c51545900000000000000000000000000000000000000000000000000000000815250905090565b6000611ab27f74f06611f41ea3bcfa3bc4b5180ef9cd04170db1fcebabb8ef259135a6de613360001b6115f7565b611ade7f206fba7843156a2131f3a7ddd24622d00e713b9dfed073ce439123fcbc6871eb60001b6115f7565b611b0a7f90ddc92838e960219f189e578bc5c60ab9649548a9054412bf37cbaa81acf08260001b6115f7565b7f0000000000000000000000000000000000000000000000000000000000000000905090565b6000611b5e7f4e4a1a51c4de5081f7c11db8b11db978b63983b69ef21ee2cb674edd041f4f4a60001b6115f7565b611b8a7fd89db279217f6de0c1f7a8b5037757cc38023a32f9c116957b526bc4aab9ab8760001b6115f7565b611bb67fce43216c23e34b530c530438f800d0fa1ae7d2dff05a66a9dfdbbf2f5797067660001b6115f7565b611bbe61315e565b15611c2857611bef7f206bc7234215e80608846d21f1d42c9b41c1eed6dfa4089677b8c74e2ea078a160001b6115f7565b611c1b7f93ccbc69660090cb6fd3b86175dcc4b094f3a5188d32ed0bc604e63e268cc66660001b6115f7565b611c23613222565b611c55565b611c547f9438f5603455a497d8024611ec258cabb10f152d470d6b9e9d90433dad8ce5c260001b6115f7565b5b611c817f40ce9f8fd1c029d02ee35ae4f1a9ca787015962f2f612f14831f2ec8cae3f99560001b6115f7565b611cad7f502858f2d697cb17799853aa389c926c5d5ba21b319e68363f0b5372b07fcfb760001b6115f7565b611d603384611d5b85604051806060016040528060258152602001614ade60259139600160003373ffffffffffffffffffffffffffffffffffffffff1673ffffffffffffffffffffffffffffffffffffffff16815260200190815260200160002060008a73ffffffffffffffffffffffffffffffffffffffff1673ffffffffffffffffffffffffffffffffffffffff16815260200190815260200160002054613d769092919063ffffffff16565b612d2b565b611d8c7fa59a83c76afa7cb77881c9b2d0cfec9f2a6f5de8f56b33ea116647be0728e4e860001b6115f7565b611db87f730ed5bcaf367414418d7ced758678884b95bf6fa4d1e71ab1f117fc175cbb4760001b6115f7565b6001905092915050565b6000611df07fc253b6fed871ca61362b210c996606c4c49f70b7b94da158c7c6109333b3938960001b6115f7565b611e1c7fdf2aff9d7f99addc10cf18e6b3ec3e3f9b0c218ecad6e55e294c958766ad27af60001b6115f7565b611e487f6e0c978756e9421328a85291b673d15e9a220de67f9c93eae2efb4dc7ca0c22d60001b6115f7565b611e506141d5565b8015611e605750611e5f61315e565b5b15611ef757611e917fb4d3d7dabc5d574ae993f5a847af742f2227c5c8c70871026b1af75f3033d33560001b6115f7565b611ebd7fb90d3d896771a5b6cf48db215d040697cef117cdae16260921125456f329448060001b6115f7565b611ee97f8e64f188c572faae2c6c90debf26fece5b47506206cd578067dcb00f8251f0e360001b6115f7565b611ef2836142af565b611f24565b611f237f9285490da160eb21ff52c567921a39cfdf78a5451964720c06a059248449eadf60001b6115f7565b5b611f507f03691fdae2857b34bd0275351f8af4a7f5cea1533246738ed9d676cadb322ea660001b6115f7565b611f7c7feca0cedca0eea43a9213c34be8ee897df0961dfe30f645609d8b15693fa6ddc060001b6115f7565b611f85836134e2565b611fb17faff01f242aef3a800fd56bc4fc1135f70a58229ae5dd3a15cccf773b32f87a2f60001b6115f7565b611fdd7f67e24d9f18020cb37304d722adfb4e6feadf4616eabe2fc7758a4ae90228dcd960001b6115f7565b611fe833848461382c565b6120147ff1b31497bf972af018d06cd9e0dfa37180d3b2f471c46b133568dec15da226e960001b6115f7565b6120407fc4528568624437e3a545d56e1b60e0eeaf5cbb37cf6326b7a752c4028c3d6b7660001b6115f7565b6001905092915050565b6120767f99669acb9f0390023924a6dafaa1c67e342d101c7573af0f05339bfd5f2a31b260001b6115f7565b6120a27f3aa9d5e6491af17172b6c5fa56ba7901611a48b22ed619280ef6bb163c61003960001b6115f7565b6120ce7f145ecf86eaae7e12daaac06cae9f5977e679f0854c6f08b6128c04d4272a1b2b60001b6115f7565b6120fa7ff56174ac6dbdb5ee4714210210ee21ce44c1bf057ea1e2309ec57bdaebf6e2ea60001b6115f7565b42841015612170576040517f08c379a00000000000000000000000000000000000000000000000000000000081526004018080602001828103825260168152602001807f4c5154593a206578706972656420646561646c696e650000000000000000000081525060200191505060405180910390fd5b61219c7f0c6a33a2b844dd18cac06f57ee7f1cb2aa7d51ba3b3c5d10d451ca473d97502760001b6115f7565b6121c87f67e2dce9828220f1716173df7ebe227016a43f873bd9173da8869cf8c2339ab360001b6115f7565b6121f47faf203535842be631aabccea184a9f6cf059615e13b679623adb2ee4427bada4860001b6115f7565b60006121fe612930565b7f6e71edae12b1b97f4d1f60370fef10105fa2faae0126114a169c64845d6126c960001b898989600360008e73ffffffffffffffffffffffffffffffffffffffff1673ffffffffffffffffffffffffffffffffffffffff1681526020019081526020016000206000815480929190600101919050558a604051602001808781526020018673ffffffffffffffffffffffffffffffffffffffff1673ffffffffffffffffffffffffffffffffffffffff1681526020018573ffffffffffffffffffffffffffffffffffffffff1673ffffffffffffffffffffffffffffffffffffffff16815260200184815260200183815260200182815260200196505050505050506040516020818303038152906040528051906020012060405160200180807f1901000000000000000000000000000000000000000000000000000000000000815250600201838152602001828152602001925050506040516020818303038152906040528051906020012090506123987f4731f0ab91fddaf86460c9adb6b1c64d3a1bbaf2737df9ec842fdefc8c31626360001b6115f7565b6123c47ff0bc9e743b976ce72db605baea486cc8716eb8bb1e8ebd10e31d4ea14e13d24260001b6115f7565b600060018286868660405160008152602001604052604051808581526020018460ff1660ff1681526020018381526020018281526020019450505050506020604051602081039080840390855afa158015612423573d6000803e3d6000fd5b50505060206040510351905061245b7fc24f51ecc0b5abc527aa19233a00e1b31782923a00bba7747bf516e6f057bad760001b6115f7565b6124877f14adb9cb1e6cb14243f28a84bceb31e0843bcb5b79f7a3a8a5c4d4dadfb0216d60001b6115f7565b6124b37fe107fda8c902ef83a1832fef631e4756f6d5cb83e6953be6012c9ff09ce8966160001b6115f7565b8873ffffffffffffffffffffffffffffffffffffffff168173ffffffffffffffffffffffffffffffffffffffff1614612554576040517f08c379a00000000000000000000000000000000000000000000000000000000081526004018080602001828103825260178152602001807f4c5154593a20696e76616c6964207369676e617475726500000000000000000081525060200191505060405180910390fd5b6125807f4ecccf143e4e99ccac7a8b4a611d22e63f8af7158e23e2fc0b05482f7b6dfed160001b6115f7565b6125ac7f3b4e7b974a5281c43f151a3a2acc02e025cbf1447c155447fd047eba3a40f8d760001b6115f7565b6125d87fc364320790c04e338d841184d0c877fa2516af9c8bfd99cfb92ef767a3548ae460001b6115f7565b6125e3898989612d2b565b505050505050505050565b7f000000000000000000000000000000000000000000000000000000000000000081565b60006126407f0e242dc1a1de7a7a7e0410087141ab5d1227fb66177abc356da21ca6f584106760001b6115f7565b61266c7fba8fa7e88836d9059390bb0b80b64bab72b631e570dc8855e2935c840f8da25660001b6115f7565b6126987f2350f2bded4e5acd37ed93b3e868ff1dcd4a830de9b08febb1fba4f580c9485060001b6115f7565b600160008473ffffffffffffffffffffffffffffffffffffffff1673ffffffffffffffffffffffffffffffffffffffff16815260200190815260200160002060008373ffffffffffffffffffffffffffffffffffffffff1673ffffffffffffffffffffffffffffffffffffffff16815260200190815260200160002054905092915050565b6301e1338081565b6127517f66a7a6cc9360ebdd65a1d9d13f84040bd2a1c6d10f45920f586371829afb64e060001b6115f7565b61277d7f795dce5ebcf4ded7de70d6ad0f2192692c98c3ca0438c7352070297e97771b6760001b6115f7565b6127a97f6e1369a067ffa18c852c41697cf757fe22cf61a351d9ab9573d5313375e8ace760001b6115f7565b6127b16144bb565b6127dd7f95aa26b523fe36eebb862b4c8f1ff5e422ad5b4b2f7a8f014667707333495eda60001b6115f7565b6128097f2d79b50f1425a55e49a70d5f808d9c363dc89ea2a5807c2d275bb41169b32e8460001b6115f7565b61281161315e565b1561287c576128427f3ae651b793ed32f37bb2c7edfa21b6479e16429f7d8fb6602a9f88cc9de295bb60001b6115f7565b61286e7f111b65d419751dd71e8aaa72a41f4b15a9708a23a43957b4496a44224d2854a260001b6115f7565b6128778261335e565b6128a9565b6128a87f719589c3e18d96efe67e4b34722577bf0bfbc066ece341bfe6cae5d36594718460001b6115f7565b5b6128d57f1c3204afdb5c20c327002fa3c4372af5bbf1cac878f64192636c89ef5c9801b260001b6115f7565b6129017f39609b391e9b4fd94b6542f41b7db5f8c8426b33be915bff7af459618d3481b660001b6115f7565b61292c827f00000000000000000000000000000000000000000000000000000000000000008361382c565b5050565b600061295e7fce3dba69b93b121e5375439001550e813548276035accf507b9ddc12d9f5c0d560001b6115f7565b61298a7f8305366621ec2600017bbcfa1a2b1b4efb497e39693717d80129f2810cfbea3c60001b6115f7565b6129b67f5f4092d35fdb66084fd736f920cbf3b3b9eda3b92139afa945e4b12ff336fbc460001b6115f7565b7f00000000000000000000000000000000000000000000000000000000000000006129df61463d565b1415612a9157612a117fe41564ae64e23fbbb7a1a7f170737620777a91d23728441080431385f9e8dca860001b6115f7565b612a3d7f4f32c0ebc4dd9a12514fb7a4bf55b7a8e0c8c8b0d04a126c97f01b64a047625360001b6115f7565b612a697f8c74534c33fb28103156c59307633ad81fa0158525e5c930f79cbbbd42cd625360001b6115f7565b7f00000000000000000000000000000000000000000000000000000000000000009050612b86565b612abd7f1dd28e37e08a7d73a626a3a542f8cb069b294279be1d528e3f12b0711e1ccb5860001b6115f7565b612ae97f12904911e0ba1f8f5401112bbbc2604bee84cbb154399be9a597cb2f3330f74d60001b6115f7565b612b157fe8af43986b8ec2ccc564735a39cbfc5b5ae2d06560d54d1aea3fc0c63da6bd3160001b6115f7565b612b837f8b73c3c69bb8fe3d512ecc4cf759cc79239f7b179b0ffacaa9a75d522b39400f60001b7f00000000000000000000000000000000000000000000000000000000000000007f000000000000000000000000000000000000000000000000000000000000000061469d565b90505b90565b600080831415612b9c5760009050612c09565b6000828402905082848281612bad57fe5b0414612c04576040517f08c379a00000000000000000000000000000000000000000000000000000000081526004018080602001828103825260218152602001806149026021913960400191505060405180910390fd5b809150505b92915050565b6000612c5183836040518060400160405280601a81526020017f536166654d6174683a206469766973696f6e206279207a65726f0000000000008152506147a6565b905092915050565b6000612c9b83836040518060400160405280601e81526020017f536166654d6174683a207375627472616374696f6e206f766572666c6f770000815250613d76565b905092915050565b600080828401905083811015612d21576040517f08c379a000000000000000000000000000000000000000000000000000000000815260040180806020018281038252601b8152602001807f536166654d6174683a206164646974696f6e206f766572666c6f77000000000081525060200191505060405180910390fd5b8091505092915050565b612d577f73475f9a2e1a309e77699aed914f20634bb0004af8013546d261a4cf581c564e60001b6115f7565b612d837f55fc66bd7ccc5102050f159d9b3e5745f24a431531adc790e6504a34990cd06860001b6115f7565b612daf7fe50f601686227c1d4e9b5baec433b084554bf1cd1f7920a96d93b89889b6109160001b6115f7565b612ddb7fd2dcb48aec4ded94153ca7ecc0481c6d1ed15304200ae24694ea9abb75a3216360001b6115f7565b600073ffffffffffffffffffffffffffffffffffffffff168373ffffffffffffffffffffffffffffffffffffffff161415612e61576040517f08c379a000000000000000000000000000000000000000000000000000000000815260040180806020018281038252602481526020018061499a6024913960400191505060405180910390fd5b612e8d7fc7ace63b44223442094a9a518e86866534d899a97d2ba85c3bb712d3966e942d60001b6115f7565b612eb97f95b6e6d441e2f41db48d37274710c4e6bdf329b2c538ed2e40d2a29f5b00e19660001b6115f7565b612ee57f5c2b48fd9f2fec4b354cf992f87d18a823b7ea01101f6be49a3590e87561e30a60001b6115f7565b612f117fc75cf77cf37fb7ed52ca656b0a1b51257a5c26cbbf967b19ba2b1e7d3aadd5ce60001b6115f7565b600073ffffffffffffffffffffffffffffffffffffffff168273ffffffffffffffffffffffffffffffffffffffff161415612f97576040517f08c379a00000000000000000000000000000000000000000000000000000000081526004018080602001828103825260228152602001806148906022913960400191505060405180910390fd5b612fc37f89edc7ce28975722a5eeca6304dc6e8d33cd3e2bbb207bdd12e5ae0c413c510b60001b6115f7565b612fef7fb7ce4f0eb5fc61763e0cc8362642f7ab9e1cf2ae0d8f386a79346ca1da0a89bf60001b6115f7565b61301b7f5a0533bae6ede07650a63fee0e6de8d703ca49176ac00fc11748e358611e8d0360001b6115f7565b80600160008573ffffffffffffffffffffffffffffffffffffffff1673ffffffffffffffffffffffffffffffffffffffff16815260200190815260200160002060008473ffffffffffffffffffffffffffffffffffffffff1673ffffffffffffffffffffffffffffffffffffffff168152602001908152602001600020819055506130c87f493a91f6ab98e318cb2c967b32902c6f7ca3920ff6619017e70504354c82347460001b6115f7565b6130f47f076d4a7270b423251b87ed70101754f55fad437dc842a8cf6da3c1a033b258d060001b6115f7565b8173ffffffffffffffffffffffffffffffffffffffff168373ffffffffffffffffffffffffffffffffffffffff167f8c5be1e5ebec7d5bd14f71427d1e84f3dd0314c0f7b2291e5b200ac8c7c3b925836040518082815260200191505060405180910390a3505050565b600061318c7f85f605cb4bb0cf0ed5e99012797a61a8481931efa2b3a28d391107ffb4a3d70160001b6115f7565b6131b87f9aaf84ea2ccf7689fa9dfe90c9f309fcafbbee9a1d660361d0cdf58bdcbd59e660001b6115f7565b6131e47f6282d62e771a22ef40f9b7449e87c90a219ed45fc778d43759f89ad71297acaf60001b6115f7565b6301e1338061321c7f000000000000000000000000000000000000000000000000000000000000000042612c5990919063ffffffff16565b10905090565b61324e7f0c147bd2eb9257d6837e12f241766885c42cbef96697b38d39e47401f98a17a660001b6115f7565b61327a7fe92dfca50a10b602f756a023d9766c1fbc396db7959b918d72840ddc2d8c6ee460001b6115f7565b6132a67f57250c2b10d901e817a1467eb4d10f9c7e46e89c00b71eee4d624dd1f415ac5260001b6115f7565b6132d27fd43bf0602bf899a6b0e8ef9c25c0878617b3a0c33d6cefd444bfca37c83100c060001b6115f7565b6132da6141d5565b15613330576040517f08c379a000000000000000000000000000000000000000000000000000000000815260040180806020018281038252602a8152602001806148b2602a913960400191505060405180910390fd5b61335c7f35cc34922a1133d83d71737be96895adbb52a8fd6ae9979c12eb173cb2c7fe0860001b6115f7565b565b61338a7fc3688b32de1d551fa63e8b2dfe04b9852eb7b5a8e9a8bfdd25af18d17d13712860001b6115f7565b6133b67f7cd4f7e64d2eaff16e47a87014a95653966eb39737a21eaa9319942e2e1b482760001b6115f7565b6133e27f1343052707b872dfc3f67eb70423424f69fed4b401620c1fcff24080c44b8c6360001b6115f7565b61340e7f2e87b17289a5e66e07a439b01ae5ce379a8c0361b8b0ef8cd421ce04824a495160001b6115f7565b7f000000000000000000000000000000000000000000000000000000000000000073ffffffffffffffffffffffffffffffffffffffff168173ffffffffffffffffffffffffffffffffffffffff1614156134b3576040517f08c379a000000000000000000000000000000000000000000000000000000000815260040180806020018281038252602a815260200180614923602a913960400191505060405180910390fd5b6134df7fddd42546f469f379167f97a31af6742032b86e8bdf2dc611ca6958088fa61ce860001b6115f7565b50565b61350e7fdecb04e031efaf3f17ed41b8773412d5cb757b17e740d6620affd0bddc2bdb1760001b6115f7565b61353a7f1c2b42327c8901e919487c624a5f3e515d0a830b471980d6c20bf3d7063883c060001b6115f7565b6135667fe110cbda229708a08b49ff1aecf81bf944e754c109c22a47eb719c8fc6acd7a460001b6115f7565b6135927f0de42565eb3cf3f935c632bdde1c68a036fd803edfd0bad1ea93abe0c4a2529560001b6115f7565b600073ffffffffffffffffffffffffffffffffffffffff168173ffffffffffffffffffffffffffffffffffffffff16141580156135fb57503073ffffffffffffffffffffffffffffffffffffffff168173ffffffffffffffffffffffffffffffffffffffff1614155b613650576040517f08c379a00000000000000000000000000000000000000000000000000000000081526004018080602001828103825260548152602001806149f06054913960600191505060405180910390fd5b61367c7f787779c2ea11672597a797cee218d93958f17b5b5a63991fc74b909913dbfb5060001b6115f7565b6136a87ffc03e3c75ef01dd94c7c1d332f0a0b08c355a8021748da86f9b70aa330fecae360001b6115f7565b6136d47f93a07390887458ad61207033154ddbb08391c7b2a90894fe8230b28568fc65ba60001b6115f7565b6137007fbf45a09f02901ae09c5c9be4133a4a64ac6a8e3fc4e05792f011a0f2e1ec67aa60001b6115f7565b7f000000000000000000000000000000000000000000000000000000000000000073ffffffffffffffffffffffffffffffffffffffff168173ffffffffffffffffffffffffffffffffffffffff16141580156137a857507f000000000000000000000000000000000000000000000000000000000000000073ffffffffffffffffffffffffffffffffffffffff168173ffffffffffffffffffffffffffffffffffffffff1614155b6137fd576040517f08c379a0000000000000000000000000000000000000000000000000000000008152600401808060200182810382526053815260200180614a446053913960600191505060405180910390fd5b6138297f3fef3a765045fe0579c10874eff90f6a4a9827951f1c257f6b6585fdf61a543d60001b6115f7565b50565b6138587f9152e98e748c3a3465671443bca64c5e9de5b0c883320d9290d57bf7c1e391a760001b6115f7565b6138847f2b8cbf7cf8c82ff8cfb506aa3f2f721746b52c61b980cf0333c0e4536f5c27ce60001b6115f7565b6138b07f8c102813886f820d7c6c8dcc89968fac99eb61bfe5f91d553741aed2264a778b60001b6115f7565b6138dc7f6641e6d666c02cb4d1c9e46cde17ca5588dfdbe3a3675718ca718d8e994b935960001b6115f7565b600073ffffffffffffffffffffffffffffffffffffffff168373ffffffffffffffffffffffffffffffffffffffff161415613962576040517f08c379a00000000000000000000000000000000000000000000000000000000081526004018080602001828103825260258152602001806149756025913960400191505060405180910390fd5b61398e7f3b301b6adddd3350e82c1fe41cffcc3462b67c252eef5cb0cc84f18223629a1d60001b6115f7565b6139ba7f852c7b3c5038a1bbbe44155e90bb7f86b1a1b452a585af8894cc844c1858077a60001b6115f7565b6139e67f7265024b035ab9f89aeedd21772fba14de54249a95b6aecf419099da69f6694f60001b6115f7565b613a127ffee1770e519ee1e7e3e3b32a9c22218f6561425e3c599d5c4351e9582796d8cf60001b6115f7565b600073ffffffffffffffffffffffffffffffffffffffff168273ffffffffffffffffffffffffffffffffffffffff161415613a98576040517f08c379a000000000000000000000000000000000000000000000000000000000815260040180806020018281038252602381526020018061486d6023913960400191505060405180910390fd5b613ac47fe8050bb92a77f483b48021352e21fbcb35d691d30ce14cf3789ea78c981e745460001b6115f7565b613af07fccc069657ce06398780c2b67931167ba61bc18d3367898dde16b128bb6c4220960001b6115f7565b613b1c7f989a9413f6ca962d2e0f050a7e137c41a949edec792e1e1c07ac51260abd1dd160001b6115f7565b613b87816040518060600160405280602681526020016148dc602691396000808773ffffffffffffffffffffffffffffffffffffffff1673ffffffffffffffffffffffffffffffffffffffff16815260200190815260200160002054613d769092919063ffffffff16565b6000808573ffffffffffffffffffffffffffffffffffffffff1673ffffffffffffffffffffffffffffffffffffffff16815260200190815260200160002081905550613bf57f766649f9a39f417d5401bcf6677656d5cb6854a7db6e1ac952961f3b2bfaab0560001b6115f7565b613c217ff77fe6acad0622ce361890f3ea1a38fab5f30b462699cecd882f5fbc2b40d11360001b6115f7565b613c72816000808573ffffffffffffffffffffffffffffffffffffffff1673ffffffffffffffffffffffffffffffffffffffff16815260200190815260200160002054612ca390919063ffffffff16565b6000808473ffffffffffffffffffffffffffffffffffffffff1673ffffffffffffffffffffffffffffffffffffffff16815260200190815260200160002081905550613ce07f2f91f0b2bafbead5580732c740ad9a3509a580a47cb59957e9b325c81946870f60001b6115f7565b613d0c7ff48bb38e1944a1089e9a1da3c3a36bafbb81af0917e0a8f33c0c25b63758af2860001b6115f7565b8173ffffffffffffffffffffffffffffffffffffffff168373ffffffffffffffffffffffffffffffffffffffff167fddf252ad1be2c89b69c2b068fc378daa952ba7f163c4a11628f55a4df523b3ef836040518082815260200191505060405180910390a3505050565b6000838311158290613e23576040517f08c379a00000000000000000000000000000000000000000000000000000000081526004018080602001828103825283818151815260200191508051906020019080838360005b83811015613de8578082015181840152602081019050613dcd565b50505050905090810190601f168015613e155780820380516001836020036101000a031916815260200191505b509250505060405180910390fd5b5060008385039050809150509392505050565b613e627ffe500356e1478669d749f581c2ff7ebd03ab1a6e386f42a6361ca6bc1476608560001b6115f7565b613e8e7f0dedba678a90fbe6874c8e5f2f8a32b03cfda8e52b9fe8352ed29ad9f23df75060001b6115f7565b613eba7f9516e75d8f7f019f10e6741b915777fec2e7bda8963dbf12e9aee1a5b71fbfe860001b6115f7565b613ee67fe4287dc3425d00f88b869199d73819b477eaed0c50117ec98c7cdfa34639076760001b6115f7565b600073ffffffffffffffffffffffffffffffffffffffff168273ffffffffffffffffffffffffffffffffffffffff161415613f89576040517f08c379a000000000000000000000000000000000000000000000000000000000815260040180806020018281038252601f8152602001807f45524332303a206d696e7420746f20746865207a65726f20616464726573730081525060200191505060405180910390fd5b613fb57fc9a8df7a7d04e22618b2ce8ab1fcc6ec39ce732fec9f4abe8b26b0d10a1014f660001b6115f7565b613fe17f62980609d6669711a88b825123a4e038f8175fb221c19a413df4111bdec8b05360001b6115f7565b61400d7fd6d05236398adcdcc43844da2d30e8d8a7cddab76fcd4e5806b8bb55423faf8660001b6115f7565b61402281600254612ca390919063ffffffff16565b6002819055506140547ff8c0f74a9c5d3e21f8cd74f3f78e64a09b6f7390cd876e611d37a4ef196ad52f60001b6115f7565b6140807ff40c220ac9195f35f6bcccdeb70ba2d4556a14b66f00d4d1329ab7c49b1359b660001b6115f7565b6140d1816000808573ffffffffffffffffffffffffffffffffffffffff1673ffffffffffffffffffffffffffffffffffffffff16815260200190815260200160002054612ca390919063ffffffff16565b6000808473ffffffffffffffffffffffffffffffffffffffff1673ffffffffffffffffffffffffffffffffffffffff1681526020019081526020016000208190555061413f7f0d5146db6750cfb58643f10e71e9101720b4dd5688ef783adde28a9af685f03160001b6115f7565b61416b7f63a702d3e17385402fd58aa621cc07f758c1243d1d03e44aad14b968eeca7f6760001b6115f7565b8173ffffffffffffffffffffffffffffffffffffffff16600073ffffffffffffffffffffffffffffffffffffffff167fddf252ad1be2c89b69c2b068fc378daa952ba7f163c4a11628f55a4df523b3ef836040518082815260200191505060405180910390a35050565b60006142037f4e972c311a69826a6d5704a4ac4fabb08e19a9d24e03e795164c4d8f0a72183f60001b6115f7565b61422f7f512cf4c7c9a7422b57635645dace4b08182dcdc69c6e5519cc22659c520a3b1160001b6115f7565b61425b7fb9dc29a27a141a42d59dbdaa9a6d3fae7e22545e566e2257315c22d26dadc84b60001b6115f7565b7f000000000000000000000000000000000000000000000000000000000000000073ffffffffffffffffffffffffffffffffffffffff163373ffffffffffffffffffffffffffffffffffffffff1614905090565b6142db7f60d292a4fad268e0e20abe3790f338051348c4deaa777cd15987ad5205e12c8560001b6115f7565b6143077fa535e1680ffe772aa849a375272be17636108a9bd01604a52ca1f519ea7ef35d60001b6115f7565b6143337f9f46cb75f3c2259e1dc2fe3b2092625036e5927f32fbef9fd8fee704b7d093a460001b6115f7565b61435f7fc9b6a923cc3ab26e233957bfe8281385a5f841796815c829a7bcdc3b038a50c860001b6115f7565b7f000000000000000000000000000000000000000000000000000000000000000073ffffffffffffffffffffffffffffffffffffffff1663bb7603f1826040518263ffffffff1660e01b8152600401808273ffffffffffffffffffffffffffffffffffffffff1673ffffffffffffffffffffffffffffffffffffffff16815260200191505060206040518083038186803b1580156143fc57600080fd5b505afa158015614410573d6000803e3d6000fd5b505050506040513d602081101561442657600080fd5b810190808051906020019092919050505061448c576040517f08c379a0000000000000000000000000000000000000000000000000000000008152600401808060200182810382526047815260200180614a976047913960600191505060405180910390fd5b6144b87f63c876188f7eee56a3e1b37684935d2394a35b765306d85fbac0e33e0332881160001b6115f7565b50565b6144e77f6f03682821017ef5fb085078a4695c4a5453fa69cd0fc0b0acb1a60784495fd460001b6115f7565b6145137ff04d5487f6aea13a1b89d85432adfbd6d1b7273fb425c9fa6d27cb705cef37ec60001b6115f7565b61453f7fcec02804f83119ae26e8c7837461e9369eeac641dde955d779d763fc316ab73560001b6115f7565b61456b7f257575f7eebb88748969b3cf8232e7a35737af631087f0c6028a6367224e410460001b6115f7565b7f000000000000000000000000000000000000000000000000000000000000000073ffffffffffffffffffffffffffffffffffffffff163373ffffffffffffffffffffffffffffffffffffffff161461460f576040517f08c379a00000000000000000000000000000000000000000000000000000000081526004018080602001828103825260328152602001806149be6032913960400191505060405180910390fd5b61463b7f6dcf76c7bd2e0103315b0799a72015fcccf05c46972b3e9ef4eb83e07b6588a760001b6115f7565b565b600061466b7fce9815fa4c073b8b60b53e2c100e2688fe70b83c3927a0c8d4bed70523a5a58860001b6115f7565b6146977f8c562374aa17e464e71c99b9056cb47521227962bc20bbcdf68e2003de92959d60001b6115f7565b46905090565b60006146cb7f964c80b64be9b8d7d3492c504282c6823ec2d54f5c355357616a5111142dcccc60001b6115f7565b6146f77fc29ab5b9af0cc514fed3d76d10752590b9a847c2ee09287b8efb2901285512df60001b6115f7565b6147237f49710488a5bca8c5a466218a86ab61a205ce0bd4b1a771ea2b20f68d2748a9e260001b6115f7565b83838361472e61463d565b30604051602001808681526020018581526020018481526020018381526020018273ffffffffffffffffffffffffffffffffffffffff1673ffffffffffffffffffffffffffffffffffffffff168152602001955050505050506040516020818303038152906040528051906020012090509392505050565b60008083118290614852576040517f08c379a00000000000000000000000000000000000000000000000000000000081526004018080602001828103825283818151815260200191508051906020019080838360005b838110156148175780820151818401526020810190506147fc565b50505050905090810190601f1680156148445780820380516001836020036101000a031916815260200191505b509250505060405180910390fd5b50600083858161485e57fe5b04905080915050939250505056fe45524332303a207472616e7366657220746f20746865207a65726f206164647265737345524332303a20617070726f766520746f20746865207a65726f20616464726573734c515459546f6b656e3a2063616c6c6572206d757374206e6f7420626520746865206d756c746973696745524332303a207472616e7366657220616d6f756e7420657863656564732062616c616e6365536166654d6174683a206d756c7469706c69636174696f6e206f766572666c6f774c515459546f6b656e3a2073656e646572206d757374206e6f7420626520746865206d756c746973696745524332303a207472616e7366657220616d6f756e74206578636565647320616c6c6f77616e636545524332303a207472616e736665722066726f6d20746865207a65726f206164647265737345524332303a20617070726f76652066726f6d20746865207a65726f20616464726573734c515459546f6b656e3a2063616c6c6572206d75737420626520746865204c5154595374616b696e6720636f6e74726163744c5154593a2043616e6e6f74207472616e7366657220746f6b656e73206469726563746c7920746f20746865204c51545920746f6b656e20636f6e7472616374206f7220746865207a65726f20616464726573734c5154593a2043616e6e6f74207472616e7366657220746f6b656e73206469726563746c7920746f2074686520636f6d6d756e6974792069737375616e6365206f72207374616b696e6720636f6e74726163744c515459546f6b656e3a20726563697069656e74206d7573742062652061204c6f636b7570436f6e7472616374207265676973746572656420696e2074686520466163746f727945524332303a2064656372656173656420616c6c6f77616e63652062656c6f77207a65726fa2646970667358221220625917f9a5370e0a1b48e2c2ccb7e1dbeb25e687759f3532abd9831f5361d0da64736f6c634300060b0033536166654d6174683a206d756c7469706c69636174696f6e206f766572666c6f77",
  "linkReferences": {},
  "deployedLinkReferences": {}
}