{
  "_format": "hh-sol-artifact-1",
  "contractName": "LUSDToken",
  "sourceName": "contracts/LUSDToken.sol",
  "abi": [
    {
      "inputs": [
        {
          "internalType": "address",
          "name": "_troveManagerAddress",
          "type": "address"
        },
        {
          "internalType": "address",
          "name": "_stabilityPoolAddress",
          "type": "address"
        },
        {
          "internalType": "address",
          "name": "_borrowerOperationsAddress",
          "type": "address"
        }
      ],
      "stateMutability": "nonpayable",
      "type": "constructor"
    },
    {
      "anonymous": false,
      "inputs": [
        {
          "indexed": true,
          "internalType": "address",
          "name": "owner",
          "type": "address"
        },
        {
          "indexed": true,
          "internalType": "address",
          "name": "spender",
          "type": "address"
        },
        {
          "indexed": false,
          "internalType": "uint256",
          "name": "value",
          "type": "uint256"
        }
      ],
      "name": "Approval",
      "type": "event"
    },
    {
      "anonymous": false,
      "inputs": [
        {
          "indexed": false,
          "internalType": "address",
          "name": "_newBorrowerOperationsAddress",
          "type": "address"
        }
      ],
      "name": "BorrowerOperationsAddressChanged",
      "type": "event"
    },
    {
      "anonymous": false,
      "inputs": [
        {
          "indexed": false,
          "internalType": "address",
          "name": "_user",
          "type": "address"
        },
        {
          "indexed": false,
          "internalType": "uint256",
          "name": "_amount",
          "type": "uint256"
        }
      ],
      "name": "LUSDTokenBalanceUpdated",
      "type": "event"
    },
    {
      "anonymous": false,
      "inputs": [
        {
          "indexed": false,
          "internalType": "address",
          "name": "_newStabilityPoolAddress",
          "type": "address"
        }
      ],
      "name": "StabilityPoolAddressChanged",
      "type": "event"
    },
    {
      "anonymous": false,
      "inputs": [
        {
          "indexed": true,
          "internalType": "address",
          "name": "from",
          "type": "address"
        },
        {
          "indexed": true,
          "internalType": "address",
          "name": "to",
          "type": "address"
        },
        {
          "indexed": false,
          "internalType": "uint256",
          "name": "value",
          "type": "uint256"
        }
      ],
      "name": "Transfer",
      "type": "event"
    },
    {
      "anonymous": false,
      "inputs": [
        {
          "indexed": false,
          "internalType": "address",
          "name": "_troveManagerAddress",
          "type": "address"
        }
      ],
      "name": "TroveManagerAddressChanged",
      "type": "event"
    },
    {
      "inputs": [
        {
          "internalType": "address",
          "name": "owner",
          "type": "address"
        },
        {
          "internalType": "address",
          "name": "spender",
          "type": "address"
        }
      ],
      "name": "allowance",
      "outputs": [
        {
          "internalType": "uint256",
          "name": "",
          "type": "uint256"
        }
      ],
      "stateMutability": "view",
      "type": "function"
    },
    {
      "inputs": [
        {
          "internalType": "address",
          "name": "spender",
          "type": "address"
        },
        {
          "internalType": "uint256",
          "name": "amount",
          "type": "uint256"
        }
      ],
      "name": "approve",
      "outputs": [
        {
          "internalType": "bool",
          "name": "",
          "type": "bool"
        }
      ],
      "stateMutability": "nonpayable",
      "type": "function"
    },
    {
      "inputs": [
        {
          "internalType": "address",
          "name": "account",
          "type": "address"
        }
      ],
      "name": "balanceOf",
      "outputs": [
        {
          "internalType": "uint256",
          "name": "",
          "type": "uint256"
        }
      ],
      "stateMutability": "view",
      "type": "function"
    },
    {
      "inputs": [],
      "name": "borrowerOperationsAddress",
      "outputs": [
        {
          "internalType": "address",
          "name": "",
          "type": "address"
        }
      ],
      "stateMutability": "view",
      "type": "function"
    },
    {
      "inputs": [
        {
          "internalType": "address",
          "name": "_account",
          "type": "address"
        },
        {
          "internalType": "uint256",
          "name": "_amount",
          "type": "uint256"
        }
      ],
      "name": "burn",
      "outputs": [],
      "stateMutability": "nonpayable",
      "type": "function"
    },
    {
      "inputs": [
        {
          "internalType": "bytes32",
          "name": "c__0x174ebfde",
          "type": "bytes32"
        }
      ],
      "name": "c_0x174ebfde",
      "outputs": [],
      "stateMutability": "pure",
      "type": "function"
    },
    {
      "inputs": [
        {
          "internalType": "bytes32",
          "name": "c__0xafd32059",
          "type": "bytes32"
        }
      ],
      "name": "c_0xafd32059",
      "outputs": [],
      "stateMutability": "pure",
      "type": "function"
    },
    {
      "inputs": [],
      "name": "decimals",
      "outputs": [
        {
          "internalType": "uint8",
          "name": "",
          "type": "uint8"
        }
      ],
      "stateMutability": "view",
      "type": "function"
    },
    {
      "inputs": [
        {
          "internalType": "address",
          "name": "spender",
          "type": "address"
        },
        {
          "internalType": "uint256",
          "name": "subtractedValue",
          "type": "uint256"
        }
      ],
      "name": "decreaseAllowance",
      "outputs": [
        {
          "internalType": "bool",
          "name": "",
          "type": "bool"
        }
      ],
      "stateMutability": "nonpayable",
      "type": "function"
    },
    {
      "inputs": [],
      "name": "domainSeparator",
      "outputs": [
        {
          "internalType": "bytes32",
          "name": "",
          "type": "bytes32"
        }
      ],
      "stateMutability": "view",
      "type": "function"
    },
    {
      "inputs": [
        {
          "internalType": "address",
          "name": "spender",
          "type": "address"
        },
        {
          "internalType": "uint256",
          "name": "addedValue",
          "type": "uint256"
        }
      ],
      "name": "increaseAllowance",
      "outputs": [
        {
          "internalType": "bool",
          "name": "",
          "type": "bool"
        }
      ],
      "stateMutability": "nonpayable",
      "type": "function"
    },
    {
      "inputs": [
        {
          "internalType": "address",
          "name": "_account",
          "type": "address"
        },
        {
          "internalType": "uint256",
          "name": "_amount",
          "type": "uint256"
        }
      ],
      "name": "mint",
      "outputs": [],
      "stateMutability": "nonpayable",
      "type": "function"
    },
    {
      "inputs": [],
      "name": "name",
      "outputs": [
        {
          "internalType": "string",
          "name": "",
          "type": "string"
        }
      ],
      "stateMutability": "view",
      "type": "function"
    },
    {
      "inputs": [
        {
          "internalType": "address",
          "name": "owner",
          "type": "address"
        }
      ],
      "name": "nonces",
      "outputs": [
        {
          "internalType": "uint256",
          "name": "",
          "type": "uint256"
        }
      ],
      "stateMutability": "view",
      "type": "function"
    },
    {
      "inputs": [
        {
          "internalType": "address",
          "name": "owner",
          "type": "address"
        },
        {
          "internalType": "address",
          "name": "spender",
          "type": "address"
        },
        {
          "internalType": "uint256",
          "name": "amount",
          "type": "uint256"
        },
        {
          "internalType": "uint256",
          "name": "deadline",
          "type": "uint256"
        },
        {
          "internalType": "uint8",
          "name": "v",
          "type": "uint8"
        },
        {
          "internalType": "bytes32",
          "name": "r",
          "type": "bytes32"
        },
        {
          "internalType": "bytes32",
          "name": "s",
          "type": "bytes32"
        }
      ],
      "name": "permit",
      "outputs": [],
      "stateMutability": "nonpayable",
      "type": "function"
    },
    {
      "inputs": [],
      "name": "permitTypeHash",
      "outputs": [
        {
          "internalType": "bytes32",
          "name": "",
          "type": "bytes32"
        }
      ],
      "stateMutability": "view",
      "type": "function"
    },
    {
      "inputs": [
        {
          "internalType": "address",
          "name": "_poolAddress",
          "type": "address"
        },
        {
          "internalType": "address",
          "name": "_receiver",
          "type": "address"
        },
        {
          "internalType": "uint256",
          "name": "_amount",
          "type": "uint256"
        }
      ],
      "name": "returnFromPool",
      "outputs": [],
      "stateMutability": "nonpayable",
      "type": "function"
    },
    {
      "inputs": [
        {
          "internalType": "address",
          "name": "_sender",
          "type": "address"
        },
        {
          "internalType": "address",
          "name": "_poolAddress",
          "type": "address"
        },
        {
          "internalType": "uint256",
          "name": "_amount",
          "type": "uint256"
        }
      ],
      "name": "sendToPool",
      "outputs": [],
      "stateMutability": "nonpayable",
      "type": "function"
    },
    {
      "inputs": [],
      "name": "stabilityPoolAddress",
      "outputs": [
        {
          "internalType": "address",
          "name": "",
          "type": "address"
        }
      ],
      "stateMutability": "view",
      "type": "function"
    },
    {
      "inputs": [],
      "name": "symbol",
      "outputs": [
        {
          "internalType": "string",
          "name": "",
          "type": "string"
        }
      ],
      "stateMutability": "view",
      "type": "function"
    },
    {
      "inputs": [],
      "name": "totalSupply",
      "outputs": [
        {
          "internalType": "uint256",
          "name": "",
          "type": "uint256"
        }
      ],
      "stateMutability": "view",
      "type": "function"
    },
    {
      "inputs": [
        {
          "internalType": "address",
          "name": "recipient",
          "type": "address"
        },
        {
          "internalType": "uint256",
          "name": "amount",
          "type": "uint256"
        }
      ],
      "name": "transfer",
      "outputs": [
        {
          "internalType": "bool",
          "name": "",
          "type": "bool"
        }
      ],
      "stateMutability": "nonpayable",
      "type": "function"
    },
    {
      "inputs": [
        {
          "internalType": "address",
          "name": "sender",
          "type": "address"
        },
        {
          "internalType": "address",
          "name": "recipient",
          "type": "address"
        },
        {
          "internalType": "uint256",
          "name": "amount",
          "type": "uint256"
        }
      ],
      "name": "transferFrom",
      "outputs": [
        {
          "internalType": "bool",
          "name": "",
          "type": "bool"
        }
      ],
      "stateMutability": "nonpayable",
      "type": "function"
    },
    {
      "inputs": [],
      "name": "troveManagerAddress",
      "outputs": [
        {
          "internalType": "address",
          "name": "",
          "type": "address"
        }
      ],
      "stateMutability": "view",
      "type": "function"
    },
    {
      "inputs": [],
      "name": "version",
      "outputs": [
        {
          "internalType": "string",
          "name": "",
          "type": "string"
        }
      ],
      "stateMutability": "view",
      "type": "function"
    }
  ],
  "bytecode": "0x6101606040523480156200001257600080fd5b50604051620050ba380380620050ba833981810160405260608110156200003857600080fd5b81019080805190602001909291908051906020019092919080519060200190929190505050620000917f39c7255dd80123d27b4fd5a11d1769027a6cccb11397e05f446f23b80c4a991160001b6200099e60201b60201c565b620000c57fe38db0c1cc9b7de2d92f39f3e5e9da37237f807c0c243a36f55a235341ea22cb60001b6200099e60201b60201c565b620000f97f672017337520d4dfdc3e8c0ca1a9f899cd5fc4669a38820e03414b806e5bd58660001b6200099e60201b60201c565b6200010a83620009a160201b60201c565b6200013e7f18da30051db4d9a4bf15233bd02def848bfd73ab990eac9e7db6baf0cb0c8a1e60001b6200099e60201b60201c565b620001727f70e28d68e9ee67382ddeea3ab9862bc6e84aeacf02ab9afbfca00d2e01ea62e260001b6200099e60201b60201c565b6200018382620009a160201b60201c565b620001b77f481d8753854a631a04467270edc3f2a5bf20d896633e7dbdbf31a9a087f42dcb60001b6200099e60201b60201c565b620001eb7f8649c45b3a74b57c442720ed28dbed3aed2c3264fe2e711b8d295f4d156a76e160001b6200099e60201b60201c565b620001fc81620009a160201b60201c565b620002307f871c49760235babad0278cc483d146002c37d03237225c9f89bc9d1b95d91b6f60001b6200099e60201b60201c565b620002647ffb9069c99a7422104027d0c4f07a71cda5c0bb7eead0d2a3e8c7453f972f8f4060001b6200099e60201b60201c565b8273ffffffffffffffffffffffffffffffffffffffff166101008173ffffffffffffffffffffffffffffffffffffffff1660601b81525050620002d07f94a9902b3e966f88d643d14e9bdb9aac4c0840ec9f51aab1df6a2dbe0215dafe60001b6200099e60201b60201c565b620003047f5fa2b8d77101320d21617aa098981c88bf87e86bbc3390fe2a4642efe8b659ba60001b6200099e60201b60201c565b7f143219c9e69b09e07e095fcc889b43d8f46ca892bba65f08dc3a0050869a567883604051808273ffffffffffffffffffffffffffffffffffffffff1673ffffffffffffffffffffffffffffffffffffffff16815260200191505060405180910390a16200039b7f29550e4fc3caf5d2863ce69d90c98497f96d8b330b77f933d8563629e2a9e86460001b6200099e60201b60201c565b620003cf7f42f71b1f925ebfe934c4df5c64e3720e769f4b9fec7c4c111745f1268c62370860001b6200099e60201b60201c565b8173ffffffffffffffffffffffffffffffffffffffff166101208173ffffffffffffffffffffffffffffffffffffffff1660601b815250506200043b7f7fabbfd31d6b84e6bf3b95db80f4f6f192e4afa1361d15ad559f370c7a52c51560001b6200099e60201b60201c565b6200046f7fd784dca4dbd7f38b78d64fae47f0d3ad268d1c226ea1474be1567ec47a55033b60001b6200099e60201b60201c565b7f82966d27eea39b038ee0fa30cd16532bb24f6e65d31cb58fb227aa5766cdcc7f82604051808273ffffffffffffffffffffffffffffffffffffffff1673ffffffffffffffffffffffffffffffffffffffff16815260200191505060405180910390a1620005067fbf6d282b7ef0a3b8c6b2200d2727da0f40f1f54414b50480f4103eca89e8847560001b6200099e60201b60201c565b6200053a7f908a626659a877d55742e530a129284bb4eb2872ceb00bc6c9a70402b17811c560001b6200099e60201b60201c565b8073ffffffffffffffffffffffffffffffffffffffff166101408173ffffffffffffffffffffffffffffffffffffffff1660601b81525050620005a67f89a75e67edda263979e936612ec26cfbfb022e0ec8ad09f0745d3cda1910116b60001b6200099e60201b60201c565b620005da7f10d8fe8bbc58ff445d5b58bb7aceab64e74515f379d76794d4284f2a7b712da460001b6200099e60201b60201c565b7f3ca631ffcd2a9b5d9ae18543fc82f58eb4ca33af9e6ab01b7a8e95331e6ed98581604051808273ffffffffffffffffffffffffffffffffffffffff1673ffffffffffffffffffffffffffffffffffffffff16815260200191505060405180910390a1620006717fa58d9d5eaf28899b58e76d73b13ef794bd30bb6ca864258227a05409e352187260001b6200099e60201b60201c565b620006a57ff1fc5a9931fbd8787b26ceda7754a675e0131b00c505fee96d1a3ac3e51b97b060001b6200099e60201b60201c565b60006040518060400160405280600f81526020017f4c55534420537461626c65636f696e00000000000000000000000000000000008152508051906020012090506200071a7f1fb5804c1e375a6bcaa20085e864467cd4ec6d9a0a8f5601e938d6a949b2609a60001b6200099e60201b60201c565b6200074e7f135283aebb029ca701e112a0f8aacc6d194cf33d12be3b0033f0cad0677e81d160001b6200099e60201b60201c565b60006040518060400160405280600181526020017f3100000000000000000000000000000000000000000000000000000000000000815250805190602001209050620007c37faf9c48d2178b097089a2f40f6ec78cfea70b73656910d30588c50fb7a6f292b660001b6200099e60201b60201c565b620007f77fafd3c2e9430e4384aa9347d2de72300f116077f499f573b3b934a7332f1a840460001b6200099e60201b60201c565b8160c08181525050620008337f6b39c93c68a1fa5374cb19ac09649343068e5c9ba36677271da9c211559f724860001b6200099e60201b60201c565b620008677f40ee7fd17ec309d0ff927e7b21538fbe625111ad23c040fed5ce2e8a422b35a560001b6200099e60201b60201c565b8060e08181525050620008a37f2ac324cd5c96e628360b059e4e0118dc568e06ddbc50ed5c75d26012bfe55c5a60001b6200099e60201b60201c565b620008d77ff44762575b3f3014babacdfc32c0abf725edef26fda06f1c4c4190f28fcb3f3360001b6200099e60201b60201c565b620008e762000d3660201b60201c565b60a08181525050620009227f363070f2f154b496c61b953a6c18a35c2828b088292e107a74d2dfd4acf6e8e460001b6200099e60201b60201c565b620009567f37aee037074da0771a917d8fd72f83f752f04aa111a1adc632fb35fc8b18b5c160001b6200099e60201b60201c565b6200098c7f8b73c3c69bb8fe3d512ecc4cf759cc79239f7b179b0ffacaa9a75d522b39400f60001b838362000da660201b60201c565b60808181525050505050505062000ed2565b50565b620009d57f35bc9e5e61c1438a006153cf69ffd6105766a3055440d22f6c8ce219146d68af60001b62000ecf60201b60201c565b62000a097fe66c045f45b868efda896f2af22ed71637a4e9e8d13a2b1962badf362ba3eeb960001b62000ecf60201b60201c565b62000a3d7faaa4b517f253b4fa37cb2875514a22e04e7d5828c244c7095a27e85408ccd12c60001b62000ecf60201b60201c565b62000a717f1221da0bd0f16fcbee175d4dae7d6b598e327e79264e77ced4c93a6a0721871b60001b62000ecf60201b60201c565b600073ffffffffffffffffffffffffffffffffffffffff168173ffffffffffffffffffffffffffffffffffffffff16141562000b15576040517f08c379a000000000000000000000000000000000000000000000000000000000815260040180806020018281038252601e8152602001807f4163636f756e742063616e6e6f74206265207a65726f2061646472657373000081525060200191505060405180910390fd5b62000b497f09f0dc62d572b9e8dd242a1b7e25c3c5de1610d6c480bec35912dd5840f55fec60001b62000ecf60201b60201c565b62000b7d7fbe74447fdea037b64141768df2430eb2b7113bef949c88d88dcdc549ba88703360001b62000ecf60201b60201c565b62000bb17f04e66872d3f4c69728dfe545a06401e1b17e0f9dd5e1d43290514ae4fd92783060001b62000ecf60201b60201c565b600062000be77f60826eea4af75abd2223d108cb037485a60c485e699a12a42cac24982b89800660001b62000ecf60201b60201c565b813b905062000c1f7f7acec79ba6fd0be7bb4b2bfca56ca8eb3d8333d64e828971ccb7647facc3806360001b62000ecf60201b60201c565b62000c537f0c7e0405db301404f844860b9fe6e14e956a97134ff8695c88184f1c957d6e0860001b62000ecf60201b60201c565b62000c877f1c5a94c5a5d640e17d84bedbf9409c7f8afe563c4b1fceef7bced5961764ee0f60001b62000ecf60201b60201c565b6000811162000cfe576040517f08c379a00000000000000000000000000000000000000000000000000000000081526004018080602001828103825260208152602001807f4163636f756e7420636f64652073697a652063616e6e6f74206265207a65726f81525060200191505060405180910390fd5b62000d327f1023f03b6261b194c29dee3596b0d25a3be14b60910a1d249d0177db54f54c4a60001b62000ecf60201b60201c565b5050565b600062000d6c7fd033498c867e56f230a0f212e34ddaac0e61b4833eaf3b47a6c1a7dc7bfef31560001b6200099e60201b60201c565b62000da07f89b0a963fa0a657808e9ebce93456faaece0ffd0ddd4b6b8a7ac95750799147760001b6200099e60201b60201c565b46905090565b600062000ddc7f7a199135b7dce8a09e125f294ac67029585a407ece0dcde841c2fe011ccfbd3b60001b6200099e60201b60201c565b62000e107f7994257d9b32af12e328a0cf12bf3c01d99a37c1f85c7d11ba941951a1a17f2060001b6200099e60201b60201c565b62000e447f047fb47ae71f4f8911aec6d96286ff4b1d11c5c7c982e17778edf7784a7035c560001b6200099e60201b60201c565b83838362000e5762000d3660201b60201c565b30604051602001808681526020018581526020018481526020018381526020018273ffffffffffffffffffffffffffffffffffffffff1673ffffffffffffffffffffffffffffffffffffffff168152602001955050505050506040516020818303038152906040528051906020012090509392505050565b50565b60805160a05160c05160e0516101005160601c6101205160601c6101405160601c61415962000f6160003980611a92528061303c52806133095280613768525080610bb6528061289c5280612f8d52806138135280613c8d52508061142c52806128475280612fe452806137bd5250806124865250806124655250806122df52508061239252506141596000f3fe608060405234801561001057600080fd5b50600436106101635760003560e01c80636cc52a4d116100ce578063a457c2d711610087578063a457c2d71461074d578063a9059cbb146107b3578063b7f8cf9b14610819578063bb997bac14610863578063d505accf146108d1578063dd62ed3e1461096a578063f698da25146109e257610163565b80636cc52a4d1461057057806370a082311461059e5780637ecebe00146105f6578063940a71bc1461064e57806395d89b411461067c5780639dc29fac146106ff57610163565b806323b872dd1161012057806323b872dd14610345578063313ce567146103cb57806339509351146103ef57806340c10f191461045557806354fd4d50146104a35780635a4d28bb1461052657610163565b806306fdde0314610168578063095ea7b3146101eb5780630b622ab21461025157806310ce43bd1461029b57806318160ddd146102b957806320c582be146102d7575b600080fd5b610170610a00565b6040518080602001828103825283818151815260200191508051906020019080838360005b838110156101b0578082015181840152602081019050610195565b50505050905090810190601f1680156101dd5780820380516001836020036101000a031916815260200191505b509250505060405180910390f35b6102376004803603604081101561020157600080fd5b81019080803573ffffffffffffffffffffffffffffffffffffffff16906020019092919080359060200190929190505050610ac1565b604051808215151515815260200191505060405180910390f35b610259610bb4565b604051808273ffffffffffffffffffffffffffffffffffffffff1673ffffffffffffffffffffffffffffffffffffffff16815260200191505060405180910390f35b6102a3610bd8565b6040518082815260200191505060405180910390f35b6102c1610c87565b6040518082815260200191505060405180910390f35b610343600480360360608110156102ed57600080fd5b81019080803573ffffffffffffffffffffffffffffffffffffffff169060200190929190803573ffffffffffffffffffffffffffffffffffffffff16906020019092919080359060200190929190505050610d15565b005b6103b16004803603606081101561035b57600080fd5b81019080803573ffffffffffffffffffffffffffffffffffffffff169060200190929190803573ffffffffffffffffffffffffffffffffffffffff16906020019092919080359060200190929190505050610e09565b604051808215151515815260200191505060405180910390f35b6103d3611069565b604051808260ff1660ff16815260200191505060405180910390f35b61043b6004803603604081101561040557600080fd5b81019080803573ffffffffffffffffffffffffffffffffffffffff169060200190929190803590602001909291905050506110f6565b604051808215151515815260200191505060405180910390f35b6104a16004803603604081101561046b57600080fd5b81019080803573ffffffffffffffffffffffffffffffffffffffff16906020019092919080359060200190929190505050611277565b005b6104ab611369565b6040518080602001828103825283818151815260200191508051906020019080838360005b838110156104eb5780820151818401526020810190506104d0565b50505050905090810190601f1680156105185780820380516001836020036101000a031916815260200191505b509250505060405180910390f35b61052e61142a565b604051808273ffffffffffffffffffffffffffffffffffffffff1673ffffffffffffffffffffffffffffffffffffffff16815260200191505060405180910390f35b61059c6004803603602081101561058657600080fd5b810190808035906020019092919050505061144e565b005b6105e0600480360360208110156105b457600080fd5b81019080803573ffffffffffffffffffffffffffffffffffffffff169060200190929190505050611451565b6040518082815260200191505060405180910390f35b6106386004803603602081101561060c57600080fd5b81019080803573ffffffffffffffffffffffffffffffffffffffff16906020019092919050505061151e565b6040518082815260200191505060405180910390f35b61067a6004803603602081101561066457600080fd5b81019080803590602001909291905050506115eb565b005b6106846115ee565b6040518080602001828103825283818151815260200191508051906020019080838360005b838110156106c45780820151818401526020810190506106a9565b50505050905090810190601f1680156106f15780820380516001836020036101000a031916815260200191505b509250505060405180910390f35b61074b6004803603604081101561071557600080fd5b81019080803573ffffffffffffffffffffffffffffffffffffffff169060200190929190803590602001909291905050506116af565b005b6107996004803603604081101561076357600080fd5b81019080803573ffffffffffffffffffffffffffffffffffffffff169060200190929190803590602001909291905050506117a1565b604051808215151515815260200191505060405180910390f35b6107ff600480360360408110156107c957600080fd5b81019080803573ffffffffffffffffffffffffffffffffffffffff1690602001909291908035906020019092919050505061193c565b604051808215151515815260200191505060405180910390f35b610821611a90565b604051808273ffffffffffffffffffffffffffffffffffffffff1673ffffffffffffffffffffffffffffffffffffffff16815260200191505060405180910390f35b6108cf6004803603606081101561087957600080fd5b81019080803573ffffffffffffffffffffffffffffffffffffffff169060200190929190803573ffffffffffffffffffffffffffffffffffffffff16906020019092919080359060200190929190505050611ab4565b005b610968600480360360e08110156108e757600080fd5b81019080803573ffffffffffffffffffffffffffffffffffffffff169060200190929190803573ffffffffffffffffffffffffffffffffffffffff1690602001909291908035906020019092919080359060200190929190803560ff1690602001909291908035906020019092919080359060200190929190505050611ba8565b005b6109cc6004803603604081101561098057600080fd5b81019080803573ffffffffffffffffffffffffffffffffffffffff169060200190929190803573ffffffffffffffffffffffffffffffffffffffff16906020019092919050505061214c565b6040518082815260200191505060405180910390f35b6109ea612257565b6040518082815260200191505060405180910390f35b6060610a2e7f6f105b41a5744d3090377d96161b7d692688b7f868e7eb29f375b4497d85453760001b61144e565b610a5a7fd671cf63647f78409ac40fa36bfb21463c8e9a1461a4f7d3ed6776bc782cd8cd60001b61144e565b610a867fc35008deba7f9744bbe87ae8b29e6abd0543271d69cff5ffa29105a2dbfb305c60001b61144e565b6040518060400160405280600f81526020017f4c55534420537461626c65636f696e0000000000000000000000000000000000815250905090565b6000610aef7fd134080e880e26950f351e3e54034dec1702442051cbf72932d5bc96ba61607560001b61144e565b610b1b7f95a5d2e5aad466bbf9b7d26bbd188a10d294bab88eb7ff33ac5893f97152f1c660001b61144e565b610b477fb5070088c79a594b72203d6b16c0b095d63f78a71cc614985299f3866c7e13f560001b61144e565b610b523384846124b0565b610b7e7f2b0118eee694cbd90b17ffff3f5d92fc84caed1d35a25b88f518245c0a836ca160001b61144e565b610baa7f1b9595888bb5f0149edc9872caff9cf0c4733ca802647acfa56c4b5a0b150e8960001b61144e565b6001905092915050565b7f000000000000000000000000000000000000000000000000000000000000000081565b6000610c067fd6139d2a3d7aac642103c1fe9af706b1b790f1da54ca72e65328c6736c641d2c60001b61144e565b610c327f9541fac0ac5a89897d3555d4f1cc1616731d36a891a9ac16d1222b8e8fe97fc960001b61144e565b610c5e7fa49b3a473a8278609c5a0768947d44006427fc056daeb6275aa1128c6ccce83a60001b61144e565b7f6e71edae12b1b97f4d1f60370fef10105fa2faae0126114a169c64845d6126c960001b905090565b6000610cb57f814c5b21542f6e4a981e9d4bac9dcd5ce20ea1956ab812fdce6ac1bc7a9a520a60001b61144e565b610ce17f5bd93b60b1a4dba90e2739b8c129ce45d8c4c9ee379911d101ecf376996febc060001b61144e565b610d0d7ffb24b05cfaf2da57a75dbb5c632fcc5df8e4e9a9e37a48dcd758724e8a21cb3460001b61144e565b600054905090565b610d417f6b52d0f2e4043205bdde243af4805419cec4deee1009757c9a114d9b5778fde460001b61144e565b610d6d7f0661592b829226a5ece8babed0b0d308f5b977a133bd5e0b29fb31956c937edc60001b61144e565b610d997f9e81b3ebbbf382b053861c2cfc897bc118f57be8660fe6fcc6c3c378d14cfafc60001b61144e565b610da1612795565b610dcd7f7650065a5e9fb087452ecb5b8782e4d3dd25b98c33d0c5c476b10def32f4c71660001b61144e565b610df97f7d7370acfe17cd02c79851a905c137a20c1c959e5c6ff7e6443b88106c9dd1b660001b61144e565b610e0483838361296d565b505050565b6000610e377f0226728da118f975b256e0a75b628f94784848a098f950b2ea267a0873541fca60001b61144e565b610e637f94bf30041e452a11a863762bf78b9d007fb0d3440d56b412f2abb9dcd13eaf0660001b61144e565b610e8f7f3b8640bf159dc758a25429aab421571f514f02897d38a52d715b72aceb764f8560001b61144e565b610e9883612d6d565b610ec47f034fc40f3f9d34ab15598499d3a3d5948ec351ea479689277191ac8cb662d7b960001b61144e565b610ef07f9509f17f44051b8e840039fec164a5cbfc002396b9bd81b438a66c779a27b68a60001b61144e565b610efb84848461296d565b610f277f96895cf6355bbce6e03a1574d1275478dc5cbe9182242a1fa41d641a1deb245060001b61144e565b610f537f32104e8e3f207b3485a0f1df5d03ed029011a61824a24d02c7ce951895dfe31860001b61144e565b61100684336110018560405180606001604052806028815260200161402c60289139600360008b73ffffffffffffffffffffffffffffffffffffffff1673ffffffffffffffffffffffffffffffffffffffff16815260200190815260200160002060003373ffffffffffffffffffffffffffffffffffffffff1673ffffffffffffffffffffffffffffffffffffffff1681526020019081526020016000205461310f9092919063ffffffff16565b6124b0565b6110327f456dee62594dc7377a20b17a3b8f120ec67fd650bde0258dcdb2a2872cec347060001b61144e565b61105e7fa53cc415422ccf7347e93c744fcf29a0f5875ef66f5d54ebec61185568e1b42c60001b61144e565b600190509392505050565b60006110977fb32cacd7a4d18f9837ae13149caf4ac07576ceaa6d8ab035bf969b5c9a645ab760001b61144e565b6110c37f34375f02e598cc1efc4f2ea9522cb712f6663a5bbaf42ea93d7a6dce29a10e8160001b61144e565b6110ef7f37ebf6bdf103ebe166476a3881a713d1250b287bc5f399dc9f63f0df03469d7560001b61144e565b6012905090565b60006111247fecccff80caf8756211fc85d832b1a45f9f96d308505d11a8e41ae05b8753f58760001b61144e565b6111507fa023598216c1647be09d9b47f430bc703f8a53036974cd689955879cff42b47560001b61144e565b61117c7f390e3ad85233fad1726bcdf1810e1113d08db80d16afc66722e4138392216fb460001b61144e565b611215338461121085600360003373ffffffffffffffffffffffffffffffffffffffff1673ffffffffffffffffffffffffffffffffffffffff16815260200190815260200160002060008973ffffffffffffffffffffffffffffffffffffffff1673ffffffffffffffffffffffffffffffffffffffff168152602001908152602001600020546131cf90919063ffffffff16565b6124b0565b6112417ff799c08d56d4055e71bb31742997bee917e1127ec4754db27696a5a72a1af4c460001b61144e565b61126d7f8e0473e8db50f4846d44b925ec77bdde92ecc7ee16c592a22917908c0d49965460001b61144e565b6001905092915050565b6112a37f132af84a9de554b854ff99a270254564ebfc59740068e9681b41ca68897ac4f060001b61144e565b6112cf7f3829241db5c6f6b3ed5458fd29e473cc2bf03552e15d9cfb448bdcce85e3c59260001b61144e565b6112fb7fe25ec0cacf62a08443bdc7e063a742f00b41ad817e35e7f4854bcf46d31b083f60001b61144e565b611303613257565b61132f7f1de8b975f563cb3c89080082841edfe54cc2a0cb39fe89ecaf2c6a369b37284460001b61144e565b61135b7f7b4893e6c42d74ea508eda97d2d5e2065203bbc0119a92cea9c4f7602d90179d60001b61144e565b61136582826133d9565b5050565b60606113977f66b996dd132f1b736fbb0140d817298c118c754666f359e1b29e91ea675ed9e160001b61144e565b6113c37fd26f960e7d777cb9a1e397272875a36dc5a408683b76dbbc87a35094e9b69d1360001b61144e565b6113ef7f6ee5d412c8d0a4afb5f81498f4e24ea594b9af15b71da1b562091c49a8e4b51660001b61144e565b6040518060400160405280600181526020017f3100000000000000000000000000000000000000000000000000000000000000815250905090565b7f000000000000000000000000000000000000000000000000000000000000000081565b50565b600061147f7ffc876a25677b01870eeb0a8db70956ee5e8425183e122748cd057df0484652f160001b61144e565b6114ab7f44968d05e12fe695dbea7b901e3a04164f9b9ed4fad831134a030862876d4d4360001b61144e565b6114d77fa80defbea40734ecd4b2049a9ad96821b48f2ce2d192036ec5dc7f6b83006e1460001b61144e565b600260008373ffffffffffffffffffffffffffffffffffffffff1673ffffffffffffffffffffffffffffffffffffffff168152602001908152602001600020549050919050565b600061154c7f35bad4597bdc8d8feebd2d12e588b1e62f66e89bb32c3afc4061b31e3bb6f8f260001b61144e565b6115787f3949fa49fb09d6c7dba158895cc84b269da92f981be5ea8a22b730b856617d8960001b61144e565b6115a47f92e4d88083b938c47e5f00a19cd2e9c2d7a6d55f9c890c8f8dd6f93f1192f2b360001b61144e565b600160008373ffffffffffffffffffffffffffffffffffffffff1673ffffffffffffffffffffffffffffffffffffffff168152602001908152602001600020549050919050565b50565b606061161c7f5b945f865761c6ae61b723f0b7f6e265e21b63fbd977eb554580b0e5476f17e460001b61144e565b6116487fe68c2cc35acf07f90a57d446992b847ef706acf22010ab1eba24885da410a5f660001b61144e565b6116747f4177e35c58a636613def65d63b6f15b8832715f6f0730ef7e53659a2cd0a86d460001b61144e565b6040518060400160405280600481526020017f4c55534400000000000000000000000000000000000000000000000000000000815250905090565b6116db7ff657290ac3beb4fa3494ed2873347aba2dd073c9647bda98a54b254c30080d5960001b61144e565b6117077f95bcdebdaef5f2d40c5461bc02ffd4bc7f36f198b468832231dc19aa54ceca1460001b61144e565b6117337fd13ba0e4ba6c20afdb3b82c20f24e3df9de0e8abbb092776c21b855f661e975760001b61144e565b61173b6136b6565b6117677f25251bf2e0aec0a7bcfd0ee8433f62614805dd613111c08008551fde0495ce7260001b61144e565b6117937f37c949a470084fcadca51e7ba1d737575c07b625d22e633e44f5cb8912abf3c260001b61144e565b61179d82826138e4565b5050565b60006117cf7fb6a212320a56c5def273a5ce9250da5d8923c79099a161e00de22377e3eb520860001b61144e565b6117fb7f92d2df2e1cfb134e0e6050342ea08a4b088d83f44507c2f4e5caac35b694cd3e60001b61144e565b6118277f9b37601a5bbed139e9f23827f44b802ceac0da9bba0642eac500ec41057b5f5660001b61144e565b6118da33846118d5856040518060600160405280602581526020016140ab60259139600360003373ffffffffffffffffffffffffffffffffffffffff1673ffffffffffffffffffffffffffffffffffffffff16815260200190815260200160002060008a73ffffffffffffffffffffffffffffffffffffffff1673ffffffffffffffffffffffffffffffffffffffff1681526020019081526020016000205461310f9092919063ffffffff16565b6124b0565b6119067fd88cc1456df2fbe94c65cdb9d533139e4a66e971804d250dbfbafc4eacc583b960001b61144e565b6119327f9a9c6f5dcd98b621de0d8991bcaec28b1ad1e4720accee3f09fab0ff3177841e60001b61144e565b6001905092915050565b600061196a7f857a000962c75c9ab2d8a3f53f23c07a7f13b5afdd0579828d1891abe81fea3960001b61144e565b6119967f3e0f18cfd55b4c877755dc378604726bf7309eaebe643e562d37a25d28e25b0360001b61144e565b6119c27f506042e2c5adaad445399c1c9b54b17fc920d7a79067896a5b1c7be1f92549f160001b61144e565b6119cb83612d6d565b6119f77fac277a669c10fe6e915827b29653c1226e6830995c6c9de12dfac3fa27fc1d6760001b61144e565b611a237f38a89f028fac880d56798c433f967293152babae16843331adeae5c2acbe196560001b61144e565b611a2e33848461296d565b611a5a7fa55b9bbe33f3193f48d5d7c6e59b49123fe553935dd3d727232dc0d87752867560001b61144e565b611a867fac2ae9b9cc507178efa2b55b4a89024a7ab0423b295a7729d3a28f28a8ca991060001b61144e565b6001905092915050565b7f000000000000000000000000000000000000000000000000000000000000000081565b611ae07f8a246fdfa02dbf0a5e3f54f32b6f0cb4dae8a14b3d363f1bbbf9d3c5841e9e7d60001b61144e565b611b0c7f3827657e8b7a15500908d401d90c99313fc86212e01a60db5fab7db8da41b08960001b61144e565b611b387f091cca49c46ff1cd81796fd93b4a1eb9f04df3a11c6d3540ccd1b7c91c8bd9c060001b61144e565b611b40613bdb565b611b6c7f75e9c111f562320bc5915f9af429677da61727de73ae92067e965c1b1dc3ec0c60001b61144e565b611b987f95e4ee17606c2ac21c6ae59486b1ac9a4ee8d6174cc18ebc991ff0ba0df1481360001b61144e565b611ba383838361296d565b505050565b611bd47f7bc44c2584090b9d39314b985f16526efb9c9cc7be462dadaf4c5ab772091db460001b61144e565b611c007f2c69ea1e06d7defd2c6589fb0b169084a43849101f9546a791673055bc2d780b60001b61144e565b611c2c7fa1240c6055009e8f0deb745bf8584934fdaf74d9fe1aebc590b2afffbff8d18160001b61144e565b611c587f465123c38002c15d291eacebb46b494fa470d724f9bd4b5d8d4fe91d9918195260001b61144e565b42841015611cce576040517f08c379a00000000000000000000000000000000000000000000000000000000081526004018080602001828103825260168152602001807f4c5553443a206578706972656420646561646c696e650000000000000000000081525060200191505060405180910390fd5b611cfa7f4665f8ccea8658e4947bbaece22238da083923821cec26f9ea26a01a1eb8a65460001b61144e565b611d267f384b7c14b33fd722aeb4a20ada2827f9da80f24a27aa0f708529d244369b2af960001b61144e565b611d527ffa1efdbcd10fe394d22103a4875422b26124ecc6fa13a46d1d5e8b09e39b2ec960001b61144e565b6000611d5c612257565b7f6e71edae12b1b97f4d1f60370fef10105fa2faae0126114a169c64845d6126c960001b898989600160008e73ffffffffffffffffffffffffffffffffffffffff1673ffffffffffffffffffffffffffffffffffffffff1681526020019081526020016000206000815480929190600101919050558a604051602001808781526020018673ffffffffffffffffffffffffffffffffffffffff1673ffffffffffffffffffffffffffffffffffffffff1681526020018573ffffffffffffffffffffffffffffffffffffffff1673ffffffffffffffffffffffffffffffffffffffff16815260200184815260200183815260200182815260200196505050505050506040516020818303038152906040528051906020012060405160200180807f190100000000000000000000000000000000000000000000000000000000000081525060020183815260200182815260200192505050604051602081830303815290604052805190602001209050611ef67f15dbef8ad5ce2c5bcb31b7214f18249fe2e63285062c1024fd2b1e3b691847cf60001b61144e565b611f227f210b9af9bd88edfed734d078f596e91b716d2fb8c2440e4ab13bc601d7b1fa3060001b61144e565b600060018286868660405160008152602001604052604051808581526020018460ff1660ff1681526020018381526020018281526020019450505050506020604051602081039080840390855afa158015611f81573d6000803e3d6000fd5b505050602060405103519050611fb97f40681c244e57d79bc39d520e04b30e3d4e15c0fb8415c717bdb445ab2106fbe260001b61144e565b611fe57ffca15734c2c58f30eb5ef66329f56f6c52f5efa92bfc3498d7b90f3c5b8e557e60001b61144e565b6120117fb663577ee898374730a1cf3d85a71d2c6ee0f63de00eeabc377e19ee16d926be60001b61144e565b8873ffffffffffffffffffffffffffffffffffffffff168173ffffffffffffffffffffffffffffffffffffffff16146120b2576040517f08c379a00000000000000000000000000000000000000000000000000000000081526004018080602001828103825260178152602001807f4c5553443a20696e76616c6964207369676e617475726500000000000000000081525060200191505060405180910390fd5b6120de7f2e661125221d3ca37bcb9bae1f498543f6daee2d3a9d100c313c8463229e370660001b61144e565b61210a7f6971dafecb6a4f2c2462623edb28c14fb9b671338d60ca9bbc2c2df4e202fb9a60001b61144e565b6121367fbef1dce75784760ee95f7d2a7bb5f4d6badc442901f844ca46778bbbaae5005d60001b61144e565b6121418989896124b0565b505050505050505050565b600061217a7f9d065372c45270a2c93e39194ff3fc72870546f5106443557807853fc25466da60001b61144e565b6121a67f4043fdc49f2ba3a290cac3aa834976c8abf42d5d2b08d30fe809d0231b3473ed60001b61144e565b6121d27ffdfbb8e1bbac0228721330251a3d7f6e0682892516ee60f8110206f3452be22f60001b61144e565b600360008473ffffffffffffffffffffffffffffffffffffffff1673ffffffffffffffffffffffffffffffffffffffff16815260200190815260200160002060008373ffffffffffffffffffffffffffffffffffffffff1673ffffffffffffffffffffffffffffffffffffffff16815260200190815260200160002054905092915050565b60006122857f25e4dc6ef9d5290afbc9e976b91846fd32ba5bc548e7e38ab12902250969530360001b61144e565b6122b17f87aa81baaab5ccce15729a93e8236a9ccb4166f5f67a97cf6faca44741cc6e5260001b61144e565b6122dd7f4c45f1ef405077611bdc6236c807fae0fbe35321f5fed28781a4c0ebb4fb48ba60001b61144e565b7f0000000000000000000000000000000000000000000000000000000000000000612306613d5d565b14156123b8576123387f80bdc8608e06222ed85792e8663f2971cb3b42cfe2e8d66f6b9079d39109576060001b61144e565b6123647fabcce8a654207e5f140896ed05f4f08fad0cab1dda81bf1e8f600e2eb0a6c7d160001b61144e565b6123907fab68b84b8b40989843969386d1b8c42a962cb7fce7acee911bb713f8b5b6fc8b60001b61144e565b7f000000000000000000000000000000000000000000000000000000000000000090506124ad565b6123e47f6b51e90ceac84ad4738dc2fa76d59a5d92b7eacda83ebcc8b23637efa704c64460001b61144e565b6124107f0bb193c39ce1fcf6235c49cc0b71e06db2868158f81b8917eb7d60acc1c1553560001b61144e565b61243c7fad725832e3ddebad31118ece29d24c60e2cf14ecb995ba6430158f85688f851d60001b61144e565b6124aa7f8b73c3c69bb8fe3d512ecc4cf759cc79239f7b179b0ffacaa9a75d522b39400f60001b7f00000000000000000000000000000000000000000000000000000000000000007f0000000000000000000000000000000000000000000000000000000000000000613dbd565b90505b90565b6124dc7fe886064e16219f41ff6f49d666d213afaef8c75ccb5211cfa5fcdd5afcf5651a60001b61144e565b6125087f32e1c1343d682a02094f7fee698955b9a082b64cf050259e410c9514c1db873460001b61144e565b6125347f8104f519b27d390d47831dc9127f67fe47335f29cb705418634fcefd97d976fa60001b61144e565b600073ffffffffffffffffffffffffffffffffffffffff168373ffffffffffffffffffffffffffffffffffffffff16141561256b57fe5b6125977f5b81618b0c279c9ea899917885561a4a7a159bc026d2b835696a00f32ab9f20b60001b61144e565b6125c37ffc9ac37450bc6c69f911cecdeee1ce2b4a9621be381d7f8eb7614e358c43aec760001b61144e565b600073ffffffffffffffffffffffffffffffffffffffff168273ffffffffffffffffffffffffffffffffffffffff1614156125fa57fe5b6126267f741becda4f8937294778616ed321dcade70187aeb9b112cfd6a664c71527366e60001b61144e565b6126527fcc8d0b5031164374b9ee76b1336f6d3aec43c60ed0398a343421b0a36c0a5f6a60001b61144e565b80600360008573ffffffffffffffffffffffffffffffffffffffff1673ffffffffffffffffffffffffffffffffffffffff16815260200190815260200160002060008473ffffffffffffffffffffffffffffffffffffffff1673ffffffffffffffffffffffffffffffffffffffff168152602001908152602001600020819055506126ff7f1fa05e2bdc9e12451e57cac29d4afb9b2c1aa5209765899a24f0cf6d7df2a28760001b61144e565b61272b7f1bdd5e4e69345a239ac77d86d58a51fe71d440b3e4823963c2023d9e10003c4660001b61144e565b8173ffffffffffffffffffffffffffffffffffffffff168373ffffffffffffffffffffffffffffffffffffffff167f8c5be1e5ebec7d5bd14f71427d1e84f3dd0314c0f7b2291e5b200ac8c7c3b925836040518082815260200191505060405180910390a3505050565b6127c17fcf3c0ceb309a03d0e50ab3aeca350c266eb897b098c68339a7ec601ffe0ef7d760001b61144e565b6127ed7f3c4e4f21d691819d18898be3693e5398af4f69b02b6ff3c22920d5b2a96e83b760001b61144e565b6128197f341892011ddd2d353da3721dcc97a409fc258d91a2b470155c5a41b39dfb911760001b61144e565b6128457f4076971d16cd5a076a144e165fa071cd9a86d0f7ad25f50db345d6476d30f6c660001b61144e565b7f000000000000000000000000000000000000000000000000000000000000000073ffffffffffffffffffffffffffffffffffffffff163373ffffffffffffffffffffffffffffffffffffffff1614806128ea57507f000000000000000000000000000000000000000000000000000000000000000073ffffffffffffffffffffffffffffffffffffffff163373ffffffffffffffffffffffffffffffffffffffff16145b61293f576040517f08c379a0000000000000000000000000000000000000000000000000000000008152600401808060200182810382526036815260200180613f116036913960400191505060405180910390fd5b61296b7f909377622388d6f6e17aa4d556d420d204634701a0edc00c0cb0c2dc32f855ad60001b61144e565b565b6129997f7efc5d053fc61618f28c812a23f7769c811ac3360dfea78e848b1890d8f9ec1f60001b61144e565b6129c57fdc60467dc5914eb05e59bb957118c526ed6b891940801fc12c0d3ed09abc8af660001b61144e565b6129f17f7ed10f170f6284cccfe8ee566f443fd8828701313d9686ed478e8a312e3b891b60001b61144e565b600073ffffffffffffffffffffffffffffffffffffffff168373ffffffffffffffffffffffffffffffffffffffff161415612a2857fe5b612a547f6325fd01a2250a2876b6b949e350be7b8dcf7fd4a727e6a3f49a933815cfced760001b61144e565b612a807f4f0418fc9c8eafb8273a4fa1a32ad7bf21f47ebdec1baa312f86837f7a6990bb60001b61144e565b600073ffffffffffffffffffffffffffffffffffffffff168273ffffffffffffffffffffffffffffffffffffffff161415612ab757fe5b612ae37fcd698bc86342b70c6209affad6142a0b47c9bccf569c965ccb70d78aca044c9660001b61144e565b612b0f7fe0187ce0914dad4bc25bc60545fd69914aa7d93db6d4bbe0254d9cd29ae5d69c60001b61144e565b612b7b81604051806060016040528060268152602001613f6960269139600260008773ffffffffffffffffffffffffffffffffffffffff1673ffffffffffffffffffffffffffffffffffffffff1681526020019081526020016000205461310f9092919063ffffffff16565b600260008573ffffffffffffffffffffffffffffffffffffffff1673ffffffffffffffffffffffffffffffffffffffff16815260200190815260200160002081905550612bea7f575e8b53ddfaf39aa0a4f333151d21f4be5c37e4921f036996d33c897433a02e60001b61144e565b612c167f0b9894f458a2ee5e2c7b2051f7295e3897c2b9626b79aae70ca73f9f8498431260001b61144e565b612c6881600260008573ffffffffffffffffffffffffffffffffffffffff1673ffffffffffffffffffffffffffffffffffffffff168152602001908152602001600020546131cf90919063ffffffff16565b600260008473ffffffffffffffffffffffffffffffffffffffff1673ffffffffffffffffffffffffffffffffffffffff16815260200190815260200160002081905550612cd77fe0ac7a2332417823830caa40dbacb8740af031f9da8d1261bfe6df1db9e8dfe260001b61144e565b612d037f92ff8fa753a75f48e1cdf00279d7175c6908910e4bfc5a2fd7fc090286275fa760001b61144e565b8173ffffffffffffffffffffffffffffffffffffffff168373ffffffffffffffffffffffffffffffffffffffff167fddf252ad1be2c89b69c2b068fc378daa952ba7f163c4a11628f55a4df523b3ef836040518082815260200191505060405180910390a3505050565b612d997f09059f079c8e2bcbb356806cf7e8b55228a2fcecbab72358fce5c07b1551da0b60001b61144e565b612dc57fa01c5495941d56cc0c48c084cdf23ccaf63455bdea44ee8398e4ba0b8f43ea2860001b61144e565b612df17f3db67918bc7d25d685b7fa05f210583c97d6c0490493ead1e2dea3f300001e5860001b61144e565b612e1d7fe46120bd5da4f164de34398ec026336564e2208610d61ac169e0c0e5c53d780760001b61144e565b600073ffffffffffffffffffffffffffffffffffffffff168173ffffffffffffffffffffffffffffffffffffffff1614158015612e8657503073ffffffffffffffffffffffffffffffffffffffff168173ffffffffffffffffffffffffffffffffffffffff1614155b612edb576040517f08c379a00000000000000000000000000000000000000000000000000000000081526004018080602001828103825260548152602001806140d06054913960600191505060405180910390fd5b612f077f701dc3b54f38ae2e5928c04c416dd34b7b3308196188fe5ddead1adec2341bd960001b61144e565b612f337fd4916367196e88336d59769483986cef75fe073a0725f06557018a81beb67bbd60001b61144e565b612f5f7f71925b01ce7d99c5ba47876a8c0b7ab7d35e88a95e67b325976b351caeab19a960001b61144e565b612f8b7f08200530afa48c0afacd6f4a2620f7847690c3399d2bd9d62bfe28611bd7527260001b61144e565b7f000000000000000000000000000000000000000000000000000000000000000073ffffffffffffffffffffffffffffffffffffffff168173ffffffffffffffffffffffffffffffffffffffff161415801561303357507f000000000000000000000000000000000000000000000000000000000000000073ffffffffffffffffffffffffffffffffffffffff168173ffffffffffffffffffffffffffffffffffffffff1614155b801561308b57507f000000000000000000000000000000000000000000000000000000000000000073ffffffffffffffffffffffffffffffffffffffff168173ffffffffffffffffffffffffffffffffffffffff1614155b6130e0576040517f08c379a00000000000000000000000000000000000000000000000000000000081526004018080602001828103825260578152602001806140546057913960600191505060405180910390fd5b61310c7f2f9056682af0534e8bd1c47a82dba9022ad65e85e773f51ad2f625f9aa10b06160001b61144e565b50565b60008383111582906131bc576040517f08c379a00000000000000000000000000000000000000000000000000000000081526004018080602001828103825283818151815260200191508051906020019080838360005b83811015613181578082015181840152602081019050613166565b50505050905090810190601f1680156131ae5780820380516001836020036101000a031916815260200191505b509250505060405180910390fd5b5060008385039050809150509392505050565b60008082840190508381101561324d576040517f08c379a000000000000000000000000000000000000000000000000000000000815260040180806020018281038252601b8152602001807f536166654d6174683a206164646974696f6e206f766572666c6f77000000000081525060200191505060405180910390fd5b8091505092915050565b6132837f42ad4e7ee07183cd1934d8ffa155d14bc9b3011068aff0410e2f12e9acb9bfbf60001b61144e565b6132af7f1b1d73efe3a94e77b56dca06e71d9e20517a7756ac7bc106000f1ee274b9f57b60001b61144e565b6132db7fc525269742ce912f946520abaf8dc05d76b6c96ec01d940f1a6733ecf2ee5fe060001b61144e565b6133077f754b42eeaeeea31e1aebc1a309f5d90dfdb8a94854bdbd5999799c7d7000c9e160001b61144e565b7f000000000000000000000000000000000000000000000000000000000000000073ffffffffffffffffffffffffffffffffffffffff163373ffffffffffffffffffffffffffffffffffffffff16146133ab576040517f08c379a000000000000000000000000000000000000000000000000000000000815260040180806020018281038252602b815260200180614001602b913960400191505060405180910390fd5b6133d77f3dee24a41dc23eee711d8e9f3b827587c3149c166071312608ab7aad0dfd470860001b61144e565b565b6134057fe863059bed7de614ab4f303a666e759e24cf30f703e9fc8218f46caf24da727360001b61144e565b6134317f60cb699ec0440127c1fb49ebd0990d590575a096a2b080e71443c4566b8258d160001b61144e565b61345d7fca92a968f4be97c31cf010793612e1641d0c75dea3151804f9ac656313a123d260001b61144e565b600073ffffffffffffffffffffffffffffffffffffffff168273ffffffffffffffffffffffffffffffffffffffff16141561349457fe5b6134c07f7769b3f587eb96fdcd8e4d1fd140ff6b2daa59cebefaf83893709bfefe95190660001b61144e565b6134ec7f7acb275ec529797d3a11978c4cceb59caae34c12b290e986d5bc10b112ba7cbe60001b61144e565b613501816000546131cf90919063ffffffff16565b6000819055506135337fc745fa9998fdb578875b0015bb5e2504ba6f5cb023056e4d4d2209b0a692f3d360001b61144e565b61355f7f7b41bbe3e56bc5d15d21d932d3dedc66f86ad1051a898772a43476dda271f17e60001b61144e565b6135b181600260008573ffffffffffffffffffffffffffffffffffffffff1673ffffffffffffffffffffffffffffffffffffffff168152602001908152602001600020546131cf90919063ffffffff16565b600260008473ffffffffffffffffffffffffffffffffffffffff1673ffffffffffffffffffffffffffffffffffffffff168152602001908152602001600020819055506136207fed2511a56f6c36ab521c98c7182cd2398baf666c3b1a3d4999e5d29ba6e1701760001b61144e565b61364c7f8979b66a8385487c95c6f9052b24c071f791041cb80ad2e77e3e561bba251ad960001b61144e565b8173ffffffffffffffffffffffffffffffffffffffff16600073ffffffffffffffffffffffffffffffffffffffff167fddf252ad1be2c89b69c2b068fc378daa952ba7f163c4a11628f55a4df523b3ef836040518082815260200191505060405180910390a35050565b6136e27ffa7226cb35d2534c9287c41de71ff97fd0c77dfe9990d423c812c92db8ed060660001b61144e565b61370e7f029ff07643764130064bb9fc01b566bad4c2adc8dbf790cc4e4e29f704df335360001b61144e565b61373a7f51d3735f41ded0f948a899d56bb54333154fb9f100598044cb699770dfb8711b60001b61144e565b6137667f3dcb24b95d76f1542a8d7772dbe1cec8ab9c0a4027538ebce4f6b575cf83cb7e60001b61144e565b7f000000000000000000000000000000000000000000000000000000000000000073ffffffffffffffffffffffffffffffffffffffff163373ffffffffffffffffffffffffffffffffffffffff16148061380b57507f000000000000000000000000000000000000000000000000000000000000000073ffffffffffffffffffffffffffffffffffffffff163373ffffffffffffffffffffffffffffffffffffffff16145b8061386157507f000000000000000000000000000000000000000000000000000000000000000073ffffffffffffffffffffffffffffffffffffffff163373ffffffffffffffffffffffffffffffffffffffff16145b6138b6576040517f08c379a000000000000000000000000000000000000000000000000000000000815260040180806020018281038252604d815260200180613f8f604d913960600191505060405180910390fd5b6138e27f8b8729e674a09a1910fac1cf464e7a8f3d563250a6e5ca1cf316cf705e0eee3660001b61144e565b565b6139107f2c43fe9a981d50620dcc4774c12e5cd88f7ce19e5271de1d32e396666e393b2060001b61144e565b61393c7faf0276550c1f0d49b69877c68af8921326ad1f788ec3b450f7e7442b2b7abd5e60001b61144e565b6139687fc287ace84f1ca69ec283d2b8243bb03de1da45a461bb6499e0aa026576ba5e8760001b61144e565b600073ffffffffffffffffffffffffffffffffffffffff168273ffffffffffffffffffffffffffffffffffffffff16141561399f57fe5b6139cb7f6f0705fa77a58a19a48cb482d60d4a69bb5e7c80b28c7574cb6926e25ed6280660001b61144e565b6139f77f49be47a89a8a497bcd334e725d32b9bca2a2825bdb5cf0f6aa7df42afa1d14d360001b61144e565b613a6381604051806060016040528060228152602001613f4760229139600260008673ffffffffffffffffffffffffffffffffffffffff1673ffffffffffffffffffffffffffffffffffffffff1681526020019081526020016000205461310f9092919063ffffffff16565b600260008473ffffffffffffffffffffffffffffffffffffffff1673ffffffffffffffffffffffffffffffffffffffff16815260200190815260200160002081905550613ad27f99a365bb990f61edbbad78042f50321201101fdbb0bd96f1d520fb1b8b2e258360001b61144e565b613afe7f9164ed28973c98079912dbafdf3eae2d129cc7b22992ecfbe71601a1d5b5106760001b61144e565b613b1381600054613ec690919063ffffffff16565b600081905550613b457fb69af8d0261c13cf73550f95298c3fcad2cd75f3295734532bc0c81656d93ab560001b61144e565b613b717f13a076a723eb526e9218b0a55db8dc29ef465fdfb06e9cc758f6b91b4b8b105060001b61144e565b600073ffffffffffffffffffffffffffffffffffffffff168273ffffffffffffffffffffffffffffffffffffffff167fddf252ad1be2c89b69c2b068fc378daa952ba7f163c4a11628f55a4df523b3ef836040518082815260200191505060405180910390a35050565b613c077f693b748c5bd515edbddc726fc7c896908331f0099b1a9cb399af575508ec332d60001b61144e565b613c337f5a94168c40278e9ae138a5111dd1ebd01ee0288711488af4a1b30cef21e1fc5a60001b61144e565b613c5f7fd88938700200eb6d48cffea4beea7e8789b6b1b81089f8e8199aacb4d8cb1e5560001b61144e565b613c8b7f28154e3b9db371549eab1e331786d418d1dff57e1aa14ef3ec748bd2b2bf9bfb60001b61144e565b7f000000000000000000000000000000000000000000000000000000000000000073ffffffffffffffffffffffffffffffffffffffff163373ffffffffffffffffffffffffffffffffffffffff1614613d2f576040517f08c379a0000000000000000000000000000000000000000000000000000000008152600401808060200182810382526025815260200180613fdc6025913960400191505060405180910390fd5b613d5b7f9b87f59feae103b809fad658aa774480d84e358c13916e9c499d85c3d657d56260001b61144e565b565b6000613d8b7fd033498c867e56f230a0f212e34ddaac0e61b4833eaf3b47a6c1a7dc7bfef31560001b61144e565b613db77f89b0a963fa0a657808e9ebce93456faaece0ffd0ddd4b6b8a7ac95750799147760001b61144e565b46905090565b6000613deb7f7a199135b7dce8a09e125f294ac67029585a407ece0dcde841c2fe011ccfbd3b60001b61144e565b613e177f7994257d9b32af12e328a0cf12bf3c01d99a37c1f85c7d11ba941951a1a17f2060001b61144e565b613e437f047fb47ae71f4f8911aec6d96286ff4b1d11c5c7c982e17778edf7784a7035c560001b61144e565b838383613e4e613d5d565b30604051602001808681526020018581526020018481526020018381526020018273ffffffffffffffffffffffffffffffffffffffff1673ffffffffffffffffffffffffffffffffffffffff168152602001955050505050506040516020818303038152906040528051906020012090509392505050565b6000613f0883836040518060400160405280601e81526020017f536166654d6174683a207375627472616374696f6e206f766572666c6f77000081525061310f565b90509291505056fe4c5553443a2043616c6c6572206973206e6569746865722054726f76654d616e61676572206e6f722053746162696c697479506f6f6c45524332303a206275726e20616d6f756e7420657863656564732062616c616e636545524332303a207472616e7366657220616d6f756e7420657863656564732062616c616e63654c5553443a2043616c6c6572206973206e65697468657220426f72726f7765724f7065726174696f6e73206e6f722054726f76654d616e61676572206e6f722053746162696c697479506f6f6c4c5553443a2043616c6c6572206973206e6f74207468652053746162696c697479506f6f6c4c555344546f6b656e3a2043616c6c6572206973206e6f7420426f72726f7765724f7065726174696f6e7345524332303a207472616e7366657220616d6f756e74206578636565647320616c6c6f77616e63654c5553443a2043616e6e6f74207472616e7366657220746f6b656e73206469726563746c7920746f207468652053746162696c697479506f6f6c2c2054726f76654d616e61676572206f7220426f72726f7765724f707345524332303a2064656372656173656420616c6c6f77616e63652062656c6f77207a65726f4c5553443a2043616e6e6f74207472616e7366657220746f6b656e73206469726563746c7920746f20746865204c55534420746f6b656e20636f6e7472616374206f7220746865207a65726f2061646472657373a2646970667358221220bd550dc5b3a03a42eb03c05f451aa9095e62f1c7aec70e90e7e6f4ea7f42834e64736f6c634300060b0033",
  "linkReferences": {},
  "deployedLinkReferences": {}
}