{
  "_format": "hh-sol-artifact-1",
  "contractName": "MockTellor",
  "sourceName": "contracts/TestContracts/MockTellor.sol",
  "abi": [
    {
      "inputs": [
        {
          "internalType": "uint256",
          "name": "",
          "type": "uint256"
        }
      ],
      "name": "getNewValueCountbyRequestId",
      "outputs": [
        {
          "internalType": "uint256",
          "name": "",
          "type": "uint256"
        }
      ],
      "stateMutability": "view",
      "type": "function"
    },
    {
      "inputs": [
        {
          "internalType": "uint256",
          "name": "",
          "type": "uint256"
        },
        {
          "internalType": "uint256",
          "name": "",
          "type": "uint256"
        }
      ],
      "name": "getTimestampbyRequestIDandIndex",
      "outputs": [
        {
          "internalType": "uint256",
          "name": "",
          "type": "uint256"
        }
      ],
      "stateMutability": "view",
      "type": "function"
    },
    {
      "inputs": [
        {
          "internalType": "uint256",
          "name": "",
          "type": "uint256"
        },
        {
          "internalType": "uint256",
          "name": "",
          "type": "uint256"
        }
      ],
      "name": "retrieveData",
      "outputs": [
        {
          "internalType": "uint256",
          "name": "",
          "type": "uint256"
        }
      ],
      "stateMutability": "view",
      "type": "function"
    },
    {
      "inputs": [
        {
          "internalType": "bool",
          "name": "_didRetrieve",
          "type": "bool"
        }
      ],
      "name": "setDidRetrieve",
      "outputs": [],
      "stateMutability": "nonpayable",
      "type": "function"
    },
    {
      "inputs": [
        {
          "internalType": "uint256",
          "name": "_price",
          "type": "uint256"
        }
      ],
      "name": "setPrice",
      "outputs": [],
      "stateMutability": "nonpayable",
      "type": "function"
    },
    {
      "inputs": [],
      "name": "setRevertRequest",
      "outputs": [],
      "stateMutability": "nonpayable",
      "type": "function"
    },
    {
      "inputs": [
        {
          "internalType": "uint256",
          "name": "_updateTime",
          "type": "uint256"
        }
      ],
      "name": "setUpdateTime",
      "outputs": [],
      "stateMutability": "nonpayable",
      "type": "function"
    }
  ],
  "bytecode": "0x608060405260016000806101000a81548160ff02191690831515021790555034801561002a57600080fd5b506103268061003a6000396000f3fe608060405234801561001057600080fd5b506004361061006d5760003560e01c80632fc0eb851461007257806346eee1c41461007c57806377fbb663146100be57806391b7f5ed1461010a57806393fa491514610138578063bf73eea614610184578063c4954857146101b2575b600080fd5b61007a6101e2565b005b6100a86004803603602081101561009257600080fd5b810190808035906020019092919050505061020e565b6040518082815260200191505060405180910390f35b6100f4600480360360408110156100d457600080fd5b8101908080359060200190929190803590602001909291905050506102a6565b6040518082815260200191505060405180910390f35b6101366004803603602081101561012057600080fd5b81019080803590602001909291905050506102b3565b005b61016e6004803603604081101561014e57600080fd5b8101908080359060200190929190803590602001909291905050506102bd565b6040518082815260200191505060405180910390f35b6101b06004803603602081101561019a57600080fd5b81019080803590602001909291905050506102ca565b005b6101e0600480360360208110156101c857600080fd5b810190808035151590602001909291905050506102d4565b005b600360009054906101000a900460ff1615600360006101000a81548160ff021916908315150217905550565b6000600360009054906101000a900460ff161561029d57600060011461029c576040517f08c379a00000000000000000000000000000000000000000000000000000000081526004018080602001828103825260178152602001807f54656c6c6f72207265717565737420726576657274656400000000000000000081525060200191505060405180910390fd5b5b60019050919050565b6000600254905092915050565b8060018190555050565b6000600154905092915050565b8060028190555050565b806000806101000a81548160ff0219169083151502179055505056fea26469706673582212204ce39f16e7f3eb25f45dde6fcf89d1d4dee6ed62d93c6869ae9cb806b576ec9d64736f6c634300060b0033",
  "linkReferences": {},
  "deployedLinkReferences": {}
}