{
  "_format": "hh-sol-artifact-1",
  "contractName": "PriceFeedTestnet",
  "sourceName": "contracts/TestContracts/PriceFeedTestnet.sol",
  "abi": [
    {
      "anonymous": false,
      "inputs": [
        {
          "indexed": false,
          "internalType": "uint256",
          "name": "_lastGoodPrice",
          "type": "uint256"
        }
      ],
      "name": "LastGoodPriceUpdated",
      "type": "event"
    },
    {
      "inputs": [],
      "name": "fetchPrice",
      "outputs": [
        {
          "internalType": "uint256",
          "name": "",
          "type": "uint256"
        }
      ],
      "stateMutability": "nonpayable",
      "type": "function"
    },
    {
      "inputs": [],
      "name": "getPrice",
      "outputs": [
        {
          "internalType": "uint256",
          "name": "",
          "type": "uint256"
        }
      ],
      "stateMutability": "view",
      "type": "function"
    },
    {
      "inputs": [
        {
          "internalType": "uint256",
          "name": "price",
          "type": "uint256"
        }
      ],
      "name": "setPrice",
      "outputs": [
        {
          "internalType": "bool",
          "name": "",
          "type": "bool"
        }
      ],
      "stateMutability": "nonpayable",
      "type": "function"
    }
  ],
  "bytecode": "0x6080604052680ad78ebc5ac620000060005534801561001d57600080fd5b5061015c8061002d6000396000f3fe608060405234801561001057600080fd5b50600436106100415760003560e01c80630fdb11cf1461004657806391b7f5ed1461006457806398d5fdca146100aa575b600080fd5b61004e6100c8565b6040518082815260200191505060405180910390f35b6100906004803603602081101561007a57600080fd5b810190808035906020019092919050505061010b565b604051808215151515815260200191505060405180910390f35b6100b261011d565b6040518082815260200191505060405180910390f35b60007f4d29de21de555af78a62fc82dd4bc05e9ae5b0660a37f04729527e0f22780cd36000546040518082815260200191505060405180910390a1600054905090565b60008160008190555060019050919050565b6000805490509056fea26469706673582212209976a8dcf9695460a14038f616144b528f3c81d249e35ea97cda626bb5b8a27e64736f6c634300060b0033",
  "linkReferences": {},
  "deployedLinkReferences": {}
}