{
  "_format": "hh-sol-artifact-1",
  "contractName": "PriceFeed",
  "sourceName": "contracts/PriceFeed.sol",
  "abi": [
    {
      "anonymous": false,
      "inputs": [
        {
          "indexed": false,
          "internalType": "uint256",
          "name": "_lastGoodPrice",
          "type": "uint256"
        }
      ],
      "name": "LastGoodPriceUpdated",
      "type": "event"
    },
    {
      "anonymous": false,
      "inputs": [
        {
          "indexed": true,
          "internalType": "address",
          "name": "previousOwner",
          "type": "address"
        },
        {
          "indexed": true,
          "internalType": "address",
          "name": "newOwner",
          "type": "address"
        }
      ],
      "name": "OwnershipTransferred",
      "type": "event"
    },
    {
      "anonymous": false,
      "inputs": [
        {
          "indexed": false,
          "internalType": "enum PriceFeed.Status",
          "name": "newStatus",
          "type": "uint8"
        }
      ],
      "name": "PriceFeedStatusChanged",
      "type": "event"
    },
    {
      "inputs": [],
      "name": "DECIMAL_PRECISION",
      "outputs": [
        {
          "internalType": "uint256",
          "name": "",
          "type": "uint256"
        }
      ],
      "stateMutability": "view",
      "type": "function"
    },
    {
      "inputs": [],
      "name": "ETHUSD_TELLOR_REQ_ID",
      "outputs": [
        {
          "internalType": "uint256",
          "name": "",
          "type": "uint256"
        }
      ],
      "stateMutability": "view",
      "type": "function"
    },
    {
      "inputs": [],
      "name": "MAX_PRICE_DEVIATION_FROM_PREVIOUS_ROUND",
      "outputs": [
        {
          "internalType": "uint256",
          "name": "",
          "type": "uint256"
        }
      ],
      "stateMutability": "view",
      "type": "function"
    },
    {
      "inputs": [],
      "name": "MAX_PRICE_DIFFERENCE_BETWEEN_ORACLES",
      "outputs": [
        {
          "internalType": "uint256",
          "name": "",
          "type": "uint256"
        }
      ],
      "stateMutability": "view",
      "type": "function"
    },
    {
      "inputs": [],
      "name": "NAME",
      "outputs": [
        {
          "internalType": "string",
          "name": "",
          "type": "string"
        }
      ],
      "stateMutability": "view",
      "type": "function"
    },
    {
      "inputs": [],
      "name": "TARGET_DIGITS",
      "outputs": [
        {
          "internalType": "uint256",
          "name": "",
          "type": "uint256"
        }
      ],
      "stateMutability": "view",
      "type": "function"
    },
    {
      "inputs": [],
      "name": "TELLOR_DIGITS",
      "outputs": [
        {
          "internalType": "uint256",
          "name": "",
          "type": "uint256"
        }
      ],
      "stateMutability": "view",
      "type": "function"
    },
    {
      "inputs": [],
      "name": "TIMEOUT",
      "outputs": [
        {
          "internalType": "uint256",
          "name": "",
          "type": "uint256"
        }
      ],
      "stateMutability": "view",
      "type": "function"
    },
    {
      "inputs": [
        {
          "internalType": "bytes32",
          "name": "c__0xafd32059",
          "type": "bytes32"
        }
      ],
      "name": "c_0xafd32059",
      "outputs": [],
      "stateMutability": "pure",
      "type": "function"
    },
    {
      "inputs": [
        {
          "internalType": "bytes32",
          "name": "c__0xe624bb7f",
          "type": "bytes32"
        }
      ],
      "name": "c_0xe624bb7f",
      "outputs": [],
      "stateMutability": "pure",
      "type": "function"
    },
    {
      "inputs": [
        {
          "internalType": "bytes32",
          "name": "c__0xfe3d81c2",
          "type": "bytes32"
        }
      ],
      "name": "c_0xfe3d81c2",
      "outputs": [],
      "stateMutability": "pure",
      "type": "function"
    },
    {
      "inputs": [],
      "name": "fetchPrice",
      "outputs": [
        {
          "internalType": "uint256",
          "name": "",
          "type": "uint256"
        }
      ],
      "stateMutability": "nonpayable",
      "type": "function"
    },
    {
      "inputs": [],
      "name": "isOwner",
      "outputs": [
        {
          "internalType": "bool",
          "name": "",
          "type": "bool"
        }
      ],
      "stateMutability": "view",
      "type": "function"
    },
    {
      "inputs": [],
      "name": "lastGoodPrice",
      "outputs": [
        {
          "internalType": "uint256",
          "name": "",
          "type": "uint256"
        }
      ],
      "stateMutability": "view",
      "type": "function"
    },
    {
      "inputs": [],
      "name": "owner",
      "outputs": [
        {
          "internalType": "address",
          "name": "",
          "type": "address"
        }
      ],
      "stateMutability": "view",
      "type": "function"
    },
    {
      "inputs": [],
      "name": "priceAggregator",
      "outputs": [
        {
          "internalType": "contract AggregatorV3Interface",
          "name": "",
          "type": "address"
        }
      ],
      "stateMutability": "view",
      "type": "function"
    },
    {
      "inputs": [
        {
          "internalType": "address",
          "name": "_priceAggregatorAddress",
          "type": "address"
        },
        {
          "internalType": "address",
          "name": "_tellorCallerAddress",
          "type": "address"
        }
      ],
      "name": "setAddresses",
      "outputs": [],
      "stateMutability": "nonpayable",
      "type": "function"
    },
    {
      "inputs": [],
      "name": "status",
      "outputs": [
        {
          "internalType": "enum PriceFeed.Status",
          "name": "",
          "type": "uint8"
        }
      ],
      "stateMutability": "view",
      "type": "function"
    },
    {
      "inputs": [],
      "name": "tellorCaller",
      "outputs": [
        {
          "internalType": "contract ITellorCaller",
          "name": "",
          "type": "address"
        }
      ],
      "stateMutability": "view",
      "type": "function"
    }
  ],
  "bytecode": "0x608060405234801561001057600080fd5b50336000806101000a81548173ffffffffffffffffffffffffffffffffffffffff021916908373ffffffffffffffffffffffffffffffffffffffff1602179055503373ffffffffffffffffffffffffffffffffffffffff16600073ffffffffffffffffffffffffffffffffffffffff167f8be0079c531659141344cd1fd0a4f28419497f9722a3daafe3b4186f6b6457e060405160405180910390a3616b7980620000bc6000396000f3fe608060405234801561001057600080fd5b50600436106101115760003560e01c80637c61e3bf116100ad578063a20baee611610071578063a20baee6146103b6578063a3f4df7e146103d4578063c34b54e614610457578063ebf8e6c614610485578063f56f48f2146104a357610111565b80637c61e3bf1461026e5780638da5cb5b146102b85780638f32d59b1461030257806390107afe14610324578063940a71bc1461038857610111565b80630490be83146101165780630fdb11cf146101345780631be5c92f14610152578063200d2ed2146101705780633078fff51461019c578063400c1bec146101e657806345079cb41461021457806358a6aa88146102325780635f42caf814610250575b600080fd5b61011e6104c1565b6040518082815260200191505060405180910390f35b61013c6104c7565b6040518082815260200191505060405180910390f35b61015a61339b565b6040518082815260200191505060405180910390f35b6101786133a0565b6040518082600481111561018857fe5b60ff16815260200191505060405180910390f35b6101a46133b3565b604051808273ffffffffffffffffffffffffffffffffffffffff1673ffffffffffffffffffffffffffffffffffffffff16815260200191505060405180910390f35b610212600480360360208110156101fc57600080fd5b81019080803590602001909291905050506133d9565b005b61021c6133dc565b6040518082815260200191505060405180910390f35b61023a6133e7565b6040518082815260200191505060405180910390f35b6102586133f3565b6040518082815260200191505060405180910390f35b6102766133f8565b604051808273ffffffffffffffffffffffffffffffffffffffff1673ffffffffffffffffffffffffffffffffffffffff16815260200191505060405180910390f35b6102c061341e565b604051808273ffffffffffffffffffffffffffffffffffffffff1673ffffffffffffffffffffffffffffffffffffffff16815260200191505060405180910390f35b61030a613447565b604051808215151515815260200191505060405180910390f35b6103866004803603604081101561033a57600080fd5b81019080803573ffffffffffffffffffffffffffffffffffffffff169060200190929190803573ffffffffffffffffffffffffffffffffffffffff16906020019092919050505061349e565b005b6103b46004803603602081101561039e57600080fd5b8101908080359060200190929190505050613a7c565b005b6103be613a7f565b6040518082815260200191505060405180910390f35b6103dc613a8b565b6040518080602001828103825283818151815260200191508051906020019080838360005b8381101561041c578082015181840152602081019050610401565b50505050905090810190601f1680156104495780820380516001836020036101000a031916815260200191505b509250505060405180910390f35b6104836004803603602081101561046d57600080fd5b8101908080359060200190929190505050613ac4565b005b61048d613ac7565b6040518082815260200191505060405180910390f35b6104ab613acc565b6040518082815260200191505060405180910390f35b60055481565b60006104f57ff739309787a5c80d46b893481f079614fa4e21ce7666b12a84a7e1579c41463460001b613ac4565b6105217fc9c61fc6cbd9f071668d73209cdca6d22f9b56e3f73fb4949bb65d5da284518c60001b613ac4565b61054d7f6d66630169dbb808a76c46215541d92b84ad3169a4710bd1997d03c5fd3c52be60001b613ac4565b610555616a86565b61055d613ad2565b905061058b7f52f2e1a32b8035865864a5f59d3fcb45bbc3da2c438e64bec6852879eb7c073060001b613ac4565b6105b77fd7ae4e58a9563ce4076a6ff04a34a4d76b066356f0fd358b08ffafcb1cc7b8b260001b613ac4565b6105bf616a86565b6105d182600001518360800151614056565b90506105ff7fe5ba2c0cc603f23ee2de5f1502fee8e68740b885e0326b5c89724eb138a1531760001b613ac4565b61062b7f9bf585ce1fa32db0602092e68d393292bf0c35b0340677e6fbd8e22d29004a1960001b613ac4565b610633616ac6565b61063b6144aa565b90506106697f1920514c6607af2b26dbf9f98cb0e522ae384a68b2f1b1bc634393399aa8318a60001b613ac4565b6106957f3aa627a6b6b00553d126b2623b5b8daa9a4587ec09106990f9571ead189a545d60001b613ac4565b600060048111156106a257fe5b600660009054906101000a900460ff1660048111156106bd57fe5b14156116dd576106ef7f967c8283310afa56b26d9bd60b915215e7013f7016dd47869a4a8608031d7b4e60001b613ac4565b61071b7f7c089317aebc48e430fd1fcc24ed5260e3f7549e57aaced477068959735df93260001b613ac4565b6107477fa86e6621510248026388d500f60a87461645642028be47ede5eb8fafb1a4d8db60001b613ac4565b610751838361484d565b15610b59576107827fa6ff2ef9f22f03852e989b2a898a905f4960e5aba7d5ebbc9c86866da2265cb360001b613ac4565b6107ae7f8036dec5a5c1fec1ff14c69dc81841b60c31959189564299ebb8040870e1899060001b613ac4565b6107da7f4226716e183401caee4c8e488bfb3d0ce6798ec70d19bcb1d6fbbd4e47505a1860001b613ac4565b6107e3816148f3565b156108db576108147f5a881c0aebb230330f839214405829a5135f177c709a71358c713ff96eaca9ce60001b613ac4565b6108407f1f208096316a5b6f5afa8b485ea7b9501c7bc4f64d819e73d45119b2840c666260001b613ac4565b61086c7f80163e53a5c8717c1f89ee68e08159dd3b2ce2defc54d3438a02cb810f17fcc560001b613ac4565b6108766002614c63565b6108a27fb9fbefe17a80f9de2bcadb99cb6348bb54108b3bb8d11abae8aee3a5d3caf83460001b613ac4565b6108ce7fefae61a900baf133be9608d8d35c59c12c81ff5822ace1834f8f23cf40d74f9e60001b613ac4565b6005549350505050613398565b6109077fa7db501ce2af714f3a48fd714c356db54f8c3b2783ad6ac9ead939fba80674dd60001b613ac4565b6109337f41577177c5d1ec819ffcbe5f650642c8346de3dfd3c6ee1ce6e359924e6dab1960001b613ac4565b61095f7fcbf789d23459f7da4a818a0587286537876080df70c3bfcffabb6e932af5efbe60001b613ac4565b61096881614daa565b15610a60576109997f0b7b41f678a8f6c2ad279453f5d6c98d92d09b5334c76d5dc4159c46f8b8ae1660001b613ac4565b6109c57f28dcd44831f0826f9337d39166ed630a521c15c1c96a0df8cf13c0108b9bef8660001b613ac4565b6109f17f10d800488d79aa1f9507e771fb3941c70d1c11319615d4aa7cbe679003998a6f60001b613ac4565b6109fb6001614c63565b610a277fbed96d23f9d5a7ecae04eaf2d8f80eb10e43f9bcba43d45622e13cc3cd47cace60001b613ac4565b610a537f760ddbec6059aaf7ec3da40d0a54803f49607c456431df32458fde3d0818cab260001b613ac4565b6005549350505050613398565b610a8c7f95a189361a011ceb7009504f627fc9fede580f341be1f3c92b9b451dca81e62460001b613ac4565b610ab87f85681fe063e7cdfb1af1bb508a88dea1049710c011a8752878c64cb2f7e3e3f560001b613ac4565b610ae47f6aea06aa98b0f70a2935b6360da9191ea56f54af35c8445e6e9ecace7b9b1e5060001b613ac4565b610aee6001614c63565b610b1a7f52307f0c61fe29aa63fd37c949423053f1b7d5f4f0fc5ee910cef1458c34eb6160001b613ac4565b610b467f38a835fca370aac7649162e8701378b8158a774f78372d3a6794d9e334bbb55a60001b613ac4565b610b4f81614e52565b9350505050613398565b610b857feffc7a35d48f336bc20646e959b917608e112c5498d824921d418b5f867c0fd860001b613ac4565b610bb17fe19f5a7b882277a7c1e37d94f90d754aa32ded5a86d4a55777d93880df988ce460001b613ac4565b610bdd7f3c4927dc23b849ca2059936f1706e9af9737a8d83080b7271dfd4565ecaf82a360001b613ac4565b610be683614fab565b15610f6057610c177fcdd0f6d6c1cdaa56423632ce1b38d50c567644886ab589150fac48bfae9d047960001b613ac4565b610c437f639fa1c51da579c1d259e7a6790b40358372249623ba8267e50f1bb6dd55c2b060001b613ac4565b610c6f7fa6f25d53f6298c81b081bdaa1934ac1e2f8ac6ee794a74edc48b8a8fff89b6d560001b613ac4565b610c78816148f3565b15610d7057610ca97fe5a36ce286348a546b9ffdfdacb4a07b6b81027c8af0581508ec6b9854c3dc5160001b613ac4565b610cd57f20b3a8278452211975de003ffa5694101b30e64da2858b6cd7160254a7252e4460001b613ac4565b610d017fed95dc3816466828a5ba70f8671c214052ec4a5f11d86af8d6ce30260feb6cea60001b613ac4565b610d0b6004614c63565b610d377ffb613a59cc4b6ee7ef1879ecd5d1423fe97015366e280f906fddfc4708d4f16660001b613ac4565b610d637feb58ccee326e875d2391a95fb24e10262ce7601ba45328bb4fc143e3066ad7a260001b613ac4565b6005549350505050613398565b610d9c7f2ad67862b2b01476dc9a8927a1a30da5aad1cfdb2f9c0732f4bd97b073f2301b60001b613ac4565b610dc87f6e3ffae838b004bfc8634b44f1b23e68a0d35ac43fdd44dad4e86db55c27231160001b613ac4565b610df47f9f5ea157c885e7da701fc3334c4bfd18ce7c4d60ca10a1fa905c70cd19c0ac3f60001b613ac4565b610dfe6003614c63565b610e2a7f3898fd0daf47262c2bbd550d69019db54332e5edaf5674c23167dd89540e38c760001b613ac4565b610e567f31c6241856c09b8e642fdcc689471b1db2f303b7f67e1006f6a8b4f1ac2657fd60001b613ac4565b610e5f81614daa565b15610ec957610e907f0e906aed40067f22e52e059549dd14cc5363a91aa53b85e7a815977ed8bc5aad60001b613ac4565b610ebc7f6c1502b735a4015d81f7abd2cde0bd31fbb3e5fe1af8973dbc4b3b679f1c8e3960001b613ac4565b6005549350505050613398565b610ef57f1d5791fa7f69c58503b33c9f4d3ea3b00dc13c957d4c64e42ebd5b9bd405d35860001b613ac4565b610f217f189fb1f04a09bf85f74fd581f452f988c9e63c84738a68a2557958edcb5dfaf360001b613ac4565b610f4d7fa5f31ee9cf06354e519e262e79d79340ac905aa960f1247584189557d3fac36f60001b613ac4565b610f5681614e52565b9350505050613398565b610f8c7f01d737f46be00b641dadda4ad78223743f79bc49a0ff9e76ef157e5cf2b07e3760001b613ac4565b610fb87fd97304f13e5aa8b3c81ea5573a8ded2c1aa5f0a356f1fbd16241876928da30e260001b613ac4565b610fe47ff6252e887d49a70e62b25065ef2495d98c242b44bf75e71872c5927c9638336c60001b613ac4565b610fee8383615053565b156115205761101f7f92486d420091a147bb6fe63926e7bd4003cd209efb7573195abc0facb023332760001b613ac4565b61104b7f52d72e459999f824854524616e45a4e72de2607c38f79a449b8ba9fd0dab007160001b613ac4565b6110777fd3e98f49087b48b372d51a267d250c2559964d92d6774be8202112ee8ff6978960001b613ac4565b611080816148f3565b15611178576110b17fe0ec05be71f877b7a127b05c5dd27929130f3645d2c5d941f732d06fe282e1b760001b613ac4565b6110dd7ff99a9925d2bbada19b666a21810f7512a9f13b222ea61b7241ecc75bd6b519ea60001b613ac4565b6111097f72057268892ff99ef51b5bb4f40510b82812ad3a234e85f4d4b7181aad0955d960001b613ac4565b6111136002614c63565b61113f7f29ba175105dbdae0aed8b1dba96cdac686766b391fa6bccc54da8369497c28da60001b613ac4565b61116b7f7bdd6eef79214e1f04d97c135b98fd0bb5c96f5feb62ae6003a4445e4f9a799060001b613ac4565b6005549350505050613398565b6111a47f8ffa1c0cfd72a2c68dffed7381ed7e9e378a824183b6791c1471fa56cd8ced1360001b613ac4565b6111d07f9104d94fa2f49c7ef58450f7f65deb8c6c2d4be645faab444d3f57b566e7eac360001b613ac4565b6111fc7fe9bc12785bb744138ab57a0b01de0140aea4be5ccf202efcf0d2b0069da27c4960001b613ac4565b61120581614daa565b156112fd576112367fba6beefde5dd61c19dc846d2f6d55d0e07875a7708c6b2597a894735e0c70ff560001b613ac4565b6112627f81537abcafb6e8c1f1d4b4d82f845751f7c467c201a4cfcab58f9f6944ed09cb60001b613ac4565b61128e7fa97a7749b50c4906b0ec5101c7d40739a3f1bf91fb9b257c882e0645e164bdd660001b613ac4565b6112986001614c63565b6112c47f8e1c6701a5a80024b335bf45842d62ae279f6ef704bb9819bbf0ea01c027581060001b613ac4565b6112f07f76b1a0831b8e131a6812021152ef8257ece7880ec99d14821df1ff690d7de4db60001b613ac4565b6005549350505050613398565b6113297ffb4322f2378b164254d9cb6e2465c6f0f46e3a3e78476baca9cd05e2757e461a60001b613ac4565b6113557faf72e2b648951a16d485f1f8ecde81b0d2bff5701a882233a86373338f485e6460001b613ac4565b6113817fd8d018b0a59a9e00819268f633c55045c71daecba649d1dd4a79ac508a7b3eb560001b613ac4565b61138b838261533a565b15611427576113bc7f9d984afa164d4beb91cc213665038be01e4211d2f5bc49b175655a06634e272b60001b613ac4565b6113e87f0c216819d1ac9470d2582839a666b865c0450e54e88af648fe160493270d3e6a60001b613ac4565b6114147f3ef7190e494a20fdf83a39367183d0c48c6ddfc16ff1ef5a4b811816240d817d60001b613ac4565b61141d83615619565b9350505050613398565b6114537f3ef5a8da24f1a826739afc77ca244c3f9be8cb84453c7687c91cb59d827aff1860001b613ac4565b61147f7f55b573acf3fc31d89ce405beae6357257ae513bacfc18a2f9a7ce8e9b944a69360001b613ac4565b6114ab7f718cf096642eec692bbaee0e6a6e9826d4c99b87831b0208798e7c6abf9f34a260001b613ac4565b6114b56001614c63565b6114e17fd41ab544f811eb70480e759e0545f850d36fbebcb2ae3562a96cd999a4fc078460001b613ac4565b61150d7f190e12c158f3dc377f2728a33ac04746286a4cea9765e19619a12745e90e169160001b613ac4565b61151681614e52565b9350505050613398565b61154c7f715e3305251b918ef1b10eb7437c9035e6d2664b73d6e2e6642f68a8e9fb950860001b613ac4565b6115787f775b46ccdf88d72c408120df8360b9226b6db2a8976621a4fffcc7ba5552655d60001b613ac4565b6115a47fd862cd735c310c83ac318a4b84950d030e6e5056061b31feff2f67ec241480a060001b613ac4565b6115ad816148f3565b15611645576115de7fc03fb6ad07a9d634911b1150c0fcf9c3f12966c9801bb914426cf8172810b8fd60001b613ac4565b61160a7fbb9f98cd6397306630524d3975813184654081fac1db9847611658ab56364c4a60001b613ac4565b6116367fc90cb0f8c8061a0105be29085e0b97d45d6c42807a2fd5831bbe2c669e165d9c60001b613ac4565b6116406004614c63565b611672565b6116717f5d339406f239496f99fab8d404fccf14f1c962b47453bac1647fab7bde353c4e60001b613ac4565b5b61169e7f9ef64f921030f19985912b901d6c8aee8150a09f4981772e1b7bec5e4872fd2860001b613ac4565b6116ca7feeedaa32b688b969fffb23d4568c8223acd7458f356cd4923026862e0d33f14960001b613ac4565b6116d383615619565b9350505050613398565b6117097f3b930d2ab3049a42c04518fe2f64251c1539544595a2146c1b0b31ddc3c7006e60001b613ac4565b6117357fca58a054f25369b17adc4a68234730bdfde00b9b6636a218647bdc080b2c0e9160001b613ac4565b6117617f95bc0d67d1e3d51bef812b07b715be77ace43ac7324661934f258da234075cfe60001b613ac4565b6001600481111561176e57fe5b600660009054906101000a900460ff16600481111561178957fe5b1415611c2e576117bb7fa1c4df8f8465e5aed78ba8b7867d21b0eccc003d555b2d8f1f52ed9c9da12d7f60001b613ac4565b6117e77f9a97315e796621bc57d7fa1332379df36f9a900d1227b025dc17bf3c510de2f360001b613ac4565b6118137fa3a6d4ce7799953aaffb3a6f289b450ce7ed82ddb65e6bf470ec3b9a2f7ffe8660001b613ac4565b61181e83838361577a565b1561191c5761184f7fce0849a3f21950e639b9d7fa3ac1c6dd1d591be64e983cda4c24da53cf3e3a3360001b613ac4565b61187b7f1f5fb3cf21f8d2a45d0fe1847a23f4aaf3b4db3ef971a6a9b1c337613c471dd260001b613ac4565b6118a77f3507f500a9cd6ca60bd7a665eeee8d91c09a477a24c51c2d4c19c785ec7fdeb960001b613ac4565b6118b16000614c63565b6118dd7f4a99d4e22067f1114babb7a0aea58f1cc434ce0ce86de1bfe09c24491c325d3560001b613ac4565b6119097f808e5ebc9cda076936afc9927918bd9de789a59734c87609b3e9fd922d642bf360001b613ac4565b61191283615619565b9350505050613398565b6119487f6df838800cefda36b8db59bf1c153e8291b4a885eb424580740df556a8aa63ab60001b613ac4565b6119747f2fa891d50cbf29dfbe56920c1839bd207b29d4a1e8ade35308bdf6d86f741d0960001b613ac4565b6119a07f7db70f645b7e3a2b71a215b399e0ad534b6b0c17caab910f7ca1037501d1a4f960001b613ac4565b6119a9816148f3565b15611aa1576119da7f5b449b3713bf6268de8ae5dd417d40fb87ebb616fed38b61d073f5d8d2acc12960001b613ac4565b611a067f221cbfe776990e9492727ab0de4a1ea90ec6ad127ff08441d6713023d59c125160001b613ac4565b611a327f41d803cea7a28c4656e458becff8685c554ae9788ead4ae16276f4169203c93360001b613ac4565b611a3c6002614c63565b611a687f8bd9aca1cf8124750a806cd8fe388ccf1c07dc9f4dcf49cd50131a712965ceaf60001b613ac4565b611a947fe386491823dafc327ce4591afdf785e86f3d3ef1ed18fd20c89632904ee2757160001b613ac4565b6005549350505050613398565b611acd7f7ab138810ad4b4f684d57c7922e29194ec2b85b6db1ea310ef218a6e8f41093f60001b613ac4565b611af97ff56c6df6ce57780fec0569b24905be5c9320a0b6e724ba6a3845868c33cd8cd460001b613ac4565b611b257fa23cda7f81285d32a97788e8eefe3ddb2fdd27f8f732dc71566d7681f381976f60001b613ac4565b611b2e81614daa565b15611b9757611b5f7fdd33a658ba0de7b4a0edeccdf2c46abda81284dd54eb4e8908003a3b1bcfc29c60001b613ac4565b611b8a7eb7a180e4062a036673ce64fdb4c23ef38957a2b6762985605016ae9ea10ddb60001b613ac4565b6005549350505050613398565b611bc37ff2480a0ff608539b84ea6787ae566ef998e382af4bd9fb037152a243d2604fdc60001b613ac4565b611bef7feb9d95eb72c021e89ae7bec4a84928a997af61a3d34a447a8e9cb37435f20a0460001b613ac4565b611c1b7fc1e5a50afa89dc2dc52198b0fe17443a01669bea940d7ab59370c175ec65f6f860001b613ac4565b611c2481614e52565b9350505050613398565b611c5a7fc8c7024fa577fa7f5e5303c3e0517d033528fa5e5d1737874eac138c188bc68660001b613ac4565b611c867f86d021d8f94be29f9c8870f9a3881414d8ebfd1dfdaffc7fd6b21e40233466e660001b613ac4565b611cb27fc00b19fe3caa198e81be82dbfa89c931cbaf902f664c3d945d1bc0b532fba54e60001b613ac4565b60026004811115611cbf57fe5b600660009054906101000a900460ff166004811115611cda57fe5b1415611efe57611d0c7f220da0804fe4b0240e1ab94fea35d65e2e9a4e132571d023bb708a3829626a6860001b613ac4565b611d387fd9cabe2466eddd2ba94f1003628760d212807aa6faf59c2415c104bf8613c36f60001b613ac4565b611d647f66e093e2d5b227c08f306a57a9bb192e92710a9ad77b89440576b78017234a9b60001b613ac4565b611d6f83838361577a565b15611e6d57611da07fe9161d7c4b5a7a6d72f8af64ca444dc04c97c189fd11a7717d7b19c286f2ca9560001b613ac4565b611dcc7f05a00eb378b6b07d513fef8bdada8a5112fa52a049552e2c6e6a110c53a3d51460001b613ac4565b611df87f1be081603faa7f6924e57d342093f6e5c302a8a968411121a92193e30dd2276a60001b613ac4565b611e026000614c63565b611e2e7ffbe1a00d95be247d6f299e8a2ca4c7f8032bb8af03ff51797a227722700bdaca60001b613ac4565b611e5a7fb6e31590dd739bd7cb31da0a59b10e8214596887ecb393d31b0422968598b3b460001b613ac4565b611e6383615619565b9350505050613398565b611e997f4df492b5b28e069ae2a231cb876d5024921c3ae3a47d7a89a68c60efdac1dd3160001b613ac4565b611ec57f026d5198cf02d47f85893e6f86a35c077c32b5153804002e74fed85ba072f57260001b613ac4565b611ef17fdf541483b5d8134591650e86b7ec195efaab817c93234c724ba61531668df37a60001b613ac4565b6005549350505050613398565b611f2a7f4bea9d109ce998e0bff53bd667beb39da361619ec48aacd8cd1ac54bdab517cd60001b613ac4565b611f567f09b5c5a0dbbac708e54b7c5da88503b01fe80f0ac517899dc2a8c6659b6aa19760001b613ac4565b611f827fdbe1befa80ae6c2ab9d87da0f6cc852eb2b51768e97db94e9c8673df9121776e60001b613ac4565b60036004811115611f8f57fe5b600660009054906101000a900460ff166004811115611faa57fe5b1415612c6457611fdc7f8cc30e86a9bc4248c9660c613cd6e5e754384ca8fc7bdd44bc7e65413aa5a32a60001b613ac4565b6120087f136e0ffe23d17aef4278a700720d09a90352e1ddd0ccf048dabe70633777f5cb60001b613ac4565b6120347f26ce225179da3e24c89255264b208ff2ced2e96de061e155adfaa96dbb5203cc60001b613ac4565b61203e838361484d565b156123b85761206f7f93f9d0fe36c6d80708a4ec41164bfd47ae724d6803638c30e2158bfe84ea67fe60001b613ac4565b61209b7f01ecd19abef7a12c8f9ecc1eee99991f0c3f8df966528a8142cc52a9d66dc7f060001b613ac4565b6120c77f01fd3206b67aa99ba86fb6790c50a7904af450960df73e2747914b5c42bbbd5160001b613ac4565b6120d0816148f3565b156121c8576121017fef9c5fe9146d00b0c05ad7144658d758ad9fb558d7523ddd0dd461e49aa33db060001b613ac4565b61212d7f4ebc27c331f2feb3a2ca1ddf6d214d7128d45001e169debd8fb3a24db2b9ce7760001b613ac4565b6121597f2d8d37e332fb9dfa0d96adaa2ec549c6ee754b4fbb54f9ac194e52f25cda28ad60001b613ac4565b6121636002614c63565b61218f7fcaa2b3e2cbecbbac61315cdd25d5a6526e137e279e4a27c6ccff8d909164f48560001b613ac4565b6121bb7f1e6c0d6b2238ae98129db16660bab5ca7fcc750a0ea379b9d2d6be3da75f819c60001b613ac4565b6005549350505050613398565b6121f47f25731e5e157b5e30ed775edb0d425dfb97fa2b20365647990d1deb6888f04c4660001b613ac4565b6122207fb77fa9a1d853d0827d41c7cc6e3ffff16b90ff2eeb3467f006bf8f14c11db55a60001b613ac4565b61224c7f7b412d1475c0f880888a235eb8c97e8e69b6c66c892c07053f7e40f6fe45725c60001b613ac4565b6122566001614c63565b6122827f598365240f1695c7a4bf9279f3aa45b2ff3e65e19f2d16a5584dd2e7fabdb9b660001b613ac4565b6122ae7f62812765d4d9efa79fe1afbb4428500039a62d80ec4fad4a12aeade561024d4e60001b613ac4565b6122b781614daa565b15612321576122e87f4154fcd1718033c8fd32ae7b6c2ed71e86e33215eee48078ed198a1a62a85cd260001b613ac4565b6123147fce652c9dc3dea3890f604fdf77f04ddccc56408ddd8e54e83c2654610f1f72ae60001b613ac4565b6005549350505050613398565b61234d7fb9b62caaad481f48dab2ad8f78aee35a7f824b5da7d244dccd7f1616ba27f6bd60001b613ac4565b6123797ffa5e0e54e67f27f7e9ae8317e133f3bb83988d3ffa9c99f163d1ef5a0f437cb760001b613ac4565b6123a57f9fd85ec5a9b4b8e93814c28ad5ef035e69871b0b199066ce50ab2120c65df82460001b613ac4565b6123ae81614e52565b9350505050613398565b6123e47f58ec92a1507127ab10c41759f9a4d2abe6b6af6013a6ebbffead8ab4c68c7bc260001b613ac4565b6124107f8f3d68590ab84b26e97b4ac1bf7a0c3a3f00800c695a32f0bb81e3e667e0718c60001b613ac4565b61243c7f8eb9cf84e425681a085d751ac845d7aed5152260ebaf285e0a33666312d0897160001b613ac4565b61244583614fab565b1561275d576124767f48de40ab88cdbdeecf1fb6fe1bde147f1482bdeef1aeaaf8b2249697afcbf2cb60001b613ac4565b6124a27f3ddf106d0a6b38d20f8f387a2a8936f534637f1828ed0e0ad35adbf6d783bcb460001b613ac4565b6124ce7f8fba8640cd61b28c61821c5ee421c8bec75876bab538fc92eae261f41645cec860001b613ac4565b6124d7816148f3565b156125cf576125087f53d7057a837c1e717ca42e4b521f93a38d8f5b5c251e2947ebc750446aef90fa60001b613ac4565b6125347fd3622355a11831ca5f0f21d12fa61ebc38f9c45bbc8af8886e9befb7b7178e9f60001b613ac4565b6125607fc72d67c9cce00c0337a98244f4fc9681bd262c02c8f6d7d9da361020808c63d060001b613ac4565b61256a6004614c63565b6125967f7381df1c27730632c8dadd0dad187ce71ded1d7ea529bb6e3a3f6ea4513ffaef60001b613ac4565b6125c27fa171ce401317a1be142a4cf78090f55ce9002bca0f56cebfb4e838726d20805760001b613ac4565b6005549350505050613398565b6125fb7f5f2ff88cbf0df9a377ecc59eb0e7fc75dffa57fda202c6634f0302c1791cd23460001b613ac4565b6126277fb6d516d9a704c0ce0736962a842396753ec1d5e66fc75a88d0f7125174097b2a60001b613ac4565b6126537fe41ce961d5700f72bcbf8b822883d1202b995dd8bf3e66e9ab793e660c41b21660001b613ac4565b61265c81614daa565b156126c65761268d7f30794ac70aa396cf325a17839c1fe5795a8c9d797f433facd072419f323cb4d260001b613ac4565b6126b97f748d881b8b83190a6a41a9381bba20c3b1f98ee016e7d3b2b8ec3c3bad0c269560001b613ac4565b6005549350505050613398565b6126f27f7be9c110d645641d0d0f1ede348c2bdd88f3779c6b36a49af5d2da1ae3aeaea660001b613ac4565b61271e7fcfa3884ee84f105d193ef94f7fa5a476f25aa7c84032c6cce1fab1b61ae8ae0460001b613ac4565b61274a7f9adfa6bb0bf2a6ab19de234e70ce274b4bd640c620724fbc37304802155f6d4960001b613ac4565b61275381614e52565b9350505050613398565b6127897f38b75f7489d55316e58e6dfdf4b5f95bab3eb373701c7f721f3a0a75ff79259760001b613ac4565b6127b57f8841f1cb00f8b187131d6e0fff4cd402da6a46ef7eca0cc74fb0be3738997a1a60001b613ac4565b6127e17f811d773e0f69a4cf4a3e64975d7de0a3b7054bb8215c3136ea9869fab887fd0460001b613ac4565b6127ea816148f3565b156128e85761281b7f5ec68f2fe1bdbd51ef77759492dc0014508085066a9f0389a7f1fe6619670ba260001b613ac4565b6128477f6b95880b03a030503d518ac8550359343ce10c8c7f727ac4119e86b520f81c5260001b613ac4565b6128737f98e0dceb73277ca81e5658ef7303993bef5f1a3c41a559402dafc841b3aba34460001b613ac4565b61287d6004614c63565b6128a97f8d2cc7caf68038449b3b045daab1308e4d92bb2b033a5115a35d51b5901cf1bf60001b613ac4565b6128d57ffa22b5c410830e213940769c1e1977552fd57194ee516390be723633c417121c60001b613ac4565b6128de83615619565b9350505050613398565b6129147fa6335b35b089335fc65c8e6831afe691cf2e36cc95371fe9b5cd6894b087e0ee60001b613ac4565b6129407fe935b60b8344fc195a10b1a8755c1808f28cff36086d91b47eade6b1e115a9b760001b613ac4565b61296c7ff43c371b96dff2db0c773170a2879d61c51f63bd5043a02909a8fad1a55045c160001b613ac4565b61297581614daa565b156129df576129a67fbc5d7e03c681a6a7b4f3b718083aaa995b2dd7d804d4996dc23dc270aecaa2bb60001b613ac4565b6129d27f86fccefc7f8b03be564a27105592a97a880d2b25d3409e7b011012384a4ec97960001b613ac4565b6005549350505050613398565b612a0b7f33a70f544ef512633f414ac11496b0ffeeabe19ca9f8d72a33c887131514730960001b613ac4565b612a377f898ff6f852d34f2e6ea4365b234c4f1151f3adbfd6d4f2c453c6d12dd212a7c460001b613ac4565b612a637f0c93e1d295187e3617909c94dacab670a4b647d4629d7420a6fd3263027c038c60001b613ac4565b612a6d838261533a565b15612b6b57612a9e7f3662dff424245726385f81c525aeb9fca53d78ac2e35d3fde12cf508f2e06bca60001b613ac4565b612aca7fd491bfb7e99aa6b5e3c7b01b4628601ccba42089ba4e873e7ae6a5370d470c6e60001b613ac4565b612af67f5f3dfa348060fc7e3fea8e94c43d69e51dbc5afb211f7176adea9dc77b7ef9f360001b613ac4565b612b006000614c63565b612b2c7f1601c7949514d8d82bfa455250fa2edc53957734011ab5e0560819fce065db3e60001b613ac4565b612b587ffb91ddf017b864eb64646c621d8aa9a73d68cc1fd31ec1318e078d430295ee8560001b613ac4565b612b6183615619565b9350505050613398565b612b977f7c5b517a9f04e3638169680d2530a2f362d7db469b7a980240b69e82106db2fd60001b613ac4565b612bc37f1dbb52455eff982c7e5990f770fcd7ae04a5bf356665c41302b92766ffc0eed560001b613ac4565b612bef7f5d67eb3ff502a9796bd9fa9191e1a3d21812433b3ad99d28428bf31896a9532460001b613ac4565b612bf96001614c63565b612c257f4b0948af980c34a56d571c8ea6ba5c490cba7595977345acbd34ea664b2479ad60001b613ac4565b612c517ff0389057a0dd2766d611a41023666572bd0d31d82937d3e9ec4ad9b342edea1060001b613ac4565b612c5a81614e52565b9350505050613398565b612c907faa6d654d65ed633ac1e32108fe77cb81d7f8cb4239e581dcd21425cc318488bd60001b613ac4565b612cbc7fe746c1bbc4598ea55ecb6f6633f2b979d578523e12e20f8eb463b14451f6f6b460001b613ac4565b612ce87fe7d766bb891a447e16940af42aed6bb0efe1ecd9aa5066be80e39c8fc1b4e2a460001b613ac4565b600480811115612cf457fe5b600660009054906101000a900460ff166004811115612d0f57fe5b141561336857612d417f130bbb53eae83b1c8760026eae541d3cbca9c337d49a3c5abf6bef02a441692560001b613ac4565b612d6d7f5f4226f7ee19b857371703f854b20f7b00c6d76f2171ae68425c0318317314b560001b613ac4565b612d997fbbcdc3df97c82637aa67e7a63f50dabcc7ad6be8ee19be3be046fa3179591d9560001b613ac4565b612da3838361484d565b15612e9b57612dd47f9bf295e197d11a2f3d0c86c3cc241b3d4e2e7c1eef7c0b5b87b7d2d67aa273f160001b613ac4565b612e007f10aec0d2534ad1f20ba50e0cc749a1bd6d0123b67f39e5bc76e6100142a2ce4e60001b613ac4565b612e2c7f9538c6811056f6e528c1a25c978bdae48dfe7ec714efff178f0cb8bb3cc629bc60001b613ac4565b612e366002614c63565b612e627f7758b79a28ff9be449347764823d3640b33ebdcca949126ac3fd238d206e893660001b613ac4565b612e8e7f6e0f0bca6bf51a2c0a632691167ebaec883fe855557ad707462c6d6441e3182f60001b613ac4565b6005549350505050613398565b612ec77f06322e379a7d07f03de7dbd34cca86ac10de267b7cd5d086f2d87c3fe3c8e62860001b613ac4565b612ef37f4f6e8bc00ca228860818dc38a84b786c1474b9317bfff021d3454da2ab89264060001b613ac4565b612f1f7f5af8b66a1d4b00163ef75f58c5253b1a69d4e7297f1ed8742e904512e658041960001b613ac4565b612f2883614fab565b15612fbe57612f597f6a2a19a7fb4006ad3f836114b6279f9cca00c3fa5cce3c52c550cee854a9724560001b613ac4565b612f857f15909c43c50fe6bdf3186f33d0bd55e47cedf146904aac4705b83839160508ee60001b613ac4565b612fb17f20448d484c661ca1f472b6032d0938094d5d0748474ffc5c32dc54b40afadad860001b613ac4565b6005549350505050613398565b612fea7fd76f3fec4edaef24b44f3ca48d21df95d5f26fe38b90db3de60eaf9661c9dc8260001b613ac4565b6130167feec383f8483489100c17ffc83700d8b900ec789f3344682b15da5b387ad0f91d60001b613ac4565b6130427f5b1bb985fed1b3e90f9cb631507a73539790bdce3bc4db689956ed6ed45bc3a560001b613ac4565b61304d83838361577a565b1561314b5761307e7f9a4679c7c9ceb210c285ce6b61377cb1f6c9167b222d0baf11bc83fa93c9f72e60001b613ac4565b6130aa7f639b96424a6b0ec241355ace855ec5716b15d64160fc5a83576fa82ed033744d60001b613ac4565b6130d67fc1c6e611c02dd9590a273a1125550873f4b6a3cc3d3d9558662d122542d84ea860001b613ac4565b6130e06000614c63565b61310c7fd655d818c1d78eeed4c0445d96df3553cdcdea621a4121fd4e1013c8a52c75ba60001b613ac4565b6131387f039c1bcc2d175d8585375a91e7010cbfe4720e7dc3e587ddfdffde2709e0755f60001b613ac4565b61314183615619565b9350505050613398565b6131777f2d7a3a083465b1936ddd7e7d1fb93d32a44768958b1deb83ef9e6d84a53dbb3e60001b613ac4565b6131a37f4969167fddd2077dfc0575db67305e896af24071df55fddfc3716115720633bb60001b613ac4565b6131cf7f7c6dfdc5d474cb58b15d8f754eb7e7aa22abd0880dddcfb02eb9ce1af31a67fb60001b613ac4565b6131d98383615053565b156132d15761320a7f15d7309f3fd9410679c5e43e539b1eb43f67e547d91a7d2b5b7b0b8f322b915960001b613ac4565b6132367fefe8697ca065587d29cdc0bada105d4b32c6deb7644f06ce27fdd3e1a02fe87360001b613ac4565b6132627fcd09dd281f6d194dfcd2173df64cad0cbbf80d1b75689260b49302463401abad60001b613ac4565b61326c6002614c63565b6132987fd7bbc29d428da57781bdc21f69d3253435b62d66bd585d77a12ec207d108210a60001b613ac4565b6132c47f6f23e1aa7cc3f1a41588261c1833f96af720f2ce2c9dc9f138af710e13c91aef60001b613ac4565b6005549350505050613398565b6132fd7f81a31e2a356f737d2da29fc34108ef54ece98e3b2462590f4130534cb288d81b60001b613ac4565b6133297f3fa6cad8c881c32f15b6f0c37effc99ffcde9c7ac474c9420ebb2b85f7566bc060001b613ac4565b6133557f2a75749ba4ee84e22559bf789dc0e3028ea0cd8eead901147f2dbe1d375c160460001b613ac4565b61335e83615619565b9350505050613398565b6133947f18ffe909f48588aed9b743768a89b31a49e022d1955dc7251db4bf24d2fe632b60001b613ac4565b5050505b90565b601281565b600660009054906101000a900460ff1681565b600160009054906101000a900473ffffffffffffffffffffffffffffffffffffffff1681565b50565b66b1a2bc2ec5000081565b6706f05b59d3b2000081565b600181565b600260009054906101000a900473ffffffffffffffffffffffffffffffffffffffff1681565b60008060009054906101000a900473ffffffffffffffffffffffffffffffffffffffff16905090565b60008060009054906101000a900473ffffffffffffffffffffffffffffffffffffffff1673ffffffffffffffffffffffffffffffffffffffff163373ffffffffffffffffffffffffffffffffffffffff1614905090565b6134a6613447565b613518576040517f08c379a00000000000000000000000000000000000000000000000000000000081526004018080602001828103825260208152602001807f4f776e61626c653a2063616c6c6572206973206e6f7420746865206f776e657281525060200191505060405180910390fd5b6135447f4ce90649047ba0614d6159bf20fafd6453534d10c5eaff0a5e04672b57a4e3e260001b613ac4565b6135707fd4ccacdaa84345da187a59650803acb2d204c72827129057babe5ed8e60bcf8d60001b613ac4565b61359c7feab291bb123b19787203b59c69a267c9329ff22050c618b756c1e7dd4fd7dfa360001b613ac4565b6135a582615964565b6135d17f794d030ae0303707f80b2458120926a959be1a98aefe64c91eabd118a040911660001b613ac4565b6135fd7f3ec9cba82778e1e0c20c8c0089e8823a5032578ff62c2e28d5566fd80325c3ed60001b613ac4565b61360681615964565b6136327f17e97bbc253e4d561ae1647f3cbfcd43061cd52f63c1f35ef47e9d93acd3449160001b613ac4565b61365e7fd99ea8b3b4a521493d7834be520dd0b3b42af3e94442546d736bbf0743697c0760001b613ac4565b81600160006101000a81548173ffffffffffffffffffffffffffffffffffffffff021916908373ffffffffffffffffffffffffffffffffffffffff1602179055506136cb7f8edcf01fafdc091c8e65ac402e43e435163973b5d40acbb6fff37ee2d966708b60001b613ac4565b6136f77fcf7afbc28cf8bcc4313036628bbe8a79d6a6898759bced5b8c810161965f17d660001b613ac4565b80600260006101000a81548173ffffffffffffffffffffffffffffffffffffffff021916908373ffffffffffffffffffffffffffffffffffffffff1602179055506137647f7a9324f707b94fa241dfd1e1242b91c89e889a868ff63cf2fc99125c50c7493b60001b613ac4565b6137907f5fc788969d2277720abf6ce5129528d87d36bf3c069aa02d5a674a21868a130860001b613ac4565b6000600660006101000a81548160ff021916908360048111156137af57fe5b02179055506137e07fddf9391b5858ef608df6aae4a838114b1e03a9213d0132f1336b42111b07d43f60001b613ac4565b61380c7fbbec20a8066ac2353708943bcc125065b30074fd362fce608b0fb4dbf1a6869260001b613ac4565b613814616a86565b61381c613ad2565b905061384a7fb1a5deb219e0c26bd61bdbb9e2e9fced67ede37599cb6f2eba77623614c5ad0960001b613ac4565b6138767ff0fd647a230b854595e7e3b58abbc46b3b02017283a7b468bd7592a2254fcce560001b613ac4565b61387e616a86565b61389082600001518360800151614056565b90506138be7f95d5d314ffc53a20a58523aa2659aaa8ae8b37e1f038ad35e1d5c089c582541b60001b613ac4565b6138ea7f629cbd15409a96e26fa1993bc293e6393b564e3e4d0b971e0215b8a66f68c4ad60001b613ac4565b6139167fadec3fb5408dd7e83b2fae734a477287852b6fccbc24127b52816b52a44d56d660001b613ac4565b613920828261484d565b158015613933575061393182614fab565b155b613988576040517f08c379a0000000000000000000000000000000000000000000000000000000008152600401808060200182810382526030815260200180616b146030913960400191505060405180910390fd5b6139b47f7f1225775978451c07988531196bab4d2ae07c92b66e5761257fd45da08e08a860001b613ac4565b6139e07f3b992123131ff394b204f16c1eb670150503925ae629762a262f7fcf4ae694e760001b613ac4565b613a0c7f36b93cd8d6c8b51de2fdf3ae66aa67e7fc89d97c348410ade3a00f2d071cf78560001b613ac4565b613a1582615619565b50613a427f6624a34cf1df06a09940f7fd0d4ab841ab2628a3f62bd70da32185e7963fc5eb60001b613ac4565b613a6e7fbfed0e557ce278771ba743fcc2b793430bd91b334266c5bbf1c97b55240d12e060001b613ac4565b613a76615c97565b50505050565b50565b670de0b6b3a764000081565b6040518060400160405280600981526020017f507269636546656564000000000000000000000000000000000000000000000081525081565b50565b600681565b61384081565b613ada616a86565b613b067f87817170d1c0d5e4297c79026f80310609d6d2a0a4e59dc426203ceabb1db2d060001b613ac4565b613b327fdacd6ef437b54737ad6b534f0a020c1ab4c73cb44a75c7ad654fa02fbcb43e4860001b613ac4565b613b5e7f2daaf4d0e3667b65bb4c69d1bd71db0458b47e78db5693f1721cc645d36f88d260001b613ac4565b600160009054906101000a900473ffffffffffffffffffffffffffffffffffffffff1673ffffffffffffffffffffffffffffffffffffffff1663313ce5676040518163ffffffff1660e01b815260040160206040518083038186803b158015613bc657600080fd5b505afa925050508015613bfa57506040513d6020811015613be657600080fd5b810190808051906020019092919050505060015b613c5e57613c2a7faef9c076fd57f8f5bd3ecd655980ad65dd7cb78137a2d940796e390ab221ecf660001b613ac4565b613c567f06d8644c5e1010b9906f2513293b6bd3cde78ab2b1d92c83086cb6ca5da9f2ff60001b613ac4565b809050614053565b613c8a7fea4076caab8136aaa82d23a4994ae1b23502a9797273e9c418f258fecc6ec66060001b613ac4565b613cb67fad86965567445d879862fa1fa1455ebfae50f0578dd9a648423fc95d857e5a1660001b613ac4565b80826080019060ff16908160ff168152505050613cf57fa2205ac9d090ae3f9e4685ff1259b11ee5639bc650df39ab23cd3091979495bb60001b613ac4565b613d217fbec10cd2c1c821f40b729b85915739c62013026b4e10643114c8631029dad5c660001b613ac4565b600160009054906101000a900473ffffffffffffffffffffffffffffffffffffffff1673ffffffffffffffffffffffffffffffffffffffff1663feaf968c6040518163ffffffff1660e01b815260040160a06040518083038186803b158015613d8957600080fd5b505afa925050508015613de557506040513d60a0811015613da957600080fd5b81019080805190602001909291908051906020019092919080519060200190929190805190602001909291908051906020019092919050505060015b613e4957613e157f200ddaba39207cef96168a69af0abf5ed22f233734bfe5f177ad65f71d47a69560001b613ac4565b613e417fdc02dfd2124c7020955f98105769b2ad66beea49d2d9b7304a9b85e088db94f760001b613ac4565b809050614053565b613e757f016e423fe6b599bb0d986e8ec84b477eb9d8792ab3045988fdfe04a46ddfa31560001b613ac4565b613ea17f03a11051253fa28cfc52413d6b20a4042069676b1b5242bbbe2a3aeed2adef9e60001b613ac4565b84866000019069ffffffffffffffffffff16908169ffffffffffffffffffff1681525050613ef17f21bc47abaf0473a41a4ba9f956e7aa159077125dda176cc18b4a00e6213aeeca60001b613ac4565b613f1d7f729708e93cf089a3f625a021c5adc6b124b4d7206eebc9b47cd062d5cc05817e60001b613ac4565b83866020018181525050613f537f6e233b1ba21ff97c32ba5c57acde12c0e87625518d81e87a94aff937edfd2f7b60001b613ac4565b613f7f7f71f6246de94b292b42930c8d2249f935c85ac60cddf6e8ea3cf5816b034875cd60001b613ac4565b81866040018181525050613fb57fca8cba01f23faa809247f4b07a9ceae2d7b9b9670193cdb0f50e3913e9747d7160001b613ac4565b613fe17f8780315b52be82cac899ae610683d6a2b76e12cc0ceaf9d91c1596744d44706160001b613ac4565b600186606001901515908115158152505061401e7f16418fd4079f473fa59614a8ed453d24fb44ef33c9df6e3b85000ae9970163ad60001b613ac4565b61404a7fe79706be211adb3a55216b36e7bccc9006870c4942e15e8b68ee21a89ce7531d60001b613ac4565b85955050505050505b90565b61405e616a86565b61408a7fd14d15271b0d147b178870057f5c684699e2a2f902d52b58abbd150a355d17a160001b613ac4565b6140b67f01d37368aa349521a561b3db84be48ee99a57dcf62b7183afe5b609ce276193e60001b613ac4565b6140e27f797c886c7c6dc7356e7890c9caae76514a4fd1483222ba37c85c4f2b6d38162760001b613ac4565b600160009054906101000a900473ffffffffffffffffffffffffffffffffffffffff1673ffffffffffffffffffffffffffffffffffffffff16639a6fc8f5600185036040518263ffffffff1660e01b8152600401808269ffffffffffffffffffff1669ffffffffffffffffffff16815260200191505060a06040518083038186803b15801561417057600080fd5b505afa9250505080156141cc57506040513d60a081101561419057600080fd5b81019080805190602001909291908051906020019092919080519060200190929190805190602001909291908051906020019092919050505060015b614230576141fc7f9abff1591887a66c5aa0f62b7c7553d724e126a2c14ed9b76e527b25367897b260001b613ac4565b6142287f4dbdfa76499bfc7d7aff6b8c8bada53153ca6dda94a903ba76c4cbb4bfc3bb5c60001b613ac4565b8090506144a4565b61425c7f2ab739e93c3284b85a4471ddb9eadc3ee561088e873353f238f2083415aeca7e60001b613ac4565b6142887fac09c5240e321f0d2db0772eaf80348416778154555babf8bdcd1f632759839760001b613ac4565b84866000019069ffffffffffffffffffff16908169ffffffffffffffffffff16815250506142d87fdef54d656e954d949e5a74f479a7c593450dafefe0799adf70364097302b8a2360001b613ac4565b6143047fe33966e0ce23c2ef1028ce0007d886af8a95740250bef571ec9d1c63a132c78f60001b613ac4565b8386602001818152505061433a7f3033adb40b0e6c217e6c7c9ba317f7f305ea7059a4bb21225606a7ef443b46d960001b613ac4565b6143667f82c599d3b6bcfe291ff4b9f770be3bac4d3bd80bfff747751422917761d7348860001b613ac4565b8186604001818152505061439c7f745466a4f8ea6fd1b6736766548f90c15d1adccb1f97cbebc00e10b09ba4530760001b613ac4565b6143c87f9ebe1d29c213b5913d808c6f62873d2613a5c244b74dd74663998021cdd22aef60001b613ac4565b86866080019060ff16908160ff16815250506144067f1fee6befb2fb8f5f4f90f86e6e653b9e8e95b89c8bb6e669740b6fe241a3205960001b613ac4565b6144327f31c811bea77e58cb8aef4733d9ef0752675eb3e83b3ade6bcd006bb58850624060001b613ac4565b600186606001901515908115158152505061446f7f3ec6c7ff72dd7c1d31a7a486c6eedebab20925224b39736b2633962b6bcb732060001b613ac4565b61449b7f76483679e389535969c8821f8b310ebdf299d2a9ba9108eb197a00324a043f6c60001b613ac4565b85955050505050505b92915050565b6144b2616ac6565b6144de7fa4bcd6aba75dfea64512be55c27fb3824c4cf47b2f30ddd36caa932b49d997e260001b613ac4565b61450a7fd9f106d132e8d143788bf8b546ce6aedd23fddc7b0260d657d60350cf86b370460001b613ac4565b6145367fc34403e07f7f64b11c244fc6bfc5be5e2c0e1321c44097d3b3ba85bc7a9d6a1e60001b613ac4565b600260009054906101000a900473ffffffffffffffffffffffffffffffffffffffff1673ffffffffffffffffffffffffffffffffffffffff166332e6aadb60016040518263ffffffff1660e01b81526004018082815260200191505060606040518083038186803b1580156145aa57600080fd5b505afa9250505080156145f257506040513d60608110156145ca57600080fd5b8101908080519060200190929190805190602001909291908051906020019092919050505060015b614656576146227ffb183cc003f629fc0555f07a6410b3d721ff64abed4ea01b8003dee1da8d395960001b613ac4565b61464e7feb87ec5071441a071deaf16746f2a8b10f0e6ebab39833fd56af7de76f01d8f060001b613ac4565b80905061484a565b6146827fa0b35e21afeb8a6c0f08e24c0a43b7390824b24d40b0979e849410b0f05a5e5f60001b613ac4565b6146ae7f566e188444bf5c7bd67ccbc47165d62433b41913c31eb49010568767dc1d1b4b60001b613ac4565b828460000190151590811515815250506146ea7fbff3fb9e5bdbd32f55cca2cefffa73656a4fdbbd70485c4bf8e2709094c3620960001b613ac4565b6147167f57d2a7f2cf98dac7ff399d7698719cc72294997bfed531368a139954eee0c37a60001b613ac4565b8184602001818152505061474c7fd0cfedd2cc9b88c02fb6d4c1bc70c0924dffb9df87da779d3be041738ff0481060001b613ac4565b6147787fea83b4a84f64f1baab4c8d9e151f18dea4d2a9c48e936b2e7998065f622c808560001b613ac4565b808460400181815250506147ae7f02ddcb61cacf304f7f5b47bd3f4b9723da174c3124c7d46fc934e16766f2096e60001b613ac4565b6147da7f5e9582e77ad3a89c736bf17c184dbf3e7215d2c00c9581a3394a9fdc6d7e3d7f60001b613ac4565b60018460600190151590811515815250506148177ff2d60eab8d581aea71bab58b5b01346bbf0f3c62bf43053bbf290997a81a253c60001b613ac4565b6148437f3e0f6cb020781cf57ae1ad9cd6b0bf1c24af7f586a1e2faaa3f0c2a4c824954260001b613ac4565b8393505050505b90565b600061487b7f78792e9080e919e4611cb60ca105e8059a51a272a8009f524357d3532182c02360001b613ac4565b6148a67e6638f0113f7968ef0c9e966accc03b400b6d37bc0f471e85179dfa250d340060001b613ac4565b6148d27f26d77582fd10b6008707cb5baa8173222cb6dcfffe4c53fb618e42d4de22f65260001b613ac4565b6148db83615d56565b806148eb57506148ea82615d56565b5b905092915050565b60006149217fdcc8f40643d302c8755fde00bff4efa05ee922a03d96234fe22f434e69d3ab6860001b613ac4565b61494d7fc9cfc8e73eefb705f1ccd6369e00da6c76da47abdbdab9b280296fe61461143560001b613ac4565b6149797fca16ab4870ea713b4427646deac3ed7b6102519d0f80f188aed3088c982791e160001b613ac4565b81606001516149e3576149ae7f5744ad11f8292be10e041c72b2c01a56435d54542954cbe68decb1f3565b075460001b613ac4565b6149da7fda0c129bf6b3249da7ded26a9261c9290c8f61bc9115d99a31dbb96aa6fdced160001b613ac4565b60019050614c5e565b614a0f7f69d9107ad3d3fa825970ed8d6584f8676c2726e4c850f965432d86bf9e375b4060001b613ac4565b614a3b7ff6f0503778efe9d0635d1906a7974f36274683fc45100ef609fc442c95ccbb7260001b613ac4565b614a677f4aee2cb037ad7837fafb6e335a49573d1229cb592ed9f372c3252f9c22be3bd260001b613ac4565b600082604001511480614a7d5750428260400151115b15614ae357614aae7fc034def5857a71730d144c966738c7d310d24204a4c548b8e3904ed3b0a284bc60001b613ac4565b614ada7f2646f48d98cb2a209d6b7250a6a3da2c30093c5bfcea84a8b101316ecca4d2d060001b613ac4565b60019050614c5e565b614b0f7f7bf3499f2414c3536aea24b6209a1da399a0d3e188b95fd858fd4816fdeb952260001b613ac4565b614b3b7f0f548b49496ac42289d6fad6081d7420228ccb34f1b651d3a80e374e830edfb460001b613ac4565b614b677f6377e1f3487924b9e68d1d92aa49e9c327e031d9c7b5cf567fddc70be55c21c260001b613ac4565b600082602001511415614bd557614ba07f372825f62d691fad90d18d370b858cd5d2933620222a5653cf6b9a6d9276133960001b613ac4565b614bcc7faafe57cb50e529587447cfeb4132828039e44e8d28e408c5cd468f2ab28e689760001b613ac4565b60019050614c5e565b614c017f8ab44849ea349756285cd1dcf134b7127d21ed0f94159c158ad5a321b29a303460001b613ac4565b614c2d7fbe8ad2cdcb31bf48f74606ab76e113d0b99f0dc53f279d9d50dcbd0b614d698860001b613ac4565b614c597f65ced8298459c62798342a6aed3d031e4e9cb6ac050e5055a7f24cceee714ec060001b613ac4565b600090505b919050565b614c8f7fc7cd85e6dbcb169c31357a8d453812f82b1c13cd4bf333bb75dd546c3660603660001b613ac4565b614cbb7f9f1c49ebe45054624a0fc674f8c63ca5e27ba29570d376319c47ba2e1f03522060001b613ac4565b614ce77faa0e2bdc649ced302372acdbcf8386ae9a754dbb9a5f8f05f307a5c498b013d760001b613ac4565b80600660006101000a81548160ff02191690836004811115614d0557fe5b0217905550614d367f858fcc08185b78b6b0f25442d9547ac0393cfa73c8dcfae1bdd8674f1d844cbd60001b613ac4565b614d627f651a915d1991016f1c99edb14235d1b34865f8ec5b66a7a735c17c0538e19e8260001b613ac4565b7f5c57579a8214fe4f710c1c56fa829f045b9fa6d225a744225a30c32188064d4e8160405180826004811115614d9457fe5b60ff16815260200191505060405180910390a150565b6000614dd87f11854a4519bfdefda9bf9c6f94759e7137e475ba844ffff311c6a325e590179960001b613ac4565b614e047f340640264b982d9fc20f72e25ac52a81d38d525f3fef7d3fbc246bb98dd0594360001b613ac4565b614e307f3583d5d0c488568a743326bb3b9d285312f944f9491f006147cd0b2cc1cbcc8660001b613ac4565b613840614e4a8360400151426161c390919063ffffffff16565b119050919050565b6000614e807f2c2fb70231f45421feef012d35181c6b9cbc343da15648e62772ca08ef1a16ac60001b613ac4565b614eac7fa6de909cb8b8dad544fd3e45c1a61141a5b78d8888cf6e8a80cfe4c95f94520960001b613ac4565b614ed87f909cffea2a3b40fd5e76468b93af260dd5eba60527ed8500626854561aa12e8d60001b613ac4565b6000614ee7836020015161620d565b9050614f157f52d088af6b1beaaf5e5671dcaa95503e794cd3f272f25c0ec1fa10acfe662c5d60001b613ac4565b614f417f6869c84622c7592956235050e8cf8d587e39857114e9ea54f10c1ad556588b7860001b613ac4565b614f4a816162b4565b614f767f09861f5667120879081bcdbc3c16d6b2f03afa76caa4fcc1c2d69ed29d7d1f2060001b613ac4565b614fa27fc328e7fa80ffc4c457bdd1c5a2b52ae9464bef7d2da0405901af1c68dae53f5360001b613ac4565b80915050919050565b6000614fd97f640d9530e61bea6e4e76a568361a712a283be8ced13f35316de2b489273b848260001b613ac4565b6150057ff8fc00d7e0d953e14608b1f5797d022460249743be1cdc8a326fd0bf9add3eb960001b613ac4565b6150317f126bd4c0867b768cd484d75b4f7ba2c2d13e06b4c79883578e4d53fc0da1f37860001b613ac4565b61384061504b8360400151426161c390919063ffffffff16565b119050919050565b60006150817f44f73280809dde039f5875a5f319f8cf5a4424244c9897107cb57ae8a97007b160001b613ac4565b6150ad7f3092a355b3005d5e3c5a670e53302f6d28cf15a1b1bb6e6057193c956997484460001b613ac4565b6150d97f3a8dde8e515f62386400833d8a61a03088ed3729b652684b25d361ce03d5b4f260001b613ac4565b60006150f08460200151856080015160ff166163d1565b905061511e7ff5f7b02841488d9f31690941cdbb2d75a0f7d7e98947bdb6e1b9a02cd619c54e60001b613ac4565b61514a7f2d60a9cbe8e86e68b578ceef5cad872ea39b8d61705e23b4b4949a4385f687d260001b613ac4565b60006151618460200151856080015160ff166163d1565b905061518f7fb665568fc18f82fc1200dec5c60d2a697babff7458d5dc28ab34300a3af57ebd60001b613ac4565b6151bb7f1c712ee17e8273731748571d13f130adecdb273f9f6e4da61a918753e54bb2d560001b613ac4565b60006151c783836166f2565b90506151f57ff27946f7677001747a979af6297da653dd24f6d69f4d5d9fca079339922fa87860001b613ac4565b6152217f8016f3603ce7a7af49f5cd9c643e743ef1f495fa3344b00bd2e4b176918f49ca60001b613ac4565b600061522d848461678f565b905061525b7f50de3c4949f51a3a49818a9755e78384321ce49f37dbaf9f1e916c014475e29060001b613ac4565b6152877fb05caba99baa350cfe4cf6652eb49faa13634424d2ad986890308de2c2057af160001b613ac4565b60006152c8826152ba670de0b6b3a76400006152ac87876161c390919063ffffffff16565b61682d90919063ffffffff16565b6168b390919063ffffffff16565b90506152f67fa383ba307f2316896439b064c05d4844d4a2143900426c69e8506760d34395bc60001b613ac4565b6153227f4f053d4046e8c68eb8b56743de6f8ea3d4202d7b1580f7b4c98b67fd9d7a571a60001b613ac4565b6706f05b59d3b2000081119550505050505092915050565b60006153687f21b5af8ec39e48ea18998b5a2394f3fac599fcff8dd44410258ed598967bc90360001b613ac4565b6153947f6c83122c5ad19a17d3bb47c9792f9d8ced5fda2cda23bf8a52be6ecc6429908860001b613ac4565b6153c07f131c2978662f0a19d12498356a7d27b7ca9f9797eeb9bf3dbabea03339ebd46c60001b613ac4565b60006153d78460200151856080015160ff166163d1565b90506154057f542e8cc87bf2de518ed94932b6c80020dbe9e9cedc5aa8aea48164644b0feaf660001b613ac4565b6154317f6854af1a04b0175caeb204d8445e0b17b1adc1f06ddb0b9d7d9720c21e4d248460001b613ac4565b6000615440846020015161620d565b905061546e7f59ab8be0152907d2d5f6f1b34e027420c2f61022d90188762f60ba835a8e955060001b613ac4565b61549a7ff015ef11b15697ee111195f47d6abdc83876b41e906c41562e29eaebeb3f1e6460001b613ac4565b60006154a682846166f2565b90506154d47f0a5ee0176491491c140ee28103749c24681a54570938edd4676edd61b9139e7860001b613ac4565b6155007f4547553b4bdc4d3b7c95bf115f2baa6b7294818791891a773d619edc8a473d4360001b613ac4565b600061550c838561678f565b905061553a7f9031592991e57f446e7af9bf848db9a555b7c5420dc7bd9c5c576bd4e72a3e2d60001b613ac4565b6155667f26022050f1711437fe6e2091c7014570ae9336b3ad163efdb2ff35ac209dd8ef60001b613ac4565b60006155a783615599670de0b6b3a764000061558b87876161c390919063ffffffff16565b61682d90919063ffffffff16565b6168b390919063ffffffff16565b90506155d57ff6896a09ffb329702f6561d1bf7b93f27f796efb8444daec8b082a8f298dee6a60001b613ac4565b6156017fe6b6e4e328f5b08b066b6959a33c08d1e23beab45736ff56d13e444cdd4620e160001b613ac4565b66b1a2bc2ec500008111159550505050505092915050565b60006156477f52215a97b42eeef8ec8fb53b550cef21af707a5c162aa4088adf42f8c44266ae60001b613ac4565b6156737feb036081833361720768e4a4869256e7fda8cb38e89e4300c539c9ff31ac4c0660001b613ac4565b61569f7f2cedcb42ebbfad2f8bd6a60ef52db64b413f30aa4f6d58b9802db4ce7087041f60001b613ac4565b60006156b68360200151846080015160ff166163d1565b90506156e47f1806739ae068b9aef02c1f61d1d75d5557b8aabd0ef18d3d1de7a1c5ddc87ff260001b613ac4565b6157107ff19cce17dc3b82a50be0377047e05869c2d18b8aac3ec1902c7934a378fe592160001b613ac4565b615719816162b4565b6157457fbead4f1d45063b51392f8977df2642c2fd9a19ef5119ea9e021804d215c47b4460001b613ac4565b6157717ffd0a79f81a99a88beee436d9e98d441138fa643ba37f157999ede46d8cadc0c660001b613ac4565b80915050919050565b60006157a87f0770d128c5bdc670435834c139554ce689fe0e1853443d72f8d90407b17558fb60001b613ac4565b6157d47ff394e88ac17588f2f48a808dc751addf73587fae34211d2891999ace1927c95160001b613ac4565b6158007ff9d77080d85038b6f84b8e378d1e61174742fcda241e1896fb39cd47883a0f8e60001b613ac4565b615809826148f3565b80615819575061581882614daa565b5b8061582a5750615829848461484d565b5b8061583a575061583984614fab565b5b156158cc5761586b7fefc4c4c5b0e793b2a28885b47e4ceba498ff227c3d72265b736269cfe7e01c7160001b613ac4565b6158977f9e6d24331112415457abfe2845a1136eecbaf0d91449f9db6f7b906f4bcb441c60001b613ac4565b6158c37fde34ca1ffdcb3455d1a62820d2ed5c5e3fba906e2cca592e4b73d9ea6b12dcf660001b613ac4565b6000905061595d565b6158f87f3538c9a7308ad0cb09ec4b07e5a2104a421f12da617ea1467c02ea6e8faa886360001b613ac4565b6159247f87eb9792d576f78dcaae3d06ee4d9b62e2574cc4d1a726eed6a2964024ee520060001b613ac4565b6159507f4bc2fbaf17b4e0a0132ee0ef16b2b7fd76e16d69263fd5096dab3b8f503627f160001b613ac4565b61595a848361533a565b90505b9392505050565b6159907f35bc9e5e61c1438a006153cf69ffd6105766a3055440d22f6c8ce219146d68af60001b613a7c565b6159bc7fe66c045f45b868efda896f2af22ed71637a4e9e8d13a2b1962badf362ba3eeb960001b613a7c565b6159e87faaa4b517f253b4fa37cb2875514a22e04e7d5828c244c7095a27e85408ccd12c60001b613a7c565b615a147f1221da0bd0f16fcbee175d4dae7d6b598e327e79264e77ced4c93a6a0721871b60001b613a7c565b600073ffffffffffffffffffffffffffffffffffffffff168173ffffffffffffffffffffffffffffffffffffffff161415615ab7576040517f08c379a000000000000000000000000000000000000000000000000000000000815260040180806020018281038252601e8152602001807f4163636f756e742063616e6e6f74206265207a65726f2061646472657373000081525060200191505060405180910390fd5b615ae37f09f0dc62d572b9e8dd242a1b7e25c3c5de1610d6c480bec35912dd5840f55fec60001b613a7c565b615b0f7fbe74447fdea037b64141768df2430eb2b7113bef949c88d88dcdc549ba88703360001b613a7c565b615b3b7f04e66872d3f4c69728dfe545a06401e1b17e0f9dd5e1d43290514ae4fd92783060001b613a7c565b6000615b697f60826eea4af75abd2223d108cb037485a60c485e699a12a42cac24982b89800660001b613a7c565b813b9050615b997f7acec79ba6fd0be7bb4b2bfca56ca8eb3d8333d64e828971ccb7647facc3806360001b613a7c565b615bc57f0c7e0405db301404f844860b9fe6e14e956a97134ff8695c88184f1c957d6e0860001b613a7c565b615bf17f1c5a94c5a5d640e17d84bedbf9409c7f8afe563c4b1fceef7bced5961764ee0f60001b613a7c565b60008111615c67576040517f08c379a00000000000000000000000000000000000000000000000000000000081526004018080602001828103825260208152602001807f4163636f756e7420636f64652073697a652063616e6e6f74206265207a65726f81525060200191505060405180910390fd5b615c937f1023f03b6261b194c29dee3596b0d25a3be14b60910a1d249d0177db54f54c4a60001b613a7c565b5050565b600073ffffffffffffffffffffffffffffffffffffffff166000809054906101000a900473ffffffffffffffffffffffffffffffffffffffff1673ffffffffffffffffffffffffffffffffffffffff167f8be0079c531659141344cd1fd0a4f28419497f9722a3daafe3b4186f6b6457e060405160405180910390a360008060006101000a81548173ffffffffffffffffffffffffffffffffffffffff021916908373ffffffffffffffffffffffffffffffffffffffff160217905550565b6000615d847f0a0c1cd5cf2d5f7e6a6d811c844b9f77794378c0430b18279b604fbdb1ce221160001b613ac4565b615db07f1e32104e71ef1ea8ef9871facb4d13c4409286aa6cb0d299cb090e0fa0f72b2760001b613ac4565b615ddc7ffdccf23576c8a42a10db0b2c61aa6c306000881549b1f0b8d0eb752126bdf5eb60001b613ac4565b8160600151615e4657615e117f40b4c4692b1bf4060d943e9243366a7d0b45f2216f64921ab19fd443d76b222660001b613ac4565b615e3d7f18381b837f0f3f3641b9e1c3dd531ff739f50e35f79e449158613ab526b725a460001b613ac4565b600190506161be565b615e727f1803d6ab95d61a131eb62d22e285a02b2c9506111f5ff30dd6953c2fd690c8fa60001b613ac4565b615e9e7f7a7e52af00756b95a72999c6271ceb955c816a3363ce1a8fbf98f0de91c53d4860001b613ac4565b615eca7fb33f9d7c9e6a440157168eadfc961547ffb01ba471cca0357f03d1216b13d69d60001b613ac4565b6000826000015169ffffffffffffffffffff161415615f4457615f0f7f78f69257bc60b74340f24456aef4b9f655c7c1cfa7141682965078659b20a5ed60001b613ac4565b615f3b7f28f9fb8f783c3bfc7965593dacdcc6d949de325290812a6be3bfebac27c346a660001b613ac4565b600190506161be565b615f707f62c376bb36626d705e3013b4078a0e2fbbd3e36a7c8d328614e9184ee4b6e87560001b613ac4565b615f9c7f7b46808b5b91e7559c3cfe435af45f2df003e035b112f978bfa07933c639a36f60001b613ac4565b615fc87f2617c0ed5debde84dc6662141393f7f91105dff01e9af1cae77a82ebd5fe6e2560001b613ac4565b600082604001511480615fde5750428260400151115b156160445761600f7f3f20188ff469f6dceac69d221a9681d7a273fb83721b24dd63817251d78282a360001b613ac4565b61603b7fcc13d75d81fab14b7abde2c52c7aeda32b7893484c4e80031c60c8115c4787e860001b613ac4565b600190506161be565b6160707f0da1a637028c6138a34af3252e58a19b57c2abb09e76c0c89ae93b48b2006b7a60001b613ac4565b61609c7fee598193a06e87465724b760ec21ecad06a6ce33efbeaa3b823a8f6dfe82664260001b613ac4565b6160c87fe3002adbbde0c1a5ae02b7d7f10f8b7b3dd9e97882b76585c42dded26444d8fb60001b613ac4565b6000826020015113616135576161007f74e814eff98bdde67ce90fbf86524aae982b565da5428ae3348c369a9d6683a560001b613ac4565b61612c7f59447054f180a172643d0896124bc0b0e520b2f2657987e24d7b7ded253dbfb060001b613ac4565b600190506161be565b6161617f193578efa1448201eb66f09074012778bd220e94ff0d00a3952c0a19897bd2ee60001b613ac4565b61618d7faf9c51f74cf40f4ce40caccb8a854493620a2411196553ce2a77c9a5ea9d657a60001b613ac4565b6161b97fe4829d6a77ad62f6c242982b0b59ba3c8f8205ecff8d7869d09ff060f9f012c660001b613ac4565b600090505b919050565b600061620583836040518060400160405280601e81526020017f536166654d6174683a207375627472616374696f6e206f766572666c6f7700008152506168fd565b905092915050565b600061623b7fc26943dc40b7e820dbf4714798b0d690c9d52c511d5fbd5a0e300c1cb7b73dec60001b613ac4565b6162677f2b12e82431c44980e410f6cbc393aa3ca984f19853bac9c07091d82ff1ddd97960001b613ac4565b6162937f7246feaa3883c3863130268649e4bb191adbdb1a78d51f5c62bf45957553f6a060001b613ac4565b6162ad6006601203600a0a8361682d90919063ffffffff16565b9050919050565b6162e07f246112de1d9e2b9d364fa643fdd0b27605c8085da7cdbc5670660fb79e6b218b60001b613ac4565b61630c7fdc1ac6d3d7ac875cd3649b1d4a7fa7a1bf7a7a4ce1232660cfec76569e145e5260001b613ac4565b6163387fa3b5c502ce0071162cfd1b0ff43f0e1490cdab040263dd62894042e35ed7ca1360001b613ac4565b8060058190555061636b7f987d1ae4f353bc2cd3c17fe4ebf4af6025bbffc511e56f2b39f90af4ac5be83560001b613ac4565b6163977f4a459e1b56fefe30483b412d26ddece49ceef1f48f8cc1a71dd88747070d249560001b613ac4565b7f4d29de21de555af78a62fc82dd4bc05e9ae5b0660a37f04729527e0f22780cd3816040518082815260200191505060405180910390a150565b60006163ff7f5a2609af9130370e931be02a3e68544bb97395c60e13c93cc4ce18569a18412360001b613ac4565b61642b7fb9198ea5dd28fcc7f206a6ed6d2bd6860a35025daeb1ee6d8c289b604418daad60001b613ac4565b6164577f9138b1f3ec7b696d22014dfcd48a4aae9ad4ec0659a01a64eca913031bc46e9760001b613ac4565b60006164857f2ef6e53b008f87377df57c92b3b7c4e492c4998f473678ecb0d42b82699141dc60001b613ac4565b6164b17f9024ffbbeb8bdde1f71ff0445c927bf7a4df1d6b80f8a3f8ba6599474b70b54a60001b613ac4565b6012831061655d576164e57f5e72078f6d99c3e1aa419412a0ecdf7157a74b9ed195b917d4b3abb1e10b349e60001b613ac4565b6165117f5d7188aa72ed56f577caddb12a82b25ee2b1fd76d9e84c9887b4ae869ba9e43d60001b613ac4565b61653d7fe6c50991b7c2c6fbcd1333e0fe2aac9781dca3b12b6151140b87c32352fc4ef960001b613ac4565b61655660128403600a0a856168b390919063ffffffff16565b9050616690565b6165897f3dbcc85b62483b087ae79946463d63a89679961276f4823b5a0dbfa79dfc432f60001b613ac4565b6165b57f745ae002ca52ffefe18ad816e742b26dc40fe1b4531cb1666b6e43c0e2f1a14460001b613ac4565b6012831015616662576165ea7f65eb09c819885e2bdddc3bd135dc53c033846d251300fc615fcaacc7e89cb0b360001b613ac4565b6166167f37d5c62400fe4887d92f71a9f516b519c6db698fa3d8d0ddf6db37747a3bc0ad60001b613ac4565b6166427f47f70f6e441e3c6f7fb4b4504cc1c5a5ea42ebbf41a135e0b3d7a5f08298f6b160001b613ac4565b61665b83601203600a0a8561682d90919063ffffffff16565b905061668f565b61668e7f78358513cd6cb48aa1e22357718c9b1eeefd70de49be52db50d399b426aff0c660001b613ac4565b5b5b6166bc7f478425d7c3d53faef3306ad46a8d4a6b9826ffe56706d08649d28983e32de16660001b613ac4565b6166e87fce31cff082d6e0107111f6926a8e2d19bb19d138c620907e79f53a12f93ca11360001b613ac4565b8091505092915050565b60006167207f47d1f47bc050b9504bdb99b9bb5b4ef650bd54eba129f8f462ba53eeb800e1aa60001b6169bd565b61674c7f8bd1b7c6f317176e126becf0775e874110a4f4c3632da3308f1b96d29114d76f60001b6169bd565b6167787f306334dc7786218d10d6d1fbfce931f8906c3249c067df2bd86b69566eb3362460001b6169bd565b8183106167855781616787565b825b905092915050565b60006167bd7f6f77938d8a72abf67d8e8d6641923128dcfa1ede0fd07852c5bf7504e0883aba60001b6169bd565b6167e97f6c1905143284a5c4e424b5ce00c9c6197eb463fb9aef45c1b44784e60137e80360001b6169bd565b6168157ff6110982dfc3d3c82e7637d766b2d49b0f270a9cccb62461e9fffd998477da0160001b6169bd565b818310156168235781616825565b825b905092915050565b60008083141561684057600090506168ad565b600082840290508284828161685157fe5b04146168a8576040517f08c379a0000000000000000000000000000000000000000000000000000000008152600401808060200182810382526021815260200180616af36021913960400191505060405180910390fd5b809150505b92915050565b60006168f583836040518060400160405280601a81526020017f536166654d6174683a206469766973696f6e206279207a65726f0000000000008152506169c0565b905092915050565b60008383111582906169aa576040517f08c379a00000000000000000000000000000000000000000000000000000000081526004018080602001828103825283818151815260200191508051906020019080838360005b8381101561696f578082015181840152602081019050616954565b50505050905090810190601f16801561699c5780820380516001836020036101000a031916815260200191505b509250505060405180910390fd5b5060008385039050809150509392505050565b50565b60008083118290616a6c576040517f08c379a00000000000000000000000000000000000000000000000000000000081526004018080602001828103825283818151815260200191508051906020019080838360005b83811015616a31578082015181840152602081019050616a16565b50505050905090810190601f168015616a5e5780820380516001836020036101000a031916815260200191505b509250505060405180910390fd5b506000838581616a7857fe5b049050809150509392505050565b6040518060a00160405280600069ffffffffffffffffffff1681526020016000815260200160008152602001600015158152602001600060ff1681525090565b60405180608001604052806000151581526020016000815260200160008152602001600015158152509056fe536166654d6174683a206d756c7469706c69636174696f6e206f766572666c6f775072696365466565643a20436861696e6c696e6b206d75737420626520776f726b696e6720616e642063757272656e74a2646970667358221220b2c7580a630f36f5020a985f6b3b3d5a4c9f71cfcaead1655887cec76b4b5a7364736f6c634300060b0033",
  "linkReferences": {},
  "deployedLinkReferences": {}
}