{
  "_format": "hh-sol-artifact-1",
  "contractName": "PriceFeedTester",
  "sourceName": "contracts/TestContracts/PriceFeedTester.sol",
  "abi": [
    {
      "anonymous": false,
      "inputs": [
        {
          "indexed": false,
          "internalType": "uint256",
          "name": "_lastGoodPrice",
          "type": "uint256"
        }
      ],
      "name": "LastGoodPriceUpdated",
      "type": "event"
    },
    {
      "anonymous": false,
      "inputs": [
        {
          "indexed": true,
          "internalType": "address",
          "name": "previousOwner",
          "type": "address"
        },
        {
          "indexed": true,
          "internalType": "address",
          "name": "newOwner",
          "type": "address"
        }
      ],
      "name": "OwnershipTransferred",
      "type": "event"
    },
    {
      "anonymous": false,
      "inputs": [
        {
          "indexed": false,
          "internalType": "enum PriceFeed.Status",
          "name": "newStatus",
          "type": "uint8"
        }
      ],
      "name": "PriceFeedStatusChanged",
      "type": "event"
    },
    {
      "inputs": [],
      "name": "DECIMAL_PRECISION",
      "outputs": [
        {
          "internalType": "uint256",
          "name": "",
          "type": "uint256"
        }
      ],
      "stateMutability": "view",
      "type": "function"
    },
    {
      "inputs": [],
      "name": "ETHUSD_TELLOR_REQ_ID",
      "outputs": [
        {
          "internalType": "uint256",
          "name": "",
          "type": "uint256"
        }
      ],
      "stateMutability": "view",
      "type": "function"
    },
    {
      "inputs": [],
      "name": "MAX_PRICE_DEVIATION_FROM_PREVIOUS_ROUND",
      "outputs": [
        {
          "internalType": "uint256",
          "name": "",
          "type": "uint256"
        }
      ],
      "stateMutability": "view",
      "type": "function"
    },
    {
      "inputs": [],
      "name": "MAX_PRICE_DIFFERENCE_BETWEEN_ORACLES",
      "outputs": [
        {
          "internalType": "uint256",
          "name": "",
          "type": "uint256"
        }
      ],
      "stateMutability": "view",
      "type": "function"
    },
    {
      "inputs": [],
      "name": "NAME",
      "outputs": [
        {
          "internalType": "string",
          "name": "",
          "type": "string"
        }
      ],
      "stateMutability": "view",
      "type": "function"
    },
    {
      "inputs": [],
      "name": "TARGET_DIGITS",
      "outputs": [
        {
          "internalType": "uint256",
          "name": "",
          "type": "uint256"
        }
      ],
      "stateMutability": "view",
      "type": "function"
    },
    {
      "inputs": [],
      "name": "TELLOR_DIGITS",
      "outputs": [
        {
          "internalType": "uint256",
          "name": "",
          "type": "uint256"
        }
      ],
      "stateMutability": "view",
      "type": "function"
    },
    {
      "inputs": [],
      "name": "TIMEOUT",
      "outputs": [
        {
          "internalType": "uint256",
          "name": "",
          "type": "uint256"
        }
      ],
      "stateMutability": "view",
      "type": "function"
    },
    {
      "inputs": [
        {
          "internalType": "bytes32",
          "name": "c__0xafd32059",
          "type": "bytes32"
        }
      ],
      "name": "c_0xafd32059",
      "outputs": [],
      "stateMutability": "pure",
      "type": "function"
    },
    {
      "inputs": [
        {
          "internalType": "bytes32",
          "name": "c__0xe624bb7f",
          "type": "bytes32"
        }
      ],
      "name": "c_0xe624bb7f",
      "outputs": [],
      "stateMutability": "pure",
      "type": "function"
    },
    {
      "inputs": [
        {
          "internalType": "bytes32",
          "name": "c__0xfe3d81c2",
          "type": "bytes32"
        }
      ],
      "name": "c_0xfe3d81c2",
      "outputs": [],
      "stateMutability": "pure",
      "type": "function"
    },
    {
      "inputs": [],
      "name": "fetchPrice",
      "outputs": [
        {
          "internalType": "uint256",
          "name": "",
          "type": "uint256"
        }
      ],
      "stateMutability": "nonpayable",
      "type": "function"
    },
    {
      "inputs": [],
      "name": "isOwner",
      "outputs": [
        {
          "internalType": "bool",
          "name": "",
          "type": "bool"
        }
      ],
      "stateMutability": "view",
      "type": "function"
    },
    {
      "inputs": [],
      "name": "lastGoodPrice",
      "outputs": [
        {
          "internalType": "uint256",
          "name": "",
          "type": "uint256"
        }
      ],
      "stateMutability": "view",
      "type": "function"
    },
    {
      "inputs": [],
      "name": "owner",
      "outputs": [
        {
          "internalType": "address",
          "name": "",
          "type": "address"
        }
      ],
      "stateMutability": "view",
      "type": "function"
    },
    {
      "inputs": [],
      "name": "priceAggregator",
      "outputs": [
        {
          "internalType": "contract AggregatorV3Interface",
          "name": "",
          "type": "address"
        }
      ],
      "stateMutability": "view",
      "type": "function"
    },
    {
      "inputs": [
        {
          "internalType": "address",
          "name": "_priceAggregatorAddress",
          "type": "address"
        },
        {
          "internalType": "address",
          "name": "_tellorCallerAddress",
          "type": "address"
        }
      ],
      "name": "setAddresses",
      "outputs": [],
      "stateMutability": "nonpayable",
      "type": "function"
    },
    {
      "inputs": [
        {
          "internalType": "uint256",
          "name": "_lastGoodPrice",
          "type": "uint256"
        }
      ],
      "name": "setLastGoodPrice",
      "outputs": [],
      "stateMutability": "nonpayable",
      "type": "function"
    },
    {
      "inputs": [
        {
          "internalType": "enum PriceFeed.Status",
          "name": "_status",
          "type": "uint8"
        }
      ],
      "name": "setStatus",
      "outputs": [],
      "stateMutability": "nonpayable",
      "type": "function"
    },
    {
      "inputs": [],
      "name": "status",
      "outputs": [
        {
          "internalType": "enum PriceFeed.Status",
          "name": "",
          "type": "uint8"
        }
      ],
      "stateMutability": "view",
      "type": "function"
    },
    {
      "inputs": [],
      "name": "tellorCaller",
      "outputs": [
        {
          "internalType": "contract ITellorCaller",
          "name": "",
          "type": "address"
        }
      ],
      "stateMutability": "view",
      "type": "function"
    }
  ],
  "bytecode": "0x608060405234801561001057600080fd5b50336000806101000a81548173ffffffffffffffffffffffffffffffffffffffff021916908373ffffffffffffffffffffffffffffffffffffffff1602179055503373ffffffffffffffffffffffffffffffffffffffff16600073ffffffffffffffffffffffffffffffffffffffff167f8be0079c531659141344cd1fd0a4f28419497f9722a3daafe3b4186f6b6457e060405160405180910390a3616c2e80620000bc6000396000f3fe608060405234801561001057600080fd5b50600436106101375760003560e01c80637c61e3bf116100b8578063a20baee61161007c578063a20baee61461040d578063a3f4df7e1461042b578063c34b54e6146104ae578063c521b3f5146104dc578063ebf8e6c61461050a578063f56f48f21461052857610137565b80637c61e3bf146102c55780638da5cb5b1461030f5780638f32d59b1461035957806390107afe1461037b578063940a71bc146103df57610137565b80633078fff5116100ff5780633078fff5146101f3578063400c1bec1461023d57806345079cb41461026b57806358a6aa88146102895780635f42caf8146102a757610137565b80630490be831461013c5780630fdb11cf1461015a5780631be5c92f14610178578063200d2ed2146101965780632e49d78b146101c2575b600080fd5b610144610546565b6040518082815260200191505060405180910390f35b61016261054c565b6040518082815260200191505060405180910390f35b610180613420565b6040518082815260200191505060405180910390f35b61019e613425565b604051808260048111156101ae57fe5b60ff16815260200191505060405180910390f35b6101f1600480360360208110156101d857600080fd5b81019080803560ff169060200190929190505050613438565b005b6101fb61345e565b604051808273ffffffffffffffffffffffffffffffffffffffff1673ffffffffffffffffffffffffffffffffffffffff16815260200191505060405180910390f35b6102696004803603602081101561025357600080fd5b8101908080359060200190929190505050613484565b005b610273613487565b6040518082815260200191505060405180910390f35b610291613492565b6040518082815260200191505060405180910390f35b6102af61349e565b6040518082815260200191505060405180910390f35b6102cd6134a3565b604051808273ffffffffffffffffffffffffffffffffffffffff1673ffffffffffffffffffffffffffffffffffffffff16815260200191505060405180910390f35b6103176134c9565b604051808273ffffffffffffffffffffffffffffffffffffffff1673ffffffffffffffffffffffffffffffffffffffff16815260200191505060405180910390f35b6103616134f2565b604051808215151515815260200191505060405180910390f35b6103dd6004803603604081101561039157600080fd5b81019080803573ffffffffffffffffffffffffffffffffffffffff169060200190929190803573ffffffffffffffffffffffffffffffffffffffff169060200190929190505050613549565b005b61040b600480360360208110156103f557600080fd5b8101908080359060200190929190505050613b27565b005b610415613b2a565b6040518082815260200191505060405180910390f35b610433613b36565b6040518080602001828103825283818151815260200191508051906020019080838360005b83811015610473578082015181840152602081019050610458565b50505050905090810190601f1680156104a05780820380516001836020036101000a031916815260200191505b509250505060405180910390f35b6104da600480360360208110156104c457600080fd5b8101908080359060200190929190505050613b6f565b005b610508600480360360208110156104f257600080fd5b8101908080359060200190929190505050613b72565b005b610512613b7c565b6040518082815260200191505060405180910390f35b610530613b81565b6040518082815260200191505060405180910390f35b60055481565b600061057a7ff739309787a5c80d46b893481f079614fa4e21ce7666b12a84a7e1579c41463460001b613b6f565b6105a67fc9c61fc6cbd9f071668d73209cdca6d22f9b56e3f73fb4949bb65d5da284518c60001b613b6f565b6105d27f6d66630169dbb808a76c46215541d92b84ad3169a4710bd1997d03c5fd3c52be60001b613b6f565b6105da616b3b565b6105e2613b87565b90506106107f52f2e1a32b8035865864a5f59d3fcb45bbc3da2c438e64bec6852879eb7c073060001b613b6f565b61063c7fd7ae4e58a9563ce4076a6ff04a34a4d76b066356f0fd358b08ffafcb1cc7b8b260001b613b6f565b610644616b3b565b6106568260000151836080015161410b565b90506106847fe5ba2c0cc603f23ee2de5f1502fee8e68740b885e0326b5c89724eb138a1531760001b613b6f565b6106b07f9bf585ce1fa32db0602092e68d393292bf0c35b0340677e6fbd8e22d29004a1960001b613b6f565b6106b8616b7b565b6106c061455f565b90506106ee7f1920514c6607af2b26dbf9f98cb0e522ae384a68b2f1b1bc634393399aa8318a60001b613b6f565b61071a7f3aa627a6b6b00553d126b2623b5b8daa9a4587ec09106990f9571ead189a545d60001b613b6f565b6000600481111561072757fe5b600660009054906101000a900460ff16600481111561074257fe5b1415611762576107747f967c8283310afa56b26d9bd60b915215e7013f7016dd47869a4a8608031d7b4e60001b613b6f565b6107a07f7c089317aebc48e430fd1fcc24ed5260e3f7549e57aaced477068959735df93260001b613b6f565b6107cc7fa86e6621510248026388d500f60a87461645642028be47ede5eb8fafb1a4d8db60001b613b6f565b6107d68383614902565b15610bde576108077fa6ff2ef9f22f03852e989b2a898a905f4960e5aba7d5ebbc9c86866da2265cb360001b613b6f565b6108337f8036dec5a5c1fec1ff14c69dc81841b60c31959189564299ebb8040870e1899060001b613b6f565b61085f7f4226716e183401caee4c8e488bfb3d0ce6798ec70d19bcb1d6fbbd4e47505a1860001b613b6f565b610868816149a8565b15610960576108997f5a881c0aebb230330f839214405829a5135f177c709a71358c713ff96eaca9ce60001b613b6f565b6108c57f1f208096316a5b6f5afa8b485ea7b9501c7bc4f64d819e73d45119b2840c666260001b613b6f565b6108f17f80163e53a5c8717c1f89ee68e08159dd3b2ce2defc54d3438a02cb810f17fcc560001b613b6f565b6108fb6002614d18565b6109277fb9fbefe17a80f9de2bcadb99cb6348bb54108b3bb8d11abae8aee3a5d3caf83460001b613b6f565b6109537fefae61a900baf133be9608d8d35c59c12c81ff5822ace1834f8f23cf40d74f9e60001b613b6f565b600554935050505061341d565b61098c7fa7db501ce2af714f3a48fd714c356db54f8c3b2783ad6ac9ead939fba80674dd60001b613b6f565b6109b87f41577177c5d1ec819ffcbe5f650642c8346de3dfd3c6ee1ce6e359924e6dab1960001b613b6f565b6109e47fcbf789d23459f7da4a818a0587286537876080df70c3bfcffabb6e932af5efbe60001b613b6f565b6109ed81614e5f565b15610ae557610a1e7f0b7b41f678a8f6c2ad279453f5d6c98d92d09b5334c76d5dc4159c46f8b8ae1660001b613b6f565b610a4a7f28dcd44831f0826f9337d39166ed630a521c15c1c96a0df8cf13c0108b9bef8660001b613b6f565b610a767f10d800488d79aa1f9507e771fb3941c70d1c11319615d4aa7cbe679003998a6f60001b613b6f565b610a806001614d18565b610aac7fbed96d23f9d5a7ecae04eaf2d8f80eb10e43f9bcba43d45622e13cc3cd47cace60001b613b6f565b610ad87f760ddbec6059aaf7ec3da40d0a54803f49607c456431df32458fde3d0818cab260001b613b6f565b600554935050505061341d565b610b117f95a189361a011ceb7009504f627fc9fede580f341be1f3c92b9b451dca81e62460001b613b6f565b610b3d7f85681fe063e7cdfb1af1bb508a88dea1049710c011a8752878c64cb2f7e3e3f560001b613b6f565b610b697f6aea06aa98b0f70a2935b6360da9191ea56f54af35c8445e6e9ecace7b9b1e5060001b613b6f565b610b736001614d18565b610b9f7f52307f0c61fe29aa63fd37c949423053f1b7d5f4f0fc5ee910cef1458c34eb6160001b613b6f565b610bcb7f38a835fca370aac7649162e8701378b8158a774f78372d3a6794d9e334bbb55a60001b613b6f565b610bd481614f07565b935050505061341d565b610c0a7feffc7a35d48f336bc20646e959b917608e112c5498d824921d418b5f867c0fd860001b613b6f565b610c367fe19f5a7b882277a7c1e37d94f90d754aa32ded5a86d4a55777d93880df988ce460001b613b6f565b610c627f3c4927dc23b849ca2059936f1706e9af9737a8d83080b7271dfd4565ecaf82a360001b613b6f565b610c6b83615060565b15610fe557610c9c7fcdd0f6d6c1cdaa56423632ce1b38d50c567644886ab589150fac48bfae9d047960001b613b6f565b610cc87f639fa1c51da579c1d259e7a6790b40358372249623ba8267e50f1bb6dd55c2b060001b613b6f565b610cf47fa6f25d53f6298c81b081bdaa1934ac1e2f8ac6ee794a74edc48b8a8fff89b6d560001b613b6f565b610cfd816149a8565b15610df557610d2e7fe5a36ce286348a546b9ffdfdacb4a07b6b81027c8af0581508ec6b9854c3dc5160001b613b6f565b610d5a7f20b3a8278452211975de003ffa5694101b30e64da2858b6cd7160254a7252e4460001b613b6f565b610d867fed95dc3816466828a5ba70f8671c214052ec4a5f11d86af8d6ce30260feb6cea60001b613b6f565b610d906004614d18565b610dbc7ffb613a59cc4b6ee7ef1879ecd5d1423fe97015366e280f906fddfc4708d4f16660001b613b6f565b610de87feb58ccee326e875d2391a95fb24e10262ce7601ba45328bb4fc143e3066ad7a260001b613b6f565b600554935050505061341d565b610e217f2ad67862b2b01476dc9a8927a1a30da5aad1cfdb2f9c0732f4bd97b073f2301b60001b613b6f565b610e4d7f6e3ffae838b004bfc8634b44f1b23e68a0d35ac43fdd44dad4e86db55c27231160001b613b6f565b610e797f9f5ea157c885e7da701fc3334c4bfd18ce7c4d60ca10a1fa905c70cd19c0ac3f60001b613b6f565b610e836003614d18565b610eaf7f3898fd0daf47262c2bbd550d69019db54332e5edaf5674c23167dd89540e38c760001b613b6f565b610edb7f31c6241856c09b8e642fdcc689471b1db2f303b7f67e1006f6a8b4f1ac2657fd60001b613b6f565b610ee481614e5f565b15610f4e57610f157f0e906aed40067f22e52e059549dd14cc5363a91aa53b85e7a815977ed8bc5aad60001b613b6f565b610f417f6c1502b735a4015d81f7abd2cde0bd31fbb3e5fe1af8973dbc4b3b679f1c8e3960001b613b6f565b600554935050505061341d565b610f7a7f1d5791fa7f69c58503b33c9f4d3ea3b00dc13c957d4c64e42ebd5b9bd405d35860001b613b6f565b610fa67f189fb1f04a09bf85f74fd581f452f988c9e63c84738a68a2557958edcb5dfaf360001b613b6f565b610fd27fa5f31ee9cf06354e519e262e79d79340ac905aa960f1247584189557d3fac36f60001b613b6f565b610fdb81614f07565b935050505061341d565b6110117f01d737f46be00b641dadda4ad78223743f79bc49a0ff9e76ef157e5cf2b07e3760001b613b6f565b61103d7fd97304f13e5aa8b3c81ea5573a8ded2c1aa5f0a356f1fbd16241876928da30e260001b613b6f565b6110697ff6252e887d49a70e62b25065ef2495d98c242b44bf75e71872c5927c9638336c60001b613b6f565b6110738383615108565b156115a5576110a47f92486d420091a147bb6fe63926e7bd4003cd209efb7573195abc0facb023332760001b613b6f565b6110d07f52d72e459999f824854524616e45a4e72de2607c38f79a449b8ba9fd0dab007160001b613b6f565b6110fc7fd3e98f49087b48b372d51a267d250c2559964d92d6774be8202112ee8ff6978960001b613b6f565b611105816149a8565b156111fd576111367fe0ec05be71f877b7a127b05c5dd27929130f3645d2c5d941f732d06fe282e1b760001b613b6f565b6111627ff99a9925d2bbada19b666a21810f7512a9f13b222ea61b7241ecc75bd6b519ea60001b613b6f565b61118e7f72057268892ff99ef51b5bb4f40510b82812ad3a234e85f4d4b7181aad0955d960001b613b6f565b6111986002614d18565b6111c47f29ba175105dbdae0aed8b1dba96cdac686766b391fa6bccc54da8369497c28da60001b613b6f565b6111f07f7bdd6eef79214e1f04d97c135b98fd0bb5c96f5feb62ae6003a4445e4f9a799060001b613b6f565b600554935050505061341d565b6112297f8ffa1c0cfd72a2c68dffed7381ed7e9e378a824183b6791c1471fa56cd8ced1360001b613b6f565b6112557f9104d94fa2f49c7ef58450f7f65deb8c6c2d4be645faab444d3f57b566e7eac360001b613b6f565b6112817fe9bc12785bb744138ab57a0b01de0140aea4be5ccf202efcf0d2b0069da27c4960001b613b6f565b61128a81614e5f565b15611382576112bb7fba6beefde5dd61c19dc846d2f6d55d0e07875a7708c6b2597a894735e0c70ff560001b613b6f565b6112e77f81537abcafb6e8c1f1d4b4d82f845751f7c467c201a4cfcab58f9f6944ed09cb60001b613b6f565b6113137fa97a7749b50c4906b0ec5101c7d40739a3f1bf91fb9b257c882e0645e164bdd660001b613b6f565b61131d6001614d18565b6113497f8e1c6701a5a80024b335bf45842d62ae279f6ef704bb9819bbf0ea01c027581060001b613b6f565b6113757f76b1a0831b8e131a6812021152ef8257ece7880ec99d14821df1ff690d7de4db60001b613b6f565b600554935050505061341d565b6113ae7ffb4322f2378b164254d9cb6e2465c6f0f46e3a3e78476baca9cd05e2757e461a60001b613b6f565b6113da7faf72e2b648951a16d485f1f8ecde81b0d2bff5701a882233a86373338f485e6460001b613b6f565b6114067fd8d018b0a59a9e00819268f633c55045c71daecba649d1dd4a79ac508a7b3eb560001b613b6f565b61141083826153ef565b156114ac576114417f9d984afa164d4beb91cc213665038be01e4211d2f5bc49b175655a06634e272b60001b613b6f565b61146d7f0c216819d1ac9470d2582839a666b865c0450e54e88af648fe160493270d3e6a60001b613b6f565b6114997f3ef7190e494a20fdf83a39367183d0c48c6ddfc16ff1ef5a4b811816240d817d60001b613b6f565b6114a2836156ce565b935050505061341d565b6114d87f3ef5a8da24f1a826739afc77ca244c3f9be8cb84453c7687c91cb59d827aff1860001b613b6f565b6115047f55b573acf3fc31d89ce405beae6357257ae513bacfc18a2f9a7ce8e9b944a69360001b613b6f565b6115307f718cf096642eec692bbaee0e6a6e9826d4c99b87831b0208798e7c6abf9f34a260001b613b6f565b61153a6001614d18565b6115667fd41ab544f811eb70480e759e0545f850d36fbebcb2ae3562a96cd999a4fc078460001b613b6f565b6115927f190e12c158f3dc377f2728a33ac04746286a4cea9765e19619a12745e90e169160001b613b6f565b61159b81614f07565b935050505061341d565b6115d17f715e3305251b918ef1b10eb7437c9035e6d2664b73d6e2e6642f68a8e9fb950860001b613b6f565b6115fd7f775b46ccdf88d72c408120df8360b9226b6db2a8976621a4fffcc7ba5552655d60001b613b6f565b6116297fd862cd735c310c83ac318a4b84950d030e6e5056061b31feff2f67ec241480a060001b613b6f565b611632816149a8565b156116ca576116637fc03fb6ad07a9d634911b1150c0fcf9c3f12966c9801bb914426cf8172810b8fd60001b613b6f565b61168f7fbb9f98cd6397306630524d3975813184654081fac1db9847611658ab56364c4a60001b613b6f565b6116bb7fc90cb0f8c8061a0105be29085e0b97d45d6c42807a2fd5831bbe2c669e165d9c60001b613b6f565b6116c56004614d18565b6116f7565b6116f67f5d339406f239496f99fab8d404fccf14f1c962b47453bac1647fab7bde353c4e60001b613b6f565b5b6117237f9ef64f921030f19985912b901d6c8aee8150a09f4981772e1b7bec5e4872fd2860001b613b6f565b61174f7feeedaa32b688b969fffb23d4568c8223acd7458f356cd4923026862e0d33f14960001b613b6f565b611758836156ce565b935050505061341d565b61178e7f3b930d2ab3049a42c04518fe2f64251c1539544595a2146c1b0b31ddc3c7006e60001b613b6f565b6117ba7fca58a054f25369b17adc4a68234730bdfde00b9b6636a218647bdc080b2c0e9160001b613b6f565b6117e67f95bc0d67d1e3d51bef812b07b715be77ace43ac7324661934f258da234075cfe60001b613b6f565b600160048111156117f357fe5b600660009054906101000a900460ff16600481111561180e57fe5b1415611cb3576118407fa1c4df8f8465e5aed78ba8b7867d21b0eccc003d555b2d8f1f52ed9c9da12d7f60001b613b6f565b61186c7f9a97315e796621bc57d7fa1332379df36f9a900d1227b025dc17bf3c510de2f360001b613b6f565b6118987fa3a6d4ce7799953aaffb3a6f289b450ce7ed82ddb65e6bf470ec3b9a2f7ffe8660001b613b6f565b6118a383838361582f565b156119a1576118d47fce0849a3f21950e639b9d7fa3ac1c6dd1d591be64e983cda4c24da53cf3e3a3360001b613b6f565b6119007f1f5fb3cf21f8d2a45d0fe1847a23f4aaf3b4db3ef971a6a9b1c337613c471dd260001b613b6f565b61192c7f3507f500a9cd6ca60bd7a665eeee8d91c09a477a24c51c2d4c19c785ec7fdeb960001b613b6f565b6119366000614d18565b6119627f4a99d4e22067f1114babb7a0aea58f1cc434ce0ce86de1bfe09c24491c325d3560001b613b6f565b61198e7f808e5ebc9cda076936afc9927918bd9de789a59734c87609b3e9fd922d642bf360001b613b6f565b611997836156ce565b935050505061341d565b6119cd7f6df838800cefda36b8db59bf1c153e8291b4a885eb424580740df556a8aa63ab60001b613b6f565b6119f97f2fa891d50cbf29dfbe56920c1839bd207b29d4a1e8ade35308bdf6d86f741d0960001b613b6f565b611a257f7db70f645b7e3a2b71a215b399e0ad534b6b0c17caab910f7ca1037501d1a4f960001b613b6f565b611a2e816149a8565b15611b2657611a5f7f5b449b3713bf6268de8ae5dd417d40fb87ebb616fed38b61d073f5d8d2acc12960001b613b6f565b611a8b7f221cbfe776990e9492727ab0de4a1ea90ec6ad127ff08441d6713023d59c125160001b613b6f565b611ab77f41d803cea7a28c4656e458becff8685c554ae9788ead4ae16276f4169203c93360001b613b6f565b611ac16002614d18565b611aed7f8bd9aca1cf8124750a806cd8fe388ccf1c07dc9f4dcf49cd50131a712965ceaf60001b613b6f565b611b197fe386491823dafc327ce4591afdf785e86f3d3ef1ed18fd20c89632904ee2757160001b613b6f565b600554935050505061341d565b611b527f7ab138810ad4b4f684d57c7922e29194ec2b85b6db1ea310ef218a6e8f41093f60001b613b6f565b611b7e7ff56c6df6ce57780fec0569b24905be5c9320a0b6e724ba6a3845868c33cd8cd460001b613b6f565b611baa7fa23cda7f81285d32a97788e8eefe3ddb2fdd27f8f732dc71566d7681f381976f60001b613b6f565b611bb381614e5f565b15611c1c57611be47fdd33a658ba0de7b4a0edeccdf2c46abda81284dd54eb4e8908003a3b1bcfc29c60001b613b6f565b611c0f7eb7a180e4062a036673ce64fdb4c23ef38957a2b6762985605016ae9ea10ddb60001b613b6f565b600554935050505061341d565b611c487ff2480a0ff608539b84ea6787ae566ef998e382af4bd9fb037152a243d2604fdc60001b613b6f565b611c747feb9d95eb72c021e89ae7bec4a84928a997af61a3d34a447a8e9cb37435f20a0460001b613b6f565b611ca07fc1e5a50afa89dc2dc52198b0fe17443a01669bea940d7ab59370c175ec65f6f860001b613b6f565b611ca981614f07565b935050505061341d565b611cdf7fc8c7024fa577fa7f5e5303c3e0517d033528fa5e5d1737874eac138c188bc68660001b613b6f565b611d0b7f86d021d8f94be29f9c8870f9a3881414d8ebfd1dfdaffc7fd6b21e40233466e660001b613b6f565b611d377fc00b19fe3caa198e81be82dbfa89c931cbaf902f664c3d945d1bc0b532fba54e60001b613b6f565b60026004811115611d4457fe5b600660009054906101000a900460ff166004811115611d5f57fe5b1415611f8357611d917f220da0804fe4b0240e1ab94fea35d65e2e9a4e132571d023bb708a3829626a6860001b613b6f565b611dbd7fd9cabe2466eddd2ba94f1003628760d212807aa6faf59c2415c104bf8613c36f60001b613b6f565b611de97f66e093e2d5b227c08f306a57a9bb192e92710a9ad77b89440576b78017234a9b60001b613b6f565b611df483838361582f565b15611ef257611e257fe9161d7c4b5a7a6d72f8af64ca444dc04c97c189fd11a7717d7b19c286f2ca9560001b613b6f565b611e517f05a00eb378b6b07d513fef8bdada8a5112fa52a049552e2c6e6a110c53a3d51460001b613b6f565b611e7d7f1be081603faa7f6924e57d342093f6e5c302a8a968411121a92193e30dd2276a60001b613b6f565b611e876000614d18565b611eb37ffbe1a00d95be247d6f299e8a2ca4c7f8032bb8af03ff51797a227722700bdaca60001b613b6f565b611edf7fb6e31590dd739bd7cb31da0a59b10e8214596887ecb393d31b0422968598b3b460001b613b6f565b611ee8836156ce565b935050505061341d565b611f1e7f4df492b5b28e069ae2a231cb876d5024921c3ae3a47d7a89a68c60efdac1dd3160001b613b6f565b611f4a7f026d5198cf02d47f85893e6f86a35c077c32b5153804002e74fed85ba072f57260001b613b6f565b611f767fdf541483b5d8134591650e86b7ec195efaab817c93234c724ba61531668df37a60001b613b6f565b600554935050505061341d565b611faf7f4bea9d109ce998e0bff53bd667beb39da361619ec48aacd8cd1ac54bdab517cd60001b613b6f565b611fdb7f09b5c5a0dbbac708e54b7c5da88503b01fe80f0ac517899dc2a8c6659b6aa19760001b613b6f565b6120077fdbe1befa80ae6c2ab9d87da0f6cc852eb2b51768e97db94e9c8673df9121776e60001b613b6f565b6003600481111561201457fe5b600660009054906101000a900460ff16600481111561202f57fe5b1415612ce9576120617f8cc30e86a9bc4248c9660c613cd6e5e754384ca8fc7bdd44bc7e65413aa5a32a60001b613b6f565b61208d7f136e0ffe23d17aef4278a700720d09a90352e1ddd0ccf048dabe70633777f5cb60001b613b6f565b6120b97f26ce225179da3e24c89255264b208ff2ced2e96de061e155adfaa96dbb5203cc60001b613b6f565b6120c38383614902565b1561243d576120f47f93f9d0fe36c6d80708a4ec41164bfd47ae724d6803638c30e2158bfe84ea67fe60001b613b6f565b6121207f01ecd19abef7a12c8f9ecc1eee99991f0c3f8df966528a8142cc52a9d66dc7f060001b613b6f565b61214c7f01fd3206b67aa99ba86fb6790c50a7904af450960df73e2747914b5c42bbbd5160001b613b6f565b612155816149a8565b1561224d576121867fef9c5fe9146d00b0c05ad7144658d758ad9fb558d7523ddd0dd461e49aa33db060001b613b6f565b6121b27f4ebc27c331f2feb3a2ca1ddf6d214d7128d45001e169debd8fb3a24db2b9ce7760001b613b6f565b6121de7f2d8d37e332fb9dfa0d96adaa2ec549c6ee754b4fbb54f9ac194e52f25cda28ad60001b613b6f565b6121e86002614d18565b6122147fcaa2b3e2cbecbbac61315cdd25d5a6526e137e279e4a27c6ccff8d909164f48560001b613b6f565b6122407f1e6c0d6b2238ae98129db16660bab5ca7fcc750a0ea379b9d2d6be3da75f819c60001b613b6f565b600554935050505061341d565b6122797f25731e5e157b5e30ed775edb0d425dfb97fa2b20365647990d1deb6888f04c4660001b613b6f565b6122a57fb77fa9a1d853d0827d41c7cc6e3ffff16b90ff2eeb3467f006bf8f14c11db55a60001b613b6f565b6122d17f7b412d1475c0f880888a235eb8c97e8e69b6c66c892c07053f7e40f6fe45725c60001b613b6f565b6122db6001614d18565b6123077f598365240f1695c7a4bf9279f3aa45b2ff3e65e19f2d16a5584dd2e7fabdb9b660001b613b6f565b6123337f62812765d4d9efa79fe1afbb4428500039a62d80ec4fad4a12aeade561024d4e60001b613b6f565b61233c81614e5f565b156123a65761236d7f4154fcd1718033c8fd32ae7b6c2ed71e86e33215eee48078ed198a1a62a85cd260001b613b6f565b6123997fce652c9dc3dea3890f604fdf77f04ddccc56408ddd8e54e83c2654610f1f72ae60001b613b6f565b600554935050505061341d565b6123d27fb9b62caaad481f48dab2ad8f78aee35a7f824b5da7d244dccd7f1616ba27f6bd60001b613b6f565b6123fe7ffa5e0e54e67f27f7e9ae8317e133f3bb83988d3ffa9c99f163d1ef5a0f437cb760001b613b6f565b61242a7f9fd85ec5a9b4b8e93814c28ad5ef035e69871b0b199066ce50ab2120c65df82460001b613b6f565b61243381614f07565b935050505061341d565b6124697f58ec92a1507127ab10c41759f9a4d2abe6b6af6013a6ebbffead8ab4c68c7bc260001b613b6f565b6124957f8f3d68590ab84b26e97b4ac1bf7a0c3a3f00800c695a32f0bb81e3e667e0718c60001b613b6f565b6124c17f8eb9cf84e425681a085d751ac845d7aed5152260ebaf285e0a33666312d0897160001b613b6f565b6124ca83615060565b156127e2576124fb7f48de40ab88cdbdeecf1fb6fe1bde147f1482bdeef1aeaaf8b2249697afcbf2cb60001b613b6f565b6125277f3ddf106d0a6b38d20f8f387a2a8936f534637f1828ed0e0ad35adbf6d783bcb460001b613b6f565b6125537f8fba8640cd61b28c61821c5ee421c8bec75876bab538fc92eae261f41645cec860001b613b6f565b61255c816149a8565b156126545761258d7f53d7057a837c1e717ca42e4b521f93a38d8f5b5c251e2947ebc750446aef90fa60001b613b6f565b6125b97fd3622355a11831ca5f0f21d12fa61ebc38f9c45bbc8af8886e9befb7b7178e9f60001b613b6f565b6125e57fc72d67c9cce00c0337a98244f4fc9681bd262c02c8f6d7d9da361020808c63d060001b613b6f565b6125ef6004614d18565b61261b7f7381df1c27730632c8dadd0dad187ce71ded1d7ea529bb6e3a3f6ea4513ffaef60001b613b6f565b6126477fa171ce401317a1be142a4cf78090f55ce9002bca0f56cebfb4e838726d20805760001b613b6f565b600554935050505061341d565b6126807f5f2ff88cbf0df9a377ecc59eb0e7fc75dffa57fda202c6634f0302c1791cd23460001b613b6f565b6126ac7fb6d516d9a704c0ce0736962a842396753ec1d5e66fc75a88d0f7125174097b2a60001b613b6f565b6126d87fe41ce961d5700f72bcbf8b822883d1202b995dd8bf3e66e9ab793e660c41b21660001b613b6f565b6126e181614e5f565b1561274b576127127f30794ac70aa396cf325a17839c1fe5795a8c9d797f433facd072419f323cb4d260001b613b6f565b61273e7f748d881b8b83190a6a41a9381bba20c3b1f98ee016e7d3b2b8ec3c3bad0c269560001b613b6f565b600554935050505061341d565b6127777f7be9c110d645641d0d0f1ede348c2bdd88f3779c6b36a49af5d2da1ae3aeaea660001b613b6f565b6127a37fcfa3884ee84f105d193ef94f7fa5a476f25aa7c84032c6cce1fab1b61ae8ae0460001b613b6f565b6127cf7f9adfa6bb0bf2a6ab19de234e70ce274b4bd640c620724fbc37304802155f6d4960001b613b6f565b6127d881614f07565b935050505061341d565b61280e7f38b75f7489d55316e58e6dfdf4b5f95bab3eb373701c7f721f3a0a75ff79259760001b613b6f565b61283a7f8841f1cb00f8b187131d6e0fff4cd402da6a46ef7eca0cc74fb0be3738997a1a60001b613b6f565b6128667f811d773e0f69a4cf4a3e64975d7de0a3b7054bb8215c3136ea9869fab887fd0460001b613b6f565b61286f816149a8565b1561296d576128a07f5ec68f2fe1bdbd51ef77759492dc0014508085066a9f0389a7f1fe6619670ba260001b613b6f565b6128cc7f6b95880b03a030503d518ac8550359343ce10c8c7f727ac4119e86b520f81c5260001b613b6f565b6128f87f98e0dceb73277ca81e5658ef7303993bef5f1a3c41a559402dafc841b3aba34460001b613b6f565b6129026004614d18565b61292e7f8d2cc7caf68038449b3b045daab1308e4d92bb2b033a5115a35d51b5901cf1bf60001b613b6f565b61295a7ffa22b5c410830e213940769c1e1977552fd57194ee516390be723633c417121c60001b613b6f565b612963836156ce565b935050505061341d565b6129997fa6335b35b089335fc65c8e6831afe691cf2e36cc95371fe9b5cd6894b087e0ee60001b613b6f565b6129c57fe935b60b8344fc195a10b1a8755c1808f28cff36086d91b47eade6b1e115a9b760001b613b6f565b6129f17ff43c371b96dff2db0c773170a2879d61c51f63bd5043a02909a8fad1a55045c160001b613b6f565b6129fa81614e5f565b15612a6457612a2b7fbc5d7e03c681a6a7b4f3b718083aaa995b2dd7d804d4996dc23dc270aecaa2bb60001b613b6f565b612a577f86fccefc7f8b03be564a27105592a97a880d2b25d3409e7b011012384a4ec97960001b613b6f565b600554935050505061341d565b612a907f33a70f544ef512633f414ac11496b0ffeeabe19ca9f8d72a33c887131514730960001b613b6f565b612abc7f898ff6f852d34f2e6ea4365b234c4f1151f3adbfd6d4f2c453c6d12dd212a7c460001b613b6f565b612ae87f0c93e1d295187e3617909c94dacab670a4b647d4629d7420a6fd3263027c038c60001b613b6f565b612af283826153ef565b15612bf057612b237f3662dff424245726385f81c525aeb9fca53d78ac2e35d3fde12cf508f2e06bca60001b613b6f565b612b4f7fd491bfb7e99aa6b5e3c7b01b4628601ccba42089ba4e873e7ae6a5370d470c6e60001b613b6f565b612b7b7f5f3dfa348060fc7e3fea8e94c43d69e51dbc5afb211f7176adea9dc77b7ef9f360001b613b6f565b612b856000614d18565b612bb17f1601c7949514d8d82bfa455250fa2edc53957734011ab5e0560819fce065db3e60001b613b6f565b612bdd7ffb91ddf017b864eb64646c621d8aa9a73d68cc1fd31ec1318e078d430295ee8560001b613b6f565b612be6836156ce565b935050505061341d565b612c1c7f7c5b517a9f04e3638169680d2530a2f362d7db469b7a980240b69e82106db2fd60001b613b6f565b612c487f1dbb52455eff982c7e5990f770fcd7ae04a5bf356665c41302b92766ffc0eed560001b613b6f565b612c747f5d67eb3ff502a9796bd9fa9191e1a3d21812433b3ad99d28428bf31896a9532460001b613b6f565b612c7e6001614d18565b612caa7f4b0948af980c34a56d571c8ea6ba5c490cba7595977345acbd34ea664b2479ad60001b613b6f565b612cd67ff0389057a0dd2766d611a41023666572bd0d31d82937d3e9ec4ad9b342edea1060001b613b6f565b612cdf81614f07565b935050505061341d565b612d157faa6d654d65ed633ac1e32108fe77cb81d7f8cb4239e581dcd21425cc318488bd60001b613b6f565b612d417fe746c1bbc4598ea55ecb6f6633f2b979d578523e12e20f8eb463b14451f6f6b460001b613b6f565b612d6d7fe7d766bb891a447e16940af42aed6bb0efe1ecd9aa5066be80e39c8fc1b4e2a460001b613b6f565b600480811115612d7957fe5b600660009054906101000a900460ff166004811115612d9457fe5b14156133ed57612dc67f130bbb53eae83b1c8760026eae541d3cbca9c337d49a3c5abf6bef02a441692560001b613b6f565b612df27f5f4226f7ee19b857371703f854b20f7b00c6d76f2171ae68425c0318317314b560001b613b6f565b612e1e7fbbcdc3df97c82637aa67e7a63f50dabcc7ad6be8ee19be3be046fa3179591d9560001b613b6f565b612e288383614902565b15612f2057612e597f9bf295e197d11a2f3d0c86c3cc241b3d4e2e7c1eef7c0b5b87b7d2d67aa273f160001b613b6f565b612e857f10aec0d2534ad1f20ba50e0cc749a1bd6d0123b67f39e5bc76e6100142a2ce4e60001b613b6f565b612eb17f9538c6811056f6e528c1a25c978bdae48dfe7ec714efff178f0cb8bb3cc629bc60001b613b6f565b612ebb6002614d18565b612ee77f7758b79a28ff9be449347764823d3640b33ebdcca949126ac3fd238d206e893660001b613b6f565b612f137f6e0f0bca6bf51a2c0a632691167ebaec883fe855557ad707462c6d6441e3182f60001b613b6f565b600554935050505061341d565b612f4c7f06322e379a7d07f03de7dbd34cca86ac10de267b7cd5d086f2d87c3fe3c8e62860001b613b6f565b612f787f4f6e8bc00ca228860818dc38a84b786c1474b9317bfff021d3454da2ab89264060001b613b6f565b612fa47f5af8b66a1d4b00163ef75f58c5253b1a69d4e7297f1ed8742e904512e658041960001b613b6f565b612fad83615060565b1561304357612fde7f6a2a19a7fb4006ad3f836114b6279f9cca00c3fa5cce3c52c550cee854a9724560001b613b6f565b61300a7f15909c43c50fe6bdf3186f33d0bd55e47cedf146904aac4705b83839160508ee60001b613b6f565b6130367f20448d484c661ca1f472b6032d0938094d5d0748474ffc5c32dc54b40afadad860001b613b6f565b600554935050505061341d565b61306f7fd76f3fec4edaef24b44f3ca48d21df95d5f26fe38b90db3de60eaf9661c9dc8260001b613b6f565b61309b7feec383f8483489100c17ffc83700d8b900ec789f3344682b15da5b387ad0f91d60001b613b6f565b6130c77f5b1bb985fed1b3e90f9cb631507a73539790bdce3bc4db689956ed6ed45bc3a560001b613b6f565b6130d283838361582f565b156131d0576131037f9a4679c7c9ceb210c285ce6b61377cb1f6c9167b222d0baf11bc83fa93c9f72e60001b613b6f565b61312f7f639b96424a6b0ec241355ace855ec5716b15d64160fc5a83576fa82ed033744d60001b613b6f565b61315b7fc1c6e611c02dd9590a273a1125550873f4b6a3cc3d3d9558662d122542d84ea860001b613b6f565b6131656000614d18565b6131917fd655d818c1d78eeed4c0445d96df3553cdcdea621a4121fd4e1013c8a52c75ba60001b613b6f565b6131bd7f039c1bcc2d175d8585375a91e7010cbfe4720e7dc3e587ddfdffde2709e0755f60001b613b6f565b6131c6836156ce565b935050505061341d565b6131fc7f2d7a3a083465b1936ddd7e7d1fb93d32a44768958b1deb83ef9e6d84a53dbb3e60001b613b6f565b6132287f4969167fddd2077dfc0575db67305e896af24071df55fddfc3716115720633bb60001b613b6f565b6132547f7c6dfdc5d474cb58b15d8f754eb7e7aa22abd0880dddcfb02eb9ce1af31a67fb60001b613b6f565b61325e8383615108565b156133565761328f7f15d7309f3fd9410679c5e43e539b1eb43f67e547d91a7d2b5b7b0b8f322b915960001b613b6f565b6132bb7fefe8697ca065587d29cdc0bada105d4b32c6deb7644f06ce27fdd3e1a02fe87360001b613b6f565b6132e77fcd09dd281f6d194dfcd2173df64cad0cbbf80d1b75689260b49302463401abad60001b613b6f565b6132f16002614d18565b61331d7fd7bbc29d428da57781bdc21f69d3253435b62d66bd585d77a12ec207d108210a60001b613b6f565b6133497f6f23e1aa7cc3f1a41588261c1833f96af720f2ce2c9dc9f138af710e13c91aef60001b613b6f565b600554935050505061341d565b6133827f81a31e2a356f737d2da29fc34108ef54ece98e3b2462590f4130534cb288d81b60001b613b6f565b6133ae7f3fa6cad8c881c32f15b6f0c37effc99ffcde9c7ac474c9420ebb2b85f7566bc060001b613b6f565b6133da7f2a75749ba4ee84e22559bf789dc0e3028ea0cd8eead901147f2dbe1d375c160460001b613b6f565b6133e3836156ce565b935050505061341d565b6134197f18ffe909f48588aed9b743768a89b31a49e022d1955dc7251db4bf24d2fe632b60001b613b6f565b5050505b90565b601281565b600660009054906101000a900460ff1681565b80600660006101000a81548160ff0219169083600481111561345657fe5b021790555050565b600160009054906101000a900473ffffffffffffffffffffffffffffffffffffffff1681565b50565b66b1a2bc2ec5000081565b6706f05b59d3b2000081565b600181565b600260009054906101000a900473ffffffffffffffffffffffffffffffffffffffff1681565b60008060009054906101000a900473ffffffffffffffffffffffffffffffffffffffff16905090565b60008060009054906101000a900473ffffffffffffffffffffffffffffffffffffffff1673ffffffffffffffffffffffffffffffffffffffff163373ffffffffffffffffffffffffffffffffffffffff1614905090565b6135516134f2565b6135c3576040517f08c379a00000000000000000000000000000000000000000000000000000000081526004018080602001828103825260208152602001807f4f776e61626c653a2063616c6c6572206973206e6f7420746865206f776e657281525060200191505060405180910390fd5b6135ef7f4ce90649047ba0614d6159bf20fafd6453534d10c5eaff0a5e04672b57a4e3e260001b613b6f565b61361b7fd4ccacdaa84345da187a59650803acb2d204c72827129057babe5ed8e60bcf8d60001b613b6f565b6136477feab291bb123b19787203b59c69a267c9329ff22050c618b756c1e7dd4fd7dfa360001b613b6f565b61365082615a19565b61367c7f794d030ae0303707f80b2458120926a959be1a98aefe64c91eabd118a040911660001b613b6f565b6136a87f3ec9cba82778e1e0c20c8c0089e8823a5032578ff62c2e28d5566fd80325c3ed60001b613b6f565b6136b181615a19565b6136dd7f17e97bbc253e4d561ae1647f3cbfcd43061cd52f63c1f35ef47e9d93acd3449160001b613b6f565b6137097fd99ea8b3b4a521493d7834be520dd0b3b42af3e94442546d736bbf0743697c0760001b613b6f565b81600160006101000a81548173ffffffffffffffffffffffffffffffffffffffff021916908373ffffffffffffffffffffffffffffffffffffffff1602179055506137767f8edcf01fafdc091c8e65ac402e43e435163973b5d40acbb6fff37ee2d966708b60001b613b6f565b6137a27fcf7afbc28cf8bcc4313036628bbe8a79d6a6898759bced5b8c810161965f17d660001b613b6f565b80600260006101000a81548173ffffffffffffffffffffffffffffffffffffffff021916908373ffffffffffffffffffffffffffffffffffffffff16021790555061380f7f7a9324f707b94fa241dfd1e1242b91c89e889a868ff63cf2fc99125c50c7493b60001b613b6f565b61383b7f5fc788969d2277720abf6ce5129528d87d36bf3c069aa02d5a674a21868a130860001b613b6f565b6000600660006101000a81548160ff0219169083600481111561385a57fe5b021790555061388b7fddf9391b5858ef608df6aae4a838114b1e03a9213d0132f1336b42111b07d43f60001b613b6f565b6138b77fbbec20a8066ac2353708943bcc125065b30074fd362fce608b0fb4dbf1a6869260001b613b6f565b6138bf616b3b565b6138c7613b87565b90506138f57fb1a5deb219e0c26bd61bdbb9e2e9fced67ede37599cb6f2eba77623614c5ad0960001b613b6f565b6139217ff0fd647a230b854595e7e3b58abbc46b3b02017283a7b468bd7592a2254fcce560001b613b6f565b613929616b3b565b61393b8260000151836080015161410b565b90506139697f95d5d314ffc53a20a58523aa2659aaa8ae8b37e1f038ad35e1d5c089c582541b60001b613b6f565b6139957f629cbd15409a96e26fa1993bc293e6393b564e3e4d0b971e0215b8a66f68c4ad60001b613b6f565b6139c17fadec3fb5408dd7e83b2fae734a477287852b6fccbc24127b52816b52a44d56d660001b613b6f565b6139cb8282614902565b1580156139de57506139dc82615060565b155b613a33576040517f08c379a0000000000000000000000000000000000000000000000000000000008152600401808060200182810382526030815260200180616bc96030913960400191505060405180910390fd5b613a5f7f7f1225775978451c07988531196bab4d2ae07c92b66e5761257fd45da08e08a860001b613b6f565b613a8b7f3b992123131ff394b204f16c1eb670150503925ae629762a262f7fcf4ae694e760001b613b6f565b613ab77f36b93cd8d6c8b51de2fdf3ae66aa67e7fc89d97c348410ade3a00f2d071cf78560001b613b6f565b613ac0826156ce565b50613aed7f6624a34cf1df06a09940f7fd0d4ab841ab2628a3f62bd70da32185e7963fc5eb60001b613b6f565b613b197fbfed0e557ce278771ba743fcc2b793430bd91b334266c5bbf1c97b55240d12e060001b613b6f565b613b21615d4c565b50505050565b50565b670de0b6b3a764000081565b6040518060400160405280600981526020017f507269636546656564000000000000000000000000000000000000000000000081525081565b50565b8060058190555050565b600681565b61384081565b613b8f616b3b565b613bbb7f87817170d1c0d5e4297c79026f80310609d6d2a0a4e59dc426203ceabb1db2d060001b613b6f565b613be77fdacd6ef437b54737ad6b534f0a020c1ab4c73cb44a75c7ad654fa02fbcb43e4860001b613b6f565b613c137f2daaf4d0e3667b65bb4c69d1bd71db0458b47e78db5693f1721cc645d36f88d260001b613b6f565b600160009054906101000a900473ffffffffffffffffffffffffffffffffffffffff1673ffffffffffffffffffffffffffffffffffffffff1663313ce5676040518163ffffffff1660e01b815260040160206040518083038186803b158015613c7b57600080fd5b505afa925050508015613caf57506040513d6020811015613c9b57600080fd5b810190808051906020019092919050505060015b613d1357613cdf7faef9c076fd57f8f5bd3ecd655980ad65dd7cb78137a2d940796e390ab221ecf660001b613b6f565b613d0b7f06d8644c5e1010b9906f2513293b6bd3cde78ab2b1d92c83086cb6ca5da9f2ff60001b613b6f565b809050614108565b613d3f7fea4076caab8136aaa82d23a4994ae1b23502a9797273e9c418f258fecc6ec66060001b613b6f565b613d6b7fad86965567445d879862fa1fa1455ebfae50f0578dd9a648423fc95d857e5a1660001b613b6f565b80826080019060ff16908160ff168152505050613daa7fa2205ac9d090ae3f9e4685ff1259b11ee5639bc650df39ab23cd3091979495bb60001b613b6f565b613dd67fbec10cd2c1c821f40b729b85915739c62013026b4e10643114c8631029dad5c660001b613b6f565b600160009054906101000a900473ffffffffffffffffffffffffffffffffffffffff1673ffffffffffffffffffffffffffffffffffffffff1663feaf968c6040518163ffffffff1660e01b815260040160a06040518083038186803b158015613e3e57600080fd5b505afa925050508015613e9a57506040513d60a0811015613e5e57600080fd5b81019080805190602001909291908051906020019092919080519060200190929190805190602001909291908051906020019092919050505060015b613efe57613eca7f200ddaba39207cef96168a69af0abf5ed22f233734bfe5f177ad65f71d47a69560001b613b6f565b613ef67fdc02dfd2124c7020955f98105769b2ad66beea49d2d9b7304a9b85e088db94f760001b613b6f565b809050614108565b613f2a7f016e423fe6b599bb0d986e8ec84b477eb9d8792ab3045988fdfe04a46ddfa31560001b613b6f565b613f567f03a11051253fa28cfc52413d6b20a4042069676b1b5242bbbe2a3aeed2adef9e60001b613b6f565b84866000019069ffffffffffffffffffff16908169ffffffffffffffffffff1681525050613fa67f21bc47abaf0473a41a4ba9f956e7aa159077125dda176cc18b4a00e6213aeeca60001b613b6f565b613fd27f729708e93cf089a3f625a021c5adc6b124b4d7206eebc9b47cd062d5cc05817e60001b613b6f565b838660200181815250506140087f6e233b1ba21ff97c32ba5c57acde12c0e87625518d81e87a94aff937edfd2f7b60001b613b6f565b6140347f71f6246de94b292b42930c8d2249f935c85ac60cddf6e8ea3cf5816b034875cd60001b613b6f565b8186604001818152505061406a7fca8cba01f23faa809247f4b07a9ceae2d7b9b9670193cdb0f50e3913e9747d7160001b613b6f565b6140967f8780315b52be82cac899ae610683d6a2b76e12cc0ceaf9d91c1596744d44706160001b613b6f565b60018660600190151590811515815250506140d37f16418fd4079f473fa59614a8ed453d24fb44ef33c9df6e3b85000ae9970163ad60001b613b6f565b6140ff7fe79706be211adb3a55216b36e7bccc9006870c4942e15e8b68ee21a89ce7531d60001b613b6f565b85955050505050505b90565b614113616b3b565b61413f7fd14d15271b0d147b178870057f5c684699e2a2f902d52b58abbd150a355d17a160001b613b6f565b61416b7f01d37368aa349521a561b3db84be48ee99a57dcf62b7183afe5b609ce276193e60001b613b6f565b6141977f797c886c7c6dc7356e7890c9caae76514a4fd1483222ba37c85c4f2b6d38162760001b613b6f565b600160009054906101000a900473ffffffffffffffffffffffffffffffffffffffff1673ffffffffffffffffffffffffffffffffffffffff16639a6fc8f5600185036040518263ffffffff1660e01b8152600401808269ffffffffffffffffffff1669ffffffffffffffffffff16815260200191505060a06040518083038186803b15801561422557600080fd5b505afa92505050801561428157506040513d60a081101561424557600080fd5b81019080805190602001909291908051906020019092919080519060200190929190805190602001909291908051906020019092919050505060015b6142e5576142b17f9abff1591887a66c5aa0f62b7c7553d724e126a2c14ed9b76e527b25367897b260001b613b6f565b6142dd7f4dbdfa76499bfc7d7aff6b8c8bada53153ca6dda94a903ba76c4cbb4bfc3bb5c60001b613b6f565b809050614559565b6143117f2ab739e93c3284b85a4471ddb9eadc3ee561088e873353f238f2083415aeca7e60001b613b6f565b61433d7fac09c5240e321f0d2db0772eaf80348416778154555babf8bdcd1f632759839760001b613b6f565b84866000019069ffffffffffffffffffff16908169ffffffffffffffffffff168152505061438d7fdef54d656e954d949e5a74f479a7c593450dafefe0799adf70364097302b8a2360001b613b6f565b6143b97fe33966e0ce23c2ef1028ce0007d886af8a95740250bef571ec9d1c63a132c78f60001b613b6f565b838660200181815250506143ef7f3033adb40b0e6c217e6c7c9ba317f7f305ea7059a4bb21225606a7ef443b46d960001b613b6f565b61441b7f82c599d3b6bcfe291ff4b9f770be3bac4d3bd80bfff747751422917761d7348860001b613b6f565b818660400181815250506144517f745466a4f8ea6fd1b6736766548f90c15d1adccb1f97cbebc00e10b09ba4530760001b613b6f565b61447d7f9ebe1d29c213b5913d808c6f62873d2613a5c244b74dd74663998021cdd22aef60001b613b6f565b86866080019060ff16908160ff16815250506144bb7f1fee6befb2fb8f5f4f90f86e6e653b9e8e95b89c8bb6e669740b6fe241a3205960001b613b6f565b6144e77f31c811bea77e58cb8aef4733d9ef0752675eb3e83b3ade6bcd006bb58850624060001b613b6f565b60018660600190151590811515815250506145247f3ec6c7ff72dd7c1d31a7a486c6eedebab20925224b39736b2633962b6bcb732060001b613b6f565b6145507f76483679e389535969c8821f8b310ebdf299d2a9ba9108eb197a00324a043f6c60001b613b6f565b85955050505050505b92915050565b614567616b7b565b6145937fa4bcd6aba75dfea64512be55c27fb3824c4cf47b2f30ddd36caa932b49d997e260001b613b6f565b6145bf7fd9f106d132e8d143788bf8b546ce6aedd23fddc7b0260d657d60350cf86b370460001b613b6f565b6145eb7fc34403e07f7f64b11c244fc6bfc5be5e2c0e1321c44097d3b3ba85bc7a9d6a1e60001b613b6f565b600260009054906101000a900473ffffffffffffffffffffffffffffffffffffffff1673ffffffffffffffffffffffffffffffffffffffff166332e6aadb60016040518263ffffffff1660e01b81526004018082815260200191505060606040518083038186803b15801561465f57600080fd5b505afa9250505080156146a757506040513d606081101561467f57600080fd5b8101908080519060200190929190805190602001909291908051906020019092919050505060015b61470b576146d77ffb183cc003f629fc0555f07a6410b3d721ff64abed4ea01b8003dee1da8d395960001b613b6f565b6147037feb87ec5071441a071deaf16746f2a8b10f0e6ebab39833fd56af7de76f01d8f060001b613b6f565b8090506148ff565b6147377fa0b35e21afeb8a6c0f08e24c0a43b7390824b24d40b0979e849410b0f05a5e5f60001b613b6f565b6147637f566e188444bf5c7bd67ccbc47165d62433b41913c31eb49010568767dc1d1b4b60001b613b6f565b8284600001901515908115158152505061479f7fbff3fb9e5bdbd32f55cca2cefffa73656a4fdbbd70485c4bf8e2709094c3620960001b613b6f565b6147cb7f57d2a7f2cf98dac7ff399d7698719cc72294997bfed531368a139954eee0c37a60001b613b6f565b818460200181815250506148017fd0cfedd2cc9b88c02fb6d4c1bc70c0924dffb9df87da779d3be041738ff0481060001b613b6f565b61482d7fea83b4a84f64f1baab4c8d9e151f18dea4d2a9c48e936b2e7998065f622c808560001b613b6f565b808460400181815250506148637f02ddcb61cacf304f7f5b47bd3f4b9723da174c3124c7d46fc934e16766f2096e60001b613b6f565b61488f7f5e9582e77ad3a89c736bf17c184dbf3e7215d2c00c9581a3394a9fdc6d7e3d7f60001b613b6f565b60018460600190151590811515815250506148cc7ff2d60eab8d581aea71bab58b5b01346bbf0f3c62bf43053bbf290997a81a253c60001b613b6f565b6148f87f3e0f6cb020781cf57ae1ad9cd6b0bf1c24af7f586a1e2faaa3f0c2a4c824954260001b613b6f565b8393505050505b90565b60006149307f78792e9080e919e4611cb60ca105e8059a51a272a8009f524357d3532182c02360001b613b6f565b61495b7e6638f0113f7968ef0c9e966accc03b400b6d37bc0f471e85179dfa250d340060001b613b6f565b6149877f26d77582fd10b6008707cb5baa8173222cb6dcfffe4c53fb618e42d4de22f65260001b613b6f565b61499083615e0b565b806149a0575061499f82615e0b565b5b905092915050565b60006149d67fdcc8f40643d302c8755fde00bff4efa05ee922a03d96234fe22f434e69d3ab6860001b613b6f565b614a027fc9cfc8e73eefb705f1ccd6369e00da6c76da47abdbdab9b280296fe61461143560001b613b6f565b614a2e7fca16ab4870ea713b4427646deac3ed7b6102519d0f80f188aed3088c982791e160001b613b6f565b8160600151614a9857614a637f5744ad11f8292be10e041c72b2c01a56435d54542954cbe68decb1f3565b075460001b613b6f565b614a8f7fda0c129bf6b3249da7ded26a9261c9290c8f61bc9115d99a31dbb96aa6fdced160001b613b6f565b60019050614d13565b614ac47f69d9107ad3d3fa825970ed8d6584f8676c2726e4c850f965432d86bf9e375b4060001b613b6f565b614af07ff6f0503778efe9d0635d1906a7974f36274683fc45100ef609fc442c95ccbb7260001b613b6f565b614b1c7f4aee2cb037ad7837fafb6e335a49573d1229cb592ed9f372c3252f9c22be3bd260001b613b6f565b600082604001511480614b325750428260400151115b15614b9857614b637fc034def5857a71730d144c966738c7d310d24204a4c548b8e3904ed3b0a284bc60001b613b6f565b614b8f7f2646f48d98cb2a209d6b7250a6a3da2c30093c5bfcea84a8b101316ecca4d2d060001b613b6f565b60019050614d13565b614bc47f7bf3499f2414c3536aea24b6209a1da399a0d3e188b95fd858fd4816fdeb952260001b613b6f565b614bf07f0f548b49496ac42289d6fad6081d7420228ccb34f1b651d3a80e374e830edfb460001b613b6f565b614c1c7f6377e1f3487924b9e68d1d92aa49e9c327e031d9c7b5cf567fddc70be55c21c260001b613b6f565b600082602001511415614c8a57614c557f372825f62d691fad90d18d370b858cd5d2933620222a5653cf6b9a6d9276133960001b613b6f565b614c817faafe57cb50e529587447cfeb4132828039e44e8d28e408c5cd468f2ab28e689760001b613b6f565b60019050614d13565b614cb67f8ab44849ea349756285cd1dcf134b7127d21ed0f94159c158ad5a321b29a303460001b613b6f565b614ce27fbe8ad2cdcb31bf48f74606ab76e113d0b99f0dc53f279d9d50dcbd0b614d698860001b613b6f565b614d0e7f65ced8298459c62798342a6aed3d031e4e9cb6ac050e5055a7f24cceee714ec060001b613b6f565b600090505b919050565b614d447fc7cd85e6dbcb169c31357a8d453812f82b1c13cd4bf333bb75dd546c3660603660001b613b6f565b614d707f9f1c49ebe45054624a0fc674f8c63ca5e27ba29570d376319c47ba2e1f03522060001b613b6f565b614d9c7faa0e2bdc649ced302372acdbcf8386ae9a754dbb9a5f8f05f307a5c498b013d760001b613b6f565b80600660006101000a81548160ff02191690836004811115614dba57fe5b0217905550614deb7f858fcc08185b78b6b0f25442d9547ac0393cfa73c8dcfae1bdd8674f1d844cbd60001b613b6f565b614e177f651a915d1991016f1c99edb14235d1b34865f8ec5b66a7a735c17c0538e19e8260001b613b6f565b7f5c57579a8214fe4f710c1c56fa829f045b9fa6d225a744225a30c32188064d4e8160405180826004811115614e4957fe5b60ff16815260200191505060405180910390a150565b6000614e8d7f11854a4519bfdefda9bf9c6f94759e7137e475ba844ffff311c6a325e590179960001b613b6f565b614eb97f340640264b982d9fc20f72e25ac52a81d38d525f3fef7d3fbc246bb98dd0594360001b613b6f565b614ee57f3583d5d0c488568a743326bb3b9d285312f944f9491f006147cd0b2cc1cbcc8660001b613b6f565b613840614eff83604001514261627890919063ffffffff16565b119050919050565b6000614f357f2c2fb70231f45421feef012d35181c6b9cbc343da15648e62772ca08ef1a16ac60001b613b6f565b614f617fa6de909cb8b8dad544fd3e45c1a61141a5b78d8888cf6e8a80cfe4c95f94520960001b613b6f565b614f8d7f909cffea2a3b40fd5e76468b93af260dd5eba60527ed8500626854561aa12e8d60001b613b6f565b6000614f9c83602001516162c2565b9050614fca7f52d088af6b1beaaf5e5671dcaa95503e794cd3f272f25c0ec1fa10acfe662c5d60001b613b6f565b614ff67f6869c84622c7592956235050e8cf8d587e39857114e9ea54f10c1ad556588b7860001b613b6f565b614fff81616369565b61502b7f09861f5667120879081bcdbc3c16d6b2f03afa76caa4fcc1c2d69ed29d7d1f2060001b613b6f565b6150577fc328e7fa80ffc4c457bdd1c5a2b52ae9464bef7d2da0405901af1c68dae53f5360001b613b6f565b80915050919050565b600061508e7f640d9530e61bea6e4e76a568361a712a283be8ced13f35316de2b489273b848260001b613b6f565b6150ba7ff8fc00d7e0d953e14608b1f5797d022460249743be1cdc8a326fd0bf9add3eb960001b613b6f565b6150e67f126bd4c0867b768cd484d75b4f7ba2c2d13e06b4c79883578e4d53fc0da1f37860001b613b6f565b61384061510083604001514261627890919063ffffffff16565b119050919050565b60006151367f44f73280809dde039f5875a5f319f8cf5a4424244c9897107cb57ae8a97007b160001b613b6f565b6151627f3092a355b3005d5e3c5a670e53302f6d28cf15a1b1bb6e6057193c956997484460001b613b6f565b61518e7f3a8dde8e515f62386400833d8a61a03088ed3729b652684b25d361ce03d5b4f260001b613b6f565b60006151a58460200151856080015160ff16616486565b90506151d37ff5f7b02841488d9f31690941cdbb2d75a0f7d7e98947bdb6e1b9a02cd619c54e60001b613b6f565b6151ff7f2d60a9cbe8e86e68b578ceef5cad872ea39b8d61705e23b4b4949a4385f687d260001b613b6f565b60006152168460200151856080015160ff16616486565b90506152447fb665568fc18f82fc1200dec5c60d2a697babff7458d5dc28ab34300a3af57ebd60001b613b6f565b6152707f1c712ee17e8273731748571d13f130adecdb273f9f6e4da61a918753e54bb2d560001b613b6f565b600061527c83836167a7565b90506152aa7ff27946f7677001747a979af6297da653dd24f6d69f4d5d9fca079339922fa87860001b613b6f565b6152d67f8016f3603ce7a7af49f5cd9c643e743ef1f495fa3344b00bd2e4b176918f49ca60001b613b6f565b60006152e28484616844565b90506153107f50de3c4949f51a3a49818a9755e78384321ce49f37dbaf9f1e916c014475e29060001b613b6f565b61533c7fb05caba99baa350cfe4cf6652eb49faa13634424d2ad986890308de2c2057af160001b613b6f565b600061537d8261536f670de0b6b3a7640000615361878761627890919063ffffffff16565b6168e290919063ffffffff16565b61696890919063ffffffff16565b90506153ab7fa383ba307f2316896439b064c05d4844d4a2143900426c69e8506760d34395bc60001b613b6f565b6153d77f4f053d4046e8c68eb8b56743de6f8ea3d4202d7b1580f7b4c98b67fd9d7a571a60001b613b6f565b6706f05b59d3b2000081119550505050505092915050565b600061541d7f21b5af8ec39e48ea18998b5a2394f3fac599fcff8dd44410258ed598967bc90360001b613b6f565b6154497f6c83122c5ad19a17d3bb47c9792f9d8ced5fda2cda23bf8a52be6ecc6429908860001b613b6f565b6154757f131c2978662f0a19d12498356a7d27b7ca9f9797eeb9bf3dbabea03339ebd46c60001b613b6f565b600061548c8460200151856080015160ff16616486565b90506154ba7f542e8cc87bf2de518ed94932b6c80020dbe9e9cedc5aa8aea48164644b0feaf660001b613b6f565b6154e67f6854af1a04b0175caeb204d8445e0b17b1adc1f06ddb0b9d7d9720c21e4d248460001b613b6f565b60006154f584602001516162c2565b90506155237f59ab8be0152907d2d5f6f1b34e027420c2f61022d90188762f60ba835a8e955060001b613b6f565b61554f7ff015ef11b15697ee111195f47d6abdc83876b41e906c41562e29eaebeb3f1e6460001b613b6f565b600061555b82846167a7565b90506155897f0a5ee0176491491c140ee28103749c24681a54570938edd4676edd61b9139e7860001b613b6f565b6155b57f4547553b4bdc4d3b7c95bf115f2baa6b7294818791891a773d619edc8a473d4360001b613b6f565b60006155c18385616844565b90506155ef7f9031592991e57f446e7af9bf848db9a555b7c5420dc7bd9c5c576bd4e72a3e2d60001b613b6f565b61561b7f26022050f1711437fe6e2091c7014570ae9336b3ad163efdb2ff35ac209dd8ef60001b613b6f565b600061565c8361564e670de0b6b3a7640000615640878761627890919063ffffffff16565b6168e290919063ffffffff16565b61696890919063ffffffff16565b905061568a7ff6896a09ffb329702f6561d1bf7b93f27f796efb8444daec8b082a8f298dee6a60001b613b6f565b6156b67fe6b6e4e328f5b08b066b6959a33c08d1e23beab45736ff56d13e444cdd4620e160001b613b6f565b66b1a2bc2ec500008111159550505050505092915050565b60006156fc7f52215a97b42eeef8ec8fb53b550cef21af707a5c162aa4088adf42f8c44266ae60001b613b6f565b6157287feb036081833361720768e4a4869256e7fda8cb38e89e4300c539c9ff31ac4c0660001b613b6f565b6157547f2cedcb42ebbfad2f8bd6a60ef52db64b413f30aa4f6d58b9802db4ce7087041f60001b613b6f565b600061576b8360200151846080015160ff16616486565b90506157997f1806739ae068b9aef02c1f61d1d75d5557b8aabd0ef18d3d1de7a1c5ddc87ff260001b613b6f565b6157c57ff19cce17dc3b82a50be0377047e05869c2d18b8aac3ec1902c7934a378fe592160001b613b6f565b6157ce81616369565b6157fa7fbead4f1d45063b51392f8977df2642c2fd9a19ef5119ea9e021804d215c47b4460001b613b6f565b6158267ffd0a79f81a99a88beee436d9e98d441138fa643ba37f157999ede46d8cadc0c660001b613b6f565b80915050919050565b600061585d7f0770d128c5bdc670435834c139554ce689fe0e1853443d72f8d90407b17558fb60001b613b6f565b6158897ff394e88ac17588f2f48a808dc751addf73587fae34211d2891999ace1927c95160001b613b6f565b6158b57ff9d77080d85038b6f84b8e378d1e61174742fcda241e1896fb39cd47883a0f8e60001b613b6f565b6158be826149a8565b806158ce57506158cd82614e5f565b5b806158df57506158de8484614902565b5b806158ef57506158ee84615060565b5b15615981576159207fefc4c4c5b0e793b2a28885b47e4ceba498ff227c3d72265b736269cfe7e01c7160001b613b6f565b61594c7f9e6d24331112415457abfe2845a1136eecbaf0d91449f9db6f7b906f4bcb441c60001b613b6f565b6159787fde34ca1ffdcb3455d1a62820d2ed5c5e3fba906e2cca592e4b73d9ea6b12dcf660001b613b6f565b60009050615a12565b6159ad7f3538c9a7308ad0cb09ec4b07e5a2104a421f12da617ea1467c02ea6e8faa886360001b613b6f565b6159d97f87eb9792d576f78dcaae3d06ee4d9b62e2574cc4d1a726eed6a2964024ee520060001b613b6f565b615a057f4bc2fbaf17b4e0a0132ee0ef16b2b7fd76e16d69263fd5096dab3b8f503627f160001b613b6f565b615a0f84836153ef565b90505b9392505050565b615a457f35bc9e5e61c1438a006153cf69ffd6105766a3055440d22f6c8ce219146d68af60001b613b27565b615a717fe66c045f45b868efda896f2af22ed71637a4e9e8d13a2b1962badf362ba3eeb960001b613b27565b615a9d7faaa4b517f253b4fa37cb2875514a22e04e7d5828c244c7095a27e85408ccd12c60001b613b27565b615ac97f1221da0bd0f16fcbee175d4dae7d6b598e327e79264e77ced4c93a6a0721871b60001b613b27565b600073ffffffffffffffffffffffffffffffffffffffff168173ffffffffffffffffffffffffffffffffffffffff161415615b6c576040517f08c379a000000000000000000000000000000000000000000000000000000000815260040180806020018281038252601e8152602001807f4163636f756e742063616e6e6f74206265207a65726f2061646472657373000081525060200191505060405180910390fd5b615b987f09f0dc62d572b9e8dd242a1b7e25c3c5de1610d6c480bec35912dd5840f55fec60001b613b27565b615bc47fbe74447fdea037b64141768df2430eb2b7113bef949c88d88dcdc549ba88703360001b613b27565b615bf07f04e66872d3f4c69728dfe545a06401e1b17e0f9dd5e1d43290514ae4fd92783060001b613b27565b6000615c1e7f60826eea4af75abd2223d108cb037485a60c485e699a12a42cac24982b89800660001b613b27565b813b9050615c4e7f7acec79ba6fd0be7bb4b2bfca56ca8eb3d8333d64e828971ccb7647facc3806360001b613b27565b615c7a7f0c7e0405db301404f844860b9fe6e14e956a97134ff8695c88184f1c957d6e0860001b613b27565b615ca67f1c5a94c5a5d640e17d84bedbf9409c7f8afe563c4b1fceef7bced5961764ee0f60001b613b27565b60008111615d1c576040517f08c379a00000000000000000000000000000000000000000000000000000000081526004018080602001828103825260208152602001807f4163636f756e7420636f64652073697a652063616e6e6f74206265207a65726f81525060200191505060405180910390fd5b615d487f1023f03b6261b194c29dee3596b0d25a3be14b60910a1d249d0177db54f54c4a60001b613b27565b5050565b600073ffffffffffffffffffffffffffffffffffffffff166000809054906101000a900473ffffffffffffffffffffffffffffffffffffffff1673ffffffffffffffffffffffffffffffffffffffff167f8be0079c531659141344cd1fd0a4f28419497f9722a3daafe3b4186f6b6457e060405160405180910390a360008060006101000a81548173ffffffffffffffffffffffffffffffffffffffff021916908373ffffffffffffffffffffffffffffffffffffffff160217905550565b6000615e397f0a0c1cd5cf2d5f7e6a6d811c844b9f77794378c0430b18279b604fbdb1ce221160001b613b6f565b615e657f1e32104e71ef1ea8ef9871facb4d13c4409286aa6cb0d299cb090e0fa0f72b2760001b613b6f565b615e917ffdccf23576c8a42a10db0b2c61aa6c306000881549b1f0b8d0eb752126bdf5eb60001b613b6f565b8160600151615efb57615ec67f40b4c4692b1bf4060d943e9243366a7d0b45f2216f64921ab19fd443d76b222660001b613b6f565b615ef27f18381b837f0f3f3641b9e1c3dd531ff739f50e35f79e449158613ab526b725a460001b613b6f565b60019050616273565b615f277f1803d6ab95d61a131eb62d22e285a02b2c9506111f5ff30dd6953c2fd690c8fa60001b613b6f565b615f537f7a7e52af00756b95a72999c6271ceb955c816a3363ce1a8fbf98f0de91c53d4860001b613b6f565b615f7f7fb33f9d7c9e6a440157168eadfc961547ffb01ba471cca0357f03d1216b13d69d60001b613b6f565b6000826000015169ffffffffffffffffffff161415615ff957615fc47f78f69257bc60b74340f24456aef4b9f655c7c1cfa7141682965078659b20a5ed60001b613b6f565b615ff07f28f9fb8f783c3bfc7965593dacdcc6d949de325290812a6be3bfebac27c346a660001b613b6f565b60019050616273565b6160257f62c376bb36626d705e3013b4078a0e2fbbd3e36a7c8d328614e9184ee4b6e87560001b613b6f565b6160517f7b46808b5b91e7559c3cfe435af45f2df003e035b112f978bfa07933c639a36f60001b613b6f565b61607d7f2617c0ed5debde84dc6662141393f7f91105dff01e9af1cae77a82ebd5fe6e2560001b613b6f565b6000826040015114806160935750428260400151115b156160f9576160c47f3f20188ff469f6dceac69d221a9681d7a273fb83721b24dd63817251d78282a360001b613b6f565b6160f07fcc13d75d81fab14b7abde2c52c7aeda32b7893484c4e80031c60c8115c4787e860001b613b6f565b60019050616273565b6161257f0da1a637028c6138a34af3252e58a19b57c2abb09e76c0c89ae93b48b2006b7a60001b613b6f565b6161517fee598193a06e87465724b760ec21ecad06a6ce33efbeaa3b823a8f6dfe82664260001b613b6f565b61617d7fe3002adbbde0c1a5ae02b7d7f10f8b7b3dd9e97882b76585c42dded26444d8fb60001b613b6f565b60008260200151136161ea576161b57f74e814eff98bdde67ce90fbf86524aae982b565da5428ae3348c369a9d6683a560001b613b6f565b6161e17f59447054f180a172643d0896124bc0b0e520b2f2657987e24d7b7ded253dbfb060001b613b6f565b60019050616273565b6162167f193578efa1448201eb66f09074012778bd220e94ff0d00a3952c0a19897bd2ee60001b613b6f565b6162427faf9c51f74cf40f4ce40caccb8a854493620a2411196553ce2a77c9a5ea9d657a60001b613b6f565b61626e7fe4829d6a77ad62f6c242982b0b59ba3c8f8205ecff8d7869d09ff060f9f012c660001b613b6f565b600090505b919050565b60006162ba83836040518060400160405280601e81526020017f536166654d6174683a207375627472616374696f6e206f766572666c6f7700008152506169b2565b905092915050565b60006162f07fc26943dc40b7e820dbf4714798b0d690c9d52c511d5fbd5a0e300c1cb7b73dec60001b613b6f565b61631c7f2b12e82431c44980e410f6cbc393aa3ca984f19853bac9c07091d82ff1ddd97960001b613b6f565b6163487f7246feaa3883c3863130268649e4bb191adbdb1a78d51f5c62bf45957553f6a060001b613b6f565b6163626006601203600a0a836168e290919063ffffffff16565b9050919050565b6163957f246112de1d9e2b9d364fa643fdd0b27605c8085da7cdbc5670660fb79e6b218b60001b613b6f565b6163c17fdc1ac6d3d7ac875cd3649b1d4a7fa7a1bf7a7a4ce1232660cfec76569e145e5260001b613b6f565b6163ed7fa3b5c502ce0071162cfd1b0ff43f0e1490cdab040263dd62894042e35ed7ca1360001b613b6f565b806005819055506164207f987d1ae4f353bc2cd3c17fe4ebf4af6025bbffc511e56f2b39f90af4ac5be83560001b613b6f565b61644c7f4a459e1b56fefe30483b412d26ddece49ceef1f48f8cc1a71dd88747070d249560001b613b6f565b7f4d29de21de555af78a62fc82dd4bc05e9ae5b0660a37f04729527e0f22780cd3816040518082815260200191505060405180910390a150565b60006164b47f5a2609af9130370e931be02a3e68544bb97395c60e13c93cc4ce18569a18412360001b613b6f565b6164e07fb9198ea5dd28fcc7f206a6ed6d2bd6860a35025daeb1ee6d8c289b604418daad60001b613b6f565b61650c7f9138b1f3ec7b696d22014dfcd48a4aae9ad4ec0659a01a64eca913031bc46e9760001b613b6f565b600061653a7f2ef6e53b008f87377df57c92b3b7c4e492c4998f473678ecb0d42b82699141dc60001b613b6f565b6165667f9024ffbbeb8bdde1f71ff0445c927bf7a4df1d6b80f8a3f8ba6599474b70b54a60001b613b6f565b601283106166125761659a7f5e72078f6d99c3e1aa419412a0ecdf7157a74b9ed195b917d4b3abb1e10b349e60001b613b6f565b6165c67f5d7188aa72ed56f577caddb12a82b25ee2b1fd76d9e84c9887b4ae869ba9e43d60001b613b6f565b6165f27fe6c50991b7c2c6fbcd1333e0fe2aac9781dca3b12b6151140b87c32352fc4ef960001b613b6f565b61660b60128403600a0a8561696890919063ffffffff16565b9050616745565b61663e7f3dbcc85b62483b087ae79946463d63a89679961276f4823b5a0dbfa79dfc432f60001b613b6f565b61666a7f745ae002ca52ffefe18ad816e742b26dc40fe1b4531cb1666b6e43c0e2f1a14460001b613b6f565b60128310156167175761669f7f65eb09c819885e2bdddc3bd135dc53c033846d251300fc615fcaacc7e89cb0b360001b613b6f565b6166cb7f37d5c62400fe4887d92f71a9f516b519c6db698fa3d8d0ddf6db37747a3bc0ad60001b613b6f565b6166f77f47f70f6e441e3c6f7fb4b4504cc1c5a5ea42ebbf41a135e0b3d7a5f08298f6b160001b613b6f565b61671083601203600a0a856168e290919063ffffffff16565b9050616744565b6167437f78358513cd6cb48aa1e22357718c9b1eeefd70de49be52db50d399b426aff0c660001b613b6f565b5b5b6167717f478425d7c3d53faef3306ad46a8d4a6b9826ffe56706d08649d28983e32de16660001b613b6f565b61679d7fce31cff082d6e0107111f6926a8e2d19bb19d138c620907e79f53a12f93ca11360001b613b6f565b8091505092915050565b60006167d57f47d1f47bc050b9504bdb99b9bb5b4ef650bd54eba129f8f462ba53eeb800e1aa60001b616a72565b6168017f8bd1b7c6f317176e126becf0775e874110a4f4c3632da3308f1b96d29114d76f60001b616a72565b61682d7f306334dc7786218d10d6d1fbfce931f8906c3249c067df2bd86b69566eb3362460001b616a72565b81831061683a578161683c565b825b905092915050565b60006168727f6f77938d8a72abf67d8e8d6641923128dcfa1ede0fd07852c5bf7504e0883aba60001b616a72565b61689e7f6c1905143284a5c4e424b5ce00c9c6197eb463fb9aef45c1b44784e60137e80360001b616a72565b6168ca7ff6110982dfc3d3c82e7637d766b2d49b0f270a9cccb62461e9fffd998477da0160001b616a72565b818310156168d857816168da565b825b905092915050565b6000808314156168f55760009050616962565b600082840290508284828161690657fe5b041461695d576040517f08c379a0000000000000000000000000000000000000000000000000000000008152600401808060200182810382526021815260200180616ba86021913960400191505060405180910390fd5b809150505b92915050565b60006169aa83836040518060400160405280601a81526020017f536166654d6174683a206469766973696f6e206279207a65726f000000000000815250616a75565b905092915050565b6000838311158290616a5f576040517f08c379a00000000000000000000000000000000000000000000000000000000081526004018080602001828103825283818151815260200191508051906020019080838360005b83811015616a24578082015181840152602081019050616a09565b50505050905090810190601f168015616a515780820380516001836020036101000a031916815260200191505b509250505060405180910390fd5b5060008385039050809150509392505050565b50565b60008083118290616b21576040517f08c379a00000000000000000000000000000000000000000000000000000000081526004018080602001828103825283818151815260200191508051906020019080838360005b83811015616ae6578082015181840152602081019050616acb565b50505050905090810190601f168015616b135780820380516001836020036101000a031916815260200191505b509250505060405180910390fd5b506000838581616b2d57fe5b049050809150509392505050565b6040518060a00160405280600069ffffffffffffffffffff1681526020016000815260200160008152602001600015158152602001600060ff1681525090565b60405180608001604052806000151581526020016000815260200160008152602001600015158152509056fe536166654d6174683a206d756c7469706c69636174696f6e206f766572666c6f775072696365466565643a20436861696e6c696e6b206d75737420626520776f726b696e6720616e642063757272656e74a26469706673582212206b128af13fd743bf2fa817aa7bfc104ace6fe8ddbd1a05347397f95f543b44f264736f6c634300060b0033",
  "linkReferences": {},
  "deployedLinkReferences": {}
}