{
  "_format": "hh-sol-artifact-1",
  "contractName": "SortedTroves",
  "sourceName": "contracts/SortedTroves.sol",
  "abi": [
    {
      "anonymous": false,
      "inputs": [
        {
          "indexed": false,
          "internalType": "address",
          "name": "_borrowerOperationsAddress",
          "type": "address"
        }
      ],
      "name": "BorrowerOperationsAddressChanged",
      "type": "event"
    },
    {
      "anonymous": false,
      "inputs": [
        {
          "indexed": false,
          "internalType": "address",
          "name": "_id",
          "type": "address"
        },
        {
          "indexed": false,
          "internalType": "uint256",
          "name": "_NICR",
          "type": "uint256"
        }
      ],
      "name": "NodeAdded",
      "type": "event"
    },
    {
      "anonymous": false,
      "inputs": [
        {
          "indexed": false,
          "internalType": "address",
          "name": "_id",
          "type": "address"
        }
      ],
      "name": "NodeRemoved",
      "type": "event"
    },
    {
      "anonymous": false,
      "inputs": [
        {
          "indexed": true,
          "internalType": "address",
          "name": "previousOwner",
          "type": "address"
        },
        {
          "indexed": true,
          "internalType": "address",
          "name": "newOwner",
          "type": "address"
        }
      ],
      "name": "OwnershipTransferred",
      "type": "event"
    },
    {
      "anonymous": false,
      "inputs": [
        {
          "indexed": false,
          "internalType": "address",
          "name": "_sortedDoublyLLAddress",
          "type": "address"
        }
      ],
      "name": "SortedTrovesAddressChanged",
      "type": "event"
    },
    {
      "anonymous": false,
      "inputs": [
        {
          "indexed": false,
          "internalType": "address",
          "name": "_troveManagerAddress",
          "type": "address"
        }
      ],
      "name": "TroveManagerAddressChanged",
      "type": "event"
    },
    {
      "inputs": [],
      "name": "NAME",
      "outputs": [
        {
          "internalType": "string",
          "name": "",
          "type": "string"
        }
      ],
      "stateMutability": "view",
      "type": "function"
    },
    {
      "inputs": [],
      "name": "borrowerOperationsAddress",
      "outputs": [
        {
          "internalType": "address",
          "name": "",
          "type": "address"
        }
      ],
      "stateMutability": "view",
      "type": "function"
    },
    {
      "inputs": [
        {
          "internalType": "bytes32",
          "name": "c__0x799ca129",
          "type": "bytes32"
        }
      ],
      "name": "c_0x799ca129",
      "outputs": [],
      "stateMutability": "pure",
      "type": "function"
    },
    {
      "inputs": [
        {
          "internalType": "bytes32",
          "name": "c__0xafd32059",
          "type": "bytes32"
        }
      ],
      "name": "c_0xafd32059",
      "outputs": [],
      "stateMutability": "pure",
      "type": "function"
    },
    {
      "inputs": [
        {
          "internalType": "address",
          "name": "_id",
          "type": "address"
        }
      ],
      "name": "contains",
      "outputs": [
        {
          "internalType": "bool",
          "name": "",
          "type": "bool"
        }
      ],
      "stateMutability": "view",
      "type": "function"
    },
    {
      "inputs": [],
      "name": "data",
      "outputs": [
        {
          "internalType": "address",
          "name": "head",
          "type": "address"
        },
        {
          "internalType": "address",
          "name": "tail",
          "type": "address"
        },
        {
          "internalType": "uint256",
          "name": "maxSize",
          "type": "uint256"
        },
        {
          "internalType": "uint256",
          "name": "size",
          "type": "uint256"
        }
      ],
      "stateMutability": "view",
      "type": "function"
    },
    {
      "inputs": [
        {
          "internalType": "uint256",
          "name": "_NICR",
          "type": "uint256"
        },
        {
          "internalType": "address",
          "name": "_prevId",
          "type": "address"
        },
        {
          "internalType": "address",
          "name": "_nextId",
          "type": "address"
        }
      ],
      "name": "findInsertPosition",
      "outputs": [
        {
          "internalType": "address",
          "name": "",
          "type": "address"
        },
        {
          "internalType": "address",
          "name": "",
          "type": "address"
        }
      ],
      "stateMutability": "view",
      "type": "function"
    },
    {
      "inputs": [],
      "name": "getFirst",
      "outputs": [
        {
          "internalType": "address",
          "name": "",
          "type": "address"
        }
      ],
      "stateMutability": "view",
      "type": "function"
    },
    {
      "inputs": [],
      "name": "getLast",
      "outputs": [
        {
          "internalType": "address",
          "name": "",
          "type": "address"
        }
      ],
      "stateMutability": "view",
      "type": "function"
    },
    {
      "inputs": [],
      "name": "getMaxSize",
      "outputs": [
        {
          "internalType": "uint256",
          "name": "",
          "type": "uint256"
        }
      ],
      "stateMutability": "view",
      "type": "function"
    },
    {
      "inputs": [
        {
          "internalType": "address",
          "name": "_id",
          "type": "address"
        }
      ],
      "name": "getNext",
      "outputs": [
        {
          "internalType": "address",
          "name": "",
          "type": "address"
        }
      ],
      "stateMutability": "view",
      "type": "function"
    },
    {
      "inputs": [
        {
          "internalType": "address",
          "name": "_id",
          "type": "address"
        }
      ],
      "name": "getPrev",
      "outputs": [
        {
          "internalType": "address",
          "name": "",
          "type": "address"
        }
      ],
      "stateMutability": "view",
      "type": "function"
    },
    {
      "inputs": [],
      "name": "getSize",
      "outputs": [
        {
          "internalType": "uint256",
          "name": "",
          "type": "uint256"
        }
      ],
      "stateMutability": "view",
      "type": "function"
    },
    {
      "inputs": [
        {
          "internalType": "address",
          "name": "_id",
          "type": "address"
        },
        {
          "internalType": "uint256",
          "name": "_NICR",
          "type": "uint256"
        },
        {
          "internalType": "address",
          "name": "_prevId",
          "type": "address"
        },
        {
          "internalType": "address",
          "name": "_nextId",
          "type": "address"
        }
      ],
      "name": "insert",
      "outputs": [],
      "stateMutability": "nonpayable",
      "type": "function"
    },
    {
      "inputs": [],
      "name": "isEmpty",
      "outputs": [
        {
          "internalType": "bool",
          "name": "",
          "type": "bool"
        }
      ],
      "stateMutability": "view",
      "type": "function"
    },
    {
      "inputs": [],
      "name": "isFull",
      "outputs": [
        {
          "internalType": "bool",
          "name": "",
          "type": "bool"
        }
      ],
      "stateMutability": "view",
      "type": "function"
    },
    {
      "inputs": [],
      "name": "isOwner",
      "outputs": [
        {
          "internalType": "bool",
          "name": "",
          "type": "bool"
        }
      ],
      "stateMutability": "view",
      "type": "function"
    },
    {
      "inputs": [],
      "name": "owner",
      "outputs": [
        {
          "internalType": "address",
          "name": "",
          "type": "address"
        }
      ],
      "stateMutability": "view",
      "type": "function"
    },
    {
      "inputs": [
        {
          "internalType": "address",
          "name": "_id",
          "type": "address"
        },
        {
          "internalType": "uint256",
          "name": "_newNICR",
          "type": "uint256"
        },
        {
          "internalType": "address",
          "name": "_prevId",
          "type": "address"
        },
        {
          "internalType": "address",
          "name": "_nextId",
          "type": "address"
        }
      ],
      "name": "reInsert",
      "outputs": [],
      "stateMutability": "nonpayable",
      "type": "function"
    },
    {
      "inputs": [
        {
          "internalType": "address",
          "name": "_id",
          "type": "address"
        }
      ],
      "name": "remove",
      "outputs": [],
      "stateMutability": "nonpayable",
      "type": "function"
    },
    {
      "inputs": [
        {
          "internalType": "uint256",
          "name": "_size",
          "type": "uint256"
        },
        {
          "internalType": "address",
          "name": "_troveManagerAddress",
          "type": "address"
        },
        {
          "internalType": "address",
          "name": "_borrowerOperationsAddress",
          "type": "address"
        }
      ],
      "name": "setParams",
      "outputs": [],
      "stateMutability": "nonpayable",
      "type": "function"
    },
    {
      "inputs": [],
      "name": "troveManager",
      "outputs": [
        {
          "internalType": "contract ITroveManager",
          "name": "",
          "type": "address"
        }
      ],
      "stateMutability": "view",
      "type": "function"
    },
    {
      "inputs": [
        {
          "internalType": "uint256",
          "name": "_NICR",
          "type": "uint256"
        },
        {
          "internalType": "address",
          "name": "_prevId",
          "type": "address"
        },
        {
          "internalType": "address",
          "name": "_nextId",
          "type": "address"
        }
      ],
      "name": "validInsertPosition",
      "outputs": [
        {
          "internalType": "bool",
          "name": "",
          "type": "bool"
        }
      ],
      "stateMutability": "view",
      "type": "function"
    }
  ],
  "bytecode": "0x608060405234801561001057600080fd5b50336000806101000a81548173ffffffffffffffffffffffffffffffffffffffff021916908373ffffffffffffffffffffffffffffffffffffffff1602179055503373ffffffffffffffffffffffffffffffffffffffff16600073ffffffffffffffffffffffffffffffffffffffff167f8be0079c531659141344cd1fd0a4f28419497f9722a3daafe3b4186f6b6457e060405160405180910390a3616c3c80620000bc6000396000f3fe608060405234801561001057600080fd5b506004361061014d5760003560e01c8063681fe70c116100c3578063a3f4df7e1161007c578063a3f4df7e1461076a578063b72703ac146107ed578063b7f8cf9b14610871578063babd3d9a146108bb578063de8fa431146108dd578063f376d798146108fb5761014d565b8063681fe70c1461059f57806373d4a13a146105c1578063765e01591461064c5780638da5cb5b146106d05780638f32d59b1461071a578063940a71bc1461073c5761014d565b8063416980dc11610115578063416980dc1461033e57806346f7cf871461041f5780634d622831146104ad578063521de965146104f75780635dbe47e81461052557806363e1d57c146105815761014d565b80631e2231431461015257806329092d0e1461019c5780632be21260146101e05780633d83908a1461026e5780633fce12d5146102b8575b600080fd5b61015a610969565b604051808273ffffffffffffffffffffffffffffffffffffffff1673ffffffffffffffffffffffffffffffffffffffff16815260200191505060405180910390f35b6101de600480360360208110156101b257600080fd5b81019080803573ffffffffffffffffffffffffffffffffffffffff169060200190929190505050610a1a565b005b61026c600480360360808110156101f657600080fd5b81019080803573ffffffffffffffffffffffffffffffffffffffff16906020019092919080359060200190929190803573ffffffffffffffffffffffffffffffffffffffff169060200190929190803573ffffffffffffffffffffffffffffffffffffffff169060200190929190505050610b0a565b005b610276610efa565b604051808273ffffffffffffffffffffffffffffffffffffffff1673ffffffffffffffffffffffffffffffffffffffff16815260200191505060405180910390f35b610324600480360360608110156102ce57600080fd5b8101908080359060200190929190803573ffffffffffffffffffffffffffffffffffffffff169060200190929190803573ffffffffffffffffffffffffffffffffffffffff169060200190929190505050610f20565b604051808215151515815260200191505060405180910390f35b6103aa6004803603606081101561035457600080fd5b8101908080359060200190929190803573ffffffffffffffffffffffffffffffffffffffff169060200190929190803573ffffffffffffffffffffffffffffffffffffffff169060200190929190505050610fdd565b604051808373ffffffffffffffffffffffffffffffffffffffff1673ffffffffffffffffffffffffffffffffffffffff1681526020018273ffffffffffffffffffffffffffffffffffffffff1673ffffffffffffffffffffffffffffffffffffffff1681526020019250505060405180910390f35b6104ab6004803603608081101561043557600080fd5b81019080803573ffffffffffffffffffffffffffffffffffffffff16906020019092919080359060200190929190803573ffffffffffffffffffffffffffffffffffffffff169060200190929190803573ffffffffffffffffffffffffffffffffffffffff16906020019092919050505061109e565b005b6104b5611216565b604051808273ffffffffffffffffffffffffffffffffffffffff1673ffffffffffffffffffffffffffffffffffffffff16815260200191505060405180910390f35b6105236004803603602081101561050d57600080fd5b81019080803590602001909291905050506112c7565b005b6105676004803603602081101561053b57600080fd5b81019080803573ffffffffffffffffffffffffffffffffffffffff1690602001909291905050506112ca565b604051808215151515815260200191505060405180910390f35b6105896113aa565b6040518082815260200191505060405180910390f35b6105a761143b565b604051808215151515815260200191505060405180910390f35b6105c96114ce565b604051808573ffffffffffffffffffffffffffffffffffffffff1673ffffffffffffffffffffffffffffffffffffffff1681526020018473ffffffffffffffffffffffffffffffffffffffff1673ffffffffffffffffffffffffffffffffffffffff16815260200183815260200182815260200194505050505060405180910390f35b61068e6004803603602081101561066257600080fd5b81019080803573ffffffffffffffffffffffffffffffffffffffff16906020019092919050505061152c565b604051808273ffffffffffffffffffffffffffffffffffffffff1673ffffffffffffffffffffffffffffffffffffffff16815260200191505060405180910390f35b6106d861161f565b604051808273ffffffffffffffffffffffffffffffffffffffff1673ffffffffffffffffffffffffffffffffffffffff16815260200191505060405180910390f35b610722611648565b604051808215151515815260200191505060405180910390f35b6107686004803603602081101561075257600080fd5b810190808035906020019092919050505061169f565b005b6107726116a2565b6040518080602001828103825283818151815260200191508051906020019080838360005b838110156107b2578082015181840152602081019050610797565b50505050905090810190601f1680156107df5780820380516001836020036101000a031916815260200191505b509250505060405180910390f35b61082f6004803603602081101561080357600080fd5b81019080803573ffffffffffffffffffffffffffffffffffffffff1690602001909291905050506116db565b604051808273ffffffffffffffffffffffffffffffffffffffff1673ffffffffffffffffffffffffffffffffffffffff16815260200191505060405180910390f35b6108796117ce565b604051808273ffffffffffffffffffffffffffffffffffffffff1673ffffffffffffffffffffffffffffffffffffffff16815260200191505060405180910390f35b6108c36117f4565b604051808215151515815260200191505060405180910390f35b6108e561188b565b6040518082815260200191505060405180910390f35b6109676004803603606081101561091157600080fd5b8101908080359060200190929190803573ffffffffffffffffffffffffffffffffffffffff169060200190929190803573ffffffffffffffffffffffffffffffffffffffff16906020019092919050505061191b565b005b60006109977f0ed62dd8b94c94b935e756847a512e16e0ed1dfc6cf05fc770a1e1d7a55bdb6060001b6112c7565b6109c37ff771af0166bffeca79df67ebf9cf4adc1b3ca4c2f0ac9832bea27eb236e1026660001b6112c7565b6109ef7f6d56022379d7f875a501c9b544efa124bb769523a2d681fa83b94922565cc71860001b6112c7565b600360000160009054906101000a900473ffffffffffffffffffffffffffffffffffffffff16905090565b610a467fa4011f1134e301debef82b8e9d715a1435c45223fe7565a7722af5d17782f9e460001b6112c7565b610a727f5024822f01bf0fb8d28e4c23e24786a715413dcb810ffa1fc6dd9bd1c0ca610d60001b6112c7565b610a9e7f1d8b9fd2cb033a5ecb6361d56b0f3e666abc978507317aee24f3ce03f480906e60001b6112c7565b610aa6611efb565b610ad27f21228493a0cdae15495087ab98102a729235cf2d1542d68f213ba958ed193b6b60001b6112c7565b610afe7f90002cf9cd4edb4823cac3dc4d46c188ac47ada21350b21138f8b3298b3730e760001b6112c7565b610b078161207f565b50565b610b367f2bc8634c6738571f3ed77bb8580889f416ae4ee42e3e45d29d586984f731174e60001b6112c7565b610b627fba95eb3413d5a801adb52c92e0c9c4ac4c9115800ca53cd4d6385d6abb1d888160001b6112c7565b610b8e7ff6f23b4d91f0f5424317ebd9fa8546030b7e35df7585eeb8eb45ea765026734360001b6112c7565b6000600260009054906101000a900473ffffffffffffffffffffffffffffffffffffffff169050610be17f7dc0abf9a377fac983773d8da25c5045eee92fce6d09b2ad7ec4d62cd305d94c60001b6112c7565b610c0d7feb5143d3a05ba0feeef79a7908c9d8392110e2dc13045bd1d09aab238e56671a60001b6112c7565b610c1681612f03565b610c427fd55b47effb3444766c5e851da90c80db55e38f6cd88dfc03a55d6749f0efd80560001b6112c7565b610c6e7f433ef373eb104493d1370cd4fbd035c19a4c695951facd3e140ae25566575dc360001b6112c7565b610c9a7f44eb38198596fa98b6945dbbfab1a750e41521b08d5d6307117e7ff769c10c1e60001b6112c7565b610ca3856112ca565b610cf8576040517f08c379a000000000000000000000000000000000000000000000000000000000815260040180806020018281038252602a815260200180616b3f602a913960400191505060405180910390fd5b610d247f3bba1bb262b972f747b23c2ad50f8fe342413905eec742de16e7d7856a46af1960001b6112c7565b610d507fb33af49695ed0b531e4a39661729f140c41f10f7ec4d8c5f938d71fd9142f11b60001b6112c7565b610d7c7fa09f495af587223c17da9427124ccf8b763b43d1a842ac1d0a4d450cf7afb81360001b6112c7565b610da87fe4b94e5949e9fbb3707dc195cfd882d0784b9071a89287d34642c2db5bb8b5b560001b6112c7565b60008411610e01576040517f08c379a0000000000000000000000000000000000000000000000000000000008152600401808060200182810382526023815260200180616be46023913960400191505060405180910390fd5b610e2d7f744627a7c64c13e775f28da6d77248233cae1ee21fdf86cdfa16707541035a9060001b6112c7565b610e597f3bc8c75cddf4ceb367a845720600dd0d42cd1d707c8a61834cdb1b31a9aa6e2a60001b6112c7565b610e857f7c0e8f43d455ed4caba01485e892aae21c9643afe1e81331d6b4934620c83e0560001b6112c7565b610e8e8561207f565b610eba7fb3f569b9eb7de0870cefb2b57f5cb128ed469b7030172fdd0eb3f2a0a4d7209960001b6112c7565b610ee67ff1934d8c9a9ce66acded43146dada977d19117cc0f75bba84a711edaf4027fbf60001b6112c7565b610ef381868686866130be565b5050505050565b600260009054906101000a900473ffffffffffffffffffffffffffffffffffffffff1681565b6000610f4e7f7141ee66eb21475ee2ac3c6abd7059f8ad699d31279ad9517f79f38a88ce4fc760001b6112c7565b610f7a7fb6c6b7ca1648324074ebc29afce7c5f68b696b16d6d63e125e8058a88bb54bf560001b6112c7565b610fa67ff1a6e86eeeedb6e14631a5c13405cbb1ad4554cd7e779b274c16c8ac0059596d60001b6112c7565b610fd4600260009054906101000a900473ffffffffffffffffffffffffffffffffffffffff168585856145eb565b90509392505050565b60008061100c7f9af660ae1db72ad28b1c838e8d391dea0480dce423f540f590a1d672038b65f060001b6112c7565b6110387f827823c44e6acf501ff6789982eec576aaa598d1028e594f45c05b4d3ce246f960001b6112c7565b6110647fd1b8c6f325b94f0c81f233c66283b852c75815692b31e5a89c4b6c41f93267e760001b6112c7565b611092600260009054906101000a900473ffffffffffffffffffffffffffffffffffffffff16868686614e77565b91509150935093915050565b6110ca7f621603edd5a191d1c63c78bff946d09b7086a66cf5365c58f1c9201d6113228560001b6112c7565b6110f67fd894a26b51bfb23695879a9b85507ff4328e2d6848fc74b263d82d8bee310f7560001b6112c7565b6111227fdf8cf8e7b6148fef7039ed17c80a5488ab607f9ce806c560800d92dde59481b760001b6112c7565b6000600260009054906101000a900473ffffffffffffffffffffffffffffffffffffffff1690506111757f5eef9000911d8ae2511ae1611b8087a7cff75ce4083c33eea06ae28b9c46d29b60001b6112c7565b6111a17f35c87b200bc30d3ad6775fdb8d7cee5b50db7b168d90b93f5011a839d720a79160001b6112c7565b6111aa81612f03565b6111d67f6b47d566e2fd51a5e0aa1e580f50f3edc215e66049c23ef86555d0960ef3deee60001b6112c7565b6112027f3c8cb5278c6d9f97cf82d7185d66b60d2c3b36163f02e1918a818926ada17a9460001b6112c7565b61120f81868686866130be565b5050505050565b60006112447fbc5d7ea56da394701ec6f307972fdbdeacca0aecc891aa3089e7a5bf336b420260001b6112c7565b6112707f65f27e2373727d97988117494a61809f6120165459d3f66c13eb98343ff5dddf60001b6112c7565b61129c7f1ba2dacc36fc571e2f9fbc6914aeed0c9374669a999417cfa548aeb4dfa14c8c60001b6112c7565b600360010160009054906101000a900473ffffffffffffffffffffffffffffffffffffffff16905090565b50565b60006112f87f70afa52fd10df9e6b01d430726053e060ca4d7f6d823d1bc9ae74e93c133232660001b6112c7565b6113247f07ac947f76bf24e2dc685109134ae63aafda0ea6fe89f43769ceec24761f8cb760001b6112c7565b6113507f80f05bcf1c7671aceaffd7ab610945c31187b0b05a7503d698150804e588acd260001b6112c7565b600360040160008373ffffffffffffffffffffffffffffffffffffffff1673ffffffffffffffffffffffffffffffffffffffff16815260200190815260200160002060000160009054906101000a900460ff169050919050565b60006113d87f88aabe481b96d878e9d1838886a7587b32338353b3ade2bf728e6d862341fd1960001b6112c7565b6114047ffa2c4049a40c61ff520a5eafc38341dd28a53db01f1dfb2497baa9c30a861d1060001b6112c7565b6114307fd92d3e2f4f4641eaaff38acbbfb031c860ee467f7694d085bdd68fe8d4ea808f60001b6112c7565b600360020154905090565b60006114697f6e300ae2e085804c59d91b56ac661821437c5ce398cab3fe5aab113a6625dc3b60001b6112c7565b6114957fc683bc2abf143276a6f79042536a4c6f6d4c1cc1001b3a924bdb8536cd2eb7ae60001b6112c7565b6114c17f852c20675cdf0c0a959fafe387c16d531bebb84478c82bde21378013397286eb60001b6112c7565b6000600380015414905090565b60038060000160009054906101000a900473ffffffffffffffffffffffffffffffffffffffff16908060010160009054906101000a900473ffffffffffffffffffffffffffffffffffffffff16908060020154908060030154905084565b600061155a7f628c55ce25fc9bf028f4fb3273a9705edbd85706942a5a9117f26998c9c1d60860001b6112c7565b6115867fb733de0082b8fb6d486a4891ca2c9aeabec3b1f1a03c3579e4a08224852c075460001b6112c7565b6115b27f3d48669796a075301ad528bca74d32c550ee79506f18483ba3680f79099e690a60001b6112c7565b600360040160008373ffffffffffffffffffffffffffffffffffffffff1673ffffffffffffffffffffffffffffffffffffffff16815260200190815260200160002060000160019054906101000a900473ffffffffffffffffffffffffffffffffffffffff169050919050565b60008060009054906101000a900473ffffffffffffffffffffffffffffffffffffffff16905090565b60008060009054906101000a900473ffffffffffffffffffffffffffffffffffffffff1673ffffffffffffffffffffffffffffffffffffffff163373ffffffffffffffffffffffffffffffffffffffff1614905090565b50565b6040518060400160405280600c81526020017f536f7274656454726f766573000000000000000000000000000000000000000081525081565b60006117097f46c3e510143b97710dfc4321320b68df0e8c5702c8d743decded00fa7b8bd40860001b6112c7565b6117357fee0bef108f414f2daeb5228f46fee1311a2d5bb3b825d23ccb188f099c35636860001b6112c7565b6117617f7db46db60779dbf0461d8fd0100a24d7f9f1d4afc92b9fa43502ae1b974d100e60001b6112c7565b600360040160008373ffffffffffffffffffffffffffffffffffffffff1673ffffffffffffffffffffffffffffffffffffffff16815260200190815260200160002060010160009054906101000a900473ffffffffffffffffffffffffffffffffffffffff169050919050565b600160009054906101000a900473ffffffffffffffffffffffffffffffffffffffff1681565b60006118227f190ecb8854d70bd5f4ada6a93fb046c6da4b4a79024fa0451867d053f5c3551f60001b6112c7565b61184e7f3df98f69c51069c22429394d0f842ba9661961248e712e829b0fc332aeb914e860001b6112c7565b61187a7f82d1764774302120247f29881d6485f9f1b57a92047a10510d9ae712e32cdef860001b6112c7565b600360020154600380015414905090565b60006118b97f426028032f4e9c41f8b54a611018c84402fbbcd2e0ad6a5ec10648f68377724860001b6112c7565b6118e57f7ca71df0e13f8e7204ebfc7b54d54cdf75a6fcc1068b7ff8b8d013634a8c53ea60001b6112c7565b6119117fe78bf4d4a17dea24b17c465127fbceef1e9e9ca47f6907262f7636cd5d50bd1e60001b6112c7565b6003800154905090565b611923611648565b611995576040517f08c379a00000000000000000000000000000000000000000000000000000000081526004018080602001828103825260208152602001807f4f776e61626c653a2063616c6c6572206973206e6f7420746865206f776e657281525060200191505060405180910390fd5b6119c17f85f94b24deb0688443d4dd14a482b7c8279abb9d8e64bca9ae60624fb5545cad60001b6112c7565b6119ed7faac2968f67f6887f1a93745959a2a8e4af3711ed31ef324bb7b80b76a825708260001b6112c7565b611a197fa31eb29676bc86bb5316a08e7fab7363fb1c81e802fd29040179b3a9ba35732d60001b6112c7565b611a457f8b2cd6987ad8571a24ea425c178784ae7b584a4eaf924d43ea98ba263f20fa2460001b6112c7565b60008311611a9e576040517f08c379a0000000000000000000000000000000000000000000000000000000008152600401808060200182810382526022815260200180616b696022913960400191505060405180910390fd5b611aca7fdc669ac4ebcc6435a71cebe4160201cfd11592e2e116b5f1cbbe4c1590456c3660001b6112c7565b611af67fe1e1b2b82830f44916d7afefb2ab41335c8ec107f4a4235ba59ea179e92df18460001b6112c7565b611b227fbaacb3f28edcbb827b30f514c0614a6c1cd524e4c646dd4da45f623d69f07b1e60001b6112c7565b611b2b82615969565b611b577f5ff93d651bf7f045a70934f99dc55105a1d50bd23e836b077a0713b3cd299b9d60001b6112c7565b611b837fc4e17491e6bb4f1686e2364e9c7370b06ae487bf279309fe94a26118a26a1fa760001b6112c7565b611b8c81615969565b611bb87f8aa197ec5e494fbca24cf5175f4930bab18648d3cb93724e8be255c551b9395860001b6112c7565b611be47fbfa5e19c5703a1f86c9762cf34b6e0642cbcd355471ae19e94b93d83e0fdc0e160001b6112c7565b82600360020181905550611c1a7f5aa2afec0fd40ec387a3a9b049ded94ade369ffd0771cf954976ee3dbfb0394360001b6112c7565b611c467f2f8ac28bc97747343b75479b2566c33c15f981da78b093bbc6d042b7b840ad1060001b6112c7565b81600260006101000a81548173ffffffffffffffffffffffffffffffffffffffff021916908373ffffffffffffffffffffffffffffffffffffffff160217905550611cb37f7d310eb1793d299e49f144bdc020f3c7b1c059731fec235554ee439ea7b5598e60001b6112c7565b611cdf7f5a31bc30ce689f77ca89e7a6c1c1d203e9302f556f9c2bb0efcbc6006e8a649c60001b6112c7565b80600160006101000a81548173ffffffffffffffffffffffffffffffffffffffff021916908373ffffffffffffffffffffffffffffffffffffffff160217905550611d4c7ff75498a0653fef520aa382f92ab39633872b78a41cd9844be2e644379a4b975c60001b6112c7565b611d787f7518714ba438bf98cc054a6b6305c1bf8fd8e1388ebc655c183a5c7f889f2a0c60001b6112c7565b7f143219c9e69b09e07e095fcc889b43d8f46ca892bba65f08dc3a0050869a567882604051808273ffffffffffffffffffffffffffffffffffffffff1673ffffffffffffffffffffffffffffffffffffffff16815260200191505060405180910390a1611e077fb7bc56da68692a30ae76a37dfab601fa3241ff9d10fd789a4db399f4708a44fa60001b6112c7565b611e337f1154ed361ca8b63ef4c4f2dade81ef138cc5486e192a1c6e8d1f0df8e7ffa8c060001b6112c7565b7f3ca631ffcd2a9b5d9ae18543fc82f58eb4ca33af9e6ab01b7a8e95331e6ed98581604051808273ffffffffffffffffffffffffffffffffffffffff1673ffffffffffffffffffffffffffffffffffffffff16815260200191505060405180910390a1611ec27f27a68b3afea8ba83760e70866fb0ba1ca44da98754b938f88b5a71525e0112b760001b6112c7565b611eee7f477de5bf91c1985fc7e9e5410870449f19129d940a3b57073ac971a805fb30af60001b6112c7565b611ef6615c9c565b505050565b611f277f5d13c636479b208a78ce86d40c03e8dd2dd4a6c098c876a3a4d0244e364842b460001b6112c7565b611f537f9e92ee2927b16c96ab6e9b542f2a0039b9e78d9eb93e0f8973d23b93398c320e60001b6112c7565b611f7f7f37e7aea7bb3e724d2f4417cb1085cd4c0da556c4053b2ded3cd21857e5718a5f60001b6112c7565b611fab7f5c3947e6718e281f5c37839e561c1370fb8481343952461b010664e6f890648460001b6112c7565b600260009054906101000a900473ffffffffffffffffffffffffffffffffffffffff1673ffffffffffffffffffffffffffffffffffffffff163373ffffffffffffffffffffffffffffffffffffffff1614612051576040517f08c379a000000000000000000000000000000000000000000000000000000000815260040180806020018281038252602c815260200180616b8b602c913960400191505060405180910390fd5b61207d7f4ba1a159637eb0f80ad61151bc6a5e4d8676dda0a6be6f96fcbb2be391cb211560001b6112c7565b565b6120ab7fc4fda6f495179f32780fdad1fd3e9446712d1948741f40cb823533909018383b60001b6112c7565b6120d77f0289f53438351fa5e39245c2d2ad6ff8d8d3ea3bb88ab9314820fb7750448cec60001b6112c7565b6121037f756bff290f45c7248d7ec35aed5cc57906c5bf659b1ca8c0a9b4284183f331cf60001b6112c7565b61212f7f3087afae03220ca26bffe879af7c6c3aa17f6ddb59ab6b7c0f0574843966940860001b6112c7565b612138816112ca565b61218d576040517f08c379a000000000000000000000000000000000000000000000000000000000815260040180806020018281038252602a815260200180616b3f602a913960400191505060405180910390fd5b6121b97f11bcc8169dbf2e2e03a34b4af0953438d046aca8f0f689f4e461047873d73ac660001b6112c7565b6121e57fb0d1502c344b7478fbcd998d17b13e1908ee781ab7d59b2eb9dc9776c6b4ab7660001b6112c7565b6122117fe90a1e774b6391cf6cfd21b88f2b789014acc3ce190361c0223b260c919c4e9c60001b6112c7565b600160038001541115612b935761224a7f4900d1be59bb17192b1a29478d9e7b687d140bb8847780c474e3961ffe061cb660001b6112c7565b6122767f5b3610256e5c7625870e84c6e901e6b702cdaf5d29b94dd1629e3e881270297260001b6112c7565b6122a27f40e53a03fd34b8ecbafada94da065d49922d71768bbb59ce64b03861a069e7c760001b6112c7565b600360000160009054906101000a900473ffffffffffffffffffffffffffffffffffffffff1673ffffffffffffffffffffffffffffffffffffffff168173ffffffffffffffffffffffffffffffffffffffff16141561252f576123277f38234ab6fce160d7a28a8e6dc648fe0b92eaff67b4fb0c59b4fc58b0666f4d8760001b6112c7565b6123537f6cdb6f1822c36d6a59c54135908202bd32d8533af4d34f2c9c1ad8be64aeaf2a60001b6112c7565b61237f7f98c7367e1ec84d61a05934cfead271fce76563f10787300c2726ccb3b3bc6bb660001b6112c7565b600360040160008273ffffffffffffffffffffffffffffffffffffffff1673ffffffffffffffffffffffffffffffffffffffff16815260200190815260200160002060000160019054906101000a900473ffffffffffffffffffffffffffffffffffffffff16600360000160006101000a81548173ffffffffffffffffffffffffffffffffffffffff021916908373ffffffffffffffffffffffffffffffffffffffff1602179055506124547fabc0b67cf8c506d2b452e9515814ff95298f093d29653f245e02467a2e5ad8d260001b6112c7565b6124807f8fab3f8a6068e33cbf95bc00503fe4308cbaefef8f13fb3c11990d0f846ab4a660001b6112c7565b600060036004016000600360000160009054906101000a900473ffffffffffffffffffffffffffffffffffffffff1673ffffffffffffffffffffffffffffffffffffffff1673ffffffffffffffffffffffffffffffffffffffff16815260200190815260200160002060010160006101000a81548173ffffffffffffffffffffffffffffffffffffffff021916908373ffffffffffffffffffffffffffffffffffffffff160217905550612b8e565b61255b7fd9c7ed182b0521985c6386d4f43f6c8a2cb05aa426651def6b8fa4514353478260001b6112c7565b6125877f82a611bdbfccf5eeba68c0aaf146ec9d5dcbcc279594e0f22821f772995d8a3560001b6112c7565b600360010160009054906101000a900473ffffffffffffffffffffffffffffffffffffffff1673ffffffffffffffffffffffffffffffffffffffff168173ffffffffffffffffffffffffffffffffffffffff1614156128145761260c7fa5afd0f7f8df1f1ae672cebf3bca0eca03f5de838669738a89c9e2c964d8013560001b6112c7565b6126387f56b1fcc3d65bfb77bdd4f1d380bf56bcc63e59311c271f1a20a522f31411a46960001b6112c7565b6126647f25a2c82dd5a0d6d9b080d6ff8246d12949d3e9664f63e1adb2f27ff37b5cab1860001b6112c7565b600360040160008273ffffffffffffffffffffffffffffffffffffffff1673ffffffffffffffffffffffffffffffffffffffff16815260200190815260200160002060010160009054906101000a900473ffffffffffffffffffffffffffffffffffffffff16600360010160006101000a81548173ffffffffffffffffffffffffffffffffffffffff021916908373ffffffffffffffffffffffffffffffffffffffff1602179055506127397f91da91ccea59a4d5c56d5d8c6cff9da80d4068d1051c0679d6671ad193fa8abc60001b6112c7565b6127657fcd929fa9aac54042ae569f8882f48689c8dbc41abdeeb71ebf30cb85784405b860001b6112c7565b600060036004016000600360010160009054906101000a900473ffffffffffffffffffffffffffffffffffffffff1673ffffffffffffffffffffffffffffffffffffffff1673ffffffffffffffffffffffffffffffffffffffff16815260200190815260200160002060000160016101000a81548173ffffffffffffffffffffffffffffffffffffffff021916908373ffffffffffffffffffffffffffffffffffffffff160217905550612b8d565b6128407f7ec3431cd151f8fae1fe4fd15890df5e5d2f0ea1231027fae0d319dc9d01bc3960001b6112c7565b61286c7fb67743c9e03629f904602682a3a00c1cd2097d957f09c89cf5a80230f3091c6860001b6112c7565b6128987f7a711d48998e2e0438e5260b0132da7dd4e383a0357953ea3b9a185b3cb633cf60001b6112c7565b600360040160008273ffffffffffffffffffffffffffffffffffffffff1673ffffffffffffffffffffffffffffffffffffffff16815260200190815260200160002060000160019054906101000a900473ffffffffffffffffffffffffffffffffffffffff1660036004016000600360040160008573ffffffffffffffffffffffffffffffffffffffff1673ffffffffffffffffffffffffffffffffffffffff16815260200190815260200160002060010160009054906101000a900473ffffffffffffffffffffffffffffffffffffffff1673ffffffffffffffffffffffffffffffffffffffff1673ffffffffffffffffffffffffffffffffffffffff16815260200190815260200160002060000160016101000a81548173ffffffffffffffffffffffffffffffffffffffff021916908373ffffffffffffffffffffffffffffffffffffffff160217905550612a127ff2c43077a58a5a39e7cc9c49776349c136e414536f6b127b11b61bb709c54cf760001b6112c7565b612a3e7f84297cc2c9b496aad30c393ad1b9895f9a02d46760458e29575d2c13e576f59760001b6112c7565b600360040160008273ffffffffffffffffffffffffffffffffffffffff1673ffffffffffffffffffffffffffffffffffffffff16815260200190815260200160002060010160009054906101000a900473ffffffffffffffffffffffffffffffffffffffff1660036004016000600360040160008573ffffffffffffffffffffffffffffffffffffffff1673ffffffffffffffffffffffffffffffffffffffff16815260200190815260200160002060000160019054906101000a900473ffffffffffffffffffffffffffffffffffffffff1673ffffffffffffffffffffffffffffffffffffffff1673ffffffffffffffffffffffffffffffffffffffff16815260200190815260200160002060010160006101000a81548173ffffffffffffffffffffffffffffffffffffffff021916908373ffffffffffffffffffffffffffffffffffffffff1602179055505b5b612cfa565b612bbf7f366beb3569e9d994c89f121a99e3442f20746f06e5837aee1f7f2b59a155c51960001b6112c7565b612beb7fb90a8432f24efa02a87761b86bd161ed08465f17a821f132c8cfa528bec7630d60001b6112c7565b612c177f1f51c4189833987b40ba5dc5c0c402ad03b208f4f14f9ce8b48ce245c8d35a6160001b6112c7565b6000600360000160006101000a81548173ffffffffffffffffffffffffffffffffffffffff021916908373ffffffffffffffffffffffffffffffffffffffff160217905550612c887f9eba484625632cd1571eebcf7218551d1cf840a42de8875cbab0222d4cb8374c60001b6112c7565b612cb47fc25efe48df193c8d2819877a12f55fe9821e11ac123fabd6e4d8ae0a26f7416460001b6112c7565b6000600360010160006101000a81548173ffffffffffffffffffffffffffffffffffffffff021916908373ffffffffffffffffffffffffffffffffffffffff1602179055505b612d267ffcc73c39ab0770907a0e47df819808de761ff14956d4b3199d1bd43868a2134160001b6112c7565b600360040160008273ffffffffffffffffffffffffffffffffffffffff1673ffffffffffffffffffffffffffffffffffffffff168152602001908152602001600020600080820160006101000a81549060ff02191690556000820160016101000a81549073ffffffffffffffffffffffffffffffffffffffff02191690556001820160006101000a81549073ffffffffffffffffffffffffffffffffffffffff02191690555050612df97f366157b99d36af84becfb3180c6e24fbbc73c7d0f114f6718ea1777f98ee41cd60001b6112c7565b612e257f685416898e71433f7f2c6905b36db3db315c374f4b5fdfd47fbe66f362913b6d60001b6112c7565b612e3d60016003800154615d5b90919063ffffffff16565b6003800181905550612e717f8f37c9ecb7a1adeb79bba12718608d46caae0567ae13fa90d9dabc7892e960c560001b6112c7565b612e9d7f08cff672cca3bd09f695110f07cf1b362592a9c48a31b188374d8812b35caf7f60001b6112c7565b7fcfc24166db4bb677e857cacabd1541fb2b30645021b27c5130419589b84db52b81604051808273ffffffffffffffffffffffffffffffffffffffff1673ffffffffffffffffffffffffffffffffffffffff16815260200191505060405180910390a150565b612f2f7ff698273974ec2674f32672b7ac1aee060261ca9b57699f0e626a3f8263967ae460001b6112c7565b612f5b7fc2f68a7c8fb7f5ddf89120d33c41e7b2c586fd09e21e5a1cd90ac3c216180c3c60001b6112c7565b612f877f7ff744b3b292324256077ebfbd73d2670fe70fb516edb6ef58feb1f3533726bf60001b6112c7565b612fb37fdb5e2e173c297f81bf99557780825a8af041a69e80af456e20664994116da4d060001b6112c7565b600160009054906101000a900473ffffffffffffffffffffffffffffffffffffffff1673ffffffffffffffffffffffffffffffffffffffff163373ffffffffffffffffffffffffffffffffffffffff16148061303a57508073ffffffffffffffffffffffffffffffffffffffff163373ffffffffffffffffffffffffffffffffffffffff16145b61308f576040517f08c379a000000000000000000000000000000000000000000000000000000000815260040180806020018281038252602d815260200180616bb7602d913960400191505060405180910390fd5b6130bb7fc93d20bcfa915cd2bea627456b240c659ebcba8dbbfeac93dee1bff17a8a1f3c60001b6112c7565b50565b6130ea7f499d4b4c49524c556fbe7d4005d11340068250f3dfc5b218f3a87c5ef4715d8260001b6112c7565b6131167f38042e73edc8eaa2863a51dbb4317a4f4e3f5c74e6f7981439e4346893802e2260001b6112c7565b6131427f1bf08b1cc564be7328f375639cee0087e0b259aa000b61eef03b2bf87aa219fa60001b6112c7565b61316e7f6d2179f48f052a2aec32f9be1eea1af4ff34370a2f79b99f0816857df3ba821860001b6112c7565b6131766117f4565b156131e9576040517f08c379a000000000000000000000000000000000000000000000000000000000815260040180806020018281038252601a8152602001807f536f7274656454726f7665733a204c6973742069732066756c6c00000000000081525060200191505060405180910390fd5b6132157f99087ba2decbdcb661b638a41bf50ffb19c966befd0b48af4bedd13cb5554c1560001b6112c7565b6132417f24a6dbe37d8b8d4d54d93bf04598fb3989873fbe55532f9dd722d3a6e517c85860001b6112c7565b61326d7fe2e88efb5e5615a78053ca9a61d9e4c7fb232e4e2d677ed41c52497f97acdb3d60001b6112c7565b6132997f2f7c01ca649037068f224fc67aba9e5ee599fa0b6b42604b6f3b80d38e67af6260001b6112c7565b6132a2846112ca565b156132f8576040517f08c379a000000000000000000000000000000000000000000000000000000000815260040180806020018281038252602c815260200180616b13602c913960400191505060405180910390fd5b6133247f6e21ef01a494dc210c0d130af953b54e0dadaaf481ae98eb5d2bc30d208917eb60001b6112c7565b6133507fdea03fbc34beb9efc8fef37be2e2150bb61107f5bd5e086fade73525432757ac60001b6112c7565b61337c7f3e4a515456f2d6135f20cb80ba1ad5f7d3ce246689a4bfd51955b3b3a2e90dde60001b6112c7565b6133a87f22dc6fad89daca89c1395ae78baf1c4292decf42ab634bac04d62a766c93b02a60001b6112c7565b600073ffffffffffffffffffffffffffffffffffffffff168473ffffffffffffffffffffffffffffffffffffffff16141561344b576040517f08c379a000000000000000000000000000000000000000000000000000000000815260040180806020018281038252601f8152602001807f536f7274656454726f7665733a2049642063616e6e6f74206265207a65726f0081525060200191505060405180910390fd5b6134777fd4fad360b178db99938e8968a448b1807902841c2de9cd177be4e649121499b660001b6112c7565b6134a37f9dfbc076cdfc73b412449f796fad36933faf152d0c72b081a017353af22065f860001b6112c7565b6134cf7fb72e8b5ad00caee2492d3231d4ce8521cf6edcd3d19dea5639d82ca44b1d54e760001b6112c7565b6134fb7f94cb7ca466918a29146493aa249c053c93bcebf80205145fa55559a40a43734a60001b6112c7565b60008311613554576040517f08c379a0000000000000000000000000000000000000000000000000000000008152600401808060200182810382526023815260200180616be46023913960400191505060405180910390fd5b6135807fa0873f07e33e8956b3788d143745c960f8f0f36fd98f21f4cfd191295e466d3660001b6112c7565b6135ac7f3d06333f9f052aef930cc3c460d6965095bdead21021aa18499b2c6bd0f9ca9460001b6112c7565b6135d87f0c624472e724046bc0dee4a5e4934bf5ba6132fd7b7aba151905f6e67bfc6ea860001b6112c7565b60008290506136097fb751edda11bb42d7df25f92497666f0412154cc6fea5111464b77e1339134d1060001b6112c7565b6136357f475f9d40079062878386ee19d2b342a23e1dc307944bee2f7e11f42b6bf1fd7b60001b6112c7565b60008290506136667fd526946599adc192559ceea6cfe26434c87bc27cc88c7a461ef08e43897f831c60001b6112c7565b6136927fe87cc0e77977a5187bf1ca6375b59454dc5a973b633be2fa3ca2f50cfc66b41660001b6112c7565b61369e878684846145eb565b61373f576136ce7f754896b75a46503b8b90edcaf93b346357478910ff3c969a51a73ea00c666a4260001b6112c7565b6136fa7f8c08ce231a4aa84f6df7c06101308a3a44d840e6bd66dae734def0a7228ecb9760001b6112c7565b6137267fd141bec061142b5e9b92a7d4597f6a6f93978a5c3913ba0fee62b64efc2eaace60001b6112c7565b61373287868484614e77565b809250819350505061376c565b61376b7f97ff931af7df10be13a7484e1700a8fd8760046c97bdd1082aacff17e99b06c760001b6112c7565b5b6137987f297bd6a1707d03ad3e7f1e834f3c03a24e9605c989e73c405c60cd76324e68f360001b6112c7565b6137c47f03d8c87b0b0b3330de446b1bfaa4606d43b02748063c99d37ed2ba7049e0e8d460001b6112c7565b6001600360040160008873ffffffffffffffffffffffffffffffffffffffff1673ffffffffffffffffffffffffffffffffffffffff16815260200190815260200160002060000160006101000a81548160ff02191690831515021790555061384e7faf25f4e66d0680b0cc1f563635828ef1fe04f02259c8eccfa44afa4f8bbf491960001b6112c7565b61387a7fdfba23fc6a2dd38a87982351359b39c08bf23b52f5970885f1c7a4e1aa5c43e060001b6112c7565b600073ffffffffffffffffffffffffffffffffffffffff168273ffffffffffffffffffffffffffffffffffffffff161480156138e25750600073ffffffffffffffffffffffffffffffffffffffff168173ffffffffffffffffffffffffffffffffffffffff16145b15613a50576139137fabab3051280bc8ae5c9dcf379dd5f6bb6f05bf245f9ff4af63d1aa9752c3de6960001b6112c7565b61393f7f332bc2bfa639a1bd25849bb25514dc230a27a956bfeeb47048b10cfb681a03ad60001b6112c7565b61396b7fff4ffcfdf66296603dfeafea5ce7a80f893f8e9ec45a74387c13124d9167e52360001b6112c7565b85600360000160006101000a81548173ffffffffffffffffffffffffffffffffffffffff021916908373ffffffffffffffffffffffffffffffffffffffff1602179055506139db7f0bb732a26b0fc5db5459af19835f08091ac72af9cf430344ab6036de8d41868960001b6112c7565b613a077f5cb7322234ec53a21ab5d878d65eab9ee24aba41a6e3a373ef7bd1b7898b63fc60001b6112c7565b85600360010160006101000a81548173ffffffffffffffffffffffffffffffffffffffff021916908373ffffffffffffffffffffffffffffffffffffffff1602179055506144a7565b613a7c7f7480175f69181dcee1a4217fff8b50b58b8c9609d042e38e736eb96ba8f7a64160001b6112c7565b613aa87f3bcf6ab25fbe6353d954d2672fdf5582e206bc8a54ed284ad905efb77487e06460001b6112c7565b600073ffffffffffffffffffffffffffffffffffffffff168273ffffffffffffffffffffffffffffffffffffffff161415613dac57613b097f7dce5dc7a79743f48e262cfd39d00b1c46fd0175afbaf7670005f9590dac56e760001b6112c7565b613b357f8174a77477be83fad2a01ac421159cdd82a0411e960c194519a41decf5c9744560001b6112c7565b613b617fd0b66469b88b9475a6c8456c363ddc2c9c8bfedfbbc4155e37c77da057f21e5760001b6112c7565b600360000160009054906101000a900473ffffffffffffffffffffffffffffffffffffffff16600360040160008873ffffffffffffffffffffffffffffffffffffffff1673ffffffffffffffffffffffffffffffffffffffff16815260200190815260200160002060000160016101000a81548173ffffffffffffffffffffffffffffffffffffffff021916908373ffffffffffffffffffffffffffffffffffffffff160217905550613c367fa6cd4e9c12b3972bba05f2d7ee93dddf1990de36101c96c678a61f799f17d49f60001b6112c7565b613c627fe5c02df13d3cac9ec83bc4b70aed38d1b963dea22b56ea39b7897fb66794ffba60001b6112c7565b8560036004016000600360000160009054906101000a900473ffffffffffffffffffffffffffffffffffffffff1673ffffffffffffffffffffffffffffffffffffffff1673ffffffffffffffffffffffffffffffffffffffff16815260200190815260200160002060010160006101000a81548173ffffffffffffffffffffffffffffffffffffffff021916908373ffffffffffffffffffffffffffffffffffffffff160217905550613d377f2ffc34b5c487047748a065947b9e6bc8d8d262debabe0f6feb2c6c2ec4d1e57f60001b6112c7565b613d637f6399f5eddaeab523fb5e418cf6c26e97634d3accafbfe8111de5b42ea4bcb59e60001b6112c7565b85600360000160006101000a81548173ffffffffffffffffffffffffffffffffffffffff021916908373ffffffffffffffffffffffffffffffffffffffff1602179055506144a6565b613dd87f487fa80eaa89ee03efdc5f7902c137d0c03ced8deb9c0179c8af6c2d2e0b50e260001b6112c7565b613e047fb50de85ffe57aeaa405f969429407b8899907df2cfef4f200c95c9b4fa1b9dfb60001b6112c7565b600073ffffffffffffffffffffffffffffffffffffffff168173ffffffffffffffffffffffffffffffffffffffff16141561410857613e657fb18e36751c085141e7c850120019cb1567b9559f29981824f94548f268df6b9360001b6112c7565b613e917fb307de516de4c49b536de75c29ddbfd975f291c33fa8a07894b843285336843860001b6112c7565b613ebd7f8374a56dcf2c837970ad46652dc571bc9140399a977b503f1c7eba26180ebc0c60001b6112c7565b600360010160009054906101000a900473ffffffffffffffffffffffffffffffffffffffff16600360040160008873ffffffffffffffffffffffffffffffffffffffff1673ffffffffffffffffffffffffffffffffffffffff16815260200190815260200160002060010160006101000a81548173ffffffffffffffffffffffffffffffffffffffff021916908373ffffffffffffffffffffffffffffffffffffffff160217905550613f927f8157259cfaf836556adf34b51706c2bc86c02ac2e9b2beedafa0f4221a3903ca60001b6112c7565b613fbe7f4ac8a7b0c980a27ed9809ccd777e258ec88e460bf462f111b2031336d040270860001b6112c7565b8560036004016000600360010160009054906101000a900473ffffffffffffffffffffffffffffffffffffffff1673ffffffffffffffffffffffffffffffffffffffff1673ffffffffffffffffffffffffffffffffffffffff16815260200190815260200160002060000160016101000a81548173ffffffffffffffffffffffffffffffffffffffff021916908373ffffffffffffffffffffffffffffffffffffffff1602179055506140937f5470fa718dc51d457104f930148a1dd16064a03bfb42dcec4e9b69d7281b88dc60001b6112c7565b6140bf7f161cf1dc7eedfd7a64c28ce4975903e16fd26f0e8a16d022c5467d4bde0a191d60001b6112c7565b85600360010160006101000a81548173ffffffffffffffffffffffffffffffffffffffff021916908373ffffffffffffffffffffffffffffffffffffffff1602179055506144a5565b6141347f040ef7fc115444c4efca44a1d914c36c14329dfc44f2bb91be06bb37bc38a40160001b6112c7565b6141607f0dfc26e7a51f87c8465c8e8880950632b90a5183d08942ecabcc5d5f1e5387b760001b6112c7565b61418c7fe70e6c1d2b888079fee8adf566cf20748d1de9850ede1f4d32d5da77c2d905a460001b6112c7565b80600360040160008873ffffffffffffffffffffffffffffffffffffffff1673ffffffffffffffffffffffffffffffffffffffff16815260200190815260200160002060000160016101000a81548173ffffffffffffffffffffffffffffffffffffffff021916908373ffffffffffffffffffffffffffffffffffffffff16021790555061423c7f0a5fa128a3f87edd6a1cd7a96736f42fe29f78330647ead0d5bbc0b4c01bd7a660001b6112c7565b6142687fe1eab090aaaf9df6a8fd792bb804de3f2331ce4985d8e200cba31d3fa594240c60001b6112c7565b81600360040160008873ffffffffffffffffffffffffffffffffffffffff1673ffffffffffffffffffffffffffffffffffffffff16815260200190815260200160002060010160006101000a81548173ffffffffffffffffffffffffffffffffffffffff021916908373ffffffffffffffffffffffffffffffffffffffff1602179055506143187f807e37fd6478f633534b3295edbd36a84c4b42ae1734b3f1949efefd42f38e8260001b6112c7565b6143447fa31ec8499746610d5bdc999c33b14673dd70650c9909aeb01531d969e2a7749e60001b6112c7565b85600360040160008473ffffffffffffffffffffffffffffffffffffffff1673ffffffffffffffffffffffffffffffffffffffff16815260200190815260200160002060000160016101000a81548173ffffffffffffffffffffffffffffffffffffffff021916908373ffffffffffffffffffffffffffffffffffffffff1602179055506143f47f636e698c2c2c13b9a8023275c29ce9063c1e4706e2395239bf32c0466fbeccfe60001b6112c7565b6144207f4b436d793f07924dc0d6ad889b7073716e6cd472c8eda0a870bb1916277adabd60001b6112c7565b85600360040160008373ffffffffffffffffffffffffffffffffffffffff1673ffffffffffffffffffffffffffffffffffffffff16815260200190815260200160002060010160006101000a81548173ffffffffffffffffffffffffffffffffffffffff021916908373ffffffffffffffffffffffffffffffffffffffff1602179055505b5b5b6144d37f6861c20bc7ae0e9c2f6c6a318e19367e0e1a0254267408bf42b6aa2ac97d23eb60001b6112c7565b6144ff7f2da327dbdf2014b1df28bc0f3a71fe3110dee991cf26ddedf78cc08d25b98c1a60001b6112c7565b61451760016003800154615da590919063ffffffff16565b600380018190555061454b7f19faad97d0e1ef102b6f1d47214b8d4b1adcfec995d371d4c6994b34f134e75160001b6112c7565b6145777fe9498fe730ed435971f34f28571dba16a5eae2c1a17a9568b5f8549ef122361260001b6112c7565b7fe02b43adbee0c123de070a04554a71877a0007e2fc161466299cae3c094fe82f8686604051808373ffffffffffffffffffffffffffffffffffffffff1673ffffffffffffffffffffffffffffffffffffffff1681526020018281526020019250505060405180910390a150505050505050565b60006146197f424eb48df86d17053b64911857b84e814ee60bcf69eb4b10118ae96458fbb8bd60001b6112c7565b6146457f600d5bc392361928614b76625aa0d86e1e98b20df127afebc2ba0f0c596a98ac60001b6112c7565b6146717f555b2e54fc0aa6799895f3e63bee7253903290d580932ad5f9df9570725d34ec60001b6112c7565b600073ffffffffffffffffffffffffffffffffffffffff168373ffffffffffffffffffffffffffffffffffffffff161480156146d95750600073ffffffffffffffffffffffffffffffffffffffff168273ffffffffffffffffffffffffffffffffffffffff16145b156147715761470a7fcd3593d33fa74b90ef9e8eae238c5af90968a7048ae0366dde4c0bf960e0f39460001b6112c7565b6147367fee6d832a7a7fb94213f8cec1eb4c276d7f7e324b54052eeb2d5e55d6f9c6106260001b6112c7565b6147627f8e7b407a870d156f8fb80f980383b3a5a1104b17efe014d6469fd564e3dac5cb60001b6112c7565b61476a61143b565b9050614e6f565b61479d7f790873620f348b319de67faee3832ba6bb35b1db77a9c4be203350b8e848bbfd60001b6112c7565b6147c97f41d3baf10913cce389bff4e207168ac2bd6249aa2849e8f926f3bae36ab051e160001b6112c7565b600073ffffffffffffffffffffffffffffffffffffffff168373ffffffffffffffffffffffffffffffffffffffff1614156149a05761482a7fd71222260efbd7d0761ea5ace46f6ba03de34c733ed352133034f2eaa72b36c560001b6112c7565b6148567fc171938e5f19aac599e5a3df774276ef48b2d12f6d036140b4d71e07be7c0ddd60001b6112c7565b6148827f3f7ecabca983a9c5535000e5f8feaceaa6c41fd670fb6f0f3e44e73fda10272a60001b6112c7565b8173ffffffffffffffffffffffffffffffffffffffff16600360000160009054906101000a900473ffffffffffffffffffffffffffffffffffffffff1673ffffffffffffffffffffffffffffffffffffffff1614801561499957508473ffffffffffffffffffffffffffffffffffffffff1663b0d8e181836040518263ffffffff1660e01b8152600401808273ffffffffffffffffffffffffffffffffffffffff1673ffffffffffffffffffffffffffffffffffffffff16815260200191505060206040518083038186803b15801561495a57600080fd5b505afa15801561496e573d6000803e3d6000fd5b505050506040513d602081101561498457600080fd5b81019080805190602001909291905050508410155b9050614e6f565b6149cc7fc2da3a20cfb69ac01e11ceef94359d6b4fc28ba603132f890cbe5cd35df647f060001b6112c7565b6149f87f228795f5600d527d39b77de5087eb72ddd5ccd9a3d1120854ac9c8e24dfab56b60001b6112c7565b600073ffffffffffffffffffffffffffffffffffffffff168273ffffffffffffffffffffffffffffffffffffffff161415614bce57614a587eddee108efec07546ab8843c812d958342750e1095f4dd07b5c32d65edcf7b960001b6112c7565b614a847f62172c784daba832eedf2680476c620f05a059269b405e638c1005f7a518371f60001b6112c7565b614ab07fbbf39e4cf8ce941791bd668f14faa149b8ab599c8773150dee291e9de3c51cb460001b6112c7565b8273ffffffffffffffffffffffffffffffffffffffff16600360010160009054906101000a900473ffffffffffffffffffffffffffffffffffffffff1673ffffffffffffffffffffffffffffffffffffffff16148015614bc757508473ffffffffffffffffffffffffffffffffffffffff1663b0d8e181846040518263ffffffff1660e01b8152600401808273ffffffffffffffffffffffffffffffffffffffff1673ffffffffffffffffffffffffffffffffffffffff16815260200191505060206040518083038186803b158015614b8857600080fd5b505afa158015614b9c573d6000803e3d6000fd5b505050506040513d6020811015614bb257600080fd5b81019080805190602001909291905050508411155b9050614e6f565b614bfa7f0666f32e4ff9a3330c9b2f51304251d4f2e4853b96d54c425b3df6fcf732a5ca60001b6112c7565b614c267f7b4bc286128b6ab92f56653b318dbefcc37c39e52cf3b0b57f33724fd48fe97960001b6112c7565b614c527f8c78c97994c0c8f6902dc76927350c049ae1e46dc8bb664eae8509868d4459b160001b6112c7565b8173ffffffffffffffffffffffffffffffffffffffff16600360040160008573ffffffffffffffffffffffffffffffffffffffff1673ffffffffffffffffffffffffffffffffffffffff16815260200190815260200160002060000160019054906101000a900473ffffffffffffffffffffffffffffffffffffffff1673ffffffffffffffffffffffffffffffffffffffff16148015614da95750838573ffffffffffffffffffffffffffffffffffffffff1663b0d8e181856040518263ffffffff1660e01b8152600401808273ffffffffffffffffffffffffffffffffffffffff1673ffffffffffffffffffffffffffffffffffffffff16815260200191505060206040518083038186803b158015614d6b57600080fd5b505afa158015614d7f573d6000803e3d6000fd5b505050506040513d6020811015614d9557600080fd5b810190808051906020019092919050505010155b8015614e6c57508473ffffffffffffffffffffffffffffffffffffffff1663b0d8e181836040518263ffffffff1660e01b8152600401808273ffffffffffffffffffffffffffffffffffffffff1673ffffffffffffffffffffffffffffffffffffffff16815260200191505060206040518083038186803b158015614e2d57600080fd5b505afa158015614e41573d6000803e3d6000fd5b505050506040513d6020811015614e5757600080fd5b81019080805190602001909291905050508410155b90505b949350505050565b600080614ea67fe0e41bc5b38cb71f3bc219740268ab8c4a300cfd6483223d0b1d4f51df07035360001b6112c7565b614ed27ff6358038d200e2df88ba3c7b890d2a190cc3776472470f346e3b33e2182439fd60001b6112c7565b614efe7fae2c43db6d9cbf129df6d5c305cbfcb8f35116ce989fdab30669feea2f0672f060001b6112c7565b6000849050614f2f7f3e946dc52528d9c8c79dae7131318f8db3feb511231a619e152d1263c66ab58160001b6112c7565b614f5b7f7a60f60aa8ae7a2e0b8ae5699f6664b311f0c3c19a7d35837e61dcfeb7f69aef60001b6112c7565b6000849050614f8c7f576c052c55508d484e42d5485ac940acfbcc6de4b1a8195906b1d1040dde80a660001b6112c7565b614fb87ff7da1cf876de47e5e5aeacf0bc199b16fc53730929b784316288aa329a17bf3d60001b6112c7565b600073ffffffffffffffffffffffffffffffffffffffff168273ffffffffffffffffffffffffffffffffffffffff16146151ff576150187f211a23793d30d016c030d473354f21c911807368928c6fcd7eb8e6b99100ec0860001b6112c7565b6150447f29ff3bb552e066eaadccbda06edb5a2ca10f6ee54458cd0d5e05802985cee34460001b6112c7565b6150707fc5130f62bf5fb33f613173f800a5661df42a2f123a5c5e81a6403b8d6c52760a60001b6112c7565b615079826112ca565b158061513b57508773ffffffffffffffffffffffffffffffffffffffff1663b0d8e181836040518263ffffffff1660e01b8152600401808273ffffffffffffffffffffffffffffffffffffffff1673ffffffffffffffffffffffffffffffffffffffff16815260200191505060206040518083038186803b1580156150fd57600080fd5b505afa158015615111573d6000803e3d6000fd5b505050506040513d602081101561512757600080fd5b810190808051906020019092919050505087115b156151cd5761516c7f7f930892f31d49a303f5b03be88195f551a1336a940d61ce64a0fb04f7eeb5ce60001b6112c7565b6151987fc4bc8fc428afafadb580ef394de3fc2125adf27743b8799700254c1ba1ba380560001b6112c7565b6151c47fe7c19a75a59f507531a3584781dec4aa6423ef11bb7df46160fddf3ed77a248e60001b6112c7565b600091506151fa565b6151f97f842c0ee24b41af96ed98206712ea005886cf6c506efaeba1f86b8737301c085660001b6112c7565b5b61522c565b61522b7fa45f1c907bc7cb6abc323482f1f57ec7867f8015fdc5d04eb731e7976aa17a0260001b6112c7565b5b6152587f9da4bc593883d95769ff5249bbe7e8d8a8fa6b6ee77b8888912cf52ded6ce97760001b6112c7565b6152847f8392823598032a633d1fe2c26c4b87e67983ccd8766ecf954fb9e4f7a3a8005f60001b6112c7565b600073ffffffffffffffffffffffffffffffffffffffff168173ffffffffffffffffffffffffffffffffffffffff16146154cb576152e47f6e174e00a80a07f7167ebdaff205a0a9b48a4eb6e7748cab5f11e48b8914aae960001b6112c7565b6153107f6ce2b310afd8897d43cd1eeb48eecbab3dba9e3fd9a965f98c6171bf10b1a8eb60001b6112c7565b61533c7f2cf505df4cbf29ab3592fef95fabaa37a886585e86f2e71c386857e95a4c29b160001b6112c7565b615345816112ca565b158061540757508773ffffffffffffffffffffffffffffffffffffffff1663b0d8e181826040518263ffffffff1660e01b8152600401808273ffffffffffffffffffffffffffffffffffffffff1673ffffffffffffffffffffffffffffffffffffffff16815260200191505060206040518083038186803b1580156153c957600080fd5b505afa1580156153dd573d6000803e3d6000fd5b505050506040513d60208110156153f357600080fd5b810190808051906020019092919050505087105b15615499576154387f94b5c82075f07e8db2ec33fc9c347bb0a650da6bbd80dcf5125a2d5628398ddd60001b6112c7565b6154647fa38805aff8e4e46d1ac06b516d251272676a3105e6ca2b09f3ace36e42a4131f60001b6112c7565b6154907f6ddbc562f147af66098fd36fa9d7b1038ad08a8f81344823c57aadfc1a0627cd60001b6112c7565b600090506154c6565b6154c57f571727ece79f64e5d14570c25fbde2270094f9bf29c88ab0b38ff3078994026460001b6112c7565b5b6154f8565b6154f77f631a067e02dfa33aa43f23c6a09f7d2c98733acf631aaa1249b5a164bbe2969a60001b6112c7565b5b6155247fea57358ec0ffdb0a1fa9fb866d715a2da3e61341ac7c0d20e73e8de06263c14560001b6112c7565b6155507fd7c7d5d169163ba3096cdd85491d403b1cec4ec76a3baafb2aa68c71abe22e5660001b6112c7565b600073ffffffffffffffffffffffffffffffffffffffff168273ffffffffffffffffffffffffffffffffffffffff161480156155b85750600073ffffffffffffffffffffffffffffffffffffffff168173ffffffffffffffffffffffffffffffffffffffff16145b1561567c576155e97fab4ae6b502299ac148f339311b37a5990fdb45013b55d8068c90f3d5498fffa760001b6112c7565b6156157f4bb54ebc42ef53ebae9c75b5496c5b497ad52e909fef516b724359e6d751bad460001b6112c7565b6156417fdce90b5f31cc42632bbb098ab6f2d30fd6c518cc459fa85e26a7808eb3e8ce4060001b6112c7565b6156718888600360000160009054906101000a900473ffffffffffffffffffffffffffffffffffffffff16615e2d565b935093505050615960565b6156a87ff88f008ddc4c7160c73a08d06c1d01faa4245a74b5e4e2cbed37e9c99948acad60001b6112c7565b6156d47fca09aec214c2f4097c012314adbd93658a144605299896ea69fe439a5570691a60001b6112c7565b600073ffffffffffffffffffffffffffffffffffffffff168273ffffffffffffffffffffffffffffffffffffffff1614156157a3576157357f08a9ee8bf2ffe96f178329ffb6696992a10f33eab24a76b0865afd08c0d5afbd60001b6112c7565b6157617f7d1272e9c5c152776bd934a37c9d1a48cb62b86407c9e35007c00f3d5f8b121160001b6112c7565b61578d7fe85d78885117a496e55ccc4581d6a4443b4fa1fb5ed75a4f430c7c7b340e797760001b6112c7565b615798888883616440565b935093505050615960565b6157cf7ff669794473faa44294f330fae4be6804952622d98deb11ca62ac65943aeae41360001b6112c7565b6157fb7f4426aeefb62998be990ee56848057bccb32f6f7f5a5423133e7451580269531560001b6112c7565b600073ffffffffffffffffffffffffffffffffffffffff168173ffffffffffffffffffffffffffffffffffffffff1614156158ca5761585c7f625a53f60980e58f742d31bba90ebe2ed50eff2460d6ed4ca6fb239dae78966860001b6112c7565b6158887f96c68887d48159c09bab8c30a7b2249fbc6f824deb1fe8dc6b09b201a914d6bd60001b6112c7565b6158b47f2d0465c8325d9709c16976e389089ff9667d9126003b54f9cdb5b90d14058e2360001b6112c7565b6158bf888884615e2d565b935093505050615960565b6158f67f04fac007a3204dd536054f52cb48452211e4c18ea9e3c884ab08d9b560ec287660001b6112c7565b6159227f471b042473ada0905a9a30d4cf46bb1e1e6e564342a3151c8ebd7c492f8e703360001b6112c7565b61594e7fcca32a15e0b9748eaa4df70313c9713233fb22a3c2c0d5273b260f52237d84a560001b6112c7565b615959888884615e2d565b9350935050505b94509492505050565b6159957f35bc9e5e61c1438a006153cf69ffd6105766a3055440d22f6c8ce219146d68af60001b61169f565b6159c17fe66c045f45b868efda896f2af22ed71637a4e9e8d13a2b1962badf362ba3eeb960001b61169f565b6159ed7faaa4b517f253b4fa37cb2875514a22e04e7d5828c244c7095a27e85408ccd12c60001b61169f565b615a197f1221da0bd0f16fcbee175d4dae7d6b598e327e79264e77ced4c93a6a0721871b60001b61169f565b600073ffffffffffffffffffffffffffffffffffffffff168173ffffffffffffffffffffffffffffffffffffffff161415615abc576040517f08c379a000000000000000000000000000000000000000000000000000000000815260040180806020018281038252601e8152602001807f4163636f756e742063616e6e6f74206265207a65726f2061646472657373000081525060200191505060405180910390fd5b615ae87f09f0dc62d572b9e8dd242a1b7e25c3c5de1610d6c480bec35912dd5840f55fec60001b61169f565b615b147fbe74447fdea037b64141768df2430eb2b7113bef949c88d88dcdc549ba88703360001b61169f565b615b407f04e66872d3f4c69728dfe545a06401e1b17e0f9dd5e1d43290514ae4fd92783060001b61169f565b6000615b6e7f60826eea4af75abd2223d108cb037485a60c485e699a12a42cac24982b89800660001b61169f565b813b9050615b9e7f7acec79ba6fd0be7bb4b2bfca56ca8eb3d8333d64e828971ccb7647facc3806360001b61169f565b615bca7f0c7e0405db301404f844860b9fe6e14e956a97134ff8695c88184f1c957d6e0860001b61169f565b615bf67f1c5a94c5a5d640e17d84bedbf9409c7f8afe563c4b1fceef7bced5961764ee0f60001b61169f565b60008111615c6c576040517f08c379a00000000000000000000000000000000000000000000000000000000081526004018080602001828103825260208152602001807f4163636f756e7420636f64652073697a652063616e6e6f74206265207a65726f81525060200191505060405180910390fd5b615c987f1023f03b6261b194c29dee3596b0d25a3be14b60910a1d249d0177db54f54c4a60001b61169f565b5050565b600073ffffffffffffffffffffffffffffffffffffffff166000809054906101000a900473ffffffffffffffffffffffffffffffffffffffff1673ffffffffffffffffffffffffffffffffffffffff167f8be0079c531659141344cd1fd0a4f28419497f9722a3daafe3b4186f6b6457e060405160405180910390a360008060006101000a81548173ffffffffffffffffffffffffffffffffffffffff021916908373ffffffffffffffffffffffffffffffffffffffff160217905550565b6000615d9d83836040518060400160405280601e81526020017f536166654d6174683a207375627472616374696f6e206f766572666c6f770000815250616a52565b905092915050565b600080828401905083811015615e23576040517f08c379a000000000000000000000000000000000000000000000000000000000815260040180806020018281038252601b8152602001807f536166654d6174683a206164646974696f6e206f766572666c6f77000000000081525060200191505060405180910390fd5b8091505092915050565b600080615e5c7fb47862c828b4384908d82bb29a64129e0e44537b295155c491aefd913b4ce02d60001b6112c7565b615e887f15f66fae0e58d859aa70784bf1c8924c07ae5223518f6624336a96e8925ff0ad60001b6112c7565b615eb47fe61c573f3b72852d47141b091d18e9397cad4a731a77eabda32a6f4dce84a92060001b6112c7565b8273ffffffffffffffffffffffffffffffffffffffff16600360000160009054906101000a900473ffffffffffffffffffffffffffffffffffffffff1673ffffffffffffffffffffffffffffffffffffffff16148015615fcb57508473ffffffffffffffffffffffffffffffffffffffff1663b0d8e181846040518263ffffffff1660e01b8152600401808273ffffffffffffffffffffffffffffffffffffffff1673ffffffffffffffffffffffffffffffffffffffff16815260200191505060206040518083038186803b158015615f8c57600080fd5b505afa158015615fa0573d6000803e3d6000fd5b505050506040513d6020811015615fb657600080fd5b81019080805190602001909291905050508410155b1561606357615ffc7fa12c47a5350e8b77b0b701d567f1b3cf9d0c883f4a547046b6a5f3234fffa38a60001b6112c7565b6160287f01d0f487727eae802a06b587c07caec60adcdfa7ec53d5abdb054724c00467ea60001b6112c7565b6160547f9fdfcd00c275ce5480a4bf0ca8e31c27c76753efb12f85e9b19df0e9ac4904e060001b6112c7565b60008381915091509150616438565b61608f7f88de3cca6ea06ab5767d422bfc3d8f19d679a85ba0dcdbcb3b13591e09ae3c3960001b6112c7565b6160bb7f70886679105244653185e2faa990b15bd66642e54d5ae43fbe583fed65da772b60001b6112c7565b6160e77fceff63b34726e43e28fb869fb1e7691b54800203f705d1bdd17880bb853578e160001b6112c7565b60008390506161187f434c72c5dbcc7ae63e5c11a1b29affa1e081ecb69790c3ff9633b00d5fd2d76a60001b6112c7565b6161447f89bbfaa891dcee3529dd9270cd006689f4db6bab8561e979ae60af6f9f33623860001b6112c7565b6000600360040160008373ffffffffffffffffffffffffffffffffffffffff1673ffffffffffffffffffffffffffffffffffffffff16815260200190815260200160002060000160019054906101000a900473ffffffffffffffffffffffffffffffffffffffff1690506161da7f7bceb976159d51118d7efd3d7c9a85e027f809e0be7d066fe4073b12f708d26860001b6112c7565b6162067f52242ca7a95cc73932ce08b0fc5f9645395ae851a09677046ccfa91095df33ac60001b6112c7565b5b600073ffffffffffffffffffffffffffffffffffffffff168273ffffffffffffffffffffffffffffffffffffffff161415801561624d575061624b878784846145eb565b155b156163d75761627e7fde88046e0056fc0203646f2c6e570687dba5a857230a20ca4d5ac7865aa450d460001b6112c7565b6162aa7fce72ac8497b1e3c0172863f38ac3e74772837b16dc3bcae6b818b1c045d47d7160001b6112c7565b600360040160008373ffffffffffffffffffffffffffffffffffffffff1673ffffffffffffffffffffffffffffffffffffffff16815260200190815260200160002060000160019054906101000a900473ffffffffffffffffffffffffffffffffffffffff16915061633e7fc1c70ce52c4e64f562fd409309dfa6e6f437f6ef63787f4d1face455037d517660001b6112c7565b61636a7fe2d8c63b203ec1df8815f740a84b66c344cc95df288135615cd6360cbcc9bb5f60001b6112c7565b600360040160008373ffffffffffffffffffffffffffffffffffffffff1673ffffffffffffffffffffffffffffffffffffffff16815260200190815260200160002060000160019054906101000a900473ffffffffffffffffffffffffffffffffffffffff169050616207565b6164037f0e6a384d2ef679278832d649be47c777c96741681c24271a2c2ccd2b4c04bf7260001b6112c7565b61642f7f750aebfcba46d7f906c085b7dfd34c7358dfc1516609aa43fbf164c612245a9360001b6112c7565b81819350935050505b935093915050565b60008061646f7f8f29eee3462319afe525e903f4ad57f94b090cecf9ca43efa9f6c0c3c755cb8360001b6112c7565b61649b7f54197ea9a90479d05a58e0b7b608b33d71d0f0785c215ef85a97b56ddff4764460001b6112c7565b6164c67e83b5e1ccc01058342bb72dce660a7cec24ba40b418bbfde9a508f0d1a998e160001b6112c7565b8273ffffffffffffffffffffffffffffffffffffffff16600360010160009054906101000a900473ffffffffffffffffffffffffffffffffffffffff1673ffffffffffffffffffffffffffffffffffffffff161480156165dd57508473ffffffffffffffffffffffffffffffffffffffff1663b0d8e181846040518263ffffffff1660e01b8152600401808273ffffffffffffffffffffffffffffffffffffffff1673ffffffffffffffffffffffffffffffffffffffff16815260200191505060206040518083038186803b15801561659e57600080fd5b505afa1580156165b2573d6000803e3d6000fd5b505050506040513d60208110156165c857600080fd5b81019080805190602001909291905050508411155b156166755761660e7fb67e5c99ec42848e6079321e3becb0c6217ba0415104d987f430ea41d3d6281160001b6112c7565b61663a7f7ee2af81f8ba2dffb9b41a14c861a59ba1ea22040003020b2583bf309bf0ea9460001b6112c7565b6166667f5429b76bab57f4709e342bda9f689c001f51a81751756a1818352ab80cea01ae60001b6112c7565b82600080905091509150616a4a565b6166a17f6d2bb7002753b5ba9dfd88aa7875ea9a5725c99fafcc34bf668967d9936d74da60001b6112c7565b6166cd7f2f740716b8d79805dcf07a4801e10d9233214b814eba4d8e2bb5a3098ca42f7560001b6112c7565b6166f97fe1e6ab878a9ba6a25cf479a5fdd2a30092c2b6798fa82123a2c9d1147415c74760001b6112c7565b600083905061672a7f189b91fc03b063eb3435d3f3e1946d786db1379f26e5bdbf9939c38a4bdb5ddf60001b6112c7565b6167567f41342d2a7da88fb940971f2db4c71e9380172a570a38b7e31e29a04308349d9c60001b6112c7565b6000600360040160008373ffffffffffffffffffffffffffffffffffffffff1673ffffffffffffffffffffffffffffffffffffffff16815260200190815260200160002060010160009054906101000a900473ffffffffffffffffffffffffffffffffffffffff1690506167ec7f9b8c72278b3a5d9e01d38fe7eaaa69903f935829957948c4704a16954556fcb460001b6112c7565b6168187fa0fbadeb3fcc4b24d9e9b776e68fb8d195707f1c076b9315b491536ca356074860001b6112c7565b5b600073ffffffffffffffffffffffffffffffffffffffff168273ffffffffffffffffffffffffffffffffffffffff161415801561685f575061685d878783856145eb565b155b156169e9576168907f7cd0832f14c5a578a9320ddff77a9b58e21911dd3b973a6626c880ec8c07950260001b6112c7565b6168bc7fef519bf76e3f735a033c5a0cee93a0aa8eadcf6c31c9bd5ac3596edb31329f2f60001b6112c7565b600360040160008373ffffffffffffffffffffffffffffffffffffffff1673ffffffffffffffffffffffffffffffffffffffff16815260200190815260200160002060010160009054906101000a900473ffffffffffffffffffffffffffffffffffffffff1691506169507fb99afe939f596db994438af15f55dbe7459c869cc539c88ad13dbf5bfd2417cc60001b6112c7565b61697c7f297e64f1501c634c08140675e8a3d0c36eb4e16626a20f8f2e81a9849a8c987f60001b6112c7565b600360040160008373ffffffffffffffffffffffffffffffffffffffff1673ffffffffffffffffffffffffffffffffffffffff16815260200190815260200160002060010160009054906101000a900473ffffffffffffffffffffffffffffffffffffffff169050616819565b616a157f3cec1ed7c765f15de59021689b5a4f810ec0f649055a23d4c05aaad53e8311e760001b6112c7565b616a417fb11b3dd585a7f18bba08abc451195f690c45ff2083dbcfda7c3750a4470bdfbe60001b6112c7565b80829350935050505b935093915050565b6000838311158290616aff576040517f08c379a00000000000000000000000000000000000000000000000000000000081526004018080602001828103825283818151815260200191508051906020019080838360005b83811015616ac4578082015181840152602081019050616aa9565b50505050905090810190601f168015616af15780820380516001836020036101000a031916815260200191505b509250505060405180910390fd5b506000838503905080915050939250505056fe536f7274656454726f7665733a204c69737420616c726561647920636f6e7461696e7320746865206e6f6465536f7274656454726f7665733a204c69737420646f6573206e6f7420636f6e7461696e20746865206964536f7274656454726f7665733a2053697a652063616ee2809974206265207a65726f536f7274656454726f7665733a2043616c6c6572206973206e6f74207468652054726f76654d616e61676572536f7274656454726f7665733a2043616c6c6572206973206e65697468657220424f206e6f722054726f76654d536f7274656454726f7665733a204e494352206d75737420626520706f736974697665a2646970667358221220d828cb4c3c5f7b3f175e47251300cd846e9f2a087c86dbc8f048c9184233c5ca64736f6c634300060b0033",
  "linkReferences": {},
  "deployedLinkReferences": {}
}