{
  "_format": "hh-sol-artifact-1",
  "contractName": "StabilityPoolScript",
  "sourceName": "contracts/Proxy/StabilityPoolScript.sol",
  "abi": [
    {
      "inputs": [
        {
          "internalType": "contract IStabilityPool",
          "name": "_stabilityPool",
          "type": "address"
        }
      ],
      "stateMutability": "nonpayable",
      "type": "constructor"
    },
    {
      "inputs": [],
      "name": "NAME",
      "outputs": [
        {
          "internalType": "string",
          "name": "",
          "type": "string"
        }
      ],
      "stateMutability": "view",
      "type": "function"
    },
    {
      "inputs": [
        {
          "internalType": "bytes32",
          "name": "c__0x6590fa2f",
          "type": "bytes32"
        }
      ],
      "name": "c_0x6590fa2f",
      "outputs": [],
      "stateMutability": "pure",
      "type": "function"
    },
    {
      "inputs": [
        {
          "internalType": "bytes32",
          "name": "c__0xafd32059",
          "type": "bytes32"
        }
      ],
      "name": "c_0xafd32059",
      "outputs": [],
      "stateMutability": "pure",
      "type": "function"
    },
    {
      "inputs": [
        {
          "internalType": "uint256",
          "name": "_amount",
          "type": "uint256"
        },
        {
          "internalType": "address",
          "name": "_frontEndTag",
          "type": "address"
        }
      ],
      "name": "provideToSP",
      "outputs": [],
      "stateMutability": "nonpayable",
      "type": "function"
    },
    {
      "inputs": [
        {
          "internalType": "address",
          "name": "_upperHint",
          "type": "address"
        },
        {
          "internalType": "address",
          "name": "_lowerHint",
          "type": "address"
        }
      ],
      "name": "withdrawETHGainToTrove",
      "outputs": [],
      "stateMutability": "nonpayable",
      "type": "function"
    },
    {
      "inputs": [
        {
          "internalType": "uint256",
          "name": "_amount",
          "type": "uint256"
        }
      ],
      "name": "withdrawFromSP",
      "outputs": [],
      "stateMutability": "nonpayable",
      "type": "function"
    }
  ],
  "bytecode": "0x60a06040523480156200001157600080fd5b5060405162000bc538038062000bc5833981810160405260208110156200003757600080fd5b81019080805190602001909291905050506200007c7fe6d419089e6f9453bafa800b8d2cda706d326bdbe85f35711134ac0d9dfd481460001b6200019b60201b60201c565b620000b07fbfe89de8617d8c6a56a6f69c6d0dc9cbff81788b0732d4f8b01ba6526a18bcad60001b6200019b60201b60201c565b620000e47f6be8e44e18c0052c37315f3f1f69fb20c0d77c80f82c77e72bcc65ddb2345e4260001b6200019b60201b60201c565b620000f5816200019e60201b60201c565b620001297fb1425f90994679ac19f94d24c1c07d81888765d9bd258f4acbdb053f72eb4b1660001b6200019b60201b60201c565b6200015d7fba3ab1cee71247a53e86085e2d2e08fae8a4f802cb627d0cf01caff3c9c49eb360001b6200019b60201b60201c565b8073ffffffffffffffffffffffffffffffffffffffff1660808173ffffffffffffffffffffffffffffffffffffffff1660601b815250505062000536565b50565b620001d27f35bc9e5e61c1438a006153cf69ffd6105766a3055440d22f6c8ce219146d68af60001b6200053360201b60201c565b620002067fe66c045f45b868efda896f2af22ed71637a4e9e8d13a2b1962badf362ba3eeb960001b6200053360201b60201c565b6200023a7faaa4b517f253b4fa37cb2875514a22e04e7d5828c244c7095a27e85408ccd12c60001b6200053360201b60201c565b6200026e7f1221da0bd0f16fcbee175d4dae7d6b598e327e79264e77ced4c93a6a0721871b60001b6200053360201b60201c565b600073ffffffffffffffffffffffffffffffffffffffff168173ffffffffffffffffffffffffffffffffffffffff16141562000312576040517f08c379a000000000000000000000000000000000000000000000000000000000815260040180806020018281038252601e8152602001807f4163636f756e742063616e6e6f74206265207a65726f2061646472657373000081525060200191505060405180910390fd5b620003467f09f0dc62d572b9e8dd242a1b7e25c3c5de1610d6c480bec35912dd5840f55fec60001b6200053360201b60201c565b6200037a7fbe74447fdea037b64141768df2430eb2b7113bef949c88d88dcdc549ba88703360001b6200053360201b60201c565b620003ae7f04e66872d3f4c69728dfe545a06401e1b17e0f9dd5e1d43290514ae4fd92783060001b6200053360201b60201c565b6000620003e47f60826eea4af75abd2223d108cb037485a60c485e699a12a42cac24982b89800660001b6200053360201b60201c565b813b90506200041c7f7acec79ba6fd0be7bb4b2bfca56ca8eb3d8333d64e828971ccb7647facc3806360001b6200053360201b60201c565b620004507f0c7e0405db301404f844860b9fe6e14e956a97134ff8695c88184f1c957d6e0860001b6200053360201b60201c565b620004847f1c5a94c5a5d640e17d84bedbf9409c7f8afe563c4b1fceef7bced5961764ee0f60001b6200053360201b60201c565b60008111620004fb576040517f08c379a00000000000000000000000000000000000000000000000000000000081526004018080602001828103825260208152602001807f4163636f756e7420636f64652073697a652063616e6e6f74206265207a65726f81525060200191505060405180910390fd5b6200052f7f1023f03b6261b194c29dee3596b0d25a3be14b60910a1d249d0177db54f54c4a60001b6200053360201b60201c565b5050565b50565b60805160601c6106676200055e600039806102af52806103c1528061054452506106676000f3fe608060405234801561001057600080fd5b50600436106100625760003560e01c80630a0ed5fc146100675780632e54bf95146100955780635f788d65146100c3578063940a71bc14610111578063a3f4df7e1461013f578063fda0101a146101c2575b600080fd5b6100936004803603602081101561007d57600080fd5b8101908080359060200190929190505050610226565b005b6100c1600480360360208110156100ab57600080fd5b8101908080359060200190929190505050610229565b005b61010f600480360360408110156100d957600080fd5b8101908080359060200190929190803573ffffffffffffffffffffffffffffffffffffffff16906020019092919050505061033b565b005b61013d6004803603602081101561012757600080fd5b8101908080359060200190929190505050610482565b005b610147610485565b6040518080602001828103825283818151815260200191508051906020019080838360005b8381101561018757808201518184015260208101905061016c565b50505050905090810190601f1680156101b45780820380516001836020036101000a031916815260200191505b509250505060405180910390f35b610224600480360360408110156101d857600080fd5b81019080803573ffffffffffffffffffffffffffffffffffffffff169060200190929190803573ffffffffffffffffffffffffffffffffffffffff1690602001909291905050506104be565b005b50565b6102557fcd4d9207b58fcc1e4c5d4220eb148e57d9c3749126b479ca0fdb99f6bf6c7b9a60001b610226565b6102817f1fb487261719c18116401c99c7469b6c1d8ab39aa1df9a38814cbbb140e5e9bc60001b610226565b6102ad7f2a67c823fdd02d6823df86cd901ea0b4f42da0332f7c48dfb9ce2ca9072615c060001b610226565b7f000000000000000000000000000000000000000000000000000000000000000073ffffffffffffffffffffffffffffffffffffffff16632e54bf95826040518263ffffffff1660e01b815260040180828152602001915050600060405180830381600087803b15801561032057600080fd5b505af1158015610334573d6000803e3d6000fd5b5050505050565b6103677f68c958b85804f7414ae65341db6ad407d28a128c9bc17f1ef07085122dd85fdc60001b610226565b6103937f0866641c56bee44bbea8201f179b41b980efb6c8b96ed54b2b4c4e67ac1b57c260001b610226565b6103bf7fc788b1bf4cae8d154638f2a803174914a8fe404e9b40d696a883201478aa0ecf60001b610226565b7f000000000000000000000000000000000000000000000000000000000000000073ffffffffffffffffffffffffffffffffffffffff16635f788d6583836040518363ffffffff1660e01b8152600401808381526020018273ffffffffffffffffffffffffffffffffffffffff1673ffffffffffffffffffffffffffffffffffffffff16815260200192505050600060405180830381600087803b15801561046657600080fd5b505af115801561047a573d6000803e3d6000fd5b505050505050565b50565b6040518060400160405280601381526020017f53746162696c697479506f6f6c5363726970740000000000000000000000000081525081565b6104ea7f0db09ae85fe5e4e0593b84058e99550bacdee96ba8bc3ec48edc85341a278eb760001b610226565b6105167fd059351b2c1b86fecaa05dd3b808e77e8b78c9b9b830e3b74befbbd0f640560c60001b610226565b6105427f10bc132f8e0791c329ba657ca44daea8c9d0e3e469a2a2bc373277216b2d544e60001b610226565b7f000000000000000000000000000000000000000000000000000000000000000073ffffffffffffffffffffffffffffffffffffffff1663fda0101a83836040518363ffffffff1660e01b8152600401808373ffffffffffffffffffffffffffffffffffffffff1673ffffffffffffffffffffffffffffffffffffffff1681526020018273ffffffffffffffffffffffffffffffffffffffff1673ffffffffffffffffffffffffffffffffffffffff16815260200192505050600060405180830381600087803b15801561061557600080fd5b505af1158015610629573d6000803e3d6000fd5b50505050505056fea26469706673582212206e4ceaf5bda0ee22bfb9b7b42ec24e9a2d7924ffac51fa2adcff4638ad2e040b64736f6c634300060b0033",
  "linkReferences": {},
  "deployedLinkReferences": {}
}