{
  "_format": "hh-sol-artifact-1",
  "contractName": "StabilityPool",
  "sourceName": "contracts/StabilityPool.sol",
  "abi": [
    {
      "anonymous": false,
      "inputs": [
        {
          "indexed": false,
          "internalType": "address",
          "name": "_newActivePoolAddress",
          "type": "address"
        }
      ],
      "name": "ActivePoolAddressChanged",
      "type": "event"
    },
    {
      "anonymous": false,
      "inputs": [
        {
          "indexed": false,
          "internalType": "address",
          "name": "_newBorrowerOperationsAddress",
          "type": "address"
        }
      ],
      "name": "BorrowerOperationsAddressChanged",
      "type": "event"
    },
    {
      "anonymous": false,
      "inputs": [
        {
          "indexed": false,
          "internalType": "address",
          "name": "_newCommunityIssuanceAddress",
          "type": "address"
        }
      ],
      "name": "CommunityIssuanceAddressChanged",
      "type": "event"
    },
    {
      "anonymous": false,
      "inputs": [
        {
          "indexed": false,
          "internalType": "address",
          "name": "_newDefaultPoolAddress",
          "type": "address"
        }
      ],
      "name": "DefaultPoolAddressChanged",
      "type": "event"
    },
    {
      "anonymous": false,
      "inputs": [
        {
          "indexed": true,
          "internalType": "address",
          "name": "_depositor",
          "type": "address"
        },
        {
          "indexed": false,
          "internalType": "uint256",
          "name": "_P",
          "type": "uint256"
        },
        {
          "indexed": false,
          "internalType": "uint256",
          "name": "_S",
          "type": "uint256"
        },
        {
          "indexed": false,
          "internalType": "uint256",
          "name": "_G",
          "type": "uint256"
        }
      ],
      "name": "DepositSnapshotUpdated",
      "type": "event"
    },
    {
      "anonymous": false,
      "inputs": [
        {
          "indexed": true,
          "internalType": "address",
          "name": "_depositor",
          "type": "address"
        },
        {
          "indexed": false,
          "internalType": "uint256",
          "name": "_ETH",
          "type": "uint256"
        },
        {
          "indexed": false,
          "internalType": "uint256",
          "name": "_LUSDLoss",
          "type": "uint256"
        }
      ],
      "name": "ETHGainWithdrawn",
      "type": "event"
    },
    {
      "anonymous": false,
      "inputs": [
        {
          "indexed": false,
          "internalType": "uint128",
          "name": "_currentEpoch",
          "type": "uint128"
        }
      ],
      "name": "EpochUpdated",
      "type": "event"
    },
    {
      "anonymous": false,
      "inputs": [
        {
          "indexed": false,
          "internalType": "address",
          "name": "_to",
          "type": "address"
        },
        {
          "indexed": false,
          "internalType": "uint256",
          "name": "_amount",
          "type": "uint256"
        }
      ],
      "name": "EtherSent",
      "type": "event"
    },
    {
      "anonymous": false,
      "inputs": [
        {
          "indexed": true,
          "internalType": "address",
          "name": "_frontEnd",
          "type": "address"
        },
        {
          "indexed": false,
          "internalType": "uint256",
          "name": "_kickbackRate",
          "type": "uint256"
        }
      ],
      "name": "FrontEndRegistered",
      "type": "event"
    },
    {
      "anonymous": false,
      "inputs": [
        {
          "indexed": true,
          "internalType": "address",
          "name": "_frontEnd",
          "type": "address"
        },
        {
          "indexed": false,
          "internalType": "uint256",
          "name": "_P",
          "type": "uint256"
        },
        {
          "indexed": false,
          "internalType": "uint256",
          "name": "_G",
          "type": "uint256"
        }
      ],
      "name": "FrontEndSnapshotUpdated",
      "type": "event"
    },
    {
      "anonymous": false,
      "inputs": [
        {
          "indexed": true,
          "internalType": "address",
          "name": "_frontEnd",
          "type": "address"
        },
        {
          "indexed": false,
          "internalType": "uint256",
          "name": "_newFrontEndStake",
          "type": "uint256"
        },
        {
          "indexed": false,
          "internalType": "address",
          "name": "_depositor",
          "type": "address"
        }
      ],
      "name": "FrontEndStakeChanged",
      "type": "event"
    },
    {
      "anonymous": false,
      "inputs": [
        {
          "indexed": true,
          "internalType": "address",
          "name": "_depositor",
          "type": "address"
        },
        {
          "indexed": true,
          "internalType": "address",
          "name": "_frontEnd",
          "type": "address"
        }
      ],
      "name": "FrontEndTagSet",
      "type": "event"
    },
    {
      "anonymous": false,
      "inputs": [
        {
          "indexed": false,
          "internalType": "uint256",
          "name": "_G",
          "type": "uint256"
        },
        {
          "indexed": false,
          "internalType": "uint128",
          "name": "_epoch",
          "type": "uint128"
        },
        {
          "indexed": false,
          "internalType": "uint128",
          "name": "_scale",
          "type": "uint128"
        }
      ],
      "name": "G_Updated",
      "type": "event"
    },
    {
      "anonymous": false,
      "inputs": [
        {
          "indexed": true,
          "internalType": "address",
          "name": "_depositor",
          "type": "address"
        },
        {
          "indexed": false,
          "internalType": "uint256",
          "name": "_LQTY",
          "type": "uint256"
        }
      ],
      "name": "LQTYPaidToDepositor",
      "type": "event"
    },
    {
      "anonymous": false,
      "inputs": [
        {
          "indexed": true,
          "internalType": "address",
          "name": "_frontEnd",
          "type": "address"
        },
        {
          "indexed": false,
          "internalType": "uint256",
          "name": "_LQTY",
          "type": "uint256"
        }
      ],
      "name": "LQTYPaidToFrontEnd",
      "type": "event"
    },
    {
      "anonymous": false,
      "inputs": [
        {
          "indexed": false,
          "internalType": "address",
          "name": "_newLUSDTokenAddress",
          "type": "address"
        }
      ],
      "name": "LUSDTokenAddressChanged",
      "type": "event"
    },
    {
      "anonymous": false,
      "inputs": [
        {
          "indexed": true,
          "internalType": "address",
          "name": "previousOwner",
          "type": "address"
        },
        {
          "indexed": true,
          "internalType": "address",
          "name": "newOwner",
          "type": "address"
        }
      ],
      "name": "OwnershipTransferred",
      "type": "event"
    },
    {
      "anonymous": false,
      "inputs": [
        {
          "indexed": false,
          "internalType": "uint256",
          "name": "_P",
          "type": "uint256"
        }
      ],
      "name": "P_Updated",
      "type": "event"
    },
    {
      "anonymous": false,
      "inputs": [
        {
          "indexed": false,
          "internalType": "address",
          "name": "_newPriceFeedAddress",
          "type": "address"
        }
      ],
      "name": "PriceFeedAddressChanged",
      "type": "event"
    },
    {
      "anonymous": false,
      "inputs": [
        {
          "indexed": false,
          "internalType": "uint256",
          "name": "_S",
          "type": "uint256"
        },
        {
          "indexed": false,
          "internalType": "uint128",
          "name": "_epoch",
          "type": "uint128"
        },
        {
          "indexed": false,
          "internalType": "uint128",
          "name": "_scale",
          "type": "uint128"
        }
      ],
      "name": "S_Updated",
      "type": "event"
    },
    {
      "anonymous": false,
      "inputs": [
        {
          "indexed": false,
          "internalType": "uint128",
          "name": "_currentScale",
          "type": "uint128"
        }
      ],
      "name": "ScaleUpdated",
      "type": "event"
    },
    {
      "anonymous": false,
      "inputs": [
        {
          "indexed": false,
          "internalType": "address",
          "name": "_newSortedTrovesAddress",
          "type": "address"
        }
      ],
      "name": "SortedTrovesAddressChanged",
      "type": "event"
    },
    {
      "anonymous": false,
      "inputs": [
        {
          "indexed": false,
          "internalType": "uint256",
          "name": "_newBalance",
          "type": "uint256"
        }
      ],
      "name": "StabilityPoolETHBalanceUpdated",
      "type": "event"
    },
    {
      "anonymous": false,
      "inputs": [
        {
          "indexed": false,
          "internalType": "uint256",
          "name": "_newBalance",
          "type": "uint256"
        }
      ],
      "name": "StabilityPoolLUSDBalanceUpdated",
      "type": "event"
    },
    {
      "anonymous": false,
      "inputs": [
        {
          "indexed": false,
          "internalType": "address",
          "name": "_newTroveManagerAddress",
          "type": "address"
        }
      ],
      "name": "TroveManagerAddressChanged",
      "type": "event"
    },
    {
      "anonymous": false,
      "inputs": [
        {
          "indexed": true,
          "internalType": "address",
          "name": "_depositor",
          "type": "address"
        },
        {
          "indexed": false,
          "internalType": "uint256",
          "name": "_newDeposit",
          "type": "uint256"
        }
      ],
      "name": "UserDepositChanged",
      "type": "event"
    },
    {
      "inputs": [],
      "name": "BORROWING_FEE_FLOOR",
      "outputs": [
        {
          "internalType": "uint256",
          "name": "",
          "type": "uint256"
        }
      ],
      "stateMutability": "view",
      "type": "function"
    },
    {
      "inputs": [],
      "name": "CCR",
      "outputs": [
        {
          "internalType": "uint256",
          "name": "",
          "type": "uint256"
        }
      ],
      "stateMutability": "view",
      "type": "function"
    },
    {
      "inputs": [],
      "name": "DECIMAL_PRECISION",
      "outputs": [
        {
          "internalType": "uint256",
          "name": "",
          "type": "uint256"
        }
      ],
      "stateMutability": "view",
      "type": "function"
    },
    {
      "inputs": [],
      "name": "LUSD_GAS_COMPENSATION",
      "outputs": [
        {
          "internalType": "uint256",
          "name": "",
          "type": "uint256"
        }
      ],
      "stateMutability": "view",
      "type": "function"
    },
    {
      "inputs": [],
      "name": "MCR",
      "outputs": [
        {
          "internalType": "uint256",
          "name": "",
          "type": "uint256"
        }
      ],
      "stateMutability": "view",
      "type": "function"
    },
    {
      "inputs": [],
      "name": "MIN_NET_DEBT",
      "outputs": [
        {
          "internalType": "uint256",
          "name": "",
          "type": "uint256"
        }
      ],
      "stateMutability": "view",
      "type": "function"
    },
    {
      "inputs": [],
      "name": "NAME",
      "outputs": [
        {
          "internalType": "string",
          "name": "",
          "type": "string"
        }
      ],
      "stateMutability": "view",
      "type": "function"
    },
    {
      "inputs": [],
      "name": "P",
      "outputs": [
        {
          "internalType": "uint256",
          "name": "",
          "type": "uint256"
        }
      ],
      "stateMutability": "view",
      "type": "function"
    },
    {
      "inputs": [],
      "name": "PERCENT_DIVISOR",
      "outputs": [
        {
          "internalType": "uint256",
          "name": "",
          "type": "uint256"
        }
      ],
      "stateMutability": "view",
      "type": "function"
    },
    {
      "inputs": [],
      "name": "SCALE_FACTOR",
      "outputs": [
        {
          "internalType": "uint256",
          "name": "",
          "type": "uint256"
        }
      ],
      "stateMutability": "view",
      "type": "function"
    },
    {
      "inputs": [],
      "name": "_100pct",
      "outputs": [
        {
          "internalType": "uint256",
          "name": "",
          "type": "uint256"
        }
      ],
      "stateMutability": "view",
      "type": "function"
    },
    {
      "inputs": [],
      "name": "activePool",
      "outputs": [
        {
          "internalType": "contract IActivePool",
          "name": "",
          "type": "address"
        }
      ],
      "stateMutability": "view",
      "type": "function"
    },
    {
      "inputs": [],
      "name": "borrowerOperations",
      "outputs": [
        {
          "internalType": "contract IBorrowerOperations",
          "name": "",
          "type": "address"
        }
      ],
      "stateMutability": "view",
      "type": "function"
    },
    {
      "inputs": [
        {
          "internalType": "bytes32",
          "name": "c__0x3a042251",
          "type": "bytes32"
        }
      ],
      "name": "c_0x3a042251",
      "outputs": [],
      "stateMutability": "pure",
      "type": "function"
    },
    {
      "inputs": [
        {
          "internalType": "bytes32",
          "name": "c__0x92e43ee0",
          "type": "bytes32"
        }
      ],
      "name": "c_0x92e43ee0",
      "outputs": [],
      "stateMutability": "pure",
      "type": "function"
    },
    {
      "inputs": [
        {
          "internalType": "bytes32",
          "name": "c__0xafd32059",
          "type": "bytes32"
        }
      ],
      "name": "c_0xafd32059",
      "outputs": [],
      "stateMutability": "pure",
      "type": "function"
    },
    {
      "inputs": [
        {
          "internalType": "bytes32",
          "name": "c__0xe624bb7f",
          "type": "bytes32"
        }
      ],
      "name": "c_0xe624bb7f",
      "outputs": [],
      "stateMutability": "pure",
      "type": "function"
    },
    {
      "inputs": [],
      "name": "communityIssuance",
      "outputs": [
        {
          "internalType": "contract ICommunityIssuance",
          "name": "",
          "type": "address"
        }
      ],
      "stateMutability": "view",
      "type": "function"
    },
    {
      "inputs": [],
      "name": "currentEpoch",
      "outputs": [
        {
          "internalType": "uint128",
          "name": "",
          "type": "uint128"
        }
      ],
      "stateMutability": "view",
      "type": "function"
    },
    {
      "inputs": [],
      "name": "currentScale",
      "outputs": [
        {
          "internalType": "uint128",
          "name": "",
          "type": "uint128"
        }
      ],
      "stateMutability": "view",
      "type": "function"
    },
    {
      "inputs": [],
      "name": "defaultPool",
      "outputs": [
        {
          "internalType": "contract IDefaultPool",
          "name": "",
          "type": "address"
        }
      ],
      "stateMutability": "view",
      "type": "function"
    },
    {
      "inputs": [
        {
          "internalType": "address",
          "name": "",
          "type": "address"
        }
      ],
      "name": "depositSnapshots",
      "outputs": [
        {
          "internalType": "uint256",
          "name": "S",
          "type": "uint256"
        },
        {
          "internalType": "uint256",
          "name": "P",
          "type": "uint256"
        },
        {
          "internalType": "uint256",
          "name": "G",
          "type": "uint256"
        },
        {
          "internalType": "uint128",
          "name": "scale",
          "type": "uint128"
        },
        {
          "internalType": "uint128",
          "name": "epoch",
          "type": "uint128"
        }
      ],
      "stateMutability": "view",
      "type": "function"
    },
    {
      "inputs": [
        {
          "internalType": "address",
          "name": "",
          "type": "address"
        }
      ],
      "name": "deposits",
      "outputs": [
        {
          "internalType": "uint256",
          "name": "initialValue",
          "type": "uint256"
        },
        {
          "internalType": "address",
          "name": "frontEndTag",
          "type": "address"
        }
      ],
      "stateMutability": "view",
      "type": "function"
    },
    {
      "inputs": [
        {
          "internalType": "uint128",
          "name": "",
          "type": "uint128"
        },
        {
          "internalType": "uint128",
          "name": "",
          "type": "uint128"
        }
      ],
      "name": "epochToScaleToG",
      "outputs": [
        {
          "internalType": "uint256",
          "name": "",
          "type": "uint256"
        }
      ],
      "stateMutability": "view",
      "type": "function"
    },
    {
      "inputs": [
        {
          "internalType": "uint128",
          "name": "",
          "type": "uint128"
        },
        {
          "internalType": "uint128",
          "name": "",
          "type": "uint128"
        }
      ],
      "name": "epochToScaleToSum",
      "outputs": [
        {
          "internalType": "uint256",
          "name": "",
          "type": "uint256"
        }
      ],
      "stateMutability": "view",
      "type": "function"
    },
    {
      "inputs": [
        {
          "internalType": "address",
          "name": "",
          "type": "address"
        }
      ],
      "name": "frontEndSnapshots",
      "outputs": [
        {
          "internalType": "uint256",
          "name": "S",
          "type": "uint256"
        },
        {
          "internalType": "uint256",
          "name": "P",
          "type": "uint256"
        },
        {
          "internalType": "uint256",
          "name": "G",
          "type": "uint256"
        },
        {
          "internalType": "uint128",
          "name": "scale",
          "type": "uint128"
        },
        {
          "internalType": "uint128",
          "name": "epoch",
          "type": "uint128"
        }
      ],
      "stateMutability": "view",
      "type": "function"
    },
    {
      "inputs": [
        {
          "internalType": "address",
          "name": "",
          "type": "address"
        }
      ],
      "name": "frontEndStakes",
      "outputs": [
        {
          "internalType": "uint256",
          "name": "",
          "type": "uint256"
        }
      ],
      "stateMutability": "view",
      "type": "function"
    },
    {
      "inputs": [
        {
          "internalType": "address",
          "name": "",
          "type": "address"
        }
      ],
      "name": "frontEnds",
      "outputs": [
        {
          "internalType": "uint256",
          "name": "kickbackRate",
          "type": "uint256"
        },
        {
          "internalType": "bool",
          "name": "registered",
          "type": "bool"
        }
      ],
      "stateMutability": "view",
      "type": "function"
    },
    {
      "inputs": [
        {
          "internalType": "address",
          "name": "_frontEnd",
          "type": "address"
        }
      ],
      "name": "getCompoundedFrontEndStake",
      "outputs": [
        {
          "internalType": "uint256",
          "name": "",
          "type": "uint256"
        }
      ],
      "stateMutability": "view",
      "type": "function"
    },
    {
      "inputs": [
        {
          "internalType": "address",
          "name": "_depositor",
          "type": "address"
        }
      ],
      "name": "getCompoundedLUSDDeposit",
      "outputs": [
        {
          "internalType": "uint256",
          "name": "",
          "type": "uint256"
        }
      ],
      "stateMutability": "view",
      "type": "function"
    },
    {
      "inputs": [
        {
          "internalType": "address",
          "name": "_depositor",
          "type": "address"
        }
      ],
      "name": "getDepositorETHGain",
      "outputs": [
        {
          "internalType": "uint256",
          "name": "",
          "type": "uint256"
        }
      ],
      "stateMutability": "view",
      "type": "function"
    },
    {
      "inputs": [
        {
          "internalType": "address",
          "name": "_depositor",
          "type": "address"
        }
      ],
      "name": "getDepositorLQTYGain",
      "outputs": [
        {
          "internalType": "uint256",
          "name": "",
          "type": "uint256"
        }
      ],
      "stateMutability": "view",
      "type": "function"
    },
    {
      "inputs": [],
      "name": "getETH",
      "outputs": [
        {
          "internalType": "uint256",
          "name": "",
          "type": "uint256"
        }
      ],
      "stateMutability": "view",
      "type": "function"
    },
    {
      "inputs": [],
      "name": "getEntireSystemColl",
      "outputs": [
        {
          "internalType": "uint256",
          "name": "entireSystemColl",
          "type": "uint256"
        }
      ],
      "stateMutability": "view",
      "type": "function"
    },
    {
      "inputs": [],
      "name": "getEntireSystemDebt",
      "outputs": [
        {
          "internalType": "uint256",
          "name": "entireSystemDebt",
          "type": "uint256"
        }
      ],
      "stateMutability": "view",
      "type": "function"
    },
    {
      "inputs": [
        {
          "internalType": "address",
          "name": "_frontEnd",
          "type": "address"
        }
      ],
      "name": "getFrontEndLQTYGain",
      "outputs": [
        {
          "internalType": "uint256",
          "name": "",
          "type": "uint256"
        }
      ],
      "stateMutability": "view",
      "type": "function"
    },
    {
      "inputs": [],
      "name": "getTotalLUSDDeposits",
      "outputs": [
        {
          "internalType": "uint256",
          "name": "",
          "type": "uint256"
        }
      ],
      "stateMutability": "view",
      "type": "function"
    },
    {
      "inputs": [],
      "name": "isOwner",
      "outputs": [
        {
          "internalType": "bool",
          "name": "",
          "type": "bool"
        }
      ],
      "stateMutability": "view",
      "type": "function"
    },
    {
      "inputs": [],
      "name": "lastETHError_Offset",
      "outputs": [
        {
          "internalType": "uint256",
          "name": "",
          "type": "uint256"
        }
      ],
      "stateMutability": "view",
      "type": "function"
    },
    {
      "inputs": [],
      "name": "lastLQTYError",
      "outputs": [
        {
          "internalType": "uint256",
          "name": "",
          "type": "uint256"
        }
      ],
      "stateMutability": "view",
      "type": "function"
    },
    {
      "inputs": [],
      "name": "lastLUSDLossError_Offset",
      "outputs": [
        {
          "internalType": "uint256",
          "name": "",
          "type": "uint256"
        }
      ],
      "stateMutability": "view",
      "type": "function"
    },
    {
      "inputs": [],
      "name": "lusdToken",
      "outputs": [
        {
          "internalType": "contract ILUSDToken",
          "name": "",
          "type": "address"
        }
      ],
      "stateMutability": "view",
      "type": "function"
    },
    {
      "inputs": [
        {
          "internalType": "uint256",
          "name": "_debtToOffset",
          "type": "uint256"
        },
        {
          "internalType": "uint256",
          "name": "_collToAdd",
          "type": "uint256"
        }
      ],
      "name": "offset",
      "outputs": [],
      "stateMutability": "nonpayable",
      "type": "function"
    },
    {
      "inputs": [],
      "name": "owner",
      "outputs": [
        {
          "internalType": "address",
          "name": "",
          "type": "address"
        }
      ],
      "stateMutability": "view",
      "type": "function"
    },
    {
      "inputs": [],
      "name": "priceFeed",
      "outputs": [
        {
          "internalType": "contract IPriceFeed",
          "name": "",
          "type": "address"
        }
      ],
      "stateMutability": "view",
      "type": "function"
    },
    {
      "inputs": [
        {
          "internalType": "uint256",
          "name": "_amount",
          "type": "uint256"
        },
        {
          "internalType": "address",
          "name": "_frontEndTag",
          "type": "address"
        }
      ],
      "name": "provideToSP",
      "outputs": [],
      "stateMutability": "nonpayable",
      "type": "function"
    },
    {
      "inputs": [
        {
          "internalType": "uint256",
          "name": "_kickbackRate",
          "type": "uint256"
        }
      ],
      "name": "registerFrontEnd",
      "outputs": [],
      "stateMutability": "nonpayable",
      "type": "function"
    },
    {
      "inputs": [
        {
          "internalType": "address",
          "name": "_borrowerOperationsAddress",
          "type": "address"
        },
        {
          "internalType": "address",
          "name": "_troveManagerAddress",
          "type": "address"
        },
        {
          "internalType": "address",
          "name": "_activePoolAddress",
          "type": "address"
        },
        {
          "internalType": "address",
          "name": "_lusdTokenAddress",
          "type": "address"
        },
        {
          "internalType": "address",
          "name": "_sortedTrovesAddress",
          "type": "address"
        },
        {
          "internalType": "address",
          "name": "_priceFeedAddress",
          "type": "address"
        },
        {
          "internalType": "address",
          "name": "_communityIssuanceAddress",
          "type": "address"
        }
      ],
      "name": "setAddresses",
      "outputs": [],
      "stateMutability": "nonpayable",
      "type": "function"
    },
    {
      "inputs": [],
      "name": "sortedTroves",
      "outputs": [
        {
          "internalType": "contract ISortedTroves",
          "name": "",
          "type": "address"
        }
      ],
      "stateMutability": "view",
      "type": "function"
    },
    {
      "inputs": [],
      "name": "troveManager",
      "outputs": [
        {
          "internalType": "contract ITroveManager",
          "name": "",
          "type": "address"
        }
      ],
      "stateMutability": "view",
      "type": "function"
    },
    {
      "inputs": [
        {
          "internalType": "address",
          "name": "_upperHint",
          "type": "address"
        },
        {
          "internalType": "address",
          "name": "_lowerHint",
          "type": "address"
        }
      ],
      "name": "withdrawETHGainToTrove",
      "outputs": [],
      "stateMutability": "nonpayable",
      "type": "function"
    },
    {
      "inputs": [
        {
          "internalType": "uint256",
          "name": "_amount",
          "type": "uint256"
        }
      ],
      "name": "withdrawFromSP",
      "outputs": [],
      "stateMutability": "nonpayable",
      "type": "function"
    },
    {
      "stateMutability": "payable",
      "type": "receive"
    }
  ],
  "bytecode": "0x6080604052670de0b6b3a76400006010553480156200001d57600080fd5b5033600360006101000a81548173ffffffffffffffffffffffffffffffffffffffff021916908373ffffffffffffffffffffffffffffffffffffffff1602179055503373ffffffffffffffffffffffffffffffffffffffff16600073ffffffffffffffffffffffffffffffffffffffff167f8be0079c531659141344cd1fd0a4f28419497f9722a3daafe3b4186f6b6457e060405160405180910390a361e96080620000ca6000396000f3fe6080604052600436106102c35760003560e01c806382e0a57411610170578063ae918754116100cc578063df9cd84f11610085578063df9cd84f14611122578063e443557014611187578063eaa8ba7f146111c2578063f5f1595d146112d3578063f92d343314611338578063fc7e286d14611363578063fda0101a146113fb576103aa565b8063ae91875414610f8e578063b83f91a214610fe5578063ce4b5bbe1461103c578063cef941e814611067578063d4ca057514611092578063d7fb0443146110f7576103aa565b8063940a71bc11610129578063940a71bc14610d5757806395fb16bb14610d925780639bf2f1ac14610de9578063a20baee614610e14578063a3f4df7e14610e3f578063a4e59ac814610ecf578063a7bfff9714610f1e576103aa565b806382e0a57414610b3557806386da082414610bb2578063887105d314610c7b5780638b8fbd9214610ca65780638da5cb5b14610cd15780638f32d59b14610d28576103aa565b80634870dd9a1161021f57806372fe25aa116101d857806372fe25aa14610960578063741bef1a1461098b57806376671808146109e257806377553ad414610a31578063794e572414610a88578063795d26c314610ab35780637f7dde4a14610ade576103aa565b80634870dd9a146107e4578063538153ca1461080f578063556be1011461083a5780635733d58f146108755780635d2de642146108a05780635f788d6514610905576103aa565b80632e86bbd81161027c5780632e86bbd8146105eb578063335525ad1461061657806334c6e4921461065b578063389e92a5146106965780633cc74225146106fb5780633d83908a14610752578063400c1bec146107a9576103aa565b806314f6c3be146103af57806316b9d3c5146103da5780631bf43555146104a35780631cdc4700146104ce57806328a0a04d146105335780632e54bf95146105b0576103aa565b366103aa576102f47f873a1990df6cf7d180ee7f36753afc7d0ab987666ccdfbbc97c731f1a8dc7ce960001b61146c565b6102fc61146f565b6103287f2d55120ef40e07c8eaef0768c2ef14015f06aca80225a62af33ee8d83aad2dec60001b61146c565b61033d346009546115f290919063ffffffff16565b60098190555061036f7f22d7f0110dcf04d6e6cd8f49f76d4b3e20f68765ee5a6399941ef26450ead77e60001b61146c565b7fceb6d671277d4354fd29977ada70695fbd93a16612abf765d6b0e25c28dc6db36009546040518082815260200191505060405180910390a1005b600080fd5b3480156103bb57600080fd5b506103c461167a565b6040518082815260200191505060405180910390f35b3480156103e657600080fd5b50610429600480360360208110156103fd57600080fd5b81019080803573ffffffffffffffffffffffffffffffffffffffff169060200190929190505050611708565b60405180868152602001858152602001848152602001836fffffffffffffffffffffffffffffffff166fffffffffffffffffffffffffffffffff168152602001826fffffffffffffffffffffffffffffffff166fffffffffffffffffffffffffffffffff1681526020019550505050505060405180910390f35b3480156104af57600080fd5b506104b8611776565b6040518082815260200191505060405180910390f35b3480156104da57600080fd5b5061051d600480360360208110156104f157600080fd5b81019080803573ffffffffffffffffffffffffffffffffffffffff169060200190929190505050611783565b6040518082815260200191505060405180910390f35b34801561053f57600080fd5b5061059a6004803603604081101561055657600080fd5b8101908080356fffffffffffffffffffffffffffffffff16906020019092919080356fffffffffffffffffffffffffffffffff169060200190929190505050611b67565b6040518082815260200191505060405180910390f35b3480156105bc57600080fd5b506105e9600480360360208110156105d357600080fd5b8101908080359060200190929190505050611b8c565b005b3480156105f757600080fd5b50610600612650565b6040518082815260200191505060405180910390f35b34801561062257600080fd5b506106596004803603604081101561063957600080fd5b81019080803590602001909291908035906020019092919050505061265d565b005b34801561066757600080fd5b506106946004803603602081101561067e57600080fd5b81019080803590602001909291905050506129f7565b005b3480156106a257600080fd5b506106e5600480360360208110156106b957600080fd5b81019080803573ffffffffffffffffffffffffffffffffffffffff1690602001909291905050506129fa565b6040518082815260200191505060405180910390f35b34801561070757600080fd5b50610710612dde565b604051808273ffffffffffffffffffffffffffffffffffffffff1673ffffffffffffffffffffffffffffffffffffffff16815260200191505060405180910390f35b34801561075e57600080fd5b50610767612e04565b604051808273ffffffffffffffffffffffffffffffffffffffff1673ffffffffffffffffffffffffffffffffffffffff16815260200191505060405180910390f35b3480156107b557600080fd5b506107e2600480360360208110156107cc57600080fd5b8101908080359060200190929190505050612e2a565b005b3480156107f057600080fd5b506107f9612e2d565b6040518082815260200191505060405180910390f35b34801561081b57600080fd5b50610824612e32565b6040518082815260200191505060405180910390f35b34801561084657600080fd5b506108736004803603602081101561085d57600080fd5b8101908080359060200190929190505050612e38565b005b34801561088157600080fd5b5061088a613182565b6040518082815260200191505060405180910390f35b3480156108ac57600080fd5b506108ef600480360360208110156108c357600080fd5b81019080803573ffffffffffffffffffffffffffffffffffffffff16906020019092919050505061318e565b6040518082815260200191505060405180910390f35b34801561091157600080fd5b5061095e6004803603604081101561092857600080fd5b8101908080359060200190929190803573ffffffffffffffffffffffffffffffffffffffff1690602001909291905050506131a6565b005b34801561096c57600080fd5b50610975613cc9565b6040518082815260200191505060405180910390f35b34801561099757600080fd5b506109a0613cd5565b604051808273ffffffffffffffffffffffffffffffffffffffff1673ffffffffffffffffffffffffffffffffffffffff16815260200191505060405180910390f35b3480156109ee57600080fd5b506109f7613cfb565b60405180826fffffffffffffffffffffffffffffffff166fffffffffffffffffffffffffffffffff16815260200191505060405180910390f35b348015610a3d57600080fd5b50610a46613d1d565b604051808273ffffffffffffffffffffffffffffffffffffffff1673ffffffffffffffffffffffffffffffffffffffff16815260200191505060405180910390f35b348015610a9457600080fd5b50610a9d613d43565b6040518082815260200191505060405180910390f35b348015610abf57600080fd5b50610ac8613d4f565b6040518082815260200191505060405180910390f35b348015610aea57600080fd5b50610af3613fec565b604051808273ffffffffffffffffffffffffffffffffffffffff1673ffffffffffffffffffffffffffffffffffffffff16815260200191505060405180910390f35b348015610b4157600080fd5b50610b9c60048036036040811015610b5857600080fd5b8101908080356fffffffffffffffffffffffffffffffff16906020019092919080356fffffffffffffffffffffffffffffffff169060200190929190505050614011565b6040518082815260200191505060405180910390f35b348015610bbe57600080fd5b50610c0160048036036020811015610bd557600080fd5b81019080803573ffffffffffffffffffffffffffffffffffffffff169060200190929190505050614036565b60405180868152602001858152602001848152602001836fffffffffffffffffffffffffffffffff166fffffffffffffffffffffffffffffffff168152602001826fffffffffffffffffffffffffffffffff166fffffffffffffffffffffffffffffffff1681526020019550505050505060405180910390f35b348015610c8757600080fd5b50610c906140a4565b6040518082815260200191505060405180910390f35b348015610cb257600080fd5b50610cbb614341565b6040518082815260200191505060405180910390f35b348015610cdd57600080fd5b50610ce6614347565b604051808273ffffffffffffffffffffffffffffffffffffffff1673ffffffffffffffffffffffffffffffffffffffff16815260200191505060405180910390f35b348015610d3457600080fd5b50610d3d614371565b604051808215151515815260200191505060405180910390f35b348015610d6357600080fd5b50610d9060048036036020811015610d7a57600080fd5b81019080803590602001909291905050506143c9565b005b348015610d9e57600080fd5b50610da76143cc565b604051808273ffffffffffffffffffffffffffffffffffffffff1673ffffffffffffffffffffffffffffffffffffffff16815260200191505060405180910390f35b348015610df557600080fd5b50610dfe6143f2565b6040518082815260200191505060405180910390f35b348015610e2057600080fd5b50610e29614480565b6040518082815260200191505060405180910390f35b348015610e4b57600080fd5b50610e5461448c565b6040518080602001828103825283818151815260200191508051906020019080838360005b83811015610e94578082015181840152602081019050610e79565b50505050905090810190601f168015610ec15780820380516001836020036101000a031916815260200191505b509250505060405180910390f35b348015610edb57600080fd5b50610ee46144c5565b60405180826fffffffffffffffffffffffffffffffff166fffffffffffffffffffffffffffffffff16815260200191505060405180910390f35b348015610f2a57600080fd5b50610f6d60048036036020811015610f4157600080fd5b81019080803573ffffffffffffffffffffffffffffffffffffffff1690602001909291905050506144e7565b60405180838152602001821515151581526020019250505060405180910390f35b348015610f9a57600080fd5b50610fa3614518565b604051808273ffffffffffffffffffffffffffffffffffffffff1673ffffffffffffffffffffffffffffffffffffffff16815260200191505060405180910390f35b348015610ff157600080fd5b50610ffa61453e565b604051808273ffffffffffffffffffffffffffffffffffffffff1673ffffffffffffffffffffffffffffffffffffffff16815260200191505060405180910390f35b34801561104857600080fd5b50611051614564565b6040518082815260200191505060405180910390f35b34801561107357600080fd5b5061107c61456c565b6040518082815260200191505060405180910390f35b34801561109e57600080fd5b506110e1600480360360208110156110b557600080fd5b81019080803573ffffffffffffffffffffffffffffffffffffffff169060200190929190505050614572565b6040518082815260200191505060405180910390f35b34801561110357600080fd5b5061110c614a97565b6040518082815260200191505060405180910390f35b34801561112e57600080fd5b506111716004803603602081101561114557600080fd5b81019080803573ffffffffffffffffffffffffffffffffffffffff169060200190929190505050614a9d565b6040518082815260200191505060405180910390f35b34801561119357600080fd5b506111c0600480360360208110156111aa57600080fd5b810190808035906020019092919050505061146c565b005b3480156111ce57600080fd5b506112d1600480360360e08110156111e557600080fd5b81019080803573ffffffffffffffffffffffffffffffffffffffff169060200190929190803573ffffffffffffffffffffffffffffffffffffffff169060200190929190803573ffffffffffffffffffffffffffffffffffffffff169060200190929190803573ffffffffffffffffffffffffffffffffffffffff169060200190929190803573ffffffffffffffffffffffffffffffffffffffff169060200190929190803573ffffffffffffffffffffffffffffffffffffffff169060200190929190803573ffffffffffffffffffffffffffffffffffffffff169060200190929190505050614e7e565b005b3480156112df57600080fd5b50611322600480360360208110156112f657600080fd5b81019080803573ffffffffffffffffffffffffffffffffffffffff169060200190929190505050615b7f565b6040518082815260200191505060405180910390f35b34801561134457600080fd5b5061134d616131565b6040518082815260200191505060405180910390f35b34801561136f57600080fd5b506113b26004803603602081101561138657600080fd5b81019080803573ffffffffffffffffffffffffffffffffffffffff16906020019092919050505061614b565b604051808381526020018273ffffffffffffffffffffffffffffffffffffffff1673ffffffffffffffffffffffffffffffffffffffff1681526020019250505060405180910390f35b34801561140757600080fd5b5061146a6004803603604081101561141e57600080fd5b81019080803573ffffffffffffffffffffffffffffffffffffffff169060200190929190803573ffffffffffffffffffffffffffffffffffffffff16906020019092919050505061618f565b005b50565b61149b7f9f573e4c40240583b786965d58fbad22c88cf19064a08a894721b4178e8b80f860001b61146c565b6114c77fbce7202f9b332711c2fd6a54b777d143735d5c5074cd4a26ff38e7f7ba94389660001b61146c565b6114f37f790c9a445ba826fac4c80397bb80d90e3c4fca0a1e1eeb1783946389fe1219f960001b61146c565b61151f7f371889f5e5d3308eab1771b482442f920df83058fe4e5178c35fbca3c29fe38a60001b61146c565b6000809054906101000a900473ffffffffffffffffffffffffffffffffffffffff1673ffffffffffffffffffffffffffffffffffffffff163373ffffffffffffffffffffffffffffffffffffffff16146115c4576040517f08c379a000000000000000000000000000000000000000000000000000000000815260040180806020018281038252602781526020018061e6ed6027913960400191505060405180910390fd5b6115f07f0e8d173e331d51629b4d19053ef5677513e8d5a29d1eb63ccffad3a298d49b7b60001b61146c565b565b600080828401905083811015611670576040517f08c379a000000000000000000000000000000000000000000000000000000000815260040180806020018281038252601b8152602001807f536166654d6174683a206164646974696f6e206f766572666c6f77000000000081525060200191505060405180910390fd5b8091505092915050565b60006116a87f34f30010081d47cf0a55e160481c77f1cd82d810721ad68dc0e8287a956d018f60001b61146c565b6116d47f4014a99a641d917ac708260c3444b80036b62ff2c33e60439357ab2b4f1b2a6e60001b61146c565b6117007f240dd659e08011e6cc3de8f086a73b0008c28f10cf47c70009d568185cdfb22b60001b61146c565b600954905090565b600f6020528060005260406000206000915090508060000154908060010154908060020154908060030160009054906101000a90046fffffffffffffffffffffffffffffffff16908060030160109054906101000a90046fffffffffffffffffffffffffffffffff16905085565b686194049f30f720000081565b60006117b17fe23ecb858f11bb3bd8daa4f20be2a9eba2f6df05cee859adac5f73921889f4db60001b61146c565b6117dd7fcc7bd3467ac2eeb6f443bcd84f4410de9d86de373d451250c157c4639c6cd00260001b61146c565b6118097fbd6d9a61e91f2761ddf27041a668f8c35a8fa6daaa0e86b84c0e2ec09bf240c760001b61146c565b6000600b60008473ffffffffffffffffffffffffffffffffffffffff1673ffffffffffffffffffffffffffffffffffffffff16815260200190815260200160002060000154905061187c7fa6d64d78d24335ebca8872203d09da777bf151abe593472506ceed0f160e11bb60001b61146c565b6118a87f96d519ac52a2b9275abfe8f237f959db4529db7a31de7dc9a58429b27b2eb69c60001b61146c565b6000811415611913576118dd7f5c6a981d1642c710d18ccc16ebcd83133c54d48526e59353d58179e786749f6f60001b61146c565b6119097fc99a03118fa15d24f2163e7e11b62ce5036050ca1870af303a38b9d4ef846d2b60001b61146c565b6000915050611b62565b61193f7f96f92376c9228e2fc6dff9be7d39dee9e6385bb10234da39fbb72d42d093724960001b61146c565b61196b7fbcfd32e295003939bac558d6722e74eaf8871bb7e4c634c8d77cabac5073624660001b61146c565b6119977fa12af31a23197f5e25530b21a8840e4c5bf1a2f272a9dd41ff0fa59c8c5d32ee60001b61146c565b61199f61e60d565b600c60008573ffffffffffffffffffffffffffffffffffffffff1673ffffffffffffffffffffffffffffffffffffffff1681526020019081526020016000206040518060a00160405290816000820154815260200160018201548152602001600282015481526020016003820160009054906101000a90046fffffffffffffffffffffffffffffffff166fffffffffffffffffffffffffffffffff166fffffffffffffffffffffffffffffffff1681526020016003820160109054906101000a90046fffffffffffffffffffffffffffffffff166fffffffffffffffffffffffffffffffff166fffffffffffffffffffffffffffffffff16815250509050611ac97ffbeeb60dbe13b52aadec8a98bd984f8a4e104973aae7e8d46ee8699f1687c68260001b61146c565b611af57f176d5b5f6c415589e1c55edb198a85f00439dbecb2cb5a995ebe3ba2aa4d565660001b61146c565b6000611b018383616db8565b9050611b2f7f839be4625f70286930fbd3cf07bc1007849fcec06161bcb323ee247ebfb91de460001b61146c565b611b5b7f8e98ac445595c0b0b83a9effe4c197be62af07f527bb85c9046e1f13d0151cbd60001b61146c565b8093505050505b919050565b6012602052816000526040600020602052806000526040600020600091509150505481565b611bb87f628db10ffc8162aacd8b340ff7ed00149bf6254b35155e2f24872e2bcdc0b26160001b61146c565b611be47f61efa2b94286333f8d11846865909c7a5864dafd11d31e029630d343de4ecff360001b61146c565b611c107f44af82fec78131e2154f62f541d8d5750563e88a584c0ba8f844b7414f32d20a60001b61146c565b60008114611c7d57611c447f5b7e1bf888772f2250a25fc6ceafa3cdf9f180fbea9bd74eae46533c1ef1629560001b61146c565b611c707fc4e24567fca705e2b79c9728c8d5478fca26ffea202926d40897d37a5db3631d60001b61146c565b611c7861758d565b611caa565b611ca97f3a6534bc0e4c10259ad2c9abcd83a9cc162fe951857b4d96c92ddb6f9d53f0b160001b61146c565b5b611cd67fa60a6c72ba8d7bf5cd58ab3955ab43514efeeaf9a677d2182a000af2f2775dec60001b61146c565b611d027f8167d0482be1ee3237855b9da29fd077e9ba4ab6e6066a562425dc07211f0d8160001b61146c565b6000600b60003373ffffffffffffffffffffffffffffffffffffffff1673ffffffffffffffffffffffffffffffffffffffff168152602001908152602001600020600001549050611d757f48af1365320c09c2eb3176f0b1f351e009f7bb6e9495db92f53427f2683b651460001b61146c565b611da17f533d9050c46853d7cc416052e41a9b4341653c6350306dec7ad06c0cf7f7850060001b61146c565b611daa81617a0d565b611dd67f94ea8fa1ac2408f92ef7c271e26d1b193abbb58bcd4f2538139c8cec8b6cf7f960001b61146c565b611e027f2d732959fe228898d88560f320d5331932de1560e34aa53eee30e281bd7178c460001b61146c565b6000600860009054906101000a900473ffffffffffffffffffffffffffffffffffffffff169050611e557f7593e79f5fb5f57d191b46bfea6833912922a0834b718659b415658f6b50999760001b61146c565b611e817fe0dfc946575dd8eb7b72f297a3ffbf07a389cf808fb4d04b2f198d94ebeff4bb60001b61146c565b611e8a81617b45565b611eb67f247618e941ec8c33732d998847dea5e64ecea2b28b04407ef8f43606d9d3ef9c60001b61146c565b611ee27f87abc6b30741484864afce59637897ea7349dc824c870d047399ecf9bc19a0e860001b61146c565b6000611eed336129fa565b9050611f1b7f0a390ce519389b6dd2156a1d6cff8f9e3ccd7645ecffe277ada93b50f4099b4d60001b61146c565b611f477f8e0ced187725488d8fabcd0ec72b8ae0c1de25291287b407a9cc14934593658b60001b61146c565b6000611f5233611783565b9050611f807fc49e9c22661b7a2a1b0923a0d6687af39bf8e9e0e785ca70bdbf13f47fa654f360001b61146c565b611fac7fbfc27aabde092b1d2cdb617a3f426b9cb312a94c72ad5047de759ca09797837060001b61146c565b6000611fb88683617cb5565b9050611fe67faed2a930eda2bed9fd870a71c2192c9212ca47a32a0e3d973f5f1e66fb26470960001b61146c565b6120127f31a325a95eb55684daba7dd07d1462a736ea18592a74a6243723ba6dfdec7bbe60001b61146c565b60006120278387617d5290919063ffffffff16565b90506120557f7906f7e13b57e86d221e709ddbf5593d943d4c76cbc61310109e2635d68fef9160001b61146c565b6120817ffdbc744039ff3b211de5c59cc592f4b9394d91fc481c2befc3a4160ff6db131460001b61146c565b6000600b60003373ffffffffffffffffffffffffffffffffffffffff1673ffffffffffffffffffffffffffffffffffffffff16815260200190815260200160002060010160009054906101000a900473ffffffffffffffffffffffffffffffffffffffff1690506121147f6183d28aa8342ce9e2349b12d61ebce7c6a0265f376489aece3317357420154a60001b61146c565b6121407feb3b13b76c216bdb0d8f183b2c6d7899febdb59c5b30ceca04db46ec4609b2fc60001b61146c565b61214b863383617d9c565b6121777f81c98dc5842b6bbd4b00f89b15bdd5ceae89ee7473e9fb26c862a9573650e97b60001b61146c565b6121a37f7d143719a364893f4580c98cf4c9b3c36349be5cc76156fa4fa673962efdaf3e60001b61146c565b60006121ae82614a9d565b90506121dc7f07ff4a554fb22a35ea6993dc66d63608e0b5b5dd65ab21950ced2025bf73ea7a60001b61146c565b6122087f9ec294a845d2cada3e69c6501c32868ae70c229afd40cab7618a1eb3431ad51d60001b61146c565b600061221d8583617d5290919063ffffffff16565b905061224b7fdc6dd7663ec9fccecdc98e0d31fb7f0c48f31fcea8237942f70972a4b02f651c60001b61146c565b6122777ffb0b1b6bc27e1e99395ba5d15c28e549c9065f976be46d707b5da5da7645444860001b61146c565b61228183826182bd565b6122ad7f7f30d233d4d292a43fddcaea446a49e55c9c90606cabcf57bd5af9c4e2df54f060001b61146c565b6122d97f46cf296c2572c60afecbabb977a9b4b62a68530171044b00758a6836bd65413960001b61146c565b8273ffffffffffffffffffffffffffffffffffffffff167f99920012339b5a3368d3a04b8606ce412c46ed92b7dcd8602d41fc8862cb8f258233604051808381526020018273ffffffffffffffffffffffffffffffffffffffff1673ffffffffffffffffffffffffffffffffffffffff1681526020019250505060405180910390a26123877f9230217c6adb9bff52be4c53812ec5aaa221dc5fc8b9ecec65d2433707c1a6c860001b61146c565b6123b37f3a389ca7333e65c30d815f6092e1bd7d85770c80c48f5a5234bcd7415efaab3960001b61146c565b6123bd3386618bc9565b6123e97f226f3506afa4f1dbdb641ca5fed66f3442e0d750457e88dc5fef34655bdaf67460001b61146c565b6124157f4ffcef1e506ce0a635a5094c103a48d1fc35a97b1abc52d81e853171a687b15260001b61146c565b600061242a8688617d5290919063ffffffff16565b90506124587fa3a34b97df906883c796eccda6819dd9c4a84ac69909821d355040f497a997c960001b61146c565b6124847fe0b47ed7c08f4da47cd3c384b00a978439bf3575fbc328b2d1ade36a9ca70e8260001b61146c565b61248e3382618e92565b6124ba7fba4c93887028404ff48e140dbb0ebedd1f200491313fbd927003a35c7ce9e58f60001b61146c565b6124e67fec76cf715f6ea6dc6ca93da299d704d90c1574e5dcb90feaf2147df2226ad35d60001b61146c565b3373ffffffffffffffffffffffffffffffffffffffff167fbce78369dccab09eec1986f4d409ab09ffbb47d65423e5148fcf98411c5111c9826040518082815260200191505060405180910390a26125607fe6ae3b7be3b7ef83bee670b09248845148a20871e83c7e98893190c98b1ff94860001b61146c565b61258c7f7f7f80add0c0ddf1b71e4415772309d2427a488bf4a75313583fad139f99959360001b61146c565b3373ffffffffffffffffffffffffffffffffffffffff167f51457222ebca92c335c9c86e2baa1cc0e40ffaa9084a51452980d5ba8dec2f638987604051808381526020018281526020019250505060405180910390a261260e7febb8a7dbd71f52cac5eb2c2c7abc7f1a9e024f3c1130e64f5f955d56adf30c6560001b61146c565b61263a7fbb0a3360695175f468c173b6a5da7dffbc81c85a288dc909c8de7f36bdff8eba60001b61146c565b612643886199ae565b5050505050505050505050565b680ad78ebc5ac620000081565b6126897f5db4a104be8a7b3437fff915c36f271f7fde89613b2d2e27400ee1faf9f1e0d960001b61146c565b6126b57f0793dcbc6c80c19a27c98696d279c2905189525860fd81f05eb4962b0e88b52d60001b61146c565b6126e17fafd63bce76a739dab66ebbf285212d811493e00c14bbc8be5048aa662feedaa260001b61146c565b6126e9619eb2565b6127157f83f9ef4a3645b6dddb9baa8819414e8344405b531e248039455db56dd0fa2b6d60001b61146c565b6127417f5644449a7cc52f0ba8563416e9707d21c3e8dfda518633fe7745dbda9ded403f60001b61146c565b6000600a5490506127747fa21202b27de0205a40331cc6a7726e4516fc3c44ad966a2221d175472c1f508d60001b61146c565b6127a07fa8cb19837857cfda87d050e627af126472ae84c0ffb4d5089043b35d017a4d8a60001b61146c565b60008114806127af5750600083145b15612812576127e07ffe4e560b91df56ef5fae22026e75557c69aca4158d820ec97e1df6fad0dfae4560001b61146c565b61280c7f0158046fdee1bfd9ad87d954235cb2d97f83a4af07dad5fe8876fe6ab8d594cf60001b61146c565b506129f3565b61283e7fe524a5092989c75be5ef75a89effe8b5e77ee6436b9628b83e4401abcde1b55160001b61146c565b61286a7f302ecb5a3d95db7c8e243fb52da5d14c47c6d331e77797d1861812d79638eff360001b61146c565b6128967fe6ba46e5928b65ed651a72439b5cef2eced3ebb27f3db7a1529d2a6bcf852b2160001b61146c565b6128c1600860009054906101000a900473ffffffffffffffffffffffffffffffffffffffff16617b45565b6128ed7f2d7ae7c006960fe129e23b7013fd5e11b8f3fc54396e144af8b1b87bebc521c760001b61146c565b6129197f2788ca010caea89c28305b5778fe854861f5942a1db31ef4c913c5979242973060001b61146c565b60008061292784868561a036565b915091506129577f7a7e6dfd7a38dac08732c8480c27ba0df985e07038feb37c600330811c69478060001b61146c565b6129837f2504236bf90509709c7f62bbf5841e5843c0c178120b6e7e45a4eb4a1cb4a79760001b61146c565b61298d828261a5b9565b6129b97f14d68527781356413be283c9e33e66fdf78cb1451fb57005306057702487d2dd60001b61146c565b6129e57f0304089d978a804f90532e526534ef7d0d698b9924627839034de4ad08f0bc5060001b61146c565b6129ef848661b4a1565b5050505b5050565b50565b6000612a287f84510d6e295fe723f5ba0b4df6b3694c76dacb82222fc84a06c9e3f2b02c5afb60001b61146c565b612a547f92a1661a24e07c785400a6ad4c24b4ffbbc50756d8f8ae6043bfc4678b8143e360001b61146c565b612a807fa8a15a4240def4d74345f316cc301fa7bd4b47c942011d8d45c6bd1ece16a94a60001b61146c565b6000600b60008473ffffffffffffffffffffffffffffffffffffffff1673ffffffffffffffffffffffffffffffffffffffff168152602001908152602001600020600001549050612af37f9c428d3d7448d22bb491126129f395d9e75b8ccd01b1a4800c7c384e151e43fd60001b61146c565b612b1f7f6b40036367b6bdf3f575a1aea94295c9214facad42585b03a926af6808c77e6160001b61146c565b6000811415612b8a57612b547f7070fa5534a72d4322fb973ae392619f96567ff425ecbeb5e9d6038780ca78e860001b61146c565b612b807f52e829b2f7bb0ba2375dcc36e816389696815d89f1f963b97e5ea4c4df278fb060001b61146c565b6000915050612dd9565b612bb67fd8cb534342fc7a90c03168e4f30a0177dd00ef249eec958c6197a8320bd2338860001b61146c565b612be27f3ebe2724f4bfdfe691178e7c0a274c941656d945d7821e284801acc8dcbd06f860001b61146c565b612c0e7ff4ce1e248acff8ef6afe1f40fbf7d9f74a75ff86f8f679d0aa4eabae4787a71460001b61146c565b612c1661e60d565b600c60008573ffffffffffffffffffffffffffffffffffffffff1673ffffffffffffffffffffffffffffffffffffffff1681526020019081526020016000206040518060a00160405290816000820154815260200160018201548152602001600282015481526020016003820160009054906101000a90046fffffffffffffffffffffffffffffffff166fffffffffffffffffffffffffffffffff166fffffffffffffffffffffffffffffffff1681526020016003820160109054906101000a90046fffffffffffffffffffffffffffffffff166fffffffffffffffffffffffffffffffff166fffffffffffffffffffffffffffffffff16815250509050612d407f17076d8e571250112880e92a48cc0f78c327639b3c199aa45a88cce818c4828060001b61146c565b612d6c7f59ccbb0b296b101c2966d3ab1028a293ef3dc390f3786bfa493a0964a421d39860001b61146c565b6000612d78838361b884565b9050612da67fb28f698c82ecbc8a8a34b86d87f6bebff7f6750809adab2fde01d83b612e164b60001b61146c565b612dd27f932cef6db1aa3ff8deaed4bb49ff29cff154465db8f3804a72076bb7dc3cb4ac60001b61146c565b8093505050505b919050565b600160009054906101000a900473ffffffffffffffffffffffffffffffffffffffff1681565b600560009054906101000a900473ffffffffffffffffffffffffffffffffffffffff1681565b50565b60c881565b60165481565b612e647f46bc969aa3c2b6a3601bba93347b2a165e0e0eb5a3009a9f2d48a19e8dc1ddef60001b61146c565b612e907f5e8ab89d9c5be30cbcb53d91e31d0b8cbfb36286cf92886eb80a3f011aa9d74560001b61146c565b612ebc7f244ff41da30908238a7d5f933fdc5842a7523fd9760a7b1e71878d3c16c5a23960001b61146c565b612ec53361bd2a565b612ef17f50a8a6ea3fc0e7df346cd3166c260499fe16ce56fbe1ff080db2e744aa0f519960001b61146c565b612f1d7f227f12e1566ff25b042440c5423ff35ccc206566fbe5db762a012f611269e85560001b61146c565b612f263361beaf565b612f527fef5364375c4a4cf739f465007d1b87d2096887ce1781692e604c631d99ea349d60001b61146c565b612f7e7ff6f153b10aa081e6a519529ef57e2a7f2027699c6ac941a5c3db2a1fbee6687860001b61146c565b612f878161c087565b612fb37fd7303d85bc2315ff59ce611126ebf2b4023e7476bbc79e99f42d5823a86f353d60001b61146c565b612fdf7f9aaf1a79747e6ea2788b8c892ff66fad748a88718ac23d30a8c95fb470d5e05460001b61146c565b80600d60003373ffffffffffffffffffffffffffffffffffffffff1673ffffffffffffffffffffffffffffffffffffffff168152602001908152602001600020600001819055506130527f7b89bd7cd75e89299d806c04b77533f1f4dd0e883f01264150fc64fbecde2f6560001b61146c565b61307e7fdc0688f0475d3023443f4bc98f9ed4accca7e5163f17cc09318f8ce0ecffd20860001b61146c565b6001600d60003373ffffffffffffffffffffffffffffffffffffffff1673ffffffffffffffffffffffffffffffffffffffff16815260200190815260200160002060010160006101000a81548160ff0219169083151502179055506131057fe21cc6b21a84e32ef103db744f34601fdccb085d51372f725612288127b5ef0760001b61146c565b6131317f3ade75d664c5ae0a80ba3d738c963ddaccfa2b8dc2f4c7b425879927b914606b60001b61146c565b3373ffffffffffffffffffffffffffffffffffffffff167f19bc932fb9e16a8b5a1e41be9f4c2de59d5ddd7567b8b81405f532ca00a9880e826040518082815260200191505060405180910390a250565b6714d1120d7b16000081565b600e6020528060005260406000206000915090505481565b6131d27f907aba32f118675beeed156f37d7c19f676557d907dd4b533934f866b247139f60001b61146c565b6131fe7f9c561995444e27f8e7074c5369620e0ea89f862b15632ad919796144eab576e360001b61146c565b61322a7f3ba2e11b47cc865e5663f03dd0b59e3502af8ab43095f7f8543b8cb5c65a6efe60001b61146c565b6132338161c1c7565b61325f7fc768307c58de3dbf54933d39541ef914db67261d6d5eac493a5d9ac304cfb7ae60001b61146c565b61328b7f9167b67672dec54590718362a3a97697102446dc6a5b615cd309ea89f0036b0160001b61146c565b6132943361bd2a565b6132c07f02a2b226c472d997c700d316bb188769a192879e337570d6522475533a2b924060001b61146c565b6132ec7f8361ba65bcfbb78da8b8b7efa743ec6c2149a99dd4afb708f1dd89b3bd5e024b60001b61146c565b6132f58261c382565b6133217f938ee8914ba86f47977f691952e794913a83e1477a46f3ba6bea9a1e4589b39b60001b61146c565b61334d7fc51fdc620c4f4e3f172ef0aa05dd452a1eb352f9f00ef5de55eec22a704d378560001b61146c565b6000600b60003373ffffffffffffffffffffffffffffffffffffffff1673ffffffffffffffffffffffffffffffffffffffff1681526020019081526020016000206000015490506133c07faecb9854b2bd45c0b15ebce353153391a3e8fe02e59b22715f93bf0c8f29b4e660001b61146c565b6133ec7ffcb8e300d2bd9aff3335a1ef9e8f43ec9f0ae07e77cc2d15c220b2a640ee8abb60001b61146c565b6000600860009054906101000a900473ffffffffffffffffffffffffffffffffffffffff16905061343f7fd5a85759456439a238b65a00ff1ba16e80600cf3d8772c1e703cb6313c1fb60860001b61146c565b61346b7f9fc3d0c17e3135f1dcb2127941bf28db9f7ad24a462dad260f657847d570394f60001b61146c565b61347481617b45565b6134a07f6727fac5383d7ee8ee3f491d5c7b816a959239cd9efdfb79748a4fbc695804a360001b61146c565b6134cc7f5fa56f291c6ad55d49a7690ff9cf1bd9e0e00894171f354449f31f858994059760001b61146c565b600082141561353c576135017f4ebe1a804b9ad2c3a70944fabff02c414d760a91db09ac0debb7a5e510bdaf0960001b61146c565b61352d7f3cc002c9abfde7777700d0986aac4316ef23ece49891560a293b3c16226101f960001b61146c565b613537338461c4ba565b613569565b6135687f77330b726be2d68fb426e45375da6e43cd91e46edc3f285c1a8273b12e37ec3e60001b61146c565b5b6135957fecf444ab4e9ed58cd5d7ef93e9f4771eb34983651e1d6f687aed596c15ea3e6660001b61146c565b6135c17f75925159850cf89ea40ff11816b85539ab9d085fa9f9db04d2e7285bd62a23b960001b61146c565b60006135cc336129fa565b90506135fa7f0e59a41219bd369930e29d63ba36f3afe6f2470a50faf6c8ea43e9a1968e2d6760001b61146c565b6136267f410b7ed447a86dd326c8aa5c856a1dbcaa79d1a0c9201152e173e6d006ce228060001b61146c565b600061363133611783565b905061365f7f1c9170025533decdf74dd7012948d3809879437fa7a827012a01fd315e70089660001b61146c565b61368b7f63924f22db0051c1859822855858f2e53ab4b8a67bf4a4a3f86901d78e5ea6a160001b61146c565b60006136a08286617d5290919063ffffffff16565b90506136ce7f113277c2ebb6e37d47bd8c4bbe68202ac91f8ba0489556d4a8614bbec831031b60001b61146c565b6136fa7f2417d4a3f0c14d5c392c04d1a01e5598f4196dddad681ed39d1e63fecf0c920060001b61146c565b6000600b60003373ffffffffffffffffffffffffffffffffffffffff1673ffffffffffffffffffffffffffffffffffffffff16815260200190815260200160002060010160009054906101000a900473ffffffffffffffffffffffffffffffffffffffff16905061378d7f7f89574d838b9354fe688423c35fe31bf254e0eb2d5ba71240fb146df683db1460001b61146c565b6137b97f60a194356f62729fcad3ac16ae28e93563bd6417c7a0e5569df2684a20942dd760001b61146c565b6137c4853383617d9c565b6137f07f2506d28a0bc2b585916c8c8a0533f03dd70a8a0498af3daa24edb762b0dea25360001b61146c565b61381c7f671178cfb6c24db26bbbbbb883a50ac6d9d00f6920189ad8fdea9253aa9d029460001b61146c565b600061382782614a9d565b90506138557f5a1089fe68523bef9b7210d8667572059bdd7ec486dfc35abc9d233028ba20bc60001b61146c565b6138817f0633637c8cb89dc7cc44008834b44c4a68193b6edbd26b5d781899f1fb924aab60001b61146c565b60006138968a836115f290919063ffffffff16565b90506138c47f527d0be22f9e1d1dc4f46d1e534985533c7fdd9f3de939aa3c1b5decfec310c360001b61146c565b6138f07fbf0e2607778c711bff051c3aeb56ceb5b432acd2b9a6cf7e4a4888468d68ecb160001b61146c565b6138fa83826182bd565b6139267fcdc693ceb2cc5db4a22af87cacbb6b0e075d3225bb05b4f937494c0334ba1e5760001b61146c565b6139527f3a75ee3356fd51c58bcfe3386940d7707c377e688084597648fff374b9afb5dd60001b61146c565b8273ffffffffffffffffffffffffffffffffffffffff167f99920012339b5a3368d3a04b8606ce412c46ed92b7dcd8602d41fc8862cb8f258233604051808381526020018273ffffffffffffffffffffffffffffffffffffffff1673ffffffffffffffffffffffffffffffffffffffff1681526020019250505060405180910390a2613a007f788bf21e90b1eebc9e8f441d5309fa32d93173efec4dc4bca4ea5e998370720460001b61146c565b613a2c7f4104c625b7a8cc693909746facbd52fae7bd9e4eca0bbca6df1084aa493eb64e60001b61146c565b613a36338b61c675565b613a627fd3908195142c8f1a0575fb9d2c84593767ffd97f3b0be4a92e67a2e759ff814960001b61146c565b613a8e7fbc88d76a519f6a0c14f4dbaf38c99732458b344e013cd6ea7a61775f0d7ebf0860001b61146c565b6000613aa38b876115f290919063ffffffff16565b9050613ad17f5157153b70c9efd46494ef4b04292b40c1e9a5c56a0181fb1884fd3c31fcd3ad60001b61146c565b613afd7fe4021b02e8c7cca9ca0ee0ae2f311892c5ae87e03a52eb15734ca1b7843a1ecb60001b61146c565b613b073382618e92565b613b337f3010c23d7f8d4494888194bc4b8db59d1b4867850cbb837725381707d384eb7460001b61146c565b613b5f7f44003f493536735a2770fcb498dff674efe3eda9de08081dbd85fe8b68df26af60001b61146c565b3373ffffffffffffffffffffffffffffffffffffffff167fbce78369dccab09eec1986f4d409ab09ffbb47d65423e5148fcf98411c5111c9826040518082815260200191505060405180910390a2613bd97f7a437595b962865784277a98a2c0da7892677834f8b83487408330fd5b8de52360001b61146c565b613c057f291bd4ce402b62cbbcc8e4e829388f0371eb4b55419383d0ff86415ab550a2a860001b61146c565b3373ffffffffffffffffffffffffffffffffffffffff167f51457222ebca92c335c9c86e2baa1cc0e40ffaa9084a51452980d5ba8dec2f638887604051808381526020018281526020019250505060405180910390a2613c877f2c52c61fb226df2fa47d91ebda46395ea18f6ad52dabc82d5452899850e399f360001b61146c565b613cb37f239835ffaa05bfd28825b2f1e8799f9043eb300c33cf847d98de8be6b67d14c760001b61146c565b613cbc876199ae565b5050505050505050505050565b670de0b6b3a764000081565b600260009054906101000a900473ffffffffffffffffffffffffffffffffffffffff1681565b601160109054906101000a90046fffffffffffffffffffffffffffffffff1681565b600460009054906101000a900473ffffffffffffffffffffffffffffffffffffffff1681565b670f43fc2c04ee000081565b6000613d7d7fffed618358291ba6891e1754cb73cb764c0581799afe3edc4c8d5e33b5d69dec60001b6129f7565b613da97ff0efb67b0790e4a16906291f0f5b33c4b9e350c5c12e5dc419b35b3e2a7643fd60001b6129f7565b613dd57fe39126d6b608bc17f868ee02cec3987f5c9f0eb5a2861fa1ee436805d724101360001b6129f7565b60008060009054906101000a900473ffffffffffffffffffffffffffffffffffffffff1673ffffffffffffffffffffffffffffffffffffffff16635eb52fca6040518163ffffffff1660e01b815260040160206040518083038186803b158015613e3e57600080fd5b505afa158015613e52573d6000803e3d6000fd5b505050506040513d6020811015613e6857600080fd5b81019080805190602001909291905050509050613ea77fd5c5e3697c84f44fc96c4b00a5092a8a17c44788644672edc404df8b4f33e79e60001b6129f7565b613ed37fccbc594bc92408b9e1a354fa088e5742270d98347611534f0ec71b706cce5dbf60001b6129f7565b6000600160009054906101000a900473ffffffffffffffffffffffffffffffffffffffff1673ffffffffffffffffffffffffffffffffffffffff16635eb52fca6040518163ffffffff1660e01b815260040160206040518083038186803b158015613f3d57600080fd5b505afa158015613f51573d6000803e3d6000fd5b505050506040513d6020811015613f6757600080fd5b81019080805190602001909291905050509050613fa67f2fcafe17cc1fa0b07af62f32ccc025484a46246a27b7f7fda3a9022f884c2ca660001b6129f7565b613fd27fbfd7ce3f2a0b31b728bd9f37aef94976a0d07e75cf5275f67bafe240332777d760001b6129f7565b613fe581836115f290919063ffffffff16565b9250505090565b6000809054906101000a900473ffffffffffffffffffffffffffffffffffffffff1681565b6013602052816000526040600020602052806000526040600020600091509150505481565b600c6020528060005260406000206000915090508060000154908060010154908060020154908060030160009054906101000a90046fffffffffffffffffffffffffffffffff16908060030160109054906101000a90046fffffffffffffffffffffffffffffffff16905085565b60006140d27fb66d50006e73330003d2aebca2677ba754a744532fcb120e1bf38e30d4354e9660001b6129f7565b6140fe7f7a243f0c01ac2eddb6f889adb5b25d20b6c77d0a71089b4e4a05e6f5dd04449c60001b6129f7565b61412a7fd9be4bb93a2c9d4022ac92258e5938de98f2fa4913238b33509b201c9962a88160001b6129f7565b60008060009054906101000a900473ffffffffffffffffffffffffffffffffffffffff1673ffffffffffffffffffffffffffffffffffffffff166314f6c3be6040518163ffffffff1660e01b815260040160206040518083038186803b15801561419357600080fd5b505afa1580156141a7573d6000803e3d6000fd5b505050506040513d60208110156141bd57600080fd5b810190808051906020019092919050505090506141fc7f26cd0bc42cbc160aba08644d1ec6607da3df5acdbbe9f5cb1f876046b51125a860001b6129f7565b6142287f07394f73b57effa5c0d06a28a34d8caf7f9c8e6f1ecd533143cd3adbc06c207560001b6129f7565b6000600160009054906101000a900473ffffffffffffffffffffffffffffffffffffffff1673ffffffffffffffffffffffffffffffffffffffff166314f6c3be6040518163ffffffff1660e01b815260040160206040518083038186803b15801561429257600080fd5b505afa1580156142a6573d6000803e3d6000fd5b505050506040513d60208110156142bc57600080fd5b810190808051906020019092919050505090506142fb7f46fe5e72681624df8f86211f619d0ca55960a48139a032d491c65f9e9ead8e4560001b6129f7565b6143277ff21ef2b4f180cbc00adb9efe704164ccc70207bf69042044214909b91d55604960001b6129f7565b61433a81836115f290919063ffffffff16565b9250505090565b60105481565b6000600360009054906101000a900473ffffffffffffffffffffffffffffffffffffffff16905090565b6000600360009054906101000a900473ffffffffffffffffffffffffffffffffffffffff1673ffffffffffffffffffffffffffffffffffffffff163373ffffffffffffffffffffffffffffffffffffffff1614905090565b50565b600860009054906101000a900473ffffffffffffffffffffffffffffffffffffffff1681565b60006144207f9962a703dc67155c2f6c7270c65fe4a46f3050b2aafa92373b32452c7305b81060001b61146c565b61444c7f044a6b5ffb9b931b98ee2bc3495faf07ec14d558b0253a35e7ce6b4e54c8a73160001b61146c565b6144787f48acab74b5adc581a8cd5b415630eb7d7602803b4562ffc5eb857879139bd68460001b61146c565b600a54905090565b670de0b6b3a764000081565b6040518060400160405280600d81526020017f53746162696c697479506f6f6c0000000000000000000000000000000000000081525081565b601160009054906101000a90046fffffffffffffffffffffffffffffffff1681565b600d6020528060005260406000206000915090508060000154908060010160009054906101000a900460ff16905082565b600760009054906101000a900473ffffffffffffffffffffffffffffffffffffffff1681565b600660009054906101000a900473ffffffffffffffffffffffffffffffffffffffff1681565b633b9aca0081565b60145481565b60006145a07f9d453fd63ec951a5457e70484e4831e3705fd5541bb42333df209df4ff45432b60001b61146c565b6145cc7fc55cbed00228a8ae9a7fefe7ce74607ab89d2d3f67102d27abb72a44bef9f97760001b61146c565b6145f87ff8261b0a8d7adb8fea4e4c99919f0936769350b26f6fb85b3811fdfce416f63560001b61146c565b6000600e60008473ffffffffffffffffffffffffffffffffffffffff1673ffffffffffffffffffffffffffffffffffffffff1681526020019081526020016000205490506146687f0bb11d8980f13a23e7253eb67f6a66d3a814aa158f7492f83ab86f63d3ee292d60001b61146c565b6146947ffed0f0ff16c3c3962cbfd14cb75ea90039d26b2a28c4dce0c8125e90458994e860001b61146c565b60008114156146ff576146c97fb4216b278f3e31bf63a994cf52ae77fcdb56f924a20b4ba1785362e3ef7d3b1160001b61146c565b6146f57f0fe5005e9ffa12c65ff3c2e2d0324ecec4f1fb9aa3439fa00a6278c871a78bcf60001b61146c565b6000915050614a92565b61472b7f7b6db5449c3625841c9a3712f7fdd88a2e36a66652747bdf129d769b0571e3c960001b61146c565b6147577fb7813749ae6c7436234de39138ea51e42c1ae336abfeb26c6e5f7bb4c9ab042660001b61146c565b6147837f3d06387937e2c58d5eadec4211da3b8730722bdd4792743bcedc0d3d7580c7e660001b61146c565b6000600d60008573ffffffffffffffffffffffffffffffffffffffff1673ffffffffffffffffffffffffffffffffffffffff1681526020019081526020016000206000015490506147f67fe22cbac4beb710d261e69a49e28ed6c2e37ca6d7b3793dcb18f5c0c1f083b02d60001b61146c565b6148227f246447d6d4b54bc9bcea8210a84e38870b6b435d278e5fb735500d8b7f2b42ee60001b61146c565b600061483f82670de0b6b3a7640000617d5290919063ffffffff16565b905061486d7fae5503348ce739509103910ebd30268c298d938207d0deb4e222a877274f780660001b61146c565b6148997feae9cf88c6152f9a555a1ec299c4ad1b3062a2e303408a2886ddfcc154aa904f60001b61146c565b6148a161e60d565b600f60008773ffffffffffffffffffffffffffffffffffffffff1673ffffffffffffffffffffffffffffffffffffffff1681526020019081526020016000206040518060a00160405290816000820154815260200160018201548152602001600282015481526020016003820160009054906101000a90046fffffffffffffffffffffffffffffffff166fffffffffffffffffffffffffffffffff166fffffffffffffffffffffffffffffffff1681526020016003820160109054906101000a90046fffffffffffffffffffffffffffffffff166fffffffffffffffffffffffffffffffff166fffffffffffffffffffffffffffffffff168152505090506149cb7f934cc07fa09d163cd0f1b1a85d7a05b81e74e9bbf7e4fb5775b085aba5907f5d60001b61146c565b6149f77f6e95185f0553208b9daf986fdec5832be41516f07e061f709b70c8be918b5f9e60001b61146c565b6000614a2f670de0b6b3a7640000614a21614a12888661c952565b8661cdf890919063ffffffff16565b61ce7e90919063ffffffff16565b9050614a5d7fff22495c4d5dd7d1d0dee8cd3a14643579af08deeb2ad03b0cc5a138b39b538160001b61146c565b614a897f869b1faff7f88a006ce2f70a5e5bb397f1448cf67773dc741c10ceabfe0daa4760001b61146c565b80955050505050505b919050565b60155481565b6000614acb7f3bf6334d660102161b51293613f11086948853a10b8f390bfc29a7af282a0e2760001b61146c565b614af77f781ea947567c246cd146879607dcfaa41855d85c476d7d7cd9dcdd74d3e74cae60001b61146c565b614b237fac31f918097d54a1884c94c3c17b5c76757eb487e28b7baac92aa8b32bce143c60001b61146c565b6000600e60008473ffffffffffffffffffffffffffffffffffffffff1673ffffffffffffffffffffffffffffffffffffffff168152602001908152602001600020549050614b937f1f904d5ad8dbb744c51aeae1d5f3be7d09acfb667d97531400cd247083efccb660001b61146c565b614bbf7f378554bedcd48706cf0303b476233898d8d8a4ecf4463b593d0e689ed6af10bc60001b61146c565b6000811415614c2a57614bf47fec0663c2722567419b24365afb41fcfc23c74fcb37abc907c82c2d674ae4bbce60001b61146c565b614c207fc24c6765cfdf4c5fdf983e8e1415b1bd4ea3970ebb01001c01252ce13650fdf060001b61146c565b6000915050614e79565b614c567f7765192d954586ef47e4a92424095d202a3098eafaf578af10e6dab0f340e0c260001b61146c565b614c827fdf9ab43c073c303630a5fd8b50f09555b2b758eb6391c1cf80bbb27212f458b360001b61146c565b614cae7f408bfe28be7c6beff51428cab55d73f19bc57fed4e7380099371586a4e07302560001b61146c565b614cb661e60d565b600f60008573ffffffffffffffffffffffffffffffffffffffff1673ffffffffffffffffffffffffffffffffffffffff1681526020019081526020016000206040518060a00160405290816000820154815260200160018201548152602001600282015481526020016003820160009054906101000a90046fffffffffffffffffffffffffffffffff166fffffffffffffffffffffffffffffffff166fffffffffffffffffffffffffffffffff1681526020016003820160109054906101000a90046fffffffffffffffffffffffffffffffff166fffffffffffffffffffffffffffffffff166fffffffffffffffffffffffffffffffff16815250509050614de07f8bdc0d8fe0454b204b87fe2ecf75e1cab1dbdda3d2dd77b38759e4516ba9616160001b61146c565b614e0c7fd46c5157b73512aba2ff4e3f38eb6b1992d05d4948a89b54eaf9fb020ba141fa60001b61146c565b6000614e188383616db8565b9050614e467ff2d7a54d0d84843b28ad4f839cbd4f5e7f3df947f00b78b2b873644c7739684060001b61146c565b614e727f3a16ab2f7b4cb23a52a0468b129f5e52c1c068b3bc7160e21dc3923de11064f160001b61146c565b8093505050505b919050565b614e86614371565b614ef8576040517f08c379a00000000000000000000000000000000000000000000000000000000081526004018080602001828103825260208152602001807f4f776e61626c653a2063616c6c6572206973206e6f7420746865206f776e657281525060200191505060405180910390fd5b614f247f9dabfeee64ccb1fcf587c8c70616e62b939e019e86c129ceb228bc2fd911c6c960001b61146c565b614f507f6f1fb2d3c4e321e84aeba540329863cc7d7c4727c6766ea9a0e532035ca1622460001b61146c565b614f7c7f998faa11a050dfd506d283ee66739c6385895a0e1bcbb3981b88b050408b738c60001b61146c565b614f858761cec8565b614fb17f44f94b6205b17e6273d0605263ec909184b572c324df09bd3c85fa626f9ca5ea60001b61146c565b614fdd7fabf1bb71b9b54eba93ec74da6a10ff08eff4fdea3b8e5c8884b7f4473fa469ac60001b61146c565b614fe68661cec8565b6150127ffcbb585f551ac9c5ab4158e8f60d94e1ec1885e76f0ff7cc2642a95b76837c2d60001b61146c565b61503e7f5d18263ba0ba436dc128bb54cc87513922975375bd7ae20918480fff4814edd960001b61146c565b6150478561cec8565b6150737fd8b28444bc64ec877d9cdf3ea999c780197fc935ac798545710f13a98e395ee360001b61146c565b61509f7fdbe488ce380d5f0895f21f1c48ea1d13f9a457d552fa63721b67698325f0243660001b61146c565b6150a88461cec8565b6150d47fecab8cdc0d97a474f5a738915b2032612317863f86c92057163e1d2781fa0b3b60001b61146c565b6151007f1446a87d6d39bd9e8fb2f1f8b28ac0089cfa4ebf23785fad44e8b40c9377453160001b61146c565b6151098361cec8565b6151357f34af232d93cae5a997431498b9cfe7993f682008ca47cd39adceeebbea7310d060001b61146c565b6151617f5475a8f6b1a308c6463aa8b6c6caee697d1c6293c9406c63ea34684b4978924660001b61146c565b61516a8261cec8565b6151967f2b25575fdd2df84dad60329c929fef8e8781ecfb061096abcc5a375652e2b50860001b61146c565b6151c27f722384f81ed2e0dd854406e225103f56954a809f2c2298efd1e59b76041febcd60001b61146c565b6151cb8161cec8565b6151f77fd69d85d61dd2d5e1e18428334533e39a9456781a4291f883c6275217d056381f60001b61146c565b6152237f251356112cd839b8944289c44f7ad3ea3dc9693a9cf41405a66e17c6ac1844e160001b61146c565b86600460006101000a81548173ffffffffffffffffffffffffffffffffffffffff021916908373ffffffffffffffffffffffffffffffffffffffff1602179055506152907f49145f5dfc2467c111301a0bbf1751e2cb735284216127b1e49eae2bb36597ce60001b61146c565b6152bc7f873c7e501c1c56a4dbd614af002e8b444dc09340a6dc86a4cc8c44c65e4b7c5060001b61146c565b85600560006101000a81548173ffffffffffffffffffffffffffffffffffffffff021916908373ffffffffffffffffffffffffffffffffffffffff1602179055506153297fcdc2ab16e8b642d7148b29463fe0bbce1e77475b78fa055773ecef243d2dc73760001b61146c565b6153557f98561b72994347d80d85b295607b3da0293e6d0fd91e5590f8ab784c13e5751e60001b61146c565b846000806101000a81548173ffffffffffffffffffffffffffffffffffffffff021916908373ffffffffffffffffffffffffffffffffffffffff1602179055506153c17fb429d6055e5bc696f6606ae4032301b9262239e11c824de6d9e9eb24a76e9f2160001b61146c565b6153ed7ff2b7829f8fe1a42f16986d9c1ace7232c89d4c4b7b0a0923ef636070237fb46e60001b61146c565b83600660006101000a81548173ffffffffffffffffffffffffffffffffffffffff021916908373ffffffffffffffffffffffffffffffffffffffff16021790555061545a7fb1fee12064f8760f582e6860c22303a807dde550b74701cac915bb5a1cde8e1760001b61146c565b6154867f2ba0c52fbf5f6a33719f4a3fdcce821793857078a41300543cca549353d79f3960001b61146c565b82600760006101000a81548173ffffffffffffffffffffffffffffffffffffffff021916908373ffffffffffffffffffffffffffffffffffffffff1602179055506154f37ffb34db0c80bdabb1d8b35f7c1ff085152a9f78425b0b5f854978993565f2308f60001b61146c565b61551f7fd712ca8a6dac3c00923846b324035385f80793eb8a8b24b1657571e9cee90d6f60001b61146c565b81600260006101000a81548173ffffffffffffffffffffffffffffffffffffffff021916908373ffffffffffffffffffffffffffffffffffffffff16021790555061558c7fc6485446837b39b42b784d8ecbb5ae316c93622e729d54711ed95f098ccab0b960001b61146c565b6155b87f641c6826d9a95a3c974fa9e42ae376aec97581b4806ace11c80ff4da793afd4560001b61146c565b80600860006101000a81548173ffffffffffffffffffffffffffffffffffffffff021916908373ffffffffffffffffffffffffffffffffffffffff1602179055506156257f08b27388a820d753ee4e2f37f53bdecb135f32cd960fdeab0b304ef523a8321b60001b61146c565b6156517fd0998a134dd86a13f7e11cd4116577870871022df3e443c478d5a6aab58c352e60001b61146c565b7f3ca631ffcd2a9b5d9ae18543fc82f58eb4ca33af9e6ab01b7a8e95331e6ed98587604051808273ffffffffffffffffffffffffffffffffffffffff1673ffffffffffffffffffffffffffffffffffffffff16815260200191505060405180910390a16156e07ff435ac5f4fef1fa661e48515dcc0285c74d1a141c12403b7a5c9fd910e3d283760001b61146c565b61570c7fc07939b863544355811f24c6ae17e83e64368dc4bf026ef8be3a3cc8842d686260001b61146c565b7f143219c9e69b09e07e095fcc889b43d8f46ca892bba65f08dc3a0050869a567886604051808273ffffffffffffffffffffffffffffffffffffffff1673ffffffffffffffffffffffffffffffffffffffff16815260200191505060405180910390a161579b7f954094211904131e4e3e1c7a0554dba7b825caa567dea5e7767565143980794860001b61146c565b6157c77f336af41f7357e34e5dcdd44c6f4c6eda4b6d5d672117577535155a1cc184979160001b61146c565b7f78f058b189175430c48dc02699e3a0031ea4ff781536dc2fab847de4babdd88285604051808273ffffffffffffffffffffffffffffffffffffffff1673ffffffffffffffffffffffffffffffffffffffff16815260200191505060405180910390a16158567fa56630cacd39d8d401117ec2c1246cac54d6cadd3f72c32fd615b98bf3eb603b60001b61146c565b6158827fd382aaa02c838b2775d22722d111f72e271c2fdd3cd54d33c9be519d42b76def60001b61146c565b7f227eec0ec317af6ab1a9587ffa1c84332522eb4c583a908f89babc05f8f339bd84604051808273ffffffffffffffffffffffffffffffffffffffff1673ffffffffffffffffffffffffffffffffffffffff16815260200191505060405180910390a16159117f0115a38cc737190c39b78d491b346a65196f13700dc52e3e23b95501da552bf760001b61146c565b61593d7fc3f98ebd85f2f1b60d48e95565000bc7d27f084559f80b0f76d4d2f24eb123d760001b61146c565b7f65f4cf077bc01e4742eb5ad98326f6e95b63548ea24b17f8d5e823111fe7880083604051808273ffffffffffffffffffffffffffffffffffffffff1673ffffffffffffffffffffffffffffffffffffffff16815260200191505060405180910390a16159cc7f0a9513a2c5aa16830169f73131a55d051b0625277bfb51e66bdc8ad184c8e70060001b61146c565b6159f87ff8fd2ca04734f46a9df458d6bd4f22975de8ad46280059b5487066b72620a11760001b61146c565b7f8c537274438aa850a330284665d81a85dd38267d09e4050d416bfc94142db26482604051808273ffffffffffffffffffffffffffffffffffffffff1673ffffffffffffffffffffffffffffffffffffffff16815260200191505060405180910390a1615a877fc881fd2f223540eace80e1ee1aaa07b018a6db1ad6d3d34bf77f6ce29b5ff90960001b61146c565b615ab37f448bd3ad0138b5772c37752564fbe6927d58ac79644f90f6dac9e4bd810d6b4e60001b61146c565b7f3055265812fb8447b9ada4a5d804ec43bd528ec40e89c952bbc7b85dc5ac681181604051808273ffffffffffffffffffffffffffffffffffffffff1673ffffffffffffffffffffffffffffffffffffffff16815260200191505060405180910390a1615b427f65c531bb0deeaf8a2b75f65123e44c83d316f397fdd92cc7cea733054eeddb0260001b61146c565b615b6e7fedf7f4ff4d68e22f95bf9acc385585c84b62df0eada292b2ffa4762fda01b6f160001b61146c565b615b7661d1fb565b50505050505050565b6000615bad7f10cc19600de6c7d55a0896596d47f39d33db6e4962f95655ac47a2f5c68c7df960001b61146c565b615bd97f9406f87ffd39a2817f316db2d2df1aef4b7dc329e58568a244572dc7b09d1c7a60001b61146c565b615c057f2f4d3b55a322b3d380c437829660ac820ad6b223f9fecfd2f316fd660bd4e06e60001b61146c565b6000600b60008473ffffffffffffffffffffffffffffffffffffffff1673ffffffffffffffffffffffffffffffffffffffff168152602001908152602001600020600001549050615c787fa0e90600373520cda7a8aee25fba6971a53d51e3b3c5feb321e2554d5b04fb9460001b61146c565b615ca47f43ac78ea40332b5ef1a9e6b78d781c87d2d27a8f462b31deb00fdd454b2eb11160001b61146c565b6000811415615d0f57615cd97f49f31252cacb8f68f93402774cce88b2a146ef18b21deb33f719a20cc6ff308860001b61146c565b615d057f9110586ed9a0815cbc1536740085642fa1e15c9fc3ec402b1aec9a019fca41e660001b61146c565b600091505061612c565b615d3b7f6e7b22b27623433e7b1654370a26ffeb62cf27e4735a620973cb9c46f1eaf24d60001b61146c565b615d677f18ced270a1024d4df55ebdea226f9d52387518125869d7eed29df69b46ef3a5160001b61146c565b615d937f31f4f07cb8ff83b2a6d979f84248c17750748eec4a31d84368c4b535b6d67d0560001b61146c565b6000600b60008573ffffffffffffffffffffffffffffffffffffffff1673ffffffffffffffffffffffffffffffffffffffff16815260200190815260200160002060010160009054906101000a900473ffffffffffffffffffffffffffffffffffffffff169050615e267fb270cdc60490f11919c11c5e9ff24fd2b8f337bfb49e3b42d320b55e151e37de60001b61146c565b615e527fe9e91011df875ff69517a54b926d8293ed0c6f128ca487c22bd501f0590c764160001b61146c565b60008073ffffffffffffffffffffffffffffffffffffffff168273ffffffffffffffffffffffffffffffffffffffff1614615ecf57600d60008373ffffffffffffffffffffffffffffffffffffffff1673ffffffffffffffffffffffffffffffffffffffff16815260200190815260200160002060000154615ed9565b670de0b6b3a76400005b9050615f077fd8433c8c24dfee0fb74698f74bd36d9ee7b0d0ea561cb17046f7261b1cd0185c60001b61146c565b615f337f14733d2a32ba57b175227b20f5b25de8482e6f59aba06818637836eb0be0ad4060001b61146c565b615f3b61e60d565b600c60008773ffffffffffffffffffffffffffffffffffffffff1673ffffffffffffffffffffffffffffffffffffffff1681526020019081526020016000206040518060a00160405290816000820154815260200160018201548152602001600282015481526020016003820160009054906101000a90046fffffffffffffffffffffffffffffffff166fffffffffffffffffffffffffffffffff166fffffffffffffffffffffffffffffffff1681526020016003820160109054906101000a90046fffffffffffffffffffffffffffffffff166fffffffffffffffffffffffffffffffff166fffffffffffffffffffffffffffffffff168152505090506160657f83f369918d71b978bb7edf0353974d59995a2a301ad4d0b2a569119bfa2604d660001b61146c565b6160917f529862032375c15fcd1cf1696cc37324ef895723e4d0c97dc1cc441912317a7060001b61146c565b60006160c9670de0b6b3a76400006160bb6160ac888661c952565b8661cdf890919063ffffffff16565b61ce7e90919063ffffffff16565b90506160f77f4dc2964ae01249310703ce6ec93ce8bd02ae345185affa5d8af5390a46829f9560001b61146c565b6161237ffd8d6c688a1e4d9d2dc19ded5a21f431dd5b846e10f5fdb4bc9a7ad121dca18460001b61146c565b80955050505050505b919050565b60056103e8670de0b6b3a76400008161614657fe5b040281565b600b6020528060005260406000206000915090508060000154908060010160009054906101000a900473ffffffffffffffffffffffffffffffffffffffff16905082565b6161bb7f79aa4611b66bffdadeb53ea5a4cdcada27aafb3ce41838ee0fac97a1ba0aa19460001b61146c565b6161e77f07015fe2f9963364c1bf694cd788d2e5a87dc88640e6f10e0a0a7b0925af393160001b61146c565b6162137f659fad388fc721d466ad41cbb931efcd613d0b512ddde5b7e1b0d6e8bf671edd60001b61146c565b6000600b60003373ffffffffffffffffffffffffffffffffffffffff1673ffffffffffffffffffffffffffffffffffffffff1681526020019081526020016000206000015490506162867f27bb058f7c11c8fb42d26d388259cda81e100f3cc0ec68da732ff4a1ff39c3dd60001b61146c565b6162b27f010698fb15ffa44a85675200b54f2096f68048c9e9ecb4f50559b681704b577160001b61146c565b6162bb81617a0d565b6162e77f13b340cba58e420d945a6d4a440e69bde8792fc3541160d3f0d9afe8bd86972c60001b61146c565b6163137fdf66803ca392a6388db3421ff7b4b5570a4a072610790f632e00fd5ab4c16d2b60001b61146c565b61631c3361d2bc565b6163487f38f1a23573d6a7388764ad8b0f026bb0e07b0cea9cec315e2ed5b7ededaf5dca60001b61146c565b6163747fa5c9994967e759ee0cfb495a4d1285e76b24215e930327646d68abf801773d6f60001b61146c565b61637d3361d4cd565b6163a97f01220f7b70394add45b72cc4008b1d2b54067ec4271605b0798fd641326c9d9b60001b61146c565b6163d57f1e6faa8b8ea2eb36a692125b513b293ec681497d04385620488f5027bad4e3b060001b61146c565b6000600860009054906101000a900473ffffffffffffffffffffffffffffffffffffffff1690506164287f39bb929a470645bb2cce9331bbe18def59c4ac9631e58d1e9e839050110bd8ef60001b61146c565b6164547f84de5f70cb16b7a27768e5cd4d57cdd4e3b6bd3e8ee7575617153113103e57fe60001b61146c565b61645d81617b45565b6164897fdf846fa1fa0f43dfeb9059eac56f90c3e4268bf1533d94581f940f68c381895860001b61146c565b6164b57f91ef438631df1af5b4dc5d2ae1da1a5f2f6e22475a5c7e8468e1e83da5552e3b60001b61146c565b60006164c0336129fa565b90506164ee7fd665c78af1a58a1c9b87872d39b2c34c406c6f4b6f639ad2dbe05ba896bb399160001b61146c565b61651a7f2bb67668c079aec73acf3c369f303264eea40c4311f5ef29c607622b35d6066a60001b61146c565b600061652533611783565b90506165537f2d00864fa288b173759582dff7ab6ec83872faf6e4a3d3fdce23a8fc23484b1460001b61146c565b61657f7f7290e61ab0a9cb64a967a3661a0a08affccd48697ff955d49f330d4e0117b14860001b61146c565b60006165948286617d5290919063ffffffff16565b90506165c27f88945dde3efd3968c5a1f7dae50923fda37ea74854538af9079a38d224ea651460001b61146c565b6165ee7f6f9297c46d4897678daf888f8e5f6fa33003b563abe3446cffe720fedaf1118260001b61146c565b6000600b60003373ffffffffffffffffffffffffffffffffffffffff1673ffffffffffffffffffffffffffffffffffffffff16815260200190815260200160002060010160009054906101000a900473ffffffffffffffffffffffffffffffffffffffff1690506166817f75d0d25762a4e72d3cb274c0c562e56f94605559850925a07512b6b74235969060001b61146c565b6166ad7f96505f072a8ec687b4cc58c49ceab13c5b391cc1dd3cfb7f6543c70426daee9e60001b61146c565b6166b8853383617d9c565b6166e47fdcba2c04335823c4800e9a2d9a1baaef86606afde9f0a560b875913768215f6e60001b61146c565b61670f7eefad2857261ec3c45881cc1c81372b35b5b014be797445f25b45c3f9740f8860001b61146c565b600061671a82614a9d565b90506167487faab289d3389696846ea920157642a05a9e72b84dd83c159ffa47140c96cfe8a660001b61146c565b6167747f561ce7820276b4d4edb0e75d53cfbfed2e48b1ade58a8361767b7feaac89811860001b61146c565b60008190506167a57f33aed60e4879b95b67c5609b09e580c9ce60b82b6b44febd45792ddc6c82583960001b61146c565b6167d17ff751c77b19a6230f5292927976d56426a8c339158b830d404f85ba9d9fdf655a60001b61146c565b6167db83826182bd565b6168077f6a7a1d91d93efdd3333c24145d27f34edc4455c0e2c398caa580a455e77338e260001b61146c565b6168337f9a54b69566d8f5dcac8915328c449da2c1639226adb33697dea14866d84e9bd660001b61146c565b8273ffffffffffffffffffffffffffffffffffffffff167f99920012339b5a3368d3a04b8606ce412c46ed92b7dcd8602d41fc8862cb8f258233604051808381526020018273ffffffffffffffffffffffffffffffffffffffff1673ffffffffffffffffffffffffffffffffffffffff1681526020019250505060405180910390a26168e17f73f8e93781e0765a9ce81faaa59e5de4efaeb39b298036c4d45f2dd781b798be60001b61146c565b61690d7f53d0d7008cf668e49d36bb15c3b9291eabb93e348464ff1ef3aeb14cdc0caf2460001b61146c565b6169173386618e92565b6169437f235c11b739f8a8e486dfdf93c1cdb3c7c9c1216fe52da0ebd386db8b06540ce560001b61146c565b61696f7fe4daff8bf00c5316796e3c945e6a5a22c737cc2b8398da043a65f9a3b1ed512d60001b61146c565b3373ffffffffffffffffffffffffffffffffffffffff167f51457222ebca92c335c9c86e2baa1cc0e40ffaa9084a51452980d5ba8dec2f638786604051808381526020018281526020019250505060405180910390a26169f17fa3634a733e1dd1730638b96cf35077d2c145a4428319894cc7e32c0383365bea60001b61146c565b616a1d7f2d940316b9a1f922fd3e8c272d0594e387ef3d2a5cbbf0f597a8bd2f083152f160001b61146c565b3373ffffffffffffffffffffffffffffffffffffffff167fbce78369dccab09eec1986f4d409ab09ffbb47d65423e5148fcf98411c5111c9866040518082815260200191505060405180910390a2616a977fd310dfb9bcfbf990ccf2809f1d918954ce6315d3688dc2231d33527c53e4daa760001b61146c565b616ac37fe4a21383ad2c2f5f46ce9642d57ef39af4c685f549924d0fa9de4f5ea8fd04d860001b61146c565b616ad886600954617d5290919063ffffffff16565b600981905550616b0a7f0f9cf10810553db99968c91899b89d34437d650aa7fbe633175f03748b72826360001b61146c565b616b367f0f88dedad65d5f28f178268fdadbe23b0209161b873af3e62e1fa91a09efb0db60001b61146c565b7fceb6d671277d4354fd29977ada70695fbd93a16612abf765d6b0e25c28dc6db36009546040518082815260200191505060405180910390a1616b9b7fead998a93987097738b8cd31a845b9b70c413e42f7fe3e53fa60505c45c6f07860001b61146c565b616bc77fb04d4cb99b04fd7e117c884a2a717b32e832de2512297fe0fe802baf1bebe93260001b61146c565b7f6109e2559dfa766aaec7118351d48a523f0a4157f49c8d68749c8ac41318ad123387604051808373ffffffffffffffffffffffffffffffffffffffff1673ffffffffffffffffffffffffffffffffffffffff1681526020018281526020019250505060405180910390a1616c5e7f37872bc8289a157dd87de3a825e99df9318971016e3360a8fe4b9c62d883d55a60001b61146c565b616c8a7f09baa210094379e56bdd1d68c372c21cafd7baa8b2871558847674e3fcea1e9160001b61146c565b600460009054906101000a900473ffffffffffffffffffffffffffffffffffffffff1673ffffffffffffffffffffffffffffffffffffffff1663ea9638bf87338d8d6040518563ffffffff1660e01b8152600401808473ffffffffffffffffffffffffffffffffffffffff1673ffffffffffffffffffffffffffffffffffffffff1681526020018373ffffffffffffffffffffffffffffffffffffffff1673ffffffffffffffffffffffffffffffffffffffff1681526020018273ffffffffffffffffffffffffffffffffffffffff1673ffffffffffffffffffffffffffffffffffffffff16815260200193505050506000604051808303818588803b158015616d9357600080fd5b505af1158015616da7573d6000803e3d6000fd5b505050505050505050505050505050565b6000616de67fd911fb17773aeb4d370d6d91142ccd933ef00135c08b0782e2cc26af3ac877f460001b61146c565b616e127f8e40d1cbc3580b28ae065f2e0e850d23602c278e0c6e09647f05a1315d04d65b60001b61146c565b616e3e7fed02ec260edcc67b8be6dad3a64dc67e65596d64cff4e18e32da1820a9581c3d60001b61146c565b600082602001519050616e737fac210809070bffa1b84194f1fc445064e50cf40d2f9c82a1f1629530ec4f228060001b61146c565b616e9f7fc5ee1d0fe1a033404c3cad476008a343dd13842d5ec7351902c70dc3f078d61560001b61146c565b600083606001519050616ed47fc0797475a7c4d0eae3748a7a1ce3fd4a46ac9e27d308a1be36865e1d1556d0f460001b61146c565b616f007fb9e9956a9e692e625de208067c9da98c3ad4ea3d6190cc71662989e382b124fa60001b61146c565b600084608001519050616f357f39f033eab3530977e18f8752df3daa83d948ce8ccf0bf202a5f48857b61c36f060001b61146c565b616f617fb479bf0c967a5cc9eafe1464f942d609dbc726c29a5384758735b8a97279987160001b61146c565b601160109054906101000a90046fffffffffffffffffffffffffffffffff166fffffffffffffffffffffffffffffffff16816fffffffffffffffffffffffffffffffff16101561700f57616fd77f58450a03a829336cb670ba780f1803c2abf9b98402b808980639c75b611765e560001b61146c565b6170037ff0b61c266091c9605ea5456c53425135a035cf1f85ee70ed7c72a2c2202f9d1360001b61146c565b60009350505050617587565b61703b7ff7f769d8d07f05eb2df42bec3019793fed32e8b366a042b05c3dceb7af9a9ead60001b61146c565b6170677ffcd16ad9d7c4d943726303017200e2c678afed08ea52147152cca9d3f0e02b3160001b61146c565b6170937f8ee42aa23a6d074979bd8c7a88a40f44730013415f4ab0ea846473eb0940778d60001b61146c565b60006170c17f64a948f2894cb4d229872afff2515c2bc9bd87e0b568c78c781b9aaecd202df360001b61146c565b6170ed7fd57a791d7c5974931e9389257e447507165330a9ba21872768c8e3d0c311632560001b61146c565b600061713284601160009054906101000a90046fffffffffffffffffffffffffffffffff166fffffffffffffffffffffffffffffffff1661d66b90919063ffffffff16565b90506171607fa231dce8c34ac9cad17d894418730e75f7a98b6a9ce16b8e516e34e89acf8dc560001b61146c565b61718c7f0c9654d6a1741af5f3059069ffe4df0b7c37879b1fec6d8a8db173ae645a5d6960001b61146c565b6000816fffffffffffffffffffffffffffffffff161415617259576171d37f899e61516c79d557844bea67fb73441748640807173775174076e4410ec74bc760001b61146c565b6171ff7f9c0495cc5d8344f2a16fbfefa214b56ee2bf47c8699f8c128c76a264e5b7216c60001b61146c565b61722b7f7c192b4f95021b3117ebd94f09844766ae40eb949b1a54cdbabb10a2ddb69fa660001b61146c565b617252856172446010548b61cdf890919063ffffffff16565b61ce7e90919063ffffffff16565b915061741e565b6172857feb03f80f8e2e86a7124631885600659d32164683bd52cf69d9830da0269805d760001b61146c565b6172b17fba12d71296702c3f4b598421a1e6d62832b177c680f93d14a2fa25b0cdf997d060001b61146c565b6001816fffffffffffffffffffffffffffffffff161415617394576172f87f6cd9730b58f39c12c2ec3671d3cb5a96d36b1fbf6b2fb886bf606d667ac3c33160001b61146c565b6173247fc9ea5d5cd886a16aec726e4cf99e34ee118daebb0cd201b98b5e42179ce9277760001b61146c565b6173507fdefb17b5aca980e247819046938ae708eb0584f3cfba88310e961ac0312d05a660001b61146c565b61738d633b9aca0061737f876173716010548d61cdf890919063ffffffff16565b61ce7e90919063ffffffff16565b61ce7e90919063ffffffff16565b915061741d565b6173c07f0d4cef10e2fa73d76eed78c104201bc01c66e818c51ae772d62b92854cf8215960001b61146c565b6173ec7f3f154711a0987261f2df79acc83208ea003f314626e5c9257a4637e966d9a5b260001b61146c565b6174187fd4a752b6cae16fc01c2060a32e5514925c719511dc052a2a95f9e5f2d3f72ef160001b61146c565b600091505b5b61744a7f63f7de89cad2c9c2b682076d105b1dab7cf79325660c501a5d5ef7abb029a79e60001b61146c565b6174767f8a9001b565c3ada7e98e683c5b48c4afd761de05ea5682e5762ce7f9f1eda80460001b61146c565b61748d633b9aca008961ce7e90919063ffffffff16565b8210156174fa576174c07f3714b206315e3f529df837b06693decf6df3a8e0a9c58ed4e4ba8d0ab1693d4860001b61146c565b6174ec7ff63a4368912ca6704ca6d51b2c9fa318d866d81b31192a85218b244041e9660260001b61146c565b600095505050505050617587565b6175267f2cddc43f2ddf8246259da5a3ea26217b7cf4c45419e25fb960800199c69967d160001b61146c565b6175527f671014f69d19b801f3290b75b2beebbe9f8ebf9e925cf20bb441ba26966bd78c60001b61146c565b61757e7fee4128f624894d34670a683a9ad5f93de9f8f74c867d9f377601767fd37d7b6760001b61146c565b81955050505050505b92915050565b6175b97f3f3de0d0f28467aa8922e0ac5ec727eb5455616488faaa13bc31371390f02b2b60001b61146c565b6175e57f116b9f3946e134e19d5d097f21436cbdc6161d415d15fcd22abea9bdbe47741560001b61146c565b6176117fe468ca51de50479a3e2cf67cea086847566f72e2f72b307210f04b23d009d61b60001b61146c565b6000600260009054906101000a900473ffffffffffffffffffffffffffffffffffffffff1673ffffffffffffffffffffffffffffffffffffffff16630fdb11cf6040518163ffffffff1660e01b8152600401602060405180830381600087803b15801561767d57600080fd5b505af1158015617691573d6000803e3d6000fd5b505050506040513d60208110156176a757600080fd5b810190808051906020019092919050505090506176e67f67c27296adcc50b8013c21694d0556b5ff8919ac22ec49610975ffce1a9caf4f60001b61146c565b6177127fdc4f012dff4c967610b2ca1a621229c6921239c7a1e274868fcebbc19f5d9cc960001b61146c565b6000600760009054906101000a900473ffffffffffffffffffffffffffffffffffffffff1673ffffffffffffffffffffffffffffffffffffffff16634d6228316040518163ffffffff1660e01b815260040160206040518083038186803b15801561777c57600080fd5b505afa158015617790573d6000803e3d6000fd5b505050506040513d60208110156177a657600080fd5b810190808051906020019092919050505090506177e57f6c39b9879586b480efffc51567febfc4a8b4c7161e0b5cd63e2c66b67aa5799260001b61146c565b6178117fd42064dc9366a96b96bc6e47ae31441ca732fcf5b747f7989207e5e7fb6a309860001b61146c565b6000600560009054906101000a900473ffffffffffffffffffffffffffffffffffffffff1673ffffffffffffffffffffffffffffffffffffffff1663d293c71083856040518363ffffffff1660e01b8152600401808373ffffffffffffffffffffffffffffffffffffffff1673ffffffffffffffffffffffffffffffffffffffff1681526020018281526020019250505060206040518083038186803b1580156178ba57600080fd5b505afa1580156178ce573d6000803e3d6000fd5b505050506040513d60208110156178e457600080fd5b810190808051906020019092919050505090506179237f623b88f7aabc552b370b69a179e74448b3ef536456f67519282c26e8bce8513260001b61146c565b61794f7ffb6758808d30d2eab8af3ca84ebf43d50b5a378d0c6215a60ca284c1188082b360001b61146c565b61797b7fa5c79d83a358dc97f4a0d8cc6865397cb6e028f5522152e815b4aa11b70cd23860001b61146c565b670f43fc2c04ee00008110156179dc576040517f08c379a000000000000000000000000000000000000000000000000000000000815260040180806020018281038252604481526020018061e8e76044913960600191505060405180910390fd5b617a087f9b0586fa088fcc636a4c20d475223093f3346a514e32620b5f9dd7365561873760001b61146c565b505050565b617a397fac808e188c925216ad2eded80652a6cebebffbac09b344155a5d95fc46d2656c60001b61146c565b617a657f22195c902ec18e769c5a9929476b4f229d81c1309d8fb4d8f7abf06b382ad2c260001b61146c565b617a917f1572d3295ee004d6634673d5c5471cd242277fa434b79513084d39c0c897389e60001b61146c565b617abd7f60f9fd308d565b05cd7af5e93916652aee778dcfcde89c56f7c7d6911a1395a060001b61146c565b60008111617b16576040517f08c379a000000000000000000000000000000000000000000000000000000000815260040180806020018281038252603081526020018061e86a6030913960400191505060405180910390fd5b617b427f45c1822bc3820f7518a0238c4f4461c62f82b2d687a99fa07e0cb0eabbf14b6160001b61146c565b50565b617b717f4ed42d5f2f48b454c2aaea66a01fd94ffff4c5716ffb8ff4bd6b9e45aed3874a60001b61146c565b617b9d7fdd2555a2517d19dd05c06b124a76ed4a221f34e8c4100247a24833a57840560e60001b61146c565b617bc97f833912de26d30337e51716eb7c467a949e8ee8f0990c87ed88e23831e6949c3f60001b61146c565b60008173ffffffffffffffffffffffffffffffffffffffff166346ad34d96040518163ffffffff1660e01b8152600401602060405180830381600087803b158015617c1357600080fd5b505af1158015617c27573d6000803e3d6000fd5b505050506040513d6020811015617c3d57600080fd5b81019080805190602001909291905050509050617c7c7f01d61a1cd1daeedaf9ad2f04e60ba0cf160faaa5ed6fb128d3c30e91638ae6b060001b61146c565b617ca87f1b85921546b2f3ead819e3a61d5be70377d15d347b6af45d62b957e126c619c160001b61146c565b617cb18161d887565b5050565b6000617ce37f47d1f47bc050b9504bdb99b9bb5b4ef650bd54eba129f8f462ba53eeb800e1aa60001b61dec8565b617d0f7f8bd1b7c6f317176e126becf0775e874110a4f4c3632da3308f1b96d29114d76f60001b61dec8565b617d3b7f306334dc7786218d10d6d1fbfce931f8906c3249c067df2bd86b69566eb3362460001b61dec8565b818310617d485781617d4a565b825b905092915050565b6000617d9483836040518060400160405280601e81526020017f536166654d6174683a207375627472616374696f6e206f766572666c6f77000081525061decb565b905092915050565b617dc87fdaf12516d047f212e5f725cd1c0d6503097c33f6297449bc6523ffed0309399f60001b61146c565b617df47f25502f1d65aa28546f33f0e8baab94ce41b55f8dbfc99a00e87123b3e0c9f00e60001b61146c565b617e207f068b874cf5a3c7c8fa5a00444941ea407401db9f55d0be9a88f4a87e8e079afc60001b61146c565b600073ffffffffffffffffffffffffffffffffffffffff168173ffffffffffffffffffffffffffffffffffffffff161461808857617e807f9f318ae27d523dc1740bff43ea574ab7a58e872a1ff6d058b6757f9370bde9fe60001b61146c565b617eac7fbf772a6722a8f4237f98c7bae19aaa0c4deb319791f744301b2504b497a7646c60001b61146c565b617ed87ffc1c37178b22731cd1804b3b0d16abf0821aeed5afad1986ce5742b5bc7031fe60001b61146c565b6000617ee382614572565b9050617f117fb4239c59f7f45eb4952c8e53f685c7373a6e774a744c582437cf87bfc7e9a68160001b61146c565b617f3d7fe40ea608e342409a88a41f3fa174fdaefb5317d612d758715bf81e5b68c01e7860001b61146c565b8373ffffffffffffffffffffffffffffffffffffffff1663614d2ab683836040518363ffffffff1660e01b8152600401808373ffffffffffffffffffffffffffffffffffffffff1673ffffffffffffffffffffffffffffffffffffffff16815260200182815260200192505050600060405180830381600087803b158015617fc457600080fd5b505af1158015617fd8573d6000803e3d6000fd5b505050506180087f9046ed45ba4b9d8d94d3b8f8da52f25b4854b97e6bbe70ca399d481ba11643ce60001b61146c565b6180347f1da4ca231e81004b68657d81758a78b2ee3fc693d8282e2b38f1279ed6bb549960001b61146c565b8173ffffffffffffffffffffffffffffffffffffffff167fcd2cdc1a4af71051394e9c6facd9a266b2ac5bd65d219a701eeda009f47682bf826040518082815260200191505060405180910390a2506180b5565b6180b47f87b38ded37f1ef7ce3b0ca2fdf06159c7554696f0a5cda28db6f117beef2e74360001b61146c565b5b6180e17ff44197927e5be1f1e1f79f38a54c83d4b0a27d2eb7e2022062b316d6b55ce25760001b61146c565b61810d7fa5ad7730509bf7c45d38abf58524180fbe4a04ff41cb9f5b1c3c36502000278c60001b61146c565b600061811883615b7f565b90506181467fe03c8531d3ada30bdd6bfb63dfb42747061683e7bfb2370e55624e405fc6345760001b61146c565b6181727f31ddec2f70622d1fa357ab0be6abf855785a15a4d4014f09d838d55e4cb2d15f60001b61146c565b8373ffffffffffffffffffffffffffffffffffffffff1663614d2ab684836040518363ffffffff1660e01b8152600401808373ffffffffffffffffffffffffffffffffffffffff1673ffffffffffffffffffffffffffffffffffffffff16815260200182815260200192505050600060405180830381600087803b1580156181f957600080fd5b505af115801561820d573d6000803e3d6000fd5b5050505061823d7f5ca6a053da8439fa404eb9b07e8bfcee6e55ffcf96fd08c5b9dbe9543ad2bcd360001b61146c565b6182697f19451b68ff880a765a5b91188d0014437149a0bc6cd96ca16828c979c4d9d57260001b61146c565b8273ffffffffffffffffffffffffffffffffffffffff167f2608b986a6ac0f6c629ca37018e80af5561e366252ae93602a96d3ab2e73e42d826040518082815260200191505060405180910390a250505050565b6182e97f7333774735e64830ce54079f12460899080122e65893d4b8879001218ce4bba360001b61146c565b6183157f687d275680a1ddd962be21554227d245d8dac01578311c674a57ef883029d1d560001b61146c565b6183417fc9876e659403ae7dbb87462ebb98d376ade3957a4ddc76a948d4b3901a39b30c60001b61146c565b80600e60008473ffffffffffffffffffffffffffffffffffffffff1673ffffffffffffffffffffffffffffffffffffffff168152602001908152602001600020819055506183b17f64643c163690f8f00f319bfdb87db455d9c349b98c44c83663c047a899167f3160001b61146c565b6183dc7ea7fa1f150a93b195c67922961944a25351c67a440647f65a06515c0ab4e23e60001b61146c565b60008114156185e9576184117f9e2bde350753f79fdc2eea4bf58da9be7bce8360f8617650ca5168788a04fff060001b61146c565b61843d7f1b8812589534ee3504d9c87a567acb77489dfdeb7e4cb145eaf63e91d2378dc560001b61146c565b600f60008373ffffffffffffffffffffffffffffffffffffffff1673ffffffffffffffffffffffffffffffffffffffff168152602001908152602001600020600080820160009055600182016000905560028201600090556003820160006101000a8154906fffffffffffffffffffffffffffffffff02191690556003820160106101000a8154906fffffffffffffffffffffffffffffffff021916905550506185097fa447fa27ec1db940482866d4e3eee0647e4a981f56ab6ab0dcc72b96098d349760001b61146c565b6185357fbdd826283e444212f3e903a77e9ed0e6c1d2065c877e2d46f29ec6886e820d7960001b61146c565b8173ffffffffffffffffffffffffffffffffffffffff167fbb1322f85cc7cc8bac4e172a5bc5dcc0c1959007f9a030032abf9258205f0e45600080604051808381526020018281526020019250505060405180910390a26185b87f0ed636637ae492600fa30e1d847d4073a50f417069611be3f8d7f369dc22f5f460001b61146c565b6185e47f84ffe1c5e82720f75fae6e22104684996ec5f023f4f5e503f5f5162e0a9fb38260001b61146c565b618bc5565b6186157fbac2258d4e10666cdd4247566cec2ebc8b45c4353c081eca23569eb9a32fa37960001b61146c565b6186417f0b8e12f1c2a36df08b6b19d1f8e9f58d932350f18888c8770967afdf0d54e4da60001b61146c565b61866d7f310935f8e280807c63535994e4c074226e3664a8e6cae3e664589eee54a2679660001b61146c565b6000601160009054906101000a90046fffffffffffffffffffffffffffffffff1690506186bc7fb8ad85bdce86253ebe2f5886e36d8229b22be5bd22fd01ca46eaae9f69de00c260001b61146c565b6186e87fcc5ee73ab81ba65c2765c4a56e7cae27cbc3937237683be37ea35b7bb812b33d60001b61146c565b6000601160109054906101000a90046fffffffffffffffffffffffffffffffff1690506187367ea75fd8d5e10e7158c827c7239e185e0a5e5615c136ff9d82e222eef3dbf20960001b61146c565b6187627fbb1119b99c980c94894c2df3d6a38bb1a3095cb983803cc66c0133b64415258360001b61146c565b600060105490506187957f91f501d8120ad389b961ddadb25a779adaa4fe250456403ea9607408fa8fca7660001b61146c565b6187c17f1fb50474ffec4b2b37f8bfdce63971d46b113ae108a27582006cca30cc04c7bb60001b61146c565b600060136000846fffffffffffffffffffffffffffffffff166fffffffffffffffffffffffffffffffff1681526020019081526020016000206000856fffffffffffffffffffffffffffffffff166fffffffffffffffffffffffffffffffff16815260200190815260200160002054905061885e7fecc2f58e94fa64bbde07dacbdeb558968984e3c033a136e00457c0c8a6fd374060001b61146c565b61888a7fdbbee299aa0d53f3143c21cf332e1337156e078c44faa90cbd1686c462d9786860001b61146c565b81600f60008873ffffffffffffffffffffffffffffffffffffffff1673ffffffffffffffffffffffffffffffffffffffff168152602001908152602001600020600101819055506188fd7f99365af57a0756809d2d0d0df2dee43622519d7dfe28fa55eb1739da876ea38d60001b61146c565b6189297feb0679c84170e12ac16359943091ed5c722d4f2752995ed54f9bb68d40816e4b60001b61146c565b80600f60008873ffffffffffffffffffffffffffffffffffffffff1673ffffffffffffffffffffffffffffffffffffffff1681526020019081526020016000206002018190555061899c7f72265e5558988650a33a325b37d635930cbd641ae2caef10a8882b27622b2d1c60001b61146c565b6189c87fcfca5a58fe2383f74a1e3c07c1a23280df44a6cdccec0cc8ef101f348fe5ab9060001b61146c565b83600f60008873ffffffffffffffffffffffffffffffffffffffff1673ffffffffffffffffffffffffffffffffffffffff16815260200190815260200160002060030160006101000a8154816fffffffffffffffffffffffffffffffff02191690836fffffffffffffffffffffffffffffffff160217905550618a6d7f9e08b64ea176a760749cc529c8921a9df05b05ad26650494c0549995a67ab31160001b61146c565b618a997f58704571cf2fb10c075c07522ec791169b6d3f0f23a64c2fc4dd3980e15bf7b860001b61146c565b82600f60008873ffffffffffffffffffffffffffffffffffffffff1673ffffffffffffffffffffffffffffffffffffffff16815260200190815260200160002060030160106101000a8154816fffffffffffffffffffffffffffffffff02191690836fffffffffffffffffffffffffffffffff160217905550618b3e7f4e7c8dd34576240ed679192a6373f15c8192fa1ec293f53f4cb793ee449c284d60001b61146c565b618b6a7f8a5df5608a89944075af1a3215a5bffb3e45fdbbb9282dc884d86e6b44c7b63c60001b61146c565b8573ffffffffffffffffffffffffffffffffffffffff167fbb1322f85cc7cc8bac4e172a5bc5dcc0c1959007f9a030032abf9258205f0e458383604051808381526020018281526020019250505060405180910390a2505050505b5050565b618bf57f882de61c72584c88c3449d1a5128fdb98699902aa346c2e4097069cb203dc63d60001b61146c565b618c217fb2c9c5c6b30d289e046f0f88cc55c78689b71d95d18e81f031a2d6642ea6f4f760001b61146c565b618c4d7f87845b1e6cd2b8f1cce4d4b52366cae398aaecfdb2dc46cdcdc1d733727f709760001b61146c565b6000811415618cb357618c827f5725e390cf3b09d8546d8bc21778e3c8950ce56462cb0f32112042f319c3c12860001b61146c565b618cae7f918209132d2ad4a2e30dac9dae7854f700c670f029c90d7c52b6ee71b80b956f60001b61146c565b618e8e565b618cdf7f5bc8e6acadddd6ccb6789cafb59859648b64fbc7bc524c90b811a10894f9546d60001b61146c565b618d0b7fa6aa611736bb64c737a0705457f25cd0afa055de31443ab19d3a9144f4e75daf60001b61146c565b618d377fe73281b71f4887a07dd2488dc884ae4fc1216ac808b72156b6fd335ab87cd18b60001b61146c565b600660009054906101000a900473ffffffffffffffffffffffffffffffffffffffff1673ffffffffffffffffffffffffffffffffffffffff166320c582be3084846040518463ffffffff1660e01b8152600401808473ffffffffffffffffffffffffffffffffffffffff1673ffffffffffffffffffffffffffffffffffffffff1681526020018373ffffffffffffffffffffffffffffffffffffffff1673ffffffffffffffffffffffffffffffffffffffff1681526020018281526020019350505050600060405180830381600087803b158015618e1457600080fd5b505af1158015618e28573d6000803e3d6000fd5b50505050618e587f30a91031fa063d484dce392c713318e2706e3bc8b489d415c562cf6f95403f2360001b61146c565b618e847ff7e4de3d3fc7154e0aa8fe342cb8de4ea99d4921bbb0c4e16898eb407ef4b13560001b61146c565b618e8d8161df8b565b5b5050565b618ebe7f3d8f1b37dcb71c8235fc4d1703c7cb0abdccc1342a1f8afd859c5c14e5c98a4a60001b61146c565b618eea7f078752fd0bcbf3ed928351e8651e56d199221a40139e2ca06aece18410bff67060001b61146c565b618f167f243dfff6511649557afacc64ccf3b9f7beb72e5ee2654e3e9c002f8a09b6fe5360001b61146c565b80600b60008473ffffffffffffffffffffffffffffffffffffffff1673ffffffffffffffffffffffffffffffffffffffff16815260200190815260200160002060000181905550618f897f7ddec5e35bce902fb3eaa5ff55f5529464288fb1a339be50e65d57d112dcac7460001b61146c565b618fb57f384e451c0fb546f4f5db2edd2e4d24104a689c06fedf3bedce0c555afa87d82760001b61146c565b600081141561925c57618fea7fe6f291a612653a6a51d9c227b848fc1343b10b61dda795e6025ca67dcc81cf4a60001b61146c565b6190167fece9227977f8359f5c3085a10f645595e6529f99cd4827a555e91b6d1b9f446b60001b61146c565b600b60008373ffffffffffffffffffffffffffffffffffffffff1673ffffffffffffffffffffffffffffffffffffffff16815260200190815260200160002060010160006101000a81549073ffffffffffffffffffffffffffffffffffffffff02191690556190a77f8dc68686f0cc92d4f8a5686bb7d4a98aeb682f43460d1607fe20ac9f00ab024d60001b61146c565b600c60008373ffffffffffffffffffffffffffffffffffffffff1673ffffffffffffffffffffffffffffffffffffffff168152602001908152602001600020600080820160009055600182016000905560028201600090556003820160006101000a8154906fffffffffffffffffffffffffffffffff02191690556003820160106101000a8154906fffffffffffffffffffffffffffffffff021916905550506191737f84566ff5778b801aa16cff11eaabed86f05ef334ba14a94ce2d7d6ef3ba0a7f960001b61146c565b61919f7fce55654e706b86c4e142bdb2a3889eea3247c4e3bb44f9c26918064dd4fa8c7460001b61146c565b8173ffffffffffffffffffffffffffffffffffffffff167f2d6cc0bcdf72c9486f6451bde6b80f44066f4558f77f44dbfedbe7d8b295225a600080600060405180848152602001838152602001828152602001935050505060405180910390a261922b7f4bbe35abc0df828d428dec5ec83d3fd185b1ad7ad04fc0607d26f0ad4a51082e60001b61146c565b6192577fbbcee554bc95968726e330883c116af83725c455b761a26523c27251ec5d98c760001b61146c565b6199aa565b6192887f1caf30a711581d8f41cd474f82b9b017b6e03d4e5dc0efc968adea5f6ce658e160001b61146c565b6192b47fa64d30033a54863d34d4c0e7930b2690ac065a0be66db8eeee49d4107afa29b060001b61146c565b6192e07fef854bc32a5d31c4949904c42e433b59696eb1abd25400909e7b1bf5e004cf7460001b61146c565b6000601160009054906101000a90046fffffffffffffffffffffffffffffffff16905061932f7ff6c2e98166e5fac0d9d38be5f1f1b2d1eb919ec53d9e5bc8c77152c3a67d3ac860001b61146c565b61935b7fe72b3d2810d2fb88534ce643891238e7f223d5436cdbe9494463f15c53425a3960001b61146c565b6000601160109054906101000a90046fffffffffffffffffffffffffffffffff1690506193aa7fdd369fe24997ed8a8c9a83d5749d0b1942e91f56d97ce7a622450b9fceb647ad60001b61146c565b6193d67f7940db9ff9010a312f16faf7fe4af567b53a3a392023d2d1ec9687807daa7efa60001b61146c565b600060105490506194097f813c43c9869669e479f8acfadef8350305814bf797d5b1df7d121309ef53eee360001b61146c565b6194357ffc396b23d95266b2ee48de9c140514d967447c262dd5786de43a1631e4c3650b60001b61146c565b600060126000846fffffffffffffffffffffffffffffffff166fffffffffffffffffffffffffffffffff1681526020019081526020016000206000856fffffffffffffffffffffffffffffffff166fffffffffffffffffffffffffffffffff1681526020019081526020016000205490506194d27f3413975fcbc47be97a3dcbeb2c843eecc63fa40e51bbeabaae10c94fbc349acd60001b61146c565b6194fe7fc9d01528a15cb96f6a0413bcc64dc3a07c19aef74e9d38172d2bfd00711cdc4960001b61146c565b600060136000856fffffffffffffffffffffffffffffffff166fffffffffffffffffffffffffffffffff1681526020019081526020016000206000866fffffffffffffffffffffffffffffffff166fffffffffffffffffffffffffffffffff16815260200190815260200160002054905061959b7f64c1d8e0d4399e43df66aa41ce5cc5b0d90ab103d767464d28be72f33c9c835460001b61146c565b6195c77fb7765bf680e5c33174ea096689ce5302b8d738975c5706e47cec2497725187ce60001b61146c565b82600c60008973ffffffffffffffffffffffffffffffffffffffff1673ffffffffffffffffffffffffffffffffffffffff1681526020019081526020016000206001018190555061963a7fb39f2351b026d0dc77f7b7c98c32e18b4135f867164b740ddfe349432975639060001b61146c565b6196667ff4630f50c2b6b1f19ee109ddd756140c97b8cc86c46744136a6bc5050b050c0a60001b61146c565b81600c60008973ffffffffffffffffffffffffffffffffffffffff1673ffffffffffffffffffffffffffffffffffffffff168152602001908152602001600020600001819055506196d97fbc979d8442fce9d2f833148940f43495da29a4621cb928bf56e5fe8835cfa26560001b61146c565b6197057faba9035ece752ee48c8358088c103258b25060f845134781edb05d15d15dbfb860001b61146c565b80600c60008973ffffffffffffffffffffffffffffffffffffffff1673ffffffffffffffffffffffffffffffffffffffff168152602001908152602001600020600201819055506197787f4375c17d80f9a9050865c2909b65b567272ee6d15d1291d63667c86b55533ffd60001b61146c565b6197a47fa384829bb0b6e5a6945174f8ae095f1f96eca6e616b902c90107b88fc5777bc660001b61146c565b84600c60008973ffffffffffffffffffffffffffffffffffffffff1673ffffffffffffffffffffffffffffffffffffffff16815260200190815260200160002060030160006101000a8154816fffffffffffffffffffffffffffffffff02191690836fffffffffffffffffffffffffffffffff1602179055506198497fff376fb9732318d2ba0492725151fb501d426ae2d5a46c6803fc10d540bdc53360001b61146c565b6198757f7346a2aeed46d72d51250d5c043d8432fe3dbc60ebd2e35e8043cbd33a85927d60001b61146c565b83600c60008973ffffffffffffffffffffffffffffffffffffffff1673ffffffffffffffffffffffffffffffffffffffff16815260200190815260200160002060030160106101000a8154816fffffffffffffffffffffffffffffffff02191690836fffffffffffffffffffffffffffffffff16021790555061991a7f4db225c62bc321a43be4ac241910d3fd94fd19a1ad37548996d506c3d90f11f660001b61146c565b6199467f4be560a2f71b327c13b2000ecdfe43dc62a5d4aa8947c5a3fc26466739678a4160001b61146c565b8673ffffffffffffffffffffffffffffffffffffffff167f2d6cc0bcdf72c9486f6451bde6b80f44066f4558f77f44dbfedbe7d8b295225a84848460405180848152602001838152602001828152602001935050505060405180910390a250505050505b5050565b6199da7fa1ab2f221c052caab666d1d59a2615a8fb972948b3134d1b12f9ec26ff67706960001b61146c565b619a067f42fa81ce5f23337ff8031a9ad6e0849d8c01aa6fdf30f884ba0ec1637420b61760001b61146c565b619a327fe4f6246f92cabee08898a2ad87df4c6ce0b25646092f989cca8f79715edf38ad60001b61146c565b6000811415619a9857619a677f7e4ffd27b6e0e732866aa8de7e08f404bb46de9a6d43710c3ba7bf0e7a6a906c60001b61146c565b619a937f58b1aa26a5da83402d49fe5d1b9c49d8c74e5f8e2a5a50a4fec7569eabbe8a1c60001b61146c565b619eaf565b619ac47f4c6cd6794e9d17dc553bad3788820a14ffa3b774fe150f4b97e3fbb4d410353360001b61146c565b619af07fcaa5845d463cb7900bc8b57fa976ea79e0377baa1df955ff8fa67e4495d9d20660001b61146c565b619b1c7f405f959cb19190c537d397811a359cbb065ab9bf555db08ad02deac08961ee6560001b61146c565b6000619b3382600954617d5290919063ffffffff16565b9050619b617f9f799960f81aa53d101da076cc838f698d1bd66b0ed188920a2338e7c5e938dc60001b61146c565b619b8d7fc2c52c195ffa3b831dd16c605e22da0ca8d7eb44ba1df6e3edba75dded3ec19360001b61146c565b80600981905550619bc07f6eafa12298334647ae0aa539eb7fedaf6ab924ab8e16a533ce079747dd4faf3460001b61146c565b619bec7fa95adeb84ae3b74808606151f6640414d69c403720f43cfa69d4a4e5e968fce060001b61146c565b7fceb6d671277d4354fd29977ada70695fbd93a16612abf765d6b0e25c28dc6db3816040518082815260200191505060405180910390a1619c4f7fca9ca4d2b422572426a68e52620a305a13475f5cc765fb38c6587a04d09e038360001b61146c565b619c7b7f71f56853791b91c9f0afa47683aaccc9d7996c8f617fb1e6f33c644bbdae2f0160001b61146c565b7f6109e2559dfa766aaec7118351d48a523f0a4157f49c8d68749c8ac41318ad123383604051808373ffffffffffffffffffffffffffffffffffffffff1673ffffffffffffffffffffffffffffffffffffffff1681526020018281526020019250505060405180910390a1619d127f3be5cdbab73eae9f139fb44acee9a386f868387cc75e5a5d3fb217b2ad7e3dfb60001b61146c565b619d3e7f093af3b05b0bdffec6eb874bfc9d70cfc560470431f0fb7461c416c2ef13476a60001b61146c565b60003373ffffffffffffffffffffffffffffffffffffffff168360405180600001905060006040518083038185875af1925050503d8060008114619d9e576040519150601f19603f3d011682016040523d82523d6000602084013e619da3565b606091505b50509050619dd27e5d9bda2ce9008dcc30f99793ea1bbef5c11c778ed286cbc07a176b05d2632560001b61146c565b619dfe7fa76736da15ef9b1c4a9946360fb1227a3c8911d66dc454fae7ae39476bda4afe60001b61146c565b619e2a7f5ab0fe542a0903f6c62653cc5b656d7672ea96067d0a21c3e978e4eba1af4ea160001b61146c565b80619e80576040517f08c379a000000000000000000000000000000000000000000000000000000000815260040180806020018281038252602181526020018061e76e6021913960400191505060405180910390fd5b619eac7f32a2f550dfefe1759e0c7c0a25bc788b6621abb02fb2f1b801175fbe4ecc6cc760001b61146c565b50505b50565b619ede7f64cf9d60d5a2afd1f517428ad571666d4983ba25b08c5d2bc55d7401522fba0c60001b61146c565b619f0a7fd53946da3bdf38ecbd2124e54228366ca3c6fab9257ddb425b85886a3287e71060001b61146c565b619f367f79b626b2810621fe92479fbf80e412604a9f36dd5c022804d5b969ca135afb4260001b61146c565b619f627fa5ff9e8275541914d3ea61e89931eef2326b09cd9967bfaf092eafade58f1ad560001b61146c565b600560009054906101000a900473ffffffffffffffffffffffffffffffffffffffff1673ffffffffffffffffffffffffffffffffffffffff163373ffffffffffffffffffffffffffffffffffffffff161461a008576040517f08c379a000000000000000000000000000000000000000000000000000000000815260040180806020018281038252602981526020018061e7456029913960400191505060405180910390fd5b61a0347f016c1a990b7b2d7c5aa1e04c456e9821f4e07cb6dc7ae8063535d0a77b0f38c760001b61146c565b565b60008061a0657f268656f54d0b13b04f9930ddff0497141ee4664626e5cd78287e2c825102aea460001b61146c565b61a0917fc750ed3c34643ab782cf016097523e04555b64b5b121b20db386c0734eae4e3c60001b61146c565b61a0bd7fe78a8bb54cc45a4ff78162d031d19d539aa40de0ad3205670524e3ed9aa26e7960001b61146c565b600061a0ee60155461a0e0670de0b6b3a76400008961cdf890919063ffffffff16565b6115f290919063ffffffff16565b905061a11c7f8d75ebccbe0e4d962a7c9514daac0e205ed771bfe2fea45435d099514ea1291a60001b61146c565b61a1487fd235ad0bd99aed9b72ec307c34ea6216694d1ef9dcd4d4cb34f43d67cdf05ff860001b61146c565b8385111561a15257fe5b61a17e7f9291073777d73ba5c408add19e0c096a458a48690759911d995f5d09e8885e8360001b61146c565b61a1aa7fdfa58c3e6453f19d3ff1a2fa4cade3d8e49283ce3ca14a93c08a3164308a7aa460001b61146c565b8385141561a2a65761a1de7fa3ab04d5a5c50aebeaaf7bdb8add5b9dad177bee2d4c85812e3e019350502c7060001b61146c565b61a20a7ffe88220350948eedfa6ef59b6b82f04f216294f38edf0561e42b132d0cf1415d60001b61146c565b61a2367fc0b1d4ff9317a0d8a053adfd34679c5bba99e9e6561e6ae0278c3bae34dcc6af60001b61146c565b670de0b6b3a7640000915061a26d7fd66b9a8e8638fe92b4904186ce6cef89be5bc52da398d0f07edbad5b53bfd71360001b61146c565b61a2997f753291fc951fd5e704f112b625647d6642296bde0cfb82f5d68c8176a92d0e6360001b61146c565b600060168190555061a462565b61a2d27fd657a85359c28f09b751e49f52a175d15144b11be81f8e7351ae2fc9d944a64c60001b61146c565b61a2fe7f106d0d55f26ed31fbfca89b4084da53756bb06cd8a8fb4dedb9d4e523f79c92960001b61146c565b61a32a7f62252aa79e2b890bde7649d67267c64e6f43be429fb562bb1f3cc41892974eea60001b61146c565b600061a35b60165461a34d670de0b6b3a76400008961cdf890919063ffffffff16565b617d5290919063ffffffff16565b905061a3897f143ed80b5b38078e6635fdc34d0d36e013846a377782d5add1d88dde2e1bbcb860001b61146c565b61a3b57fb40c5298ef71044674daf91fa88058ab6cd31d330a087d9543f0e37b70744b6c60001b61146c565b61a3db600161a3cd878461ce7e90919063ffffffff16565b6115f290919063ffffffff16565b925061a4097f2418ae341203671ce7c91df0422a244c3d580b598949b7c097a324a346ebd8ae60001b61146c565b61a4357f4eaf757be44e0e21336f9090235f3269f2aff10bce13ad986f24ffbf6186858860001b61146c565b61a45a8161a44c878661cdf890919063ffffffff16565b617d5290919063ffffffff16565b601681905550505b61a48e7fab310a4097229826a49e89e08ef3032a56c119e35277e3f97c31ec94b0a0783560001b61146c565b61a4ba7f994fb08decf6ab915e3e4d4e020ca8e97d711f5231f3e4c4536b6ac5d79c5a6660001b61146c565b61a4cd848261ce7e90919063ffffffff16565b925061a4fb7f4bb47e5c5597085a198f8f95e897a2885a496261f39aa087008fd4185a3669b860001b61146c565b61a5277f3160619aa45a1b33a7d8e3988885900726de5289743c3388a102fe16db21f83260001b61146c565b61a54c61a53d858561cdf890919063ffffffff16565b82617d5290919063ffffffff16565b60158190555061a57e7f17442a7448490f2e31672fdce7de6751dd153f4c6521c0b09bd86410bb32899360001b61146c565b61a5aa7f977bf07bc56b0c119a7d5c0999c1f7b451e5a8690fe92e4099764f54e29ca6a160001b61146c565b82829250925050935093915050565b61a5e57f20bcb947a4f2cf06270727bc882ca4b9af4ba1715a60e74aaf48bfd5744afa7460001b61146c565b61a6117fdcd4b4a8459335add9c06c38b2e3f8c6f2160695fee1eb4ba395e4f83a8094bd60001b61146c565b61a63d7f55c48ec53c81dab54e34acf9994a4f9cadda475ea140b7342551505dfa0e39df60001b61146c565b6000601054905061a6707f4485d15d41f4946d5dcf32306e9dda81a0fc28167cff9b07f53cf0ae1a65bcad60001b61146c565b61a69c7ff89f061b8045d0a5dca83f1044002cc8faa8f60e6b08ee414eabbfc3539538a360001b61146c565b600061a6ca7f29866f6d99a4a13e28ed4eef572462ca69a61f26d6c34eeeeb8f682f3b368f3e60001b61146c565b61a6f67ff60c4bbacf3c1b9ec4ffd31731b4b820210d6ae1997c89589cc78be1c33029a160001b61146c565b670de0b6b3a764000083111561a70857fe5b61a7347fad353a60d5a677c68ed5b54e94d78330bf6f623f59a3f0d1f8c0898a736a8ed760001b61146c565b61a7607f4b1eacc8429136c971b5fc4d5851b46a7fb5bdf783a23b5c894d107c2d32e99460001b61146c565b600061a77d84670de0b6b3a7640000617d5290919063ffffffff16565b905061a7ab7f4177a33be68a13c1c941675e94462e61b3b3c7b0f7c45984ec70d62a4b818d0060001b61146c565b61a7d77f622c48238a37a99f80a929355e7283161bcd6b269d3f82ffbe70af8ebc4746be60001b61146c565b6000601160009054906101000a90046fffffffffffffffffffffffffffffffff16905061a8267fbc2b516e1a68e090ab986ad8217b215e02bb4ff80a6bb5bb9c192d04799798da60001b61146c565b61a8527fce60007182cc6b590d63510d948367f7e4805cec3b5ad6bcc3e4978aa72538e060001b61146c565b6000601160109054906101000a90046fffffffffffffffffffffffffffffffff16905061a8a17fe7f7d81cc1f58c88c50d3acb2806fe91562fede7c39b77d459fc3def726b76f860001b61146c565b61a8cd7f53d94d39ebd8f36577a503a6c8d915d5edb16c6316c8e514790a9cb6e7c0c8fc60001b61146c565b600060126000836fffffffffffffffffffffffffffffffff166fffffffffffffffffffffffffffffffff1681526020019081526020016000206000846fffffffffffffffffffffffffffffffff166fffffffffffffffffffffffffffffffff16815260200190815260200160002054905061a96a7f6a351f864e6f3a4f412857d9b31c2c22d5319a218f443649eefa9b65223ea72060001b61146c565b61a9967f7670728bf2fed29d35d48108c4f71511d71874e6932c7afafc330476e4a91d4660001b61146c565b600061a9ab878a61cdf890919063ffffffff16565b905061a9d97f18beed7b3405becbef0cb0d544b473b02ab1c1e22dcd95cd1e17e00ec714527360001b61146c565b61aa057fdb34854856e2ddba1f30fc91edc4d3b2cf842628335db65fe0bdfe9a3270cf0660001b61146c565b600061aa1a82846115f290919063ffffffff16565b905061aa487f86c3cb6c03485575049c0748631563017a233a374d815396b730fbfc8702e9cd60001b61146c565b61aa747f3e0412114466fce790b5a08a77d210b9d4c616baabf1bc99db02b3f11d4147c460001b61146c565b8060126000866fffffffffffffffffffffffffffffffff166fffffffffffffffffffffffffffffffff1681526020019081526020016000206000876fffffffffffffffffffffffffffffffff166fffffffffffffffffffffffffffffffff1681526020019081526020016000208190555061ab117f670d268d812d18a47d6c7c5f0d842cf35fdd28bd2b3d83d39c671f9452b7114860001b61146c565b61ab3d7fe41a80e7b40a4361b92fa7ff227fa99125ae5dacbe3be0bf9fecd94eabce09e560001b61146c565b7fe12e2cd2c9afa8069203ca07e7eff1edce4a075686d0736a8e7e0d593597b20781858760405180848152602001836fffffffffffffffffffffffffffffffff166fffffffffffffffffffffffffffffffff168152602001826fffffffffffffffffffffffffffffffff166fffffffffffffffffffffffffffffffff168152602001935050505060405180910390a161abf87f5511108c17b2261f271c659050d12e1c430fd18e617ae9be76a6fa17cd92ac9f60001b61146c565b61ac247f4a62f2fad340d895e32c4cb2526e9986b7204e94f1083444e1c6165e6f57c1f560001b61146c565b600086141561afab5761ac597fa67cd79d2154a8dcbd5fce4d6531b80d685f8afaad0094b90165b9bff2c8b2b860001b61146c565b61ac857f8799288ed5dcfcc2595b6eb99e7e0d7c0f86d30a3a13da9b3d80badaa51b6e7560001b61146c565b61acb17f7e9701fd1db122a793463a62bd08bcbd1be462bddc8e4556fb288da46ba6845360001b61146c565b61acd76001856fffffffffffffffffffffffffffffffff1661e11a90919063ffffffff16565b601160106101000a8154816fffffffffffffffffffffffffffffffff02191690836fffffffffffffffffffffffffffffffff16021790555061ad3b7fefa7ed6596d1666bb79be0771150574c35b4e5fbe447f3ddfccc74d10e7c772160001b61146c565b61ad677fa8ae388c7d1f3a2b16a5c563a443c99b1c98df36138da7e5b5b1b9deaae8edec60001b61146c565b7fb50f0f59e7cb5b421dc77581c3a9919e3806e076e5fa78a874c3f120cb7d874d601160109054906101000a90046fffffffffffffffffffffffffffffffff1660405180826fffffffffffffffffffffffffffffffff166fffffffffffffffffffffffffffffffff16815260200191505060405180910390a161ae0c7f6cd43b3c13eeecba7f3c3d825a0a2bc66d3aa229cab23d09deb8ab4f0e9a61d660001b61146c565b61ae387f69ed7fee91ce0af3ea614d6a91e86c5951607e8ccc23598265947b3cbf072d0f60001b61146c565b6000601160006101000a8154816fffffffffffffffffffffffffffffffff02191690836fffffffffffffffffffffffffffffffff16021790555061ae9e7fda38e21b8ccf5c7578fcba562f14c67ea5e004ba2491243a459c7829e9b49c7560001b61146c565b61aeca7f52c10cd46be7bf9ff0a87c5e0eb1a1a123eb42958f0f23e00d431044e2e5ebb460001b61146c565b7f1f9dfc70cd666adb18a39d60a797518f7b4febf4b6e24ef37d44f6e1e7219fbe601160009054906101000a90046fffffffffffffffffffffffffffffffff1660405180826fffffffffffffffffffffffffffffffff166fffffffffffffffffffffffffffffffff16815260200191505060405180910390a161af6f7fc635e7333757458922b2118a0c0afdef0bce28fef4ccd39ef386a16ad1cbd6d660001b61146c565b61af9b7fb50c1cf0ad6a3bb77029fac0e1e84086fe463a13d786340ca8791917de58c58b60001b61146c565b670de0b6b3a7640000965061b345565b61afd77f77cdbf7e07e0190a4a0e57168d7f11555c1a46b3816a3fd345a13d2e0512846e60001b61146c565b61b0037ffe5ebb801a658770575c387db93e184a15fc05ba3fa5d857a83b7c9ee4e39d0360001b61146c565b633b9aca0061b035670de0b6b3a764000061b027898c61cdf890919063ffffffff16565b61ce7e90919063ffffffff16565b101561b2905761b0677fdcc2af47f3e825e5e75aed07060f4ac29f4480e0b75049d2467773b06e4accd060001b61146c565b61b0937f3218fefbb2518ca3b42a387985a950434d9109c892494f78c9f94413ff5de0de60001b61146c565b61b0bf7f98b0fef3a5196e6b4573c14e8c9afef458a560f71c04a191b32594443a60a78660001b61146c565b61b102670de0b6b3a764000061b0f4633b9aca0061b0e68a8d61cdf890919063ffffffff16565b61cdf890919063ffffffff16565b61ce7e90919063ffffffff16565b965061b1307f68cea7259f663bd44e866514dfb02012550b61f86c2092adf77cb4522cffaa5960001b61146c565b61b15c7f14caa1a784a3730c28607ddb6420d890913c52f046fd639122ac136b1a7f9d9460001b61146c565b61b1826001866fffffffffffffffffffffffffffffffff1661e11a90919063ffffffff16565b601160006101000a8154816fffffffffffffffffffffffffffffffff02191690836fffffffffffffffffffffffffffffffff16021790555061b1e67ff6f73a656f2272224aefa8e385433a300323ffe2122227231494c59908764d8b60001b61146c565b61b2127f26c9d79fba4a054ab0d64a2ad5a461d4c0a998aa1f8b85ff06422cd969a7e0d760001b61146c565b7f1f9dfc70cd666adb18a39d60a797518f7b4febf4b6e24ef37d44f6e1e7219fbe601160009054906101000a90046fffffffffffffffffffffffffffffffff1660405180826fffffffffffffffffffffffffffffffff166fffffffffffffffffffffffffffffffff16815260200191505060405180910390a161b344565b61b2bc7f8759a2a0a0003f67208bcdd3596795c467c7c15ed9c5b0df94805d376cf2df7f60001b61146c565b61b2e87f595f45d1213824765c6d46f6758f068727ee54c5d15f30cdfd7591fd6d519bed60001b61146c565b61b3147fde8f7597a64b77005ce08b8f66a36aa51962e0b935b44b0d41db83d826cbd54060001b61146c565b61b341670de0b6b3a764000061b333888b61cdf890919063ffffffff16565b61ce7e90919063ffffffff16565b96505b5b61b3717f39f2d9be8e6ce8a5ba492361428dcbe9dc989153b1121d0937bd9ec464b22c0d60001b61146c565b61b39d7f54dd2509691177e1634a83a25d3b8d48f2e2d6445a8992c922bf51aca97b463660001b61146c565b6000871161b3a757fe5b61b3d37f755b6db23b876498081db2e3104564969eaaa58cda552f61934070d828396e1560001b61146c565b61b3ff7f4e61a32c7b13801c251ab9b21e9263d7c8be93e8996ff1ce8868f5bfb0769fe860001b61146c565b8660108190555061b4327f78004c3dba91c3621f43dbb63c67a5c8679fb8e7a804fc6a57345fc39f82aeb560001b61146c565b61b45e7fc58a6479bd5c0a3353da51854987b283706922534f8630ef823c149fbcd56eeb60001b61146c565b7fc1a9618cb59ebca77cbdbc2949f126823c407ff13edb285fd0262519a9c18e8c876040518082815260200191505060405180910390a150505050505050505050565b61b4cd7f9d36dded589a84b46da176ad689a2bda7b1697363d3b81a5c5aca7218d05efa060001b61146c565b61b4f97f62fcf4b0e5fa55c8b4264cd46d7c3e0ca82c987a91638a77ba062e0772f34bd860001b61146c565b61b5257f6b8972d6af1c6312158da2d29bc7ba4d8151f78776f6a8757bb89f8f5cad5b6a60001b61146c565b60008060009054906101000a900473ffffffffffffffffffffffffffffffffffffffff16905061b5777f619d237351922dd0bf0be409a48f2fede4c003babac50b0b7511e836ec7f014060001b61146c565b61b5a37f9dfe31f36c783c9c5a85bd0cf877b52c26c721d8adeb6dadd5f88dd4aff4893d60001b61146c565b8073ffffffffffffffffffffffffffffffffffffffff166338d995a8836040518263ffffffff1660e01b815260040180828152602001915050600060405180830381600087803b15801561b5f657600080fd5b505af115801561b60a573d6000803e3d6000fd5b5050505061b63a7f129ebee5200eb019e3481d21f41d5f2347608ac0a38df6e7cc2ca5b2a5c324cd60001b61146c565b61b6667f361e50072fa44883c605fa40a58223ef1c6647cd3fbeac8d48749343e4d0002e60001b61146c565b61b66f8261df8b565b61b69b7ffacebaaac991f2f087c1f382e95ca2cec845fff5d05c249764ad40220a24d3dc60001b61146c565b61b6c77f78833a98df474c318602cb5bedb3b9021915873f832a91340fed44ef9fb9d98560001b61146c565b600660009054906101000a900473ffffffffffffffffffffffffffffffffffffffff1673ffffffffffffffffffffffffffffffffffffffff16639dc29fac30846040518363ffffffff1660e01b8152600401808373ffffffffffffffffffffffffffffffffffffffff1673ffffffffffffffffffffffffffffffffffffffff16815260200182815260200192505050600060405180830381600087803b15801561b77057600080fd5b505af115801561b784573d6000803e3d6000fd5b5050505061b7b47fbe00f21701ca3a337786515f2d59f32e67e6c5867cdad7f4e87b9af5978fde8a60001b61146c565b61b7e07f4c883274b2f47ec9833e91477f72b270edf88acb41b7f45eb6f4be27f3d2f26760001b61146c565b8073ffffffffffffffffffffffffffffffffffffffff166364a197f330856040518363ffffffff1660e01b8152600401808373ffffffffffffffffffffffffffffffffffffffff1673ffffffffffffffffffffffffffffffffffffffff16815260200182815260200192505050600060405180830381600087803b15801561b86757600080fd5b505af115801561b87b573d6000803e3d6000fd5b50505050505050565b600061b8b27fcea0101d3a48240a104c2c90bfcfed3ea1d947ceffbc5ed8084b074a23bbad7d60001b61146c565b61b8de7f970ec9c429dfdc978b14cb6dd4790ea9ded3e269757009c323100f733f70f5cc60001b61146c565b61b90a7f042703052524105aaf2590603aa14df53e68808e4fac55cb495c875c96b00b9960001b61146c565b60008260800151905061b93f7fb06273a6e4f97b6e608f730404a37d0c56c2c3917754a3719834bac189979d0960001b61146c565b61b96b7f820078dfc057ea562ebc6c064f8a5021b8c27a0634ee894e9a83b8791a85fb5260001b61146c565b60008360600151905061b9a07f3f50b6c6f29c3ee9c696f6919fe653068c682c19af5f5497a585cd987d11b4a960001b61146c565b61b9cc7f19049250f41ba8d4e470609492451ed18a9a6842779a82a16de5bf5b6ea19f9860001b61146c565b60008460000151905061ba017f99bd6fec0146571c030eb228a0e8d1cdf3574336bd5a11d379e7c4bddb64d6f960001b61146c565b61ba2d7fd9da35655cd4779ad70db4d1b18d74b0b7c36c4ca498883623db657725ee428760001b61146c565b60008560200151905061ba627f333ef8c4e392804e5f7f9ae00aa23b4be293c2c7f3940d84c2af3d015f339a8760001b61146c565b61ba8e7f0ea578836ca86b9239b8e3fefa5bd50efc252354ee22f351cc6805c2b2dcf77860001b61146c565b600061bb0f8360126000886fffffffffffffffffffffffffffffffff166fffffffffffffffffffffffffffffffff1681526020019081526020016000206000876fffffffffffffffffffffffffffffffff166fffffffffffffffffffffffffffffffff16815260200190815260200160002054617d5290919063ffffffff16565b905061bb3d7f91782ec67ff203cd4b6cc62de22500430e399ee7673f3b79ba679f667afcf2aa60001b61146c565b61bb697f35a5f7b8afc2c8cacaba3dc44dd8252faac5cb97fe48a70e294ed6dd2556b1bb60001b61146c565b600061bc13633b9aca0060126000896fffffffffffffffffffffffffffffffff166fffffffffffffffffffffffffffffffff168152602001908152602001600020600061bbd260018a6fffffffffffffffffffffffffffffffff1661e11a90919063ffffffff16565b6fffffffffffffffffffffffffffffffff166fffffffffffffffffffffffffffffffff1681526020019081526020016000205461ce7e90919063ffffffff16565b905061bc417f2ea5367385e741727df560e9cbfb545e7b79acacdab7882736ceae8fa790e7e460001b61146c565b61bc6d7fb7d4d0db1021dcf777f67bc5669cd89c616e775b0f52059dfdd71e38bc920d4860001b61146c565b600061bcc0670de0b6b3a764000061bcb28661bca461bc9587896115f290919063ffffffff16565b8f61cdf890919063ffffffff16565b61ce7e90919063ffffffff16565b61ce7e90919063ffffffff16565b905061bcee7f3f25d2532d147d0f46d367b785f33ae84add5d286d78a015490645101c31158060001b61146c565b61bd1a7fcd0ee461ffddcbf6165daa1dc9c3c7a375fd08cedc4d6d309e888d63c6e4179960001b61146c565b8097505050505050505092915050565b61bd567f190c9b8a689cbbf95282e283b565bd26c0a708719f08ddd799c1594573b20b4f60001b61146c565b61bd827ff8e69d5919466061911204d26b1c1ccfb8fc83d56191311034a8a81bcbc59e2b60001b61146c565b61bdae7fc5252e6b847587d580ba0e230b19b2e04ec46fc83c9d2c72839b700ba475a98560001b61146c565b61bdda7fe586924bfe7ab557b794b5d3c2d91eac53bcec98bb016c20d24fe6c85e66001060001b61146c565b600d60008273ffffffffffffffffffffffffffffffffffffffff1673ffffffffffffffffffffffffffffffffffffffff16815260200190815260200160002060010160009054906101000a900460ff161561be80576040517f08c379a000000000000000000000000000000000000000000000000000000000815260040180806020018281038252603981526020018061e8096039913960400191505060405180910390fd5b61beac7ffd5b12b91cdf5740e935266d2388a2646259160ba9bcd746d2984799f9c929d760001b61146c565b50565b61bedb7f733f3bacdda22b0fab0b1eb52cc9554fe21cf3da3910f6bc0809cd3c19f621a960001b61146c565b61bf077fc48792f38f7a513b8b58ba5514819f219e33f1f312615fbca4bed9d87032124860001b61146c565b61bf337f795d21751b2d7538564bd3e64dfb64cdf2230f05d448df155d63b5547a04206660001b61146c565b6000600b60008373ffffffffffffffffffffffffffffffffffffffff1673ffffffffffffffffffffffffffffffffffffffff16815260200190815260200160002060000154905061bfa67fc40133680c6a350888f629f0535f175e8c4d462e7dbb5ca4ee049a9e4f9299a860001b61146c565b61bfd27f5958d775fd333a874fc7a4a06c2a8090075833880221e4f3209b2c04a5bd952060001b61146c565b61bffe7fee26900352d4e9e2e67fbc751fcde08b5e22381b8cf9b97bd1153e8d1f3509f760001b61146c565b6000811461c057576040517f08c379a000000000000000000000000000000000000000000000000000000000815260040180806020018281038252602881526020018061e8426028913960400191505060405180910390fd5b61c0837fc7327303c59e3ce1e7a89b75a5fbe373cfeb49c8f186901f090ca0eede77cc2f60001b61146c565b5050565b61c0b37fb28e4729ffa94adcb4e83952c8377a2ceebb02a66b23abec9f7d046657f40b2360001b61146c565b61c0df7f66cff3ed15c74905a3dd53d103e5d2b13ed36b4a4d9f467094dbf3e3654fb61860001b61146c565b61c10b7f69b9bee7d3661919d02b7207b0a86760b05b9687c31489f3db9025772e047cf560001b61146c565b61c1377f4075c202dbb3aac2416b9b09eaaead63400e81fa5987ae7a86a5eec87d733b4460001b61146c565b670de0b6b3a764000081111561c198576040517f08c379a000000000000000000000000000000000000000000000000000000000815260040180806020018281038252603381526020018061e7b06033913960400191505060405180910390fd5b61c1c47fb1fdd74a7cc88d22769334607dd4ff950ae763e3dad81996cf074ef31461b65960001b61146c565b50565b61c1f37fe691fad05ae7a4ce542ca6183db05b15b5ca877eabc41ef0fce1c20d1236a01060001b61146c565b61c21f7f6bfb818643190dffcc63377b71dced0ce775d69041e085750e8033016b49d38360001b61146c565b61c24b7f433e6e3c1baddd7872989d2c871a089bac54209810e462acff00ddfc4e250b4d60001b61146c565b61c2777f9159c72e9e3a03d8aadba54989ccac10da5921149d37f57f6ace44ab01b8670e60001b61146c565b600d60008273ffffffffffffffffffffffffffffffffffffffff1673ffffffffffffffffffffffffffffffffffffffff16815260200190815260200160002060010160009054906101000a900460ff168061c2fe5750600073ffffffffffffffffffffffffffffffffffffffff168173ffffffffffffffffffffffffffffffffffffffff16145b61c353576040517f08c379a000000000000000000000000000000000000000000000000000000000815260040180806020018281038252604681526020018061e6a76046913960600191505060405180910390fd5b61c37f7f79f0682fb4075b09ed2973c7a0b22212ce5cab80db5bcd5ef40b675f820c8f5c60001b61146c565b50565b61c3ae7fb264748b76b038f0e9fde16b7f055313835887c4c6f84d2b136fcfaca73d434d60001b61146c565b61c3da7f7bbe31b27bb8a657e9fbb20d02b193c835958ff3353d896775793015dec1cff460001b61146c565b61c4067f5e1f05f434151a592127fec899785c9182bdfe7d64e44215c363c1ab65cb744f60001b61146c565b61c4327f362c42da00b542832e087af30815b4860fb1ab8d7dad999432f0b36602c040e360001b61146c565b6000811161c48b576040517f08c379a000000000000000000000000000000000000000000000000000000000815260040180806020018281038252602681526020018061e7e36026913960400191505060405180910390fd5b61c4b77f653f50cd1a7851bf81acada976ac5fb57fdbdc01eaa1cd9d67082506c6ba1c4f60001b61146c565b50565b61c4e67fec0aee374a9583a8b1aaf19b977fd9687db6cebabb1ec2d1f9ad62dc86d2736260001b61146c565b61c5127fe211547a65df17b76cc2e889dad700b5f58d37ebcd264806a4e3ad9d217caac360001b61146c565b61c53e7f896c13f1a501e79b7a4280127a56149e40499f2e2930b27b53a9527a738cdea460001b61146c565b80600b60008473ffffffffffffffffffffffffffffffffffffffff1673ffffffffffffffffffffffffffffffffffffffff16815260200190815260200160002060010160006101000a81548173ffffffffffffffffffffffffffffffffffffffff021916908373ffffffffffffffffffffffffffffffffffffffff16021790555061c5eb7f45ae69869d4743f70642c6fc5a5bcd05a068b0ddb5d420270e4df1be9e106eff60001b61146c565b61c6177fd97b5fede997444e011b3aea729e58aa55c9ae8be8c658feafc84b35901cf2ce60001b61146c565b8073ffffffffffffffffffffffffffffffffffffffff168273ffffffffffffffffffffffffffffffffffffffff167f094c08e96a8890877a8390b4f967180a7507ad8622244d05fcd0f9f8e086564e60405160405180910390a35050565b61c6a17fab4615728be128a4d11df33426735b59ae8df9ad75636f7ab818397d133d0d6f60001b61146c565b61c6cd7fa6c4c7b9b7a3030fcbaf134158dfa498c4788ba09ec3188b7bf33a15eaf7578960001b61146c565b61c6f97faa17ca3440faef580b5104d7cede9dae8bd45cba7b5ddd9d7f6ad8aa6cb32faa60001b61146c565b600660009054906101000a900473ffffffffffffffffffffffffffffffffffffffff1673ffffffffffffffffffffffffffffffffffffffff1663bb997bac8330846040518463ffffffff1660e01b8152600401808473ffffffffffffffffffffffffffffffffffffffff1673ffffffffffffffffffffffffffffffffffffffff1681526020018373ffffffffffffffffffffffffffffffffffffffff1673ffffffffffffffffffffffffffffffffffffffff1681526020018281526020019350505050600060405180830381600087803b15801561c7d657600080fd5b505af115801561c7ea573d6000803e3d6000fd5b5050505061c81a7f921b01cf865494b9b5f4146de271b6c9be5180be3e56317617af66a9d67cc99b60001b61146c565b61c8467fbcb06b1f9ea40dcb8837d5f44d353950bacd87bdf54971fae4406b16be2c6aca60001b61146c565b600061c85d82600a546115f290919063ffffffff16565b905061c88b7f4760677145631b0753adc0e91cb7fdb4fa8613f434164128d526a6eb84d98f7460001b61146c565b61c8b77f713d90885487bec6cdb3e357d440b67ade4c8e4833b4985ba9adb7bdd23f7f3e60001b61146c565b80600a8190555061c8ea7f6f29c8adf5bb839b1fcaee3b537ae94ac123e96c7e4768e63d4b1d3ef2c011cb60001b61146c565b61c9167f5f1b73588b5c9c731da68301722806449ea7172eb89580a1d312595c49d719af60001b61146c565b7fa8e886449d8f7e765877b4a4f54632da3943ae454d5a272bdccb1781f086ff29816040518082815260200191505060405180910390a1505050565b600061c9807f9616bd39dc9784369642991c79d7e2e3c9832fbeb24b7b6f6023631b04df631a60001b61146c565b61c9ac7f5ecfe87856c753a1ae5a33e757c220549a0feebdc6b33ce1ff93f762e936eb6a60001b61146c565b61c9d87fa73964399d41f57a5a3db7c8298a2910966b58b0e055a8434dc3dc04c288db1760001b61146c565b60008260800151905061ca0d7f0feec17c55dc35b239f8355cf5b9a88cb958922ec2eab6c5a02873ff57492bcc60001b61146c565b61ca397f3b84e2a4feb015a49f09f26d6c07207d3cd91c81b90a5aa7e326dd0494c6367860001b61146c565b60008360600151905061ca6e7fe2f296d812596862c146926c8a641c57b37e56a6f194aabe63ab8a3f1d89805660001b61146c565b61ca9a7f45de4a9182d25bd6d1930a6268f035ce1d0eebd8d5dc551ecf46c0620b15213860001b61146c565b60008460400151905061cacf7f792d9a359c41c156c27eacdf4f2ab05a24de78e87d04d5c4ad6b547b2727614d60001b61146c565b61cafb7f29e04c9e9ebb9bb946c4c2812a32aff13a30bf02543a9524c6e806dd8b7dc39b60001b61146c565b60008560200151905061cb307fb7e636b156128ddd58b7bd86b76247359a034b006ff4536ff5af4a14f5e7b11260001b61146c565b61cb5c7fdd762ecb587220c5feae3b461e774e05783529f0dd61deec6f1aef644b60eecd60001b61146c565b600061cbdd8360136000886fffffffffffffffffffffffffffffffff166fffffffffffffffffffffffffffffffff1681526020019081526020016000206000876fffffffffffffffffffffffffffffffff166fffffffffffffffffffffffffffffffff16815260200190815260200160002054617d5290919063ffffffff16565b905061cc0b7f5303220bbb0204faf58001834aefc9ba7f26d88b4d3958890d79c1ba6696e6c660001b61146c565b61cc377febb711d5c8203b7b266e054a88fa70b4c8678f1ecf4d02d32ba903a605908bb360001b61146c565b600061cce1633b9aca0060136000896fffffffffffffffffffffffffffffffff166fffffffffffffffffffffffffffffffff168152602001908152602001600020600061cca060018a6fffffffffffffffffffffffffffffffff1661e11a90919063ffffffff16565b6fffffffffffffffffffffffffffffffff166fffffffffffffffffffffffffffffffff1681526020019081526020016000205461ce7e90919063ffffffff16565b905061cd0f7f776b2638fdd13a168380a00ec7dbdca04605f4f8a3a2e72c123b72960c3473de60001b61146c565b61cd3b7f85dfd82b7d2e82a3ff104fcfac323f5231f9d94783ce774f4d3d34814b83660b60001b61146c565b600061cd8e670de0b6b3a764000061cd808661cd7261cd6387896115f290919063ffffffff16565b8f61cdf890919063ffffffff16565b61ce7e90919063ffffffff16565b61ce7e90919063ffffffff16565b905061cdbc7f0aa2a1a5816c376dd7da426d07a95db753b6a0f2b1b6e337a8d01480dcc9366b60001b61146c565b61cde87f316e4975fbc77821a1b77679fe7bf16d8b3881a15b5b35cdab7738257acc614c60001b61146c565b8097505050505050505092915050565b60008083141561ce0b576000905061ce78565b600082840290508284828161ce1c57fe5b041461ce73576040517f08c379a000000000000000000000000000000000000000000000000000000000815260040180806020018281038252602181526020018061e78f6021913960400191505060405180910390fd5b809150505b92915050565b600061cec083836040518060400160405280601a81526020017f536166654d6174683a206469766973696f6e206279207a65726f00000000000081525061e336565b905092915050565b61cef47f35bc9e5e61c1438a006153cf69ffd6105766a3055440d22f6c8ce219146d68af60001b6143c9565b61cf207fe66c045f45b868efda896f2af22ed71637a4e9e8d13a2b1962badf362ba3eeb960001b6143c9565b61cf4c7faaa4b517f253b4fa37cb2875514a22e04e7d5828c244c7095a27e85408ccd12c60001b6143c9565b61cf787f1221da0bd0f16fcbee175d4dae7d6b598e327e79264e77ced4c93a6a0721871b60001b6143c9565b600073ffffffffffffffffffffffffffffffffffffffff168173ffffffffffffffffffffffffffffffffffffffff16141561d01b576040517f08c379a000000000000000000000000000000000000000000000000000000000815260040180806020018281038252601e8152602001807f4163636f756e742063616e6e6f74206265207a65726f2061646472657373000081525060200191505060405180910390fd5b61d0477f09f0dc62d572b9e8dd242a1b7e25c3c5de1610d6c480bec35912dd5840f55fec60001b6143c9565b61d0737fbe74447fdea037b64141768df2430eb2b7113bef949c88d88dcdc549ba88703360001b6143c9565b61d09f7f04e66872d3f4c69728dfe545a06401e1b17e0f9dd5e1d43290514ae4fd92783060001b6143c9565b600061d0cd7f60826eea4af75abd2223d108cb037485a60c485e699a12a42cac24982b89800660001b6143c9565b813b905061d0fd7f7acec79ba6fd0be7bb4b2bfca56ca8eb3d8333d64e828971ccb7647facc3806360001b6143c9565b61d1297f0c7e0405db301404f844860b9fe6e14e956a97134ff8695c88184f1c957d6e0860001b6143c9565b61d1557f1c5a94c5a5d640e17d84bedbf9409c7f8afe563c4b1fceef7bced5961764ee0f60001b6143c9565b6000811161d1cb576040517f08c379a00000000000000000000000000000000000000000000000000000000081526004018080602001828103825260208152602001807f4163636f756e7420636f64652073697a652063616e6e6f74206265207a65726f81525060200191505060405180910390fd5b61d1f77f1023f03b6261b194c29dee3596b0d25a3be14b60910a1d249d0177db54f54c4a60001b6143c9565b5050565b600073ffffffffffffffffffffffffffffffffffffffff16600360009054906101000a900473ffffffffffffffffffffffffffffffffffffffff1673ffffffffffffffffffffffffffffffffffffffff167f8be0079c531659141344cd1fd0a4f28419497f9722a3daafe3b4186f6b6457e060405160405180910390a36000600360006101000a81548173ffffffffffffffffffffffffffffffffffffffff021916908373ffffffffffffffffffffffffffffffffffffffff160217905550565b61d2e87f49cf6fdea811b7275dc767d2c1487b60a409fedbb1eb38a30d0c81eacf6aff3a60001b61146c565b61d3147fe2566f71bad91319d87a2a6105d5de399b61f5554abab3f97fbc9b64e004c17060001b61146c565b61d3407fe83b1758edc16a4e61f6fa3ff43e1f2fe3a605d871d284bb43709c7404c167a860001b61146c565b61d36c7f9fdbbfd08ab33777d7d97cf9ab0e525be204754eecae9786b4f15299b6d823f260001b61146c565b6001600560009054906101000a900473ffffffffffffffffffffffffffffffffffffffff1673ffffffffffffffffffffffffffffffffffffffff166321e37801836040518263ffffffff1660e01b8152600401808273ffffffffffffffffffffffffffffffffffffffff1673ffffffffffffffffffffffffffffffffffffffff16815260200191505060206040518083038186803b15801561d40d57600080fd5b505afa15801561d421573d6000803e3d6000fd5b505050506040513d602081101561d43757600080fd5b81019080805190602001909291905050501461d49e576040517f08c379a000000000000000000000000000000000000000000000000000000000815260040180806020018281038252604681526020018061e6616046913960600191505060405180910390fd5b61d4ca7f81e3b6694a1d48b66be884220bc089aef1ac4274e03c25925fcba4052ee60e2260001b61146c565b50565b61d4f97fe62519da905c9ae69632096426e3470319761526d1111d068462276d4472703960001b61146c565b61d5257f951fdef4c3eece270718cbd901969c884e1430b48f85ca7429e0956846a9e1b760001b61146c565b61d5517f55dfd57883ea62050020ce18763128d39a3b4a1607dc3d0faf4e09aadcb05fa560001b61146c565b600061d55c826129fa565b905061d58a7f0facbae8ab666437863a0db3a552dad7b29f8ef57198d16008801e4e1111553660001b61146c565b61d5b67fa14cee02a2774b6cea46ee259ef3c17f49c8d3c70a2974e621416a38b91ceaf060001b61146c565b61d5e27f506f2bf8c3767763c0d9e943de896e2a364c3bf8b00a7d95f9d569e62bf0e6ea60001b61146c565b6000811161d63b576040517f08c379a000000000000000000000000000000000000000000000000000000000815260040180806020018281038252603181526020018061e7146031913960400191505060405180910390fd5b61d6677ffc8d03f7b87809a3e7d3a034ded0242814b0976decb432039e1a3dbdf087705e60001b61146c565b5050565b600061d6997fd1558f00d0c7add1b828d14ad75feae66f059012ecf4fead9590088d84c551f260001b61e3fc565b61d6c57fb1a11b13163b9a744cdffb3bea7f9824fee5f7defc445083891c20e736f467de60001b61e3fc565b61d6f17f16067a2c39f06aad52eaee41cf51914c7f2f1ce3efca93048235afad5a403fde60001b61e3fc565b61d71d7f6f20f08f738c25cd5a7f299979195b9c273e920bb2f1bba73f324eba0f6b420d60001b61e3fc565b826fffffffffffffffffffffffffffffffff16826fffffffffffffffffffffffffffffffff16111561d79a576040517f08c379a000000000000000000000000000000000000000000000000000000000815260040180806020018281038252602881526020018061e89a6028913960400191505060405180910390fd5b61d7c67fa76f54022170818eb8abc3813e1d05d9fe9984e61015f28503c1e8185b00b03c60001b61e3fc565b61d7f27f0e4a8d0acfff81b28e89ab6ffc4c5432febcca094ef9df8c29b0bdd3339b07d860001b61e3fc565b61d81e7f5faf70fc78a423d16a167eaecff95a4b388994e1fccbfd65d44e01e061eb804b60001b61e3fc565b6000828403905061d8517f1a3a6c3924e0efc235162b75995aa7717516721433032d3a2e492c48f8582b7e60001b61e3fc565b61d87d7f5e89cc174de375f5fbe8535c5dff962c1353aa4a558d439682cf00e37ac8a79260001b61e3fc565b8091505092915050565b61d8b37f3d7f2da2df149f90f4238cb217148cb18ccd0be3947fc80482ea19052909d12060001b61146c565b61d8df7f337e2cbda30150f916fad0718f1a2654d8a2aa72220811233b620bca0d6b628360001b61146c565b61d90b7fb6d4c511497b4af9ad555e41bb3ba1803b7a0bc33c41e64c800737312da23d5b60001b61146c565b6000600a54905061d93e7f2675b7c22a649b2d36ceb4a8dd8aca463ed7ad8e1e50c03c70f3c52de8db009160001b61146c565b61d96a7f933cbefb3c2b05d946ff4e8db720d7dfbbdb65e4a153fba4a849fd7a9e8fb9bb60001b61146c565b600081148061d9795750600082145b1561d9dc5761d9aa7f57b64a6bcdd98668bd31a647554f35c72125d63f38428f03bcb261d5aa45b99e60001b61146c565b61d9d67fdc8fa840a5cfaaa22958579d1bf48a870e3a2bce3a6457d533aa9023204d019b60001b61146c565b5061dec5565b61da087f8db36026d2baa93a888c3efb4aca094c4e3501c90edfea68dd77b6663e8770f560001b61146c565b61da347f2c21402e9c5644e585f574a869838509b06aea90955be1c39270941bee362f1760001b61146c565b61da607fc1c8872512d8aa1e33ae29b0194a58dba112eb38b08b989b7c4277bba7c4ce7e60001b61146c565b600061da8e7fe439183c38aaedf0d9669b0df30cc3a24f2dce49d9c8e7a9e71aca0e1c0ea43b60001b61146c565b61daba7fdb26af504365368313e21592423e35f2dec9431de9d177800c903228f3b866a460001b61146c565b61dac4838361e3ff565b905061daf27f3043b491d140e364f4ea8b4bf3a1b82e7d3985a686e8a38ee87fc9d7a4dff88a60001b61146c565b61db1e7fe6f9ef844ca4e8bab60e0321d853deca6ab31a61617b91bcc8a42dfd0be3520a60001b61146c565b600061db356010548361cdf890919063ffffffff16565b905061db637f2b903d97a717435334bef4ab3a0d7c019a7a30ed62e8f028179fb857ad3590b760001b61146c565b61db8f7f7169b74c2f1a9724a6419dfc4546413b25a73851501479b04cc2b378bd90f44960001b61146c565b61dc4a8160136000601160109054906101000a90046fffffffffffffffffffffffffffffffff166fffffffffffffffffffffffffffffffff166fffffffffffffffffffffffffffffffff1681526020019081526020016000206000601160009054906101000a90046fffffffffffffffffffffffffffffffff166fffffffffffffffffffffffffffffffff166fffffffffffffffffffffffffffffffff168152602001908152602001600020546115f290919063ffffffff16565b60136000601160109054906101000a90046fffffffffffffffffffffffffffffffff166fffffffffffffffffffffffffffffffff166fffffffffffffffffffffffffffffffff1681526020019081526020016000206000601160009054906101000a90046fffffffffffffffffffffffffffffffff166fffffffffffffffffffffffffffffffff166fffffffffffffffffffffffffffffffff1681526020019081526020016000208190555061dd227fb1d0b6682ddc2d8c2e607281a61999f98ebc75dac6d66c8e1fe5487ef58b076a60001b61146c565b61dd4e7fc680f98fa26ccd73febb372306917f4416af32b086d78f00a153a47f3a9a793960001b61146c565b7f2d6127771b164a9cc8827d24b5955db2a77e7a81dac389107ebb8bce9fb6496860136000601160109054906101000a90046fffffffffffffffffffffffffffffffff166fffffffffffffffffffffffffffffffff166fffffffffffffffffffffffffffffffff1681526020019081526020016000206000601160009054906101000a90046fffffffffffffffffffffffffffffffff166fffffffffffffffffffffffffffffffff166fffffffffffffffffffffffffffffffff16815260200190815260200160002054601160109054906101000a90046fffffffffffffffffffffffffffffffff16601160009054906101000a90046fffffffffffffffffffffffffffffffff1660405180848152602001836fffffffffffffffffffffffffffffffff166fffffffffffffffffffffffffffffffff168152602001826fffffffffffffffffffffffffffffffff166fffffffffffffffffffffffffffffffff168152602001935050505060405180910390a15050505b50565b50565b600083831115829061df78576040517f08c379a00000000000000000000000000000000000000000000000000000000081526004018080602001828103825283818151815260200191508051906020019080838360005b8381101561df3d57808201518184015260208101905061df22565b50505050905090810190601f16801561df6a5780820380516001836020036101000a031916815260200191505b509250505060405180910390fd5b5060008385039050809150509392505050565b61dfb77f2dc362608f3b24921aba7fae3d5723d48f9ac596dc9048ae62e012725bddfdd060001b61146c565b61dfe37fdfe8a15af4d9fc26eb73e66eb9f7b39dd5ffbfea4f61bc04b9704ba1fc7c759d60001b61146c565b61e00f7fabd7e0273fa4dd50cb0f3fc251719f35b32a835309a4e024c17cdca1da7748fe60001b61146c565b600061e02682600a54617d5290919063ffffffff16565b905061e0547f08d208bb6087bee2f0abf4389cf29075e0520333977612aaa01df88adf513ae160001b61146c565b61e0807fc129ee582a586a2c876bbd417ec56083ca4cb0c69099706039de3a32a686015d60001b61146c565b80600a8190555061e0b37f5f1206bd3e74e8ddc701edfe8f7fbe4b734b4b99624b30de82b5e41d2b7d351560001b61146c565b61e0df7f3d0acbcc4536a0614ad42ee3c3e5ea8d5f366c3398f61e843b0e8acafdca701160001b61146c565b7fa8e886449d8f7e765877b4a4f54632da3943ae454d5a272bdccb1781f086ff29816040518082815260200191505060405180910390a15050565b600061e1487fc79b0446ce7ccff9de7573151f1c103a77650ad06fbb77bd704c35bd83028da760001b61e3fc565b61e1747f325e244f2e3836094c3bf63f01fed65a8896f3541a60319057ed71ca8b8e3bdf60001b61e3fc565b61e1a07f3bdb32b4304aae8c17e963c34b71958c0de0f60501a4ddd9fe2a5d43c26dab5060001b61e3fc565b6000828401905061e1d37f48f800860753c76c74916d4343b1ed5c1fa5c1ade6a71f0ac671cacb4fc6e63a60001b61e3fc565b61e1ff7fd357195569bb3d0a33dd6b2b36de137ed8cc1e152c0e030621454ca1c57c152560001b61e3fc565b61e22b7fb7599615ec8817cd39f26666876f381a421e24d69f82a3f722bb61b1dd549f7460001b61e3fc565b836fffffffffffffffffffffffffffffffff16816fffffffffffffffffffffffffffffffff16101561e2a8576040517f08c379a000000000000000000000000000000000000000000000000000000000815260040180806020018281038252602581526020018061e8c26025913960400191505060405180910390fd5b61e2d47f7b750076a770c8c57ed3b275549963366fc54602f86b01891cf0b173746d3d4460001b61e3fc565b61e3007f23e22f70fb6678147e9fbc5fa58bbe5500df721cb396c81f0311a21ea7a7c1d960001b61e3fc565b61e32c7fc143efa27917bfca3c2125e7779cc14a540eda68842a2142677f1fef583caf7c60001b61e3fc565b8091505092915050565b6000808311829061e3e2576040517f08c379a00000000000000000000000000000000000000000000000000000000081526004018080602001828103825283818151815260200191508051906020019080838360005b8381101561e3a757808201518184015260208101905061e38c565b50505050905090810190601f16801561e3d45780820380516001836020036101000a031916815260200191505b509250505060405180910390fd5b50600083858161e3ee57fe5b049050809150509392505050565b50565b600061e42d7f44cccee253dd7547ccb391e5dcb6c476c087116f5240c70e7510e3d0573c509c60001b61146c565b61e4597fdb6b7e68386b860eede94e08dc0b93562d573943d25091d67908adce793440ba60001b61146c565b61e4857f06dc8a3162780e4be6eb40f746d223e96683db89b32b77c933f63f6675a8028560001b61146c565b600061e4b660145461e4a8670de0b6b3a76400008761cdf890919063ffffffff16565b6115f290919063ffffffff16565b905061e4e47f20da34dbcaa5a3365bb5a712d11648b4a777af0a5fb0175b147b5dd0102c3bbb60001b61146c565b61e5107fdbce7115e5c8eabbe76e321f16cfd91a7f9c9c77b9492c694043f106cd8fee6660001b61146c565b600061e525848361ce7e90919063ffffffff16565b905061e5537f579728fca7a1d201d580f0f804ba716fadeb296c64cee032b8dc49e38208431260001b61146c565b61e57f7f68ed7f2cc9bde78f4a1c2ac3588682464f354ff89e84ef8e8b795a18270ff05060001b61146c565b61e5a461e595858361cdf890919063ffffffff16565b83617d5290919063ffffffff16565b60148190555061e5d67f3e07f87f487a21ee238c848aa5aa0e42ae562829e685ac01bbb3626ba4f8d4c160001b61146c565b61e6027f527af6b203e321e9b440cf1f336f00a4aaec0664674d44942f6cecaacf04759860001b61146c565b809250505092915050565b6040518060a0016040528060008152602001600081526020016000815260200160006fffffffffffffffffffffffffffffffff16815260200160006fffffffffffffffffffffffffffffffff168152509056fe53746162696c697479506f6f6c3a2063616c6c6572206d757374206861766520616e206163746976652074726f766520746f207769746864726177204554484761696e20746f53746162696c697479506f6f6c3a20546167206d757374206265206120726567697374657265642066726f6e7420656e642c206f7220746865207a65726f206164647265737353746162696c697479506f6f6c3a2043616c6c6572206973206e6f7420416374697665506f6f6c53746162696c697479506f6f6c3a2063616c6c6572206d7573742068617665206e6f6e2d7a65726f20455448204761696e53746162696c697479506f6f6c3a2043616c6c6572206973206e6f742054726f76654d616e6167657253746162696c697479506f6f6c3a2073656e64696e6720455448206661696c6564536166654d6174683a206d756c7469706c69636174696f6e206f766572666c6f7753746162696c697479506f6f6c3a204b69636b6261636b2072617465206d75737420626520696e2072616e6765205b302c315d53746162696c697479506f6f6c3a20416d6f756e74206d757374206265206e6f6e2d7a65726f53746162696c697479506f6f6c3a206d757374206e6f7420616c7265616479206265206120726567697374657265642066726f6e7420656e6453746162696c697479506f6f6c3a2055736572206d7573742068617665206e6f206465706f73697453746162696c697479506f6f6c3a2055736572206d75737420686176652061206e6f6e2d7a65726f206465706f7369744c697175697479536166654d6174683132383a207375627472616374696f6e206f766572666c6f774c697175697479536166654d6174683132383a206164646974696f6e206f766572666c6f7753746162696c697479506f6f6c3a2043616e6e6f74207769746864726177207768696c65207468657265206172652074726f766573207769746820494352203c204d4352a264697066735822122019f1f867b0a5ec0d61a0c8773f92f45a47b7807d2ab8cbf2579e3c6da5fd697264736f6c634300060b0033",
  "linkReferences": {},
  "deployedLinkReferences": {}
}