{
  "_format": "hh-sol-artifact-1",
  "contractName": "TellorCaller",
  "sourceName": "contracts/Dependencies/TellorCaller.sol",
  "abi": [
    {
      "inputs": [
        {
          "internalType": "address",
          "name": "_tellorMasterAddress",
          "type": "address"
        }
      ],
      "stateMutability": "nonpayable",
      "type": "constructor"
    },
    {
      "inputs": [
        {
          "internalType": "bytes32",
          "name": "c__0xd15ec097",
          "type": "bytes32"
        }
      ],
      "name": "c_0xd15ec097",
      "outputs": [],
      "stateMutability": "pure",
      "type": "function"
    },
    {
      "inputs": [
        {
          "internalType": "uint256",
          "name": "_requestId",
          "type": "uint256"
        }
      ],
      "name": "getTellorCurrentValue",
      "outputs": [
        {
          "internalType": "bool",
          "name": "ifRetrieve",
          "type": "bool"
        },
        {
          "internalType": "uint256",
          "name": "value",
          "type": "uint256"
        },
        {
          "internalType": "uint256",
          "name": "_timestampRetrieved",
          "type": "uint256"
        }
      ],
      "stateMutability": "view",
      "type": "function"
    },
    {
      "inputs": [],
      "name": "tellor",
      "outputs": [
        {
          "internalType": "contract ITellor",
          "name": "",
          "type": "address"
        }
      ],
      "stateMutability": "view",
      "type": "function"
    }
  ],
  "bytecode": "0x608060405234801561001057600080fd5b506040516108823803806108828339818101604052602081101561003357600080fd5b81019080805190602001909291905050506100767f9f0ec92cf30082f72d306a400ade22f6993e5aa42027cc85bd41d26a459dbcf260001b61012060201b60201c565b6100a87f89973527b9a62846f4e8b56079c77fd116430eb7f9d43effb3785654c277fa9a60001b61012060201b60201c565b6100da7f83ba616c644146987eb907925f6f4910f14305f2f52a71e59195da1b75361adb60001b61012060201b60201c565b806000806101000a81548173ffffffffffffffffffffffffffffffffffffffff021916908373ffffffffffffffffffffffffffffffffffffffff16021790555050610123565b50565b610750806101326000396000f3fe608060405234801561001057600080fd5b50600436106100415760003560e01c806314c843b9146100465780631959ad5b1461007457806332e6aadb146100be575b600080fd5b6100726004803603602081101561005c57600080fd5b8101908080359060200190929190505050610112565b005b61007c610115565b604051808273ffffffffffffffffffffffffffffffffffffffff1673ffffffffffffffffffffffffffffffffffffffff16815260200191505060405180910390f35b6100ea600480360360208110156100d457600080fd5b810190808035906020019092919050505061013a565b6040518084151515158152602001838152602001828152602001935050505060405180910390f35b50565b6000809054906101000a900473ffffffffffffffffffffffffffffffffffffffff1681565b600080600061016b7f27ce64f6f5d234d82d539660fd6366276d5803cdea17a9c61aa506821daff5c460001b610112565b6101977f39f9199ccbecbcb815a2a1f0303d95f7009c4b92633417183322f41e48de749b60001b610112565b6101c37fdd3544fa17329655768543795aaed7f06259e88516ce13c7d5948e1d7e93e48c60001b610112565b60008060009054906101000a900473ffffffffffffffffffffffffffffffffffffffff1673ffffffffffffffffffffffffffffffffffffffff166346eee1c4866040518263ffffffff1660e01b81526004018082815260200191505060206040518083038186803b15801561023757600080fd5b505afa15801561024b573d6000803e3d6000fd5b505050506040513d602081101561026157600080fd5b810190808051906020019092919050505090506102a07ffa7e3a65388e810a6d40bb7bf572921c02d788be6bb2d950c0464683155d5ce060001b610112565b6102cc7f96deb9762afb60a5db082e19c6cd8157e43947d4139e54f95b722c71f877f34e60001b610112565b60008060009054906101000a900473ffffffffffffffffffffffffffffffffffffffff1673ffffffffffffffffffffffffffffffffffffffff166377fbb6638761032060018661061090919063ffffffff16565b6040518363ffffffff1660e01b8152600401808381526020018281526020019250505060206040518083038186803b15801561035b57600080fd5b505afa15801561036f573d6000803e3d6000fd5b505050506040513d602081101561038557600080fd5b810190808051906020019092919050505090506103c47f7be3ed6a07c78268dcc662ea83c141ca185a380751c044e9445bf8addf59fcd060001b610112565b6103f07fea40e761c6af3037b8c2cb1a30f3af321598024870573cd5af6c9555dc5d000660001b610112565b60008060009054906101000a900473ffffffffffffffffffffffffffffffffffffffff1673ffffffffffffffffffffffffffffffffffffffff166393fa491588846040518363ffffffff1660e01b8152600401808381526020018281526020019250505060206040518083038186803b15801561046c57600080fd5b505afa158015610480573d6000803e3d6000fd5b505050506040513d602081101561049657600080fd5b810190808051906020019092919050505090506104d57fdbc9f39dd58bc8f9b5fd5464c0ff2b37acef44eb45f054b616db23411bdcf62260001b610112565b6105017f6bc46d003061bf7c89a71aa4883aa3cef2059ac145ef519c15b949750622016960001b610112565b6000811115610574576105367fb194763e271bda2b310c051d5d8110a8db4eba3f70c189265b428cb0c30cd71360001b610112565b6105627f6a17a1be967995539eef1d13c88029202cd8185ec5afc5ecf4a4f1c3f8d09d4360001b610112565b60018183955095509550505050610609565b6105a07f9b77d1024f11e4c57d8de31c44b072f61698524b49f721dafefebdd6291f628260001b610112565b6105cc7f1a21b690a03c208420c6c7a68bb41a7e84cf76f115036902bd7cb2c863d48c8860001b610112565b6105f87f38f2f50197a8a1f4b6bc113e7ea70dce59ff6f625a2c19d3ccfbdf694026cd4460001b610112565b600080838191509550955095505050505b9193909250565b600061065283836040518060400160405280601e81526020017f536166654d6174683a207375627472616374696f6e206f766572666c6f77000081525061065a565b905092915050565b6000838311158290610707576040517f08c379a00000000000000000000000000000000000000000000000000000000081526004018080602001828103825283818151815260200191508051906020019080838360005b838110156106cc5780820151818401526020810190506106b1565b50505050905090810190601f1680156106f95780820380516001836020036101000a031916815260200191505b509250505060405180910390fd5b506000838503905080915050939250505056fea26469706673582212206db4402249f1d016f7df0d1557741dfb3b79850d466dc8428fabf21442253fb564736f6c634300060b0033",
  "linkReferences": {},
  "deployedLinkReferences": {}
}