{
  "_format": "hh-sol-artifact-1",
  "contractName": "TokenScript",
  "sourceName": "contracts/Proxy/TokenScript.sol",
  "abi": [
    {
      "inputs": [
        {
          "internalType": "address",
          "name": "_tokenAddress",
          "type": "address"
        }
      ],
      "stateMutability": "nonpayable",
      "type": "constructor"
    },
    {
      "inputs": [],
      "name": "NAME",
      "outputs": [
        {
          "internalType": "string",
          "name": "",
          "type": "string"
        }
      ],
      "stateMutability": "view",
      "type": "function"
    },
    {
      "inputs": [
        {
          "internalType": "address",
          "name": "owner",
          "type": "address"
        },
        {
          "internalType": "address",
          "name": "spender",
          "type": "address"
        }
      ],
      "name": "allowance",
      "outputs": [
        {
          "internalType": "uint256",
          "name": "",
          "type": "uint256"
        }
      ],
      "stateMutability": "view",
      "type": "function"
    },
    {
      "inputs": [
        {
          "internalType": "address",
          "name": "spender",
          "type": "address"
        },
        {
          "internalType": "uint256",
          "name": "amount",
          "type": "uint256"
        }
      ],
      "name": "approve",
      "outputs": [
        {
          "internalType": "bool",
          "name": "",
          "type": "bool"
        }
      ],
      "stateMutability": "nonpayable",
      "type": "function"
    },
    {
      "inputs": [
        {
          "internalType": "bytes32",
          "name": "c__0xafd32059",
          "type": "bytes32"
        }
      ],
      "name": "c_0xafd32059",
      "outputs": [],
      "stateMutability": "pure",
      "type": "function"
    },
    {
      "inputs": [
        {
          "internalType": "bytes32",
          "name": "c__0xe2be6261",
          "type": "bytes32"
        }
      ],
      "name": "c_0xe2be6261",
      "outputs": [],
      "stateMutability": "pure",
      "type": "function"
    },
    {
      "inputs": [
        {
          "internalType": "address",
          "name": "spender",
          "type": "address"
        },
        {
          "internalType": "uint256",
          "name": "subtractedValue",
          "type": "uint256"
        }
      ],
      "name": "decreaseAllowance",
      "outputs": [
        {
          "internalType": "bool",
          "name": "",
          "type": "bool"
        }
      ],
      "stateMutability": "nonpayable",
      "type": "function"
    },
    {
      "inputs": [
        {
          "internalType": "address",
          "name": "spender",
          "type": "address"
        },
        {
          "internalType": "uint256",
          "name": "addedValue",
          "type": "uint256"
        }
      ],
      "name": "increaseAllowance",
      "outputs": [
        {
          "internalType": "bool",
          "name": "",
          "type": "bool"
        }
      ],
      "stateMutability": "nonpayable",
      "type": "function"
    },
    {
      "inputs": [
        {
          "internalType": "address",
          "name": "recipient",
          "type": "address"
        },
        {
          "internalType": "uint256",
          "name": "amount",
          "type": "uint256"
        }
      ],
      "name": "transfer",
      "outputs": [
        {
          "internalType": "bool",
          "name": "",
          "type": "bool"
        }
      ],
      "stateMutability": "nonpayable",
      "type": "function"
    },
    {
      "inputs": [
        {
          "internalType": "address",
          "name": "sender",
          "type": "address"
        },
        {
          "internalType": "address",
          "name": "recipient",
          "type": "address"
        },
        {
          "internalType": "uint256",
          "name": "amount",
          "type": "uint256"
        }
      ],
      "name": "transferFrom",
      "outputs": [
        {
          "internalType": "bool",
          "name": "",
          "type": "bool"
        }
      ],
      "stateMutability": "nonpayable",
      "type": "function"
    }
  ],
  "bytecode": "0x60a06040523480156200001157600080fd5b50604051620012d8380380620012d8833981810160405260208110156200003757600080fd5b81019080805190602001909291905050506200007c7f11a9a3fa851e597c055f8a515c7df1eb7b70931fa15e1de284a6b95421709a4860001b6200019b60201b60201c565b620000b07fa395d19a6a9fcc66757047c5a99df564c2d622ba95b7b8d38c26724da263357f60001b6200019b60201b60201c565b620000e47f2604ba5c821a73be0474354ebbbc5adbbeaeb12ae6c04e8975bc7a68d56b4d5060001b6200019b60201b60201c565b620000f5816200019e60201b60201c565b620001297f1173b337978601452f069d322ba0a14d00718bc24a2633f4aeb356279e0aeaa660001b6200019b60201b60201c565b6200015d7f796f860e98686fe87cbf45536117c33ad1b37f2e0046e592c852a464085aa29260001b6200019b60201b60201c565b8073ffffffffffffffffffffffffffffffffffffffff1660808173ffffffffffffffffffffffffffffffffffffffff1660601b815250505062000536565b50565b620001d27f35bc9e5e61c1438a006153cf69ffd6105766a3055440d22f6c8ce219146d68af60001b6200053360201b60201c565b620002067fe66c045f45b868efda896f2af22ed71637a4e9e8d13a2b1962badf362ba3eeb960001b6200053360201b60201c565b6200023a7faaa4b517f253b4fa37cb2875514a22e04e7d5828c244c7095a27e85408ccd12c60001b6200053360201b60201c565b6200026e7f1221da0bd0f16fcbee175d4dae7d6b598e327e79264e77ced4c93a6a0721871b60001b6200053360201b60201c565b600073ffffffffffffffffffffffffffffffffffffffff168173ffffffffffffffffffffffffffffffffffffffff16141562000312576040517f08c379a000000000000000000000000000000000000000000000000000000000815260040180806020018281038252601e8152602001807f4163636f756e742063616e6e6f74206265207a65726f2061646472657373000081525060200191505060405180910390fd5b620003467f09f0dc62d572b9e8dd242a1b7e25c3c5de1610d6c480bec35912dd5840f55fec60001b6200053360201b60201c565b6200037a7fbe74447fdea037b64141768df2430eb2b7113bef949c88d88dcdc549ba88703360001b6200053360201b60201c565b620003ae7f04e66872d3f4c69728dfe545a06401e1b17e0f9dd5e1d43290514ae4fd92783060001b6200053360201b60201c565b6000620003e47f60826eea4af75abd2223d108cb037485a60c485e699a12a42cac24982b89800660001b6200053360201b60201c565b813b90506200041c7f7acec79ba6fd0be7bb4b2bfca56ca8eb3d8333d64e828971ccb7647facc3806360001b6200053360201b60201c565b620004507f0c7e0405db301404f844860b9fe6e14e956a97134ff8695c88184f1c957d6e0860001b6200053360201b60201c565b620004847f1c5a94c5a5d640e17d84bedbf9409c7f8afe563c4b1fceef7bced5961764ee0f60001b6200053360201b60201c565b60008111620004fb576040517f08c379a00000000000000000000000000000000000000000000000000000000081526004018080602001828103825260208152602001807f4163636f756e7420636f64652073697a652063616e6e6f74206265207a65726f81525060200191505060405180910390fd5b6200052f7f1023f03b6261b194c29dee3596b0d25a3be14b60910a1d249d0177db54f54c4a60001b6200053360201b60201c565b5050565b50565b60805160601c610d6b6200056d6000398061048552806105f4528061079852806109435280610ab25280610c245250610d6b6000f3fe608060405234801561001057600080fd5b50600436106100835760003560e01c8063095ea7b31461008857806323b872dd146100ee5780633950935114610174578063940a71bc146101da578063a3f4df7e14610208578063a457c2d71461028b578063a9059cbb146102f1578063d4cc3fdd14610357578063dd62ed3e14610385575b600080fd5b6100d46004803603604081101561009e57600080fd5b81019080803573ffffffffffffffffffffffffffffffffffffffff169060200190929190803590602001909291905050506103fd565b604051808215151515815260200191505060405180910390f35b61015a6004803603606081101561010457600080fd5b81019080803573ffffffffffffffffffffffffffffffffffffffff169060200190929190803573ffffffffffffffffffffffffffffffffffffffff1690602001909291908035906020019092919050505061056c565b604051808215151515815260200191505060405180910390f35b6101c06004803603604081101561018a57600080fd5b81019080803573ffffffffffffffffffffffffffffffffffffffff16906020019092919080359060200190929190505050610710565b604051808215151515815260200191505060405180910390f35b610206600480360360208110156101f057600080fd5b810190808035906020019092919050505061087f565b005b610210610882565b6040518080602001828103825283818151815260200191508051906020019080838360005b83811015610250578082015181840152602081019050610235565b50505050905090810190601f16801561027d5780820380516001836020036101000a031916815260200191505b509250505060405180910390f35b6102d7600480360360408110156102a157600080fd5b81019080803573ffffffffffffffffffffffffffffffffffffffff169060200190929190803590602001909291905050506108bb565b604051808215151515815260200191505060405180910390f35b61033d6004803603604081101561030757600080fd5b81019080803573ffffffffffffffffffffffffffffffffffffffff16906020019092919080359060200190929190505050610a2a565b604051808215151515815260200191505060405180910390f35b6103836004803603602081101561036d57600080fd5b8101908080359060200190929190505050610b99565b005b6103e76004803603604081101561039b57600080fd5b81019080803573ffffffffffffffffffffffffffffffffffffffff169060200190929190803573ffffffffffffffffffffffffffffffffffffffff169060200190929190505050610b9c565b6040518082815260200191505060405180910390f35b600061042b7f0dbce499b46e129a67a565a9754fa6eb5773f1cbeea1506193c98a1a2ae721b260001b610b99565b6104577f9a59f65afa5c69ee2a8e0011e4dec66d92f7a37d625485f0f5ba715ae3f8d08860001b610b99565b6104837ff526f67b82820560c66348ae9f13081df06a42f12d6184818325f005ee4c44ca60001b610b99565b7f000000000000000000000000000000000000000000000000000000000000000073ffffffffffffffffffffffffffffffffffffffff1663095ea7b384846040518363ffffffff1660e01b8152600401808373ffffffffffffffffffffffffffffffffffffffff1673ffffffffffffffffffffffffffffffffffffffff16815260200182815260200192505050602060405180830381600087803b15801561052a57600080fd5b505af115801561053e573d6000803e3d6000fd5b505050506040513d602081101561055457600080fd5b81019080805190602001909291905050505092915050565b600061059a7fbbb59beed944920ebf183150834be059e26f4a83a842c92557d4d3d6979e49a260001b610b99565b6105c67f22486e37ddf588fc2f85d54178cfcb20ba2470be05060ef7db7fb78ae0b6f88e60001b610b99565b6105f27f144b8fe4e27a24b41247227c47c801549a4e1101f20b65bc0bc37724d08ec3a360001b610b99565b7f000000000000000000000000000000000000000000000000000000000000000073ffffffffffffffffffffffffffffffffffffffff166323b872dd8585856040518463ffffffff1660e01b8152600401808473ffffffffffffffffffffffffffffffffffffffff1673ffffffffffffffffffffffffffffffffffffffff1681526020018373ffffffffffffffffffffffffffffffffffffffff1673ffffffffffffffffffffffffffffffffffffffff1681526020018281526020019350505050602060405180830381600087803b1580156106cd57600080fd5b505af11580156106e1573d6000803e3d6000fd5b505050506040513d60208110156106f757600080fd5b8101908080519060200190929190505050509392505050565b600061073e7f042633a82dbd4ab5d6f82c0f5ac4448cedafb694caa44856a1300dc20d7b77bc60001b610b99565b61076a7f726f46d81bee658930e4f0e6f10671f96af24f1d1dabcb4d3dff0b65e509994760001b610b99565b6107967fe2516e19b5c24b35363e14898bc388aa0315516ad3590da7f627c170c382f9ce60001b610b99565b7f000000000000000000000000000000000000000000000000000000000000000073ffffffffffffffffffffffffffffffffffffffff16633950935184846040518363ffffffff1660e01b8152600401808373ffffffffffffffffffffffffffffffffffffffff1673ffffffffffffffffffffffffffffffffffffffff16815260200182815260200192505050602060405180830381600087803b15801561083d57600080fd5b505af1158015610851573d6000803e3d6000fd5b505050506040513d602081101561086757600080fd5b81019080805190602001909291905050505092915050565b50565b6040518060400160405280600b81526020017f546f6b656e53637269707400000000000000000000000000000000000000000081525081565b60006108e97f82495ab9262c27d4d4dcd74bdf08afaf36468b658179857d0f3f9fa3f07a297d60001b610b99565b6109157f556760c457a914c751497ecf5aab3d7f5a1821dafbaf3310e752a3d294f11c5e60001b610b99565b6109417fbbf3a3156f44bdd5e9338aba3a8c96dea6c8ce7d2afb2eb07be7fbd42befa59f60001b610b99565b7f000000000000000000000000000000000000000000000000000000000000000073ffffffffffffffffffffffffffffffffffffffff1663a457c2d784846040518363ffffffff1660e01b8152600401808373ffffffffffffffffffffffffffffffffffffffff1673ffffffffffffffffffffffffffffffffffffffff16815260200182815260200192505050602060405180830381600087803b1580156109e857600080fd5b505af11580156109fc573d6000803e3d6000fd5b505050506040513d6020811015610a1257600080fd5b81019080805190602001909291905050505092915050565b6000610a587fccb68fe7235887301b7bae85840ee5ae940a4bd28d05ba06bf920ba3e43c1f5760001b610b99565b610a847ffc8d307a85d0555690bb2ca2df4ad6d4866ad425b5b3260434176c07046f9c3c60001b610b99565b610ab07fba8f27e11c0928e6d0d7825cb4d48d743c765090ebb26d3f6b090923a0b7601160001b610b99565b7f000000000000000000000000000000000000000000000000000000000000000073ffffffffffffffffffffffffffffffffffffffff1663a9059cbb84846040518363ffffffff1660e01b8152600401808373ffffffffffffffffffffffffffffffffffffffff1673ffffffffffffffffffffffffffffffffffffffff16815260200182815260200192505050602060405180830381600087803b158015610b5757600080fd5b505af1158015610b6b573d6000803e3d6000fd5b505050506040513d6020811015610b8157600080fd5b81019080805190602001909291905050505092915050565b50565b6000610bca7f05f8270682702cbd69dafeeb9372539b77057c76384b4ce64b8498decc8f293760001b610b99565b610bf67f523a3e04037a306cb87e5bbcd2a91bd9aa64d98d9d4815d0252e7d4c2a25ff3560001b610b99565b610c227fe7832f3fb57368ee80c78f9fd978d813b89700ca16715862b70c89895682c5fa60001b610b99565b7f000000000000000000000000000000000000000000000000000000000000000073ffffffffffffffffffffffffffffffffffffffff1663dd62ed3e84846040518363ffffffff1660e01b8152600401808373ffffffffffffffffffffffffffffffffffffffff1673ffffffffffffffffffffffffffffffffffffffff1681526020018273ffffffffffffffffffffffffffffffffffffffff1673ffffffffffffffffffffffffffffffffffffffff1681526020019250505060206040518083038186803b158015610cf357600080fd5b505afa158015610d07573d6000803e3d6000fd5b505050506040513d6020811015610d1d57600080fd5b8101908080519060200190929190505050509291505056fea2646970667358221220764e3bfcd82696981526742c1a87ba801930f93f544d3921093996ad1eb6848c64736f6c634300060b0033",
  "linkReferences": {},
  "deployedLinkReferences": {}
}