{
  "_format": "hh-sol-artifact-1",
  "contractName": "TroveManagerTester",
  "sourceName": "contracts/TestContracts/CDPManagerTester.sol",
  "abi": [
    {
      "anonymous": false,
      "inputs": [
        {
          "indexed": false,
          "internalType": "address",
          "name": "_activePoolAddress",
          "type": "address"
        }
      ],
      "name": "ActivePoolAddressChanged",
      "type": "event"
    },
    {
      "anonymous": false,
      "inputs": [
        {
          "indexed": false,
          "internalType": "uint256",
          "name": "_baseRate",
          "type": "uint256"
        }
      ],
      "name": "BaseRateUpdated",
      "type": "event"
    },
    {
      "anonymous": false,
      "inputs": [
        {
          "indexed": false,
          "internalType": "address",
          "name": "_newBorrowerOperationsAddress",
          "type": "address"
        }
      ],
      "name": "BorrowerOperationsAddressChanged",
      "type": "event"
    },
    {
      "anonymous": false,
      "inputs": [
        {
          "indexed": false,
          "internalType": "address",
          "name": "_collSurplusPoolAddress",
          "type": "address"
        }
      ],
      "name": "CollSurplusPoolAddressChanged",
      "type": "event"
    },
    {
      "anonymous": false,
      "inputs": [
        {
          "indexed": false,
          "internalType": "address",
          "name": "_defaultPoolAddress",
          "type": "address"
        }
      ],
      "name": "DefaultPoolAddressChanged",
      "type": "event"
    },
    {
      "anonymous": false,
      "inputs": [
        {
          "indexed": false,
          "internalType": "address",
          "name": "_gasPoolAddress",
          "type": "address"
        }
      ],
      "name": "GasPoolAddressChanged",
      "type": "event"
    },
    {
      "anonymous": false,
      "inputs": [
        {
          "indexed": false,
          "internalType": "address",
          "name": "_lqtyStakingAddress",
          "type": "address"
        }
      ],
      "name": "LQTYStakingAddressChanged",
      "type": "event"
    },
    {
      "anonymous": false,
      "inputs": [
        {
          "indexed": false,
          "internalType": "address",
          "name": "_lqtyTokenAddress",
          "type": "address"
        }
      ],
      "name": "LQTYTokenAddressChanged",
      "type": "event"
    },
    {
      "anonymous": false,
      "inputs": [
        {
          "indexed": false,
          "internalType": "uint256",
          "name": "_L_ETH",
          "type": "uint256"
        },
        {
          "indexed": false,
          "internalType": "uint256",
          "name": "_L_LUSDDebt",
          "type": "uint256"
        }
      ],
      "name": "LTermsUpdated",
      "type": "event"
    },
    {
      "anonymous": false,
      "inputs": [
        {
          "indexed": false,
          "internalType": "address",
          "name": "_newLUSDTokenAddress",
          "type": "address"
        }
      ],
      "name": "LUSDTokenAddressChanged",
      "type": "event"
    },
    {
      "anonymous": false,
      "inputs": [
        {
          "indexed": false,
          "internalType": "uint256",
          "name": "_lastFeeOpTime",
          "type": "uint256"
        }
      ],
      "name": "LastFeeOpTimeUpdated",
      "type": "event"
    },
    {
      "anonymous": false,
      "inputs": [
        {
          "indexed": false,
          "internalType": "uint256",
          "name": "_liquidatedDebt",
          "type": "uint256"
        },
        {
          "indexed": false,
          "internalType": "uint256",
          "name": "_liquidatedColl",
          "type": "uint256"
        },
        {
          "indexed": false,
          "internalType": "uint256",
          "name": "_collGasCompensation",
          "type": "uint256"
        },
        {
          "indexed": false,
          "internalType": "uint256",
          "name": "_LUSDGasCompensation",
          "type": "uint256"
        }
      ],
      "name": "Liquidation",
      "type": "event"
    },
    {
      "anonymous": false,
      "inputs": [
        {
          "indexed": true,
          "internalType": "address",
          "name": "previousOwner",
          "type": "address"
        },
        {
          "indexed": true,
          "internalType": "address",
          "name": "newOwner",
          "type": "address"
        }
      ],
      "name": "OwnershipTransferred",
      "type": "event"
    },
    {
      "anonymous": false,
      "inputs": [
        {
          "indexed": false,
          "internalType": "address",
          "name": "_newPriceFeedAddress",
          "type": "address"
        }
      ],
      "name": "PriceFeedAddressChanged",
      "type": "event"
    },
    {
      "anonymous": false,
      "inputs": [
        {
          "indexed": false,
          "internalType": "uint256",
          "name": "_attemptedLUSDAmount",
          "type": "uint256"
        },
        {
          "indexed": false,
          "internalType": "uint256",
          "name": "_actualLUSDAmount",
          "type": "uint256"
        },
        {
          "indexed": false,
          "internalType": "uint256",
          "name": "_ETHSent",
          "type": "uint256"
        },
        {
          "indexed": false,
          "internalType": "uint256",
          "name": "_ETHFee",
          "type": "uint256"
        }
      ],
      "name": "Redemption",
      "type": "event"
    },
    {
      "anonymous": false,
      "inputs": [
        {
          "indexed": false,
          "internalType": "address",
          "name": "_sortedTrovesAddress",
          "type": "address"
        }
      ],
      "name": "SortedTrovesAddressChanged",
      "type": "event"
    },
    {
      "anonymous": false,
      "inputs": [
        {
          "indexed": false,
          "internalType": "address",
          "name": "_stabilityPoolAddress",
          "type": "address"
        }
      ],
      "name": "StabilityPoolAddressChanged",
      "type": "event"
    },
    {
      "anonymous": false,
      "inputs": [
        {
          "indexed": false,
          "internalType": "uint256",
          "name": "_totalStakesSnapshot",
          "type": "uint256"
        },
        {
          "indexed": false,
          "internalType": "uint256",
          "name": "_totalCollateralSnapshot",
          "type": "uint256"
        }
      ],
      "name": "SystemSnapshotsUpdated",
      "type": "event"
    },
    {
      "anonymous": false,
      "inputs": [
        {
          "indexed": false,
          "internalType": "uint256",
          "name": "_newTotalStakes",
          "type": "uint256"
        }
      ],
      "name": "TotalStakesUpdated",
      "type": "event"
    },
    {
      "anonymous": false,
      "inputs": [
        {
          "indexed": false,
          "internalType": "address",
          "name": "_borrower",
          "type": "address"
        },
        {
          "indexed": false,
          "internalType": "uint256",
          "name": "_newIndex",
          "type": "uint256"
        }
      ],
      "name": "TroveIndexUpdated",
      "type": "event"
    },
    {
      "anonymous": false,
      "inputs": [
        {
          "indexed": true,
          "internalType": "address",
          "name": "_borrower",
          "type": "address"
        },
        {
          "indexed": false,
          "internalType": "uint256",
          "name": "_debt",
          "type": "uint256"
        },
        {
          "indexed": false,
          "internalType": "uint256",
          "name": "_coll",
          "type": "uint256"
        },
        {
          "indexed": false,
          "internalType": "enum TroveManager.TroveManagerOperation",
          "name": "_operation",
          "type": "uint8"
        }
      ],
      "name": "TroveLiquidated",
      "type": "event"
    },
    {
      "anonymous": false,
      "inputs": [
        {
          "indexed": false,
          "internalType": "uint256",
          "name": "_L_ETH",
          "type": "uint256"
        },
        {
          "indexed": false,
          "internalType": "uint256",
          "name": "_L_LUSDDebt",
          "type": "uint256"
        }
      ],
      "name": "TroveSnapshotsUpdated",
      "type": "event"
    },
    {
      "anonymous": false,
      "inputs": [
        {
          "indexed": true,
          "internalType": "address",
          "name": "_borrower",
          "type": "address"
        },
        {
          "indexed": false,
          "internalType": "uint256",
          "name": "_debt",
          "type": "uint256"
        },
        {
          "indexed": false,
          "internalType": "uint256",
          "name": "_coll",
          "type": "uint256"
        },
        {
          "indexed": false,
          "internalType": "uint256",
          "name": "_stake",
          "type": "uint256"
        },
        {
          "indexed": false,
          "internalType": "enum TroveManager.TroveManagerOperation",
          "name": "_operation",
          "type": "uint8"
        }
      ],
      "name": "TroveUpdated",
      "type": "event"
    },
    {
      "inputs": [],
      "name": "BETA",
      "outputs": [
        {
          "internalType": "uint256",
          "name": "",
          "type": "uint256"
        }
      ],
      "stateMutability": "view",
      "type": "function"
    },
    {
      "inputs": [],
      "name": "BOOTSTRAP_PERIOD",
      "outputs": [
        {
          "internalType": "uint256",
          "name": "",
          "type": "uint256"
        }
      ],
      "stateMutability": "view",
      "type": "function"
    },
    {
      "inputs": [],
      "name": "BORROWING_FEE_FLOOR",
      "outputs": [
        {
          "internalType": "uint256",
          "name": "",
          "type": "uint256"
        }
      ],
      "stateMutability": "view",
      "type": "function"
    },
    {
      "inputs": [],
      "name": "CCR",
      "outputs": [
        {
          "internalType": "uint256",
          "name": "",
          "type": "uint256"
        }
      ],
      "stateMutability": "view",
      "type": "function"
    },
    {
      "inputs": [],
      "name": "DECIMAL_PRECISION",
      "outputs": [
        {
          "internalType": "uint256",
          "name": "",
          "type": "uint256"
        }
      ],
      "stateMutability": "view",
      "type": "function"
    },
    {
      "inputs": [],
      "name": "LUSD_GAS_COMPENSATION",
      "outputs": [
        {
          "internalType": "uint256",
          "name": "",
          "type": "uint256"
        }
      ],
      "stateMutability": "view",
      "type": "function"
    },
    {
      "inputs": [],
      "name": "L_ETH",
      "outputs": [
        {
          "internalType": "uint256",
          "name": "",
          "type": "uint256"
        }
      ],
      "stateMutability": "view",
      "type": "function"
    },
    {
      "inputs": [],
      "name": "L_LUSDDebt",
      "outputs": [
        {
          "internalType": "uint256",
          "name": "",
          "type": "uint256"
        }
      ],
      "stateMutability": "view",
      "type": "function"
    },
    {
      "inputs": [],
      "name": "MAX_BORROWING_FEE",
      "outputs": [
        {
          "internalType": "uint256",
          "name": "",
          "type": "uint256"
        }
      ],
      "stateMutability": "view",
      "type": "function"
    },
    {
      "inputs": [],
      "name": "MCR",
      "outputs": [
        {
          "internalType": "uint256",
          "name": "",
          "type": "uint256"
        }
      ],
      "stateMutability": "view",
      "type": "function"
    },
    {
      "inputs": [],
      "name": "MINUTE_DECAY_FACTOR",
      "outputs": [
        {
          "internalType": "uint256",
          "name": "",
          "type": "uint256"
        }
      ],
      "stateMutability": "view",
      "type": "function"
    },
    {
      "inputs": [],
      "name": "MIN_NET_DEBT",
      "outputs": [
        {
          "internalType": "uint256",
          "name": "",
          "type": "uint256"
        }
      ],
      "stateMutability": "view",
      "type": "function"
    },
    {
      "inputs": [],
      "name": "NAME",
      "outputs": [
        {
          "internalType": "string",
          "name": "",
          "type": "string"
        }
      ],
      "stateMutability": "view",
      "type": "function"
    },
    {
      "inputs": [],
      "name": "PERCENT_DIVISOR",
      "outputs": [
        {
          "internalType": "uint256",
          "name": "",
          "type": "uint256"
        }
      ],
      "stateMutability": "view",
      "type": "function"
    },
    {
      "inputs": [],
      "name": "REDEMPTION_FEE_FLOOR",
      "outputs": [
        {
          "internalType": "uint256",
          "name": "",
          "type": "uint256"
        }
      ],
      "stateMutability": "view",
      "type": "function"
    },
    {
      "inputs": [],
      "name": "SECONDS_IN_ONE_MINUTE",
      "outputs": [
        {
          "internalType": "uint256",
          "name": "",
          "type": "uint256"
        }
      ],
      "stateMutability": "view",
      "type": "function"
    },
    {
      "inputs": [
        {
          "internalType": "uint256",
          "name": "",
          "type": "uint256"
        }
      ],
      "name": "TroveOwners",
      "outputs": [
        {
          "internalType": "address",
          "name": "",
          "type": "address"
        }
      ],
      "stateMutability": "view",
      "type": "function"
    },
    {
      "inputs": [
        {
          "internalType": "address",
          "name": "",
          "type": "address"
        }
      ],
      "name": "Troves",
      "outputs": [
        {
          "internalType": "uint256",
          "name": "debt",
          "type": "uint256"
        },
        {
          "internalType": "uint256",
          "name": "coll",
          "type": "uint256"
        },
        {
          "internalType": "uint256",
          "name": "stake",
          "type": "uint256"
        },
        {
          "internalType": "enum TroveManager.Status",
          "name": "status",
          "type": "uint8"
        },
        {
          "internalType": "uint128",
          "name": "arrayIndex",
          "type": "uint128"
        }
      ],
      "stateMutability": "view",
      "type": "function"
    },
    {
      "inputs": [],
      "name": "_100pct",
      "outputs": [
        {
          "internalType": "uint256",
          "name": "",
          "type": "uint256"
        }
      ],
      "stateMutability": "view",
      "type": "function"
    },
    {
      "inputs": [],
      "name": "activePool",
      "outputs": [
        {
          "internalType": "contract IActivePool",
          "name": "",
          "type": "address"
        }
      ],
      "stateMutability": "view",
      "type": "function"
    },
    {
      "inputs": [
        {
          "internalType": "address",
          "name": "_borrower",
          "type": "address"
        }
      ],
      "name": "addTroveOwnerToArray",
      "outputs": [
        {
          "internalType": "uint256",
          "name": "index",
          "type": "uint256"
        }
      ],
      "stateMutability": "nonpayable",
      "type": "function"
    },
    {
      "inputs": [
        {
          "internalType": "address",
          "name": "_borrower",
          "type": "address"
        }
      ],
      "name": "applyPendingRewards",
      "outputs": [],
      "stateMutability": "nonpayable",
      "type": "function"
    },
    {
      "inputs": [],
      "name": "baseRate",
      "outputs": [
        {
          "internalType": "uint256",
          "name": "",
          "type": "uint256"
        }
      ],
      "stateMutability": "view",
      "type": "function"
    },
    {
      "inputs": [
        {
          "internalType": "address[]",
          "name": "_troveArray",
          "type": "address[]"
        }
      ],
      "name": "batchLiquidateTroves",
      "outputs": [],
      "stateMutability": "nonpayable",
      "type": "function"
    },
    {
      "inputs": [],
      "name": "borrowerOperationsAddress",
      "outputs": [
        {
          "internalType": "address",
          "name": "",
          "type": "address"
        }
      ],
      "stateMutability": "view",
      "type": "function"
    },
    {
      "inputs": [
        {
          "internalType": "bytes32",
          "name": "c__0x3a042251",
          "type": "bytes32"
        }
      ],
      "name": "c_0x3a042251",
      "outputs": [],
      "stateMutability": "pure",
      "type": "function"
    },
    {
      "inputs": [
        {
          "internalType": "bytes32",
          "name": "c__0xafd32059",
          "type": "bytes32"
        }
      ],
      "name": "c_0xafd32059",
      "outputs": [],
      "stateMutability": "pure",
      "type": "function"
    },
    {
      "inputs": [
        {
          "internalType": "bytes32",
          "name": "c__0xb42d9ff1",
          "type": "bytes32"
        }
      ],
      "name": "c_0xb42d9ff1",
      "outputs": [],
      "stateMutability": "pure",
      "type": "function"
    },
    {
      "inputs": [
        {
          "internalType": "bytes32",
          "name": "c__0xe624bb7f",
          "type": "bytes32"
        }
      ],
      "name": "c_0xe624bb7f",
      "outputs": [],
      "stateMutability": "pure",
      "type": "function"
    },
    {
      "inputs": [
        {
          "internalType": "uint256",
          "name": "_ETHDrawn",
          "type": "uint256"
        }
      ],
      "name": "callGetRedemptionFee",
      "outputs": [
        {
          "internalType": "uint256",
          "name": "",
          "type": "uint256"
        }
      ],
      "stateMutability": "view",
      "type": "function"
    },
    {
      "inputs": [
        {
          "internalType": "address",
          "name": "_troveOwner",
          "type": "address"
        }
      ],
      "name": "callInternalRemoveTroveOwner",
      "outputs": [],
      "stateMutability": "nonpayable",
      "type": "function"
    },
    {
      "inputs": [
        {
          "internalType": "uint256",
          "name": "_price",
          "type": "uint256"
        }
      ],
      "name": "checkRecoveryMode",
      "outputs": [
        {
          "internalType": "bool",
          "name": "",
          "type": "bool"
        }
      ],
      "stateMutability": "view",
      "type": "function"
    },
    {
      "inputs": [
        {
          "internalType": "address",
          "name": "_borrower",
          "type": "address"
        }
      ],
      "name": "closeTrove",
      "outputs": [],
      "stateMutability": "nonpayable",
      "type": "function"
    },
    {
      "inputs": [
        {
          "internalType": "uint256",
          "name": "_coll",
          "type": "uint256"
        },
        {
          "internalType": "uint256",
          "name": "_debt",
          "type": "uint256"
        },
        {
          "internalType": "uint256",
          "name": "_price",
          "type": "uint256"
        }
      ],
      "name": "computeICR",
      "outputs": [
        {
          "internalType": "uint256",
          "name": "",
          "type": "uint256"
        }
      ],
      "stateMutability": "pure",
      "type": "function"
    },
    {
      "inputs": [],
      "name": "decayBaseRateFromBorrowing",
      "outputs": [],
      "stateMutability": "nonpayable",
      "type": "function"
    },
    {
      "inputs": [
        {
          "internalType": "address",
          "name": "_borrower",
          "type": "address"
        },
        {
          "internalType": "uint256",
          "name": "_collDecrease",
          "type": "uint256"
        }
      ],
      "name": "decreaseTroveColl",
      "outputs": [
        {
          "internalType": "uint256",
          "name": "",
          "type": "uint256"
        }
      ],
      "stateMutability": "nonpayable",
      "type": "function"
    },
    {
      "inputs": [
        {
          "internalType": "address",
          "name": "_borrower",
          "type": "address"
        },
        {
          "internalType": "uint256",
          "name": "_debtDecrease",
          "type": "uint256"
        }
      ],
      "name": "decreaseTroveDebt",
      "outputs": [
        {
          "internalType": "uint256",
          "name": "",
          "type": "uint256"
        }
      ],
      "stateMutability": "nonpayable",
      "type": "function"
    },
    {
      "inputs": [],
      "name": "defaultPool",
      "outputs": [
        {
          "internalType": "contract IDefaultPool",
          "name": "",
          "type": "address"
        }
      ],
      "stateMutability": "view",
      "type": "function"
    },
    {
      "inputs": [
        {
          "internalType": "uint256",
          "name": "_debtVal",
          "type": "uint256"
        }
      ],
      "name": "getActualDebtFromComposite",
      "outputs": [
        {
          "internalType": "uint256",
          "name": "",
          "type": "uint256"
        }
      ],
      "stateMutability": "pure",
      "type": "function"
    },
    {
      "inputs": [
        {
          "internalType": "uint256",
          "name": "_LUSDDebt",
          "type": "uint256"
        }
      ],
      "name": "getBorrowingFee",
      "outputs": [
        {
          "internalType": "uint256",
          "name": "",
          "type": "uint256"
        }
      ],
      "stateMutability": "view",
      "type": "function"
    },
    {
      "inputs": [
        {
          "internalType": "uint256",
          "name": "_LUSDDebt",
          "type": "uint256"
        }
      ],
      "name": "getBorrowingFeeWithDecay",
      "outputs": [
        {
          "internalType": "uint256",
          "name": "",
          "type": "uint256"
        }
      ],
      "stateMutability": "view",
      "type": "function"
    },
    {
      "inputs": [],
      "name": "getBorrowingRate",
      "outputs": [
        {
          "internalType": "uint256",
          "name": "",
          "type": "uint256"
        }
      ],
      "stateMutability": "view",
      "type": "function"
    },
    {
      "inputs": [],
      "name": "getBorrowingRateWithDecay",
      "outputs": [
        {
          "internalType": "uint256",
          "name": "",
          "type": "uint256"
        }
      ],
      "stateMutability": "view",
      "type": "function"
    },
    {
      "inputs": [
        {
          "internalType": "uint256",
          "name": "_coll",
          "type": "uint256"
        }
      ],
      "name": "getCollGasCompensation",
      "outputs": [
        {
          "internalType": "uint256",
          "name": "",
          "type": "uint256"
        }
      ],
      "stateMutability": "pure",
      "type": "function"
    },
    {
      "inputs": [
        {
          "internalType": "uint256",
          "name": "_debt",
          "type": "uint256"
        }
      ],
      "name": "getCompositeDebt",
      "outputs": [
        {
          "internalType": "uint256",
          "name": "",
          "type": "uint256"
        }
      ],
      "stateMutability": "pure",
      "type": "function"
    },
    {
      "inputs": [
        {
          "internalType": "address",
          "name": "_borrower",
          "type": "address"
        },
        {
          "internalType": "uint256",
          "name": "_price",
          "type": "uint256"
        }
      ],
      "name": "getCurrentICR",
      "outputs": [
        {
          "internalType": "uint256",
          "name": "",
          "type": "uint256"
        }
      ],
      "stateMutability": "view",
      "type": "function"
    },
    {
      "inputs": [
        {
          "internalType": "address",
          "name": "_borrower",
          "type": "address"
        }
      ],
      "name": "getEntireDebtAndColl",
      "outputs": [
        {
          "internalType": "uint256",
          "name": "debt",
          "type": "uint256"
        },
        {
          "internalType": "uint256",
          "name": "coll",
          "type": "uint256"
        },
        {
          "internalType": "uint256",
          "name": "pendingLUSDDebtReward",
          "type": "uint256"
        },
        {
          "internalType": "uint256",
          "name": "pendingETHReward",
          "type": "uint256"
        }
      ],
      "stateMutability": "view",
      "type": "function"
    },
    {
      "inputs": [],
      "name": "getEntireSystemColl",
      "outputs": [
        {
          "internalType": "uint256",
          "name": "entireSystemColl",
          "type": "uint256"
        }
      ],
      "stateMutability": "view",
      "type": "function"
    },
    {
      "inputs": [],
      "name": "getEntireSystemDebt",
      "outputs": [
        {
          "internalType": "uint256",
          "name": "entireSystemDebt",
          "type": "uint256"
        }
      ],
      "stateMutability": "view",
      "type": "function"
    },
    {
      "inputs": [],
      "name": "getLUSDGasCompensation",
      "outputs": [
        {
          "internalType": "uint256",
          "name": "",
          "type": "uint256"
        }
      ],
      "stateMutability": "pure",
      "type": "function"
    },
    {
      "inputs": [
        {
          "internalType": "address",
          "name": "_borrower",
          "type": "address"
        }
      ],
      "name": "getNominalICR",
      "outputs": [
        {
          "internalType": "uint256",
          "name": "",
          "type": "uint256"
        }
      ],
      "stateMutability": "view",
      "type": "function"
    },
    {
      "inputs": [
        {
          "internalType": "address",
          "name": "_borrower",
          "type": "address"
        }
      ],
      "name": "getPendingETHReward",
      "outputs": [
        {
          "internalType": "uint256",
          "name": "",
          "type": "uint256"
        }
      ],
      "stateMutability": "view",
      "type": "function"
    },
    {
      "inputs": [
        {
          "internalType": "address",
          "name": "_borrower",
          "type": "address"
        }
      ],
      "name": "getPendingLUSDDebtReward",
      "outputs": [
        {
          "internalType": "uint256",
          "name": "",
          "type": "uint256"
        }
      ],
      "stateMutability": "view",
      "type": "function"
    },
    {
      "inputs": [
        {
          "internalType": "uint256",
          "name": "_ETHDrawn",
          "type": "uint256"
        }
      ],
      "name": "getRedemptionFeeWithDecay",
      "outputs": [
        {
          "internalType": "uint256",
          "name": "",
          "type": "uint256"
        }
      ],
      "stateMutability": "view",
      "type": "function"
    },
    {
      "inputs": [],
      "name": "getRedemptionRate",
      "outputs": [
        {
          "internalType": "uint256",
          "name": "",
          "type": "uint256"
        }
      ],
      "stateMutability": "view",
      "type": "function"
    },
    {
      "inputs": [],
      "name": "getRedemptionRateWithDecay",
      "outputs": [
        {
          "internalType": "uint256",
          "name": "",
          "type": "uint256"
        }
      ],
      "stateMutability": "view",
      "type": "function"
    },
    {
      "inputs": [
        {
          "internalType": "uint256",
          "name": "_price",
          "type": "uint256"
        }
      ],
      "name": "getTCR",
      "outputs": [
        {
          "internalType": "uint256",
          "name": "",
          "type": "uint256"
        }
      ],
      "stateMutability": "view",
      "type": "function"
    },
    {
      "inputs": [
        {
          "internalType": "address",
          "name": "_borrower",
          "type": "address"
        }
      ],
      "name": "getTroveColl",
      "outputs": [
        {
          "internalType": "uint256",
          "name": "",
          "type": "uint256"
        }
      ],
      "stateMutability": "view",
      "type": "function"
    },
    {
      "inputs": [
        {
          "internalType": "address",
          "name": "_borrower",
          "type": "address"
        }
      ],
      "name": "getTroveDebt",
      "outputs": [
        {
          "internalType": "uint256",
          "name": "",
          "type": "uint256"
        }
      ],
      "stateMutability": "view",
      "type": "function"
    },
    {
      "inputs": [
        {
          "internalType": "uint256",
          "name": "_index",
          "type": "uint256"
        }
      ],
      "name": "getTroveFromTroveOwnersArray",
      "outputs": [
        {
          "internalType": "address",
          "name": "",
          "type": "address"
        }
      ],
      "stateMutability": "view",
      "type": "function"
    },
    {
      "inputs": [],
      "name": "getTroveOwnersCount",
      "outputs": [
        {
          "internalType": "uint256",
          "name": "",
          "type": "uint256"
        }
      ],
      "stateMutability": "view",
      "type": "function"
    },
    {
      "inputs": [
        {
          "internalType": "address",
          "name": "_borrower",
          "type": "address"
        }
      ],
      "name": "getTroveStake",
      "outputs": [
        {
          "internalType": "uint256",
          "name": "",
          "type": "uint256"
        }
      ],
      "stateMutability": "view",
      "type": "function"
    },
    {
      "inputs": [
        {
          "internalType": "address",
          "name": "_borrower",
          "type": "address"
        }
      ],
      "name": "getTroveStatus",
      "outputs": [
        {
          "internalType": "uint256",
          "name": "",
          "type": "uint256"
        }
      ],
      "stateMutability": "view",
      "type": "function"
    },
    {
      "inputs": [
        {
          "internalType": "address",
          "name": "_borrower",
          "type": "address"
        }
      ],
      "name": "hasPendingRewards",
      "outputs": [
        {
          "internalType": "bool",
          "name": "",
          "type": "bool"
        }
      ],
      "stateMutability": "view",
      "type": "function"
    },
    {
      "inputs": [
        {
          "internalType": "address",
          "name": "_borrower",
          "type": "address"
        },
        {
          "internalType": "uint256",
          "name": "_collIncrease",
          "type": "uint256"
        }
      ],
      "name": "increaseTroveColl",
      "outputs": [
        {
          "internalType": "uint256",
          "name": "",
          "type": "uint256"
        }
      ],
      "stateMutability": "nonpayable",
      "type": "function"
    },
    {
      "inputs": [
        {
          "internalType": "address",
          "name": "_borrower",
          "type": "address"
        },
        {
          "internalType": "uint256",
          "name": "_debtIncrease",
          "type": "uint256"
        }
      ],
      "name": "increaseTroveDebt",
      "outputs": [
        {
          "internalType": "uint256",
          "name": "",
          "type": "uint256"
        }
      ],
      "stateMutability": "nonpayable",
      "type": "function"
    },
    {
      "inputs": [],
      "name": "isOwner",
      "outputs": [
        {
          "internalType": "bool",
          "name": "",
          "type": "bool"
        }
      ],
      "stateMutability": "view",
      "type": "function"
    },
    {
      "inputs": [],
      "name": "lastETHError_Redistribution",
      "outputs": [
        {
          "internalType": "uint256",
          "name": "",
          "type": "uint256"
        }
      ],
      "stateMutability": "view",
      "type": "function"
    },
    {
      "inputs": [],
      "name": "lastFeeOperationTime",
      "outputs": [
        {
          "internalType": "uint256",
          "name": "",
          "type": "uint256"
        }
      ],
      "stateMutability": "view",
      "type": "function"
    },
    {
      "inputs": [],
      "name": "lastLUSDDebtError_Redistribution",
      "outputs": [
        {
          "internalType": "uint256",
          "name": "",
          "type": "uint256"
        }
      ],
      "stateMutability": "view",
      "type": "function"
    },
    {
      "inputs": [
        {
          "internalType": "address",
          "name": "_borrower",
          "type": "address"
        }
      ],
      "name": "liquidate",
      "outputs": [],
      "stateMutability": "nonpayable",
      "type": "function"
    },
    {
      "inputs": [
        {
          "internalType": "uint256",
          "name": "_n",
          "type": "uint256"
        }
      ],
      "name": "liquidateTroves",
      "outputs": [],
      "stateMutability": "nonpayable",
      "type": "function"
    },
    {
      "inputs": [],
      "name": "lqtyStaking",
      "outputs": [
        {
          "internalType": "contract ILQTYStaking",
          "name": "",
          "type": "address"
        }
      ],
      "stateMutability": "view",
      "type": "function"
    },
    {
      "inputs": [],
      "name": "lqtyToken",
      "outputs": [
        {
          "internalType": "contract ILQTYToken",
          "name": "",
          "type": "address"
        }
      ],
      "stateMutability": "view",
      "type": "function"
    },
    {
      "inputs": [],
      "name": "lusdToken",
      "outputs": [
        {
          "internalType": "contract ILUSDToken",
          "name": "",
          "type": "address"
        }
      ],
      "stateMutability": "view",
      "type": "function"
    },
    {
      "inputs": [],
      "name": "minutesPassedSinceLastFeeOp",
      "outputs": [
        {
          "internalType": "uint256",
          "name": "",
          "type": "uint256"
        }
      ],
      "stateMutability": "view",
      "type": "function"
    },
    {
      "inputs": [],
      "name": "owner",
      "outputs": [
        {
          "internalType": "address",
          "name": "",
          "type": "address"
        }
      ],
      "stateMutability": "view",
      "type": "function"
    },
    {
      "inputs": [],
      "name": "priceFeed",
      "outputs": [
        {
          "internalType": "contract IPriceFeed",
          "name": "",
          "type": "address"
        }
      ],
      "stateMutability": "view",
      "type": "function"
    },
    {
      "inputs": [
        {
          "internalType": "uint256",
          "name": "_LUSDamount",
          "type": "uint256"
        },
        {
          "internalType": "address",
          "name": "_firstRedemptionHint",
          "type": "address"
        },
        {
          "internalType": "address",
          "name": "_upperPartialRedemptionHint",
          "type": "address"
        },
        {
          "internalType": "address",
          "name": "_lowerPartialRedemptionHint",
          "type": "address"
        },
        {
          "internalType": "uint256",
          "name": "_partialRedemptionHintNICR",
          "type": "uint256"
        },
        {
          "internalType": "uint256",
          "name": "_maxIterations",
          "type": "uint256"
        },
        {
          "internalType": "uint256",
          "name": "_maxFeePercentage",
          "type": "uint256"
        }
      ],
      "name": "redeemCollateral",
      "outputs": [],
      "stateMutability": "nonpayable",
      "type": "function"
    },
    {
      "inputs": [
        {
          "internalType": "address",
          "name": "_borrower",
          "type": "address"
        }
      ],
      "name": "removeStake",
      "outputs": [],
      "stateMutability": "nonpayable",
      "type": "function"
    },
    {
      "inputs": [
        {
          "internalType": "address",
          "name": "",
          "type": "address"
        }
      ],
      "name": "rewardSnapshots",
      "outputs": [
        {
          "internalType": "uint256",
          "name": "ETH",
          "type": "uint256"
        },
        {
          "internalType": "uint256",
          "name": "LUSDDebt",
          "type": "uint256"
        }
      ],
      "stateMutability": "view",
      "type": "function"
    },
    {
      "inputs": [
        {
          "internalType": "address",
          "name": "_borrowerOperationsAddress",
          "type": "address"
        },
        {
          "internalType": "address",
          "name": "_activePoolAddress",
          "type": "address"
        },
        {
          "internalType": "address",
          "name": "_defaultPoolAddress",
          "type": "address"
        },
        {
          "internalType": "address",
          "name": "_stabilityPoolAddress",
          "type": "address"
        },
        {
          "internalType": "address",
          "name": "_gasPoolAddress",
          "type": "address"
        },
        {
          "internalType": "address",
          "name": "_collSurplusPoolAddress",
          "type": "address"
        },
        {
          "internalType": "address",
          "name": "_priceFeedAddress",
          "type": "address"
        },
        {
          "internalType": "address",
          "name": "_lusdTokenAddress",
          "type": "address"
        },
        {
          "internalType": "address",
          "name": "_sortedTrovesAddress",
          "type": "address"
        },
        {
          "internalType": "address",
          "name": "_lqtyTokenAddress",
          "type": "address"
        },
        {
          "internalType": "address",
          "name": "_lqtyStakingAddress",
          "type": "address"
        }
      ],
      "name": "setAddresses",
      "outputs": [],
      "stateMutability": "nonpayable",
      "type": "function"
    },
    {
      "inputs": [
        {
          "internalType": "uint256",
          "name": "_baseRate",
          "type": "uint256"
        }
      ],
      "name": "setBaseRate",
      "outputs": [],
      "stateMutability": "nonpayable",
      "type": "function"
    },
    {
      "inputs": [],
      "name": "setLastFeeOpTimeToNow",
      "outputs": [],
      "stateMutability": "nonpayable",
      "type": "function"
    },
    {
      "inputs": [
        {
          "internalType": "address",
          "name": "_borrower",
          "type": "address"
        },
        {
          "internalType": "uint256",
          "name": "_num",
          "type": "uint256"
        }
      ],
      "name": "setTroveStatus",
      "outputs": [],
      "stateMutability": "nonpayable",
      "type": "function"
    },
    {
      "inputs": [],
      "name": "sortedTroves",
      "outputs": [
        {
          "internalType": "contract ISortedTroves",
          "name": "",
          "type": "address"
        }
      ],
      "stateMutability": "view",
      "type": "function"
    },
    {
      "inputs": [],
      "name": "stabilityPool",
      "outputs": [
        {
          "internalType": "contract IStabilityPool",
          "name": "",
          "type": "address"
        }
      ],
      "stateMutability": "view",
      "type": "function"
    },
    {
      "inputs": [],
      "name": "totalCollateralSnapshot",
      "outputs": [
        {
          "internalType": "uint256",
          "name": "",
          "type": "uint256"
        }
      ],
      "stateMutability": "view",
      "type": "function"
    },
    {
      "inputs": [],
      "name": "totalStakes",
      "outputs": [
        {
          "internalType": "uint256",
          "name": "",
          "type": "uint256"
        }
      ],
      "stateMutability": "view",
      "type": "function"
    },
    {
      "inputs": [],
      "name": "totalStakesSnapshot",
      "outputs": [
        {
          "internalType": "uint256",
          "name": "",
          "type": "uint256"
        }
      ],
      "stateMutability": "view",
      "type": "function"
    },
    {
      "inputs": [],
      "name": "unprotectedDecayBaseRateFromBorrowing",
      "outputs": [
        {
          "internalType": "uint256",
          "name": "",
          "type": "uint256"
        }
      ],
      "stateMutability": "nonpayable",
      "type": "function"
    },
    {
      "inputs": [
        {
          "internalType": "address",
          "name": "_borrower",
          "type": "address"
        }
      ],
      "name": "updateStakeAndTotalStakes",
      "outputs": [
        {
          "internalType": "uint256",
          "name": "",
          "type": "uint256"
        }
      ],
      "stateMutability": "nonpayable",
      "type": "function"
    },
    {
      "inputs": [
        {
          "internalType": "address",
          "name": "_borrower",
          "type": "address"
        }
      ],
      "name": "updateTroveRewardSnapshots",
      "outputs": [],
      "stateMutability": "nonpayable",
      "type": "function"
    }
  ],
  "bytecode": "0x60806040523480156200001157600080fd5b5033600360006101000a81548173ffffffffffffffffffffffffffffffffffffffff021916908373ffffffffffffffffffffffffffffffffffffffff1602179055503373ffffffffffffffffffffffffffffffffffffffff16600073ffffffffffffffffffffffffffffffffffffffff167f8be0079c531659141344cd1fd0a4f28419497f9722a3daafe3b4186f6b6457e060405160405180910390a3620182f480620000bf6000396000f3fe60806040523480156200001157600080fd5b50600436106200058c5760003560e01c8063794e572411620002e5578063b83f91a21162000195578063d5b3563511620000ed578063e2ac77b0116200009f578063e2ac77b01462001cb0578063f34862de1462001d0f578063f36b24251462001d6a578063f92d34331462001d8a578063fe2ba8481462001daa578063febb33de1462001df1576200058c565b8063d5b356351462001b18578063d66a25531462001b5d578063d9a724441462001bb8578063da303f141462001c29578063dba1c5f21462001c49578063dc62a7021462001c69576200058c565b8063c7b554811162000147578063c7b5548114620019a7578063cbd138ae14620019c7578063d293c7101462001a0e578063d380a37c1462001a73578063d3d6f8431462001a93578063d5205e481462001af8576200058c565b8063b83f91a214620017dc578063b91af97c1462001828578063bcd375261462001898578063bf9befb11462001947578063c35bc5501462001967578063c52861f21462001987576200058c565b8063940a71bc1162000249578063a3f4df7e11620001fb578063a3f4df7e14620015d7578063a537896f146200165f578063ae91875414620016a4578063b0d8e18114620016f0578063b7f8cf9b146200174b578063b82f263d1462001797576200058c565b8063940a71bc146200149557806396d711ff14620014c65780639976cf4514620014e65780639dd233d2146200154b578063a20baee6146200156b578063a3a64017146200158b576200058c565b8063807d138d11620002a3578063807d138d1462001345578063814a0a45146200136557806382fe3eb914620013be578063887105d314620014055780638da5cb5b14620014255780638f32d59b1462001471576200058c565b8063794e57241462001111578063795d26c31462001131578063797250e314620011515780637985c5e414620011715780637f7dde4a14620012f9576200058c565b8063400c1bec11620004415780635d8c960911620003a557806366ca4a21116200035757806366ca4a211462000f055780636ef643381462000f2557806372423c171462000fcf57806372fe25aa1462001034578063741bef1a1462001054578063756b253e14620010a0576200058c565b80635d8c96091462000dad5780635dba4c4a1462000e0857806361ec893d1462000e14578063631203b01462000e3457806364cee2601462000e79578063653d46e71462000ed4576200058c565b806349eefeee11620003ff57806349eefeee1462000c495780634e443d9e1462000c695780634ff814431462000cb257806354062a451462000cf75780635733d58f1462000d3c5780635d6b480f1462000d5c576200058c565b8063400c1bec1462000b27578063415a340d1462000b58578063477d66cf1462000b89578063480cd5781462000bce5780634870dd9a1462000c29576200058c565b80631d08837b11620004f557806328d28b5b11620004a757806328d28b5b1462000a035780632b11551a1462000a235780632e86bbd81462000a435780632f8655681462000a6357806334c6e4921462000aaa5780633cc742251462000adb576200058c565b80631d08837b146200082d5780631e8b1c2b146200085e5780631f68f20a146200091c5780631f7af3c3146200093c57806321e3780114620009885780632409266914620009e3576200058c565b8063105bb15c116200054f578063105bb15c146200067057806312610e92146200069057806315d549f114620006f55780631673c79a146200075057806318f2817a14620007b25780631bf43555146200080d576200058c565b8063043782fb1462000591578063048c661d146200059d578063060d49a314620005e9578063071a754114620006095780630b0765571462000629575b600080fd5b6200059b62001e36565b005b620005a762001e3f565b604051808273ffffffffffffffffffffffffffffffffffffffff1673ffffffffffffffffffffffffffffffffffffffff16815260200191505060405180910390f35b620005f362001e65565b6040518082815260200191505060405180910390f35b6200061362001e6b565b6040518082815260200191505060405180910390f35b6200066e600480360360208110156200064157600080fd5b81019080803573ffffffffffffffffffffffffffffffffffffffff16906020019092919050505062001e70565b005b6200067a62001fb3565b6040518082815260200191505060405180910390f35b620006df60048036036040811015620006a857600080fd5b81019080803573ffffffffffffffffffffffffffffffffffffffff1690602001909291908035906020019092919050505062001fc4565b6040518082815260200191505060405180910390f35b6200073a600480360360208110156200070d57600080fd5b81019080803573ffffffffffffffffffffffffffffffffffffffff1690602001909291905050506200221a565b6040518082815260200191505060405180910390f35b62000795600480360360208110156200076857600080fd5b81019080803573ffffffffffffffffffffffffffffffffffffffff16906020019092919050505062002330565b604051808381526020018281526020019250505060405180910390f35b620007f760048036036020811015620007ca57600080fd5b81019080803573ffffffffffffffffffffffffffffffffffffffff16906020019092919050505062002354565b6040518082815260200191505060405180910390f35b6200081762002458565b6040518082815260200191505060405180910390f35b6200085c600480360360208110156200084557600080fd5b810190808035906020019092919050505062002465565b005b6200091a600480360360208110156200087657600080fd5b81019080803590602001906401000000008111156200089457600080fd5b820183602082011115620008a757600080fd5b80359060200191846020830284011164010000000083111715620008ca57600080fd5b919080806020026020016040519081016040528093929190818152602001838360200280828437600081840152601f19601f8201169050808301925050505050505091929192905050506200246f565b005b6200092662003324565b6040518082815260200191505060405180910390f35b620009466200332a565b604051808273ffffffffffffffffffffffffffffffffffffffff1673ffffffffffffffffffffffffffffffffffffffff16815260200191505060405180910390f35b620009cd60048036036020811015620009a057600080fd5b81019080803573ffffffffffffffffffffffffffffffffffffffff16906020019092919050505062003350565b6040518082815260200191505060405180910390f35b620009ed6200343f565b6040518082815260200191505060405180910390f35b62000a0d62003459565b6040518082815260200191505060405180910390f35b62000a2d62003474565b6040518082815260200191505060405180910390f35b62000a4d62003512565b6040518082815260200191505060405180910390f35b62000aa86004803603602081101562000a7b57600080fd5b81019080803573ffffffffffffffffffffffffffffffffffffffff1690602001909291905050506200351f565b005b62000ad96004803603602081101562000ac257600080fd5b81019080803590602001909291905050506200376e565b005b62000ae562003771565b604051808273ffffffffffffffffffffffffffffffffffffffff1673ffffffffffffffffffffffffffffffffffffffff16815260200191505060405180910390f35b62000b566004803603602081101562000b3f57600080fd5b810190808035906020019092919050505062003797565b005b62000b876004803603602081101562000b7057600080fd5b81019080803590602001909291905050506200379a565b005b62000bb86004803603602081101562000ba157600080fd5b81019080803590602001909291905050506200379d565b6040518082815260200191505060405180910390f35b62000c136004803603602081101562000be657600080fd5b81019080803573ffffffffffffffffffffffffffffffffffffffff16906020019092919050505062003845565b6040518082815260200191505060405180910390f35b62000c336200391b565b6040518082815260200191505060405180910390f35b62000c5362003920565b6040518082815260200191505060405180910390f35b62000c986004803603602081101562000c8157600080fd5b8101908080359060200190929190505050620039b7565b604051808215151515815260200191505060405180910390f35b62000ce16004803603602081101562000cca57600080fd5b810190808035906020019092919050505062003a55565b6040518082815260200191505060405180910390f35b62000d266004803603602081101562000d0f57600080fd5b810190808035906020019092919050505062003a69565b6040518082815260200191505060405180910390f35b62000d4662003a7d565b6040518082815260200191505060405180910390f35b62000dab6004803603604081101562000d7457600080fd5b81019080803573ffffffffffffffffffffffffffffffffffffffff1690602001909291908035906020019092919050505062003a89565b005b62000df26004803603602081101562000dc557600080fd5b81019080803573ffffffffffffffffffffffffffffffffffffffff16906020019092919050505062003bed565b6040518082815260200191505060405180910390f35b62000e1262004044565b005b62000e1e62004310565b6040518082815260200191505060405180910390f35b62000e636004803603602081101562000e4c57600080fd5b810190808035906020019092919050505062004315565b6040518082815260200191505060405180910390f35b62000ebe6004803603602081101562000e9157600080fd5b81019080803573ffffffffffffffffffffffffffffffffffffffff169060200190929190505050620043bd565b6040518082815260200191505060405180910390f35b62000f036004803603602081101562000eec57600080fd5b810190808035906020019092919050505062004493565b005b62000f0f620052e5565b6040518082815260200191505060405180910390f35b62000f6a6004803603602081101562000f3d57600080fd5b81019080803573ffffffffffffffffffffffffffffffffffffffff1690602001909291905050506200538a565b6040518086815260200185815260200184815260200183600481111562000f8d57fe5b60ff168152602001826fffffffffffffffffffffffffffffffff166fffffffffffffffffffffffffffffffff1681526020019550505050505060405180910390f35b6200101e6004803603604081101562000fe757600080fd5b81019080803573ffffffffffffffffffffffffffffffffffffffff16906020019092919080359060200190929190505050620053e9565b6040518082815260200191505060405180910390f35b6200103e6200563f565b6040518082815260200191505060405180910390f35b6200105e6200564b565b604051808273ffffffffffffffffffffffffffffffffffffffff1673ffffffffffffffffffffffffffffffffffffffff16815260200191505060405180910390f35b620010cf60048036036020811015620010b857600080fd5b810190808035906020019092919050505062005671565b604051808273ffffffffffffffffffffffffffffffffffffffff1673ffffffffffffffffffffffffffffffffffffffff16815260200191505060405180910390f35b6200111b620056ae565b6040518082815260200191505060405180910390f35b6200113b620056ba565b6040518082815260200191505060405180910390f35b6200115b6200596d565b6040518082815260200191505060405180910390f35b620012f760048036036101608110156200118a57600080fd5b81019080803573ffffffffffffffffffffffffffffffffffffffff169060200190929190803573ffffffffffffffffffffffffffffffffffffffff169060200190929190803573ffffffffffffffffffffffffffffffffffffffff169060200190929190803573ffffffffffffffffffffffffffffffffffffffff169060200190929190803573ffffffffffffffffffffffffffffffffffffffff169060200190929190803573ffffffffffffffffffffffffffffffffffffffff169060200190929190803573ffffffffffffffffffffffffffffffffffffffff169060200190929190803573ffffffffffffffffffffffffffffffffffffffff169060200190929190803573ffffffffffffffffffffffffffffffffffffffff169060200190929190803573ffffffffffffffffffffffffffffffffffffffff169060200190929190803573ffffffffffffffffffffffffffffffffffffffff16906020019092919050505062005973565b005b6200130362006df1565b604051808273ffffffffffffffffffffffffffffffffffffffff1673ffffffffffffffffffffffffffffffffffffffff16815260200191505060405180910390f35b6200134f62006e16565b6040518082815260200191505060405180910390f35b620013a8600480360360608110156200137d57600080fd5b8101908080359060200190929190803590602001909291908035906020019092919050505062006e1c565b6040518082815260200191505060405180910390f35b6200140360048036036020811015620013d657600080fd5b81019080803573ffffffffffffffffffffffffffffffffffffffff16906020019092919050505062006e34565b005b6200140f62006f32565b6040518082815260200191505060405180910390f35b6200142f620071e5565b604051808273ffffffffffffffffffffffffffffffffffffffff1673ffffffffffffffffffffffffffffffffffffffff16815260200191505060405180910390f35b6200147b6200720f565b604051808215151515815260200191505060405180910390f35b620014c460048036036020811015620014ad57600080fd5b810190808035906020019092919050505062007267565b005b620014d06200726a565b6040518082815260200191505060405180910390f35b6200153560048036036040811015620014fe57600080fd5b81019080803573ffffffffffffffffffffffffffffffffffffffff1690602001909291908035906020019092919050505062007270565b6040518082815260200191505060405180910390f35b62001555620074c6565b6040518082815260200191505060405180910390f35b62001575620074cc565b6040518082815260200191505060405180910390f35b62001595620074d8565b604051808273ffffffffffffffffffffffffffffffffffffffff1673ffffffffffffffffffffffffffffffffffffffff16815260200191505060405180910390f35b620015e1620074fe565b6040518080602001828103825283818151815260200191508051906020019080838360005b838110156200162357808201518184015260208101905062001606565b50505050905090810190601f168015620016515780820380516001836020036101000a031916815260200191505b509250505060405180910390f35b6200168e600480360360208110156200167757600080fd5b810190808035906020019092919050505062007537565b6040518082815260200191505060405180910390f35b620016ae6200754b565b604051808273ffffffffffffffffffffffffffffffffffffffff1673ffffffffffffffffffffffffffffffffffffffff16815260200191505060405180910390f35b62001735600480360360208110156200170857600080fd5b81019080803573ffffffffffffffffffffffffffffffffffffffff16906020019092919050505062007571565b6040518082815260200191505060405180910390f35b62001755620076e2565b604051808273ffffffffffffffffffffffffffffffffffffffff1673ffffffffffffffffffffffffffffffffffffffff16815260200191505060405180910390f35b620017c660048036036020811015620017af57600080fd5b810190808035906020019092919050505062007708565b6040518082815260200191505060405180910390f35b620017e6620077a6565b604051808273ffffffffffffffffffffffffffffffffffffffff1673ffffffffffffffffffffffffffffffffffffffff16815260200191505060405180910390f35b6200186d600480360360208110156200184057600080fd5b81019080803573ffffffffffffffffffffffffffffffffffffffff169060200190929190505050620077cc565b6040518085815260200184815260200183815260200182815260200194505050505060405180910390f35b62001945600480360360e0811015620018b057600080fd5b8101908080359060200190929190803573ffffffffffffffffffffffffffffffffffffffff169060200190929190803573ffffffffffffffffffffffffffffffffffffffff169060200190929190803573ffffffffffffffffffffffffffffffffffffffff16906020019092919080359060200190929190803590602001909291908035906020019092919050505062007b01565b005b620019516200965d565b6040518082815260200191505060405180910390f35b6200197162009663565b6040518082815260200191505060405180910390f35b620019916200966a565b6040518082815260200191505060405180910390f35b620019b16200970f565b6040518082815260200191505060405180910390f35b62001a0c60048036036020811015620019df57600080fd5b81019080803573ffffffffffffffffffffffffffffffffffffffff1690602001909291905050506200971b565b005b62001a5d6004803603604081101562001a2657600080fd5b81019080803573ffffffffffffffffffffffffffffffffffffffff169060200190929190803590602001909291905050506200981b565b6040518082815260200191505060405180910390f35b62001a7d6200998e565b6040518082815260200191505060405180910390f35b62001ae26004803603604081101562001aab57600080fd5b81019080803573ffffffffffffffffffffffffffffffffffffffff1690602001909291908035906020019092919050505062009994565b6040518082815260200191505060405180910390f35b62001b0262009bea565b6040518082815260200191505060405180910390f35b62001b476004803603602081101562001b3057600080fd5b810190808035906020019092919050505062009bfb565b6040518082815260200191505060405180910390f35b62001ba26004803603602081101562001b7557600080fd5b81019080803573ffffffffffffffffffffffffffffffffffffffff16906020019092919050505062009ca3565b6040518082815260200191505060405180910390f35b62001be76004803603602081101562001bd057600080fd5b810190808035906020019092919050505062009d79565b604051808273ffffffffffffffffffffffffffffffffffffffff1673ffffffffffffffffffffffffffffffffffffffff16815260200191505060405180910390f35b62001c3362009e45565b6040518082815260200191505060405180910390f35b62001c5362009e8e565b6040518082815260200191505060405180910390f35b62001cae6004803603602081101562001c8157600080fd5b81019080803573ffffffffffffffffffffffffffffffffffffffff16906020019092919050505062009e94565b005b62001cf56004803603602081101562001cc857600080fd5b81019080803573ffffffffffffffffffffffffffffffffffffffff16906020019092919050505062009eae565b604051808215151515815260200191505060405180910390f35b62001d546004803603602081101562001d2757600080fd5b81019080803573ffffffffffffffffffffffffffffffffffffffff1690602001909291905050506200a0e9565b6040518082815260200191505060405180910390f35b62001d746200a540565b6040518082815260200191505060405180910390f35b62001d946200a5de565b6040518082815260200191505060405180910390f35b62001def6004803603602081101562001dc257600080fd5b81019080803573ffffffffffffffffffffffffffffffffffffffff1690602001909291905050506200a5f9565b005b62001e206004803603602081101562001e0957600080fd5b81019080803590602001909291905050506200a6f7565b6040518082815260200191505060405180910390f35b42600d81905550565b600560009054906101000a900473ffffffffffffffffffffffffffffffffffffffff1681565b60175481565b600281565b62001e9e7f3fc47d05b4ccd0ecb5a40186e3acf80bf6ca0da17c55bf174f919e00d187d95260001b6200379a565b62001ecc7f97941543502506c2aa35032d68e3c7fb51a172cdef94f859f123369787434a7e60001b6200379a565b62001efa7fd7e55ec8d82274b7394e12a7cee8f89de848915d68a194cd79f53d51dbd0d6e360001b6200379a565b62001f046200a70a565b62001f327fd877d7b9156cf8463a75eb34daf7aa723c96ae5bc3ad82e17b7dd1403bd25ac360001b6200379a565b62001f607fe3de726a3cf39dbe32c11a2c992d3d55c33823360693d293b6e4d19a332aed7060001b6200379a565b62001fb06000809054906101000a900473ffffffffffffffffffffffffffffffffffffffff16600160009054906101000a900473ffffffffffffffffffffffffffffffffffffffff16836200a89a565b50565b600062001fbf6200af37565b905090565b600062001ff47f43a74f0b0dfd1f8d8f70990300e89f2f2b14201fc3cb57a353a208ebca98aaae60001b6200379a565b620020227ffbd85706a4ed01db791af0690b5a4618a035290b5dec5cf2ef1e7a407c8e44f860001b6200379a565b620020507f850c58250ae346a59c32a9c3b8e517bae761ac07372cbe6d3604831fbab7ff3160001b6200379a565b6200205a6200a70a565b620020887f5d51e440bac739a77685625e05a9b0963422ccbef5093fdb6cddbe743d6928fc60001b6200379a565b620020b67fc8916f5a0bad569202adfd30b8d46b45e8e50540ee5dba37df4ba6f66efd1d4160001b6200379a565b60006200210f83600e60008773ffffffffffffffffffffffffffffffffffffffff1673ffffffffffffffffffffffffffffffffffffffff168152602001908152602001600020600001546200aff490919063ffffffff16565b90506200213f7f567bb87cbca6586c00ac3e72b6db7327a9cde856f12ca76336eb5d36bc3ab89f60001b6200379a565b6200216d7f107c2e54da91a960636ad84d92e844473e6607bea5aca4243027548db477357760001b6200379a565b80600e60008673ffffffffffffffffffffffffffffffffffffffff1673ffffffffffffffffffffffffffffffffffffffff16815260200190815260200160002060000181905550620021e27fe009c5082f7f86ae20415591930b7ccce73d3ab95c2ac79113c3e11f8db03da860001b6200379a565b620022107fc454fb32ffc22fcd05db85618c8f8cbc1b8b2c89e6f472683200fef4d21265b160001b6200379a565b8091505092915050565b60006200224a7f25505faf7f2e880579c197a2cd926309ca8b0146c9ae5e60562829cea5c92da560001b6200379a565b620022787f9931c78f655f2788c4248a5ffa5e703fdbbfa070524059f40849ddcb84fa249a60001b6200379a565b620022a67f7e68f1f21292d62aacb4a5aa522882f2c5efd0bef8f622665f45e6bd8de4b76c60001b6200379a565b620022b06200a70a565b620022de7f6c5d16222258ccc3da0a712e9ea04ef734393eebf14372a329030701577a50df60001b6200379a565b6200230c7f67533a6451e9a365cafecd5fb94f2849c23ddb87b8601f52156eb842fb7f6fd860001b6200379a565b62002317826200b040565b6fffffffffffffffffffffffffffffffff169050919050565b60146020528060005260406000206000915090508060000154908060010154905082565b6000620023847f243575967ef44c00fdbcbd5c5949dfd3de475ff9d56f09d99cbf88ea5ab6bc5d60001b6200379a565b620023b27f52c01db595376db02241b9c6a6a2901b0f77cc3ce736896c1e802d36965b1dea60001b6200379a565b620023e07fa4b44f8ccdcbd73d34755ca4fc60c0021ac71c254689ed4fe1863e0658aec09c60001b6200379a565b620023ea6200a70a565b620024187f7adc09076f9babcd43b7f265902d4b1fc2a51a451eba0c5580976ccd8e83dfcf60001b6200379a565b620024467fbdec40c365a10235f4c1fff1be563eb067321db5f1f8c426e80a413b97a7050660001b6200379a565b62002451826200b2e1565b9050919050565b686194049f30f720000081565b80600c8190555050565b6200249d7f80aff8158a302dced4aa9b5a3117eae0231c48d3bbfe1306a738525148840fe860001b6200379a565b620024cb7f335e8cf5dabf253b939250a9cf7a3bd064ef76a647e39352d150bad65d001cee60001b6200379a565b620024f97f5a612ac651ac7b11181400eaa40bf9395a44dc9d54618042b60f8bf5d2dfcd6860001b6200379a565b620025277f64078f68258314baf057d2e0d7ff68256ba609459de6312eb402ff436162ff0960001b6200379a565b60008151141562002584576040517f08c379a00000000000000000000000000000000000000000000000000000000081526004018080602001828103825260368152602001806201817a6036913960400191505060405180910390fd5b620025b27f53784bfd48961f9d4dd3e8099a0dcf6ddfa5fcefb2860080a1e0597050772d6960001b6200379a565b620025e07fde8e962b8c69faffa3c97410ac23d4fd53d0822a3d3600b7cd7df9f11f39b7dc60001b6200379a565b6200260e7f09c7f7758ff7cc99b0815297e5b3c8995ad29bfd43385fe3999d32332cac048d60001b6200379a565b60008060009054906101000a900473ffffffffffffffffffffffffffffffffffffffff169050620026627fc0dcaf6d6e270583dfdeff9327aeccd0b83eca1cdfb33f79547234468a7e5e8060001b6200379a565b620026907fa700ea0fd2bfaf972e878d06b1ec0949adc0964e46eb04f3e867961b7057d0d960001b6200379a565b6000600160009054906101000a900473ffffffffffffffffffffffffffffffffffffffff169050620026e57fdfada65056b854a0d91df44499de93b260d44402c5dfef8d5e3aac443bbec8ec60001b6200379a565b620027137f2972bae3f3ee9a270bb33ddfcafb0246a041a98a6816ee7f2bdae52bf00cc0d760001b6200379a565b6000600560009054906101000a900473ffffffffffffffffffffffffffffffffffffffff169050620027687f6cb0d940986a1077c8868301ea3edeffa8503a64f9df22af5aeff9dac84d3f4760001b6200379a565b620027967f4b782985f6a1e8a6bd84fd68bc04a413aab80d032859a81cafe3e9f87fc07acb60001b6200379a565b620027a062017dbe565b620027ce7fb3ba36f78f87dd78c7c714eec82a9f248afe436702a68724eccc287e6fadf60660001b6200379a565b620027fc7fc55eb4e0efc910dd1edb9a19318205d19268c458d1d911627567108732f6af3660001b6200379a565b6200280662017def565b620028347ff6cf3f2e36601186722779d780ead3bbf4d760218bb7cb04742fc24d86b6e69e60001b6200379a565b620028627f08bd5d78557439dd5bbc25dad18f68bd4496da39779b1b5f277f6ed6e16a62e060001b6200379a565b600260009054906101000a900473ffffffffffffffffffffffffffffffffffffffff1673ffffffffffffffffffffffffffffffffffffffff16630fdb11cf6040518163ffffffff1660e01b8152600401602060405180830381600087803b158015620028cd57600080fd5b505af1158015620028e2573d6000803e3d6000fd5b505050506040513d6020811015620028f957600080fd5b8101908080519060200190929190505050826000018181525050620029417f510a678ffce23a5b1b27d76a1bf74bb7aeddc98542a2990ab23580867220633d60001b6200379a565b6200296f7f4ea2c8f19fb58424057a92f22307199c392a7452eaccb29bd4f8492cedfd7cea60001b6200379a565b8273ffffffffffffffffffffffffffffffffffffffff16639bf2f1ac6040518163ffffffff1660e01b815260040160206040518083038186803b158015620029b657600080fd5b505afa158015620029cb573d6000803e3d6000fd5b505050506040513d6020811015620029e257600080fd5b810190808051906020019092919050505082602001818152505062002a2a7f6876ff07b60aa56997ffac8a25613d86412b13b649d8bd543a913855b2222e1560001b6200379a565b62002a587f7c95d9b0f1331e63d4814e03323b52a159d0aaefd9ed00c6f69116412a0b166260001b6200379a565b62002a6782600001516200b68c565b82604001901515908115158152505062002aa47fdaf46fe3f066d46dbd1fd62f1e6d7cd8adc976ef97998cd02b1f287a9283a48660001b6200379a565b62002ad27f989b13c2026ee064385e81da4e3d0ef8bff9da72484a131a35faa13c6767b6c960001b6200379a565b81604001511562002b865762002b0b7f77acb46396d2c0e365c890f8a4b0651d9dfa652c9db6e6cc547de7678fee170260001b6200379a565b62002b397fe89220192ae5461217875eef837092987625fb74e6b976ae9cae5405e3a1d1b060001b6200379a565b62002b677feced28b4091b61dd9bf2e1f2760cd6b9326b01723932fc35cb68a407c615e62260001b6200379a565b62002b7e8585846000015185602001518a6200b796565b905062002c2a565b62002bb47f75e814b6dbfa042fd5a57b43d3a120fb0eb8fc95ddfff6933e54cb153e8cd80a60001b6200379a565b62002be27fa60517c8ee7c88e4a50f4806281edcedc8af71d5f421236dbf1d01a62da8209860001b6200379a565b62002c107f403274abc940eca26e8ffde6db4b640d20b50aa71df48d0f6691303d91ec2d8160001b6200379a565b62002c278585846000015185602001518a6200c490565b90505b62002c587f68e30b450e569e28adb0da64b7aee6a975436463258ecaa5d72a65cefb26b06760001b6200379a565b62002c867f86d5715c3a0f8ffbef96be315f50025154b21e9a5903096ea87a4751a104fd3c60001b6200379a565b62002cb47f8ca206f3eafaa32f8c1e5effe31188d62038424925423bf74216ffaa2cb2d39260001b6200379a565b600081602001511162002d13576040517f08c379a00000000000000000000000000000000000000000000000000000000081526004018080602001828103825260228152602001806201826e6022913960400191505060405180910390fd5b62002d417f2a0d02b45df1f3dbf42a45e7a3557d1a83bf5d46a8afbd37abb5a3f09304c4f160001b6200379a565b62002d6f7f72180c27e599a75e949004d053dc6a9997015a566162d20b240bba5f5dee60e660001b6200379a565b62002d9d7fe0866367ba2e68af7b4b17de66ad003e2607cf7894383904dc13056b4865470a60001b6200379a565b8273ffffffffffffffffffffffffffffffffffffffff1663335525ad82608001518360a001516040518363ffffffff1660e01b81526004018083815260200182815260200192505050600060405180830381600087803b15801562002e0157600080fd5b505af115801562002e16573d6000803e3d6000fd5b5050505062002e487fd5a3b99677e325203ea8c4162580fa480fb9c66d98056f0b93be7465da3169e460001b6200379a565b62002e767fc738652321faac318a1384a9b78e0680b42bf7ab71fc250a67cf1d1e0671faf960001b6200379a565b62002e8c85858360c001518460e001516200c9e6565b62002eba7f07453bfae7ebe15056c78c00354c34bff7d61ea41cc099ff1c8a0c7fd2add6bc60001b6200379a565b62002ee87fcdaf49df794d176c6a6cc6483ce5471f7abff548037b94b9cfadbcc9d103ae0860001b6200379a565b600081610100015111156200304f5762002f257ffc03fa0611a272afee540c9ae621c4a6ea1ed8dce1251f9fbdc7da4d20cfae6760001b6200379a565b62002f537f901954e2ccba9360ce309ca337bfc1e25c8d3c32a38c8ba9ce5b4ca38c4fd36e60001b6200379a565b62002f817fe279f8e56876c7270a15cceb61984b099432dd383d04c53b485900f434b1a6f260001b6200379a565b8473ffffffffffffffffffffffffffffffffffffffff166364a197f3600760009054906101000a900473ffffffffffffffffffffffffffffffffffffffff168361010001516040518363ffffffff1660e01b8152600401808373ffffffffffffffffffffffffffffffffffffffff1673ffffffffffffffffffffffffffffffffffffffff16815260200182815260200192505050600060405180830381600087803b1580156200303057600080fd5b505af115801562003045573d6000803e3d6000fd5b505050506200307e565b6200307d7fbfd6161e6e9f0eb8d07b54356e441ef99e2903de6828692b27a9c1568ef8f41d60001b6200379a565b5b620030ac7f38ac585939299bd043c714ca85701d45f6a5db9a98f9d7c6c4b443da6a3f469860001b6200379a565b620030da7fbc83fbed5ad4fceca95ef5c7c0766b1cba764ac6633cfdf207edda0c51096d0060001b6200379a565b620030ea8582604001516200d263565b620031187f6ebc59a1e1d2590f9bb9a7032416433191475c57e4220b19df7c033884cda86160001b6200379a565b620031467f3cab36531d07484f4c5cee0f3cf09ecf494f96d8128a616958cd01568f31c5b660001b6200379a565b8060200151826060018181525050620031827f7a123439068d282b9e3b070ddb603ec7607bf4b9ad0e85abdb4b9a2fb52be01f60001b6200379a565b620031b07f02ae1c3a59359b03f41bfb6fbf66d4ccf655c89f24c9887fb2dd49ccd2b2ac0560001b6200379a565b620031e6816101000151620031d7836040015184600001516200aff490919063ffffffff16565b6200aff490919063ffffffff16565b8260800181815250506200321d7fb9c9eb9dbd02d67d67c2bf5eee3ae810f4bdd8987af4ae34d3e1f6ebaee4006960001b6200379a565b6200324b7f12d317d884b412eecce6a4d125c4adab127f3fedfdf736c8162ba322476d97b860001b6200379a565b7f4152c73dd2614c4f9fc35e8c9cf16013cd588c75b49a4c1673ecffdcbcda940382606001518360800151836040015184606001516040518085815260200184815260200183815260200182815260200194505050505060405180910390a1620032d87f79bf87406f94791963f2e4570c3994f096fefcd92545eb3b35e9d0e025b11f2f60001b6200379a565b620033067f220a2b6e57c103e290a3e3f6f0213fff7155b5a9c923917d9f1fac1bbd2cf85b60001b6200379a565b6200331c8533836060015184604001516200d610565b505050505050565b600c5481565b600960009054906101000a900473ffffffffffffffffffffffffffffffffffffffff1681565b6000620033807f3ec66fc062b3047b9152410b7af7de54d1c45c6e8ea72d87c5e8622411c086d660001b6200379a565b620033ae7fe1ad64985622f4f374d7bfdb24e6cf0365302cee3fb92c16727a8453c68374c060001b6200379a565b620033dc7ff9cd3dc9cb1b816081f9e0a57dee0ba74d59810f6e503fc2b3a1715edc87487e60001b6200379a565b600e60008373ffffffffffffffffffffffffffffffffffffffff1673ffffffffffffffffffffffffffffffffffffffff16815260200190815260200160002060030160009054906101000a900460ff1660048111156200343857fe5b9050919050565b60056064670de0b6b3a7640000816200345457fe5b040281565b60056103e8670de0b6b3a7640000816200346f57fe5b040281565b6000620034a47f3706c63f1ebb4a5e7be6661f55a37aa8c330615a2963dcbf24c8d4cad003592d60001b6200379a565b620034d27fe8e53dac03bd07a1d9f9ed4163bf51189f66d54525fdf717f1c4db3596cdfbeb60001b6200379a565b620035007f0d118ed2799ac226001dd1d4816a3d6abb5f786a66584d78d2f6d8d7468afca260001b6200379a565b6200350d600c546200da48565b905090565b680ad78ebc5ac620000081565b6200354d7fa0458765093cc7eb75e79dda2c0c2d257a403b829daf561053f5a72add2ef13760001b6200379a565b6200357b7ffee0523af0434eacce7e775744523112f521cfd31669eb147cc845148e378e0b60001b6200379a565b620035a97f855fb56422833260628c46e03eec0ccd389f2a884886982c28e486a357e3d78c60001b6200379a565b620035b4816200db1a565b620035e27fd3bbedb637c6285d7151a6a932dd8fdce4008075a120cc5c60b451a448e9e7a860001b6200379a565b620036107fdd16e4a910d028d2d329a48963b46c3a280df0ac1f729abfd8cf544fc5fc44a860001b6200379a565b6060600167ffffffffffffffff811180156200362b57600080fd5b506040519080825280602002602001820160405280156200365b5781602001602082028036833780820191505090505b5090506200368c7f937a518bff6819095f4bac1c8808afe3e6430f480b8d13b81d4a2ce895ad806d60001b6200379a565b620036ba7fe09c1ca0efb1ff1d9966eb91322bfcde4c9583617bc1a508d051924cc243c9e760001b6200379a565b8181600081518110620036c957fe5b602002602001019073ffffffffffffffffffffffffffffffffffffffff16908173ffffffffffffffffffffffffffffffffffffffff1681525050620037317f6a91cadd2fc914fa58ba66e90efe8d1ff99a138898203239f0cad050447968c860001b6200379a565b6200375f7f1125eae9a811ae849bb2defb10ace2053414318ee6a5ba3170ef51f0dfa69b7a60001b6200379a565b6200376a816200246f565b5050565b50565b600160009054906101000a900473ffffffffffffffffffffffffffffffffffffffff1681565b50565b50565b6000620037cd7fed400ab49905e33f48fd2a0d2e0bc4201623adbacadb1977cc4e7d3b487c232060001b6200379a565b620037fb7fcd92a7ce35eb0d32cbcb60b667f37e9384ec3934ecf40d29beb59cf61771be2e60001b6200379a565b620038297f33f5d61dfda265f4ee3c85143bda2521a2bcd24a77bbedb0293a3e57241dbee560001b6200379a565b6200383e62003837620052e5565b836200dcc5565b9050919050565b6000620038757f736b237be7eb0888d8d8e72cbc216b55fffa40f02c1f0032f693a99612aa65ee60001b6200379a565b620038a37fb79b4e83dbdd7b6b38d20d5024dfc52bf25c67cfbdf30e626adfeb548a13615c60001b6200379a565b620038d17f2594b87dee3e7a377755460df7df242685561739d8c330a78810446e9374f7b060001b6200379a565b600e60008373ffffffffffffffffffffffffffffffffffffffff1673ffffffffffffffffffffffffffffffffffffffff168152602001908152602001600020600101549050919050565b60c881565b6000620039507f9dc2b00eb8cedb2660ea475cdac72d705da5799ea7ba6326be91c4904598613a60001b6200379a565b6200397e7f8d31f09e49de8652e47173b4b9e53ff1cdb77e6052e046b3d63d3af5c48fe62260001b6200379a565b620039ac7f495c053249dc1561954f7c198ef8067f65a7718552c34c4609087f0487c87d8160001b6200379a565b601580549050905090565b6000620039e77f4dc8d978214750240539b16922c26df88f332c91b473eea3a53df25439b71a7860001b6200379a565b62003a157f86f219bd15bafe9e2e78d316adcf56ad5c05d954a8eb71fff022e933ef761bb160001b6200379a565b62003a437fc2a2ca0ac841c8cf92ab5a8f8b185210927b2e34c1b54de24fecbf2e7119128160001b6200379a565b62003a4e826200b68c565b9050919050565b600062003a62826200dd8a565b9050919050565b600062003a76826200de3b565b9050919050565b6714d1120d7b16000081565b62003ab77f0c634aa45b932ad555431f2e72355912916fccb15b95b2dfd9dfd647b54b939660001b6200379a565b62003ae57fadd9399c88eaa8213d7dbb1998df0ae5c6730bc3190e45c18b0435006b73180160001b6200379a565b62003b137fc2071d78c25e52c0c65c90156d99b85884d27167c9ca36b0b01de29375800e0960001b6200379a565b62003b1d6200a70a565b62003b4b7ff78a69c960c0e2f68342d3c56abc4f0e4a1bc18c6959764fc15f79be98690f2860001b6200379a565b62003b797f57431fb30c775f530ebf01092ddcead52d2cc3894a48100dff9c03061067be2860001b6200379a565b80600481111562003b8657fe5b600e60008473ffffffffffffffffffffffffffffffffffffffff1673ffffffffffffffffffffffffffffffffffffffff16815260200190815260200160002060030160006101000a81548160ff0219169083600481111562003be457fe5b02179055505050565b600062003c1d7fa7bb985d2e0736b7e68a7ccf0d5d5c7cc6ead02034fbc2cebd5454f41557319a60001b6200379a565b62003c4b7f2797c43bb51d14b9ed04c48a88f6f4ff7e130cb685177d5b47ef46c1296119a960001b6200379a565b62003c797fcb09afcf2d63281e5ae35392084eab30da41eb8835426a044740bba6bed808f060001b6200379a565b6000601460008473ffffffffffffffffffffffffffffffffffffffff1673ffffffffffffffffffffffffffffffffffffffff16815260200190815260200160002060000154905062003cee7ff6670698eb91de06706a54527903f9121b44a8eadbb130190654f1a15af1283960001b6200379a565b62003d1c7f14e7545a78b2a97e2e9d7b2485a825458bbf84b90ff072fa65ca1475add606ad60001b6200379a565b600062003d35826012546200aff490919063ffffffff16565b905062003d657f88d2d89f14a0f8fde752df16c33eb6fe0284e05e91f811acc3cba9fc8780a56d60001b6200379a565b62003d937f1d54faa1d2ae79f142ffccb2a65efa2bcc57783f95a10b0d61f06550cf63379860001b6200379a565b600081148062003e0b57506001600481111562003dac57fe5b600e60008673ffffffffffffffffffffffffffffffffffffffff1673ffffffffffffffffffffffffffffffffffffffff16815260200190815260200160002060030160009054906101000a900460ff16600481111562003e0857fe5b14155b1562003e795762003e3f7f97efd713edfdebef800f4fcdfb3cb708b8ad6a566eda25e48ef64801923a032660001b6200379a565b62003e6d7f6aba87d1b1851a230e9be434a9cdf606fda6a4619ea3b037a08e9a6670e27cc560001b6200379a565b6000925050506200403f565b62003ea77f9268dc414fdf25552cd27678b80b8784c07b5f7d7aeeca8ad1b4309f68cf09a960001b6200379a565b62003ed57f61f86571ae309b357ef348ba1f6ab0be9d1794eec63fd4a076dfc2f353419cd460001b6200379a565b62003f037fee05fc4271762177365598bb9d424d9876ce8ea914946d6a6eeab414b8e6878560001b6200379a565b6000600e60008673ffffffffffffffffffffffffffffffffffffffff1673ffffffffffffffffffffffffffffffffffffffff16815260200190815260200160002060020154905062003f787faf49ce0546867edc8c41a602e79db716bc677f55781413532d846f251762b35660001b6200379a565b62003fa67ff46bca951a45db22e32c02df5c9706aa132027c27371f375bce9fb3efbb92fc360001b6200379a565b600062003fd9670de0b6b3a764000062003fca85856200deec90919063ffffffff16565b6200df7790919063ffffffff16565b9050620040097f75c2ededdb0073f98ccf016c1dd04bada5606ccaabc985192ddc1bc51e276d8260001b6200379a565b620040377f997d3fd48fe56cc867bef5eed5dcff676223b63b3ba3812ad6ac5226f4b26e5e60001b6200379a565b809450505050505b919050565b620040727fd99299f67101ad09887260d59911c0001d39424fc188486193b8a34f0160b59460001b6200379a565b620040a07f1cab4028d8c33d1eb7281fdfffcdf8f8609d5b68e3123e600e448ce41e0cf26860001b6200379a565b620040ce7ff9ba6ed5abeeb4b4cf92e01911d9384e1d4f2c0acfccbb6507ddceb3030e795c60001b6200379a565b620040d86200a70a565b620041067f413a037c150c3f378332d2518f22cdc778e78db75a6d4149e8d4761b86a5ab3e60001b6200379a565b620041347f577f07b9b9a091e26ed73792bf2b095a6de5b6b71a18b84dcb9d963d816ae7a460001b6200379a565b6000620041406200dfc3565b9050620041707f53eb4be50cf0146f52a056af5a8b02613c01fc781f0875641bcb441577c64ef760001b6200379a565b6200419e7f61f1111945169c7349aa19387f694882e3f2ed697c33181cf4b27eab33862a8060001b6200379a565b670de0b6b3a7640000811115620041b157fe5b620041df7f2608c88ed1b79f90502ea09ed2cfdfc8fae37c67873f96214a80d750a3bd175f60001b6200379a565b6200420d7f202062ae92e6ce8c25d32dbdc1b47c32d440de6644851c0cb28d3e98c1c0d65c60001b6200379a565b80600c81905550620042427fdaffc7cd0749b1281cdac54151fbe6be350db85b8d7d2d60ff49c07007a5faf060001b6200379a565b620042707fe049f97db6c054bbe116726fa730ad0e9dc99d29d7edb5b775ecc3f064b3047c60001b6200379a565b7fc454ee9b76c52f782a256af821b857ca6e125d1e3333bcede402fec2bed9600c816040518082815260200191505060405180910390a1620042d57f9ef64e61156980f6fee94ee9572e956b5931ebd8b20257b65a5a68360c827f1060001b6200379a565b620043037f3223d882377a81f180813ad82844e543478cbcb3e325a3a7eda4a394f890e1cb60001b6200379a565b6200430d6200e167565b50565b603c81565b6000620043457f20de5d92743212bf3bef1959fd01d555b3a74452ad5b9d9e1329e577d50b10f160001b6200379a565b620043737fc53026e80e66759d0b39165740211ce707453d3fee0b1137f3bc4537ccdbcb6160001b6200379a565b620043a17fb1dcb3a7e3a4eaa3adb8e146be0e3d4871bea0593ae3696c07698df737186e9860001b6200379a565b620043b6620043af6200a540565b836200dcc5565b9050919050565b6000620043ed7f12e71b906ca83656931c600db60eae4d4d38ea25f69adb578f209b6256f81b4a60001b6200379a565b6200441b7f71dac53bc006e9d4451fb0803b8c2ec75bf2b4cc3fa88390a85012765ca8af3d60001b6200379a565b620044497ff10e98a47575e75247950387d1f1f9090653fff0ddae3ead235fbaa3dc6db4d260001b6200379a565b600e60008373ffffffffffffffffffffffffffffffffffffffff1673ffffffffffffffffffffffffffffffffffffffff168152602001908152602001600020600201549050919050565b620044c17f9234e7de9d95cfb85a0d5d9ceca31749875fe7a7ab8e1039e1bdb69897c0e4bd60001b6200379a565b620044ef7fcb0000e85df74b8e73faded7bc309696b8637be517fe208a431026dc41681bd460001b6200379a565b6200451d7f9f90fa1df20f4ce1a43a7c0966e81d49d2adf96631f81a22b5a3311e171b8f3360001b6200379a565b6200452762017e3b565b6040518060e001604052806000809054906101000a900473ffffffffffffffffffffffffffffffffffffffff1673ffffffffffffffffffffffffffffffffffffffff168152602001600160009054906101000a900473ffffffffffffffffffffffffffffffffffffffff1673ffffffffffffffffffffffffffffffffffffffff168152602001600073ffffffffffffffffffffffffffffffffffffffff168152602001600073ffffffffffffffffffffffffffffffffffffffff168152602001600b60009054906101000a900473ffffffffffffffffffffffffffffffffffffffff1673ffffffffffffffffffffffffffffffffffffffff168152602001600073ffffffffffffffffffffffffffffffffffffffff168152602001600073ffffffffffffffffffffffffffffffffffffffff1681525090506200468d7fba35b24037ef6188ca05e26e5e4de7502f083cc51f9259943dec8bf37954ed6360001b6200379a565b620046bb7f63ad4376f230dfb36059bce6acce7c0459e433488ebe34b55cf98adac2be486660001b6200379a565b6000600560009054906101000a900473ffffffffffffffffffffffffffffffffffffffff169050620047107f48d96b0c7dfe451057b8eb00039a74806954f5a461d0a5f7b7fdaf6ae433aaf960001b6200379a565b6200473e7f5152d416d1a10b25e01daeabbdbf6ec616b677de74dda22b5b725624fd9fc5c660001b6200379a565b6200474862017dbe565b620047767f5c86da97da0492408327997ef47500c2fa89bf9d26173edc9bd1daeaaa168a0d60001b6200379a565b620047a47fc79bc2ca87498d9b9b71dafa5e2077f62a7594d24b36f10f7367d5ef3b8461ba60001b6200379a565b620047ae62017def565b620047dc7fec4fcb1e0947caf6cc3c292f61704446f4a4611e95159541d547145feda81b2460001b6200379a565b6200480a7f427ca882a64be6864a41b59069e70f277715084368a8405e8962bca75154215660001b6200379a565b600260009054906101000a900473ffffffffffffffffffffffffffffffffffffffff1673ffffffffffffffffffffffffffffffffffffffff16630fdb11cf6040518163ffffffff1660e01b8152600401602060405180830381600087803b1580156200487557600080fd5b505af11580156200488a573d6000803e3d6000fd5b505050506040513d6020811015620048a157600080fd5b8101908080519060200190929190505050826000018181525050620048e97f942d83938abc79dba173986bb8dfd7cd641372c933e169c7939c62af5e36a2a460001b6200379a565b620049177f4f38a06d3f5913b8a301d6f4dca052c93b9322eb0448cccad4e7fd651ec76eb160001b6200379a565b8273ffffffffffffffffffffffffffffffffffffffff16639bf2f1ac6040518163ffffffff1660e01b815260040160206040518083038186803b1580156200495e57600080fd5b505afa15801562004973573d6000803e3d6000fd5b505050506040513d60208110156200498a57600080fd5b8101908080519060200190929190505050826020018181525050620049d27f833a7a99a86ba571089613280afe6415c2094619746c9b3ebde03226d8f6e9d960001b6200379a565b62004a007feedb02144b32ab6c69e137709a753f62166448b3ecebd34f85525c65afc2312a60001b6200379a565b62004a0f82600001516200b68c565b82604001901515908115158152505062004a4c7ffaa9b06d5e84027b4a77d78611c72adcf24908e9a26fd448b3e64a57bd85ed4860001b6200379a565b62004a797e5b36b674bfd014742a507fbfc34066834cd39f81fbb1dfe0358a315f3c917060001b6200379a565b81604001511562004b2c5762004ab27f7bd274ee6b389d219c789cabcac51b3a75d7bc2d29dad60e8794f56fb83fd44860001b6200379a565b62004ae07fdaec4ddcbdd41b8dbadc9f5c2b412822ffb08970930af0f14b83682531005a5860001b6200379a565b62004b0e7f1b8f7085e8ca8829eda86648a6a1700b5810edc65e02d32109ddfd5b7a35b72b60001b6200379a565b62004b248483600001518460200151886200e3cc565b905062004bd8565b62004b5a7f587337dd3be9860141317e407d169270f64dae67f53358e91bd2e287136d108260001b6200379a565b62004b887fefdcc951ea40c172dd58fb5a14ba92f75b825bf48ecc7646242c995c9fd3496760001b6200379a565b62004bb67f910ba8854469c20f6c29762ef1c41c554ea28dfefff5b43aaa8bbf0af6dc85f360001b6200379a565b62004bd58460000151856020015184600001518560200151896200f2ef565b90505b62004c067fb61ce7c18006b3b47fbbe6262dd7365b75bf37661250fc05a3640132899abe7360001b6200379a565b62004c347fa95117ce78e131e1cd48b473e165c13f4abca763583e7b24e07c64226c69176d60001b6200379a565b62004c627f356a5f117f808dbf53a971d3791548a5e8338fead986be8d1bddc624e7d70fd560001b6200379a565b600081602001511162004cc1576040517f08c379a00000000000000000000000000000000000000000000000000000000081526004018080602001828103825260228152602001806201826e6022913960400191505060405180910390fd5b62004cef7f041e6d4c504c3b1ef0294d04eb9df277e7b85081116b73b0930f499c4a1cbda060001b6200379a565b62004d1d7f8d23f06a747d164a3637f159358952d462f43f08d4149e39db913ef272fa051160001b6200379a565b62004d4b7f1b47dfd9165ee45c069aabe6944046d96a339338627373185761160abc445aa460001b6200379a565b8273ffffffffffffffffffffffffffffffffffffffff1663335525ad82608001518360a001516040518363ffffffff1660e01b81526004018083815260200182815260200192505050600060405180830381600087803b15801562004daf57600080fd5b505af115801562004dc4573d6000803e3d6000fd5b5050505062004df67f831231c6dd0972a5f96d5bdb1cd79e46cefa8e6300de73b935053c96f77e263e60001b6200379a565b62004e247f137d15be40dc8319e7df702857c5203e781a813022ab54844ea9d6ecfbf35c5060001b6200379a565b62004e42846000015185602001518360c001518460e001516200c9e6565b62004e707f095c2a4adf89f0a0b466b853ec38b04ae5e2b49d474bf34c3b0e340ef188f86f60001b6200379a565b62004e9e7f950ad71e1dcc3a08c5a8ce29f6d8eb4cf092662b39cc6ba9c7be49dd4980b5d060001b6200379a565b60008161010001511115620050095762004edb7fd89adcdbe0b6c620001cf2427dcd8089785fbdfdca7141979168fc4cbb39991b60001b6200379a565b62004f097f6165a5d5a042f848140734f1a2c164c9f4e4e79db26d0530933273a4f53722ab60001b6200379a565b62004f377fd12c94cf9a58ed47d81f50255eeb32daf88d77878b48fd9e8154837a284908e660001b6200379a565b836000015173ffffffffffffffffffffffffffffffffffffffff166364a197f3600760009054906101000a900473ffffffffffffffffffffffffffffffffffffffff168361010001516040518363ffffffff1660e01b8152600401808373ffffffffffffffffffffffffffffffffffffffff1673ffffffffffffffffffffffffffffffffffffffff16815260200182815260200192505050600060405180830381600087803b15801562004fea57600080fd5b505af115801562004fff573d6000803e3d6000fd5b5050505062005038565b620050377f91338c0c5a063134c942e3337e5558dc6524d0786fd01e4c1d503ab2eb39950560001b6200379a565b5b620050667f3a085a0abb054e64a3387e6ed05c5cc2d05a71a388194b0234d1c9ec36bcefe460001b6200379a565b620050947fced5900d2eb1f8b9dd6b92b5cf8f0a4a940c4a3f27ca4d81c5310b34bcccbcf360001b6200379a565b620050a8846000015182604001516200d263565b620050d67f8e3c82597416d67537ed7dd202ed690822f44fa9189bdff72b3f89a90550c48360001b6200379a565b620051047fc37af7ab77c87be1e769e5d570073037727601f31f1283de7d0ca8cafc87246a60001b6200379a565b8060200151826060018181525050620051407fb0a5c0787b303188e46f6c3e8573e0c423468a280924e6057d1c0e4b66e47a8660001b6200379a565b6200516e7ff2db0cd7d2a0bcf0133fe4cae1cc395f5d71f5e429a98806fb578f5e9bc613a460001b6200379a565b620051a481610100015162005195836040015184600001516200aff490919063ffffffff16565b6200aff490919063ffffffff16565b826080018181525050620051db7fcb815eb9570cd8737e14c94e1a47f1e0f02b4348aedec969031521715c20c87960001b6200379a565b620052097f93137d719d8914d59e9d0a6c25a80899f6577fe420bf48543dcc9363fca328f160001b6200379a565b7f4152c73dd2614c4f9fc35e8c9cf16013cd588c75b49a4c1673ecffdcbcda940382606001518360800151836040015184606001516040518085815260200184815260200183815260200182815260200194505050505060405180910390a1620052967f3acd823d2c90ad64af9ccd8261eb3c321150344aefc793863b27bbb1d69a044760001b6200379a565b620052c47fd8a6dcedbff477e2012dcc3fe4f557b9b1732c420be2a9d5c6294a665b26127d60001b6200379a565b620052de846000015133836060015184604001516200d610565b5050505050565b6000620053157f4e3ca4dcd7fcfcd644c1572926bb58c9b79998f0023683326c45a0c3a31cc99360001b6200379a565b620053437fb1fe8377fe41f8d9be6289dd8ee299091feb9fb5d7ba400963d270394f291d9460001b6200379a565b620053717f1ee16ad460441265af08dccaa3382d2784cdaea3ed98820ccb617345b1824ff060001b6200379a565b620053856200537f6200dfc3565b6200f938565b905090565b600e6020528060005260406000206000915090508060000154908060010154908060020154908060030160009054906101000a900460ff16908060030160019054906101000a90046fffffffffffffffffffffffffffffffff16905085565b6000620054197fd5b156a085743141cc48d0ba7c576524d46d910d8cf09e1a09ad850cfe86873860001b6200379a565b620054477f681771dfdc8a3e371c43b7c3fdb9781a1db53afefe56bad95451629c724f6c1f60001b6200379a565b620054757fd6ad0d4e80aa9114e4c38759c251b1a1628e7d8129da30425c1e54884e58a36760001b6200379a565b6200547f6200a70a565b620054ad7f8f2b60fd297b2d4f7c69dd63911cab9e9ccd7abe85b494053159e7510da9145460001b6200379a565b620054db7fd9c5b942c095959656994ff9efff660c8fadde517a7a66c8479f163139dca5e860001b6200379a565b60006200553483600e60008773ffffffffffffffffffffffffffffffffffffffff1673ffffffffffffffffffffffffffffffffffffffff168152602001908152602001600020600101546200fa1890919063ffffffff16565b9050620055647f7572680e8e112347006e8fd2ae24b68177cc0f733f384b7463311aef600b54b460001b6200379a565b620055927f81b063218cc67650c3f0c78b6a8e5b3d37854fcfaeb8c41dc4ab44fcf144aca960001b6200379a565b80600e60008673ffffffffffffffffffffffffffffffffffffffff1673ffffffffffffffffffffffffffffffffffffffff16815260200190815260200160002060010181905550620056077f8927273e061e240f1f01494f0d7bba87b0b8ccc189cc117bec2720934ee8dfae60001b6200379a565b620056357f88e6da28b7fc2fbde09d358cb8820f20b40452078c51e8e25e1da17028d88d2d60001b6200379a565b8091505092915050565b670de0b6b3a764000081565b600260009054906101000a900473ffffffffffffffffffffffffffffffffffffffff1681565b601581815481106200567f57fe5b906000526020600020016000915054906101000a900473ffffffffffffffffffffffffffffffffffffffff1681565b670f43fc2c04ee000081565b6000620056ea7fffed618358291ba6891e1754cb73cb764c0581799afe3edc4c8d5e33b5d69dec60001b6200376e565b620057187ff0efb67b0790e4a16906291f0f5b33c4b9e350c5c12e5dc419b35b3e2a7643fd60001b6200376e565b620057467fe39126d6b608bc17f868ee02cec3987f5c9f0eb5a2861fa1ee436805d724101360001b6200376e565b60008060009054906101000a900473ffffffffffffffffffffffffffffffffffffffff1673ffffffffffffffffffffffffffffffffffffffff16635eb52fca6040518163ffffffff1660e01b815260040160206040518083038186803b158015620057b057600080fd5b505afa158015620057c5573d6000803e3d6000fd5b505050506040513d6020811015620057dc57600080fd5b810190808051906020019092919050505090506200581d7fd5c5e3697c84f44fc96c4b00a5092a8a17c44788644672edc404df8b4f33e79e60001b6200376e565b6200584b7fccbc594bc92408b9e1a354fa088e5742270d98347611534f0ec71b706cce5dbf60001b6200376e565b6000600160009054906101000a900473ffffffffffffffffffffffffffffffffffffffff1673ffffffffffffffffffffffffffffffffffffffff16635eb52fca6040518163ffffffff1660e01b815260040160206040518083038186803b158015620058b657600080fd5b505afa158015620058cb573d6000803e3d6000fd5b505050506040513d6020811015620058e257600080fd5b81019080805190602001909291905050509050620059237f2fcafe17cc1fa0b07af62f32ccc025484a46246a27b7f7fda3a9022f884c2ca660001b6200376e565b620059517fbfd7ce3f2a0b31b728bd9f37aef94976a0d07e75cf5275f67bafe240332777d760001b6200376e565b6200596681836200fa1890919063ffffffff16565b9250505090565b60165481565b6200597d6200720f565b620059f0576040517f08c379a00000000000000000000000000000000000000000000000000000000081526004018080602001828103825260208152602001807f4f776e61626c653a2063616c6c6572206973206e6f7420746865206f776e657281525060200191505060405180910390fd5b62005a1e7f439d2539865b80e3d7a73aed3cd2650a5eab0268eea8fd2a845cad44ee74a94460001b6200379a565b62005a4c7f09f338c68b731bac37487c5ce77f5304f2421011bfeb7a9a4004e8e21e87688960001b6200379a565b62005a7a7f161dc3aa0ff5a27b401a741b17cb9150e0298eb281bc004b655ea0da2d8a86ac60001b6200379a565b62005a858b6200faa1565b62005ab37f3cb5923543417fd4a16e546c6ed4f14a8e3e3835f3acb2c2d1cdc569699c082e60001b6200379a565b62005ae17f5048359ff8bf52bdf7bfe8f371fa68268843dfa770bb3ccc23e6e7eada17725660001b6200379a565b62005aec8a6200faa1565b62005b1a7f8416e0dc66c7b336cfbc76496743da8df8c0c897f4c3e8bd154fcdb2ca4485c860001b6200379a565b62005b487f8446e21dabf5dde0ed3e195ac3aeee697403ce0704c4a07a730159ebe4d136a660001b6200379a565b62005b53896200faa1565b62005b817fba51212796b517a2d35536ad04a9f3a4f386f32a9be44e118e72d91da31fc69b60001b6200379a565b62005baf7fbcab577c3ef8aa61ff0868299e99bd3fea249af64c1e59d2aa722068ac94b5b760001b6200379a565b62005bba886200faa1565b62005be87f3250f2f03575c36d76fe92064dbcf069cc2b38e1c4a570b87a96abeea167625460001b6200379a565b62005c167f9fd693ff71cb1b29e8121087ea136467e6bfc1f86d48ff082423d6e023ca5e6860001b6200379a565b62005c21876200faa1565b62005c4f7f8de604b6693a81ea81aeb3fbabc939247160d17e046c6fb6a0025d7fd943868160001b6200379a565b62005c7d7ff0add4aab93950d42a4c2cb8c8db54bcbfa1e4f87d401aaf87efdaf52b6e319360001b6200379a565b62005c88866200faa1565b62005cb67f2254b24074431f99db95b6a03cdb3e3a6d97a93ac2f1d6a489fb60d3025ba30c60001b6200379a565b62005ce47f9d4ddcab7b3dda6af786e94584c152179799621a5490ebb1e5b231900a0d9d4260001b6200379a565b62005cef856200faa1565b62005d1d7f91cd48537ca117205fe041f6c23a726e9c6457595be264cf848c2c19edabab5260001b6200379a565b62005d4b7ff3866b5091506938a70c660a8e2a25f2543a17d5564674380634c7ec23568c7160001b6200379a565b62005d56846200faa1565b62005d847fa84ca1616a3cc70bfa8fe7754d0f356f51a36c1edf31cb089031034bf4fa8dc960001b6200379a565b62005db27fa2201111afe82bb35337aac51294da7415c3cb625c67b03cf909b67113b412fd60001b6200379a565b62005dbd836200faa1565b62005deb7f5a1d2844d163816457d23d78b004a2f3d1f01251b6d51a97065716b709ea1d2160001b6200379a565b62005e197f80e634d54c2543b4fc93efbd44cf00693d6e52ae4c790950be956d9e1604676060001b6200379a565b62005e24826200faa1565b62005e527f71a37170a2be6815bc4ab1ac9060865f87080bc4c4e0db37c87c8c01a94d9e5360001b6200379a565b62005e807f9f5126d9d305d0e8ee6d8532573ff756101b269ed4b30e34233dd2ae0b939a2460001b6200379a565b62005e8b816200faa1565b62005eb97f4e4272320eb00880987374acc3c808f0df9ce43e9d15064e588214549fd2624c60001b6200379a565b62005ee77fa281e9fd5065f7af227b19a256d3efbe67214d4a03232c36450a843d548b095660001b6200379a565b8a600460006101000a81548173ffffffffffffffffffffffffffffffffffffffff021916908373ffffffffffffffffffffffffffffffffffffffff16021790555062005f567f8e5165dbb3e30525fb99f3ca2030bb7e7b778c9357579c20d41db790304dbf4760001b6200379a565b62005f847f1ba85fee02a24f0bd84801c523737ff716d0f145b04881423ea21240487dfc2660001b6200379a565b896000806101000a81548173ffffffffffffffffffffffffffffffffffffffff021916908373ffffffffffffffffffffffffffffffffffffffff16021790555062005ff27f1e2b09618c075fe11f5ba7029cb34599a92c168b5d689fa896f014633a499d6860001b6200379a565b620060207fa9d812611c00c072d7a7d099b17e9faaffed5a7e791f79005b5e74d987d6788d60001b6200379a565b88600160006101000a81548173ffffffffffffffffffffffffffffffffffffffff021916908373ffffffffffffffffffffffffffffffffffffffff1602179055506200608f7f5ed7d94675d8b929b23e8e0416a62f3fa40e358f067381dcd2c3e077a9f2223a60001b6200379a565b620060bd7f4467e5a86fae851546dfc8ad9299a059138c3de66dec4a2705b5e7ed2c5ea63260001b6200379a565b87600560006101000a81548173ffffffffffffffffffffffffffffffffffffffff021916908373ffffffffffffffffffffffffffffffffffffffff1602179055506200612c7fecaed68cdd3028cc94e2fba0887a036be1f33123e232b77d1068e2ce7dfbd12660001b6200379a565b6200615a7f4b7cf345f3c7517db192daf4fe81c26c4bce7c60797037918655da6a1b60159a60001b6200379a565b86600660006101000a81548173ffffffffffffffffffffffffffffffffffffffff021916908373ffffffffffffffffffffffffffffffffffffffff160217905550620061c97f05207c82fb4b1b2b7d0187318897434a2498d5f6dac1a34853fe253715adf7c560001b6200379a565b620061f77f573d50fa307f574c7e9e0a3c8339f5f3d6045e160a28b5b3b8e8909c325a062560001b6200379a565b85600760006101000a81548173ffffffffffffffffffffffffffffffffffffffff021916908373ffffffffffffffffffffffffffffffffffffffff160217905550620062667f1ba97ca9abc662d8dcb2af2c30d3f76ea05d25f1549163f63ed72d83f904c26f60001b6200379a565b620062947f3919376eb2c20a4e93db576038b4813cad0286c56ecee838276753967cb7bda860001b6200379a565b84600260006101000a81548173ffffffffffffffffffffffffffffffffffffffff021916908373ffffffffffffffffffffffffffffffffffffffff160217905550620063037f289382c0acc72c83cdc85cee4f56ca929d403ee0ce6ddb4873783f9cffe5e61a60001b6200379a565b620063317fde6a3373fc7c1609b541fd7b51fa3eb2895aba60bc3e60bc86672fdff12d459f60001b6200379a565b83600860006101000a81548173ffffffffffffffffffffffffffffffffffffffff021916908373ffffffffffffffffffffffffffffffffffffffff160217905550620063a07fd7a413c63def200d8d1d66ac9985daf12c44bc81580201c764bc7fcb064cd42060001b6200379a565b620063ce7f4ed06d49d7ff7c05dafde0a1457e72fffb1cd9434f58ca75c3547c377891d4b860001b6200379a565b82600b60006101000a81548173ffffffffffffffffffffffffffffffffffffffff021916908373ffffffffffffffffffffffffffffffffffffffff1602179055506200643d7fa8b34677304b6578fe1caa9b9624c9fb5b7c0482d98f75d13222d910bb4f7b3160001b6200379a565b6200646b7ffe24d4521d868007df601d65798a62e8ec06bc32c95697d532c6a408dbbc5f8960001b6200379a565b81600960006101000a81548173ffffffffffffffffffffffffffffffffffffffff021916908373ffffffffffffffffffffffffffffffffffffffff160217905550620064da7f293c9d137fd43ae24414559807a2356abb7cff50c138418f707bfe4cf5d9813360001b6200379a565b620065087f40901b7d8ef2a8d511c9f2a611722a40a175c750704a2fdc354a8589992edcfb60001b6200379a565b80600a60006101000a81548173ffffffffffffffffffffffffffffffffffffffff021916908373ffffffffffffffffffffffffffffffffffffffff160217905550620065777fc9f21c111a94de0fbbd8da594f64e2c6a3c08ac5da6f09cac6424d5e73e1487460001b6200379a565b620065a57f16fe7ba5d20fd40454fae05c6c4b12a1990c54a6edb5c81ff2296f12bbb18d6d60001b6200379a565b7f3ca631ffcd2a9b5d9ae18543fc82f58eb4ca33af9e6ab01b7a8e95331e6ed9858b604051808273ffffffffffffffffffffffffffffffffffffffff1673ffffffffffffffffffffffffffffffffffffffff16815260200191505060405180910390a1620066367fa0ea163e906d7a0871b611fc801b54dbc12bb4467ae714f714894c7920f38dc060001b6200379a565b620066647ff7a1fdd3e23b3338ecd45e6a94386b7c4eddd5fdf6131ab20847f0c9fb80ef6360001b6200379a565b7f78f058b189175430c48dc02699e3a0031ea4ff781536dc2fab847de4babdd8828a604051808273ffffffffffffffffffffffffffffffffffffffff1673ffffffffffffffffffffffffffffffffffffffff16815260200191505060405180910390a1620066f57f79715f53aff60cc874a591a8795946757b201d2d1316d299175afec9732be6ae60001b6200379a565b620067237f6bc71ddb2a01edb264c277022ddc0b35dc559bc78e9e622c0457f8a9aa2cfbc260001b6200379a565b7f5ee0cae2f063ed938bb55046f6a932fb6ae792bf43624806bb90abe68a50be9b89604051808273ffffffffffffffffffffffffffffffffffffffff1673ffffffffffffffffffffffffffffffffffffffff16815260200191505060405180910390a1620067b47f2fd698dba88abfbd1e37a9df0c61dbb7bdf0f590ad2fe36467e84a69a59d8b6860001b6200379a565b620067e27f096f40b39cb102c0fc7e8f5e308e369195ac837686daf98ad8f13bb9cfd7df6160001b6200379a565b7f82966d27eea39b038ee0fa30cd16532bb24f6e65d31cb58fb227aa5766cdcc7f88604051808273ffffffffffffffffffffffffffffffffffffffff1673ffffffffffffffffffffffffffffffffffffffff16815260200191505060405180910390a1620068737fe95bdb6f461d305f2ba33e38ea85273dfc93cde6bfa322db95ccc5c4eb0deb7960001b6200379a565b620068a17fed6567c01d51aa8cb92df77828443b7c7280f247893228ff484db1f79c7ae4b160001b6200379a565b7fcfb07d791fcafc032b35837b50eb84b74df518cf4cc287e8084f47630fa70fa087604051808273ffffffffffffffffffffffffffffffffffffffff1673ffffffffffffffffffffffffffffffffffffffff16815260200191505060405180910390a1620069327fcfe59131fcc09d4bc03b744c75aa8285916c89e439da159312549676d9df7d4d60001b6200379a565b620069607fd6855da0fa10b3dd7373a01bb9806169f95d9f93b33e4e419e8f6dc3c1d2b22860001b6200379a565b7fe67f36a6e961157d6eff83b91f3af5a62131ceb6f04954ef74f51c1c05e7f88d86604051808273ffffffffffffffffffffffffffffffffffffffff1673ffffffffffffffffffffffffffffffffffffffff16815260200191505060405180910390a1620069f17fda2bd2dbb0ca741d6ff624a985bd4c2d7c5708b5a93024cf781f6c67e5fe7be660001b6200379a565b62006a1f7f25df57c2ec8e7008a76883e1017cfc82fcbb98043c3bbf3dd8ea69bf271e204a60001b6200379a565b7f8c537274438aa850a330284665d81a85dd38267d09e4050d416bfc94142db26485604051808273ffffffffffffffffffffffffffffffffffffffff1673ffffffffffffffffffffffffffffffffffffffff16815260200191505060405180910390a162006ab07f48866a3460a9849afed07c8e85547565acb94dedfbd699ce6ad94618914728d760001b6200379a565b62006ade7fffb2b72901de46be572d2047f2d354baface2b76f6d226ff4a43e0f02d58008560001b6200379a565b7f227eec0ec317af6ab1a9587ffa1c84332522eb4c583a908f89babc05f8f339bd84604051808273ffffffffffffffffffffffffffffffffffffffff1673ffffffffffffffffffffffffffffffffffffffff16815260200191505060405180910390a162006b6f7f69ce03fc3851defb4e63c68e181e16e7986f7d0be9f59fa924939cce8bf4e1fb60001b6200379a565b62006b9d7f5b4833bc84ecd9b7e6a8d78e95151286374a19c93f0854633825a798c19208af60001b6200379a565b7f65f4cf077bc01e4742eb5ad98326f6e95b63548ea24b17f8d5e823111fe7880083604051808273ffffffffffffffffffffffffffffffffffffffff1673ffffffffffffffffffffffffffffffffffffffff16815260200191505060405180910390a162006c2e7f326987600b39dd46fe47ac17656bdacb366ef1b08d8a3ffbe0754a343ea431ca60001b6200379a565b62006c5c7f8b4f9b34e2f15df7fac351ac285b2f9474ee2eba3667425b7b199b227e7c9f2f60001b6200379a565b7f2ac6e99201ddc1b6eac6f8f28662d1ecafee131f6eb98c29de54528a9888a7d182604051808273ffffffffffffffffffffffffffffffffffffffff1673ffffffffffffffffffffffffffffffffffffffff16815260200191505060405180910390a162006ced7f470ec746dbe2bb2dfeeaed985fd28d2ecb1ce185d965d56f6eab0a747a085f4160001b6200379a565b62006d1b7febb72d3949b400d8c69222b01aa3d5c0a79a147b44d16e9ddd85460dc2a7832f60001b6200379a565b7f756ebc192164c295bba134b5aacd72cc7aff8098a670d1f0a5f6b3a0b4ce670781604051808273ffffffffffffffffffffffffffffffffffffffff1673ffffffffffffffffffffffffffffffffffffffff16815260200191505060405180910390a162006dac7f867ff28d3b56c00ce437b9c7677f27bc9e8c8330a9788fe1e35dc902fc45d40e60001b6200379a565b62006dda7f6a8841087e8f238dba87f2cf45c8c67652b738cbad7c7ce03881a4099d27f9bb60001b6200379a565b62006de46200fdee565b5050505050505050505050565b6000809054906101000a900473ffffffffffffffffffffffffffffffffffffffff1681565b60105481565b600062006e2b8484846200feaf565b90509392505050565b62006e627f989fbf9bee7f5887feda0b9cedfaaad068fb55f4cf79884e036786d9668a3f0160001b6200379a565b62006e907f4f72d27990d5d59b4c2e2f7855ca21aa694becc2b1fa1ffbe27ab5454d0ff24460001b6200379a565b62006ebe7fec9448b34b999b15b857231a58a90ccb1b5af94cedd7240f63543bcdc03cf11f60001b6200379a565b62006ec86200a70a565b62006ef67f70e9935945d7b8e69893962563eafc13cebd555642f8c6f773027ba1e6f6ca1060001b6200379a565b62006f247fab7d82ae0c664acbc11ab6fc6b85e1044baf1bd479817af49276a0e7c28d466c60001b6200379a565b62006f2f8162010117565b50565b600062006f627fb66d50006e73330003d2aebca2677ba754a744532fcb120e1bf38e30d4354e9660001b6200376e565b62006f907f7a243f0c01ac2eddb6f889adb5b25d20b6c77d0a71089b4e4a05e6f5dd04449c60001b6200376e565b62006fbe7fd9be4bb93a2c9d4022ac92258e5938de98f2fa4913238b33509b201c9962a88160001b6200376e565b60008060009054906101000a900473ffffffffffffffffffffffffffffffffffffffff1673ffffffffffffffffffffffffffffffffffffffff166314f6c3be6040518163ffffffff1660e01b815260040160206040518083038186803b1580156200702857600080fd5b505afa1580156200703d573d6000803e3d6000fd5b505050506040513d60208110156200705457600080fd5b81019080805190602001909291905050509050620070957f26cd0bc42cbc160aba08644d1ec6607da3df5acdbbe9f5cb1f876046b51125a860001b6200376e565b620070c37f07394f73b57effa5c0d06a28a34d8caf7f9c8e6f1ecd533143cd3adbc06c207560001b6200376e565b6000600160009054906101000a900473ffffffffffffffffffffffffffffffffffffffff1673ffffffffffffffffffffffffffffffffffffffff166314f6c3be6040518163ffffffff1660e01b815260040160206040518083038186803b1580156200712e57600080fd5b505afa15801562007143573d6000803e3d6000fd5b505050506040513d60208110156200715a57600080fd5b810190808051906020019092919050505090506200719b7f46fe5e72681624df8f86211f619d0ca55960a48139a032d491c65f9e9ead8e4560001b6200376e565b620071c97ff21ef2b4f180cbc00adb9efe704164ccc70207bf69042044214909b91d55604960001b6200376e565b620071de81836200fa1890919063ffffffff16565b9250505090565b6000600360009054906101000a900473ffffffffffffffffffffffffffffffffffffffff16905090565b6000600360009054906101000a900473ffffffffffffffffffffffffffffffffffffffff1673ffffffffffffffffffffffffffffffffffffffff163373ffffffffffffffffffffffffffffffffffffffff1614905090565b50565b60115481565b6000620072a07f5c1a065700330d8bdd101d7c5b64f0531ac11aa0dccf39d725fe7ecc2048fac360001b6200379a565b620072ce7f8155abc62c3acb3475fea7c60c163650b8d353254853975c7581adb5765ce69360001b6200379a565b620072fc7fe50bdf7a3bda4b33bd30aaccd6b30accdabe7bdb07c744e1f91e71aea6f86d6b60001b6200379a565b620073066200a70a565b620073347f5b5d049cc5a125e401d4e2a76aa2a9247f0d0a36645b21cc8356042ffacee0a760001b6200379a565b620073627fb4c911d9941b8bd5dfdd5d009ce6bfc1d1e0ed583608eae08397a7aad9f73aaf60001b6200379a565b6000620073bb83600e60008773ffffffffffffffffffffffffffffffffffffffff1673ffffffffffffffffffffffffffffffffffffffff168152602001908152602001600020600001546200fa1890919063ffffffff16565b9050620073eb7fdec97aa773f6fa032e5b43af21e279e9eff12582f6245d1bfca39408db0f9f4f60001b6200379a565b620074197febc39ad6961d8fbf94f13ad2250f267102353faa2d5d15b67d71904d6ba59b0d60001b6200379a565b80600e60008673ffffffffffffffffffffffffffffffffffffffff1673ffffffffffffffffffffffffffffffffffffffff168152602001908152602001600020600001819055506200748e7f72fbf6db8a58eb0de2d019f148e9840cb79efbaff66fcd5c9897f1dbef07afc760001b6200379a565b620074bc7fae74d6df779164900afb5f6d5081acb4cb8035f131bc3c35c018cf73a066ac9760001b6200379a565b8091505092915050565b60125481565b670de0b6b3a764000081565b600a60009054906101000a900473ffffffffffffffffffffffffffffffffffffffff1681565b6040518060400160405280600c81526020017f54726f76654d616e61676572000000000000000000000000000000000000000081525081565b6000620075448262010331565b9050919050565b600b60009054906101000a900473ffffffffffffffffffffffffffffffffffffffff1681565b6000620075a17fb5e00bff440b5d5b99f57e4d16e4bd43d53c826cf00221be713eb4036ed4ad2160001b6200379a565b620075cf7faee6bbcf263d569bfc31e2e940b9b93d0ccaee61578cbd102ced4ff4c36695d960001b6200379a565b620075fd7fed08ae41b6f36c133af055ab6897467b250287670d7719f2276e72d8fac08a7a60001b6200379a565b6000806200760b84620103d0565b915091506200763d7fc0ae53cad528123d289b4ac184e7d4fe54139ea4592c8b843040c8963b19891660001b6200379a565b6200766b7ff511fd8d953f800dcd358b4880141fe335a29591439461696949ae6aedd2d4d160001b6200379a565b6000620076798383620106b0565b9050620076a97f931793abd331a6851a55e145831ba750c5758d47e7841d56f44e0f733a58617d60001b6200379a565b620076d77f417484acc67beb6eac30f7c56867c3a3382c55929c92b13876fc1bc942409c4160001b6200379a565b809350505050919050565b600460009054906101000a900473ffffffffffffffffffffffffffffffffffffffff1681565b6000620077387f4b5f5d82f06454c7f2a7e792dbe7b1d1c998f47ba162b50255c021eae684595e60001b6200379a565b620077667fa8e901a219c02285a5d6bd555f1922fb320f4d0031688ac8bcc8222ba68388f160001b6200379a565b620077947f9c55bd9867930fa90363885d95b4facff419ce5afc29ea3010ab284257721d9b60001b6200379a565b6200779f82620108be565b9050919050565b600860009054906101000a900473ffffffffffffffffffffffffffffffffffffffff1681565b600080600080620078007fc3ac9262ad254055eed39f4e98568e3edbee38ce872a8953e61483b931eedfa060001b6200379a565b6200782e7f4f416b34e973bfa08620a7533dbac47ed178ffe769172f3badc33ab3c0cbd32460001b6200379a565b6200785c7fc98caa4bc7d69064ec0f3c2985da8e2a288bdcf10e9d38e71870124e805632ea60001b6200379a565b600e60008673ffffffffffffffffffffffffffffffffffffffff1673ffffffffffffffffffffffffffffffffffffffff168152602001908152602001600020600001549350620078cf7f3a84a9c1fb6dfe62b8acda93cb04852ee83e16a951955ee16bbc1268eee999fc60001b6200379a565b620078fd7f0dd13e33c0eafac908fde82f8b0af283a1c1222832a36452f3c212b979645d6260001b6200379a565b600e60008673ffffffffffffffffffffffffffffffffffffffff1673ffffffffffffffffffffffffffffffffffffffff168152602001908152602001600020600101549250620079707fd2618cc590c104f5515d92c6231d13cc76b98eaf6f2d5de6ae22bd4374a611ad60001b6200379a565b6200799e7f26fea6517f9cac31e6895d591598b5ce73e6e23f459e591033da97ba2b2696fc60001b6200379a565b620079a9856200a0e9565b9150620079d97f91d20bd3a64edfe0e4bbe6f45a1699c73751f8547c5e3a3b1b23d518dacbc24560001b6200379a565b62007a077f3d7d088ac11eaf62c314d38f17516e5c0e989bbd3798881f32e55c1686a7b65560001b6200379a565b62007a128562003bed565b905062007a427fa2756fb7fad4495372698250cff22eca0d4728502fd8b2725ddb3e081e1d433460001b6200379a565b62007a707f1f254db790e30e6b978236af4a0d3926d86648f2ebdd4a879cbb49bdb2719f9460001b6200379a565b62007a8582856200fa1890919063ffffffff16565b935062007ab57fbd284b70f7a071f076d768940b243623c7e50080ef8a5c17c6fa654defc3b39b60001b6200379a565b62007ae37fe397d9c87cdc32dee9e6a4d111f689345d3595825e70de51c6321a6732fa440860001b6200379a565b62007af881846200fa1890919063ffffffff16565b92509193509193565b62007b2f7fb3e43aa1d257e101ffa59a80e3fa216e73d6fc2089d8b7325043fa095689dd1060001b6200379a565b62007b5d7fd1db96cbea32ed16cdc5191a6231420f38ca4ff209a90880988334a15de1320860001b6200379a565b62007b8b7f8d915a949448a66f662353f65eda17994c81a66e9c6acadf60087e39749217b960001b6200379a565b62007b9562017e3b565b6040518060e001604052806000809054906101000a900473ffffffffffffffffffffffffffffffffffffffff1673ffffffffffffffffffffffffffffffffffffffff168152602001600160009054906101000a900473ffffffffffffffffffffffffffffffffffffffff1673ffffffffffffffffffffffffffffffffffffffff168152602001600860009054906101000a900473ffffffffffffffffffffffffffffffffffffffff1673ffffffffffffffffffffffffffffffffffffffff168152602001600a60009054906101000a900473ffffffffffffffffffffffffffffffffffffffff1673ffffffffffffffffffffffffffffffffffffffff168152602001600b60009054906101000a900473ffffffffffffffffffffffffffffffffffffffff1673ffffffffffffffffffffffffffffffffffffffff168152602001600760009054906101000a900473ffffffffffffffffffffffffffffffffffffffff1673ffffffffffffffffffffffffffffffffffffffff168152602001600660009054906101000a900473ffffffffffffffffffffffffffffffffffffffff1673ffffffffffffffffffffffffffffffffffffffff16815250905062007d7f7f51ed394bba2d539a13f1ce15e060d0d76637faa86ccdb3c4021acb97da28488f60001b6200379a565b62007dad7f051ce29ca68bb3419dda7a03df73d9cd584dd8a1992b012c4a9ef6dfc5e788c160001b6200379a565b62007db762017f12565b62007de57f52d37271cb49f3468016886e5dc5a1b5e25f29cf339212038b9438021633ced760001b6200379a565b62007e137fc180a9e4957fa3cb148ad38ffabab1071be5d5a52d382f46ebf091f29d87945760001b6200379a565b62007e1e8362010a93565b62007e4c7ff55c24c21cc52de502f97f9bcc9d11812df74ca8fa4255d66c80d7ac2784074c60001b6200379a565b62007e7a7fa9d1bbbb63e0163fc788ebb741700f74fba48890305491e340edf86e97433d5c60001b6200379a565b62007e8462010c03565b62007eb27faf942e1edc97f498f027969cde7fba188ec410ba930b487d97cb19f330687b7d60001b6200379a565b62007ee07fed37a027ef10fe87fb05cfa4a42b511037ddb5f707a2117d30999239a4b7fe6860001b6200379a565b600260009054906101000a900473ffffffffffffffffffffffffffffffffffffffff1673ffffffffffffffffffffffffffffffffffffffff16630fdb11cf6040518163ffffffff1660e01b8152600401602060405180830381600087803b15801562007f4b57600080fd5b505af115801562007f60573d6000803e3d6000fd5b505050506040513d602081101562007f7757600080fd5b81019080805190602001909291905050508160c001818152505062007fbf7f0463668e844d6705467d1d5292fc1ae35164c6fb1a41cbe2351dec2ad2eab73060001b6200379a565b62007fed7faa147147c8937b7f947226c5f01c1051fb5d16b62aee48dbb951350694cff2e760001b6200379a565b62007ffc8160c0015162010e64565b6200802a7fcf0245901864d520380991e50fbee1b68747e74595ad1d928e4f2ae163c6773960001b6200379a565b620080587f0404f0f35051883938993b63919d0cda329bd7d772f3c1b575278f6184db5fc960001b6200379a565b620080638962010fba565b620080917f4586d7a8c5a07aa8737c85eeb5333526bda0a798f09aed6d6b3a7d8ec5ea4da460001b6200379a565b620080bf7f7ea8425f8b3fc59f2e757b0e66aed05070244254cbf4957f4f292bd9e98ab52760001b6200379a565b620080d08260400151338b620110fe565b620080fe7f66423a0970fea67a508baf481e0d86ea7054f89b0b3e92426577db2ad9a8672c60001b6200379a565b6200812c7f111a2a21040e07ed1f8879fd5f00b4cbd856307b321989140040549c3b5ef3e960001b6200379a565b62008136620056ba565b8160e00181815250506200816d7f95a087bd1e069ffa77135f0dacf4a3f62d680912ebcbc5853b17396d2caa2d8960001b6200379a565b6200819b7fddf049c09c2a45cd9c1c60c2553bdddd2edf20760d3daae710008ce4a37c1bb260001b6200379a565b8060e00151826040015173ffffffffffffffffffffffffffffffffffffffff166370a08231336040518263ffffffff1660e01b8152600401808273ffffffffffffffffffffffffffffffffffffffff1673ffffffffffffffffffffffffffffffffffffffff16815260200191505060206040518083038186803b1580156200822257600080fd5b505afa15801562008237573d6000803e3d6000fd5b505050506040513d60208110156200824e57600080fd5b810190808051906020019092919050505011156200826857fe5b620082967f4e5dd0d9c3e206490192e94686825dd13decd22799a78c47f8ae0d679d95635c60001b6200379a565b620082c47f92af6395f503a37805ffe9f4915ff71e15cfa947b08cc5628479d8ea71aa534760001b6200379a565b88816000018181525050620082fc7f8bb5f7112984d3e0b98c990a6f4ab45c04fdfb100c461a44e569ecc1ca913ccc60001b6200379a565b6200832a7fc98331b6b5d0ef68c1ce881684bd5edb24b9bca812ca1e85fe7212c8076b36da60001b6200379a565b60006200835a7f975a2f6b2394e2c77d16185ce0b8f25517d3517f55ce6528d570d6ebd4a3d7d960001b6200379a565b620083887f60b6c79d7f9fdb75709553f88cb7b37a951f80859fe92e65e9940a065bd3ee8c60001b6200379a565b6200839d83608001518a8460c00151620112fe565b156200843657620083d17f44e1829a6654d1bab5f247684c72d167953404c0eccec7bf37c29186e3aa43bd60001b6200379a565b620083ff7f7ef116bd4648352545a0e14621d5ecc7f26b749c25230d70aff37fdc910205ca60001b6200379a565b6200842d7fbc9f7e60dcd767f278d84a04e0a198ac0d061143755e4dcd2ef9c212f2bb50f460001b6200379a565b88905062008725565b620084647f4e98a439ad3f149b87ec666448f14548e5744ce54dd4f592070da193b1d81a3f60001b6200379a565b620084927f4231fc2c96bc160ddb706a50fa2391939490cb071313521ca2dec559f0c0f46860001b6200379a565b620084c07f24bdfd5079a179d96f9407d72d1b024d5327112bae0487af7cc56dacef4c1e5a60001b6200379a565b826080015173ffffffffffffffffffffffffffffffffffffffff16634d6228316040518163ffffffff1660e01b815260040160206040518083038186803b1580156200850b57600080fd5b505afa15801562008520573d6000803e3d6000fd5b505050506040513d60208110156200853757600080fd5b81019080805190602001909291905050509050620085787f685a23b26f4ccd6a9db868886236feceb695d8a17197a733b536456b43e455d860001b6200379a565b620085a67f709970804315f3c5d46850f7a36be912de264b9f5a31a53c160a50cf2014077f60001b6200379a565b5b600073ffffffffffffffffffffffffffffffffffffffff168173ffffffffffffffffffffffffffffffffffffffff1614158015620085fb5750670f43fc2c04ee0000620085f9828460c001516200981b565b105b1562008724576200862f7f5ef2d281006a6cd5fa2efbb137c7f39493cb04bbd252cdcf31a819e8253f898b60001b6200379a565b6200865d7fb61841b76c18e8a5849045d8c7e3b8ca2ad31b94f1377af4fa14f6640ae4e19c60001b6200379a565b826080015173ffffffffffffffffffffffffffffffffffffffff1663b72703ac826040518263ffffffff1660e01b8152600401808273ffffffffffffffffffffffffffffffffffffffff1673ffffffffffffffffffffffffffffffffffffffff16815260200191505060206040518083038186803b158015620086df57600080fd5b505afa158015620086f4573d6000803e3d6000fd5b505050506040513d60208110156200870b57600080fd5b81019080805190602001909291905050509050620085a7565b5b620087537f40861cf6b0895054f2a5d716931c0afd17111053ecd72186f1db0494ee75126b60001b6200379a565b620087817fbcef1c1f49d368b9c4002ca1b3812ed9ac1aab2e5a0723e3587b313b0ae465f360001b6200379a565b60008514156200881057620087b97f3eb3651990146cf610dd1d6a6c524a0afb59983d9c5c904f9336a41481c9eb9a60001b6200379a565b620087e77f947a93f964476e0d0fed1d12065b68e469885a3fd7119d8fe291456af021059660001b6200379a565b7fffffffffffffffffffffffffffffffffffffffffffffffffffffffffffffffff94506200883f565b6200883e7fc1033410d0b57fb760e7d20f6d90105da82cea08d6b12bc3254370bf5fb285d460001b6200379a565b5b6200886d7ff8a326ef200d17fdda4e4e6f22d8c8d3732f197d75aab999060734c23da80d9e60001b6200379a565b6200889b7f2d4b677b1106707e47270439e63d90d9b6e539c709aa05926f2a0fb8f206f17160001b6200379a565b5b600073ffffffffffffffffffffffffffffffffffffffff168173ffffffffffffffffffffffffffffffffffffffff1614158015620088de575060008260000151115b8015620088eb5750600085115b1562008df1576200891f7fed0b11951beca9442c6d1d1544fa19a4cbe44984fc859af2924b74b319e4a2f260001b6200379a565b848060019003955050620089567f439688d1027fcd39c3f43d5e6bce5350dc401bbc61c75f51fc8ee53fbba7b0dd60001b6200379a565b620089847fde8aacca42bb4f6bb5b8e1a80e4ec309087d7eae4d7c07dc340248e575ebccc260001b6200379a565b6000836080015173ffffffffffffffffffffffffffffffffffffffff1663b72703ac836040518263ffffffff1660e01b8152600401808273ffffffffffffffffffffffffffffffffffffffff1673ffffffffffffffffffffffffffffffffffffffff16815260200191505060206040518083038186803b15801562008a0857600080fd5b505afa15801562008a1d573d6000803e3d6000fd5b505050506040513d602081101562008a3457600080fd5b8101908080519060200190929190505050905062008a757f399523ae6cae02e74041d28ef0c456ea5c9b5da6e7ff0ba7f70328b9370cfe0d60001b6200379a565b62008aa37fc4d1a09abb07ca077bf15f776f318f029cf01030b42af581bb69c07f653bc48b60001b6200379a565b62008ab884600001518560200151846200a89a565b62008ae67f97b45b059a0807dbe2e2122d9a7ea3002987a993d840eb68df81fc52546a07a560001b6200379a565b62008b147fba8a424c6d8ddd4a0b25d6fcc0b4b49ef464d3ecf2ffa721bca19598e0eee9df60001b6200379a565b62008b1e62017f57565b62008b37858486600001518760c001518e8e8e62011734565b905062008b677fb5df6ae8f5b7c2db1d9231bd7ae8ec5937a21293099f702b866851f975e34b4160001b6200379a565b62008b957f6b61b5c8df3bf4ddc65bb2b1909076c2a8bb2f73657bae60b53ee747b98985c460001b6200379a565b80604001511562008bd65762008bce7f43a5288adfcc6f77a867be3bde882a83125075f67e659953aeba32c36d77a6b460001b6200379a565b505062008df1565b62008c047f03028ba81389fe1c38f15746c5c059dc7b3f7ffea41bef8577944b49a88b743a60001b6200379a565b62008c327f4a328a4eddc59a3caa98207f6f278842160ac630dd76172afc840b2e8365bbbf60001b6200379a565b62008c607f437c489f15172af45d8e813c3d7542d67c9445b9cecd276d7ade2c5ff8caa5b460001b6200379a565b62008c7d816000015185602001516200fa1890919063ffffffff16565b84602001818152505062008cb47f078df373141d5012dee867ff7dc97e54f9039fb4068f82aa0b71e810b54ba0c360001b6200379a565b62008ce27f56f0713d609c1bf063720d35cfbe93139c78ba4f51cd65e3a8b6dc1c3549eff560001b6200379a565b62008cff816020015185604001516200fa1890919063ffffffff16565b84604001818152505062008d367f627bf7ec6ce51eb12d388b3f126d26b7346b2c038b89d96a9bcadf2135d172be60001b6200379a565b62008d647f939460a8ce5cb1001188a90c9d0b4757a05f0fd4695018e14b99bad5cc1c154060001b6200379a565b62008d81816000015185600001516200aff490919063ffffffff16565b84600001818152505062008db87fc6375ffc1156926ef722cca43502416321fcd08dc9ca8a3c08a8964f2fe5907160001b6200379a565b62008de67f3a8b67a55f08ca96e22ec0c1f4e8ebdbd7bfc8eaa9045b96e0aede1521d4817e60001b6200379a565b81925050506200889c565b62008e1f7f1db0b9f5776881936aec639b68395913914f31b94720ad1d603deb5168092ffd60001b6200379a565b62008e4d7f20247f812d3084cd06ce860d916dbbed801254cacd1627f92a6b98c55ca5e3e460001b6200379a565b62008e7b7f552d1b3f7e0f75a3da1beff787efee1fe05f92c436e1fad88d782554519bd8ab60001b6200379a565b600082604001511162008eda576040517f08c379a00000000000000000000000000000000000000000000000000000000081526004018080602001828103825260298152602001806201803d6029913960400191505060405180910390fd5b62008f087f1a76ab8d1caa6c24f63866c635c1a4be81297dc8df4b91e9a1f0dbcd3bfd5d7d60001b6200379a565b62008f367f4f1f51f2655bfd81e5cb659f97302a680182b8489ab2099d4d5e074607c4484260001b6200379a565b62008f647faa0f279731086664e1f4227244f1478ace9d9cf5f8c04d40f800e8fa92e5741460001b6200379a565b62008f7d82604001518360c001518460e00151620123ed565b5062008fac7f86ec5d28dad688dae5eedcabce58062938b92374f99928fe28d592b61f4c00e160001b6200379a565b62008fda7ffc17288f46f00d7da5b190442d807a3c8519b8832b703cb3fdd3adf939067a8260001b6200379a565b62008fe9826040015162012838565b826060018181525050620090207f467987bf88bc36f05dd1dd9d6e5bb9e8930ac0ddcec0b3b2683e1038e1fe5cda60001b6200379a565b6200904e7fbda47a1af819b3e029d3d188284575d9dfcffeffcf31598fefe54840708626b260001b6200379a565b620090638260600151836040015186620128e0565b620090917f6b87e205ba4308ce00a973af2df1695eb85f293cbb8d5cacba4f44633753b41b60001b6200379a565b620090bf7fdcead1675c7fbd026fea4b9014d506ac09ed210cee5b09ac34525533b6c8c58460001b6200379a565b826000015173ffffffffffffffffffffffffffffffffffffffff166364a197f3846060015184606001516040518363ffffffff1660e01b8152600401808373ffffffffffffffffffffffffffffffffffffffff1673ffffffffffffffffffffffffffffffffffffffff16815260200182815260200192505050600060405180830381600087803b1580156200915357600080fd5b505af115801562009168573d6000803e3d6000fd5b505050506200919a7f83812ecbf6161919c64c7aa59281d87900b6c7c935b4ff7da8b7a00f122bf3d360001b6200379a565b620091c87f77fb707f8636adcb75102811ac8e1710a34cdb6ed1b306008926ad8a6d83514960001b6200379a565b826060015173ffffffffffffffffffffffffffffffffffffffff16631e3e2a1a83606001516040518263ffffffff1660e01b815260040180828152602001915050600060405180830381600087803b1580156200922457600080fd5b505af115801562009239573d6000803e3d6000fd5b505050506200926b7fc59d580ada4ed2a098d72e2b072288df4b84505670ab3573bc821dc524f0994760001b6200379a565b620092997f1030ccffe944d57250b30d2b564fbe21d5b163fca7892828343abbe20010bd4360001b6200379a565b620092b6826060015183604001516200aff490919063ffffffff16565b826080018181525050620092ed7ffabaaf3639e3728a87f6557d01dd75986d753ebdb39cc04465d88d4b3642f97760001b6200379a565b6200931b7fab6444e5de65a5095af33bfe2d2ee5ce70c488eb4ae28a6fcab596c17a7a99b260001b6200379a565b7f43a3f4082a4dbc33d78e317d2497d3a730bc7fc3574159dcea1056e62e5d9ad88a8360200151846040015185606001516040518085815260200184815260200183815260200182815260200194505050505060405180910390a1620093a47f82bc79d457b76e8f73e27e01bd10a32fd4d14a9b2ecd4fab53f3c896f4053b7d60001b6200379a565b620093d27f919ad4daaf742cc76a33e9b9a6d6ad7abb5d1c769c41ee995e3d053706100db560001b6200379a565b826040015173ffffffffffffffffffffffffffffffffffffffff16639dc29fac3384602001516040518363ffffffff1660e01b8152600401808373ffffffffffffffffffffffffffffffffffffffff1673ffffffffffffffffffffffffffffffffffffffff16815260200182815260200192505050600060405180830381600087803b1580156200946257600080fd5b505af115801562009477573d6000803e3d6000fd5b50505050620094a97fb0e65c36ed247020ed878889fe86241505f9e3dd2d8f10ac227960efe1161e3760001b6200379a565b620094d77ff1d91f8a7fa5ac49dbd4b2910fb2665050646f0dd32fe1472924dc758ddd0e5260001b6200379a565b826000015173ffffffffffffffffffffffffffffffffffffffff166338d995a883602001516040518263ffffffff1660e01b815260040180828152602001915050600060405180830381600087803b1580156200953357600080fd5b505af115801562009548573d6000803e3d6000fd5b505050506200957a7f863e3bffa2b02ace3fab816352de49f9d3de64964309563b43a55ac4e0e3e87860001b6200379a565b620095a87fcf6e8556384f467c26c311c07084aea9a398ed51fd37bd0198f13722f35fe5e760001b6200379a565b826000015173ffffffffffffffffffffffffffffffffffffffff166364a197f33384608001516040518363ffffffff1660e01b8152600401808373ffffffffffffffffffffffffffffffffffffffff1673ffffffffffffffffffffffffffffffffffffffff16815260200182815260200192505050600060405180830381600087803b1580156200963857600080fd5b505af11580156200964d573d6000803e3d6000fd5b5050505050505050505050505050565b600f5481565b6212750081565b60006200969a7fdf232d6c973bcec4eff73db82c91396af66c9196fab4f04f396aae87591ae3ef60001b6200379a565b620096c87fdb5801da9f709c19a9a356ac7d4f38a3a0bd56d5ea0abb462469892f7cf053ee60001b6200379a565b620096f67f2f6b93c655c2a20140e0732afbaccd74f39a00eb1c6713d376c59a7f3024bc7560001b6200379a565b6200970a620097046200dfc3565b6200da48565b905090565b670ddd4b8c6c7d70d881565b620097497f950280b0bc9fc5add2d8dba5242c92892307e81b9681b1f6eee2e1494db7f04860001b6200379a565b620097777f84362b47295e659b5907f791b75803af2c1457d719fe59394377938b40155dfc60001b6200379a565b620097a57f2140e1b719a7fc28e24358c76d7d6e785e97f97055da304fe2de1ec20eba2e5c60001b6200379a565b620097af6200a70a565b620097dd7f08c482e11bcfe87b62f2b64888d67c4140ce3a356b549032e6a7305da79587de60001b6200379a565b6200980b7f41a8ffc09c037b37b74d806235fd01450bfaba694d0f612f8853c1e22c942c9260001b6200379a565b6200981881600262012ad4565b50565b60006200984b7f144cac245da7652931b1a99cd1be49cb5a304561fa979b270c165ea1e910cfc660001b6200379a565b620098797f267423f417c00da283c66b3e8d7fade3b2e423d41825bc83196b920b52f774e560001b6200379a565b620098a77f312b55339808be7430d1007641b944a4da22ce57df51c92ecf921e9df194fb2c60001b6200379a565b600080620098b585620103d0565b91509150620098e77f386bc50d6ed95cbcc282220c551b71976251434a3d86bf01bd9514c77778724160001b6200379a565b620099157fbc517b735262fe6c53bddcf9ccbb2c15ee2f1c59d89ead7b07ad6233a1731b7e60001b6200379a565b6000620099248383876200feaf565b9050620099547fb54d4a8e825c2cfb71478a893be7863a12f87796ce0bceaa60344c379ef81a2360001b6200379a565b620099827ff4a905839be3d9654c403c10ed62b6c70ccd1378d0416a8966ca18338fc0ae0e60001b6200379a565b80935050505092915050565b600d5481565b6000620099c47f4e09db51358c4071dcf1c9ad7831efc58b1c16780b26fcd2f2edac77f4cd367460001b6200379a565b620099f27fbf693d4a65de2b09d80435be494e001e958ab72446e7aaf91e7debfd485e81b160001b6200379a565b62009a207f6f3e93c5dda712006de4a8e181a88f862dea7ee4ad63c1bef218d75b124f09c660001b6200379a565b62009a2a6200a70a565b62009a587fc819a531244dba495973ea7e00d71411407fa4f1afc183ecb81a99271ed7f60360001b6200379a565b62009a867fa3c60775aa017987b6d07358d5fcf5f553995a9fa6aa5173b2d6d85fae937a0760001b6200379a565b600062009adf83600e60008773ffffffffffffffffffffffffffffffffffffffff1673ffffffffffffffffffffffffffffffffffffffff168152602001908152602001600020600101546200aff490919063ffffffff16565b905062009b0f7fce72f4ae82834779418531c42e039228228c5eef4005ef3cb641780c4fbd2d6560001b6200379a565b62009b3d7fc95c692c7897c23d5ea769a4c2d80e8f32e32cdd133d3b0f0a5649fa79ffabeb60001b6200379a565b80600e60008673ffffffffffffffffffffffffffffffffffffffff1673ffffffffffffffffffffffffffffffffffffffff1681526020019081526020016000206001018190555062009bb27f2eb65d9a13a942b052232ea25168a6ec7744bcdc6464fd3e44f17c190f881cb260001b6200379a565b62009be07f8ac263257460945b90a47378af6a5173b11605f689c104231bf949c3d65b2d0360001b6200379a565b8091505092915050565b6000680ad78ebc5ac6200000905090565b600062009c2b7f94c88795f623f01f2b8b7ddc70282bad0143e593127cc9806a1f6928b062e32860001b6200379a565b62009c597f0fed9617d32ac6a3d4750c7315dbf0b1a691e18441fcb2fd741e800b45f7a6ea60001b6200379a565b62009c877f376c775071eafb955ec8a248f8a36f1686e5418d98eb3b8f6bb2dbeaf43f71e960001b6200379a565b62009c9c62009c956200966a565b8362013148565b9050919050565b600062009cd37feaaac3bdff395e62e7ad4fcbcb8f65fd728f72ff1bd8e797f91b1218d286029160001b6200379a565b62009d017fb770fcd2d4bb7af5633de7165b72a0a4310382639b8660b2915f63dbfbac850060001b6200379a565b62009d2f7f3c236eddfedd69ce3016aa5ff31abd91d5680d5e9e180ea520e53b6bc2598c2960001b6200379a565b600e60008373ffffffffffffffffffffffffffffffffffffffff1673ffffffffffffffffffffffffffffffffffffffff168152602001908152602001600020600001549050919050565b600062009da97fcf435469015d4964b6ecedf973e5a2b2da9885f3adbef05b227bed496d6c5c5660001b6200379a565b62009dd77fa2e42c44ee1f69caed90c13f5d4c5b6a3d28657fb1d33a91bcc48b36a796117b60001b6200379a565b62009e057f109a74831a9e06044c705ac720e2bc668cf32158ec77d9e84e13fec5e51cd08360001b6200379a565b6015828154811062009e1357fe5b9060005260206000200160009054906101000a900473ffffffffffffffffffffffffffffffffffffffff169050919050565b600062009e516200dfc3565b600c819055506000600c541015801562009e755750670de0b6b3a7640000600c5411155b62009e7c57fe5b62009e866200e167565b600c54905090565b60135481565b6000601580549050905062009eaa828262013381565b5050565b600062009ede7f57974d941d9520839a2032c3fccc8215686ab4a746f03d76f378df92fcfdd22560001b6200379a565b62009f0c7f82a6721b84ead05420cf0540a9d2c19ea73c924a9ca23fdc7eb8f9cba2847d7060001b6200379a565b62009f3a7f6c369c184dc52b9fe6b3fad8f7eafe19ecb3433f45a8b94c284a66aa01e52b0160001b6200379a565b6001600481111562009f4857fe5b600e60008473ffffffffffffffffffffffffffffffffffffffff1673ffffffffffffffffffffffffffffffffffffffff16815260200190815260200160002060030160009054906101000a900460ff16600481111562009fa457fe5b146200a0105762009fd87f7e1a82fbf0120b357d793f6c7ac16111a83d41bf63e5332a5293ff8f23ef788c60001b6200379a565b6200a0067fdfa00e852a5fd43644e2fc531eb0e7105c3aec9e05a86278dba4b8de6725c53160001b6200379a565b600090506200a0e4565b6200a03e7f90d02976ecdeac9aea8da276cdfab0b47a67f0fcc5d03bc46ef50d0287629ee860001b6200379a565b6200a06c7f58de4bc555c40e6b407ebb125eade5b358ea6c43fb74ad756c5f605cd200ca4e60001b6200379a565b6200a09a7fd1d7676d306cefdd52d1a40033cba980884552646b6611c618134ee30a9c49ad60001b6200379a565b601254601460008473ffffffffffffffffffffffffffffffffffffffff1673ffffffffffffffffffffffffffffffffffffffff168152602001908152602001600020600001541090505b919050565b60006200a1197f60eb1719211e9a4100b52eecf2b31c59506a3c34df384f8492894c1c1e820aea60001b6200379a565b6200a1477fb458b49471758e635f98430eeccab52201d719372dc0e11a02fd0bd99276c0f760001b6200379a565b6200a1757f9d9809ae9507f4ce28b122eed11161c492ad27be18a722917e8a4112c445c32d60001b6200379a565b6000601460008473ffffffffffffffffffffffffffffffffffffffff1673ffffffffffffffffffffffffffffffffffffffff1681526020019081526020016000206001015490506200a1ea7f1a2d551898bc93b14e49cc5f9ee42bbe0c16864b70542d95e9fbb904619987f060001b6200379a565b6200a2187f26e6109171f2268389bfccd436c88f4d30f9cc59abda3bbb1ea47ac68d659a4260001b6200379a565b60006200a231826013546200aff490919063ffffffff16565b90506200a2617f58263a7f198e64717ab85e863234b439096c8207c9c02ce8ae040d55cabf8bf360001b6200379a565b6200a28f7f7f4f54a62b5a89cf55729b6fe40bc87943b07b647dffd5a67501c845ec7ca9d160001b6200379a565b60008114806200a3075750600160048111156200a2a857fe5b600e60008673ffffffffffffffffffffffffffffffffffffffff1673ffffffffffffffffffffffffffffffffffffffff16815260200190815260200160002060030160009054906101000a900460ff1660048111156200a30457fe5b14155b156200a375576200a33b7fcb181011fea748a62ba443daef0c8a174e73868d36dded030bf9a09e718eeab360001b6200379a565b6200a3697f0ff5857703f06967564087995543fd75ddfd0dfa5b5bc8bc8931818dec3102d860001b6200379a565b6000925050506200a53b565b6200a3a37f209722441134107fbf19fea90658472388485ca07f8e26aa97660c047a79b0c560001b6200379a565b6200a3d17f841d7ea67edc9570fbe0d8f4a97cdb43f05e5b5c5a1002451889c9493d5c39cf60001b6200379a565b6200a3ff7f7ce0e478b22bd3bbdfcf1a6cb7eafd0093ca2ca4ef17e46b15779ba761ca43ac60001b6200379a565b6000600e60008673ffffffffffffffffffffffffffffffffffffffff1673ffffffffffffffffffffffffffffffffffffffff1681526020019081526020016000206002015490506200a4747fb2eb74421f39e791d5b56490567c9e8f9e720798d174deb0ca9bfbdc123df4b660001b6200379a565b6200a4a27f5818fdab507467df1df3389663055c34fd9348b47bd409cdab4a97aa8683cfab60001b6200379a565b60006200a4d5670de0b6b3a76400006200a4c685856200deec90919063ffffffff16565b6200df7790919063ffffffff16565b90506200a5057f124fe1910bb284acd880602f9ed5cfe639a3b3ffd80b98d49c10eda9baf2274d60001b6200379a565b6200a5337ffeeaade27df2a58507c56394b6d864ca1d2cd653bf1f18a0ddd1118830bc057760001b6200379a565b809450505050505b919050565b60006200a5707fed57bccc8fcdf7ec23d311a62e953cb1c02478618d213698f4f85a303de9d55d60001b6200379a565b6200a59e7fa2dfec0e02842c0ecc7a04504685f924c8b742beb5b6b8cd844eeb0163ab92e860001b6200379a565b6200a5cc7f90bffd08452bc1edc8736641cf5d788478a5a2365a2d7812caa2383d27ef9c8760001b6200379a565b6200a5d9600c546200f938565b905090565b60056103e8670de0b6b3a7640000816200a5f457fe5b040281565b6200a6277f7ea6b774e539c860d48c6bfb880fb5719f447891ee6d88043327538df37eb50560001b6200379a565b6200a6557fd531e098d7c0061515babd57481deacf223079b56f355204bef8ecc3bbcab6c760001b6200379a565b6200a6837f73410dcd0ad4092a6b7ac996d7b59ce1997af1c8c9437e04a57e0682188b338560001b6200379a565b6200a68d6200a70a565b6200a6bb7f84d725f4bf50d05fbd77d7407e41826bee2954a57cd3960ee47e73801bdd845560001b6200379a565b6200a6e97f70fcd9efa27c0a782bf0e12ad56c2a951f2da9c6257ae1a2f8f907818f86238a60001b6200379a565b6200a6f48162013ac6565b50565b60006200a7048262012838565b50919050565b6200a7387f828260b35b227c1d562dc18a3a7d008dde66bca35adb86b288236c1ef7b627d660001b6200379a565b6200a7667f25697a2055d93d487e0c01d6fb1c3ed4e2e8e46d13b926509ebab16bfc29363560001b6200379a565b6200a7947fedcacf22dd1c221328178e0d987cee1ea051eaf8eb12ff5e523e54c5397d988760001b6200379a565b6200a7c27f88fa16ba89e20539f00901608385642cc2aaf8506374ebed4587ed7c1a6b150060001b6200379a565b600460009054906101000a900473ffffffffffffffffffffffffffffffffffffffff1673ffffffffffffffffffffffffffffffffffffffff163373ffffffffffffffffffffffffffffffffffffffff16146200a86a576040517f08c379a000000000000000000000000000000000000000000000000000000000815260040180806020018281038252603b8152602001806201813f603b913960400191505060405180910390fd5b6200a8987fae92fe5c243013b016e928fdc581c467b4041ebf0c6c94214ca43ff6dec26fe460001b6200379a565b565b6200a8c87fdd0ae14121b6efad13906f946c14bed3f7f345cf156f44236f70aee447a634ff60001b6200379a565b6200a8f67f7900653c1a1cf8cf8c3993e0f90ff79565ff50e76117661a343cf0e63a745d7c60001b6200379a565b6200a9247f033a3c7ea6af6690573071a6729ee30b9ab6365909da28cf34d929738faf3d8c60001b6200379a565b6200a92f8162009eae565b156200af03576200a9637f4f5df1cbb1440c9606db5b92bd83d63ccea2b29f4fd902b294da146a04af1fb360001b6200379a565b6200a9917fee33b5270bb884bfc546f36102e152864bd310d71488a64c937bc8f87766ecfe60001b6200379a565b6200a9bf7f28888ef8c49a9387f8b37c609c1d51dd3379d7b5c4bd928f3d8b53c47d34d26a60001b6200379a565b6200a9ca816200db1a565b6200a9f87f712afcb8cbcd59a8f2514e8f0facf493d7ee120500820b085ca66c4c55557c2c60001b6200379a565b6200aa267fe01ae58ccc39acc22c8fdc8f683a96257eecd1fa26eee1deeee1598d9703455e60001b6200379a565b60006200aa338262003bed565b90506200aa637fdddfd3b5ece2c4484c01abda59d31d3d6eae5451956eb08e0d1f9d0887e174f960001b6200379a565b6200aa917f980fd2d53d0bb90e2319906edef47218a3964b7819583efd52145edcf134342560001b6200379a565b60006200aa9e836200a0e9565b90506200aace7f9300c066268ab95e26c7f503306bb6a88bff86b584aaf1fe2f0544a8121c353360001b6200379a565b6200aafc7fce6d6058f8f7e0bc457448cf0e1344f66816d79d2ec86d34c484599ed55af2ab60001b6200379a565b6200ab5382600e60008673ffffffffffffffffffffffffffffffffffffffff1673ffffffffffffffffffffffffffffffffffffffff168152602001908152602001600020600101546200fa1890919063ffffffff16565b600e60008573ffffffffffffffffffffffffffffffffffffffff1673ffffffffffffffffffffffffffffffffffffffff168152602001908152602001600020600101819055506200abc77fc9aa8b0ecb1225a007c09734ddcca43c6f70fa072955a5efa534fcce73f0722b60001b6200379a565b6200abf57fd44b29887fbaf8d6461e26ba8f0f6666d75d6d4ffbbed3fb8b8bf3d4ce346e8e60001b6200379a565b6200ac4c81600e60008673ffffffffffffffffffffffffffffffffffffffff1673ffffffffffffffffffffffffffffffffffffffff168152602001908152602001600020600001546200fa1890919063ffffffff16565b600e60008573ffffffffffffffffffffffffffffffffffffffff1673ffffffffffffffffffffffffffffffffffffffff168152602001908152602001600020600001819055506200acc07f179d93f26ae65fad2f7f82eb5ffa265e8c925e01555520efcd1f392c431288b260001b6200379a565b6200acee7fcdadac9f087cfa59b412e5a225a23a439eefbab74adfbb858ba364880613965260001b6200379a565b6200acf98362010117565b6200ad277f5612fc8333ef3a22841c1d0680c8252d234e9805bf24a7dc8d7f64c8a4cac2fc60001b6200379a565b6200ad557f5a21e6a6e7936b8efc38fe1d6e83c9d1442b06cff826918ea19547720828fe0060001b6200379a565b6200ad638585838562013cb8565b6200ad917f64f217b123a7e607841b844f6d03d084739e5822a3949fbac7a510362dd5169a60001b6200379a565b6200adbf7f983c0c378f40e4961cbc4c12448e91373940ee00819646c3dac9b71f7e53701e60001b6200379a565b8273ffffffffffffffffffffffffffffffffffffffff167fc3770d654ed33aeea6bf11ac8ef05d02a6a04ed4686dd2f624d853bbec43cc8b600e60008673ffffffffffffffffffffffffffffffffffffffff1673ffffffffffffffffffffffffffffffffffffffff16815260200190815260200160002060000154600e60008773ffffffffffffffffffffffffffffffffffffffff1673ffffffffffffffffffffffffffffffffffffffff16815260200190815260200160002060010154600e60008873ffffffffffffffffffffffffffffffffffffffff1673ffffffffffffffffffffffffffffffffffffffff168152602001908152602001600020600201546000604051808581526020018481526020018381526020018260038111156200aee557fe5b60ff16815260200194505050505060405180910390a250506200af32565b6200af317f034ef07895c86f0c303220957b4931fab59dc21fbd6bb68b03b418d77a61cb2e60001b6200379a565b5b505050565b60006200af677f58007f484e65a8732a4ac83776446f127c50b1719e333f91c1f137ccd6cea1f960001b6200379a565b6200af957f9bc26093a5963b2b24ca870ab0a362497b84521e1b8436f7ffe1a885980bfacd60001b6200379a565b6200afc37fd34399b28d40dea8bd3cd6df6ab7fe38d1b7697951837628dd673cb93b6c4cc460001b6200379a565b6200afef603c6200afe0600d54426200aff490919063ffffffff16565b6200df7790919063ffffffff16565b905090565b60006200b03883836040518060400160405280601e81526020017f536166654d6174683a207375627472616374696f6e206f766572666c6f77000081525062013f47565b905092915050565b60006200b0707ff5b08f882c9a2927fe8ddf4df4c140367e6960124e1a82f4ee2fcb8eaa1883f660001b6200379a565b6200b09e7fb4b7923885ce4fe3bd34cb9771ed5b93f7ea61db7ba439ee1df1d8fc9a32ba6b60001b6200379a565b6200b0cc7f93eb782024092d60a3cad32aa4b762da1b6d52e9abb5e6f7af1852feaee5750f60001b6200379a565b6015829080600181540180825580915050600190039060005260206000200160009091909190916101000a81548173ffffffffffffffffffffffffffffffffffffffff021916908373ffffffffffffffffffffffffffffffffffffffff1602179055506200b15d7fd691962148467f9686899bb8e13bffcddc1d44ade0484f9407fd86a4af3119ee60001b6200379a565b6200b18b7f91470f327941dbaa5cf76714ebc86277532be331ac8a1dd82b17ef9b4636449460001b6200379a565b6200b1a660016015805490506200aff490919063ffffffff16565b90506200b1d67f417c44a0309fc463e4f7f7ada7e805489ec0110a96e892e1d906fb0fec8a4a5b60001b6200379a565b6200b2047f8855435194b6ec7c690f81cd9cf1709cb3dc5e1cf7a8c92564236aa76f0baf9260001b6200379a565b80600e60008473ffffffffffffffffffffffffffffffffffffffff1673ffffffffffffffffffffffffffffffffffffffff16815260200190815260200160002060030160016101000a8154816fffffffffffffffffffffffffffffffff02191690836fffffffffffffffffffffffffffffffff1602179055506200b2ab7f976519f5068d57633fff74daacf5fb532be073b103e44ea8fdc78c86840b1a4d60001b6200379a565b6200b2d97ff30b4221d5a69cacbe0f6a45565848a642c67753135686a69ea6fb78dbe26edc60001b6200379a565b809050919050565b60006200b3117f7dabcb71f6d91b1217cb60c49ce81f8e5767b03bbdc7f42c792a3139f79ac28160001b6200379a565b6200b33f7f93ed9ceb935fb920495c755a8504eb81a6f501b39ce4bb8f86ed46cccd2520b560001b6200379a565b6200b36d7f39dd3737b99245e63ee2990fe7775851a588d094a0abaa273e2aeb4213c7ddad60001b6200379a565b60006200b3bc600e60008573ffffffffffffffffffffffffffffffffffffffff1673ffffffffffffffffffffffffffffffffffffffff168152602001908152602001600020600101546201400b565b90506200b3ec7f08fea6cd5226c0c307c4b976570e0f11e18442349a2e6412f05647e33fa55f3460001b6200379a565b6200b41a7f77fd9f234038cdf9413d0074eee434ca1ecd3a7f0f41736c8031f052b597be6c60001b6200379a565b6000600e60008573ffffffffffffffffffffffffffffffffffffffff1673ffffffffffffffffffffffffffffffffffffffff1681526020019081526020016000206002015490506200b48f7f5fba378876efa367a1fa2de2b467e0357875f1da679bda8a8dbed8c83b9acbf660001b6200379a565b6200b4bd7f1a07910ed7866109d80561bb94c4bc765cb9d48920f6b62d2493975a3cd9321c60001b6200379a565b81600e60008673ffffffffffffffffffffffffffffffffffffffff1673ffffffffffffffffffffffffffffffffffffffff168152602001908152602001600020600201819055506200b5327faf3afb998c01f036ed43180b1806c55cc9701fc7143c4d323e937c98a0c5acd960001b6200379a565b6200b5607ffc783f612bd52e34331e6e67c2f2ac79a7661731a7ad0345c99577469f3d02f860001b6200379a565b6200b58b826200b57c83600f546200aff490919063ffffffff16565b6200fa1890919063ffffffff16565b600f819055506200b5bf7f9c3248b9e8722abd0551d498c908e9d6dd7c474f284bc00b5d5014300c87633d60001b6200379a565b6200b5ed7ffdb3d2c4c8f99618dca54878cfb994ffbf34e074bc7171dfb7355b76dc47f5ca60001b6200379a565b7f6bac5e0eb3c44eb03a60ab11ec3a2c051771616aecadbcfff2630aabae520382600f546040518082815260200191505060405180910390a16200b6547f49c11249d19652c4e7ac5185196d03bf47421202be4ca3c4130816dd7a155c1460001b6200379a565b6200b6827f7a63c25cabf6a907495348c1415bf8d4c802c367664487813baa0482290e255460001b6200379a565b8192505050919050565b60006200b6bc7f147b00b6dfb7ae8a4e87645c7ca77266441741fe56fc7b5f7b5b8ad259a6d28e60001b6200376e565b6200b6ea7fc638540e751fe7551cc5cbfd9158321c0ec71f77d6418c73fdaff393e35cb4b260001b6200376e565b6200b7187fca23378d8a02c8f9b654f27cbeb79b4d5f9df68d5c3e868bb7d7873c9167757f60001b6200376e565b60006200b72583620108be565b90506200b7557fa68e5f40d7be8042db6688cc33112600c21fbc1841e48996e5a812d643ef155460001b6200376e565b6200b7837f5c85d4ef3ef98408d868b4261fcb8a9238d27d22b6029d804112e31f1a9c2e8a60001b6200376e565b6714d1120d7b1600008110915050919050565b6200b7a062017def565b6200b7ce7f34432fbe18efb3aee13d89287ed0bb59e00e29daf05349f732bc7226cc0fdcb860001b6200379a565b6200b7fc7fb32964fdf4e37db6a707fbbb4df73bb8750d34865729b1fbc2fef94b84821c7060001b6200379a565b6200b82a7fbc2606d9aa9eb135d48a74e8e1d5014d5f90c6d6dddd9e48c5bbd04b754f66a860001b6200379a565b6200b83462017f7a565b6200b8627ffbfb7ecefc2d5c50efa45a14108bf1c6f040111a97495911df4236b96ad1cafa60001b6200379a565b6200b8907fdfc1ce108405207f6a4a15062927e15f1b2248677e7bfa9e4f734109fb8a5d4960001b6200379a565b6200b89a62017fcf565b6200b8c87fedc1f780b4a835d58ed1ad52182fff292a54575ed3c66a9c901b25611acc152f60001b6200379a565b6200b8f67fc9c89117bb945164d3d55b543a460ad85d6cec2553a2118dee86fef3fa0062f860001b6200379a565b848260000181815250506200b92e7fc9289be669f9c26f87304e9b3b40a39d5af0c414e28626be7f71080e08b22b6960001b6200379a565b6200b95c7f0617095024ea54ca035528f6b7b5c338cdf4dc22e33d634dbd949e00f7e7b60a60001b6200379a565b60008260800190151590811515815250506200b99b7f0f7f9fe57b74e57b9d8aacee916c50272ac6a59c962e0cfcf90a7a626d5fe81d60001b6200379a565b6200b9c97f68d7111a06b646f637bee8e0deb5b121bb18ba8144562485a2b251d92e98d34460001b6200379a565b6200b9d3620056ba565b8260a00181815250506200ba0a7ff49dcdb16004ec3f78c75b9d3735310fde1354ade9280b75812fe017bfddc9cb60001b6200379a565b6200ba387f9dd08b4c7280961aacf5cc97a0e4c0f663aa4d536142d0793b23f75494c5755960001b6200379a565b6200ba4262006f32565b8260c00181815250506200ba797f3800f7bebbd5da5000bce03141e21ec20eccf45774bc422b6953533e9eea9d0860001b6200379a565b6200baa77f201d78a05502f6e2060c164e1e70b962fbf741a3bbc0a94d0a910fed8766fefb60001b6200379a565b60008260200181815250505b8351826020015110156200c485576200baef7faed787866392a5eb0b9fdd5632fd9101cae41eae0e212adc8f5b5c1f3c98091e60001b6200379a565b6200bb1d7f83d35f405ae39c7f984cf8df1fddcd7989f077cb33cb39ecf990e80b2bbaf9dc60001b6200379a565b838260200151815181106200bb2e57fe5b6020026020010151826060019073ffffffffffffffffffffffffffffffffffffffff16908173ffffffffffffffffffffffffffffffffffffffff16815250506200bb9b7f453aee673c18ec9cdbae9d0d8d8999bb22d0e9bf9b55206dddf5d42632fad04b60001b6200379a565b6200bbc97f2fceba3bcd6e848ce505ac87cd7e165e7d3eb26cc3f26189fa9229b719f4795760001b6200379a565b600160048111156200bbd757fe5b600e6000846060015173ffffffffffffffffffffffffffffffffffffffff1673ffffffffffffffffffffffffffffffffffffffff16815260200190815260200160002060030160009054906101000a900460ff1660048111156200bc3757fe5b146200bc71576200bc6b7f85968862ee8b476742cdfc8a61c351124d8f601a9d9510cb0d1b0f301ed2da5a60001b6200379a565b6200c46f565b6200bc9f7f46b88f8b84b2dc91f99202b8a9298029fccf09dde847557ad22e9298841788f260001b6200379a565b6200bccd7f83088947d008a2015332b688146ff9952f866c69e13ade8b33b7bfcd55578d1f60001b6200379a565b6200bcfb7f520d94096c030529819cf166ea6a11c7ffd905f74c7c3674d0658c11ac42b26a60001b6200379a565b6200bd0b8260600151876200981b565b8260400181815250506200bd427f153ffcc0d1dc2b3cd0caa78851777926c41b30b07728e69ae39d3945c6b2ccdf60001b6200379a565b6200bd707ffbffffc22ab7629daaeffdc83983a8b1a1b04dccf4e3d8085ed8a072d7b1a40260001b6200379a565b81608001516200c226576200bda87f89e30778c08a6648f9aea9581bc54f0b31d8e4bed7d374f57373d84e007f1d4f60001b6200379a565b6200bdd67fd63d141f5764b1bf89d110c8491dea50f560cd5b7e7027560b872b79dc09f1c960001b6200379a565b6200be047fcd9222cf6b5f99a121340aeeb6144fe2016b12b7b1620059118c067b79fe591f60001b6200379a565b670f43fc2c04ee00008260400151101580156200be25575060008260000151145b156200be5f576200be597fb635aae3e3b42bb0805417383eaa88a3d3111cdfa7a47e35839c72355ee06eca60001b6200379a565b6200c46f565b6200be8d7fae17735f70f0c28c60774c7d782a5c567c853fc70c8e161ad28a1cd4bdf21e7b60001b6200379a565b6200bebb7fc04f3fe044429132b8fc11cc2988d21bf2fb42d650f98c13f962619c091c064c60001b6200379a565b6200bee97fb1a5f76237858889923344e255f8c087d20d78ed18e5ac5ed4e8dc1c3e0dfaab60001b6200379a565b60006200bf008360c001518460a00151896200feaf565b90506200bf307f76d08fd6e6551708be15a026d8085f6fc1d700026002fb4dd291626a7354d3f260001b6200379a565b6200bf5e7f5d7ec80a0092e33456de007bff1236a0b30ef2d860a8c76169715bec2e32c04d60001b6200379a565b6200bf7b8989856060015186604001518760000151868d6201431c565b91506200bfab7ffd50d3d851a66ed7f06bff46c5f1d800a5552115c39444db775db1b77510f9fd60001b6200379a565b6200bfd97fd82f9d8d02e113ebb61d7cdad6737659c10b7886249099aabf34b742c384f1c660001b6200379a565b6200bff6826080015184600001516200aff490919063ffffffff16565b8360000181815250506200c02d7fd1cce5a27291f3982e3c67b908e35e093ead1c061645609df8c48d29e1d47d3b60001b6200379a565b6200c05b7f2c5a75e285c86c03f4661dceab61f3828f702d4324632d883411e1f1fa4b87e860001b6200379a565b6200c07882608001518460a001516200aff490919063ffffffff16565b8360a00181815250506200c0af7fb475b7193d1445fdb814349fa403ce80a5b152d8a6efda26a9dc7cf2fe278f5860001b6200379a565b6200c0dd7ff49f86d6eedcb9de6a2133dc009eb48da700737dddcbc777c2a03e23836fda9e60001b6200379a565b6200c12b8261010001516200c11c84604001516200c10d8660a001518860c001516200aff490919063ffffffff16565b6200aff490919063ffffffff16565b6200aff490919063ffffffff16565b8360c00181815250506200c1627f8bd14346138fe46d554bec12c13d5c9a7556fea2fe115f16a82faeaa3a41512b60001b6200379a565b6200c1907f11a9bc9f94d020c80fad537b7311fa6ec723920ea0c489936546eb06d291545160001b6200379a565b6200c19c8483620157e1565b93506200c1cc7fb63f072410ec4b111ffd81fdb26e20052f20bd5d640584917dafc903cf1f49ad60001b6200379a565b6200c1fa7ff46dc2b4623c3a3b5103399b95e05e70e480c4a200018a2f4b7b6454106d03bc60001b6200379a565b6200c20f8360c001518460a001518962015d13565b15836080019015159081151581525050506200c46e565b6200c2547fff1be307667f7dd663254cb2d4227399f9b4eb934462db7ab1dc8247c160271160001b6200379a565b6200c2827f8bd301807941c159094f40304f2f0b472c3614e96e390a7281e9035737a4b7c660001b6200379a565b816080015180156200c29f5750670f43fc2c04ee00008260400151105b156200c439576200c2d37fa48f6af9070bc4c35049765035198d7dc9325725e63768ca0f61317ae0d9e07d60001b6200379a565b6200c3017ffae9088db0bc967de0679a04cb2dd8697b7835d4aba420690ec288364fb0201c60001b6200379a565b6200c32f7f1e544e4faaabcd7e5f0891afef17dc90e5024bc25776fff49c54d570622d9cbb60001b6200379a565b6200c34588888460600151856000015162015e21565b90506200c3757ffa310116b1f1e049adee12bf5754a88282bfa38e475bac4edf874d159c89108460001b6200379a565b6200c3a37f0c68f348351fb2f9ff9b0cc4d2b1c456e8556bd6c2abbea13730a46d8878569b60001b6200379a565b6200c3c0816080015183600001516200aff490919063ffffffff16565b8260000181815250506200c3f77f3566caf3f8604873ea9b7c2e7bb7384519ffd2d95207af82535f3a78adce537060001b6200379a565b6200c4257f13d52c4f2b28840cbee50e2998252a5c4b5fa0c12d7f9a9a59cfa8626df7c1ed60001b6200379a565b6200c4318382620157e1565b92506200c46d565b6200c4677f58f96b9cd4839dd7781d6b0943f552922894c135f25d45605ea515aa2c3d598960001b6200379a565b6200c46f565b5b5b816020018051809190600101815250506200bab3565b505095945050505050565b6200c49a62017def565b6200c4c87f2231afd2b560cb103f21d88117bb04906ed385a04a77f81d193c052f24f8806760001b6200379a565b6200c4f67f9dc5cc0ba901b8f30b3c5fdf2fd51b8ba1928b35f0790b2206351c433bbae4f860001b6200379a565b6200c5247f8495b84248344af937880c295448f4c4c8656367b2114fe61df351fd97aea12260001b6200379a565b6200c52e62017f7a565b6200c55c7f1baffd68f507e91e26ee75d56b0bb6027c8deac6cb36e8036e768f080274cf2660001b6200379a565b6200c58a7fdab62cc675246e579dcd6f0c6db23bd51013c6a2eb0e0aaf04f0d889f9df565360001b6200379a565b6200c59462017fcf565b6200c5c27fcbdc0a818cf4cbcc5c3dfc0699c46d9906b3d281d516f980d85fb3e5277c27dc60001b6200379a565b6200c5f07faaa1a05e204578a1606de695f1fdaf1f86b42c5478fab86cb155090d1956b15160001b6200379a565b848260000181815250506200c6287fe8db1109db2c2bf318b28b2c1fb298ddd61b06dd681283cb3312f416494748cd60001b6200379a565b6200c6567f8bfca42658cb5ab40e49c44571c2e7aec27fd60d565f391053d3626c9c4d2f6460001b6200379a565b60008260200181815250505b8351826020015110156200c9db576200c69e7fc4d0f4143d326dd08502ee78f2ada7ba2c9692df4b6be7bca112c046a6f2c9c960001b6200379a565b6200c6cc7fff237ed1160bd936fa4980864357ad1fa7863f8fb4ec3eecd66c0e34451adadd60001b6200379a565b838260200151815181106200c6dd57fe5b6020026020010151826060019073ffffffffffffffffffffffffffffffffffffffff16908173ffffffffffffffffffffffffffffffffffffffff16815250506200c74a7fe087658bb61ddcc4d174f1fbce626521d2b47e0a23972030811cfc399f2f210760001b6200379a565b6200c7787f2921dbf7735f069f5f4af6729b4ff54908bb5698a3f7d22ec5899d1690ea559560001b6200379a565b6200c7888260600151876200981b565b8260400181815250506200c7bf7f79f214cd3cba59970d76ae1fba2c55ace2ad701825b2862049668538d9bd1f8760001b6200379a565b6200c7ed7fafd513fa9616fa098e8c9d299c032c489ed9131eb5a3bffa70045b6776be961e60001b6200379a565b670f43fc2c04ee0000826040015110156200c996576200c8307f34b3bacd4ae760f851afe648b21581bad51bf7a8b2ad21e6fe601aa279490c7a60001b6200379a565b6200c85e7fbf2f58a9d5d5bda455dc9947202111a28cd3615414346dc300844872fa28606a60001b6200379a565b6200c88c7f84bbb8b4a9919cec21755fb50274c88b82471efd0e080d209fa83ce4498680fe60001b6200379a565b6200c8a288888460600151856000015162015e21565b90506200c8d27f771789fec505aa0a3360c772bc69275f340e52f09292790b1bf35f3813f8699e60001b6200379a565b6200c9007f53ff6d214fe70f80659d6f35e3391300ec031d5e167b23c43d43ca4abca8cb4060001b6200379a565b6200c91d816080015183600001516200aff490919063ffffffff16565b8260000181815250506200c9547f9c4ddf78f77cbb985ec542197b1c31f6b724a077698bf2e6a05be35a827165d460001b6200379a565b6200c9827fe6c0cfac09fdf40878e395e15bb8d11184b42927e6e54378669cfde67cad249f60001b6200379a565b6200c98e8382620157e1565b92506200c9c5565b6200c9c47f325e647a5e648f6c6f03d7c34a0f2852c8fc0feb9f3d8f66b66a81bd8b76490a60001b6200379a565b5b816020018051809190600101815250506200c662565b505095945050505050565b6200ca147f8209c29ce069ca7cd32749bab5d23965f6a8ddd67294d60df4c165c12a2cf76560001b6200379a565b6200ca427f7766ab8e1ce1ac9acfb2b72750008766b850a2e2d5a3b44f3531614aefbf271960001b6200379a565b6200ca707f390dc49aee251577f9a8ebbe6abebfbfd7c379c255f55bff638f6b3283b7fd9560001b6200379a565b60008214156200cadc576200caa87fd79b704e19d71998cf6da65f6937cb7ac077688106df021829166e82f5d2a68e60001b6200379a565b6200cad67f9d39ae09287b46ed0e9db2b0062de557d4a60698c7665e3f7569447a3f14a0bd60001b6200379a565b6200d25d565b6200cb0a7fd19cf9d4e28449987740756e4d6eb33a1bd7594ae5105eb51d901be7a6800c4e60001b6200379a565b6200cb387f83d94b5849b1860242c537d2b14a4b1a4a04c55be4e9148e8d8ba625dd027e1c60001b6200379a565b6200cb667f3dfb57218c308d6039b91c72d14284068a6a274c497ee0f39b1f07373cc1068f60001b6200379a565b60006200cb9b6016546200cb8c670de0b6b3a7640000856200deec90919063ffffffff16565b6200fa1890919063ffffffff16565b90506200cbcb7fdaaee714756d5cb8151274d9ef50e905b663c587b4f3399d9b710d1141349af460001b6200379a565b6200cbf97fdd89d59f7d1e97372f672f3fffa22e36dd15a13c6a70729a00fd196b8533255b60001b6200379a565b60006200cc2e6017546200cc1f670de0b6b3a7640000876200deec90919063ffffffff16565b6200fa1890919063ffffffff16565b90506200cc5e7fdaec52344284c1847a4c29aa140ae63b3404b07ec7bb9444f9be2e9552b9c80260001b6200379a565b6200cc8c7fda4d88bc57bec04582ef1bb9e5a2e537fb4e1a9ab4e098fccc68f64d7428a44c60001b6200379a565b60006200cca5600f54846200df7790919063ffffffff16565b90506200ccd57f6e5c7260547b3658988101d831de7c18e13d01966e062f69d30256713079ca3b60001b6200379a565b6200cd037fc9605d2923ec3d79c82fd137ba6a576944b52bf6a03396ffaac44467cb75226960001b6200379a565b60006200cd1c600f54846200df7790919063ffffffff16565b90506200cd4c7f57e29c0a5e0ce8adab6c72b46414d9ed62b41bc2eb26cf4a1b55904e2d38957560001b6200379a565b6200cd7a7ff702e8971bc7545dde69d3e79b61969ad074eed01f29c3d906e465e60c4307c860001b6200379a565b6200cda56200cd95600f54846200deec90919063ffffffff16565b856200aff490919063ffffffff16565b6016819055506200cdd97fba592f7127143f499eccc19f054ef20f0564d4ecd7f2cba5fbf79b1a28b3c00760001b6200379a565b6200ce077f33ea480242a940483eb944d2f79376059b965605fda3cfaa54780ae15dc0328a60001b6200379a565b6200ce326200ce22600f54836200deec90919063ffffffff16565b846200aff490919063ffffffff16565b6017819055506200ce667f32cf2c3e7e39ca9b0321f3877db259219895c9c7b11955280142ef420d4b522260001b6200379a565b6200ce947f1a333a85af155033f8722c9dfb303082dddd8ab38878682d8fb6270339bfb7d760001b6200379a565b6200ceab826012546200fa1890919063ffffffff16565b6012819055506200cedf7fc3a3a18d032e21e9c0bd05b5a224688eddc23f16bf885df6c265f2f5defa1ac660001b6200379a565b6200cf0d7fb353dd37f4118cd428041413869b13ec8114d631e1cdc0fecac7d0a08065c3bf60001b6200379a565b6200cf24816013546200fa1890919063ffffffff16565b6013819055506200cf587f90a5bdf8a1b296eccb56ad22619b994c792706813779a0ab434ed73db123010960001b6200379a565b6200cf867f209d105bd9c6c1f82b83e98667a7ef3eea25da15837b6b95f2fcbc3d9625e92160001b6200379a565b7f9f8bc8ab0daf5bceef75ecfd2085d1fcc6548c657ea970d9a23a60610d0737e3601254601354604051808381526020018281526020019250505060405180910390a16200cff77f16f51d7f67e06b0bb2490fd773af53d4fe3a8e23754614c6bc5723cff99438e660001b6200379a565b6200d0257fd60135b8ffa06587441e67f55286185a3969c4784dd8fd42f1ea9ef06e0e527760001b6200379a565b8773ffffffffffffffffffffffffffffffffffffffff166338d995a8876040518263ffffffff1660e01b815260040180828152602001915050600060405180830381600087803b1580156200d07957600080fd5b505af11580156200d08e573d6000803e3d6000fd5b505050506200d0c07fe13293551e769051bbd4c69ed156b7bf6e145adba37e0afd11b62bcb4ed84c0060001b6200379a565b6200d0ee7f707f7e709a27f1ad6590a7b402d5933644cb7d642a1fd2d788907929e490a77060001b6200379a565b8673ffffffffffffffffffffffffffffffffffffffff1663cfb9329a876040518263ffffffff1660e01b815260040180828152602001915050600060405180830381600087803b1580156200d14257600080fd5b505af11580156200d157573d6000803e3d6000fd5b505050506200d1897f2919aa4428d020dd150381671d515a01cb34af21826f1b13d83965a4f3f30a5160001b6200379a565b6200d1b77f5416de33219405f4b40a41331b1c7a977376883cc689505eac5cbf53660ad7ff60001b6200379a565b8773ffffffffffffffffffffffffffffffffffffffff166364a197f388876040518363ffffffff1660e01b8152600401808373ffffffffffffffffffffffffffffffffffffffff1673ffffffffffffffffffffffffffffffffffffffff16815260200182815260200192505050600060405180830381600087803b1580156200d23f57600080fd5b505af11580156200d254573d6000803e3d6000fd5b50505050505050505b50505050565b6200d2917fbf8f9f5061eb8c7dedd45bd89c0df60e122d7fa3a27e92cd8ef515da9fba996960001b6200379a565b6200d2bf7fb0ffb81dc766add6ad3ce2e71a16c26db4ef9fcfb3b89154c7a92159af01295360001b6200379a565b6200d2ed7f3275cfbe6c73bf4e1e9c14aaa50a97f78532aa9321ca8eaf0978e346c537f20c60001b6200379a565b600f546010819055506200d3247f587367d1b92993af231021db0474e864d2dca72f42a37cbe8ec97fdaeb35101d60001b6200379a565b6200d3527f25639088d12ad8b7eb3c4b5846545d90dcfa34e5543819ad2d9f01615a6c3abe60001b6200379a565b60008273ffffffffffffffffffffffffffffffffffffffff166314f6c3be6040518163ffffffff1660e01b815260040160206040518083038186803b1580156200d39b57600080fd5b505afa1580156200d3b0573d6000803e3d6000fd5b505050506040513d60208110156200d3c757600080fd5b810190808051906020019092919050505090506200d4087f3b1b95b9d26c67664a0bc4b754b4aff7f84c167eabf522c40e36abf252fa948f60001b6200379a565b6200d4367f68496f836c7336992e98dfb7f3b380a160a073023c0f9438aa82001cb7262c9360001b6200379a565b6000600160009054906101000a900473ffffffffffffffffffffffffffffffffffffffff1673ffffffffffffffffffffffffffffffffffffffff166314f6c3be6040518163ffffffff1660e01b815260040160206040518083038186803b1580156200d4a157600080fd5b505afa1580156200d4b6573d6000803e3d6000fd5b505050506040513d60208110156200d4cd57600080fd5b810190808051906020019092919050505090506200d50e7f36444491393e4be6ef9e2b352380a879d57de6281a2890b6238a43561e6f6b9060001b6200379a565b6200d53c7faa5b28ce72999f0afa835b3dc96d0e5a0eb3a778a8284706a0fec5d041c93a8360001b6200379a565b6200d565816200d55685856200aff490919063ffffffff16565b6200fa1890919063ffffffff16565b6011819055506200d5997f07c9a198cfa1aeb8ce5aa6535b1f6d88c168f4fb8bda334110b1bfc184df5dd760001b6200379a565b6200d5c77fefab511785732b671d3ce52b5db17d57573585af620158ecaed260c856a8888e60001b6200379a565b7f51bf4c63ec3cba9d03d43238abbdd979dd91bd16d9895c74ceea9118c7baaf60601054601154604051808381526020018281526020019250505060405180910390a150505050565b6200d63e7f68b2cbbdf24aa6f6f7b0cd363eb2fd243c59dcef650774a21e94f45afb27feae60001b6200379a565b6200d66c7f8a372af5db28ca9e837c208de510564d1ba1bf1bddb5f76f5880ee128b32804560001b6200379a565b6200d69a7f0906c2ed7781f3911a02f6fff96b56475caa3102e8b46e89d8b27b62322d7b6a60001b6200379a565b60008211156200d84d576200d6d27f20466712dc84f2df66c1ae75cd8f2a2ccf3b78fa046771d06725e7d2bc504bfc60001b6200379a565b6200d7007f18c4af8304adb2665723ba90e75da4580d3d15bd2e4a5b2666b0d7eab589a45960001b6200379a565b6200d72e7ff8bd0627626ab8cf68270c1a129a88c1b87b6e821784267429c2318a5e52c60e60001b6200379a565b600860009054906101000a900473ffffffffffffffffffffffffffffffffffffffff1673ffffffffffffffffffffffffffffffffffffffff166320c582be600660009054906101000a900473ffffffffffffffffffffffffffffffffffffffff1685856040518463ffffffff1660e01b8152600401808473ffffffffffffffffffffffffffffffffffffffff1673ffffffffffffffffffffffffffffffffffffffff1681526020018373ffffffffffffffffffffffffffffffffffffffff1673ffffffffffffffffffffffffffffffffffffffff1681526020018281526020019350505050600060405180830381600087803b1580156200d82e57600080fd5b505af11580156200d843573d6000803e3d6000fd5b505050506200d87c565b6200d87b7fa44c892a632591680fc43047ebdfabbd3ab10457bc3b0ea6d04754317267c0b260001b6200379a565b5b6200d8aa7f1fd02a4779989f74bbf8cb96e94711e3c6eaee6fac4fe140f62d67d6aa1c938760001b6200379a565b6200d8d87f527709f29075bab496593fe2ce173fd1838ba60594d5cd678ff2d96ec555788060001b6200379a565b60008111156200da13576200d9107f6fd6acd02a52401ea0735ed470e1522a4170d1f8f62bfa36e4cedbc74a83c0e860001b6200379a565b6200d93e7ff1971c47c433615fe6cd44be5f275d28f3b1f8a0d1a044185c0da498e09f1ec060001b6200379a565b6200d96c7f2e3e10a577fed8f3749e2b07e5f59f97396969f867ac863e1898ad272058fa4460001b6200379a565b8373ffffffffffffffffffffffffffffffffffffffff166364a197f384836040518363ffffffff1660e01b8152600401808373ffffffffffffffffffffffffffffffffffffffff1673ffffffffffffffffffffffffffffffffffffffff16815260200182815260200192505050600060405180830381600087803b1580156200d9f457600080fd5b505af11580156200da09573d6000803e3d6000fd5b505050506200da42565b6200da417fa2928582f99392ebdd38514546dc92f60e19fbb16d24a811d731067f314e78ec60001b6200379a565b5b50505050565b60006200da787fec3c4621e21a3d7e97d37d896f02b04dbe24a4356bde9a00184e990351d58a6160001b6200379a565b6200daa67fcf40958dffe5b5bfe3a98ea9683cf199f648c9b5811fa110cb3707ae073f9edf60001b6200379a565b6200dad47fe6bdda41670329046516e07241e5e675f30512b0dae793fd74af89b141b64ff260001b6200379a565b6200db136200db048360056103e8670de0b6b3a7640000816200daf357fe5b04026200fa1890919063ffffffff16565b670de0b6b3a76400006201648c565b9050919050565b6200db487f71a32f1683e3015aadce2993e0662a80a3654761da1488d7dbe8475d7741590a60001b6200379a565b6200db767fbe5d2374dd5ce330d20353386223f423136aec61f21dba10664404aeb4e059d560001b6200379a565b6200dba47f33150438c72e5bdc5f24ba828c8ca14216b761ced3d46cc1f29d66037138aba160001b6200379a565b6200dbd27fcd146ae34352f9e69a62bae5b131f7da4050076578b1c91fb9713e8fe4392ef460001b6200379a565b600160048111156200dbe057fe5b600e60008373ffffffffffffffffffffffffffffffffffffffff1673ffffffffffffffffffffffffffffffffffffffff16815260200190815260200160002060030160009054906101000a900460ff1660048111156200dc3c57fe5b146200dc94576040517f08c379a000000000000000000000000000000000000000000000000000000000815260040180806020018281038252602f81526020018062018290602f913960400191505060405180910390fd5b6200dcc27fb43d59d268175ee19979d33ad768db53629134c10d397538141f75ea53d1289b60001b6200379a565b50565b60006200dcf57fab9efcd08bcb361a30e8a0fbe0c3f165fe3092c6843105fa95949e881e82cfc160001b6200379a565b6200dd237ff4c3ffd7ed4c050d7b0c86491d669ae0c90e667480db1881c840fd28b4a0d64460001b6200379a565b6200dd517f5dd25ff6593283b6429963020f569c87f2865a42cc6628fabc19f0bd20b5748660001b6200379a565b6200dd82670de0b6b3a76400006200dd7384866200deec90919063ffffffff16565b6200df7790919063ffffffff16565b905092915050565b60006200ddba7f0480216eb9109bd61472e74a565bd6384ca7f2846f74b4851542b9ba4bc0319d60001b6200376e565b6200dde87ff151d55d4ef750a2c007165862a29b3e311a4ea0cb052d7c4fe57249906891f660001b6200376e565b6200de167ff7b41b1a3b71c39683c5a5178140cf306f59a90ff780a78d62b16cb4bc68affb60001b6200376e565b6200de34680ad78ebc5ac6200000836200fa1890919063ffffffff16565b9050919050565b60006200de6b7f3e568fe0ad286efb617006d19626626d2eec01f6bdd2e75b8388e7be93aea3f460001b6200376e565b6200de997f3d9a5b4b82198ad335cb056e3078c9e06b8c980cffc38d75d124a7278ab71dcf60001b6200376e565b6200dec77f940bd9b127c8c05af8092736c8b08975356edcae0cff123c773b945ff5ffbe6760001b6200376e565b6200dee5680ad78ebc5ac6200000836200aff490919063ffffffff16565b9050919050565b6000808314156200df0157600090506200df71565b60008284029050828482816200df1357fe5b04146200df6c576040517f08c379a0000000000000000000000000000000000000000000000000000000008152600401808060200182810382526021815260200180620180d06021913960400191505060405180910390fd5b809150505b92915050565b60006200dfbb83836040518060400160405280601a81526020017f536166654d6174683a206469766973696f6e206279207a65726f00000000000081525062016531565b905092915050565b60006200dff37f44b2a4d5a83dc398b4353851443245b3c09d3b1f5803b16d63873c351c7a6adb60001b6200379a565b6200e0217f1584cbce5dfb52101b3e13eb5482a1aaff2526cdb74a4db5e9c1a53d218f2b4660001b6200379a565b6200e04f7ff155eb9164d959d5788cffb30ba166c1129258c03133caec3bc9194f2b68b9a860001b6200379a565b60006200e05b6200af37565b90506200e08b7fb07144ac72dc03b04515658b882e253f03a541109804343d351d435b4dd1ffd960001b6200379a565b6200e0b97f4b2037a0b0e95b4451f5634ffa2b0780f32b0626c119cc3194b7376b834da9f960001b6200379a565b60006200e0cf670ddd4b8c6c7d70d883620165fc565b90506200e0ff7f02b5656dbf205d91508b8c5da0e1439ea7de29d58d52f70689421ef3a72b61e860001b6200379a565b6200e12d7fd1b8b5b40039a5e41e3aedd73b99df75a0384f68f13b0e9d452b7e3162bf170f60001b6200379a565b6200e160670de0b6b3a76400006200e15183600c546200deec90919063ffffffff16565b6200df7790919063ffffffff16565b9250505090565b6200e1957f6e9b33a6c8d8c1997e4d51ba9ef87d1de43dbea792abade901ff2baf6b06c05060001b6200379a565b6200e1c37f6c6a9c6b52422b7cc32265116860dc84400299ab0aa3129d53208de91bfe14a560001b6200379a565b6200e1f17f786d3fb9a9c9b39977dce5cfcf5762de9e86aebb2dff4d2c73af09c5073bb6da60001b6200379a565b60006200e20a600d54426200aff490919063ffffffff16565b90506200e23a7f3c39af44e8047840c4e57a687c934d5081ac4ebcac3530a3c25f39b2da081c7160001b6200379a565b6200e2677ee50bbd05975df3dfc7e21df5e56e767a58bda2ac54e5be7b460565496f922360001b6200379a565b603c81106200e39a576200e29e7f5b793431e528bc229b10a1db211b7195402a151479900da7a28229504198837f60001b6200379a565b6200e2cc7f822406f84fc54cb84fac786264afea0bc8d43447c107cc60dfd95e782eb26b6b60001b6200379a565b6200e2fa7fda928a523386d354d2d34377b50e75e3b9b004ac4d73cd49dbfba65cf6fcc26160001b6200379a565b42600d819055506200e32f7fc39017d4493b8d5b20b0bb1aa2d41a4253f0e0da8bcd81f0f932735d15b89f9460001b6200379a565b6200e35d7f4ce6dac0af0ea0888c2152bca508bcf9d8cb00cb8725c3bca8971db920ea3a5960001b6200379a565b7f860f8d2f0c74dd487e89e2883e3b25b8159ce1e1b3433a291cba7b82c508f3bc426040518082815260200191505060405180910390a16200e3c9565b6200e3c87f6c7a7c1d8da1196c35c3724341705816946f7da295541f6aecf3605f568677f560001b6200379a565b5b50565b6200e3d662017def565b6200e4047fe8ac22f71a05586fbaabe1f65f13ba5cf4227c35f7065ad468bba62035e968f360001b6200379a565b6200e4327ff10d5f076fdf7c6ac763abe39a5d40b07783c85696cbfbd55e1ad40497e977b660001b6200379a565b6200e4607f4d16beef13051ccc5e6a36e6ed6d8e6956e5f039035fd1331a6e8ccf39e7c98e60001b6200379a565b6200e46a62017f7a565b6200e4987ff5c89e976d1e7e0ff6adbafd3939091e3ec914129487e51aa3996c4872206f7d60001b6200379a565b6200e4c67fce4268b9a3ee52b84b58f8c59df5bec8de3f05bc8f6541aa47089204b70462e060001b6200379a565b6200e4d062017fcf565b6200e4fe7f0fa33f2fb640aaca581fd24ad9b45c5795799cec016e2d29a9b31e563ae259e860001b6200379a565b6200e52c7ff58321617f1768044c4d9c6baa44e53e25b39331aa2e81e550615f3bd82d0f8560001b6200379a565b848260000181815250506200e5647feacfd028ee8929005ddbcc6aba138c0119113f724835a9f704729b6779bee04f60001b6200379a565b6200e5927fb4d2e37c426983ee2a945d46707f92ff97009556aa672e4adf78266a4bffbb2460001b6200379a565b60008260800190151590811515815250506200e5d17fae1b6421a25096fa7d5fcd4f1530a362023139c5ed307467f82fb0c68352482b60001b6200379a565b6200e5ff7f7f596389b5d5cd2b260fdeee8800dd226302933a3194f1368a222236ed9c3b9e60001b6200379a565b6200e609620056ba565b8260a00181815250506200e63f7e281ae1995e7fc2bbed329b4bce67c34fe1542a3c3d5fc0c1dcb7d968bc4c0560001b6200379a565b6200e66d7fb684f29a577de507228504bd655e6025697ad67db5a5537d879627488209b44660001b6200379a565b6200e67762006f32565b8260c00181815250506200e6ae7f3d58b65ddca95e241017981f60ddea0431f46b324454369b272f92e4a96254d960001b6200379a565b6200e6dc7f5d32d03888f1a04f09107652ef61872fbe9ffa89aa47306fe3b71d9729cf3ec060001b6200379a565b866080015173ffffffffffffffffffffffffffffffffffffffff16634d6228316040518163ffffffff1660e01b815260040160206040518083038186803b1580156200e72757600080fd5b505afa1580156200e73c573d6000803e3d6000fd5b505050506040513d60208110156200e75357600080fd5b8101908080519060200190929190505050826060019073ffffffffffffffffffffffffffffffffffffffff16908173ffffffffffffffffffffffffffffffffffffffff16815250506200e7c97f570b7af3e9b27de6c104f28f8aa74be46e913adaf6f28bc6c90f9649c8c87cad60001b6200379a565b6200e7f77f25462315f24a307b7187584ff2a932111161886564bf69f9c5a3472e4178d62e60001b6200379a565b6000876080015173ffffffffffffffffffffffffffffffffffffffff16631e2231436040518163ffffffff1660e01b815260040160206040518083038186803b1580156200e84457600080fd5b505afa1580156200e859573d6000803e3d6000fd5b505050506040513d60208110156200e87057600080fd5b810190808051906020019092919050505090506200e8b17f6adc4d243ee38c98a37f0123a63d5b530bb553c506895c9d1dc7fade6775400560001b6200379a565b6200e8df7fd79a053cc05d93058762bc85e18a1a75056c27561356fa713d54b7c1e731aab860001b6200379a565b60008360200181815250505b8483602001511080156200e92f57508073ffffffffffffffffffffffffffffffffffffffff16836060015173ffffffffffffffffffffffffffffffffffffffff1614155b156200f2e4576200e9637f71e83fe7fc13420aef879efd984ed259702ba66c4fa4ae28999ff7816bec4ce360001b6200379a565b6200e9917fea3abbfc20f3884c13cae20380ab42cee6c6e86de048bfa4b1545d9fc2d6446e60001b6200379a565b6000886080015173ffffffffffffffffffffffffffffffffffffffff1663b72703ac85606001516040518263ffffffff1660e01b8152600401808273ffffffffffffffffffffffffffffffffffffffff1673ffffffffffffffffffffffffffffffffffffffff16815260200191505060206040518083038186803b1580156200ea1957600080fd5b505afa1580156200ea2e573d6000803e3d6000fd5b505050506040513d60208110156200ea4557600080fd5b810190808051906020019092919050505090506200ea867f119b75b0410d2ee55ebc011b0079646d404d8aa70c052ce1dab50c7b3298c51760001b6200379a565b6200eab47fc0fda3e0c54ffdb1a6d90c603b4970fb079708850b67b0735a5febb095f9724860001b6200379a565b6200eac48460600151896200981b565b8460400181815250506200eafb7f4eb65e29c26848b6e0a4178176ab11d8c5d34299f32fadd12b420b2cf2c4bf4a60001b6200379a565b6200eb297fa2ff9c0525e7b39cd8a8828f5689d67f889861b41ca237852d6f17524f7377d860001b6200379a565b83608001516200efe8576200eb617f715c8dff5867edc9da0a5d27e90b12876dbdc002eb04c8de962854ddc5d223fe60001b6200379a565b6200eb8f7fff8693d52d5025839e892ed89d5da850ee82525f9d07e384e6f372379cd9e0a060001b6200379a565b6200ebbd7f3ca69cbff9108bb9d5b227c25e74d8c723afd6adce1788981f208a1e5b68ae7960001b6200379a565b670f43fc2c04ee00008460400151101580156200ebde575060008460000151145b156200ec19576200ec127f20c46ce56f05a53207024451c964d21f83a664c1a37dc305f781f9d5017d8f9260001b6200379a565b506200f2e4565b6200ec477f20ac4acfa3bd07b5911376228607b766f1c22e14e69ff9fa3f409b2d740883eb60001b6200379a565b6200ec757f2dfd1644cc838425918ebe2f224e36915638f4894ab8b33c9cf4156979a599eb60001b6200379a565b6200eca37f112c3aa09f272176389f6d2ac7d570527848c3e31e5b2cb2b675c566d55f3ee760001b6200379a565b60006200ecba8560c001518660a001518b6200feaf565b90506200ecea7ffbf5cc5ce25140b944c94f8cfbac8c99a4b0972bdefbeda36a3ed7f98749ac7660001b6200379a565b6200ed187f7409c631422376cff9f5bccdf51d351de85a1fbc3c84cb9f331bccf5f94bd78b60001b6200379a565b6200ed3d8a600001518b60200151876060015188604001518960000151868f6201431c565b93506200ed6d7fba4edab21b19b537b4a67c77533face34524c2695e9863152bbe0103e0c318ac60001b6200379a565b6200ed9b7f61575e98fb5b6e35af7d4171bc63b526a11e7267333ccdc476d064a98a5486ec60001b6200379a565b6200edb8846080015186600001516200aff490919063ffffffff16565b8560000181815250506200edef7fae70e9ec0add4edd75ee5aef758d3033ed7c8cf5f82e93f194bedf6fc73cec8a60001b6200379a565b6200ee1d7f82c820169a1cef5efa0c6aac1ee0612d04c5f57ebd0ec9c5bbd2330d7dc69c3960001b6200379a565b6200ee3a84608001518660a001516200aff490919063ffffffff16565b8560a00181815250506200ee717f6ae18c34614512d3fa1476bcf02e18f1bbcd4926a6f7933854fab9522d9faa1560001b6200379a565b6200ee9f7fbd673396c27c6d9b63c54b76895fd3a85f9bf2d82c068f35c87dc1b78f2ea04660001b6200379a565b6200eeed8461010001516200eede86604001516200eecf8860a001518a60c001516200aff490919063ffffffff16565b6200aff490919063ffffffff16565b6200aff490919063ffffffff16565b8560c00181815250506200ef247f2d070a1fcec42fc64697d72a62460a53f41dbed86ae9ad1aec16dc7168b764cb60001b6200379a565b6200ef527f20daff817127dbd63439a5f0f6e43e69eb66d2a11f020a8a0356905620a01c2960001b6200379a565b6200ef5e8685620157e1565b95506200ef8e7fab7cf2b41669fce6193693f56fde134e90764fa34a3abe1a58b32891a7d8510460001b6200379a565b6200efbc7f0ff1453420f91d8f70df889d309812d14017c0d1fc577b3290855c69b172f32960001b6200379a565b6200efd18560c001518660a001518b62015d13565b15856080019015159081151581525050506200f239565b6200f0167fa3872665b67317fdca1d6f00f0fe7f2db85bc60c8a744c5ce4f0bd18f44ede3f60001b6200379a565b6200f0447f5e9dc765a44752a0d097f68e8730bfcbbe0a65963de2efe5bd3d6282f40ac53360001b6200379a565b836080015180156200f0615750670f43fc2c04ee00008460400151105b156200f203576200f0957f46dff4728fc490de22cdfae0225ce432de7749541b19995585bc409b90db47c260001b6200379a565b6200f0c37f573a469248298c01d640d8258950d208e9e4162a5a6b7df7eb816717f8dafb8260001b6200379a565b6200f0f17f218c3dde872f561c62ef705d33eea02805126cb5ace4e137e4b6f825c20a4f3160001b6200379a565b6200f10f89600001518a602001518660600151876000015162015e21565b92506200f13f7fbb148a763ef09a1b589d9af7ce1c27e996dad836998ac98674ea2b06ab96d5d560001b6200379a565b6200f16d7f1ae9fea263a8fee0665fe381d099951184f1aee425d387c1c4f557a84a835dd360001b6200379a565b6200f18a836080015185600001516200aff490919063ffffffff16565b8460000181815250506200f1c17fffcaa1a3f51d8714784262199b5ba0b9fe830fab7c4fa14751489f46c5d9674560001b6200379a565b6200f1ef7f2a6215998bf1bd472780803517c69114a3584afc00cacd25867106ce7c6f1ed660001b6200379a565b6200f1fb8584620157e1565b94506200f238565b6200f2317f318b6753a96c65a3228847837af693cc3ff46f63dbde7384ecd87722398e86bd60001b6200379a565b506200f2e4565b5b6200f2677f1b33d5eebbb91f34c4e1b25e3d4bfefe2aad39c6657e32926db44ccc4ef26a7e60001b6200379a565b6200f2957fc01f6973e4c79897b37856af817b3555c01fe1d4fc76ae77567d622f02ba583d60001b6200379a565b80846060019073ffffffffffffffffffffffffffffffffffffffff16908173ffffffffffffffffffffffffffffffffffffffff168152505050826020018051809190600101815250506200e8eb565b505050949350505050565b6200f2f962017def565b6200f3277f4d35a9a50aa24a14f6dd60f80fcec2dca08b8ffd2248573017747dcd10877e9160001b6200379a565b6200f3557ff472969d30671b6125fdc4ce1d04887ab3fd1c6d2d0291e1ef29780e3055a35460001b6200379a565b6200f3837fa2d4510ae691167a42e43fe59ce41b74abe8dd3cdb547e67e6d245eb8bb8f79f60001b6200379a565b6200f38d62017f7a565b6200f3bb7f3888fab5159bae08cbd51b43dd3981389aff82640dd6a436bacb6755e63d14d960001b6200379a565b6200f3e97f1cc1b68057307fcfa9da6aac18d543f9b18beba406fd30b4db0178da3cc3c2b960001b6200379a565b6200f3f362017fcf565b6200f4217fd43d01c0d8c064c3561d9c903b4d77fb78d8790ca65a74e72f0d8e9340cf6da660001b6200379a565b6200f44f7fb4526483bcf5ba4f24a7c8575e4c4288729fc0e1d6fb541d4c4521c76f8e9ae560001b6200379a565b6000600b60009054906101000a900473ffffffffffffffffffffffffffffffffffffffff1690506200f4a47f87b1e19fb4af802a5582d0c958641d216576899fdfa160bd2a158def1ffc7b2260001b6200379a565b6200f4d27fab0e83f942a3cb83cdd62495ef1b5baa7e53c33d6e2b995275708c7903ca26ee60001b6200379a565b858360000181815250506200f50a7fd03a4b2dbaacec025dc7640616e73a22225e5e9a8f5635d79c01293b738ae5fc60001b6200379a565b6200f5387f5fd55ab995135e1dc0ef0eaac592a6bfcfd592ef602837f8b88ae49592d4226960001b6200379a565b60008360200181815250505b84836020015110156200f92c576200f57f7f536c4578805d684fd0779b6b8a0d259ae84ebe4000e4d4e69e4118d216e4cdb160001b6200379a565b6200f5ad7fcaf1fa9722c37dffb77189a7247cf8b4ff6e41fc372636c00e17a1fdebc42bf060001b6200379a565b8073ffffffffffffffffffffffffffffffffffffffff16634d6228316040518163ffffffff1660e01b815260040160206040518083038186803b1580156200f5f457600080fd5b505afa1580156200f609573d6000803e3d6000fd5b505050506040513d60208110156200f62057600080fd5b8101908080519060200190929190505050836060019073ffffffffffffffffffffffffffffffffffffffff16908173ffffffffffffffffffffffffffffffffffffffff16815250506200f6967fc3f6d9efb392f670af954c6a7a113d5f8a041eb13128528201ee08892518cea760001b6200379a565b6200f6c47f640972e5f7329b1fcb1fa52c6f7643d4024bd278c61e26541f4174413ea125b160001b6200379a565b6200f6d48360600151886200981b565b8360400181815250506200f70b7f978c1e4758454d39ccbad78359f84ec4553b43bc2d7977bf934b28181d378b4d60001b6200379a565b6200f7397f1f368ec729bb71120451f5ab2bda088d81052b8e4f00346fca7e66cba785aba860001b6200379a565b670f43fc2c04ee0000836040015110156200f8e2576200f77c7f1049f7a2d8927361804b6f501d90a8584210b5b2c3c665e62b8fc156e19c677060001b6200379a565b6200f7aa7f9efa94b9abfb6d35df421e4ac008ff2aade758b7602954b48715c5a272c2c38260001b6200379a565b6200f7d87f837b30ae57fba5e215cd0abebfa54d4089ded09c095ee031c30d7a001bc29e2860001b6200379a565b6200f7ee89898560600151866000015162015e21565b91506200f81e7f7f96bf240b91a3748f9efe72daf075cd4a07343b2a0ad78e00dd8ba55c2ae11760001b6200379a565b6200f84c7ff17e02e546136b5cb3707e3a18774b01393f454163e2b41e259be0734412eb6260001b6200379a565b6200f869826080015184600001516200aff490919063ffffffff16565b8360000181815250506200f8a07fa9e598af8fc8f57117eb741295ecc68f97b0e4b0f12559b885ef9997d520d5e560001b6200379a565b6200f8ce7f15bc2ff44107ba83287636bd19c53d912bfdcc94ed466a3e8efb015c89c397fa60001b6200379a565b6200f8da8483620157e1565b93506200f916565b6200f9107f4337dd3beb5333f8fcd318f1e13654b4f16e7c60952cf2a38e0a4152874e866c60001b6200379a565b6200f92c565b826020018051809190600101815250506200f544565b50505095945050505050565b60006200f9687fc570e0b28f7fc8a5a4b1498d75d9bb757b90e23ad200ca3c87fcc28cc442b6e260001b6200379a565b6200f9967f64b47f459d2e26f4cea8078d844b3bea2129aa38cc78105e8ccb665a3edf637b60001b6200379a565b6200f9c47f395e099a487f5df1c03b0047935acf7bcfb6b3f90ab3f15a2d386fe5b945519860001b6200379a565b6200fa116200f9f48360056103e8670de0b6b3a7640000816200f9e357fe5b04026200fa1890919063ffffffff16565b60056064670de0b6b3a7640000816200fa0957fe5b04026201648c565b9050919050565b6000808284019050838110156200fa97576040517f08c379a000000000000000000000000000000000000000000000000000000000815260040180806020018281038252601b8152602001807f536166654d6174683a206164646974696f6e206f766572666c6f77000000000081525060200191505060405180910390fd5b8091505092915050565b6200facf7f35bc9e5e61c1438a006153cf69ffd6105766a3055440d22f6c8ce219146d68af60001b62007267565b6200fafd7fe66c045f45b868efda896f2af22ed71637a4e9e8d13a2b1962badf362ba3eeb960001b62007267565b6200fb2b7faaa4b517f253b4fa37cb2875514a22e04e7d5828c244c7095a27e85408ccd12c60001b62007267565b6200fb597f1221da0bd0f16fcbee175d4dae7d6b598e327e79264e77ced4c93a6a0721871b60001b62007267565b600073ffffffffffffffffffffffffffffffffffffffff168173ffffffffffffffffffffffffffffffffffffffff1614156200fbfd576040517f08c379a000000000000000000000000000000000000000000000000000000000815260040180806020018281038252601e8152602001807f4163636f756e742063616e6e6f74206265207a65726f2061646472657373000081525060200191505060405180910390fd5b6200fc2b7f09f0dc62d572b9e8dd242a1b7e25c3c5de1610d6c480bec35912dd5840f55fec60001b62007267565b6200fc597fbe74447fdea037b64141768df2430eb2b7113bef949c88d88dcdc549ba88703360001b62007267565b6200fc877f04e66872d3f4c69728dfe545a06401e1b17e0f9dd5e1d43290514ae4fd92783060001b62007267565b60006200fcb77f60826eea4af75abd2223d108cb037485a60c485e699a12a42cac24982b89800660001b62007267565b813b90506200fce97f7acec79ba6fd0be7bb4b2bfca56ca8eb3d8333d64e828971ccb7647facc3806360001b62007267565b6200fd177f0c7e0405db301404f844860b9fe6e14e956a97134ff8695c88184f1c957d6e0860001b62007267565b6200fd457f1c5a94c5a5d640e17d84bedbf9409c7f8afe563c4b1fceef7bced5961764ee0f60001b62007267565b600081116200fdbc576040517f08c379a00000000000000000000000000000000000000000000000000000000081526004018080602001828103825260208152602001807f4163636f756e7420636f64652073697a652063616e6e6f74206265207a65726f81525060200191505060405180910390fd5b6200fdea7f1023f03b6261b194c29dee3596b0d25a3be14b60910a1d249d0177db54f54c4a60001b62007267565b5050565b600073ffffffffffffffffffffffffffffffffffffffff16600360009054906101000a900473ffffffffffffffffffffffffffffffffffffffff1673ffffffffffffffffffffffffffffffffffffffff167f8be0079c531659141344cd1fd0a4f28419497f9722a3daafe3b4186f6b6457e060405160405180910390a36000600360006101000a81548173ffffffffffffffffffffffffffffffffffffffff021916908373ffffffffffffffffffffffffffffffffffffffff160217905550565b60006200fedf7f1fb1c924071e50c2aa9d7f09291fd7831d6481aed3d64d9a31927fcfdf29670460001b62016d49565b6200ff0d7fe7b149e83ffc59b38b39430566aa51ffe74fa9a62f9938fe60d6498035c2084060001b62016d49565b6200ff3b7faee8586873401c81b69ef021f1b4b5e621ddc8264ed2170bf01f4cd794b65e9560001b62016d49565b600083111562010062576200ff737f938b7a907927def325175a9b9763324c21d376a1db58b873fc572191995adeee60001b62016d49565b6200ffa17ff3fb017b46a6cc03056717fe487f10efbc4957bbee55feae53211d955232e77d60001b62016d49565b6200ffcf7f9cce84226470f7604a220b104bc94d4e1416b0a5f92e345811d5a6128b8d335060001b62016d49565b60006200fffa846200ffeb85886200deec90919063ffffffff16565b6200df7790919063ffffffff16565b90506201002a7f29c960a6fa3b8822049ee000006565af8f6225894520628c65eb2fc49a99191e60001b62016d49565b620100587fb7ae7f080fe4eb0c3f53fc10df2345210d66b1892b1a75445349a70febf2803460001b62016d49565b8091505062010110565b620100907f8def5a1860b799231f1daace23252caf496d44221af1a5212660498a692981dc60001b62016d49565b620100be7f7a561ef4150ea5b53610168f34b9d8e9711bf468f453fff46192e6af13353e8f60001b62016d49565b620100ec7f57732a23ba8b96e60679d6ddbcc37e1db663eb60ba05c84a212a4c73f10e9b8760001b62016d49565b7fffffffffffffffffffffffffffffffffffffffffffffffffffffffffffffffff90505b9392505050565b620101457f2c93dd66cce74ae504b67ac6b520c7637f68328af17c3dbb236bab558b04efbf60001b6200379a565b620101737f0879cd8595cec77ce3e9f667f686a475e9eb2d87409d6c843394d949bab4111160001b6200379a565b620101a17fae1d1593ec2804383fc5afe99d44a0d8c50a8c2ad7a88df03ac895c12dd3f95560001b6200379a565b601254601460008373ffffffffffffffffffffffffffffffffffffffff1673ffffffffffffffffffffffffffffffffffffffff16815260200190815260200160002060000181905550620102187f38edd436534bb0fc9278070b1c154f222aae54ed98ae307fc2384fac6e8cb69560001b6200379a565b620102467f180d55f5d1e6ec8891d001bca3457d1caf23ecc3a2ade896c9bde0b8d490859360001b6200379a565b601354601460008373ffffffffffffffffffffffffffffffffffffffff1673ffffffffffffffffffffffffffffffffffffffff16815260200190815260200160002060010181905550620102bd7fcc38ecb99def16b8acec37b17e698c581b46b236dada00a8c3a0df6e859e8e2760001b6200379a565b620102eb7f95f32b9a9c90d92bbfcfa8ffa67e293710f87a23c07f76dcec3b9f5a096527f060001b6200379a565b7fc437f324d85e369394148dd9d62f98f534b382e01ed3dd2eb98138fb6d3ab49a601254601354604051808381526020018281526020019250505060405180910390a150565b6000620103617ffadec59c1bef1cf05ba577c30baad440664aa522cd6dd846bae1805149c2d15860001b6200376e565b6201038f7f5c85e7bb79e376199bf634a221c16ecbccfe2bea14622292be918c0722354f0660001b6200376e565b620103bd7f4d580af00da1d748d8f5c30254281f96e0df82d9318051fec12d0701442cf77460001b6200376e565b60c88281620103c857fe5b049050919050565b600080620104017f6517f7a92bde3c1b9e27a91b545885e38dabebecc7a3861c65e9bec1dff24ca260001b6200379a565b6201042f7f18f031ff0c7e2735819163a8caef401a5f41759a449a4b446669779bbdbb086760001b6200379a565b6201045d7f462672c1225c2ba3adfe9b93bdcca39dc6fc6ea78a295d212eaedc51588d28ff60001b6200379a565b60006201046a8462003bed565b90506201049a7f173afe8d1ccab25f548f6a16f3f36f8819b0fa4185a13522f5b99e742a842ef160001b6200379a565b620104c87f7c5e14f7acd59efc6051b2a039404b6e913b25b01ca4e3f2b5d6e4ee8112c2c460001b6200379a565b6000620104d5856200a0e9565b9050620105057faf0120f612fea077c2b1a75aa910ed1ce91700429fb34b09b16148a5e643415760001b6200379a565b620105337f704a449f3ed5eca1bc390d282e3447e66fd6125485743547e87d58d68daafb1b60001b6200379a565b60006201058c83600e60008973ffffffffffffffffffffffffffffffffffffffff1673ffffffffffffffffffffffffffffffffffffffff168152602001908152602001600020600101546200fa1890919063ffffffff16565b9050620105bc7f4e6acdb66e92ce2b431740c881b8a89d1e78fad2a784444b4cd3bc7c356a2df360001b6200379a565b620105ea7f6e9e898df2321557cef717cf847bf0fc0d977a67d39cd02a04afe16abbee2a4d60001b6200379a565b60006201064383600e60008a73ffffffffffffffffffffffffffffffffffffffff1673ffffffffffffffffffffffffffffffffffffffff168152602001908152602001600020600001546200fa1890919063ffffffff16565b9050620106737fd87a3d8f788e58f088e69c69809c8c0f821a16f681848923db489aa65e04196560001b6200379a565b620106a17f6bd97a86d78ec9f7f7a4b5e969d661352d41ce97bf0fe03adae7fc45c057bd2560001b6200379a565b81819550955050505050915091565b6000620106e07f0a957dc6e50b79f4198337292f975c97f1e46d2fd879495bd9d3e8b465c5908260001b62016d49565b6201070e7f36b6df758e5d32c7a54e70939249466cd685f55a6000a796488d904e950ff55160001b62016d49565b6201073c7fdae53b9988856ecade943ff600d8410ffe098b0e9b0d2a20e0d4e6d629dadd0560001b62016d49565b60008211156201080a57620107747f97ba562ff5a52d5e376440b75dfde7cde5ac945e09a50385ed302c8fa4c93a3560001b62016d49565b620107a27fea72f26e58a660e89daf76a6338c4ea7c326b03c642e05985fecf7e1344071e260001b62016d49565b620107d07fc566fce390725f3d5e0bf4a75af0125a0be036fa403638b30478399b1c0c30c160001b62016d49565b6201080282620107f368056bc75e2d63100000866200deec90919063ffffffff16565b6200df7790919063ffffffff16565b9050620108b8565b620108387ff93684451e504ecaf8543b25ab42519bfa810eec4ba3d920d4653a1c16b0e8cc60001b62016d49565b620108667fffa4d87f788e1c9f8814f84d7b1775d9b36b21962786a14d2a1ebae57a7a352160001b62016d49565b620108947fb15b56e0dec2133675b26fd4423bbd9ae3370ed1bdb703025845a76469b40a5360001b62016d49565b7fffffffffffffffffffffffffffffffffffffffffffffffffffffffffffffffff90505b92915050565b6000620108ee7fa5c6fa8c7def441f1be05517fef3e2bfc4c4aa0a7ef26d21bdc730286b56187f60001b6200376e565b6201091c7fd499fbefdf090ac4cea6a2d9d41d38180efa5d32eba0bb86dd6ec954b6265b3760001b6200376e565b6201094a7f04774a2abca466ee6e8e9d15158062786d6899a5aacf8a77eca74ecb601e66b460001b6200376e565b60006201095662006f32565b9050620109867fd3ec13336a12ae3ec7d52e0ab0fc46c6399078cd8ab182540768b6e3e36cee5e60001b6200376e565b620109b47f59ec8bcdd2b9017f3970492ffe01bbea2f58060535d079c4c6792190d42e933860001b6200376e565b6000620109c0620056ba565b9050620109f07fa48897db9f12b855b04380b44869929736061d5cd6bee9832714343f36ef9e9360001b6200376e565b62010a1e7f2a96244e0f24a35c7d29dd04bb8f302d322110258be8eee9f18a6c832ef231e760001b6200376e565b62010a2b8282866200feaf565b925062010a5b7f25f03781ce63d95c9c99c0377d620c6f36bfe68fa932a9706d95ce3de845bdc760001b6200376e565b62010a897f5914794168c514cfab5e62c42ca4e0107092ef310237de856bd7d5246d051edf60001b6200376e565b8292505050919050565b62010ac17fd36802bb024a3e0e7e55334fa2ffdaa171540556b8d7d79d9cc900921f603b4b60001b6200379a565b62010aef7fe4676f078c9387a339d606195e759f689d2150a516960f948ce73cb46d72cf0960001b6200379a565b62010b1d7f1744d533b93995429f0eff0f9da39b37cc9f357ccfd10185ce2b3aacb5009b3160001b6200379a565b62010b4b7f8b70eecb15960d48023a86e9c42964d6f5885bda46e42aa43cb14b53ce9f4cd860001b6200379a565b60056103e8670de0b6b3a76400008162010b6157fe5b0402811015801562010b7b5750670de0b6b3a76400008111155b62010bd2576040517f08c379a0000000000000000000000000000000000000000000000000000000008152600401808060200182810382526030815260200180620182146030913960400191505060405180910390fd5b62010c007fb6c9673c9ae1c2854fe2a5bad615ab8de13cd91b4f727d2e344fbf4c0684ba0a60001b6200379a565b50565b62010c317f81f1b1865c9a122dc1bce3879c9b00d2fbbb4495423995d441dcba689bc1240f60001b6200379a565b62010c5f7f84e38c018793748bbd21a649421ad03367fe75ffac0ea2521fe47e6dce0536cb60001b6200379a565b62010c8d7f4ddd53a6a948e973ade1ffb47048a990ff39fc77d0f72d059c633e906804a4ac60001b6200379a565b6000600960009054906101000a900473ffffffffffffffffffffffffffffffffffffffff1673ffffffffffffffffffffffffffffffffffffffff16633c84b7c26040518163ffffffff1660e01b815260040160206040518083038186803b15801562010cf857600080fd5b505afa15801562010d0d573d6000803e3d6000fd5b505050506040513d602081101562010d2457600080fd5b8101908080519060200190929190505050905062010d657f1c844d7c97b1e7c57f8bb37a023661eaede2c9c98c8b2a53945ba4c64f2f824560001b6200379a565b62010d937fb8aaeb7b214a3479a713f4f6b5fe1ba2ebf7340b52d7f7f5547ed6a5ab56d71a60001b6200379a565b62010dc17fc1b56a144f03560604ab69178271d449f4113a80a57d931b29aea78cdded8ed960001b6200379a565b62010dd962127500826200fa1890919063ffffffff16565b42101562010e33576040517f08c379a0000000000000000000000000000000000000000000000000000000008152600401808060200182810382526040815260200180620180906040913960400191505060405180910390fd5b62010e617f60d72ed2cb98a8d7c7272eed13efffc0bc7820f357460c8ad1e7017fda33f05460001b6200379a565b50565b62010e927f9b490b32749d5c01b16340c49805f4ec26022579093e4c0681ce9883e630116d60001b6200379a565b62010ec07ffe0276e196d8e11635ab3673804a430f352432a3a70de78e9ee0de530e763d0860001b6200379a565b62010eee7ffbb1d0875a396e1a57c1067d988ecdce6dc479d9d33d72f69730cd5013c3e8a660001b6200379a565b62010f1c7fbdf63a5025cd4f7894a800bf6339f2265dc64f9be098dd510549f26816244c2e60001b6200379a565b670f43fc2c04ee000062010f3082620108be565b101562010f89576040517f08c379a000000000000000000000000000000000000000000000000000000000815260040180806020018281038252602a81526020018062018244602a913960400191505060405180910390fd5b62010fb77f5f6f932715e281ff9e38f2dac88f385d13ca732e949bbb50cd6415c45e833cf460001b6200379a565b50565b62010fe87fa394e85015ad29d2fa7e9290fc4001f07ccd30ba442adbcdfe4430a2dc97bbdd60001b6200379a565b620110167f1fc53b1f0606abea744c702ed112467931928d76139219d07afe15e6631a9b4f60001b6200379a565b620110447fdf624b14d3c05596363b6e0a7265ad9807db754abb1965dc284e62e331caa49260001b6200379a565b620110727f4b15f8de54cd33d56bba31cfddcd39295cedeff8bc5132f2338d2373e91be2b060001b6200379a565b60008111620110cd576040517f08c379a000000000000000000000000000000000000000000000000000000000815260040180806020018281038252602e815260200180620181b0602e913960400191505060405180910390fd5b620110fb7f062bfc8ff06a1282568a05efccdbb4851f39752cf6712eae4501e2b6da2244a560001b6200379a565b50565b6201112c7f88c61a7734b6648e0ba27d7cd067f01e492c60cde4a1a878c1f717f00108704760001b6200379a565b6201115a7f11cb264ae84e42e08c7772aab7a3be207456a285eccb35fe204d8024297f5ff460001b6200379a565b620111887f17309c893d189b8088bd0130df151c1473368172f760cd43c25a79f8913856d860001b6200379a565b620111b67f7ee18f8a43cd6113490da417c93b02a6dcf72e0737137f93502ac407650ffaa360001b6200379a565b808373ffffffffffffffffffffffffffffffffffffffff166370a08231846040518263ffffffff1660e01b8152600401808273ffffffffffffffffffffffffffffffffffffffff1673ffffffffffffffffffffffffffffffffffffffff16815260200191505060206040518083038186803b1580156201123557600080fd5b505afa1580156201124a573d6000803e3d6000fd5b505050506040513d60208110156201126157600080fd5b81019080805190602001909291905050501015620112cb576040517f08c379a000000000000000000000000000000000000000000000000000000000815260040180806020018281038252604e815260200180620180f1604e913960600191505060405180910390fd5b620112f97fcee7590b0c2a7dec1b013cde294765fa1033ce769bbcdb572595e7b141f72bd860001b6200379a565b505050565b60006201132e7f40a50e450bcb0189cf8c03d344ab840978b0967b63f7dca993bc92eda951b1fa60001b6200379a565b6201135c7f8db3ae112628ecdb45caaf261348ff5e30c6a3ae5f35e60b04b932344e9da29060001b6200379a565b6201138a7fda9fcba5c4095980346715671969279247a288c019e54a812e314cf621b2d95060001b6200379a565b600073ffffffffffffffffffffffffffffffffffffffff168373ffffffffffffffffffffffffffffffffffffffff1614806201147e57508373ffffffffffffffffffffffffffffffffffffffff16635dbe47e8846040518263ffffffff1660e01b8152600401808273ffffffffffffffffffffffffffffffffffffffff1673ffffffffffffffffffffffffffffffffffffffff16815260200191505060206040518083038186803b1580156201143f57600080fd5b505afa15801562011454573d6000803e3d6000fd5b505050506040513d60208110156201146b57600080fd5b8101908080519060200190929190505050155b806201149c5750670f43fc2c04ee00006201149a84846200981b565b105b156201153657620114d07f299348a8739b0147264775524bf506c0c7a3b05d7b6ea63622dc76341c69899c60001b6200379a565b620114fe7ff7ebe92b285c176e3a2d2b8660921fbfe4bb9fe92df7010fd49daefbbc4601d660001b6200379a565b6201152c7fe0bc3f68c09c6887e76238e1a99079f06ed82344f9c6df73da76409997c4684260001b6200379a565b600090506201172d565b620115647f3c52f72b8eaad5e8cea6b25853b5b08bc0f098351de8ad83b92886e7c9454d7b60001b6200379a565b620115927f5d40488610d33ee5df05677368d7cfd72edeef5289b8d983015a029d2ab5686a60001b6200379a565b620115c07fecfedc34b0d61d33883af4f87fbaf1eb853badb235ac1b1f810afa258a8aa79260001b6200379a565b60008473ffffffffffffffffffffffffffffffffffffffff1663765e0159856040518263ffffffff1660e01b8152600401808273ffffffffffffffffffffffffffffffffffffffff1673ffffffffffffffffffffffffffffffffffffffff16815260200191505060206040518083038186803b1580156201164057600080fd5b505afa15801562011655573d6000803e3d6000fd5b505050506040513d60208110156201166c57600080fd5b81019080805190602001909291905050509050620116ad7fdd8eb3d62c2b5f1b4096b342cd89b37cc48ec35f3bff631b1afa10f0a1be1d3660001b6200379a565b620116db7fc5e7051cf9304a464ee821a31f08887f00313aa297c8754043233fee2f716c4d60001b6200379a565b600073ffffffffffffffffffffffffffffffffffffffff168173ffffffffffffffffffffffffffffffffffffffff161480620117295750670f43fc2c04ee00006201172782856200981b565b105b9150505b9392505050565b6201173e62017f57565b6201176c7f7abde7cd014fda99e837a2694d0edf2ecbfbc80c0c24c73fedc7b2e2bf5624cb60001b6200379a565b6201179a7fc8b3cf518b2eef38d76cb825f3e2f8fe7543c9c281df1ef95ad7c1a0dc26173260001b6200379a565b620117c87fddf6537f055281e8ddc1ff77581a68621abd0225098e4fa3c5c842e45a80668e60001b6200379a565b62011833866201182d680ad78ebc5ac6200000600e60008c73ffffffffffffffffffffffffffffffffffffffff1673ffffffffffffffffffffffffffffffffffffffff168152602001908152602001600020600001546200aff490919063ffffffff16565b6201648c565b8160000181815250506201186a7f61aa46ca40e7c83f20f88974bd76a1094523a2ddcb5ec5d537edbc0af9f3f69860001b6200379a565b620118987f653e9d94a3b77812bd0b3c3e2b6c7bd4501cc4c3bae071a338bb6120af064d1660001b6200379a565b620118cd85620118be670de0b6b3a764000084600001516200deec90919063ffffffff16565b6200df7790919063ffffffff16565b816020018181525050620119037e032fa82ec5d271e10da9f181874072a0bcb82edd0c00d99064bf0d18e4428d60001b6200379a565b620119317fcbe37de4842f29ea94f04e211f163b0731abea6b360e6c9b5b338b70631377e260001b6200379a565b60006201198e8260000151600e60008b73ffffffffffffffffffffffffffffffffffffffff1673ffffffffffffffffffffffffffffffffffffffff168152602001908152602001600020600001546200aff490919063ffffffff16565b9050620119be7fa5c71e3af78e2a34b447a58365d2add3421a41de2769edbbb0e5bfee5cf6f93760001b6200379a565b620119ec7f7f286cde7b2c95c39f9c0d6893aa2dea40f448f66d5bb92ca4bb5d78c2b74a8e60001b6200379a565b600062011a498360200151600e60008c73ffffffffffffffffffffffffffffffffffffffff1673ffffffffffffffffffffffffffffffffffffffff168152602001908152602001600020600101546200aff490919063ffffffff16565b905062011a797f8a3ed42d2142acf1080440813c0e5d4f99efdf34a1c1c215880bb0f085b26da160001b6200379a565b62011aa77fe552e8a8868ffdff96e1e9d62c4d5124a08a25277ae4ed1248f31295b3a7016160001b6200379a565b680ad78ebc5ac620000082141562011d045762011ae77f87e32e79cc77e8a5d2ac3d901360cd5e1105e7689e30e33ade2cf4b3f616dcd160001b6200379a565b62011b157f4aff8a7727b31a0d6c450ad9dfe0c45edec786ec58f859450d11ac73fde01dc560001b6200379a565b62011b437fa4db312e9b75235ef96221539dc32f8b983b4d887dbf04fa7ea9a7b48d3e7d3460001b6200379a565b62011b4e8962013ac6565b62011b7c7fb59106e95f56b31d0d56ba72f39f5b2fba0790e30038dc78649a62902c3ec57c60001b6200379a565b62011baa7f6dda74ace942e76e786c45816ea5c5e135b9a63d26ad9716fb22f0e1a405717b60001b6200379a565b62011bb789600462012ad4565b62011be57f73ed5c4beb76228976998d614c706fe5d9efc6b5c7f5d5571386e0185be7a3c260001b6200379a565b62011c137fb911025a5b49be35c11840f3893712a2ca3b4d367ecbdbc9effb447b06a313d360001b6200379a565b62011c2a8a8a680ad78ebc5ac62000008462016d4c565b62011c587f56b8d13e64633e6404c5119c7eabb2f999fb69259533fbf9f555a410bd79bed760001b6200379a565b62011c867f13b345c47dd9817bfdeb6889d537d69e1f1791e80a9d6561580790a90fbaabb360001b6200379a565b8873ffffffffffffffffffffffffffffffffffffffff167fc3770d654ed33aeea6bf11ac8ef05d02a6a04ed4686dd2f624d853bbec43cc8b600080600060036040518085815260200184815260200183815260200182600381111562011ce857fe5b60ff16815260200194505050505060405180910390a262012380565b62011d327f4b426b79486b3fd2fe6fbcd773d114deeac4c8ebdb553dfcfc34c5fbbedbd10a60001b6200379a565b62011d607f8d6598054f3af693b2ef2bbd8e850befc6964d77877c583f42d4afad5af05c3860001b6200379a565b62011d8e7ff11d7d08fbd8247d3734d22d83d3c65a8ccf2b71886907eb3f784ed8725f593360001b6200379a565b600062011d9c8284620106b0565b905062011dcc7f894bee621560769f417ae2fc081b5138906a6a01e15df38a68b72e2d3ab6892160001b6200379a565b62011dfa7f8f4855ccde2cf4c13e578b8da6277ef17ee403d319000543f0ccc8a4d8a7e71c60001b6200379a565b848114158062011e1c5750686194049f30f720000062011e1a846200de3b565b105b1562011f255762011e507fd23ee61f80af4f6a304b9730a68d2d42fac7db71356f8ab8c4b275bfbbc0e87460001b6200379a565b62011e7e7fe51039de2959e11008c29e8b63ee34c44977d38cdda6be256800346344ecc52a60001b6200379a565b62011eac7f47d48854cfa631c0cc9724728b1d3cac026889abf7da00b98091132d8323019260001b6200379a565b600184604001901515908115158152505062011eeb7faf2aceab4c0fe1593166ae828f5d50183940aca728fbdd4fcaa8145c550b71de60001b6200379a565b62011f197fd9428f1bf630fbf7756a603e5b4b111f1dbe9967ca44be5c6c09d9ab4d063f4060001b6200379a565b839350505050620123e2565b62011f537feefcce2f8435bc510912f0af7a1c9b912159ef0c2cd9d3c244d62d8d78bdf8e360001b6200379a565b62011f817f5b56dedc084825990176f290bf150d2b3d708280b370bf112d60fdeaf1235f3b60001b6200379a565b62011faf7fd4689d51b1bd849959c762014cdbfdebe3d118a1d029d7ba337436ace516e59060001b6200379a565b8a6080015173ffffffffffffffffffffffffffffffffffffffff16632be212608b838a8a6040518563ffffffff1660e01b8152600401808573ffffffffffffffffffffffffffffffffffffffff1673ffffffffffffffffffffffffffffffffffffffff1681526020018481526020018373ffffffffffffffffffffffffffffffffffffffff1673ffffffffffffffffffffffffffffffffffffffff1681526020018273ffffffffffffffffffffffffffffffffffffffff1673ffffffffffffffffffffffffffffffffffffffff168152602001945050505050600060405180830381600087803b158015620120a357600080fd5b505af1158015620120b8573d6000803e3d6000fd5b50505050620120ea7feae9d75f4e1cb0498eaa9ad61023eb871b111ed01b5b133606c0a249093fa26c60001b6200379a565b620121187fc4ec3f249ad9d9e55f4ae9ef99225639bfb83d4cabc5928a199553323ed544a960001b6200379a565b82600e60008c73ffffffffffffffffffffffffffffffffffffffff1673ffffffffffffffffffffffffffffffffffffffff168152602001908152602001600020600001819055506201218d7f2a0237dbe51124d7debe53b4e5cc46e2b3d9f5c678359c9884f713991871dd9d60001b6200379a565b620121bb7ffcb9787a2a8e8e4f422bf92ee1f53d617f629e98f2dd9942d53a297f45127d4360001b6200379a565b81600e60008c73ffffffffffffffffffffffffffffffffffffffff1673ffffffffffffffffffffffffffffffffffffffff16815260200190815260200160002060010181905550620122307f9faba59f19244566f9f89270393a4d22b88e643c32d3556a7daa3b275bd23f5d60001b6200379a565b6201225e7f5b9a0ec9825d4fd6887b457d2c76ac5cdd04eca6549d1353995d66701ceb5be560001b6200379a565b620122698a6200b2e1565b50620122987f23aacdb34e0f8d82ac9ae3578dc572e439cc8d12192e4bb7c541c15d0f32751360001b6200379a565b620122c67fa359d88c6da6cf9565566a3fcb4db6eaf5dc9c0d1d46a060699c933f28a808ce60001b6200379a565b8973ffffffffffffffffffffffffffffffffffffffff167fc3770d654ed33aeea6bf11ac8ef05d02a6a04ed4686dd2f624d853bbec43cc8b8484600e60008f73ffffffffffffffffffffffffffffffffffffffff1673ffffffffffffffffffffffffffffffffffffffff168152602001908152602001600020600201546003604051808581526020018481526020018381526020018260038111156201236857fe5b60ff16815260200194505050505060405180910390a2505b620123ae7fc377faf9342f70e06d888897ee504b228e63c2839d577ff1455b38b60748170960001b6200379a565b620123dc7f05bdb8935ae2ed504c18270d7e4e79e9d54254b423b68e16485b5d417a6009d060001b6200379a565b82925050505b979650505050505050565b60006201241d7fea0260612b34be54e17cd98b8ff8aaa1d2beb54a0df76f3dff18cec013c0a45160001b6200379a565b6201244b7f9d99352dfafe73e97be730411b65f09890d9032433170921a6fbae3a924ce42960001b6200379a565b620124797fcea67a19304b4cd8f6e5c9f795c2f1f2aba536ab01f376e46caec406cb9ae64e60001b6200379a565b6000620124856200dfc3565b9050620124b57fd3167ec4f6c52ebb83930fba7bd0b93d9cca3662a7bcca20411b2b44b903b7eb60001b6200379a565b620124e37f98a3fb84920330a633e306b2e11b826328f073d144fe443c88b7b2361a6c44a660001b6200379a565b60006201250e84620124ff87896200deec90919063ffffffff16565b6200df7790919063ffffffff16565b90506201253e7f0b2699dbad5e6a45aacbf1860d9f1f942f1eca2e0ecf17c2b74faaf4b1418a3f60001b6200379a565b6201256c7f456510e4f0f4abc4337ce209ea1b99e115d48df4d2bd89e25b2a1d66828d9e9b60001b6200379a565b600062012598620125886002846200df7790919063ffffffff16565b846200fa1890919063ffffffff16565b9050620125c87ffb1af601f8ee45d92e8c8c3772cd97521d5b56c5b9838125bb4c0dbccd86accb60001b6200379a565b620125f67fbd648c5808c2174a07f83a0353e2ebd232f9f6644f4facbd09267cf2a38ffdde60001b6200379a565b6201260a81670de0b6b3a76400006201648c565b90506201263a7fa1cd426d7fb56c820c849953f03341ea28716ee88df06ab08b2ddbd78de4bf9f60001b6200379a565b620126687f87d760a657a6d928400a141305153691396ec63cbdb30afe4a869950baf37a9860001b6200379a565b600081116201267357fe5b620126a17fc6a752dcd656790c0c8abb03f6b15f8a0d4a706163352e8ad2110577f540576b60001b6200379a565b620126cf7f88a29b972d96e65643f3a0339ecb0b0fd2f004c7bbf1b7f56eebe711566bb19660001b6200379a565b80600c81905550620127047f48a95b8e27215dc868a0c15b1f1f4d634dd1a04c4545d89ec2f81747e31c9dc160001b6200379a565b620127327ff7f9e72675246ebc48c083140ef4d092a1a8c4492be1c43e3141686597c1f13a60001b6200379a565b7fc454ee9b76c52f782a256af821b857ca6e125d1e3333bcede402fec2bed9600c816040518082815260200191505060405180910390a1620127977f737c84654983a51882f559426ef1e26a60d324010bccd82ff9b6f0982640b72260001b6200379a565b620127c57f6d7fce8337a9e6bc5f3f4387dafada768b4568f5b25840e6939ee56e3a2139aa60001b6200379a565b620127cf6200e167565b620127fd7fd5c38b36c29486d462a465cd0cd74dd9ad1c94bec0956ab4e469f575af4c05e760001b6200379a565b6201282b7fd1f71fe2f6dddae8fae50315dc938ec8c4af62418e24f228d544e45a149496c860001b6200379a565b8093505050509392505050565b6000620128687f2fae8937472594e63a9c605508dc18695fc1901757e561573577f2e89eb8cfc560001b6200379a565b620128967f0abc00121b845e1afd26cf2d2d62a809c01115ebded19baa68d83ded17dc9b8c60001b6200379a565b620128c47feb61c874754fcb744b7b12fcce560fd42688fc6b919d8c2a7c373463154c093b60001b6200379a565b620128d9620128d262003474565b8362013148565b9050919050565b6201290e7facef9d49e8ab7f2fccb94108f95626a836beae6f8884f9f4170d3586daeb235160001b6200376e565b6201293c7f2ee6b9c138b682556267b00e197f690eaba1da82aa67f015cc57569fcd2102dc60001b6200376e565b6201296a7fb33c7650c10ab2d1a39ab289ac832de172dd6beb2803ee4831e13f9b9bf578b760001b6200376e565b60006201299d836201298e670de0b6b3a7640000876200deec90919063ffffffff16565b6200df7790919063ffffffff16565b9050620129cd7fecfa1a14820b75a581ec090f2d4573db18bfa0a4ac0c4c6c481b57c75745e27960001b6200376e565b620129fb7f2b6f6b113ba488f9495e8e2dc5a19f2948c03df2595c1d3361a251c37559b12660001b6200376e565b62012a297f652d40d04550df082f9eb4c6a9a410f6e7593cf024ea9cdb76e4f8853f2ddf4760001b6200376e565b8181111562012aa0576040517f08c379a000000000000000000000000000000000000000000000000000000000815260040180806020018281038252601d8152602001807f4665652065786365656465642070726f7669646564206d6178696d756d00000081525060200191505060405180910390fd5b62012ace7fcba4bc828cd0ef8be6e909695d80f6199f3e367e589d34b9bdec0548e34e4c1e60001b6200376e565b50505050565b62012b027f162c58ca630423997f079b5690ac4a01c19feb281f3d8477e928bc34aaf9967960001b6200379a565b62012b307f074aaa4225b8c69aa8eebc3dbc271b6bb42985f4e22251ce5df079bc6e1c589260001b6200379a565b62012b5e7fe214bd03ce208038970e71290f681d1e4dff4fbc4697e8c0383efa2eacb1372c60001b6200379a565b6000600481111562012b6c57fe5b81600481111562012b7957fe5b1415801562012ba157506001600481111562012b9157fe5b81600481111562012b9e57fe5b14155b62012ba857fe5b62012bd67f3ea5bfebed73610857dcbf4d41b3607d37ac83381860ec1d9c372ad3af92d7e360001b6200379a565b62012c047f577d5f145cc96ce9750de639b6fda5dc56eb42874e3e1387973983692ab1580760001b6200379a565b6000601580549050905062012c3c7f6ec423e63a834cd48aea62b2bc14fc66929974497668b41024fb682a2c5040c660001b6200379a565b62012c6a7f250adb63376bfca91f1dd4970b705cac24c0a62e476cc212470ec40e94793d9660001b6200379a565b62012c758162017176565b62012ca37fa0f10137901765fe205e8ab75f6756eae887916e5c2452ebe6af61a9ab2597dc60001b6200379a565b62012cd07e8e0437ef0126a0e237c45af77d3b2f7d7b6dcb6a76fa7530a19a05bd17ec8160001b6200379a565b81600e60008573ffffffffffffffffffffffffffffffffffffffff1673ffffffffffffffffffffffffffffffffffffffff16815260200190815260200160002060030160006101000a81548160ff0219169083600481111562012d2f57fe5b021790555062012d627f3545b17542f6585b895bce58f2b95b243079f6e9c6dea796c7a3473c1041713960001b6200379a565b62012d907f0e2ec38a6f48d95c7b259b1416e868309733b6c34349a317263f39956be5283e60001b6200379a565b6000600e60008573ffffffffffffffffffffffffffffffffffffffff1673ffffffffffffffffffffffffffffffffffffffff1681526020019081526020016000206001018190555062012e067fcbbb4ce206429b601b876be3cdb6db61db73c27f3b35d6f5f921f683a0777bcf60001b6200379a565b62012e347ff693fe80d855ab2aec22a73e8f33d8398b11ea25e90cdba414ab50bd949f554760001b6200379a565b6000600e60008573ffffffffffffffffffffffffffffffffffffffff1673ffffffffffffffffffffffffffffffffffffffff1681526020019081526020016000206000018190555062012eaa7f33b01d7dffc32734fe4d35410efd0cfe9e413eb33d83538160de093f1dee890b60001b6200379a565b62012ed87f2c187c77482b3d5f2f68d0e6a2ea54241f3c02bb0a3c1390284e5b15cb9fd3b260001b6200379a565b6000601460008573ffffffffffffffffffffffffffffffffffffffff1673ffffffffffffffffffffffffffffffffffffffff1681526020019081526020016000206000018190555062012f4e7ffc8df86c7187037d9f3c2ee4b851755084df9535571fc0dd0c0aeeb5fc35372460001b6200379a565b62012f7c7fb7b1a70ac0106d27bbb3d9a0d1b6f879b4a66ba99bbf35440500e098f8d60fe660001b6200379a565b6000601460008573ffffffffffffffffffffffffffffffffffffffff1673ffffffffffffffffffffffffffffffffffffffff1681526020019081526020016000206001018190555062012ff27f51d206870fd5d2ee2f720518d99fbf207949d8cfd23ebc00f56839d73eaf190660001b6200379a565b620130207febb3fad72372d53ddbf73ce2e0c0881461615c6125425b2ba7336fb75143eb1260001b6200379a565b6201302c838262013381565b6201305a7fe1646016accc2162234140e62f6754f3681c6f4fbf296a757ead6b451f311e2160001b6200379a565b620130887f63bddd243cfa5c1e200f2b0b0b8c10ee6f29a720b98f1fbbc8644c1bd83bd0e960001b6200379a565b600b60009054906101000a900473ffffffffffffffffffffffffffffffffffffffff1673ffffffffffffffffffffffffffffffffffffffff166329092d0e846040518263ffffffff1660e01b8152600401808273ffffffffffffffffffffffffffffffffffffffff1673ffffffffffffffffffffffffffffffffffffffff168152602001915050600060405180830381600087803b1580156201312a57600080fd5b505af11580156201313f573d6000803e3d6000fd5b50505050505050565b6000620131787fa5aedc341d8aa50318b023537fbb3242869a58bdec98f486fe65a6ac45c6147960001b6200379a565b620131a67f61c72d0642b4050bb06e274ee9ecd5fd293c740e16dfb0b1bf0c6a6446fabc2660001b6200379a565b620131d47f6e4b1ac19dd15945418fb503b5f711278c04bbb46ea2410a9a0e7852ba9a187c60001b6200379a565b600062013207670de0b6b3a7640000620131f885876200deec90919063ffffffff16565b6200df7790919063ffffffff16565b9050620132377f55a2d4c8ac81906059446e6eecb10d44924c9fd5527c1cdc78df8c150a04339660001b6200379a565b620132657f4c29ebfbd06ab10b733adc975df625cd6ec6550b978343d6c65c33b9b97f7ac060001b6200379a565b620132937f22082096b281d33b8694da17f2663f4b0f081c709d74cf0d97c96257f8ea66d160001b6200379a565b828110620132ed576040517f08c379a0000000000000000000000000000000000000000000000000000000008152600401808060200182810382526036815260200180620181de6036913960400191505060405180910390fd5b6201331b7fd09652cffb7f1105fadd54a23af14faca5a837bfa29515f6e188d5e29f707e9060001b6200379a565b620133497f285bc8a4c23b94ff31207e08526a721c06dab1953e978192dfba9fd5815cfa6c60001b6200379a565b620133777f861436cd60f8339c426ac1642571a7543aff6cb80b1582adeabd19eec3e4fcaf60001b6200379a565b8091505092915050565b620133af7f3f8efa0a562401648dd17d0910e58d81ee81b2b0fe7bbabc7f88d75e3ec53a1b60001b6200379a565b620133dd7f861b9f872faab20d54078910a2baaa2719c2f83f93775c3bd56db9bbca02de3c60001b6200379a565b6201340b7f015f9ccbe4a4fc06d130d14368c08faadb3bdab0792507d87c9d3f4bfa1ad17360001b6200379a565b6000600e60008473ffffffffffffffffffffffffffffffffffffffff1673ffffffffffffffffffffffffffffffffffffffff16815260200190815260200160002060030160009054906101000a900460ff1690506201348d7f63f32681adbb2b2c0e7df8861196e422af584bd24f158d1825772c8117a4fb8560001b6200379a565b620134bb7f90189d5d08254e877e148f0c255df44f61f620ee154ac4d8565931c008dfed3e60001b6200379a565b60006004811115620134c957fe5b816004811115620134d657fe5b14158015620134fe575060016004811115620134ee57fe5b816004811115620134fb57fe5b14155b6201350557fe5b620135337f50ff5fd90b4a32e062f10852b9126941686f247dbf9a9df73ae125a3bf4b441c60001b6200379a565b620135617fb08a65f7cd80b481e36941cd6475f41365629fddde0b6ae5ee087beb9a0d345060001b6200379a565b6000600e60008573ffffffffffffffffffffffffffffffffffffffff1673ffffffffffffffffffffffffffffffffffffffff16815260200190815260200160002060030160019054906101000a90046fffffffffffffffffffffffffffffffff169050620135f27f2bd9feb4056a26999524fe0eb4f9197761a3d67f2a61e98e8f3c8a51f82a0a4e60001b6200379a565b620136207f5d12b24aa6f61e6bf0eb2dcca4f5845a7672e49aff09c337d32fda37dabb6a1160001b6200379a565b6000839050620136537f0cfdf0c3ef73ba3a68d7d47347f9cdc7e59bee4f441a8febd07b62368295b33760001b6200379a565b620136817fce8f9e2b172b3f7e59c0cf4cedc716a2cc8613ba10567cd2a2c42ffe9c46bf4d60001b6200379a565b6000620136996001836200aff490919063ffffffff16565b9050620136c97f703366ca1c7c98a6c4f59a5dddce4c68ddd3bdd9e1db0c8cafd9bb3c4a4b5efc60001b6200379a565b620136f77f4458982fff1ca03f600007a09780bcb1a111f1c08b47722dc553f56f54d15ab860001b6200379a565b80836fffffffffffffffffffffffffffffffff1611156201371457fe5b620137427f4c9832461f878301ebc5a156de0e72e8b391102a44bb9c441c703c999c1fe7cc60001b6200379a565b620137707fdfa3135cbec0701036d2e6de14550f4c7fac772da0104a84d35dfcd7092415ef60001b6200379a565b6000601582815481106201378057fe5b9060005260206000200160009054906101000a900473ffffffffffffffffffffffffffffffffffffffff169050620137db7fd0ee03e2a4954c0f1b9bf4015eff3c296de123fbada9860a110b4d676e5f457d60001b6200379a565b620138097f4b3eb1dad5e1213af7989559b91918865034e467f7dc9f2199a84dde762e6e2060001b6200379a565b806015856fffffffffffffffffffffffffffffffff16815481106201382a57fe5b9060005260206000200160006101000a81548173ffffffffffffffffffffffffffffffffffffffff021916908373ffffffffffffffffffffffffffffffffffffffff160217905550620138a07fef1240ec59a7f7f53a04f476450a8f961fc8b2a46c08c3ce77628e22e638297360001b6200379a565b620138ce7f0a1b98c3adb56660d47db1f484dcb81a3b84df1547e67a4715609930757d101960001b6200379a565b83600e60008373ffffffffffffffffffffffffffffffffffffffff1673ffffffffffffffffffffffffffffffffffffffff16815260200190815260200160002060030160016101000a8154816fffffffffffffffffffffffffffffffff02191690836fffffffffffffffffffffffffffffffff160217905550620139757f442ed42c7bf1b78e7bdc4a55a16ef2bb86c539c566a7651e4691fd7b92a7975660001b6200379a565b620139a37f2bc799bc28e08ae54b490140c7e9548a9aa7be67865e23630926e7ee37345e9e60001b6200379a565b7f02b04ae5f7be9ca7c103293a2aa15f3c339d15d6eda53b721fef7b0e609c831a8185604051808373ffffffffffffffffffffffffffffffffffffffff1673ffffffffffffffffffffffffffffffffffffffff168152602001826fffffffffffffffffffffffffffffffff1681526020019250505060405180910390a162013a4e7f945980240515c9b9c8ac879b06ec4903d91e85ecfa027daa5c9e6a9921974f9160001b6200379a565b62013a7c7f6acd669f9aef4e33c24d86a023867b7698b4eec202918a709bb1135d9be2b2a060001b6200379a565b601580548062013a8857fe5b6001900381819060005260206000200160006101000a81549073ffffffffffffffffffffffffffffffffffffffff0219169055905550505050505050565b62013af47f4d55764c33013ca09e0cfe69325ab7f780e777f3578708cdbc77e541b80c715360001b6200379a565b62013b227f180f4fdcb1c166321573d3d706beffbb7c43ac9500582899963a5380876d43d960001b6200379a565b62013b507f181554105a630b81dcc4ffb488af0d803f2be052af91f9cda8beb2b7c366eaae60001b6200379a565b6000600e60008373ffffffffffffffffffffffffffffffffffffffff1673ffffffffffffffffffffffffffffffffffffffff16815260200190815260200160002060020154905062013bc57f041eca6a86df9b6ed777f473bfce9fd39e8ca7609fa2d5555f98c2f729ccb54d60001b6200379a565b62013bf37fa3b9f5acf68ebbc9f3c4b9019798429c7522ec75f7e8a13faed97db2bab33ccd60001b6200379a565b62013c0a81600f546200aff490919063ffffffff16565b600f8190555062013c3e7fb8bd776ede93d2b7b2a39c44bf7dadcd9a77bd4a2df0a3808f730203a84f2a8a60001b6200379a565b62013c6c7f50abf88459ee2ea2ca98d05594e77339bba09c35a151b30829254b40269dfddf60001b6200379a565b6000600e60008473ffffffffffffffffffffffffffffffffffffffff1673ffffffffffffffffffffffffffffffffffffffff168152602001908152602001600020600201819055505050565b62013ce67f41dfd917bf015fba7ed141932b42808267e23e3346fc66d1804d1b406b40244760001b6200379a565b62013d147f3cc6fa040aad019def5f2da6e77b4193f2a867bd7de897ee2779332fb1200f8260001b6200379a565b62013d427ff910953e1eba3df7f5662ddd8664ab76587eb0d22003c35105a6c9f4b8fa232b60001b6200379a565b8273ffffffffffffffffffffffffffffffffffffffff166338d995a8836040518263ffffffff1660e01b815260040180828152602001915050600060405180830381600087803b15801562013d9657600080fd5b505af115801562013dab573d6000803e3d6000fd5b5050505062013ddd7ff40c4c41e7997ae88605e825f9298003717afbe374f4b0603ef8ed1edd710eb660001b6200379a565b62013e0b7fdaa8bb789f1fb6740be1ef59ef2ab81aaa7fc4898a6e82fb524419d6b0e2bcfd60001b6200379a565b8373ffffffffffffffffffffffffffffffffffffffff1663cfb9329a836040518263ffffffff1660e01b815260040180828152602001915050600060405180830381600087803b15801562013e5f57600080fd5b505af115801562013e74573d6000803e3d6000fd5b5050505062013ea67f9df2b6a6a70e80fd1d0f541e783bda92182d19e0dc04deaa83b203fc159e837460001b6200379a565b62013ed47feb7c7d6f621ca50eadf5ac862eb4ce8988db7182119f7082084fa7d74324565260001b6200379a565b8273ffffffffffffffffffffffffffffffffffffffff1663be41205f826040518263ffffffff1660e01b815260040180828152602001915050600060405180830381600087803b15801562013f2857600080fd5b505af115801562013f3d573d6000803e3d6000fd5b5050505050505050565b600083831115829062013ff8576040517f08c379a00000000000000000000000000000000000000000000000000000000081526004018080602001828103825283818151815260200191508051906020019080838360005b8381101562013fbc57808201518184015260208101905062013f9f565b50505050905090810190601f16801562013fea5780820380516001836020036101000a031916815260200191505b509250505060405180910390fd5b5060008385039050809150509392505050565b60006201403b7f16cf5584fc6cb954c6e831280f2a87b47317d7de32d936d061d90433e098a75860001b6200379a565b620140697f14cb28d64022137b11db6a3a54637e12e847c62faf7cf307f7eb23ce0aca5b4160001b6200379a565b620140977fb60fd51d46919aba3e2664b2b72dbd6a8df05a45a71c915ffb698c7c02ff01c260001b6200379a565b6000620140c77fbab06bc60fea41578616d0bd922b42246d3011c98be1b210e1a2c0b71c334e2960001b6200379a565b620140f57fa90db5c266eead0a80f5240e0597e762e77244baed09debbfaef60f170b90b0660001b6200379a565b6000601154141562014194576201412f7f68d59bf36bb9e676be1f03dee7ec69d7b94ee69326adee2cac7cb8991f3c479360001b6200379a565b6201415d7fd1fb10a253c8944d2b13f82bfbc3d9c7a0ab2a4e11f325fd3d59ca478cbf7b6c60001b6200379a565b6201418b7f729149772c7c8e169e1a1fc5cce8fb1805c8d128e1f7d41aa0e2320494e3ea0860001b6200379a565b829050620142b7565b620141c27f2219845100bcf00fdec385481d9e62da47fbe41fd2ed91e876fdcc082773888360001b6200379a565b620141f07f50f804a83b038720e8b86bc84f56f62fcd65b4c24f953ac4705ee412db23444d60001b6200379a565b6201421e7fa7b321118080a931d1070b5bce41525622c28f16a655d25264905ccfaa8243c860001b6200379a565b6000601054116201422b57fe5b620142597f93117cd25700d1ffc8ee9e9006b54fb2fbdfa3d24e5c872907f00d3fe127c80360001b6200379a565b620142877f9157ca83d98952746e6aed2211447f33b538d273990ab349aaa49ebd0f9d24ae60001b6200379a565b620142b4601154620142a5601054866200deec90919063ffffffff16565b6200df7790919063ffffffff16565b90505b620142e57fbd349bc4ba0ff933af5492b898012000cb64d8dd8685e1046fa6dfbf1ce20f4660001b6200379a565b620143137f2db5404544c8aa9108bf0eb417062ff91f133514b1e23bf2a762844c0fb2ce6d60001b6200379a565b80915050919050565b6201432662017fcf565b620143547f560993c04d41b1f343e280c4b61930a19005eacbf4174f9419a4e0419eba724060001b6200379a565b620143827f9e558cd95360347ef44ce5713eafb9fb7ea14b6413fc56a26ebb5173fec343f360001b6200379a565b620143b07f22564eb3d3a85c8867520786a8a843e28614afb265c4c87b2d18e37768d45e6960001b6200379a565b620143ba6201801b565b620143e87fec612aff357efc1ab8ee39cbb1b05bffd1d2191787ae5bba47693b3368551c6a60001b6200379a565b620144167fe4bdecf683b1fbf3d869b6a48e30c1e6dc76610988f63d772dcc50072bb7aa8e60001b6200379a565b6001601580549050116201448a57620144527f64393ebb0c71f0f1ec781b7e5223a00fa2af0c82a9bcc2e1d721b12ce710300d60001b6200379a565b620144807f87e869370e2bc8401bf0d61878eb1ed273b6702f4ccee3dea001e13375fd707360001b6200379a565b81915050620157d6565b620144b87f8af07cbf46b3c2b25e5af72a45d92c70287b977b3e85e2ca3bfcd297ce976f7e60001b6200379a565b620144e67f5a9744e1bd0134b48bf6d65b38162f1d047a43db5a6c738c1989c16675ceadaa60001b6200379a565b620145147f4d1e2deb85a15d29c412f8212f262886aeecab6cc3f6b4d3bd68670645eb0bc260001b6200379a565b6201451f87620077cc565b856000018660200186602001876040018481525084815250848152508481525050505050620145717f0e907e48d740c23974f9275c9b1c20aa8be0775ce7135c22191157497c7fceba60001b6200379a565b6201459f7f922dde863102cca725a2e93804b51e571f9c0072cd4ef7807ad14248d4b74fcc60001b6200379a565b620145ae826020015162010331565b826040018181525050620145e57ffa52d588bad51a9cfd28578cbb9b6ea9d9707aaa35ff6f4b8d17690fc55310e060001b6200379a565b620146137f604e379d12c2c9dcd890384384d38889c0020aadaadf2c466d0acc92998e11f560001b6200379a565b680ad78ebc5ac6200000826060018181525050620146547f42e485f4f26e8b62efafbf3359ad3c48ada89eaa365410453125e23f54834b0860001b6200379a565b620146827f430e44dbace97d098d1019de342143fa16b38409fcd99dd584093ffdfc6e39f160001b6200379a565b6201469f826040015183602001516200aff490919063ffffffff16565b816000018181525050620146d67f4edcfafc6e26c0c6046bbc3fded7186341b984c8f8594a1f01ee961d27035d8a60001b6200379a565b620147047fbeda8f550359a5c810d824a5d99a363543c0a3f093fdacb86175f43244dadac960001b6200379a565b670de0b6b3a7640000861162014bd257620147427f9df44e0640fc8b779add13bd9bb26cba9a153ef8b908bb7653ee82d80dcd163c60001b6200379a565b620147707f0330e2b1c0e2e9deadfc553b2c37d2d64cafa695b4125408126f83891733239c60001b6200379a565b6201479e7f18d3d37b293f1bd728ef456fc69c1ed24d1c9d29bdacd8d8650764b42f12abb560001b6200379a565b620147b489898360200151846040015162013cb8565b620147e27fca5c282d778b736be36fc9789cb3bd7e21266899db2615b58a22ec1a2cff607560001b6200379a565b620148107f67646f02733ea3be7049032969d882231ef9e71e461f441e3e4cf4a7a671f49960001b6200379a565b6201481b8762013ac6565b620148497f6fad06f4af95c272f43c86444f15e5178cb035d539d0d944042441270978f85060001b6200379a565b620148777f95bb46003eaa930f906194e7a143e5d619c74743dca7188abaa96884ab0bff9460001b6200379a565b6000826080018181525050620148b07f9868a3ff921275af832816fbb437534d3f3b5401cbdbd51a11b70b06cd69afdd60001b6200379a565b620148de7fb0b8738d147cbe758852696154b488782815fbf025592f5ae25bbad39c0fbfc260001b6200379a565b60008260a0018181525050620149177fa8bebcbe959c7b135befedfb78051212924a41092d511cb8e2e4d9578574899360001b6200379a565b620149457f948468f16f6fa3785882f8f4310d5a152b13acfc35d1cfef29dcce5dcc53c6bc60001b6200379a565b81600001518260c0018181525050620149817f8af22142a405db4e63c238e6b687d9e91b810131c62f1367d0cd8d8c365db94f60001b6200379a565b620149af7f159d00501059cd0046990e468dbc54bcaab2557b90d9a5c1cb03dfd67b1fa32b60001b6200379a565b80600001518260e0018181525050620149eb7fb12c1c85bda9584624eb610cf129c25832fc7834d7becee8a503813d3d75707f60001b6200379a565b62014a197f241df55c6caeb62e6d9406ff862cf2086fd1ccd6a338bc6025c67c55ed6ba17260001b6200379a565b62014a2687600362012ad4565b62014a547fe0295ab0639c0e28213edb63960f3db45e788d5607cd5e9b703bdd8fc103130560001b6200379a565b62014a827f8b7321c90f4bb7e45a18df27ca7010cfc70fe1050de70cbc65085bba18bac2b160001b6200379a565b8673ffffffffffffffffffffffffffffffffffffffff167fea67486ed7ebe3eea8ab3390efd4a3c8aae48be5bea27df104a8af786c4084348360000151846020015160026040518084815260200183815260200182600381111562014ae357fe5b60ff168152602001935050505060405180910390a262014b267f18b2ee61e7c61e5443876f26a4fbf9b2005032dcebe924e064fa4ed5189d711760001b6200379a565b62014b547fe44d9cba573ce2fdc47ba826bb4af0ffb6b38c858c1d9642f7d43c7c9ac6c64360001b6200379a565b8673ffffffffffffffffffffffffffffffffffffffff167fc3770d654ed33aeea6bf11ac8ef05d02a6a04ed4686dd2f624d853bbec43cc8b600080600060026040518085815260200184815260200183815260200182600381111562014bb657fe5b60ff16815260200194505050505060405180910390a262015775565b62014c007f9fba54986cd03e5522814924040a5d25b5f3931d6fec839e9b7d9a2f3b2e0f4f60001b6200379a565b62014c2e7f92975d77c0faa8368822c15ba5213073aa6411631164ffceb5e3b235d9a402f860001b6200379a565b670de0b6b3a76400008611801562014c4d5750670f43fc2c04ee000086105b15620150045762014c817feb1d6bb0616c9c1b3387ec56d004d40269319a3b2ec002840d5999d78d9f43c360001b6200379a565b62014caf7fea4b92d22551038e2f9946dadf3959904a06a6c2863e3eb19bebd7d21255850a60001b6200379a565b62014cdd7f2c954298481e01785cb044cd3e940b4874914997fbdc278f5782495c49af02fa60001b6200379a565b62014cf389898360200151846040015162013cb8565b62014d217f8bd5469f00dbf7c6ddd46c51db93941061dc671aaa0770e5e14151ada2142b2660001b6200379a565b62014d4f7f97ce567c2e372ccdc969a7adbe4cddc263478ca35d4978dc108c5f0a65d5a9bf60001b6200379a565b62014d5a8762013ac6565b62014d887f5c7de41fee772ad15c2392e3f4cf3ff7fc72f2f63e13f4e955396d9062b8448660001b6200379a565b62014db67ff236d42c3bd1908491478c5d4f8fd5bb7bb59b0daa047196dba19f9c9ada4b7060001b6200379a565b62014dcb82600001518260000151876201736c565b856080018660a0018760c0018860e001848152508481525084815250848152505050505062014e1d7f354c78af62eb08994dce1820330490ff74f7cac5fec726eceb0b38f8726995cb60001b6200379a565b62014e4b7fd4acbf0482373a465a7446414f71e9a69a7d033a540a3240243c2747c4b25c3560001b6200379a565b62014e5887600362012ad4565b62014e867f1f752806a96cd7784353360605a764dc7af7a6f72ffeef251768b5acc0a3ff4e60001b6200379a565b62014eb47f11fcfcda2257097025668977c78249f975dde3ab71920b53cfa7d0fc39a0682160001b6200379a565b8673ffffffffffffffffffffffffffffffffffffffff167fea67486ed7ebe3eea8ab3390efd4a3c8aae48be5bea27df104a8af786c4084348360000151846020015160026040518084815260200183815260200182600381111562014f1557fe5b60ff168152602001935050505060405180910390a262014f587f650d394e8caca088cc16996f078623cd45f6126b1fa149311853e430978b4a0160001b6200379a565b62014f867f16c847b256b32622acbdacc1743a19b3b5d91881e7a64662429ba154f21a8c3d60001b6200379a565b8673ffffffffffffffffffffffffffffffffffffffff167fc3770d654ed33aeea6bf11ac8ef05d02a6a04ed4686dd2f624d853bbec43cc8b600080600060026040518085815260200184815260200183815260200182600381111562014fe857fe5b60ff16815260200194505050505060405180910390a262015774565b620150327f74e005ebd2f5bc2b385d4edec1d4cfbe2f3b880a84d6eaf9c76b8c93be0f02ea60001b6200379a565b620150607fd5da0726dec806fbcd0be28788766cee1cf3b7ca66ebe8ed68f87a4780736edf60001b6200379a565b670f43fc2c04ee000086101580156201507857508386105b801562015089575084826000015111155b156201567857620150bd7f4e2d57256527912a8b9d14d43fdcd31ef12dac59a332d20abd3702086dd7482b60001b6200379a565b620150eb7f8e13f906be37c02ce1555ad551bba0ddfe0ca528529f1e04f3d34df79ea6843960001b6200379a565b620151197f898c4586f2cc5c9235043e51d6d88f565475155c896b5ded1b38d07f673a2fbb60001b6200379a565b6201512f89898360200151846040015162013cb8565b6201515d7fb52276944e5d0d42384fae0e50f141df341ff6c083b853fe33fa06c9aa450b6460001b6200379a565b6201518b7fd7a918fa10f6a2ea3456671c5ffe2c64a66ea8f955b54651436f046a870eda7a60001b6200379a565b60008514156201519757fe5b620151c57f2f4029b0ed0bb77e2be55f385873647cf628bb525a2c3e7222989dec61f701a860001b6200379a565b620151f37f45710fca8fbf12f54401dac5c1d38f5b53a266d41c37d1b1095fbb50ba61f3e260001b6200379a565b620151fe8762013ac6565b6201522c7f3a45c40da933e4a030b7508658dc24c2d3eb96c4aa4a3e839aa01f96d476a5f160001b6200379a565b6201525a7f7cfad26114d83da7921ef7e78ebc21ff6bc4f4a7e3fd728296eaf15c0cee630460001b6200379a565b6201526f8260000151836020015185620177c7565b91506201529f7f5ca67b57c6b085a248250e056a1b59fe8b590985e429c5d4d0431ebaff4f4a2f60001b6200379a565b620152cd7f7eb7d06bef12f088efdfe017b1078104e6141613ecf4caebda61491a1acd3f5e60001b6200379a565b620152da87600362012ad4565b620153087f8f223d3fc96f94208b1e148e5fb9d396d3279035b4d0a9bb1630d2014c916e6b60001b6200379a565b620153367f188d788f53568de1fed4d49cae8c0c9e68e85460ae032e8d4209a4f89d74e24b60001b6200379a565b600082610100015111156201549d57620153737f5d35fc775bb9062d6e6f2a9537b01f44452837ae02a021dba861b2e6191b312960001b6200379a565b620153a17fc2ad3edd54e46d33829bf0c29b350156d8fedd763a9d3c1f98599015aa54546e60001b6200379a565b620153cf7fbe554d986ad441f2359be01f41aa2b2f6f0a7c32bde790393f420de1bf67f77260001b6200379a565b600760009054906101000a900473ffffffffffffffffffffffffffffffffffffffff1673ffffffffffffffffffffffffffffffffffffffff16633f10abab888461010001516040518363ffffffff1660e01b8152600401808373ffffffffffffffffffffffffffffffffffffffff1673ffffffffffffffffffffffffffffffffffffffff16815260200182815260200192505050600060405180830381600087803b1580156201547e57600080fd5b505af115801562015493573d6000803e3d6000fd5b50505050620154cc565b620154cb7f303954970297a0d62901fd2569b9da7a761810a1d554d8bb7db7c3a7da61337860001b6200379a565b5b620154fa7f1052aa264501be610595dcb2c0563e757a64ca4baa9a0a6c5591fd53a5a6d9f460001b6200379a565b620155287f53c298d8d68de6f11f34310dea9f6fbad44a1b2f0b41205b8a37d4b525eab99b60001b6200379a565b8673ffffffffffffffffffffffffffffffffffffffff167fea67486ed7ebe3eea8ab3390efd4a3c8aae48be5bea27df104a8af786c40843483600001518460a001516002604051808481526020018381526020018260038111156201558957fe5b60ff168152602001935050505060405180910390a2620155cc7f50d6964a7e8173f7db13da721544c32f9776696fa8a1e74f592907b8d0db185c60001b6200379a565b620155fa7f7c9d87eaf5810185e1c53753cb44d63577686c6d877865b3b5a08529dc80416860001b6200379a565b8673ffffffffffffffffffffffffffffffffffffffff167fc3770d654ed33aeea6bf11ac8ef05d02a6a04ed4686dd2f624d853bbec43cc8b60008060006002604051808581526020018481526020018381526020018260038111156201565c57fe5b60ff16815260200194505050505060405180910390a262015773565b620156a67fc900fe9a4b7d77725ff82dcda7a0785ef99a84c5be98b7e8911e20f4de613d4d60001b6200379a565b620156d47f6c86998ec6759eb9b2ea1af31cd9323a44fa89cf97cb7b4ebb20841fec58c81160001b6200379a565b620157027f3755f479bc06d702a033fbb3efe469d83e4ed50d5a978420ce923df3d8ba033c60001b6200379a565b6201570c62017fcf565b6201573a7fd5e092d7a32b3b46497b9cfb0db16482bc9aa31fa4f3872063d9a71d929ac3d760001b6200379a565b620157687f2be65a643dda326e4c2afd7301fb28b2bdda9f0d95c7c72ebfc689088659c7cf60001b6200379a565b8092505050620157d6565b5b5b620157a37fd780405556cd61c5b977569d49988a2ed43b8ddf8f64113df97367b3a519258060001b6200379a565b620157d17f1ab7729e7a312bca6fcd1e0158eb3890f46c5f7faa82d9a217fb7f34c942ff4a60001b6200379a565b819150505b979650505050505050565b620157eb62017def565b620158197f0233af6ad38e14e9b4b5e9abe671a836b8c9b9530b54503d82426bc5f9b31cd760001b6200379a565b620158477f292b18bf69bf6578355476c513ecd474466651a1c7c7ee8f727e1e803a0f1a3b60001b6200379a565b620158757f15c27f68404152c1dea67688271adf28731554d9230922c6758add2f3cc2549f60001b6200379a565b62015892826040015184604001516200fa1890919063ffffffff16565b816040018181525050620158c97f77ad9f9af2a6751bb6878865ec402df34a103ce36a81af8fcf135e3c41c3f98a60001b6200379a565b620158f77fad72cc1786313c35a45e6312901811c247dd27714978babeea13e36d5ac7156860001b6200379a565b62015914826060015184606001516200fa1890919063ffffffff16565b8160600181815250506201594b7f5682173adce7476ec502cf9dd77b9f2bcef9aebb06a9eef14d577fb69d7654c460001b6200379a565b620159797fd511140a37adc4809679b8b29136af60098f157b8fa26ddf9ddc453593002f9260001b6200379a565b62015996826000015184602001516200fa1890919063ffffffff16565b816020018181525050620159cd7f2ac1e2416d128ea1082533efe1db05d74a8eec6bd8c98e497423a7e0a5ecfe0f60001b6200379a565b620159fb7f17c4f2fbb70a3862e3e9dcb8604eee65c4bab8637f56e7d771d68d0cdf0bba8360001b6200379a565b62015a18826020015184600001516200fa1890919063ffffffff16565b81600001818152505062015a4f7fc18b174accf90437676c07d21d73ab0a1dc891f95ec55bcc2f34204fdce8c5a960001b6200379a565b62015a7d7fbfe90327c331d4e0b42bf088e331f88678b07f6c1cd362280bcbcec04bc4bee660001b6200379a565b62015a9a826080015184608001516200fa1890919063ffffffff16565b81608001818152505062015ad17f1b9eca9e6387171c856a4e03544f93a37a6290f48f9f7a2e1f9813d3c499b8ec60001b6200379a565b62015aff7f020260f06472db79ba54821e86fc7a9407f36fccaa9da4ea0e29797e3f06641760001b6200379a565b62015b1c8260a001518460a001516200fa1890919063ffffffff16565b8160a001818152505062015b537fa8669b906604de95ea68b9c2efa17e9f1cc28f0a7d1a6d0d46f662960abe6c8160001b6200379a565b62015b817fa320d268f82c15324d69c204365f617731b94fc7c4c24393b25dc59f58aeb5e160001b6200379a565b62015b9e8260c001518460c001516200fa1890919063ffffffff16565b8160c001818152505062015bd57f69c310c4edd398ee28ff4f596315d6204c255c90b63a9f5d32c21526e202033c60001b6200379a565b62015c037f77bac75ced248b35790b64a6b563d48155e06142f0039ff1317dcebd7f0079e060001b6200379a565b62015c208260e001518460e001516200fa1890919063ffffffff16565b8160e001818152505062015c577fcef7ee763b3ac2592c18cf603707950e4212048274ea32c82a74f2e015975b4160001b6200379a565b62015c857fd0734d710dd77fa359344da0627dd9d2e1f71e72716a19eefdbe786e803e00fb60001b6200379a565b62015ca48261010001518461010001516200fa1890919063ffffffff16565b8161010001818152505062015cdc7fec29d9db9628f3cbf8b00ef7c7154ad5d29767ee5a200db609d51d332b4902c660001b6200379a565b62015d0a7f37ead9a5638b35203620267823782b545b79632f743cf3f38b89b260c349447260001b6200379a565b80905092915050565b600062015d437f07dca502671b952bde5d81584477cc449f0a2ffa82ba20c558e78f6fb34ec14860001b6200379a565b62015d717f65ab2cdb3d7e63711ab4ba4c8019b422cb925438d9ffbd4c174f2cf8739508bb60001b6200379a565b62015d9f7fe7e4a71a92db22bcdb4cdcd8decfb3329ed4d5692d25fc7e31be7cfb6c6b266a60001b6200379a565b600062015dae8585856200feaf565b905062015dde7f6a6377fb29d44c74ddabd9d6d8b090f886b29cc97c89caee10cd07df44ddf2c260001b6200379a565b62015e0c7f441c41c2ab5e63598e0dbe03c4b1ece10b3f4d6b1ae55f1c9ba4fe332d67f94e60001b6200379a565b6714d1120d7b16000081109150509392505050565b62015e2b62017fcf565b62015e597fdec7ab462a03fabf4ddb32b9114af4dd364bb233a56115bd669cedf99fe1673260001b6200379a565b62015e877f9ac8aceaebce9a3bf46e1c517f57e1f1968322e611937d363127d89d4c8aee5860001b6200379a565b62015eb57f64f96c3e3affe72fdbe1a09e5ec861a6cb7f99bbb0de216ed14d56633ea7529660001b6200379a565b62015ebf6201801b565b62015eed7f1bceea6d08d7ac5a95d8ec337635d41dd102c039bafe4915415041d33fe5167a60001b6200379a565b62015f1b7fae617337630583e017b521e177892706943e722feb011bcd6feacbdfa3699f4260001b6200379a565b62015f2684620077cc565b85600001866020018660200187604001848152508481525084815250848152505050505062015f787f0350571a1078fc216882cab4c5aa4a4d124b67210af1eb6876afd3002635d7fa60001b6200379a565b62015fa67f6e14921d76a57adee4f894a178df9e460bf9b99564ffbfbbdcfced2db2f1505c60001b6200379a565b62015fbc86868360200151846040015162013cb8565b62015fea7f41d0ae43d3f4727a9163063fab6de7c71026cfa6c8628cb79b7a7fa54a8651a160001b6200379a565b620160187f9a822732c16c8dc52124557619fcb16206b483ae309bc0849626949cb276765e60001b6200379a565b620160238462013ac6565b620160517f449e6132eed2cc13cf980226b516431f1cc7f608f6b5f9cceb5f83b2e3e49d0e60001b6200379a565b6201607f7fa3630b88bd21871ec6f96cb984b25c04d58cee54ef90f1655cb22efe8764539160001b6200379a565b6201608e826020015162010331565b826040018181525050620160c57f9d52787614304831dd54a24a956f538fed082de164400d4acd0c3a3bc4e940b960001b6200379a565b620160f37fb6434e345b6e081b013d102f44d91bcdcec02da541f2c52e48d5bf6df9e1025a60001b6200379a565b680ad78ebc5ac6200000826060018181525050620161347fe5c2f9b02170b454ab7c89786ccf58011c051eec9b5bea4910b3e0e54f05cf9d60001b6200379a565b620161627f0e027635ef5e18f6d0906f077a4678e252e4f2d62763839f2ccde57681cb1fc960001b6200379a565b600062016181836040015184602001516200aff490919063ffffffff16565b9050620161b17f37c1aaa0420fead1e2de1d18562fcf622a0886a008433cb789c2dae88e7592eb60001b6200379a565b620161df7fbb50b494670b2fcfbc8a3caa75ced4cc9478f92e361a53940a1a398e9ed9ee9e60001b6200379a565b620161f0836000015182866201736c565b866080018760a0018860c0018960e0018481525084815250848152508481525050505050620162427f887c56d62c4f653d1f14cf20d3653ccd630483ec65243204c924dbee78d983ef60001b6200379a565b620162707f2e49e7957bf84cb5ea069ceb050b75c8e8859c3d008a1e7d4f4463427567cbb560001b6200379a565b6201627d85600362012ad4565b620162ab7f821b27efd320a1da36df5de544b7416eff1e37252691b4eb667d3fc5570701c160001b6200379a565b620162d97f4eb5c8acdb9fbab502856ba5715afdc71d2a187246cb36c5fdc36ac6cfa3912960001b6200379a565b8473ffffffffffffffffffffffffffffffffffffffff167fea67486ed7ebe3eea8ab3390efd4a3c8aae48be5bea27df104a8af786c408434846000015185602001516001604051808481526020018381526020018260038111156201633a57fe5b60ff168152602001935050505060405180910390a26201637d7fa501ce9602029eb7dcdddc76cbe0111f9ae060de05338285caf76d1a56e565ed60001b6200379a565b620163ab7f640c376d23edf5bdbd3e1128af36475caf3a3b70da04f4d4ad689d93c85f805c60001b6200379a565b8473ffffffffffffffffffffffffffffffffffffffff167fc3770d654ed33aeea6bf11ac8ef05d02a6a04ed4686dd2f624d853bbec43cc8b60008060006001604051808581526020018481526020018381526020018260038111156201640d57fe5b60ff16815260200194505050505060405180910390a2620164517f38bd6b12e6424efb0a321bf171ea68131ed1297de32ad531e1dad080bb5b6b9560001b6200379a565b6201647f7f5690d0f1bf86e47521de346abbf2bd81a99f8462c2bc2fb60c8187f3dd2c103460001b6200379a565b8292505050949350505050565b6000620164bc7f47d1f47bc050b9504bdb99b9bb5b4ef650bd54eba129f8f462ba53eeb800e1aa60001b62016d49565b620164ea7f8bd1b7c6f317176e126becf0775e874110a4f4c3632da3308f1b96d29114d76f60001b62016d49565b620165187f306334dc7786218d10d6d1fbfce931f8906c3249c067df2bd86b69566eb3362460001b62016d49565b81831062016527578162016529565b825b905092915050565b60008083118290620165e1576040517f08c379a00000000000000000000000000000000000000000000000000000000081526004018080602001828103825283818151815260200191508051906020019080838360005b83811015620165a557808201518184015260208101905062016588565b50505050905090810190601f168015620165d35780820380516001836020036101000a031916815260200191505b509250505060405180910390fd5b506000838581620165ee57fe5b049050809150509392505050565b60006201662c7fb3241079ceee75efb4f3f892705b88b32961790b15153e6c1da6dec7c1d7915660001b62016d49565b6201665a7ff79a741bf782d3218f36835506800f1d3ab587d28812c2002c2387e64a8017e460001b62016d49565b620166887f7ddd83c2b2f0df7ca81d0b50c6efd9c6a7dd0140a5ab675453f6bf365967695360001b62016d49565b631f540500821115620166fe57620166c37ff6eb246b3774442d014657cf070f008c8ff565009b3f833a9c3cd107ef4bdbb360001b62016d49565b620166f17fe52b09f0e3388775a21a09a651f0c711b795425edcb4c3f5657fb1b63ca169b360001b62016d49565b631f54050091506201672d565b6201672c7f6c5e9a1fc004355d704a3b38d2cc20774f859178120fc329227fbeb73ced99f060001b62016d49565b5b6201675b7f2f33c33b65ef658ebe3922af023dd2b7bf51d69e770388dd13501c29de2cc8b460001b62016d49565b620167897f3920ed5fcecd3f1de58dc9899fccce121ce931a67e880b6aa84bdf6458d5f3cc60001b62016d49565b60008214156201680057620167c17fd2538caefe4e6287f0399f74982a0d9471364e43bb774a2b6efee788003ef26660001b62016d49565b620167ef7fac2427b4de7e5234350bedfe284dc2c61a7fa863aade085a441d976b2ebf3cf860001b62016d49565b670de0b6b3a7640000905062016d43565b6201682e7fa4d5930a6098ca08980bc9df31776c6467441cec824b242109dca0b2dc9a6b9160001b62016d49565b6201685c7f1acbfad87608a2dab877be7fc3cc8e0ec2d05f33cf7f9a66f447614bb1fde37060001b62016d49565b6201688a7fe728b77a16a778765f23b206dbfaab5a6224e9f728e2f9d764fb165d16a58f7260001b62016d49565b6000670de0b6b3a76400009050620168c57f43405e64b7c3de3438be664a93bbd8f4bad834b9bc9c7415daf18e3dfe3f409660001b62016d49565b620168f37f9534842aeeb1cf59dd39e3b30c0f1c5140d0642126190341ae2d7939bc88cc8460001b62016d49565b6000849050620169267ff603312008e375e05a1d2ead4faaca56d2678f324c61280cdcf071a1599c0e4560001b62016d49565b620169547f84a9fea4a6241118b5d9fbe6735c8b555f6a5d659b361694a7a4b93913c7351160001b62016d49565b6000849050620169877fedf6f0a50821d016bd7d6db935672c0a9215716cbd5dfd8dcb0279ce5aeb5ffd60001b62016d49565b620169b57f06d87a255fa445c9f34171894d637a43fc7fbbf3475c03b788aa20e96740819060001b62016d49565b5b600181111562016cd557620169ee7f5885afa097f1c3f034d65d5f0f76a2499827f3971c2b10b842246451af5150a860001b62016d49565b62016a1c7feeddcf126d4a3122c2999f1cd892690a9b17836f37d52a797561426e1ecf936d60001b62016d49565b60006002828162016a2957fe5b06141562016b435762016a5f7febe7a217f65dd502729d70ba9fc7d0c2eee42f405de224fa6aa2886494e56d4a60001b62016d49565b62016a8d7f76e3afe2526aab6a69c814ba4624ccc7151c70d4b0100e3cd060431872804e3260001b62016d49565b62016abb7ffcc40f1f1f2b130ed3590df449024506cb60fd47cdcddd3bc77164dad4e7e04360001b62016d49565b62016ac7828362017c70565b915062016af77f2516dc9ea3d3c34abeb9fff701da707c1348eb974c06bda2bf20251d983b1bd160001b62016d49565b62016b257fecdca9354abf0a3ec079925ff7fd21f9c212059816a72df40605d63b72cdc28b60001b62016d49565b62016b3b6002826200df7790919063ffffffff16565b905062016ccf565b62016b717f54bc67050f05841ec404a70010b4e7f410b299877a7cc2e8f7cc694125c8649e60001b62016d49565b62016b9f7f6a855a0cf806bf54f56b0894a0ff3dc976b081f5b466404a2a4ddf09d47746b660001b62016d49565b62016bcd7f87bfead1e6731c96849fa2b26a9b6b9a8c346d29c8f0c057af85e4ea71264f4960001b62016d49565b62016bd9828462017c70565b925062016c097fde86d1598f24ecf47f87e21b2ca275b54148dd414bcab48bc271a9e24ab9608460001b62016d49565b62016c377fc6f4503566e9c22cb0c02855c84a6cd1fcb4c12d2f17a1038bd93d82b3be253e60001b62016d49565b62016c43828362017c70565b915062016c737f6364d2cd8ec4e410fe5284c11b0c31e6e9bfb0546849b96c3ea2e4ff30255e5460001b62016d49565b62016ca17fdbe99c798e1562891ab67d7f2eb24bd2c2d48c035a19b1e7ef65545bded129c960001b62016d49565b62016ccc600262016cbd6001846200aff490919063ffffffff16565b6200df7790919063ffffffff16565b90505b620169b6565b62016d037fafcfe5e25fce3fc8a5893b7cc3fe5906e549c1a8528644123951fc9e1610433960001b62016d49565b62016d317faa5cde25a5892d786efc1261d1a973b2731b7877c8bd07382c35a568d3928f6460001b62016d49565b62016d3d828462017c70565b93505050505b92915050565b50565b62016d7a7fb36285a87f3d235a09d0193b36bd338abba814c616b8849a7ca17c61dab7d7d860001b6200379a565b62016da87f354c4e6da8c34d9fe3b9bfe722a17138948827e96fbc3d61b9c6e3b82c8f43df60001b6200379a565b62016dd67fcbda456f816524e76f39e0933cdd587adb9c526fc53c9b9035d2f5ed108ac3e060001b6200379a565b836040015173ffffffffffffffffffffffffffffffffffffffff16639dc29fac600660009054906101000a900473ffffffffffffffffffffffffffffffffffffffff16846040518363ffffffff1660e01b8152600401808373ffffffffffffffffffffffffffffffffffffffff1673ffffffffffffffffffffffffffffffffffffffff16815260200182815260200192505050600060405180830381600087803b15801562016e8457600080fd5b505af115801562016e99573d6000803e3d6000fd5b5050505062016ecb7f81c4600abfe550ab5de2db5e28d6e34d2eb5f429d23f8a8383c1f29fd9154bbd60001b6200379a565b62016ef97f77ee28deb742aba695344ec156b762462fabe7e33282a865de1a35d2b79d949f60001b6200379a565b836000015173ffffffffffffffffffffffffffffffffffffffff166338d995a8836040518263ffffffff1660e01b815260040180828152602001915050600060405180830381600087803b15801562016f5157600080fd5b505af115801562016f66573d6000803e3d6000fd5b5050505062016f987fa63c8477e64ac501194a6f2dfa69970bbf49039ad8049d4bf22af5c11256ec5760001b6200379a565b62016fc67f9474371595810bf67f6a22e4439f745fc48744b4ffa33136bd261ca1570aaddf60001b6200379a565b8360a0015173ffffffffffffffffffffffffffffffffffffffff16633f10abab84836040518363ffffffff1660e01b8152600401808373ffffffffffffffffffffffffffffffffffffffff1673ffffffffffffffffffffffffffffffffffffffff16815260200182815260200192505050600060405180830381600087803b1580156201705257600080fd5b505af115801562017067573d6000803e3d6000fd5b50505050620170997fc67ee8097e7d647bc52f4087f688c9c557bb081023e0ae7b32d6c245fb7c5c5260001b6200379a565b620170c77f33ebe49677dcd912a3cbeb9a974a60c17e70719305ce9e28808f19b7d7f8553460001b6200379a565b836000015173ffffffffffffffffffffffffffffffffffffffff166364a197f38560a00151836040518363ffffffff1660e01b8152600401808373ffffffffffffffffffffffffffffffffffffffff1673ffffffffffffffffffffffffffffffffffffffff16815260200182815260200192505050600060405180830381600087803b1580156201715757600080fd5b505af11580156201716c573d6000803e3d6000fd5b5050505050505050565b620171a47f55ce9b8c4b3bc4d3c36766dd5df4a649ddb965e005ab0f63b4eab410f266ae4260001b6200379a565b620171d27fba5a6a8adb0a01eb43e3dd9fe1b9a510b9e615b172c4616eeff069c46faa82b060001b6200379a565b620172007f0a8cbacf27d34f89e720665ccfc073f06e76166bd4cc998b26abfefa5bdeaec660001b6200379a565b6201722e7f207506b6a6a473616af568fcd3bd6989c658f3a07123a2c57f0ced577e50a2df60001b6200379a565b600181118015620172e457506001600b60009054906101000a900473ffffffffffffffffffffffffffffffffffffffff1673ffffffffffffffffffffffffffffffffffffffff1663de8fa4316040518163ffffffff1660e01b815260040160206040518083038186803b158015620172a557600080fd5b505afa158015620172ba573d6000803e3d6000fd5b505050506040513d6020811015620172d157600080fd5b8101908080519060200190929190505050115b6201733b576040517f08c379a000000000000000000000000000000000000000000000000000000000815260040180806020018281038252602a81526020018062018066602a913960400191505060405180910390fd5b620173697fd2e62c70d5304e7b7f3fb6193d3dee109ae3c2cf0ae254dd6b9de356e4ca5e5360001b6200379a565b50565b600080600080620173a07f963559385b8bd1500e0fbe458fc4f72716e13ebd42835ce37976696d53f1164e60001b6200379a565b620173ce7fbc6de181e8cfe6777b4d14909cde3979757f44793e5b11a8d80f731d9f9e374960001b6200379a565b620173fc7fc5ec11761b25f56761b41893c0595a75444c2dcbc4b884da6c47101b17fbbf7060001b6200379a565b60008511156201761157620174347f9f5243f740b2526d30951dc85d37cde675f30a814598e918e792e71f28efe38660001b6200379a565b620174627fe9ec7caca7d3099f915fd805ab6e749f65b5b47aaed7126cc0a3113271e552ce60001b6200379a565b620174907ff921759668b8136742d2d8a92ee5c147a50c02a8671a309927ebf645259815b060001b6200379a565b6201749c87866201648c565b9350620174cc7fae0ddb6686ad12c0905fe37e0b7ef69b7054c05b866ec2a43c53c80ba806b63660001b6200379a565b620174fa7f3a40f297f30f0cfd59a0a4b5c96411513555f78e39b8dc3e373c2880221e3a9d60001b6200379a565b62017523876201751486896200deec90919063ffffffff16565b6200df7790919063ffffffff16565b9250620175537f4fd64101628ce5547c4b5f6b3f6e711256dbc05c8bd12438366b1811e43796c660001b6200379a565b620175817fea45f8648046ca26de3d079b8b760e41c9b1fdc8d108ce36b5edad6bdc0c9fc560001b6200379a565b6201759684886200aff490919063ffffffff16565b9150620175c67fd167cba3547032247227a91fd74b463dc9f6150a80a5c549a48095ff34e95fe560001b6200379a565b620175f47ffc83cf97c584235b3a2507c5ddeaacfd5ce9351c9c17a8abddf594dcd1ca1a3160001b6200379a565b6201760983876200aff490919063ffffffff16565b9050620177be565b6201763f7fc785cdbadf9931230a2394ae09e8d012eae16d5143226052fc0929e818ba2f8160001b6200379a565b6201766d7f2828439791cbd00cd329db9659a470d58ce4a1d975848e23e259764253ef17b260001b6200379a565b6201769b7f8993465a39f203d2e083a7eb71d1bb23aa054dd8b35909367b725d74f3a7100860001b6200379a565b60009350620176cd7f71cdc0128a884656bf57c74be8964538193c45adea0f06dcb258e35531ded7a660001b6200379a565b620176fb7f95b1fa711a05147c92423412e29756d474b96dfcdebd55c7bd17ea1ab42d2f2360001b6200379a565b600092506201772d7fd53153180eb5d3f0988116fb90d9d2422b56d94bb6672c1d7fa7b61d25a27f6560001b6200379a565b6201775b7f6b00dba9dd27ecc79719a31590ab8372d96fa3c9de5ac0ea78e95b28a535193560001b6200379a565b8691506201778c7f6438d4e55786b60057be938338e6f9335dee8cacab277b3d05e1f49a81a333c060001b6200379a565b620177ba7f07b037f4899ca60a9b8db8afa8978ca316bbf76d1aab11cec6e24f69c774236360001b6200379a565b8590505b93509350935093565b620177d162017fcf565b620177ff7f036513bbbbcd65ff44dcd5f6f5159594f77d29d048474cf70eeba4fb2ca784ab60001b6200379a565b6201782d7f29e22fef903b175f3660c69b03cceec2b7b8154d5cd49d9b99dd7a7d50f2e64b60001b6200379a565b6201785b7fccb57b68c2be9457cf570647ea7abe6bd4c4b7b08e6437f8003c2d60953646aa60001b6200379a565b83816000018181525050620178937f7e3685935bf69dce933fab5dc02f1ca8b32d025818080f8f76db88894621dcec60001b6200379a565b620178c17fa16b318a527a3937cc5adf836292fa59b93988656d74945c87aa51892e67c25460001b6200379a565b82816020018181525050620178f97fecb26de8b313783d744ce590f58d346b339de008b21bc0c3a3b10ba43e788b6f60001b6200379a565b620179277f83dcf95e73026c404fdfbf53925e097bee4192c10b991795f8f1168fda8c234160001b6200379a565b60006201795a836201794b670f43fc2c04ee0000886200deec90919063ffffffff16565b6200df7790919063ffffffff16565b90506201798a7ffa205bd44c958df8b6d7b0ca52ad9af867ea3c99587c0bf6c13fa66acd83266460001b6200379a565b620179b87f3f561565d8993255fd0f759a2c1c4884144281ec9bbbab7f5f15ace35a35772860001b6200379a565b620179c38162010331565b826040018181525050620179fa7f29c1c46db8a07b13a29a1dd8da4d829c8a29f7b250902d1a63d2bba44d52772560001b6200379a565b62017a287f664ba7fe612a7d6891a32eccac830c027110a25220ddfadb32eb09894061f2dc60001b6200379a565b680ad78ebc5ac620000082606001818152505062017a697f7bd71919940e6b6dd3c16592f6c6ec13378c1fe619cc16063469109d286e70c460001b6200379a565b62017a977f0bcda941bee0fb274c65109db25fc736df99db043642403024f057d980d45e2a60001b6200379a565b8482608001818152505062017acf7f33067854770ab88aa9b387163c45448754fd64d7a1e9c7c2623c19b8fad1fbfa60001b6200379a565b62017afd7fb91320dc3be508f5754b3b0dd568a759f8213865f8db084e86c6222877b8041a60001b6200379a565b62017b168260400151826200aff490919063ffffffff16565b8260a001818152505062017b4d7f01e6daf80cab4868857b646d0508e8601c4f9cad3c07f4fa1e32ded0add83a6460001b6200379a565b62017b7b7f35de7fe5ae0130b3588bea423b61f785932d0e7e9689c1d654cc774f9d429ae360001b6200379a565b62017b9081856200aff490919063ffffffff16565b8261010001818152505062017bc87f490f6a785f1241935602cfc7e36ef9d98b857421b8cabcfa8ee0f17c284a51fd60001b6200379a565b62017bf67f1da9c739c475c5346e55541cf000d30f40dc38f6d0312153a4f8494ab1572f3060001b6200379a565b60008260c001818152505062017c2f7f8e95d5924b736dcc3bde0b846818affb2b26c3bd488194c4fb7840d844eb066260001b6200379a565b62017c5d7fc045666be57e6d0ba1225019a321243350ffe29a1ae541f8f39f63974676a39760001b6200379a565b60008260e0018181525050509392505050565b600062017ca07fcf2c8da14ad1a8f90127683c91376a491821becc1af092bb9f208bc555bc100560001b62016d49565b62017cce7fda80dfeb44c418549c5582ab2c70318bf7b0cb14201220f6ded1541ad2fc893b60001b62016d49565b62017cfc7fb26e00edd5ffe7f2468b9771f5a971168a4ed8a3a0d06918af1c1d6d4b76feeb60001b62016d49565b600062017d1383856200deec90919063ffffffff16565b905062017d437fcae6721ad5a0e4f2c279a6248a026a49cd7e26bc6970453d11e26959664207eb60001b62016d49565b62017d717f24fa38eeaa313d7921ecb164c9e2678792c268552c5a7925102974a0b23f2a0360001b62016d49565b62017db5670de0b6b3a764000062017da66002670de0b6b3a76400008162017d9557fe5b04846200fa1890919063ffffffff16565b6200df7790919063ffffffff16565b91505092915050565b6040518060a00160405280600081526020016000815260200160001515815260200160008152602001600081525090565b6040518061012001604052806000815260200160008152602001600081526020016000815260200160008152602001600081526020016000815260200160008152602001600081525090565b6040518060e00160405280600073ffffffffffffffffffffffffffffffffffffffff168152602001600073ffffffffffffffffffffffffffffffffffffffff168152602001600073ffffffffffffffffffffffffffffffffffffffff168152602001600073ffffffffffffffffffffffffffffffffffffffff168152602001600073ffffffffffffffffffffffffffffffffffffffff168152602001600073ffffffffffffffffffffffffffffffffffffffff168152602001600073ffffffffffffffffffffffffffffffffffffffff1681525090565b60405180610100016040528060008152602001600081526020016000815260200160008152602001600081526020016000815260200160008152602001600081525090565b604051806060016040528060008152602001600081526020016000151581525090565b6040518060e00160405280600081526020016000815260200160008152602001600073ffffffffffffffffffffffffffffffffffffffff16815260200160001515815260200160008152602001600081525090565b6040518061012001604052806000815260200160008152602001600081526020016000815260200160008152602001600081526020016000815260200160008152602001600081525090565b6040518060600160405280600081526020016000815260200160008152509056fe54726f76654d616e616765723a20556e61626c6520746f2072656465656d20616e7920616d6f756e7454726f76654d616e616765723a204f6e6c79206f6e652074726f766520696e207468652073797374656d54726f76654d616e616765723a20526564656d7074696f6e7320617265206e6f7420616c6c6f77656420647572696e6720626f6f747374726170207068617365536166654d6174683a206d756c7469706c69636174696f6e206f766572666c6f7754726f76654d616e616765723a2052657175657374656420726564656d7074696f6e20616d6f756e74206d757374206265203c3d20757365722773204c55534420746f6b656e2062616c616e636554726f76654d616e616765723a2043616c6c6572206973206e6f742074686520426f72726f7765724f7065726174696f6e7320636f6e747261637454726f76654d616e616765723a2043616c6c646174612061646472657373206172726179206d757374206e6f7420626520656d70747954726f76654d616e616765723a20416d6f756e74206d7573742062652067726561746572207468616e207a65726f54726f76654d616e616765723a2046656520776f756c642065617420757020616c6c2072657475726e656420636f6c6c61746572616c4d6178206665652070657263656e74616765206d757374206265206265747765656e20302e352520616e64203130302554726f76654d616e616765723a2043616e6e6f742072656465656d207768656e20544352203c204d435254726f76654d616e616765723a206e6f7468696e6720746f206c697175696461746554726f76654d616e616765723a2054726f766520646f6573206e6f74206578697374206f7220697320636c6f736564a2646970667358221220706748103465fcd6379411fecd34e646ce2afc504b389864b0fbad442e1a0dc264736f6c634300060b0033",
  "linkReferences": {},
  "deployedLinkReferences": {}
}