{
  "_format": "hh-sol-artifact-1",
  "contractName": "TroveManagerScript",
  "sourceName": "contracts/Proxy/TroveManagerScript.sol",
  "abi": [
    {
      "inputs": [
        {
          "internalType": "contract ITroveManager",
          "name": "_troveManager",
          "type": "address"
        }
      ],
      "stateMutability": "nonpayable",
      "type": "constructor"
    },
    {
      "inputs": [],
      "name": "NAME",
      "outputs": [
        {
          "internalType": "string",
          "name": "",
          "type": "string"
        }
      ],
      "stateMutability": "view",
      "type": "function"
    },
    {
      "inputs": [
        {
          "internalType": "bytes32",
          "name": "c__0x000d03e4",
          "type": "bytes32"
        }
      ],
      "name": "c_0x000d03e4",
      "outputs": [],
      "stateMutability": "pure",
      "type": "function"
    },
    {
      "inputs": [
        {
          "internalType": "bytes32",
          "name": "c__0xafd32059",
          "type": "bytes32"
        }
      ],
      "name": "c_0xafd32059",
      "outputs": [],
      "stateMutability": "pure",
      "type": "function"
    },
    {
      "inputs": [
        {
          "internalType": "uint256",
          "name": "_LUSDAmount",
          "type": "uint256"
        },
        {
          "internalType": "address",
          "name": "_firstRedemptionHint",
          "type": "address"
        },
        {
          "internalType": "address",
          "name": "_upperPartialRedemptionHint",
          "type": "address"
        },
        {
          "internalType": "address",
          "name": "_lowerPartialRedemptionHint",
          "type": "address"
        },
        {
          "internalType": "uint256",
          "name": "_partialRedemptionHintNICR",
          "type": "uint256"
        },
        {
          "internalType": "uint256",
          "name": "_maxIterations",
          "type": "uint256"
        },
        {
          "internalType": "uint256",
          "name": "_maxFee",
          "type": "uint256"
        }
      ],
      "name": "redeemCollateral",
      "outputs": [
        {
          "internalType": "uint256",
          "name": "",
          "type": "uint256"
        }
      ],
      "stateMutability": "nonpayable",
      "type": "function"
    }
  ],
  "bytecode": "0x60a060405234801561001057600080fd5b5060405161095d38038061095d8339818101604052602081101561003357600080fd5b81019080805190602001909291905050506100767f3f7c9331d4272ec0c3f10865fe03a466df31b38ac19341149a0d38fa963e7b9960001b61018a60201b60201c565b6100a87f17a6adaee63db9282d5fb420679b1c562c91fcee31e447683d988317a957ebd960001b61018a60201b60201c565b6100da7f1d6ffaf2e4586b94a9d6c1acd71f7fd205e17914b2131c1fe01b8de30064caa760001b61018a60201b60201c565b6100e98161018d60201b60201c565b61011b7f5084cd56dd50fe19d12e00b29738691f690cda22797601eb43ac2911cd85ce3c60001b61018a60201b60201c565b61014d7f809b9bab10e57a731cacf2bba6fe4e907505a66eda1efd37f1a02caa6fd54c7160001b61018a60201b60201c565b8073ffffffffffffffffffffffffffffffffffffffff1660808173ffffffffffffffffffffffffffffffffffffffff1660601b815250505061050b565b50565b6101bf7f35bc9e5e61c1438a006153cf69ffd6105766a3055440d22f6c8ce219146d68af60001b61050860201b60201c565b6101f17fe66c045f45b868efda896f2af22ed71637a4e9e8d13a2b1962badf362ba3eeb960001b61050860201b60201c565b6102237faaa4b517f253b4fa37cb2875514a22e04e7d5828c244c7095a27e85408ccd12c60001b61050860201b60201c565b6102557f1221da0bd0f16fcbee175d4dae7d6b598e327e79264e77ced4c93a6a0721871b60001b61050860201b60201c565b600073ffffffffffffffffffffffffffffffffffffffff168173ffffffffffffffffffffffffffffffffffffffff1614156102f8576040517f08c379a000000000000000000000000000000000000000000000000000000000815260040180806020018281038252601e8152602001807f4163636f756e742063616e6e6f74206265207a65726f2061646472657373000081525060200191505060405180910390fd5b61032a7f09f0dc62d572b9e8dd242a1b7e25c3c5de1610d6c480bec35912dd5840f55fec60001b61050860201b60201c565b61035c7fbe74447fdea037b64141768df2430eb2b7113bef949c88d88dcdc549ba88703360001b61050860201b60201c565b61038e7f04e66872d3f4c69728dfe545a06401e1b17e0f9dd5e1d43290514ae4fd92783060001b61050860201b60201c565b60006103c27f60826eea4af75abd2223d108cb037485a60c485e699a12a42cac24982b89800660001b61050860201b60201c565b813b90506103f87f7acec79ba6fd0be7bb4b2bfca56ca8eb3d8333d64e828971ccb7647facc3806360001b61050860201b60201c565b61042a7f0c7e0405db301404f844860b9fe6e14e956a97134ff8695c88184f1c957d6e0860001b61050860201b60201c565b61045c7f1c5a94c5a5d640e17d84bedbf9409c7f8afe563c4b1fceef7bced5961764ee0f60001b61050860201b60201c565b600081116104d2576040517f08c379a00000000000000000000000000000000000000000000000000000000081526004018080602001828103825260208152602001807f4163636f756e7420636f64652073697a652063616e6e6f74206265207a65726f81525060200191505060405180910390fd5b6105047f1023f03b6261b194c29dee3596b0d25a3be14b60910a1d249d0177db54f54c4a60001b61050860201b60201c565b5050565b50565b60805160601c610435610528600039806102b752506104356000f3fe608060405234801561001057600080fd5b506004361061004c5760003560e01c80638d74647714610051578063940a71bc1461007f578063a3f4df7e146100ad578063bcd3752614610130575b600080fd5b61007d6004803603602081101561006757600080fd5b81019080803590602001909291905050506101f0565b005b6100ab6004803603602081101561009557600080fd5b81019080803590602001909291905050506101f3565b005b6100b56101f6565b6040518080602001828103825283818151815260200191508051906020019080838360005b838110156100f55780820151818401526020810190506100da565b50505050905090810190601f1680156101225780820380516001836020036101000a031916815260200191505b509250505060405180910390f35b6101da600480360360e081101561014657600080fd5b8101908080359060200190929190803573ffffffffffffffffffffffffffffffffffffffff169060200190929190803573ffffffffffffffffffffffffffffffffffffffff169060200190929190803573ffffffffffffffffffffffffffffffffffffffff16906020019092919080359060200190929190803590602001909291908035906020019092919050505061022f565b6040518082815260200191505060405180910390f35b50565b50565b6040518060400160405280601281526020017f54726f76654d616e61676572536372697074000000000000000000000000000081525081565b600061025d7f2c5e8814f0550854288bb82da62b6b07d65e08960084b78f55f3a12502c6ed5060001b6101f0565b6102897f771b1cb1150364f0d5fcba4722fc22de96ebd91f67b987a60dabb72336a1f23260001b6101f0565b6102b57f688ed746dc3df64714dcf4b4e469f4233e252554da8cd1afdbec53cce081070360001b6101f0565b7f000000000000000000000000000000000000000000000000000000000000000073ffffffffffffffffffffffffffffffffffffffff1663bcd37526898989898989896040518863ffffffff1660e01b8152600401808881526020018773ffffffffffffffffffffffffffffffffffffffff1673ffffffffffffffffffffffffffffffffffffffff1681526020018673ffffffffffffffffffffffffffffffffffffffff1673ffffffffffffffffffffffffffffffffffffffff1681526020018573ffffffffffffffffffffffffffffffffffffffff1673ffffffffffffffffffffffffffffffffffffffff168152602001848152602001838152602001828152602001975050505050505050600060405180830381600087803b1580156103dc57600080fd5b505af11580156103f0573d6000803e3d6000fd5b5050505097965050505050505056fea2646970667358221220848aa08849bf109dbe30a6970b66b792663337220cdd1d581757646e6649b6a464736f6c634300060b0033",
  "linkReferences": {},
  "deployedLinkReferences": {}
}