{
  "_format": "hh-sol-artifact-1",
  "contractName": "Unipool",
  "sourceName": "contracts/LPRewards/Unipool.sol",
  "abi": [
    {
      "anonymous": false,
      "inputs": [
        {
          "indexed": false,
          "internalType": "address",
          "name": "_lqtyTokenAddress",
          "type": "address"
        }
      ],
      "name": "LQTYTokenAddressChanged",
      "type": "event"
    },
    {
      "anonymous": false,
      "inputs": [
        {
          "indexed": true,
          "internalType": "address",
          "name": "previousOwner",
          "type": "address"
        },
        {
          "indexed": true,
          "internalType": "address",
          "name": "newOwner",
          "type": "address"
        }
      ],
      "name": "OwnershipTransferred",
      "type": "event"
    },
    {
      "anonymous": false,
      "inputs": [
        {
          "indexed": false,
          "internalType": "uint256",
          "name": "reward",
          "type": "uint256"
        }
      ],
      "name": "RewardAdded",
      "type": "event"
    },
    {
      "anonymous": false,
      "inputs": [
        {
          "indexed": true,
          "internalType": "address",
          "name": "user",
          "type": "address"
        },
        {
          "indexed": false,
          "internalType": "uint256",
          "name": "reward",
          "type": "uint256"
        }
      ],
      "name": "RewardPaid",
      "type": "event"
    },
    {
      "anonymous": false,
      "inputs": [
        {
          "indexed": true,
          "internalType": "address",
          "name": "user",
          "type": "address"
        },
        {
          "indexed": false,
          "internalType": "uint256",
          "name": "amount",
          "type": "uint256"
        }
      ],
      "name": "Staked",
      "type": "event"
    },
    {
      "anonymous": false,
      "inputs": [
        {
          "indexed": false,
          "internalType": "address",
          "name": "_uniTokenAddress",
          "type": "address"
        }
      ],
      "name": "UniTokenAddressChanged",
      "type": "event"
    },
    {
      "anonymous": false,
      "inputs": [
        {
          "indexed": true,
          "internalType": "address",
          "name": "user",
          "type": "address"
        },
        {
          "indexed": false,
          "internalType": "uint256",
          "name": "amount",
          "type": "uint256"
        }
      ],
      "name": "Withdrawn",
      "type": "event"
    },
    {
      "inputs": [],
      "name": "NAME",
      "outputs": [
        {
          "internalType": "string",
          "name": "",
          "type": "string"
        }
      ],
      "stateMutability": "view",
      "type": "function"
    },
    {
      "inputs": [
        {
          "internalType": "address",
          "name": "account",
          "type": "address"
        }
      ],
      "name": "balanceOf",
      "outputs": [
        {
          "internalType": "uint256",
          "name": "",
          "type": "uint256"
        }
      ],
      "stateMutability": "view",
      "type": "function"
    },
    {
      "inputs": [
        {
          "internalType": "bytes32",
          "name": "c__0x46175480",
          "type": "bytes32"
        }
      ],
      "name": "c_0x46175480",
      "outputs": [],
      "stateMutability": "pure",
      "type": "function"
    },
    {
      "inputs": [
        {
          "internalType": "bytes32",
          "name": "c__0x866edd45",
          "type": "bytes32"
        }
      ],
      "name": "c_0x866edd45",
      "outputs": [],
      "stateMutability": "pure",
      "type": "function"
    },
    {
      "inputs": [
        {
          "internalType": "bytes32",
          "name": "c__0xafd32059",
          "type": "bytes32"
        }
      ],
      "name": "c_0xafd32059",
      "outputs": [],
      "stateMutability": "pure",
      "type": "function"
    },
    {
      "inputs": [],
      "name": "claimReward",
      "outputs": [],
      "stateMutability": "nonpayable",
      "type": "function"
    },
    {
      "inputs": [],
      "name": "duration",
      "outputs": [
        {
          "internalType": "uint256",
          "name": "",
          "type": "uint256"
        }
      ],
      "stateMutability": "view",
      "type": "function"
    },
    {
      "inputs": [
        {
          "internalType": "address",
          "name": "account",
          "type": "address"
        }
      ],
      "name": "earned",
      "outputs": [
        {
          "internalType": "uint256",
          "name": "",
          "type": "uint256"
        }
      ],
      "stateMutability": "view",
      "type": "function"
    },
    {
      "inputs": [],
      "name": "isOwner",
      "outputs": [
        {
          "internalType": "bool",
          "name": "",
          "type": "bool"
        }
      ],
      "stateMutability": "view",
      "type": "function"
    },
    {
      "inputs": [],
      "name": "lastTimeRewardApplicable",
      "outputs": [
        {
          "internalType": "uint256",
          "name": "",
          "type": "uint256"
        }
      ],
      "stateMutability": "view",
      "type": "function"
    },
    {
      "inputs": [],
      "name": "lastUpdateTime",
      "outputs": [
        {
          "internalType": "uint256",
          "name": "",
          "type": "uint256"
        }
      ],
      "stateMutability": "view",
      "type": "function"
    },
    {
      "inputs": [],
      "name": "lqtyToken",
      "outputs": [
        {
          "internalType": "contract ILQTYToken",
          "name": "",
          "type": "address"
        }
      ],
      "stateMutability": "view",
      "type": "function"
    },
    {
      "inputs": [],
      "name": "owner",
      "outputs": [
        {
          "internalType": "address",
          "name": "",
          "type": "address"
        }
      ],
      "stateMutability": "view",
      "type": "function"
    },
    {
      "inputs": [],
      "name": "periodFinish",
      "outputs": [
        {
          "internalType": "uint256",
          "name": "",
          "type": "uint256"
        }
      ],
      "stateMutability": "view",
      "type": "function"
    },
    {
      "inputs": [],
      "name": "rewardPerToken",
      "outputs": [
        {
          "internalType": "uint256",
          "name": "",
          "type": "uint256"
        }
      ],
      "stateMutability": "view",
      "type": "function"
    },
    {
      "inputs": [],
      "name": "rewardPerTokenStored",
      "outputs": [
        {
          "internalType": "uint256",
          "name": "",
          "type": "uint256"
        }
      ],
      "stateMutability": "view",
      "type": "function"
    },
    {
      "inputs": [],
      "name": "rewardRate",
      "outputs": [
        {
          "internalType": "uint256",
          "name": "",
          "type": "uint256"
        }
      ],
      "stateMutability": "view",
      "type": "function"
    },
    {
      "inputs": [
        {
          "internalType": "address",
          "name": "",
          "type": "address"
        }
      ],
      "name": "rewards",
      "outputs": [
        {
          "internalType": "uint256",
          "name": "",
          "type": "uint256"
        }
      ],
      "stateMutability": "view",
      "type": "function"
    },
    {
      "inputs": [
        {
          "internalType": "address",
          "name": "_lqtyTokenAddress",
          "type": "address"
        },
        {
          "internalType": "address",
          "name": "_uniTokenAddress",
          "type": "address"
        },
        {
          "internalType": "uint256",
          "name": "_duration",
          "type": "uint256"
        }
      ],
      "name": "setParams",
      "outputs": [],
      "stateMutability": "nonpayable",
      "type": "function"
    },
    {
      "inputs": [
        {
          "internalType": "uint256",
          "name": "amount",
          "type": "uint256"
        }
      ],
      "name": "stake",
      "outputs": [],
      "stateMutability": "nonpayable",
      "type": "function"
    },
    {
      "inputs": [],
      "name": "totalSupply",
      "outputs": [
        {
          "internalType": "uint256",
          "name": "",
          "type": "uint256"
        }
      ],
      "stateMutability": "view",
      "type": "function"
    },
    {
      "inputs": [],
      "name": "uniToken",
      "outputs": [
        {
          "internalType": "contract IERC20",
          "name": "",
          "type": "address"
        }
      ],
      "stateMutability": "view",
      "type": "function"
    },
    {
      "inputs": [
        {
          "internalType": "address",
          "name": "",
          "type": "address"
        }
      ],
      "name": "userRewardPerTokenPaid",
      "outputs": [
        {
          "internalType": "uint256",
          "name": "",
          "type": "uint256"
        }
      ],
      "stateMutability": "view",
      "type": "function"
    },
    {
      "inputs": [
        {
          "internalType": "uint256",
          "name": "amount",
          "type": "uint256"
        }
      ],
      "name": "withdraw",
      "outputs": [],
      "stateMutability": "nonpayable",
      "type": "function"
    },
    {
      "inputs": [],
      "name": "withdrawAndClaim",
      "outputs": [],
      "stateMutability": "nonpayable",
      "type": "function"
    }
  ],
  "bytecode": "0x60806040526000600655600060075534801561001a57600080fd5b5033600360006101000a81548173ffffffffffffffffffffffffffffffffffffffff021916908373ffffffffffffffffffffffffffffffffffffffff1602179055503373ffffffffffffffffffffffffffffffffffffffff16600073ffffffffffffffffffffffffffffffffffffffff167f8be0079c531659141344cd1fd0a4f28419497f9722a3daafe3b4186f6b6457e060405160405180910390a3613eea806100c66000396000f3fe608060405234801561001057600080fd5b50600436106101625760003560e01c806385ce4fee116100ce578063a694fc3a11610087578063a694fc3a146105e8578063b88a802f14610616578063c8f33c9114610620578063cd3daf9d1461063e578063d44377241461065c578063df136d6514610666578063ebe2b12b1461068457610162565b806385ce4fee146104295780638b876347146104735780638da5cb5b146104cb5780638f32d59b14610515578063940a71bc14610537578063a3f4df7e1461056557610162565b80631f7af3c3116101205780631f7af3c3146102af5780632e1a7d4d146102f9578063509db2f61461032757806370a08231146103955780637b0a47ee146103ed57806380faa57d1461040b57610162565b80628cc2621461016757806304c312c7146101bf57806305776236146101ed5780630700037d1461021b5780630fb5a6b41461027357806318160ddd14610291575b600080fd5b6101a96004803603602081101561017d57600080fd5b81019080803573ffffffffffffffffffffffffffffffffffffffff1690602001909291905050506106a2565b6040518082815260200191505060405180910390f35b6101eb600480360360208110156101d557600080fd5b810190808035906020019092919050505061080d565b005b6102196004803603602081101561020357600080fd5b8101908080359060200190929190505050610810565b005b61025d6004803603602081101561023157600080fd5b81019080803573ffffffffffffffffffffffffffffffffffffffff169060200190929190505050610813565b6040518082815260200191505060405180910390f35b61027b61082b565b6040518082815260200191505060405180910390f35b610299610831565b6040518082815260200191505060405180910390f35b6102b76108bf565b604051808273ffffffffffffffffffffffffffffffffffffffff1673ffffffffffffffffffffffffffffffffffffffff16815260200191505060405180910390f35b6103256004803603602081101561030f57600080fd5b81019080803590602001909291905050506108e5565b005b6103936004803603606081101561033d57600080fd5b81019080803573ffffffffffffffffffffffffffffffffffffffff169060200190929190803573ffffffffffffffffffffffffffffffffffffffff16906020019092919080359060200190929190505050610cf9565b005b6103d7600480360360208110156103ab57600080fd5b81019080803573ffffffffffffffffffffffffffffffffffffffff1690602001909291905050506112d0565b6040518082815260200191505060405180910390f35b6103f561139d565b6040518082815260200191505060405180910390f35b6104136113a3565b6040518082815260200191505060405180910390f35b61043161143a565b604051808273ffffffffffffffffffffffffffffffffffffffff1673ffffffffffffffffffffffffffffffffffffffff16815260200191505060405180910390f35b6104b56004803603602081101561048957600080fd5b81019080803573ffffffffffffffffffffffffffffffffffffffff16906020019092919050505061145f565b6040518082815260200191505060405180910390f35b6104d3611477565b604051808273ffffffffffffffffffffffffffffffffffffffff1673ffffffffffffffffffffffffffffffffffffffff16815260200191505060405180910390f35b61051d6114a1565b604051808215151515815260200191505060405180910390f35b6105636004803603602081101561054d57600080fd5b81019080803590602001909291905050506114f9565b005b61056d6114fc565b6040518080602001828103825283818151815260200191508051906020019080838360005b838110156105ad578082015181840152602081019050610592565b50505050905090810190601f1680156105da5780820380516001836020036101000a031916815260200191505b509250505060405180910390f35b610614600480360360208110156105fe57600080fd5b8101908080359060200190929190505050611535565b005b61061e6119a9565b005b610628611ffb565b6040518082815260200191505060405180910390f35b610646612001565b6040518082815260200191505060405180910390f35b610664612226565b005b61066e61231d565b6040518082815260200191505060405180910390f35b61068c612323565b6040518082815260200191505060405180910390f35b60006106d07f7369b5107b37707b814da5cfaab6362a34dc65887a71f7ef0dad597cf973497360001b610810565b6106fc7f1b7d49b678e424adc568e9b4da504643c01b4bb4674ce03d460aa4309c77266c60001b610810565b6107287f250e440fe136e66d9c69b03f4a7cca6ddebf0e3a1bc8be6234019b6b77838e8760001b610810565b610806600b60008473ffffffffffffffffffffffffffffffffffffffff1673ffffffffffffffffffffffffffffffffffffffff168152602001908152602001600020546107f8670de0b6b3a76400006107ea6107d3600a60008973ffffffffffffffffffffffffffffffffffffffff1673ffffffffffffffffffffffffffffffffffffffff168152602001908152602001600020546107c5612001565b61232990919063ffffffff16565b6107dc886112d0565b61237390919063ffffffff16565b6123f990919063ffffffff16565b61244390919063ffffffff16565b9050919050565b50565b50565b600b6020528060005260406000206000915090505481565b60045481565b600061085f7fd34763a4a25d7a180203864412cc14aee1800cac6e78cf0cdd283e79d1c7e69060001b61080d565b61088b7f8c1a19ac437d8a84c8563eb44014743117fbf283d0ab29d9dc5a60454e56424160001b61080d565b6108b77f9aa5d047224e3c4ecf90c3b350bbf21585908d1dcf623fa8162ec513d0b2715c60001b61080d565b600154905090565b600560009054906101000a900473ffffffffffffffffffffffffffffffffffffffff1681565b6109117f84c168f17c682558e3071a2907af94b0417310f2e336914d0464a460b7873bc860001b610810565b61093d7fcde9ba2862ff592908472d37a6795200e8a8a42fb27cca0fe0b7e5a3423ff4fb60001b610810565b6109697fc2caa798b65cb380c07c6bebe723aa62faf2f21701a8e33660d4f5d03bf3aa9160001b610810565b6109957fce8381068c15d2f9aaf70fc2c4b33216e804114c85d6ab2543a43d4ffd89f4f660001b610810565b60008111610a0b576040517f08c379a00000000000000000000000000000000000000000000000000000000081526004018080602001828103825260118152602001807f43616e6e6f74207769746864726177203000000000000000000000000000000081525060200191505060405180910390fd5b610a377fd8887b32f382cee147db79aab3a2874ee554b2c015b423eda7eb6e20eb3d6ba760001b610810565b610a637f98977a6dd8117967ae0962f38bcc47f2d94a8109791a9479a60f600433071f0d60001b610810565b610a8f7f3c3d3ff7e4987fea3218178da3de74074d712ed7d1c505361f9153941ce43b7c60001b610810565b610abb7f4c7e1bc4f7b4ff3e230c32160722b5492beefa142eff5507b10004cbcd111f9460001b610810565b600073ffffffffffffffffffffffffffffffffffffffff166000809054906101000a900473ffffffffffffffffffffffffffffffffffffffff1673ffffffffffffffffffffffffffffffffffffffff161415610b62576040517f08c379a0000000000000000000000000000000000000000000000000000000008152600401808060200182810382526029815260200180613e1b6029913960400191505060405180910390fd5b610b8e7f9678c39501ff7e243d81a0bffbfd1cdf32626ca1a2eda43bc3c148bb7a64910160001b610810565b610bba7ff6be064c58cfc6bb890090143015aa8663b0941d9f99cf53656ab3fd2605b1a160001b610810565b610be67ff5c0ffebb82b0c84b57aebc3fd35cb08c087753184b11030fa18a46f01f92e2860001b610810565b610bef336124cb565b610c1b7fde74527127e92c874adef12839a0327a10914cf5fd87f399024226827b9c23bd60001b610810565b610c477ff71f3311158589a5ec70e1fd88fa827da68472341b63172cc1c9bec9ade2768360001b610810565b610c508161272b565b610c7c7ffc3eb55d8c0cfe843654a167aec4b8fd340080814e323cdb3bd2ffc27b2d7e6a60001b610810565b610ca87febd76093263feaa1f19457180669352572f5aa6e25fcff5de5610c374711340f60001b610810565b3373ffffffffffffffffffffffffffffffffffffffff167f7084f5476618d8e60b11ef0d7d3f06914655adb8793e28ff7f018d4c76d505d5826040518082815260200191505060405180910390a250565b610d016114a1565b610d73576040517f08c379a00000000000000000000000000000000000000000000000000000000081526004018080602001828103825260208152602001807f4f776e61626c653a2063616c6c6572206973206e6f7420746865206f776e657281525060200191505060405180910390fd5b610d9f7f2acaaa8e063ce2758c88658561ac6f97360d39d78a0ac766b46a61566c9998d060001b610810565b610dcb7f17756e5df20b0da1a340f067a82ce788db75b512d38d7ec7299136b9710dca6860001b610810565b610df77f61caf023ad428531cce6363baa3816bc68590aa6a2b094af15d35ac335602efb60001b610810565b610e008361295e565b610e2c7f5957fe524d0241606476a0735c24603a0f85cac231c0568fe155ba9f6d76933660001b610810565b610e587fe7d0dfbaba23fbec1f22c6009ca698afa6752dff9edb64bfcca1d27889c6fdaa60001b610810565b610e618261295e565b610e8d7f2b529208097c8662d73eeee1c4f0d140a850aba8653ca01fb47380f47581e08060001b610810565b610eb97ff71d55902355590322f012bdcfcd3904e7ce837de895fdd97ece80db9d2a757f60001b610810565b816000806101000a81548173ffffffffffffffffffffffffffffffffffffffff021916908373ffffffffffffffffffffffffffffffffffffffff160217905550610f257ff8b23a7e14728a052e19fa9d74ccff914952157c796a347e67aeafb24d0d235b60001b610810565b610f517f6dcad2040496f96879822b469c59306eb7f7e2370f2b84df466c3415536b1faf60001b610810565b82600560006101000a81548173ffffffffffffffffffffffffffffffffffffffff021916908373ffffffffffffffffffffffffffffffffffffffff160217905550610fbe7f30d8909eb8123b04d1a301dbdfb13235512034925e3810b282702229ea4d9a5160001b610810565b610fea7f26886d01b687eb938b1bac772248622ee2251841babcb5f0b4ddd5d781fe577760001b610810565b8060048190555061101d7f39d148988cfe90582e40aad673578a40527465a88c2e8bd996f1c02d39d1619e60001b610810565b6110497fb6be9296eb74976323c0d556e4cc12c4fc274cdab6ad426051b35ac1c2441e9f60001b610810565b6110f5600560009054906101000a900473ffffffffffffffffffffffffffffffffffffffff1673ffffffffffffffffffffffffffffffffffffffff1663974f55906040518163ffffffff1660e01b815260040160206040518083038186803b1580156110b457600080fd5b505afa1580156110c8573d6000803e3d6000fd5b505050506040513d60208110156110de57600080fd5b810190808051906020019092919050505082612c91565b6111217f2cd63c50d53c02d34aa084fa23a5f1fac5f4e232b1ca7f6550e80992eea7ac5360001b610810565b61114d7fdf157d6c0b8efdc59bc6d1b8c621cd0de73abe4a4d36070d39dcc309885001ee60001b610810565b7f2ac6e99201ddc1b6eac6f8f28662d1ecafee131f6eb98c29de54528a9888a7d183604051808273ffffffffffffffffffffffffffffffffffffffff1673ffffffffffffffffffffffffffffffffffffffff16815260200191505060405180910390a16111dc7faf9343280f88b7a8279bc9293f6be2f34a8a488dd8393eb871bce5e424d7267060001b610810565b6112087fc45b3b9e418657da1693eafe5daa46ce2e12ec4f68ca7968af2c76cdee0499b360001b610810565b7f15cb6984f76cb781da2b25c2024a3eaf5011914976381f844e09724cc9e21e9482604051808273ffffffffffffffffffffffffffffffffffffffff1673ffffffffffffffffffffffffffffffffffffffff16815260200191505060405180910390a16112977f169f12a27c1aabb7158d9b1bdca2912c93e71af453fb50031fdedbd8e73eac8360001b610810565b6112c37f0f54c1e54f81171b0af316ac2a59ffdddbe1f2216db7a5516752ea5c85afbd7260001b610810565b6112cb6130f1565b505050565b60006112fe7fae92a3e6bb208fbb90752d483f2c75ae200878f83f963fc14d0522c564e7f9be60001b61080d565b61132a7f8352e01df12a8d4bb48c7d80e12bd6e23248ca95667da91b4a60bedc793e08da60001b61080d565b6113567f53e820a489b3d75dec3df903cd924a79c742b8e65a8462e28a422aaaafd3b67960001b61080d565b600260008373ffffffffffffffffffffffffffffffffffffffff1673ffffffffffffffffffffffffffffffffffffffff168152602001908152602001600020549050919050565b60075481565b60006113d17f3b49485356cc7bcb0f7fa15fbbf86a5e0c8d743f2a6a5a233f1a500cf1122ecd60001b610810565b6113fd7fff030e42184a93245cc6e7610c315b8dcb92373f6867f8d70ceecd210e79d50f60001b610810565b6114297ff4b41ac7e1b79360a3ea735fad33178625a825393ef3927e30cdb846288e5b7e60001b610810565b611435426006546131b2565b905090565b6000809054906101000a900473ffffffffffffffffffffffffffffffffffffffff1681565b600a6020528060005260406000206000915090505481565b6000600360009054906101000a900473ffffffffffffffffffffffffffffffffffffffff16905090565b6000600360009054906101000a900473ffffffffffffffffffffffffffffffffffffffff1673ffffffffffffffffffffffffffffffffffffffff163373ffffffffffffffffffffffffffffffffffffffff1614905090565b50565b6040518060400160405280600781526020017f556e69706f6f6c0000000000000000000000000000000000000000000000000081525081565b6115617f9bad1e85359035bde59628c48c8bcc4799cda481053fcd36ef171dd715eeb9f160001b610810565b61158d7ffedf458e1e236eb7c2b8e2bc060507d990800b06b4ffb5693663c3f40969ce3d60001b610810565b6115b97f8f81fb4f11e73ac2541da852169fe9ac35219c7a7daf74db688f0827830b8c5a60001b610810565b6115e57f465ff2f65a4e4a00c54f52093962814ae60453dfdb3f54d47a9b49423d82c52c60001b610810565b6000811161165b576040517f08c379a000000000000000000000000000000000000000000000000000000000815260040180806020018281038252600e8152602001807f43616e6e6f74207374616b65203000000000000000000000000000000000000081525060200191505060405180910390fd5b6116877f5d111b700ca493c91829bbae3657930248da83222a2c062709b08588e17f387d60001b610810565b6116b37f941e3348f83875af0b0851a0b22466830c4cb6838e1b6266ebb9f0f7cc0cf1da60001b610810565b6116df7fbb6db33d39e32ec3e03d25ea6afc133c6863b9e8a99bfa748ae04b5bf107ef1560001b610810565b61170b7f55a007f3b8d117794f39be3606d753c6a64d0df005f09d9fea73dfd6d1ea9fb360001b610810565b600073ffffffffffffffffffffffffffffffffffffffff166000809054906101000a900473ffffffffffffffffffffffffffffffffffffffff1673ffffffffffffffffffffffffffffffffffffffff1614156117b2576040517f08c379a0000000000000000000000000000000000000000000000000000000008152600401808060200182810382526029815260200180613e1b6029913960400191505060405180910390fd5b6117de7fc0ad8df514db1db725ffdbae9a073d294ead2ef44605b5c52a7995399acf4c4860001b610810565b61180a7f8145fe9e3c5a3367153761db0ff1fcd2ac07161572a0b753ed316f42c1bb814860001b610810565b6118367fc8902a135354c75c746d1cf39eb8f39f52fc9af802294c907236cd6195bbe90a60001b610810565b61183e61324f565b61186a7fe34515872a6fd707c839adc3c4db9beb07aaea1c11679312e156fa82fd4514f060001b610810565b6118967fc70639b6a421119e4a809e577ab0b525a4b2fec052cedec6d5c8303f10058b6660001b610810565b61189f336124cb565b6118cb7f250169de5e0c19eb762debe9245450f4fbc40c495b06f617ceac44b4ff60507560001b610810565b6118f77fb3538bc0881d503f3db2bc84d4175c5ec7a4e26f52613cc70e230e5affcbc02960001b610810565b6119008161342e565b61192c7f9b351c8839fb97533a73597b3a183b843ac33415a8a5bc11787b07a94b5c20b460001b610810565b6119587f6620040ff41e69aad4394ee28fa8046b03b9ef1e63274119bc4579d6e5c390be60001b610810565b3373ffffffffffffffffffffffffffffffffffffffff167f9e71bc8eea02a63969f509818f2dafb9254532904319f9dbda79b67bd34a5f3d826040518082815260200191505060405180910390a250565b6119d57f5bd9b94828d7a9f4b216d0882552070fa5d00f7b43eaec02517b0778d73a808c60001b610810565b611a017fcb620debcd24f8560003b92e89cf60d1a0cf3a1f34b3cb8f59bfbc7ffef3358b60001b610810565b611a2d7f4b5fa356c954d28446bdff0427a3067dfe4d50a5a25ee3c6766b41813cfa12f860001b610810565b611a597f6933f67486f78453783ad0af6e41054577f6ca310f6cf07fe69272b0c1e8fc8260001b610810565b600073ffffffffffffffffffffffffffffffffffffffff166000809054906101000a900473ffffffffffffffffffffffffffffffffffffffff1673ffffffffffffffffffffffffffffffffffffffff161415611b00576040517f08c379a0000000000000000000000000000000000000000000000000000000008152600401808060200182810382526029815260200180613e1b6029913960400191505060405180910390fd5b611b2c7f883cb37fb749335cefc46173f64048805d5973412170bc6307c4549177f59cc260001b610810565b611b587fdb19b27c0463cdcf3b59e5bd082284d37bb6d7d06b4b7c8acd83eceafc86dd6a60001b610810565b611b847fab958980285e885757c5c5baad0f5735474f9eccd3f49140868d5a9cc419e36660001b610810565b611b8c61324f565b611bb87ffd524a8e686edfca4c089fed907d9f4a318b66c3de73d05fbea8fe210208da7960001b610810565b611be47ff66d49653a0eebfeb91db1035886482b91ab6f27638cd4f60f24b90efac51ae060001b610810565b611bed336124cb565b611c197f8bc9b9ce1c17aedba2cc6de79d591bd47f09222e5c9104541e48a9989fc3de3b60001b610810565b611c457f89f9a621611b75e919c5be69fe72981592e18689044ddf11138848becc76df6560001b610810565b6000611c50336106a2565b9050611c7e7f5a0afc9dc0e3d8fd9b4bf891c33fab7170036cde7ad97ca0880da3a2182963b660001b610810565b611caa7f2ad0d6a3523dc82f93d2767538af72e63aea2e29765bc7c7efd0d1aeda86393f60001b610810565b611cd67f4339a7be39cafa527ad644a2796b1e3601a2be4f99e2c21b4424be641dfa449860001b610810565b60008111611d4c576040517f08c379a00000000000000000000000000000000000000000000000000000000081526004018080602001828103825260108152602001807f4e6f7468696e6720746f20636c61696d0000000000000000000000000000000081525060200191505060405180910390fd5b611d787f632ef8c7a169c63f5c4f4100dfc0a0a93e2d41c6e405b7e09f2578eabd420fa260001b610810565b611da47fbef590d0fb4b5e2f0e77d69720d96dcc33e9c7b06fc484a80f07160ee80818ce60001b610810565b611dd07fda3c332c5a4cf2afef2158c019c88aec79348942595652e1d6f2b97b75d76ecd60001b610810565b6000600b60003373ffffffffffffffffffffffffffffffffffffffff1673ffffffffffffffffffffffffffffffffffffffff16815260200190815260200160002081905550611e417f6f7f6dace215c0cdfe9521607e9df80098e4761c02f19e29672267ec439de6af60001b610810565b611e6d7f5aba8eecbcd45eb24b66300728b2891d8e64be78cb3b7cab243ec269e3c800be60001b610810565b600560009054906101000a900473ffffffffffffffffffffffffffffffffffffffff1673ffffffffffffffffffffffffffffffffffffffff1663a9059cbb33836040518363ffffffff1660e01b8152600401808373ffffffffffffffffffffffffffffffffffffffff1673ffffffffffffffffffffffffffffffffffffffff16815260200182815260200192505050602060405180830381600087803b158015611f1657600080fd5b505af1158015611f2a573d6000803e3d6000fd5b505050506040513d6020811015611f4057600080fd5b810190808051906020019092919050505050611f7e7f81eda8c02b5b4d8144cabda888b8fba80854a574adc6bca2a93b411af3cac55b60001b610810565b611faa7f711773629e635f4557f4110557b54fc58a647ce25d94d43a135b0afc1934f3e160001b610810565b3373ffffffffffffffffffffffffffffffffffffffff167fe2403640ba68fed3a2f88b7557551d1993f84b99bb10ff833f0cf8db0c5e0486826040518082815260200191505060405180910390a250565b60085481565b600061202f7f4dd522af9aa62ba82fa7e33ff24c6823d4cf88af8a134a97cc944c68c53bf10260001b610810565b61205b7f29b55016fe9c39e5492e35a8af18817cd775f3f36cca6954524b8d5066b22a5560001b610810565b6120877f3d3c1cfa1cd3ccbcf17868dd44e74c769357c55ea3c303f39a028aadc60e7e3e60001b610810565b6000612091610831565b1415612125576120c37fb581dfbe57ccad558a104cb3f0e6177ea7709c092e94808d1c8ec2770bc4958a60001b610810565b6120ef7fbff55fe23555f58d2fea10ee01135f82043a63178ec51b1173b817aff0b5b6c360001b610810565b61211b7f43bffefe78f8bfe5592b4abcb91e561fe5c07c4ed03b09a57df6870ff40dab2360001b610810565b6009549050612223565b6121517fe856019b0b61de459d78d63afe32ba22b41ee3d864241bbd43a6c3b2e0a0ff9760001b610810565b61217d7f1615a359785f58ecc1d36061f51f138bb69172a1e134f54186e061a56072b16960001b610810565b6121a97f9e3a5293fa8cfa5de0a92f8715de3db9c185dedacf4cf4a8466707b5ebf854a260001b610810565b61222061220f6121b7610831565b612201670de0b6b3a76400006121f36007546121e56008546121d76113a3565b61232990919063ffffffff16565b61237390919063ffffffff16565b61237390919063ffffffff16565b6123f990919063ffffffff16565b60095461244390919063ffffffff16565b90505b90565b6122527f0a0e297ed3c199092b2be5f984fc1e349c6f2f67113773d8b9ccfba0ae0e14ab60001b610810565b61227e7f3952841d81f25d535b31eb44ebec2ba19eee3d752bb94f24bb863330cbd24bb060001b610810565b6122aa7f2ddff447403accc494438d57a74f0480280b1ce61414513fc64e12c10b76c1cb60001b610810565b6122bb6122b6336112d0565b6108e5565b6122e77f02450fda39fe41da6ba854ccc0e68d54b7b13fc1e933cc163990b0f886bab5de60001b610810565b6123137fbcbbb01f4f49d58e4d7fdee1462c13e5a14615fcb7d301af8f1facce463b243e60001b610810565b61231b6119a9565b565b60095481565b60065481565b600061236b83836040518060400160405280601e81526020017f536166654d6174683a207375627472616374696f6e206f766572666c6f770000815250613663565b905092915050565b60008083141561238657600090506123f3565b600082840290508284828161239757fe5b04146123ee576040517f08c379a0000000000000000000000000000000000000000000000000000000008152600401808060200182810382526021815260200180613e6a6021913960400191505060405180910390fd5b809150505b92915050565b600061243b83836040518060400160405280601a81526020017f536166654d6174683a206469766973696f6e206279207a65726f000000000000815250613723565b905092915050565b6000808284019050838110156124c1576040517f08c379a000000000000000000000000000000000000000000000000000000000815260040180806020018281038252601b8152602001807f536166654d6174683a206164646974696f6e206f766572666c6f77000000000081525060200191505060405180910390fd5b8091505092915050565b6124f77ff993719d8d488f29c1e2e09014fca796e0f50e2c3b6b2bc3f5a5318b5c41af6f60001b610810565b6125237ff79e53c89b8d035189978b5db588e9c1c3707e0f11930625c7e241781f5042c960001b610810565b61254f7fd66a78f97361b60968f038ac675ab26bb14bf8fc22668d6040535857d74290e960001b610810565b6125576137e9565b6125837f1237763f24f8da11d1b3d5d226a99f31ace5fc83207ba851819f5416284a102e60001b610810565b6125af7f5b5947dae1c8ff9925eb099bdfea056f7fac3fe1ee94c0bda8db2359969e81c360001b610810565b600073ffffffffffffffffffffffffffffffffffffffff168173ffffffffffffffffffffffffffffffffffffffff1614156125e657fe5b6126127ffd1ea76f082e207dd6e227adadca0ce88fa337b7513be168c7016c9aecfc7e3f60001b610810565b61263e7fec6c20395b7f1b83aa9daa396199af6e9a5597a9f7931f8d5c745c6044b014d260001b610810565b612647816106a2565b600b60008373ffffffffffffffffffffffffffffffffffffffff1673ffffffffffffffffffffffffffffffffffffffff168152602001908152602001600020819055506126b67f6006e4802fe51ea1e77ca2d62a1fe31c90d4bcc02232d24608b5ed970e1bf8c160001b610810565b6126e27fcb3145a27b7ecab3e431aae715f6899f5be2557b88e6387ced12c801958d9d1460001b610810565b600954600a60008373ffffffffffffffffffffffffffffffffffffffff1673ffffffffffffffffffffffffffffffffffffffff1681526020019081526020016000208190555050565b6127577f696d301e2911ec45d131b732da3ed11a29310e6fc023fb10cd2e18baec440b6760001b61080d565b6127837f41fb87ee0199a6e26cde0d4eaa7f58eab53246c86955aa10613814416ed7eb0260001b61080d565b6127af7febeac0d7f7116ed013889170f327b7bd02ecc645acecd6c8f4f2e92aa2e8289760001b61080d565b6127c48160015461232990919063ffffffff16565b6001819055506127f67fe5542baf3bdfcca190a3e6fd4436acf573be2900b60de47704078cb67d72279360001b61080d565b6128227f5d977ba5148df832a35936ff4d76f7d45c0ebfdba6758b0a539f6948065e72ca60001b61080d565b61287481600260003373ffffffffffffffffffffffffffffffffffffffff1673ffffffffffffffffffffffffffffffffffffffff1681526020019081526020016000205461232990919063ffffffff16565b600260003373ffffffffffffffffffffffffffffffffffffffff1673ffffffffffffffffffffffffffffffffffffffff168152602001908152602001600020819055506128e37f2680c3e4001163274b55999a1ac19893266353c6e8e0f6e140c63bf3c72b411860001b61080d565b61290f7f62a755b627c674afa808fedf2b797a55ababbc9bd9481330fe2b66c8d587e9cf60001b61080d565b61295b33826000809054906101000a900473ffffffffffffffffffffffffffffffffffffffff1673ffffffffffffffffffffffffffffffffffffffff166138e39092919063ffffffff16565b50565b61298a7f35bc9e5e61c1438a006153cf69ffd6105766a3055440d22f6c8ce219146d68af60001b6114f9565b6129b67fe66c045f45b868efda896f2af22ed71637a4e9e8d13a2b1962badf362ba3eeb960001b6114f9565b6129e27faaa4b517f253b4fa37cb2875514a22e04e7d5828c244c7095a27e85408ccd12c60001b6114f9565b612a0e7f1221da0bd0f16fcbee175d4dae7d6b598e327e79264e77ced4c93a6a0721871b60001b6114f9565b600073ffffffffffffffffffffffffffffffffffffffff168173ffffffffffffffffffffffffffffffffffffffff161415612ab1576040517f08c379a000000000000000000000000000000000000000000000000000000000815260040180806020018281038252601e8152602001807f4163636f756e742063616e6e6f74206265207a65726f2061646472657373000081525060200191505060405180910390fd5b612add7f09f0dc62d572b9e8dd242a1b7e25c3c5de1610d6c480bec35912dd5840f55fec60001b6114f9565b612b097fbe74447fdea037b64141768df2430eb2b7113bef949c88d88dcdc549ba88703360001b6114f9565b612b357f04e66872d3f4c69728dfe545a06401e1b17e0f9dd5e1d43290514ae4fd92783060001b6114f9565b6000612b637f60826eea4af75abd2223d108cb037485a60c485e699a12a42cac24982b89800660001b6114f9565b813b9050612b937f7acec79ba6fd0be7bb4b2bfca56ca8eb3d8333d64e828971ccb7647facc3806360001b6114f9565b612bbf7f0c7e0405db301404f844860b9fe6e14e956a97134ff8695c88184f1c957d6e0860001b6114f9565b612beb7f1c5a94c5a5d640e17d84bedbf9409c7f8afe563c4b1fceef7bced5961764ee0f60001b6114f9565b60008111612c61576040517f08c379a00000000000000000000000000000000000000000000000000000000081526004018080602001828103825260208152602001807f4163636f756e7420636f64652073697a652063616e6e6f74206265207a65726f81525060200191505060405180910390fd5b612c8d7f1023f03b6261b194c29dee3596b0d25a3be14b60910a1d249d0177db54f54c4a60001b6114f9565b5050565b612cbd7f1364a3aec9baabcbbc3250871e858e17f58d42171ab1345b06cc9769849a23c360001b610810565b612ce97ffcdd2e17fc2bd03843c57cdaf5b20f513e6d375b4e79e5dd7a5df8df62716ab160001b610810565b612d157fdd612abb3efd0463328f7ee90c50f4c3c4927b92f328caeb7874097c1d2cfcb860001b610810565b60008211612d1f57fe5b612d4b7ff9828b8c2a6d538ba53c05f028c22a9cb30d4eec2fefbafe2cd51899bf1636ec60001b610810565b612d777f355883f9a562bd1760dbd8ea86b14cc3241f6a42b5ebfd71d98f925c831921fd60001b610810565b600560009054906101000a900473ffffffffffffffffffffffffffffffffffffffff1673ffffffffffffffffffffffffffffffffffffffff166370a08231306040518263ffffffff1660e01b8152600401808273ffffffffffffffffffffffffffffffffffffffff1673ffffffffffffffffffffffffffffffffffffffff16815260200191505060206040518083038186803b158015612e1657600080fd5b505afa158015612e2a573d6000803e3d6000fd5b505050506040513d6020811015612e4057600080fd5b81019080805190602001909291905050508214612e5957fe5b612e857f88c6fdd71170665dc1340a975137d8e9e739d7d878c80a4cd3ba082eb6ff489d60001b610810565b612eb17f5212df154e9d93cee74d35ede6cc3874ac0d04f8ec9e422e091b0a5423ac091360001b610810565b600060065414612ebd57fe5b612ee97f5eabd0b4ea02b35564d37705429b67fa13d0a2be69d5d1640ac735331c66e0dd60001b610810565b612f157f9bc69743b4311fb4bfb242d05e38e294e7145e08b91be67a9c122a4861446ff360001b610810565b612f1d6137e9565b612f497f7bf81dc5ecf620e73c4311cd5c1505e1fb2fd72fa8b8dcce08160733d1a72de160001b610810565b612f757fd88f5f06c7eed0508928e6f7c30107ba0ac5175c33de96668d5dce661674b88a60001b610810565b612f8881836123f990919063ffffffff16565b600781905550612fba7f915e37b2399c114738abc8aad4ab16f1b9a63b60da5db3521925c4bcd6445c5d60001b610810565b612fe67f5e182e6e0e8f69a2921060bbac0daf856d27dbf48e503efb961a847fa4698bda60001b610810565b426008819055506130197fdf5f9471b5922c1f28d7977a83c5b1dba079df991ee271dc48a16582ee3ea26260001b610810565b6130457fa4412422901f4dedc1376fbd2bc94870733976e268230b11c8f7fabf07ffd39560001b610810565b613058814261244390919063ffffffff16565b60068190555061308a7fa910344b430cf3843cddec4f0df544fdbf7771447e4819d8aa66b4fd29cb512660001b610810565b6130b67f71f670037feff2fbdb88ca79f544bcb53a57d9ed1976b3a00ab7a00f4a7d8be060001b610810565b7fde88a922e0d3b88b24e9623efeb464919c6bf9f66857a65e2bfcf2ce87a9433d826040518082815260200191505060405180910390a15050565b600073ffffffffffffffffffffffffffffffffffffffff16600360009054906101000a900473ffffffffffffffffffffffffffffffffffffffff1673ffffffffffffffffffffffffffffffffffffffff167f8be0079c531659141344cd1fd0a4f28419497f9722a3daafe3b4186f6b6457e060405160405180910390a36000600360006101000a81548173ffffffffffffffffffffffffffffffffffffffff021916908373ffffffffffffffffffffffffffffffffffffffff160217905550565b60006131e07f47d1f47bc050b9504bdb99b9bb5b4ef650bd54eba129f8f462ba53eeb800e1aa60001b61399b565b61320c7f8bd1b7c6f317176e126becf0775e874110a4f4c3632da3308f1b96d29114d76f60001b61399b565b6132387f306334dc7786218d10d6d1fbfce931f8906c3249c067df2bd86b69566eb3362460001b61399b565b8183106132455781613247565b825b905092915050565b61327b7fa979955edabffd2dee1bf08fe2a2254135ad27cf1e3aa00e9b1495e7a5ad336a60001b610810565b6132a77fb83f581328cab0eba40522927209afd071526ebb0295ce694e2709cda6b394f260001b610810565b6132d37fa7f7285e1b9c485b690648797bc801186207364f54673bc81f3f7dffb5699bae60001b610810565b60006132dd610831565b14156133ff5761330f7f8b6853718a17d23f5449e0cbe2bc94fde6d132545aea860355895e99058dfcb060001b610810565b61333b7feeb24887e2a84e295fde23ef0cbca8474ad267f9d427f470001a3d144e9bc35960001b610810565b6133677fc1caa04a95952c429c787f4272dfd95d2d98908da7a7f54e009b5458a67f66c560001b610810565b60006006541161337357fe5b61339f7fde098e9f6b8262c67d9205aa052941aebbf1dc99e66388606dc12671645886af60001b610810565b6133cb7fcba03e3678c6e5b1ec94bb10765dc6b2db0151ae19f64aa78bc6f6884d49cf1060001b610810565b6133f46133e36008544261232990919063ffffffff16565b60065461244390919063ffffffff16565b60068190555061342c565b61342b7feed01abf20c5405b2b8c9c4def6ee7286639ce1c73ecaed2c7a55bca0e17f7da60001b610810565b5b565b61345a7fda10eed1b67753666d3ee630e2e0f147b0de33d8ca5c8cfd942d1b6ad469196e60001b61080d565b6134867f15e34b24edcf168d358b9baf3394467afdfed9518980b20676e9d6d98fbc240d60001b61080d565b6134b27f531e24a0a4c0e818a82fd5c28f55b246c3cc25da9ae04e939b205bac50df5c6460001b61080d565b6134c78160015461244390919063ffffffff16565b6001819055506134f97fca8d8d735f8bda127b50dab4c01563cbc48814d0540dd0fc4edf8d7d9ee3a73c60001b61080d565b6135257f3cd848c382906da0c1d8570d0e21bc8045aedb79a6aacf461ec1d62beae75c1560001b61080d565b61357781600260003373ffffffffffffffffffffffffffffffffffffffff1673ffffffffffffffffffffffffffffffffffffffff1681526020019081526020016000205461244390919063ffffffff16565b600260003373ffffffffffffffffffffffffffffffffffffffff1673ffffffffffffffffffffffffffffffffffffffff168152602001908152602001600020819055506135e67f6744ff425f0ee26a9c477ebbf1ea1d64e4e05f38379c3b505bcc06338bcdf04860001b61080d565b6136127f20a0955aa38fee0bbb8a7f0d97bf1ff8801f6a89cf29947fc21866880a6a6a4660001b61080d565b6136603330836000809054906101000a900473ffffffffffffffffffffffffffffffffffffffff1673ffffffffffffffffffffffffffffffffffffffff1661399e909392919063ffffffff16565b50565b6000838311158290613710576040517f08c379a00000000000000000000000000000000000000000000000000000000081526004018080602001828103825283818151815260200191508051906020019080838360005b838110156136d55780820151818401526020810190506136ba565b50505050905090810190601f1680156137025780820380516001836020036101000a031916815260200191505b509250505060405180910390fd5b5060008385039050809150509392505050565b600080831182906137cf576040517f08c379a00000000000000000000000000000000000000000000000000000000081526004018080602001828103825283818151815260200191508051906020019080838360005b83811015613794578082015181840152602081019050613779565b50505050905090810190601f1680156137c15780820380516001836020036101000a031916815260200191505b509250505060405180910390fd5b5060008385816137db57fe5b049050809150509392505050565b6138157f1ae137a4f1bf623b926d1361568a7b2855c022d40078b5c72b872731a749f6c460001b610810565b6138417f835cb5c609dd4679472c4a8715b94d6a6f9b4c79d32b81766be89f5a6548ce8760001b610810565b61386d7fb1186ac69d4a82959e267246042fa81ca15bdd367e318ff4434c5983f1bebdf660001b610810565b613875612001565b6009819055506138a77fd225c41552ab108fdef936abc36d7f16afb5f7456f119cbd36d74a726dec24e460001b610810565b6138d37ffe8fb91813cb056ec0a2c7b241868a5d4d69775cf401a1f2db1866d9a5c5118f60001b610810565b6138db6113a3565b600881905550565b6139968363a9059cbb60e01b8484604051602401808373ffffffffffffffffffffffffffffffffffffffff1673ffffffffffffffffffffffffffffffffffffffff16815260200182815260200192505050604051602081830303815290604052907bffffffffffffffffffffffffffffffffffffffffffffffffffffffff19166020820180517bffffffffffffffffffffffffffffffffffffffffffffffffffffffff8381831617835250505050613a8b565b505050565b50565b613a85846323b872dd60e01b858585604051602401808473ffffffffffffffffffffffffffffffffffffffff1673ffffffffffffffffffffffffffffffffffffffff1681526020018373ffffffffffffffffffffffffffffffffffffffff1673ffffffffffffffffffffffffffffffffffffffff1681526020018281526020019350505050604051602081830303815290604052907bffffffffffffffffffffffffffffffffffffffffffffffffffffffff19166020820180517bffffffffffffffffffffffffffffffffffffffffffffffffffffffff8381831617835250505050613a8b565b50505050565b6060613aed826040518060400160405280602081526020017f5361666545524332303a206c6f772d6c6576656c2063616c6c206661696c65648152508573ffffffffffffffffffffffffffffffffffffffff16613b7a9092919063ffffffff16565b9050600081511115613b7557808060200190516020811015613b0e57600080fd5b8101908080519060200190929190505050613b74576040517f08c379a000000000000000000000000000000000000000000000000000000000815260040180806020018281038252602a815260200180613e8b602a913960400191505060405180910390fd5b5b505050565b6060613b898484600085613b92565b90509392505050565b606082471015613bed576040517f08c379a0000000000000000000000000000000000000000000000000000000008152600401808060200182810382526026815260200180613e446026913960400191505060405180910390fd5b613bf685613d3b565b613c68576040517f08c379a000000000000000000000000000000000000000000000000000000000815260040180806020018281038252601d8152602001807f416464726573733a2063616c6c20746f206e6f6e2d636f6e747261637400000081525060200191505060405180910390fd5b600060608673ffffffffffffffffffffffffffffffffffffffff1685876040518082805190602001908083835b60208310613cb85780518252602082019150602081019050602083039250613c95565b6001836020036101000a03801982511681845116808217855250505050505090500191505060006040518083038185875af1925050503d8060008114613d1a576040519150601f19603f3d011682016040523d82523d6000602084013e613d1f565b606091505b5091509150613d2f828286613d4e565b92505050949350505050565b600080823b905060008111915050919050565b60608315613d5e57829050613e13565b600083511115613d715782518084602001fd5b816040517f08c379a00000000000000000000000000000000000000000000000000000000081526004018080602001828103825283818151815260200191508051906020019080838360005b83811015613dd8578082015181840152602081019050613dbd565b50505050905090810190601f168015613e055780820380516001836020036101000a031916815260200191505b509250505060405180910390fd5b939250505056fe4c697175696469747920506f6f6c20546f6b656e20686173206e6f74206265656e2073657420796574416464726573733a20696e73756666696369656e742062616c616e636520666f722063616c6c536166654d6174683a206d756c7469706c69636174696f6e206f766572666c6f775361666545524332303a204552433230206f7065726174696f6e20646964206e6f742073756363656564a26469706673582212209cf82a7ba7a59939656657bcc1b348523ab858073a049994893f4b9277465af664736f6c634300060b0033",
  "linkReferences": {},
  "deployedLinkReferences": {}
}